{
  "abi": [
    {
      "inputs": [],
      "stateMutability": "nonpayable",
      "type": "constructor"
    },
    {
      "inputs": [
        {
          "internalType": "address",
          "name": "operator",
          "type": "address"
        }
      ],
      "name": "OperatorNotAllowed",
      "type": "error"
    },
    {
      "anonymous": false,
      "inputs": [
        {
          "indexed": false,
          "internalType": "address",
          "name": "previousAdmin",
          "type": "address"
        },
        {
          "indexed": false,
          "internalType": "address",
          "name": "newAdmin",
          "type": "address"
        }
      ],
      "name": "AdminChanged",
      "type": "event"
    },
    {
      "anonymous": false,
      "inputs": [
        {
          "indexed": false,
          "internalType": "address",
          "name": "admin",
          "type": "address"
        },
        {
          "indexed": false,
          "internalType": "bool",
          "name": "added",
          "type": "bool"
        }
      ],
      "name": "AdminUpdated",
      "type": "event"
    },
    {
      "anonymous": false,
      "inputs": [
        {
          "indexed": true,
          "internalType": "address",
          "name": "owner",
          "type": "address"
        },
        {
          "indexed": true,
          "internalType": "address",
          "name": "approved",
          "type": "address"
        },
        {
          "indexed": true,
          "internalType": "uint256",
          "name": "tokenId",
          "type": "uint256"
        }
      ],
      "name": "Approval",
      "type": "event"
    },
    {
      "anonymous": false,
      "inputs": [
        {
          "indexed": true,
          "internalType": "address",
          "name": "owner",
          "type": "address"
        },
        {
          "indexed": true,
          "internalType": "address",
          "name": "operator",
          "type": "address"
        },
        {
          "indexed": false,
          "internalType": "bool",
          "name": "approved",
          "type": "bool"
        }
      ],
      "name": "ApprovalForAll",
      "type": "event"
    },
    {
      "anonymous": false,
      "inputs": [
        {
          "indexed": true,
          "internalType": "address",
          "name": "beacon",
          "type": "address"
        }
      ],
      "name": "BeaconUpgraded",
      "type": "event"
    },
    {
      "anonymous": false,
      "inputs": [
        {
          "indexed": false,
          "internalType": "uint8",
          "name": "version",
          "type": "uint8"
        }
      ],
      "name": "Initialized",
      "type": "event"
    },
    {
      "anonymous": false,
      "inputs": [
        {
          "indexed": false,
          "internalType": "uint256",
          "name": "tokenId",
          "type": "uint256"
        }
      ],
      "name": "Locked",
      "type": "event"
    },
    {
      "anonymous": false,
      "inputs": [
        {
          "indexed": true,
          "internalType": "address",
          "name": "previousOwner",
          "type": "address"
        },
        {
          "indexed": true,
          "internalType": "address",
          "name": "newOwner",
          "type": "address"
        }
      ],
      "name": "OwnershipTransferred",
      "type": "event"
    },
    {
      "anonymous": false,
      "inputs": [
        {
          "indexed": false,
          "internalType": "address",
          "name": "account",
          "type": "address"
        }
      ],
      "name": "Paused",
      "type": "event"
    },
    {
      "anonymous": false,
      "inputs": [
        {
          "indexed": true,
          "internalType": "uint256",
          "name": "tokenId",
          "type": "uint256"
        },
        {
          "indexed": false,
          "internalType": "uint64",
          "name": "expiration",
          "type": "uint64"
        }
      ],
      "name": "SubscriptionUpdate",
      "type": "event"
    },
    {
      "anonymous": false,
      "inputs": [
        {
          "indexed": true,
          "internalType": "address",
          "name": "from",
          "type": "address"
        },
        {
          "indexed": true,
          "internalType": "address",
          "name": "to",
          "type": "address"
        },
        {
          "indexed": true,
          "internalType": "uint256",
          "name": "tokenId",
          "type": "uint256"
        }
      ],
      "name": "Transfer",
      "type": "event"
    },
    {
      "anonymous": false,
      "inputs": [
        {
          "indexed": false,
          "internalType": "uint256",
          "name": "tokenId",
          "type": "uint256"
        }
      ],
      "name": "Unlocked",
      "type": "event"
    },
    {
      "anonymous": false,
      "inputs": [
        {
          "indexed": false,
          "internalType": "address",
          "name": "account",
          "type": "address"
        }
      ],
      "name": "Unpaused",
      "type": "event"
    },
    {
      "anonymous": false,
      "inputs": [
        {
          "indexed": true,
          "internalType": "address",
          "name": "implementation",
          "type": "address"
        }
      ],
      "name": "Upgraded",
      "type": "event"
    },
    {
      "inputs": [
        {
          "internalType": "address",
          "name": "newAdmin",
          "type": "address"
        }
      ],
      "name": "addAdmin",
      "outputs": [],
      "stateMutability": "nonpayable",
      "type": "function"
    },
    {
      "inputs": [
        {
          "internalType": "address",
          "name": "operator",
          "type": "address"
        },
        {
          "internalType": "uint256",
          "name": "tokenId",
          "type": "uint256"
        }
      ],
      "name": "approve",
      "outputs": [],
      "stateMutability": "nonpayable",
      "type": "function"
    },
    {
      "inputs": [
        {
          "internalType": "address",
          "name": "owner",
          "type": "address"
        }
      ],
      "name": "balanceOf",
      "outputs": [
        {
          "internalType": "uint256",
          "name": "",
          "type": "uint256"
        }
      ],
      "stateMutability": "view",
      "type": "function"
    },
    {
      "inputs": [
        {
          "internalType": "uint256",
          "name": "tokenId",
          "type": "uint256"
        }
      ],
      "name": "burn",
      "outputs": [],
      "stateMutability": "nonpayable",
      "type": "function"
    },
    {
      "inputs": [
        {
          "internalType": "uint256",
          "name": "tokenId",
          "type": "uint256"
        }
      ],
      "name": "cancelSubscription",
      "outputs": [],
      "stateMutability": "nonpayable",
      "type": "function"
    },
    {
      "inputs": [
        {
          "internalType": "uint256",
          "name": "collectionId",
          "type": "uint256"
        }
      ],
      "name": "collectionURI",
      "outputs": [
        {
          "internalType": "string",
          "name": "",
          "type": "string"
        }
      ],
      "stateMutability": "view",
      "type": "function"
    },
    {
      "inputs": [],
      "name": "contractURI",
      "outputs": [
        {
          "internalType": "string",
          "name": "",
          "type": "string"
        }
      ],
      "stateMutability": "view",
      "type": "function"
    },
    {
      "inputs": [
        {
          "internalType": "uint256",
          "name": "tokenId",
          "type": "uint256"
        }
      ],
      "name": "expiresAt",
      "outputs": [
        {
          "internalType": "uint64",
          "name": "",
          "type": "uint64"
        }
      ],
      "stateMutability": "view",
      "type": "function"
    },
    {
      "inputs": [
        {
          "internalType": "uint256",
          "name": "tokenId",
          "type": "uint256"
        }
      ],
      "name": "getApproved",
      "outputs": [
        {
          "internalType": "address",
          "name": "",
          "type": "address"
        }
      ],
      "stateMutability": "view",
      "type": "function"
    },
    {
      "inputs": [],
      "name": "getTrustedForwarder",
      "outputs": [
        {
          "internalType": "address",
          "name": "forwarder",
          "type": "address"
        }
      ],
      "stateMutability": "view",
      "type": "function"
    },
    {
      "inputs": [
        {
          "internalType": "string",
          "name": "__name",
          "type": "string"
        },
        {
          "internalType": "string",
          "name": "__symbol",
          "type": "string"
        },
        {
          "internalType": "string",
          "name": "__contractURI",
          "type": "string"
        },
        {
          "internalType": "address[]",
          "name": "__admins",
          "type": "address[]"
        }
      ],
      "name": "initialize",
      "outputs": [],
      "stateMutability": "nonpayable",
      "type": "function"
    },
    {
      "inputs": [
        {
          "internalType": "address",
          "name": "admin",
          "type": "address"
        }
      ],
      "name": "isAdmin",
      "outputs": [
        {
          "internalType": "bool",
          "name": "",
          "type": "bool"
        }
      ],
      "stateMutability": "view",
      "type": "function"
    },
    {
      "inputs": [
        {
          "internalType": "address",
          "name": "_owner",
          "type": "address"
        },
        {
          "internalType": "address",
          "name": "_operator",
          "type": "address"
        }
      ],
      "name": "isApprovedForAll",
      "outputs": [
        {
          "internalType": "bool",
          "name": "isOperator",
          "type": "bool"
        }
      ],
      "stateMutability": "view",
      "type": "function"
    },
    {
      "inputs": [
        {
          "internalType": "uint256",
          "name": "tokenId",
          "type": "uint256"
        }
      ],
      "name": "isLocked",
      "outputs": [
        {
          "internalType": "bool",
          "name": "",
          "type": "bool"
        }
      ],
      "stateMutability": "view",
      "type": "function"
    },
    {
      "inputs": [
        {
          "internalType": "uint256",
          "name": "",
          "type": "uint256"
        }
      ],
      "name": "isRenewable",
      "outputs": [
        {
          "internalType": "bool",
          "name": "",
          "type": "bool"
        }
      ],
      "stateMutability": "pure",
      "type": "function"
    },
    {
      "inputs": [
        {
          "internalType": "address",
          "name": "forwarder",
          "type": "address"
        }
      ],
      "name": "isTrustedForwarder",
      "outputs": [
        {
          "internalType": "bool",
          "name": "",
          "type": "bool"
        }
      ],
      "stateMutability": "view",
      "type": "function"
    },
    {
      "inputs": [],
      "name": "lastId",
      "outputs": [
        {
          "internalType": "uint256",
          "name": "",
          "type": "uint256"
        }
      ],
      "stateMutability": "view",
      "type": "function"
    },
    {
      "inputs": [
        {
          "internalType": "uint256",
          "name": "tokenId",
          "type": "uint256"
        }
      ],
      "name": "lockToken",
      "outputs": [],
      "stateMutability": "nonpayable",
      "type": "function"
    },
    {
      "inputs": [
        {
          "internalType": "uint256",
          "name": "collectionId",
          "type": "uint256"
        },
        {
          "internalType": "address[]",
          "name": "to",
          "type": "address[]"
        },
        {
          "internalType": "bool",
          "name": "locked",
          "type": "bool"
        },
        {
          "internalType": "uint64",
          "name": "validDuration",
          "type": "uint64"
        }
      ],
      "name": "mintCollectionToManyUsers",
      "outputs": [
        {
          "internalType": "bool",
          "name": "",
          "type": "bool"
        }
      ],
      "stateMutability": "nonpayable",
      "type": "function"
    },
    {
      "inputs": [
        {
          "internalType": "uint256",
          "name": "collectionId",
          "type": "uint256"
        },
        {
          "internalType": "address",
          "name": "to",
          "type": "address"
        },
        {
          "internalType": "bool",
          "name": "locked",
          "type": "bool"
        },
        {
          "internalType": "uint64",
          "name": "validDuration",
          "type": "uint64"
        }
      ],
      "name": "mintToken",
      "outputs": [
        {
          "internalType": "bool",
          "name": "",
          "type": "bool"
        }
      ],
      "stateMutability": "nonpayable",
      "type": "function"
    },
    {
      "inputs": [
        {
          "internalType": "uint256[]",
          "name": "collectionIds",
          "type": "uint256[]"
        },
        {
          "internalType": "address",
          "name": "to",
          "type": "address"
        },
        {
          "internalType": "bool",
          "name": "locked",
          "type": "bool"
        },
        {
          "internalType": "uint64",
          "name": "validDuration",
          "type": "uint64"
        }
      ],
      "name": "mintUserToManyCollections",
      "outputs": [
        {
          "internalType": "bool",
          "name": "",
          "type": "bool"
        }
      ],
      "stateMutability": "nonpayable",
      "type": "function"
    },
    {
      "inputs": [],
      "name": "name",
      "outputs": [
        {
          "internalType": "string",
          "name": "",
          "type": "string"
        }
      ],
      "stateMutability": "view",
      "type": "function"
    },
    {
      "inputs": [],
      "name": "owner",
      "outputs": [
        {
          "internalType": "address",
          "name": "",
          "type": "address"
        }
      ],
      "stateMutability": "view",
      "type": "function"
    },
    {
      "inputs": [
        {
          "internalType": "uint256",
          "name": "tokenId",
          "type": "uint256"
        }
      ],
      "name": "ownerOf",
      "outputs": [
        {
          "internalType": "address",
          "name": "",
          "type": "address"
        }
      ],
      "stateMutability": "view",
      "type": "function"
    },
    {
      "inputs": [],
      "name": "pause",
      "outputs": [],
      "stateMutability": "nonpayable",
      "type": "function"
    },
    {
      "inputs": [],
      "name": "paused",
      "outputs": [
        {
          "internalType": "bool",
          "name": "",
          "type": "bool"
        }
      ],
      "stateMutability": "view",
      "type": "function"
    },
    {
      "inputs": [],
      "name": "proxiableUUID",
      "outputs": [
        {
          "internalType": "bytes32",
          "name": "",
          "type": "bytes32"
        }
      ],
      "stateMutability": "view",
      "type": "function"
    },
    {
      "inputs": [
        {
          "internalType": "uint256",
          "name": "tokenId",
          "type": "uint256"
        },
        {
          "internalType": "address",
          "name": "recipient",
          "type": "address"
        }
      ],
      "name": "reclaimToken",
      "outputs": [],
      "stateMutability": "nonpayable",
      "type": "function"
    },
    {
      "inputs": [
        {
          "internalType": "address",
          "name": "admin",
          "type": "address"
        }
      ],
      "name": "removeAdmin",
      "outputs": [],
      "stateMutability": "nonpayable",
      "type": "function"
    },
    {
      "inputs": [
        {
          "internalType": "uint256",
          "name": "collectionId",
          "type": "uint256"
        }
      ],
      "name": "removeCollectionRoyalty",
      "outputs": [],
      "stateMutability": "nonpayable",
      "type": "function"
    },
    {
      "inputs": [],
      "name": "removeDefaultRoyalty",
      "outputs": [],
      "stateMutability": "nonpayable",
      "type": "function"
    },
    {
      "inputs": [
        {
          "internalType": "uint256",
          "name": "tokenId",
          "type": "uint256"
        },
        {
          "internalType": "uint64",
          "name": "duration",
          "type": "uint64"
        }
      ],
      "name": "renewSubscription",
      "outputs": [],
      "stateMutability": "nonpayable",
      "type": "function"
    },
    {
      "inputs": [],
      "name": "renounceOwnership",
      "outputs": [],
      "stateMutability": "nonpayable",
      "type": "function"
    },
    {
      "inputs": [
        {
          "internalType": "uint256",
          "name": "_tokenId",
          "type": "uint256"
        },
        {
          "internalType": "uint256",
          "name": "_salePrice",
          "type": "uint256"
        }
      ],
      "name": "royaltyInfo",
      "outputs": [
        {
          "internalType": "address",
          "name": "",
          "type": "address"
        },
        {
          "internalType": "uint256",
          "name": "",
          "type": "uint256"
        }
      ],
      "stateMutability": "view",
      "type": "function"
    },
    {
      "inputs": [
        {
          "internalType": "address",
          "name": "from",
          "type": "address"
        },
        {
          "internalType": "address",
          "name": "to",
          "type": "address"
        },
        {
          "internalType": "uint256",
          "name": "tokenId",
          "type": "uint256"
        }
      ],
      "name": "safeTransferFrom",
      "outputs": [],
      "stateMutability": "nonpayable",
      "type": "function"
    },
    {
      "inputs": [
        {
          "internalType": "address",
          "name": "from",
          "type": "address"
        },
        {
          "internalType": "address",
          "name": "to",
          "type": "address"
        },
        {
          "internalType": "uint256",
          "name": "tokenId",
          "type": "uint256"
        },
        {
          "internalType": "bytes",
          "name": "data",
          "type": "bytes"
        }
      ],
      "name": "safeTransferFrom",
      "outputs": [],
      "stateMutability": "nonpayable",
      "type": "function"
    },
    {
      "inputs": [
        {
          "internalType": "address",
          "name": "operator",
          "type": "address"
        },
        {
          "internalType": "bool",
          "name": "approved",
          "type": "bool"
        }
      ],
      "name": "setApprovalForAll",
      "outputs": [],
      "stateMutability": "nonpayable",
      "type": "function"
    },
    {
      "inputs": [
        {
          "internalType": "uint256",
          "name": "tokenId",
          "type": "uint256"
        },
        {
          "internalType": "uint64",
          "name": "newExpiration",
          "type": "uint64"
        }
      ],
      "name": "setExpiration",
      "outputs": [],
      "stateMutability": "nonpayable",
      "type": "function"
    },
    {
      "inputs": [
        {
          "internalType": "uint256",
          "name": "newLastId",
          "type": "uint256"
        }
      ],
      "name": "setLastId",
      "outputs": [],
      "stateMutability": "nonpayable",
      "type": "function"
    },
    {
      "inputs": [
        {
          "internalType": "address",
          "name": "forwarder",
          "type": "address"
        }
      ],
      "name": "setTurstedForwarder",
      "outputs": [],
      "stateMutability": "nonpayable",
      "type": "function"
    },
    {
      "inputs": [
        {
          "internalType": "bytes4",
          "name": "interfaceId",
          "type": "bytes4"
        }
      ],
      "name": "supportsInterface",
      "outputs": [
        {
          "internalType": "bool",
          "name": "",
          "type": "bool"
        }
      ],
      "stateMutability": "view",
      "type": "function"
    },
    {
      "inputs": [],
      "name": "symbol",
      "outputs": [
        {
          "internalType": "string",
          "name": "",
          "type": "string"
        }
      ],
      "stateMutability": "view",
      "type": "function"
    },
    {
      "inputs": [
        {
          "internalType": "uint256",
          "name": "tokenId",
          "type": "uint256"
        }
      ],
      "name": "tokenCollection",
      "outputs": [
        {
          "internalType": "uint256",
          "name": "",
          "type": "uint256"
        }
      ],
      "stateMutability": "view",
      "type": "function"
    },
    {
      "inputs": [
        {
          "internalType": "uint256",
          "name": "tokenId",
          "type": "uint256"
        }
      ],
      "name": "tokenURI",
      "outputs": [
        {
          "internalType": "string",
          "name": "",
          "type": "string"
        }
      ],
      "stateMutability": "view",
      "type": "function"
    },
    {
      "inputs": [
        {
          "internalType": "address",
          "name": "from",
          "type": "address"
        },
        {
          "internalType": "address",
          "name": "to",
          "type": "address"
        },
        {
          "internalType": "uint256",
          "name": "tokenId",
          "type": "uint256"
        }
      ],
      "name": "transferFrom",
      "outputs": [],
      "stateMutability": "nonpayable",
      "type": "function"
    },
    {
      "inputs": [
        {
          "internalType": "address",
          "name": "newOwner",
          "type": "address"
        }
      ],
      "name": "transferOwnership",
      "outputs": [],
      "stateMutability": "nonpayable",
      "type": "function"
    },
    {
      "inputs": [
        {
          "internalType": "uint256",
          "name": "tokenId",
          "type": "uint256"
        }
      ],
      "name": "unlockToken",
      "outputs": [],
      "stateMutability": "nonpayable",
      "type": "function"
    },
    {
      "inputs": [],
      "name": "unpause",
      "outputs": [],
      "stateMutability": "nonpayable",
      "type": "function"
    },
    {
      "inputs": [
        {
          "internalType": "uint256",
          "name": "collectionId",
          "type": "uint256"
        },
        {
          "internalType": "address",
          "name": "receiver",
          "type": "address"
        },
        {
          "internalType": "uint96",
          "name": "feeNumerator",
          "type": "uint96"
        }
      ],
      "name": "updateCollectionRoyalty",
      "outputs": [],
      "stateMutability": "nonpayable",
      "type": "function"
    },
    {
      "inputs": [
        {
          "internalType": "string",
          "name": "__contractURI",
          "type": "string"
        }
      ],
      "name": "updateContractURI",
      "outputs": [],
      "stateMutability": "nonpayable",
      "type": "function"
    },
    {
      "inputs": [
        {
          "internalType": "address",
          "name": "receiver",
          "type": "address"
        },
        {
          "internalType": "uint96",
          "name": "feeNumerator",
          "type": "uint96"
        }
      ],
      "name": "updateDefaultRoyalty",
      "outputs": [],
      "stateMutability": "nonpayable",
      "type": "function"
    },
    {
      "inputs": [
        {
          "internalType": "string",
          "name": "newName",
          "type": "string"
        }
      ],
      "name": "updateName",
      "outputs": [],
      "stateMutability": "nonpayable",
      "type": "function"
    },
    {
      "inputs": [
        {
          "internalType": "string",
          "name": "newSymbol",
          "type": "string"
        }
      ],
      "name": "updateSymbol",
      "outputs": [],
      "stateMutability": "nonpayable",
      "type": "function"
    },
    {
      "inputs": [
        {
          "internalType": "uint256",
          "name": "tokenId",
          "type": "uint256"
        },
        {
          "internalType": "uint256",
          "name": "newCollectionId",
          "type": "uint256"
        }
      ],
      "name": "updateTokenCollection",
      "outputs": [],
      "stateMutability": "nonpayable",
      "type": "function"
    },
    {
      "inputs": [
        {
          "internalType": "address",
          "name": "newImplementation",
          "type": "address"
        }
      ],
      "name": "upgradeTo",
      "outputs": [],
      "stateMutability": "nonpayable",
      "type": "function"
    },
    {
      "inputs": [
        {
          "internalType": "address",
          "name": "newImplementation",
          "type": "address"
        },
        {
          "internalType": "bytes",
          "name": "data",
          "type": "bytes"
        }
      ],
      "name": "upgradeToAndCall",
      "outputs": [],
      "stateMutability": "payable",
      "type": "function"
    },
    {
      "inputs": [],
      "name": "version",
      "outputs": [
        {
          "internalType": "uint16",
          "name": "",
          "type": "uint16"
        }
      ],
      "stateMutability": "view",
      "type": "function"
    }
  ],
  "bytecode": {
    "object": "0x60a0604052306080523480156200001557600080fd5b506200002062000026565b620000e8565b600054610100900460ff1615620000935760405162461bcd60e51b815260206004820152602760248201527f496e697469616c697a61626c653a20636f6e747261637420697320696e697469604482015266616c697a696e6760c81b606482015260840160405180910390fd5b60005460ff9081161015620000e6576000805460ff191660ff9081179091556040519081527f7f26b83ff96e1f2b6a682f133852f6798a09c465da95921460cefb38474024989060200160405180910390a15b565b608051614d0a620001206000396000818161113a0152818161117a01528181611397015281816113d7015261146a0152614d0a6000f3fe6080604052600436106103765760003560e01c8063715018a6116101d1578063c1292cc311610102578063d953e4d4116100a0578063f2fde38b1161006f578063f2fde38b14610a5d578063f6aacfb114610a7d578063fb1fcca114610aae578063fe94630914610ace57600080fd5b8063d953e4d4146109e8578063dd2e0ac014610a08578063e8a3d48514610a28578063e985e9c514610a3d57600080fd5b8063ce1b815f116100dc578063ce1b815f14610969578063cea0302e14610988578063d1c332de146109a8578063d691e43c146109c857600080fd5b8063c1292cc314610911578063c87b56dd14610928578063cde317af1461094857600080fd5b80638da5cb5b1161016f57806397ec4fba1161014957806397ec4fba1461089c5780639a80c5e3146108b1578063a22cb465146108d1578063b88d4fde146108f157600080fd5b80638da5cb5b146108495780638e45d62e1461086757806395d89b411461088757600080fd5b806380f20363116101ab57806380f20363146107d45780638456cb59146107f457806384da92a7146108095780638d2320941461082957600080fd5b8063715018a61461077f578063776ce868146107945780637e5b1e24146107b457600080fd5b80633f4ba83a116102ab578063572b6c05116102495780636352211e116102235780636352211e146106ff5780636a662a3c1461071f578063704802751461073f57806370a082311461075f57600080fd5b8063572b6c051461069757806359ce12ad146106c75780635c975abb146106e757600080fd5b80634f1ef286116102855780634f1ef2861461062057806352d1902d14610633578063537f53121461064857806354fd4d501461066857600080fd5b80633f4ba83a146105cb57806342842e0e146105e057806342966c681461060057600080fd5b80631a27e85f1161031857806324d7806c116102f257806324d7806c146105045780632a55205a1461053e5780632dd883e81461057d5780633659cfe6146105ab57600080fd5b80631a27e85f146104a457806321235083146104c457806323b872dd146104e457600080fd5b8063095ea7b311610354578063095ea7b31461040a5780631771c96c1461042c5780631785f53c1461044c57806317c957091461046c57600080fd5b806301ffc9a71461037b57806306fdde03146103b0578063081812fc146103d2575b600080fd5b34801561038757600080fd5b5061039b61039636600461406b565b610aee565b60405190151581526020015b60405180910390f35b3480156103bc57600080fd5b506103c5610b34565b6040516103a791906140d8565b3480156103de57600080fd5b506103f26103ed3660046140eb565b610bc7565b6040516001600160a01b0390911681526020016103a7565b34801561041657600080fd5b5061042a610425366004614120565b610bee565b005b34801561043857600080fd5b506103c56104473660046140eb565b610cbc565b34801561045857600080fd5b5061042a61046736600461414a565b610cf1565b34801561047857600080fd5b5061048c6104873660046140eb565b610daa565b6040516001600160401b0390911681526020016103a7565b3480156104b057600080fd5b5061042a6104bf3660046140eb565b610dd2565b3480156104d057600080fd5b5061042a6104df3660046140eb565b610e8c565b3480156104f057600080fd5b5061042a6104ff366004614165565b610f3b565b34801561051057600080fd5b5061039b61051f36600461414a565b6001600160a01b0316600090815261019c602052604090205460ff1690565b34801561054a57600080fd5b5061055e6105593660046141a1565b61104f565b604080516001600160a01b0390931683526020830191909152016103a7565b34801561058957600080fd5b5061059d6105983660046140eb565b611111565b6040519081526020016103a7565b3480156105b757600080fd5b5061042a6105c636600461414a565b611130565b3480156105d757600080fd5b5061042a61120f565b3480156105ec57600080fd5b5061042a6105fb366004614165565b611273565b34801561060c57600080fd5b5061042a61061b3660046140eb565b611357565b61042a61062e366004614265565b61138d565b34801561063f57600080fd5b5061059d61145d565b34801561065457600080fd5b5061042a6106633660046142b2565b611510565b34801561067457600080fd5b50610194546106849061ffff1681565b60405161ffff90911681526020016103a7565b3480156106a357600080fd5b5061039b6106b236600461414a565b610191546001600160a01b0391821691161490565b3480156106d357600080fd5b5061042a6106e23660046142e6565b611577565b3480156106f357600080fd5b5060c95460ff1661039b565b34801561070b57600080fd5b506103f261071a3660046140eb565b6115f6565b34801561072b57600080fd5b5061042a61073a366004614329565b611656565b34801561074b57600080fd5b5061042a61075a36600461414a565b6116bb565b34801561076b57600080fd5b5061059d61077a36600461414a565b6117d3565b34801561078b57600080fd5b5061042a611859565b3480156107a057600080fd5b5061042a6107af36600461437c565b61186b565b3480156107c057600080fd5b5061042a6107cf3660046142b2565b6118d8565b3480156107e057600080fd5b5061042a6107ef3660046140eb565b61193f565b34801561080057600080fd5b5061042a611a5c565b34801561081557600080fd5b5061042a6108243660046142b2565b611abe565b34801561083557600080fd5b5061042a6108443660046143e3565b611b25565b34801561085557600080fd5b5060fb546001600160a01b03166103f2565b34801561087357600080fd5b5061039b6108823660046144a4565b611cdc565b34801561089357600080fd5b506103c5611d76565b3480156108a857600080fd5b5061042a611d86565b3480156108bd57600080fd5b5061039b6108cc3660046144f3565b611deb565b3480156108dd57600080fd5b5061042a6108ec366004614562565b611f7b565b3480156108fd57600080fd5b5061042a61090c366004614599565b61203f565b34801561091d57600080fd5b5061059d6101965481565b34801561093457600080fd5b506103c56109433660046140eb565b612131565b34801561095457600080fd5b5061039b6109633660046140eb565b50600190565b34801561097557600080fd5b50610191546001600160a01b03166103f2565b34801561099457600080fd5b5061042a6109a336600461414a565b61217e565b3480156109b457600080fd5b5061042a6109c336600461437c565b6121f7565b3480156109d457600080fd5b5061042a6109e3366004614600565b6122c0565b3480156109f457600080fd5b5061042a610a033660046140eb565b612324565b348015610a1457600080fd5b5061042a610a233660046140eb565b612390565b348015610a3457600080fd5b506103c5612404565b348015610a4957600080fd5b5061039b610a5836600461462a565b612493565b348015610a6957600080fd5b5061042a610a7836600461414a565b612512565b348015610a8957600080fd5b5061039b610a983660046140eb565b6000908152610198602052604090205460ff1690565b348015610aba57600080fd5b5061039b610ac9366004614654565b612588565b348015610ada57600080fd5b5061042a610ae93660046141a1565b6126eb565b60006001600160e01b03198216638c65f84d60e01b1480610b1f57506001600160e01b0319821663152a902d60e11b145b80610b2e5750610b2e82612769565b92915050565b60606101928054610b44906146b1565b80601f0160208091040260200160405190810160405280929190818152602001828054610b70906146b1565b8015610bbd5780601f10610b9257610100808354040283529160200191610bbd565b820191906000526020600020905b815481529060010190602001808311610ba057829003601f168201915b5050505050905090565b6000610bd2826127b9565b506000908152606960205260409020546001600160a01b031690565b816daaeb6d7670e522a718067333cd4e3b15610cad57604051633185c44d60e21b81523060048201526001600160a01b03821660248201526daaeb6d7670e522a718067333cd4e9063c617113490604401602060405180830381865afa158015610c5c573d6000803e3d6000fd5b505050506040513d601f19601f82011682018060405250810190610c8091906146eb565b610cad57604051633b79c77360e21b81526001600160a01b03821660048201526024015b60405180910390fd5b610cb78383612818565b505050565b6060610195610cca8361293a565b604051602001610cdb92919061477b565b6040516020818303038152906040529050919050565b610cf96129cc565b6001600160a01b0316610d1460fb546001600160a01b031690565b6001600160a01b03161480610d2f5750610d2f61051f6129cc565b610d4b5760405162461bcd60e51b8152600401610ca4906147a0565b6001600160a01b038116600081815261019c60209081526040808320805460ff191690558051938452908301919091527f235bc17e7930760029e9f4d860a2a8089976de5b381cf8380fc11c1d88a1113391015b60405180910390a150565b6000610db5826127b9565b50600090815261019b60205260409020546001600160401b031690565b610dda6129cc565b6001600160a01b0316610df560fb546001600160a01b031690565b6001600160a01b03161480610e105750610e1061051f6129cc565b610e2c5760405162461bcd60e51b8152600401610ca4906147a0565b610e346129db565b806101965410610e865760405162461bcd60e51b815260206004820152601760248201527f4e65772049642068617320746f206265206869676865720000000000000000006044820152606401610ca4565b61019655565b610e946129cc565b6001600160a01b0316610eaf60fb546001600160a01b031690565b6001600160a01b03161480610eca5750610eca61051f6129cc565b610ee65760405162461bcd60e51b8152600401610ca4906147a0565b600081815261019b60209081526040808320805467ffffffffffffffff191690555191825282917f2ec2be2c4b90c2cf13ecb6751a24daed6bb741ae5ed3f7371aabf9402f6d62e8910160405180910390a250565b826daaeb6d7670e522a718067333cd4e3b1561103e57610f596129cc565b6001600160a01b0316816001600160a01b031603610f8157610f7c848484612a21565b611049565b6daaeb6d7670e522a718067333cd4e63c617113430610f9e6129cc565b6040516001600160e01b031960e085901b1681526001600160a01b03928316600482015291166024820152604401602060405180830381865afa158015610fe9573d6000803e3d6000fd5b505050506040513d601f19601f8201168201806040525081019061100d91906146eb565b61103e576110196129cc565b604051633b79c77360e21b81526001600160a01b039091166004820152602401610ca4565b611049848484612a21565b50505050565b600080600061105d85611111565b600081815261019a60209081526040918290208251808401909352546001600160a01b038116808452600160a01b9091046001600160601b031691830191909152919250906110d7575060408051808201909152610199546001600160a01b0381168252600160a01b90046001600160601b031660208201525b6020810151600090612710906110f6906001600160601b0316886147ed565b6111009190614804565b9151945090925050505b9250929050565b600061111c826127b9565b506000908152610197602052604090205490565b6001600160a01b037f00000000000000000000000000000000000000000000000000000000000000001630036111785760405162461bcd60e51b8152600401610ca490614826565b7f00000000000000000000000000000000000000000000000000000000000000006001600160a01b03166111c1600080516020614c8e833981519152546001600160a01b031690565b6001600160a01b0316146111e75760405162461bcd60e51b8152600401610ca490614872565b6111f081612a53565b6040805160008082526020820190925261120c91839190612aad565b50565b6112176129cc565b6001600160a01b031661123260fb546001600160a01b031690565b6001600160a01b0316148061124d575061124d61051f6129cc565b6112695760405162461bcd60e51b8152600401610ca4906147a0565b611271612c18565b565b826daaeb6d7670e522a718067333cd4e3b1561134c576112916129cc565b6001600160a01b0316816001600160a01b0316036112b457610f7c848484612c70565b6daaeb6d7670e522a718067333cd4e63c6171134306112d16129cc565b6040516001600160e01b031960e085901b1681526001600160a01b03928316600482015291166024820152604401602060405180830381865afa15801561131c573d6000803e3d6000fd5b505050506040513d601f19601f8201168201806040525081019061134091906146eb565b61134c576110196129cc565b611049848484612c70565b6113686113626129cc565b82612c8b565b6113845760405162461bcd60e51b8152600401610ca4906148be565b61120c81612ce9565b6001600160a01b037f00000000000000000000000000000000000000000000000000000000000000001630036113d55760405162461bcd60e51b8152600401610ca490614826565b7f00000000000000000000000000000000000000000000000000000000000000006001600160a01b031661141e600080516020614c8e833981519152546001600160a01b031690565b6001600160a01b0316146114445760405162461bcd60e51b8152600401610ca490614872565b61144d82612a53565b61145982826001612aad565b5050565b6000306001600160a01b037f000000000000000000000000000000000000000000000000000000000000000016146114fd5760405162461bcd60e51b815260206004820152603860248201527f555550535570677261646561626c653a206d757374206e6f742062652063616c60448201527f6c6564207468726f7567682064656c656761746563616c6c00000000000000006064820152608401610ca4565b50600080516020614c8e83398151915290565b6115186129cc565b6001600160a01b031661153360fb546001600160a01b031690565b6001600160a01b0316148061154e575061154e61051f6129cc565b61156a5760405162461bcd60e51b8152600401610ca4906147a0565b6101936114598282614951565b61157f6129cc565b6001600160a01b031661159a60fb546001600160a01b031690565b6001600160a01b031614806115b557506115b561051f6129cc565b6115d15760405162461bcd60e51b8152600401610ca4906147a0565b6115da82612d30565b6115e382612d8e565b6114596115ef836115f6565b8284612dd7565b6000818152606760205260408120546001600160a01b031680610b2e5760405162461bcd60e51b8152602060048201526018602482015277115490cdcc8c4e881a5b9d985b1a59081d1bdad95b88125160421b6044820152606401610ca4565b61165e6129cc565b6001600160a01b031661167960fb546001600160a01b031690565b6001600160a01b03161480611694575061169461051f6129cc565b6116b05760405162461bcd60e51b8152600401610ca4906147a0565b610cb7838383612f48565b6116c36129cc565b6001600160a01b03166116de60fb546001600160a01b031690565b6001600160a01b031614806116f957506116f961051f6129cc565b6117155760405162461bcd60e51b8152600401610ca4906147a0565b6001600160a01b0381166117775760405162461bcd60e51b8152602060048201526024808201527f4e65772061646d696e2063616e6e6f7420626520746865207a65726f206164646044820152637265737360e01b6064820152608401610ca4565b6001600160a01b038116600081815261019c6020908152604091829020805460ff191660019081179091558251938452908301527f235bc17e7930760029e9f4d860a2a8089976de5b381cf8380fc11c1d88a111339101610d9f565b60006001600160a01b03821661183d5760405162461bcd60e51b815260206004820152602960248201527f4552433732313a2061646472657373207a65726f206973206e6f7420612076616044820152683634b21037bbb732b960b91b6064820152608401610ca4565b506001600160a01b031660009081526068602052604090205490565b611861613014565b611271600061308d565b6118736129cc565b6001600160a01b031661188e60fb546001600160a01b031690565b6001600160a01b031614806118a957506118a961051f6129cc565b6118c55760405162461bcd60e51b8152600401610ca4906147a0565b6118ce826127b9565b61145982826130df565b6118e06129cc565b6001600160a01b03166118fb60fb546001600160a01b031690565b6001600160a01b03161480611916575061191661051f6129cc565b6119325760405162461bcd60e51b8152600401610ca4906147a0565b6101956114598282614951565b6119476129db565b60405163f6aacfb160e01b8152600481018290528190309063f6aacfb190602401602060405180830381865afa158015611985573d6000803e3d6000fd5b505050506040513d601f19601f820116820180604052508101906119a991906146eb565b156119e85760405162461bcd60e51b815260206004820152600f60248201526e151bdad95b881a5cc81b1bd8dad959608a1b6044820152606401610ca4565b6119f96119f36129cc565b83612c8b565b611a535760405162461bcd60e51b815260206004820152602560248201527f63616c6c6572206973206e6f7420746f6b656e206f776e6572206f72206170706044820152641c9bdd995960da1b6064820152608401610ca4565b61145982613186565b611a646129cc565b6001600160a01b0316611a7f60fb546001600160a01b031690565b6001600160a01b03161480611a9a5750611a9a61051f6129cc565b611ab65760405162461bcd60e51b8152600401610ca4906147a0565b6112716131d2565b611ac66129cc565b6001600160a01b0316611ae160fb546001600160a01b031690565b6001600160a01b03161480611afc5750611afc61051f6129cc565b611b185760405162461bcd60e51b8152600401610ca4906147a0565b6101926114598282614951565b600054610100900460ff1615808015611b455750600054600160ff909116105b80611b5f5750303b158015611b5f575060005460ff166001145b611bc25760405162461bcd60e51b815260206004820152602e60248201527f496e697469616c697a61626c653a20636f6e747261637420697320616c72656160448201526d191e481a5b9a5d1a585b1a5e995960921b6064820152608401610ca4565b6000805460ff191660011790558015611be5576000805461ff0019166101001790555b611bef8686613210565b611bf7613241565b611bff613270565b611c0761329f565b611c0f61329f565b611c176132c6565b610192611c248782614951565b50610193611c328682614951565b50610194805461ffff19169055611c48846118d8565b60005b82811015611c8d57611c7d848483818110611c6857611c68614a10565b905060200201602081019061075a919061414a565b611c8681614a26565b9050611c4b565b508015611cd4576000805461ff0019169055604051600181527f7f26b83ff96e1f2b6a682f133852f6798a09c465da95921460cefb38474024989060200160405180910390a15b505050505050565b6000611ce66129db565b611cee6129cc565b6001600160a01b0316611d0960fb546001600160a01b031690565b6001600160a01b03161480611d245750611d2461051f6129cc565b611d405760405162461bcd60e51b8152600401610ca4906147a0565b60016101966000828254611d549190614a3f565b92505081905550611d6b856101965486868661330c565b90505b949350505050565b60606101938054610b44906146b1565b611d8e6129cc565b6001600160a01b0316611da960fb546001600160a01b031690565b6001600160a01b03161480611dc45750611dc461051f6129cc565b611de05760405162461bcd60e51b8152600401610ca4906147a0565b611271600061019955565b6000611df56129db565b611dfd6129cc565b6001600160a01b0316611e1860fb546001600160a01b031690565b6001600160a01b03161480611e335750611e3361051f6129cc565b611e4f5760405162461bcd60e51b8152600401610ca4906147a0565b6001600160401b03821615611eea57600080611e6b8442614a52565b905060005b86811015611ee25780610196546001611e899190614a3f565b611e939190614a3f565b9250611ec789848a8a85818110611eac57611eac614a10565b9050602002016020810190611ec1919061414a565b8961335e565b50611ed283836121f7565b611edb81614a26565b9050611e70565b505050611f54565b60005b84811015611f5257611f418782610196546001611f0a9190614a3f565b611f149190614a3f565b888885818110611f2657611f26614a10565b9050602002016020810190611f3b919061414a565b8761335e565b50611f4b81614a26565b9050611eed565b505b848490506101966000828254611f6a9190614a3f565b909155506001979650505050505050565b816daaeb6d7670e522a718067333cd4e3b1561203557604051633185c44d60e21b81523060048201526001600160a01b03821660248201526daaeb6d7670e522a718067333cd4e9063c617113490604401602060405180830381865afa158015611fe9573d6000803e3d6000fd5b505050506040513d601f19601f8201168201806040525081019061200d91906146eb565b61203557604051633b79c77360e21b81526001600160a01b0382166004820152602401610ca4565b610cb78383613396565b836daaeb6d7670e522a718067333cd4e3b1561211e5761205d6129cc565b6001600160a01b0316816001600160a01b03160361208657612081858585856133a8565b61212a565b6daaeb6d7670e522a718067333cd4e63c6171134306120a36129cc565b6040516001600160e01b031960e085901b1681526001600160a01b03928316600482015291166024820152604401602060405180830381865afa1580156120ee573d6000803e3d6000fd5b505050506040513d601f19601f8201168201806040525081019061211291906146eb565b61211e576110196129cc565b61212a858585856133a8565b5050505050565b6060600061213e83611111565b905061019561214c8261293a565b6121558561293a565b60405160200161216793929190614a79565b604051602081830303815290604052915050919050565b6121866129cc565b6001600160a01b03166121a160fb546001600160a01b031690565b6001600160a01b031614806121bc57506121bc61051f6129cc565b6121d85760405162461bcd60e51b8152600401610ca4906147a0565b61019180546001600160a01b0319166001600160a01b03831617905550565b6121ff6129cc565b6001600160a01b031661221a60fb546001600160a01b031690565b6001600160a01b03161480612235575061223561051f6129cc565b6122515760405162461bcd60e51b8152600401610ca4906147a0565b61225a826127b9565b600082815261019b6020908152604091829020805467ffffffffffffffff19166001600160401b038516908117909155915191825283917f2ec2be2c4b90c2cf13ecb6751a24daed6bb741ae5ed3f7371aabf9402f6d62e8910160405180910390a25050565b6122c86129cc565b6001600160a01b03166122e360fb546001600160a01b031690565b6001600160a01b031614806122fe57506122fe61051f6129cc565b61231a5760405162461bcd60e51b8152600401610ca4906147a0565b61145982826133db565b61232c6129cc565b6001600160a01b031661234760fb546001600160a01b031690565b6001600160a01b03161480612362575061236261051f6129cc565b61237e5760405162461bcd60e51b8152600401610ca4906147a0565b600090815261019a6020526040812055565b6123986129cc565b6001600160a01b03166123b360fb546001600160a01b031690565b6001600160a01b031614806123ce57506123ce61051f6129cc565b6123ea5760405162461bcd60e51b8152600401610ca4906147a0565b6123f26129db565b6123fb81612d30565b61120c81612d8e565b6101958054612412906146b1565b80601f016020809104026020016040519081016040528092919081815260200182805461243e906146b1565b801561248b5780601f106124605761010080835404028352916020019161248b565b820191906000526020600020905b81548152906001019060200180831161246e57829003601f168201915b505050505081565b60006001600160a01b0382166e6c3852cbef3e08e8df289169ede58114806124d457506001600160a01b038216600090815261019c602052604090205460ff165b156124e157506001610b2e565b6001600160a01b038084166000908152606a602090815260408083209386168352929052205460ff165b9392505050565b61251a613014565b6001600160a01b03811661257f5760405162461bcd60e51b815260206004820152602660248201527f4f776e61626c653a206e6577206f776e657220697320746865207a65726f206160448201526564647265737360d01b6064820152608401610ca4565b61120c8161308d565b60006125926129db565b61259a6129cc565b6001600160a01b03166125b560fb546001600160a01b031690565b6001600160a01b031614806125d057506125d061051f6129cc565b6125ec5760405162461bcd60e51b8152600401610ca4906147a0565b6001600160401b03821615612679576000806126088442614a52565b905060005b8781101561267157806101965460016126269190614a3f565b6126309190614a3f565b925061265689898381811061264757612647614a10565b9050602002013584898961335e565b5061266183836121f7565b61266a81614a26565b905061260d565b5050506126d5565b60005b858110156126d3576126c287878381811061269957612699614a10565b90506020020135826101965460016126b19190614a3f565b6126bb9190614a3f565b878761335e565b506126cc81614a26565b905061267c565b505b858590506101966000828254611f6a9190614a3f565b6126f36129cc565b6001600160a01b031661270e60fb546001600160a01b031690565b6001600160a01b03161480612729575061272961051f6129cc565b6127455760405162461bcd60e51b8152600401610ca4906147a0565b61274d6129db565b612756826127b9565b6000918252610197602052604090912055565b60006001600160e01b031982166380ac58cd60e01b148061279a57506001600160e01b03198216635b5e139f60e01b145b80610b2e57506301ffc9a760e01b6001600160e01b0319831614610b2e565b6000818152606760205260409020546001600160a01b031661120c5760405162461bcd60e51b8152602060048201526018602482015277115490cdcc8c4e881a5b9d985b1a59081d1bdad95b88125160421b6044820152606401610ca4565b6000612823826115f6565b9050806001600160a01b0316836001600160a01b0316036128905760405162461bcd60e51b815260206004820152602160248201527f4552433732313a20617070726f76616c20746f2063757272656e74206f776e656044820152603960f91b6064820152608401610ca4565b806001600160a01b03166128a26129cc565b6001600160a01b031614806128be57506128be81610a586129cc565b6129305760405162461bcd60e51b815260206004820152603d60248201527f4552433732313a20617070726f76652063616c6c6572206973206e6f7420746f60448201527f6b656e206f776e6572206f7220617070726f76656420666f7220616c6c0000006064820152608401610ca4565b610cb78383613496565b6060600061294783613504565b60010190506000816001600160401b03811115612966576129666141c3565b6040519080825280601f01601f191660200182016040528015612990576020820181803683370190505b5090508181016020015b600019016f181899199a1a9b1b9c1cb0b131b232b360811b600a86061a8153600a850494508461299a57509392505050565b60006129d66135dc565b905090565b60c95460ff16156112715760405162461bcd60e51b815260206004820152601060248201526f14185d5cd8589b194e881c185d5cd95960821b6044820152606401610ca4565b612a2c6113626129cc565b612a485760405162461bcd60e51b8152600401610ca4906148be565b610cb7838383612dd7565b612a5b6129cc565b6001600160a01b0316612a7660fb546001600160a01b031690565b6001600160a01b03161480612a915750612a9161051f6129cc565b61120c5760405162461bcd60e51b8152600401610ca4906147a0565b7f4910fdfa16fed3260ed0e7147f7cc6da11a60208b5b9406d12a635614ffd91435460ff1615612ae057610cb783613611565b826001600160a01b03166352d1902d6040518163ffffffff1660e01b8152600401602060405180830381865afa925050508015612b3a575060408051601f3d908101601f19168201909252612b3791810190614abf565b60015b612b9d5760405162461bcd60e51b815260206004820152602e60248201527f45524331393637557067726164653a206e657720696d706c656d656e7461746960448201526d6f6e206973206e6f74205555505360901b6064820152608401610ca4565b600080516020614c8e8339815191528114612c0c5760405162461bcd60e51b815260206004820152602960248201527f45524331393637557067726164653a20756e737570706f727465642070726f786044820152681a58589b195555525160ba1b6064820152608401610ca4565b50610cb78383836136ad565b612c206136d2565b60c9805460ff191690557f5db9ee0a495bf2e6ff9c91a7834c1ba4fdd244a5e8aa4e537bd38aeae4b073aa612c536129cc565b6040516001600160a01b03909116815260200160405180910390a1565b610cb78383836040518060200160405280600081525061203f565b600080612c97836115f6565b9050806001600160a01b0316846001600160a01b03161480612cbe5750612cbe8185612493565b80611d6e5750836001600160a01b0316612cd784610bc7565b6001600160a01b031614949350505050565b612cf28161371b565b6000908152610197602090815260408083208390556101988252808320805460ff1916905561019b9091529020805467ffffffffffffffff19169055565b612d39816127b9565b6000818152610198602052604090205460ff1661120c5760405162461bcd60e51b8152602060048201526013602482015272151bdad95b881a5cc81b9bdd081b1bd8dad959606a1b6044820152606401610ca4565b6000818152610198602052604090819020805460ff19169055517ff27b6ce5b2f5e68ddb2fd95a8a909d4ecf1daaac270935fff052feacb24f184290610d9f9083815260200190565b826001600160a01b0316612dea826115f6565b6001600160a01b031614612e105760405162461bcd60e51b8152600401610ca490614ad8565b6001600160a01b038216612e725760405162461bcd60e51b8152602060048201526024808201527f4552433732313a207472616e7366657220746f20746865207a65726f206164646044820152637265737360e01b6064820152608401610ca4565b612e7f83838360016137be565b826001600160a01b0316612e92826115f6565b6001600160a01b031614612eb85760405162461bcd60e51b8152600401610ca490614ad8565b600081815260696020908152604080832080546001600160a01b03199081169091556001600160a01b0387811680865260688552838620805460001901905590871680865283862080546001019055868652606790945282852080549092168417909155905184937fddf252ad1be2c89b69c2b068fc378daa952ba7f163c4a11628f55a4df523b3ef91a4505050565b6127106001600160601b0382161115612f735760405162461bcd60e51b8152600401610ca490614b1d565b6001600160a01b038216612fc95760405162461bcd60e51b815260206004820152601b60248201527f455243323938313a20496e76616c696420706172616d657465727300000000006044820152606401610ca4565b6040805180820182526001600160a01b0393841681526001600160601b039283166020808301918252600096875261019a90529190942093519051909116600160a01b029116179055565b61301c6129cc565b6001600160a01b031661303760fb546001600160a01b031690565b6001600160a01b0316146112715760405162461bcd60e51b815260206004820181905260248201527f4f776e61626c653a2063616c6c6572206973206e6f7420746865206f776e65726044820152606401610ca4565b60fb80546001600160a01b038381166001600160a01b0319831681179093556040519116919082907f8be0079c531659141344cd1fd0a4f28419497f9722a3daafe3b4186f6b6457e090600090a35050565b600082815261019b60205260408120546001600160401b0316908181036131115761310a8342614a52565b905061311e565b61311b8383614a52565b90505b600084815261019b6020908152604091829020805467ffffffffffffffff19166001600160401b038516908117909155915191825285917f2ec2be2c4b90c2cf13ecb6751a24daed6bb741ae5ed3f7371aabf9402f6d62e8910160405180910390a250505050565b6000818152610198602052604090819020805460ff19166001179055517f032bc66be43dbccb7487781d168eb7bda224628a3b2c3388bdf69b532a3a161190610d9f9083815260200190565b6131da6129db565b60c9805460ff191660011790557f62e78cea01bee320cd4e420270b5ea74000d11b0c9f74754ebdbfc544b05a258612c536129cc565b600054610100900460ff166132375760405162461bcd60e51b8152600401610ca490614b67565b6114598282613873565b600054610100900460ff166132685760405162461bcd60e51b8152600401610ca490614b67565b6112716138b3565b600054610100900460ff166132975760405162461bcd60e51b8152600401610ca490614b67565b6112716138e6565b600054610100900460ff166112715760405162461bcd60e51b8152600401610ca490614b67565b600054610100900460ff166132ed5760405162461bcd60e51b8152600401610ca490614b67565b611271733cc6cdda760b79bafa08df41ecfa224f810dceb6600161391d565b60006133188486613abc565b60008581526101976020526040902086905582156133395761333985613186565b6001600160401b038216156133525761335285836130df565b50600195945050505050565b600061336a8385613abc565b600084815261019760205260409020859055811561338b5761338b84613186565b506001949350505050565b6114596133a16129cc565b8383613c55565b6133b36119f36129cc565b6133cf5760405162461bcd60e51b8152600401610ca4906148be565b61104984848484613d23565b6127106001600160601b03821611156134065760405162461bcd60e51b8152600401610ca490614b1d565b6001600160a01b03821661345c5760405162461bcd60e51b815260206004820152601960248201527f455243323938313a20696e76616c6964207265636569766572000000000000006044820152606401610ca4565b604080518082019091526001600160a01b039092168083526001600160601b039091166020909201829052600160a01b9091021761019955565b600081815260696020526040902080546001600160a01b0319166001600160a01b03841690811790915581906134cb826115f6565b6001600160a01b03167f8c5be1e5ebec7d5bd14f71427d1e84f3dd0314c0f7b2291e5b200ac8c7c3b92560405160405180910390a45050565b60008072184f03e93ff9f4daa797ed6e38ed64bf6a1f0160401b83106135435772184f03e93ff9f4daa797ed6e38ed64bf6a1f0160401b830492506040015b6d04ee2d6d415b85acef8100000000831061356f576d04ee2d6d415b85acef8100000000830492506020015b662386f26fc10000831061358d57662386f26fc10000830492506010015b6305f5e10083106135a5576305f5e100830492506008015b61271083106135b957612710830492506004015b606483106135cb576064830492506002015b600a8310610b2e5760010192915050565b6000601436108015906135fa5750610191546001600160a01b031633145b1561360c575060131936013560601c90565b503390565b6001600160a01b0381163b61367e5760405162461bcd60e51b815260206004820152602d60248201527f455243313936373a206e657720696d706c656d656e746174696f6e206973206e60448201526c1bdd08184818dbdb9d1c9858dd609a1b6064820152608401610ca4565b600080516020614c8e83398151915280546001600160a01b0319166001600160a01b0392909216919091179055565b6136b683613d56565b6000825111806136c35750805b15610cb7576110498383613d96565b60c95460ff166112715760405162461bcd60e51b815260206004820152601460248201527314185d5cd8589b194e881b9bdd081c185d5cd95960621b6044820152606401610ca4565b6000613726826115f6565b90506137368160008460016137be565b61373f826115f6565b600083815260696020908152604080832080546001600160a01b03199081169091556001600160a01b0385168085526068845282852080546000190190558785526067909352818420805490911690555192935084927fddf252ad1be2c89b69c2b068fc378daa952ba7f163c4a11628f55a4df523b3ef908390a45050565b6137c66129db565b60405163f6aacfb160e01b8152600481018390528290309063f6aacfb190602401602060405180830381865afa158015613804573d6000803e3d6000fd5b505050506040513d601f19601f8201168201806040525081019061382891906146eb565b156138675760405162461bcd60e51b815260206004820152600f60248201526e151bdad95b881a5cc81b1bd8dad959608a1b6044820152606401610ca4565b61212a85858585613e8a565b600054610100900460ff1661389a5760405162461bcd60e51b8152600401610ca490614b67565b60656138a68382614951565b506066610cb78282614951565b600054610100900460ff166138da5760405162461bcd60e51b8152600401610ca490614b67565b60c9805460ff19169055565b600054610100900460ff1661390d5760405162461bcd60e51b8152600401610ca490614b67565b6112716139186129cc565b61308d565b600054610100900460ff166139445760405162461bcd60e51b8152600401610ca490614b67565b6daaeb6d7670e522a718067333cd4e3b156114595760405163c3c5a54760e01b81523060048201526daaeb6d7670e522a718067333cd4e9063c3c5a547906024016020604051808303816000875af11580156139a4573d6000803e3d6000fd5b505050506040513d601f19601f820116820180604052508101906139c891906146eb565b611459578015613a3c57604051633e9f1edf60e11b81523060048201526001600160a01b03831660248201526daaeb6d7670e522a718067333cd4e90637d3e3dbe906044015b600060405180830381600087803b158015613a2857600080fd5b505af1158015611cd4573d6000803e3d6000fd5b6001600160a01b03821615613a8b5760405163a0af290360e01b81523060048201526001600160a01b03831660248201526daaeb6d7670e522a718067333cd4e9063a0af290390604401613a0e565b604051632210724360e11b81523060048201526daaeb6d7670e522a718067333cd4e90634420e48690602401613a0e565b6001600160a01b038216613b125760405162461bcd60e51b815260206004820181905260248201527f4552433732313a206d696e7420746f20746865207a65726f20616464726573736044820152606401610ca4565b6000818152606760205260409020546001600160a01b031615613b775760405162461bcd60e51b815260206004820152601c60248201527f4552433732313a20746f6b656e20616c7265616479206d696e746564000000006044820152606401610ca4565b613b856000838360016137be565b6000818152606760205260409020546001600160a01b031615613bea5760405162461bcd60e51b815260206004820152601c60248201527f4552433732313a20746f6b656e20616c7265616479206d696e746564000000006044820152606401610ca4565b6001600160a01b038216600081815260686020908152604080832080546001019055848352606790915280822080546001600160a01b0319168417905551839291907fddf252ad1be2c89b69c2b068fc378daa952ba7f163c4a11628f55a4df523b3ef908290a45050565b816001600160a01b0316836001600160a01b031603613cb65760405162461bcd60e51b815260206004820152601960248201527f4552433732313a20617070726f766520746f2063616c6c6572000000000000006044820152606401610ca4565b6001600160a01b038381166000818152606a6020908152604080832094871680845294825291829020805460ff191686151590811790915591519182527f17307eab39ab6107e8899845ad3d59bd9653f200f220920489ca2b5937696c31910160405180910390a3505050565b613d2e848484612dd7565b613d3a84848484613f12565b6110495760405162461bcd60e51b8152600401610ca490614bb2565b613d5f81613611565b6040516001600160a01b038216907fbc7cd75a20ee27fd9adebab32041f755214dbc6bffa90cc0225b39da2e5c2d3b90600090a250565b60606001600160a01b0383163b613dfe5760405162461bcd60e51b815260206004820152602660248201527f416464726573733a2064656c65676174652063616c6c20746f206e6f6e2d636f6044820152651b9d1c9858dd60d21b6064820152608401610ca4565b600080846001600160a01b031684604051613e199190614c04565b600060405180830381855af49150503d8060008114613e54576040519150601f19603f3d011682016040523d82523d6000602084013e613e59565b606091505b5091509150613e818282604051806060016040528060278152602001614cae60279139614017565b95945050505050565b6001811115611049576001600160a01b03841615613ed0576001600160a01b03841660009081526068602052604081208054839290613eca908490614c20565b90915550505b6001600160a01b03831615611049576001600160a01b03831660009081526068602052604081208054839290613f07908490614a3f565b909155505050505050565b60006001600160a01b0384163b1561400f57836001600160a01b031663150b7a02613f3b6129cc565b8786866040518563ffffffff1660e01b8152600401613f5d9493929190614c33565b6020604051808303816000875af1925050508015613f98575060408051601f3d908101601f19168201909252613f9591810190614c70565b60015b613ff5573d808015613fc6576040519150601f19603f3d011682016040523d82523d6000602084013e613fcb565b606091505b508051600003613fed5760405162461bcd60e51b8152600401610ca490614bb2565b805181602001fd5b6001600160e01b031916630a85bd0160e11b149050611d6e565b506001611d6e565b6060831561402657508161250b565b61250b838381511561403b5781518083602001fd5b8060405162461bcd60e51b8152600401610ca491906140d8565b6001600160e01b03198116811461120c57600080fd5b60006020828403121561407d57600080fd5b813561250b81614055565b60005b838110156140a357818101518382015260200161408b565b50506000910152565b600081518084526140c4816020860160208601614088565b601f01601f19169290920160200192915050565b60208152600061250b60208301846140ac565b6000602082840312156140fd57600080fd5b5035919050565b80356001600160a01b038116811461411b57600080fd5b919050565b6000806040838503121561413357600080fd5b61413c83614104565b946020939093013593505050565b60006020828403121561415c57600080fd5b61250b82614104565b60008060006060848603121561417a57600080fd5b61418384614104565b925061419160208501614104565b9150604084013590509250925092565b600080604083850312156141b457600080fd5b50508035926020909101359150565b634e487b7160e01b600052604160045260246000fd5b600082601f8301126141ea57600080fd5b81356001600160401b0380821115614204576142046141c3565b604051601f8301601f19908116603f0116810190828211818310171561422c5761422c6141c3565b8160405283815286602085880101111561424557600080fd5b836020870160208301376000602085830101528094505050505092915050565b6000806040838503121561427857600080fd5b61428183614104565b915060208301356001600160401b0381111561429c57600080fd5b6142a8858286016141d9565b9150509250929050565b6000602082840312156142c457600080fd5b81356001600160401b038111156142da57600080fd5b611d6e848285016141d9565b600080604083850312156142f957600080fd5b8235915061430960208401614104565b90509250929050565b80356001600160601b038116811461411b57600080fd5b60008060006060848603121561433e57600080fd5b8335925061434e60208501614104565b915061435c60408501614312565b90509250925092565b80356001600160401b038116811461411b57600080fd5b6000806040838503121561438f57600080fd5b8235915061430960208401614365565b60008083601f8401126143b157600080fd5b5081356001600160401b038111156143c857600080fd5b6020830191508360208260051b850101111561110a57600080fd5b6000806000806000608086880312156143fb57600080fd5b85356001600160401b038082111561441257600080fd5b61441e89838a016141d9565b9650602088013591508082111561443457600080fd5b61444089838a016141d9565b9550604088013591508082111561445657600080fd5b61446289838a016141d9565b9450606088013591508082111561447857600080fd5b506144858882890161439f565b969995985093965092949392505050565b801515811461120c57600080fd5b600080600080608085870312156144ba57600080fd5b843593506144ca60208601614104565b925060408501356144da81614496565b91506144e860608601614365565b905092959194509250565b60008060008060006080868803121561450b57600080fd5b8535945060208601356001600160401b0381111561452857600080fd5b6145348882890161439f565b909550935050604086013561454881614496565b915061455660608701614365565b90509295509295909350565b6000806040838503121561457557600080fd5b61457e83614104565b9150602083013561458e81614496565b809150509250929050565b600080600080608085870312156145af57600080fd5b6145b885614104565b93506145c660208601614104565b92506040850135915060608501356001600160401b038111156145e857600080fd5b6145f4878288016141d9565b91505092959194509250565b6000806040838503121561461357600080fd5b61461c83614104565b915061430960208401614312565b6000806040838503121561463d57600080fd5b61464683614104565b915061430960208401614104565b60008060008060006080868803121561466c57600080fd5b85356001600160401b0381111561468257600080fd5b61468e8882890161439f565b90965094506146a1905060208701614104565b9250604086013561454881614496565b600181811c908216806146c557607f821691505b6020821081036146e557634e487b7160e01b600052602260045260246000fd5b50919050565b6000602082840312156146fd57600080fd5b815161250b81614496565b60008154614715816146b1565b6001828116801561472d576001811461474257614771565b60ff1984168752821515830287019450614771565b8560005260208060002060005b858110156147685781548a82015290840190820161474f565b50505082870194505b5050505092915050565b60006147878285614708565b8351614797818360208801614088565b01949350505050565b6020808252601c908201527f63616c6c6572206973206e6f74206f776e6572206f722061646d696e00000000604082015260600190565b634e487b7160e01b600052601160045260246000fd5b8082028115828204841417610b2e57610b2e6147d7565b60008261482157634e487b7160e01b600052601260045260246000fd5b500490565b6020808252602c908201527f46756e6374696f6e206d7573742062652063616c6c6564207468726f7567682060408201526b19195b1959d85d1958d85b1b60a21b606082015260800190565b6020808252602c908201527f46756e6374696f6e206d7573742062652063616c6c6564207468726f7567682060408201526b6163746976652070726f787960a01b606082015260800190565b6020808252602d908201527f4552433732313a2063616c6c6572206973206e6f7420746f6b656e206f776e6560408201526c1c881bdc88185c1c1c9bdd9959609a1b606082015260800190565b601f821115610cb757600081815260208120601f850160051c810160208610156149325750805b601f850160051c820191505b81811015611cd45782815560010161493e565b81516001600160401b0381111561496a5761496a6141c3565b61497e8161497884546146b1565b8461490b565b602080601f8311600181146149b3576000841561499b5750858301515b600019600386901b1c1916600185901b178555611cd4565b600085815260208120601f198616915b828110156149e2578886015182559484019460019091019084016149c3565b5085821015614a005787850151600019600388901b60f8161c191681555b5050505050600190811b01905550565b634e487b7160e01b600052603260045260246000fd5b600060018201614a3857614a386147d7565b5060010190565b80820180821115610b2e57610b2e6147d7565b6001600160401b03818116838216019080821115614a7257614a726147d7565b5092915050565b6000614a858286614708565b8451614a95818360208901614088565b602f60f81b91019081528351614ab2816001840160208801614088565b0160010195945050505050565b600060208284031215614ad157600080fd5b5051919050565b60208082526025908201527f4552433732313a207472616e736665722066726f6d20696e636f72726563742060408201526437bbb732b960d91b606082015260800190565b6020808252602a908201527f455243323938313a20726f79616c7479206665652077696c6c206578636565646040820152692073616c65507269636560b01b606082015260800190565b6020808252602b908201527f496e697469616c697a61626c653a20636f6e7472616374206973206e6f74206960408201526a6e697469616c697a696e6760a81b606082015260800190565b60208082526032908201527f4552433732313a207472616e7366657220746f206e6f6e20455243373231526560408201527131b2b4bb32b91034b6b83632b6b2b73a32b960711b606082015260800190565b60008251614c16818460208701614088565b9190910192915050565b81810381811115610b2e57610b2e6147d7565b6001600160a01b0385811682528416602082015260408101839052608060608201819052600090614c66908301846140ac565b9695505050505050565b600060208284031215614c8257600080fd5b815161250b8161405556fe360894a13ba1a3210667c828492db98dca3e2076cc3735a920a3ca505d382bbc416464726573733a206c6f772d6c6576656c2064656c65676174652063616c6c206661696c6564a26469706673582212203beb29c94c9e2a81e48dc6084dece31220bbec54d89e141356c221497a95abd064736f6c63430008110033",
    "linkReferences": {}
  },
  "methodIdentifiers": {
    "addAdmin(address)": "70480275",
    "approve(address,uint256)": "095ea7b3",
    "balanceOf(address)": "70a08231",
    "burn(uint256)": "42966c68",
    "cancelSubscription(uint256)": "21235083",
    "collectionURI(uint256)": "1771c96c",
    "contractURI()": "e8a3d485",
    "expiresAt(uint256)": "17c95709",
    "getApproved(uint256)": "081812fc",
    "getTrustedForwarder()": "ce1b815f",
    "initialize(string,string,string,address[])": "8d232094",
    "isAdmin(address)": "24d7806c",
    "isApprovedForAll(address,address)": "e985e9c5",
    "isLocked(uint256)": "f6aacfb1",
    "isRenewable(uint256)": "cde317af",
    "isTrustedForwarder(address)": "572b6c05",
    "lastId()": "c1292cc3",
    "lockToken(uint256)": "80f20363",
    "mintCollectionToManyUsers(uint256,address[],bool,uint64)": "9a80c5e3",
    "mintToken(uint256,address,bool,uint64)": "8e45d62e",
    "mintUserToManyCollections(uint256[],address,bool,uint64)": "fb1fcca1",
    "name()": "06fdde03",
    "owner()": "8da5cb5b",
    "ownerOf(uint256)": "6352211e",
    "pause()": "8456cb59",
    "paused()": "5c975abb",
    "proxiableUUID()": "52d1902d",
    "reclaimToken(uint256,address)": "59ce12ad",
    "removeAdmin(address)": "1785f53c",
    "removeCollectionRoyalty(uint256)": "d953e4d4",
    "removeDefaultRoyalty()": "97ec4fba",
    "renewSubscription(uint256,uint64)": "776ce868",
    "renounceOwnership()": "715018a6",
    "royaltyInfo(uint256,uint256)": "2a55205a",
    "safeTransferFrom(address,address,uint256)": "42842e0e",
    "safeTransferFrom(address,address,uint256,bytes)": "b88d4fde",
    "setApprovalForAll(address,bool)": "a22cb465",
    "setExpiration(uint256,uint64)": "d1c332de",
    "setLastId(uint256)": "1a27e85f",
    "setTurstedForwarder(address)": "cea0302e",
    "supportsInterface(bytes4)": "01ffc9a7",
    "symbol()": "95d89b41",
    "tokenCollection(uint256)": "2dd883e8",
    "tokenURI(uint256)": "c87b56dd",
    "transferFrom(address,address,uint256)": "23b872dd",
    "transferOwnership(address)": "f2fde38b",
    "unlockToken(uint256)": "dd2e0ac0",
    "unpause()": "3f4ba83a",
    "updateCollectionRoyalty(uint256,address,uint96)": "6a662a3c",
    "updateContractURI(string)": "7e5b1e24",
    "updateDefaultRoyalty(address,uint96)": "d691e43c",
    "updateName(string)": "84da92a7",
    "updateSymbol(string)": "537f5312",
    "updateTokenCollection(uint256,uint256)": "fe946309",
    "upgradeTo(address)": "3659cfe6",
    "upgradeToAndCall(address,bytes)": "4f1ef286",
    "version()": "54fd4d50"
  },
  "id": 40
}