{
  "abi": [
    {
      "inputs": [],
      "stateMutability": "nonpayable",
      "type": "constructor"
    },
    {
      "inputs": [
        {
          "internalType": "address",
          "name": "operator",
          "type": "address"
        }
      ],
      "name": "OperatorNotAllowed",
      "type": "error"
    },
    {
      "anonymous": false,
      "inputs": [
        {
          "indexed": false,
          "internalType": "address",
          "name": "previousAdmin",
          "type": "address"
        },
        {
          "indexed": false,
          "internalType": "address",
          "name": "newAdmin",
          "type": "address"
        }
      ],
      "name": "AdminChanged",
      "type": "event"
    },
    {
      "anonymous": false,
      "inputs": [
        {
          "indexed": false,
          "internalType": "address",
          "name": "admin",
          "type": "address"
        },
        {
          "indexed": false,
          "internalType": "bool",
          "name": "added",
          "type": "bool"
        }
      ],
      "name": "AdminUpdated",
      "type": "event"
    },
    {
      "anonymous": false,
      "inputs": [
        {
          "indexed": true,
          "internalType": "address",
          "name": "owner",
          "type": "address"
        },
        {
          "indexed": true,
          "internalType": "address",
          "name": "approved",
          "type": "address"
        },
        {
          "indexed": true,
          "internalType": "uint256",
          "name": "tokenId",
          "type": "uint256"
        }
      ],
      "name": "Approval",
      "type": "event"
    },
    {
      "anonymous": false,
      "inputs": [
        {
          "indexed": true,
          "internalType": "address",
          "name": "owner",
          "type": "address"
        },
        {
          "indexed": true,
          "internalType": "address",
          "name": "operator",
          "type": "address"
        },
        {
          "indexed": false,
          "internalType": "bool",
          "name": "approved",
          "type": "bool"
        }
      ],
      "name": "ApprovalForAll",
      "type": "event"
    },
    {
      "anonymous": false,
      "inputs": [
        {
          "indexed": true,
          "internalType": "address",
          "name": "beacon",
          "type": "address"
        }
      ],
      "name": "BeaconUpgraded",
      "type": "event"
    },
    {
      "anonymous": false,
      "inputs": [
        {
          "indexed": false,
          "internalType": "uint8",
          "name": "version",
          "type": "uint8"
        }
      ],
      "name": "Initialized",
      "type": "event"
    },
    {
      "anonymous": false,
      "inputs": [
        {
          "indexed": false,
          "internalType": "uint256",
          "name": "tokenId",
          "type": "uint256"
        }
      ],
      "name": "Locked",
      "type": "event"
    },
    {
      "anonymous": false,
      "inputs": [
        {
          "indexed": true,
          "internalType": "address",
          "name": "previousOwner",
          "type": "address"
        },
        {
          "indexed": true,
          "internalType": "address",
          "name": "newOwner",
          "type": "address"
        }
      ],
      "name": "OwnershipTransferred",
      "type": "event"
    },
    {
      "anonymous": false,
      "inputs": [
        {
          "indexed": false,
          "internalType": "address",
          "name": "account",
          "type": "address"
        }
      ],
      "name": "Paused",
      "type": "event"
    },
    {
      "anonymous": false,
      "inputs": [
        {
          "indexed": true,
          "internalType": "uint256",
          "name": "tokenId",
          "type": "uint256"
        },
        {
          "indexed": false,
          "internalType": "uint64",
          "name": "expiration",
          "type": "uint64"
        }
      ],
      "name": "SubscriptionUpdate",
      "type": "event"
    },
    {
      "anonymous": false,
      "inputs": [
        {
          "indexed": true,
          "internalType": "address",
          "name": "from",
          "type": "address"
        },
        {
          "indexed": true,
          "internalType": "address",
          "name": "to",
          "type": "address"
        },
        {
          "indexed": true,
          "internalType": "uint256",
          "name": "tokenId",
          "type": "uint256"
        }
      ],
      "name": "Transfer",
      "type": "event"
    },
    {
      "anonymous": false,
      "inputs": [
        {
          "indexed": false,
          "internalType": "uint256",
          "name": "tokenId",
          "type": "uint256"
        }
      ],
      "name": "Unlocked",
      "type": "event"
    },
    {
      "anonymous": false,
      "inputs": [
        {
          "indexed": false,
          "internalType": "address",
          "name": "account",
          "type": "address"
        }
      ],
      "name": "Unpaused",
      "type": "event"
    },
    {
      "anonymous": false,
      "inputs": [
        {
          "indexed": true,
          "internalType": "address",
          "name": "implementation",
          "type": "address"
        }
      ],
      "name": "Upgraded",
      "type": "event"
    },
    {
      "inputs": [
        {
          "internalType": "address",
          "name": "newAdmin",
          "type": "address"
        }
      ],
      "name": "addAdmin",
      "outputs": [],
      "stateMutability": "nonpayable",
      "type": "function"
    },
    {
      "inputs": [
        {
          "internalType": "address",
          "name": "operator",
          "type": "address"
        },
        {
          "internalType": "uint256",
          "name": "tokenId",
          "type": "uint256"
        }
      ],
      "name": "approve",
      "outputs": [],
      "stateMutability": "nonpayable",
      "type": "function"
    },
    {
      "inputs": [
        {
          "internalType": "address",
          "name": "owner",
          "type": "address"
        }
      ],
      "name": "balanceOf",
      "outputs": [
        {
          "internalType": "uint256",
          "name": "",
          "type": "uint256"
        }
      ],
      "stateMutability": "view",
      "type": "function"
    },
    {
      "inputs": [
        {
          "internalType": "uint256",
          "name": "tokenId",
          "type": "uint256"
        }
      ],
      "name": "burn",
      "outputs": [],
      "stateMutability": "nonpayable",
      "type": "function"
    },
    {
      "inputs": [
        {
          "internalType": "uint256",
          "name": "tokenId",
          "type": "uint256"
        }
      ],
      "name": "cancelSubscription",
      "outputs": [],
      "stateMutability": "nonpayable",
      "type": "function"
    },
    {
      "inputs": [
        {
          "internalType": "uint256",
          "name": "collectionId",
          "type": "uint256"
        }
      ],
      "name": "collectionURI",
      "outputs": [
        {
          "internalType": "string",
          "name": "",
          "type": "string"
        }
      ],
      "stateMutability": "view",
      "type": "function"
    },
    {
      "inputs": [],
      "name": "contractURI",
      "outputs": [
        {
          "internalType": "string",
          "name": "",
          "type": "string"
        }
      ],
      "stateMutability": "view",
      "type": "function"
    },
    {
      "inputs": [
        {
          "internalType": "uint256",
          "name": "tokenId",
          "type": "uint256"
        }
      ],
      "name": "expiresAt",
      "outputs": [
        {
          "internalType": "uint64",
          "name": "",
          "type": "uint64"
        }
      ],
      "stateMutability": "view",
      "type": "function"
    },
    {
      "inputs": [
        {
          "internalType": "uint256",
          "name": "tokenId",
          "type": "uint256"
        }
      ],
      "name": "getApproved",
      "outputs": [
        {
          "internalType": "address",
          "name": "",
          "type": "address"
        }
      ],
      "stateMutability": "view",
      "type": "function"
    },
    {
      "inputs": [],
      "name": "getTrustedForwarder",
      "outputs": [
        {
          "internalType": "address",
          "name": "forwarder",
          "type": "address"
        }
      ],
      "stateMutability": "view",
      "type": "function"
    },
    {
      "inputs": [
        {
          "internalType": "string",
          "name": "__name",
          "type": "string"
        },
        {
          "internalType": "string",
          "name": "__symbol",
          "type": "string"
        },
        {
          "internalType": "string",
          "name": "__contractURI",
          "type": "string"
        },
        {
          "internalType": "address",
          "name": "__admin",
          "type": "address"
        }
      ],
      "name": "initialize",
      "outputs": [],
      "stateMutability": "nonpayable",
      "type": "function"
    },
    {
      "inputs": [
        {
          "internalType": "address",
          "name": "admin",
          "type": "address"
        }
      ],
      "name": "isAdmin",
      "outputs": [
        {
          "internalType": "bool",
          "name": "",
          "type": "bool"
        }
      ],
      "stateMutability": "view",
      "type": "function"
    },
    {
      "inputs": [
        {
          "internalType": "address",
          "name": "_owner",
          "type": "address"
        },
        {
          "internalType": "address",
          "name": "_operator",
          "type": "address"
        }
      ],
      "name": "isApprovedForAll",
      "outputs": [
        {
          "internalType": "bool",
          "name": "isOperator",
          "type": "bool"
        }
      ],
      "stateMutability": "view",
      "type": "function"
    },
    {
      "inputs": [
        {
          "internalType": "uint256",
          "name": "tokenId",
          "type": "uint256"
        }
      ],
      "name": "isLocked",
      "outputs": [
        {
          "internalType": "bool",
          "name": "",
          "type": "bool"
        }
      ],
      "stateMutability": "view",
      "type": "function"
    },
    {
      "inputs": [
        {
          "internalType": "uint256",
          "name": "",
          "type": "uint256"
        }
      ],
      "name": "isRenewable",
      "outputs": [
        {
          "internalType": "bool",
          "name": "",
          "type": "bool"
        }
      ],
      "stateMutability": "pure",
      "type": "function"
    },
    {
      "inputs": [
        {
          "internalType": "address",
          "name": "forwarder",
          "type": "address"
        }
      ],
      "name": "isTrustedForwarder",
      "outputs": [
        {
          "internalType": "bool",
          "name": "",
          "type": "bool"
        }
      ],
      "stateMutability": "view",
      "type": "function"
    },
    {
      "inputs": [],
      "name": "lastId",
      "outputs": [
        {
          "internalType": "uint256",
          "name": "",
          "type": "uint256"
        }
      ],
      "stateMutability": "view",
      "type": "function"
    },
    {
      "inputs": [
        {
          "internalType": "uint256",
          "name": "tokenId",
          "type": "uint256"
        }
      ],
      "name": "lockToken",
      "outputs": [],
      "stateMutability": "nonpayable",
      "type": "function"
    },
    {
      "inputs": [
        {
          "internalType": "uint256",
          "name": "collectionId",
          "type": "uint256"
        },
        {
          "internalType": "address[]",
          "name": "to",
          "type": "address[]"
        },
        {
          "internalType": "bool",
          "name": "locked",
          "type": "bool"
        },
        {
          "internalType": "uint64",
          "name": "validDuration",
          "type": "uint64"
        }
      ],
      "name": "mintCollectionToManyUsers",
      "outputs": [
        {
          "internalType": "bool",
          "name": "",
          "type": "bool"
        }
      ],
      "stateMutability": "nonpayable",
      "type": "function"
    },
    {
      "inputs": [
        {
          "internalType": "uint256",
          "name": "collectionId",
          "type": "uint256"
        },
        {
          "internalType": "address",
          "name": "to",
          "type": "address"
        },
        {
          "internalType": "bool",
          "name": "locked",
          "type": "bool"
        },
        {
          "internalType": "uint64",
          "name": "validDuration",
          "type": "uint64"
        }
      ],
      "name": "mintToken",
      "outputs": [
        {
          "internalType": "bool",
          "name": "",
          "type": "bool"
        }
      ],
      "stateMutability": "nonpayable",
      "type": "function"
    },
    {
      "inputs": [
        {
          "internalType": "uint256[]",
          "name": "collectionIds",
          "type": "uint256[]"
        },
        {
          "internalType": "address",
          "name": "to",
          "type": "address"
        },
        {
          "internalType": "bool",
          "name": "locked",
          "type": "bool"
        },
        {
          "internalType": "uint64",
          "name": "validDuration",
          "type": "uint64"
        }
      ],
      "name": "mintUserToManyCollections",
      "outputs": [
        {
          "internalType": "bool",
          "name": "",
          "type": "bool"
        }
      ],
      "stateMutability": "nonpayable",
      "type": "function"
    },
    {
      "inputs": [],
      "name": "name",
      "outputs": [
        {
          "internalType": "string",
          "name": "",
          "type": "string"
        }
      ],
      "stateMutability": "view",
      "type": "function"
    },
    {
      "inputs": [],
      "name": "owner",
      "outputs": [
        {
          "internalType": "address",
          "name": "",
          "type": "address"
        }
      ],
      "stateMutability": "view",
      "type": "function"
    },
    {
      "inputs": [
        {
          "internalType": "uint256",
          "name": "tokenId",
          "type": "uint256"
        }
      ],
      "name": "ownerOf",
      "outputs": [
        {
          "internalType": "address",
          "name": "",
          "type": "address"
        }
      ],
      "stateMutability": "view",
      "type": "function"
    },
    {
      "inputs": [],
      "name": "pause",
      "outputs": [],
      "stateMutability": "nonpayable",
      "type": "function"
    },
    {
      "inputs": [],
      "name": "paused",
      "outputs": [
        {
          "internalType": "bool",
          "name": "",
          "type": "bool"
        }
      ],
      "stateMutability": "view",
      "type": "function"
    },
    {
      "inputs": [],
      "name": "proxiableUUID",
      "outputs": [
        {
          "internalType": "bytes32",
          "name": "",
          "type": "bytes32"
        }
      ],
      "stateMutability": "view",
      "type": "function"
    },
    {
      "inputs": [
        {
          "internalType": "uint256",
          "name": "tokenId",
          "type": "uint256"
        },
        {
          "internalType": "address",
          "name": "recipient",
          "type": "address"
        }
      ],
      "name": "reclaimToken",
      "outputs": [],
      "stateMutability": "nonpayable",
      "type": "function"
    },
    {
      "inputs": [
        {
          "internalType": "address",
          "name": "admin",
          "type": "address"
        }
      ],
      "name": "removeAdmin",
      "outputs": [],
      "stateMutability": "nonpayable",
      "type": "function"
    },
    {
      "inputs": [
        {
          "internalType": "uint256",
          "name": "collectionId",
          "type": "uint256"
        }
      ],
      "name": "removeCollectionRoyalty",
      "outputs": [],
      "stateMutability": "nonpayable",
      "type": "function"
    },
    {
      "inputs": [],
      "name": "removeDefaultRoyalty",
      "outputs": [],
      "stateMutability": "nonpayable",
      "type": "function"
    },
    {
      "inputs": [
        {
          "internalType": "uint256",
          "name": "tokenId",
          "type": "uint256"
        },
        {
          "internalType": "uint64",
          "name": "duration",
          "type": "uint64"
        }
      ],
      "name": "renewSubscription",
      "outputs": [],
      "stateMutability": "nonpayable",
      "type": "function"
    },
    {
      "inputs": [],
      "name": "renounceOwnership",
      "outputs": [],
      "stateMutability": "nonpayable",
      "type": "function"
    },
    {
      "inputs": [
        {
          "internalType": "uint256",
          "name": "_tokenId",
          "type": "uint256"
        },
        {
          "internalType": "uint256",
          "name": "_salePrice",
          "type": "uint256"
        }
      ],
      "name": "royaltyInfo",
      "outputs": [
        {
          "internalType": "address",
          "name": "",
          "type": "address"
        },
        {
          "internalType": "uint256",
          "name": "",
          "type": "uint256"
        }
      ],
      "stateMutability": "view",
      "type": "function"
    },
    {
      "inputs": [
        {
          "internalType": "address",
          "name": "from",
          "type": "address"
        },
        {
          "internalType": "address",
          "name": "to",
          "type": "address"
        },
        {
          "internalType": "uint256",
          "name": "tokenId",
          "type": "uint256"
        }
      ],
      "name": "safeTransferFrom",
      "outputs": [],
      "stateMutability": "nonpayable",
      "type": "function"
    },
    {
      "inputs": [
        {
          "internalType": "address",
          "name": "from",
          "type": "address"
        },
        {
          "internalType": "address",
          "name": "to",
          "type": "address"
        },
        {
          "internalType": "uint256",
          "name": "tokenId",
          "type": "uint256"
        },
        {
          "internalType": "bytes",
          "name": "data",
          "type": "bytes"
        }
      ],
      "name": "safeTransferFrom",
      "outputs": [],
      "stateMutability": "nonpayable",
      "type": "function"
    },
    {
      "inputs": [
        {
          "internalType": "address",
          "name": "operator",
          "type": "address"
        },
        {
          "internalType": "bool",
          "name": "approved",
          "type": "bool"
        }
      ],
      "name": "setApprovalForAll",
      "outputs": [],
      "stateMutability": "nonpayable",
      "type": "function"
    },
    {
      "inputs": [
        {
          "internalType": "uint256",
          "name": "tokenId",
          "type": "uint256"
        },
        {
          "internalType": "uint64",
          "name": "newExpiration",
          "type": "uint64"
        }
      ],
      "name": "setExpiration",
      "outputs": [],
      "stateMutability": "nonpayable",
      "type": "function"
    },
    {
      "inputs": [
        {
          "internalType": "uint256",
          "name": "newLastId",
          "type": "uint256"
        }
      ],
      "name": "setLastId",
      "outputs": [],
      "stateMutability": "nonpayable",
      "type": "function"
    },
    {
      "inputs": [
        {
          "internalType": "address",
          "name": "forwarder",
          "type": "address"
        }
      ],
      "name": "setTurstedForwarder",
      "outputs": [],
      "stateMutability": "nonpayable",
      "type": "function"
    },
    {
      "inputs": [
        {
          "internalType": "bytes4",
          "name": "interfaceId",
          "type": "bytes4"
        }
      ],
      "name": "supportsInterface",
      "outputs": [
        {
          "internalType": "bool",
          "name": "",
          "type": "bool"
        }
      ],
      "stateMutability": "view",
      "type": "function"
    },
    {
      "inputs": [],
      "name": "symbol",
      "outputs": [
        {
          "internalType": "string",
          "name": "",
          "type": "string"
        }
      ],
      "stateMutability": "view",
      "type": "function"
    },
    {
      "inputs": [
        {
          "internalType": "uint256",
          "name": "tokenId",
          "type": "uint256"
        }
      ],
      "name": "tokenCollection",
      "outputs": [
        {
          "internalType": "uint256",
          "name": "",
          "type": "uint256"
        }
      ],
      "stateMutability": "view",
      "type": "function"
    },
    {
      "inputs": [
        {
          "internalType": "uint256",
          "name": "tokenId",
          "type": "uint256"
        }
      ],
      "name": "tokenURI",
      "outputs": [
        {
          "internalType": "string",
          "name": "",
          "type": "string"
        }
      ],
      "stateMutability": "view",
      "type": "function"
    },
    {
      "inputs": [
        {
          "internalType": "address",
          "name": "from",
          "type": "address"
        },
        {
          "internalType": "address",
          "name": "to",
          "type": "address"
        },
        {
          "internalType": "uint256",
          "name": "tokenId",
          "type": "uint256"
        }
      ],
      "name": "transferFrom",
      "outputs": [],
      "stateMutability": "nonpayable",
      "type": "function"
    },
    {
      "inputs": [
        {
          "internalType": "address",
          "name": "newOwner",
          "type": "address"
        }
      ],
      "name": "transferOwnership",
      "outputs": [],
      "stateMutability": "nonpayable",
      "type": "function"
    },
    {
      "inputs": [
        {
          "internalType": "uint256",
          "name": "tokenId",
          "type": "uint256"
        }
      ],
      "name": "unlockToken",
      "outputs": [],
      "stateMutability": "nonpayable",
      "type": "function"
    },
    {
      "inputs": [],
      "name": "unpause",
      "outputs": [],
      "stateMutability": "nonpayable",
      "type": "function"
    },
    {
      "inputs": [
        {
          "internalType": "uint256",
          "name": "collectionId",
          "type": "uint256"
        },
        {
          "internalType": "address",
          "name": "receiver",
          "type": "address"
        },
        {
          "internalType": "uint96",
          "name": "feeNumerator",
          "type": "uint96"
        }
      ],
      "name": "updateCollectionRoyalty",
      "outputs": [],
      "stateMutability": "nonpayable",
      "type": "function"
    },
    {
      "inputs": [
        {
          "internalType": "string",
          "name": "__contractURI",
          "type": "string"
        }
      ],
      "name": "updateContractURI",
      "outputs": [],
      "stateMutability": "nonpayable",
      "type": "function"
    },
    {
      "inputs": [
        {
          "internalType": "address",
          "name": "receiver",
          "type": "address"
        },
        {
          "internalType": "uint96",
          "name": "feeNumerator",
          "type": "uint96"
        }
      ],
      "name": "updateDefaultRoyalty",
      "outputs": [],
      "stateMutability": "nonpayable",
      "type": "function"
    },
    {
      "inputs": [
        {
          "internalType": "string",
          "name": "newName",
          "type": "string"
        }
      ],
      "name": "updateName",
      "outputs": [],
      "stateMutability": "nonpayable",
      "type": "function"
    },
    {
      "inputs": [
        {
          "internalType": "string",
          "name": "newSymbol",
          "type": "string"
        }
      ],
      "name": "updateSymbol",
      "outputs": [],
      "stateMutability": "nonpayable",
      "type": "function"
    },
    {
      "inputs": [
        {
          "internalType": "uint256",
          "name": "tokenId",
          "type": "uint256"
        },
        {
          "internalType": "uint256",
          "name": "newCollectionId",
          "type": "uint256"
        }
      ],
      "name": "updateTokenCollection",
      "outputs": [],
      "stateMutability": "nonpayable",
      "type": "function"
    },
    {
      "inputs": [
        {
          "internalType": "address",
          "name": "newImplementation",
          "type": "address"
        }
      ],
      "name": "upgradeTo",
      "outputs": [],
      "stateMutability": "nonpayable",
      "type": "function"
    },
    {
      "inputs": [
        {
          "internalType": "address",
          "name": "newImplementation",
          "type": "address"
        },
        {
          "internalType": "bytes",
          "name": "data",
          "type": "bytes"
        }
      ],
      "name": "upgradeToAndCall",
      "outputs": [],
      "stateMutability": "payable",
      "type": "function"
    },
    {
      "inputs": [],
      "name": "version",
      "outputs": [
        {
          "internalType": "uint16",
          "name": "",
          "type": "uint16"
        }
      ],
      "stateMutability": "view",
      "type": "function"
    }
  ],
  "bytecode": {
    "object": "0x60a0604052306080523480156200001557600080fd5b506200002062000026565b620000e8565b600054610100900460ff1615620000935760405162461bcd60e51b815260206004820152602760248201527f496e697469616c697a61626c653a20636f6e747261637420697320696e697469604482015266616c697a696e6760c81b606482015260840160405180910390fd5b60005460ff9081161015620000e6576000805460ff191660ff9081179091556040519081527f7f26b83ff96e1f2b6a682f133852f6798a09c465da95921460cefb38474024989060200160405180910390a15b565b608051614ca7620001206000396000818161113a0152818161117a01528181611397015281816113d7015261146a0152614ca76000f3fe6080604052600436106103765760003560e01c806370a08231116101d1578063c1292cc311610102578063d953e4d4116100a0578063f2fde38b1161006f578063f2fde38b14610a5d578063f6aacfb114610a7d578063fb1fcca114610aae578063fe94630914610ace57600080fd5b8063d953e4d4146109e8578063dd2e0ac014610a08578063e8a3d48514610a28578063e985e9c514610a3d57600080fd5b8063ce1b815f116100dc578063ce1b815f14610969578063cea0302e14610988578063d1c332de146109a8578063d691e43c146109c857600080fd5b8063c1292cc314610911578063c87b56dd14610928578063cde317af1461094857600080fd5b80638da5cb5b1161016f57806397ec4fba1161014957806397ec4fba1461089c5780639a80c5e3146108b1578063a22cb465146108d1578063b88d4fde146108f157600080fd5b80638da5cb5b146108495780638e45d62e1461086757806395d89b411461088757600080fd5b80637e5b1e24116101ab5780637e5b1e24146107d457806380f20363146107f45780638456cb591461081457806384da92a71461082957600080fd5b806370a082311461077f578063715018a61461079f578063776ce868146107b457600080fd5b80633f4ba83a116102ab578063572b6c05116102495780635c975abb116102235780635c975abb146107075780636352211e1461071f5780636a662a3c1461073f578063704802751461075f57600080fd5b8063572b6c051461069757806359ce12ad146106c75780635c6d8da1146106e757600080fd5b80634f1ef286116102855780634f1ef2861461062057806352d1902d14610633578063537f53121461064857806354fd4d501461066857600080fd5b80633f4ba83a146105cb57806342842e0e146105e057806342966c681461060057600080fd5b80631a27e85f1161031857806324d7806c116102f257806324d7806c146105045780632a55205a1461053e5780632dd883e81461057d5780633659cfe6146105ab57600080fd5b80631a27e85f146104a457806321235083146104c457806323b872dd146104e457600080fd5b8063095ea7b311610354578063095ea7b31461040a5780631771c96c1461042c5780631785f53c1461044c57806317c957091461046c57600080fd5b806301ffc9a71461037b57806306fdde03146103b0578063081812fc146103d2575b600080fd5b34801561038757600080fd5b5061039b61039636600461402e565b610aee565b60405190151581526020015b60405180910390f35b3480156103bc57600080fd5b506103c5610b34565b6040516103a7919061409b565b3480156103de57600080fd5b506103f26103ed3660046140ae565b610bc7565b6040516001600160a01b0390911681526020016103a7565b34801561041657600080fd5b5061042a6104253660046140e3565b610bee565b005b34801561043857600080fd5b506103c56104473660046140ae565b610cbc565b34801561045857600080fd5b5061042a61046736600461410d565b610cf1565b34801561047857600080fd5b5061048c6104873660046140ae565b610daa565b6040516001600160401b0390911681526020016103a7565b3480156104b057600080fd5b5061042a6104bf3660046140ae565b610dd2565b3480156104d057600080fd5b5061042a6104df3660046140ae565b610e8c565b3480156104f057600080fd5b5061042a6104ff366004614128565b610f3b565b34801561051057600080fd5b5061039b61051f36600461410d565b6001600160a01b0316600090815261019c602052604090205460ff1690565b34801561054a57600080fd5b5061055e610559366004614164565b61104f565b604080516001600160a01b0390931683526020830191909152016103a7565b34801561058957600080fd5b5061059d6105983660046140ae565b611111565b6040519081526020016103a7565b3480156105b757600080fd5b5061042a6105c636600461410d565b611130565b3480156105d757600080fd5b5061042a61120f565b3480156105ec57600080fd5b5061042a6105fb366004614128565b611273565b34801561060c57600080fd5b5061042a61061b3660046140ae565b611357565b61042a61062e366004614228565b61138d565b34801561063f57600080fd5b5061059d61145d565b34801561065457600080fd5b5061042a610663366004614275565b611510565b34801561067457600080fd5b50610194546106849061ffff1681565b60405161ffff90911681526020016103a7565b3480156106a357600080fd5b5061039b6106b236600461410d565b610191546001600160a01b0391821691161490565b3480156106d357600080fd5b5061042a6106e23660046142a9565b611577565b3480156106f357600080fd5b5061042a6107023660046142d5565b6115f6565b34801561071357600080fd5b5060c95460ff1661039b565b34801561072b57600080fd5b506103f261073a3660046140ae565b61176f565b34801561074b57600080fd5b5061042a61075a366004614384565b6117cf565b34801561076b57600080fd5b5061042a61077a36600461410d565b611834565b34801561078b57600080fd5b5061059d61079a36600461410d565b61194c565b3480156107ab57600080fd5b5061042a6119d2565b3480156107c057600080fd5b5061042a6107cf3660046143d7565b6119e4565b3480156107e057600080fd5b5061042a6107ef366004614275565b611a51565b34801561080057600080fd5b5061042a61080f3660046140ae565b611ab8565b34801561082057600080fd5b5061042a611bd5565b34801561083557600080fd5b5061042a610844366004614275565b611c37565b34801561085557600080fd5b5060fb546001600160a01b03166103f2565b34801561087357600080fd5b5061039b610882366004614408565b611c9e565b34801561089357600080fd5b506103c5611d38565b3480156108a857600080fd5b5061042a611d48565b3480156108bd57600080fd5b5061039b6108cc366004614490565b611dad565b3480156108dd57600080fd5b5061042a6108ec3660046144ff565b611f3d565b3480156108fd57600080fd5b5061042a61090c366004614536565b612001565b34801561091d57600080fd5b5061059d6101965481565b34801561093457600080fd5b506103c56109433660046140ae565b6120ec565b34801561095457600080fd5b5061039b6109633660046140ae565b50600190565b34801561097557600080fd5b50610191546001600160a01b03166103f2565b34801561099457600080fd5b5061042a6109a336600461410d565b612139565b3480156109b457600080fd5b5061042a6109c33660046143d7565b6121b2565b3480156109d457600080fd5b5061042a6109e336600461459d565b61227b565b3480156109f457600080fd5b5061042a610a033660046140ae565b6122df565b348015610a1457600080fd5b5061042a610a233660046140ae565b61234b565b348015610a3457600080fd5b506103c56123bf565b348015610a4957600080fd5b5061039b610a583660046145c7565b61244e565b348015610a6957600080fd5b5061042a610a7836600461410d565b6124cd565b348015610a8957600080fd5b5061039b610a983660046140ae565b6000908152610198602052604090205460ff1690565b348015610aba57600080fd5b5061039b610ac93660046145f1565b612543565b348015610ada57600080fd5b5061042a610ae9366004614164565b6126a6565b60006001600160e01b03198216638c65f84d60e01b1480610b1f57506001600160e01b0319821663152a902d60e11b145b80610b2e5750610b2e82612724565b92915050565b60606101928054610b449061464e565b80601f0160208091040260200160405190810160405280929190818152602001828054610b709061464e565b8015610bbd5780601f10610b9257610100808354040283529160200191610bbd565b820191906000526020600020905b815481529060010190602001808311610ba057829003601f168201915b5050505050905090565b6000610bd282612774565b506000908152606960205260409020546001600160a01b031690565b816daaeb6d7670e522a718067333cd4e3b15610cad57604051633185c44d60e21b81523060048201526001600160a01b03821660248201526daaeb6d7670e522a718067333cd4e9063c617113490604401602060405180830381865afa158015610c5c573d6000803e3d6000fd5b505050506040513d601f19601f82011682018060405250810190610c809190614688565b610cad57604051633b79c77360e21b81526001600160a01b03821660048201526024015b60405180910390fd5b610cb783836127d3565b505050565b6060610195610cca836128f5565b604051602001610cdb929190614718565b6040516020818303038152906040529050919050565b610cf9612987565b6001600160a01b0316610d1460fb546001600160a01b031690565b6001600160a01b03161480610d2f5750610d2f61051f612987565b610d4b5760405162461bcd60e51b8152600401610ca49061473d565b6001600160a01b038116600081815261019c60209081526040808320805460ff191690558051938452908301919091527f235bc17e7930760029e9f4d860a2a8089976de5b381cf8380fc11c1d88a1113391015b60405180910390a150565b6000610db582612774565b50600090815261019b60205260409020546001600160401b031690565b610dda612987565b6001600160a01b0316610df560fb546001600160a01b031690565b6001600160a01b03161480610e105750610e1061051f612987565b610e2c5760405162461bcd60e51b8152600401610ca49061473d565b610e34612996565b806101965410610e865760405162461bcd60e51b815260206004820152601760248201527f4e65772049642068617320746f206265206869676865720000000000000000006044820152606401610ca4565b61019655565b610e94612987565b6001600160a01b0316610eaf60fb546001600160a01b031690565b6001600160a01b03161480610eca5750610eca61051f612987565b610ee65760405162461bcd60e51b8152600401610ca49061473d565b600081815261019b60209081526040808320805467ffffffffffffffff191690555191825282917f2ec2be2c4b90c2cf13ecb6751a24daed6bb741ae5ed3f7371aabf9402f6d62e8910160405180910390a250565b826daaeb6d7670e522a718067333cd4e3b1561103e57610f59612987565b6001600160a01b0316816001600160a01b031603610f8157610f7c8484846129dc565b611049565b6daaeb6d7670e522a718067333cd4e63c617113430610f9e612987565b6040516001600160e01b031960e085901b1681526001600160a01b03928316600482015291166024820152604401602060405180830381865afa158015610fe9573d6000803e3d6000fd5b505050506040513d601f19601f8201168201806040525081019061100d9190614688565b61103e57611019612987565b604051633b79c77360e21b81526001600160a01b039091166004820152602401610ca4565b6110498484846129dc565b50505050565b600080600061105d85611111565b600081815261019a60209081526040918290208251808401909352546001600160a01b038116808452600160a01b9091046001600160601b031691830191909152919250906110d7575060408051808201909152610199546001600160a01b0381168252600160a01b90046001600160601b031660208201525b6020810151600090612710906110f6906001600160601b03168861478a565b61110091906147a1565b9151945090925050505b9250929050565b600061111c82612774565b506000908152610197602052604090205490565b6001600160a01b037f00000000000000000000000000000000000000000000000000000000000000001630036111785760405162461bcd60e51b8152600401610ca4906147c3565b7f00000000000000000000000000000000000000000000000000000000000000006001600160a01b03166111c1600080516020614c2b833981519152546001600160a01b031690565b6001600160a01b0316146111e75760405162461bcd60e51b8152600401610ca49061480f565b6111f081612a0e565b6040805160008082526020820190925261120c91839190612a68565b50565b611217612987565b6001600160a01b031661123260fb546001600160a01b031690565b6001600160a01b0316148061124d575061124d61051f612987565b6112695760405162461bcd60e51b8152600401610ca49061473d565b611271612bd3565b565b826daaeb6d7670e522a718067333cd4e3b1561134c57611291612987565b6001600160a01b0316816001600160a01b0316036112b457610f7c848484612c2b565b6daaeb6d7670e522a718067333cd4e63c6171134306112d1612987565b6040516001600160e01b031960e085901b1681526001600160a01b03928316600482015291166024820152604401602060405180830381865afa15801561131c573d6000803e3d6000fd5b505050506040513d601f19601f820116820180604052508101906113409190614688565b61134c57611019612987565b611049848484612c2b565b611368611362612987565b82612c46565b6113845760405162461bcd60e51b8152600401610ca49061485b565b61120c81612ca4565b6001600160a01b037f00000000000000000000000000000000000000000000000000000000000000001630036113d55760405162461bcd60e51b8152600401610ca4906147c3565b7f00000000000000000000000000000000000000000000000000000000000000006001600160a01b031661141e600080516020614c2b833981519152546001600160a01b031690565b6001600160a01b0316146114445760405162461bcd60e51b8152600401610ca49061480f565b61144d82612a0e565b61145982826001612a68565b5050565b6000306001600160a01b037f000000000000000000000000000000000000000000000000000000000000000016146114fd5760405162461bcd60e51b815260206004820152603860248201527f555550535570677261646561626c653a206d757374206e6f742062652063616c60448201527f6c6564207468726f7567682064656c656761746563616c6c00000000000000006064820152608401610ca4565b50600080516020614c2b83398151915290565b611518612987565b6001600160a01b031661153360fb546001600160a01b031690565b6001600160a01b0316148061154e575061154e61051f612987565b61156a5760405162461bcd60e51b8152600401610ca49061473d565b61019361145982826148ee565b61157f612987565b6001600160a01b031661159a60fb546001600160a01b031690565b6001600160a01b031614806115b557506115b561051f612987565b6115d15760405162461bcd60e51b8152600401610ca49061473d565b6115da82612ceb565b6115e382612d49565b6114596115ef8361176f565b8284612d92565b600054610100900460ff16158080156116165750600054600160ff909116105b806116305750303b158015611630575060005460ff166001145b6116935760405162461bcd60e51b815260206004820152602e60248201527f496e697469616c697a61626c653a20636f6e747261637420697320616c72656160448201526d191e481a5b9a5d1a585b1a5e995960921b6064820152608401610ca4565b6000805460ff1916600117905580156116b6576000805461ff0019166101001790555b6116c08585612f03565b6116c8612f34565b6116d0612f63565b6116d8612f92565b6116e0612f92565b6116e8612fb9565b6101926116f586826148ee565b5061019361170385826148ee565b50610194805461ffff1916905561171983611a51565b61172282611834565b8015611768576000805461ff0019169055604051600181527f7f26b83ff96e1f2b6a682f133852f6798a09c465da95921460cefb38474024989060200160405180910390a15b5050505050565b6000818152606760205260408120546001600160a01b031680610b2e5760405162461bcd60e51b8152602060048201526018602482015277115490cdcc8c4e881a5b9d985b1a59081d1bdad95b88125160421b6044820152606401610ca4565b6117d7612987565b6001600160a01b03166117f260fb546001600160a01b031690565b6001600160a01b0316148061180d575061180d61051f612987565b6118295760405162461bcd60e51b8152600401610ca49061473d565b610cb7838383612fff565b61183c612987565b6001600160a01b031661185760fb546001600160a01b031690565b6001600160a01b03161480611872575061187261051f612987565b61188e5760405162461bcd60e51b8152600401610ca49061473d565b6001600160a01b0381166118f05760405162461bcd60e51b8152602060048201526024808201527f4e65772061646d696e2063616e6e6f7420626520746865207a65726f206164646044820152637265737360e01b6064820152608401610ca4565b6001600160a01b038116600081815261019c6020908152604091829020805460ff191660019081179091558251938452908301527f235bc17e7930760029e9f4d860a2a8089976de5b381cf8380fc11c1d88a111339101610d9f565b60006001600160a01b0382166119b65760405162461bcd60e51b815260206004820152602960248201527f4552433732313a2061646472657373207a65726f206973206e6f7420612076616044820152683634b21037bbb732b960b91b6064820152608401610ca4565b506001600160a01b031660009081526068602052604090205490565b6119da6130cb565b6112716000613144565b6119ec612987565b6001600160a01b0316611a0760fb546001600160a01b031690565b6001600160a01b03161480611a225750611a2261051f612987565b611a3e5760405162461bcd60e51b8152600401610ca49061473d565b611a4782612774565b6114598282613196565b611a59612987565b6001600160a01b0316611a7460fb546001600160a01b031690565b6001600160a01b03161480611a8f5750611a8f61051f612987565b611aab5760405162461bcd60e51b8152600401610ca49061473d565b61019561145982826148ee565b611ac0612996565b60405163f6aacfb160e01b8152600481018290528190309063f6aacfb190602401602060405180830381865afa158015611afe573d6000803e3d6000fd5b505050506040513d601f19601f82011682018060405250810190611b229190614688565b15611b615760405162461bcd60e51b815260206004820152600f60248201526e151bdad95b881a5cc81b1bd8dad959608a1b6044820152606401610ca4565b611b72611b6c612987565b83612c46565b611bcc5760405162461bcd60e51b815260206004820152602560248201527f63616c6c6572206973206e6f7420746f6b656e206f776e6572206f72206170706044820152641c9bdd995960da1b6064820152608401610ca4565b6114598261323d565b611bdd612987565b6001600160a01b0316611bf860fb546001600160a01b031690565b6001600160a01b03161480611c135750611c1361051f612987565b611c2f5760405162461bcd60e51b8152600401610ca49061473d565b611271613289565b611c3f612987565b6001600160a01b0316611c5a60fb546001600160a01b031690565b6001600160a01b03161480611c755750611c7561051f612987565b611c915760405162461bcd60e51b8152600401610ca49061473d565b61019261145982826148ee565b6000611ca8612996565b611cb0612987565b6001600160a01b0316611ccb60fb546001600160a01b031690565b6001600160a01b03161480611ce65750611ce661051f612987565b611d025760405162461bcd60e51b8152600401610ca49061473d565b60016101966000828254611d1691906149ad565b92505081905550611d2d85610196548686866132c7565b90505b949350505050565b60606101938054610b449061464e565b611d50612987565b6001600160a01b0316611d6b60fb546001600160a01b031690565b6001600160a01b03161480611d865750611d8661051f612987565b611da25760405162461bcd60e51b8152600401610ca49061473d565b611271600061019955565b6000611db7612996565b611dbf612987565b6001600160a01b0316611dda60fb546001600160a01b031690565b6001600160a01b03161480611df55750611df561051f612987565b611e115760405162461bcd60e51b8152600401610ca49061473d565b6001600160401b03821615611eac57600080611e2d84426149c0565b905060005b86811015611ea45780610196546001611e4b91906149ad565b611e5591906149ad565b9250611e8989848a8a85818110611e6e57611e6e6149e7565b9050602002016020810190611e83919061410d565b89613319565b50611e9483836121b2565b611e9d816149fd565b9050611e32565b505050611f16565b60005b84811015611f1457611f038782610196546001611ecc91906149ad565b611ed691906149ad565b888885818110611ee857611ee86149e7565b9050602002016020810190611efd919061410d565b87613319565b50611f0d816149fd565b9050611eaf565b505b848490506101966000828254611f2c91906149ad565b909155506001979650505050505050565b816daaeb6d7670e522a718067333cd4e3b15611ff757604051633185c44d60e21b81523060048201526001600160a01b03821660248201526daaeb6d7670e522a718067333cd4e9063c617113490604401602060405180830381865afa158015611fab573d6000803e3d6000fd5b505050506040513d601f19601f82011682018060405250810190611fcf9190614688565b611ff757604051633b79c77360e21b81526001600160a01b0382166004820152602401610ca4565b610cb78383613351565b836daaeb6d7670e522a718067333cd4e3b156120e05761201f612987565b6001600160a01b0316816001600160a01b0316036120485761204385858585613363565b611768565b6daaeb6d7670e522a718067333cd4e63c617113430612065612987565b6040516001600160e01b031960e085901b1681526001600160a01b03928316600482015291166024820152604401602060405180830381865afa1580156120b0573d6000803e3d6000fd5b505050506040513d601f19601f820116820180604052508101906120d49190614688565b6120e057611019612987565b61176885858585613363565b606060006120f983611111565b9050610195612107826128f5565b612110856128f5565b60405160200161212293929190614a16565b604051602081830303815290604052915050919050565b612141612987565b6001600160a01b031661215c60fb546001600160a01b031690565b6001600160a01b03161480612177575061217761051f612987565b6121935760405162461bcd60e51b8152600401610ca49061473d565b61019180546001600160a01b0319166001600160a01b03831617905550565b6121ba612987565b6001600160a01b03166121d560fb546001600160a01b031690565b6001600160a01b031614806121f057506121f061051f612987565b61220c5760405162461bcd60e51b8152600401610ca49061473d565b61221582612774565b600082815261019b6020908152604091829020805467ffffffffffffffff19166001600160401b038516908117909155915191825283917f2ec2be2c4b90c2cf13ecb6751a24daed6bb741ae5ed3f7371aabf9402f6d62e8910160405180910390a25050565b612283612987565b6001600160a01b031661229e60fb546001600160a01b031690565b6001600160a01b031614806122b957506122b961051f612987565b6122d55760405162461bcd60e51b8152600401610ca49061473d565b6114598282613396565b6122e7612987565b6001600160a01b031661230260fb546001600160a01b031690565b6001600160a01b0316148061231d575061231d61051f612987565b6123395760405162461bcd60e51b8152600401610ca49061473d565b600090815261019a6020526040812055565b612353612987565b6001600160a01b031661236e60fb546001600160a01b031690565b6001600160a01b03161480612389575061238961051f612987565b6123a55760405162461bcd60e51b8152600401610ca49061473d565b6123ad612996565b6123b681612ceb565b61120c81612d49565b61019580546123cd9061464e565b80601f01602080910402602001604051908101604052809291908181526020018280546123f99061464e565b80156124465780601f1061241b57610100808354040283529160200191612446565b820191906000526020600020905b81548152906001019060200180831161242957829003601f168201915b505050505081565b60006001600160a01b0382166e6c3852cbef3e08e8df289169ede581148061248f57506001600160a01b038216600090815261019c602052604090205460ff165b1561249c57506001610b2e565b6001600160a01b038084166000908152606a602090815260408083209386168352929052205460ff165b9392505050565b6124d56130cb565b6001600160a01b03811661253a5760405162461bcd60e51b815260206004820152602660248201527f4f776e61626c653a206e6577206f776e657220697320746865207a65726f206160448201526564647265737360d01b6064820152608401610ca4565b61120c81613144565b600061254d612996565b612555612987565b6001600160a01b031661257060fb546001600160a01b031690565b6001600160a01b0316148061258b575061258b61051f612987565b6125a75760405162461bcd60e51b8152600401610ca49061473d565b6001600160401b03821615612634576000806125c384426149c0565b905060005b8781101561262c57806101965460016125e191906149ad565b6125eb91906149ad565b9250612611898983818110612602576126026149e7565b90506020020135848989613319565b5061261c83836121b2565b612625816149fd565b90506125c8565b505050612690565b60005b8581101561268e5761267d878783818110612654576126546149e7565b905060200201358261019654600161266c91906149ad565b61267691906149ad565b8787613319565b50612687816149fd565b9050612637565b505b858590506101966000828254611f2c91906149ad565b6126ae612987565b6001600160a01b03166126c960fb546001600160a01b031690565b6001600160a01b031614806126e457506126e461051f612987565b6127005760405162461bcd60e51b8152600401610ca49061473d565b612708612996565b61271182612774565b6000918252610197602052604090912055565b60006001600160e01b031982166380ac58cd60e01b148061275557506001600160e01b03198216635b5e139f60e01b145b80610b2e57506301ffc9a760e01b6001600160e01b0319831614610b2e565b6000818152606760205260409020546001600160a01b031661120c5760405162461bcd60e51b8152602060048201526018602482015277115490cdcc8c4e881a5b9d985b1a59081d1bdad95b88125160421b6044820152606401610ca4565b60006127de8261176f565b9050806001600160a01b0316836001600160a01b03160361284b5760405162461bcd60e51b815260206004820152602160248201527f4552433732313a20617070726f76616c20746f2063757272656e74206f776e656044820152603960f91b6064820152608401610ca4565b806001600160a01b031661285d612987565b6001600160a01b03161480612879575061287981610a58612987565b6128eb5760405162461bcd60e51b815260206004820152603d60248201527f4552433732313a20617070726f76652063616c6c6572206973206e6f7420746f60448201527f6b656e206f776e6572206f7220617070726f76656420666f7220616c6c0000006064820152608401610ca4565b610cb78383613451565b60606000612902836134bf565b60010190506000816001600160401b0381111561292157612921614186565b6040519080825280601f01601f19166020018201604052801561294b576020820181803683370190505b5090508181016020015b600019016f181899199a1a9b1b9c1cb0b131b232b360811b600a86061a8153600a850494508461295557509392505050565b6000612991613597565b905090565b60c95460ff16156112715760405162461bcd60e51b815260206004820152601060248201526f14185d5cd8589b194e881c185d5cd95960821b6044820152606401610ca4565b6129e7611362612987565b612a035760405162461bcd60e51b8152600401610ca49061485b565b610cb7838383612d92565b612a16612987565b6001600160a01b0316612a3160fb546001600160a01b031690565b6001600160a01b03161480612a4c5750612a4c61051f612987565b61120c5760405162461bcd60e51b8152600401610ca49061473d565b7f4910fdfa16fed3260ed0e7147f7cc6da11a60208b5b9406d12a635614ffd91435460ff1615612a9b57610cb7836135cc565b826001600160a01b03166352d1902d6040518163ffffffff1660e01b8152600401602060405180830381865afa925050508015612af5575060408051601f3d908101601f19168201909252612af291810190614a5c565b60015b612b585760405162461bcd60e51b815260206004820152602e60248201527f45524331393637557067726164653a206e657720696d706c656d656e7461746960448201526d6f6e206973206e6f74205555505360901b6064820152608401610ca4565b600080516020614c2b8339815191528114612bc75760405162461bcd60e51b815260206004820152602960248201527f45524331393637557067726164653a20756e737570706f727465642070726f786044820152681a58589b195555525160ba1b6064820152608401610ca4565b50610cb7838383613668565b612bdb61368d565b60c9805460ff191690557f5db9ee0a495bf2e6ff9c91a7834c1ba4fdd244a5e8aa4e537bd38aeae4b073aa612c0e612987565b6040516001600160a01b03909116815260200160405180910390a1565b610cb783838360405180602001604052806000815250612001565b600080612c528361176f565b9050806001600160a01b0316846001600160a01b03161480612c795750612c79818561244e565b80611d305750836001600160a01b0316612c9284610bc7565b6001600160a01b031614949350505050565b612cad816136d6565b6000908152610197602090815260408083208390556101988252808320805460ff1916905561019b9091529020805467ffffffffffffffff19169055565b612cf481612774565b6000818152610198602052604090205460ff1661120c5760405162461bcd60e51b8152602060048201526013602482015272151bdad95b881a5cc81b9bdd081b1bd8dad959606a1b6044820152606401610ca4565b6000818152610198602052604090819020805460ff19169055517ff27b6ce5b2f5e68ddb2fd95a8a909d4ecf1daaac270935fff052feacb24f184290610d9f9083815260200190565b826001600160a01b0316612da58261176f565b6001600160a01b031614612dcb5760405162461bcd60e51b8152600401610ca490614a75565b6001600160a01b038216612e2d5760405162461bcd60e51b8152602060048201526024808201527f4552433732313a207472616e7366657220746f20746865207a65726f206164646044820152637265737360e01b6064820152608401610ca4565b612e3a8383836001613779565b826001600160a01b0316612e4d8261176f565b6001600160a01b031614612e735760405162461bcd60e51b8152600401610ca490614a75565b600081815260696020908152604080832080546001600160a01b03199081169091556001600160a01b0387811680865260688552838620805460001901905590871680865283862080546001019055868652606790945282852080549092168417909155905184937fddf252ad1be2c89b69c2b068fc378daa952ba7f163c4a11628f55a4df523b3ef91a4505050565b600054610100900460ff16612f2a5760405162461bcd60e51b8152600401610ca490614aba565b611459828261382e565b600054610100900460ff16612f5b5760405162461bcd60e51b8152600401610ca490614aba565b61127161386e565b600054610100900460ff16612f8a5760405162461bcd60e51b8152600401610ca490614aba565b6112716138a1565b600054610100900460ff166112715760405162461bcd60e51b8152600401610ca490614aba565b600054610100900460ff16612fe05760405162461bcd60e51b8152600401610ca490614aba565b611271733cc6cdda760b79bafa08df41ecfa224f810dceb660016138d8565b6127106001600160601b038216111561302a5760405162461bcd60e51b8152600401610ca490614b05565b6001600160a01b0382166130805760405162461bcd60e51b815260206004820152601b60248201527f455243323938313a20496e76616c696420706172616d657465727300000000006044820152606401610ca4565b6040805180820182526001600160a01b0393841681526001600160601b039283166020808301918252600096875261019a90529190942093519051909116600160a01b029116179055565b6130d3612987565b6001600160a01b03166130ee60fb546001600160a01b031690565b6001600160a01b0316146112715760405162461bcd60e51b815260206004820181905260248201527f4f776e61626c653a2063616c6c6572206973206e6f7420746865206f776e65726044820152606401610ca4565b60fb80546001600160a01b038381166001600160a01b0319831681179093556040519116919082907f8be0079c531659141344cd1fd0a4f28419497f9722a3daafe3b4186f6b6457e090600090a35050565b600082815261019b60205260408120546001600160401b0316908181036131c8576131c183426149c0565b90506131d5565b6131d283836149c0565b90505b600084815261019b6020908152604091829020805467ffffffffffffffff19166001600160401b038516908117909155915191825285917f2ec2be2c4b90c2cf13ecb6751a24daed6bb741ae5ed3f7371aabf9402f6d62e8910160405180910390a250505050565b6000818152610198602052604090819020805460ff19166001179055517f032bc66be43dbccb7487781d168eb7bda224628a3b2c3388bdf69b532a3a161190610d9f9083815260200190565b613291612996565b60c9805460ff191660011790557f62e78cea01bee320cd4e420270b5ea74000d11b0c9f74754ebdbfc544b05a258612c0e612987565b60006132d38486613a7f565b60008581526101976020526040902086905582156132f4576132f48561323d565b6001600160401b0382161561330d5761330d8583613196565b50600195945050505050565b60006133258385613a7f565b6000848152610197602052604090208590558115613346576133468461323d565b506001949350505050565b61145961335c612987565b8383613c18565b61336e611b6c612987565b61338a5760405162461bcd60e51b8152600401610ca49061485b565b61104984848484613ce6565b6127106001600160601b03821611156133c15760405162461bcd60e51b8152600401610ca490614b05565b6001600160a01b0382166134175760405162461bcd60e51b815260206004820152601960248201527f455243323938313a20696e76616c6964207265636569766572000000000000006044820152606401610ca4565b604080518082019091526001600160a01b039092168083526001600160601b039091166020909201829052600160a01b9091021761019955565b600081815260696020526040902080546001600160a01b0319166001600160a01b03841690811790915581906134868261176f565b6001600160a01b03167f8c5be1e5ebec7d5bd14f71427d1e84f3dd0314c0f7b2291e5b200ac8c7c3b92560405160405180910390a45050565b60008072184f03e93ff9f4daa797ed6e38ed64bf6a1f0160401b83106134fe5772184f03e93ff9f4daa797ed6e38ed64bf6a1f0160401b830492506040015b6d04ee2d6d415b85acef8100000000831061352a576d04ee2d6d415b85acef8100000000830492506020015b662386f26fc10000831061354857662386f26fc10000830492506010015b6305f5e1008310613560576305f5e100830492506008015b612710831061357457612710830492506004015b60648310613586576064830492506002015b600a8310610b2e5760010192915050565b6000601436108015906135b55750610191546001600160a01b031633145b156135c7575060131936013560601c90565b503390565b6001600160a01b0381163b6136395760405162461bcd60e51b815260206004820152602d60248201527f455243313936373a206e657720696d706c656d656e746174696f6e206973206e60448201526c1bdd08184818dbdb9d1c9858dd609a1b6064820152608401610ca4565b600080516020614c2b83398151915280546001600160a01b0319166001600160a01b0392909216919091179055565b61367183613d19565b60008251118061367e5750805b15610cb7576110498383613d59565b60c95460ff166112715760405162461bcd60e51b815260206004820152601460248201527314185d5cd8589b194e881b9bdd081c185d5cd95960621b6044820152606401610ca4565b60006136e18261176f565b90506136f1816000846001613779565b6136fa8261176f565b600083815260696020908152604080832080546001600160a01b03199081169091556001600160a01b0385168085526068845282852080546000190190558785526067909352818420805490911690555192935084927fddf252ad1be2c89b69c2b068fc378daa952ba7f163c4a11628f55a4df523b3ef908390a45050565b613781612996565b60405163f6aacfb160e01b8152600481018390528290309063f6aacfb190602401602060405180830381865afa1580156137bf573d6000803e3d6000fd5b505050506040513d601f19601f820116820180604052508101906137e39190614688565b156138225760405162461bcd60e51b815260206004820152600f60248201526e151bdad95b881a5cc81b1bd8dad959608a1b6044820152606401610ca4565b61176885858585613e4d565b600054610100900460ff166138555760405162461bcd60e51b8152600401610ca490614aba565b606561386183826148ee565b506066610cb782826148ee565b600054610100900460ff166138955760405162461bcd60e51b8152600401610ca490614aba565b60c9805460ff19169055565b600054610100900460ff166138c85760405162461bcd60e51b8152600401610ca490614aba565b6112716138d3612987565b613144565b600054610100900460ff166138ff5760405162461bcd60e51b8152600401610ca490614aba565b6daaeb6d7670e522a718067333cd4e3b156114595760405163c3c5a54760e01b81523060048201526daaeb6d7670e522a718067333cd4e9063c3c5a547906024016020604051808303816000875af115801561395f573d6000803e3d6000fd5b505050506040513d601f19601f820116820180604052508101906139839190614688565b6114595780156139ff57604051633e9f1edf60e11b81523060048201526001600160a01b03831660248201526daaeb6d7670e522a718067333cd4e90637d3e3dbe906044015b600060405180830381600087803b1580156139e357600080fd5b505af11580156139f7573d6000803e3d6000fd5b505050505050565b6001600160a01b03821615613a4e5760405163a0af290360e01b81523060048201526001600160a01b03831660248201526daaeb6d7670e522a718067333cd4e9063a0af2903906044016139c9565b604051632210724360e11b81523060048201526daaeb6d7670e522a718067333cd4e90634420e486906024016139c9565b6001600160a01b038216613ad55760405162461bcd60e51b815260206004820181905260248201527f4552433732313a206d696e7420746f20746865207a65726f20616464726573736044820152606401610ca4565b6000818152606760205260409020546001600160a01b031615613b3a5760405162461bcd60e51b815260206004820152601c60248201527f4552433732313a20746f6b656e20616c7265616479206d696e746564000000006044820152606401610ca4565b613b48600083836001613779565b6000818152606760205260409020546001600160a01b031615613bad5760405162461bcd60e51b815260206004820152601c60248201527f4552433732313a20746f6b656e20616c7265616479206d696e746564000000006044820152606401610ca4565b6001600160a01b038216600081815260686020908152604080832080546001019055848352606790915280822080546001600160a01b0319168417905551839291907fddf252ad1be2c89b69c2b068fc378daa952ba7f163c4a11628f55a4df523b3ef908290a45050565b816001600160a01b0316836001600160a01b031603613c795760405162461bcd60e51b815260206004820152601960248201527f4552433732313a20617070726f766520746f2063616c6c6572000000000000006044820152606401610ca4565b6001600160a01b038381166000818152606a6020908152604080832094871680845294825291829020805460ff191686151590811790915591519182527f17307eab39ab6107e8899845ad3d59bd9653f200f220920489ca2b5937696c31910160405180910390a3505050565b613cf1848484612d92565b613cfd84848484613ed5565b6110495760405162461bcd60e51b8152600401610ca490614b4f565b613d22816135cc565b6040516001600160a01b038216907fbc7cd75a20ee27fd9adebab32041f755214dbc6bffa90cc0225b39da2e5c2d3b90600090a250565b60606001600160a01b0383163b613dc15760405162461bcd60e51b815260206004820152602660248201527f416464726573733a2064656c65676174652063616c6c20746f206e6f6e2d636f6044820152651b9d1c9858dd60d21b6064820152608401610ca4565b600080846001600160a01b031684604051613ddc9190614ba1565b600060405180830381855af49150503d8060008114613e17576040519150601f19603f3d011682016040523d82523d6000602084013e613e1c565b606091505b5091509150613e448282604051806060016040528060278152602001614c4b60279139613fda565b95945050505050565b6001811115611049576001600160a01b03841615613e93576001600160a01b03841660009081526068602052604081208054839290613e8d908490614bbd565b90915550505b6001600160a01b03831615611049576001600160a01b03831660009081526068602052604081208054839290613eca9084906149ad565b909155505050505050565b60006001600160a01b0384163b15613fd257836001600160a01b031663150b7a02613efe612987565b8786866040518563ffffffff1660e01b8152600401613f209493929190614bd0565b6020604051808303816000875af1925050508015613f5b575060408051601f3d908101601f19168201909252613f5891810190614c0d565b60015b613fb8573d808015613f89576040519150601f19603f3d011682016040523d82523d6000602084013e613f8e565b606091505b508051600003613fb05760405162461bcd60e51b8152600401610ca490614b4f565b805181602001fd5b6001600160e01b031916630a85bd0160e11b149050611d30565b506001611d30565b60608315613fe95750816124c6565b6124c68383815115613ffe5781518083602001fd5b8060405162461bcd60e51b8152600401610ca4919061409b565b6001600160e01b03198116811461120c57600080fd5b60006020828403121561404057600080fd5b81356124c681614018565b60005b8381101561406657818101518382015260200161404e565b50506000910152565b6000815180845261408781602086016020860161404b565b601f01601f19169290920160200192915050565b6020815260006124c6602083018461406f565b6000602082840312156140c057600080fd5b5035919050565b80356001600160a01b03811681146140de57600080fd5b919050565b600080604083850312156140f657600080fd5b6140ff836140c7565b946020939093013593505050565b60006020828403121561411f57600080fd5b6124c6826140c7565b60008060006060848603121561413d57600080fd5b614146846140c7565b9250614154602085016140c7565b9150604084013590509250925092565b6000806040838503121561417757600080fd5b50508035926020909101359150565b634e487b7160e01b600052604160045260246000fd5b600082601f8301126141ad57600080fd5b81356001600160401b03808211156141c7576141c7614186565b604051601f8301601f19908116603f011681019082821181831017156141ef576141ef614186565b8160405283815286602085880101111561420857600080fd5b836020870160208301376000602085830101528094505050505092915050565b6000806040838503121561423b57600080fd5b614244836140c7565b915060208301356001600160401b0381111561425f57600080fd5b61426b8582860161419c565b9150509250929050565b60006020828403121561428757600080fd5b81356001600160401b0381111561429d57600080fd5b611d308482850161419c565b600080604083850312156142bc57600080fd5b823591506142cc602084016140c7565b90509250929050565b600080600080608085870312156142eb57600080fd5b84356001600160401b038082111561430257600080fd5b61430e8883890161419c565b9550602087013591508082111561432457600080fd5b6143308883890161419c565b9450604087013591508082111561434657600080fd5b506143538782880161419c565b925050614362606086016140c7565b905092959194509250565b80356001600160601b03811681146140de57600080fd5b60008060006060848603121561439957600080fd5b833592506143a9602085016140c7565b91506143b76040850161436d565b90509250925092565b80356001600160401b03811681146140de57600080fd5b600080604083850312156143ea57600080fd5b823591506142cc602084016143c0565b801515811461120c57600080fd5b6000806000806080858703121561441e57600080fd5b8435935061442e602086016140c7565b9250604085013561443e816143fa565b9150614362606086016143c0565b60008083601f84011261445e57600080fd5b5081356001600160401b0381111561447557600080fd5b6020830191508360208260051b850101111561110a57600080fd5b6000806000806000608086880312156144a857600080fd5b8535945060208601356001600160401b038111156144c557600080fd5b6144d18882890161444c565b90955093505060408601356144e5816143fa565b91506144f3606087016143c0565b90509295509295909350565b6000806040838503121561451257600080fd5b61451b836140c7565b9150602083013561452b816143fa565b809150509250929050565b6000806000806080858703121561454c57600080fd5b614555856140c7565b9350614563602086016140c7565b92506040850135915060608501356001600160401b0381111561458557600080fd5b6145918782880161419c565b91505092959194509250565b600080604083850312156145b057600080fd5b6145b9836140c7565b91506142cc6020840161436d565b600080604083850312156145da57600080fd5b6145e3836140c7565b91506142cc602084016140c7565b60008060008060006080868803121561460957600080fd5b85356001600160401b0381111561461f57600080fd5b61462b8882890161444c565b909650945061463e9050602087016140c7565b925060408601356144e5816143fa565b600181811c9082168061466257607f821691505b60208210810361468257634e487b7160e01b600052602260045260246000fd5b50919050565b60006020828403121561469a57600080fd5b81516124c6816143fa565b600081546146b28161464e565b600182811680156146ca57600181146146df5761470e565b60ff198416875282151583028701945061470e565b8560005260208060002060005b858110156147055781548a8201529084019082016146ec565b50505082870194505b5050505092915050565b600061472482856146a5565b835161473481836020880161404b565b01949350505050565b6020808252601c908201527f63616c6c6572206973206e6f74206f776e6572206f722061646d696e00000000604082015260600190565b634e487b7160e01b600052601160045260246000fd5b8082028115828204841417610b2e57610b2e614774565b6000826147be57634e487b7160e01b600052601260045260246000fd5b500490565b6020808252602c908201527f46756e6374696f6e206d7573742062652063616c6c6564207468726f7567682060408201526b19195b1959d85d1958d85b1b60a21b606082015260800190565b6020808252602c908201527f46756e6374696f6e206d7573742062652063616c6c6564207468726f7567682060408201526b6163746976652070726f787960a01b606082015260800190565b6020808252602d908201527f4552433732313a2063616c6c6572206973206e6f7420746f6b656e206f776e6560408201526c1c881bdc88185c1c1c9bdd9959609a1b606082015260800190565b601f821115610cb757600081815260208120601f850160051c810160208610156148cf5750805b601f850160051c820191505b818110156139f7578281556001016148db565b81516001600160401b0381111561490757614907614186565b61491b81614915845461464e565b846148a8565b602080601f83116001811461495057600084156149385750858301515b600019600386901b1c1916600185901b1785556139f7565b600085815260208120601f198616915b8281101561497f57888601518255948401946001909101908401614960565b508582101561499d5787850151600019600388901b60f8161c191681555b5050505050600190811b01905550565b80820180821115610b2e57610b2e614774565b6001600160401b038181168382160190808211156149e0576149e0614774565b5092915050565b634e487b7160e01b600052603260045260246000fd5b600060018201614a0f57614a0f614774565b5060010190565b6000614a2282866146a5565b8451614a3281836020890161404b565b602f60f81b91019081528351614a4f81600184016020880161404b565b0160010195945050505050565b600060208284031215614a6e57600080fd5b5051919050565b60208082526025908201527f4552433732313a207472616e736665722066726f6d20696e636f72726563742060408201526437bbb732b960d91b606082015260800190565b6020808252602b908201527f496e697469616c697a61626c653a20636f6e7472616374206973206e6f74206960408201526a6e697469616c697a696e6760a81b606082015260800190565b6020808252602a908201527f455243323938313a20726f79616c7479206665652077696c6c206578636565646040820152692073616c65507269636560b01b606082015260800190565b60208082526032908201527f4552433732313a207472616e7366657220746f206e6f6e20455243373231526560408201527131b2b4bb32b91034b6b83632b6b2b73a32b960711b606082015260800190565b60008251614bb381846020870161404b565b9190910192915050565b81810381811115610b2e57610b2e614774565b6001600160a01b0385811682528416602082015260408101839052608060608201819052600090614c039083018461406f565b9695505050505050565b600060208284031215614c1f57600080fd5b81516124c68161401856fe360894a13ba1a3210667c828492db98dca3e2076cc3735a920a3ca505d382bbc416464726573733a206c6f772d6c6576656c2064656c65676174652063616c6c206661696c6564a264697066735822122081ae7a73a9d79c32b431d4b3897408709d3d938337334eb877b7f53235e4405e64736f6c63430008110033",
    "linkReferences": {}
  },
  "methodIdentifiers": {
    "addAdmin(address)": "70480275",
    "approve(address,uint256)": "095ea7b3",
    "balanceOf(address)": "70a08231",
    "burn(uint256)": "42966c68",
    "cancelSubscription(uint256)": "21235083",
    "collectionURI(uint256)": "1771c96c",
    "contractURI()": "e8a3d485",
    "expiresAt(uint256)": "17c95709",
    "getApproved(uint256)": "081812fc",
    "getTrustedForwarder()": "ce1b815f",
    "initialize(string,string,string,address)": "5c6d8da1",
    "isAdmin(address)": "24d7806c",
    "isApprovedForAll(address,address)": "e985e9c5",
    "isLocked(uint256)": "f6aacfb1",
    "isRenewable(uint256)": "cde317af",
    "isTrustedForwarder(address)": "572b6c05",
    "lastId()": "c1292cc3",
    "lockToken(uint256)": "80f20363",
    "mintCollectionToManyUsers(uint256,address[],bool,uint64)": "9a80c5e3",
    "mintToken(uint256,address,bool,uint64)": "8e45d62e",
    "mintUserToManyCollections(uint256[],address,bool,uint64)": "fb1fcca1",
    "name()": "06fdde03",
    "owner()": "8da5cb5b",
    "ownerOf(uint256)": "6352211e",
    "pause()": "8456cb59",
    "paused()": "5c975abb",
    "proxiableUUID()": "52d1902d",
    "reclaimToken(uint256,address)": "59ce12ad",
    "removeAdmin(address)": "1785f53c",
    "removeCollectionRoyalty(uint256)": "d953e4d4",
    "removeDefaultRoyalty()": "97ec4fba",
    "renewSubscription(uint256,uint64)": "776ce868",
    "renounceOwnership()": "715018a6",
    "royaltyInfo(uint256,uint256)": "2a55205a",
    "safeTransferFrom(address,address,uint256)": "42842e0e",
    "safeTransferFrom(address,address,uint256,bytes)": "b88d4fde",
    "setApprovalForAll(address,bool)": "a22cb465",
    "setExpiration(uint256,uint64)": "d1c332de",
    "setLastId(uint256)": "1a27e85f",
    "setTurstedForwarder(address)": "cea0302e",
    "supportsInterface(bytes4)": "01ffc9a7",
    "symbol()": "95d89b41",
    "tokenCollection(uint256)": "2dd883e8",
    "tokenURI(uint256)": "c87b56dd",
    "transferFrom(address,address,uint256)": "23b872dd",
    "transferOwnership(address)": "f2fde38b",
    "unlockToken(uint256)": "dd2e0ac0",
    "unpause()": "3f4ba83a",
    "updateCollectionRoyalty(uint256,address,uint96)": "6a662a3c",
    "updateContractURI(string)": "7e5b1e24",
    "updateDefaultRoyalty(address,uint96)": "d691e43c",
    "updateName(string)": "84da92a7",
    "updateSymbol(string)": "537f5312",
    "updateTokenCollection(uint256,uint256)": "fe946309",
    "upgradeTo(address)": "3659cfe6",
    "upgradeToAndCall(address,bytes)": "4f1ef286",
    "version()": "54fd4d50"
  },
  "id": 37
}