{
  "abi": [
    {
      "inputs": [],
      "stateMutability": "nonpayable",
      "type": "constructor"
    },
    {
      "inputs": [
        {
          "internalType": "address",
          "name": "operator",
          "type": "address"
        }
      ],
      "name": "OperatorNotAllowed",
      "type": "error"
    },
    {
      "anonymous": false,
      "inputs": [
        {
          "indexed": false,
          "internalType": "address",
          "name": "previousAdmin",
          "type": "address"
        },
        {
          "indexed": false,
          "internalType": "address",
          "name": "newAdmin",
          "type": "address"
        }
      ],
      "name": "AdminChanged",
      "type": "event"
    },
    {
      "anonymous": false,
      "inputs": [
        {
          "indexed": false,
          "internalType": "address",
          "name": "admin",
          "type": "address"
        },
        {
          "indexed": false,
          "internalType": "bool",
          "name": "added",
          "type": "bool"
        }
      ],
      "name": "AdminUpdated",
      "type": "event"
    },
    {
      "anonymous": false,
      "inputs": [
        {
          "indexed": true,
          "internalType": "address",
          "name": "owner",
          "type": "address"
        },
        {
          "indexed": true,
          "internalType": "address",
          "name": "approved",
          "type": "address"
        },
        {
          "indexed": true,
          "internalType": "uint256",
          "name": "tokenId",
          "type": "uint256"
        }
      ],
      "name": "Approval",
      "type": "event"
    },
    {
      "anonymous": false,
      "inputs": [
        {
          "indexed": true,
          "internalType": "address",
          "name": "owner",
          "type": "address"
        },
        {
          "indexed": true,
          "internalType": "address",
          "name": "operator",
          "type": "address"
        },
        {
          "indexed": false,
          "internalType": "bool",
          "name": "approved",
          "type": "bool"
        }
      ],
      "name": "ApprovalForAll",
      "type": "event"
    },
    {
      "anonymous": false,
      "inputs": [
        {
          "indexed": true,
          "internalType": "address",
          "name": "beacon",
          "type": "address"
        }
      ],
      "name": "BeaconUpgraded",
      "type": "event"
    },
    {
      "anonymous": false,
      "inputs": [
        {
          "indexed": false,
          "internalType": "uint8",
          "name": "version",
          "type": "uint8"
        }
      ],
      "name": "Initialized",
      "type": "event"
    },
    {
      "anonymous": false,
      "inputs": [
        {
          "indexed": false,
          "internalType": "uint256",
          "name": "tokenId",
          "type": "uint256"
        }
      ],
      "name": "Locked",
      "type": "event"
    },
    {
      "anonymous": false,
      "inputs": [
        {
          "indexed": true,
          "internalType": "address",
          "name": "previousOwner",
          "type": "address"
        },
        {
          "indexed": true,
          "internalType": "address",
          "name": "newOwner",
          "type": "address"
        }
      ],
      "name": "OwnershipTransferred",
      "type": "event"
    },
    {
      "anonymous": false,
      "inputs": [
        {
          "indexed": false,
          "internalType": "address",
          "name": "account",
          "type": "address"
        }
      ],
      "name": "Paused",
      "type": "event"
    },
    {
      "anonymous": false,
      "inputs": [
        {
          "indexed": true,
          "internalType": "uint256",
          "name": "tokenId",
          "type": "uint256"
        },
        {
          "indexed": false,
          "internalType": "uint64",
          "name": "expiration",
          "type": "uint64"
        }
      ],
      "name": "SubscriptionUpdate",
      "type": "event"
    },
    {
      "anonymous": false,
      "inputs": [
        {
          "indexed": true,
          "internalType": "address",
          "name": "from",
          "type": "address"
        },
        {
          "indexed": true,
          "internalType": "address",
          "name": "to",
          "type": "address"
        },
        {
          "indexed": true,
          "internalType": "uint256",
          "name": "tokenId",
          "type": "uint256"
        }
      ],
      "name": "Transfer",
      "type": "event"
    },
    {
      "anonymous": false,
      "inputs": [
        {
          "indexed": false,
          "internalType": "uint256",
          "name": "tokenId",
          "type": "uint256"
        }
      ],
      "name": "Unlocked",
      "type": "event"
    },
    {
      "anonymous": false,
      "inputs": [
        {
          "indexed": false,
          "internalType": "address",
          "name": "account",
          "type": "address"
        }
      ],
      "name": "Unpaused",
      "type": "event"
    },
    {
      "anonymous": false,
      "inputs": [
        {
          "indexed": true,
          "internalType": "address",
          "name": "implementation",
          "type": "address"
        }
      ],
      "name": "Upgraded",
      "type": "event"
    },
    {
      "inputs": [
        {
          "internalType": "address",
          "name": "newAdmin",
          "type": "address"
        }
      ],
      "name": "addAdmin",
      "outputs": [],
      "stateMutability": "nonpayable",
      "type": "function"
    },
    {
      "inputs": [
        {
          "internalType": "address",
          "name": "operator",
          "type": "address"
        },
        {
          "internalType": "uint256",
          "name": "tokenId",
          "type": "uint256"
        }
      ],
      "name": "approve",
      "outputs": [],
      "stateMutability": "nonpayable",
      "type": "function"
    },
    {
      "inputs": [
        {
          "internalType": "address",
          "name": "owner",
          "type": "address"
        }
      ],
      "name": "balanceOf",
      "outputs": [
        {
          "internalType": "uint256",
          "name": "",
          "type": "uint256"
        }
      ],
      "stateMutability": "view",
      "type": "function"
    },
    {
      "inputs": [
        {
          "internalType": "uint256",
          "name": "tokenId",
          "type": "uint256"
        }
      ],
      "name": "burn",
      "outputs": [],
      "stateMutability": "nonpayable",
      "type": "function"
    },
    {
      "inputs": [
        {
          "internalType": "uint256",
          "name": "tokenId",
          "type": "uint256"
        }
      ],
      "name": "burnLocked",
      "outputs": [],
      "stateMutability": "nonpayable",
      "type": "function"
    },
    {
      "inputs": [
        {
          "internalType": "uint256",
          "name": "tokenId",
          "type": "uint256"
        }
      ],
      "name": "cancelSubscription",
      "outputs": [],
      "stateMutability": "nonpayable",
      "type": "function"
    },
    {
      "inputs": [
        {
          "internalType": "uint256",
          "name": "collectionId",
          "type": "uint256"
        }
      ],
      "name": "collectionURI",
      "outputs": [
        {
          "internalType": "string",
          "name": "",
          "type": "string"
        }
      ],
      "stateMutability": "view",
      "type": "function"
    },
    {
      "inputs": [],
      "name": "contractURI",
      "outputs": [
        {
          "internalType": "string",
          "name": "",
          "type": "string"
        }
      ],
      "stateMutability": "view",
      "type": "function"
    },
    {
      "inputs": [
        {
          "internalType": "uint256",
          "name": "tokenId",
          "type": "uint256"
        }
      ],
      "name": "expiresAt",
      "outputs": [
        {
          "internalType": "uint64",
          "name": "",
          "type": "uint64"
        }
      ],
      "stateMutability": "view",
      "type": "function"
    },
    {
      "inputs": [
        {
          "internalType": "uint256",
          "name": "tokenId",
          "type": "uint256"
        }
      ],
      "name": "getApproved",
      "outputs": [
        {
          "internalType": "address",
          "name": "",
          "type": "address"
        }
      ],
      "stateMutability": "view",
      "type": "function"
    },
    {
      "inputs": [],
      "name": "getTrustedForwarder",
      "outputs": [
        {
          "internalType": "address",
          "name": "forwarder",
          "type": "address"
        }
      ],
      "stateMutability": "view",
      "type": "function"
    },
    {
      "inputs": [
        {
          "internalType": "string",
          "name": "__name",
          "type": "string"
        },
        {
          "internalType": "string",
          "name": "__symbol",
          "type": "string"
        },
        {
          "internalType": "string",
          "name": "__contractURI",
          "type": "string"
        },
        {
          "internalType": "address",
          "name": "__admin",
          "type": "address"
        }
      ],
      "name": "initialize",
      "outputs": [],
      "stateMutability": "nonpayable",
      "type": "function"
    },
    {
      "inputs": [
        {
          "internalType": "address",
          "name": "admin",
          "type": "address"
        }
      ],
      "name": "isAdmin",
      "outputs": [
        {
          "internalType": "bool",
          "name": "",
          "type": "bool"
        }
      ],
      "stateMutability": "view",
      "type": "function"
    },
    {
      "inputs": [
        {
          "internalType": "address",
          "name": "_owner",
          "type": "address"
        },
        {
          "internalType": "address",
          "name": "_operator",
          "type": "address"
        }
      ],
      "name": "isApprovedForAll",
      "outputs": [
        {
          "internalType": "bool",
          "name": "isOperator",
          "type": "bool"
        }
      ],
      "stateMutability": "view",
      "type": "function"
    },
    {
      "inputs": [
        {
          "internalType": "uint256",
          "name": "tokenId",
          "type": "uint256"
        }
      ],
      "name": "isLocked",
      "outputs": [
        {
          "internalType": "bool",
          "name": "",
          "type": "bool"
        }
      ],
      "stateMutability": "view",
      "type": "function"
    },
    {
      "inputs": [
        {
          "internalType": "uint256",
          "name": "",
          "type": "uint256"
        }
      ],
      "name": "isRenewable",
      "outputs": [
        {
          "internalType": "bool",
          "name": "",
          "type": "bool"
        }
      ],
      "stateMutability": "pure",
      "type": "function"
    },
    {
      "inputs": [
        {
          "internalType": "address",
          "name": "forwarder",
          "type": "address"
        }
      ],
      "name": "isTrustedForwarder",
      "outputs": [
        {
          "internalType": "bool",
          "name": "",
          "type": "bool"
        }
      ],
      "stateMutability": "view",
      "type": "function"
    },
    {
      "inputs": [],
      "name": "lastId",
      "outputs": [
        {
          "internalType": "uint256",
          "name": "",
          "type": "uint256"
        }
      ],
      "stateMutability": "view",
      "type": "function"
    },
    {
      "inputs": [
        {
          "internalType": "uint256",
          "name": "tokenId",
          "type": "uint256"
        }
      ],
      "name": "lockToken",
      "outputs": [],
      "stateMutability": "nonpayable",
      "type": "function"
    },
    {
      "inputs": [
        {
          "internalType": "uint256",
          "name": "collectionId",
          "type": "uint256"
        },
        {
          "internalType": "address[]",
          "name": "to",
          "type": "address[]"
        },
        {
          "internalType": "bool",
          "name": "locked",
          "type": "bool"
        },
        {
          "internalType": "uint64",
          "name": "expiration",
          "type": "uint64"
        }
      ],
      "name": "mintCollectionToManyUsers",
      "outputs": [
        {
          "internalType": "uint256",
          "name": "",
          "type": "uint256"
        },
        {
          "internalType": "uint256",
          "name": "",
          "type": "uint256"
        }
      ],
      "stateMutability": "nonpayable",
      "type": "function"
    },
    {
      "inputs": [
        {
          "internalType": "uint256",
          "name": "collectionId",
          "type": "uint256"
        },
        {
          "internalType": "address",
          "name": "to",
          "type": "address"
        },
        {
          "internalType": "bool",
          "name": "locked",
          "type": "bool"
        }
      ],
      "name": "mintToken",
      "outputs": [
        {
          "internalType": "uint256",
          "name": "",
          "type": "uint256"
        }
      ],
      "stateMutability": "nonpayable",
      "type": "function"
    },
    {
      "inputs": [
        {
          "internalType": "uint256",
          "name": "collectionId",
          "type": "uint256"
        },
        {
          "internalType": "address",
          "name": "to",
          "type": "address"
        },
        {
          "internalType": "bool",
          "name": "locked",
          "type": "bool"
        },
        {
          "internalType": "uint64",
          "name": "expiration",
          "type": "uint64"
        }
      ],
      "name": "mintTokenWithExpiration",
      "outputs": [
        {
          "internalType": "uint256",
          "name": "",
          "type": "uint256"
        }
      ],
      "stateMutability": "nonpayable",
      "type": "function"
    },
    {
      "inputs": [
        {
          "internalType": "uint256[]",
          "name": "collectionIds",
          "type": "uint256[]"
        },
        {
          "internalType": "address",
          "name": "to",
          "type": "address"
        },
        {
          "internalType": "bool",
          "name": "locked",
          "type": "bool"
        },
        {
          "internalType": "uint64",
          "name": "expiration",
          "type": "uint64"
        }
      ],
      "name": "mintUserToManyCollections",
      "outputs": [
        {
          "internalType": "uint256",
          "name": "",
          "type": "uint256"
        },
        {
          "internalType": "uint256",
          "name": "",
          "type": "uint256"
        }
      ],
      "stateMutability": "nonpayable",
      "type": "function"
    },
    {
      "inputs": [],
      "name": "name",
      "outputs": [
        {
          "internalType": "string",
          "name": "",
          "type": "string"
        }
      ],
      "stateMutability": "view",
      "type": "function"
    },
    {
      "inputs": [],
      "name": "owner",
      "outputs": [
        {
          "internalType": "address",
          "name": "",
          "type": "address"
        }
      ],
      "stateMutability": "view",
      "type": "function"
    },
    {
      "inputs": [
        {
          "internalType": "uint256",
          "name": "tokenId",
          "type": "uint256"
        }
      ],
      "name": "ownerOf",
      "outputs": [
        {
          "internalType": "address",
          "name": "",
          "type": "address"
        }
      ],
      "stateMutability": "view",
      "type": "function"
    },
    {
      "inputs": [],
      "name": "pause",
      "outputs": [],
      "stateMutability": "nonpayable",
      "type": "function"
    },
    {
      "inputs": [],
      "name": "paused",
      "outputs": [
        {
          "internalType": "bool",
          "name": "",
          "type": "bool"
        }
      ],
      "stateMutability": "view",
      "type": "function"
    },
    {
      "inputs": [],
      "name": "proxiableUUID",
      "outputs": [
        {
          "internalType": "bytes32",
          "name": "",
          "type": "bytes32"
        }
      ],
      "stateMutability": "view",
      "type": "function"
    },
    {
      "inputs": [
        {
          "internalType": "address",
          "name": "admin",
          "type": "address"
        }
      ],
      "name": "removeAdmin",
      "outputs": [],
      "stateMutability": "nonpayable",
      "type": "function"
    },
    {
      "inputs": [
        {
          "internalType": "uint256",
          "name": "collectionId",
          "type": "uint256"
        }
      ],
      "name": "removeCollectionRoyalty",
      "outputs": [],
      "stateMutability": "nonpayable",
      "type": "function"
    },
    {
      "inputs": [],
      "name": "removeDefaultRoyalty",
      "outputs": [],
      "stateMutability": "nonpayable",
      "type": "function"
    },
    {
      "inputs": [
        {
          "internalType": "uint256",
          "name": "tokenId",
          "type": "uint256"
        },
        {
          "internalType": "uint64",
          "name": "duration",
          "type": "uint64"
        }
      ],
      "name": "renewSubscription",
      "outputs": [],
      "stateMutability": "nonpayable",
      "type": "function"
    },
    {
      "inputs": [],
      "name": "renounceOwnership",
      "outputs": [],
      "stateMutability": "nonpayable",
      "type": "function"
    },
    {
      "inputs": [
        {
          "internalType": "uint256",
          "name": "_tokenId",
          "type": "uint256"
        },
        {
          "internalType": "uint256",
          "name": "_salePrice",
          "type": "uint256"
        }
      ],
      "name": "royaltyInfo",
      "outputs": [
        {
          "internalType": "address",
          "name": "",
          "type": "address"
        },
        {
          "internalType": "uint256",
          "name": "",
          "type": "uint256"
        }
      ],
      "stateMutability": "view",
      "type": "function"
    },
    {
      "inputs": [
        {
          "internalType": "address",
          "name": "from",
          "type": "address"
        },
        {
          "internalType": "address",
          "name": "to",
          "type": "address"
        },
        {
          "internalType": "uint256",
          "name": "tokenId",
          "type": "uint256"
        }
      ],
      "name": "safeTransferFrom",
      "outputs": [],
      "stateMutability": "nonpayable",
      "type": "function"
    },
    {
      "inputs": [
        {
          "internalType": "address",
          "name": "from",
          "type": "address"
        },
        {
          "internalType": "address",
          "name": "to",
          "type": "address"
        },
        {
          "internalType": "uint256",
          "name": "tokenId",
          "type": "uint256"
        },
        {
          "internalType": "bytes",
          "name": "data",
          "type": "bytes"
        }
      ],
      "name": "safeTransferFrom",
      "outputs": [],
      "stateMutability": "nonpayable",
      "type": "function"
    },
    {
      "inputs": [
        {
          "internalType": "address",
          "name": "operator",
          "type": "address"
        },
        {
          "internalType": "bool",
          "name": "approved",
          "type": "bool"
        }
      ],
      "name": "setApprovalForAll",
      "outputs": [],
      "stateMutability": "nonpayable",
      "type": "function"
    },
    {
      "inputs": [
        {
          "internalType": "uint256",
          "name": "collectionId",
          "type": "uint256"
        },
        {
          "internalType": "address",
          "name": "receiver",
          "type": "address"
        },
        {
          "internalType": "uint96",
          "name": "feeNumerator",
          "type": "uint96"
        }
      ],
      "name": "setCollectionRoyalty",
      "outputs": [],
      "stateMutability": "nonpayable",
      "type": "function"
    },
    {
      "inputs": [
        {
          "internalType": "address",
          "name": "receiver",
          "type": "address"
        },
        {
          "internalType": "uint96",
          "name": "feeNumerator",
          "type": "uint96"
        }
      ],
      "name": "setDefaultRoyalty",
      "outputs": [],
      "stateMutability": "nonpayable",
      "type": "function"
    },
    {
      "inputs": [
        {
          "internalType": "uint256",
          "name": "tokenId",
          "type": "uint256"
        },
        {
          "internalType": "uint64",
          "name": "newExpiration",
          "type": "uint64"
        }
      ],
      "name": "setExpiration",
      "outputs": [],
      "stateMutability": "nonpayable",
      "type": "function"
    },
    {
      "inputs": [
        {
          "internalType": "uint256",
          "name": "newLastId",
          "type": "uint256"
        }
      ],
      "name": "setLastId",
      "outputs": [],
      "stateMutability": "nonpayable",
      "type": "function"
    },
    {
      "inputs": [
        {
          "internalType": "address",
          "name": "forwarder",
          "type": "address"
        }
      ],
      "name": "setTrustedForwarder",
      "outputs": [],
      "stateMutability": "nonpayable",
      "type": "function"
    },
    {
      "inputs": [
        {
          "internalType": "bytes4",
          "name": "interfaceId",
          "type": "bytes4"
        }
      ],
      "name": "supportsInterface",
      "outputs": [
        {
          "internalType": "bool",
          "name": "",
          "type": "bool"
        }
      ],
      "stateMutability": "view",
      "type": "function"
    },
    {
      "inputs": [],
      "name": "symbol",
      "outputs": [
        {
          "internalType": "string",
          "name": "",
          "type": "string"
        }
      ],
      "stateMutability": "view",
      "type": "function"
    },
    {
      "inputs": [
        {
          "internalType": "uint256",
          "name": "tokenId",
          "type": "uint256"
        }
      ],
      "name": "tokenCollection",
      "outputs": [
        {
          "internalType": "uint256",
          "name": "",
          "type": "uint256"
        }
      ],
      "stateMutability": "view",
      "type": "function"
    },
    {
      "inputs": [
        {
          "internalType": "uint256",
          "name": "tokenId",
          "type": "uint256"
        }
      ],
      "name": "tokenURI",
      "outputs": [
        {
          "internalType": "string",
          "name": "",
          "type": "string"
        }
      ],
      "stateMutability": "view",
      "type": "function"
    },
    {
      "inputs": [
        {
          "internalType": "address",
          "name": "from",
          "type": "address"
        },
        {
          "internalType": "address",
          "name": "to",
          "type": "address"
        },
        {
          "internalType": "uint256",
          "name": "tokenId",
          "type": "uint256"
        }
      ],
      "name": "transferFrom",
      "outputs": [],
      "stateMutability": "nonpayable",
      "type": "function"
    },
    {
      "inputs": [
        {
          "internalType": "uint256",
          "name": "tokenId",
          "type": "uint256"
        },
        {
          "internalType": "address",
          "name": "recipient",
          "type": "address"
        },
        {
          "internalType": "bool",
          "name": "remainLocked",
          "type": "bool"
        }
      ],
      "name": "transferLockedToken",
      "outputs": [],
      "stateMutability": "nonpayable",
      "type": "function"
    },
    {
      "inputs": [
        {
          "internalType": "address",
          "name": "newOwner",
          "type": "address"
        }
      ],
      "name": "transferOwnership",
      "outputs": [],
      "stateMutability": "nonpayable",
      "type": "function"
    },
    {
      "inputs": [
        {
          "internalType": "uint256",
          "name": "tokenId",
          "type": "uint256"
        }
      ],
      "name": "unlockToken",
      "outputs": [],
      "stateMutability": "nonpayable",
      "type": "function"
    },
    {
      "inputs": [],
      "name": "unpause",
      "outputs": [],
      "stateMutability": "nonpayable",
      "type": "function"
    },
    {
      "inputs": [
        {
          "internalType": "string",
          "name": "__contractURI",
          "type": "string"
        }
      ],
      "name": "updateContractURI",
      "outputs": [],
      "stateMutability": "nonpayable",
      "type": "function"
    },
    {
      "inputs": [
        {
          "internalType": "string",
          "name": "newName",
          "type": "string"
        }
      ],
      "name": "updateName",
      "outputs": [],
      "stateMutability": "nonpayable",
      "type": "function"
    },
    {
      "inputs": [
        {
          "internalType": "string",
          "name": "newSymbol",
          "type": "string"
        }
      ],
      "name": "updateSymbol",
      "outputs": [],
      "stateMutability": "nonpayable",
      "type": "function"
    },
    {
      "inputs": [
        {
          "internalType": "uint256",
          "name": "tokenId",
          "type": "uint256"
        },
        {
          "internalType": "uint256",
          "name": "newCollectionId",
          "type": "uint256"
        }
      ],
      "name": "updateTokenCollection",
      "outputs": [],
      "stateMutability": "nonpayable",
      "type": "function"
    },
    {
      "inputs": [
        {
          "internalType": "address",
          "name": "newImplementation",
          "type": "address"
        }
      ],
      "name": "upgradeTo",
      "outputs": [],
      "stateMutability": "nonpayable",
      "type": "function"
    },
    {
      "inputs": [
        {
          "internalType": "address",
          "name": "newImplementation",
          "type": "address"
        },
        {
          "internalType": "bytes",
          "name": "data",
          "type": "bytes"
        }
      ],
      "name": "upgradeToAndCall",
      "outputs": [],
      "stateMutability": "payable",
      "type": "function"
    },
    {
      "inputs": [],
      "name": "version",
      "outputs": [
        {
          "internalType": "uint256",
          "name": "",
          "type": "uint256"
        }
      ],
      "stateMutability": "view",
      "type": "function"
    }
  ],
  "bytecode": {
    "object": "0x60a0604052306080523480156200001557600080fd5b506200002062000026565b620000e8565b600054610100900460ff1615620000935760405162461bcd60e51b815260206004820152602760248201527f496e697469616c697a61626c653a20636f6e747261637420697320696e697469604482015266616c697a696e6760c81b606482015260840160405180910390fd5b60005460ff9081161015620000e6576000805460ff191660ff9081179091556040519081527f7f26b83ff96e1f2b6a682f133852f6798a09c465da95921460cefb38474024989060200160405180910390a15b565b608051614dbd620001206000396000818161134a0152818161138a0152818161165001528181611690015261171f0152614dbd6000f3fe60806040526004361061038c5760003560e01c806370a08231116101dc578063c87b56dd11610102578063e8a3d485116100a0578063f90c7a111161006f578063f90c7a1114610ac1578063fb1fcca114610ae1578063fd1ebde814610b01578063fe94630914610b2157600080fd5b8063e8a3d48514610a3b578063e985e9c514610a50578063f2fde38b14610a70578063f6aacfb114610a9057600080fd5b8063d1c332de116100dc578063d1c332de146109bb578063d953e4d4146109db578063da742228146109fb578063dd2e0ac014610a1b57600080fd5b8063c87b56dd1461095b578063cde317af1461097b578063ce1b815f1461099c57600080fd5b80638da5cb5b1161017a578063a22cb46511610149578063a22cb465146108e4578063b88d4fde14610904578063c1292cc314610924578063c2facfa81461093b57600080fd5b80638da5cb5b1461086757806395d89b411461088557806397ec4fba1461089a5780639a80c5e3146108af57600080fd5b80637e5b1e24116101b65780637e5b1e24146107f257806380f20363146108125780638456cb591461083257806384da92a71461084757600080fd5b806370a082311461079d578063715018a6146107bd578063776ce868146107d257600080fd5b80632dd883e8116102c157806352d1902d1161025f5780635c6d8da11161022e5780635c6d8da1146107255780635c975abb146107455780636352211e1461075d578063704802751461077d57600080fd5b806352d1902d146106a9578063537f5312146106be57806354fd4d50146106de578063572b6c05146106f557600080fd5b806341fd3ec41161029b57806341fd3ec41461063657806342842e0e1461065657806342966c68146106765780634f1ef2861461069657600080fd5b80632dd883e8146105e15780633659cfe6146106015780633f4ba83a1461062157600080fd5b80631785f53c1161032e5780632123508311610308578063212350831461052857806323b872dd1461054857806324d7806c146105685780632a55205a146105a257600080fd5b80631785f53c146104b057806317c95709146104d05780631a27e85f1461050857600080fd5b806306fdde031161036a57806306fdde0314610416578063081812fc14610438578063095ea7b3146104705780631771c96c1461049057600080fd5b80630140637a1461039157806301ffc9a7146103c457806304634d8d146103f4575b600080fd5b34801561039d57600080fd5b506103b16103ac366004613fcc565b610b41565b6040519081526020015b60405180910390f35b3480156103d057600080fd5b506103e46103df366004614031565b610bee565b60405190151581526020016103bb565b34801561040057600080fd5b5061041461040f366004614065565b610c34565b005b34801561042257600080fd5b5061042b610d49565b6040516103bb91906140e8565b34801561044457600080fd5b506104586104533660046140fb565b610ddc565b6040516001600160a01b0390911681526020016103bb565b34801561047c57600080fd5b5061041461048b366004614114565b610e03565b34801561049c57600080fd5b5061042b6104ab3660046140fb565b610ecc565b3480156104bc57600080fd5b506104146104cb36600461413e565b610f01565b3480156104dc57600080fd5b506104f06104eb3660046140fb565b610fba565b6040516001600160401b0390911681526020016103bb565b34801561051457600080fd5b506104146105233660046140fb565b610fe2565b34801561053457600080fd5b506104146105433660046140fb565b61109c565b34801561055457600080fd5b50610414610563366004614159565b61114b565b34801561057457600080fd5b506103e461058336600461413e565b6001600160a01b0316600090815261019c602052604090205460ff1690565b3480156105ae57600080fd5b506105c26105bd366004614195565b61125f565b604080516001600160a01b0390931683526020830191909152016103bb565b3480156105ed57600080fd5b506103b16105fc3660046140fb565b611321565b34801561060d57600080fd5b5061041461061c36600461413e565b611340565b34801561062d57600080fd5b5061041461141f565b34801561064257600080fd5b506104146106513660046140fb565b611483565b34801561066257600080fd5b50610414610671366004614159565b61152c565b34801561068257600080fd5b506104146106913660046140fb565b611610565b6104146106a4366004614259565b611646565b3480156106b557600080fd5b506103b1611712565b3480156106ca57600080fd5b506104146106d93660046142a6565b6117c5565b3480156106ea57600080fd5b506103b16101945481565b34801561070157600080fd5b506103e461071036600461413e565b610191546001600160a01b0391821691161490565b34801561073157600080fd5b50610414610740366004614317565b61182d565b34801561075157600080fd5b5060c95460ff166103e4565b34801561076957600080fd5b506104586107783660046140fb565b6119a5565b34801561078957600080fd5b5061041461079836600461413e565b611a05565b3480156107a957600080fd5b506103b16107b836600461413e565b611b1d565b3480156107c957600080fd5b50610414611ba3565b3480156107de57600080fd5b506104146107ed3660046143a4565b611bb5565b3480156107fe57600080fd5b5061041461080d3660046143c7565b611c22565b34801561081e57600080fd5b5061041461082d3660046140fb565b611c89565b34801561083e57600080fd5b50610414611d37565b34801561085357600080fd5b506104146108623660046142a6565b611d99565b34801561087357600080fd5b5060fb546001600160a01b0316610458565b34801561089157600080fd5b5061042b611e01565b3480156108a657600080fd5b50610414611e11565b3480156108bb57600080fd5b506108cf6108ca36600461443f565b611e73565b604080519283526020830191909152016103bb565b3480156108f057600080fd5b506104146108ff3660046144ae565b611f7b565b34801561091057600080fd5b5061041461091f3660046144e5565b61203f565b34801561093057600080fd5b506103b16101965481565b34801561094757600080fd5b506103b161095636600461454c565b61212a565b34801561096757600080fd5b5061042b6109763660046140fb565b6121c0565b34801561098757600080fd5b506103e46109963660046140fb565b50600190565b3480156109a857600080fd5b50610191546001600160a01b0316610458565b3480156109c757600080fd5b506104146109d63660046143a4565b61220d565b3480156109e757600080fd5b506104146109f63660046140fb565b6122d6565b348015610a0757600080fd5b50610414610a1636600461413e565b612342565b348015610a2757600080fd5b50610414610a363660046140fb565b6123bb565b348015610a4757600080fd5b5061042b61245f565b348015610a5c57600080fd5b506103e4610a6b36600461458c565b6124ee565b348015610a7c57600080fd5b50610414610a8b36600461413e565b612547565b348015610a9c57600080fd5b506103e4610aab3660046140fb565b6000908152610198602052604090205460ff1690565b348015610acd57600080fd5b50610414610adc3660046145b6565b6125bd565b348015610aed57600080fd5b506108cf610afc3660046145f2565b6126e3565b348015610b0d57600080fd5b50610414610b1c36600461454c565b6127db565b348015610b2d57600080fd5b50610414610b3c366004614195565b612899565b6000610b4b612917565b610b5361295d565b6001600160a01b0316610b6e60fb546001600160a01b031690565b6001600160a01b03161480610b895750610b8961058361295d565b610bae5760405162461bcd60e51b8152600401610ba59061464f565b60405180910390fd5b61019660008154610bbe9061469c565b9091555061019654610bd3908690868661296c565b610be0610196548361220d565b50610196545b949350505050565b60006001600160e01b03198216638c65f84d60e01b1480610c1f57506001600160e01b0319821663152a902d60e11b145b80610c2e5750610c2e82612997565b92915050565b610c3c61295d565b6001600160a01b0316610c5760fb546001600160a01b031690565b6001600160a01b03161480610c725750610c7261058361295d565b610c8e5760405162461bcd60e51b8152600401610ba59061464f565b6127106001600160601b0382161115610cb95760405162461bcd60e51b8152600401610ba5906146b5565b6001600160a01b038216610d0f5760405162461bcd60e51b815260206004820152601960248201527f455243323938313a20696e76616c6964207265636569766572000000000000006044820152606401610ba5565b604080518082019091526001600160a01b039092168083526001600160601b039091166020909201829052600160a01b9091021761019955565b60606101928054610d59906146ff565b80601f0160208091040260200160405190810160405280929190818152602001828054610d85906146ff565b8015610dd25780601f10610da757610100808354040283529160200191610dd2565b820191906000526020600020905b815481529060010190602001808311610db557829003601f168201915b5050505050905090565b6000610de7826129e7565b506000908152606960205260409020546001600160a01b031690565b816daaeb6d7670e522a718067333cd4e3b15610ebd57604051633185c44d60e21b81523060048201526001600160a01b03821660248201526daaeb6d7670e522a718067333cd4e9063c617113490604401602060405180830381865afa158015610e71573d6000803e3d6000fd5b505050506040513d601f19601f82011682018060405250810190610e959190614739565b610ebd57604051633b79c77360e21b81526001600160a01b0382166004820152602401610ba5565b610ec78383612a46565b505050565b6060610195610eda83612b68565b604051602001610eeb9291906147c9565b6040516020818303038152906040529050919050565b610f0961295d565b6001600160a01b0316610f2460fb546001600160a01b031690565b6001600160a01b03161480610f3f5750610f3f61058361295d565b610f5b5760405162461bcd60e51b8152600401610ba59061464f565b6001600160a01b038116600081815261019c60209081526040808320805460ff191690558051938452908301919091527f235bc17e7930760029e9f4d860a2a8089976de5b381cf8380fc11c1d88a1113391015b60405180910390a150565b6000610fc5826129e7565b50600090815261019b60205260409020546001600160401b031690565b610fea61295d565b6001600160a01b031661100560fb546001600160a01b031690565b6001600160a01b03161480611020575061102061058361295d565b61103c5760405162461bcd60e51b8152600401610ba59061464f565b611044612917565b8061019654106110965760405162461bcd60e51b815260206004820152601760248201527f4e65772049642068617320746f206265206869676865720000000000000000006044820152606401610ba5565b61019655565b6110a461295d565b6001600160a01b03166110bf60fb546001600160a01b031690565b6001600160a01b031614806110da57506110da61058361295d565b6110f65760405162461bcd60e51b8152600401610ba59061464f565b600081815261019b60209081526040808320805467ffffffffffffffff191690555191825282917f2ec2be2c4b90c2cf13ecb6751a24daed6bb741ae5ed3f7371aabf9402f6d62e8910160405180910390a250565b826daaeb6d7670e522a718067333cd4e3b1561124e5761116961295d565b6001600160a01b0316816001600160a01b0316036111915761118c848484612bfa565b611259565b6daaeb6d7670e522a718067333cd4e63c6171134306111ae61295d565b6040516001600160e01b031960e085901b1681526001600160a01b03928316600482015291166024820152604401602060405180830381865afa1580156111f9573d6000803e3d6000fd5b505050506040513d601f19601f8201168201806040525081019061121d9190614739565b61124e5761122961295d565b604051633b79c77360e21b81526001600160a01b039091166004820152602401610ba5565b611259848484612bfa565b50505050565b600080600061126d85611321565b600081815261019a60209081526040918290208251808401909352546001600160a01b038116808452600160a01b9091046001600160601b031691830191909152919250906112e7575060408051808201909152610199546001600160a01b0381168252600160a01b90046001600160601b031660208201525b602081015160009061271090611306906001600160601b0316886147ee565b6113109190614805565b9151945090925050505b9250929050565b600061132c826129e7565b506000908152610197602052604090205490565b6001600160a01b037f00000000000000000000000000000000000000000000000000000000000000001630036113885760405162461bcd60e51b8152600401610ba590614827565b7f00000000000000000000000000000000000000000000000000000000000000006001600160a01b03166113d1600080516020614d41833981519152546001600160a01b031690565b6001600160a01b0316146113f75760405162461bcd60e51b8152600401610ba590614873565b61140081612c2c565b6040805160008082526020820190925261141c91839190612c86565b50565b61142761295d565b6001600160a01b031661144260fb546001600160a01b031690565b6001600160a01b0316148061145d575061145d61058361295d565b6114795760405162461bcd60e51b8152600401610ba59061464f565b611481612df1565b565b61148b61295d565b6001600160a01b03166114a660fb546001600160a01b031690565b6001600160a01b031614806114c157506114c161058361295d565b6114dd5760405162461bcd60e51b8152600401610ba59061464f565b806114e7816129e7565b6000818152610198602052604090205460ff166115165760405162461bcd60e51b8152600401610ba5906148bf565b61151f82612e49565b61152882612e92565b5050565b826daaeb6d7670e522a718067333cd4e3b156116055761154a61295d565b6001600160a01b0316816001600160a01b03160361156d5761118c848484612f0c565b6daaeb6d7670e522a718067333cd4e63c61711343061158a61295d565b6040516001600160e01b031960e085901b1681526001600160a01b03928316600482015291166024820152604401602060405180830381865afa1580156115d5573d6000803e3d6000fd5b505050506040513d601f19601f820116820180604052508101906115f99190614739565b6116055761122961295d565b611259848484612f0c565b61162161161b61295d565b82612f27565b61163d5760405162461bcd60e51b8152600401610ba5906148ec565b61141c81612e92565b6001600160a01b037f000000000000000000000000000000000000000000000000000000000000000016300361168e5760405162461bcd60e51b8152600401610ba590614827565b7f00000000000000000000000000000000000000000000000000000000000000006001600160a01b03166116d7600080516020614d41833981519152546001600160a01b031690565b6001600160a01b0316146116fd5760405162461bcd60e51b8152600401610ba590614873565b61170682612c2c565b61152882826001612c86565b6000306001600160a01b037f000000000000000000000000000000000000000000000000000000000000000016146117b25760405162461bcd60e51b815260206004820152603860248201527f555550535570677261646561626c653a206d757374206e6f742062652063616c60448201527f6c6564207468726f7567682064656c656761746563616c6c00000000000000006064820152608401610ba5565b50600080516020614d4183398151915290565b6117cd61295d565b6001600160a01b03166117e860fb546001600160a01b031690565b6001600160a01b03161480611803575061180361058361295d565b61181f5760405162461bcd60e51b8152600401610ba59061464f565b610193610ec782848361497f565b600054610100900460ff161580801561184d5750600054600160ff909116105b806118675750303b158015611867575060005460ff166001145b6118ca5760405162461bcd60e51b815260206004820152602e60248201527f496e697469616c697a61626c653a20636f6e747261637420697320616c72656160448201526d191e481a5b9a5d1a585b1a5e995960921b6064820152608401610ba5565b6000805460ff1916600117905580156118ed576000805461ff0019166101001790555b6118f78585612f85565b6118ff612fb6565b611907612fe5565b61190f613014565b611917613014565b61191f61303b565b61019261192c8682614a3e565b5061019361193a8582614a3e565b5060006101945561019561194e8482614a3e565b5061195882611a05565b801561199e576000805461ff0019169055604051600181527f7f26b83ff96e1f2b6a682f133852f6798a09c465da95921460cefb38474024989060200160405180910390a15b5050505050565b6000818152606760205260408120546001600160a01b031680610c2e5760405162461bcd60e51b8152602060048201526018602482015277115490cdcc8c4e881a5b9d985b1a59081d1bdad95b88125160421b6044820152606401610ba5565b611a0d61295d565b6001600160a01b0316611a2860fb546001600160a01b031690565b6001600160a01b03161480611a435750611a4361058361295d565b611a5f5760405162461bcd60e51b8152600401610ba59061464f565b6001600160a01b038116611ac15760405162461bcd60e51b8152602060048201526024808201527f4e65772061646d696e2063616e6e6f7420626520746865207a65726f206164646044820152637265737360e01b6064820152608401610ba5565b6001600160a01b038116600081815261019c6020908152604091829020805460ff191660019081179091558251938452908301527f235bc17e7930760029e9f4d860a2a8089976de5b381cf8380fc11c1d88a111339101610faf565b60006001600160a01b038216611b875760405162461bcd60e51b815260206004820152602960248201527f4552433732313a2061646472657373207a65726f206973206e6f7420612076616044820152683634b21037bbb732b960b91b6064820152608401610ba5565b506001600160a01b031660009081526068602052604090205490565b611bab613081565b61148160006130fa565b611bbd61295d565b6001600160a01b0316611bd860fb546001600160a01b031690565b6001600160a01b03161480611bf35750611bf361058361295d565b611c0f5760405162461bcd60e51b8152600401610ba59061464f565b611c18826129e7565b611528828261314c565b611c2a61295d565b6001600160a01b0316611c4560fb546001600160a01b031690565b6001600160a01b03161480611c605750611c6061058361295d565b611c7c5760405162461bcd60e51b8152600401610ba59061464f565b6101956115288282614a3e565b611c91612917565b60008181526101986020526040902054819060ff1615611cc35760405162461bcd60e51b8152600401610ba590614afd565b611cd4611cce61295d565b83612f27565b611d2e5760405162461bcd60e51b815260206004820152602560248201527f63616c6c6572206973206e6f7420746f6b656e206f776e6572206f72206170706044820152641c9bdd995960da1b6064820152608401610ba5565b611528826131f3565b611d3f61295d565b6001600160a01b0316611d5a60fb546001600160a01b031690565b6001600160a01b03161480611d755750611d7561058361295d565b611d915760405162461bcd60e51b8152600401610ba59061464f565b61148161323f565b611da161295d565b6001600160a01b0316611dbc60fb546001600160a01b031690565b6001600160a01b03161480611dd75750611dd761058361295d565b611df35760405162461bcd60e51b8152600401610ba59061464f565b610192610ec782848361497f565b60606101938054610d59906146ff565b611e1961295d565b6001600160a01b0316611e3460fb546001600160a01b031690565b6001600160a01b03161480611e4f5750611e4f61058361295d565b611e6b5760405162461bcd60e51b8152600401610ba59061464f565b600061019955565b600080611e7e612917565b611e8661295d565b6001600160a01b0316611ea160fb546001600160a01b031690565b6001600160a01b03161480611ebc5750611ebc61058361295d565b611ed85760405162461bcd60e51b8152600401610ba59061464f565b6000805b86811015611f4d5780610196546001611ef59190614b26565b611eff9190614b26565b9150611f3389838a8a85818110611f1857611f18614b39565b9050602002016020810190611f2d919061413e565b8961296c565b611f3d828661220d565b611f468161469c565b9050611edc565b50868690506101966000828254611f649190614b26565b909155505061019654989597509495505050505050565b816daaeb6d7670e522a718067333cd4e3b1561203557604051633185c44d60e21b81523060048201526001600160a01b03821660248201526daaeb6d7670e522a718067333cd4e9063c617113490604401602060405180830381865afa158015611fe9573d6000803e3d6000fd5b505050506040513d601f19601f8201168201806040525081019061200d9190614739565b61203557604051633b79c77360e21b81526001600160a01b0382166004820152602401610ba5565b610ec7838361327d565b836daaeb6d7670e522a718067333cd4e3b1561211e5761205d61295d565b6001600160a01b0316816001600160a01b031603612086576120818585858561328f565b61199e565b6daaeb6d7670e522a718067333cd4e63c6171134306120a361295d565b6040516001600160e01b031960e085901b1681526001600160a01b03928316600482015291166024820152604401602060405180830381865afa1580156120ee573d6000803e3d6000fd5b505050506040513d601f19601f820116820180604052508101906121129190614739565b61211e5761122961295d565b61199e8585858561328f565b6000612134612917565b61213c61295d565b6001600160a01b031661215760fb546001600160a01b031690565b6001600160a01b03161480612172575061217261058361295d565b61218e5760405162461bcd60e51b8152600401610ba59061464f565b6101966000815461219e9061469c565b90915550610196546121b3908590858561296c565b50610196545b9392505050565b606060006121cd83611321565b90506101956121db82612b68565b6121e485612b68565b6040516020016121f693929190614b4f565b604051602081830303815290604052915050919050565b61221561295d565b6001600160a01b031661223060fb546001600160a01b031690565b6001600160a01b0316148061224b575061224b61058361295d565b6122675760405162461bcd60e51b8152600401610ba59061464f565b612270826129e7565b600082815261019b6020908152604091829020805467ffffffffffffffff19166001600160401b038516908117909155915191825283917f2ec2be2c4b90c2cf13ecb6751a24daed6bb741ae5ed3f7371aabf9402f6d62e8910160405180910390a25050565b6122de61295d565b6001600160a01b03166122f960fb546001600160a01b031690565b6001600160a01b03161480612314575061231461058361295d565b6123305760405162461bcd60e51b8152600401610ba59061464f565b600090815261019a6020526040812055565b61234a61295d565b6001600160a01b031661236560fb546001600160a01b031690565b6001600160a01b03161480612380575061238061058361295d565b61239c5760405162461bcd60e51b8152600401610ba59061464f565b61019180546001600160a01b0319166001600160a01b03831617905550565b6123c361295d565b6001600160a01b03166123de60fb546001600160a01b031690565b6001600160a01b031614806123f957506123f961058361295d565b6124155760405162461bcd60e51b8152600401610ba59061464f565b61241d612917565b80612427816129e7565b6000818152610198602052604090205460ff166124565760405162461bcd60e51b8152600401610ba5906148bf565b61152882612e49565b610195805461246d906146ff565b80601f0160208091040260200160405190810160405280929190818152602001828054612499906146ff565b80156124e65780601f106124bb576101008083540402835291602001916124e6565b820191906000526020600020905b8154815290600101906020018083116124c957829003601f168201915b505050505081565b60006e6c3852cbef3e08e8df289169ede580196001600160a01b0383160161251857506001610c2e565b506001600160a01b039182166000908152606a6020908152604080832093909416825291909152205460ff1690565b61254f613081565b6001600160a01b0381166125b45760405162461bcd60e51b815260206004820152602660248201527f4f776e61626c653a206e6577206f776e657220697320746865207a65726f206160448201526564647265737360d01b6064820152608401610ba5565b61141c816130fa565b6125c561295d565b6001600160a01b03166125e060fb546001600160a01b031690565b6001600160a01b031614806125fb57506125fb61058361295d565b6126175760405162461bcd60e51b8152600401610ba59061464f565b6127106001600160601b03821611156126425760405162461bcd60e51b8152600401610ba5906146b5565b6001600160a01b0382166126985760405162461bcd60e51b815260206004820152601b60248201527f455243323938313a20496e76616c696420706172616d657465727300000000006044820152606401610ba5565b6040805180820182526001600160a01b0393841681526001600160601b039283166020808301918252600096875261019a90529190942093519051909116600160a01b029116179055565b6000806126ee612917565b6126f661295d565b6001600160a01b031661271160fb546001600160a01b031690565b6001600160a01b0316148061272c575061272c61058361295d565b6127485760405162461bcd60e51b8152600401610ba59061464f565b6000805b878110156127af57806101965460016127659190614b26565b61276f9190614b26565b915061279589898381811061278657612786614b39565b9050602002013583898961296c565b61279f828661220d565b6127a88161469c565b905061274c565b508787905061019660008282546127c69190614b26565b90915550506101965498969750505050505050565b826127e5816129e7565b6000818152610198602052604090205460ff166128145760405162461bcd60e51b8152600401610ba5906148bf565b61281c61295d565b6001600160a01b031661283760fb546001600160a01b031690565b6001600160a01b03161480612852575061285261058361295d565b61286e5760405162461bcd60e51b8152600401610ba59061464f565b61287784612e49565b61288a612883856119a5565b84866132c2565b811561125957611259846131f3565b6128a161295d565b6001600160a01b03166128bc60fb546001600160a01b031690565b6001600160a01b031614806128d757506128d761058361295d565b6128f35760405162461bcd60e51b8152600401610ba59061464f565b6128fb612917565b612904826129e7565b6000918252610197602052604090912055565b60c95460ff16156114815760405162461bcd60e51b815260206004820152601060248201526f14185d5cd8589b194e881c185d5cd95960821b6044820152606401610ba5565b6000612967613433565b905090565b6129768284613468565b600083815261019760205260409020849055801561125957611259836131f3565b60006001600160e01b031982166380ac58cd60e01b14806129c857506001600160e01b03198216635b5e139f60e01b145b80610c2e57506301ffc9a760e01b6001600160e01b0319831614610c2e565b6000818152606760205260409020546001600160a01b031661141c5760405162461bcd60e51b8152602060048201526018602482015277115490cdcc8c4e881a5b9d985b1a59081d1bdad95b88125160421b6044820152606401610ba5565b6000612a51826119a5565b9050806001600160a01b0316836001600160a01b031603612abe5760405162461bcd60e51b815260206004820152602160248201527f4552433732313a20617070726f76616c20746f2063757272656e74206f776e656044820152603960f91b6064820152608401610ba5565b806001600160a01b0316612ad061295d565b6001600160a01b03161480612aec5750612aec81610a6b61295d565b612b5e5760405162461bcd60e51b815260206004820152603d60248201527f4552433732313a20617070726f76652063616c6c6572206973206e6f7420746f60448201527f6b656e206f776e6572206f7220617070726f76656420666f7220616c6c0000006064820152608401610ba5565b610ec78383613601565b60606000612b758361366f565b60010190506000816001600160401b03811115612b9457612b946141b7565b6040519080825280601f01601f191660200182016040528015612bbe576020820181803683370190505b5090508181016020015b600019016f181899199a1a9b1b9c1cb0b131b232b360811b600a86061a8153600a8504945084612bc857509392505050565b612c0561161b61295d565b612c215760405162461bcd60e51b8152600401610ba5906148ec565b610ec78383836132c2565b612c3461295d565b6001600160a01b0316612c4f60fb546001600160a01b031690565b6001600160a01b03161480612c6a5750612c6a61058361295d565b61141c5760405162461bcd60e51b8152600401610ba59061464f565b7f4910fdfa16fed3260ed0e7147f7cc6da11a60208b5b9406d12a635614ffd91435460ff1615612cb957610ec783613747565b826001600160a01b03166352d1902d6040518163ffffffff1660e01b8152600401602060405180830381865afa925050508015612d13575060408051601f3d908101601f19168201909252612d1091810190614b95565b60015b612d765760405162461bcd60e51b815260206004820152602e60248201527f45524331393637557067726164653a206e657720696d706c656d656e7461746960448201526d6f6e206973206e6f74205555505360901b6064820152608401610ba5565b600080516020614d418339815191528114612de55760405162461bcd60e51b815260206004820152602960248201527f45524331393637557067726164653a20756e737570706f727465642070726f786044820152681a58589b195555525160ba1b6064820152608401610ba5565b50610ec78383836137e3565b612df9613808565b60c9805460ff191690557f5db9ee0a495bf2e6ff9c91a7834c1ba4fdd244a5e8aa4e537bd38aeae4b073aa612e2c61295d565b6040516001600160a01b03909116815260200160405180910390a1565b6000818152610198602052604090819020805460ff19169055517ff27b6ce5b2f5e68ddb2fd95a8a909d4ecf1daaac270935fff052feacb24f184290610faf9083815260200190565b60008181526101986020526040902054819060ff1615612ec45760405162461bcd60e51b8152600401610ba590614afd565b612ecd82613851565b506000908152610197602090815260408083208390556101988252808320805460ff1916905561019b9091529020805467ffffffffffffffff19169055565b610ec78383836040518060200160405280600081525061203f565b600080612f33836119a5565b9050806001600160a01b0316846001600160a01b03161480612f5a5750612f5a81856124ee565b80610be65750836001600160a01b0316612f7384610ddc565b6001600160a01b031614949350505050565b600054610100900460ff16612fac5760405162461bcd60e51b8152600401610ba590614bae565b61152882826138f4565b600054610100900460ff16612fdd5760405162461bcd60e51b8152600401610ba590614bae565b611481613934565b600054610100900460ff1661300c5760405162461bcd60e51b8152600401610ba590614bae565b611481613967565b600054610100900460ff166114815760405162461bcd60e51b8152600401610ba590614bae565b600054610100900460ff166130625760405162461bcd60e51b8152600401610ba590614bae565b611481733cc6cdda760b79bafa08df41ecfa224f810dceb6600161399e565b61308961295d565b6001600160a01b03166130a460fb546001600160a01b031690565b6001600160a01b0316146114815760405162461bcd60e51b815260206004820181905260248201527f4f776e61626c653a2063616c6c6572206973206e6f7420746865206f776e65726044820152606401610ba5565b60fb80546001600160a01b038381166001600160a01b0319831681179093556040519116919082907f8be0079c531659141344cd1fd0a4f28419497f9722a3daafe3b4186f6b6457e090600090a35050565b600082815261019b60205260408120546001600160401b03169081810361317e576131778342614bf9565b905061318b565b6131888383614bf9565b90505b600084815261019b6020908152604091829020805467ffffffffffffffff19166001600160401b038516908117909155915191825285917f2ec2be2c4b90c2cf13ecb6751a24daed6bb741ae5ed3f7371aabf9402f6d62e8910160405180910390a250505050565b6000818152610198602052604090819020805460ff19166001179055517f032bc66be43dbccb7487781d168eb7bda224628a3b2c3388bdf69b532a3a161190610faf9083815260200190565b613247612917565b60c9805460ff191660011790557f62e78cea01bee320cd4e420270b5ea74000d11b0c9f74754ebdbfc544b05a258612e2c61295d565b61152861328861295d565b8383613b45565b61329a611cce61295d565b6132b65760405162461bcd60e51b8152600401610ba5906148ec565b61125984848484613c13565b826001600160a01b03166132d5826119a5565b6001600160a01b0316146132fb5760405162461bcd60e51b8152600401610ba590614c20565b6001600160a01b03821661335d5760405162461bcd60e51b8152602060048201526024808201527f4552433732313a207472616e7366657220746f20746865207a65726f206164646044820152637265737360e01b6064820152608401610ba5565b61336a8383836001613c46565b826001600160a01b031661337d826119a5565b6001600160a01b0316146133a35760405162461bcd60e51b8152600401610ba590614c20565b600081815260696020908152604080832080546001600160a01b03199081169091556001600160a01b0387811680865260688552838620805460001901905590871680865283862080546001019055868652606790945282852080549092168417909155905184937fddf252ad1be2c89b69c2b068fc378daa952ba7f163c4a11628f55a4df523b3ef91a4505050565b6000601436108015906134515750610191546001600160a01b031633145b15613463575060131936013560601c90565b503390565b6001600160a01b0382166134be5760405162461bcd60e51b815260206004820181905260248201527f4552433732313a206d696e7420746f20746865207a65726f20616464726573736044820152606401610ba5565b6000818152606760205260409020546001600160a01b0316156135235760405162461bcd60e51b815260206004820152601c60248201527f4552433732313a20746f6b656e20616c7265616479206d696e746564000000006044820152606401610ba5565b613531600083836001613c46565b6000818152606760205260409020546001600160a01b0316156135965760405162461bcd60e51b815260206004820152601c60248201527f4552433732313a20746f6b656e20616c7265616479206d696e746564000000006044820152606401610ba5565b6001600160a01b038216600081815260686020908152604080832080546001019055848352606790915280822080546001600160a01b0319168417905551839291907fddf252ad1be2c89b69c2b068fc378daa952ba7f163c4a11628f55a4df523b3ef908290a45050565b600081815260696020526040902080546001600160a01b0319166001600160a01b0384169081179091558190613636826119a5565b6001600160a01b03167f8c5be1e5ebec7d5bd14f71427d1e84f3dd0314c0f7b2291e5b200ac8c7c3b92560405160405180910390a45050565b60008072184f03e93ff9f4daa797ed6e38ed64bf6a1f0160401b83106136ae5772184f03e93ff9f4daa797ed6e38ed64bf6a1f0160401b830492506040015b6d04ee2d6d415b85acef810000000083106136da576d04ee2d6d415b85acef8100000000830492506020015b662386f26fc1000083106136f857662386f26fc10000830492506010015b6305f5e1008310613710576305f5e100830492506008015b612710831061372457612710830492506004015b60648310613736576064830492506002015b600a8310610c2e5760010192915050565b6001600160a01b0381163b6137b45760405162461bcd60e51b815260206004820152602d60248201527f455243313936373a206e657720696d706c656d656e746174696f6e206973206e60448201526c1bdd08184818dbdb9d1c9858dd609a1b6064820152608401610ba5565b600080516020614d4183398151915280546001600160a01b0319166001600160a01b0392909216919091179055565b6137ec83613c8c565b6000825111806137f95750805b15610ec7576112598383613ccc565b60c95460ff166114815760405162461bcd60e51b815260206004820152601460248201527314185d5cd8589b194e881b9bdd081c185d5cd95960621b6044820152606401610ba5565b600061385c826119a5565b905061386c816000846001613c46565b613875826119a5565b600083815260696020908152604080832080546001600160a01b03199081169091556001600160a01b0385168085526068845282852080546000190190558785526067909352818420805490911690555192935084927fddf252ad1be2c89b69c2b068fc378daa952ba7f163c4a11628f55a4df523b3ef908390a45050565b600054610100900460ff1661391b5760405162461bcd60e51b8152600401610ba590614bae565b60656139278382614a3e565b506066610ec78282614a3e565b600054610100900460ff1661395b5760405162461bcd60e51b8152600401610ba590614bae565b60c9805460ff19169055565b600054610100900460ff1661398e5760405162461bcd60e51b8152600401610ba590614bae565b61148161399961295d565b6130fa565b600054610100900460ff166139c55760405162461bcd60e51b8152600401610ba590614bae565b6daaeb6d7670e522a718067333cd4e3b156115285760405163c3c5a54760e01b81523060048201526daaeb6d7670e522a718067333cd4e9063c3c5a547906024016020604051808303816000875af1158015613a25573d6000803e3d6000fd5b505050506040513d601f19601f82011682018060405250810190613a499190614739565b611528578015613ac557604051633e9f1edf60e11b81523060048201526001600160a01b03831660248201526daaeb6d7670e522a718067333cd4e90637d3e3dbe906044015b600060405180830381600087803b158015613aa957600080fd5b505af1158015613abd573d6000803e3d6000fd5b505050505050565b6001600160a01b03821615613b145760405163a0af290360e01b81523060048201526001600160a01b03831660248201526daaeb6d7670e522a718067333cd4e9063a0af290390604401613a8f565b604051632210724360e11b81523060048201526daaeb6d7670e522a718067333cd4e90634420e48690602401613a8f565b816001600160a01b0316836001600160a01b031603613ba65760405162461bcd60e51b815260206004820152601960248201527f4552433732313a20617070726f766520746f2063616c6c6572000000000000006044820152606401610ba5565b6001600160a01b038381166000818152606a6020908152604080832094871680845294825291829020805460ff191686151590811790915591519182527f17307eab39ab6107e8899845ad3d59bd9653f200f220920489ca2b5937696c31910160405180910390a3505050565b613c1e8484846132c2565b613c2a84848484613dc0565b6112595760405162461bcd60e51b8152600401610ba590614c65565b613c4e612917565b60008281526101986020526040902054829060ff1615613c805760405162461bcd60e51b8152600401610ba590614afd565b61199e85858585613ec5565b613c9581613747565b6040516001600160a01b038216907fbc7cd75a20ee27fd9adebab32041f755214dbc6bffa90cc0225b39da2e5c2d3b90600090a250565b60606001600160a01b0383163b613d345760405162461bcd60e51b815260206004820152602660248201527f416464726573733a2064656c65676174652063616c6c20746f206e6f6e2d636f6044820152651b9d1c9858dd60d21b6064820152608401610ba5565b600080846001600160a01b031684604051613d4f9190614cb7565b600060405180830381855af49150503d8060008114613d8a576040519150601f19603f3d011682016040523d82523d6000602084013e613d8f565b606091505b5091509150613db78282604051806060016040528060278152602001614d6160279139613f4d565b95945050505050565b60006001600160a01b0384163b15613ebd57836001600160a01b031663150b7a02613de961295d565b8786866040518563ffffffff1660e01b8152600401613e0b9493929190614cd3565b6020604051808303816000875af1925050508015613e46575060408051601f3d908101601f19168201909252613e4391810190614d10565b60015b613ea3573d808015613e74576040519150601f19603f3d011682016040523d82523d6000602084013e613e79565b606091505b508051600003613e9b5760405162461bcd60e51b8152600401610ba590614c65565b805181602001fd5b6001600160e01b031916630a85bd0160e11b149050610be6565b506001610be6565b6001811115611259576001600160a01b03841615613f0b576001600160a01b03841660009081526068602052604081208054839290613f05908490614d2d565b90915550505b6001600160a01b03831615611259576001600160a01b03831660009081526068602052604081208054839290613f42908490614b26565b909155505050505050565b60608315613f5c5750816121b9565b6121b98383815115613f715781518083602001fd5b8060405162461bcd60e51b8152600401610ba591906140e8565b80356001600160a01b0381168114613fa257600080fd5b919050565b801515811461141c57600080fd5b80356001600160401b0381168114613fa257600080fd5b60008060008060808587031215613fe257600080fd5b84359350613ff260208601613f8b565b9250604085013561400281613fa7565b915061401060608601613fb5565b905092959194509250565b6001600160e01b03198116811461141c57600080fd5b60006020828403121561404357600080fd5b81356121b98161401b565b80356001600160601b0381168114613fa257600080fd5b6000806040838503121561407857600080fd5b61408183613f8b565b915061408f6020840161404e565b90509250929050565b60005b838110156140b357818101518382015260200161409b565b50506000910152565b600081518084526140d4816020860160208601614098565b601f01601f19169290920160200192915050565b6020815260006121b960208301846140bc565b60006020828403121561410d57600080fd5b5035919050565b6000806040838503121561412757600080fd5b61413083613f8b565b946020939093013593505050565b60006020828403121561415057600080fd5b6121b982613f8b565b60008060006060848603121561416e57600080fd5b61417784613f8b565b925061418560208501613f8b565b9150604084013590509250925092565b600080604083850312156141a857600080fd5b50508035926020909101359150565b634e487b7160e01b600052604160045260246000fd5b600082601f8301126141de57600080fd5b81356001600160401b03808211156141f8576141f86141b7565b604051601f8301601f19908116603f01168101908282118183101715614220576142206141b7565b8160405283815286602085880101111561423957600080fd5b836020870160208301376000602085830101528094505050505092915050565b6000806040838503121561426c57600080fd5b61427583613f8b565b915060208301356001600160401b0381111561429057600080fd5b61429c858286016141cd565b9150509250929050565b600080602083850312156142b957600080fd5b82356001600160401b03808211156142d057600080fd5b818501915085601f8301126142e457600080fd5b8135818111156142f357600080fd5b86602082850101111561430557600080fd5b60209290920196919550909350505050565b6000806000806080858703121561432d57600080fd5b84356001600160401b038082111561434457600080fd5b614350888389016141cd565b9550602087013591508082111561436657600080fd5b614372888389016141cd565b9450604087013591508082111561438857600080fd5b50614395878288016141cd565b92505061401060608601613f8b565b600080604083850312156143b757600080fd5b8235915061408f60208401613fb5565b6000602082840312156143d957600080fd5b81356001600160401b038111156143ef57600080fd5b610be6848285016141cd565b60008083601f84011261440d57600080fd5b5081356001600160401b0381111561442457600080fd5b6020830191508360208260051b850101111561131a57600080fd5b60008060008060006080868803121561445757600080fd5b8535945060208601356001600160401b0381111561447457600080fd5b614480888289016143fb565b909550935050604086013561449481613fa7565b91506144a260608701613fb5565b90509295509295909350565b600080604083850312156144c157600080fd5b6144ca83613f8b565b915060208301356144da81613fa7565b809150509250929050565b600080600080608085870312156144fb57600080fd5b61450485613f8b565b935061451260208601613f8b565b92506040850135915060608501356001600160401b0381111561453457600080fd5b614540878288016141cd565b91505092959194509250565b60008060006060848603121561456157600080fd5b8335925061457160208501613f8b565b9150604084013561458181613fa7565b809150509250925092565b6000806040838503121561459f57600080fd5b6145a883613f8b565b915061408f60208401613f8b565b6000806000606084860312156145cb57600080fd5b833592506145db60208501613f8b565b91506145e96040850161404e565b90509250925092565b60008060008060006080868803121561460a57600080fd5b85356001600160401b0381111561462057600080fd5b61462c888289016143fb565b909650945061463f905060208701613f8b565b9250604086013561449481613fa7565b6020808252601c908201527f63616c6c6572206973206e6f74206f776e6572206f722061646d696e00000000604082015260600190565b634e487b7160e01b600052601160045260246000fd5b6000600182016146ae576146ae614686565b5060010190565b6020808252602a908201527f455243323938313a20726f79616c7479206665652077696c6c206578636565646040820152692073616c65507269636560b01b606082015260800190565b600181811c9082168061471357607f821691505b60208210810361473357634e487b7160e01b600052602260045260246000fd5b50919050565b60006020828403121561474b57600080fd5b81516121b981613fa7565b60008154614763816146ff565b6001828116801561477b5760018114614790576147bf565b60ff19841687528215158302870194506147bf565b8560005260208060002060005b858110156147b65781548a82015290840190820161479d565b50505082870194505b5050505092915050565b60006147d58285614756565b83516147e5818360208801614098565b01949350505050565b8082028115828204841417610c2e57610c2e614686565b60008261482257634e487b7160e01b600052601260045260246000fd5b500490565b6020808252602c908201527f46756e6374696f6e206d7573742062652063616c6c6564207468726f7567682060408201526b19195b1959d85d1958d85b1b60a21b606082015260800190565b6020808252602c908201527f46756e6374696f6e206d7573742062652063616c6c6564207468726f7567682060408201526b6163746976652070726f787960a01b606082015260800190565b602080825260139082015272151bdad95b881a5cc81b9bdd081b1bd8dad959606a1b604082015260600190565b6020808252602d908201527f4552433732313a2063616c6c6572206973206e6f7420746f6b656e206f776e6560408201526c1c881bdc88185c1c1c9bdd9959609a1b606082015260800190565b601f821115610ec757600081815260208120601f850160051c810160208610156149605750805b601f850160051c820191505b81811015613abd5782815560010161496c565b6001600160401b03831115614996576149966141b7565b6149aa836149a483546146ff565b83614939565b6000601f8411600181146149de57600085156149c65750838201355b600019600387901b1c1916600186901b17835561199e565b600083815260209020601f19861690835b82811015614a0f57868501358255602094850194600190920191016149ef565b5086821015614a2c5760001960f88860031b161c19848701351681555b505060018560011b0183555050505050565b81516001600160401b03811115614a5757614a576141b7565b614a6b81614a6584546146ff565b84614939565b602080601f831160018114614aa05760008415614a885750858301515b600019600386901b1c1916600185901b178555613abd565b600085815260208120601f198616915b82811015614acf57888601518255948401946001909101908401614ab0565b5085821015614aed5787850151600019600388901b60f8161c191681555b5050505050600190811b01905550565b6020808252600f908201526e151bdad95b881a5cc81b1bd8dad959608a1b604082015260600190565b80820180821115610c2e57610c2e614686565b634e487b7160e01b600052603260045260246000fd5b6000614b5b8286614756565b8451614b6b818360208901614098565b602f60f81b91019081528351614b88816001840160208801614098565b0160010195945050505050565b600060208284031215614ba757600080fd5b5051919050565b6020808252602b908201527f496e697469616c697a61626c653a20636f6e7472616374206973206e6f74206960408201526a6e697469616c697a696e6760a81b606082015260800190565b6001600160401b03818116838216019080821115614c1957614c19614686565b5092915050565b60208082526025908201527f4552433732313a207472616e736665722066726f6d20696e636f72726563742060408201526437bbb732b960d91b606082015260800190565b60208082526032908201527f4552433732313a207472616e7366657220746f206e6f6e20455243373231526560408201527131b2b4bb32b91034b6b83632b6b2b73a32b960711b606082015260800190565b60008251614cc9818460208701614098565b9190910192915050565b6001600160a01b0385811682528416602082015260408101839052608060608201819052600090614d06908301846140bc565b9695505050505050565b600060208284031215614d2257600080fd5b81516121b98161401b565b81810381811115610c2e57610c2e61468656fe360894a13ba1a3210667c828492db98dca3e2076cc3735a920a3ca505d382bbc416464726573733a206c6f772d6c6576656c2064656c65676174652063616c6c206661696c6564a2646970667358221220da62b2580ece5a8c283d6b4e0b98b73b36c9dfb02cbea04136c35d9236a19ce964736f6c63430008110033",
    "linkReferences": {}
  },
  "methodIdentifiers": {
    "addAdmin(address)": "70480275",
    "approve(address,uint256)": "095ea7b3",
    "balanceOf(address)": "70a08231",
    "burn(uint256)": "42966c68",
    "burnLocked(uint256)": "41fd3ec4",
    "cancelSubscription(uint256)": "21235083",
    "collectionURI(uint256)": "1771c96c",
    "contractURI()": "e8a3d485",
    "expiresAt(uint256)": "17c95709",
    "getApproved(uint256)": "081812fc",
    "getTrustedForwarder()": "ce1b815f",
    "initialize(string,string,string,address)": "5c6d8da1",
    "isAdmin(address)": "24d7806c",
    "isApprovedForAll(address,address)": "e985e9c5",
    "isLocked(uint256)": "f6aacfb1",
    "isRenewable(uint256)": "cde317af",
    "isTrustedForwarder(address)": "572b6c05",
    "lastId()": "c1292cc3",
    "lockToken(uint256)": "80f20363",
    "mintCollectionToManyUsers(uint256,address[],bool,uint64)": "9a80c5e3",
    "mintToken(uint256,address,bool)": "c2facfa8",
    "mintTokenWithExpiration(uint256,address,bool,uint64)": "0140637a",
    "mintUserToManyCollections(uint256[],address,bool,uint64)": "fb1fcca1",
    "name()": "06fdde03",
    "owner()": "8da5cb5b",
    "ownerOf(uint256)": "6352211e",
    "pause()": "8456cb59",
    "paused()": "5c975abb",
    "proxiableUUID()": "52d1902d",
    "removeAdmin(address)": "1785f53c",
    "removeCollectionRoyalty(uint256)": "d953e4d4",
    "removeDefaultRoyalty()": "97ec4fba",
    "renewSubscription(uint256,uint64)": "776ce868",
    "renounceOwnership()": "715018a6",
    "royaltyInfo(uint256,uint256)": "2a55205a",
    "safeTransferFrom(address,address,uint256)": "42842e0e",
    "safeTransferFrom(address,address,uint256,bytes)": "b88d4fde",
    "setApprovalForAll(address,bool)": "a22cb465",
    "setCollectionRoyalty(uint256,address,uint96)": "f90c7a11",
    "setDefaultRoyalty(address,uint96)": "04634d8d",
    "setExpiration(uint256,uint64)": "d1c332de",
    "setLastId(uint256)": "1a27e85f",
    "setTrustedForwarder(address)": "da742228",
    "supportsInterface(bytes4)": "01ffc9a7",
    "symbol()": "95d89b41",
    "tokenCollection(uint256)": "2dd883e8",
    "tokenURI(uint256)": "c87b56dd",
    "transferFrom(address,address,uint256)": "23b872dd",
    "transferLockedToken(uint256,address,bool)": "fd1ebde8",
    "transferOwnership(address)": "f2fde38b",
    "unlockToken(uint256)": "dd2e0ac0",
    "unpause()": "3f4ba83a",
    "updateContractURI(string)": "7e5b1e24",
    "updateName(string)": "84da92a7",
    "updateSymbol(string)": "537f5312",
    "updateTokenCollection(uint256,uint256)": "fe946309",
    "upgradeTo(address)": "3659cfe6",
    "upgradeToAndCall(address,bytes)": "4f1ef286",
    "version()": "54fd4d50"
  },
  "id": 44
}