{
  "abi": [
    {
      "inputs": [],
      "stateMutability": "nonpayable",
      "type": "constructor"
    },
    {
      "inputs": [
        {
          "internalType": "address",
          "name": "operator",
          "type": "address"
        }
      ],
      "name": "OperatorNotAllowed",
      "type": "error"
    },
    {
      "anonymous": false,
      "inputs": [
        {
          "indexed": false,
          "internalType": "address",
          "name": "previousAdmin",
          "type": "address"
        },
        {
          "indexed": false,
          "internalType": "address",
          "name": "newAdmin",
          "type": "address"
        }
      ],
      "name": "AdminChanged",
      "type": "event"
    },
    {
      "anonymous": false,
      "inputs": [
        {
          "indexed": false,
          "internalType": "address",
          "name": "admin",
          "type": "address"
        },
        {
          "indexed": false,
          "internalType": "bool",
          "name": "added",
          "type": "bool"
        }
      ],
      "name": "AdminUpdated",
      "type": "event"
    },
    {
      "anonymous": false,
      "inputs": [
        {
          "indexed": true,
          "internalType": "address",
          "name": "owner",
          "type": "address"
        },
        {
          "indexed": true,
          "internalType": "address",
          "name": "approved",
          "type": "address"
        },
        {
          "indexed": true,
          "internalType": "uint256",
          "name": "tokenId",
          "type": "uint256"
        }
      ],
      "name": "Approval",
      "type": "event"
    },
    {
      "anonymous": false,
      "inputs": [
        {
          "indexed": true,
          "internalType": "address",
          "name": "owner",
          "type": "address"
        },
        {
          "indexed": true,
          "internalType": "address",
          "name": "operator",
          "type": "address"
        },
        {
          "indexed": false,
          "internalType": "bool",
          "name": "approved",
          "type": "bool"
        }
      ],
      "name": "ApprovalForAll",
      "type": "event"
    },
    {
      "anonymous": false,
      "inputs": [
        {
          "indexed": true,
          "internalType": "address",
          "name": "beacon",
          "type": "address"
        }
      ],
      "name": "BeaconUpgraded",
      "type": "event"
    },
    {
      "anonymous": false,
      "inputs": [
        {
          "indexed": false,
          "internalType": "uint8",
          "name": "version",
          "type": "uint8"
        }
      ],
      "name": "Initialized",
      "type": "event"
    },
    {
      "anonymous": false,
      "inputs": [
        {
          "indexed": false,
          "internalType": "uint256",
          "name": "tokenId",
          "type": "uint256"
        }
      ],
      "name": "Locked",
      "type": "event"
    },
    {
      "anonymous": false,
      "inputs": [
        {
          "indexed": true,
          "internalType": "address",
          "name": "previousOwner",
          "type": "address"
        },
        {
          "indexed": true,
          "internalType": "address",
          "name": "newOwner",
          "type": "address"
        }
      ],
      "name": "OwnershipTransferred",
      "type": "event"
    },
    {
      "anonymous": false,
      "inputs": [
        {
          "indexed": false,
          "internalType": "address",
          "name": "account",
          "type": "address"
        }
      ],
      "name": "Paused",
      "type": "event"
    },
    {
      "anonymous": false,
      "inputs": [
        {
          "indexed": true,
          "internalType": "uint256",
          "name": "tokenId",
          "type": "uint256"
        },
        {
          "indexed": false,
          "internalType": "uint64",
          "name": "expiration",
          "type": "uint64"
        }
      ],
      "name": "SubscriptionUpdate",
      "type": "event"
    },
    {
      "anonymous": false,
      "inputs": [
        {
          "indexed": true,
          "internalType": "address",
          "name": "from",
          "type": "address"
        },
        {
          "indexed": true,
          "internalType": "address",
          "name": "to",
          "type": "address"
        },
        {
          "indexed": true,
          "internalType": "uint256",
          "name": "tokenId",
          "type": "uint256"
        }
      ],
      "name": "Transfer",
      "type": "event"
    },
    {
      "anonymous": false,
      "inputs": [
        {
          "indexed": false,
          "internalType": "uint256",
          "name": "tokenId",
          "type": "uint256"
        }
      ],
      "name": "Unlocked",
      "type": "event"
    },
    {
      "anonymous": false,
      "inputs": [
        {
          "indexed": false,
          "internalType": "address",
          "name": "account",
          "type": "address"
        }
      ],
      "name": "Unpaused",
      "type": "event"
    },
    {
      "anonymous": false,
      "inputs": [
        {
          "indexed": true,
          "internalType": "address",
          "name": "implementation",
          "type": "address"
        }
      ],
      "name": "Upgraded",
      "type": "event"
    },
    {
      "inputs": [
        {
          "internalType": "address",
          "name": "newAdmin",
          "type": "address"
        }
      ],
      "name": "addAdmin",
      "outputs": [],
      "stateMutability": "nonpayable",
      "type": "function"
    },
    {
      "inputs": [
        {
          "internalType": "address",
          "name": "operator",
          "type": "address"
        },
        {
          "internalType": "uint256",
          "name": "tokenId",
          "type": "uint256"
        }
      ],
      "name": "approve",
      "outputs": [],
      "stateMutability": "nonpayable",
      "type": "function"
    },
    {
      "inputs": [
        {
          "internalType": "address",
          "name": "owner",
          "type": "address"
        }
      ],
      "name": "balanceOf",
      "outputs": [
        {
          "internalType": "uint256",
          "name": "",
          "type": "uint256"
        }
      ],
      "stateMutability": "view",
      "type": "function"
    },
    {
      "inputs": [
        {
          "internalType": "uint256",
          "name": "tokenId",
          "type": "uint256"
        }
      ],
      "name": "burn",
      "outputs": [],
      "stateMutability": "nonpayable",
      "type": "function"
    },
    {
      "inputs": [
        {
          "internalType": "uint256",
          "name": "tokenId",
          "type": "uint256"
        }
      ],
      "name": "cancelSubscription",
      "outputs": [],
      "stateMutability": "nonpayable",
      "type": "function"
    },
    {
      "inputs": [
        {
          "internalType": "uint256",
          "name": "collectionId",
          "type": "uint256"
        }
      ],
      "name": "collectionURI",
      "outputs": [
        {
          "internalType": "string",
          "name": "",
          "type": "string"
        }
      ],
      "stateMutability": "view",
      "type": "function"
    },
    {
      "inputs": [],
      "name": "contractURI",
      "outputs": [
        {
          "internalType": "string",
          "name": "",
          "type": "string"
        }
      ],
      "stateMutability": "view",
      "type": "function"
    },
    {
      "inputs": [
        {
          "internalType": "uint256",
          "name": "tokenId",
          "type": "uint256"
        }
      ],
      "name": "expiresAt",
      "outputs": [
        {
          "internalType": "uint64",
          "name": "",
          "type": "uint64"
        }
      ],
      "stateMutability": "view",
      "type": "function"
    },
    {
      "inputs": [
        {
          "internalType": "uint256",
          "name": "tokenId",
          "type": "uint256"
        }
      ],
      "name": "getApproved",
      "outputs": [
        {
          "internalType": "address",
          "name": "",
          "type": "address"
        }
      ],
      "stateMutability": "view",
      "type": "function"
    },
    {
      "inputs": [],
      "name": "getTrustedForwarder",
      "outputs": [
        {
          "internalType": "address",
          "name": "forwarder",
          "type": "address"
        }
      ],
      "stateMutability": "view",
      "type": "function"
    },
    {
      "inputs": [
        {
          "internalType": "string",
          "name": "__name",
          "type": "string"
        },
        {
          "internalType": "string",
          "name": "__symbol",
          "type": "string"
        },
        {
          "internalType": "string",
          "name": "__contractURI",
          "type": "string"
        },
        {
          "internalType": "address",
          "name": "__admin",
          "type": "address"
        }
      ],
      "name": "initialize",
      "outputs": [],
      "stateMutability": "nonpayable",
      "type": "function"
    },
    {
      "inputs": [
        {
          "internalType": "address",
          "name": "admin",
          "type": "address"
        }
      ],
      "name": "isAdmin",
      "outputs": [
        {
          "internalType": "bool",
          "name": "",
          "type": "bool"
        }
      ],
      "stateMutability": "view",
      "type": "function"
    },
    {
      "inputs": [
        {
          "internalType": "address",
          "name": "_owner",
          "type": "address"
        },
        {
          "internalType": "address",
          "name": "_operator",
          "type": "address"
        }
      ],
      "name": "isApprovedForAll",
      "outputs": [
        {
          "internalType": "bool",
          "name": "isOperator",
          "type": "bool"
        }
      ],
      "stateMutability": "view",
      "type": "function"
    },
    {
      "inputs": [
        {
          "internalType": "uint256",
          "name": "tokenId",
          "type": "uint256"
        }
      ],
      "name": "isLocked",
      "outputs": [
        {
          "internalType": "bool",
          "name": "",
          "type": "bool"
        }
      ],
      "stateMutability": "view",
      "type": "function"
    },
    {
      "inputs": [
        {
          "internalType": "uint256",
          "name": "",
          "type": "uint256"
        }
      ],
      "name": "isRenewable",
      "outputs": [
        {
          "internalType": "bool",
          "name": "",
          "type": "bool"
        }
      ],
      "stateMutability": "pure",
      "type": "function"
    },
    {
      "inputs": [
        {
          "internalType": "address",
          "name": "forwarder",
          "type": "address"
        }
      ],
      "name": "isTrustedForwarder",
      "outputs": [
        {
          "internalType": "bool",
          "name": "",
          "type": "bool"
        }
      ],
      "stateMutability": "view",
      "type": "function"
    },
    {
      "inputs": [],
      "name": "lastId",
      "outputs": [
        {
          "internalType": "uint256",
          "name": "",
          "type": "uint256"
        }
      ],
      "stateMutability": "view",
      "type": "function"
    },
    {
      "inputs": [
        {
          "internalType": "uint256",
          "name": "tokenId",
          "type": "uint256"
        }
      ],
      "name": "lockToken",
      "outputs": [],
      "stateMutability": "nonpayable",
      "type": "function"
    },
    {
      "inputs": [
        {
          "internalType": "uint256",
          "name": "collectionId",
          "type": "uint256"
        },
        {
          "internalType": "address[]",
          "name": "to",
          "type": "address[]"
        },
        {
          "internalType": "bool",
          "name": "locked",
          "type": "bool"
        },
        {
          "internalType": "uint64",
          "name": "expiration",
          "type": "uint64"
        }
      ],
      "name": "mintCollectionToManyUsers",
      "outputs": [
        {
          "internalType": "uint256",
          "name": "",
          "type": "uint256"
        },
        {
          "internalType": "uint256",
          "name": "",
          "type": "uint256"
        }
      ],
      "stateMutability": "nonpayable",
      "type": "function"
    },
    {
      "inputs": [
        {
          "internalType": "uint256",
          "name": "collectionId",
          "type": "uint256"
        },
        {
          "internalType": "address",
          "name": "to",
          "type": "address"
        },
        {
          "internalType": "bool",
          "name": "locked",
          "type": "bool"
        }
      ],
      "name": "mintToken",
      "outputs": [
        {
          "internalType": "uint256",
          "name": "",
          "type": "uint256"
        }
      ],
      "stateMutability": "nonpayable",
      "type": "function"
    },
    {
      "inputs": [
        {
          "internalType": "uint256",
          "name": "collectionId",
          "type": "uint256"
        },
        {
          "internalType": "address",
          "name": "to",
          "type": "address"
        },
        {
          "internalType": "bool",
          "name": "locked",
          "type": "bool"
        },
        {
          "internalType": "uint64",
          "name": "expiration",
          "type": "uint64"
        }
      ],
      "name": "mintTokenWithExpiration",
      "outputs": [
        {
          "internalType": "uint256",
          "name": "",
          "type": "uint256"
        }
      ],
      "stateMutability": "nonpayable",
      "type": "function"
    },
    {
      "inputs": [
        {
          "internalType": "uint256[]",
          "name": "collectionIds",
          "type": "uint256[]"
        },
        {
          "internalType": "address",
          "name": "to",
          "type": "address"
        },
        {
          "internalType": "bool",
          "name": "locked",
          "type": "bool"
        },
        {
          "internalType": "uint64",
          "name": "expiration",
          "type": "uint64"
        }
      ],
      "name": "mintUserToManyCollections",
      "outputs": [
        {
          "internalType": "uint256",
          "name": "",
          "type": "uint256"
        },
        {
          "internalType": "uint256",
          "name": "",
          "type": "uint256"
        }
      ],
      "stateMutability": "nonpayable",
      "type": "function"
    },
    {
      "inputs": [],
      "name": "name",
      "outputs": [
        {
          "internalType": "string",
          "name": "",
          "type": "string"
        }
      ],
      "stateMutability": "view",
      "type": "function"
    },
    {
      "inputs": [],
      "name": "owner",
      "outputs": [
        {
          "internalType": "address",
          "name": "",
          "type": "address"
        }
      ],
      "stateMutability": "view",
      "type": "function"
    },
    {
      "inputs": [
        {
          "internalType": "uint256",
          "name": "tokenId",
          "type": "uint256"
        }
      ],
      "name": "ownerOf",
      "outputs": [
        {
          "internalType": "address",
          "name": "",
          "type": "address"
        }
      ],
      "stateMutability": "view",
      "type": "function"
    },
    {
      "inputs": [],
      "name": "pause",
      "outputs": [],
      "stateMutability": "nonpayable",
      "type": "function"
    },
    {
      "inputs": [],
      "name": "paused",
      "outputs": [
        {
          "internalType": "bool",
          "name": "",
          "type": "bool"
        }
      ],
      "stateMutability": "view",
      "type": "function"
    },
    {
      "inputs": [],
      "name": "proxiableUUID",
      "outputs": [
        {
          "internalType": "bytes32",
          "name": "",
          "type": "bytes32"
        }
      ],
      "stateMutability": "view",
      "type": "function"
    },
    {
      "inputs": [
        {
          "internalType": "uint256",
          "name": "tokenId",
          "type": "uint256"
        },
        {
          "internalType": "address",
          "name": "recipient",
          "type": "address"
        }
      ],
      "name": "reclaimToken",
      "outputs": [],
      "stateMutability": "nonpayable",
      "type": "function"
    },
    {
      "inputs": [
        {
          "internalType": "address",
          "name": "admin",
          "type": "address"
        }
      ],
      "name": "removeAdmin",
      "outputs": [],
      "stateMutability": "nonpayable",
      "type": "function"
    },
    {
      "inputs": [
        {
          "internalType": "uint256",
          "name": "collectionId",
          "type": "uint256"
        }
      ],
      "name": "removeCollectionRoyalty",
      "outputs": [],
      "stateMutability": "nonpayable",
      "type": "function"
    },
    {
      "inputs": [],
      "name": "removeDefaultRoyalty",
      "outputs": [],
      "stateMutability": "nonpayable",
      "type": "function"
    },
    {
      "inputs": [
        {
          "internalType": "uint256",
          "name": "tokenId",
          "type": "uint256"
        },
        {
          "internalType": "uint64",
          "name": "duration",
          "type": "uint64"
        }
      ],
      "name": "renewSubscription",
      "outputs": [],
      "stateMutability": "nonpayable",
      "type": "function"
    },
    {
      "inputs": [],
      "name": "renounceOwnership",
      "outputs": [],
      "stateMutability": "nonpayable",
      "type": "function"
    },
    {
      "inputs": [
        {
          "internalType": "uint256",
          "name": "_tokenId",
          "type": "uint256"
        },
        {
          "internalType": "uint256",
          "name": "_salePrice",
          "type": "uint256"
        }
      ],
      "name": "royaltyInfo",
      "outputs": [
        {
          "internalType": "address",
          "name": "",
          "type": "address"
        },
        {
          "internalType": "uint256",
          "name": "",
          "type": "uint256"
        }
      ],
      "stateMutability": "view",
      "type": "function"
    },
    {
      "inputs": [
        {
          "internalType": "address",
          "name": "from",
          "type": "address"
        },
        {
          "internalType": "address",
          "name": "to",
          "type": "address"
        },
        {
          "internalType": "uint256",
          "name": "tokenId",
          "type": "uint256"
        }
      ],
      "name": "safeTransferFrom",
      "outputs": [],
      "stateMutability": "nonpayable",
      "type": "function"
    },
    {
      "inputs": [
        {
          "internalType": "address",
          "name": "from",
          "type": "address"
        },
        {
          "internalType": "address",
          "name": "to",
          "type": "address"
        },
        {
          "internalType": "uint256",
          "name": "tokenId",
          "type": "uint256"
        },
        {
          "internalType": "bytes",
          "name": "data",
          "type": "bytes"
        }
      ],
      "name": "safeTransferFrom",
      "outputs": [],
      "stateMutability": "nonpayable",
      "type": "function"
    },
    {
      "inputs": [
        {
          "internalType": "address",
          "name": "operator",
          "type": "address"
        },
        {
          "internalType": "bool",
          "name": "approved",
          "type": "bool"
        }
      ],
      "name": "setApprovalForAll",
      "outputs": [],
      "stateMutability": "nonpayable",
      "type": "function"
    },
    {
      "inputs": [
        {
          "internalType": "uint256",
          "name": "collectionId",
          "type": "uint256"
        },
        {
          "internalType": "address",
          "name": "receiver",
          "type": "address"
        },
        {
          "internalType": "uint96",
          "name": "feeNumerator",
          "type": "uint96"
        }
      ],
      "name": "setCollectionRoyalty",
      "outputs": [],
      "stateMutability": "nonpayable",
      "type": "function"
    },
    {
      "inputs": [
        {
          "internalType": "address",
          "name": "receiver",
          "type": "address"
        },
        {
          "internalType": "uint96",
          "name": "feeNumerator",
          "type": "uint96"
        }
      ],
      "name": "setDefaultRoyalty",
      "outputs": [],
      "stateMutability": "nonpayable",
      "type": "function"
    },
    {
      "inputs": [
        {
          "internalType": "uint256",
          "name": "tokenId",
          "type": "uint256"
        },
        {
          "internalType": "uint64",
          "name": "newExpiration",
          "type": "uint64"
        }
      ],
      "name": "setExpiration",
      "outputs": [],
      "stateMutability": "nonpayable",
      "type": "function"
    },
    {
      "inputs": [
        {
          "internalType": "uint256",
          "name": "newLastId",
          "type": "uint256"
        }
      ],
      "name": "setLastId",
      "outputs": [],
      "stateMutability": "nonpayable",
      "type": "function"
    },
    {
      "inputs": [
        {
          "internalType": "address",
          "name": "forwarder",
          "type": "address"
        }
      ],
      "name": "setTrustedForwarder",
      "outputs": [],
      "stateMutability": "nonpayable",
      "type": "function"
    },
    {
      "inputs": [
        {
          "internalType": "bytes4",
          "name": "interfaceId",
          "type": "bytes4"
        }
      ],
      "name": "supportsInterface",
      "outputs": [
        {
          "internalType": "bool",
          "name": "",
          "type": "bool"
        }
      ],
      "stateMutability": "view",
      "type": "function"
    },
    {
      "inputs": [],
      "name": "symbol",
      "outputs": [
        {
          "internalType": "string",
          "name": "",
          "type": "string"
        }
      ],
      "stateMutability": "view",
      "type": "function"
    },
    {
      "inputs": [
        {
          "internalType": "uint256",
          "name": "tokenId",
          "type": "uint256"
        }
      ],
      "name": "tokenCollection",
      "outputs": [
        {
          "internalType": "uint256",
          "name": "",
          "type": "uint256"
        }
      ],
      "stateMutability": "view",
      "type": "function"
    },
    {
      "inputs": [
        {
          "internalType": "uint256",
          "name": "tokenId",
          "type": "uint256"
        }
      ],
      "name": "tokenURI",
      "outputs": [
        {
          "internalType": "string",
          "name": "",
          "type": "string"
        }
      ],
      "stateMutability": "view",
      "type": "function"
    },
    {
      "inputs": [
        {
          "internalType": "address",
          "name": "from",
          "type": "address"
        },
        {
          "internalType": "address",
          "name": "to",
          "type": "address"
        },
        {
          "internalType": "uint256",
          "name": "tokenId",
          "type": "uint256"
        }
      ],
      "name": "transferFrom",
      "outputs": [],
      "stateMutability": "nonpayable",
      "type": "function"
    },
    {
      "inputs": [
        {
          "internalType": "address",
          "name": "newOwner",
          "type": "address"
        }
      ],
      "name": "transferOwnership",
      "outputs": [],
      "stateMutability": "nonpayable",
      "type": "function"
    },
    {
      "inputs": [
        {
          "internalType": "uint256",
          "name": "tokenId",
          "type": "uint256"
        }
      ],
      "name": "unlockToken",
      "outputs": [],
      "stateMutability": "nonpayable",
      "type": "function"
    },
    {
      "inputs": [],
      "name": "unpause",
      "outputs": [],
      "stateMutability": "nonpayable",
      "type": "function"
    },
    {
      "inputs": [
        {
          "internalType": "string",
          "name": "__contractURI",
          "type": "string"
        }
      ],
      "name": "updateContractURI",
      "outputs": [],
      "stateMutability": "nonpayable",
      "type": "function"
    },
    {
      "inputs": [
        {
          "internalType": "string",
          "name": "newName",
          "type": "string"
        }
      ],
      "name": "updateName",
      "outputs": [],
      "stateMutability": "nonpayable",
      "type": "function"
    },
    {
      "inputs": [
        {
          "internalType": "string",
          "name": "newSymbol",
          "type": "string"
        }
      ],
      "name": "updateSymbol",
      "outputs": [],
      "stateMutability": "nonpayable",
      "type": "function"
    },
    {
      "inputs": [
        {
          "internalType": "uint256",
          "name": "tokenId",
          "type": "uint256"
        },
        {
          "internalType": "uint256",
          "name": "newCollectionId",
          "type": "uint256"
        }
      ],
      "name": "updateTokenCollection",
      "outputs": [],
      "stateMutability": "nonpayable",
      "type": "function"
    },
    {
      "inputs": [
        {
          "internalType": "address",
          "name": "newImplementation",
          "type": "address"
        }
      ],
      "name": "upgradeTo",
      "outputs": [],
      "stateMutability": "nonpayable",
      "type": "function"
    },
    {
      "inputs": [
        {
          "internalType": "address",
          "name": "newImplementation",
          "type": "address"
        },
        {
          "internalType": "bytes",
          "name": "data",
          "type": "bytes"
        }
      ],
      "name": "upgradeToAndCall",
      "outputs": [],
      "stateMutability": "payable",
      "type": "function"
    },
    {
      "inputs": [],
      "name": "version",
      "outputs": [
        {
          "internalType": "uint256",
          "name": "",
          "type": "uint256"
        }
      ],
      "stateMutability": "view",
      "type": "function"
    }
  ],
  "bytecode": {
    "object": "0x60a0604052306080523480156200001557600080fd5b506200002062000026565b620000e8565b600054610100900460ff1615620000935760405162461bcd60e51b815260206004820152602760248201527f496e697469616c697a61626c653a20636f6e747261637420697320696e697469604482015266616c697a696e6760c81b606482015260840160405180910390fd5b60005460ff9081161015620000e6576000805460ff191660ff9081179091556040519081527f7f26b83ff96e1f2b6a682f133852f6798a09c465da95921460cefb38474024989060200160405180910390a15b565b608051614cde620001206000396000818161131f0152818161135f0152818161157c015281816115bc015261164f0152614cde6000f3fe6080604052600436106103815760003560e01c806370a08231116101d1578063c2facfa811610102578063dd2e0ac0116100a0578063f6aacfb11161006f578063f6aacfb114610a85578063f90c7a1114610ab6578063fb1fcca114610ad6578063fe94630914610af657600080fd5b8063dd2e0ac014610a10578063e8a3d48514610a30578063e985e9c514610a45578063f2fde38b14610a6557600080fd5b8063ce1b815f116100dc578063ce1b815f14610991578063d1c332de146109b0578063d953e4d4146109d0578063da742228146109f057600080fd5b8063c2facfa814610930578063c87b56dd14610950578063cde317af1461097057600080fd5b80638da5cb5b1161016f5780639a80c5e3116101495780639a80c5e3146108a4578063a22cb465146108d9578063b88d4fde146108f9578063c1292cc31461091957600080fd5b80638da5cb5b1461085c57806395d89b411461087a57806397ec4fba1461088f57600080fd5b80637e5b1e24116101ab5780637e5b1e24146107e757806380f20363146108075780638456cb591461082757806384da92a71461083c57600080fd5b806370a0823114610792578063715018a6146107b2578063776ce868146107c757600080fd5b80632dd883e8116102b6578063537f5312116102545780635c6d8da1116102235780635c6d8da11461071a5780635c975abb1461073a5780636352211e14610752578063704802751461077257600080fd5b8063537f53121461069357806354fd4d50146106b3578063572b6c05146106ca57806359ce12ad146106fa57600080fd5b806342842e0e1161029057806342842e0e1461062b57806342966c681461064b5780634f1ef2861461066b57806352d1902d1461067e57600080fd5b80632dd883e8146105d65780633659cfe6146105f65780633f4ba83a1461061657600080fd5b80631785f53c1161032357806321235083116102fd578063212350831461051d57806323b872dd1461053d57806324d7806c1461055d5780632a55205a1461059757600080fd5b80631785f53c146104a557806317c95709146104c55780631a27e85f146104fd57600080fd5b806306fdde031161035f57806306fdde031461040b578063081812fc1461042d578063095ea7b3146104655780631771c96c1461048557600080fd5b80630140637a1461038657806301ffc9a7146103b957806304634d8d146103e9575b600080fd5b34801561039257600080fd5b506103a66103a1366004613f20565b610b16565b6040519081526020015b60405180910390f35b3480156103c557600080fd5b506103d96103d4366004613f85565b610bc3565b60405190151581526020016103b0565b3480156103f557600080fd5b50610409610404366004613fb9565b610c09565b005b34801561041757600080fd5b50610420610d1e565b6040516103b0919061403c565b34801561043957600080fd5b5061044d61044836600461404f565b610db1565b6040516001600160a01b0390911681526020016103b0565b34801561047157600080fd5b50610409610480366004614068565b610dd8565b34801561049157600080fd5b506104206104a036600461404f565b610ea1565b3480156104b157600080fd5b506104096104c0366004614092565b610ed6565b3480156104d157600080fd5b506104e56104e036600461404f565b610f8f565b6040516001600160401b0390911681526020016103b0565b34801561050957600080fd5b5061040961051836600461404f565b610fb7565b34801561052957600080fd5b5061040961053836600461404f565b611071565b34801561054957600080fd5b506104096105583660046140ad565b611120565b34801561056957600080fd5b506103d9610578366004614092565b6001600160a01b0316600090815261019c602052604090205460ff1690565b3480156105a357600080fd5b506105b76105b23660046140e9565b611234565b604080516001600160a01b0390931683526020830191909152016103b0565b3480156105e257600080fd5b506103a66105f136600461404f565b6112f6565b34801561060257600080fd5b50610409610611366004614092565b611315565b34801561062257600080fd5b506104096113f4565b34801561063757600080fd5b506104096106463660046140ad565b611458565b34801561065757600080fd5b5061040961066636600461404f565b61153c565b6104096106793660046141ad565b611572565b34801561068a57600080fd5b506103a6611642565b34801561069f57600080fd5b506104096106ae3660046141fa565b6116f5565b3480156106bf57600080fd5b506103a66101945481565b3480156106d657600080fd5b506103d96106e5366004614092565b610191546001600160a01b0391821691161490565b34801561070657600080fd5b5061040961071536600461426b565b61175d565b34801561072657600080fd5b5061040961073536600461428e565b6117dc565b34801561074657600080fd5b5060c95460ff166103d9565b34801561075e57600080fd5b5061044d61076d36600461404f565b611954565b34801561077e57600080fd5b5061040961078d366004614092565b6119b4565b34801561079e57600080fd5b506103a66107ad366004614092565b611acc565b3480156107be57600080fd5b50610409611b52565b3480156107d357600080fd5b506104096107e236600461431b565b611b64565b3480156107f357600080fd5b5061040961080236600461433e565b611bd1565b34801561081357600080fd5b5061040961082236600461404f565b611c38565b34801561083357600080fd5b50610409611d08565b34801561084857600080fd5b506104096108573660046141fa565b611d6a565b34801561086857600080fd5b5060fb546001600160a01b031661044d565b34801561088657600080fd5b50610420611dd2565b34801561089b57600080fd5b50610409611de2565b3480156108b057600080fd5b506108c46108bf3660046143b6565b611e44565b604080519283526020830191909152016103b0565b3480156108e557600080fd5b506104096108f4366004614425565b611f4c565b34801561090557600080fd5b5061040961091436600461445c565b612010565b34801561092557600080fd5b506103a66101965481565b34801561093c57600080fd5b506103a661094b3660046144c3565b6120fb565b34801561095c57600080fd5b5061042061096b36600461404f565b612191565b34801561097c57600080fd5b506103d961098b36600461404f565b50600190565b34801561099d57600080fd5b50610191546001600160a01b031661044d565b3480156109bc57600080fd5b506104096109cb36600461431b565b6121de565b3480156109dc57600080fd5b506104096109eb36600461404f565b6122a7565b3480156109fc57600080fd5b50610409610a0b366004614092565b612313565b348015610a1c57600080fd5b50610409610a2b36600461404f565b61238c565b348015610a3c57600080fd5b50610420612400565b348015610a5157600080fd5b506103d9610a60366004614503565b61248f565b348015610a7157600080fd5b50610409610a80366004614092565b61250c565b348015610a9157600080fd5b506103d9610aa036600461404f565b6000908152610198602052604090205460ff1690565b348015610ac257600080fd5b50610409610ad136600461452d565b612582565b348015610ae257600080fd5b506108c4610af1366004614569565b6126a8565b348015610b0257600080fd5b50610409610b113660046140e9565b6127a0565b6000610b2061281e565b610b28612864565b6001600160a01b0316610b4360fb546001600160a01b031690565b6001600160a01b03161480610b5e5750610b5e610578612864565b610b835760405162461bcd60e51b8152600401610b7a906145c6565b60405180910390fd5b61019660008154610b9390614613565b9091555061019654610ba89086908686612873565b610bb561019654836121de565b50610196545b949350505050565b60006001600160e01b03198216638c65f84d60e01b1480610bf457506001600160e01b0319821663152a902d60e11b145b80610c035750610c038261289e565b92915050565b610c11612864565b6001600160a01b0316610c2c60fb546001600160a01b031690565b6001600160a01b03161480610c475750610c47610578612864565b610c635760405162461bcd60e51b8152600401610b7a906145c6565b6127106001600160601b0382161115610c8e5760405162461bcd60e51b8152600401610b7a9061462c565b6001600160a01b038216610ce45760405162461bcd60e51b815260206004820152601960248201527f455243323938313a20696e76616c6964207265636569766572000000000000006044820152606401610b7a565b604080518082019091526001600160a01b039092168083526001600160601b039091166020909201829052600160a01b9091021761019955565b60606101928054610d2e90614676565b80601f0160208091040260200160405190810160405280929190818152602001828054610d5a90614676565b8015610da75780601f10610d7c57610100808354040283529160200191610da7565b820191906000526020600020905b815481529060010190602001808311610d8a57829003601f168201915b5050505050905090565b6000610dbc826128ee565b506000908152606960205260409020546001600160a01b031690565b816daaeb6d7670e522a718067333cd4e3b15610e9257604051633185c44d60e21b81523060048201526001600160a01b03821660248201526daaeb6d7670e522a718067333cd4e9063c617113490604401602060405180830381865afa158015610e46573d6000803e3d6000fd5b505050506040513d601f19601f82011682018060405250810190610e6a91906146b0565b610e9257604051633b79c77360e21b81526001600160a01b0382166004820152602401610b7a565b610e9c838361294d565b505050565b6060610195610eaf83612a6f565b604051602001610ec0929190614740565b6040516020818303038152906040529050919050565b610ede612864565b6001600160a01b0316610ef960fb546001600160a01b031690565b6001600160a01b03161480610f145750610f14610578612864565b610f305760405162461bcd60e51b8152600401610b7a906145c6565b6001600160a01b038116600081815261019c60209081526040808320805460ff191690558051938452908301919091527f235bc17e7930760029e9f4d860a2a8089976de5b381cf8380fc11c1d88a1113391015b60405180910390a150565b6000610f9a826128ee565b50600090815261019b60205260409020546001600160401b031690565b610fbf612864565b6001600160a01b0316610fda60fb546001600160a01b031690565b6001600160a01b03161480610ff55750610ff5610578612864565b6110115760405162461bcd60e51b8152600401610b7a906145c6565b61101961281e565b80610196541061106b5760405162461bcd60e51b815260206004820152601760248201527f4e65772049642068617320746f206265206869676865720000000000000000006044820152606401610b7a565b61019655565b611079612864565b6001600160a01b031661109460fb546001600160a01b031690565b6001600160a01b031614806110af57506110af610578612864565b6110cb5760405162461bcd60e51b8152600401610b7a906145c6565b600081815261019b60209081526040808320805467ffffffffffffffff191690555191825282917f2ec2be2c4b90c2cf13ecb6751a24daed6bb741ae5ed3f7371aabf9402f6d62e8910160405180910390a250565b826daaeb6d7670e522a718067333cd4e3b156112235761113e612864565b6001600160a01b0316816001600160a01b03160361116657611161848484612b01565b61122e565b6daaeb6d7670e522a718067333cd4e63c617113430611183612864565b6040516001600160e01b031960e085901b1681526001600160a01b03928316600482015291166024820152604401602060405180830381865afa1580156111ce573d6000803e3d6000fd5b505050506040513d601f19601f820116820180604052508101906111f291906146b0565b611223576111fe612864565b604051633b79c77360e21b81526001600160a01b039091166004820152602401610b7a565b61122e848484612b01565b50505050565b6000806000611242856112f6565b600081815261019a60209081526040918290208251808401909352546001600160a01b038116808452600160a01b9091046001600160601b031691830191909152919250906112bc575060408051808201909152610199546001600160a01b0381168252600160a01b90046001600160601b031660208201525b6020810151600090612710906112db906001600160601b031688614765565b6112e5919061477c565b9151945090925050505b9250929050565b6000611301826128ee565b506000908152610197602052604090205490565b6001600160a01b037f000000000000000000000000000000000000000000000000000000000000000016300361135d5760405162461bcd60e51b8152600401610b7a9061479e565b7f00000000000000000000000000000000000000000000000000000000000000006001600160a01b03166113a6600080516020614c62833981519152546001600160a01b031690565b6001600160a01b0316146113cc5760405162461bcd60e51b8152600401610b7a906147ea565b6113d581612b33565b604080516000808252602082019092526113f191839190612b8d565b50565b6113fc612864565b6001600160a01b031661141760fb546001600160a01b031690565b6001600160a01b031614806114325750611432610578612864565b61144e5760405162461bcd60e51b8152600401610b7a906145c6565b611456612cf8565b565b826daaeb6d7670e522a718067333cd4e3b1561153157611476612864565b6001600160a01b0316816001600160a01b03160361149957611161848484612d50565b6daaeb6d7670e522a718067333cd4e63c6171134306114b6612864565b6040516001600160e01b031960e085901b1681526001600160a01b03928316600482015291166024820152604401602060405180830381865afa158015611501573d6000803e3d6000fd5b505050506040513d601f19601f8201168201806040525081019061152591906146b0565b611531576111fe612864565b61122e848484612d50565b61154d611547612864565b82612d6b565b6115695760405162461bcd60e51b8152600401610b7a90614836565b6113f181612dc9565b6001600160a01b037f00000000000000000000000000000000000000000000000000000000000000001630036115ba5760405162461bcd60e51b8152600401610b7a9061479e565b7f00000000000000000000000000000000000000000000000000000000000000006001600160a01b0316611603600080516020614c62833981519152546001600160a01b031690565b6001600160a01b0316146116295760405162461bcd60e51b8152600401610b7a906147ea565b61163282612b33565b61163e82826001612b8d565b5050565b6000306001600160a01b037f000000000000000000000000000000000000000000000000000000000000000016146116e25760405162461bcd60e51b815260206004820152603860248201527f555550535570677261646561626c653a206d757374206e6f742062652063616c60448201527f6c6564207468726f7567682064656c656761746563616c6c00000000000000006064820152608401610b7a565b50600080516020614c6283398151915290565b6116fd612864565b6001600160a01b031661171860fb546001600160a01b031690565b6001600160a01b031614806117335750611733610578612864565b61174f5760405162461bcd60e51b8152600401610b7a906145c6565b610193610e9c8284836148c9565b611765612864565b6001600160a01b031661178060fb546001600160a01b031690565b6001600160a01b0316148061179b575061179b610578612864565b6117b75760405162461bcd60e51b8152600401610b7a906145c6565b6117c082612e10565b6117c982612e6e565b61163e6117d583611954565b8284612eb7565b600054610100900460ff16158080156117fc5750600054600160ff909116105b806118165750303b158015611816575060005460ff166001145b6118795760405162461bcd60e51b815260206004820152602e60248201527f496e697469616c697a61626c653a20636f6e747261637420697320616c72656160448201526d191e481a5b9a5d1a585b1a5e995960921b6064820152608401610b7a565b6000805460ff19166001179055801561189c576000805461ff0019166101001790555b6118a68585613028565b6118ae613059565b6118b6613088565b6118be6130b7565b6118c66130b7565b6118ce6130de565b6101926118db8682614988565b506101936118e98582614988565b506000610194556101956118fd8482614988565b50611907826119b4565b801561194d576000805461ff0019169055604051600181527f7f26b83ff96e1f2b6a682f133852f6798a09c465da95921460cefb38474024989060200160405180910390a15b5050505050565b6000818152606760205260408120546001600160a01b031680610c035760405162461bcd60e51b8152602060048201526018602482015277115490cdcc8c4e881a5b9d985b1a59081d1bdad95b88125160421b6044820152606401610b7a565b6119bc612864565b6001600160a01b03166119d760fb546001600160a01b031690565b6001600160a01b031614806119f257506119f2610578612864565b611a0e5760405162461bcd60e51b8152600401610b7a906145c6565b6001600160a01b038116611a705760405162461bcd60e51b8152602060048201526024808201527f4e65772061646d696e2063616e6e6f7420626520746865207a65726f206164646044820152637265737360e01b6064820152608401610b7a565b6001600160a01b038116600081815261019c6020908152604091829020805460ff191660019081179091558251938452908301527f235bc17e7930760029e9f4d860a2a8089976de5b381cf8380fc11c1d88a111339101610f84565b60006001600160a01b038216611b365760405162461bcd60e51b815260206004820152602960248201527f4552433732313a2061646472657373207a65726f206973206e6f7420612076616044820152683634b21037bbb732b960b91b6064820152608401610b7a565b506001600160a01b031660009081526068602052604090205490565b611b5a613124565b611456600061319d565b611b6c612864565b6001600160a01b0316611b8760fb546001600160a01b031690565b6001600160a01b03161480611ba25750611ba2610578612864565b611bbe5760405162461bcd60e51b8152600401610b7a906145c6565b611bc7826128ee565b61163e82826131ef565b611bd9612864565b6001600160a01b0316611bf460fb546001600160a01b031690565b6001600160a01b03161480611c0f5750611c0f610578612864565b611c2b5760405162461bcd60e51b8152600401610b7a906145c6565b61019561163e8282614988565b611c4061281e565b60008181526101986020526040902054819060ff1615611c945760405162461bcd60e51b815260206004820152600f60248201526e151bdad95b881a5cc81b1bd8dad959608a1b6044820152606401610b7a565b611ca5611c9f612864565b83612d6b565b611cff5760405162461bcd60e51b815260206004820152602560248201527f63616c6c6572206973206e6f7420746f6b656e206f776e6572206f72206170706044820152641c9bdd995960da1b6064820152608401610b7a565b61163e82613296565b611d10612864565b6001600160a01b0316611d2b60fb546001600160a01b031690565b6001600160a01b03161480611d465750611d46610578612864565b611d625760405162461bcd60e51b8152600401610b7a906145c6565b6114566132e2565b611d72612864565b6001600160a01b0316611d8d60fb546001600160a01b031690565b6001600160a01b03161480611da85750611da8610578612864565b611dc45760405162461bcd60e51b8152600401610b7a906145c6565b610192610e9c8284836148c9565b60606101938054610d2e90614676565b611dea612864565b6001600160a01b0316611e0560fb546001600160a01b031690565b6001600160a01b03161480611e205750611e20610578612864565b611e3c5760405162461bcd60e51b8152600401610b7a906145c6565b600061019955565b600080611e4f61281e565b611e57612864565b6001600160a01b0316611e7260fb546001600160a01b031690565b6001600160a01b03161480611e8d5750611e8d610578612864565b611ea95760405162461bcd60e51b8152600401610b7a906145c6565b6000805b86811015611f1e5780610196546001611ec69190614a47565b611ed09190614a47565b9150611f0489838a8a85818110611ee957611ee9614a5a565b9050602002016020810190611efe9190614092565b89612873565b611f0e82866121de565b611f1781614613565b9050611ead565b50868690506101966000828254611f359190614a47565b909155505061019654989597509495505050505050565b816daaeb6d7670e522a718067333cd4e3b1561200657604051633185c44d60e21b81523060048201526001600160a01b03821660248201526daaeb6d7670e522a718067333cd4e9063c617113490604401602060405180830381865afa158015611fba573d6000803e3d6000fd5b505050506040513d601f19601f82011682018060405250810190611fde91906146b0565b61200657604051633b79c77360e21b81526001600160a01b0382166004820152602401610b7a565b610e9c8383613320565b836daaeb6d7670e522a718067333cd4e3b156120ef5761202e612864565b6001600160a01b0316816001600160a01b0316036120575761205285858585613332565b61194d565b6daaeb6d7670e522a718067333cd4e63c617113430612074612864565b6040516001600160e01b031960e085901b1681526001600160a01b03928316600482015291166024820152604401602060405180830381865afa1580156120bf573d6000803e3d6000fd5b505050506040513d601f19601f820116820180604052508101906120e391906146b0565b6120ef576111fe612864565b61194d85858585613332565b600061210561281e565b61210d612864565b6001600160a01b031661212860fb546001600160a01b031690565b6001600160a01b031614806121435750612143610578612864565b61215f5760405162461bcd60e51b8152600401610b7a906145c6565b6101966000815461216f90614613565b90915550610196546121849085908585612873565b50610196545b9392505050565b6060600061219e836112f6565b90506101956121ac82612a6f565b6121b585612a6f565b6040516020016121c793929190614a70565b604051602081830303815290604052915050919050565b6121e6612864565b6001600160a01b031661220160fb546001600160a01b031690565b6001600160a01b0316148061221c575061221c610578612864565b6122385760405162461bcd60e51b8152600401610b7a906145c6565b612241826128ee565b600082815261019b6020908152604091829020805467ffffffffffffffff19166001600160401b038516908117909155915191825283917f2ec2be2c4b90c2cf13ecb6751a24daed6bb741ae5ed3f7371aabf9402f6d62e8910160405180910390a25050565b6122af612864565b6001600160a01b03166122ca60fb546001600160a01b031690565b6001600160a01b031614806122e557506122e5610578612864565b6123015760405162461bcd60e51b8152600401610b7a906145c6565b600090815261019a6020526040812055565b61231b612864565b6001600160a01b031661233660fb546001600160a01b031690565b6001600160a01b031614806123515750612351610578612864565b61236d5760405162461bcd60e51b8152600401610b7a906145c6565b61019180546001600160a01b0319166001600160a01b03831617905550565b612394612864565b6001600160a01b03166123af60fb546001600160a01b031690565b6001600160a01b031614806123ca57506123ca610578612864565b6123e65760405162461bcd60e51b8152600401610b7a906145c6565b6123ee61281e565b6123f781612e10565b6113f181612e6e565b610195805461240e90614676565b80601f016020809104026020016040519081016040528092919081815260200182805461243a90614676565b80156124875780601f1061245c57610100808354040283529160200191612487565b820191906000526020600020905b81548152906001019060200180831161246a57829003601f168201915b505050505081565b60006001600160a01b0382166e6c3852cbef3e08e8df289169ede58114806124d057506001600160a01b038216600090815261019c602052604090205460ff165b156124dd57506001610c03565b506001600160a01b039182166000908152606a6020908152604080832093909416825291909152205460ff1690565b612514613124565b6001600160a01b0381166125795760405162461bcd60e51b815260206004820152602660248201527f4f776e61626c653a206e6577206f776e657220697320746865207a65726f206160448201526564647265737360d01b6064820152608401610b7a565b6113f18161319d565b61258a612864565b6001600160a01b03166125a560fb546001600160a01b031690565b6001600160a01b031614806125c057506125c0610578612864565b6125dc5760405162461bcd60e51b8152600401610b7a906145c6565b6127106001600160601b03821611156126075760405162461bcd60e51b8152600401610b7a9061462c565b6001600160a01b03821661265d5760405162461bcd60e51b815260206004820152601b60248201527f455243323938313a20496e76616c696420706172616d657465727300000000006044820152606401610b7a565b6040805180820182526001600160a01b0393841681526001600160601b039283166020808301918252600096875261019a90529190942093519051909116600160a01b029116179055565b6000806126b361281e565b6126bb612864565b6001600160a01b03166126d660fb546001600160a01b031690565b6001600160a01b031614806126f157506126f1610578612864565b61270d5760405162461bcd60e51b8152600401610b7a906145c6565b6000805b87811015612774578061019654600161272a9190614a47565b6127349190614a47565b915061275a89898381811061274b5761274b614a5a565b90506020020135838989612873565b61276482866121de565b61276d81614613565b9050612711565b5087879050610196600082825461278b9190614a47565b90915550506101965498969750505050505050565b6127a8612864565b6001600160a01b03166127c360fb546001600160a01b031690565b6001600160a01b031614806127de57506127de610578612864565b6127fa5760405162461bcd60e51b8152600401610b7a906145c6565b61280261281e565b61280b826128ee565b6000918252610197602052604090912055565b60c95460ff16156114565760405162461bcd60e51b815260206004820152601060248201526f14185d5cd8589b194e881c185d5cd95960821b6044820152606401610b7a565b600061286e613365565b905090565b61287d828461339a565b600083815261019760205260409020849055801561122e5761122e83613296565b60006001600160e01b031982166380ac58cd60e01b14806128cf57506001600160e01b03198216635b5e139f60e01b145b80610c0357506301ffc9a760e01b6001600160e01b0319831614610c03565b6000818152606760205260409020546001600160a01b03166113f15760405162461bcd60e51b8152602060048201526018602482015277115490cdcc8c4e881a5b9d985b1a59081d1bdad95b88125160421b6044820152606401610b7a565b600061295882611954565b9050806001600160a01b0316836001600160a01b0316036129c55760405162461bcd60e51b815260206004820152602160248201527f4552433732313a20617070726f76616c20746f2063757272656e74206f776e656044820152603960f91b6064820152608401610b7a565b806001600160a01b03166129d7612864565b6001600160a01b031614806129f357506129f381610a60612864565b612a655760405162461bcd60e51b815260206004820152603d60248201527f4552433732313a20617070726f76652063616c6c6572206973206e6f7420746f60448201527f6b656e206f776e6572206f7220617070726f76656420666f7220616c6c0000006064820152608401610b7a565b610e9c8383613533565b60606000612a7c836135a1565b60010190506000816001600160401b03811115612a9b57612a9b61410b565b6040519080825280601f01601f191660200182016040528015612ac5576020820181803683370190505b5090508181016020015b600019016f181899199a1a9b1b9c1cb0b131b232b360811b600a86061a8153600a8504945084612acf57509392505050565b612b0c611547612864565b612b285760405162461bcd60e51b8152600401610b7a90614836565b610e9c838383612eb7565b612b3b612864565b6001600160a01b0316612b5660fb546001600160a01b031690565b6001600160a01b03161480612b715750612b71610578612864565b6113f15760405162461bcd60e51b8152600401610b7a906145c6565b7f4910fdfa16fed3260ed0e7147f7cc6da11a60208b5b9406d12a635614ffd91435460ff1615612bc057610e9c83613679565b826001600160a01b03166352d1902d6040518163ffffffff1660e01b8152600401602060405180830381865afa925050508015612c1a575060408051601f3d908101601f19168201909252612c1791810190614ab6565b60015b612c7d5760405162461bcd60e51b815260206004820152602e60248201527f45524331393637557067726164653a206e657720696d706c656d656e7461746960448201526d6f6e206973206e6f74205555505360901b6064820152608401610b7a565b600080516020614c628339815191528114612cec5760405162461bcd60e51b815260206004820152602960248201527f45524331393637557067726164653a20756e737570706f727465642070726f786044820152681a58589b195555525160ba1b6064820152608401610b7a565b50610e9c838383613715565b612d0061373a565b60c9805460ff191690557f5db9ee0a495bf2e6ff9c91a7834c1ba4fdd244a5e8aa4e537bd38aeae4b073aa612d33612864565b6040516001600160a01b03909116815260200160405180910390a1565b610e9c83838360405180602001604052806000815250612010565b600080612d7783611954565b9050806001600160a01b0316846001600160a01b03161480612d9e5750612d9e818561248f565b80610bbb5750836001600160a01b0316612db784610db1565b6001600160a01b031614949350505050565b612dd281613783565b6000908152610197602090815260408083208390556101988252808320805460ff1916905561019b9091529020805467ffffffffffffffff19169055565b612e19816128ee565b6000818152610198602052604090205460ff166113f15760405162461bcd60e51b8152602060048201526013602482015272151bdad95b881a5cc81b9bdd081b1bd8dad959606a1b6044820152606401610b7a565b6000818152610198602052604090819020805460ff19169055517ff27b6ce5b2f5e68ddb2fd95a8a909d4ecf1daaac270935fff052feacb24f184290610f849083815260200190565b826001600160a01b0316612eca82611954565b6001600160a01b031614612ef05760405162461bcd60e51b8152600401610b7a90614acf565b6001600160a01b038216612f525760405162461bcd60e51b8152602060048201526024808201527f4552433732313a207472616e7366657220746f20746865207a65726f206164646044820152637265737360e01b6064820152608401610b7a565b612f5f8383836001613826565b826001600160a01b0316612f7282611954565b6001600160a01b031614612f985760405162461bcd60e51b8152600401610b7a90614acf565b600081815260696020908152604080832080546001600160a01b03199081169091556001600160a01b0387811680865260688552838620805460001901905590871680865283862080546001019055868652606790945282852080549092168417909155905184937fddf252ad1be2c89b69c2b068fc378daa952ba7f163c4a11628f55a4df523b3ef91a4505050565b600054610100900460ff1661304f5760405162461bcd60e51b8152600401610b7a90614b14565b61163e828261388e565b600054610100900460ff166130805760405162461bcd60e51b8152600401610b7a90614b14565b6114566138ce565b600054610100900460ff166130af5760405162461bcd60e51b8152600401610b7a90614b14565b611456613901565b600054610100900460ff166114565760405162461bcd60e51b8152600401610b7a90614b14565b600054610100900460ff166131055760405162461bcd60e51b8152600401610b7a90614b14565b611456733cc6cdda760b79bafa08df41ecfa224f810dceb66001613938565b61312c612864565b6001600160a01b031661314760fb546001600160a01b031690565b6001600160a01b0316146114565760405162461bcd60e51b815260206004820181905260248201527f4f776e61626c653a2063616c6c6572206973206e6f7420746865206f776e65726044820152606401610b7a565b60fb80546001600160a01b038381166001600160a01b0319831681179093556040519116919082907f8be0079c531659141344cd1fd0a4f28419497f9722a3daafe3b4186f6b6457e090600090a35050565b600082815261019b60205260408120546001600160401b0316908181036132215761321a8342614b5f565b905061322e565b61322b8383614b5f565b90505b600084815261019b6020908152604091829020805467ffffffffffffffff19166001600160401b038516908117909155915191825285917f2ec2be2c4b90c2cf13ecb6751a24daed6bb741ae5ed3f7371aabf9402f6d62e8910160405180910390a250505050565b6000818152610198602052604090819020805460ff19166001179055517f032bc66be43dbccb7487781d168eb7bda224628a3b2c3388bdf69b532a3a161190610f849083815260200190565b6132ea61281e565b60c9805460ff191660011790557f62e78cea01bee320cd4e420270b5ea74000d11b0c9f74754ebdbfc544b05a258612d33612864565b61163e61332b612864565b8383613adf565b61333d611c9f612864565b6133595760405162461bcd60e51b8152600401610b7a90614836565b61122e84848484613bad565b6000601436108015906133835750610191546001600160a01b031633145b15613395575060131936013560601c90565b503390565b6001600160a01b0382166133f05760405162461bcd60e51b815260206004820181905260248201527f4552433732313a206d696e7420746f20746865207a65726f20616464726573736044820152606401610b7a565b6000818152606760205260409020546001600160a01b0316156134555760405162461bcd60e51b815260206004820152601c60248201527f4552433732313a20746f6b656e20616c7265616479206d696e746564000000006044820152606401610b7a565b613463600083836001613826565b6000818152606760205260409020546001600160a01b0316156134c85760405162461bcd60e51b815260206004820152601c60248201527f4552433732313a20746f6b656e20616c7265616479206d696e746564000000006044820152606401610b7a565b6001600160a01b038216600081815260686020908152604080832080546001019055848352606790915280822080546001600160a01b0319168417905551839291907fddf252ad1be2c89b69c2b068fc378daa952ba7f163c4a11628f55a4df523b3ef908290a45050565b600081815260696020526040902080546001600160a01b0319166001600160a01b038416908117909155819061356882611954565b6001600160a01b03167f8c5be1e5ebec7d5bd14f71427d1e84f3dd0314c0f7b2291e5b200ac8c7c3b92560405160405180910390a45050565b60008072184f03e93ff9f4daa797ed6e38ed64bf6a1f0160401b83106135e05772184f03e93ff9f4daa797ed6e38ed64bf6a1f0160401b830492506040015b6d04ee2d6d415b85acef8100000000831061360c576d04ee2d6d415b85acef8100000000830492506020015b662386f26fc10000831061362a57662386f26fc10000830492506010015b6305f5e1008310613642576305f5e100830492506008015b612710831061365657612710830492506004015b60648310613668576064830492506002015b600a8310610c035760010192915050565b6001600160a01b0381163b6136e65760405162461bcd60e51b815260206004820152602d60248201527f455243313936373a206e657720696d706c656d656e746174696f6e206973206e60448201526c1bdd08184818dbdb9d1c9858dd609a1b6064820152608401610b7a565b600080516020614c6283398151915280546001600160a01b0319166001600160a01b0392909216919091179055565b61371e83613be0565b60008251118061372b5750805b15610e9c5761122e8383613c20565b60c95460ff166114565760405162461bcd60e51b815260206004820152601460248201527314185d5cd8589b194e881b9bdd081c185d5cd95960621b6044820152606401610b7a565b600061378e82611954565b905061379e816000846001613826565b6137a782611954565b600083815260696020908152604080832080546001600160a01b03199081169091556001600160a01b0385168085526068845282852080546000190190558785526067909352818420805490911690555192935084927fddf252ad1be2c89b69c2b068fc378daa952ba7f163c4a11628f55a4df523b3ef908390a45050565b61382e61281e565b60008281526101986020526040902054829060ff16156138825760405162461bcd60e51b815260206004820152600f60248201526e151bdad95b881a5cc81b1bd8dad959608a1b6044820152606401610b7a565b61194d85858585613d14565b600054610100900460ff166138b55760405162461bcd60e51b8152600401610b7a90614b14565b60656138c18382614988565b506066610e9c8282614988565b600054610100900460ff166138f55760405162461bcd60e51b8152600401610b7a90614b14565b60c9805460ff19169055565b600054610100900460ff166139285760405162461bcd60e51b8152600401610b7a90614b14565b611456613933612864565b61319d565b600054610100900460ff1661395f5760405162461bcd60e51b8152600401610b7a90614b14565b6daaeb6d7670e522a718067333cd4e3b1561163e5760405163c3c5a54760e01b81523060048201526daaeb6d7670e522a718067333cd4e9063c3c5a547906024016020604051808303816000875af11580156139bf573d6000803e3d6000fd5b505050506040513d601f19601f820116820180604052508101906139e391906146b0565b61163e578015613a5f57604051633e9f1edf60e11b81523060048201526001600160a01b03831660248201526daaeb6d7670e522a718067333cd4e90637d3e3dbe906044015b600060405180830381600087803b158015613a4357600080fd5b505af1158015613a57573d6000803e3d6000fd5b505050505050565b6001600160a01b03821615613aae5760405163a0af290360e01b81523060048201526001600160a01b03831660248201526daaeb6d7670e522a718067333cd4e9063a0af290390604401613a29565b604051632210724360e11b81523060048201526daaeb6d7670e522a718067333cd4e90634420e48690602401613a29565b816001600160a01b0316836001600160a01b031603613b405760405162461bcd60e51b815260206004820152601960248201527f4552433732313a20617070726f766520746f2063616c6c6572000000000000006044820152606401610b7a565b6001600160a01b038381166000818152606a6020908152604080832094871680845294825291829020805460ff191686151590811790915591519182527f17307eab39ab6107e8899845ad3d59bd9653f200f220920489ca2b5937696c31910160405180910390a3505050565b613bb8848484612eb7565b613bc484848484613d9c565b61122e5760405162461bcd60e51b8152600401610b7a90614b86565b613be981613679565b6040516001600160a01b038216907fbc7cd75a20ee27fd9adebab32041f755214dbc6bffa90cc0225b39da2e5c2d3b90600090a250565b60606001600160a01b0383163b613c885760405162461bcd60e51b815260206004820152602660248201527f416464726573733a2064656c65676174652063616c6c20746f206e6f6e2d636f6044820152651b9d1c9858dd60d21b6064820152608401610b7a565b600080846001600160a01b031684604051613ca39190614bd8565b600060405180830381855af49150503d8060008114613cde576040519150601f19603f3d011682016040523d82523d6000602084013e613ce3565b606091505b5091509150613d0b8282604051806060016040528060278152602001614c8260279139613ea1565b95945050505050565b600181111561122e576001600160a01b03841615613d5a576001600160a01b03841660009081526068602052604081208054839290613d54908490614bf4565b90915550505b6001600160a01b0383161561122e576001600160a01b03831660009081526068602052604081208054839290613d91908490614a47565b909155505050505050565b60006001600160a01b0384163b15613e9957836001600160a01b031663150b7a02613dc5612864565b8786866040518563ffffffff1660e01b8152600401613de79493929190614c07565b6020604051808303816000875af1925050508015613e22575060408051601f3d908101601f19168201909252613e1f91810190614c44565b60015b613e7f573d808015613e50576040519150601f19603f3d011682016040523d82523d6000602084013e613e55565b606091505b508051600003613e775760405162461bcd60e51b8152600401610b7a90614b86565b805181602001fd5b6001600160e01b031916630a85bd0160e11b149050610bbb565b506001610bbb565b60608315613eb057508161218a565b61218a8383815115613ec55781518083602001fd5b8060405162461bcd60e51b8152600401610b7a919061403c565b80356001600160a01b0381168114613ef657600080fd5b919050565b80151581146113f157600080fd5b80356001600160401b0381168114613ef657600080fd5b60008060008060808587031215613f3657600080fd5b84359350613f4660208601613edf565b92506040850135613f5681613efb565b9150613f6460608601613f09565b905092959194509250565b6001600160e01b0319811681146113f157600080fd5b600060208284031215613f9757600080fd5b813561218a81613f6f565b80356001600160601b0381168114613ef657600080fd5b60008060408385031215613fcc57600080fd5b613fd583613edf565b9150613fe360208401613fa2565b90509250929050565b60005b83811015614007578181015183820152602001613fef565b50506000910152565b60008151808452614028816020860160208601613fec565b601f01601f19169290920160200192915050565b60208152600061218a6020830184614010565b60006020828403121561406157600080fd5b5035919050565b6000806040838503121561407b57600080fd5b61408483613edf565b946020939093013593505050565b6000602082840312156140a457600080fd5b61218a82613edf565b6000806000606084860312156140c257600080fd5b6140cb84613edf565b92506140d960208501613edf565b9150604084013590509250925092565b600080604083850312156140fc57600080fd5b50508035926020909101359150565b634e487b7160e01b600052604160045260246000fd5b600082601f83011261413257600080fd5b81356001600160401b038082111561414c5761414c61410b565b604051601f8301601f19908116603f011681019082821181831017156141745761417461410b565b8160405283815286602085880101111561418d57600080fd5b836020870160208301376000602085830101528094505050505092915050565b600080604083850312156141c057600080fd5b6141c983613edf565b915060208301356001600160401b038111156141e457600080fd5b6141f085828601614121565b9150509250929050565b6000806020838503121561420d57600080fd5b82356001600160401b038082111561422457600080fd5b818501915085601f83011261423857600080fd5b81358181111561424757600080fd5b86602082850101111561425957600080fd5b60209290920196919550909350505050565b6000806040838503121561427e57600080fd5b82359150613fe360208401613edf565b600080600080608085870312156142a457600080fd5b84356001600160401b03808211156142bb57600080fd5b6142c788838901614121565b955060208701359150808211156142dd57600080fd5b6142e988838901614121565b945060408701359150808211156142ff57600080fd5b5061430c87828801614121565b925050613f6460608601613edf565b6000806040838503121561432e57600080fd5b82359150613fe360208401613f09565b60006020828403121561435057600080fd5b81356001600160401b0381111561436657600080fd5b610bbb84828501614121565b60008083601f84011261438457600080fd5b5081356001600160401b0381111561439b57600080fd5b6020830191508360208260051b85010111156112ef57600080fd5b6000806000806000608086880312156143ce57600080fd5b8535945060208601356001600160401b038111156143eb57600080fd5b6143f788828901614372565b909550935050604086013561440b81613efb565b915061441960608701613f09565b90509295509295909350565b6000806040838503121561443857600080fd5b61444183613edf565b9150602083013561445181613efb565b809150509250929050565b6000806000806080858703121561447257600080fd5b61447b85613edf565b935061448960208601613edf565b92506040850135915060608501356001600160401b038111156144ab57600080fd5b6144b787828801614121565b91505092959194509250565b6000806000606084860312156144d857600080fd5b833592506144e860208501613edf565b915060408401356144f881613efb565b809150509250925092565b6000806040838503121561451657600080fd5b61451f83613edf565b9150613fe360208401613edf565b60008060006060848603121561454257600080fd5b8335925061455260208501613edf565b915061456060408501613fa2565b90509250925092565b60008060008060006080868803121561458157600080fd5b85356001600160401b0381111561459757600080fd5b6145a388828901614372565b90965094506145b6905060208701613edf565b9250604086013561440b81613efb565b6020808252601c908201527f63616c6c6572206973206e6f74206f776e6572206f722061646d696e00000000604082015260600190565b634e487b7160e01b600052601160045260246000fd5b600060018201614625576146256145fd565b5060010190565b6020808252602a908201527f455243323938313a20726f79616c7479206665652077696c6c206578636565646040820152692073616c65507269636560b01b606082015260800190565b600181811c9082168061468a57607f821691505b6020821081036146aa57634e487b7160e01b600052602260045260246000fd5b50919050565b6000602082840312156146c257600080fd5b815161218a81613efb565b600081546146da81614676565b600182811680156146f2576001811461470757614736565b60ff1984168752821515830287019450614736565b8560005260208060002060005b8581101561472d5781548a820152908401908201614714565b50505082870194505b5050505092915050565b600061474c82856146cd565b835161475c818360208801613fec565b01949350505050565b8082028115828204841417610c0357610c036145fd565b60008261479957634e487b7160e01b600052601260045260246000fd5b500490565b6020808252602c908201527f46756e6374696f6e206d7573742062652063616c6c6564207468726f7567682060408201526b19195b1959d85d1958d85b1b60a21b606082015260800190565b6020808252602c908201527f46756e6374696f6e206d7573742062652063616c6c6564207468726f7567682060408201526b6163746976652070726f787960a01b606082015260800190565b6020808252602d908201527f4552433732313a2063616c6c6572206973206e6f7420746f6b656e206f776e6560408201526c1c881bdc88185c1c1c9bdd9959609a1b606082015260800190565b601f821115610e9c57600081815260208120601f850160051c810160208610156148aa5750805b601f850160051c820191505b81811015613a57578281556001016148b6565b6001600160401b038311156148e0576148e061410b565b6148f4836148ee8354614676565b83614883565b6000601f84116001811461492857600085156149105750838201355b600019600387901b1c1916600186901b17835561194d565b600083815260209020601f19861690835b828110156149595786850135825560209485019460019092019101614939565b50868210156149765760001960f88860031b161c19848701351681555b505060018560011b0183555050505050565b81516001600160401b038111156149a1576149a161410b565b6149b5816149af8454614676565b84614883565b602080601f8311600181146149ea57600084156149d25750858301515b600019600386901b1c1916600185901b178555613a57565b600085815260208120601f198616915b82811015614a19578886015182559484019460019091019084016149fa565b5085821015614a375787850151600019600388901b60f8161c191681555b5050505050600190811b01905550565b80820180821115610c0357610c036145fd565b634e487b7160e01b600052603260045260246000fd5b6000614a7c82866146cd565b8451614a8c818360208901613fec565b602f60f81b91019081528351614aa9816001840160208801613fec565b0160010195945050505050565b600060208284031215614ac857600080fd5b5051919050565b60208082526025908201527f4552433732313a207472616e736665722066726f6d20696e636f72726563742060408201526437bbb732b960d91b606082015260800190565b6020808252602b908201527f496e697469616c697a61626c653a20636f6e7472616374206973206e6f74206960408201526a6e697469616c697a696e6760a81b606082015260800190565b6001600160401b03818116838216019080821115614b7f57614b7f6145fd565b5092915050565b60208082526032908201527f4552433732313a207472616e7366657220746f206e6f6e20455243373231526560408201527131b2b4bb32b91034b6b83632b6b2b73a32b960711b606082015260800190565b60008251614bea818460208701613fec565b9190910192915050565b81810381811115610c0357610c036145fd565b6001600160a01b0385811682528416602082015260408101839052608060608201819052600090614c3a90830184614010565b9695505050505050565b600060208284031215614c5657600080fd5b815161218a81613f6f56fe360894a13ba1a3210667c828492db98dca3e2076cc3735a920a3ca505d382bbc416464726573733a206c6f772d6c6576656c2064656c65676174652063616c6c206661696c6564a2646970667358221220eeec1d1984da71b7612311615cb914324a19c007660f8a8413a5725837f8c6a364736f6c63430008110033",
    "linkReferences": {}
  },
  "methodIdentifiers": {
    "addAdmin(address)": "70480275",
    "approve(address,uint256)": "095ea7b3",
    "balanceOf(address)": "70a08231",
    "burn(uint256)": "42966c68",
    "cancelSubscription(uint256)": "21235083",
    "collectionURI(uint256)": "1771c96c",
    "contractURI()": "e8a3d485",
    "expiresAt(uint256)": "17c95709",
    "getApproved(uint256)": "081812fc",
    "getTrustedForwarder()": "ce1b815f",
    "initialize(string,string,string,address)": "5c6d8da1",
    "isAdmin(address)": "24d7806c",
    "isApprovedForAll(address,address)": "e985e9c5",
    "isLocked(uint256)": "f6aacfb1",
    "isRenewable(uint256)": "cde317af",
    "isTrustedForwarder(address)": "572b6c05",
    "lastId()": "c1292cc3",
    "lockToken(uint256)": "80f20363",
    "mintCollectionToManyUsers(uint256,address[],bool,uint64)": "9a80c5e3",
    "mintToken(uint256,address,bool)": "c2facfa8",
    "mintTokenWithExpiration(uint256,address,bool,uint64)": "0140637a",
    "mintUserToManyCollections(uint256[],address,bool,uint64)": "fb1fcca1",
    "name()": "06fdde03",
    "owner()": "8da5cb5b",
    "ownerOf(uint256)": "6352211e",
    "pause()": "8456cb59",
    "paused()": "5c975abb",
    "proxiableUUID()": "52d1902d",
    "reclaimToken(uint256,address)": "59ce12ad",
    "removeAdmin(address)": "1785f53c",
    "removeCollectionRoyalty(uint256)": "d953e4d4",
    "removeDefaultRoyalty()": "97ec4fba",
    "renewSubscription(uint256,uint64)": "776ce868",
    "renounceOwnership()": "715018a6",
    "royaltyInfo(uint256,uint256)": "2a55205a",
    "safeTransferFrom(address,address,uint256)": "42842e0e",
    "safeTransferFrom(address,address,uint256,bytes)": "b88d4fde",
    "setApprovalForAll(address,bool)": "a22cb465",
    "setCollectionRoyalty(uint256,address,uint96)": "f90c7a11",
    "setDefaultRoyalty(address,uint96)": "04634d8d",
    "setExpiration(uint256,uint64)": "d1c332de",
    "setLastId(uint256)": "1a27e85f",
    "setTrustedForwarder(address)": "da742228",
    "supportsInterface(bytes4)": "01ffc9a7",
    "symbol()": "95d89b41",
    "tokenCollection(uint256)": "2dd883e8",
    "tokenURI(uint256)": "c87b56dd",
    "transferFrom(address,address,uint256)": "23b872dd",
    "transferOwnership(address)": "f2fde38b",
    "unlockToken(uint256)": "dd2e0ac0",
    "unpause()": "3f4ba83a",
    "updateContractURI(string)": "7e5b1e24",
    "updateName(string)": "84da92a7",
    "updateSymbol(string)": "537f5312",
    "updateTokenCollection(uint256,uint256)": "fe946309",
    "upgradeTo(address)": "3659cfe6",
    "upgradeToAndCall(address,bytes)": "4f1ef286",
    "version()": "54fd4d50"
  },
  "id": 44
}