{
  "_format": "hh-sol-artifact-1",
  "contractName": "OctiTokenCollectableSubscribable",
  "sourceName": "contracts/OctiTokenCollectableSubscribable.sol",
  "abi": [
    {
      "inputs": [],
      "stateMutability": "nonpayable",
      "type": "constructor"
    },
    {
      "anonymous": false,
      "inputs": [
        {
          "indexed": false,
          "internalType": "address",
          "name": "previousAdmin",
          "type": "address"
        },
        {
          "indexed": false,
          "internalType": "address",
          "name": "newAdmin",
          "type": "address"
        }
      ],
      "name": "AdminChanged",
      "type": "event"
    },
    {
      "anonymous": false,
      "inputs": [
        {
          "indexed": true,
          "internalType": "address",
          "name": "owner",
          "type": "address"
        },
        {
          "indexed": true,
          "internalType": "address",
          "name": "approved",
          "type": "address"
        },
        {
          "indexed": true,
          "internalType": "uint256",
          "name": "tokenId",
          "type": "uint256"
        }
      ],
      "name": "Approval",
      "type": "event"
    },
    {
      "anonymous": false,
      "inputs": [
        {
          "indexed": true,
          "internalType": "address",
          "name": "owner",
          "type": "address"
        },
        {
          "indexed": true,
          "internalType": "address",
          "name": "operator",
          "type": "address"
        },
        {
          "indexed": false,
          "internalType": "bool",
          "name": "approved",
          "type": "bool"
        }
      ],
      "name": "ApprovalForAll",
      "type": "event"
    },
    {
      "anonymous": false,
      "inputs": [
        {
          "indexed": true,
          "internalType": "address",
          "name": "beacon",
          "type": "address"
        }
      ],
      "name": "BeaconUpgraded",
      "type": "event"
    },
    {
      "anonymous": false,
      "inputs": [
        {
          "indexed": false,
          "internalType": "uint256",
          "name": "tokenId",
          "type": "uint256"
        }
      ],
      "name": "Frozen",
      "type": "event"
    },
    {
      "anonymous": false,
      "inputs": [
        {
          "indexed": false,
          "internalType": "uint8",
          "name": "version",
          "type": "uint8"
        }
      ],
      "name": "Initialized",
      "type": "event"
    },
    {
      "anonymous": false,
      "inputs": [
        {
          "indexed": true,
          "internalType": "uint256",
          "name": "eventId",
          "type": "uint256"
        },
        {
          "indexed": false,
          "internalType": "uint256",
          "name": "tokenId",
          "type": "uint256"
        },
        {
          "indexed": false,
          "internalType": "address",
          "name": "owner",
          "type": "address"
        }
      ],
      "name": "Minted",
      "type": "event"
    },
    {
      "anonymous": false,
      "inputs": [
        {
          "indexed": true,
          "internalType": "address",
          "name": "previousOwner",
          "type": "address"
        },
        {
          "indexed": true,
          "internalType": "address",
          "name": "newOwner",
          "type": "address"
        }
      ],
      "name": "OwnershipTransferred",
      "type": "event"
    },
    {
      "anonymous": false,
      "inputs": [
        {
          "indexed": false,
          "internalType": "address",
          "name": "account",
          "type": "address"
        }
      ],
      "name": "Paused",
      "type": "event"
    },
    {
      "anonymous": false,
      "inputs": [
        {
          "indexed": true,
          "internalType": "uint256",
          "name": "tokenId",
          "type": "uint256"
        },
        {
          "indexed": false,
          "internalType": "uint64",
          "name": "expiration",
          "type": "uint64"
        }
      ],
      "name": "SubscriptionUpdate",
      "type": "event"
    },
    {
      "anonymous": false,
      "inputs": [
        {
          "indexed": true,
          "internalType": "address",
          "name": "from",
          "type": "address"
        },
        {
          "indexed": true,
          "internalType": "address",
          "name": "to",
          "type": "address"
        },
        {
          "indexed": true,
          "internalType": "uint256",
          "name": "tokenId",
          "type": "uint256"
        }
      ],
      "name": "Transfer",
      "type": "event"
    },
    {
      "anonymous": false,
      "inputs": [
        {
          "indexed": false,
          "internalType": "uint256",
          "name": "tokenId",
          "type": "uint256"
        }
      ],
      "name": "Unfrozen",
      "type": "event"
    },
    {
      "anonymous": false,
      "inputs": [
        {
          "indexed": false,
          "internalType": "address",
          "name": "account",
          "type": "address"
        }
      ],
      "name": "Unpaused",
      "type": "event"
    },
    {
      "anonymous": false,
      "inputs": [
        {
          "indexed": true,
          "internalType": "address",
          "name": "implementation",
          "type": "address"
        }
      ],
      "name": "Upgraded",
      "type": "event"
    },
    {
      "inputs": [
        {
          "internalType": "address",
          "name": "to",
          "type": "address"
        },
        {
          "internalType": "uint256",
          "name": "tokenId",
          "type": "uint256"
        }
      ],
      "name": "approve",
      "outputs": [],
      "stateMutability": "nonpayable",
      "type": "function"
    },
    {
      "inputs": [
        {
          "internalType": "address",
          "name": "owner",
          "type": "address"
        }
      ],
      "name": "balanceOf",
      "outputs": [
        {
          "internalType": "uint256",
          "name": "",
          "type": "uint256"
        }
      ],
      "stateMutability": "view",
      "type": "function"
    },
    {
      "inputs": [
        {
          "internalType": "uint256",
          "name": "tokenId",
          "type": "uint256"
        }
      ],
      "name": "burn",
      "outputs": [],
      "stateMutability": "nonpayable",
      "type": "function"
    },
    {
      "inputs": [
        {
          "internalType": "uint256",
          "name": "tokenId",
          "type": "uint256"
        }
      ],
      "name": "cancelSubscription",
      "outputs": [],
      "stateMutability": "nonpayable",
      "type": "function"
    },
    {
      "inputs": [],
      "name": "contractURI",
      "outputs": [
        {
          "internalType": "string",
          "name": "",
          "type": "string"
        }
      ],
      "stateMutability": "view",
      "type": "function"
    },
    {
      "inputs": [
        {
          "internalType": "uint256",
          "name": "eventId",
          "type": "uint256"
        }
      ],
      "name": "eventURI",
      "outputs": [
        {
          "internalType": "string",
          "name": "",
          "type": "string"
        }
      ],
      "stateMutability": "view",
      "type": "function"
    },
    {
      "inputs": [
        {
          "internalType": "uint256",
          "name": "tokenId",
          "type": "uint256"
        }
      ],
      "name": "expireSubscription",
      "outputs": [],
      "stateMutability": "nonpayable",
      "type": "function"
    },
    {
      "inputs": [
        {
          "internalType": "uint256",
          "name": "tokenId",
          "type": "uint256"
        }
      ],
      "name": "expiresAt",
      "outputs": [
        {
          "internalType": "uint64",
          "name": "",
          "type": "uint64"
        }
      ],
      "stateMutability": "view",
      "type": "function"
    },
    {
      "inputs": [
        {
          "internalType": "uint256",
          "name": "tokenId",
          "type": "uint256"
        }
      ],
      "name": "freeze",
      "outputs": [],
      "stateMutability": "nonpayable",
      "type": "function"
    },
    {
      "inputs": [
        {
          "internalType": "uint256",
          "name": "tokenId",
          "type": "uint256"
        }
      ],
      "name": "getApproved",
      "outputs": [
        {
          "internalType": "address",
          "name": "",
          "type": "address"
        }
      ],
      "stateMutability": "view",
      "type": "function"
    },
    {
      "inputs": [
        {
          "internalType": "string",
          "name": "__name",
          "type": "string"
        },
        {
          "internalType": "string",
          "name": "__symbol",
          "type": "string"
        }
      ],
      "name": "initialize",
      "outputs": [],
      "stateMutability": "nonpayable",
      "type": "function"
    },
    {
      "inputs": [
        {
          "internalType": "address",
          "name": "_owner",
          "type": "address"
        },
        {
          "internalType": "address",
          "name": "_operator",
          "type": "address"
        }
      ],
      "name": "isApprovedForAll",
      "outputs": [
        {
          "internalType": "bool",
          "name": "isOperator",
          "type": "bool"
        }
      ],
      "stateMutability": "view",
      "type": "function"
    },
    {
      "inputs": [
        {
          "internalType": "uint256",
          "name": "tokenId",
          "type": "uint256"
        }
      ],
      "name": "isFrozen",
      "outputs": [
        {
          "internalType": "bool",
          "name": "",
          "type": "bool"
        }
      ],
      "stateMutability": "view",
      "type": "function"
    },
    {
      "inputs": [
        {
          "internalType": "uint256",
          "name": "tokenId",
          "type": "uint256"
        }
      ],
      "name": "isRenewable",
      "outputs": [
        {
          "internalType": "bool",
          "name": "",
          "type": "bool"
        }
      ],
      "stateMutability": "view",
      "type": "function"
    },
    {
      "inputs": [],
      "name": "lastId",
      "outputs": [
        {
          "internalType": "uint256",
          "name": "",
          "type": "uint256"
        }
      ],
      "stateMutability": "view",
      "type": "function"
    },
    {
      "inputs": [
        {
          "internalType": "uint256",
          "name": "eventId",
          "type": "uint256"
        },
        {
          "internalType": "address[]",
          "name": "to",
          "type": "address[]"
        },
        {
          "internalType": "bool",
          "name": "frozen",
          "type": "bool"
        },
        {
          "internalType": "uint64",
          "name": "validDuration",
          "type": "uint64"
        }
      ],
      "name": "mintEventToManyUsers",
      "outputs": [
        {
          "internalType": "bool",
          "name": "",
          "type": "bool"
        }
      ],
      "stateMutability": "nonpayable",
      "type": "function"
    },
    {
      "inputs": [
        {
          "internalType": "uint256",
          "name": "eventId",
          "type": "uint256"
        },
        {
          "internalType": "address",
          "name": "to",
          "type": "address"
        },
        {
          "internalType": "bool",
          "name": "frozen",
          "type": "bool"
        },
        {
          "internalType": "uint64",
          "name": "validDuration",
          "type": "uint64"
        }
      ],
      "name": "mintToken",
      "outputs": [
        {
          "internalType": "bool",
          "name": "",
          "type": "bool"
        }
      ],
      "stateMutability": "nonpayable",
      "type": "function"
    },
    {
      "inputs": [
        {
          "internalType": "uint256[]",
          "name": "eventIds",
          "type": "uint256[]"
        },
        {
          "internalType": "address",
          "name": "to",
          "type": "address"
        },
        {
          "internalType": "bool",
          "name": "frozen",
          "type": "bool"
        },
        {
          "internalType": "uint64",
          "name": "validDuration",
          "type": "uint64"
        }
      ],
      "name": "mintUserToManyEvents",
      "outputs": [
        {
          "internalType": "bool",
          "name": "",
          "type": "bool"
        }
      ],
      "stateMutability": "nonpayable",
      "type": "function"
    },
    {
      "inputs": [],
      "name": "name",
      "outputs": [
        {
          "internalType": "string",
          "name": "",
          "type": "string"
        }
      ],
      "stateMutability": "view",
      "type": "function"
    },
    {
      "inputs": [],
      "name": "owner",
      "outputs": [
        {
          "internalType": "address",
          "name": "",
          "type": "address"
        }
      ],
      "stateMutability": "view",
      "type": "function"
    },
    {
      "inputs": [
        {
          "internalType": "uint256",
          "name": "tokenId",
          "type": "uint256"
        }
      ],
      "name": "ownerOf",
      "outputs": [
        {
          "internalType": "address",
          "name": "",
          "type": "address"
        }
      ],
      "stateMutability": "view",
      "type": "function"
    },
    {
      "inputs": [],
      "name": "pause",
      "outputs": [],
      "stateMutability": "nonpayable",
      "type": "function"
    },
    {
      "inputs": [],
      "name": "paused",
      "outputs": [
        {
          "internalType": "bool",
          "name": "",
          "type": "bool"
        }
      ],
      "stateMutability": "view",
      "type": "function"
    },
    {
      "inputs": [],
      "name": "proxiableUUID",
      "outputs": [
        {
          "internalType": "bytes32",
          "name": "",
          "type": "bytes32"
        }
      ],
      "stateMutability": "view",
      "type": "function"
    },
    {
      "inputs": [
        {
          "internalType": "uint256",
          "name": "tokenId",
          "type": "uint256"
        }
      ],
      "name": "reclaimToken",
      "outputs": [],
      "stateMutability": "nonpayable",
      "type": "function"
    },
    {
      "inputs": [],
      "name": "removeDefaultRoyalty",
      "outputs": [],
      "stateMutability": "nonpayable",
      "type": "function"
    },
    {
      "inputs": [
        {
          "internalType": "uint256",
          "name": "eventId",
          "type": "uint256"
        }
      ],
      "name": "removeEventRoyalty",
      "outputs": [],
      "stateMutability": "nonpayable",
      "type": "function"
    },
    {
      "inputs": [
        {
          "internalType": "uint256",
          "name": "tokenId",
          "type": "uint256"
        },
        {
          "internalType": "uint64",
          "name": "duration",
          "type": "uint64"
        }
      ],
      "name": "renewSubscription",
      "outputs": [],
      "stateMutability": "nonpayable",
      "type": "function"
    },
    {
      "inputs": [],
      "name": "renounceOwnership",
      "outputs": [],
      "stateMutability": "nonpayable",
      "type": "function"
    },
    {
      "inputs": [
        {
          "internalType": "uint256",
          "name": "_tokenId",
          "type": "uint256"
        },
        {
          "internalType": "uint256",
          "name": "_salePrice",
          "type": "uint256"
        }
      ],
      "name": "royaltyInfo",
      "outputs": [
        {
          "internalType": "address",
          "name": "",
          "type": "address"
        },
        {
          "internalType": "uint256",
          "name": "",
          "type": "uint256"
        }
      ],
      "stateMutability": "view",
      "type": "function"
    },
    {
      "inputs": [
        {
          "internalType": "address",
          "name": "from",
          "type": "address"
        },
        {
          "internalType": "address",
          "name": "to",
          "type": "address"
        },
        {
          "internalType": "uint256",
          "name": "tokenId",
          "type": "uint256"
        }
      ],
      "name": "safeTransferFrom",
      "outputs": [],
      "stateMutability": "nonpayable",
      "type": "function"
    },
    {
      "inputs": [
        {
          "internalType": "address",
          "name": "from",
          "type": "address"
        },
        {
          "internalType": "address",
          "name": "to",
          "type": "address"
        },
        {
          "internalType": "uint256",
          "name": "tokenId",
          "type": "uint256"
        },
        {
          "internalType": "bytes",
          "name": "data",
          "type": "bytes"
        }
      ],
      "name": "safeTransferFrom",
      "outputs": [],
      "stateMutability": "nonpayable",
      "type": "function"
    },
    {
      "inputs": [
        {
          "internalType": "address",
          "name": "operator",
          "type": "address"
        },
        {
          "internalType": "bool",
          "name": "approved",
          "type": "bool"
        }
      ],
      "name": "setApprovalForAll",
      "outputs": [],
      "stateMutability": "nonpayable",
      "type": "function"
    },
    {
      "inputs": [
        {
          "internalType": "uint256",
          "name": "newLastId",
          "type": "uint256"
        }
      ],
      "name": "setLastId",
      "outputs": [],
      "stateMutability": "nonpayable",
      "type": "function"
    },
    {
      "inputs": [
        {
          "internalType": "bytes4",
          "name": "interfaceId",
          "type": "bytes4"
        }
      ],
      "name": "supportsInterface",
      "outputs": [
        {
          "internalType": "bool",
          "name": "",
          "type": "bool"
        }
      ],
      "stateMutability": "view",
      "type": "function"
    },
    {
      "inputs": [],
      "name": "symbol",
      "outputs": [
        {
          "internalType": "string",
          "name": "",
          "type": "string"
        }
      ],
      "stateMutability": "view",
      "type": "function"
    },
    {
      "inputs": [
        {
          "internalType": "uint256",
          "name": "index",
          "type": "uint256"
        }
      ],
      "name": "tokenByIndex",
      "outputs": [
        {
          "internalType": "uint256",
          "name": "",
          "type": "uint256"
        }
      ],
      "stateMutability": "view",
      "type": "function"
    },
    {
      "inputs": [
        {
          "internalType": "address",
          "name": "owner",
          "type": "address"
        },
        {
          "internalType": "uint256",
          "name": "index",
          "type": "uint256"
        }
      ],
      "name": "tokenDetailsOfOwnerByIndex",
      "outputs": [
        {
          "internalType": "uint256",
          "name": "tokenId",
          "type": "uint256"
        },
        {
          "internalType": "uint256",
          "name": "eventId",
          "type": "uint256"
        }
      ],
      "stateMutability": "view",
      "type": "function"
    },
    {
      "inputs": [
        {
          "internalType": "uint256",
          "name": "tokenId",
          "type": "uint256"
        }
      ],
      "name": "tokenEvent",
      "outputs": [
        {
          "internalType": "uint256",
          "name": "",
          "type": "uint256"
        }
      ],
      "stateMutability": "view",
      "type": "function"
    },
    {
      "inputs": [
        {
          "internalType": "address",
          "name": "owner",
          "type": "address"
        },
        {
          "internalType": "uint256",
          "name": "index",
          "type": "uint256"
        }
      ],
      "name": "tokenOfOwnerByIndex",
      "outputs": [
        {
          "internalType": "uint256",
          "name": "",
          "type": "uint256"
        }
      ],
      "stateMutability": "view",
      "type": "function"
    },
    {
      "inputs": [
        {
          "internalType": "uint256",
          "name": "tokenId",
          "type": "uint256"
        }
      ],
      "name": "tokenURI",
      "outputs": [
        {
          "internalType": "string",
          "name": "",
          "type": "string"
        }
      ],
      "stateMutability": "view",
      "type": "function"
    },
    {
      "inputs": [],
      "name": "totalSupply",
      "outputs": [
        {
          "internalType": "uint256",
          "name": "",
          "type": "uint256"
        }
      ],
      "stateMutability": "view",
      "type": "function"
    },
    {
      "inputs": [
        {
          "internalType": "address",
          "name": "from",
          "type": "address"
        },
        {
          "internalType": "address",
          "name": "to",
          "type": "address"
        },
        {
          "internalType": "uint256",
          "name": "tokenId",
          "type": "uint256"
        }
      ],
      "name": "transferFrom",
      "outputs": [],
      "stateMutability": "nonpayable",
      "type": "function"
    },
    {
      "inputs": [
        {
          "internalType": "address",
          "name": "newOwner",
          "type": "address"
        }
      ],
      "name": "transferOwnership",
      "outputs": [],
      "stateMutability": "nonpayable",
      "type": "function"
    },
    {
      "inputs": [
        {
          "internalType": "uint256",
          "name": "tokenId",
          "type": "uint256"
        }
      ],
      "name": "unfreeze",
      "outputs": [],
      "stateMutability": "nonpayable",
      "type": "function"
    },
    {
      "inputs": [],
      "name": "unpause",
      "outputs": [],
      "stateMutability": "nonpayable",
      "type": "function"
    },
    {
      "inputs": [
        {
          "internalType": "string",
          "name": "__contractURI",
          "type": "string"
        }
      ],
      "name": "updateContractURI",
      "outputs": [],
      "stateMutability": "nonpayable",
      "type": "function"
    },
    {
      "inputs": [
        {
          "internalType": "address",
          "name": "receiver",
          "type": "address"
        },
        {
          "internalType": "uint96",
          "name": "feeNumerator",
          "type": "uint96"
        }
      ],
      "name": "updateDefaultRoyalty",
      "outputs": [],
      "stateMutability": "nonpayable",
      "type": "function"
    },
    {
      "inputs": [
        {
          "internalType": "uint256",
          "name": "eventId",
          "type": "uint256"
        },
        {
          "internalType": "address",
          "name": "receiver",
          "type": "address"
        },
        {
          "internalType": "uint96",
          "name": "feeNumerator",
          "type": "uint96"
        }
      ],
      "name": "updateEventRoyalty",
      "outputs": [],
      "stateMutability": "nonpayable",
      "type": "function"
    },
    {
      "inputs": [
        {
          "internalType": "address",
          "name": "newImplementation",
          "type": "address"
        }
      ],
      "name": "upgradeTo",
      "outputs": [],
      "stateMutability": "nonpayable",
      "type": "function"
    },
    {
      "inputs": [
        {
          "internalType": "address",
          "name": "newImplementation",
          "type": "address"
        },
        {
          "internalType": "bytes",
          "name": "data",
          "type": "bytes"
        }
      ],
      "name": "upgradeToAndCall",
      "outputs": [],
      "stateMutability": "payable",
      "type": "function"
    }
  ],
  "bytecode": "0x60a0604052306080523480156200001557600080fd5b506200002062000026565b620000e8565b600054610100900460ff1615620000935760405162461bcd60e51b815260206004820152602760248201527f496e697469616c697a61626c653a20636f6e747261637420697320696e697469604482015266616c697a696e6760c81b606482015260840160405180910390fd5b60005460ff9081161015620000e6576000805460ff191660ff9081179091556040519081527f7f26b83ff96e1f2b6a682f133852f6798a09c465da95921460cefb38474024989060200160405180910390a15b565b608051615260620001206000396000818161114e015281816111fe015281816116ea0152818161179a01526119ff01526152606000f3fe6080604052600436106103345760003560e01c80636352211e116101b0578063a0894799116100ec578063c87b56dd11610095578063d7a78db81161006f578063d7a78db814610971578063e8a3d48514610991578063e985e9c5146109a6578063f2fde38b146109c657600080fd5b8063c87b56dd14610911578063cde317af14610931578063d691e43c1461095157600080fd5b8063b88d4fde116100c6578063b88d4fde146108ba578063bceb2f84146108da578063c1292cc3146108fa57600080fd5b8063a089479914610849578063a0fd0c6a1461087a578063a22cb4651461089a57600080fd5b806378fa0654116101595780638da5cb5b116101335780638da5cb5b146107d35780638e45d62e146107ff57806395d89b411461081f57806397ec4fba1461083457600080fd5b806378fa06541461077e5780637e5b1e241461079e5780638456cb59146107be57600080fd5b806370a082311161018a57806370a0823114610729578063715018a614610749578063776ce8681461075e57600080fd5b80636352211e146106b45780636623fc46146106d457806367e971ce146106f457600080fd5b80632f745c591161027f5780634cd88b7611610228578063508061a211610202578063508061a21461064757806352d1902d146106675780635c975abb1461067c5780635f330b411461069457600080fd5b80634cd88b76146105f45780634f1ef286146106145780634f6ccce71461062757600080fd5b806342842e0e1161025957806342842e0e1461059457806342966c68146105b4578063493a7576146105d457600080fd5b80632f745c591461053f5780633659cfe61461055f5780633f4ba83a1461057f57600080fd5b806317c95709116102e157806321235083116102bb57806321235083146104b357806323b872dd146104d35780632a55205a146104f357600080fd5b806317c957091461044557806318160ddd1461047e5780631a27e85f1461049357600080fd5b8063095ea7b311610312578063095ea7b3146103d5578063099bff12146103f7578063127a52981461041757600080fd5b806301ffc9a71461033957806306fdde031461036e578063081812fc14610390575b600080fd5b34801561034557600080fd5b50610359610354366004614711565b6109e6565b60405190151581526020015b60405180910390f35b34801561037a57600080fd5b50610383610a8e565b60405161036591906147a4565b34801561039c57600080fd5b506103b06103ab3660046147b7565b610b20565b60405173ffffffffffffffffffffffffffffffffffffffff9091168152602001610365565b3480156103e157600080fd5b506103f56103f03660046147f9565b610b54565b005b34801561040357600080fd5b506103596104123660046148f6565b610ce6565b34801561042357600080fd5b506104376104323660046147b7565b610d7c565b604051908152602001610365565b34801561045157600080fd5b506104656104603660046147b7565b610d9b565b60405167ffffffffffffffff9091168152602001610365565b34801561048a57600080fd5b50609954610437565b34801561049f57600080fd5b506103f56104ae3660046147b7565b610dc4565b3480156104bf57600080fd5b506103f56104ce3660046147b7565b610e46565b3480156104df57600080fd5b506103f56104ee3660046149bf565b610eba565b3480156104ff57600080fd5b5061051361050e3660046149fb565b610f5c565b6040805173ffffffffffffffffffffffffffffffffffffffff9093168352602083019190915201610365565b34801561054b57600080fd5b5061043761055a3660046147f9565b611067565b34801561056b57600080fd5b506103f561057a366004614a1d565b611136565b34801561058b57600080fd5b506103f561133c565b3480156105a057600080fd5b506103f56105af3660046149bf565b61134e565b3480156105c057600080fd5b506103f56105cf3660046147b7565b611369565b3480156105e057600080fd5b506103f56105ef3660046147b7565b611407565b34801561060057600080fd5b506103f561060f366004614ac6565b611515565b6103f5610622366004614b2a565b6116d2565b34801561063357600080fd5b506104376106423660046147b7565b6118c9565b34801561065357600080fd5b506103f56106623660046147b7565b611987565b34801561067357600080fd5b506104376119e5565b34801561068857600080fd5b5060fb5460ff16610359565b3480156106a057600080fd5b506103f56106af3660046147b7565b611ad1565b3480156106c057600080fd5b506103b06106cf3660046147b7565b611aeb565b3480156106e057600080fd5b506103f56106ef3660046147b7565b611b77565b34801561070057600080fd5b5061071461070f3660046147f9565b611c6f565b60408051928352602083019190915201610365565b34801561073557600080fd5b50610437610744366004614a1d565b611c90565b34801561075557600080fd5b506103f5611d5e565b34801561076a57600080fd5b506103f5610779366004614b6e565b611d70565b34801561078a57600080fd5b506103f5610799366004614bad565b611d8b565b3480156107aa57600080fd5b506103f56107b9366004614be9565b611d9e565b3480156107ca57600080fd5b506103f5611dba565b3480156107df57600080fd5b5061012d5473ffffffffffffffffffffffffffffffffffffffff166103b0565b34801561080b57600080fd5b5061035961081a366004614c1e565b611dca565b34801561082b57600080fd5b50610383611e10565b34801561084057600080fd5b506103f5611e1f565b34801561085557600080fd5b506103596108643660046147b7565b60009081526101c6602052604090205460ff1690565b34801561088657600080fd5b506103836108953660046147b7565b611e32565b3480156108a657600080fd5b506103f56108b5366004614c54565b611e67565b3480156108c657600080fd5b506103f56108d5366004614c8b565b611e72565b3480156108e657600080fd5b506103596108f5366004614cf3565b611f1a565b34801561090657600080fd5b506104376101c45481565b34801561091d57600080fd5b5061038361092c3660046147b7565b611f9e565b34801561093d57600080fd5b5061035961094c3660046147b7565b611fef565b34801561095d57600080fd5b506103f561096c366004614d9f565b612002565b34801561097d57600080fd5b506103f561098c3660046147b7565b612014565b34801561099d57600080fd5b5061038361210f565b3480156109b257600080fd5b506103596109c1366004614dc9565b61219e565b3480156109d257600080fd5b506103f56109e1366004614a1d565b612213565b60007fffffffff0000000000000000000000000000000000000000000000000000000082167f8c65f84d000000000000000000000000000000000000000000000000000000001480610a7957507fffffffff0000000000000000000000000000000000000000000000000000000082167f2a55205a00000000000000000000000000000000000000000000000000000000145b80610a885750610a88826122c7565b92915050565b606060658054610a9d90614df3565b80601f0160208091040260200160405190810160405280929190818152602001828054610ac990614df3565b8015610b165780601f10610aeb57610100808354040283529160200191610b16565b820191906000526020600020905b815481529060010190602001808311610af957829003601f168201915b5050505050905090565b6000610b2b8261231d565b5060009081526069602052604090205473ffffffffffffffffffffffffffffffffffffffff1690565b6000610b5f82611aeb565b90508073ffffffffffffffffffffffffffffffffffffffff168373ffffffffffffffffffffffffffffffffffffffff161415610c22576040517f08c379a000000000000000000000000000000000000000000000000000000000815260206004820152602160248201527f4552433732313a20617070726f76616c20746f2063757272656e74206f776e6560448201527f720000000000000000000000000000000000000000000000000000000000000060648201526084015b60405180910390fd5b3373ffffffffffffffffffffffffffffffffffffffff82161480610c4b5750610c4b813361219e565b610cd7576040517f08c379a000000000000000000000000000000000000000000000000000000000815260206004820152603e60248201527f4552433732313a20617070726f76652063616c6c6572206973206e6f7420746f60448201527f6b656e206f776e6572206e6f7220617070726f76656420666f7220616c6c00006064820152608401610c19565b610ce183836123a8565b505050565b6000610cf0612448565b610cf86124b5565b60005b8551811015610d5557610d44868281518110610d1957610d19614e47565b6020026020010151826101c4546001610d329190614ea5565b610d3c9190614ea5565b878787612537565b50610d4e81614ebd565b9050610cfb565b5084516101c46000828254610d6a9190614ea5565b9091555060019150505b949350505050565b6000610d878261231d565b5060009081526101c5602052604090205490565b6000610da68261231d565b5060009081526101c9602052604090205467ffffffffffffffff1690565b610dcc6124b5565b610dd4612448565b806101c45410610e40576040517f08c379a000000000000000000000000000000000000000000000000000000000815260206004820152601760248201527f4e65772049642068617320746f206265206869676865720000000000000000006044820152606401610c19565b6101c455565b610e4e6124b5565b60008181526101c96020908152604080832080547fffffffffffffffffffffffffffffffffffffffffffffffff00000000000000001690555191825282917f2ec2be2c4b90c2cf13ecb6751a24daed6bb741ae5ed3f7371aabf9402f6d62e8910160405180910390a250565b610ec5335b826125e5565b610f51576040517f08c379a000000000000000000000000000000000000000000000000000000000815260206004820152602e60248201527f4552433732313a2063616c6c6572206973206e6f7420746f6b656e206f776e6560448201527f72206e6f7220617070726f7665640000000000000000000000000000000000006064820152608401610c19565b610ce1838383612677565b6000806000610f6a85610d7c565b60008181526101c8602090815260409182902082518084019093525473ffffffffffffffffffffffffffffffffffffffff8116808452740100000000000000000000000000000000000000009091046bffffffffffffffffffffffff16918301919091529192509061102a5750604080518082019091526101c75473ffffffffffffffffffffffffffffffffffffffff811682527401000000000000000000000000000000000000000090046bffffffffffffffffffffffff1660208201525b60208101516000906127109061104e906bffffffffffffffffffffffff1688614ef6565b6110589190614f62565b91519791965090945050505050565b600061107283611c90565b8210611100576040517f08c379a000000000000000000000000000000000000000000000000000000000815260206004820152602b60248201527f455243373231456e756d657261626c653a206f776e657220696e646578206f7560448201527f74206f6620626f756e64730000000000000000000000000000000000000000006064820152608401610c19565b5073ffffffffffffffffffffffffffffffffffffffff919091166000908152609760209081526040808320938352929052205490565b3073ffffffffffffffffffffffffffffffffffffffff7f00000000000000000000000000000000000000000000000000000000000000001614156111fc576040517f08c379a000000000000000000000000000000000000000000000000000000000815260206004820152602c60248201527f46756e6374696f6e206d7573742062652063616c6c6564207468726f7567682060448201527f64656c656761746563616c6c00000000000000000000000000000000000000006064820152608401610c19565b7f000000000000000000000000000000000000000000000000000000000000000073ffffffffffffffffffffffffffffffffffffffff166112717f360894a13ba1a3210667c828492db98dca3e2076cc3735a920a3ca505d382bbc5473ffffffffffffffffffffffffffffffffffffffff1690565b73ffffffffffffffffffffffffffffffffffffffff1614611314576040517f08c379a000000000000000000000000000000000000000000000000000000000815260206004820152602c60248201527f46756e6374696f6e206d7573742062652063616c6c6564207468726f7567682060448201527f6163746976652070726f787900000000000000000000000000000000000000006064820152608401610c19565b61131d816128e9565b60408051600080825260208201909252611339918391906128f1565b50565b6113446124b5565b61134c612af0565b565b610ce183838360405180602001604052806000815250611e72565b61137233610ebf565b6113fe576040517f08c379a000000000000000000000000000000000000000000000000000000000815260206004820152602e60248201527f4552433732313a2063616c6c6572206973206e6f7420746f6b656e206f776e6560448201527f72206e6f7220617070726f7665640000000000000000000000000000000000006064820152608401610c19565b61133981612b6d565b61140f6124b5565b60008181526101c96020526040902054429067ffffffffffffffff80831691161015611497576040517f08c379a000000000000000000000000000000000000000000000000000000000815260206004820152601f60248201527f546f6b656e2063616e6e6f7420616c72656164792062652065787069726564006044820152606401610c19565b60008281526101c9602090815260409182902080547fffffffffffffffffffffffffffffffffffffffffffffffff00000000000000001667ffffffffffffffff8516908117909155915191825283917f2ec2be2c4b90c2cf13ecb6751a24daed6bb741ae5ed3f7371aabf9402f6d62e8910160405180910390a25050565b600054610100900460ff16158080156115355750600054600160ff909116105b8061154f5750303b15801561154f575060005460ff166001145b6115db576040517f08c379a000000000000000000000000000000000000000000000000000000000815260206004820152602e60248201527f496e697469616c697a61626c653a20636f6e747261637420697320616c72656160448201527f647920696e697469616c697a65640000000000000000000000000000000000006064820152608401610c19565b600080547fffffffffffffffffffffffffffffffffffffffffffffffffffffffffffffff00166001179055801561163957600080547fffffffffffffffffffffffffffffffffffffffffffffffffffffffffffff00ff166101001790555b6116438383612be9565b61164b612c8a565b611653612d21565b61165b612dc0565b611663612c8a565b61166b612c8a565b8015610ce157600080547fffffffffffffffffffffffffffffffffffffffffffffffffffffffffffff00ff169055604051600181527f7f26b83ff96e1f2b6a682f133852f6798a09c465da95921460cefb38474024989060200160405180910390a1505050565b3073ffffffffffffffffffffffffffffffffffffffff7f0000000000000000000000000000000000000000000000000000000000000000161415611798576040517f08c379a000000000000000000000000000000000000000000000000000000000815260206004820152602c60248201527f46756e6374696f6e206d7573742062652063616c6c6564207468726f7567682060448201527f64656c656761746563616c6c00000000000000000000000000000000000000006064820152608401610c19565b7f000000000000000000000000000000000000000000000000000000000000000073ffffffffffffffffffffffffffffffffffffffff1661180d7f360894a13ba1a3210667c828492db98dca3e2076cc3735a920a3ca505d382bbc5473ffffffffffffffffffffffffffffffffffffffff1690565b73ffffffffffffffffffffffffffffffffffffffff16146118b0576040517f08c379a000000000000000000000000000000000000000000000000000000000815260206004820152602c60248201527f46756e6374696f6e206d7573742062652063616c6c6564207468726f7567682060448201527f6163746976652070726f787900000000000000000000000000000000000000006064820152608401610c19565b6118b9826128e9565b6118c5828260016128f1565b5050565b60006118d460995490565b8210611962576040517f08c379a000000000000000000000000000000000000000000000000000000000815260206004820152602c60248201527f455243373231456e756d657261626c653a20676c6f62616c20696e646578206f60448201527f7574206f6620626f756e647300000000000000000000000000000000000000006064820152608401610c19565b6099828154811061197557611975614e47565b90600052602060002001549050919050565b61198f6124b5565b6119988161231d565b60008181526101c6602052604090205460ff16156119b9576119b981612e5f565b6113396119c582611aeb565b61012d5473ffffffffffffffffffffffffffffffffffffffff1683612677565b60003073ffffffffffffffffffffffffffffffffffffffff7f00000000000000000000000000000000000000000000000000000000000000001614611aac576040517f08c379a000000000000000000000000000000000000000000000000000000000815260206004820152603860248201527f555550535570677261646561626c653a206d757374206e6f742062652063616c60448201527f6c6564207468726f7567682064656c656761746563616c6c00000000000000006064820152608401610c19565b507f360894a13ba1a3210667c828492db98dca3e2076cc3735a920a3ca505d382bbc90565b611ad96124b5565b60009081526101c86020526040812055565b60008181526067602052604081205473ffffffffffffffffffffffffffffffffffffffff1680610a88576040517f08c379a000000000000000000000000000000000000000000000000000000000815260206004820152601860248201527f4552433732313a20696e76616c696420746f6b656e20494400000000000000006044820152606401610c19565b611b7f6124b5565b611b87612448565b6040517fa089479900000000000000000000000000000000000000000000000000000000815260048101829052309063a089479990602401602060405180830381865afa158015611bdc573d6000803e3d6000fd5b505050506040513d601f19601f82011682018060405250810190611c009190614f76565b611c66576040517f08c379a000000000000000000000000000000000000000000000000000000000815260206004820152601360248201527f546f6b656e206973206e6f742066726f7a656e000000000000000000000000006044820152606401610c19565b61133981612e5f565b600080611c7c8484611067565b9150611c8782610d7c565b90509250929050565b600073ffffffffffffffffffffffffffffffffffffffff8216611d35576040517f08c379a000000000000000000000000000000000000000000000000000000000815260206004820152602960248201527f4552433732313a2061646472657373207a65726f206973206e6f74206120766160448201527f6c6964206f776e657200000000000000000000000000000000000000000000006064820152608401610c19565b5073ffffffffffffffffffffffffffffffffffffffff1660009081526068602052604090205490565b611d666124b5565b61134c6000612ed1565b611d786124b5565b611d818261231d565b6118c58282612f49565b611d936124b5565b610ce1838383613007565b611da66124b5565b80516118c5906101c390602084019061464a565b611dc26124b5565b61134c613192565b6000611dd4612448565b611ddc6124b5565b60016101c46000828254611df09190614ea5565b92505081905550611e07856101c454868686612537565b95945050505050565b606060668054610a9d90614df3565b611e276124b5565b61134c60006101c755565b60606101c3611e40836131ed565b604051602001611e51929190615064565b6040516020818303038152906040529050919050565b6118c533838361331f565b611e7c33836125e5565b611f08576040517f08c379a000000000000000000000000000000000000000000000000000000000815260206004820152602e60248201527f4552433732313a2063616c6c6572206973206e6f7420746f6b656e206f776e6560448201527f72206e6f7220617070726f7665640000000000000000000000000000000000006064820152608401610c19565b611f148484848461344d565b50505050565b6000611f24612448565b611f2c6124b5565b60005b8451811015611f8957611f7886826101c4546001611f4d9190614ea5565b611f579190614ea5565b878481518110611f6957611f69614e47565b60200260200101518787612537565b50611f8281614ebd565b9050611f2f565b5083516101c46000828254610d6a9190614ea5565b60008181526101c560205260409020546060906101c3611fbd826131ed565b611fc6856131ed565b604051602001611fd893929190615089565b604051602081830303815290604052915050919050565b6000611ffa8261231d565b506001919050565b61200a6124b5565b6118c582826134f0565b61201c6124b5565b612024612448565b6040517fa0894799000000000000000000000000000000000000000000000000000000008152600481018290528190309063a089479990602401602060405180830381865afa15801561207b573d6000803e3d6000fd5b505050506040513d601f19601f8201168201806040525081019061209f9190614f76565b15612106576040517f08c379a000000000000000000000000000000000000000000000000000000000815260206004820152600f60248201527f546f6b656e2069732066726f7a656e00000000000000000000000000000000006044820152606401610c19565b6118c58261366a565b6101c3805461211d90614df3565b80601f016020809104026020016040519081016040528092919081815260200182805461214990614df3565b80156121965780601f1061216b57610100808354040283529160200191612196565b820191906000526020600020905b81548152906001019060200180831161217957829003601f168201915b505050505081565b600073ffffffffffffffffffffffffffffffffffffffff82166e6c3852cbef3e08e8df289169ede58114156121d557506001610a88565b73ffffffffffffffffffffffffffffffffffffffff8084166000908152606a602090815260408083209386168352929052205460ff165b9392505050565b61221b6124b5565b73ffffffffffffffffffffffffffffffffffffffff81166122be576040517f08c379a000000000000000000000000000000000000000000000000000000000815260206004820152602660248201527f4f776e61626c653a206e6577206f776e657220697320746865207a65726f206160448201527f64647265737300000000000000000000000000000000000000000000000000006064820152608401610c19565b61133981612ed1565b60007fffffffff0000000000000000000000000000000000000000000000000000000082167f780e9d63000000000000000000000000000000000000000000000000000000001480610a885750610a88826136d4565b60008181526067602052604090205473ffffffffffffffffffffffffffffffffffffffff16611339576040517f08c379a000000000000000000000000000000000000000000000000000000000815260206004820152601860248201527f4552433732313a20696e76616c696420746f6b656e20494400000000000000006044820152606401610c19565b600081815260696020526040902080547fffffffffffffffffffffffff00000000000000000000000000000000000000001673ffffffffffffffffffffffffffffffffffffffff8416908117909155819061240282611aeb565b73ffffffffffffffffffffffffffffffffffffffff167f8c5be1e5ebec7d5bd14f71427d1e84f3dd0314c0f7b2291e5b200ac8c7c3b92560405160405180910390a45050565b60fb5460ff161561134c576040517f08c379a000000000000000000000000000000000000000000000000000000000815260206004820152601060248201527f5061757361626c653a20706175736564000000000000000000000000000000006044820152606401610c19565b61012d5473ffffffffffffffffffffffffffffffffffffffff16331461134c576040517f08c379a000000000000000000000000000000000000000000000000000000000815260206004820181905260248201527f4f776e61626c653a2063616c6c6572206973206e6f7420746865206f776e65726044820152606401610c19565b600061254384866137b7565b60008581526101c56020526040908190208790555186907f259eb7b480b3d449f506927269e4665c83c69e4cd797143eaa8f84632dc7a02b906125a8908890889091825273ffffffffffffffffffffffffffffffffffffffff16602082015260400190565b60405180910390a282156125bf576125bf85612014565b67ffffffffffffffff8216156125d9576125d98583612f49565b50600195945050505050565b6000806125f183611aeb565b90508073ffffffffffffffffffffffffffffffffffffffff168473ffffffffffffffffffffffffffffffffffffffff1614806126325750612632818561219e565b80610d7457508373ffffffffffffffffffffffffffffffffffffffff1661265884610b20565b73ffffffffffffffffffffffffffffffffffffffff1614949350505050565b8273ffffffffffffffffffffffffffffffffffffffff1661269782611aeb565b73ffffffffffffffffffffffffffffffffffffffff161461273a576040517f08c379a000000000000000000000000000000000000000000000000000000000815260206004820152602560248201527f4552433732313a207472616e736665722066726f6d20696e636f72726563742060448201527f6f776e65720000000000000000000000000000000000000000000000000000006064820152608401610c19565b73ffffffffffffffffffffffffffffffffffffffff82166127dc576040517f08c379a0000000000000000000000000000000000000000000000000000000008152602060048201526024808201527f4552433732313a207472616e7366657220746f20746865207a65726f2061646460448201527f72657373000000000000000000000000000000000000000000000000000000006064820152608401610c19565b6127e78383836137d1565b6127f26000826123a8565b73ffffffffffffffffffffffffffffffffffffffff831660009081526068602052604081208054600192906128289084906150eb565b909155505073ffffffffffffffffffffffffffffffffffffffff82166000908152606860205260408120805460019290612863908490614ea5565b909155505060008181526067602052604080822080547fffffffffffffffffffffffff00000000000000000000000000000000000000001673ffffffffffffffffffffffffffffffffffffffff86811691821790925591518493918716917fddf252ad1be2c89b69c2b068fc378daa952ba7f163c4a11628f55a4df523b3ef91a4505050565b6113396124b5565b7f4910fdfa16fed3260ed0e7147f7cc6da11a60208b5b9406d12a635614ffd91435460ff161561292457610ce1836138c6565b8273ffffffffffffffffffffffffffffffffffffffff166352d1902d6040518163ffffffff1660e01b8152600401602060405180830381865afa9250505080156129a9575060408051601f3d9081017fffffffffffffffffffffffffffffffffffffffffffffffffffffffffffffffe01682019092526129a691810190615102565b60015b612a35576040517f08c379a000000000000000000000000000000000000000000000000000000000815260206004820152602e60248201527f45524331393637557067726164653a206e657720696d706c656d656e7461746960448201527f6f6e206973206e6f7420555550530000000000000000000000000000000000006064820152608401610c19565b7f360894a13ba1a3210667c828492db98dca3e2076cc3735a920a3ca505d382bbc8114612ae4576040517f08c379a000000000000000000000000000000000000000000000000000000000815260206004820152602960248201527f45524331393637557067726164653a20756e737570706f727465642070726f7860448201527f6961626c655555494400000000000000000000000000000000000000000000006064820152608401610c19565b50610ce18383836139d0565b612af86139f5565b60fb80547fffffffffffffffffffffffffffffffffffffffffffffffffffffffffffffff001690557f5db9ee0a495bf2e6ff9c91a7834c1ba4fdd244a5e8aa4e537bd38aeae4b073aa335b60405173ffffffffffffffffffffffffffffffffffffffff909116815260200160405180910390a1565b612b7681613a61565b60009081526101c5602090815260408083208390556101c6825280832080547fffffffffffffffffffffffffffffffffffffffffffffffffffffffffffffff001690556101c9909152902080547fffffffffffffffffffffffffffffffffffffffffffffffff0000000000000000169055565b600054610100900460ff16612c80576040517f08c379a000000000000000000000000000000000000000000000000000000000815260206004820152602b60248201527f496e697469616c697a61626c653a20636f6e7472616374206973206e6f74206960448201527f6e697469616c697a696e670000000000000000000000000000000000000000006064820152608401610c19565b6118c58282613b3a565b600054610100900460ff1661134c576040517f08c379a000000000000000000000000000000000000000000000000000000000815260206004820152602b60248201527f496e697469616c697a61626c653a20636f6e7472616374206973206e6f74206960448201527f6e697469616c697a696e670000000000000000000000000000000000000000006064820152608401610c19565b600054610100900460ff16612db8576040517f08c379a000000000000000000000000000000000000000000000000000000000815260206004820152602b60248201527f496e697469616c697a61626c653a20636f6e7472616374206973206e6f74206960448201527f6e697469616c697a696e670000000000000000000000000000000000000000006064820152608401610c19565b61134c613bf8565b600054610100900460ff16612e57576040517f08c379a000000000000000000000000000000000000000000000000000000000815260206004820152602b60248201527f496e697469616c697a61626c653a20636f6e7472616374206973206e6f74206960448201527f6e697469616c697a696e670000000000000000000000000000000000000000006064820152608401610c19565b61134c613cb9565b60008181526101c660205260409081902080547fffffffffffffffffffffffffffffffffffffffffffffffffffffffffffffff00169055517f083eea12772ab70fba01c8212d02f3bc5dc29b8540dcdc84298e5dfa22731b9290612ec69083815260200190565b60405180910390a150565b61012d805473ffffffffffffffffffffffffffffffffffffffff8381167fffffffffffffffffffffffff0000000000000000000000000000000000000000831681179093556040519116919082907f8be0079c531659141344cd1fd0a4f28419497f9722a3daafe3b4186f6b6457e090600090a35050565b60008281526101c9602052604081205467ffffffffffffffff169081612f7a57612f73834261511b565b9050612f87565b612f84838361511b565b90505b60008481526101c9602090815260409182902080547fffffffffffffffffffffffffffffffffffffffffffffffff00000000000000001667ffffffffffffffff8516908117909155915191825285917f2ec2be2c4b90c2cf13ecb6751a24daed6bb741ae5ed3f7371aabf9402f6d62e8910160405180910390a250505050565b6127106bffffffffffffffffffffffff821611156130a7576040517f08c379a000000000000000000000000000000000000000000000000000000000815260206004820152602a60248201527f455243323938313a20726f79616c7479206665652077696c6c2065786365656460448201527f2073616c655072696365000000000000000000000000000000000000000000006064820152608401610c19565b73ffffffffffffffffffffffffffffffffffffffff8216613124576040517f08c379a000000000000000000000000000000000000000000000000000000000815260206004820152601b60248201527f455243323938313a20496e76616c696420706172616d657465727300000000006044820152606401610c19565b60408051808201825273ffffffffffffffffffffffffffffffffffffffff93841681526bffffffffffffffffffffffff928316602080830191825260009687526101c89052919094209351905190911674010000000000000000000000000000000000000000029116179055565b61319a612448565b60fb80547fffffffffffffffffffffffffffffffffffffffffffffffffffffffffffffff001660011790557f62e78cea01bee320cd4e420270b5ea74000d11b0c9f74754ebdbfc544b05a258612b433390565b60608161322d57505060408051808201909152600181527f3000000000000000000000000000000000000000000000000000000000000000602082015290565b8160005b8115613257578061324181614ebd565b91506132509050600a83614f62565b9150613231565b60008167ffffffffffffffff81111561327257613272614823565b6040519080825280601f01601f19166020018201604052801561329c576020820181803683370190505b5090505b8415610d74576132b16001836150eb565b91506132be600a8661513e565b6132c9906030614ea5565b60f81b8183815181106132de576132de614e47565b60200101907effffffffffffffffffffffffffffffffffffffffffffffffffffffffffffff1916908160001a905350613318600a86614f62565b94506132a0565b8173ffffffffffffffffffffffffffffffffffffffff168373ffffffffffffffffffffffffffffffffffffffff1614156133b5576040517f08c379a000000000000000000000000000000000000000000000000000000000815260206004820152601960248201527f4552433732313a20617070726f766520746f2063616c6c6572000000000000006044820152606401610c19565b73ffffffffffffffffffffffffffffffffffffffff8381166000818152606a602090815260408083209487168084529482529182902080547fffffffffffffffffffffffffffffffffffffffffffffffffffffffffffffff001686151590811790915591519182527f17307eab39ab6107e8899845ad3d59bd9653f200f220920489ca2b5937696c31910160405180910390a3505050565b613458848484612677565b61346484848484613d59565b611f14576040517f08c379a000000000000000000000000000000000000000000000000000000000815260206004820152603260248201527f4552433732313a207472616e7366657220746f206e6f6e20455243373231526560448201527f63656976657220696d706c656d656e74657200000000000000000000000000006064820152608401610c19565b6127106bffffffffffffffffffffffff82161115613590576040517f08c379a000000000000000000000000000000000000000000000000000000000815260206004820152602a60248201527f455243323938313a20726f79616c7479206665652077696c6c2065786365656460448201527f2073616c655072696365000000000000000000000000000000000000000000006064820152608401610c19565b73ffffffffffffffffffffffffffffffffffffffff821661360d576040517f08c379a000000000000000000000000000000000000000000000000000000000815260206004820152601960248201527f455243323938313a20696e76616c6964207265636569766572000000000000006044820152606401610c19565b6040805180820190915273ffffffffffffffffffffffffffffffffffffffff9092168083526bffffffffffffffffffffffff909116602090920182905274010000000000000000000000000000000000000000909102176101c755565b60008181526101c660205260409081902080547fffffffffffffffffffffffffffffffffffffffffffffffffffffffffffffff00166001179055517f4d69b51fee53c28bd8b61fe008151577ca65160b5248f6225e74d64fd4cf732890612ec69083815260200190565b60007fffffffff0000000000000000000000000000000000000000000000000000000082167f80ac58cd00000000000000000000000000000000000000000000000000000000148061376757507fffffffff0000000000000000000000000000000000000000000000000000000082167f5b5e139f00000000000000000000000000000000000000000000000000000000145b80610a8857507f01ffc9a7000000000000000000000000000000000000000000000000000000007fffffffff00000000000000000000000000000000000000000000000000000000831614610a88565b6118c5828260405180602001604052806000815250613f46565b6137d9612448565b6040517fa0894799000000000000000000000000000000000000000000000000000000008152600481018290528190309063a089479990602401602060405180830381865afa158015613830573d6000803e3d6000fd5b505050506040513d601f19601f820116820180604052508101906138549190614f76565b156138bb576040517f08c379a000000000000000000000000000000000000000000000000000000000815260206004820152600f60248201527f546f6b656e2069732066726f7a656e00000000000000000000000000000000006044820152606401610c19565b611f14848484613fe9565b73ffffffffffffffffffffffffffffffffffffffff81163b61396a576040517f08c379a000000000000000000000000000000000000000000000000000000000815260206004820152602d60248201527f455243313936373a206e657720696d706c656d656e746174696f6e206973206e60448201527f6f74206120636f6e7472616374000000000000000000000000000000000000006064820152608401610c19565b7f360894a13ba1a3210667c828492db98dca3e2076cc3735a920a3ca505d382bbc80547fffffffffffffffffffffffff00000000000000000000000000000000000000001673ffffffffffffffffffffffffffffffffffffffff92909216919091179055565b6139d9836140ef565b6000825111806139e65750805b15610ce157611f14838361413c565b60fb5460ff1661134c576040517f08c379a000000000000000000000000000000000000000000000000000000000815260206004820152601460248201527f5061757361626c653a206e6f74207061757365640000000000000000000000006044820152606401610c19565b6000613a6c82611aeb565b9050613a7a816000846137d1565b613a856000836123a8565b73ffffffffffffffffffffffffffffffffffffffff81166000908152606860205260408120805460019290613abb9084906150eb565b909155505060008281526067602052604080822080547fffffffffffffffffffffffff00000000000000000000000000000000000000001690555183919073ffffffffffffffffffffffffffffffffffffffff8416907fddf252ad1be2c89b69c2b068fc378daa952ba7f163c4a11628f55a4df523b3ef908390a45050565b600054610100900460ff16613bd1576040517f08c379a000000000000000000000000000000000000000000000000000000000815260206004820152602b60248201527f496e697469616c697a61626c653a20636f6e7472616374206973206e6f74206960448201527f6e697469616c697a696e670000000000000000000000000000000000000000006064820152608401610c19565b8151613be490606590602085019061464a565b508051610ce190606690602084019061464a565b600054610100900460ff16613c8f576040517f08c379a000000000000000000000000000000000000000000000000000000000815260206004820152602b60248201527f496e697469616c697a61626c653a20636f6e7472616374206973206e6f74206960448201527f6e697469616c697a696e670000000000000000000000000000000000000000006064820152608401610c19565b60fb80547fffffffffffffffffffffffffffffffffffffffffffffffffffffffffffffff00169055565b600054610100900460ff16613d50576040517f08c379a000000000000000000000000000000000000000000000000000000000815260206004820152602b60248201527f496e697469616c697a61626c653a20636f6e7472616374206973206e6f74206960448201527f6e697469616c697a696e670000000000000000000000000000000000000000006064820152608401610c19565b61134c33612ed1565b600073ffffffffffffffffffffffffffffffffffffffff84163b15613f3e576040517f150b7a0200000000000000000000000000000000000000000000000000000000815273ffffffffffffffffffffffffffffffffffffffff85169063150b7a0290613dd0903390899088908890600401615152565b6020604051808303816000875af1925050508015613e29575060408051601f3d9081017fffffffffffffffffffffffffffffffffffffffffffffffffffffffffffffffe0168201909252613e269181019061519b565b60015b613ef3573d808015613e57576040519150601f19603f3d011682016040523d82523d6000602084013e613e5c565b606091505b508051613eeb576040517f08c379a000000000000000000000000000000000000000000000000000000000815260206004820152603260248201527f4552433732313a207472616e7366657220746f206e6f6e20455243373231526560448201527f63656976657220696d706c656d656e74657200000000000000000000000000006064820152608401610c19565b805181602001fd5b7fffffffff00000000000000000000000000000000000000000000000000000000167f150b7a0200000000000000000000000000000000000000000000000000000000149050610d74565b506001610d74565b613f508383614272565b613f5d6000848484613d59565b610ce1576040517f08c379a000000000000000000000000000000000000000000000000000000000815260206004820152603260248201527f4552433732313a207472616e7366657220746f206e6f6e20455243373231526560448201527f63656976657220696d706c656d656e74657200000000000000000000000000006064820152608401610c19565b73ffffffffffffffffffffffffffffffffffffffff83166140515761404c81609980546000838152609a60205260408120829055600182018355919091527f72a152ddfb8e864297c917af52ea6c1c68aead0fee1a62673fcc7e0c94979d000155565b61408e565b8173ffffffffffffffffffffffffffffffffffffffff168373ffffffffffffffffffffffffffffffffffffffff161461408e5761408e8382614440565b73ffffffffffffffffffffffffffffffffffffffff82166140b257610ce1816144f7565b8273ffffffffffffffffffffffffffffffffffffffff168273ffffffffffffffffffffffffffffffffffffffff1614610ce157610ce182826145a6565b6140f8816138c6565b60405173ffffffffffffffffffffffffffffffffffffffff8216907fbc7cd75a20ee27fd9adebab32041f755214dbc6bffa90cc0225b39da2e5c2d3b90600090a250565b606073ffffffffffffffffffffffffffffffffffffffff83163b6141e2576040517f08c379a000000000000000000000000000000000000000000000000000000000815260206004820152602660248201527f416464726573733a2064656c65676174652063616c6c20746f206e6f6e2d636f60448201527f6e747261637400000000000000000000000000000000000000000000000000006064820152608401610c19565b6000808473ffffffffffffffffffffffffffffffffffffffff168460405161420a91906151b8565b600060405180830381855af49150503d8060008114614245576040519150601f19603f3d011682016040523d82523d6000602084013e61424a565b606091505b5091509150611e078282604051806060016040528060278152602001615204602791396145f7565b73ffffffffffffffffffffffffffffffffffffffff82166142ef576040517f08c379a000000000000000000000000000000000000000000000000000000000815260206004820181905260248201527f4552433732313a206d696e7420746f20746865207a65726f20616464726573736044820152606401610c19565b60008181526067602052604090205473ffffffffffffffffffffffffffffffffffffffff161561437b576040517f08c379a000000000000000000000000000000000000000000000000000000000815260206004820152601c60248201527f4552433732313a20746f6b656e20616c7265616479206d696e746564000000006044820152606401610c19565b614387600083836137d1565b73ffffffffffffffffffffffffffffffffffffffff821660009081526068602052604081208054600192906143bd908490614ea5565b909155505060008181526067602052604080822080547fffffffffffffffffffffffff00000000000000000000000000000000000000001673ffffffffffffffffffffffffffffffffffffffff861690811790915590518392907fddf252ad1be2c89b69c2b068fc378daa952ba7f163c4a11628f55a4df523b3ef908290a45050565b6000600161444d84611c90565b61445791906150eb565b6000838152609860205260409020549091508082146144b75773ffffffffffffffffffffffffffffffffffffffff841660009081526097602090815260408083208584528252808320548484528184208190558352609890915290208190555b50600091825260986020908152604080842084905573ffffffffffffffffffffffffffffffffffffffff9094168352609781528383209183525290812055565b609954600090614509906001906150eb565b6000838152609a60205260408120546099805493945090928490811061453157614531614e47565b90600052602060002001549050806099838154811061455257614552614e47565b6000918252602080832090910192909255828152609a9091526040808220849055858252812055609980548061458a5761458a6151d4565b6001900381819060005260206000200160009055905550505050565b60006145b183611c90565b73ffffffffffffffffffffffffffffffffffffffff9093166000908152609760209081526040808320868452825280832085905593825260989052919091209190915550565b6060831561460657508161220c565b8251156146165782518084602001fd5b816040517f08c379a0000000000000000000000000000000000000000000000000000000008152600401610c1991906147a4565b82805461465690614df3565b90600052602060002090601f01602090048101928261467857600085556146be565b82601f1061469157805160ff19168380011785556146be565b828001600101855582156146be579182015b828111156146be5782518255916020019190600101906146a3565b506146ca9291506146ce565b5090565b5b808211156146ca57600081556001016146cf565b7fffffffff000000000000000000000000000000000000000000000000000000008116811461133957600080fd5b60006020828403121561472357600080fd5b813561220c816146e3565b60005b83811015614749578181015183820152602001614731565b83811115611f145750506000910152565b6000815180845261477281602086016020860161472e565b601f017fffffffffffffffffffffffffffffffffffffffffffffffffffffffffffffffe0169290920160200192915050565b60208152600061220c602083018461475a565b6000602082840312156147c957600080fd5b5035919050565b803573ffffffffffffffffffffffffffffffffffffffff811681146147f457600080fd5b919050565b6000806040838503121561480c57600080fd5b614815836147d0565b946020939093013593505050565b7f4e487b7100000000000000000000000000000000000000000000000000000000600052604160045260246000fd5b604051601f82017fffffffffffffffffffffffffffffffffffffffffffffffffffffffffffffffe016810167ffffffffffffffff8111828210171561489957614899614823565b604052919050565b600067ffffffffffffffff8211156148bb576148bb614823565b5060051b60200190565b801515811461133957600080fd5b80356147f4816148c5565b803567ffffffffffffffff811681146147f457600080fd5b6000806000806080858703121561490c57600080fd5b843567ffffffffffffffff81111561492357600080fd5b8501601f8101871361493457600080fd5b80356020614949614944836148a1565b614852565b82815260059290921b8301810191818101908a84111561496857600080fd5b938201935b838510156149865784358252938201939082019061496d565b975061499590508882016147d0565b95505050506149a6604086016148d3565b91506149b4606086016148de565b905092959194509250565b6000806000606084860312156149d457600080fd5b6149dd846147d0565b92506149eb602085016147d0565b9150604084013590509250925092565b60008060408385031215614a0e57600080fd5b50508035926020909101359150565b600060208284031215614a2f57600080fd5b61220c826147d0565b600082601f830112614a4957600080fd5b813567ffffffffffffffff811115614a6357614a63614823565b614a9460207fffffffffffffffffffffffffffffffffffffffffffffffffffffffffffffffe0601f84011601614852565b818152846020838601011115614aa957600080fd5b816020850160208301376000918101602001919091529392505050565b60008060408385031215614ad957600080fd5b823567ffffffffffffffff80821115614af157600080fd5b614afd86838701614a38565b93506020850135915080821115614b1357600080fd5b50614b2085828601614a38565b9150509250929050565b60008060408385031215614b3d57600080fd5b614b46836147d0565b9150602083013567ffffffffffffffff811115614b6257600080fd5b614b2085828601614a38565b60008060408385031215614b8157600080fd5b82359150611c87602084016148de565b80356bffffffffffffffffffffffff811681146147f457600080fd5b600080600060608486031215614bc257600080fd5b83359250614bd2602085016147d0565b9150614be060408501614b91565b90509250925092565b600060208284031215614bfb57600080fd5b813567ffffffffffffffff811115614c1257600080fd5b610d7484828501614a38565b60008060008060808587031215614c3457600080fd5b84359350614c44602086016147d0565b925060408501356149a6816148c5565b60008060408385031215614c6757600080fd5b614c70836147d0565b91506020830135614c80816148c5565b809150509250929050565b60008060008060808587031215614ca157600080fd5b614caa856147d0565b9350614cb8602086016147d0565b925060408501359150606085013567ffffffffffffffff811115614cdb57600080fd5b614ce787828801614a38565b91505092959194509250565b60008060008060808587031215614d0957600080fd5b8435935060208086013567ffffffffffffffff811115614d2857600080fd5b8601601f81018813614d3957600080fd5b8035614d47614944826148a1565b81815260059190911b8201830190838101908a831115614d6657600080fd5b928401925b82841015614d8b57614d7c846147d0565b82529284019290840190614d6b565b80975050505050506149a6604086016148d3565b60008060408385031215614db257600080fd5b614dbb836147d0565b9150611c8760208401614b91565b60008060408385031215614ddc57600080fd5b614de5836147d0565b9150611c87602084016147d0565b600181811c90821680614e0757607f821691505b60208210811415614e41577f4e487b7100000000000000000000000000000000000000000000000000000000600052602260045260246000fd5b50919050565b7f4e487b7100000000000000000000000000000000000000000000000000000000600052603260045260246000fd5b7f4e487b7100000000000000000000000000000000000000000000000000000000600052601160045260246000fd5b60008219821115614eb857614eb8614e76565b500190565b60007fffffffffffffffffffffffffffffffffffffffffffffffffffffffffffffffff821415614eef57614eef614e76565b5060010190565b6000817fffffffffffffffffffffffffffffffffffffffffffffffffffffffffffffffff0483118215151615614f2e57614f2e614e76565b500290565b7f4e487b7100000000000000000000000000000000000000000000000000000000600052601260045260246000fd5b600082614f7157614f71614f33565b500490565b600060208284031215614f8857600080fd5b815161220c816148c5565b8054600090600181811c9080831680614fad57607f831692505b6020808410821415614fe8577f4e487b7100000000000000000000000000000000000000000000000000000000600052602260045260246000fd5b818015614ffc576001811461502b57615058565b7fffffffffffffffffffffffffffffffffffffffffffffffffffffffffffffff00861689528489019650615058565b60008881526020902060005b868110156150505781548b820152908501908301615037565b505084890196505b50505050505092915050565b60006150708285614f93565b835161508081836020880161472e565b01949350505050565b60006150958286614f93565b84516150a581836020890161472e565b7f2f00000000000000000000000000000000000000000000000000000000000000910190815283516150de81600184016020880161472e565b0160010195945050505050565b6000828210156150fd576150fd614e76565b500390565b60006020828403121561511457600080fd5b5051919050565b600067ffffffffffffffff80831681851680830382111561508057615080614e76565b60008261514d5761514d614f33565b500690565b600073ffffffffffffffffffffffffffffffffffffffff808716835280861660208401525083604083015260806060830152615191608083018461475a565b9695505050505050565b6000602082840312156151ad57600080fd5b815161220c816146e3565b600082516151ca81846020870161472e565b9190910192915050565b7f4e487b7100000000000000000000000000000000000000000000000000000000600052603160045260246000fdfe416464726573733a206c6f772d6c6576656c2064656c65676174652063616c6c206661696c6564a264697066735822122078e8fc9e00946e68c15f630e632ed6ff464c4806006071b3e97836a25ed637ba64736f6c634300080c0033",
  "linkReferences": {},
  "deployedLinkReferences": {}
}