{
  "_format": "hh-sol-artifact-1",
  "contractName": "OctiToken",
  "sourceName": "contracts/Token.sol",
  "abi": [
    {
      "inputs": [
        {
          "internalType": "address",
          "name": "royaltyAddress",
          "type": "address"
        },
        {
          "internalType": "string",
          "name": "_newContractURI",
          "type": "string"
        }
      ],
      "stateMutability": "nonpayable",
      "type": "constructor"
    },
    {
      "anonymous": false,
      "inputs": [
        {
          "indexed": true,
          "internalType": "address",
          "name": "owner",
          "type": "address"
        },
        {
          "indexed": true,
          "internalType": "address",
          "name": "approved",
          "type": "address"
        },
        {
          "indexed": true,
          "internalType": "uint256",
          "name": "tokenId",
          "type": "uint256"
        }
      ],
      "name": "Approval",
      "type": "event"
    },
    {
      "anonymous": false,
      "inputs": [
        {
          "indexed": true,
          "internalType": "address",
          "name": "owner",
          "type": "address"
        },
        {
          "indexed": true,
          "internalType": "address",
          "name": "operator",
          "type": "address"
        },
        {
          "indexed": false,
          "internalType": "bool",
          "name": "approved",
          "type": "bool"
        }
      ],
      "name": "ApprovalForAll",
      "type": "event"
    },
    {
      "anonymous": false,
      "inputs": [
        {
          "indexed": true,
          "internalType": "address",
          "name": "previousOwner",
          "type": "address"
        },
        {
          "indexed": true,
          "internalType": "address",
          "name": "newOwner",
          "type": "address"
        }
      ],
      "name": "OwnershipTransferred",
      "type": "event"
    },
    {
      "anonymous": false,
      "inputs": [
        {
          "indexed": false,
          "internalType": "address",
          "name": "account",
          "type": "address"
        }
      ],
      "name": "Paused",
      "type": "event"
    },
    {
      "anonymous": false,
      "inputs": [
        {
          "indexed": true,
          "internalType": "address",
          "name": "from",
          "type": "address"
        },
        {
          "indexed": true,
          "internalType": "address",
          "name": "to",
          "type": "address"
        },
        {
          "indexed": true,
          "internalType": "uint256",
          "name": "tokenId",
          "type": "uint256"
        }
      ],
      "name": "Transfer",
      "type": "event"
    },
    {
      "anonymous": false,
      "inputs": [
        {
          "indexed": false,
          "internalType": "address",
          "name": "account",
          "type": "address"
        }
      ],
      "name": "Unpaused",
      "type": "event"
    },
    {
      "inputs": [
        {
          "internalType": "address",
          "name": "to",
          "type": "address"
        },
        {
          "internalType": "uint256",
          "name": "tokenId",
          "type": "uint256"
        }
      ],
      "name": "approve",
      "outputs": [],
      "stateMutability": "nonpayable",
      "type": "function"
    },
    {
      "inputs": [
        {
          "internalType": "address",
          "name": "owner",
          "type": "address"
        }
      ],
      "name": "balanceOf",
      "outputs": [
        {
          "internalType": "uint256",
          "name": "",
          "type": "uint256"
        }
      ],
      "stateMutability": "view",
      "type": "function"
    },
    {
      "inputs": [
        {
          "internalType": "uint256",
          "name": "tokenId",
          "type": "uint256"
        }
      ],
      "name": "burn",
      "outputs": [],
      "stateMutability": "nonpayable",
      "type": "function"
    },
    {
      "inputs": [
        {
          "internalType": "uint256",
          "name": "tokenId",
          "type": "uint256"
        }
      ],
      "name": "getApproved",
      "outputs": [
        {
          "internalType": "address",
          "name": "",
          "type": "address"
        }
      ],
      "stateMutability": "view",
      "type": "function"
    },
    {
      "inputs": [
        {
          "internalType": "address",
          "name": "_owner",
          "type": "address"
        },
        {
          "internalType": "address",
          "name": "_operator",
          "type": "address"
        }
      ],
      "name": "isApprovedForAll",
      "outputs": [
        {
          "internalType": "bool",
          "name": "isOperator",
          "type": "bool"
        }
      ],
      "stateMutability": "view",
      "type": "function"
    },
    {
      "inputs": [
        {
          "internalType": "address",
          "name": "to",
          "type": "address"
        },
        {
          "internalType": "uint256",
          "name": "tokenId",
          "type": "uint256"
        },
        {
          "internalType": "address",
          "name": "receiver",
          "type": "address"
        },
        {
          "internalType": "uint96",
          "name": "feeNumerator",
          "type": "uint96"
        }
      ],
      "name": "mintNFTWithRoyalty",
      "outputs": [],
      "stateMutability": "nonpayable",
      "type": "function"
    },
    {
      "inputs": [],
      "name": "name",
      "outputs": [
        {
          "internalType": "string",
          "name": "",
          "type": "string"
        }
      ],
      "stateMutability": "view",
      "type": "function"
    },
    {
      "inputs": [],
      "name": "owner",
      "outputs": [
        {
          "internalType": "address",
          "name": "",
          "type": "address"
        }
      ],
      "stateMutability": "view",
      "type": "function"
    },
    {
      "inputs": [
        {
          "internalType": "uint256",
          "name": "tokenId",
          "type": "uint256"
        }
      ],
      "name": "ownerOf",
      "outputs": [
        {
          "internalType": "address",
          "name": "",
          "type": "address"
        }
      ],
      "stateMutability": "view",
      "type": "function"
    },
    {
      "inputs": [],
      "name": "pause",
      "outputs": [],
      "stateMutability": "nonpayable",
      "type": "function"
    },
    {
      "inputs": [],
      "name": "paused",
      "outputs": [
        {
          "internalType": "bool",
          "name": "",
          "type": "bool"
        }
      ],
      "stateMutability": "view",
      "type": "function"
    },
    {
      "inputs": [],
      "name": "removeDefaultRoyalty",
      "outputs": [],
      "stateMutability": "nonpayable",
      "type": "function"
    },
    {
      "inputs": [
        {
          "internalType": "uint256",
          "name": "tokenId",
          "type": "uint256"
        }
      ],
      "name": "removeTokenRoyalty",
      "outputs": [],
      "stateMutability": "nonpayable",
      "type": "function"
    },
    {
      "inputs": [],
      "name": "renounceOwnership",
      "outputs": [],
      "stateMutability": "nonpayable",
      "type": "function"
    },
    {
      "inputs": [
        {
          "internalType": "uint256",
          "name": "_tokenId",
          "type": "uint256"
        },
        {
          "internalType": "uint256",
          "name": "_salePrice",
          "type": "uint256"
        }
      ],
      "name": "royaltyInfo",
      "outputs": [
        {
          "internalType": "address",
          "name": "",
          "type": "address"
        },
        {
          "internalType": "uint256",
          "name": "",
          "type": "uint256"
        }
      ],
      "stateMutability": "view",
      "type": "function"
    },
    {
      "inputs": [
        {
          "internalType": "address",
          "name": "to",
          "type": "address"
        },
        {
          "internalType": "uint256",
          "name": "tokenId",
          "type": "uint256"
        }
      ],
      "name": "safeMint",
      "outputs": [],
      "stateMutability": "nonpayable",
      "type": "function"
    },
    {
      "inputs": [
        {
          "internalType": "address",
          "name": "from",
          "type": "address"
        },
        {
          "internalType": "address",
          "name": "to",
          "type": "address"
        },
        {
          "internalType": "uint256",
          "name": "tokenId",
          "type": "uint256"
        }
      ],
      "name": "safeTransferFrom",
      "outputs": [],
      "stateMutability": "nonpayable",
      "type": "function"
    },
    {
      "inputs": [
        {
          "internalType": "address",
          "name": "from",
          "type": "address"
        },
        {
          "internalType": "address",
          "name": "to",
          "type": "address"
        },
        {
          "internalType": "uint256",
          "name": "tokenId",
          "type": "uint256"
        },
        {
          "internalType": "bytes",
          "name": "data",
          "type": "bytes"
        }
      ],
      "name": "safeTransferFrom",
      "outputs": [],
      "stateMutability": "nonpayable",
      "type": "function"
    },
    {
      "inputs": [
        {
          "internalType": "address",
          "name": "operator",
          "type": "address"
        },
        {
          "internalType": "bool",
          "name": "approved",
          "type": "bool"
        }
      ],
      "name": "setApprovalForAll",
      "outputs": [],
      "stateMutability": "nonpayable",
      "type": "function"
    },
    {
      "inputs": [
        {
          "internalType": "bytes4",
          "name": "interfaceId",
          "type": "bytes4"
        }
      ],
      "name": "supportsInterface",
      "outputs": [
        {
          "internalType": "bool",
          "name": "",
          "type": "bool"
        }
      ],
      "stateMutability": "view",
      "type": "function"
    },
    {
      "inputs": [],
      "name": "symbol",
      "outputs": [
        {
          "internalType": "string",
          "name": "",
          "type": "string"
        }
      ],
      "stateMutability": "view",
      "type": "function"
    },
    {
      "inputs": [
        {
          "internalType": "uint256",
          "name": "index",
          "type": "uint256"
        }
      ],
      "name": "tokenByIndex",
      "outputs": [
        {
          "internalType": "uint256",
          "name": "",
          "type": "uint256"
        }
      ],
      "stateMutability": "view",
      "type": "function"
    },
    {
      "inputs": [
        {
          "internalType": "address",
          "name": "owner",
          "type": "address"
        },
        {
          "internalType": "uint256",
          "name": "index",
          "type": "uint256"
        }
      ],
      "name": "tokenOfOwnerByIndex",
      "outputs": [
        {
          "internalType": "uint256",
          "name": "",
          "type": "uint256"
        }
      ],
      "stateMutability": "view",
      "type": "function"
    },
    {
      "inputs": [
        {
          "internalType": "uint256",
          "name": "tokenId",
          "type": "uint256"
        }
      ],
      "name": "tokenURI",
      "outputs": [
        {
          "internalType": "string",
          "name": "",
          "type": "string"
        }
      ],
      "stateMutability": "view",
      "type": "function"
    },
    {
      "inputs": [],
      "name": "totalSupply",
      "outputs": [
        {
          "internalType": "uint256",
          "name": "",
          "type": "uint256"
        }
      ],
      "stateMutability": "view",
      "type": "function"
    },
    {
      "inputs": [
        {
          "internalType": "address",
          "name": "from",
          "type": "address"
        },
        {
          "internalType": "address",
          "name": "to",
          "type": "address"
        },
        {
          "internalType": "uint256",
          "name": "tokenId",
          "type": "uint256"
        }
      ],
      "name": "transferFrom",
      "outputs": [],
      "stateMutability": "nonpayable",
      "type": "function"
    },
    {
      "inputs": [
        {
          "internalType": "address",
          "name": "newOwner",
          "type": "address"
        }
      ],
      "name": "transferOwnership",
      "outputs": [],
      "stateMutability": "nonpayable",
      "type": "function"
    },
    {
      "inputs": [],
      "name": "unpause",
      "outputs": [],
      "stateMutability": "nonpayable",
      "type": "function"
    },
    {
      "inputs": [
        {
          "internalType": "string",
          "name": "_newContractURI",
          "type": "string"
        }
      ],
      "name": "updateBaseURI",
      "outputs": [],
      "stateMutability": "nonpayable",
      "type": "function"
    },
    {
      "inputs": [
        {
          "internalType": "address",
          "name": "receiver",
          "type": "address"
        },
        {
          "internalType": "uint96",
          "name": "feeNumerator",
          "type": "uint96"
        }
      ],
      "name": "updateDefaultRoyalty",
      "outputs": [],
      "stateMutability": "nonpayable",
      "type": "function"
    },
    {
      "inputs": [
        {
          "internalType": "uint256",
          "name": "tokenId",
          "type": "uint256"
        },
        {
          "internalType": "address",
          "name": "receiver",
          "type": "address"
        },
        {
          "internalType": "uint96",
          "name": "feeNumerator",
          "type": "uint96"
        }
      ],
      "name": "updateTokenRoyalty",
      "outputs": [],
      "stateMutability": "nonpayable",
      "type": "function"
    }
  ],
  "bytecode": "0x60806040526040518060600160405280602b815260200162004dd8602b9139600e9080519060200190620000359291906200056d565b503480156200004357600080fd5b5060405162004e0338038062004e0383398181016040528101906200006991906200081f565b6040518060400160405280600b81526020017f556c74726176696f6c65740000000000000000000000000000000000000000008152506040518060400160405280600481526020017f4f435449000000000000000000000000000000000000000000000000000000008152508160009080519060200190620000ed9291906200056d565b508060019080519060200190620001069291906200056d565b5050506000600c60006101000a81548160ff0219169083151502179055506200014462000138620001e460201b60201c565b620001ec60201b60201c565b600073ffffffffffffffffffffffffffffffffffffffff168273ffffffffffffffffffffffffffffffffffffffff161415620001b7576040517f08c379a0000000000000000000000000000000000000000000000000000000008152600401620001ae906200090c565b60405180910390fd5b620001cb826103e8620002b260201b60201c565b620001dc81620002d860201b60201c565b505062000b0f565b600033905090565b6000600c60019054906101000a900473ffffffffffffffffffffffffffffffffffffffff16905081600c60016101000a81548173ffffffffffffffffffffffffffffffffffffffff021916908373ffffffffffffffffffffffffffffffffffffffff1602179055508173ffffffffffffffffffffffffffffffffffffffff168173ffffffffffffffffffffffffffffffffffffffff167f8be0079c531659141344cd1fd0a4f28419497f9722a3daafe3b4186f6b6457e060405160405180910390a35050565b620002c26200030460201b60201c565b620002d482826200039560201b60201c565b5050565b620002e86200030460201b60201c565b80600d9080519060200190620003009291906200056d565b5050565b62000314620001e460201b60201c565b73ffffffffffffffffffffffffffffffffffffffff166200033a6200053960201b60201c565b73ffffffffffffffffffffffffffffffffffffffff161462000393576040517f08c379a00000000000000000000000000000000000000000000000000000000081526004016200038a906200097e565b60405180910390fd5b565b620003a56200056360201b60201c565b6bffffffffffffffffffffffff16816bffffffffffffffffffffffff16111562000406576040517f08c379a0000000000000000000000000000000000000000000000000000000008152600401620003fd9062000a16565b60405180910390fd5b600073ffffffffffffffffffffffffffffffffffffffff168273ffffffffffffffffffffffffffffffffffffffff16141562000479576040517f08c379a0000000000000000000000000000000000000000000000000000000008152600401620004709062000a88565b60405180910390fd5b60405180604001604052808373ffffffffffffffffffffffffffffffffffffffff168152602001826bffffffffffffffffffffffff16815250600660008201518160000160006101000a81548173ffffffffffffffffffffffffffffffffffffffff021916908373ffffffffffffffffffffffffffffffffffffffff16021790555060208201518160000160146101000a8154816bffffffffffffffffffffffff02191690836bffffffffffffffffffffffff1602179055509050505050565b6000600c60019054906101000a900473ffffffffffffffffffffffffffffffffffffffff16905090565b6000612710905090565b8280546200057b9062000ad9565b90600052602060002090601f0160209004810192826200059f5760008555620005eb565b82601f10620005ba57805160ff1916838001178555620005eb565b82800160010185558215620005eb579182015b82811115620005ea578251825591602001919060010190620005cd565b5b509050620005fa9190620005fe565b5090565b5b8082111562000619576000816000905550600101620005ff565b5090565b6000604051905090565b600080fd5b600080fd5b600073ffffffffffffffffffffffffffffffffffffffff82169050919050565b60006200065e8262000631565b9050919050565b620006708162000651565b81146200067c57600080fd5b50565b600081519050620006908162000665565b92915050565b600080fd5b600080fd5b6000601f19601f8301169050919050565b7f4e487b7100000000000000000000000000000000000000000000000000000000600052604160045260246000fd5b620006eb82620006a0565b810181811067ffffffffffffffff821117156200070d576200070c620006b1565b5b80604052505050565b6000620007226200061d565b9050620007308282620006e0565b919050565b600067ffffffffffffffff821115620007535762000752620006b1565b5b6200075e82620006a0565b9050602081019050919050565b60005b838110156200078b5780820151818401526020810190506200076e565b838111156200079b576000848401525b50505050565b6000620007b8620007b28462000735565b62000716565b905082815260208101848484011115620007d757620007d66200069b565b5b620007e48482856200076b565b509392505050565b600082601f83011262000804576200080362000696565b5b815162000816848260208601620007a1565b91505092915050565b6000806040838503121562000839576200083862000627565b5b600062000849858286016200067f565b925050602083015167ffffffffffffffff8111156200086d576200086c6200062c565b5b6200087b85828601620007ec565b9150509250929050565b600082825260208201905092915050565b7f526f79616c746965733a206e657720726563697069656e74206973207468652060008201527f7a65726f20616464726573730000000000000000000000000000000000000000602082015250565b6000620008f4602c8362000885565b9150620009018262000896565b604082019050919050565b600060208201905081810360008301526200092781620008e5565b9050919050565b7f4f776e61626c653a2063616c6c6572206973206e6f7420746865206f776e6572600082015250565b60006200096660208362000885565b915062000973826200092e565b602082019050919050565b60006020820190508181036000830152620009998162000957565b9050919050565b7f455243323938313a20726f79616c7479206665652077696c6c2065786365656460008201527f2073616c65507269636500000000000000000000000000000000000000000000602082015250565b6000620009fe602a8362000885565b915062000a0b82620009a0565b604082019050919050565b6000602082019050818103600083015262000a3181620009ef565b9050919050565b7f455243323938313a20696e76616c696420726563656976657200000000000000600082015250565b600062000a7060198362000885565b915062000a7d8262000a38565b602082019050919050565b6000602082019050818103600083015262000aa38162000a61565b9050919050565b7f4e487b7100000000000000000000000000000000000000000000000000000000600052602260045260246000fd5b6000600282049050600182168062000af257607f821691505b6020821081141562000b095762000b0862000aaa565b5b50919050565b6142b98062000b1f6000396000f3fe608060405234801561001057600080fd5b50600436106101e55760003560e01c806370a082311161010f57806397ec4fba116100a2578063c87b56dd11610071578063c87b56dd1461052d578063d691e43c1461055d578063e985e9c514610579578063f2fde38b146105a9576101e5565b806397ec4fba146104cf578063a1448194146104d9578063a22cb465146104f5578063b88d4fde14610511576101e5565b806386e228d5116100de57806386e228d51461045b5780638da5cb5b14610477578063931688cb1461049557806395d89b41146104b1576101e5565b806370a08231146103fb578063715018a61461042b578063745ec150146104355780638456cb5914610451576101e5565b80632a55205a1161018757806342966c681161015657806342966c68146103615780634f6ccce71461037d5780635c975abb146103ad5780636352211e146103cb576101e5565b80632a55205a146102da5780632f745c591461030b5780633f4ba83a1461033b57806342842e0e14610345576101e5565b8063095ea7b3116101c3578063095ea7b31461026857806318160ddd146102845780631e6b5818146102a257806323b872dd146102be576101e5565b806301ffc9a7146101ea57806306fdde031461021a578063081812fc14610238575b600080fd5b61020460048036038101906101ff9190612c9a565b6105c5565b6040516102119190612ce2565b60405180910390f35b6102226105d7565b60405161022f9190612d96565b60405180910390f35b610252600480360381019061024d9190612dee565b610669565b60405161025f9190612e5c565b60405180910390f35b610282600480360381019061027d9190612ea3565b6106af565b005b61028c6107c7565b6040516102999190612ef2565b60405180910390f35b6102bc60048036038101906102b79190612dee565b6107d4565b005b6102d860048036038101906102d39190612f0d565b6107e8565b005b6102f460048036038101906102ef9190612f60565b610848565b604051610302929190612fa0565b60405180910390f35b61032560048036038101906103209190612ea3565b610a33565b6040516103329190612ef2565b60405180910390f35b610343610ad8565b005b61035f600480360381019061035a9190612f0d565b610aea565b005b61037b60048036038101906103769190612dee565b610b0a565b005b61039760048036038101906103929190612dee565b610b66565b6040516103a49190612ef2565b60405180910390f35b6103b5610bd7565b6040516103c29190612ce2565b60405180910390f35b6103e560048036038101906103e09190612dee565b610bee565b6040516103f29190612e5c565b60405180910390f35b61041560048036038101906104109190612fc9565b610ca0565b6040516104229190612ef2565b60405180910390f35b610433610d58565b005b61044f600480360381019061044a919061303a565b610d6c565b005b610459610d8f565b005b610475600480360381019061047091906130a1565b610da1565b005b61047f610db9565b60405161048c9190612e5c565b60405180910390f35b6104af60048036038101906104aa9190613229565b610de3565b005b6104b9610e05565b6040516104c69190612d96565b60405180910390f35b6104d7610e97565b005b6104f360048036038101906104ee9190612ea3565b610ea9565b005b61050f600480360381019061050a919061329e565b610ebf565b005b61052b6004803603810190610526919061337f565b610ed5565b005b61054760048036038101906105429190612dee565b610f37565b6040516105549190612d96565b60405180910390f35b61057760048036038101906105729190613402565b610f9f565b005b610593600480360381019061058e9190613442565b610fb5565b6040516105a09190612ce2565b60405180910390f35b6105c360048036038101906105be9190612fc9565b61101b565b005b60006105d08261109f565b9050919050565b6060600080546105e6906134b1565b80601f0160208091040260200160405190810160405280929190818152602001828054610612906134b1565b801561065f5780601f106106345761010080835404028352916020019161065f565b820191906000526020600020905b81548152906001019060200180831161064257829003601f168201915b5050505050905090565b600061067482611119565b6004600083815260200190815260200160002060009054906101000a900473ffffffffffffffffffffffffffffffffffffffff169050919050565b60006106ba82610bee565b90508073ffffffffffffffffffffffffffffffffffffffff168373ffffffffffffffffffffffffffffffffffffffff16141561072b576040517f08c379a000000000000000000000000000000000000000000000000000000000815260040161072290613555565b60405180910390fd5b8073ffffffffffffffffffffffffffffffffffffffff1661074a611164565b73ffffffffffffffffffffffffffffffffffffffff161480610779575061077881610773611164565b610fb5565b5b6107b8576040517f08c379a00000000000000000000000000000000000000000000000000000000081526004016107af906135e7565b60405180910390fd5b6107c2838361116c565b505050565b6000600a80549050905090565b6107dc611225565b6107e5816112a3565b50565b6107f96107f3611164565b82611302565b610838576040517f08c379a000000000000000000000000000000000000000000000000000000000815260040161082f90613679565b60405180910390fd5b610843838383611397565b505050565b6000806000600760008681526020019081526020016000206040518060400160405290816000820160009054906101000a900473ffffffffffffffffffffffffffffffffffffffff1673ffffffffffffffffffffffffffffffffffffffff1673ffffffffffffffffffffffffffffffffffffffff1681526020016000820160149054906101000a90046bffffffffffffffffffffffff166bffffffffffffffffffffffff166bffffffffffffffffffffffff16815250509050600073ffffffffffffffffffffffffffffffffffffffff16816000015173ffffffffffffffffffffffffffffffffffffffff1614156109de5760066040518060400160405290816000820160009054906101000a900473ffffffffffffffffffffffffffffffffffffffff1673ffffffffffffffffffffffffffffffffffffffff1673ffffffffffffffffffffffffffffffffffffffff1681526020016000820160149054906101000a90046bffffffffffffffffffffffff166bffffffffffffffffffffffff166bffffffffffffffffffffffff168152505090505b60006109e86115fe565b6bffffffffffffffffffffffff1682602001516bffffffffffffffffffffffff1686610a1491906136c8565b610a1e9190613751565b90508160000151819350935050509250929050565b6000610a3e83610ca0565b8210610a7f576040517f08c379a0000000000000000000000000000000000000000000000000000000008152600401610a76906137f4565b60405180910390fd5b600860008473ffffffffffffffffffffffffffffffffffffffff1673ffffffffffffffffffffffffffffffffffffffff168152602001908152602001600020600083815260200190815260200160002054905092915050565b610ae0611225565b610ae8611608565b565b610b0583838360405180602001604052806000815250610ed5565b505050565b610b1b610b15611164565b82611302565b610b5a576040517f08c379a0000000000000000000000000000000000000000000000000000000008152600401610b5190613679565b60405180910390fd5b610b638161166b565b50565b6000610b706107c7565b8210610bb1576040517f08c379a0000000000000000000000000000000000000000000000000000000008152600401610ba890613886565b60405180910390fd5b600a8281548110610bc557610bc46138a6565b5b90600052602060002001549050919050565b6000600c60009054906101000a900460ff16905090565b6000806002600084815260200190815260200160002060009054906101000a900473ffffffffffffffffffffffffffffffffffffffff169050600073ffffffffffffffffffffffffffffffffffffffff168173ffffffffffffffffffffffffffffffffffffffff161415610c97576040517f08c379a0000000000000000000000000000000000000000000000000000000008152600401610c8e90613921565b60405180910390fd5b80915050919050565b60008073ffffffffffffffffffffffffffffffffffffffff168273ffffffffffffffffffffffffffffffffffffffff161415610d11576040517f08c379a0000000000000000000000000000000000000000000000000000000008152600401610d08906139b3565b60405180910390fd5b600360008373ffffffffffffffffffffffffffffffffffffffff1673ffffffffffffffffffffffffffffffffffffffff168152602001908152602001600020549050919050565b610d60611225565b610d6a6000611788565b565b610d74611225565b610d7e8484610ea9565b610d89838383610da1565b50505050565b610d97611225565b610d9f61184e565b565b610da9611225565b610db48383836118b1565b505050565b6000600c60019054906101000a900473ffffffffffffffffffffffffffffffffffffffff16905090565b610deb611225565b80600d9080519060200190610e01929190612b8b565b5050565b606060018054610e14906134b1565b80601f0160208091040260200160405190810160405280929190818152602001828054610e40906134b1565b8015610e8d5780601f10610e6257610100808354040283529160200191610e8d565b820191906000526020600020905b815481529060010190602001808311610e7057829003601f168201915b5050505050905090565b610e9f611225565b610ea7611a59565b565b610eb1611225565b610ebb8282611aa6565b5050565b610ed1610eca611164565b8383611ac4565b5050565b610ee6610ee0611164565b83611302565b610f25576040517f08c379a0000000000000000000000000000000000000000000000000000000008152600401610f1c90613679565b60405180910390fd5b610f3184848484611c31565b50505050565b6060610f4282611119565b6000610f4c611c8d565b90506000815111610f6c5760405180602001604052806000815250610f97565b80610f7684611d1f565b604051602001610f87929190613a0f565b6040516020818303038152906040525b915050919050565b610fa7611225565b610fb18282611e80565b5050565b600073ff7ca10af37178bdd056628ef42fd7f799fac77c73ffffffffffffffffffffffffffffffffffffffff168273ffffffffffffffffffffffffffffffffffffffff1614156110085760019050611015565b6110128383612016565b90505b92915050565b611023611225565b600073ffffffffffffffffffffffffffffffffffffffff168173ffffffffffffffffffffffffffffffffffffffff161415611093576040517f08c379a000000000000000000000000000000000000000000000000000000000815260040161108a90613aa5565b60405180910390fd5b61109c81611788565b50565b60007f780e9d63000000000000000000000000000000000000000000000000000000007bffffffffffffffffffffffffffffffffffffffffffffffffffffffff1916827bffffffffffffffffffffffffffffffffffffffffffffffffffffffff191614806111125750611111826120aa565b5b9050919050565b61112281612124565b611161576040517f08c379a000000000000000000000000000000000000000000000000000000000815260040161115890613921565b60405180910390fd5b50565b600033905090565b816004600083815260200190815260200160002060006101000a81548173ffffffffffffffffffffffffffffffffffffffff021916908373ffffffffffffffffffffffffffffffffffffffff160217905550808273ffffffffffffffffffffffffffffffffffffffff166111df83610bee565b73ffffffffffffffffffffffffffffffffffffffff167f8c5be1e5ebec7d5bd14f71427d1e84f3dd0314c0f7b2291e5b200ac8c7c3b92560405160405180910390a45050565b61122d611164565b73ffffffffffffffffffffffffffffffffffffffff1661124b610db9565b73ffffffffffffffffffffffffffffffffffffffff16146112a1576040517f08c379a000000000000000000000000000000000000000000000000000000000815260040161129890613b11565b60405180910390fd5b565b60076000828152602001908152602001600020600080820160006101000a81549073ffffffffffffffffffffffffffffffffffffffff02191690556000820160146101000a8154906bffffffffffffffffffffffff0219169055505050565b60008061130e83610bee565b90508073ffffffffffffffffffffffffffffffffffffffff168473ffffffffffffffffffffffffffffffffffffffff161480611350575061134f8185610fb5565b5b8061138e57508373ffffffffffffffffffffffffffffffffffffffff1661137684610669565b73ffffffffffffffffffffffffffffffffffffffff16145b91505092915050565b8273ffffffffffffffffffffffffffffffffffffffff166113b782610bee565b73ffffffffffffffffffffffffffffffffffffffff161461140d576040517f08c379a000000000000000000000000000000000000000000000000000000000815260040161140490613ba3565b60405180910390fd5b600073ffffffffffffffffffffffffffffffffffffffff168273ffffffffffffffffffffffffffffffffffffffff16141561147d576040517f08c379a000000000000000000000000000000000000000000000000000000000815260040161147490613c35565b60405180910390fd5b611488838383612190565b61149360008261116c565b6001600360008573ffffffffffffffffffffffffffffffffffffffff1673ffffffffffffffffffffffffffffffffffffffff16815260200190815260200160002060008282546114e39190613c55565b925050819055506001600360008473ffffffffffffffffffffffffffffffffffffffff1673ffffffffffffffffffffffffffffffffffffffff168152602001908152602001600020600082825461153a9190613c89565b92505081905550816002600083815260200190815260200160002060006101000a81548173ffffffffffffffffffffffffffffffffffffffff021916908373ffffffffffffffffffffffffffffffffffffffff160217905550808273ffffffffffffffffffffffffffffffffffffffff168473ffffffffffffffffffffffffffffffffffffffff167fddf252ad1be2c89b69c2b068fc378daa952ba7f163c4a11628f55a4df523b3ef60405160405180910390a46115f98383836121a8565b505050565b6000612710905090565b6116106121ad565b6000600c60006101000a81548160ff0219169083151502179055507f5db9ee0a495bf2e6ff9c91a7834c1ba4fdd244a5e8aa4e537bd38aeae4b073aa611654611164565b6040516116619190612e5c565b60405180910390a1565b600061167682610bee565b905061168481600084612190565b61168f60008361116c565b6001600360008373ffffffffffffffffffffffffffffffffffffffff1673ffffffffffffffffffffffffffffffffffffffff16815260200190815260200160002060008282546116df9190613c55565b925050819055506002600083815260200190815260200160002060006101000a81549073ffffffffffffffffffffffffffffffffffffffff021916905581600073ffffffffffffffffffffffffffffffffffffffff168273ffffffffffffffffffffffffffffffffffffffff167fddf252ad1be2c89b69c2b068fc378daa952ba7f163c4a11628f55a4df523b3ef60405160405180910390a4611784816000846121a8565b5050565b6000600c60019054906101000a900473ffffffffffffffffffffffffffffffffffffffff16905081600c60016101000a81548173ffffffffffffffffffffffffffffffffffffffff021916908373ffffffffffffffffffffffffffffffffffffffff1602179055508173ffffffffffffffffffffffffffffffffffffffff168173ffffffffffffffffffffffffffffffffffffffff167f8be0079c531659141344cd1fd0a4f28419497f9722a3daafe3b4186f6b6457e060405160405180910390a35050565b6118566121f6565b6001600c60006101000a81548160ff0219169083151502179055507f62e78cea01bee320cd4e420270b5ea74000d11b0c9f74754ebdbfc544b05a25861189a611164565b6040516118a79190612e5c565b60405180910390a1565b6118b96115fe565b6bffffffffffffffffffffffff16816bffffffffffffffffffffffff161115611917576040517f08c379a000000000000000000000000000000000000000000000000000000000815260040161190e90613d51565b60405180910390fd5b600073ffffffffffffffffffffffffffffffffffffffff168273ffffffffffffffffffffffffffffffffffffffff161415611987576040517f08c379a000000000000000000000000000000000000000000000000000000000815260040161197e90613dbd565b60405180910390fd5b60405180604001604052808373ffffffffffffffffffffffffffffffffffffffff168152602001826bffffffffffffffffffffffff168152506007600085815260200190815260200160002060008201518160000160006101000a81548173ffffffffffffffffffffffffffffffffffffffff021916908373ffffffffffffffffffffffffffffffffffffffff16021790555060208201518160000160146101000a8154816bffffffffffffffffffffffff02191690836bffffffffffffffffffffffff160217905550905050505050565b6006600080820160006101000a81549073ffffffffffffffffffffffffffffffffffffffff02191690556000820160146101000a8154906bffffffffffffffffffffffff02191690555050565b611ac0828260405180602001604052806000815250612240565b5050565b8173ffffffffffffffffffffffffffffffffffffffff168373ffffffffffffffffffffffffffffffffffffffff161415611b33576040517f08c379a0000000000000000000000000000000000000000000000000000000008152600401611b2a90613e29565b60405180910390fd5b80600560008573ffffffffffffffffffffffffffffffffffffffff1673ffffffffffffffffffffffffffffffffffffffff16815260200190815260200160002060008473ffffffffffffffffffffffffffffffffffffffff1673ffffffffffffffffffffffffffffffffffffffff16815260200190815260200160002060006101000a81548160ff0219169083151502179055508173ffffffffffffffffffffffffffffffffffffffff168373ffffffffffffffffffffffffffffffffffffffff167f17307eab39ab6107e8899845ad3d59bd9653f200f220920489ca2b5937696c3183604051611c249190612ce2565b60405180910390a3505050565b611c3c848484611397565b611c488484848461229b565b611c87576040517f08c379a0000000000000000000000000000000000000000000000000000000008152600401611c7e90613ebb565b60405180910390fd5b50505050565b6060600d8054611c9c906134b1565b80601f0160208091040260200160405190810160405280929190818152602001828054611cc8906134b1565b8015611d155780601f10611cea57610100808354040283529160200191611d15565b820191906000526020600020905b815481529060010190602001808311611cf857829003601f168201915b5050505050905090565b60606000821415611d67576040518060400160405280600181526020017f30000000000000000000000000000000000000000000000000000000000000008152509050611e7b565b600082905060005b60008214611d99578080611d8290613edb565b915050600a82611d929190613751565b9150611d6f565b60008167ffffffffffffffff811115611db557611db46130fe565b5b6040519080825280601f01601f191660200182016040528015611de75781602001600182028036833780820191505090505b5090505b60008514611e7457600182611e009190613c55565b9150600a85611e0f9190613f24565b6030611e1b9190613c89565b60f81b818381518110611e3157611e306138a6565b5b60200101907effffffffffffffffffffffffffffffffffffffffffffffffffffffffffffff1916908160001a905350600a85611e6d9190613751565b9450611deb565b8093505050505b919050565b611e886115fe565b6bffffffffffffffffffffffff16816bffffffffffffffffffffffff161115611ee6576040517f08c379a0000000000000000000000000000000000000000000000000000000008152600401611edd90613d51565b60405180910390fd5b600073ffffffffffffffffffffffffffffffffffffffff168273ffffffffffffffffffffffffffffffffffffffff161415611f56576040517f08c379a0000000000000000000000000000000000000000000000000000000008152600401611f4d90613fa1565b60405180910390fd5b60405180604001604052808373ffffffffffffffffffffffffffffffffffffffff168152602001826bffffffffffffffffffffffff16815250600660008201518160000160006101000a81548173ffffffffffffffffffffffffffffffffffffffff021916908373ffffffffffffffffffffffffffffffffffffffff16021790555060208201518160000160146101000a8154816bffffffffffffffffffffffff02191690836bffffffffffffffffffffffff1602179055509050505050565b6000600560008473ffffffffffffffffffffffffffffffffffffffff1673ffffffffffffffffffffffffffffffffffffffff16815260200190815260200160002060008373ffffffffffffffffffffffffffffffffffffffff1673ffffffffffffffffffffffffffffffffffffffff16815260200190815260200160002060009054906101000a900460ff16905092915050565b60007f2a55205a000000000000000000000000000000000000000000000000000000007bffffffffffffffffffffffffffffffffffffffffffffffffffffffff1916827bffffffffffffffffffffffffffffffffffffffffffffffffffffffff1916148061211d575061211c82612423565b5b9050919050565b60008073ffffffffffffffffffffffffffffffffffffffff166002600084815260200190815260200160002060009054906101000a900473ffffffffffffffffffffffffffffffffffffffff1673ffffffffffffffffffffffffffffffffffffffff1614159050919050565b6121986121f6565b6121a3838383612505565b505050565b505050565b6121b5610bd7565b6121f4576040517f08c379a00000000000000000000000000000000000000000000000000000000081526004016121eb9061400d565b60405180910390fd5b565b6121fe610bd7565b1561223e576040517f08c379a000000000000000000000000000000000000000000000000000000000815260040161223590614079565b60405180910390fd5b565b61224a8383612619565b612257600084848461229b565b612296576040517f08c379a000000000000000000000000000000000000000000000000000000000815260040161228d90613ebb565b60405180910390fd5b505050565b60006122bc8473ffffffffffffffffffffffffffffffffffffffff166127f3565b15612416578373ffffffffffffffffffffffffffffffffffffffff1663150b7a026122e5611164565b8786866040518563ffffffff1660e01b815260040161230794939291906140ee565b6020604051808303816000875af192505050801561234357506040513d601f19601f82011682018060405250810190612340919061414f565b60015b6123c6573d8060008114612373576040519150601f19603f3d011682016040523d82523d6000602084013e612378565b606091505b506000815114156123be576040517f08c379a00000000000000000000000000000000000000000000000000000000081526004016123b590613ebb565b60405180910390fd5b805181602001fd5b63150b7a0260e01b7bffffffffffffffffffffffffffffffffffffffffffffffffffffffff1916817bffffffffffffffffffffffffffffffffffffffffffffffffffffffff19161491505061241b565b600190505b949350505050565b60007f80ac58cd000000000000000000000000000000000000000000000000000000007bffffffffffffffffffffffffffffffffffffffffffffffffffffffff1916827bffffffffffffffffffffffffffffffffffffffffffffffffffffffff191614806124ee57507f5b5e139f000000000000000000000000000000000000000000000000000000007bffffffffffffffffffffffffffffffffffffffffffffffffffffffff1916827bffffffffffffffffffffffffffffffffffffffffffffffffffffffff1916145b806124fe57506124fd82612816565b5b9050919050565b612510838383612880565b600073ffffffffffffffffffffffffffffffffffffffff168373ffffffffffffffffffffffffffffffffffffffff1614156125535761254e81612885565b612592565b8173ffffffffffffffffffffffffffffffffffffffff168373ffffffffffffffffffffffffffffffffffffffff16146125915761259083826128ce565b5b5b600073ffffffffffffffffffffffffffffffffffffffff168273ffffffffffffffffffffffffffffffffffffffff1614156125d5576125d081612a3b565b612614565b8273ffffffffffffffffffffffffffffffffffffffff168273ffffffffffffffffffffffffffffffffffffffff1614612613576126128282612b0c565b5b5b505050565b600073ffffffffffffffffffffffffffffffffffffffff168273ffffffffffffffffffffffffffffffffffffffff161415612689576040517f08c379a0000000000000000000000000000000000000000000000000000000008152600401612680906141c8565b60405180910390fd5b61269281612124565b156126d2576040517f08c379a00000000000000000000000000000000000000000000000000000000081526004016126c990614234565b60405180910390fd5b6126de60008383612190565b6001600360008473ffffffffffffffffffffffffffffffffffffffff1673ffffffffffffffffffffffffffffffffffffffff168152602001908152602001600020600082825461272e9190613c89565b92505081905550816002600083815260200190815260200160002060006101000a81548173ffffffffffffffffffffffffffffffffffffffff021916908373ffffffffffffffffffffffffffffffffffffffff160217905550808273ffffffffffffffffffffffffffffffffffffffff16600073ffffffffffffffffffffffffffffffffffffffff167fddf252ad1be2c89b69c2b068fc378daa952ba7f163c4a11628f55a4df523b3ef60405160405180910390a46127ef600083836121a8565b5050565b6000808273ffffffffffffffffffffffffffffffffffffffff163b119050919050565b60007f01ffc9a7000000000000000000000000000000000000000000000000000000007bffffffffffffffffffffffffffffffffffffffffffffffffffffffff1916827bffffffffffffffffffffffffffffffffffffffffffffffffffffffff1916149050919050565b505050565b600a80549050600b600083815260200190815260200160002081905550600a81908060018154018082558091505060019003906000526020600020016000909190919091505550565b600060016128db84610ca0565b6128e59190613c55565b90506000600960008481526020019081526020016000205490508181146129ca576000600860008673ffffffffffffffffffffffffffffffffffffffff1673ffffffffffffffffffffffffffffffffffffffff168152602001908152602001600020600084815260200190815260200160002054905080600860008773ffffffffffffffffffffffffffffffffffffffff1673ffffffffffffffffffffffffffffffffffffffff168152602001908152602001600020600084815260200190815260200160002081905550816009600083815260200190815260200160002081905550505b6009600084815260200190815260200160002060009055600860008573ffffffffffffffffffffffffffffffffffffffff1673ffffffffffffffffffffffffffffffffffffffff16815260200190815260200160002060008381526020019081526020016000206000905550505050565b60006001600a80549050612a4f9190613c55565b90506000600b60008481526020019081526020016000205490506000600a8381548110612a7f57612a7e6138a6565b5b9060005260206000200154905080600a8381548110612aa157612aa06138a6565b5b906000526020600020018190555081600b600083815260200190815260200160002081905550600b600085815260200190815260200160002060009055600a805480612af057612aef614254565b5b6001900381819060005260206000200160009055905550505050565b6000612b1783610ca0565b905081600860008573ffffffffffffffffffffffffffffffffffffffff1673ffffffffffffffffffffffffffffffffffffffff168152602001908152602001600020600083815260200190815260200160002081905550806009600084815260200190815260200160002081905550505050565b828054612b97906134b1565b90600052602060002090601f016020900481019282612bb95760008555612c00565b82601f10612bd257805160ff1916838001178555612c00565b82800160010185558215612c00579182015b82811115612bff578251825591602001919060010190612be4565b5b509050612c0d9190612c11565b5090565b5b80821115612c2a576000816000905550600101612c12565b5090565b6000604051905090565b600080fd5b600080fd5b60007fffffffff0000000000000000000000000000000000000000000000000000000082169050919050565b612c7781612c42565b8114612c8257600080fd5b50565b600081359050612c9481612c6e565b92915050565b600060208284031215612cb057612caf612c38565b5b6000612cbe84828501612c85565b91505092915050565b60008115159050919050565b612cdc81612cc7565b82525050565b6000602082019050612cf76000830184612cd3565b92915050565b600081519050919050565b600082825260208201905092915050565b60005b83811015612d37578082015181840152602081019050612d1c565b83811115612d46576000848401525b50505050565b6000601f19601f8301169050919050565b6000612d6882612cfd565b612d728185612d08565b9350612d82818560208601612d19565b612d8b81612d4c565b840191505092915050565b60006020820190508181036000830152612db08184612d5d565b905092915050565b6000819050919050565b612dcb81612db8565b8114612dd657600080fd5b50565b600081359050612de881612dc2565b92915050565b600060208284031215612e0457612e03612c38565b5b6000612e1284828501612dd9565b91505092915050565b600073ffffffffffffffffffffffffffffffffffffffff82169050919050565b6000612e4682612e1b565b9050919050565b612e5681612e3b565b82525050565b6000602082019050612e716000830184612e4d565b92915050565b612e8081612e3b565b8114612e8b57600080fd5b50565b600081359050612e9d81612e77565b92915050565b60008060408385031215612eba57612eb9612c38565b5b6000612ec885828601612e8e565b9250506020612ed985828601612dd9565b9150509250929050565b612eec81612db8565b82525050565b6000602082019050612f076000830184612ee3565b92915050565b600080600060608486031215612f2657612f25612c38565b5b6000612f3486828701612e8e565b9350506020612f4586828701612e8e565b9250506040612f5686828701612dd9565b9150509250925092565b60008060408385031215612f7757612f76612c38565b5b6000612f8585828601612dd9565b9250506020612f9685828601612dd9565b9150509250929050565b6000604082019050612fb56000830185612e4d565b612fc26020830184612ee3565b9392505050565b600060208284031215612fdf57612fde612c38565b5b6000612fed84828501612e8e565b91505092915050565b60006bffffffffffffffffffffffff82169050919050565b61301781612ff6565b811461302257600080fd5b50565b6000813590506130348161300e565b92915050565b6000806000806080858703121561305457613053612c38565b5b600061306287828801612e8e565b945050602061307387828801612dd9565b935050604061308487828801612e8e565b925050606061309587828801613025565b91505092959194509250565b6000806000606084860312156130ba576130b9612c38565b5b60006130c886828701612dd9565b93505060206130d986828701612e8e565b92505060406130ea86828701613025565b9150509250925092565b600080fd5b600080fd5b7f4e487b7100000000000000000000000000000000000000000000000000000000600052604160045260246000fd5b61313682612d4c565b810181811067ffffffffffffffff82111715613155576131546130fe565b5b80604052505050565b6000613168612c2e565b9050613174828261312d565b919050565b600067ffffffffffffffff821115613194576131936130fe565b5b61319d82612d4c565b9050602081019050919050565b82818337600083830152505050565b60006131cc6131c784613179565b61315e565b9050828152602081018484840111156131e8576131e76130f9565b5b6131f38482856131aa565b509392505050565b600082601f8301126132105761320f6130f4565b5b81356132208482602086016131b9565b91505092915050565b60006020828403121561323f5761323e612c38565b5b600082013567ffffffffffffffff81111561325d5761325c612c3d565b5b613269848285016131fb565b91505092915050565b61327b81612cc7565b811461328657600080fd5b50565b60008135905061329881613272565b92915050565b600080604083850312156132b5576132b4612c38565b5b60006132c385828601612e8e565b92505060206132d485828601613289565b9150509250929050565b600067ffffffffffffffff8211156132f9576132f86130fe565b5b61330282612d4c565b9050602081019050919050565b600061332261331d846132de565b61315e565b90508281526020810184848401111561333e5761333d6130f9565b5b6133498482856131aa565b509392505050565b600082601f830112613366576133656130f4565b5b813561337684826020860161330f565b91505092915050565b6000806000806080858703121561339957613398612c38565b5b60006133a787828801612e8e565b94505060206133b887828801612e8e565b93505060406133c987828801612dd9565b925050606085013567ffffffffffffffff8111156133ea576133e9612c3d565b5b6133f687828801613351565b91505092959194509250565b6000806040838503121561341957613418612c38565b5b600061342785828601612e8e565b925050602061343885828601613025565b9150509250929050565b6000806040838503121561345957613458612c38565b5b600061346785828601612e8e565b925050602061347885828601612e8e565b9150509250929050565b7f4e487b7100000000000000000000000000000000000000000000000000000000600052602260045260246000fd5b600060028204905060018216806134c957607f821691505b602082108114156134dd576134dc613482565b5b50919050565b7f4552433732313a20617070726f76616c20746f2063757272656e74206f776e6560008201527f7200000000000000000000000000000000000000000000000000000000000000602082015250565b600061353f602183612d08565b915061354a826134e3565b604082019050919050565b6000602082019050818103600083015261356e81613532565b9050919050565b7f4552433732313a20617070726f76652063616c6c6572206973206e6f7420746f60008201527f6b656e206f776e6572206e6f7220617070726f76656420666f7220616c6c0000602082015250565b60006135d1603e83612d08565b91506135dc82613575565b604082019050919050565b60006020820190508181036000830152613600816135c4565b9050919050565b7f4552433732313a2063616c6c6572206973206e6f7420746f6b656e206f776e6560008201527f72206e6f7220617070726f766564000000000000000000000000000000000000602082015250565b6000613663602e83612d08565b915061366e82613607565b604082019050919050565b6000602082019050818103600083015261369281613656565b9050919050565b7f4e487b7100000000000000000000000000000000000000000000000000000000600052601160045260246000fd5b60006136d382612db8565b91506136de83612db8565b9250817fffffffffffffffffffffffffffffffffffffffffffffffffffffffffffffffff048311821515161561371757613716613699565b5b828202905092915050565b7f4e487b7100000000000000000000000000000000000000000000000000000000600052601260045260246000fd5b600061375c82612db8565b915061376783612db8565b92508261377757613776613722565b5b828204905092915050565b7f455243373231456e756d657261626c653a206f776e657220696e646578206f7560008201527f74206f6620626f756e6473000000000000000000000000000000000000000000602082015250565b60006137de602b83612d08565b91506137e982613782565b604082019050919050565b6000602082019050818103600083015261380d816137d1565b9050919050565b7f455243373231456e756d657261626c653a20676c6f62616c20696e646578206f60008201527f7574206f6620626f756e64730000000000000000000000000000000000000000602082015250565b6000613870602c83612d08565b915061387b82613814565b604082019050919050565b6000602082019050818103600083015261389f81613863565b9050919050565b7f4e487b7100000000000000000000000000000000000000000000000000000000600052603260045260246000fd5b7f4552433732313a20696e76616c696420746f6b656e2049440000000000000000600082015250565b600061390b601883612d08565b9150613916826138d5565b602082019050919050565b6000602082019050818103600083015261393a816138fe565b9050919050565b7f4552433732313a2061646472657373207a65726f206973206e6f74206120766160008201527f6c6964206f776e65720000000000000000000000000000000000000000000000602082015250565b600061399d602983612d08565b91506139a882613941565b604082019050919050565b600060208201905081810360008301526139cc81613990565b9050919050565b600081905092915050565b60006139e982612cfd565b6139f381856139d3565b9350613a03818560208601612d19565b80840191505092915050565b6000613a1b82856139de565b9150613a2782846139de565b91508190509392505050565b7f4f776e61626c653a206e6577206f776e657220697320746865207a65726f206160008201527f6464726573730000000000000000000000000000000000000000000000000000602082015250565b6000613a8f602683612d08565b9150613a9a82613a33565b604082019050919050565b60006020820190508181036000830152613abe81613a82565b9050919050565b7f4f776e61626c653a2063616c6c6572206973206e6f7420746865206f776e6572600082015250565b6000613afb602083612d08565b9150613b0682613ac5565b602082019050919050565b60006020820190508181036000830152613b2a81613aee565b9050919050565b7f4552433732313a207472616e736665722066726f6d20696e636f72726563742060008201527f6f776e6572000000000000000000000000000000000000000000000000000000602082015250565b6000613b8d602583612d08565b9150613b9882613b31565b604082019050919050565b60006020820190508181036000830152613bbc81613b80565b9050919050565b7f4552433732313a207472616e7366657220746f20746865207a65726f2061646460008201527f7265737300000000000000000000000000000000000000000000000000000000602082015250565b6000613c1f602483612d08565b9150613c2a82613bc3565b604082019050919050565b60006020820190508181036000830152613c4e81613c12565b9050919050565b6000613c6082612db8565b9150613c6b83612db8565b925082821015613c7e57613c7d613699565b5b828203905092915050565b6000613c9482612db8565b9150613c9f83612db8565b9250827fffffffffffffffffffffffffffffffffffffffffffffffffffffffffffffffff03821115613cd457613cd3613699565b5b828201905092915050565b7f455243323938313a20726f79616c7479206665652077696c6c2065786365656460008201527f2073616c65507269636500000000000000000000000000000000000000000000602082015250565b6000613d3b602a83612d08565b9150613d4682613cdf565b604082019050919050565b60006020820190508181036000830152613d6a81613d2e565b9050919050565b7f455243323938313a20496e76616c696420706172616d65746572730000000000600082015250565b6000613da7601b83612d08565b9150613db282613d71565b602082019050919050565b60006020820190508181036000830152613dd681613d9a565b9050919050565b7f4552433732313a20617070726f766520746f2063616c6c657200000000000000600082015250565b6000613e13601983612d08565b9150613e1e82613ddd565b602082019050919050565b60006020820190508181036000830152613e4281613e06565b9050919050565b7f4552433732313a207472616e7366657220746f206e6f6e20455243373231526560008201527f63656976657220696d706c656d656e7465720000000000000000000000000000602082015250565b6000613ea5603283612d08565b9150613eb082613e49565b604082019050919050565b60006020820190508181036000830152613ed481613e98565b9050919050565b6000613ee682612db8565b91507fffffffffffffffffffffffffffffffffffffffffffffffffffffffffffffffff821415613f1957613f18613699565b5b600182019050919050565b6000613f2f82612db8565b9150613f3a83612db8565b925082613f4a57613f49613722565b5b828206905092915050565b7f455243323938313a20696e76616c696420726563656976657200000000000000600082015250565b6000613f8b601983612d08565b9150613f9682613f55565b602082019050919050565b60006020820190508181036000830152613fba81613f7e565b9050919050565b7f5061757361626c653a206e6f7420706175736564000000000000000000000000600082015250565b6000613ff7601483612d08565b915061400282613fc1565b602082019050919050565b6000602082019050818103600083015261402681613fea565b9050919050565b7f5061757361626c653a2070617573656400000000000000000000000000000000600082015250565b6000614063601083612d08565b915061406e8261402d565b602082019050919050565b6000602082019050818103600083015261409281614056565b9050919050565b600081519050919050565b600082825260208201905092915050565b60006140c082614099565b6140ca81856140a4565b93506140da818560208601612d19565b6140e381612d4c565b840191505092915050565b60006080820190506141036000830187612e4d565b6141106020830186612e4d565b61411d6040830185612ee3565b818103606083015261412f81846140b5565b905095945050505050565b60008151905061414981612c6e565b92915050565b60006020828403121561416557614164612c38565b5b60006141738482850161413a565b91505092915050565b7f4552433732313a206d696e7420746f20746865207a65726f2061646472657373600082015250565b60006141b2602083612d08565b91506141bd8261417c565b602082019050919050565b600060208201905081810360008301526141e1816141a5565b9050919050565b7f4552433732313a20746f6b656e20616c7265616479206d696e74656400000000600082015250565b600061421e601c83612d08565b9150614229826141e8565b602082019050919050565b6000602082019050818103600083015261424d81614211565b9050919050565b7f4e487b7100000000000000000000000000000000000000000000000000000000600052603160045260246000fdfea2646970667358221220c3d7bf1246d91a24e7938689c5b7d5462193333219989bbc9b025de08dd710bb64736f6c634300080c003368747470733a2f2f746573746e6574732e756c74726176696f6c65742e776f726c642f706f6c79676f6e2f",
  "linkReferences": {},
  "deployedLinkReferences": {}
}