{
  "_format": "hh-sol-artifact-1",
  "contractName": "UVCollectable",
  "sourceName": "contracts/UVCollectable.sol",
  "abi": [
    {
      "inputs": [],
      "stateMutability": "nonpayable",
      "type": "constructor"
    },
    {
      "anonymous": false,
      "inputs": [
        {
          "indexed": false,
          "internalType": "address",
          "name": "previousAdmin",
          "type": "address"
        },
        {
          "indexed": false,
          "internalType": "address",
          "name": "newAdmin",
          "type": "address"
        }
      ],
      "name": "AdminChanged",
      "type": "event"
    },
    {
      "anonymous": false,
      "inputs": [
        {
          "indexed": false,
          "internalType": "address",
          "name": "admin",
          "type": "address"
        },
        {
          "indexed": false,
          "internalType": "bool",
          "name": "added",
          "type": "bool"
        }
      ],
      "name": "AdminUpdated",
      "type": "event"
    },
    {
      "anonymous": false,
      "inputs": [
        {
          "indexed": true,
          "internalType": "address",
          "name": "owner",
          "type": "address"
        },
        {
          "indexed": true,
          "internalType": "address",
          "name": "approved",
          "type": "address"
        },
        {
          "indexed": true,
          "internalType": "uint256",
          "name": "tokenId",
          "type": "uint256"
        }
      ],
      "name": "Approval",
      "type": "event"
    },
    {
      "anonymous": false,
      "inputs": [
        {
          "indexed": true,
          "internalType": "address",
          "name": "owner",
          "type": "address"
        },
        {
          "indexed": true,
          "internalType": "address",
          "name": "operator",
          "type": "address"
        },
        {
          "indexed": false,
          "internalType": "bool",
          "name": "approved",
          "type": "bool"
        }
      ],
      "name": "ApprovalForAll",
      "type": "event"
    },
    {
      "anonymous": false,
      "inputs": [
        {
          "indexed": true,
          "internalType": "address",
          "name": "beacon",
          "type": "address"
        }
      ],
      "name": "BeaconUpgraded",
      "type": "event"
    },
    {
      "anonymous": false,
      "inputs": [
        {
          "indexed": false,
          "internalType": "uint256",
          "name": "tokenId",
          "type": "uint256"
        }
      ],
      "name": "Frozen",
      "type": "event"
    },
    {
      "anonymous": false,
      "inputs": [
        {
          "indexed": false,
          "internalType": "uint8",
          "name": "version",
          "type": "uint8"
        }
      ],
      "name": "Initialized",
      "type": "event"
    },
    {
      "anonymous": false,
      "inputs": [
        {
          "indexed": true,
          "internalType": "address",
          "name": "previousOwner",
          "type": "address"
        },
        {
          "indexed": true,
          "internalType": "address",
          "name": "newOwner",
          "type": "address"
        }
      ],
      "name": "OwnershipTransferred",
      "type": "event"
    },
    {
      "anonymous": false,
      "inputs": [
        {
          "indexed": false,
          "internalType": "address",
          "name": "account",
          "type": "address"
        }
      ],
      "name": "Paused",
      "type": "event"
    },
    {
      "anonymous": false,
      "inputs": [
        {
          "indexed": true,
          "internalType": "uint256",
          "name": "tokenId",
          "type": "uint256"
        },
        {
          "indexed": false,
          "internalType": "uint64",
          "name": "expiration",
          "type": "uint64"
        }
      ],
      "name": "SubscriptionUpdate",
      "type": "event"
    },
    {
      "anonymous": false,
      "inputs": [
        {
          "indexed": true,
          "internalType": "address",
          "name": "from",
          "type": "address"
        },
        {
          "indexed": true,
          "internalType": "address",
          "name": "to",
          "type": "address"
        },
        {
          "indexed": true,
          "internalType": "uint256",
          "name": "tokenId",
          "type": "uint256"
        }
      ],
      "name": "Transfer",
      "type": "event"
    },
    {
      "anonymous": false,
      "inputs": [
        {
          "indexed": false,
          "internalType": "uint256",
          "name": "tokenId",
          "type": "uint256"
        }
      ],
      "name": "Unfrozen",
      "type": "event"
    },
    {
      "anonymous": false,
      "inputs": [
        {
          "indexed": false,
          "internalType": "address",
          "name": "account",
          "type": "address"
        }
      ],
      "name": "Unpaused",
      "type": "event"
    },
    {
      "anonymous": false,
      "inputs": [
        {
          "indexed": true,
          "internalType": "address",
          "name": "implementation",
          "type": "address"
        }
      ],
      "name": "Upgraded",
      "type": "event"
    },
    {
      "inputs": [
        {
          "internalType": "address",
          "name": "newAdmin",
          "type": "address"
        }
      ],
      "name": "addAdmin",
      "outputs": [],
      "stateMutability": "nonpayable",
      "type": "function"
    },
    {
      "inputs": [
        {
          "internalType": "address",
          "name": "to",
          "type": "address"
        },
        {
          "internalType": "uint256",
          "name": "tokenId",
          "type": "uint256"
        }
      ],
      "name": "approve",
      "outputs": [],
      "stateMutability": "nonpayable",
      "type": "function"
    },
    {
      "inputs": [
        {
          "internalType": "address",
          "name": "owner",
          "type": "address"
        }
      ],
      "name": "balanceOf",
      "outputs": [
        {
          "internalType": "uint256",
          "name": "",
          "type": "uint256"
        }
      ],
      "stateMutability": "view",
      "type": "function"
    },
    {
      "inputs": [
        {
          "internalType": "uint256",
          "name": "tokenId",
          "type": "uint256"
        }
      ],
      "name": "burn",
      "outputs": [],
      "stateMutability": "nonpayable",
      "type": "function"
    },
    {
      "inputs": [
        {
          "internalType": "uint256",
          "name": "tokenId",
          "type": "uint256"
        }
      ],
      "name": "cancelSubscription",
      "outputs": [],
      "stateMutability": "nonpayable",
      "type": "function"
    },
    {
      "inputs": [
        {
          "internalType": "uint256",
          "name": "collectionId",
          "type": "uint256"
        }
      ],
      "name": "collectionURI",
      "outputs": [
        {
          "internalType": "string",
          "name": "",
          "type": "string"
        }
      ],
      "stateMutability": "view",
      "type": "function"
    },
    {
      "inputs": [],
      "name": "contractURI",
      "outputs": [
        {
          "internalType": "string",
          "name": "",
          "type": "string"
        }
      ],
      "stateMutability": "view",
      "type": "function"
    },
    {
      "inputs": [
        {
          "internalType": "uint256",
          "name": "tokenId",
          "type": "uint256"
        }
      ],
      "name": "expireSubscription",
      "outputs": [],
      "stateMutability": "nonpayable",
      "type": "function"
    },
    {
      "inputs": [
        {
          "internalType": "uint256",
          "name": "tokenId",
          "type": "uint256"
        }
      ],
      "name": "expiresAt",
      "outputs": [
        {
          "internalType": "uint64",
          "name": "",
          "type": "uint64"
        }
      ],
      "stateMutability": "view",
      "type": "function"
    },
    {
      "inputs": [
        {
          "internalType": "uint256",
          "name": "tokenId",
          "type": "uint256"
        }
      ],
      "name": "freeze",
      "outputs": [],
      "stateMutability": "nonpayable",
      "type": "function"
    },
    {
      "inputs": [
        {
          "internalType": "uint256",
          "name": "tokenId",
          "type": "uint256"
        }
      ],
      "name": "getApproved",
      "outputs": [
        {
          "internalType": "address",
          "name": "",
          "type": "address"
        }
      ],
      "stateMutability": "view",
      "type": "function"
    },
    {
      "inputs": [],
      "name": "getTrustedForwarder",
      "outputs": [
        {
          "internalType": "address",
          "name": "forwarder",
          "type": "address"
        }
      ],
      "stateMutability": "view",
      "type": "function"
    },
    {
      "inputs": [
        {
          "internalType": "string",
          "name": "__name",
          "type": "string"
        },
        {
          "internalType": "string",
          "name": "__symbol",
          "type": "string"
        }
      ],
      "name": "initialize",
      "outputs": [],
      "stateMutability": "nonpayable",
      "type": "function"
    },
    {
      "inputs": [
        {
          "internalType": "address",
          "name": "user",
          "type": "address"
        }
      ],
      "name": "isAdmin",
      "outputs": [
        {
          "internalType": "bool",
          "name": "",
          "type": "bool"
        }
      ],
      "stateMutability": "view",
      "type": "function"
    },
    {
      "inputs": [
        {
          "internalType": "address",
          "name": "_owner",
          "type": "address"
        },
        {
          "internalType": "address",
          "name": "_operator",
          "type": "address"
        }
      ],
      "name": "isApprovedForAll",
      "outputs": [
        {
          "internalType": "bool",
          "name": "isOperator",
          "type": "bool"
        }
      ],
      "stateMutability": "view",
      "type": "function"
    },
    {
      "inputs": [
        {
          "internalType": "uint256",
          "name": "tokenId",
          "type": "uint256"
        }
      ],
      "name": "isFrozen",
      "outputs": [
        {
          "internalType": "bool",
          "name": "",
          "type": "bool"
        }
      ],
      "stateMutability": "view",
      "type": "function"
    },
    {
      "inputs": [
        {
          "internalType": "uint256",
          "name": "",
          "type": "uint256"
        }
      ],
      "name": "isRenewable",
      "outputs": [
        {
          "internalType": "bool",
          "name": "",
          "type": "bool"
        }
      ],
      "stateMutability": "pure",
      "type": "function"
    },
    {
      "inputs": [
        {
          "internalType": "address",
          "name": "forwarder",
          "type": "address"
        }
      ],
      "name": "isTrustedForwarder",
      "outputs": [
        {
          "internalType": "bool",
          "name": "",
          "type": "bool"
        }
      ],
      "stateMutability": "view",
      "type": "function"
    },
    {
      "inputs": [],
      "name": "lastId",
      "outputs": [
        {
          "internalType": "uint256",
          "name": "",
          "type": "uint256"
        }
      ],
      "stateMutability": "view",
      "type": "function"
    },
    {
      "inputs": [
        {
          "internalType": "uint256",
          "name": "collectionId",
          "type": "uint256"
        },
        {
          "internalType": "address[]",
          "name": "to",
          "type": "address[]"
        },
        {
          "internalType": "bool",
          "name": "frozen",
          "type": "bool"
        },
        {
          "internalType": "uint64",
          "name": "validDuration",
          "type": "uint64"
        }
      ],
      "name": "mintCollectionToManyUsers",
      "outputs": [
        {
          "internalType": "bool",
          "name": "",
          "type": "bool"
        }
      ],
      "stateMutability": "nonpayable",
      "type": "function"
    },
    {
      "inputs": [
        {
          "internalType": "uint256",
          "name": "collectionId",
          "type": "uint256"
        },
        {
          "internalType": "address",
          "name": "to",
          "type": "address"
        },
        {
          "internalType": "bool",
          "name": "frozen",
          "type": "bool"
        },
        {
          "internalType": "uint64",
          "name": "validDuration",
          "type": "uint64"
        }
      ],
      "name": "mintToken",
      "outputs": [
        {
          "internalType": "bool",
          "name": "",
          "type": "bool"
        }
      ],
      "stateMutability": "nonpayable",
      "type": "function"
    },
    {
      "inputs": [
        {
          "internalType": "uint256[]",
          "name": "collectionIds",
          "type": "uint256[]"
        },
        {
          "internalType": "address",
          "name": "to",
          "type": "address"
        },
        {
          "internalType": "bool",
          "name": "frozen",
          "type": "bool"
        },
        {
          "internalType": "uint64",
          "name": "validDuration",
          "type": "uint64"
        }
      ],
      "name": "mintUserToManyCollections",
      "outputs": [
        {
          "internalType": "bool",
          "name": "",
          "type": "bool"
        }
      ],
      "stateMutability": "nonpayable",
      "type": "function"
    },
    {
      "inputs": [],
      "name": "name",
      "outputs": [
        {
          "internalType": "string",
          "name": "",
          "type": "string"
        }
      ],
      "stateMutability": "view",
      "type": "function"
    },
    {
      "inputs": [],
      "name": "owner",
      "outputs": [
        {
          "internalType": "address",
          "name": "",
          "type": "address"
        }
      ],
      "stateMutability": "view",
      "type": "function"
    },
    {
      "inputs": [
        {
          "internalType": "uint256",
          "name": "tokenId",
          "type": "uint256"
        }
      ],
      "name": "ownerOf",
      "outputs": [
        {
          "internalType": "address",
          "name": "",
          "type": "address"
        }
      ],
      "stateMutability": "view",
      "type": "function"
    },
    {
      "inputs": [],
      "name": "pause",
      "outputs": [],
      "stateMutability": "nonpayable",
      "type": "function"
    },
    {
      "inputs": [],
      "name": "paused",
      "outputs": [
        {
          "internalType": "bool",
          "name": "",
          "type": "bool"
        }
      ],
      "stateMutability": "view",
      "type": "function"
    },
    {
      "inputs": [],
      "name": "proxiableUUID",
      "outputs": [
        {
          "internalType": "bytes32",
          "name": "",
          "type": "bytes32"
        }
      ],
      "stateMutability": "view",
      "type": "function"
    },
    {
      "inputs": [
        {
          "internalType": "uint256",
          "name": "tokenId",
          "type": "uint256"
        }
      ],
      "name": "reclaimToken",
      "outputs": [],
      "stateMutability": "nonpayable",
      "type": "function"
    },
    {
      "inputs": [
        {
          "internalType": "address",
          "name": "admin",
          "type": "address"
        }
      ],
      "name": "removeAdmin",
      "outputs": [],
      "stateMutability": "nonpayable",
      "type": "function"
    },
    {
      "inputs": [
        {
          "internalType": "uint256",
          "name": "collectionId",
          "type": "uint256"
        }
      ],
      "name": "removeCollectionRoyalty",
      "outputs": [],
      "stateMutability": "nonpayable",
      "type": "function"
    },
    {
      "inputs": [],
      "name": "removeDefaultRoyalty",
      "outputs": [],
      "stateMutability": "nonpayable",
      "type": "function"
    },
    {
      "inputs": [
        {
          "internalType": "uint256",
          "name": "tokenId",
          "type": "uint256"
        },
        {
          "internalType": "uint64",
          "name": "duration",
          "type": "uint64"
        }
      ],
      "name": "renewSubscription",
      "outputs": [],
      "stateMutability": "nonpayable",
      "type": "function"
    },
    {
      "inputs": [],
      "name": "renounceOwnership",
      "outputs": [],
      "stateMutability": "nonpayable",
      "type": "function"
    },
    {
      "inputs": [
        {
          "internalType": "uint256",
          "name": "_tokenId",
          "type": "uint256"
        },
        {
          "internalType": "uint256",
          "name": "_salePrice",
          "type": "uint256"
        }
      ],
      "name": "royaltyInfo",
      "outputs": [
        {
          "internalType": "address",
          "name": "",
          "type": "address"
        },
        {
          "internalType": "uint256",
          "name": "",
          "type": "uint256"
        }
      ],
      "stateMutability": "view",
      "type": "function"
    },
    {
      "inputs": [
        {
          "internalType": "address",
          "name": "from",
          "type": "address"
        },
        {
          "internalType": "address",
          "name": "to",
          "type": "address"
        },
        {
          "internalType": "uint256",
          "name": "tokenId",
          "type": "uint256"
        }
      ],
      "name": "safeTransferFrom",
      "outputs": [],
      "stateMutability": "nonpayable",
      "type": "function"
    },
    {
      "inputs": [
        {
          "internalType": "address",
          "name": "from",
          "type": "address"
        },
        {
          "internalType": "address",
          "name": "to",
          "type": "address"
        },
        {
          "internalType": "uint256",
          "name": "tokenId",
          "type": "uint256"
        },
        {
          "internalType": "bytes",
          "name": "data",
          "type": "bytes"
        }
      ],
      "name": "safeTransferFrom",
      "outputs": [],
      "stateMutability": "nonpayable",
      "type": "function"
    },
    {
      "inputs": [
        {
          "internalType": "address",
          "name": "operator",
          "type": "address"
        },
        {
          "internalType": "bool",
          "name": "approved",
          "type": "bool"
        }
      ],
      "name": "setApprovalForAll",
      "outputs": [],
      "stateMutability": "nonpayable",
      "type": "function"
    },
    {
      "inputs": [
        {
          "internalType": "uint256",
          "name": "tokenId",
          "type": "uint256"
        },
        {
          "internalType": "uint64",
          "name": "newExpiration",
          "type": "uint64"
        }
      ],
      "name": "setExpiration",
      "outputs": [],
      "stateMutability": "nonpayable",
      "type": "function"
    },
    {
      "inputs": [
        {
          "internalType": "uint256",
          "name": "newLastId",
          "type": "uint256"
        }
      ],
      "name": "setLastId",
      "outputs": [],
      "stateMutability": "nonpayable",
      "type": "function"
    },
    {
      "inputs": [
        {
          "internalType": "address",
          "name": "forwarder",
          "type": "address"
        }
      ],
      "name": "setTurstedForwarder",
      "outputs": [],
      "stateMutability": "nonpayable",
      "type": "function"
    },
    {
      "inputs": [
        {
          "internalType": "bytes4",
          "name": "interfaceId",
          "type": "bytes4"
        }
      ],
      "name": "supportsInterface",
      "outputs": [
        {
          "internalType": "bool",
          "name": "",
          "type": "bool"
        }
      ],
      "stateMutability": "view",
      "type": "function"
    },
    {
      "inputs": [],
      "name": "symbol",
      "outputs": [
        {
          "internalType": "string",
          "name": "",
          "type": "string"
        }
      ],
      "stateMutability": "view",
      "type": "function"
    },
    {
      "inputs": [
        {
          "internalType": "uint256",
          "name": "tokenId",
          "type": "uint256"
        }
      ],
      "name": "tokenCollection",
      "outputs": [
        {
          "internalType": "uint256",
          "name": "",
          "type": "uint256"
        }
      ],
      "stateMutability": "view",
      "type": "function"
    },
    {
      "inputs": [
        {
          "internalType": "uint256",
          "name": "tokenId",
          "type": "uint256"
        }
      ],
      "name": "tokenURI",
      "outputs": [
        {
          "internalType": "string",
          "name": "",
          "type": "string"
        }
      ],
      "stateMutability": "view",
      "type": "function"
    },
    {
      "inputs": [
        {
          "internalType": "address",
          "name": "from",
          "type": "address"
        },
        {
          "internalType": "address",
          "name": "to",
          "type": "address"
        },
        {
          "internalType": "uint256",
          "name": "tokenId",
          "type": "uint256"
        }
      ],
      "name": "transferFrom",
      "outputs": [],
      "stateMutability": "nonpayable",
      "type": "function"
    },
    {
      "inputs": [
        {
          "internalType": "address",
          "name": "newOwner",
          "type": "address"
        }
      ],
      "name": "transferOwnership",
      "outputs": [],
      "stateMutability": "nonpayable",
      "type": "function"
    },
    {
      "inputs": [
        {
          "internalType": "uint256",
          "name": "tokenId",
          "type": "uint256"
        }
      ],
      "name": "unfreeze",
      "outputs": [],
      "stateMutability": "nonpayable",
      "type": "function"
    },
    {
      "inputs": [],
      "name": "unpause",
      "outputs": [],
      "stateMutability": "nonpayable",
      "type": "function"
    },
    {
      "inputs": [
        {
          "internalType": "uint256",
          "name": "collectionId",
          "type": "uint256"
        },
        {
          "internalType": "address",
          "name": "receiver",
          "type": "address"
        },
        {
          "internalType": "uint96",
          "name": "feeNumerator",
          "type": "uint96"
        }
      ],
      "name": "updateCollectionRoyalty",
      "outputs": [],
      "stateMutability": "nonpayable",
      "type": "function"
    },
    {
      "inputs": [
        {
          "internalType": "string",
          "name": "__contractURI",
          "type": "string"
        }
      ],
      "name": "updateContractURI",
      "outputs": [],
      "stateMutability": "nonpayable",
      "type": "function"
    },
    {
      "inputs": [
        {
          "internalType": "address",
          "name": "receiver",
          "type": "address"
        },
        {
          "internalType": "uint96",
          "name": "feeNumerator",
          "type": "uint96"
        }
      ],
      "name": "updateDefaultRoyalty",
      "outputs": [],
      "stateMutability": "nonpayable",
      "type": "function"
    },
    {
      "inputs": [
        {
          "internalType": "address",
          "name": "newImplementation",
          "type": "address"
        }
      ],
      "name": "upgradeTo",
      "outputs": [],
      "stateMutability": "nonpayable",
      "type": "function"
    },
    {
      "inputs": [
        {
          "internalType": "address",
          "name": "newImplementation",
          "type": "address"
        },
        {
          "internalType": "bytes",
          "name": "data",
          "type": "bytes"
        }
      ],
      "name": "upgradeToAndCall",
      "outputs": [],
      "stateMutability": "payable",
      "type": "function"
    }
  ],
  "bytecode": "0x60a0604052306080523480156200001557600080fd5b506200002062000026565b620000e8565b600054610100900460ff1615620000935760405162461bcd60e51b815260206004820152602760248201527f496e697469616c697a61626c653a20636f6e747261637420697320696e697469604482015266616c697a696e6760c81b606482015260840160405180910390fd5b60005460ff9081161015620000e6576000805460ff191660ff9081179091556040519081527f7f26b83ff96e1f2b6a682f133852f6798a09c465da95921460cefb38474024989060200160405180910390a15b565b6080516158e6620001206000396000818161131e015281816113b401528181611a2d01528181611ac30152611d2c01526158e66000f3fe6080604052600436106103555760003560e01c806370480275116101bb578063b88d4fde116100f7578063d691e43c11610095578063e8a3d4851161006f578063e8a3d48514610a27578063e985e9c514610a3c578063f2fde38b14610a5c578063fb1fcca114610a7c57600080fd5b8063d691e43c146109c7578063d7a78db8146109e7578063d953e4d414610a0757600080fd5b8063cde317af116100d1578063cde317af1461093a578063ce1b815f1461095b578063cea0302e14610987578063d1c332de146109a757600080fd5b8063b88d4fde146108e3578063c1292cc314610903578063c87b56dd1461091a57600080fd5b80638da5cb5b1161016457806397ec4fba1161013e57806397ec4fba1461086e5780639a80c5e314610883578063a0894799146108a3578063a22cb465146108c357600080fd5b80638da5cb5b1461080e5780638e45d62e1461083957806395d89b411461085957600080fd5b8063776ce86811610195578063776ce868146107b95780637e5b1e24146107d95780638456cb59146107f957600080fd5b8063704802751461076457806370a0823114610784578063715018a6146107a457600080fd5b80633659cfe611610295578063508061a2116102335780635c975abb1161020d5780635c975abb146106ec5780636352211e146107045780636623fc46146107245780636a662a3c1461074457600080fd5b8063508061a21461067a57806352d1902d1461069a578063572b6c05146106af57600080fd5b806342966c681161026f57806342966c6814610607578063493a7576146106275780634cd88b76146106475780634f1ef2861461066757600080fd5b80633659cfe6146105b25780633f4ba83a146105d257806342842e0e146105e757600080fd5b806317c957091161030257806323b872dd116102dc57806323b872dd146104d157806324d7806c146104f15780632a55205a146105385780632dd883e81461058457600080fd5b806317c95709146104585780631a27e85f1461049157806321235083146104b157600080fd5b8063095ea7b311610333578063095ea7b3146103f65780631771c96c146104185780631785f53c1461043857600080fd5b806301ffc9a71461035a57806306fdde031461038f578063081812fc146103b1575b600080fd5b34801561036657600080fd5b5061037a610375366004614df2565b610a9c565b60405190151581526020015b60405180910390f35b34801561039b57600080fd5b506103a4610b44565b6040516103869190614e85565b3480156103bd57600080fd5b506103d16103cc366004614e98565b610bd6565b60405173ffffffffffffffffffffffffffffffffffffffff9091168152602001610386565b34801561040257600080fd5b50610416610411366004614eda565b610c0a565b005b34801561042457600080fd5b506103a4610433366004614e98565b610d87565b34801561044457600080fd5b50610416610453366004614f04565b610dbc565b34801561046457600080fd5b50610478610473366004614e98565b610ef7565b60405167ffffffffffffffff9091168152602001610386565b34801561049d57600080fd5b506104166104ac366004614e98565b610f20565b3480156104bd57600080fd5b506104166104cc366004614e98565b611031565b3480156104dd57600080fd5b506104166104ec366004614f1f565b61114e565b3480156104fd57600080fd5b5061037a61050c366004614f04565b73ffffffffffffffffffffffffffffffffffffffff166000908152610199602052604090205460ff1690565b34801561054457600080fd5b50610558610553366004614f5b565b6111dc565b6040805173ffffffffffffffffffffffffffffffffffffffff9093168352602083019190915201610386565b34801561059057600080fd5b506105a461059f366004614e98565b6112e7565b604051908152602001610386565b3480156105be57600080fd5b506104166105cd366004614f04565b611306565b3480156105de57600080fd5b506104166114d8565b3480156105f357600080fd5b50610416610602366004614f1f565b611593565b34801561061357600080fd5b50610416610622366004614e98565b6115ae565b34801561063357600080fd5b50610416610642366004614e98565b611634565b34801561065357600080fd5b50610416610662366004615089565b6117d1565b6104166106753660046150ed565b611a15565b34801561068657600080fd5b50610416610695366004614e98565b611bd8565b3480156106a657600080fd5b506105a4611d12565b3480156106bb57600080fd5b5061037a6106ca366004614f04565b6101915473ffffffffffffffffffffffffffffffffffffffff91821691161490565b3480156106f857600080fd5b5060c95460ff1661037a565b34801561071057600080fd5b506103d161071f366004614e98565b611de4565b34801561073057600080fd5b5061041661073f366004614e98565b611e56565b34801561075057600080fd5b5061041661075f36600461514d565b611f6d565b34801561077057600080fd5b5061041661077f366004614f04565b612029565b34801561079057600080fd5b506105a461079f366004614f04565b612140565b3480156107b057600080fd5b506104166121f4565b3480156107c557600080fd5b506104166107d43660046151a1565b612206565b3480156107e557600080fd5b506104166107f43660046151cd565b6122ca565b34801561080557600080fd5b5061041661238f565b34801561081a57600080fd5b5060fb5473ffffffffffffffffffffffffffffffffffffffff166103d1565b34801561084557600080fd5b5061037a610854366004615212565b612448565b34801561086557600080fd5b506103a4612539565b34801561087a57600080fd5b50610416612548565b34801561088f57600080fd5b5061037a61089e366004615283565b612604565b3480156108af57600080fd5b5061037a6108be366004614e98565b61276f565b3480156108cf57600080fd5b506104166108de366004615334565b612791565b3480156108ef57600080fd5b506104166108fe36600461535e565b6127a3565b34801561090f57600080fd5b506105a46101935481565b34801561092657600080fd5b506103a4610935366004614e98565b612838565b34801561094657600080fd5b5061037a610955366004614e98565b50600190565b34801561096757600080fd5b506101915473ffffffffffffffffffffffffffffffffffffffff166103d1565b34801561099357600080fd5b506104166109a2366004614f04565b612889565b3480156109b357600080fd5b506104166109c23660046151a1565b61297e565b3480156109d357600080fd5b506104166109e23660046153c6565b612a38565b3480156109f357600080fd5b50610416610a02366004614e98565b612af3565b348015610a1357600080fd5b50610416610a22366004614e98565b612bb5565b348015610a3357600080fd5b506103a4612c78565b348015610a4857600080fd5b5061037a610a573660046153f0565b612d07565b348015610a6857600080fd5b50610416610a77366004614f04565b612dad565b348015610a8857600080fd5b5061037a610a9736600461541a565b612e47565b60007fffffffff0000000000000000000000000000000000000000000000000000000082167f8c65f84d000000000000000000000000000000000000000000000000000000001480610b2f57507fffffffff0000000000000000000000000000000000000000000000000000000082167f2a55205a00000000000000000000000000000000000000000000000000000000145b80610b3e5750610b3e82612fa1565b92915050565b606060658054610b53906154c5565b80601f0160208091040260200160405190810160405280929190818152602001828054610b7f906154c5565b8015610bcc5780601f10610ba157610100808354040283529160200191610bcc565b820191906000526020600020905b815481529060010190602001808311610baf57829003601f168201915b5050505050905090565b6000610be182613084565b5060009081526069602052604090205473ffffffffffffffffffffffffffffffffffffffff1690565b6000610c1582611de4565b90508073ffffffffffffffffffffffffffffffffffffffff168373ffffffffffffffffffffffffffffffffffffffff161415610cbe5760405162461bcd60e51b815260206004820152602160248201527f4552433732313a20617070726f76616c20746f2063757272656e74206f776e6560448201527f720000000000000000000000000000000000000000000000000000000000000060648201526084015b60405180910390fd5b8073ffffffffffffffffffffffffffffffffffffffff16610cdd6130f5565b73ffffffffffffffffffffffffffffffffffffffff161480610d065750610d0681610a576130f5565b610d785760405162461bcd60e51b815260206004820152603e60248201527f4552433732313a20617070726f76652063616c6c6572206973206e6f7420746f60448201527f6b656e206f776e6572206e6f7220617070726f76656420666f7220616c6c00006064820152608401610cb5565b610d828383613104565b505050565b6060610192610d95836131a4565b604051602001610da69291906155ea565b6040516020818303038152906040529050919050565b610dc46130f5565b73ffffffffffffffffffffffffffffffffffffffff16610df960fb5473ffffffffffffffffffffffffffffffffffffffff1690565b73ffffffffffffffffffffffffffffffffffffffff161480610e215750610e2161050c6130f5565b610e6d5760405162461bcd60e51b815260206004820152601c60248201527f63616c6c6572206973206e6f74206f776e6572206f722061646d696e000000006044820152606401610cb5565b73ffffffffffffffffffffffffffffffffffffffff811660008181526101996020908152604080832080547fffffffffffffffffffffffffffffffffffffffffffffffffffffffffffffff001690558051938452908301919091527f235bc17e7930760029e9f4d860a2a8089976de5b381cf8380fc11c1d88a1113391015b60405180910390a150565b6000610f0282613084565b506000908152610198602052604090205467ffffffffffffffff1690565b610f286130f5565b73ffffffffffffffffffffffffffffffffffffffff16610f5d60fb5473ffffffffffffffffffffffffffffffffffffffff1690565b73ffffffffffffffffffffffffffffffffffffffff161480610f855750610f8561050c6130f5565b610fd15760405162461bcd60e51b815260206004820152601c60248201527f63616c6c6572206973206e6f74206f776e6572206f722061646d696e000000006044820152606401610cb5565b610fd96132d6565b80610193541061102b5760405162461bcd60e51b815260206004820152601760248201527f4e65772049642068617320746f206265206869676865720000000000000000006044820152606401610cb5565b61019355565b6110396130f5565b73ffffffffffffffffffffffffffffffffffffffff1661106e60fb5473ffffffffffffffffffffffffffffffffffffffff1690565b73ffffffffffffffffffffffffffffffffffffffff161480611096575061109661050c6130f5565b6110e25760405162461bcd60e51b815260206004820152601c60248201527f63616c6c6572206973206e6f74206f776e6572206f722061646d696e000000006044820152606401610cb5565b60008181526101986020908152604080832080547fffffffffffffffffffffffffffffffffffffffffffffffff00000000000000001690555191825282917f2ec2be2c4b90c2cf13ecb6751a24daed6bb741ae5ed3f7371aabf9402f6d62e8910160405180910390a250565b61115f6111596130f5565b82613329565b6111d15760405162461bcd60e51b815260206004820152602e60248201527f4552433732313a2063616c6c6572206973206e6f7420746f6b656e206f776e6560448201527f72206e6f7220617070726f7665640000000000000000000000000000000000006064820152608401610cb5565b610d828383836133bb565b60008060006111ea856112e7565b6000818152610197602090815260409182902082518084019093525473ffffffffffffffffffffffffffffffffffffffff8116808452740100000000000000000000000000000000000000009091046bffffffffffffffffffffffff1691830191909152919250906112aa5750604080518082019091526101965473ffffffffffffffffffffffffffffffffffffffff811682527401000000000000000000000000000000000000000090046bffffffffffffffffffffffff1660208201525b6020810151600090612710906112ce906bffffffffffffffffffffffff168861563e565b6112d891906156aa565b91519791965090945050505050565b60006112f282613084565b506000908152610194602052604090205490565b3073ffffffffffffffffffffffffffffffffffffffff7f00000000000000000000000000000000000000000000000000000000000000001614156113b25760405162461bcd60e51b815260206004820152602c60248201527f46756e6374696f6e206d7573742062652063616c6c6564207468726f7567682060448201527f64656c656761746563616c6c00000000000000000000000000000000000000006064820152608401610cb5565b7f000000000000000000000000000000000000000000000000000000000000000073ffffffffffffffffffffffffffffffffffffffff166114277f360894a13ba1a3210667c828492db98dca3e2076cc3735a920a3ca505d382bbc5473ffffffffffffffffffffffffffffffffffffffff1690565b73ffffffffffffffffffffffffffffffffffffffff16146114b05760405162461bcd60e51b815260206004820152602c60248201527f46756e6374696f6e206d7573742062652063616c6c6564207468726f7567682060448201527f6163746976652070726f787900000000000000000000000000000000000000006064820152608401610cb5565b6114b9816135f9565b604080516000808252602082019092526114d5918391906136aa565b50565b6114e06130f5565b73ffffffffffffffffffffffffffffffffffffffff1661151560fb5473ffffffffffffffffffffffffffffffffffffffff1690565b73ffffffffffffffffffffffffffffffffffffffff16148061153d575061153d61050c6130f5565b6115895760405162461bcd60e51b815260206004820152601c60248201527f63616c6c6572206973206e6f74206f776e6572206f722061646d696e000000006044820152606401610cb5565b611591613875565b565b610d82838383604051806020016040528060008152506127a3565b6115b96111596130f5565b61162b5760405162461bcd60e51b815260206004820152602e60248201527f4552433732313a2063616c6c6572206973206e6f7420746f6b656e206f776e6560448201527f72206e6f7220617070726f7665640000000000000000000000000000000000006064820152608401610cb5565b6114d5816138f8565b61163c6130f5565b73ffffffffffffffffffffffffffffffffffffffff1661167160fb5473ffffffffffffffffffffffffffffffffffffffff1690565b73ffffffffffffffffffffffffffffffffffffffff161480611699575061169961050c6130f5565b6116e55760405162461bcd60e51b815260206004820152601c60248201527f63616c6c6572206973206e6f74206f776e6572206f722061646d696e000000006044820152606401610cb5565b60008181526101986020526040902054429067ffffffffffffffff808316911610156117535760405162461bcd60e51b815260206004820152601f60248201527f546f6b656e2063616e6e6f7420616c72656164792062652065787069726564006044820152606401610cb5565b6000828152610198602090815260409182902080547fffffffffffffffffffffffffffffffffffffffffffffffff00000000000000001667ffffffffffffffff8516908117909155915191825283917f2ec2be2c4b90c2cf13ecb6751a24daed6bb741ae5ed3f7371aabf9402f6d62e8910160405180910390a25050565b600054610100900460ff16158080156117f15750600054600160ff909116105b8061180b5750303b15801561180b575060005460ff166001145b61187d5760405162461bcd60e51b815260206004820152602e60248201527f496e697469616c697a61626c653a20636f6e747261637420697320616c72656160448201527f647920696e697469616c697a65640000000000000000000000000000000000006064820152608401610cb5565b600080547fffffffffffffffffffffffffffffffffffffffffffffffffffffffffffffff0016600117905580156118db57600080547fffffffffffffffffffffffffffffffffffffffffffffffffffffffffffff00ff166101001790555b6118e58383613974565b6118ed6139fb565b6118f5613a80565b6118fd613b05565b611905613b05565b739367ee417ae552cb94f3249d0424000747877aa8600081905261019960209081527fba4450de6f0bfa5c2d7737230b0f2eb1ba62f1bb4896e8c70a5dc7764e12eee680547fffffffffffffffffffffffffffffffffffffffffffffffffffffffffffffff0016600190811790915560408051848152928301919091527f235bc17e7930760029e9f4d860a2a8089976de5b381cf8380fc11c1d88a11133910160405180910390a1508015610d8257600080547fffffffffffffffffffffffffffffffffffffffffffffffffffffffffffff00ff169055604051600181527f7f26b83ff96e1f2b6a682f133852f6798a09c465da95921460cefb38474024989060200160405180910390a1505050565b3073ffffffffffffffffffffffffffffffffffffffff7f0000000000000000000000000000000000000000000000000000000000000000161415611ac15760405162461bcd60e51b815260206004820152602c60248201527f46756e6374696f6e206d7573742062652063616c6c6564207468726f7567682060448201527f64656c656761746563616c6c00000000000000000000000000000000000000006064820152608401610cb5565b7f000000000000000000000000000000000000000000000000000000000000000073ffffffffffffffffffffffffffffffffffffffff16611b367f360894a13ba1a3210667c828492db98dca3e2076cc3735a920a3ca505d382bbc5473ffffffffffffffffffffffffffffffffffffffff1690565b73ffffffffffffffffffffffffffffffffffffffff1614611bbf5760405162461bcd60e51b815260206004820152602c60248201527f46756e6374696f6e206d7573742062652063616c6c6564207468726f7567682060448201527f6163746976652070726f787900000000000000000000000000000000000000006064820152608401610cb5565b611bc8826135f9565b611bd4828260016136aa565b5050565b611be06130f5565b73ffffffffffffffffffffffffffffffffffffffff16611c1560fb5473ffffffffffffffffffffffffffffffffffffffff1690565b73ffffffffffffffffffffffffffffffffffffffff161480611c3d5750611c3d61050c6130f5565b611c895760405162461bcd60e51b815260206004820152601c60248201527f63616c6c6572206973206e6f74206f776e6572206f722061646d696e000000006044820152606401610cb5565b611c928161276f565b611cde5760405162461bcd60e51b815260206004820152601460248201527f546f6b656e206d7573742062652066726f7a656e0000000000000000000000006044820152606401610cb5565b611ce781613b82565b6114d5611cf382611de4565b60fb5473ffffffffffffffffffffffffffffffffffffffff16836133bb565b60003073ffffffffffffffffffffffffffffffffffffffff7f00000000000000000000000000000000000000000000000000000000000000001614611dbf5760405162461bcd60e51b815260206004820152603860248201527f555550535570677261646561626c653a206d757374206e6f742062652063616c60448201527f6c6564207468726f7567682064656c656761746563616c6c00000000000000006064820152608401610cb5565b507f360894a13ba1a3210667c828492db98dca3e2076cc3735a920a3ca505d382bbc90565b60008181526067602052604081205473ffffffffffffffffffffffffffffffffffffffff1680610b3e5760405162461bcd60e51b815260206004820152601860248201527f4552433732313a20696e76616c696420746f6b656e20494400000000000000006044820152606401610cb5565b611e5e6130f5565b73ffffffffffffffffffffffffffffffffffffffff16611e9360fb5473ffffffffffffffffffffffffffffffffffffffff1690565b73ffffffffffffffffffffffffffffffffffffffff161480611ebb5750611ebb61050c6130f5565b611f075760405162461bcd60e51b815260206004820152601c60248201527f63616c6c6572206973206e6f74206f776e6572206f722061646d696e000000006044820152606401610cb5565b611f0f6132d6565b611f188161276f565b611f645760405162461bcd60e51b815260206004820152601360248201527f546f6b656e206973206e6f742066726f7a656e000000000000000000000000006044820152606401610cb5565b6114d581613b82565b611f756130f5565b73ffffffffffffffffffffffffffffffffffffffff16611faa60fb5473ffffffffffffffffffffffffffffffffffffffff1690565b73ffffffffffffffffffffffffffffffffffffffff161480611fd25750611fd261050c6130f5565b61201e5760405162461bcd60e51b815260206004820152601c60248201527f63616c6c6572206973206e6f74206f776e6572206f722061646d696e000000006044820152606401610cb5565b610d82838383613be9565b612031613d40565b73ffffffffffffffffffffffffffffffffffffffff81166120b95760405162461bcd60e51b8152602060048201526024808201527f4e65772061646d696e2063616e6e6f7420626520746865207a65726f2061646460448201527f72657373000000000000000000000000000000000000000000000000000000006064820152608401610cb5565b73ffffffffffffffffffffffffffffffffffffffff81166000818152610199602090815260409182902080547fffffffffffffffffffffffffffffffffffffffffffffffffffffffffffffff001660019081179091558251938452908301527f235bc17e7930760029e9f4d860a2a8089976de5b381cf8380fc11c1d88a111339101610eec565b600073ffffffffffffffffffffffffffffffffffffffff82166121cb5760405162461bcd60e51b815260206004820152602960248201527f4552433732313a2061646472657373207a65726f206973206e6f74206120766160448201527f6c6964206f776e657200000000000000000000000000000000000000000000006064820152608401610cb5565b5073ffffffffffffffffffffffffffffffffffffffff1660009081526068602052604090205490565b6121fc613d40565b6115916000613de0565b61220e6130f5565b73ffffffffffffffffffffffffffffffffffffffff1661224360fb5473ffffffffffffffffffffffffffffffffffffffff1690565b73ffffffffffffffffffffffffffffffffffffffff16148061226b575061226b61050c6130f5565b6122b75760405162461bcd60e51b815260206004820152601c60248201527f63616c6c6572206973206e6f74206f776e6572206f722061646d696e000000006044820152606401610cb5565b6122c082613084565b611bd48282613e57565b6122d26130f5565b73ffffffffffffffffffffffffffffffffffffffff1661230760fb5473ffffffffffffffffffffffffffffffffffffffff1690565b73ffffffffffffffffffffffffffffffffffffffff16148061232f575061232f61050c6130f5565b61237b5760405162461bcd60e51b815260206004820152601c60248201527f63616c6c6572206973206e6f74206f776e6572206f722061646d696e000000006044820152606401610cb5565b8051611bd490610192906020840190614d2b565b6123976130f5565b73ffffffffffffffffffffffffffffffffffffffff166123cc60fb5473ffffffffffffffffffffffffffffffffffffffff1690565b73ffffffffffffffffffffffffffffffffffffffff1614806123f457506123f461050c6130f5565b6124405760405162461bcd60e51b815260206004820152601c60248201527f63616c6c6572206973206e6f74206f776e6572206f722061646d696e000000006044820152606401610cb5565b611591613f15565b60006124526132d6565b61245a6130f5565b73ffffffffffffffffffffffffffffffffffffffff1661248f60fb5473ffffffffffffffffffffffffffffffffffffffff1690565b73ffffffffffffffffffffffffffffffffffffffff1614806124b757506124b761050c6130f5565b6125035760405162461bcd60e51b815260206004820152601c60248201527f63616c6c6572206973206e6f74206f776e6572206f722061646d696e000000006044820152606401610cb5565b6001610193600082825461251791906156be565b9250508190555061252e8561019354868686613f71565b90505b949350505050565b606060668054610b53906154c5565b6125506130f5565b73ffffffffffffffffffffffffffffffffffffffff1661258560fb5473ffffffffffffffffffffffffffffffffffffffff1690565b73ffffffffffffffffffffffffffffffffffffffff1614806125ad57506125ad61050c6130f5565b6125f95760405162461bcd60e51b815260206004820152601c60248201527f63616c6c6572206973206e6f74206f776e6572206f722061646d696e000000006044820152606401610cb5565b611591600061019655565b600061260e6132d6565b6126166130f5565b73ffffffffffffffffffffffffffffffffffffffff1661264b60fb5473ffffffffffffffffffffffffffffffffffffffff1690565b73ffffffffffffffffffffffffffffffffffffffff161480612673575061267361050c6130f5565b6126bf5760405162461bcd60e51b815260206004820152601c60248201527f63616c6c6572206973206e6f74206f776e6572206f722061646d696e000000006044820152606401610cb5565b60006126cb83426156d6565b905060005b8551811015612749576000816101935460016126ec91906156be565b6126f691906156be565b905061271d888289858151811061270f5761270f6156f9565b602002602001015189613fc4565b5067ffffffffffffffff85161561273857612738818461297e565b5061274281615728565b90506126d0565b508451610193600082825461275e91906156be565b909155506001979650505050505050565b600061277a82613084565b506000908152610195602052604090205460ff1690565b611bd461279c6130f5565b8383613ffc565b6127b46127ae6130f5565b83613329565b6128265760405162461bcd60e51b815260206004820152602e60248201527f4552433732313a2063616c6c6572206973206e6f7420746f6b656e206f776e6560448201527f72206e6f7220617070726f7665640000000000000000000000000000000000006064820152608401610cb5565b61283284848484614110565b50505050565b60008181526101946020526040902054606090610192612857826131a4565b612860856131a4565b60405160200161287293929190615761565b604051602081830303815290604052915050919050565b6128916130f5565b73ffffffffffffffffffffffffffffffffffffffff166128c660fb5473ffffffffffffffffffffffffffffffffffffffff1690565b73ffffffffffffffffffffffffffffffffffffffff1614806128ee57506128ee61050c6130f5565b61293a5760405162461bcd60e51b815260206004820152601c60248201527f63616c6c6572206973206e6f74206f776e6572206f722061646d696e000000006044820152606401610cb5565b61019180547fffffffffffffffffffffffff00000000000000000000000000000000000000001673ffffffffffffffffffffffffffffffffffffffff831617905550565b6129866130f5565b73ffffffffffffffffffffffffffffffffffffffff166129bb60fb5473ffffffffffffffffffffffffffffffffffffffff1690565b73ffffffffffffffffffffffffffffffffffffffff1614806129e357506129e361050c6130f5565b612a2f5760405162461bcd60e51b815260206004820152601c60248201527f63616c6c6572206973206e6f74206f776e6572206f722061646d696e000000006044820152606401610cb5565b61175382613084565b612a406130f5565b73ffffffffffffffffffffffffffffffffffffffff16612a7560fb5473ffffffffffffffffffffffffffffffffffffffff1690565b73ffffffffffffffffffffffffffffffffffffffff161480612a9d5750612a9d61050c6130f5565b612ae95760405162461bcd60e51b815260206004820152601c60248201527f63616c6c6572206973206e6f74206f776e6572206f722061646d696e000000006044820152606401610cb5565b611bd48282614199565b612afb6130f5565b73ffffffffffffffffffffffffffffffffffffffff16612b3060fb5473ffffffffffffffffffffffffffffffffffffffff1690565b73ffffffffffffffffffffffffffffffffffffffff161480612b585750612b5861050c6130f5565b612ba45760405162461bcd60e51b815260206004820152601c60248201527f63616c6c6572206973206e6f74206f776e6572206f722061646d696e000000006044820152606401610cb5565b612bac6132d6565b6114d5816142df565b612bbd6130f5565b73ffffffffffffffffffffffffffffffffffffffff16612bf260fb5473ffffffffffffffffffffffffffffffffffffffff1690565b73ffffffffffffffffffffffffffffffffffffffff161480612c1a5750612c1a61050c6130f5565b612c665760405162461bcd60e51b815260206004820152601c60248201527f63616c6c6572206973206e6f74206f776e6572206f722061646d696e000000006044820152606401610cb5565b60009081526101976020526040812055565b6101928054612c86906154c5565b80601f0160208091040260200160405190810160405280929190818152602001828054612cb2906154c5565b8015612cff5780601f10612cd457610100808354040283529160200191612cff565b820191906000526020600020905b815481529060010190602001808311612ce257829003601f168201915b505050505081565b600073ffffffffffffffffffffffffffffffffffffffff82166e6c3852cbef3e08e8df289169ede5811480612d62575073ffffffffffffffffffffffffffffffffffffffff82166000908152610199602052604090205460ff165b15612d6f57506001610b3e565b73ffffffffffffffffffffffffffffffffffffffff8084166000908152606a602090815260408083209386168352929052205460ff165b9392505050565b612db5613d40565b73ffffffffffffffffffffffffffffffffffffffff8116612e3e5760405162461bcd60e51b815260206004820152602660248201527f4f776e61626c653a206e6577206f776e657220697320746865207a65726f206160448201527f64647265737300000000000000000000000000000000000000000000000000006064820152608401610cb5565b6114d581613de0565b6000612e516132d6565b612e596130f5565b73ffffffffffffffffffffffffffffffffffffffff16612e8e60fb5473ffffffffffffffffffffffffffffffffffffffff1690565b73ffffffffffffffffffffffffffffffffffffffff161480612eb65750612eb661050c6130f5565b612f025760405162461bcd60e51b815260206004820152601c60248201527f63616c6c6572206973206e6f74206f776e6572206f722061646d696e000000006044820152606401610cb5565b6000612f0e83426156d6565b905060005b8651811015612f8c57600081610193546001612f2f91906156be565b612f3991906156be565b9050612f60888381518110612f5057612f506156f9565b6020026020010151828989613fc4565b5067ffffffffffffffff851615612f7b57612f7b818461297e565b50612f8581615728565b9050612f13565b508551610193600082825461275e91906156be565b60007fffffffff0000000000000000000000000000000000000000000000000000000082167f80ac58cd00000000000000000000000000000000000000000000000000000000148061303457507fffffffff0000000000000000000000000000000000000000000000000000000082167f5b5e139f00000000000000000000000000000000000000000000000000000000145b80610b3e57507f01ffc9a7000000000000000000000000000000000000000000000000000000007fffffffff00000000000000000000000000000000000000000000000000000000831614610b3e565b60008181526067602052604090205473ffffffffffffffffffffffffffffffffffffffff166114d55760405162461bcd60e51b815260206004820152601860248201527f4552433732313a20696e76616c696420746f6b656e20494400000000000000006044820152606401610cb5565b60006130ff614349565b905090565b600081815260696020526040902080547fffffffffffffffffffffffff00000000000000000000000000000000000000001673ffffffffffffffffffffffffffffffffffffffff8416908117909155819061315e82611de4565b73ffffffffffffffffffffffffffffffffffffffff167f8c5be1e5ebec7d5bd14f71427d1e84f3dd0314c0f7b2291e5b200ac8c7c3b92560405160405180910390a45050565b6060816131e457505060408051808201909152600181527f3000000000000000000000000000000000000000000000000000000000000000602082015290565b8160005b811561320e57806131f881615728565b91506132079050600a836156aa565b91506131e8565b60008167ffffffffffffffff81111561322957613229614f7d565b6040519080825280601f01601f191660200182016040528015613253576020820181803683370190505b5090505b8415612531576132686001836157c3565b9150613275600a866157da565b6132809060306156be565b60f81b818381518110613295576132956156f9565b60200101907effffffffffffffffffffffffffffffffffffffffffffffffffffffffffffff1916908160001a9053506132cf600a866156aa565b9450613257565b60c95460ff16156115915760405162461bcd60e51b815260206004820152601060248201527f5061757361626c653a20706175736564000000000000000000000000000000006044820152606401610cb5565b60008061333583611de4565b90508073ffffffffffffffffffffffffffffffffffffffff168473ffffffffffffffffffffffffffffffffffffffff16148061337657506133768185612d07565b8061253157508373ffffffffffffffffffffffffffffffffffffffff1661339c84610bd6565b73ffffffffffffffffffffffffffffffffffffffff1614949350505050565b8273ffffffffffffffffffffffffffffffffffffffff166133db82611de4565b73ffffffffffffffffffffffffffffffffffffffff16146134645760405162461bcd60e51b815260206004820152602560248201527f4552433732313a207472616e736665722066726f6d20696e636f72726563742060448201527f6f776e65720000000000000000000000000000000000000000000000000000006064820152608401610cb5565b73ffffffffffffffffffffffffffffffffffffffff82166134ec5760405162461bcd60e51b8152602060048201526024808201527f4552433732313a207472616e7366657220746f20746865207a65726f2061646460448201527f72657373000000000000000000000000000000000000000000000000000000006064820152608401610cb5565b6134f78383836143a9565b613502600082613104565b73ffffffffffffffffffffffffffffffffffffffff831660009081526068602052604081208054600192906135389084906157c3565b909155505073ffffffffffffffffffffffffffffffffffffffff821660009081526068602052604081208054600192906135739084906156be565b909155505060008181526067602052604080822080547fffffffffffffffffffffffff00000000000000000000000000000000000000001673ffffffffffffffffffffffffffffffffffffffff86811691821790925591518493918716917fddf252ad1be2c89b69c2b068fc378daa952ba7f163c4a11628f55a4df523b3ef91a4505050565b6136016130f5565b73ffffffffffffffffffffffffffffffffffffffff1661363660fb5473ffffffffffffffffffffffffffffffffffffffff1690565b73ffffffffffffffffffffffffffffffffffffffff16148061365e575061365e61050c6130f5565b6114d55760405162461bcd60e51b815260206004820152601c60248201527f63616c6c6572206973206e6f74206f776e6572206f722061646d696e000000006044820152606401610cb5565b7f4910fdfa16fed3260ed0e7147f7cc6da11a60208b5b9406d12a635614ffd91435460ff16156136dd57610d828361440d565b8273ffffffffffffffffffffffffffffffffffffffff166352d1902d6040518163ffffffff1660e01b8152600401602060405180830381865afa925050508015613762575060408051601f3d9081017fffffffffffffffffffffffffffffffffffffffffffffffffffffffffffffffe016820190925261375f918101906157ee565b60015b6137d45760405162461bcd60e51b815260206004820152602e60248201527f45524331393637557067726164653a206e657720696d706c656d656e7461746960448201527f6f6e206973206e6f7420555550530000000000000000000000000000000000006064820152608401610cb5565b7f360894a13ba1a3210667c828492db98dca3e2076cc3735a920a3ca505d382bbc81146138695760405162461bcd60e51b815260206004820152602960248201527f45524331393637557067726164653a20756e737570706f727465642070726f7860448201527f6961626c655555494400000000000000000000000000000000000000000000006064820152608401610cb5565b50610d828383836144fd565b61387d614522565b60c980547fffffffffffffffffffffffffffffffffffffffffffffffffffffffffffffff001690557f5db9ee0a495bf2e6ff9c91a7834c1ba4fdd244a5e8aa4e537bd38aeae4b073aa6138ce6130f5565b60405173ffffffffffffffffffffffffffffffffffffffff909116815260200160405180910390a1565b61390181614574565b600090815261019460209081526040808320839055610195825280832080547fffffffffffffffffffffffffffffffffffffffffffffffffffffffffffffff00169055610198909152902080547fffffffffffffffffffffffffffffffffffffffffffffffff0000000000000000169055565b600054610100900460ff166139f15760405162461bcd60e51b815260206004820152602b60248201527f496e697469616c697a61626c653a20636f6e7472616374206973206e6f74206960448201527f6e697469616c697a696e670000000000000000000000000000000000000000006064820152608401610cb5565b611bd4828261464d565b600054610100900460ff16613a785760405162461bcd60e51b815260206004820152602b60248201527f496e697469616c697a61626c653a20636f6e7472616374206973206e6f74206960448201527f6e697469616c697a696e670000000000000000000000000000000000000000006064820152608401610cb5565b6115916146f1565b600054610100900460ff16613afd5760405162461bcd60e51b815260206004820152602b60248201527f496e697469616c697a61626c653a20636f6e7472616374206973206e6f74206960448201527f6e697469616c697a696e670000000000000000000000000000000000000000006064820152608401610cb5565b611591614798565b600054610100900460ff166115915760405162461bcd60e51b815260206004820152602b60248201527f496e697469616c697a61626c653a20636f6e7472616374206973206e6f74206960448201527f6e697469616c697a696e670000000000000000000000000000000000000000006064820152608401610cb5565b600081815261019560205260409081902080547fffffffffffffffffffffffffffffffffffffffffffffffffffffffffffffff00169055517f083eea12772ab70fba01c8212d02f3bc5dc29b8540dcdc84298e5dfa22731b9290610eec9083815260200190565b6127106bffffffffffffffffffffffff82161115613c6f5760405162461bcd60e51b815260206004820152602a60248201527f455243323938313a20726f79616c7479206665652077696c6c2065786365656460448201527f2073616c655072696365000000000000000000000000000000000000000000006064820152608401610cb5565b73ffffffffffffffffffffffffffffffffffffffff8216613cd25760405162461bcd60e51b815260206004820152601b60248201527f455243323938313a20496e76616c696420706172616d657465727300000000006044820152606401610cb5565b60408051808201825273ffffffffffffffffffffffffffffffffffffffff93841681526bffffffffffffffffffffffff928316602080830191825260009687526101979052919094209351905190911674010000000000000000000000000000000000000000029116179055565b613d486130f5565b73ffffffffffffffffffffffffffffffffffffffff16613d7d60fb5473ffffffffffffffffffffffffffffffffffffffff1690565b73ffffffffffffffffffffffffffffffffffffffff16146115915760405162461bcd60e51b815260206004820181905260248201527f4f776e61626c653a2063616c6c6572206973206e6f7420746865206f776e65726044820152606401610cb5565b60fb805473ffffffffffffffffffffffffffffffffffffffff8381167fffffffffffffffffffffffff0000000000000000000000000000000000000000831681179093556040519116919082907f8be0079c531659141344cd1fd0a4f28419497f9722a3daafe3b4186f6b6457e090600090a35050565b6000828152610198602052604081205467ffffffffffffffff169081613e8857613e8183426156d6565b9050613e95565b613e9283836156d6565b90505b6000848152610198602090815260409182902080547fffffffffffffffffffffffffffffffffffffffffffffffff00000000000000001667ffffffffffffffff8516908117909155915191825285917f2ec2be2c4b90c2cf13ecb6751a24daed6bb741ae5ed3f7371aabf9402f6d62e8910160405180910390a250505050565b613f1d6132d6565b60c980547fffffffffffffffffffffffffffffffffffffffffffffffffffffffffffffff001660011790557f62e78cea01bee320cd4e420270b5ea74000d11b0c9f74754ebdbfc544b05a2586138ce6130f5565b6000613f7d8486614825565b6000858152610194602052604090208690558215613f9e57613f9e85612af3565b67ffffffffffffffff821615613fb857613fb88583613e57565b50600195945050505050565b6000613fd08385614825565b6000848152610194602052604090208590558115613ff157613ff184612af3565b506001949350505050565b8173ffffffffffffffffffffffffffffffffffffffff168373ffffffffffffffffffffffffffffffffffffffff1614156140785760405162461bcd60e51b815260206004820152601960248201527f4552433732313a20617070726f766520746f2063616c6c6572000000000000006044820152606401610cb5565b73ffffffffffffffffffffffffffffffffffffffff8381166000818152606a602090815260408083209487168084529482529182902080547fffffffffffffffffffffffffffffffffffffffffffffffffffffffffffffff001686151590811790915591519182527f17307eab39ab6107e8899845ad3d59bd9653f200f220920489ca2b5937696c31910160405180910390a3505050565b61411b8484846133bb565b614127848484846149bf565b6128325760405162461bcd60e51b815260206004820152603260248201527f4552433732313a207472616e7366657220746f206e6f6e20455243373231526560448201527f63656976657220696d706c656d656e74657200000000000000000000000000006064820152608401610cb5565b6127106bffffffffffffffffffffffff8216111561421f5760405162461bcd60e51b815260206004820152602a60248201527f455243323938313a20726f79616c7479206665652077696c6c2065786365656460448201527f2073616c655072696365000000000000000000000000000000000000000000006064820152608401610cb5565b73ffffffffffffffffffffffffffffffffffffffff82166142825760405162461bcd60e51b815260206004820152601960248201527f455243323938313a20696e76616c6964207265636569766572000000000000006044820152606401610cb5565b6040805180820190915273ffffffffffffffffffffffffffffffffffffffff9092168083526bffffffffffffffffffffffff9091166020909201829052740100000000000000000000000000000000000000009091021761019655565b600081815261019560205260409081902080547fffffffffffffffffffffffffffffffffffffffffffffffffffffffffffffff00166001179055517f4d69b51fee53c28bd8b61fe008151577ca65160b5248f6225e74d64fd4cf732890610eec9083815260200190565b60006014361080159061437457506101915473ffffffffffffffffffffffffffffffffffffffff1633145b156143a457507fffffffffffffffffffffffffffffffffffffffffffffffffffffffffffffffec36013560601c90565b503390565b6143b16132d6565b806143bb8161276f565b156144085760405162461bcd60e51b815260206004820152600f60248201527f546f6b656e2069732066726f7a656e00000000000000000000000000000000006044820152606401610cb5565b612832565b73ffffffffffffffffffffffffffffffffffffffff81163b6144975760405162461bcd60e51b815260206004820152602d60248201527f455243313936373a206e657720696d706c656d656e746174696f6e206973206e60448201527f6f74206120636f6e7472616374000000000000000000000000000000000000006064820152608401610cb5565b7f360894a13ba1a3210667c828492db98dca3e2076cc3735a920a3ca505d382bbc80547fffffffffffffffffffffffff00000000000000000000000000000000000000001673ffffffffffffffffffffffffffffffffffffffff92909216919091179055565b61450683614b80565b6000825111806145135750805b15610d82576128328383614bcd565b60c95460ff166115915760405162461bcd60e51b815260206004820152601460248201527f5061757361626c653a206e6f74207061757365640000000000000000000000006044820152606401610cb5565b600061457f82611de4565b905061458d816000846143a9565b614598600083613104565b73ffffffffffffffffffffffffffffffffffffffff811660009081526068602052604081208054600192906145ce9084906157c3565b909155505060008281526067602052604080822080547fffffffffffffffffffffffff00000000000000000000000000000000000000001690555183919073ffffffffffffffffffffffffffffffffffffffff8416907fddf252ad1be2c89b69c2b068fc378daa952ba7f163c4a11628f55a4df523b3ef908390a45050565b600054610100900460ff166146ca5760405162461bcd60e51b815260206004820152602b60248201527f496e697469616c697a61626c653a20636f6e7472616374206973206e6f74206960448201527f6e697469616c697a696e670000000000000000000000000000000000000000006064820152608401610cb5565b81516146dd906065906020850190614d2b565b508051610d82906066906020840190614d2b565b600054610100900460ff1661476e5760405162461bcd60e51b815260206004820152602b60248201527f496e697469616c697a61626c653a20636f6e7472616374206973206e6f74206960448201527f6e697469616c697a696e670000000000000000000000000000000000000000006064820152608401610cb5565b60c980547fffffffffffffffffffffffffffffffffffffffffffffffffffffffffffffff00169055565b600054610100900460ff166148155760405162461bcd60e51b815260206004820152602b60248201527f496e697469616c697a61626c653a20636f6e7472616374206973206e6f74206960448201527f6e697469616c697a696e670000000000000000000000000000000000000000006064820152608401610cb5565b6115916148206130f5565b613de0565b73ffffffffffffffffffffffffffffffffffffffff82166148885760405162461bcd60e51b815260206004820181905260248201527f4552433732313a206d696e7420746f20746865207a65726f20616464726573736044820152606401610cb5565b60008181526067602052604090205473ffffffffffffffffffffffffffffffffffffffff16156148fa5760405162461bcd60e51b815260206004820152601c60248201527f4552433732313a20746f6b656e20616c7265616479206d696e746564000000006044820152606401610cb5565b614906600083836143a9565b73ffffffffffffffffffffffffffffffffffffffff8216600090815260686020526040812080546001929061493c9084906156be565b909155505060008181526067602052604080822080547fffffffffffffffffffffffff00000000000000000000000000000000000000001673ffffffffffffffffffffffffffffffffffffffff861690811790915590518392907fddf252ad1be2c89b69c2b068fc378daa952ba7f163c4a11628f55a4df523b3ef908290a45050565b600073ffffffffffffffffffffffffffffffffffffffff84163b15614b78578373ffffffffffffffffffffffffffffffffffffffff1663150b7a02614a026130f5565b8786866040518563ffffffff1660e01b8152600401614a249493929190615807565b6020604051808303816000875af1925050508015614a7d575060408051601f3d9081017fffffffffffffffffffffffffffffffffffffffffffffffffffffffffffffffe0168201909252614a7a91810190615850565b60015b614b2d573d808015614aab576040519150601f19603f3d011682016040523d82523d6000602084013e614ab0565b606091505b508051614b255760405162461bcd60e51b815260206004820152603260248201527f4552433732313a207472616e7366657220746f206e6f6e20455243373231526560448201527f63656976657220696d706c656d656e74657200000000000000000000000000006064820152608401610cb5565b805181602001fd5b7fffffffff00000000000000000000000000000000000000000000000000000000167f150b7a0200000000000000000000000000000000000000000000000000000000149050612531565b506001612531565b614b898161440d565b60405173ffffffffffffffffffffffffffffffffffffffff8216907fbc7cd75a20ee27fd9adebab32041f755214dbc6bffa90cc0225b39da2e5c2d3b90600090a250565b606073ffffffffffffffffffffffffffffffffffffffff83163b614c595760405162461bcd60e51b815260206004820152602660248201527f416464726573733a2064656c65676174652063616c6c20746f206e6f6e2d636f60448201527f6e747261637400000000000000000000000000000000000000000000000000006064820152608401610cb5565b6000808473ffffffffffffffffffffffffffffffffffffffff1684604051614c81919061586d565b600060405180830381855af49150503d8060008114614cbc576040519150601f19603f3d011682016040523d82523d6000602084013e614cc1565b606091505b5091509150614ce9828260405180606001604052806027815260200161588a60279139614cf2565b95945050505050565b60608315614d01575081612da6565b825115614d115782518084602001fd5b8160405162461bcd60e51b8152600401610cb59190614e85565b828054614d37906154c5565b90600052602060002090601f016020900481019282614d595760008555614d9f565b82601f10614d7257805160ff1916838001178555614d9f565b82800160010185558215614d9f579182015b82811115614d9f578251825591602001919060010190614d84565b50614dab929150614daf565b5090565b5b80821115614dab5760008155600101614db0565b7fffffffff00000000000000000000000000000000000000000000000000000000811681146114d557600080fd5b600060208284031215614e0457600080fd5b8135612da681614dc4565b60005b83811015614e2a578181015183820152602001614e12565b838111156128325750506000910152565b60008151808452614e53816020860160208601614e0f565b601f017fffffffffffffffffffffffffffffffffffffffffffffffffffffffffffffffe0169290920160200192915050565b602081526000612da66020830184614e3b565b600060208284031215614eaa57600080fd5b5035919050565b803573ffffffffffffffffffffffffffffffffffffffff81168114614ed557600080fd5b919050565b60008060408385031215614eed57600080fd5b614ef683614eb1565b946020939093013593505050565b600060208284031215614f1657600080fd5b612da682614eb1565b600080600060608486031215614f3457600080fd5b614f3d84614eb1565b9250614f4b60208501614eb1565b9150604084013590509250925092565b60008060408385031215614f6e57600080fd5b50508035926020909101359150565b7f4e487b7100000000000000000000000000000000000000000000000000000000600052604160045260246000fd5b604051601f82017fffffffffffffffffffffffffffffffffffffffffffffffffffffffffffffffe016810167ffffffffffffffff81118282101715614ff357614ff3614f7d565b604052919050565b600082601f83011261500c57600080fd5b813567ffffffffffffffff81111561502657615026614f7d565b61505760207fffffffffffffffffffffffffffffffffffffffffffffffffffffffffffffffe0601f84011601614fac565b81815284602083860101111561506c57600080fd5b816020850160208301376000918101602001919091529392505050565b6000806040838503121561509c57600080fd5b823567ffffffffffffffff808211156150b457600080fd5b6150c086838701614ffb565b935060208501359150808211156150d657600080fd5b506150e385828601614ffb565b9150509250929050565b6000806040838503121561510057600080fd5b61510983614eb1565b9150602083013567ffffffffffffffff81111561512557600080fd5b6150e385828601614ffb565b80356bffffffffffffffffffffffff81168114614ed557600080fd5b60008060006060848603121561516257600080fd5b8335925061517260208501614eb1565b915061518060408501615131565b90509250925092565b803567ffffffffffffffff81168114614ed557600080fd5b600080604083850312156151b457600080fd5b823591506151c460208401615189565b90509250929050565b6000602082840312156151df57600080fd5b813567ffffffffffffffff8111156151f657600080fd5b61253184828501614ffb565b80358015158114614ed557600080fd5b6000806000806080858703121561522857600080fd5b8435935061523860208601614eb1565b925061524660408601615202565b915061525460608601615189565b905092959194509250565b600067ffffffffffffffff82111561527957615279614f7d565b5060051b60200190565b6000806000806080858703121561529957600080fd5b8435935060208086013567ffffffffffffffff8111156152b857600080fd5b8601601f810188136152c957600080fd5b80356152dc6152d78261525f565b614fac565b81815260059190911b8201830190838101908a8311156152fb57600080fd5b928401925b828410156153205761531184614eb1565b82529284019290840190615300565b809750505050505061524660408601615202565b6000806040838503121561534757600080fd5b61535083614eb1565b91506151c460208401615202565b6000806000806080858703121561537457600080fd5b61537d85614eb1565b935061538b60208601614eb1565b925060408501359150606085013567ffffffffffffffff8111156153ae57600080fd5b6153ba87828801614ffb565b91505092959194509250565b600080604083850312156153d957600080fd5b6153e283614eb1565b91506151c460208401615131565b6000806040838503121561540357600080fd5b61540c83614eb1565b91506151c460208401614eb1565b6000806000806080858703121561543057600080fd5b843567ffffffffffffffff81111561544757600080fd5b8501601f8101871361545857600080fd5b803560206154686152d78361525f565b82815260059290921b8301810191818101908a84111561548757600080fd5b938201935b838510156154a55784358252938201939082019061548c565b97506154b49050888201614eb1565b955050505061524660408601615202565b600181811c908216806154d957607f821691505b60208210811415615513577f4e487b7100000000000000000000000000000000000000000000000000000000600052602260045260246000fd5b50919050565b8054600090600181811c908083168061553357607f831692505b602080841082141561556e577f4e487b7100000000000000000000000000000000000000000000000000000000600052602260045260246000fd5b81801561558257600181146155b1576155de565b7fffffffffffffffffffffffffffffffffffffffffffffffffffffffffffffff008616895284890196506155de565b60008881526020902060005b868110156155d65781548b8201529085019083016155bd565b505084890196505b50505050505092915050565b60006155f68285615519565b8351615606818360208801614e0f565b01949350505050565b7f4e487b7100000000000000000000000000000000000000000000000000000000600052601160045260246000fd5b6000817fffffffffffffffffffffffffffffffffffffffffffffffffffffffffffffffff04831182151516156156765761567661560f565b500290565b7f4e487b7100000000000000000000000000000000000000000000000000000000600052601260045260246000fd5b6000826156b9576156b961567b565b500490565b600082198211156156d1576156d161560f565b500190565b600067ffffffffffffffff8083168185168083038211156156065761560661560f565b7f4e487b7100000000000000000000000000000000000000000000000000000000600052603260045260246000fd5b60007fffffffffffffffffffffffffffffffffffffffffffffffffffffffffffffffff82141561575a5761575a61560f565b5060010190565b600061576d8286615519565b845161577d818360208901614e0f565b7f2f00000000000000000000000000000000000000000000000000000000000000910190815283516157b6816001840160208801614e0f565b0160010195945050505050565b6000828210156157d5576157d561560f565b500390565b6000826157e9576157e961567b565b500690565b60006020828403121561580057600080fd5b5051919050565b600073ffffffffffffffffffffffffffffffffffffffff8087168352808616602084015250836040830152608060608301526158466080830184614e3b565b9695505050505050565b60006020828403121561586257600080fd5b8151612da681614dc4565b6000825161587f818460208701614e0f565b919091019291505056fe416464726573733a206c6f772d6c6576656c2064656c65676174652063616c6c206661696c6564a2646970667358221220260c7758460e7f3e581020cd281c923a4dee158bb7691adfbcc97fb71464d39864736f6c634300080c0033",
  "linkReferences": {},
  "deployedLinkReferences": {}
}