{
  "_format": "hh-sol-artifact-1",
  "contractName": "UVCollectable",
  "sourceName": "contracts/UVCollectable.sol",
  "abi": [
    {
      "inputs": [],
      "stateMutability": "nonpayable",
      "type": "constructor"
    },
    {
      "anonymous": false,
      "inputs": [
        {
          "indexed": false,
          "internalType": "address",
          "name": "previousAdmin",
          "type": "address"
        },
        {
          "indexed": false,
          "internalType": "address",
          "name": "newAdmin",
          "type": "address"
        }
      ],
      "name": "AdminChanged",
      "type": "event"
    },
    {
      "anonymous": false,
      "inputs": [
        {
          "indexed": false,
          "internalType": "address",
          "name": "admin",
          "type": "address"
        },
        {
          "indexed": false,
          "internalType": "bool",
          "name": "added",
          "type": "bool"
        }
      ],
      "name": "AdminUpdated",
      "type": "event"
    },
    {
      "anonymous": false,
      "inputs": [
        {
          "indexed": true,
          "internalType": "address",
          "name": "owner",
          "type": "address"
        },
        {
          "indexed": true,
          "internalType": "address",
          "name": "approved",
          "type": "address"
        },
        {
          "indexed": true,
          "internalType": "uint256",
          "name": "tokenId",
          "type": "uint256"
        }
      ],
      "name": "Approval",
      "type": "event"
    },
    {
      "anonymous": false,
      "inputs": [
        {
          "indexed": true,
          "internalType": "address",
          "name": "owner",
          "type": "address"
        },
        {
          "indexed": true,
          "internalType": "address",
          "name": "operator",
          "type": "address"
        },
        {
          "indexed": false,
          "internalType": "bool",
          "name": "approved",
          "type": "bool"
        }
      ],
      "name": "ApprovalForAll",
      "type": "event"
    },
    {
      "anonymous": false,
      "inputs": [
        {
          "indexed": true,
          "internalType": "address",
          "name": "beacon",
          "type": "address"
        }
      ],
      "name": "BeaconUpgraded",
      "type": "event"
    },
    {
      "anonymous": false,
      "inputs": [
        {
          "indexed": false,
          "internalType": "uint256",
          "name": "tokenId",
          "type": "uint256"
        }
      ],
      "name": "Frozen",
      "type": "event"
    },
    {
      "anonymous": false,
      "inputs": [
        {
          "indexed": false,
          "internalType": "uint8",
          "name": "version",
          "type": "uint8"
        }
      ],
      "name": "Initialized",
      "type": "event"
    },
    {
      "anonymous": false,
      "inputs": [
        {
          "indexed": true,
          "internalType": "address",
          "name": "previousOwner",
          "type": "address"
        },
        {
          "indexed": true,
          "internalType": "address",
          "name": "newOwner",
          "type": "address"
        }
      ],
      "name": "OwnershipTransferred",
      "type": "event"
    },
    {
      "anonymous": false,
      "inputs": [
        {
          "indexed": false,
          "internalType": "address",
          "name": "account",
          "type": "address"
        }
      ],
      "name": "Paused",
      "type": "event"
    },
    {
      "anonymous": false,
      "inputs": [
        {
          "indexed": true,
          "internalType": "uint256",
          "name": "tokenId",
          "type": "uint256"
        },
        {
          "indexed": false,
          "internalType": "uint64",
          "name": "expiration",
          "type": "uint64"
        }
      ],
      "name": "SubscriptionUpdate",
      "type": "event"
    },
    {
      "anonymous": false,
      "inputs": [
        {
          "indexed": true,
          "internalType": "address",
          "name": "from",
          "type": "address"
        },
        {
          "indexed": true,
          "internalType": "address",
          "name": "to",
          "type": "address"
        },
        {
          "indexed": true,
          "internalType": "uint256",
          "name": "tokenId",
          "type": "uint256"
        }
      ],
      "name": "Transfer",
      "type": "event"
    },
    {
      "anonymous": false,
      "inputs": [
        {
          "indexed": false,
          "internalType": "uint256",
          "name": "tokenId",
          "type": "uint256"
        }
      ],
      "name": "Unfrozen",
      "type": "event"
    },
    {
      "anonymous": false,
      "inputs": [
        {
          "indexed": false,
          "internalType": "address",
          "name": "account",
          "type": "address"
        }
      ],
      "name": "Unpaused",
      "type": "event"
    },
    {
      "anonymous": false,
      "inputs": [
        {
          "indexed": true,
          "internalType": "address",
          "name": "implementation",
          "type": "address"
        }
      ],
      "name": "Upgraded",
      "type": "event"
    },
    {
      "inputs": [
        {
          "internalType": "address",
          "name": "newAdmin",
          "type": "address"
        }
      ],
      "name": "addAdmin",
      "outputs": [],
      "stateMutability": "nonpayable",
      "type": "function"
    },
    {
      "inputs": [
        {
          "internalType": "address",
          "name": "to",
          "type": "address"
        },
        {
          "internalType": "uint256",
          "name": "tokenId",
          "type": "uint256"
        }
      ],
      "name": "approve",
      "outputs": [],
      "stateMutability": "nonpayable",
      "type": "function"
    },
    {
      "inputs": [
        {
          "internalType": "address",
          "name": "owner",
          "type": "address"
        }
      ],
      "name": "balanceOf",
      "outputs": [
        {
          "internalType": "uint256",
          "name": "",
          "type": "uint256"
        }
      ],
      "stateMutability": "view",
      "type": "function"
    },
    {
      "inputs": [
        {
          "internalType": "uint256",
          "name": "tokenId",
          "type": "uint256"
        }
      ],
      "name": "burn",
      "outputs": [],
      "stateMutability": "nonpayable",
      "type": "function"
    },
    {
      "inputs": [
        {
          "internalType": "uint256",
          "name": "tokenId",
          "type": "uint256"
        }
      ],
      "name": "cancelSubscription",
      "outputs": [],
      "stateMutability": "nonpayable",
      "type": "function"
    },
    {
      "inputs": [
        {
          "internalType": "uint256",
          "name": "collectionId",
          "type": "uint256"
        }
      ],
      "name": "collectionURI",
      "outputs": [
        {
          "internalType": "string",
          "name": "",
          "type": "string"
        }
      ],
      "stateMutability": "view",
      "type": "function"
    },
    {
      "inputs": [],
      "name": "contractURI",
      "outputs": [
        {
          "internalType": "string",
          "name": "",
          "type": "string"
        }
      ],
      "stateMutability": "view",
      "type": "function"
    },
    {
      "inputs": [
        {
          "internalType": "uint256",
          "name": "tokenId",
          "type": "uint256"
        }
      ],
      "name": "expireSubscription",
      "outputs": [],
      "stateMutability": "nonpayable",
      "type": "function"
    },
    {
      "inputs": [
        {
          "internalType": "uint256",
          "name": "tokenId",
          "type": "uint256"
        }
      ],
      "name": "expiresAt",
      "outputs": [
        {
          "internalType": "uint64",
          "name": "",
          "type": "uint64"
        }
      ],
      "stateMutability": "view",
      "type": "function"
    },
    {
      "inputs": [
        {
          "internalType": "uint256",
          "name": "tokenId",
          "type": "uint256"
        }
      ],
      "name": "freeze",
      "outputs": [],
      "stateMutability": "nonpayable",
      "type": "function"
    },
    {
      "inputs": [
        {
          "internalType": "uint256",
          "name": "tokenId",
          "type": "uint256"
        }
      ],
      "name": "getApproved",
      "outputs": [
        {
          "internalType": "address",
          "name": "",
          "type": "address"
        }
      ],
      "stateMutability": "view",
      "type": "function"
    },
    {
      "inputs": [],
      "name": "getTrustedForwarder",
      "outputs": [
        {
          "internalType": "address",
          "name": "forwarder",
          "type": "address"
        }
      ],
      "stateMutability": "view",
      "type": "function"
    },
    {
      "inputs": [
        {
          "internalType": "string",
          "name": "__name",
          "type": "string"
        },
        {
          "internalType": "string",
          "name": "__symbol",
          "type": "string"
        }
      ],
      "name": "initialize",
      "outputs": [],
      "stateMutability": "nonpayable",
      "type": "function"
    },
    {
      "inputs": [
        {
          "internalType": "address",
          "name": "user",
          "type": "address"
        }
      ],
      "name": "isAdmin",
      "outputs": [
        {
          "internalType": "bool",
          "name": "",
          "type": "bool"
        }
      ],
      "stateMutability": "view",
      "type": "function"
    },
    {
      "inputs": [
        {
          "internalType": "address",
          "name": "_owner",
          "type": "address"
        },
        {
          "internalType": "address",
          "name": "_operator",
          "type": "address"
        }
      ],
      "name": "isApprovedForAll",
      "outputs": [
        {
          "internalType": "bool",
          "name": "isOperator",
          "type": "bool"
        }
      ],
      "stateMutability": "view",
      "type": "function"
    },
    {
      "inputs": [
        {
          "internalType": "uint256",
          "name": "tokenId",
          "type": "uint256"
        }
      ],
      "name": "isFrozen",
      "outputs": [
        {
          "internalType": "bool",
          "name": "",
          "type": "bool"
        }
      ],
      "stateMutability": "view",
      "type": "function"
    },
    {
      "inputs": [
        {
          "internalType": "uint256",
          "name": "",
          "type": "uint256"
        }
      ],
      "name": "isRenewable",
      "outputs": [
        {
          "internalType": "bool",
          "name": "",
          "type": "bool"
        }
      ],
      "stateMutability": "pure",
      "type": "function"
    },
    {
      "inputs": [
        {
          "internalType": "address",
          "name": "forwarder",
          "type": "address"
        }
      ],
      "name": "isTrustedForwarder",
      "outputs": [
        {
          "internalType": "bool",
          "name": "",
          "type": "bool"
        }
      ],
      "stateMutability": "view",
      "type": "function"
    },
    {
      "inputs": [],
      "name": "lastId",
      "outputs": [
        {
          "internalType": "uint256",
          "name": "",
          "type": "uint256"
        }
      ],
      "stateMutability": "view",
      "type": "function"
    },
    {
      "inputs": [
        {
          "internalType": "uint256",
          "name": "collectionId",
          "type": "uint256"
        },
        {
          "internalType": "address[]",
          "name": "to",
          "type": "address[]"
        },
        {
          "internalType": "bool",
          "name": "frozen",
          "type": "bool"
        },
        {
          "internalType": "uint64",
          "name": "validDuration",
          "type": "uint64"
        }
      ],
      "name": "mintCollectionToManyUsers",
      "outputs": [
        {
          "internalType": "bool",
          "name": "",
          "type": "bool"
        }
      ],
      "stateMutability": "nonpayable",
      "type": "function"
    },
    {
      "inputs": [
        {
          "internalType": "uint256",
          "name": "collectionId",
          "type": "uint256"
        },
        {
          "internalType": "address",
          "name": "to",
          "type": "address"
        },
        {
          "internalType": "bool",
          "name": "frozen",
          "type": "bool"
        },
        {
          "internalType": "uint64",
          "name": "validDuration",
          "type": "uint64"
        }
      ],
      "name": "mintToken",
      "outputs": [
        {
          "internalType": "bool",
          "name": "",
          "type": "bool"
        }
      ],
      "stateMutability": "nonpayable",
      "type": "function"
    },
    {
      "inputs": [
        {
          "internalType": "uint256[]",
          "name": "collectionIds",
          "type": "uint256[]"
        },
        {
          "internalType": "address",
          "name": "to",
          "type": "address"
        },
        {
          "internalType": "bool",
          "name": "frozen",
          "type": "bool"
        },
        {
          "internalType": "uint64",
          "name": "validDuration",
          "type": "uint64"
        }
      ],
      "name": "mintUserToManyCollections",
      "outputs": [
        {
          "internalType": "bool",
          "name": "",
          "type": "bool"
        }
      ],
      "stateMutability": "nonpayable",
      "type": "function"
    },
    {
      "inputs": [],
      "name": "name",
      "outputs": [
        {
          "internalType": "string",
          "name": "",
          "type": "string"
        }
      ],
      "stateMutability": "view",
      "type": "function"
    },
    {
      "inputs": [],
      "name": "owner",
      "outputs": [
        {
          "internalType": "address",
          "name": "",
          "type": "address"
        }
      ],
      "stateMutability": "view",
      "type": "function"
    },
    {
      "inputs": [
        {
          "internalType": "uint256",
          "name": "tokenId",
          "type": "uint256"
        }
      ],
      "name": "ownerOf",
      "outputs": [
        {
          "internalType": "address",
          "name": "",
          "type": "address"
        }
      ],
      "stateMutability": "view",
      "type": "function"
    },
    {
      "inputs": [],
      "name": "pause",
      "outputs": [],
      "stateMutability": "nonpayable",
      "type": "function"
    },
    {
      "inputs": [],
      "name": "paused",
      "outputs": [
        {
          "internalType": "bool",
          "name": "",
          "type": "bool"
        }
      ],
      "stateMutability": "view",
      "type": "function"
    },
    {
      "inputs": [],
      "name": "proxiableUUID",
      "outputs": [
        {
          "internalType": "bytes32",
          "name": "",
          "type": "bytes32"
        }
      ],
      "stateMutability": "view",
      "type": "function"
    },
    {
      "inputs": [
        {
          "internalType": "uint256",
          "name": "tokenId",
          "type": "uint256"
        }
      ],
      "name": "reclaimToken",
      "outputs": [],
      "stateMutability": "nonpayable",
      "type": "function"
    },
    {
      "inputs": [
        {
          "internalType": "address",
          "name": "admin",
          "type": "address"
        }
      ],
      "name": "removeAdmin",
      "outputs": [],
      "stateMutability": "nonpayable",
      "type": "function"
    },
    {
      "inputs": [
        {
          "internalType": "uint256",
          "name": "collectionId",
          "type": "uint256"
        }
      ],
      "name": "removeCollectionRoyalty",
      "outputs": [],
      "stateMutability": "nonpayable",
      "type": "function"
    },
    {
      "inputs": [],
      "name": "removeDefaultRoyalty",
      "outputs": [],
      "stateMutability": "nonpayable",
      "type": "function"
    },
    {
      "inputs": [
        {
          "internalType": "uint256",
          "name": "tokenId",
          "type": "uint256"
        },
        {
          "internalType": "uint64",
          "name": "duration",
          "type": "uint64"
        }
      ],
      "name": "renewSubscription",
      "outputs": [],
      "stateMutability": "nonpayable",
      "type": "function"
    },
    {
      "inputs": [],
      "name": "renounceOwnership",
      "outputs": [],
      "stateMutability": "nonpayable",
      "type": "function"
    },
    {
      "inputs": [
        {
          "internalType": "uint256",
          "name": "_tokenId",
          "type": "uint256"
        },
        {
          "internalType": "uint256",
          "name": "_salePrice",
          "type": "uint256"
        }
      ],
      "name": "royaltyInfo",
      "outputs": [
        {
          "internalType": "address",
          "name": "",
          "type": "address"
        },
        {
          "internalType": "uint256",
          "name": "",
          "type": "uint256"
        }
      ],
      "stateMutability": "view",
      "type": "function"
    },
    {
      "inputs": [
        {
          "internalType": "address",
          "name": "from",
          "type": "address"
        },
        {
          "internalType": "address",
          "name": "to",
          "type": "address"
        },
        {
          "internalType": "uint256",
          "name": "tokenId",
          "type": "uint256"
        }
      ],
      "name": "safeTransferFrom",
      "outputs": [],
      "stateMutability": "nonpayable",
      "type": "function"
    },
    {
      "inputs": [
        {
          "internalType": "address",
          "name": "from",
          "type": "address"
        },
        {
          "internalType": "address",
          "name": "to",
          "type": "address"
        },
        {
          "internalType": "uint256",
          "name": "tokenId",
          "type": "uint256"
        },
        {
          "internalType": "bytes",
          "name": "data",
          "type": "bytes"
        }
      ],
      "name": "safeTransferFrom",
      "outputs": [],
      "stateMutability": "nonpayable",
      "type": "function"
    },
    {
      "inputs": [
        {
          "internalType": "address",
          "name": "operator",
          "type": "address"
        },
        {
          "internalType": "bool",
          "name": "approved",
          "type": "bool"
        }
      ],
      "name": "setApprovalForAll",
      "outputs": [],
      "stateMutability": "nonpayable",
      "type": "function"
    },
    {
      "inputs": [
        {
          "internalType": "uint256",
          "name": "tokenId",
          "type": "uint256"
        },
        {
          "internalType": "uint64",
          "name": "newExpiration",
          "type": "uint64"
        }
      ],
      "name": "setExpiration",
      "outputs": [],
      "stateMutability": "nonpayable",
      "type": "function"
    },
    {
      "inputs": [
        {
          "internalType": "uint256",
          "name": "newLastId",
          "type": "uint256"
        }
      ],
      "name": "setLastId",
      "outputs": [],
      "stateMutability": "nonpayable",
      "type": "function"
    },
    {
      "inputs": [
        {
          "internalType": "address",
          "name": "forwarder",
          "type": "address"
        }
      ],
      "name": "setTurstedForwarder",
      "outputs": [],
      "stateMutability": "nonpayable",
      "type": "function"
    },
    {
      "inputs": [
        {
          "internalType": "bytes4",
          "name": "interfaceId",
          "type": "bytes4"
        }
      ],
      "name": "supportsInterface",
      "outputs": [
        {
          "internalType": "bool",
          "name": "",
          "type": "bool"
        }
      ],
      "stateMutability": "view",
      "type": "function"
    },
    {
      "inputs": [],
      "name": "symbol",
      "outputs": [
        {
          "internalType": "string",
          "name": "",
          "type": "string"
        }
      ],
      "stateMutability": "view",
      "type": "function"
    },
    {
      "inputs": [
        {
          "internalType": "uint256",
          "name": "tokenId",
          "type": "uint256"
        }
      ],
      "name": "tokenCollection",
      "outputs": [
        {
          "internalType": "uint256",
          "name": "",
          "type": "uint256"
        }
      ],
      "stateMutability": "view",
      "type": "function"
    },
    {
      "inputs": [
        {
          "internalType": "uint256",
          "name": "tokenId",
          "type": "uint256"
        }
      ],
      "name": "tokenURI",
      "outputs": [
        {
          "internalType": "string",
          "name": "",
          "type": "string"
        }
      ],
      "stateMutability": "view",
      "type": "function"
    },
    {
      "inputs": [
        {
          "internalType": "address",
          "name": "from",
          "type": "address"
        },
        {
          "internalType": "address",
          "name": "to",
          "type": "address"
        },
        {
          "internalType": "uint256",
          "name": "tokenId",
          "type": "uint256"
        }
      ],
      "name": "transferFrom",
      "outputs": [],
      "stateMutability": "nonpayable",
      "type": "function"
    },
    {
      "inputs": [
        {
          "internalType": "address",
          "name": "newOwner",
          "type": "address"
        }
      ],
      "name": "transferOwnership",
      "outputs": [],
      "stateMutability": "nonpayable",
      "type": "function"
    },
    {
      "inputs": [
        {
          "internalType": "uint256",
          "name": "tokenId",
          "type": "uint256"
        }
      ],
      "name": "unfreeze",
      "outputs": [],
      "stateMutability": "nonpayable",
      "type": "function"
    },
    {
      "inputs": [],
      "name": "unpause",
      "outputs": [],
      "stateMutability": "nonpayable",
      "type": "function"
    },
    {
      "inputs": [
        {
          "internalType": "uint256",
          "name": "collectionId",
          "type": "uint256"
        },
        {
          "internalType": "address",
          "name": "receiver",
          "type": "address"
        },
        {
          "internalType": "uint96",
          "name": "feeNumerator",
          "type": "uint96"
        }
      ],
      "name": "updateCollectionRoyalty",
      "outputs": [],
      "stateMutability": "nonpayable",
      "type": "function"
    },
    {
      "inputs": [
        {
          "internalType": "string",
          "name": "__contractURI",
          "type": "string"
        }
      ],
      "name": "updateContractURI",
      "outputs": [],
      "stateMutability": "nonpayable",
      "type": "function"
    },
    {
      "inputs": [
        {
          "internalType": "address",
          "name": "receiver",
          "type": "address"
        },
        {
          "internalType": "uint96",
          "name": "feeNumerator",
          "type": "uint96"
        }
      ],
      "name": "updateDefaultRoyalty",
      "outputs": [],
      "stateMutability": "nonpayable",
      "type": "function"
    },
    {
      "inputs": [
        {
          "internalType": "address",
          "name": "newImplementation",
          "type": "address"
        }
      ],
      "name": "upgradeTo",
      "outputs": [],
      "stateMutability": "nonpayable",
      "type": "function"
    },
    {
      "inputs": [
        {
          "internalType": "address",
          "name": "newImplementation",
          "type": "address"
        },
        {
          "internalType": "bytes",
          "name": "data",
          "type": "bytes"
        }
      ],
      "name": "upgradeToAndCall",
      "outputs": [],
      "stateMutability": "payable",
      "type": "function"
    }
  ],
  "bytecode": "0x60a0604052306080523480156200001557600080fd5b506200002062000026565b620000e8565b600054610100900460ff1615620000935760405162461bcd60e51b815260206004820152602760248201527f496e697469616c697a61626c653a20636f6e747261637420697320696e697469604482015266616c697a696e6760c81b606482015260840160405180910390fd5b60005460ff9081161015620000e6576000805460ff191660ff9081179091556040519081527f7f26b83ff96e1f2b6a682f133852f6798a09c465da95921460cefb38474024989060200160405180910390a15b565b608051615a7f620001206000396000818161132f015281816113c501528181611a3e01528181611ad40152611d090152615a7f6000f3fe6080604052600436106103555760003560e01c806370480275116101bb578063b88d4fde116100f7578063d691e43c11610095578063e8a3d4851161006f578063e8a3d48514610a38578063e985e9c514610a4d578063f2fde38b14610a6d578063fb1fcca114610a8d57600080fd5b8063d691e43c146109d8578063d7a78db8146109f8578063d953e4d414610a1857600080fd5b8063cde317af116100d1578063cde317af1461094b578063ce1b815f1461096c578063cea0302e14610998578063d1c332de146109b857600080fd5b8063b88d4fde146108f4578063c1292cc314610914578063c87b56dd1461092b57600080fd5b80638da5cb5b1161016457806397ec4fba1161013e57806397ec4fba1461086e5780639a80c5e314610883578063a0894799146108a3578063a22cb465146108d457600080fd5b80638da5cb5b1461080e5780638e45d62e1461083957806395d89b411461085957600080fd5b8063776ce86811610195578063776ce868146107b95780637e5b1e24146107d95780638456cb59146107f957600080fd5b8063704802751461076457806370a0823114610784578063715018a6146107a457600080fd5b80633659cfe611610295578063508061a2116102335780635c975abb1161020d5780635c975abb146106ec5780636352211e146107045780636623fc46146107245780636a662a3c1461074457600080fd5b8063508061a21461067a57806352d1902d1461069a578063572b6c05146106af57600080fd5b806342966c681161026f57806342966c6814610607578063493a7576146106275780634cd88b76146106475780634f1ef2861461066757600080fd5b80633659cfe6146105b25780633f4ba83a146105d257806342842e0e146105e757600080fd5b806317c957091161030257806323b872dd116102dc57806323b872dd146104d157806324d7806c146104f15780632a55205a146105385780632dd883e81461058457600080fd5b806317c95709146104585780631a27e85f1461049157806321235083146104b157600080fd5b8063095ea7b311610333578063095ea7b3146103f65780631771c96c146104185780631785f53c1461043857600080fd5b806301ffc9a71461035a57806306fdde031461038f578063081812fc146103b1575b600080fd5b34801561036657600080fd5b5061037a610375366004614f56565b610aad565b60405190151581526020015b60405180910390f35b34801561039b57600080fd5b506103a4610b55565b6040516103869190614fe9565b3480156103bd57600080fd5b506103d16103cc366004614ffc565b610be7565b60405173ffffffffffffffffffffffffffffffffffffffff9091168152602001610386565b34801561040257600080fd5b5061041661041136600461503e565b610c1b565b005b34801561042457600080fd5b506103a4610433366004614ffc565b610d98565b34801561044457600080fd5b50610416610453366004615068565b610dcd565b34801561046457600080fd5b50610478610473366004614ffc565b610f08565b60405167ffffffffffffffff9091168152602001610386565b34801561049d57600080fd5b506104166104ac366004614ffc565b610f31565b3480156104bd57600080fd5b506104166104cc366004614ffc565b611042565b3480156104dd57600080fd5b506104166104ec366004615083565b61115f565b3480156104fd57600080fd5b5061037a61050c366004615068565b73ffffffffffffffffffffffffffffffffffffffff166000908152610199602052604090205460ff1690565b34801561054457600080fd5b506105586105533660046150bf565b6111ed565b6040805173ffffffffffffffffffffffffffffffffffffffff9093168352602083019190915201610386565b34801561059057600080fd5b506105a461059f366004614ffc565b6112f8565b604051908152602001610386565b3480156105be57600080fd5b506104166105cd366004615068565b611317565b3480156105de57600080fd5b506104166114e9565b3480156105f357600080fd5b50610416610602366004615083565b6115a4565b34801561061357600080fd5b50610416610622366004614ffc565b6115bf565b34801561063357600080fd5b50610416610642366004614ffc565b611645565b34801561065357600080fd5b506104166106623660046151ed565b6117e2565b610416610675366004615251565b611a26565b34801561068657600080fd5b50610416610695366004614ffc565b611be9565b3480156106a657600080fd5b506105a4611cef565b3480156106bb57600080fd5b5061037a6106ca366004615068565b6101915473ffffffffffffffffffffffffffffffffffffffff91821691161490565b3480156106f857600080fd5b5060c95460ff1661037a565b34801561071057600080fd5b506103d161071f366004614ffc565b611dc1565b34801561073057600080fd5b5061041661073f366004614ffc565b611e33565b34801561075057600080fd5b5061041661075f3660046152b1565b611fba565b34801561077057600080fd5b5061041661077f366004615068565b612076565b34801561079057600080fd5b506105a461079f366004615068565b61218d565b3480156107b057600080fd5b50610416612241565b3480156107c557600080fd5b506104166107d4366004615305565b612253565b3480156107e557600080fd5b506104166107f4366004615331565b612317565b34801561080557600080fd5b506104166123dc565b34801561081a57600080fd5b5060fb5473ffffffffffffffffffffffffffffffffffffffff166103d1565b34801561084557600080fd5b5061037a61085436600461537f565b612495565b34801561086557600080fd5b506103a4612586565b34801561087a57600080fd5b50610416612595565b34801561088f57600080fd5b5061037a61089e3660046153f2565b612651565b3480156108af57600080fd5b5061037a6108be366004614ffc565b6000908152610195602052604090205460ff1690565b3480156108e057600080fd5b506104166108ef3660046154a3565b6127bc565b34801561090057600080fd5b5061041661090f3660046154da565b6127ce565b34801561092057600080fd5b506105a46101935481565b34801561093757600080fd5b506103a4610946366004614ffc565b612863565b34801561095757600080fd5b5061037a610966366004614ffc565b50600190565b34801561097857600080fd5b506101915473ffffffffffffffffffffffffffffffffffffffff166103d1565b3480156109a457600080fd5b506104166109b3366004615068565b6128b4565b3480156109c457600080fd5b506104166109d3366004615305565b6129a9565b3480156109e457600080fd5b506104166109f3366004615542565b612a63565b348015610a0457600080fd5b50610416610a13366004614ffc565b612b1e565b348015610a2457600080fd5b50610416610a33366004614ffc565b612ca8565b348015610a4457600080fd5b506103a4612d6b565b348015610a5957600080fd5b5061037a610a6836600461556c565b612dfa565b348015610a7957600080fd5b50610416610a88366004615068565b612ea0565b348015610a9957600080fd5b5061037a610aa8366004615596565b612f3a565b60007fffffffff0000000000000000000000000000000000000000000000000000000082167f8c65f84d000000000000000000000000000000000000000000000000000000001480610b4057507fffffffff0000000000000000000000000000000000000000000000000000000082167f2a55205a00000000000000000000000000000000000000000000000000000000145b80610b4f5750610b4f82613094565b92915050565b606060658054610b6490615641565b80601f0160208091040260200160405190810160405280929190818152602001828054610b9090615641565b8015610bdd5780601f10610bb257610100808354040283529160200191610bdd565b820191906000526020600020905b815481529060010190602001808311610bc057829003601f168201915b5050505050905090565b6000610bf282613177565b5060009081526069602052604090205473ffffffffffffffffffffffffffffffffffffffff1690565b6000610c2682611dc1565b90508073ffffffffffffffffffffffffffffffffffffffff168373ffffffffffffffffffffffffffffffffffffffff161415610ccf5760405162461bcd60e51b815260206004820152602160248201527f4552433732313a20617070726f76616c20746f2063757272656e74206f776e6560448201527f720000000000000000000000000000000000000000000000000000000000000060648201526084015b60405180910390fd5b8073ffffffffffffffffffffffffffffffffffffffff16610cee6131e8565b73ffffffffffffffffffffffffffffffffffffffff161480610d175750610d1781610a686131e8565b610d895760405162461bcd60e51b815260206004820152603e60248201527f4552433732313a20617070726f76652063616c6c6572206973206e6f7420746f60448201527f6b656e206f776e6572206e6f7220617070726f76656420666f7220616c6c00006064820152608401610cc6565b610d9383836131f7565b505050565b6060610192610da683613297565b604051602001610db7929190615766565b6040516020818303038152906040529050919050565b610dd56131e8565b73ffffffffffffffffffffffffffffffffffffffff16610e0a60fb5473ffffffffffffffffffffffffffffffffffffffff1690565b73ffffffffffffffffffffffffffffffffffffffff161480610e325750610e3261050c6131e8565b610e7e5760405162461bcd60e51b815260206004820152601c60248201527f63616c6c6572206973206e6f74206f776e6572206f722061646d696e000000006044820152606401610cc6565b73ffffffffffffffffffffffffffffffffffffffff811660008181526101996020908152604080832080547fffffffffffffffffffffffffffffffffffffffffffffffffffffffffffffff001690558051938452908301919091527f235bc17e7930760029e9f4d860a2a8089976de5b381cf8380fc11c1d88a1113391015b60405180910390a150565b6000610f1382613177565b506000908152610198602052604090205467ffffffffffffffff1690565b610f396131e8565b73ffffffffffffffffffffffffffffffffffffffff16610f6e60fb5473ffffffffffffffffffffffffffffffffffffffff1690565b73ffffffffffffffffffffffffffffffffffffffff161480610f965750610f9661050c6131e8565b610fe25760405162461bcd60e51b815260206004820152601c60248201527f63616c6c6572206973206e6f74206f776e6572206f722061646d696e000000006044820152606401610cc6565b610fea6133c9565b80610193541061103c5760405162461bcd60e51b815260206004820152601760248201527f4e65772049642068617320746f206265206869676865720000000000000000006044820152606401610cc6565b61019355565b61104a6131e8565b73ffffffffffffffffffffffffffffffffffffffff1661107f60fb5473ffffffffffffffffffffffffffffffffffffffff1690565b73ffffffffffffffffffffffffffffffffffffffff1614806110a757506110a761050c6131e8565b6110f35760405162461bcd60e51b815260206004820152601c60248201527f63616c6c6572206973206e6f74206f776e6572206f722061646d696e000000006044820152606401610cc6565b60008181526101986020908152604080832080547fffffffffffffffffffffffffffffffffffffffffffffffff00000000000000001690555191825282917f2ec2be2c4b90c2cf13ecb6751a24daed6bb741ae5ed3f7371aabf9402f6d62e8910160405180910390a250565b61117061116a6131e8565b8261341c565b6111e25760405162461bcd60e51b815260206004820152602e60248201527f4552433732313a2063616c6c6572206973206e6f7420746f6b656e206f776e6560448201527f72206e6f7220617070726f7665640000000000000000000000000000000000006064820152608401610cc6565b610d938383836134ae565b60008060006111fb856112f8565b6000818152610197602090815260409182902082518084019093525473ffffffffffffffffffffffffffffffffffffffff8116808452740100000000000000000000000000000000000000009091046bffffffffffffffffffffffff1691830191909152919250906112bb5750604080518082019091526101965473ffffffffffffffffffffffffffffffffffffffff811682527401000000000000000000000000000000000000000090046bffffffffffffffffffffffff1660208201525b6020810151600090612710906112df906bffffffffffffffffffffffff16886157ba565b6112e99190615826565b91519791965090945050505050565b600061130382613177565b506000908152610194602052604090205490565b3073ffffffffffffffffffffffffffffffffffffffff7f00000000000000000000000000000000000000000000000000000000000000001614156113c35760405162461bcd60e51b815260206004820152602c60248201527f46756e6374696f6e206d7573742062652063616c6c6564207468726f7567682060448201527f64656c656761746563616c6c00000000000000000000000000000000000000006064820152608401610cc6565b7f000000000000000000000000000000000000000000000000000000000000000073ffffffffffffffffffffffffffffffffffffffff166114387f360894a13ba1a3210667c828492db98dca3e2076cc3735a920a3ca505d382bbc5473ffffffffffffffffffffffffffffffffffffffff1690565b73ffffffffffffffffffffffffffffffffffffffff16146114c15760405162461bcd60e51b815260206004820152602c60248201527f46756e6374696f6e206d7573742062652063616c6c6564207468726f7567682060448201527f6163746976652070726f787900000000000000000000000000000000000000006064820152608401610cc6565b6114ca816136ec565b604080516000808252602082019092526114e69183919061379d565b50565b6114f16131e8565b73ffffffffffffffffffffffffffffffffffffffff1661152660fb5473ffffffffffffffffffffffffffffffffffffffff1690565b73ffffffffffffffffffffffffffffffffffffffff16148061154e575061154e61050c6131e8565b61159a5760405162461bcd60e51b815260206004820152601c60248201527f63616c6c6572206973206e6f74206f776e6572206f722061646d696e000000006044820152606401610cc6565b6115a2613968565b565b610d93838383604051806020016040528060008152506127ce565b6115ca61116a6131e8565b61163c5760405162461bcd60e51b815260206004820152602e60248201527f4552433732313a2063616c6c6572206973206e6f7420746f6b656e206f776e6560448201527f72206e6f7220617070726f7665640000000000000000000000000000000000006064820152608401610cc6565b6114e6816139eb565b61164d6131e8565b73ffffffffffffffffffffffffffffffffffffffff1661168260fb5473ffffffffffffffffffffffffffffffffffffffff1690565b73ffffffffffffffffffffffffffffffffffffffff1614806116aa57506116aa61050c6131e8565b6116f65760405162461bcd60e51b815260206004820152601c60248201527f63616c6c6572206973206e6f74206f776e6572206f722061646d696e000000006044820152606401610cc6565b60008181526101986020526040902054429067ffffffffffffffff808316911610156117645760405162461bcd60e51b815260206004820152601f60248201527f546f6b656e2063616e6e6f7420616c72656164792062652065787069726564006044820152606401610cc6565b6000828152610198602090815260409182902080547fffffffffffffffffffffffffffffffffffffffffffffffff00000000000000001667ffffffffffffffff8516908117909155915191825283917f2ec2be2c4b90c2cf13ecb6751a24daed6bb741ae5ed3f7371aabf9402f6d62e8910160405180910390a25050565b600054610100900460ff16158080156118025750600054600160ff909116105b8061181c5750303b15801561181c575060005460ff166001145b61188e5760405162461bcd60e51b815260206004820152602e60248201527f496e697469616c697a61626c653a20636f6e747261637420697320616c72656160448201527f647920696e697469616c697a65640000000000000000000000000000000000006064820152608401610cc6565b600080547fffffffffffffffffffffffffffffffffffffffffffffffffffffffffffffff0016600117905580156118ec57600080547fffffffffffffffffffffffffffffffffffffffffffffffffffffffffffff00ff166101001790555b6118f68383613a67565b6118fe613aee565b611906613b73565b61190e613bf8565b611916613bf8565b739367ee417ae552cb94f3249d0424000747877aa8600081905261019960209081527fba4450de6f0bfa5c2d7737230b0f2eb1ba62f1bb4896e8c70a5dc7764e12eee680547fffffffffffffffffffffffffffffffffffffffffffffffffffffffffffffff0016600190811790915560408051848152928301919091527f235bc17e7930760029e9f4d860a2a8089976de5b381cf8380fc11c1d88a11133910160405180910390a1508015610d9357600080547fffffffffffffffffffffffffffffffffffffffffffffffffffffffffffff00ff169055604051600181527f7f26b83ff96e1f2b6a682f133852f6798a09c465da95921460cefb38474024989060200160405180910390a1505050565b3073ffffffffffffffffffffffffffffffffffffffff7f0000000000000000000000000000000000000000000000000000000000000000161415611ad25760405162461bcd60e51b815260206004820152602c60248201527f46756e6374696f6e206d7573742062652063616c6c6564207468726f7567682060448201527f64656c656761746563616c6c00000000000000000000000000000000000000006064820152608401610cc6565b7f000000000000000000000000000000000000000000000000000000000000000073ffffffffffffffffffffffffffffffffffffffff16611b477f360894a13ba1a3210667c828492db98dca3e2076cc3735a920a3ca505d382bbc5473ffffffffffffffffffffffffffffffffffffffff1690565b73ffffffffffffffffffffffffffffffffffffffff1614611bd05760405162461bcd60e51b815260206004820152602c60248201527f46756e6374696f6e206d7573742062652063616c6c6564207468726f7567682060448201527f6163746976652070726f787900000000000000000000000000000000000000006064820152608401610cc6565b611bd9826136ec565b611be58282600161379d565b5050565b611bf16131e8565b73ffffffffffffffffffffffffffffffffffffffff16611c2660fb5473ffffffffffffffffffffffffffffffffffffffff1690565b73ffffffffffffffffffffffffffffffffffffffff161480611c4e5750611c4e61050c6131e8565b611c9a5760405162461bcd60e51b815260206004820152601c60248201527f63616c6c6572206973206e6f74206f776e6572206f722061646d696e000000006044820152606401610cc6565b611ca381613177565b6000818152610195602052604090205460ff1615611cc457611cc481613c75565b6114e6611cd082611dc1565b60fb5473ffffffffffffffffffffffffffffffffffffffff16836134ae565b60003073ffffffffffffffffffffffffffffffffffffffff7f00000000000000000000000000000000000000000000000000000000000000001614611d9c5760405162461bcd60e51b815260206004820152603860248201527f555550535570677261646561626c653a206d757374206e6f742062652063616c60448201527f6c6564207468726f7567682064656c656761746563616c6c00000000000000006064820152608401610cc6565b507f360894a13ba1a3210667c828492db98dca3e2076cc3735a920a3ca505d382bbc90565b60008181526067602052604081205473ffffffffffffffffffffffffffffffffffffffff1680610b4f5760405162461bcd60e51b815260206004820152601860248201527f4552433732313a20696e76616c696420746f6b656e20494400000000000000006044820152606401610cc6565b611e3b6131e8565b73ffffffffffffffffffffffffffffffffffffffff16611e7060fb5473ffffffffffffffffffffffffffffffffffffffff1690565b73ffffffffffffffffffffffffffffffffffffffff161480611e985750611e9861050c6131e8565b611ee45760405162461bcd60e51b815260206004820152601c60248201527f63616c6c6572206973206e6f74206f776e6572206f722061646d696e000000006044820152606401610cc6565b611eec6133c9565b6040517fa089479900000000000000000000000000000000000000000000000000000000815260048101829052309063a089479990602401602060405180830381865afa158015611f41573d6000803e3d6000fd5b505050506040513d601f19601f82011682018060405250810190611f65919061583a565b611fb15760405162461bcd60e51b815260206004820152601360248201527f546f6b656e206973206e6f742066726f7a656e000000000000000000000000006044820152606401610cc6565b6114e681613c75565b611fc26131e8565b73ffffffffffffffffffffffffffffffffffffffff16611ff760fb5473ffffffffffffffffffffffffffffffffffffffff1690565b73ffffffffffffffffffffffffffffffffffffffff16148061201f575061201f61050c6131e8565b61206b5760405162461bcd60e51b815260206004820152601c60248201527f63616c6c6572206973206e6f74206f776e6572206f722061646d696e000000006044820152606401610cc6565b610d93838383613cdc565b61207e613e33565b73ffffffffffffffffffffffffffffffffffffffff81166121065760405162461bcd60e51b8152602060048201526024808201527f4e65772061646d696e2063616e6e6f7420626520746865207a65726f2061646460448201527f72657373000000000000000000000000000000000000000000000000000000006064820152608401610cc6565b73ffffffffffffffffffffffffffffffffffffffff81166000818152610199602090815260409182902080547fffffffffffffffffffffffffffffffffffffffffffffffffffffffffffffff001660019081179091558251938452908301527f235bc17e7930760029e9f4d860a2a8089976de5b381cf8380fc11c1d88a111339101610efd565b600073ffffffffffffffffffffffffffffffffffffffff82166122185760405162461bcd60e51b815260206004820152602960248201527f4552433732313a2061646472657373207a65726f206973206e6f74206120766160448201527f6c6964206f776e657200000000000000000000000000000000000000000000006064820152608401610cc6565b5073ffffffffffffffffffffffffffffffffffffffff1660009081526068602052604090205490565b612249613e33565b6115a26000613ed3565b61225b6131e8565b73ffffffffffffffffffffffffffffffffffffffff1661229060fb5473ffffffffffffffffffffffffffffffffffffffff1690565b73ffffffffffffffffffffffffffffffffffffffff1614806122b857506122b861050c6131e8565b6123045760405162461bcd60e51b815260206004820152601c60248201527f63616c6c6572206973206e6f74206f776e6572206f722061646d696e000000006044820152606401610cc6565b61230d82613177565b611be58282613f4a565b61231f6131e8565b73ffffffffffffffffffffffffffffffffffffffff1661235460fb5473ffffffffffffffffffffffffffffffffffffffff1690565b73ffffffffffffffffffffffffffffffffffffffff16148061237c575061237c61050c6131e8565b6123c85760405162461bcd60e51b815260206004820152601c60248201527f63616c6c6572206973206e6f74206f776e6572206f722061646d696e000000006044820152606401610cc6565b8051611be590610192906020840190614e8f565b6123e46131e8565b73ffffffffffffffffffffffffffffffffffffffff1661241960fb5473ffffffffffffffffffffffffffffffffffffffff1690565b73ffffffffffffffffffffffffffffffffffffffff161480612441575061244161050c6131e8565b61248d5760405162461bcd60e51b815260206004820152601c60248201527f63616c6c6572206973206e6f74206f776e6572206f722061646d696e000000006044820152606401610cc6565b6115a2614008565b600061249f6133c9565b6124a76131e8565b73ffffffffffffffffffffffffffffffffffffffff166124dc60fb5473ffffffffffffffffffffffffffffffffffffffff1690565b73ffffffffffffffffffffffffffffffffffffffff161480612504575061250461050c6131e8565b6125505760405162461bcd60e51b815260206004820152601c60248201527f63616c6c6572206973206e6f74206f776e6572206f722061646d696e000000006044820152606401610cc6565b600161019360008282546125649190615857565b9250508190555061257b8561019354868686614064565b90505b949350505050565b606060668054610b6490615641565b61259d6131e8565b73ffffffffffffffffffffffffffffffffffffffff166125d260fb5473ffffffffffffffffffffffffffffffffffffffff1690565b73ffffffffffffffffffffffffffffffffffffffff1614806125fa57506125fa61050c6131e8565b6126465760405162461bcd60e51b815260206004820152601c60248201527f63616c6c6572206973206e6f74206f776e6572206f722061646d696e000000006044820152606401610cc6565b6115a2600061019655565b600061265b6133c9565b6126636131e8565b73ffffffffffffffffffffffffffffffffffffffff1661269860fb5473ffffffffffffffffffffffffffffffffffffffff1690565b73ffffffffffffffffffffffffffffffffffffffff1614806126c057506126c061050c6131e8565b61270c5760405162461bcd60e51b815260206004820152601c60248201527f63616c6c6572206973206e6f74206f776e6572206f722061646d696e000000006044820152606401610cc6565b6000612718834261586f565b905060005b8551811015612796576000816101935460016127399190615857565b6127439190615857565b905061276a888289858151811061275c5761275c615892565b6020026020010151896140b7565b5067ffffffffffffffff8516156127855761278581846129a9565b5061278f816158c1565b905061271d565b50845161019360008282546127ab9190615857565b909155506001979650505050505050565b611be56127c76131e8565b83836140ef565b6127df6127d96131e8565b8361341c565b6128515760405162461bcd60e51b815260206004820152602e60248201527f4552433732313a2063616c6c6572206973206e6f7420746f6b656e206f776e6560448201527f72206e6f7220617070726f7665640000000000000000000000000000000000006064820152608401610cc6565b61285d84848484614203565b50505050565b6000818152610194602052604090205460609061019261288282613297565b61288b85613297565b60405160200161289d939291906158fa565b604051602081830303815290604052915050919050565b6128bc6131e8565b73ffffffffffffffffffffffffffffffffffffffff166128f160fb5473ffffffffffffffffffffffffffffffffffffffff1690565b73ffffffffffffffffffffffffffffffffffffffff161480612919575061291961050c6131e8565b6129655760405162461bcd60e51b815260206004820152601c60248201527f63616c6c6572206973206e6f74206f776e6572206f722061646d696e000000006044820152606401610cc6565b61019180547fffffffffffffffffffffffff00000000000000000000000000000000000000001673ffffffffffffffffffffffffffffffffffffffff831617905550565b6129b16131e8565b73ffffffffffffffffffffffffffffffffffffffff166129e660fb5473ffffffffffffffffffffffffffffffffffffffff1690565b73ffffffffffffffffffffffffffffffffffffffff161480612a0e5750612a0e61050c6131e8565b612a5a5760405162461bcd60e51b815260206004820152601c60248201527f63616c6c6572206973206e6f74206f776e6572206f722061646d696e000000006044820152606401610cc6565b61176482613177565b612a6b6131e8565b73ffffffffffffffffffffffffffffffffffffffff16612aa060fb5473ffffffffffffffffffffffffffffffffffffffff1690565b73ffffffffffffffffffffffffffffffffffffffff161480612ac85750612ac861050c6131e8565b612b145760405162461bcd60e51b815260206004820152601c60248201527f63616c6c6572206973206e6f74206f776e6572206f722061646d696e000000006044820152606401610cc6565b611be5828261428c565b612b266131e8565b73ffffffffffffffffffffffffffffffffffffffff16612b5b60fb5473ffffffffffffffffffffffffffffffffffffffff1690565b73ffffffffffffffffffffffffffffffffffffffff161480612b835750612b8361050c6131e8565b612bcf5760405162461bcd60e51b815260206004820152601c60248201527f63616c6c6572206973206e6f74206f776e6572206f722061646d696e000000006044820152606401610cc6565b612bd76133c9565b6040517fa0894799000000000000000000000000000000000000000000000000000000008152600481018290528190309063a089479990602401602060405180830381865afa158015612c2e573d6000803e3d6000fd5b505050506040513d601f19601f82011682018060405250810190612c52919061583a565b15612c9f5760405162461bcd60e51b815260206004820152600f60248201527f546f6b656e2069732066726f7a656e00000000000000000000000000000000006044820152606401610cc6565b611be5826143d2565b612cb06131e8565b73ffffffffffffffffffffffffffffffffffffffff16612ce560fb5473ffffffffffffffffffffffffffffffffffffffff1690565b73ffffffffffffffffffffffffffffffffffffffff161480612d0d5750612d0d61050c6131e8565b612d595760405162461bcd60e51b815260206004820152601c60248201527f63616c6c6572206973206e6f74206f776e6572206f722061646d696e000000006044820152606401610cc6565b60009081526101976020526040812055565b6101928054612d7990615641565b80601f0160208091040260200160405190810160405280929190818152602001828054612da590615641565b8015612df25780601f10612dc757610100808354040283529160200191612df2565b820191906000526020600020905b815481529060010190602001808311612dd557829003601f168201915b505050505081565b600073ffffffffffffffffffffffffffffffffffffffff82166e6c3852cbef3e08e8df289169ede5811480612e55575073ffffffffffffffffffffffffffffffffffffffff82166000908152610199602052604090205460ff165b15612e6257506001610b4f565b73ffffffffffffffffffffffffffffffffffffffff8084166000908152606a602090815260408083209386168352929052205460ff165b9392505050565b612ea8613e33565b73ffffffffffffffffffffffffffffffffffffffff8116612f315760405162461bcd60e51b815260206004820152602660248201527f4f776e61626c653a206e6577206f776e657220697320746865207a65726f206160448201527f64647265737300000000000000000000000000000000000000000000000000006064820152608401610cc6565b6114e681613ed3565b6000612f446133c9565b612f4c6131e8565b73ffffffffffffffffffffffffffffffffffffffff16612f8160fb5473ffffffffffffffffffffffffffffffffffffffff1690565b73ffffffffffffffffffffffffffffffffffffffff161480612fa95750612fa961050c6131e8565b612ff55760405162461bcd60e51b815260206004820152601c60248201527f63616c6c6572206973206e6f74206f776e6572206f722061646d696e000000006044820152606401610cc6565b6000613001834261586f565b905060005b865181101561307f576000816101935460016130229190615857565b61302c9190615857565b905061305388838151811061304357613043615892565b60200260200101518289896140b7565b5067ffffffffffffffff85161561306e5761306e81846129a9565b50613078816158c1565b9050613006565b50855161019360008282546127ab9190615857565b60007fffffffff0000000000000000000000000000000000000000000000000000000082167f80ac58cd00000000000000000000000000000000000000000000000000000000148061312757507fffffffff0000000000000000000000000000000000000000000000000000000082167f5b5e139f00000000000000000000000000000000000000000000000000000000145b80610b4f57507f01ffc9a7000000000000000000000000000000000000000000000000000000007fffffffff00000000000000000000000000000000000000000000000000000000831614610b4f565b60008181526067602052604090205473ffffffffffffffffffffffffffffffffffffffff166114e65760405162461bcd60e51b815260206004820152601860248201527f4552433732313a20696e76616c696420746f6b656e20494400000000000000006044820152606401610cc6565b60006131f261443c565b905090565b600081815260696020526040902080547fffffffffffffffffffffffff00000000000000000000000000000000000000001673ffffffffffffffffffffffffffffffffffffffff8416908117909155819061325182611dc1565b73ffffffffffffffffffffffffffffffffffffffff167f8c5be1e5ebec7d5bd14f71427d1e84f3dd0314c0f7b2291e5b200ac8c7c3b92560405160405180910390a45050565b6060816132d757505060408051808201909152600181527f3000000000000000000000000000000000000000000000000000000000000000602082015290565b8160005b811561330157806132eb816158c1565b91506132fa9050600a83615826565b91506132db565b60008167ffffffffffffffff81111561331c5761331c6150e1565b6040519080825280601f01601f191660200182016040528015613346576020820181803683370190505b5090505b841561257e5761335b60018361595c565b9150613368600a86615973565b613373906030615857565b60f81b81838151811061338857613388615892565b60200101907effffffffffffffffffffffffffffffffffffffffffffffffffffffffffffff1916908160001a9053506133c2600a86615826565b945061334a565b60c95460ff16156115a25760405162461bcd60e51b815260206004820152601060248201527f5061757361626c653a20706175736564000000000000000000000000000000006044820152606401610cc6565b60008061342883611dc1565b90508073ffffffffffffffffffffffffffffffffffffffff168473ffffffffffffffffffffffffffffffffffffffff16148061346957506134698185612dfa565b8061257e57508373ffffffffffffffffffffffffffffffffffffffff1661348f84610be7565b73ffffffffffffffffffffffffffffffffffffffff1614949350505050565b8273ffffffffffffffffffffffffffffffffffffffff166134ce82611dc1565b73ffffffffffffffffffffffffffffffffffffffff16146135575760405162461bcd60e51b815260206004820152602560248201527f4552433732313a207472616e736665722066726f6d20696e636f72726563742060448201527f6f776e65720000000000000000000000000000000000000000000000000000006064820152608401610cc6565b73ffffffffffffffffffffffffffffffffffffffff82166135df5760405162461bcd60e51b8152602060048201526024808201527f4552433732313a207472616e7366657220746f20746865207a65726f2061646460448201527f72657373000000000000000000000000000000000000000000000000000000006064820152608401610cc6565b6135ea83838361449c565b6135f56000826131f7565b73ffffffffffffffffffffffffffffffffffffffff8316600090815260686020526040812080546001929061362b90849061595c565b909155505073ffffffffffffffffffffffffffffffffffffffff82166000908152606860205260408120805460019290613666908490615857565b909155505060008181526067602052604080822080547fffffffffffffffffffffffff00000000000000000000000000000000000000001673ffffffffffffffffffffffffffffffffffffffff86811691821790925591518493918716917fddf252ad1be2c89b69c2b068fc378daa952ba7f163c4a11628f55a4df523b3ef91a4505050565b6136f46131e8565b73ffffffffffffffffffffffffffffffffffffffff1661372960fb5473ffffffffffffffffffffffffffffffffffffffff1690565b73ffffffffffffffffffffffffffffffffffffffff161480613751575061375161050c6131e8565b6114e65760405162461bcd60e51b815260206004820152601c60248201527f63616c6c6572206973206e6f74206f776e6572206f722061646d696e000000006044820152606401610cc6565b7f4910fdfa16fed3260ed0e7147f7cc6da11a60208b5b9406d12a635614ffd91435460ff16156137d057610d9383614571565b8273ffffffffffffffffffffffffffffffffffffffff166352d1902d6040518163ffffffff1660e01b8152600401602060405180830381865afa925050508015613855575060408051601f3d9081017fffffffffffffffffffffffffffffffffffffffffffffffffffffffffffffffe016820190925261385291810190615987565b60015b6138c75760405162461bcd60e51b815260206004820152602e60248201527f45524331393637557067726164653a206e657720696d706c656d656e7461746960448201527f6f6e206973206e6f7420555550530000000000000000000000000000000000006064820152608401610cc6565b7f360894a13ba1a3210667c828492db98dca3e2076cc3735a920a3ca505d382bbc811461395c5760405162461bcd60e51b815260206004820152602960248201527f45524331393637557067726164653a20756e737570706f727465642070726f7860448201527f6961626c655555494400000000000000000000000000000000000000000000006064820152608401610cc6565b50610d93838383614661565b613970614686565b60c980547fffffffffffffffffffffffffffffffffffffffffffffffffffffffffffffff001690557f5db9ee0a495bf2e6ff9c91a7834c1ba4fdd244a5e8aa4e537bd38aeae4b073aa6139c16131e8565b60405173ffffffffffffffffffffffffffffffffffffffff909116815260200160405180910390a1565b6139f4816146d8565b600090815261019460209081526040808320839055610195825280832080547fffffffffffffffffffffffffffffffffffffffffffffffffffffffffffffff00169055610198909152902080547fffffffffffffffffffffffffffffffffffffffffffffffff0000000000000000169055565b600054610100900460ff16613ae45760405162461bcd60e51b815260206004820152602b60248201527f496e697469616c697a61626c653a20636f6e7472616374206973206e6f74206960448201527f6e697469616c697a696e670000000000000000000000000000000000000000006064820152608401610cc6565b611be582826147b1565b600054610100900460ff16613b6b5760405162461bcd60e51b815260206004820152602b60248201527f496e697469616c697a61626c653a20636f6e7472616374206973206e6f74206960448201527f6e697469616c697a696e670000000000000000000000000000000000000000006064820152608401610cc6565b6115a2614855565b600054610100900460ff16613bf05760405162461bcd60e51b815260206004820152602b60248201527f496e697469616c697a61626c653a20636f6e7472616374206973206e6f74206960448201527f6e697469616c697a696e670000000000000000000000000000000000000000006064820152608401610cc6565b6115a26148fc565b600054610100900460ff166115a25760405162461bcd60e51b815260206004820152602b60248201527f496e697469616c697a61626c653a20636f6e7472616374206973206e6f74206960448201527f6e697469616c697a696e670000000000000000000000000000000000000000006064820152608401610cc6565b600081815261019560205260409081902080547fffffffffffffffffffffffffffffffffffffffffffffffffffffffffffffff00169055517f083eea12772ab70fba01c8212d02f3bc5dc29b8540dcdc84298e5dfa22731b9290610efd9083815260200190565b6127106bffffffffffffffffffffffff82161115613d625760405162461bcd60e51b815260206004820152602a60248201527f455243323938313a20726f79616c7479206665652077696c6c2065786365656460448201527f2073616c655072696365000000000000000000000000000000000000000000006064820152608401610cc6565b73ffffffffffffffffffffffffffffffffffffffff8216613dc55760405162461bcd60e51b815260206004820152601b60248201527f455243323938313a20496e76616c696420706172616d657465727300000000006044820152606401610cc6565b60408051808201825273ffffffffffffffffffffffffffffffffffffffff93841681526bffffffffffffffffffffffff928316602080830191825260009687526101979052919094209351905190911674010000000000000000000000000000000000000000029116179055565b613e3b6131e8565b73ffffffffffffffffffffffffffffffffffffffff16613e7060fb5473ffffffffffffffffffffffffffffffffffffffff1690565b73ffffffffffffffffffffffffffffffffffffffff16146115a25760405162461bcd60e51b815260206004820181905260248201527f4f776e61626c653a2063616c6c6572206973206e6f7420746865206f776e65726044820152606401610cc6565b60fb805473ffffffffffffffffffffffffffffffffffffffff8381167fffffffffffffffffffffffff0000000000000000000000000000000000000000831681179093556040519116919082907f8be0079c531659141344cd1fd0a4f28419497f9722a3daafe3b4186f6b6457e090600090a35050565b6000828152610198602052604081205467ffffffffffffffff169081613f7b57613f74834261586f565b9050613f88565b613f85838361586f565b90505b6000848152610198602090815260409182902080547fffffffffffffffffffffffffffffffffffffffffffffffff00000000000000001667ffffffffffffffff8516908117909155915191825285917f2ec2be2c4b90c2cf13ecb6751a24daed6bb741ae5ed3f7371aabf9402f6d62e8910160405180910390a250505050565b6140106133c9565b60c980547fffffffffffffffffffffffffffffffffffffffffffffffffffffffffffffff001660011790557f62e78cea01bee320cd4e420270b5ea74000d11b0c9f74754ebdbfc544b05a2586139c16131e8565b60006140708486614989565b60008581526101946020526040902086905582156140915761409185612b1e565b67ffffffffffffffff8216156140ab576140ab8583613f4a565b50600195945050505050565b60006140c38385614989565b60008481526101946020526040902085905581156140e4576140e484612b1e565b506001949350505050565b8173ffffffffffffffffffffffffffffffffffffffff168373ffffffffffffffffffffffffffffffffffffffff16141561416b5760405162461bcd60e51b815260206004820152601960248201527f4552433732313a20617070726f766520746f2063616c6c6572000000000000006044820152606401610cc6565b73ffffffffffffffffffffffffffffffffffffffff8381166000818152606a602090815260408083209487168084529482529182902080547fffffffffffffffffffffffffffffffffffffffffffffffffffffffffffffff001686151590811790915591519182527f17307eab39ab6107e8899845ad3d59bd9653f200f220920489ca2b5937696c31910160405180910390a3505050565b61420e8484846134ae565b61421a84848484614b23565b61285d5760405162461bcd60e51b815260206004820152603260248201527f4552433732313a207472616e7366657220746f206e6f6e20455243373231526560448201527f63656976657220696d706c656d656e74657200000000000000000000000000006064820152608401610cc6565b6127106bffffffffffffffffffffffff821611156143125760405162461bcd60e51b815260206004820152602a60248201527f455243323938313a20726f79616c7479206665652077696c6c2065786365656460448201527f2073616c655072696365000000000000000000000000000000000000000000006064820152608401610cc6565b73ffffffffffffffffffffffffffffffffffffffff82166143755760405162461bcd60e51b815260206004820152601960248201527f455243323938313a20696e76616c6964207265636569766572000000000000006044820152606401610cc6565b6040805180820190915273ffffffffffffffffffffffffffffffffffffffff9092168083526bffffffffffffffffffffffff9091166020909201829052740100000000000000000000000000000000000000009091021761019655565b600081815261019560205260409081902080547fffffffffffffffffffffffffffffffffffffffffffffffffffffffffffffff00166001179055517f4d69b51fee53c28bd8b61fe008151577ca65160b5248f6225e74d64fd4cf732890610efd9083815260200190565b60006014361080159061446757506101915473ffffffffffffffffffffffffffffffffffffffff1633145b1561449757507fffffffffffffffffffffffffffffffffffffffffffffffffffffffffffffffec36013560601c90565b503390565b6144a46133c9565b6040517fa0894799000000000000000000000000000000000000000000000000000000008152600481018290528190309063a089479990602401602060405180830381865afa1580156144fb573d6000803e3d6000fd5b505050506040513d601f19601f8201168201806040525081019061451f919061583a565b1561456c5760405162461bcd60e51b815260206004820152600f60248201527f546f6b656e2069732066726f7a656e00000000000000000000000000000000006044820152606401610cc6565b61285d565b73ffffffffffffffffffffffffffffffffffffffff81163b6145fb5760405162461bcd60e51b815260206004820152602d60248201527f455243313936373a206e657720696d706c656d656e746174696f6e206973206e60448201527f6f74206120636f6e7472616374000000000000000000000000000000000000006064820152608401610cc6565b7f360894a13ba1a3210667c828492db98dca3e2076cc3735a920a3ca505d382bbc80547fffffffffffffffffffffffff00000000000000000000000000000000000000001673ffffffffffffffffffffffffffffffffffffffff92909216919091179055565b61466a83614ce4565b6000825111806146775750805b15610d935761285d8383614d31565b60c95460ff166115a25760405162461bcd60e51b815260206004820152601460248201527f5061757361626c653a206e6f74207061757365640000000000000000000000006044820152606401610cc6565b60006146e382611dc1565b90506146f18160008461449c565b6146fc6000836131f7565b73ffffffffffffffffffffffffffffffffffffffff8116600090815260686020526040812080546001929061473290849061595c565b909155505060008281526067602052604080822080547fffffffffffffffffffffffff00000000000000000000000000000000000000001690555183919073ffffffffffffffffffffffffffffffffffffffff8416907fddf252ad1be2c89b69c2b068fc378daa952ba7f163c4a11628f55a4df523b3ef908390a45050565b600054610100900460ff1661482e5760405162461bcd60e51b815260206004820152602b60248201527f496e697469616c697a61626c653a20636f6e7472616374206973206e6f74206960448201527f6e697469616c697a696e670000000000000000000000000000000000000000006064820152608401610cc6565b8151614841906065906020850190614e8f565b508051610d93906066906020840190614e8f565b600054610100900460ff166148d25760405162461bcd60e51b815260206004820152602b60248201527f496e697469616c697a61626c653a20636f6e7472616374206973206e6f74206960448201527f6e697469616c697a696e670000000000000000000000000000000000000000006064820152608401610cc6565b60c980547fffffffffffffffffffffffffffffffffffffffffffffffffffffffffffffff00169055565b600054610100900460ff166149795760405162461bcd60e51b815260206004820152602b60248201527f496e697469616c697a61626c653a20636f6e7472616374206973206e6f74206960448201527f6e697469616c697a696e670000000000000000000000000000000000000000006064820152608401610cc6565b6115a26149846131e8565b613ed3565b73ffffffffffffffffffffffffffffffffffffffff82166149ec5760405162461bcd60e51b815260206004820181905260248201527f4552433732313a206d696e7420746f20746865207a65726f20616464726573736044820152606401610cc6565b60008181526067602052604090205473ffffffffffffffffffffffffffffffffffffffff1615614a5e5760405162461bcd60e51b815260206004820152601c60248201527f4552433732313a20746f6b656e20616c7265616479206d696e746564000000006044820152606401610cc6565b614a6a6000838361449c565b73ffffffffffffffffffffffffffffffffffffffff82166000908152606860205260408120805460019290614aa0908490615857565b909155505060008181526067602052604080822080547fffffffffffffffffffffffff00000000000000000000000000000000000000001673ffffffffffffffffffffffffffffffffffffffff861690811790915590518392907fddf252ad1be2c89b69c2b068fc378daa952ba7f163c4a11628f55a4df523b3ef908290a45050565b600073ffffffffffffffffffffffffffffffffffffffff84163b15614cdc578373ffffffffffffffffffffffffffffffffffffffff1663150b7a02614b666131e8565b8786866040518563ffffffff1660e01b8152600401614b8894939291906159a0565b6020604051808303816000875af1925050508015614be1575060408051601f3d9081017fffffffffffffffffffffffffffffffffffffffffffffffffffffffffffffffe0168201909252614bde918101906159e9565b60015b614c91573d808015614c0f576040519150601f19603f3d011682016040523d82523d6000602084013e614c14565b606091505b508051614c895760405162461bcd60e51b815260206004820152603260248201527f4552433732313a207472616e7366657220746f206e6f6e20455243373231526560448201527f63656976657220696d706c656d656e74657200000000000000000000000000006064820152608401610cc6565b805181602001fd5b7fffffffff00000000000000000000000000000000000000000000000000000000167f150b7a020000000000000000000000000000000000000000000000000000000014905061257e565b50600161257e565b614ced81614571565b60405173ffffffffffffffffffffffffffffffffffffffff8216907fbc7cd75a20ee27fd9adebab32041f755214dbc6bffa90cc0225b39da2e5c2d3b90600090a250565b606073ffffffffffffffffffffffffffffffffffffffff83163b614dbd5760405162461bcd60e51b815260206004820152602660248201527f416464726573733a2064656c65676174652063616c6c20746f206e6f6e2d636f60448201527f6e747261637400000000000000000000000000000000000000000000000000006064820152608401610cc6565b6000808473ffffffffffffffffffffffffffffffffffffffff1684604051614de59190615a06565b600060405180830381855af49150503d8060008114614e20576040519150601f19603f3d011682016040523d82523d6000602084013e614e25565b606091505b5091509150614e4d8282604051806060016040528060278152602001615a2360279139614e56565b95945050505050565b60608315614e65575081612e99565b825115614e755782518084602001fd5b8160405162461bcd60e51b8152600401610cc69190614fe9565b828054614e9b90615641565b90600052602060002090601f016020900481019282614ebd5760008555614f03565b82601f10614ed657805160ff1916838001178555614f03565b82800160010185558215614f03579182015b82811115614f03578251825591602001919060010190614ee8565b50614f0f929150614f13565b5090565b5b80821115614f0f5760008155600101614f14565b7fffffffff00000000000000000000000000000000000000000000000000000000811681146114e657600080fd5b600060208284031215614f6857600080fd5b8135612e9981614f28565b60005b83811015614f8e578181015183820152602001614f76565b8381111561285d5750506000910152565b60008151808452614fb7816020860160208601614f73565b601f017fffffffffffffffffffffffffffffffffffffffffffffffffffffffffffffffe0169290920160200192915050565b602081526000612e996020830184614f9f565b60006020828403121561500e57600080fd5b5035919050565b803573ffffffffffffffffffffffffffffffffffffffff8116811461503957600080fd5b919050565b6000806040838503121561505157600080fd5b61505a83615015565b946020939093013593505050565b60006020828403121561507a57600080fd5b612e9982615015565b60008060006060848603121561509857600080fd5b6150a184615015565b92506150af60208501615015565b9150604084013590509250925092565b600080604083850312156150d257600080fd5b50508035926020909101359150565b7f4e487b7100000000000000000000000000000000000000000000000000000000600052604160045260246000fd5b604051601f82017fffffffffffffffffffffffffffffffffffffffffffffffffffffffffffffffe016810167ffffffffffffffff81118282101715615157576151576150e1565b604052919050565b600082601f83011261517057600080fd5b813567ffffffffffffffff81111561518a5761518a6150e1565b6151bb60207fffffffffffffffffffffffffffffffffffffffffffffffffffffffffffffffe0601f84011601615110565b8181528460208386010111156151d057600080fd5b816020850160208301376000918101602001919091529392505050565b6000806040838503121561520057600080fd5b823567ffffffffffffffff8082111561521857600080fd5b6152248683870161515f565b9350602085013591508082111561523a57600080fd5b506152478582860161515f565b9150509250929050565b6000806040838503121561526457600080fd5b61526d83615015565b9150602083013567ffffffffffffffff81111561528957600080fd5b6152478582860161515f565b80356bffffffffffffffffffffffff8116811461503957600080fd5b6000806000606084860312156152c657600080fd5b833592506152d660208501615015565b91506152e460408501615295565b90509250925092565b803567ffffffffffffffff8116811461503957600080fd5b6000806040838503121561531857600080fd5b82359150615328602084016152ed565b90509250929050565b60006020828403121561534357600080fd5b813567ffffffffffffffff81111561535a57600080fd5b61257e8482850161515f565b80151581146114e657600080fd5b803561503981615366565b6000806000806080858703121561539557600080fd5b843593506153a560208601615015565b925060408501356153b581615366565b91506153c3606086016152ed565b905092959194509250565b600067ffffffffffffffff8211156153e8576153e86150e1565b5060051b60200190565b6000806000806080858703121561540857600080fd5b8435935060208086013567ffffffffffffffff81111561542757600080fd5b8601601f8101881361543857600080fd5b803561544b615446826153ce565b615110565b81815260059190911b8201830190838101908a83111561546a57600080fd5b928401925b8284101561548f5761548084615015565b8252928401929084019061546f565b80975050505050506153b560408601615374565b600080604083850312156154b657600080fd5b6154bf83615015565b915060208301356154cf81615366565b809150509250929050565b600080600080608085870312156154f057600080fd5b6154f985615015565b935061550760208601615015565b925060408501359150606085013567ffffffffffffffff81111561552a57600080fd5b6155368782880161515f565b91505092959194509250565b6000806040838503121561555557600080fd5b61555e83615015565b915061532860208401615295565b6000806040838503121561557f57600080fd5b61558883615015565b915061532860208401615015565b600080600080608085870312156155ac57600080fd5b843567ffffffffffffffff8111156155c357600080fd5b8501601f810187136155d457600080fd5b803560206155e4615446836153ce565b82815260059290921b8301810191818101908a84111561560357600080fd5b938201935b8385101561562157843582529382019390820190615608565b97506156309050888201615015565b95505050506153b560408601615374565b600181811c9082168061565557607f821691505b6020821081141561568f577f4e487b7100000000000000000000000000000000000000000000000000000000600052602260045260246000fd5b50919050565b8054600090600181811c90808316806156af57607f831692505b60208084108214156156ea577f4e487b7100000000000000000000000000000000000000000000000000000000600052602260045260246000fd5b8180156156fe576001811461572d5761575a565b7fffffffffffffffffffffffffffffffffffffffffffffffffffffffffffffff0086168952848901965061575a565b60008881526020902060005b868110156157525781548b820152908501908301615739565b505084890196505b50505050505092915050565b60006157728285615695565b8351615782818360208801614f73565b01949350505050565b7f4e487b7100000000000000000000000000000000000000000000000000000000600052601160045260246000fd5b6000817fffffffffffffffffffffffffffffffffffffffffffffffffffffffffffffffff04831182151516156157f2576157f261578b565b500290565b7f4e487b7100000000000000000000000000000000000000000000000000000000600052601260045260246000fd5b600082615835576158356157f7565b500490565b60006020828403121561584c57600080fd5b8151612e9981615366565b6000821982111561586a5761586a61578b565b500190565b600067ffffffffffffffff8083168185168083038211156157825761578261578b565b7f4e487b7100000000000000000000000000000000000000000000000000000000600052603260045260246000fd5b60007fffffffffffffffffffffffffffffffffffffffffffffffffffffffffffffffff8214156158f3576158f361578b565b5060010190565b60006159068286615695565b8451615916818360208901614f73565b7f2f000000000000000000000000000000000000000000000000000000000000009101908152835161594f816001840160208801614f73565b0160010195945050505050565b60008282101561596e5761596e61578b565b500390565b600082615982576159826157f7565b500690565b60006020828403121561599957600080fd5b5051919050565b600073ffffffffffffffffffffffffffffffffffffffff8087168352808616602084015250836040830152608060608301526159df6080830184614f9f565b9695505050505050565b6000602082840312156159fb57600080fd5b8151612e9981614f28565b60008251615a18818460208701614f73565b919091019291505056fe416464726573733a206c6f772d6c6576656c2064656c65676174652063616c6c206661696c6564a2646970667358221220697e2a9550f80b66d02b9d569ba14b7803d26088e72e92dc94875d11ef161f2f64736f6c634300080c0033",
  "linkReferences": {},
  "deployedLinkReferences": {}
}