{
  "_format": "hh-sol-artifact-1",
  "contractName": "UVCollectable",
  "sourceName": "contracts/UVCollectable.sol",
  "abi": [
    {
      "inputs": [],
      "stateMutability": "nonpayable",
      "type": "constructor"
    },
    {
      "inputs": [
        {
          "internalType": "address",
          "name": "operator",
          "type": "address"
        }
      ],
      "name": "OperatorNotAllowed",
      "type": "error"
    },
    {
      "anonymous": false,
      "inputs": [
        {
          "indexed": false,
          "internalType": "address",
          "name": "previousAdmin",
          "type": "address"
        },
        {
          "indexed": false,
          "internalType": "address",
          "name": "newAdmin",
          "type": "address"
        }
      ],
      "name": "AdminChanged",
      "type": "event"
    },
    {
      "anonymous": false,
      "inputs": [
        {
          "indexed": false,
          "internalType": "address",
          "name": "admin",
          "type": "address"
        },
        {
          "indexed": false,
          "internalType": "bool",
          "name": "added",
          "type": "bool"
        }
      ],
      "name": "AdminUpdated",
      "type": "event"
    },
    {
      "anonymous": false,
      "inputs": [
        {
          "indexed": true,
          "internalType": "address",
          "name": "owner",
          "type": "address"
        },
        {
          "indexed": true,
          "internalType": "address",
          "name": "approved",
          "type": "address"
        },
        {
          "indexed": true,
          "internalType": "uint256",
          "name": "tokenId",
          "type": "uint256"
        }
      ],
      "name": "Approval",
      "type": "event"
    },
    {
      "anonymous": false,
      "inputs": [
        {
          "indexed": true,
          "internalType": "address",
          "name": "owner",
          "type": "address"
        },
        {
          "indexed": true,
          "internalType": "address",
          "name": "operator",
          "type": "address"
        },
        {
          "indexed": false,
          "internalType": "bool",
          "name": "approved",
          "type": "bool"
        }
      ],
      "name": "ApprovalForAll",
      "type": "event"
    },
    {
      "anonymous": false,
      "inputs": [
        {
          "indexed": true,
          "internalType": "address",
          "name": "beacon",
          "type": "address"
        }
      ],
      "name": "BeaconUpgraded",
      "type": "event"
    },
    {
      "anonymous": false,
      "inputs": [
        {
          "indexed": false,
          "internalType": "uint8",
          "name": "version",
          "type": "uint8"
        }
      ],
      "name": "Initialized",
      "type": "event"
    },
    {
      "anonymous": false,
      "inputs": [
        {
          "indexed": false,
          "internalType": "uint256",
          "name": "tokenId",
          "type": "uint256"
        }
      ],
      "name": "Locked",
      "type": "event"
    },
    {
      "anonymous": false,
      "inputs": [
        {
          "indexed": true,
          "internalType": "address",
          "name": "previousOwner",
          "type": "address"
        },
        {
          "indexed": true,
          "internalType": "address",
          "name": "newOwner",
          "type": "address"
        }
      ],
      "name": "OwnershipTransferred",
      "type": "event"
    },
    {
      "anonymous": false,
      "inputs": [
        {
          "indexed": false,
          "internalType": "address",
          "name": "account",
          "type": "address"
        }
      ],
      "name": "Paused",
      "type": "event"
    },
    {
      "anonymous": false,
      "inputs": [
        {
          "indexed": true,
          "internalType": "uint256",
          "name": "tokenId",
          "type": "uint256"
        },
        {
          "indexed": false,
          "internalType": "uint64",
          "name": "expiration",
          "type": "uint64"
        }
      ],
      "name": "SubscriptionUpdate",
      "type": "event"
    },
    {
      "anonymous": false,
      "inputs": [
        {
          "indexed": true,
          "internalType": "address",
          "name": "from",
          "type": "address"
        },
        {
          "indexed": true,
          "internalType": "address",
          "name": "to",
          "type": "address"
        },
        {
          "indexed": true,
          "internalType": "uint256",
          "name": "tokenId",
          "type": "uint256"
        }
      ],
      "name": "Transfer",
      "type": "event"
    },
    {
      "anonymous": false,
      "inputs": [
        {
          "indexed": false,
          "internalType": "uint256",
          "name": "tokenId",
          "type": "uint256"
        }
      ],
      "name": "Unlocked",
      "type": "event"
    },
    {
      "anonymous": false,
      "inputs": [
        {
          "indexed": false,
          "internalType": "address",
          "name": "account",
          "type": "address"
        }
      ],
      "name": "Unpaused",
      "type": "event"
    },
    {
      "anonymous": false,
      "inputs": [
        {
          "indexed": true,
          "internalType": "address",
          "name": "implementation",
          "type": "address"
        }
      ],
      "name": "Upgraded",
      "type": "event"
    },
    {
      "inputs": [
        {
          "internalType": "address",
          "name": "newAdmin",
          "type": "address"
        }
      ],
      "name": "addAdmin",
      "outputs": [],
      "stateMutability": "nonpayable",
      "type": "function"
    },
    {
      "inputs": [
        {
          "internalType": "address",
          "name": "operator",
          "type": "address"
        },
        {
          "internalType": "uint256",
          "name": "tokenId",
          "type": "uint256"
        }
      ],
      "name": "approve",
      "outputs": [],
      "stateMutability": "nonpayable",
      "type": "function"
    },
    {
      "inputs": [
        {
          "internalType": "address",
          "name": "owner",
          "type": "address"
        }
      ],
      "name": "balanceOf",
      "outputs": [
        {
          "internalType": "uint256",
          "name": "",
          "type": "uint256"
        }
      ],
      "stateMutability": "view",
      "type": "function"
    },
    {
      "inputs": [
        {
          "internalType": "uint256",
          "name": "tokenId",
          "type": "uint256"
        }
      ],
      "name": "burn",
      "outputs": [],
      "stateMutability": "nonpayable",
      "type": "function"
    },
    {
      "inputs": [
        {
          "internalType": "uint256",
          "name": "tokenId",
          "type": "uint256"
        }
      ],
      "name": "cancelSubscription",
      "outputs": [],
      "stateMutability": "nonpayable",
      "type": "function"
    },
    {
      "inputs": [
        {
          "internalType": "uint256",
          "name": "collectionId",
          "type": "uint256"
        }
      ],
      "name": "collectionURI",
      "outputs": [
        {
          "internalType": "string",
          "name": "",
          "type": "string"
        }
      ],
      "stateMutability": "view",
      "type": "function"
    },
    {
      "inputs": [],
      "name": "contractURI",
      "outputs": [
        {
          "internalType": "string",
          "name": "",
          "type": "string"
        }
      ],
      "stateMutability": "view",
      "type": "function"
    },
    {
      "inputs": [
        {
          "internalType": "uint256",
          "name": "tokenId",
          "type": "uint256"
        }
      ],
      "name": "expiresAt",
      "outputs": [
        {
          "internalType": "uint64",
          "name": "",
          "type": "uint64"
        }
      ],
      "stateMutability": "view",
      "type": "function"
    },
    {
      "inputs": [
        {
          "internalType": "uint256",
          "name": "tokenId",
          "type": "uint256"
        }
      ],
      "name": "getApproved",
      "outputs": [
        {
          "internalType": "address",
          "name": "",
          "type": "address"
        }
      ],
      "stateMutability": "view",
      "type": "function"
    },
    {
      "inputs": [],
      "name": "getTrustedForwarder",
      "outputs": [
        {
          "internalType": "address",
          "name": "forwarder",
          "type": "address"
        }
      ],
      "stateMutability": "view",
      "type": "function"
    },
    {
      "inputs": [
        {
          "internalType": "string",
          "name": "__name",
          "type": "string"
        },
        {
          "internalType": "string",
          "name": "__symbol",
          "type": "string"
        },
        {
          "internalType": "string",
          "name": "__contractURI",
          "type": "string"
        },
        {
          "internalType": "address[]",
          "name": "__admins",
          "type": "address[]"
        }
      ],
      "name": "initialize",
      "outputs": [],
      "stateMutability": "nonpayable",
      "type": "function"
    },
    {
      "inputs": [
        {
          "internalType": "address",
          "name": "admin",
          "type": "address"
        }
      ],
      "name": "isAdmin",
      "outputs": [
        {
          "internalType": "bool",
          "name": "",
          "type": "bool"
        }
      ],
      "stateMutability": "view",
      "type": "function"
    },
    {
      "inputs": [
        {
          "internalType": "address",
          "name": "_owner",
          "type": "address"
        },
        {
          "internalType": "address",
          "name": "_operator",
          "type": "address"
        }
      ],
      "name": "isApprovedForAll",
      "outputs": [
        {
          "internalType": "bool",
          "name": "isOperator",
          "type": "bool"
        }
      ],
      "stateMutability": "view",
      "type": "function"
    },
    {
      "inputs": [
        {
          "internalType": "uint256",
          "name": "tokenId",
          "type": "uint256"
        }
      ],
      "name": "isLocked",
      "outputs": [
        {
          "internalType": "bool",
          "name": "",
          "type": "bool"
        }
      ],
      "stateMutability": "view",
      "type": "function"
    },
    {
      "inputs": [
        {
          "internalType": "uint256",
          "name": "",
          "type": "uint256"
        }
      ],
      "name": "isRenewable",
      "outputs": [
        {
          "internalType": "bool",
          "name": "",
          "type": "bool"
        }
      ],
      "stateMutability": "pure",
      "type": "function"
    },
    {
      "inputs": [
        {
          "internalType": "address",
          "name": "forwarder",
          "type": "address"
        }
      ],
      "name": "isTrustedForwarder",
      "outputs": [
        {
          "internalType": "bool",
          "name": "",
          "type": "bool"
        }
      ],
      "stateMutability": "view",
      "type": "function"
    },
    {
      "inputs": [],
      "name": "lastId",
      "outputs": [
        {
          "internalType": "uint256",
          "name": "",
          "type": "uint256"
        }
      ],
      "stateMutability": "view",
      "type": "function"
    },
    {
      "inputs": [
        {
          "internalType": "uint256",
          "name": "tokenId",
          "type": "uint256"
        }
      ],
      "name": "lockToken",
      "outputs": [],
      "stateMutability": "nonpayable",
      "type": "function"
    },
    {
      "inputs": [
        {
          "internalType": "uint256",
          "name": "collectionId",
          "type": "uint256"
        },
        {
          "internalType": "address[]",
          "name": "to",
          "type": "address[]"
        },
        {
          "internalType": "bool",
          "name": "locked",
          "type": "bool"
        },
        {
          "internalType": "uint64",
          "name": "validDuration",
          "type": "uint64"
        }
      ],
      "name": "mintCollectionToManyUsers",
      "outputs": [
        {
          "internalType": "bool",
          "name": "",
          "type": "bool"
        }
      ],
      "stateMutability": "nonpayable",
      "type": "function"
    },
    {
      "inputs": [
        {
          "internalType": "uint256",
          "name": "collectionId",
          "type": "uint256"
        },
        {
          "internalType": "address",
          "name": "to",
          "type": "address"
        },
        {
          "internalType": "bool",
          "name": "locked",
          "type": "bool"
        },
        {
          "internalType": "uint64",
          "name": "validDuration",
          "type": "uint64"
        }
      ],
      "name": "mintToken",
      "outputs": [
        {
          "internalType": "bool",
          "name": "",
          "type": "bool"
        }
      ],
      "stateMutability": "nonpayable",
      "type": "function"
    },
    {
      "inputs": [
        {
          "internalType": "uint256[]",
          "name": "collectionIds",
          "type": "uint256[]"
        },
        {
          "internalType": "address",
          "name": "to",
          "type": "address"
        },
        {
          "internalType": "bool",
          "name": "locked",
          "type": "bool"
        },
        {
          "internalType": "uint64",
          "name": "validDuration",
          "type": "uint64"
        }
      ],
      "name": "mintUserToManyCollections",
      "outputs": [
        {
          "internalType": "bool",
          "name": "",
          "type": "bool"
        }
      ],
      "stateMutability": "nonpayable",
      "type": "function"
    },
    {
      "inputs": [],
      "name": "name",
      "outputs": [
        {
          "internalType": "string",
          "name": "",
          "type": "string"
        }
      ],
      "stateMutability": "view",
      "type": "function"
    },
    {
      "inputs": [],
      "name": "owner",
      "outputs": [
        {
          "internalType": "address",
          "name": "",
          "type": "address"
        }
      ],
      "stateMutability": "view",
      "type": "function"
    },
    {
      "inputs": [
        {
          "internalType": "uint256",
          "name": "tokenId",
          "type": "uint256"
        }
      ],
      "name": "ownerOf",
      "outputs": [
        {
          "internalType": "address",
          "name": "",
          "type": "address"
        }
      ],
      "stateMutability": "view",
      "type": "function"
    },
    {
      "inputs": [],
      "name": "pause",
      "outputs": [],
      "stateMutability": "nonpayable",
      "type": "function"
    },
    {
      "inputs": [],
      "name": "paused",
      "outputs": [
        {
          "internalType": "bool",
          "name": "",
          "type": "bool"
        }
      ],
      "stateMutability": "view",
      "type": "function"
    },
    {
      "inputs": [],
      "name": "proxiableUUID",
      "outputs": [
        {
          "internalType": "bytes32",
          "name": "",
          "type": "bytes32"
        }
      ],
      "stateMutability": "view",
      "type": "function"
    },
    {
      "inputs": [
        {
          "internalType": "uint256",
          "name": "tokenId",
          "type": "uint256"
        },
        {
          "internalType": "address",
          "name": "recipient",
          "type": "address"
        }
      ],
      "name": "reclaimToken",
      "outputs": [],
      "stateMutability": "nonpayable",
      "type": "function"
    },
    {
      "inputs": [
        {
          "internalType": "address",
          "name": "admin",
          "type": "address"
        }
      ],
      "name": "removeAdmin",
      "outputs": [],
      "stateMutability": "nonpayable",
      "type": "function"
    },
    {
      "inputs": [
        {
          "internalType": "uint256",
          "name": "collectionId",
          "type": "uint256"
        }
      ],
      "name": "removeCollectionRoyalty",
      "outputs": [],
      "stateMutability": "nonpayable",
      "type": "function"
    },
    {
      "inputs": [],
      "name": "removeDefaultRoyalty",
      "outputs": [],
      "stateMutability": "nonpayable",
      "type": "function"
    },
    {
      "inputs": [
        {
          "internalType": "uint256",
          "name": "tokenId",
          "type": "uint256"
        },
        {
          "internalType": "uint64",
          "name": "duration",
          "type": "uint64"
        }
      ],
      "name": "renewSubscription",
      "outputs": [],
      "stateMutability": "nonpayable",
      "type": "function"
    },
    {
      "inputs": [],
      "name": "renounceOwnership",
      "outputs": [],
      "stateMutability": "nonpayable",
      "type": "function"
    },
    {
      "inputs": [
        {
          "internalType": "uint256",
          "name": "_tokenId",
          "type": "uint256"
        },
        {
          "internalType": "uint256",
          "name": "_salePrice",
          "type": "uint256"
        }
      ],
      "name": "royaltyInfo",
      "outputs": [
        {
          "internalType": "address",
          "name": "",
          "type": "address"
        },
        {
          "internalType": "uint256",
          "name": "",
          "type": "uint256"
        }
      ],
      "stateMutability": "view",
      "type": "function"
    },
    {
      "inputs": [
        {
          "internalType": "address",
          "name": "from",
          "type": "address"
        },
        {
          "internalType": "address",
          "name": "to",
          "type": "address"
        },
        {
          "internalType": "uint256",
          "name": "tokenId",
          "type": "uint256"
        }
      ],
      "name": "safeTransferFrom",
      "outputs": [],
      "stateMutability": "nonpayable",
      "type": "function"
    },
    {
      "inputs": [
        {
          "internalType": "address",
          "name": "from",
          "type": "address"
        },
        {
          "internalType": "address",
          "name": "to",
          "type": "address"
        },
        {
          "internalType": "uint256",
          "name": "tokenId",
          "type": "uint256"
        },
        {
          "internalType": "bytes",
          "name": "data",
          "type": "bytes"
        }
      ],
      "name": "safeTransferFrom",
      "outputs": [],
      "stateMutability": "nonpayable",
      "type": "function"
    },
    {
      "inputs": [
        {
          "internalType": "address",
          "name": "operator",
          "type": "address"
        },
        {
          "internalType": "bool",
          "name": "approved",
          "type": "bool"
        }
      ],
      "name": "setApprovalForAll",
      "outputs": [],
      "stateMutability": "nonpayable",
      "type": "function"
    },
    {
      "inputs": [
        {
          "internalType": "uint256",
          "name": "tokenId",
          "type": "uint256"
        },
        {
          "internalType": "uint64",
          "name": "newExpiration",
          "type": "uint64"
        }
      ],
      "name": "setExpiration",
      "outputs": [],
      "stateMutability": "nonpayable",
      "type": "function"
    },
    {
      "inputs": [
        {
          "internalType": "uint256",
          "name": "newLastId",
          "type": "uint256"
        }
      ],
      "name": "setLastId",
      "outputs": [],
      "stateMutability": "nonpayable",
      "type": "function"
    },
    {
      "inputs": [
        {
          "internalType": "address",
          "name": "forwarder",
          "type": "address"
        }
      ],
      "name": "setTurstedForwarder",
      "outputs": [],
      "stateMutability": "nonpayable",
      "type": "function"
    },
    {
      "inputs": [
        {
          "internalType": "bytes4",
          "name": "interfaceId",
          "type": "bytes4"
        }
      ],
      "name": "supportsInterface",
      "outputs": [
        {
          "internalType": "bool",
          "name": "",
          "type": "bool"
        }
      ],
      "stateMutability": "view",
      "type": "function"
    },
    {
      "inputs": [],
      "name": "symbol",
      "outputs": [
        {
          "internalType": "string",
          "name": "",
          "type": "string"
        }
      ],
      "stateMutability": "view",
      "type": "function"
    },
    {
      "inputs": [
        {
          "internalType": "uint256",
          "name": "tokenId",
          "type": "uint256"
        }
      ],
      "name": "tokenCollection",
      "outputs": [
        {
          "internalType": "uint256",
          "name": "",
          "type": "uint256"
        }
      ],
      "stateMutability": "view",
      "type": "function"
    },
    {
      "inputs": [
        {
          "internalType": "uint256",
          "name": "tokenId",
          "type": "uint256"
        }
      ],
      "name": "tokenURI",
      "outputs": [
        {
          "internalType": "string",
          "name": "",
          "type": "string"
        }
      ],
      "stateMutability": "view",
      "type": "function"
    },
    {
      "inputs": [
        {
          "internalType": "address",
          "name": "from",
          "type": "address"
        },
        {
          "internalType": "address",
          "name": "to",
          "type": "address"
        },
        {
          "internalType": "uint256",
          "name": "tokenId",
          "type": "uint256"
        }
      ],
      "name": "transferFrom",
      "outputs": [],
      "stateMutability": "nonpayable",
      "type": "function"
    },
    {
      "inputs": [
        {
          "internalType": "address",
          "name": "newOwner",
          "type": "address"
        }
      ],
      "name": "transferOwnership",
      "outputs": [],
      "stateMutability": "nonpayable",
      "type": "function"
    },
    {
      "inputs": [
        {
          "internalType": "uint256",
          "name": "tokenId",
          "type": "uint256"
        }
      ],
      "name": "unlockToken",
      "outputs": [],
      "stateMutability": "nonpayable",
      "type": "function"
    },
    {
      "inputs": [],
      "name": "unpause",
      "outputs": [],
      "stateMutability": "nonpayable",
      "type": "function"
    },
    {
      "inputs": [
        {
          "internalType": "uint256",
          "name": "collectionId",
          "type": "uint256"
        },
        {
          "internalType": "address",
          "name": "receiver",
          "type": "address"
        },
        {
          "internalType": "uint96",
          "name": "feeNumerator",
          "type": "uint96"
        }
      ],
      "name": "updateCollectionRoyalty",
      "outputs": [],
      "stateMutability": "nonpayable",
      "type": "function"
    },
    {
      "inputs": [
        {
          "internalType": "string",
          "name": "__contractURI",
          "type": "string"
        }
      ],
      "name": "updateContractURI",
      "outputs": [],
      "stateMutability": "nonpayable",
      "type": "function"
    },
    {
      "inputs": [
        {
          "internalType": "address",
          "name": "receiver",
          "type": "address"
        },
        {
          "internalType": "uint96",
          "name": "feeNumerator",
          "type": "uint96"
        }
      ],
      "name": "updateDefaultRoyalty",
      "outputs": [],
      "stateMutability": "nonpayable",
      "type": "function"
    },
    {
      "inputs": [
        {
          "internalType": "address",
          "name": "newImplementation",
          "type": "address"
        }
      ],
      "name": "upgradeTo",
      "outputs": [],
      "stateMutability": "nonpayable",
      "type": "function"
    },
    {
      "inputs": [
        {
          "internalType": "address",
          "name": "newImplementation",
          "type": "address"
        },
        {
          "internalType": "bytes",
          "name": "data",
          "type": "bytes"
        }
      ],
      "name": "upgradeToAndCall",
      "outputs": [],
      "stateMutability": "payable",
      "type": "function"
    }
  ],
  "bytecode": "0x60a0604052306080523480156200001557600080fd5b506200002062000026565b620000e8565b600054610100900460ff1615620000935760405162461bcd60e51b815260206004820152602760248201527f496e697469616c697a61626c653a20636f6e747261637420697320696e697469604482015266616c697a696e6760c81b606482015260840160405180910390fd5b60005460ff9081161015620000e6576000805460ff191660ff9081179091556040519081527f7f26b83ff96e1f2b6a682f133852f6798a09c465da95921460cefb38474024989060200160405180910390a15b565b608051615ad0620001206000396000818161123d015281816112d3015281816115f80152818161168e01526117890152615ad06000f3fe60806040526004361061034a5760003560e01c8063715018a6116101bb578063c1292cc3116100f7578063d953e4d411610095578063e985e9c51161006f578063e985e9c5146109a3578063f2fde38b146109c3578063f6aacfb1146109e3578063fb1fcca114610a1457600080fd5b8063d953e4d41461094e578063dd2e0ac01461096e578063e8a3d4851461098e57600080fd5b8063ce1b815f116100d1578063ce1b815f146108cf578063cea0302e146108ee578063d1c332de1461090e578063d691e43c1461092e57600080fd5b8063c1292cc314610877578063c87b56dd1461088e578063cde317af146108ae57600080fd5b80638da5cb5b1161016457806397ec4fba1161013e57806397ec4fba146108025780639a80c5e314610817578063a22cb46514610837578063b88d4fde1461085757600080fd5b80638da5cb5b146107af5780638e45d62e146107cd57806395d89b41146107ed57600080fd5b806380f203631161019557806380f203631461075a5780638456cb591461077a5780638d2320941461078f57600080fd5b8063715018a614610705578063776ce8681461071a5780637e5b1e241461073a57600080fd5b80633659cfe61161028a578063572b6c05116102335780636352211e1161020d5780636352211e146106855780636a662a3c146106a557806370480275146106c557806370a08231146106e557600080fd5b8063572b6c051461061d57806359ce12ad1461064d5780635c975abb1461066d57600080fd5b806342966c681161026457806342966c68146105d55780634f1ef286146105f557806352d1902d1461060857600080fd5b80633659cfe6146105805780633f4ba83a146105a057806342842e0e146105b557600080fd5b806317c95709116102f757806323b872dd116102d157806323b872dd146104b957806324d7806c146104d95780632a55205a146105135780632dd883e81461055257600080fd5b806317c95709146104405780631a27e85f14610479578063212350831461049957600080fd5b8063095ea7b311610328578063095ea7b3146103de5780631771c96c146104005780631785f53c1461042057600080fd5b806301ffc9a71461034f57806306fdde0314610384578063081812fc146103a6575b600080fd5b34801561035b57600080fd5b5061036f61036a366004614fee565b610a34565b60405190151581526020015b60405180910390f35b34801561039057600080fd5b50610399610adc565b60405161037b9190615081565b3480156103b257600080fd5b506103c66103c1366004615094565b610b6e565b6040516001600160a01b03909116815260200161037b565b3480156103ea57600080fd5b506103fe6103f93660046150c9565b610b95565b005b34801561040c57600080fd5b5061039961041b366004615094565b610c95565b34801561042c57600080fd5b506103fe61043b3660046150f3565b610cca565b34801561044c57600080fd5b5061046061045b366004615094565b610dd1565b60405167ffffffffffffffff909116815260200161037b565b34801561048557600080fd5b506103fe610494366004615094565b610dfa565b3480156104a557600080fd5b506103fe6104b4366004615094565b610ee4565b3480156104c557600080fd5b506103fe6104d436600461510e565b610fda565b3480156104e557600080fd5b5061036f6104f43660046150f3565b6001600160a01b03166000908152610199602052604090205460ff1690565b34801561051f57600080fd5b5061053361052e36600461514a565b611120565b604080516001600160a01b03909316835260208301919091520161037b565b34801561055e57600080fd5b5061057261056d366004615094565b611213565b60405190815260200161037b565b34801561058c57600080fd5b506103fe61059b3660046150f3565b611232565b3480156105ac57600080fd5b506103fe6113d0565b3480156105c157600080fd5b506103fe6105d036600461510e565b611464565b3480156105e157600080fd5b506103fe6105f0366004615094565b611561565b6103fe610603366004615246565b6115ed565b34801561061457600080fd5b5061057261177c565b34801561062957600080fd5b5061036f6106383660046150f3565b610191546001600160a01b0391821691161490565b34801561065957600080fd5b506103fe610668366004615294565b611841565b34801561067957600080fd5b5060c95460ff1661036f565b34801561069157600080fd5b506103c66106a0366004615094565b6118f0565b3480156106b157600080fd5b506103fe6106c03660046152dc565b611955565b3480156106d157600080fd5b506103fe6106e03660046150f3565b6119ea565b3480156106f157600080fd5b506105726107003660046150f3565b611b69565b34801561071157600080fd5b506103fe611c03565b34801561072657600080fd5b506103fe610735366004615330565b611c15565b34801561074657600080fd5b506103fe610755366004615353565b611cb2565b34801561076657600080fd5b506103fe610775366004615094565b611d50565b34801561078657600080fd5b506103fe611eac565b34801561079b57600080fd5b506103fe6107aa3660046153cd565b611f3e565b3480156107bb57600080fd5b5060fb546001600160a01b03166103c6565b3480156107d957600080fd5b5061036f6107e836600461548f565b612134565b3480156107f957600080fd5b506103996121fe565b34801561080e57600080fd5b506103fe61220d565b34801561082357600080fd5b5061036f6108323660046154de565b6122a2565b34801561084357600080fd5b506103fe61085236600461554e565b612463565b34801561086357600080fd5b506103fe610872366004615585565b612559565b34801561088357600080fd5b506105726101935481565b34801561089a57600080fd5b506103996108a9366004615094565b612664565b3480156108ba57600080fd5b5061036f6108c9366004615094565b50600190565b3480156108db57600080fd5b50610191546001600160a01b03166103c6565b3480156108fa57600080fd5b506103fe6109093660046150f3565b6126b1565b34801561091a57600080fd5b506103fe610929366004615330565b612772565b34801561093a57600080fd5b506103fe6109493660046155ed565b612883565b34801561095a57600080fd5b506103fe610969366004615094565b612917565b34801561097a57600080fd5b506103fe610989366004615094565b6129b3565b34801561099a57600080fd5b50610399612a57565b3480156109af57600080fd5b5061036f6109be366004615617565b612ae6565b3480156109cf57600080fd5b506103fe6109de3660046150f3565b612b65565b3480156109ef57600080fd5b5061036f6109fe366004615094565b6000908152610195602052604090205460ff1690565b348015610a2057600080fd5b5061036f610a2f366004615641565b612bf2565b60007fffffffff0000000000000000000000000000000000000000000000000000000082167f8c65f84d000000000000000000000000000000000000000000000000000000001480610ac757507fffffffff0000000000000000000000000000000000000000000000000000000082167f2a55205a00000000000000000000000000000000000000000000000000000000145b80610ad65750610ad682612d86565b92915050565b606060658054610aeb9061569f565b80601f0160208091040260200160405190810160405280929190818152602001828054610b179061569f565b8015610b645780601f10610b3957610100808354040283529160200191610b64565b820191906000526020600020905b815481529060010190602001808311610b4757829003601f168201915b5050505050905090565b6000610b7982612e69565b506000908152606960205260409020546001600160a01b031690565b816daaeb6d7670e522a718067333cd4e3b15610c86576040517fc61711340000000000000000000000000000000000000000000000000000000081523060048201526001600160a01b03821660248201526daaeb6d7670e522a718067333cd4e9063c617113490604401602060405180830381865afa158015610c1c573d6000803e3d6000fd5b505050506040513d601f19601f82011682018060405250810190610c4091906156f3565b610c86576040517fede71dcc0000000000000000000000000000000000000000000000000000000081526001600160a01b03821660048201526024015b60405180910390fd5b610c908383612ecd565b505050565b6060610192610ca38361300c565b604051602001610cb49291906157e1565b6040516020818303038152906040529050919050565b610cd261313e565b6001600160a01b0316610ced60fb546001600160a01b031690565b6001600160a01b03161480610d085750610d086104f461313e565b610d545760405162461bcd60e51b815260206004820152601c60248201527f63616c6c6572206973206e6f74206f776e6572206f722061646d696e000000006044820152606401610c7d565b6001600160a01b03811660008181526101996020908152604080832080547fffffffffffffffffffffffffffffffffffffffffffffffffffffffffffffff001690558051938452908301919091527f235bc17e7930760029e9f4d860a2a8089976de5b381cf8380fc11c1d88a1113391015b60405180910390a150565b6000610ddc82612e69565b506000908152610198602052604090205467ffffffffffffffff1690565b610e0261313e565b6001600160a01b0316610e1d60fb546001600160a01b031690565b6001600160a01b03161480610e385750610e386104f461313e565b610e845760405162461bcd60e51b815260206004820152601c60248201527f63616c6c6572206973206e6f74206f776e6572206f722061646d696e000000006044820152606401610c7d565b610e8c61314d565b806101935410610ede5760405162461bcd60e51b815260206004820152601760248201527f4e65772049642068617320746f206265206869676865720000000000000000006044820152606401610c7d565b61019355565b610eec61313e565b6001600160a01b0316610f0760fb546001600160a01b031690565b6001600160a01b03161480610f225750610f226104f461313e565b610f6e5760405162461bcd60e51b815260206004820152601c60248201527f63616c6c6572206973206e6f74206f776e6572206f722061646d696e000000006044820152606401610c7d565b60008181526101986020908152604080832080547fffffffffffffffffffffffffffffffffffffffffffffffff00000000000000001690555191825282917f2ec2be2c4b90c2cf13ecb6751a24daed6bb741ae5ed3f7371aabf9402f6d62e8910160405180910390a250565b826daaeb6d7670e522a718067333cd4e3b1561110f57610ff861313e565b6001600160a01b0316816001600160a01b031614156110215761101c8484846131a0565b61111a565b6daaeb6d7670e522a718067333cd4e63c61711343061103e61313e565b6040517fffffffff0000000000000000000000000000000000000000000000000000000060e085901b1681526001600160a01b03928316600482015291166024820152604401602060405180830381865afa1580156110a1573d6000803e3d6000fd5b505050506040513d601f19601f820116820180604052508101906110c591906156f3565b61110f576110d161313e565b6040517fede71dcc0000000000000000000000000000000000000000000000000000000081526001600160a01b039091166004820152602401610c7d565b61111a8484846131a0565b50505050565b600080600061112e85611213565b600081815261019760209081526040918290208251808401909352546001600160a01b038116808452740100000000000000000000000000000000000000009091046bffffffffffffffffffffffff1691830191909152919250906111d4575060408051808201909152610196546001600160a01b03811682527401000000000000000000000000000000000000000090046bffffffffffffffffffffffff1660208201525b6020810151600090612710906111f8906bffffffffffffffffffffffff1688615835565b61120291906158a1565b9151945090925050505b9250929050565b600061121e82612e69565b506000908152610194602052604090205490565b306001600160a01b037f00000000000000000000000000000000000000000000000000000000000000001614156112d15760405162461bcd60e51b815260206004820152602c60248201527f46756e6374696f6e206d7573742062652063616c6c6564207468726f7567682060448201527f64656c656761746563616c6c00000000000000000000000000000000000000006064820152608401610c7d565b7f00000000000000000000000000000000000000000000000000000000000000006001600160a01b031661132c7f360894a13ba1a3210667c828492db98dca3e2076cc3735a920a3ca505d382bbc546001600160a01b031690565b6001600160a01b0316146113a85760405162461bcd60e51b815260206004820152602c60248201527f46756e6374696f6e206d7573742062652063616c6c6564207468726f7567682060448201527f6163746976652070726f787900000000000000000000000000000000000000006064820152608401610c7d565b6113b181613228565b604080516000808252602082019092526113cd918391906132b2565b50565b6113d861313e565b6001600160a01b03166113f360fb546001600160a01b031690565b6001600160a01b0316148061140e575061140e6104f461313e565b61145a5760405162461bcd60e51b815260206004820152601c60248201527f63616c6c6572206973206e6f74206f776e6572206f722061646d696e000000006044820152606401610c7d565b611462613470565b565b826daaeb6d7670e522a718067333cd4e3b156115565761148261313e565b6001600160a01b0316816001600160a01b031614156114a65761101c8484846134e6565b6daaeb6d7670e522a718067333cd4e63c6171134306114c361313e565b6040517fffffffff0000000000000000000000000000000000000000000000000000000060e085901b1681526001600160a01b03928316600482015291166024820152604401602060405180830381865afa158015611526573d6000803e3d6000fd5b505050506040513d601f19601f8201168201806040525081019061154a91906156f3565b611556576110d161313e565b61111a8484846134e6565b61157261156c61313e565b82613501565b6115e45760405162461bcd60e51b815260206004820152602e60248201527f4552433732313a2063616c6c6572206973206e6f7420746f6b656e206f776e6560448201527f72206e6f7220617070726f7665640000000000000000000000000000000000006064820152608401610c7d565b6113cd8161355f565b306001600160a01b037f000000000000000000000000000000000000000000000000000000000000000016141561168c5760405162461bcd60e51b815260206004820152602c60248201527f46756e6374696f6e206d7573742062652063616c6c6564207468726f7567682060448201527f64656c656761746563616c6c00000000000000000000000000000000000000006064820152608401610c7d565b7f00000000000000000000000000000000000000000000000000000000000000006001600160a01b03166116e77f360894a13ba1a3210667c828492db98dca3e2076cc3735a920a3ca505d382bbc546001600160a01b031690565b6001600160a01b0316146117635760405162461bcd60e51b815260206004820152602c60248201527f46756e6374696f6e206d7573742062652063616c6c6564207468726f7567682060448201527f6163746976652070726f787900000000000000000000000000000000000000006064820152608401610c7d565b61176c82613228565b611778828260016132b2565b5050565b6000306001600160a01b037f0000000000000000000000000000000000000000000000000000000000000000161461181c5760405162461bcd60e51b815260206004820152603860248201527f555550535570677261646561626c653a206d757374206e6f742062652063616c60448201527f6c6564207468726f7567682064656c656761746563616c6c00000000000000006064820152608401610c7d565b507f360894a13ba1a3210667c828492db98dca3e2076cc3735a920a3ca505d382bbc90565b61184961313e565b6001600160a01b031661186460fb546001600160a01b031690565b6001600160a01b0316148061187f575061187f6104f461313e565b6118cb5760405162461bcd60e51b815260206004820152601c60248201527f63616c6c6572206973206e6f74206f776e6572206f722061646d696e000000006044820152606401610c7d565b6118d4826135db565b6118dd82613643565b6117786118e9836118f0565b82846136aa565b6000818152606760205260408120546001600160a01b031680610ad65760405162461bcd60e51b815260206004820152601860248201527f4552433732313a20696e76616c696420746f6b656e20494400000000000000006044820152606401610c7d565b61195d61313e565b6001600160a01b031661197860fb546001600160a01b031690565b6001600160a01b0316148061199357506119936104f461313e565b6119df5760405162461bcd60e51b815260206004820152601c60248201527f63616c6c6572206973206e6f74206f776e6572206f722061646d696e000000006044820152606401610c7d565b610c9083838361389a565b6119f261313e565b6001600160a01b0316611a0d60fb546001600160a01b031690565b6001600160a01b03161480611a285750611a286104f461313e565b611a745760405162461bcd60e51b815260206004820152601c60248201527f63616c6c6572206973206e6f74206f776e6572206f722061646d696e000000006044820152606401610c7d565b6001600160a01b038116611aef5760405162461bcd60e51b8152602060048201526024808201527f4e65772061646d696e2063616e6e6f7420626520746865207a65726f2061646460448201527f72657373000000000000000000000000000000000000000000000000000000006064820152608401610c7d565b6001600160a01b0381166000818152610199602090815260409182902080547fffffffffffffffffffffffffffffffffffffffffffffffffffffffffffffff001660019081179091558251938452908301527f235bc17e7930760029e9f4d860a2a8089976de5b381cf8380fc11c1d88a111339101610dc6565b60006001600160a01b038216611be75760405162461bcd60e51b815260206004820152602960248201527f4552433732313a2061646472657373207a65726f206973206e6f74206120766160448201527f6c6964206f776e657200000000000000000000000000000000000000000000006064820152608401610c7d565b506001600160a01b031660009081526068602052604090205490565b611c0b6139d7565b6114626000613a50565b611c1d61313e565b6001600160a01b0316611c3860fb546001600160a01b031690565b6001600160a01b03161480611c535750611c536104f461313e565b611c9f5760405162461bcd60e51b815260206004820152601c60248201527f63616c6c6572206973206e6f74206f776e6572206f722061646d696e000000006044820152606401610c7d565b611ca882612e69565b6117788282613aba565b611cba61313e565b6001600160a01b0316611cd560fb546001600160a01b031690565b6001600160a01b03161480611cf05750611cf06104f461313e565b611d3c5760405162461bcd60e51b815260206004820152601c60248201527f63616c6c6572206973206e6f74206f776e6572206f722061646d696e000000006044820152606401610c7d565b805161177890610192906020840190614f27565b611d5861314d565b6040517ff6aacfb1000000000000000000000000000000000000000000000000000000008152600481018290528190309063f6aacfb190602401602060405180830381865afa158015611daf573d6000803e3d6000fd5b505050506040513d601f19601f82011682018060405250810190611dd391906156f3565b15611e205760405162461bcd60e51b815260206004820152600f60248201527f546f6b656e206973206c6f636b656400000000000000000000000000000000006044820152606401610c7d565b611e31611e2b61313e565b83613501565b611ea35760405162461bcd60e51b815260206004820152602560248201527f63616c6c6572206973206e6f7420746f6b656e206f776e6572206f722061707060448201527f726f7665640000000000000000000000000000000000000000000000000000006064820152608401610c7d565b61177882613b78565b611eb461313e565b6001600160a01b0316611ecf60fb546001600160a01b031690565b6001600160a01b03161480611eea5750611eea6104f461313e565b611f365760405162461bcd60e51b815260206004820152601c60248201527f63616c6c6572206973206e6f74206f776e6572206f722061646d696e000000006044820152606401610c7d565b611462613be2565b600054610100900460ff1615808015611f5e5750600054600160ff909116105b80611f785750303b158015611f78575060005460ff166001145b611fea5760405162461bcd60e51b815260206004820152602e60248201527f496e697469616c697a61626c653a20636f6e747261637420697320616c72656160448201527f647920696e697469616c697a65640000000000000000000000000000000000006064820152608401610c7d565b600080547fffffffffffffffffffffffffffffffffffffffffffffffffffffffffffffff00166001179055801561204857600080547fffffffffffffffffffffffffffffffffffffffffffffffffffffffffffff00ff166101001790555b6120528686613c3e565b61205a613cc5565b612062613d4a565b61206a613dcf565b612072613dcf565b61207a613e4c565b61208384611cb2565b60005b828110156120c8576120b88484838181106120a3576120a36158b5565b90506020020160208101906106e091906150f3565b6120c1816158e4565b9050612086565b50801561212c57600080547fffffffffffffffffffffffffffffffffffffffffffffffffffffffffffff00ff169055604051600181527f7f26b83ff96e1f2b6a682f133852f6798a09c465da95921460cefb38474024989060200160405180910390a15b505050505050565b600061213e61314d565b61214661313e565b6001600160a01b031661216160fb546001600160a01b031690565b6001600160a01b0316148061217c575061217c6104f461313e565b6121c85760405162461bcd60e51b815260206004820152601c60248201527f63616c6c6572206973206e6f74206f776e6572206f722061646d696e000000006044820152606401610c7d565b600161019360008282546121dc919061591d565b925050819055506121f38561019354868686613ee8565b90505b949350505050565b606060668054610aeb9061569f565b61221561313e565b6001600160a01b031661223060fb546001600160a01b031690565b6001600160a01b0316148061224b575061224b6104f461313e565b6122975760405162461bcd60e51b815260206004820152601c60248201527f63616c6c6572206973206e6f74206f776e6572206f722061646d696e000000006044820152606401610c7d565b611462600061019655565b60006122ac61314d565b6122b461313e565b6001600160a01b03166122cf60fb546001600160a01b031690565b6001600160a01b031614806122ea57506122ea6104f461313e565b6123365760405162461bcd60e51b815260206004820152601c60248201527f63616c6c6572206973206e6f74206f776e6572206f722061646d696e000000006044820152606401610c7d565b67ffffffffffffffff8216156123d2576000806123538442615935565b905060005b868110156123ca5780610193546001612371919061591d565b61237b919061591d565b92506123af89848a8a85818110612394576123946158b5565b90506020020160208101906123a991906150f3565b89613f3b565b506123ba8383612772565b6123c3816158e4565b9050612358565b50505061243c565b60005b8481101561243a5761242987826101935460016123f2919061591d565b6123fc919061591d565b88888581811061240e5761240e6158b5565b905060200201602081019061242391906150f3565b87613f3b565b50612433816158e4565b90506123d5565b505b848490506101936000828254612452919061591d565b909155506001979650505050505050565b816daaeb6d7670e522a718067333cd4e3b1561254f576040517fc61711340000000000000000000000000000000000000000000000000000000081523060048201526001600160a01b03821660248201526daaeb6d7670e522a718067333cd4e9063c617113490604401602060405180830381865afa1580156124ea573d6000803e3d6000fd5b505050506040513d601f19601f8201168201806040525081019061250e91906156f3565b61254f576040517fede71dcc0000000000000000000000000000000000000000000000000000000081526001600160a01b0382166004820152602401610c7d565b610c908383613f73565b836daaeb6d7670e522a718067333cd4e3b156126515761257761313e565b6001600160a01b0316816001600160a01b031614156125a15761259c85858585613f85565b61265d565b6daaeb6d7670e522a718067333cd4e63c6171134306125be61313e565b6040517fffffffff0000000000000000000000000000000000000000000000000000000060e085901b1681526001600160a01b03928316600482015291166024820152604401602060405180830381865afa158015612621573d6000803e3d6000fd5b505050506040513d601f19601f8201168201806040525081019061264591906156f3565b612651576110d161313e565b61265d85858585613f85565b5050505050565b6060600061267183611213565b905061019261267f8261300c565b6126888561300c565b60405160200161269a93929190615958565b604051602081830303815290604052915050919050565b6126b961313e565b6001600160a01b03166126d460fb546001600160a01b031690565b6001600160a01b031614806126ef57506126ef6104f461313e565b61273b5760405162461bcd60e51b815260206004820152601c60248201527f63616c6c6572206973206e6f74206f776e6572206f722061646d696e000000006044820152606401610c7d565b61019180547fffffffffffffffffffffffff0000000000000000000000000000000000000000166001600160a01b03831617905550565b61277a61313e565b6001600160a01b031661279560fb546001600160a01b031690565b6001600160a01b031614806127b057506127b06104f461313e565b6127fc5760405162461bcd60e51b815260206004820152601c60248201527f63616c6c6572206973206e6f74206f776e6572206f722061646d696e000000006044820152606401610c7d565b61280582612e69565b6000828152610198602090815260409182902080547fffffffffffffffffffffffffffffffffffffffffffffffff00000000000000001667ffffffffffffffff8516908117909155915191825283917f2ec2be2c4b90c2cf13ecb6751a24daed6bb741ae5ed3f7371aabf9402f6d62e8910160405180910390a25050565b61288b61313e565b6001600160a01b03166128a660fb546001600160a01b031690565b6001600160a01b031614806128c157506128c16104f461313e565b61290d5760405162461bcd60e51b815260206004820152601c60248201527f63616c6c6572206973206e6f74206f776e6572206f722061646d696e000000006044820152606401610c7d565b611778828261400e565b61291f61313e565b6001600160a01b031661293a60fb546001600160a01b031690565b6001600160a01b0316148061295557506129556104f461313e565b6129a15760405162461bcd60e51b815260206004820152601c60248201527f63616c6c6572206973206e6f74206f776e6572206f722061646d696e000000006044820152606401610c7d565b60009081526101976020526040812055565b6129bb61313e565b6001600160a01b03166129d660fb546001600160a01b031690565b6001600160a01b031614806129f157506129f16104f461313e565b612a3d5760405162461bcd60e51b815260206004820152601c60248201527f63616c6c6572206973206e6f74206f776e6572206f722061646d696e000000006044820152606401610c7d565b612a4561314d565b612a4e816135db565b6113cd81613643565b6101928054612a659061569f565b80601f0160208091040260200160405190810160405280929190818152602001828054612a919061569f565b8015612ade5780601f10612ab357610100808354040283529160200191612ade565b820191906000526020600020905b815481529060010190602001808311612ac157829003601f168201915b505050505081565b60006001600160a01b0382166e6c3852cbef3e08e8df289169ede5811480612b2757506001600160a01b0382166000908152610199602052604090205460ff165b15612b3457506001610ad6565b6001600160a01b038084166000908152606a602090815260408083209386168352929052205460ff165b9392505050565b612b6d6139d7565b6001600160a01b038116612be95760405162461bcd60e51b815260206004820152602660248201527f4f776e61626c653a206e6577206f776e657220697320746865207a65726f206160448201527f64647265737300000000000000000000000000000000000000000000000000006064820152608401610c7d565b6113cd81613a50565b6000612bfc61314d565b612c0461313e565b6001600160a01b0316612c1f60fb546001600160a01b031690565b6001600160a01b03161480612c3a5750612c3a6104f461313e565b612c865760405162461bcd60e51b815260206004820152601c60248201527f63616c6c6572206973206e6f74206f776e6572206f722061646d696e000000006044820152606401610c7d565b67ffffffffffffffff821615612d1457600080612ca38442615935565b905060005b87811015612d0c5780610193546001612cc1919061591d565b612ccb919061591d565b9250612cf1898983818110612ce257612ce26158b5565b90506020020135848989613f3b565b50612cfc8383612772565b612d05816158e4565b9050612ca8565b505050612d70565b60005b85811015612d6e57612d5d878783818110612d3457612d346158b5565b9050602002013582610193546001612d4c919061591d565b612d56919061591d565b8787613f3b565b50612d67816158e4565b9050612d17565b505b858590506101936000828254612452919061591d565b60007fffffffff0000000000000000000000000000000000000000000000000000000082167f80ac58cd000000000000000000000000000000000000000000000000000000001480612e1957507fffffffff0000000000000000000000000000000000000000000000000000000082167f5b5e139f00000000000000000000000000000000000000000000000000000000145b80610ad657507f01ffc9a7000000000000000000000000000000000000000000000000000000007fffffffff00000000000000000000000000000000000000000000000000000000831614610ad6565b6000818152606760205260409020546001600160a01b03166113cd5760405162461bcd60e51b815260206004820152601860248201527f4552433732313a20696e76616c696420746f6b656e20494400000000000000006044820152606401610c7d565b6000612ed8826118f0565b9050806001600160a01b0316836001600160a01b03161415612f625760405162461bcd60e51b815260206004820152602160248201527f4552433732313a20617070726f76616c20746f2063757272656e74206f776e6560448201527f72000000000000000000000000000000000000000000000000000000000000006064820152608401610c7d565b806001600160a01b0316612f7461313e565b6001600160a01b03161480612f905750612f90816109be61313e565b6130025760405162461bcd60e51b815260206004820152603e60248201527f4552433732313a20617070726f76652063616c6c6572206973206e6f7420746f60448201527f6b656e206f776e6572206e6f7220617070726f76656420666f7220616c6c00006064820152608401610c7d565b610c90838361413a565b60608161304c57505060408051808201909152600181527f3000000000000000000000000000000000000000000000000000000000000000602082015290565b8160005b81156130765780613060816158e4565b915061306f9050600a836158a1565b9150613050565b60008167ffffffffffffffff8111156130915761309161516c565b6040519080825280601f01601f1916602001820160405280156130bb576020820181803683370190505b5090505b84156121f6576130d06001836159ba565b91506130dd600a866159d1565b6130e890603061591d565b60f81b8183815181106130fd576130fd6158b5565b60200101907effffffffffffffffffffffffffffffffffffffffffffffffffffffffffffff1916908160001a905350613137600a866158a1565b94506130bf565b60006131486141c0565b905090565b60c95460ff16156114625760405162461bcd60e51b815260206004820152601060248201527f5061757361626c653a20706175736564000000000000000000000000000000006044820152606401610c7d565b6131ab61156c61313e565b61321d5760405162461bcd60e51b815260206004820152602e60248201527f4552433732313a2063616c6c6572206973206e6f7420746f6b656e206f776e6560448201527f72206e6f7220617070726f7665640000000000000000000000000000000000006064820152608401610c7d565b610c908383836136aa565b61323061313e565b6001600160a01b031661324b60fb546001600160a01b031690565b6001600160a01b0316148061326657506132666104f461313e565b6113cd5760405162461bcd60e51b815260206004820152601c60248201527f63616c6c6572206973206e6f74206f776e6572206f722061646d696e000000006044820152606401610c7d565b7f4910fdfa16fed3260ed0e7147f7cc6da11a60208b5b9406d12a635614ffd91435460ff16156132e557610c9083614213565b826001600160a01b03166352d1902d6040518163ffffffff1660e01b8152600401602060405180830381865afa92505050801561335d575060408051601f3d9081017fffffffffffffffffffffffffffffffffffffffffffffffffffffffffffffffe016820190925261335a918101906159e5565b60015b6133cf5760405162461bcd60e51b815260206004820152602e60248201527f45524331393637557067726164653a206e657720696d706c656d656e7461746960448201527f6f6e206973206e6f7420555550530000000000000000000000000000000000006064820152608401610c7d565b7f360894a13ba1a3210667c828492db98dca3e2076cc3735a920a3ca505d382bbc81146134645760405162461bcd60e51b815260206004820152602960248201527f45524331393637557067726164653a20756e737570706f727465642070726f7860448201527f6961626c655555494400000000000000000000000000000000000000000000006064820152608401610c7d565b50610c908383836142e9565b61347861430e565b60c980547fffffffffffffffffffffffffffffffffffffffffffffffffffffffffffffff001690557f5db9ee0a495bf2e6ff9c91a7834c1ba4fdd244a5e8aa4e537bd38aeae4b073aa6134c961313e565b6040516001600160a01b03909116815260200160405180910390a1565b610c9083838360405180602001604052806000815250612559565b60008061350d836118f0565b9050806001600160a01b0316846001600160a01b0316148061353457506135348185612ae6565b806121f65750836001600160a01b031661354d84610b6e565b6001600160a01b031614949350505050565b61356881614360565b600090815261019460209081526040808320839055610195825280832080547fffffffffffffffffffffffffffffffffffffffffffffffffffffffffffffff00169055610198909152902080547fffffffffffffffffffffffffffffffffffffffffffffffff0000000000000000169055565b6135e481612e69565b6000818152610195602052604090205460ff166113cd5760405162461bcd60e51b815260206004820152601360248201527f546f6b656e206973206e6f74206c6f636b6564000000000000000000000000006044820152606401610c7d565b600081815261019560205260409081902080547fffffffffffffffffffffffffffffffffffffffffffffffffffffffffffffff00169055517ff27b6ce5b2f5e68ddb2fd95a8a909d4ecf1daaac270935fff052feacb24f184290610dc69083815260200190565b826001600160a01b03166136bd826118f0565b6001600160a01b0316146137395760405162461bcd60e51b815260206004820152602560248201527f4552433732313a207472616e736665722066726f6d20696e636f72726563742060448201527f6f776e65720000000000000000000000000000000000000000000000000000006064820152608401610c7d565b6001600160a01b0382166137b45760405162461bcd60e51b8152602060048201526024808201527f4552433732313a207472616e7366657220746f20746865207a65726f2061646460448201527f72657373000000000000000000000000000000000000000000000000000000006064820152608401610c7d565b6137bf83838361441f565b6137ca60008261413a565b6001600160a01b03831660009081526068602052604081208054600192906137f39084906159ba565b90915550506001600160a01b038216600090815260686020526040812080546001929061382190849061591d565b909155505060008181526067602052604080822080547fffffffffffffffffffffffff0000000000000000000000000000000000000000166001600160a01b0386811691821790925591518493918716917fddf252ad1be2c89b69c2b068fc378daa952ba7f163c4a11628f55a4df523b3ef91a4505050565b6127106bffffffffffffffffffffffff821611156139205760405162461bcd60e51b815260206004820152602a60248201527f455243323938313a20726f79616c7479206665652077696c6c2065786365656460448201527f2073616c655072696365000000000000000000000000000000000000000000006064820152608401610c7d565b6001600160a01b0382166139765760405162461bcd60e51b815260206004820152601b60248201527f455243323938313a20496e76616c696420706172616d657465727300000000006044820152606401610c7d565b6040805180820182526001600160a01b0393841681526bffffffffffffffffffffffff928316602080830191825260009687526101979052919094209351905190911674010000000000000000000000000000000000000000029116179055565b6139df61313e565b6001600160a01b03166139fa60fb546001600160a01b031690565b6001600160a01b0316146114625760405162461bcd60e51b815260206004820181905260248201527f4f776e61626c653a2063616c6c6572206973206e6f7420746865206f776e65726044820152606401610c7d565b60fb80546001600160a01b038381167fffffffffffffffffffffffff0000000000000000000000000000000000000000831681179093556040519116919082907f8be0079c531659141344cd1fd0a4f28419497f9722a3daafe3b4186f6b6457e090600090a35050565b6000828152610198602052604081205467ffffffffffffffff169081613aeb57613ae48342615935565b9050613af8565b613af58383615935565b90505b6000848152610198602090815260409182902080547fffffffffffffffffffffffffffffffffffffffffffffffff00000000000000001667ffffffffffffffff8516908117909155915191825285917f2ec2be2c4b90c2cf13ecb6751a24daed6bb741ae5ed3f7371aabf9402f6d62e8910160405180910390a250505050565b600081815261019560205260409081902080547fffffffffffffffffffffffffffffffffffffffffffffffffffffffffffffff00166001179055517f032bc66be43dbccb7487781d168eb7bda224628a3b2c3388bdf69b532a3a161190610dc69083815260200190565b613bea61314d565b60c980547fffffffffffffffffffffffffffffffffffffffffffffffffffffffffffffff001660011790557f62e78cea01bee320cd4e420270b5ea74000d11b0c9f74754ebdbfc544b05a2586134c961313e565b600054610100900460ff16613cbb5760405162461bcd60e51b815260206004820152602b60248201527f496e697469616c697a61626c653a20636f6e7472616374206973206e6f74206960448201527f6e697469616c697a696e670000000000000000000000000000000000000000006064820152608401610c7d565b61177882826144ef565b600054610100900460ff16613d425760405162461bcd60e51b815260206004820152602b60248201527f496e697469616c697a61626c653a20636f6e7472616374206973206e6f74206960448201527f6e697469616c697a696e670000000000000000000000000000000000000000006064820152608401610c7d565b611462614593565b600054610100900460ff16613dc75760405162461bcd60e51b815260206004820152602b60248201527f496e697469616c697a61626c653a20636f6e7472616374206973206e6f74206960448201527f6e697469616c697a696e670000000000000000000000000000000000000000006064820152608401610c7d565b61146261463a565b600054610100900460ff166114625760405162461bcd60e51b815260206004820152602b60248201527f496e697469616c697a61626c653a20636f6e7472616374206973206e6f74206960448201527f6e697469616c697a696e670000000000000000000000000000000000000000006064820152608401610c7d565b600054610100900460ff16613ec95760405162461bcd60e51b815260206004820152602b60248201527f496e697469616c697a61626c653a20636f6e7472616374206973206e6f74206960448201527f6e697469616c697a696e670000000000000000000000000000000000000000006064820152608401610c7d565b611462733cc6cdda760b79bafa08df41ecfa224f810dceb660016146c7565b6000613ef48486614920565b6000858152610194602052604090208690558215613f1557613f1585613b78565b67ffffffffffffffff821615613f2f57613f2f8583613aba565b50600195945050505050565b6000613f478385614920565b6000848152610194602052604090208590558115613f6857613f6884613b78565b506001949350505050565b611778613f7e61313e565b8383614a86565b613f90611e2b61313e565b6140025760405162461bcd60e51b815260206004820152602e60248201527f4552433732313a2063616c6c6572206973206e6f7420746f6b656e206f776e6560448201527f72206e6f7220617070726f7665640000000000000000000000000000000000006064820152608401610c7d565b61111a84848484614b73565b6127106bffffffffffffffffffffffff821611156140945760405162461bcd60e51b815260206004820152602a60248201527f455243323938313a20726f79616c7479206665652077696c6c2065786365656460448201527f2073616c655072696365000000000000000000000000000000000000000000006064820152608401610c7d565b6001600160a01b0382166140ea5760405162461bcd60e51b815260206004820152601960248201527f455243323938313a20696e76616c6964207265636569766572000000000000006044820152606401610c7d565b604080518082019091526001600160a01b039092168083526bffffffffffffffffffffffff9091166020909201829052740100000000000000000000000000000000000000009091021761019655565b600081815260696020526040902080547fffffffffffffffffffffffff0000000000000000000000000000000000000000166001600160a01b0384169081179091558190614187826118f0565b6001600160a01b03167f8c5be1e5ebec7d5bd14f71427d1e84f3dd0314c0f7b2291e5b200ac8c7c3b92560405160405180910390a45050565b6000601436108015906141de5750610191546001600160a01b031633145b1561420e57507fffffffffffffffffffffffffffffffffffffffffffffffffffffffffffffffec36013560601c90565b503390565b6001600160a01b0381163b6142905760405162461bcd60e51b815260206004820152602d60248201527f455243313936373a206e657720696d706c656d656e746174696f6e206973206e60448201527f6f74206120636f6e7472616374000000000000000000000000000000000000006064820152608401610c7d565b7f360894a13ba1a3210667c828492db98dca3e2076cc3735a920a3ca505d382bbc80547fffffffffffffffffffffffff0000000000000000000000000000000000000000166001600160a01b0392909216919091179055565b6142f283614bfc565b6000825111806142ff5750805b15610c905761111a8383614c3c565b60c95460ff166114625760405162461bcd60e51b815260206004820152601460248201527f5061757361626c653a206e6f74207061757365640000000000000000000000006044820152606401610c7d565b600061436b826118f0565b90506143798160008461441f565b61438460008361413a565b6001600160a01b03811660009081526068602052604081208054600192906143ad9084906159ba565b909155505060008281526067602052604080822080547fffffffffffffffffffffffff0000000000000000000000000000000000000000169055518391906001600160a01b038416907fddf252ad1be2c89b69c2b068fc378daa952ba7f163c4a11628f55a4df523b3ef908390a45050565b61442761314d565b6040517ff6aacfb1000000000000000000000000000000000000000000000000000000008152600481018290528190309063f6aacfb190602401602060405180830381865afa15801561447e573d6000803e3d6000fd5b505050506040513d601f19601f820116820180604052508101906144a291906156f3565b1561101c5760405162461bcd60e51b815260206004820152600f60248201527f546f6b656e206973206c6f636b656400000000000000000000000000000000006044820152606401610c7d565b600054610100900460ff1661456c5760405162461bcd60e51b815260206004820152602b60248201527f496e697469616c697a61626c653a20636f6e7472616374206973206e6f74206960448201527f6e697469616c697a696e670000000000000000000000000000000000000000006064820152608401610c7d565b815161457f906065906020850190614f27565b508051610c90906066906020840190614f27565b600054610100900460ff166146105760405162461bcd60e51b815260206004820152602b60248201527f496e697469616c697a61626c653a20636f6e7472616374206973206e6f74206960448201527f6e697469616c697a696e670000000000000000000000000000000000000000006064820152608401610c7d565b60c980547fffffffffffffffffffffffffffffffffffffffffffffffffffffffffffffff00169055565b600054610100900460ff166146b75760405162461bcd60e51b815260206004820152602b60248201527f496e697469616c697a61626c653a20636f6e7472616374206973206e6f74206960448201527f6e697469616c697a696e670000000000000000000000000000000000000000006064820152608401610c7d565b6114626146c261313e565b613a50565b600054610100900460ff166147445760405162461bcd60e51b815260206004820152602b60248201527f496e697469616c697a61626c653a20636f6e7472616374206973206e6f74206960448201527f6e697469616c697a696e670000000000000000000000000000000000000000006064820152608401610c7d565b6daaeb6d7670e522a718067333cd4e3b15611778576040517fc3c5a5470000000000000000000000000000000000000000000000000000000081523060048201526daaeb6d7670e522a718067333cd4e9063c3c5a547906024016020604051808303816000875af11580156147bd573d6000803e3d6000fd5b505050506040513d601f19601f820116820180604052508101906147e191906156f3565b61177857801561486e576040517f7d3e3dbe0000000000000000000000000000000000000000000000000000000081523060048201526001600160a01b03831660248201526daaeb6d7670e522a718067333cd4e90637d3e3dbe906044015b600060405180830381600087803b15801561485a57600080fd5b505af115801561212c573d6000803e3d6000fd5b6001600160a01b038216156148d6576040517fa0af29030000000000000000000000000000000000000000000000000000000081523060048201526001600160a01b03831660248201526daaeb6d7670e522a718067333cd4e9063a0af290390604401614840565b6040517f4420e4860000000000000000000000000000000000000000000000000000000081523060048201526daaeb6d7670e522a718067333cd4e90634420e48690602401614840565b6001600160a01b0382166149765760405162461bcd60e51b815260206004820181905260248201527f4552433732313a206d696e7420746f20746865207a65726f20616464726573736044820152606401610c7d565b6000818152606760205260409020546001600160a01b0316156149db5760405162461bcd60e51b815260206004820152601c60248201527f4552433732313a20746f6b656e20616c7265616479206d696e746564000000006044820152606401610c7d565b6149e76000838361441f565b6001600160a01b0382166000908152606860205260408120805460019290614a1090849061591d565b909155505060008181526067602052604080822080547fffffffffffffffffffffffff0000000000000000000000000000000000000000166001600160a01b03861690811790915590518392907fddf252ad1be2c89b69c2b068fc378daa952ba7f163c4a11628f55a4df523b3ef908290a45050565b816001600160a01b0316836001600160a01b03161415614ae85760405162461bcd60e51b815260206004820152601960248201527f4552433732313a20617070726f766520746f2063616c6c6572000000000000006044820152606401610c7d565b6001600160a01b038381166000818152606a602090815260408083209487168084529482529182902080547fffffffffffffffffffffffffffffffffffffffffffffffffffffffffffffff001686151590811790915591519182527f17307eab39ab6107e8899845ad3d59bd9653f200f220920489ca2b5937696c31910160405180910390a3505050565b614b7e8484846136aa565b614b8a84848484614d47565b61111a5760405162461bcd60e51b815260206004820152603260248201527f4552433732313a207472616e7366657220746f206e6f6e20455243373231526560448201527f63656976657220696d706c656d656e74657200000000000000000000000000006064820152608401610c7d565b614c0581614213565b6040516001600160a01b038216907fbc7cd75a20ee27fd9adebab32041f755214dbc6bffa90cc0225b39da2e5c2d3b90600090a250565b60606001600160a01b0383163b614cbb5760405162461bcd60e51b815260206004820152602660248201527f416464726573733a2064656c65676174652063616c6c20746f206e6f6e2d636f60448201527f6e747261637400000000000000000000000000000000000000000000000000006064820152608401610c7d565b600080846001600160a01b031684604051614cd691906159fe565b600060405180830381855af49150503d8060008114614d11576040519150601f19603f3d011682016040523d82523d6000602084013e614d16565b606091505b5091509150614d3e8282604051806060016040528060278152602001615a7460279139614eee565b95945050505050565b60006001600160a01b0384163b15614ee657836001600160a01b031663150b7a02614d7061313e565b8786866040518563ffffffff1660e01b8152600401614d929493929190615a1a565b6020604051808303816000875af1925050508015614deb575060408051601f3d9081017fffffffffffffffffffffffffffffffffffffffffffffffffffffffffffffffe0168201909252614de891810190615a56565b60015b614e9b573d808015614e19576040519150601f19603f3d011682016040523d82523d6000602084013e614e1e565b606091505b508051614e935760405162461bcd60e51b815260206004820152603260248201527f4552433732313a207472616e7366657220746f206e6f6e20455243373231526560448201527f63656976657220696d706c656d656e74657200000000000000000000000000006064820152608401610c7d565b805181602001fd5b7fffffffff00000000000000000000000000000000000000000000000000000000167f150b7a02000000000000000000000000000000000000000000000000000000001490506121f6565b5060016121f6565b60608315614efd575081612b5e565b825115614f0d5782518084602001fd5b8160405162461bcd60e51b8152600401610c7d9190615081565b828054614f339061569f565b90600052602060002090601f016020900481019282614f555760008555614f9b565b82601f10614f6e57805160ff1916838001178555614f9b565b82800160010185558215614f9b579182015b82811115614f9b578251825591602001919060010190614f80565b50614fa7929150614fab565b5090565b5b80821115614fa75760008155600101614fac565b7fffffffff00000000000000000000000000000000000000000000000000000000811681146113cd57600080fd5b60006020828403121561500057600080fd5b8135612b5e81614fc0565b60005b8381101561502657818101518382015260200161500e565b8381111561111a5750506000910152565b6000815180845261504f81602086016020860161500b565b601f017fffffffffffffffffffffffffffffffffffffffffffffffffffffffffffffffe0169290920160200192915050565b602081526000612b5e6020830184615037565b6000602082840312156150a657600080fd5b5035919050565b80356001600160a01b03811681146150c457600080fd5b919050565b600080604083850312156150dc57600080fd5b6150e5836150ad565b946020939093013593505050565b60006020828403121561510557600080fd5b612b5e826150ad565b60008060006060848603121561512357600080fd5b61512c846150ad565b925061513a602085016150ad565b9150604084013590509250925092565b6000806040838503121561515d57600080fd5b50508035926020909101359150565b7f4e487b7100000000000000000000000000000000000000000000000000000000600052604160045260246000fd5b600082601f8301126151ac57600080fd5b813567ffffffffffffffff808211156151c7576151c761516c565b604051601f83017fffffffffffffffffffffffffffffffffffffffffffffffffffffffffffffffe0908116603f0116810190828211818310171561520d5761520d61516c565b8160405283815286602085880101111561522657600080fd5b836020870160208301376000602085830101528094505050505092915050565b6000806040838503121561525957600080fd5b615262836150ad565b9150602083013567ffffffffffffffff81111561527e57600080fd5b61528a8582860161519b565b9150509250929050565b600080604083850312156152a757600080fd5b823591506152b7602084016150ad565b90509250929050565b80356bffffffffffffffffffffffff811681146150c457600080fd5b6000806000606084860312156152f157600080fd5b83359250615301602085016150ad565b915061530f604085016152c0565b90509250925092565b803567ffffffffffffffff811681146150c457600080fd5b6000806040838503121561534357600080fd5b823591506152b760208401615318565b60006020828403121561536557600080fd5b813567ffffffffffffffff81111561537c57600080fd5b6121f68482850161519b565b60008083601f84011261539a57600080fd5b50813567ffffffffffffffff8111156153b257600080fd5b6020830191508360208260051b850101111561120c57600080fd5b6000806000806000608086880312156153e557600080fd5b853567ffffffffffffffff808211156153fd57600080fd5b61540989838a0161519b565b9650602088013591508082111561541f57600080fd5b61542b89838a0161519b565b9550604088013591508082111561544157600080fd5b61544d89838a0161519b565b9450606088013591508082111561546357600080fd5b5061547088828901615388565b969995985093965092949392505050565b80151581146113cd57600080fd5b600080600080608085870312156154a557600080fd5b843593506154b5602086016150ad565b925060408501356154c581615481565b91506154d360608601615318565b905092959194509250565b6000806000806000608086880312156154f657600080fd5b85359450602086013567ffffffffffffffff81111561551457600080fd5b61552088828901615388565b909550935050604086013561553481615481565b915061554260608701615318565b90509295509295909350565b6000806040838503121561556157600080fd5b61556a836150ad565b9150602083013561557a81615481565b809150509250929050565b6000806000806080858703121561559b57600080fd5b6155a4856150ad565b93506155b2602086016150ad565b925060408501359150606085013567ffffffffffffffff8111156155d557600080fd5b6155e18782880161519b565b91505092959194509250565b6000806040838503121561560057600080fd5b615609836150ad565b91506152b7602084016152c0565b6000806040838503121561562a57600080fd5b615633836150ad565b91506152b7602084016150ad565b60008060008060006080868803121561565957600080fd5b853567ffffffffffffffff81111561567057600080fd5b61567c88828901615388565b909650945061568f9050602087016150ad565b9250604086013561553481615481565b600181811c908216806156b357607f821691505b602082108114156156ed577f4e487b7100000000000000000000000000000000000000000000000000000000600052602260045260246000fd5b50919050565b60006020828403121561570557600080fd5b8151612b5e81615481565b8054600090600181811c908083168061572a57607f831692505b6020808410821415615765577f4e487b7100000000000000000000000000000000000000000000000000000000600052602260045260246000fd5b81801561577957600181146157a8576157d5565b7fffffffffffffffffffffffffffffffffffffffffffffffffffffffffffffff008616895284890196506157d5565b60008881526020902060005b868110156157cd5781548b8201529085019083016157b4565b505084890196505b50505050505092915050565b60006157ed8285615710565b83516157fd81836020880161500b565b01949350505050565b7f4e487b7100000000000000000000000000000000000000000000000000000000600052601160045260246000fd5b6000817fffffffffffffffffffffffffffffffffffffffffffffffffffffffffffffffff048311821515161561586d5761586d615806565b500290565b7f4e487b7100000000000000000000000000000000000000000000000000000000600052601260045260246000fd5b6000826158b0576158b0615872565b500490565b7f4e487b7100000000000000000000000000000000000000000000000000000000600052603260045260246000fd5b60007fffffffffffffffffffffffffffffffffffffffffffffffffffffffffffffffff82141561591657615916615806565b5060010190565b6000821982111561593057615930615806565b500190565b600067ffffffffffffffff8083168185168083038211156157fd576157fd615806565b60006159648286615710565b845161597481836020890161500b565b7f2f00000000000000000000000000000000000000000000000000000000000000910190815283516159ad81600184016020880161500b565b0160010195945050505050565b6000828210156159cc576159cc615806565b500390565b6000826159e0576159e0615872565b500690565b6000602082840312156159f757600080fd5b5051919050565b60008251615a1081846020870161500b565b9190910192915050565b60006001600160a01b03808716835280861660208401525083604083015260806060830152615a4c6080830184615037565b9695505050505050565b600060208284031215615a6857600080fd5b8151612b5e81614fc056fe416464726573733a206c6f772d6c6576656c2064656c65676174652063616c6c206661696c6564a2646970667358221220b66bea11c0d41ad16f1bdf841286dd60fbfdb48220aed06ee15053dfa763c2b364736f6c634300080c0033",
  "linkReferences": {},
  "deployedLinkReferences": {}
}