{
  "_format": "hh-sol-artifact-1",
  "contractName": "UVCollectable",
  "sourceName": "contracts/UVCollectable.sol",
  "abi": [
    {
      "inputs": [],
      "stateMutability": "nonpayable",
      "type": "constructor"
    },
    {
      "inputs": [
        {
          "internalType": "address",
          "name": "operator",
          "type": "address"
        }
      ],
      "name": "OperatorNotAllowed",
      "type": "error"
    },
    {
      "anonymous": false,
      "inputs": [
        {
          "indexed": false,
          "internalType": "address",
          "name": "previousAdmin",
          "type": "address"
        },
        {
          "indexed": false,
          "internalType": "address",
          "name": "newAdmin",
          "type": "address"
        }
      ],
      "name": "AdminChanged",
      "type": "event"
    },
    {
      "anonymous": false,
      "inputs": [
        {
          "indexed": false,
          "internalType": "address",
          "name": "admin",
          "type": "address"
        },
        {
          "indexed": false,
          "internalType": "bool",
          "name": "added",
          "type": "bool"
        }
      ],
      "name": "AdminUpdated",
      "type": "event"
    },
    {
      "anonymous": false,
      "inputs": [
        {
          "indexed": true,
          "internalType": "address",
          "name": "owner",
          "type": "address"
        },
        {
          "indexed": true,
          "internalType": "address",
          "name": "approved",
          "type": "address"
        },
        {
          "indexed": true,
          "internalType": "uint256",
          "name": "tokenId",
          "type": "uint256"
        }
      ],
      "name": "Approval",
      "type": "event"
    },
    {
      "anonymous": false,
      "inputs": [
        {
          "indexed": true,
          "internalType": "address",
          "name": "owner",
          "type": "address"
        },
        {
          "indexed": true,
          "internalType": "address",
          "name": "operator",
          "type": "address"
        },
        {
          "indexed": false,
          "internalType": "bool",
          "name": "approved",
          "type": "bool"
        }
      ],
      "name": "ApprovalForAll",
      "type": "event"
    },
    {
      "anonymous": false,
      "inputs": [
        {
          "indexed": true,
          "internalType": "address",
          "name": "beacon",
          "type": "address"
        }
      ],
      "name": "BeaconUpgraded",
      "type": "event"
    },
    {
      "anonymous": false,
      "inputs": [
        {
          "indexed": false,
          "internalType": "uint256",
          "name": "tokenId",
          "type": "uint256"
        }
      ],
      "name": "Frozen",
      "type": "event"
    },
    {
      "anonymous": false,
      "inputs": [
        {
          "indexed": false,
          "internalType": "uint8",
          "name": "version",
          "type": "uint8"
        }
      ],
      "name": "Initialized",
      "type": "event"
    },
    {
      "anonymous": false,
      "inputs": [
        {
          "indexed": true,
          "internalType": "address",
          "name": "previousOwner",
          "type": "address"
        },
        {
          "indexed": true,
          "internalType": "address",
          "name": "newOwner",
          "type": "address"
        }
      ],
      "name": "OwnershipTransferred",
      "type": "event"
    },
    {
      "anonymous": false,
      "inputs": [
        {
          "indexed": false,
          "internalType": "address",
          "name": "account",
          "type": "address"
        }
      ],
      "name": "Paused",
      "type": "event"
    },
    {
      "anonymous": false,
      "inputs": [
        {
          "indexed": true,
          "internalType": "uint256",
          "name": "tokenId",
          "type": "uint256"
        },
        {
          "indexed": false,
          "internalType": "uint64",
          "name": "expiration",
          "type": "uint64"
        }
      ],
      "name": "SubscriptionUpdate",
      "type": "event"
    },
    {
      "anonymous": false,
      "inputs": [
        {
          "indexed": true,
          "internalType": "address",
          "name": "from",
          "type": "address"
        },
        {
          "indexed": true,
          "internalType": "address",
          "name": "to",
          "type": "address"
        },
        {
          "indexed": true,
          "internalType": "uint256",
          "name": "tokenId",
          "type": "uint256"
        }
      ],
      "name": "Transfer",
      "type": "event"
    },
    {
      "anonymous": false,
      "inputs": [
        {
          "indexed": false,
          "internalType": "uint256",
          "name": "tokenId",
          "type": "uint256"
        }
      ],
      "name": "Unfrozen",
      "type": "event"
    },
    {
      "anonymous": false,
      "inputs": [
        {
          "indexed": false,
          "internalType": "address",
          "name": "account",
          "type": "address"
        }
      ],
      "name": "Unpaused",
      "type": "event"
    },
    {
      "anonymous": false,
      "inputs": [
        {
          "indexed": true,
          "internalType": "address",
          "name": "implementation",
          "type": "address"
        }
      ],
      "name": "Upgraded",
      "type": "event"
    },
    {
      "inputs": [
        {
          "internalType": "address",
          "name": "newAdmin",
          "type": "address"
        }
      ],
      "name": "addAdmin",
      "outputs": [],
      "stateMutability": "nonpayable",
      "type": "function"
    },
    {
      "inputs": [
        {
          "internalType": "address",
          "name": "operator",
          "type": "address"
        },
        {
          "internalType": "uint256",
          "name": "tokenId",
          "type": "uint256"
        }
      ],
      "name": "approve",
      "outputs": [],
      "stateMutability": "nonpayable",
      "type": "function"
    },
    {
      "inputs": [
        {
          "internalType": "address",
          "name": "owner",
          "type": "address"
        }
      ],
      "name": "balanceOf",
      "outputs": [
        {
          "internalType": "uint256",
          "name": "",
          "type": "uint256"
        }
      ],
      "stateMutability": "view",
      "type": "function"
    },
    {
      "inputs": [
        {
          "internalType": "uint256",
          "name": "tokenId",
          "type": "uint256"
        }
      ],
      "name": "burn",
      "outputs": [],
      "stateMutability": "nonpayable",
      "type": "function"
    },
    {
      "inputs": [
        {
          "internalType": "uint256",
          "name": "tokenId",
          "type": "uint256"
        }
      ],
      "name": "cancelSubscription",
      "outputs": [],
      "stateMutability": "nonpayable",
      "type": "function"
    },
    {
      "inputs": [
        {
          "internalType": "uint256",
          "name": "collectionId",
          "type": "uint256"
        }
      ],
      "name": "collectionURI",
      "outputs": [
        {
          "internalType": "string",
          "name": "",
          "type": "string"
        }
      ],
      "stateMutability": "view",
      "type": "function"
    },
    {
      "inputs": [],
      "name": "contractURI",
      "outputs": [
        {
          "internalType": "string",
          "name": "",
          "type": "string"
        }
      ],
      "stateMutability": "view",
      "type": "function"
    },
    {
      "inputs": [
        {
          "internalType": "uint256",
          "name": "tokenId",
          "type": "uint256"
        }
      ],
      "name": "expireSubscription",
      "outputs": [],
      "stateMutability": "nonpayable",
      "type": "function"
    },
    {
      "inputs": [
        {
          "internalType": "uint256",
          "name": "tokenId",
          "type": "uint256"
        }
      ],
      "name": "expiresAt",
      "outputs": [
        {
          "internalType": "uint64",
          "name": "",
          "type": "uint64"
        }
      ],
      "stateMutability": "view",
      "type": "function"
    },
    {
      "inputs": [
        {
          "internalType": "uint256",
          "name": "tokenId",
          "type": "uint256"
        }
      ],
      "name": "freeze",
      "outputs": [],
      "stateMutability": "nonpayable",
      "type": "function"
    },
    {
      "inputs": [
        {
          "internalType": "uint256",
          "name": "tokenId",
          "type": "uint256"
        }
      ],
      "name": "getApproved",
      "outputs": [
        {
          "internalType": "address",
          "name": "",
          "type": "address"
        }
      ],
      "stateMutability": "view",
      "type": "function"
    },
    {
      "inputs": [],
      "name": "getTrustedForwarder",
      "outputs": [
        {
          "internalType": "address",
          "name": "forwarder",
          "type": "address"
        }
      ],
      "stateMutability": "view",
      "type": "function"
    },
    {
      "inputs": [
        {
          "internalType": "string",
          "name": "__name",
          "type": "string"
        },
        {
          "internalType": "string",
          "name": "__symbol",
          "type": "string"
        },
        {
          "internalType": "address[]",
          "name": "__admins",
          "type": "address[]"
        }
      ],
      "name": "initialize",
      "outputs": [],
      "stateMutability": "nonpayable",
      "type": "function"
    },
    {
      "inputs": [
        {
          "internalType": "address",
          "name": "user",
          "type": "address"
        }
      ],
      "name": "isAdmin",
      "outputs": [
        {
          "internalType": "bool",
          "name": "",
          "type": "bool"
        }
      ],
      "stateMutability": "view",
      "type": "function"
    },
    {
      "inputs": [
        {
          "internalType": "address",
          "name": "_owner",
          "type": "address"
        },
        {
          "internalType": "address",
          "name": "_operator",
          "type": "address"
        }
      ],
      "name": "isApprovedForAll",
      "outputs": [
        {
          "internalType": "bool",
          "name": "isOperator",
          "type": "bool"
        }
      ],
      "stateMutability": "view",
      "type": "function"
    },
    {
      "inputs": [
        {
          "internalType": "uint256",
          "name": "tokenId",
          "type": "uint256"
        }
      ],
      "name": "isFrozen",
      "outputs": [
        {
          "internalType": "bool",
          "name": "",
          "type": "bool"
        }
      ],
      "stateMutability": "view",
      "type": "function"
    },
    {
      "inputs": [
        {
          "internalType": "uint256",
          "name": "",
          "type": "uint256"
        }
      ],
      "name": "isRenewable",
      "outputs": [
        {
          "internalType": "bool",
          "name": "",
          "type": "bool"
        }
      ],
      "stateMutability": "pure",
      "type": "function"
    },
    {
      "inputs": [
        {
          "internalType": "address",
          "name": "forwarder",
          "type": "address"
        }
      ],
      "name": "isTrustedForwarder",
      "outputs": [
        {
          "internalType": "bool",
          "name": "",
          "type": "bool"
        }
      ],
      "stateMutability": "view",
      "type": "function"
    },
    {
      "inputs": [],
      "name": "lastId",
      "outputs": [
        {
          "internalType": "uint256",
          "name": "",
          "type": "uint256"
        }
      ],
      "stateMutability": "view",
      "type": "function"
    },
    {
      "inputs": [
        {
          "internalType": "uint256",
          "name": "collectionId",
          "type": "uint256"
        },
        {
          "internalType": "address[]",
          "name": "to",
          "type": "address[]"
        },
        {
          "internalType": "bool",
          "name": "frozen",
          "type": "bool"
        },
        {
          "internalType": "uint64",
          "name": "validDuration",
          "type": "uint64"
        }
      ],
      "name": "mintCollectionToManyUsers",
      "outputs": [
        {
          "internalType": "bool",
          "name": "",
          "type": "bool"
        }
      ],
      "stateMutability": "nonpayable",
      "type": "function"
    },
    {
      "inputs": [
        {
          "internalType": "uint256",
          "name": "collectionId",
          "type": "uint256"
        },
        {
          "internalType": "address",
          "name": "to",
          "type": "address"
        },
        {
          "internalType": "bool",
          "name": "frozen",
          "type": "bool"
        },
        {
          "internalType": "uint64",
          "name": "validDuration",
          "type": "uint64"
        }
      ],
      "name": "mintToken",
      "outputs": [
        {
          "internalType": "bool",
          "name": "",
          "type": "bool"
        }
      ],
      "stateMutability": "nonpayable",
      "type": "function"
    },
    {
      "inputs": [
        {
          "internalType": "uint256[]",
          "name": "collectionIds",
          "type": "uint256[]"
        },
        {
          "internalType": "address",
          "name": "to",
          "type": "address"
        },
        {
          "internalType": "bool",
          "name": "frozen",
          "type": "bool"
        },
        {
          "internalType": "uint64",
          "name": "validDuration",
          "type": "uint64"
        }
      ],
      "name": "mintUserToManyCollections",
      "outputs": [
        {
          "internalType": "bool",
          "name": "",
          "type": "bool"
        }
      ],
      "stateMutability": "nonpayable",
      "type": "function"
    },
    {
      "inputs": [],
      "name": "name",
      "outputs": [
        {
          "internalType": "string",
          "name": "",
          "type": "string"
        }
      ],
      "stateMutability": "view",
      "type": "function"
    },
    {
      "inputs": [],
      "name": "owner",
      "outputs": [
        {
          "internalType": "address",
          "name": "",
          "type": "address"
        }
      ],
      "stateMutability": "view",
      "type": "function"
    },
    {
      "inputs": [
        {
          "internalType": "uint256",
          "name": "tokenId",
          "type": "uint256"
        }
      ],
      "name": "ownerOf",
      "outputs": [
        {
          "internalType": "address",
          "name": "",
          "type": "address"
        }
      ],
      "stateMutability": "view",
      "type": "function"
    },
    {
      "inputs": [],
      "name": "pause",
      "outputs": [],
      "stateMutability": "nonpayable",
      "type": "function"
    },
    {
      "inputs": [],
      "name": "paused",
      "outputs": [
        {
          "internalType": "bool",
          "name": "",
          "type": "bool"
        }
      ],
      "stateMutability": "view",
      "type": "function"
    },
    {
      "inputs": [],
      "name": "proxiableUUID",
      "outputs": [
        {
          "internalType": "bytes32",
          "name": "",
          "type": "bytes32"
        }
      ],
      "stateMutability": "view",
      "type": "function"
    },
    {
      "inputs": [
        {
          "internalType": "uint256",
          "name": "tokenId",
          "type": "uint256"
        }
      ],
      "name": "reclaimToken",
      "outputs": [],
      "stateMutability": "nonpayable",
      "type": "function"
    },
    {
      "inputs": [
        {
          "internalType": "address",
          "name": "admin",
          "type": "address"
        }
      ],
      "name": "removeAdmin",
      "outputs": [],
      "stateMutability": "nonpayable",
      "type": "function"
    },
    {
      "inputs": [
        {
          "internalType": "uint256",
          "name": "collectionId",
          "type": "uint256"
        }
      ],
      "name": "removeCollectionRoyalty",
      "outputs": [],
      "stateMutability": "nonpayable",
      "type": "function"
    },
    {
      "inputs": [],
      "name": "removeDefaultRoyalty",
      "outputs": [],
      "stateMutability": "nonpayable",
      "type": "function"
    },
    {
      "inputs": [
        {
          "internalType": "uint256",
          "name": "tokenId",
          "type": "uint256"
        },
        {
          "internalType": "uint64",
          "name": "duration",
          "type": "uint64"
        }
      ],
      "name": "renewSubscription",
      "outputs": [],
      "stateMutability": "nonpayable",
      "type": "function"
    },
    {
      "inputs": [],
      "name": "renounceOwnership",
      "outputs": [],
      "stateMutability": "nonpayable",
      "type": "function"
    },
    {
      "inputs": [
        {
          "internalType": "uint256",
          "name": "_tokenId",
          "type": "uint256"
        },
        {
          "internalType": "uint256",
          "name": "_salePrice",
          "type": "uint256"
        }
      ],
      "name": "royaltyInfo",
      "outputs": [
        {
          "internalType": "address",
          "name": "",
          "type": "address"
        },
        {
          "internalType": "uint256",
          "name": "",
          "type": "uint256"
        }
      ],
      "stateMutability": "view",
      "type": "function"
    },
    {
      "inputs": [
        {
          "internalType": "address",
          "name": "from",
          "type": "address"
        },
        {
          "internalType": "address",
          "name": "to",
          "type": "address"
        },
        {
          "internalType": "uint256",
          "name": "tokenId",
          "type": "uint256"
        }
      ],
      "name": "safeTransferFrom",
      "outputs": [],
      "stateMutability": "nonpayable",
      "type": "function"
    },
    {
      "inputs": [
        {
          "internalType": "address",
          "name": "from",
          "type": "address"
        },
        {
          "internalType": "address",
          "name": "to",
          "type": "address"
        },
        {
          "internalType": "uint256",
          "name": "tokenId",
          "type": "uint256"
        },
        {
          "internalType": "bytes",
          "name": "data",
          "type": "bytes"
        }
      ],
      "name": "safeTransferFrom",
      "outputs": [],
      "stateMutability": "nonpayable",
      "type": "function"
    },
    {
      "inputs": [
        {
          "internalType": "address",
          "name": "operator",
          "type": "address"
        },
        {
          "internalType": "bool",
          "name": "approved",
          "type": "bool"
        }
      ],
      "name": "setApprovalForAll",
      "outputs": [],
      "stateMutability": "nonpayable",
      "type": "function"
    },
    {
      "inputs": [
        {
          "internalType": "uint256",
          "name": "tokenId",
          "type": "uint256"
        },
        {
          "internalType": "uint64",
          "name": "newExpiration",
          "type": "uint64"
        }
      ],
      "name": "setExpiration",
      "outputs": [],
      "stateMutability": "nonpayable",
      "type": "function"
    },
    {
      "inputs": [
        {
          "internalType": "uint256",
          "name": "newLastId",
          "type": "uint256"
        }
      ],
      "name": "setLastId",
      "outputs": [],
      "stateMutability": "nonpayable",
      "type": "function"
    },
    {
      "inputs": [
        {
          "internalType": "address",
          "name": "forwarder",
          "type": "address"
        }
      ],
      "name": "setTurstedForwarder",
      "outputs": [],
      "stateMutability": "nonpayable",
      "type": "function"
    },
    {
      "inputs": [
        {
          "internalType": "bytes4",
          "name": "interfaceId",
          "type": "bytes4"
        }
      ],
      "name": "supportsInterface",
      "outputs": [
        {
          "internalType": "bool",
          "name": "",
          "type": "bool"
        }
      ],
      "stateMutability": "view",
      "type": "function"
    },
    {
      "inputs": [],
      "name": "symbol",
      "outputs": [
        {
          "internalType": "string",
          "name": "",
          "type": "string"
        }
      ],
      "stateMutability": "view",
      "type": "function"
    },
    {
      "inputs": [
        {
          "internalType": "uint256",
          "name": "tokenId",
          "type": "uint256"
        }
      ],
      "name": "tokenCollection",
      "outputs": [
        {
          "internalType": "uint256",
          "name": "",
          "type": "uint256"
        }
      ],
      "stateMutability": "view",
      "type": "function"
    },
    {
      "inputs": [
        {
          "internalType": "uint256",
          "name": "tokenId",
          "type": "uint256"
        }
      ],
      "name": "tokenURI",
      "outputs": [
        {
          "internalType": "string",
          "name": "",
          "type": "string"
        }
      ],
      "stateMutability": "view",
      "type": "function"
    },
    {
      "inputs": [
        {
          "internalType": "address",
          "name": "from",
          "type": "address"
        },
        {
          "internalType": "address",
          "name": "to",
          "type": "address"
        },
        {
          "internalType": "uint256",
          "name": "tokenId",
          "type": "uint256"
        }
      ],
      "name": "transferFrom",
      "outputs": [],
      "stateMutability": "nonpayable",
      "type": "function"
    },
    {
      "inputs": [
        {
          "internalType": "address",
          "name": "newOwner",
          "type": "address"
        }
      ],
      "name": "transferOwnership",
      "outputs": [],
      "stateMutability": "nonpayable",
      "type": "function"
    },
    {
      "inputs": [
        {
          "internalType": "uint256",
          "name": "tokenId",
          "type": "uint256"
        }
      ],
      "name": "unfreeze",
      "outputs": [],
      "stateMutability": "nonpayable",
      "type": "function"
    },
    {
      "inputs": [],
      "name": "unpause",
      "outputs": [],
      "stateMutability": "nonpayable",
      "type": "function"
    },
    {
      "inputs": [
        {
          "internalType": "uint256",
          "name": "collectionId",
          "type": "uint256"
        },
        {
          "internalType": "address",
          "name": "receiver",
          "type": "address"
        },
        {
          "internalType": "uint96",
          "name": "feeNumerator",
          "type": "uint96"
        }
      ],
      "name": "updateCollectionRoyalty",
      "outputs": [],
      "stateMutability": "nonpayable",
      "type": "function"
    },
    {
      "inputs": [
        {
          "internalType": "string",
          "name": "__contractURI",
          "type": "string"
        }
      ],
      "name": "updateContractURI",
      "outputs": [],
      "stateMutability": "nonpayable",
      "type": "function"
    },
    {
      "inputs": [
        {
          "internalType": "address",
          "name": "receiver",
          "type": "address"
        },
        {
          "internalType": "uint96",
          "name": "feeNumerator",
          "type": "uint96"
        }
      ],
      "name": "updateDefaultRoyalty",
      "outputs": [],
      "stateMutability": "nonpayable",
      "type": "function"
    },
    {
      "inputs": [
        {
          "internalType": "address",
          "name": "newImplementation",
          "type": "address"
        }
      ],
      "name": "upgradeTo",
      "outputs": [],
      "stateMutability": "nonpayable",
      "type": "function"
    },
    {
      "inputs": [
        {
          "internalType": "address",
          "name": "newImplementation",
          "type": "address"
        },
        {
          "internalType": "bytes",
          "name": "data",
          "type": "bytes"
        }
      ],
      "name": "upgradeToAndCall",
      "outputs": [],
      "stateMutability": "payable",
      "type": "function"
    }
  ],
  "bytecode": "0x60a0604052306080523480156200001557600080fd5b506200002062000026565b620000e8565b600054610100900460ff1615620000935760405162461bcd60e51b815260206004820152602760248201527f496e697469616c697a61626c653a20636f6e747261637420697320696e697469604482015266616c697a696e6760c81b606482015260840160405180910390fd5b60005460ff9081161015620000e6576000805460ff191660ff9081179091556040519081527f7f26b83ff96e1f2b6a682f133852f6798a09c465da95921460cefb38474024989060200160405180910390a15b565b6080516159776200012060003960008181611257015281816112ed015281816117880152818161181e0152611a1f01526159776000f3fe6080604052600436106103555760003560e01c806370a08231116101bb578063c1292cc3116100f7578063d691e43c11610095578063e8a3d4851161006f578063e8a3d485146109d9578063e985e9c5146109ee578063f2fde38b14610a0e578063fb1fcca114610a2e57600080fd5b8063d691e43c14610979578063d7a78db814610999578063d953e4d4146109b957600080fd5b8063cde317af116100d1578063cde317af146108f9578063ce1b815f1461091a578063cea0302e14610939578063d1c332de1461095957600080fd5b8063c1292cc3146108a2578063c87b56dd146108b9578063ca275931146108d957600080fd5b80638e45d62e116101645780639a80c5e31161013e5780639a80c5e314610822578063a089479914610842578063a22cb46514610862578063b88d4fde1461088257600080fd5b80638e45d62e146107d857806395d89b41146107f857806397ec4fba1461080d57600080fd5b80637e5b1e24116101955780637e5b1e24146107855780638456cb59146107a55780638da5cb5b146107ba57600080fd5b806370a0823114610730578063715018a614610750578063776ce8681461076557600080fd5b80633659cfe61161029557806352d1902d116102335780636352211e1161020d5780636352211e146106b05780636623fc46146106d05780636a662a3c146106f0578063704802751461071057600080fd5b806352d1902d14610653578063572b6c05146106685780635c975abb1461069857600080fd5b806342966c681161026f57806342966c68146105e0578063493a7576146106005780634f1ef28614610620578063508061a21461063357600080fd5b80633659cfe61461058b5780633f4ba83a146105ab57806342842e0e146105c057600080fd5b806317c957091161030257806323b872dd116102dc57806323b872dd146104c457806324d7806c146104e45780632a55205a1461051e5780632dd883e81461055d57600080fd5b806317c957091461044b5780631a27e85f1461048457806321235083146104a457600080fd5b8063095ea7b311610333578063095ea7b3146103e95780631771c96c1461040b5780631785f53c1461042b57600080fd5b806301ffc9a71461035a57806306fdde031461038f578063081812fc146103b1575b600080fd5b34801561036657600080fd5b5061037a610375366004614ee1565b610a4e565b60405190151581526020015b60405180910390f35b34801561039b57600080fd5b506103a4610af6565b6040516103869190614f74565b3480156103bd57600080fd5b506103d16103cc366004614f87565b610b88565b6040516001600160a01b039091168152602001610386565b3480156103f557600080fd5b50610409610404366004614fbc565b610baf565b005b34801561041757600080fd5b506103a4610426366004614f87565b610caf565b34801561043757600080fd5b50610409610446366004614fe6565b610ce4565b34801561045757600080fd5b5061046b610466366004614f87565b610deb565b60405167ffffffffffffffff9091168152602001610386565b34801561049057600080fd5b5061040961049f366004614f87565b610e14565b3480156104b057600080fd5b506104096104bf366004614f87565b610efe565b3480156104d057600080fd5b506104096104df366004615001565b610ff4565b3480156104f057600080fd5b5061037a6104ff366004614fe6565b6001600160a01b03166000908152610199602052604090205460ff1690565b34801561052a57600080fd5b5061053e61053936600461503d565b61113a565b604080516001600160a01b039093168352602083019190915201610386565b34801561056957600080fd5b5061057d610578366004614f87565b61122d565b604051908152602001610386565b34801561059757600080fd5b506104096105a6366004614fe6565b61124c565b3480156105b757600080fd5b506104096113ea565b3480156105cc57600080fd5b506104096105db366004615001565b61147e565b3480156105ec57600080fd5b506104096105fb366004614f87565b61157b565b34801561060c57600080fd5b5061040961061b366004614f87565b611607565b61040961062e366004615139565b61177d565b34801561063f57600080fd5b5061040961064e366004614f87565b61190c565b34801561065f57600080fd5b5061057d611a12565b34801561067457600080fd5b5061037a610683366004614fe6565b610191546001600160a01b0391821691161490565b3480156106a457600080fd5b5060c95460ff1661037a565b3480156106bc57600080fd5b506103d16106cb366004614f87565b611ad7565b3480156106dc57600080fd5b506104096106eb366004614f87565b611b3c565b3480156106fc57600080fd5b5061040961070b3660046151a3565b611c2c565b34801561071c57600080fd5b5061040961072b366004614fe6565b611cc1565b34801561073c57600080fd5b5061057d61074b366004614fe6565b611dbe565b34801561075c57600080fd5b50610409611e58565b34801561077157600080fd5b506104096107803660046151f7565b611e6a565b34801561079157600080fd5b506104096107a0366004615223565b611f07565b3480156107b157600080fd5b50610409611fa5565b3480156107c657600080fd5b5060fb546001600160a01b03166103d1565b3480156107e457600080fd5b5061037a6107f3366004615266565b612037565b34801561080457600080fd5b506103a4612101565b34801561081957600080fd5b50610409612110565b34801561082e57600080fd5b5061037a61083d3660046152fa565b6121a5565b34801561084e57600080fd5b5061037a61085d366004614f87565b6122f8565b34801561086e57600080fd5b5061040961087d36600461536a565b61231a565b34801561088e57600080fd5b5061040961089d3660046153a1565b612410565b3480156108ae57600080fd5b5061057d6101935481565b3480156108c557600080fd5b506103a46108d4366004614f87565b61251b565b3480156108e557600080fd5b506104096108f4366004615409565b61256c565b34801561090557600080fd5b5061037a610914366004614f87565b50600190565b34801561092657600080fd5b50610191546001600160a01b03166103d1565b34801561094557600080fd5b50610409610954366004614fe6565b612757565b34801561096557600080fd5b506104096109743660046151f7565b612818565b34801561098557600080fd5b50610409610994366004615494565b6128ab565b3480156109a557600080fd5b506104096109b4366004614f87565b61293f565b3480156109c557600080fd5b506104096109d4366004614f87565b6129da565b3480156109e557600080fd5b506103a4612a76565b3480156109fa57600080fd5b5061037a610a093660046154be565b612b05565b348015610a1a57600080fd5b50610409610a29366004614fe6565b612b84565b348015610a3a57600080fd5b5061037a610a493660046154e8565b612c11565b60007fffffffff0000000000000000000000000000000000000000000000000000000082167f8c65f84d000000000000000000000000000000000000000000000000000000001480610ae157507fffffffff0000000000000000000000000000000000000000000000000000000082167f2a55205a00000000000000000000000000000000000000000000000000000000145b80610af05750610af082612d44565b92915050565b606060658054610b0590615546565b80601f0160208091040260200160405190810160405280929190818152602001828054610b3190615546565b8015610b7e5780601f10610b5357610100808354040283529160200191610b7e565b820191906000526020600020905b815481529060010190602001808311610b6157829003601f168201915b5050505050905090565b6000610b9382612e27565b506000908152606960205260409020546001600160a01b031690565b816daaeb6d7670e522a718067333cd4e3b15610ca0576040517fc61711340000000000000000000000000000000000000000000000000000000081523060048201526001600160a01b03821660248201526daaeb6d7670e522a718067333cd4e9063c617113490604401602060405180830381865afa158015610c36573d6000803e3d6000fd5b505050506040513d601f19601f82011682018060405250810190610c5a919061559a565b610ca0576040517fede71dcc0000000000000000000000000000000000000000000000000000000081526001600160a01b03821660048201526024015b60405180910390fd5b610caa8383612e8b565b505050565b6060610192610cbd83612fca565b604051602001610cce929190615688565b6040516020818303038152906040529050919050565b610cec6130fc565b6001600160a01b0316610d0760fb546001600160a01b031690565b6001600160a01b03161480610d225750610d226104ff6130fc565b610d6e5760405162461bcd60e51b815260206004820152601c60248201527f63616c6c6572206973206e6f74206f776e6572206f722061646d696e000000006044820152606401610c97565b6001600160a01b03811660008181526101996020908152604080832080547fffffffffffffffffffffffffffffffffffffffffffffffffffffffffffffff001690558051938452908301919091527f235bc17e7930760029e9f4d860a2a8089976de5b381cf8380fc11c1d88a1113391015b60405180910390a150565b6000610df682612e27565b506000908152610198602052604090205467ffffffffffffffff1690565b610e1c6130fc565b6001600160a01b0316610e3760fb546001600160a01b031690565b6001600160a01b03161480610e525750610e526104ff6130fc565b610e9e5760405162461bcd60e51b815260206004820152601c60248201527f63616c6c6572206973206e6f74206f776e6572206f722061646d696e000000006044820152606401610c97565b610ea661310b565b806101935410610ef85760405162461bcd60e51b815260206004820152601760248201527f4e65772049642068617320746f206265206869676865720000000000000000006044820152606401610c97565b61019355565b610f066130fc565b6001600160a01b0316610f2160fb546001600160a01b031690565b6001600160a01b03161480610f3c5750610f3c6104ff6130fc565b610f885760405162461bcd60e51b815260206004820152601c60248201527f63616c6c6572206973206e6f74206f776e6572206f722061646d696e000000006044820152606401610c97565b60008181526101986020908152604080832080547fffffffffffffffffffffffffffffffffffffffffffffffff00000000000000001690555191825282917f2ec2be2c4b90c2cf13ecb6751a24daed6bb741ae5ed3f7371aabf9402f6d62e8910160405180910390a250565b826daaeb6d7670e522a718067333cd4e3b15611129576110126130fc565b6001600160a01b0316816001600160a01b0316141561103b5761103684848461315e565b611134565b6daaeb6d7670e522a718067333cd4e63c6171134306110586130fc565b6040517fffffffff0000000000000000000000000000000000000000000000000000000060e085901b1681526001600160a01b03928316600482015291166024820152604401602060405180830381865afa1580156110bb573d6000803e3d6000fd5b505050506040513d601f19601f820116820180604052508101906110df919061559a565b611129576110eb6130fc565b6040517fede71dcc0000000000000000000000000000000000000000000000000000000081526001600160a01b039091166004820152602401610c97565b61113484848461315e565b50505050565b60008060006111488561122d565b600081815261019760209081526040918290208251808401909352546001600160a01b038116808452740100000000000000000000000000000000000000009091046bffffffffffffffffffffffff1691830191909152919250906111ee575060408051808201909152610196546001600160a01b03811682527401000000000000000000000000000000000000000090046bffffffffffffffffffffffff1660208201525b602081015160009061271090611212906bffffffffffffffffffffffff16886156dc565b61121c9190615748565b9151945090925050505b9250929050565b600061123882612e27565b506000908152610194602052604090205490565b306001600160a01b037f00000000000000000000000000000000000000000000000000000000000000001614156112eb5760405162461bcd60e51b815260206004820152602c60248201527f46756e6374696f6e206d7573742062652063616c6c6564207468726f7567682060448201527f64656c656761746563616c6c00000000000000000000000000000000000000006064820152608401610c97565b7f00000000000000000000000000000000000000000000000000000000000000006001600160a01b03166113467f360894a13ba1a3210667c828492db98dca3e2076cc3735a920a3ca505d382bbc546001600160a01b031690565b6001600160a01b0316146113c25760405162461bcd60e51b815260206004820152602c60248201527f46756e6374696f6e206d7573742062652063616c6c6564207468726f7567682060448201527f6163746976652070726f787900000000000000000000000000000000000000006064820152608401610c97565b6113cb816131e6565b604080516000808252602082019092526113e791839190613270565b50565b6113f26130fc565b6001600160a01b031661140d60fb546001600160a01b031690565b6001600160a01b0316148061142857506114286104ff6130fc565b6114745760405162461bcd60e51b815260206004820152601c60248201527f63616c6c6572206973206e6f74206f776e6572206f722061646d696e000000006044820152606401610c97565b61147c61342e565b565b826daaeb6d7670e522a718067333cd4e3b156115705761149c6130fc565b6001600160a01b0316816001600160a01b031614156114c0576110368484846134a4565b6daaeb6d7670e522a718067333cd4e63c6171134306114dd6130fc565b6040517fffffffff0000000000000000000000000000000000000000000000000000000060e085901b1681526001600160a01b03928316600482015291166024820152604401602060405180830381865afa158015611540573d6000803e3d6000fd5b505050506040513d601f19601f82011682018060405250810190611564919061559a565b611570576110eb6130fc565b6111348484846134a4565b61158c6115866130fc565b826134bf565b6115fe5760405162461bcd60e51b815260206004820152602e60248201527f4552433732313a2063616c6c6572206973206e6f7420746f6b656e206f776e6560448201527f72206e6f7220617070726f7665640000000000000000000000000000000000006064820152608401610c97565b6113e78161351d565b61160f6130fc565b6001600160a01b031661162a60fb546001600160a01b031690565b6001600160a01b0316148061164557506116456104ff6130fc565b6116915760405162461bcd60e51b815260206004820152601c60248201527f63616c6c6572206973206e6f74206f776e6572206f722061646d696e000000006044820152606401610c97565b60008181526101986020526040902054429067ffffffffffffffff808316911610156116ff5760405162461bcd60e51b815260206004820152601f60248201527f546f6b656e2063616e6e6f7420616c72656164792062652065787069726564006044820152606401610c97565b6000828152610198602090815260409182902080547fffffffffffffffffffffffffffffffffffffffffffffffff00000000000000001667ffffffffffffffff8516908117909155915191825283917f2ec2be2c4b90c2cf13ecb6751a24daed6bb741ae5ed3f7371aabf9402f6d62e8910160405180910390a25050565b306001600160a01b037f000000000000000000000000000000000000000000000000000000000000000016141561181c5760405162461bcd60e51b815260206004820152602c60248201527f46756e6374696f6e206d7573742062652063616c6c6564207468726f7567682060448201527f64656c656761746563616c6c00000000000000000000000000000000000000006064820152608401610c97565b7f00000000000000000000000000000000000000000000000000000000000000006001600160a01b03166118777f360894a13ba1a3210667c828492db98dca3e2076cc3735a920a3ca505d382bbc546001600160a01b031690565b6001600160a01b0316146118f35760405162461bcd60e51b815260206004820152602c60248201527f46756e6374696f6e206d7573742062652063616c6c6564207468726f7567682060448201527f6163746976652070726f787900000000000000000000000000000000000000006064820152608401610c97565b6118fc826131e6565b61190882826001613270565b5050565b6119146130fc565b6001600160a01b031661192f60fb546001600160a01b031690565b6001600160a01b0316148061194a575061194a6104ff6130fc565b6119965760405162461bcd60e51b815260206004820152601c60248201527f63616c6c6572206973206e6f74206f776e6572206f722061646d696e000000006044820152606401610c97565b61199f816122f8565b6119eb5760405162461bcd60e51b815260206004820152601460248201527f546f6b656e206d7573742062652066726f7a656e0000000000000000000000006044820152606401610c97565b6119f481613599565b6113e7611a0082611ad7565b60fb546001600160a01b031683613600565b6000306001600160a01b037f00000000000000000000000000000000000000000000000000000000000000001614611ab25760405162461bcd60e51b815260206004820152603860248201527f555550535570677261646561626c653a206d757374206e6f742062652063616c60448201527f6c6564207468726f7567682064656c656761746563616c6c00000000000000006064820152608401610c97565b507f360894a13ba1a3210667c828492db98dca3e2076cc3735a920a3ca505d382bbc90565b6000818152606760205260408120546001600160a01b031680610af05760405162461bcd60e51b815260206004820152601860248201527f4552433732313a20696e76616c696420746f6b656e20494400000000000000006044820152606401610c97565b611b446130fc565b6001600160a01b0316611b5f60fb546001600160a01b031690565b6001600160a01b03161480611b7a5750611b7a6104ff6130fc565b611bc65760405162461bcd60e51b815260206004820152601c60248201527f63616c6c6572206973206e6f74206f776e6572206f722061646d696e000000006044820152606401610c97565b611bce61310b565b611bd7816122f8565b611c235760405162461bcd60e51b815260206004820152601360248201527f546f6b656e206973206e6f742066726f7a656e000000000000000000000000006044820152606401610c97565b6113e781613599565b611c346130fc565b6001600160a01b0316611c4f60fb546001600160a01b031690565b6001600160a01b03161480611c6a5750611c6a6104ff6130fc565b611cb65760405162461bcd60e51b815260206004820152601c60248201527f63616c6c6572206973206e6f74206f776e6572206f722061646d696e000000006044820152606401610c97565b610caa8383836137f0565b611cc961392d565b6001600160a01b038116611d445760405162461bcd60e51b8152602060048201526024808201527f4e65772061646d696e2063616e6e6f7420626520746865207a65726f2061646460448201527f72657373000000000000000000000000000000000000000000000000000000006064820152608401610c97565b6001600160a01b0381166000818152610199602090815260409182902080547fffffffffffffffffffffffffffffffffffffffffffffffffffffffffffffff001660019081179091558251938452908301527f235bc17e7930760029e9f4d860a2a8089976de5b381cf8380fc11c1d88a111339101610de0565b60006001600160a01b038216611e3c5760405162461bcd60e51b815260206004820152602960248201527f4552433732313a2061646472657373207a65726f206973206e6f74206120766160448201527f6c6964206f776e657200000000000000000000000000000000000000000000006064820152608401610c97565b506001600160a01b031660009081526068602052604090205490565b611e6061392d565b61147c60006139a6565b611e726130fc565b6001600160a01b0316611e8d60fb546001600160a01b031690565b6001600160a01b03161480611ea85750611ea86104ff6130fc565b611ef45760405162461bcd60e51b815260206004820152601c60248201527f63616c6c6572206973206e6f74206f776e6572206f722061646d696e000000006044820152606401610c97565b611efd82612e27565b6119088282613a10565b611f0f6130fc565b6001600160a01b0316611f2a60fb546001600160a01b031690565b6001600160a01b03161480611f455750611f456104ff6130fc565b611f915760405162461bcd60e51b815260206004820152601c60248201527f63616c6c6572206973206e6f74206f776e6572206f722061646d696e000000006044820152606401610c97565b805161190890610192906020840190614e1a565b611fad6130fc565b6001600160a01b0316611fc860fb546001600160a01b031690565b6001600160a01b03161480611fe35750611fe36104ff6130fc565b61202f5760405162461bcd60e51b815260206004820152601c60248201527f63616c6c6572206973206e6f74206f776e6572206f722061646d696e000000006044820152606401610c97565b61147c613ace565b600061204161310b565b6120496130fc565b6001600160a01b031661206460fb546001600160a01b031690565b6001600160a01b0316148061207f575061207f6104ff6130fc565b6120cb5760405162461bcd60e51b815260206004820152601c60248201527f63616c6c6572206973206e6f74206f776e6572206f722061646d696e000000006044820152606401610c97565b600161019360008282546120df919061575c565b925050819055506120f68561019354868686613b2a565b90505b949350505050565b606060668054610b0590615546565b6121186130fc565b6001600160a01b031661213360fb546001600160a01b031690565b6001600160a01b0316148061214e575061214e6104ff6130fc565b61219a5760405162461bcd60e51b815260206004820152601c60248201527f63616c6c6572206973206e6f74206f776e6572206f722061646d696e000000006044820152606401610c97565b61147c600061019655565b60006121af61310b565b6121b76130fc565b6001600160a01b03166121d260fb546001600160a01b031690565b6001600160a01b031614806121ed57506121ed6104ff6130fc565b6122395760405162461bcd60e51b815260206004820152601c60248201527f63616c6c6572206973206e6f74206f776e6572206f722061646d696e000000006044820152606401610c97565b60006122458342615774565b905060005b858110156122cf57600081610193546001612265919061575c565b61226f919061575c565b90506122a389828a8a8681811061228857612288615797565b905060200201602081019061229d9190614fe6565b89613b7d565b5067ffffffffffffffff8516156122be576122be8184612818565b506122c8816157c6565b905061224a565b508585905061019360008282546122e6919061575c565b90915550600198975050505050505050565b600061230382612e27565b506000908152610195602052604090205460ff1690565b816daaeb6d7670e522a718067333cd4e3b15612406576040517fc61711340000000000000000000000000000000000000000000000000000000081523060048201526001600160a01b03821660248201526daaeb6d7670e522a718067333cd4e9063c617113490604401602060405180830381865afa1580156123a1573d6000803e3d6000fd5b505050506040513d601f19601f820116820180604052508101906123c5919061559a565b612406576040517fede71dcc0000000000000000000000000000000000000000000000000000000081526001600160a01b0382166004820152602401610c97565b610caa8383613bb5565b836daaeb6d7670e522a718067333cd4e3b156125085761242e6130fc565b6001600160a01b0316816001600160a01b031614156124585761245385858585613bc7565b612514565b6daaeb6d7670e522a718067333cd4e63c6171134306124756130fc565b6040517fffffffff0000000000000000000000000000000000000000000000000000000060e085901b1681526001600160a01b03928316600482015291166024820152604401602060405180830381865afa1580156124d8573d6000803e3d6000fd5b505050506040513d601f19601f820116820180604052508101906124fc919061559a565b612508576110eb6130fc565b61251485858585613bc7565b5050505050565b6000818152610194602052604090205460609061019261253a82612fca565b61254385612fca565b604051602001612555939291906157ff565b604051602081830303815290604052915050919050565b600054610100900460ff161580801561258c5750600054600160ff909116105b806125a65750303b1580156125a6575060005460ff166001145b6126185760405162461bcd60e51b815260206004820152602e60248201527f496e697469616c697a61626c653a20636f6e747261637420697320616c72656160448201527f647920696e697469616c697a65640000000000000000000000000000000000006064820152608401610c97565b600080547fffffffffffffffffffffffffffffffffffffffffffffffffffffffffffffff00166001179055801561267657600080547fffffffffffffffffffffffffffffffffffffffffffffffffffffffffffff00ff166101001790555b6126808585613c56565b612688613cdd565b612690613d62565b612698613de7565b6126a0613de7565b6126a8613e64565b60005b828110156126ed576126dd8484838181106126c8576126c8615797565b905060200201602081019061072b9190614fe6565b6126e6816157c6565b90506126ab565b50801561251457600080547fffffffffffffffffffffffffffffffffffffffffffffffffffffffffffff00ff169055604051600181527f7f26b83ff96e1f2b6a682f133852f6798a09c465da95921460cefb38474024989060200160405180910390a15050505050565b61275f6130fc565b6001600160a01b031661277a60fb546001600160a01b031690565b6001600160a01b0316148061279557506127956104ff6130fc565b6127e15760405162461bcd60e51b815260206004820152601c60248201527f63616c6c6572206973206e6f74206f776e6572206f722061646d696e000000006044820152606401610c97565b61019180547fffffffffffffffffffffffff0000000000000000000000000000000000000000166001600160a01b03831617905550565b6128206130fc565b6001600160a01b031661283b60fb546001600160a01b031690565b6001600160a01b0316148061285657506128566104ff6130fc565b6128a25760405162461bcd60e51b815260206004820152601c60248201527f63616c6c6572206973206e6f74206f776e6572206f722061646d696e000000006044820152606401610c97565b6116ff82612e27565b6128b36130fc565b6001600160a01b03166128ce60fb546001600160a01b031690565b6001600160a01b031614806128e957506128e96104ff6130fc565b6129355760405162461bcd60e51b815260206004820152601c60248201527f63616c6c6572206973206e6f74206f776e6572206f722061646d696e000000006044820152606401610c97565b6119088282613f00565b6129476130fc565b6001600160a01b031661296260fb546001600160a01b031690565b6001600160a01b0316148061297d575061297d6104ff6130fc565b6129c95760405162461bcd60e51b815260206004820152601c60248201527f63616c6c6572206973206e6f74206f776e6572206f722061646d696e000000006044820152606401610c97565b6129d161310b565b6113e78161402c565b6129e26130fc565b6001600160a01b03166129fd60fb546001600160a01b031690565b6001600160a01b03161480612a185750612a186104ff6130fc565b612a645760405162461bcd60e51b815260206004820152601c60248201527f63616c6c6572206973206e6f74206f776e6572206f722061646d696e000000006044820152606401610c97565b60009081526101976020526040812055565b6101928054612a8490615546565b80601f0160208091040260200160405190810160405280929190818152602001828054612ab090615546565b8015612afd5780601f10612ad257610100808354040283529160200191612afd565b820191906000526020600020905b815481529060010190602001808311612ae057829003601f168201915b505050505081565b60006001600160a01b0382166e6c3852cbef3e08e8df289169ede5811480612b4657506001600160a01b0382166000908152610199602052604090205460ff165b15612b5357506001610af0565b6001600160a01b038084166000908152606a602090815260408083209386168352929052205460ff165b9392505050565b612b8c61392d565b6001600160a01b038116612c085760405162461bcd60e51b815260206004820152602660248201527f4f776e61626c653a206e6577206f776e657220697320746865207a65726f206160448201527f64647265737300000000000000000000000000000000000000000000000000006064820152608401610c97565b6113e7816139a6565b6000612c1b61310b565b612c236130fc565b6001600160a01b0316612c3e60fb546001600160a01b031690565b6001600160a01b03161480612c595750612c596104ff6130fc565b612ca55760405162461bcd60e51b815260206004820152601c60248201527f63616c6c6572206973206e6f74206f776e6572206f722061646d696e000000006044820152606401610c97565b6000612cb18342615774565b905060005b86811015612d2d57600081610193546001612cd1919061575c565b612cdb919061575c565b9050612d01898984818110612cf257612cf2615797565b90506020020135828989613b7d565b5067ffffffffffffffff851615612d1c57612d1c8184612818565b50612d26816157c6565b9050612cb6565b508686905061019360008282546122e6919061575c565b60007fffffffff0000000000000000000000000000000000000000000000000000000082167f80ac58cd000000000000000000000000000000000000000000000000000000001480612dd757507fffffffff0000000000000000000000000000000000000000000000000000000082167f5b5e139f00000000000000000000000000000000000000000000000000000000145b80610af057507f01ffc9a7000000000000000000000000000000000000000000000000000000007fffffffff00000000000000000000000000000000000000000000000000000000831614610af0565b6000818152606760205260409020546001600160a01b03166113e75760405162461bcd60e51b815260206004820152601860248201527f4552433732313a20696e76616c696420746f6b656e20494400000000000000006044820152606401610c97565b6000612e9682611ad7565b9050806001600160a01b0316836001600160a01b03161415612f205760405162461bcd60e51b815260206004820152602160248201527f4552433732313a20617070726f76616c20746f2063757272656e74206f776e6560448201527f72000000000000000000000000000000000000000000000000000000000000006064820152608401610c97565b806001600160a01b0316612f326130fc565b6001600160a01b03161480612f4e5750612f4e81610a096130fc565b612fc05760405162461bcd60e51b815260206004820152603e60248201527f4552433732313a20617070726f76652063616c6c6572206973206e6f7420746f60448201527f6b656e206f776e6572206e6f7220617070726f76656420666f7220616c6c00006064820152608401610c97565b610caa8383614096565b60608161300a57505060408051808201909152600181527f3000000000000000000000000000000000000000000000000000000000000000602082015290565b8160005b8115613034578061301e816157c6565b915061302d9050600a83615748565b915061300e565b60008167ffffffffffffffff81111561304f5761304f61505f565b6040519080825280601f01601f191660200182016040528015613079576020820181803683370190505b5090505b84156120f95761308e600183615861565b915061309b600a86615878565b6130a690603061575c565b60f81b8183815181106130bb576130bb615797565b60200101907effffffffffffffffffffffffffffffffffffffffffffffffffffffffffffff1916908160001a9053506130f5600a86615748565b945061307d565b600061310661411c565b905090565b60c95460ff161561147c5760405162461bcd60e51b815260206004820152601060248201527f5061757361626c653a20706175736564000000000000000000000000000000006044820152606401610c97565b6131696115866130fc565b6131db5760405162461bcd60e51b815260206004820152602e60248201527f4552433732313a2063616c6c6572206973206e6f7420746f6b656e206f776e6560448201527f72206e6f7220617070726f7665640000000000000000000000000000000000006064820152608401610c97565b610caa838383613600565b6131ee6130fc565b6001600160a01b031661320960fb546001600160a01b031690565b6001600160a01b0316148061322457506132246104ff6130fc565b6113e75760405162461bcd60e51b815260206004820152601c60248201527f63616c6c6572206973206e6f74206f776e6572206f722061646d696e000000006044820152606401610c97565b7f4910fdfa16fed3260ed0e7147f7cc6da11a60208b5b9406d12a635614ffd91435460ff16156132a357610caa8361416f565b826001600160a01b03166352d1902d6040518163ffffffff1660e01b8152600401602060405180830381865afa92505050801561331b575060408051601f3d9081017fffffffffffffffffffffffffffffffffffffffffffffffffffffffffffffffe01682019092526133189181019061588c565b60015b61338d5760405162461bcd60e51b815260206004820152602e60248201527f45524331393637557067726164653a206e657720696d706c656d656e7461746960448201527f6f6e206973206e6f7420555550530000000000000000000000000000000000006064820152608401610c97565b7f360894a13ba1a3210667c828492db98dca3e2076cc3735a920a3ca505d382bbc81146134225760405162461bcd60e51b815260206004820152602960248201527f45524331393637557067726164653a20756e737570706f727465642070726f7860448201527f6961626c655555494400000000000000000000000000000000000000000000006064820152608401610c97565b50610caa838383614245565b61343661426a565b60c980547fffffffffffffffffffffffffffffffffffffffffffffffffffffffffffffff001690557f5db9ee0a495bf2e6ff9c91a7834c1ba4fdd244a5e8aa4e537bd38aeae4b073aa6134876130fc565b6040516001600160a01b03909116815260200160405180910390a1565b610caa83838360405180602001604052806000815250612410565b6000806134cb83611ad7565b9050806001600160a01b0316846001600160a01b031614806134f257506134f28185612b05565b806120f95750836001600160a01b031661350b84610b88565b6001600160a01b031614949350505050565b613526816142bc565b600090815261019460209081526040808320839055610195825280832080547fffffffffffffffffffffffffffffffffffffffffffffffffffffffffffffff00169055610198909152902080547fffffffffffffffffffffffffffffffffffffffffffffffff0000000000000000169055565b600081815261019560205260409081902080547fffffffffffffffffffffffffffffffffffffffffffffffffffffffffffffff00169055517f083eea12772ab70fba01c8212d02f3bc5dc29b8540dcdc84298e5dfa22731b9290610de09083815260200190565b826001600160a01b031661361382611ad7565b6001600160a01b03161461368f5760405162461bcd60e51b815260206004820152602560248201527f4552433732313a207472616e736665722066726f6d20696e636f72726563742060448201527f6f776e65720000000000000000000000000000000000000000000000000000006064820152608401610c97565b6001600160a01b03821661370a5760405162461bcd60e51b8152602060048201526024808201527f4552433732313a207472616e7366657220746f20746865207a65726f2061646460448201527f72657373000000000000000000000000000000000000000000000000000000006064820152608401610c97565b61371583838361437b565b613720600082614096565b6001600160a01b0383166000908152606860205260408120805460019290613749908490615861565b90915550506001600160a01b038216600090815260686020526040812080546001929061377790849061575c565b909155505060008181526067602052604080822080547fffffffffffffffffffffffff0000000000000000000000000000000000000000166001600160a01b0386811691821790925591518493918716917fddf252ad1be2c89b69c2b068fc378daa952ba7f163c4a11628f55a4df523b3ef91a4505050565b6127106bffffffffffffffffffffffff821611156138765760405162461bcd60e51b815260206004820152602a60248201527f455243323938313a20726f79616c7479206665652077696c6c2065786365656460448201527f2073616c655072696365000000000000000000000000000000000000000000006064820152608401610c97565b6001600160a01b0382166138cc5760405162461bcd60e51b815260206004820152601b60248201527f455243323938313a20496e76616c696420706172616d657465727300000000006044820152606401610c97565b6040805180820182526001600160a01b0393841681526bffffffffffffffffffffffff928316602080830191825260009687526101979052919094209351905190911674010000000000000000000000000000000000000000029116179055565b6139356130fc565b6001600160a01b031661395060fb546001600160a01b031690565b6001600160a01b03161461147c5760405162461bcd60e51b815260206004820181905260248201527f4f776e61626c653a2063616c6c6572206973206e6f7420746865206f776e65726044820152606401610c97565b60fb80546001600160a01b038381167fffffffffffffffffffffffff0000000000000000000000000000000000000000831681179093556040519116919082907f8be0079c531659141344cd1fd0a4f28419497f9722a3daafe3b4186f6b6457e090600090a35050565b6000828152610198602052604081205467ffffffffffffffff169081613a4157613a3a8342615774565b9050613a4e565b613a4b8383615774565b90505b6000848152610198602090815260409182902080547fffffffffffffffffffffffffffffffffffffffffffffffff00000000000000001667ffffffffffffffff8516908117909155915191825285917f2ec2be2c4b90c2cf13ecb6751a24daed6bb741ae5ed3f7371aabf9402f6d62e8910160405180910390a250505050565b613ad661310b565b60c980547fffffffffffffffffffffffffffffffffffffffffffffffffffffffffffffff001660011790557f62e78cea01bee320cd4e420270b5ea74000d11b0c9f74754ebdbfc544b05a2586134876130fc565b6000613b3684866143da565b6000858152610194602052604090208690558215613b5757613b578561293f565b67ffffffffffffffff821615613b7157613b718583613a10565b50600195945050505050565b6000613b8983856143da565b6000848152610194602052604090208590558115613baa57613baa8461293f565b506001949350505050565b611908613bc06130fc565b8383614540565b613bd8613bd26130fc565b836134bf565b613c4a5760405162461bcd60e51b815260206004820152602e60248201527f4552433732313a2063616c6c6572206973206e6f7420746f6b656e206f776e6560448201527f72206e6f7220617070726f7665640000000000000000000000000000000000006064820152608401610c97565b6111348484848461462d565b600054610100900460ff16613cd35760405162461bcd60e51b815260206004820152602b60248201527f496e697469616c697a61626c653a20636f6e7472616374206973206e6f74206960448201527f6e697469616c697a696e670000000000000000000000000000000000000000006064820152608401610c97565b61190882826146b6565b600054610100900460ff16613d5a5760405162461bcd60e51b815260206004820152602b60248201527f496e697469616c697a61626c653a20636f6e7472616374206973206e6f74206960448201527f6e697469616c697a696e670000000000000000000000000000000000000000006064820152608401610c97565b61147c61475a565b600054610100900460ff16613ddf5760405162461bcd60e51b815260206004820152602b60248201527f496e697469616c697a61626c653a20636f6e7472616374206973206e6f74206960448201527f6e697469616c697a696e670000000000000000000000000000000000000000006064820152608401610c97565b61147c614801565b600054610100900460ff1661147c5760405162461bcd60e51b815260206004820152602b60248201527f496e697469616c697a61626c653a20636f6e7472616374206973206e6f74206960448201527f6e697469616c697a696e670000000000000000000000000000000000000000006064820152608401610c97565b600054610100900460ff16613ee15760405162461bcd60e51b815260206004820152602b60248201527f496e697469616c697a61626c653a20636f6e7472616374206973206e6f74206960448201527f6e697469616c697a696e670000000000000000000000000000000000000000006064820152608401610c97565b61147c733cc6cdda760b79bafa08df41ecfa224f810dceb6600161488e565b6127106bffffffffffffffffffffffff82161115613f865760405162461bcd60e51b815260206004820152602a60248201527f455243323938313a20726f79616c7479206665652077696c6c2065786365656460448201527f2073616c655072696365000000000000000000000000000000000000000000006064820152608401610c97565b6001600160a01b038216613fdc5760405162461bcd60e51b815260206004820152601960248201527f455243323938313a20696e76616c6964207265636569766572000000000000006044820152606401610c97565b604080518082019091526001600160a01b039092168083526bffffffffffffffffffffffff9091166020909201829052740100000000000000000000000000000000000000009091021761019655565b600081815261019560205260409081902080547fffffffffffffffffffffffffffffffffffffffffffffffffffffffffffffff00166001179055517f4d69b51fee53c28bd8b61fe008151577ca65160b5248f6225e74d64fd4cf732890610de09083815260200190565b600081815260696020526040902080547fffffffffffffffffffffffff0000000000000000000000000000000000000000166001600160a01b03841690811790915581906140e382611ad7565b6001600160a01b03167f8c5be1e5ebec7d5bd14f71427d1e84f3dd0314c0f7b2291e5b200ac8c7c3b92560405160405180910390a45050565b60006014361080159061413a5750610191546001600160a01b031633145b1561416a57507fffffffffffffffffffffffffffffffffffffffffffffffffffffffffffffffec36013560601c90565b503390565b6001600160a01b0381163b6141ec5760405162461bcd60e51b815260206004820152602d60248201527f455243313936373a206e657720696d706c656d656e746174696f6e206973206e60448201527f6f74206120636f6e7472616374000000000000000000000000000000000000006064820152608401610c97565b7f360894a13ba1a3210667c828492db98dca3e2076cc3735a920a3ca505d382bbc80547fffffffffffffffffffffffff0000000000000000000000000000000000000000166001600160a01b0392909216919091179055565b61424e83614aef565b60008251118061425b5750805b15610caa576111348383614b2f565b60c95460ff1661147c5760405162461bcd60e51b815260206004820152601460248201527f5061757361626c653a206e6f74207061757365640000000000000000000000006044820152606401610c97565b60006142c782611ad7565b90506142d58160008461437b565b6142e0600083614096565b6001600160a01b0381166000908152606860205260408120805460019290614309908490615861565b909155505060008281526067602052604080822080547fffffffffffffffffffffffff0000000000000000000000000000000000000000169055518391906001600160a01b038416907fddf252ad1be2c89b69c2b068fc378daa952ba7f163c4a11628f55a4df523b3ef908390a45050565b61438361310b565b8061438d816122f8565b156110365760405162461bcd60e51b815260206004820152600f60248201527f546f6b656e2069732066726f7a656e00000000000000000000000000000000006044820152606401610c97565b6001600160a01b0382166144305760405162461bcd60e51b815260206004820181905260248201527f4552433732313a206d696e7420746f20746865207a65726f20616464726573736044820152606401610c97565b6000818152606760205260409020546001600160a01b0316156144955760405162461bcd60e51b815260206004820152601c60248201527f4552433732313a20746f6b656e20616c7265616479206d696e746564000000006044820152606401610c97565b6144a16000838361437b565b6001600160a01b03821660009081526068602052604081208054600192906144ca90849061575c565b909155505060008181526067602052604080822080547fffffffffffffffffffffffff0000000000000000000000000000000000000000166001600160a01b03861690811790915590518392907fddf252ad1be2c89b69c2b068fc378daa952ba7f163c4a11628f55a4df523b3ef908290a45050565b816001600160a01b0316836001600160a01b031614156145a25760405162461bcd60e51b815260206004820152601960248201527f4552433732313a20617070726f766520746f2063616c6c6572000000000000006044820152606401610c97565b6001600160a01b038381166000818152606a602090815260408083209487168084529482529182902080547fffffffffffffffffffffffffffffffffffffffffffffffffffffffffffffff001686151590811790915591519182527f17307eab39ab6107e8899845ad3d59bd9653f200f220920489ca2b5937696c31910160405180910390a3505050565b614638848484613600565b61464484848484614c3a565b6111345760405162461bcd60e51b815260206004820152603260248201527f4552433732313a207472616e7366657220746f206e6f6e20455243373231526560448201527f63656976657220696d706c656d656e74657200000000000000000000000000006064820152608401610c97565b600054610100900460ff166147335760405162461bcd60e51b815260206004820152602b60248201527f496e697469616c697a61626c653a20636f6e7472616374206973206e6f74206960448201527f6e697469616c697a696e670000000000000000000000000000000000000000006064820152608401610c97565b8151614746906065906020850190614e1a565b508051610caa906066906020840190614e1a565b600054610100900460ff166147d75760405162461bcd60e51b815260206004820152602b60248201527f496e697469616c697a61626c653a20636f6e7472616374206973206e6f74206960448201527f6e697469616c697a696e670000000000000000000000000000000000000000006064820152608401610c97565b60c980547fffffffffffffffffffffffffffffffffffffffffffffffffffffffffffffff00169055565b600054610100900460ff1661487e5760405162461bcd60e51b815260206004820152602b60248201527f496e697469616c697a61626c653a20636f6e7472616374206973206e6f74206960448201527f6e697469616c697a696e670000000000000000000000000000000000000000006064820152608401610c97565b61147c6148896130fc565b6139a6565b600054610100900460ff1661490b5760405162461bcd60e51b815260206004820152602b60248201527f496e697469616c697a61626c653a20636f6e7472616374206973206e6f74206960448201527f6e697469616c697a696e670000000000000000000000000000000000000000006064820152608401610c97565b6daaeb6d7670e522a718067333cd4e3b15611908576040517fc3c5a5470000000000000000000000000000000000000000000000000000000081523060048201526daaeb6d7670e522a718067333cd4e9063c3c5a547906024016020604051808303816000875af1158015614984573d6000803e3d6000fd5b505050506040513d601f19601f820116820180604052508101906149a8919061559a565b611908578015614a3d576040517f7d3e3dbe0000000000000000000000000000000000000000000000000000000081523060048201526001600160a01b03831660248201526daaeb6d7670e522a718067333cd4e90637d3e3dbe906044015b600060405180830381600087803b158015614a2157600080fd5b505af1158015614a35573d6000803e3d6000fd5b505050505050565b6001600160a01b03821615614aa5576040517fa0af29030000000000000000000000000000000000000000000000000000000081523060048201526001600160a01b03831660248201526daaeb6d7670e522a718067333cd4e9063a0af290390604401614a07565b6040517f4420e4860000000000000000000000000000000000000000000000000000000081523060048201526daaeb6d7670e522a718067333cd4e90634420e48690602401614a07565b614af88161416f565b6040516001600160a01b038216907fbc7cd75a20ee27fd9adebab32041f755214dbc6bffa90cc0225b39da2e5c2d3b90600090a250565b60606001600160a01b0383163b614bae5760405162461bcd60e51b815260206004820152602660248201527f416464726573733a2064656c65676174652063616c6c20746f206e6f6e2d636f60448201527f6e747261637400000000000000000000000000000000000000000000000000006064820152608401610c97565b600080846001600160a01b031684604051614bc991906158a5565b600060405180830381855af49150503d8060008114614c04576040519150601f19603f3d011682016040523d82523d6000602084013e614c09565b606091505b5091509150614c31828260405180606001604052806027815260200161591b60279139614de1565b95945050505050565b60006001600160a01b0384163b15614dd957836001600160a01b031663150b7a02614c636130fc565b8786866040518563ffffffff1660e01b8152600401614c8594939291906158c1565b6020604051808303816000875af1925050508015614cde575060408051601f3d9081017fffffffffffffffffffffffffffffffffffffffffffffffffffffffffffffffe0168201909252614cdb918101906158fd565b60015b614d8e573d808015614d0c576040519150601f19603f3d011682016040523d82523d6000602084013e614d11565b606091505b508051614d865760405162461bcd60e51b815260206004820152603260248201527f4552433732313a207472616e7366657220746f206e6f6e20455243373231526560448201527f63656976657220696d706c656d656e74657200000000000000000000000000006064820152608401610c97565b805181602001fd5b7fffffffff00000000000000000000000000000000000000000000000000000000167f150b7a02000000000000000000000000000000000000000000000000000000001490506120f9565b5060016120f9565b60608315614df0575081612b7d565b825115614e005782518084602001fd5b8160405162461bcd60e51b8152600401610c979190614f74565b828054614e2690615546565b90600052602060002090601f016020900481019282614e485760008555614e8e565b82601f10614e6157805160ff1916838001178555614e8e565b82800160010185558215614e8e579182015b82811115614e8e578251825591602001919060010190614e73565b50614e9a929150614e9e565b5090565b5b80821115614e9a5760008155600101614e9f565b7fffffffff00000000000000000000000000000000000000000000000000000000811681146113e757600080fd5b600060208284031215614ef357600080fd5b8135612b7d81614eb3565b60005b83811015614f19578181015183820152602001614f01565b838111156111345750506000910152565b60008151808452614f42816020860160208601614efe565b601f017fffffffffffffffffffffffffffffffffffffffffffffffffffffffffffffffe0169290920160200192915050565b602081526000612b7d6020830184614f2a565b600060208284031215614f9957600080fd5b5035919050565b80356001600160a01b0381168114614fb757600080fd5b919050565b60008060408385031215614fcf57600080fd5b614fd883614fa0565b946020939093013593505050565b600060208284031215614ff857600080fd5b612b7d82614fa0565b60008060006060848603121561501657600080fd5b61501f84614fa0565b925061502d60208501614fa0565b9150604084013590509250925092565b6000806040838503121561505057600080fd5b50508035926020909101359150565b7f4e487b7100000000000000000000000000000000000000000000000000000000600052604160045260246000fd5b600082601f83011261509f57600080fd5b813567ffffffffffffffff808211156150ba576150ba61505f565b604051601f83017fffffffffffffffffffffffffffffffffffffffffffffffffffffffffffffffe0908116603f011681019082821181831017156151005761510061505f565b8160405283815286602085880101111561511957600080fd5b836020870160208301376000602085830101528094505050505092915050565b6000806040838503121561514c57600080fd5b61515583614fa0565b9150602083013567ffffffffffffffff81111561517157600080fd5b61517d8582860161508e565b9150509250929050565b80356bffffffffffffffffffffffff81168114614fb757600080fd5b6000806000606084860312156151b857600080fd5b833592506151c860208501614fa0565b91506151d660408501615187565b90509250925092565b803567ffffffffffffffff81168114614fb757600080fd5b6000806040838503121561520a57600080fd5b8235915061521a602084016151df565b90509250929050565b60006020828403121561523557600080fd5b813567ffffffffffffffff81111561524c57600080fd5b6120f98482850161508e565b80151581146113e757600080fd5b6000806000806080858703121561527c57600080fd5b8435935061528c60208601614fa0565b9250604085013561529c81615258565b91506152aa606086016151df565b905092959194509250565b60008083601f8401126152c757600080fd5b50813567ffffffffffffffff8111156152df57600080fd5b6020830191508360208260051b850101111561122657600080fd5b60008060008060006080868803121561531257600080fd5b85359450602086013567ffffffffffffffff81111561533057600080fd5b61533c888289016152b5565b909550935050604086013561535081615258565b915061535e606087016151df565b90509295509295909350565b6000806040838503121561537d57600080fd5b61538683614fa0565b9150602083013561539681615258565b809150509250929050565b600080600080608085870312156153b757600080fd5b6153c085614fa0565b93506153ce60208601614fa0565b925060408501359150606085013567ffffffffffffffff8111156153f157600080fd5b6153fd8782880161508e565b91505092959194509250565b6000806000806060858703121561541f57600080fd5b843567ffffffffffffffff8082111561543757600080fd5b6154438883890161508e565b9550602087013591508082111561545957600080fd5b6154658883890161508e565b9450604087013591508082111561547b57600080fd5b50615488878288016152b5565b95989497509550505050565b600080604083850312156154a757600080fd5b6154b083614fa0565b915061521a60208401615187565b600080604083850312156154d157600080fd5b6154da83614fa0565b915061521a60208401614fa0565b60008060008060006080868803121561550057600080fd5b853567ffffffffffffffff81111561551757600080fd5b615523888289016152b5565b9096509450615536905060208701614fa0565b9250604086013561535081615258565b600181811c9082168061555a57607f821691505b60208210811415615594577f4e487b7100000000000000000000000000000000000000000000000000000000600052602260045260246000fd5b50919050565b6000602082840312156155ac57600080fd5b8151612b7d81615258565b8054600090600181811c90808316806155d157607f831692505b602080841082141561560c577f4e487b7100000000000000000000000000000000000000000000000000000000600052602260045260246000fd5b818015615620576001811461564f5761567c565b7fffffffffffffffffffffffffffffffffffffffffffffffffffffffffffffff0086168952848901965061567c565b60008881526020902060005b868110156156745781548b82015290850190830161565b565b505084890196505b50505050505092915050565b600061569482856155b7565b83516156a4818360208801614efe565b01949350505050565b7f4e487b7100000000000000000000000000000000000000000000000000000000600052601160045260246000fd5b6000817fffffffffffffffffffffffffffffffffffffffffffffffffffffffffffffffff0483118215151615615714576157146156ad565b500290565b7f4e487b7100000000000000000000000000000000000000000000000000000000600052601260045260246000fd5b60008261575757615757615719565b500490565b6000821982111561576f5761576f6156ad565b500190565b600067ffffffffffffffff8083168185168083038211156156a4576156a46156ad565b7f4e487b7100000000000000000000000000000000000000000000000000000000600052603260045260246000fd5b60007fffffffffffffffffffffffffffffffffffffffffffffffffffffffffffffffff8214156157f8576157f86156ad565b5060010190565b600061580b82866155b7565b845161581b818360208901614efe565b7f2f0000000000000000000000000000000000000000000000000000000000000091019081528351615854816001840160208801614efe565b0160010195945050505050565b600082821015615873576158736156ad565b500390565b60008261588757615887615719565b500690565b60006020828403121561589e57600080fd5b5051919050565b600082516158b7818460208701614efe565b9190910192915050565b60006001600160a01b038087168352808616602084015250836040830152608060608301526158f36080830184614f2a565b9695505050505050565b60006020828403121561590f57600080fd5b8151612b7d81614eb356fe416464726573733a206c6f772d6c6576656c2064656c65676174652063616c6c206661696c6564a26469706673582212205b79086aa5f25602d849a27f7c475fc04b23f114cee31d6f7e1fa0f2fbd41e4864736f6c634300080c0033",
  "linkReferences": {},
  "deployedLinkReferences": {}
}