{
  "_format": "hh-sol-artifact-1",
  "contractName": "UVCollectable",
  "sourceName": "contracts/UVCollectable.sol",
  "abi": [
    {
      "inputs": [],
      "stateMutability": "nonpayable",
      "type": "constructor"
    },
    {
      "anonymous": false,
      "inputs": [
        {
          "indexed": false,
          "internalType": "address",
          "name": "previousAdmin",
          "type": "address"
        },
        {
          "indexed": false,
          "internalType": "address",
          "name": "newAdmin",
          "type": "address"
        }
      ],
      "name": "AdminChanged",
      "type": "event"
    },
    {
      "anonymous": false,
      "inputs": [
        {
          "indexed": false,
          "internalType": "address",
          "name": "admin",
          "type": "address"
        },
        {
          "indexed": false,
          "internalType": "bool",
          "name": "added",
          "type": "bool"
        }
      ],
      "name": "AdminUpdated",
      "type": "event"
    },
    {
      "anonymous": false,
      "inputs": [
        {
          "indexed": true,
          "internalType": "address",
          "name": "owner",
          "type": "address"
        },
        {
          "indexed": true,
          "internalType": "address",
          "name": "approved",
          "type": "address"
        },
        {
          "indexed": true,
          "internalType": "uint256",
          "name": "tokenId",
          "type": "uint256"
        }
      ],
      "name": "Approval",
      "type": "event"
    },
    {
      "anonymous": false,
      "inputs": [
        {
          "indexed": true,
          "internalType": "address",
          "name": "owner",
          "type": "address"
        },
        {
          "indexed": true,
          "internalType": "address",
          "name": "operator",
          "type": "address"
        },
        {
          "indexed": false,
          "internalType": "bool",
          "name": "approved",
          "type": "bool"
        }
      ],
      "name": "ApprovalForAll",
      "type": "event"
    },
    {
      "anonymous": false,
      "inputs": [
        {
          "indexed": true,
          "internalType": "address",
          "name": "beacon",
          "type": "address"
        }
      ],
      "name": "BeaconUpgraded",
      "type": "event"
    },
    {
      "anonymous": false,
      "inputs": [
        {
          "indexed": false,
          "internalType": "uint256",
          "name": "tokenId",
          "type": "uint256"
        }
      ],
      "name": "Frozen",
      "type": "event"
    },
    {
      "anonymous": false,
      "inputs": [
        {
          "indexed": false,
          "internalType": "uint8",
          "name": "version",
          "type": "uint8"
        }
      ],
      "name": "Initialized",
      "type": "event"
    },
    {
      "anonymous": false,
      "inputs": [
        {
          "indexed": true,
          "internalType": "uint256",
          "name": "eventId",
          "type": "uint256"
        },
        {
          "indexed": false,
          "internalType": "uint256",
          "name": "tokenId",
          "type": "uint256"
        },
        {
          "indexed": false,
          "internalType": "address",
          "name": "owner",
          "type": "address"
        }
      ],
      "name": "Minted",
      "type": "event"
    },
    {
      "anonymous": false,
      "inputs": [
        {
          "indexed": true,
          "internalType": "address",
          "name": "previousOwner",
          "type": "address"
        },
        {
          "indexed": true,
          "internalType": "address",
          "name": "newOwner",
          "type": "address"
        }
      ],
      "name": "OwnershipTransferred",
      "type": "event"
    },
    {
      "anonymous": false,
      "inputs": [
        {
          "indexed": false,
          "internalType": "address",
          "name": "account",
          "type": "address"
        }
      ],
      "name": "Paused",
      "type": "event"
    },
    {
      "anonymous": false,
      "inputs": [
        {
          "indexed": true,
          "internalType": "uint256",
          "name": "tokenId",
          "type": "uint256"
        },
        {
          "indexed": false,
          "internalType": "uint64",
          "name": "expiration",
          "type": "uint64"
        }
      ],
      "name": "SubscriptionUpdate",
      "type": "event"
    },
    {
      "anonymous": false,
      "inputs": [
        {
          "indexed": true,
          "internalType": "address",
          "name": "from",
          "type": "address"
        },
        {
          "indexed": true,
          "internalType": "address",
          "name": "to",
          "type": "address"
        },
        {
          "indexed": true,
          "internalType": "uint256",
          "name": "tokenId",
          "type": "uint256"
        }
      ],
      "name": "Transfer",
      "type": "event"
    },
    {
      "anonymous": false,
      "inputs": [
        {
          "indexed": false,
          "internalType": "uint256",
          "name": "tokenId",
          "type": "uint256"
        }
      ],
      "name": "Unfrozen",
      "type": "event"
    },
    {
      "anonymous": false,
      "inputs": [
        {
          "indexed": false,
          "internalType": "address",
          "name": "account",
          "type": "address"
        }
      ],
      "name": "Unpaused",
      "type": "event"
    },
    {
      "anonymous": false,
      "inputs": [
        {
          "indexed": true,
          "internalType": "address",
          "name": "implementation",
          "type": "address"
        }
      ],
      "name": "Upgraded",
      "type": "event"
    },
    {
      "inputs": [
        {
          "internalType": "address",
          "name": "newAdmin",
          "type": "address"
        }
      ],
      "name": "addAdmin",
      "outputs": [],
      "stateMutability": "nonpayable",
      "type": "function"
    },
    {
      "inputs": [
        {
          "internalType": "address",
          "name": "to",
          "type": "address"
        },
        {
          "internalType": "uint256",
          "name": "tokenId",
          "type": "uint256"
        }
      ],
      "name": "approve",
      "outputs": [],
      "stateMutability": "nonpayable",
      "type": "function"
    },
    {
      "inputs": [
        {
          "internalType": "address",
          "name": "owner",
          "type": "address"
        }
      ],
      "name": "balanceOf",
      "outputs": [
        {
          "internalType": "uint256",
          "name": "",
          "type": "uint256"
        }
      ],
      "stateMutability": "view",
      "type": "function"
    },
    {
      "inputs": [
        {
          "internalType": "uint256",
          "name": "tokenId",
          "type": "uint256"
        }
      ],
      "name": "burn",
      "outputs": [],
      "stateMutability": "nonpayable",
      "type": "function"
    },
    {
      "inputs": [
        {
          "internalType": "uint256",
          "name": "tokenId",
          "type": "uint256"
        }
      ],
      "name": "cancelSubscription",
      "outputs": [],
      "stateMutability": "nonpayable",
      "type": "function"
    },
    {
      "inputs": [],
      "name": "contractURI",
      "outputs": [
        {
          "internalType": "string",
          "name": "",
          "type": "string"
        }
      ],
      "stateMutability": "view",
      "type": "function"
    },
    {
      "inputs": [
        {
          "internalType": "uint256",
          "name": "eventId",
          "type": "uint256"
        }
      ],
      "name": "eventURI",
      "outputs": [
        {
          "internalType": "string",
          "name": "",
          "type": "string"
        }
      ],
      "stateMutability": "view",
      "type": "function"
    },
    {
      "inputs": [
        {
          "internalType": "uint256",
          "name": "tokenId",
          "type": "uint256"
        }
      ],
      "name": "expireSubscription",
      "outputs": [],
      "stateMutability": "nonpayable",
      "type": "function"
    },
    {
      "inputs": [
        {
          "internalType": "uint256",
          "name": "tokenId",
          "type": "uint256"
        }
      ],
      "name": "expiresAt",
      "outputs": [
        {
          "internalType": "uint64",
          "name": "",
          "type": "uint64"
        }
      ],
      "stateMutability": "view",
      "type": "function"
    },
    {
      "inputs": [
        {
          "internalType": "uint256",
          "name": "tokenId",
          "type": "uint256"
        }
      ],
      "name": "freeze",
      "outputs": [],
      "stateMutability": "nonpayable",
      "type": "function"
    },
    {
      "inputs": [
        {
          "internalType": "uint256",
          "name": "tokenId",
          "type": "uint256"
        }
      ],
      "name": "getApproved",
      "outputs": [
        {
          "internalType": "address",
          "name": "",
          "type": "address"
        }
      ],
      "stateMutability": "view",
      "type": "function"
    },
    {
      "inputs": [],
      "name": "getTrustedForwarder",
      "outputs": [
        {
          "internalType": "address",
          "name": "forwarder",
          "type": "address"
        }
      ],
      "stateMutability": "view",
      "type": "function"
    },
    {
      "inputs": [
        {
          "internalType": "string",
          "name": "__name",
          "type": "string"
        },
        {
          "internalType": "string",
          "name": "__symbol",
          "type": "string"
        }
      ],
      "name": "initialize",
      "outputs": [],
      "stateMutability": "nonpayable",
      "type": "function"
    },
    {
      "inputs": [
        {
          "internalType": "address",
          "name": "admin",
          "type": "address"
        }
      ],
      "name": "isAdmin",
      "outputs": [
        {
          "internalType": "bool",
          "name": "",
          "type": "bool"
        }
      ],
      "stateMutability": "view",
      "type": "function"
    },
    {
      "inputs": [
        {
          "internalType": "address",
          "name": "_owner",
          "type": "address"
        },
        {
          "internalType": "address",
          "name": "_operator",
          "type": "address"
        }
      ],
      "name": "isApprovedForAll",
      "outputs": [
        {
          "internalType": "bool",
          "name": "isOperator",
          "type": "bool"
        }
      ],
      "stateMutability": "view",
      "type": "function"
    },
    {
      "inputs": [
        {
          "internalType": "uint256",
          "name": "tokenId",
          "type": "uint256"
        }
      ],
      "name": "isFrozen",
      "outputs": [
        {
          "internalType": "bool",
          "name": "",
          "type": "bool"
        }
      ],
      "stateMutability": "view",
      "type": "function"
    },
    {
      "inputs": [
        {
          "internalType": "uint256",
          "name": "tokenId",
          "type": "uint256"
        }
      ],
      "name": "isRenewable",
      "outputs": [
        {
          "internalType": "bool",
          "name": "",
          "type": "bool"
        }
      ],
      "stateMutability": "pure",
      "type": "function"
    },
    {
      "inputs": [
        {
          "internalType": "address",
          "name": "forwarder",
          "type": "address"
        }
      ],
      "name": "isTrustedForwarder",
      "outputs": [
        {
          "internalType": "bool",
          "name": "",
          "type": "bool"
        }
      ],
      "stateMutability": "view",
      "type": "function"
    },
    {
      "inputs": [],
      "name": "lastId",
      "outputs": [
        {
          "internalType": "uint256",
          "name": "",
          "type": "uint256"
        }
      ],
      "stateMutability": "view",
      "type": "function"
    },
    {
      "inputs": [
        {
          "internalType": "uint256",
          "name": "eventId",
          "type": "uint256"
        },
        {
          "internalType": "address[]",
          "name": "to",
          "type": "address[]"
        },
        {
          "internalType": "bool",
          "name": "frozen",
          "type": "bool"
        },
        {
          "internalType": "uint64",
          "name": "validDuration",
          "type": "uint64"
        }
      ],
      "name": "mintEventToManyUsers",
      "outputs": [
        {
          "internalType": "bool",
          "name": "",
          "type": "bool"
        }
      ],
      "stateMutability": "nonpayable",
      "type": "function"
    },
    {
      "inputs": [
        {
          "internalType": "uint256",
          "name": "eventId",
          "type": "uint256"
        },
        {
          "internalType": "address",
          "name": "to",
          "type": "address"
        },
        {
          "internalType": "bool",
          "name": "frozen",
          "type": "bool"
        },
        {
          "internalType": "uint64",
          "name": "validDuration",
          "type": "uint64"
        }
      ],
      "name": "mintToken",
      "outputs": [
        {
          "internalType": "bool",
          "name": "",
          "type": "bool"
        }
      ],
      "stateMutability": "nonpayable",
      "type": "function"
    },
    {
      "inputs": [
        {
          "internalType": "uint256[]",
          "name": "eventIds",
          "type": "uint256[]"
        },
        {
          "internalType": "address",
          "name": "to",
          "type": "address"
        },
        {
          "internalType": "bool",
          "name": "frozen",
          "type": "bool"
        },
        {
          "internalType": "uint64",
          "name": "validDuration",
          "type": "uint64"
        }
      ],
      "name": "mintUserToManyEvents",
      "outputs": [
        {
          "internalType": "bool",
          "name": "",
          "type": "bool"
        }
      ],
      "stateMutability": "nonpayable",
      "type": "function"
    },
    {
      "inputs": [],
      "name": "name",
      "outputs": [
        {
          "internalType": "string",
          "name": "",
          "type": "string"
        }
      ],
      "stateMutability": "view",
      "type": "function"
    },
    {
      "inputs": [],
      "name": "owner",
      "outputs": [
        {
          "internalType": "address",
          "name": "",
          "type": "address"
        }
      ],
      "stateMutability": "view",
      "type": "function"
    },
    {
      "inputs": [
        {
          "internalType": "uint256",
          "name": "tokenId",
          "type": "uint256"
        }
      ],
      "name": "ownerOf",
      "outputs": [
        {
          "internalType": "address",
          "name": "",
          "type": "address"
        }
      ],
      "stateMutability": "view",
      "type": "function"
    },
    {
      "inputs": [],
      "name": "pause",
      "outputs": [],
      "stateMutability": "nonpayable",
      "type": "function"
    },
    {
      "inputs": [],
      "name": "paused",
      "outputs": [
        {
          "internalType": "bool",
          "name": "",
          "type": "bool"
        }
      ],
      "stateMutability": "view",
      "type": "function"
    },
    {
      "inputs": [],
      "name": "proxiableUUID",
      "outputs": [
        {
          "internalType": "bytes32",
          "name": "",
          "type": "bytes32"
        }
      ],
      "stateMutability": "view",
      "type": "function"
    },
    {
      "inputs": [
        {
          "internalType": "uint256",
          "name": "tokenId",
          "type": "uint256"
        }
      ],
      "name": "reclaimToken",
      "outputs": [],
      "stateMutability": "nonpayable",
      "type": "function"
    },
    {
      "inputs": [
        {
          "internalType": "address",
          "name": "admin",
          "type": "address"
        }
      ],
      "name": "removeAdmin",
      "outputs": [],
      "stateMutability": "nonpayable",
      "type": "function"
    },
    {
      "inputs": [],
      "name": "removeDefaultRoyalty",
      "outputs": [],
      "stateMutability": "nonpayable",
      "type": "function"
    },
    {
      "inputs": [
        {
          "internalType": "uint256",
          "name": "eventId",
          "type": "uint256"
        }
      ],
      "name": "removeEventRoyalty",
      "outputs": [],
      "stateMutability": "nonpayable",
      "type": "function"
    },
    {
      "inputs": [
        {
          "internalType": "uint256",
          "name": "tokenId",
          "type": "uint256"
        },
        {
          "internalType": "uint64",
          "name": "duration",
          "type": "uint64"
        }
      ],
      "name": "renewSubscription",
      "outputs": [],
      "stateMutability": "nonpayable",
      "type": "function"
    },
    {
      "inputs": [],
      "name": "renounceOwnership",
      "outputs": [],
      "stateMutability": "nonpayable",
      "type": "function"
    },
    {
      "inputs": [
        {
          "internalType": "uint256",
          "name": "_tokenId",
          "type": "uint256"
        },
        {
          "internalType": "uint256",
          "name": "_salePrice",
          "type": "uint256"
        }
      ],
      "name": "royaltyInfo",
      "outputs": [
        {
          "internalType": "address",
          "name": "",
          "type": "address"
        },
        {
          "internalType": "uint256",
          "name": "",
          "type": "uint256"
        }
      ],
      "stateMutability": "view",
      "type": "function"
    },
    {
      "inputs": [
        {
          "internalType": "address",
          "name": "from",
          "type": "address"
        },
        {
          "internalType": "address",
          "name": "to",
          "type": "address"
        },
        {
          "internalType": "uint256",
          "name": "tokenId",
          "type": "uint256"
        }
      ],
      "name": "safeTransferFrom",
      "outputs": [],
      "stateMutability": "nonpayable",
      "type": "function"
    },
    {
      "inputs": [
        {
          "internalType": "address",
          "name": "from",
          "type": "address"
        },
        {
          "internalType": "address",
          "name": "to",
          "type": "address"
        },
        {
          "internalType": "uint256",
          "name": "tokenId",
          "type": "uint256"
        },
        {
          "internalType": "bytes",
          "name": "data",
          "type": "bytes"
        }
      ],
      "name": "safeTransferFrom",
      "outputs": [],
      "stateMutability": "nonpayable",
      "type": "function"
    },
    {
      "inputs": [
        {
          "internalType": "address",
          "name": "operator",
          "type": "address"
        },
        {
          "internalType": "bool",
          "name": "approved",
          "type": "bool"
        }
      ],
      "name": "setApprovalForAll",
      "outputs": [],
      "stateMutability": "nonpayable",
      "type": "function"
    },
    {
      "inputs": [
        {
          "internalType": "uint256",
          "name": "newLastId",
          "type": "uint256"
        }
      ],
      "name": "setLastId",
      "outputs": [],
      "stateMutability": "nonpayable",
      "type": "function"
    },
    {
      "inputs": [
        {
          "internalType": "address",
          "name": "forwarder",
          "type": "address"
        }
      ],
      "name": "setTurstedForwarder",
      "outputs": [],
      "stateMutability": "nonpayable",
      "type": "function"
    },
    {
      "inputs": [
        {
          "internalType": "bytes4",
          "name": "interfaceId",
          "type": "bytes4"
        }
      ],
      "name": "supportsInterface",
      "outputs": [
        {
          "internalType": "bool",
          "name": "",
          "type": "bool"
        }
      ],
      "stateMutability": "view",
      "type": "function"
    },
    {
      "inputs": [],
      "name": "symbol",
      "outputs": [
        {
          "internalType": "string",
          "name": "",
          "type": "string"
        }
      ],
      "stateMutability": "view",
      "type": "function"
    },
    {
      "inputs": [
        {
          "internalType": "uint256",
          "name": "index",
          "type": "uint256"
        }
      ],
      "name": "tokenByIndex",
      "outputs": [
        {
          "internalType": "uint256",
          "name": "",
          "type": "uint256"
        }
      ],
      "stateMutability": "view",
      "type": "function"
    },
    {
      "inputs": [
        {
          "internalType": "address",
          "name": "owner",
          "type": "address"
        },
        {
          "internalType": "uint256",
          "name": "index",
          "type": "uint256"
        }
      ],
      "name": "tokenDetailsOfOwnerByIndex",
      "outputs": [
        {
          "internalType": "uint256",
          "name": "tokenId",
          "type": "uint256"
        },
        {
          "internalType": "uint256",
          "name": "eventId",
          "type": "uint256"
        }
      ],
      "stateMutability": "view",
      "type": "function"
    },
    {
      "inputs": [
        {
          "internalType": "uint256",
          "name": "tokenId",
          "type": "uint256"
        }
      ],
      "name": "tokenEvent",
      "outputs": [
        {
          "internalType": "uint256",
          "name": "",
          "type": "uint256"
        }
      ],
      "stateMutability": "view",
      "type": "function"
    },
    {
      "inputs": [
        {
          "internalType": "address",
          "name": "owner",
          "type": "address"
        },
        {
          "internalType": "uint256",
          "name": "index",
          "type": "uint256"
        }
      ],
      "name": "tokenOfOwnerByIndex",
      "outputs": [
        {
          "internalType": "uint256",
          "name": "",
          "type": "uint256"
        }
      ],
      "stateMutability": "view",
      "type": "function"
    },
    {
      "inputs": [
        {
          "internalType": "uint256",
          "name": "tokenId",
          "type": "uint256"
        }
      ],
      "name": "tokenURI",
      "outputs": [
        {
          "internalType": "string",
          "name": "",
          "type": "string"
        }
      ],
      "stateMutability": "view",
      "type": "function"
    },
    {
      "inputs": [],
      "name": "totalSupply",
      "outputs": [
        {
          "internalType": "uint256",
          "name": "",
          "type": "uint256"
        }
      ],
      "stateMutability": "view",
      "type": "function"
    },
    {
      "inputs": [
        {
          "internalType": "address",
          "name": "from",
          "type": "address"
        },
        {
          "internalType": "address",
          "name": "to",
          "type": "address"
        },
        {
          "internalType": "uint256",
          "name": "tokenId",
          "type": "uint256"
        }
      ],
      "name": "transferFrom",
      "outputs": [],
      "stateMutability": "nonpayable",
      "type": "function"
    },
    {
      "inputs": [
        {
          "internalType": "address",
          "name": "newOwner",
          "type": "address"
        }
      ],
      "name": "transferOwnership",
      "outputs": [],
      "stateMutability": "nonpayable",
      "type": "function"
    },
    {
      "inputs": [
        {
          "internalType": "uint256",
          "name": "tokenId",
          "type": "uint256"
        }
      ],
      "name": "unfreeze",
      "outputs": [],
      "stateMutability": "nonpayable",
      "type": "function"
    },
    {
      "inputs": [],
      "name": "unpause",
      "outputs": [],
      "stateMutability": "nonpayable",
      "type": "function"
    },
    {
      "inputs": [
        {
          "internalType": "string",
          "name": "__contractURI",
          "type": "string"
        }
      ],
      "name": "updateContractURI",
      "outputs": [],
      "stateMutability": "nonpayable",
      "type": "function"
    },
    {
      "inputs": [
        {
          "internalType": "address",
          "name": "receiver",
          "type": "address"
        },
        {
          "internalType": "uint96",
          "name": "feeNumerator",
          "type": "uint96"
        }
      ],
      "name": "updateDefaultRoyalty",
      "outputs": [],
      "stateMutability": "nonpayable",
      "type": "function"
    },
    {
      "inputs": [
        {
          "internalType": "uint256",
          "name": "eventId",
          "type": "uint256"
        },
        {
          "internalType": "address",
          "name": "receiver",
          "type": "address"
        },
        {
          "internalType": "uint96",
          "name": "feeNumerator",
          "type": "uint96"
        }
      ],
      "name": "updateEventRoyalty",
      "outputs": [],
      "stateMutability": "nonpayable",
      "type": "function"
    },
    {
      "inputs": [
        {
          "internalType": "address",
          "name": "newImplementation",
          "type": "address"
        }
      ],
      "name": "upgradeTo",
      "outputs": [],
      "stateMutability": "nonpayable",
      "type": "function"
    },
    {
      "inputs": [
        {
          "internalType": "address",
          "name": "newImplementation",
          "type": "address"
        },
        {
          "internalType": "bytes",
          "name": "data",
          "type": "bytes"
        }
      ],
      "name": "upgradeToAndCall",
      "outputs": [],
      "stateMutability": "payable",
      "type": "function"
    }
  ],
  "bytecode": "0x60a0604052306080523480156200001557600080fd5b506200002062000026565b620000e8565b600054610100900460ff1615620000935760405162461bcd60e51b815260206004820152602760248201527f496e697469616c697a61626c653a20636f6e747261637420697320696e697469604482015266616c697a696e6760c81b606482015260840160405180910390fd5b60005460ff9081161015620000e6576000805460ff191660ff9081179091556040519081527f7f26b83ff96e1f2b6a682f133852f6798a09c465da95921460cefb38474024989060200160405180910390a15b565b608051615f5a620001206000396000818161157e0152818161161401528181611c9701528181611d2d01526120080152615f5a6000f3fe6080604052600436106103765760003560e01c80636352211e116101d1578063a089479911610102578063cde317af116100a0578063d7a78db81161006f578063d7a78db814610ac4578063e8a3d48514610ae4578063e985e9c514610af9578063f2fde38b14610b1957600080fd5b8063cde317af14610a37578063ce1b815f14610a58578063cea0302e14610a84578063d691e43c14610aa457600080fd5b8063b88d4fde116100dc578063b88d4fde146109c0578063bceb2f84146109e0578063c1292cc314610a00578063c87b56dd14610a1757600080fd5b8063a08947991461094f578063a0fd0c6a14610980578063a22cb465146109a057600080fd5b806378fa06541161016f5780638da5cb5b116101495780638da5cb5b146108d95780638e45d62e1461090557806395d89b411461092557806397ec4fba1461093a57600080fd5b806378fa0654146108845780637e5b1e24146108a45780638456cb59146108c457600080fd5b806370480275116101ab578063704802751461080f57806370a082311461082f578063715018a61461084f578063776ce8681461086457600080fd5b80636352211e1461079a5780636623fc46146107ba57806367e971ce146107da57600080fd5b80632f745c59116102ab5780634f1ef2861161024957806352d1902d1161022357806352d1902d14610710578063572b6c05146107255780635c975abb146107625780635f330b411461077a57600080fd5b80634f1ef286146106bd5780634f6ccce7146106d0578063508061a2146106f057600080fd5b806342842e0e1161028557806342842e0e1461063d57806342966c681461065d578063493a75761461067d5780634cd88b761461069d57600080fd5b80632f745c59146105e85780633659cfe6146106085780633f4ba83a1461062857600080fd5b806317c957091161031857806321235083116102f2578063212350831461051557806323b872dd1461053557806324d7806c146105555780632a55205a1461059c57600080fd5b806317c95709146104a757806318160ddd146104e05780631a27e85f146104f557600080fd5b8063095ea7b311610354578063095ea7b314610417578063099bff1214610439578063127a5298146104595780631785f53c1461048757600080fd5b806301ffc9a71461037b57806306fdde03146103b0578063081812fc146103d2575b600080fd5b34801561038757600080fd5b5061039b61039636600461540b565b610b39565b60405190151581526020015b60405180910390f35b3480156103bc57600080fd5b506103c5610be1565b6040516103a7919061549e565b3480156103de57600080fd5b506103f26103ed3660046154b1565b610c73565b60405173ffffffffffffffffffffffffffffffffffffffff90911681526020016103a7565b34801561042357600080fd5b506104376104323660046154f3565b610ca7565b005b34801561044557600080fd5b5061039b6104543660046155f0565b610e24565b34801561046557600080fd5b506104796104743660046154b1565b610f64565b6040519081526020016103a7565b34801561049357600080fd5b506104376104a23660046156b9565b610f83565b3480156104b357600080fd5b506104c76104c23660046154b1565b6110bf565b60405167ffffffffffffffff90911681526020016103a7565b3480156104ec57600080fd5b50609954610479565b34801561050157600080fd5b506104376105103660046154b1565b6110e8565b34801561052157600080fd5b506104376105303660046154b1565b6111fa565b34801561054157600080fd5b506104376105503660046156d4565b611318565b34801561056157600080fd5b5061039b6105703660046156b9565b73ffffffffffffffffffffffffffffffffffffffff1660009081526101cb602052604090205460ff1690565b3480156105a857600080fd5b506105bc6105b7366004615710565b6113a6565b6040805173ffffffffffffffffffffffffffffffffffffffff90931683526020830191909152016103a7565b3480156105f457600080fd5b506104796106033660046154f3565b6114b1565b34801561061457600080fd5b506104376106233660046156b9565b611566565b34801561063457600080fd5b50610437611738565b34801561064957600080fd5b506104376106583660046156d4565b6117f4565b34801561066957600080fd5b506104376106783660046154b1565b61180f565b34801561068957600080fd5b506104376106983660046154b1565b611895565b3480156106a957600080fd5b506104376106b83660046157c0565b611a33565b6104376106cb366004615824565b611c7f565b3480156106dc57600080fd5b506104796106eb3660046154b1565b611e42565b3480156106fc57600080fd5b5061043761070b3660046154b1565b611ee6565b34801561071c57600080fd5b50610479611fee565b34801561073157600080fd5b5061039b6107403660046156b9565b6101c35473ffffffffffffffffffffffffffffffffffffffff91821691161490565b34801561076e57600080fd5b5060fb5460ff1661039b565b34801561078657600080fd5b506104376107953660046154b1565b6120c0565b3480156107a657600080fd5b506103f26107b53660046154b1565b612184565b3480156107c657600080fd5b506104376107d53660046154b1565b6121f6565b3480156107e657600080fd5b506107fa6107f53660046154f3565b61237e565b604080519283526020830191909152016103a7565b34801561081b57600080fd5b5061043761082a3660046156b9565b61239f565b34801561083b57600080fd5b5061047961084a3660046156b9565b6124b6565b34801561085b57600080fd5b5061043761256a565b34801561087057600080fd5b5061043761087f366004615868565b61257c565b34801561089057600080fd5b5061043761089f3660046158a7565b612641565b3480156108b057600080fd5b506104376108bf3660046158e3565b6126fe565b3480156108d057600080fd5b506104376127c4565b3480156108e557600080fd5b5061012d5473ffffffffffffffffffffffffffffffffffffffff166103f2565b34801561091157600080fd5b5061039b610920366004615918565b61287e565b34801561093157600080fd5b506103c561296e565b34801561094657600080fd5b5061043761297d565b34801561095b57600080fd5b5061039b61096a3660046154b1565b60009081526101c7602052604090205460ff1690565b34801561098c57600080fd5b506103c561099b3660046154b1565b612a3a565b3480156109ac57600080fd5b506104376109bb36600461594e565b612a6f565b3480156109cc57600080fd5b506104376109db366004615985565b612a81565b3480156109ec57600080fd5b5061039b6109fb3660046159ed565b612b16565b348015610a0c57600080fd5b506104796101c55481565b348015610a2357600080fd5b506103c5610a323660046154b1565b612c44565b348015610a4357600080fd5b5061039b610a523660046154b1565b50600190565b348015610a6457600080fd5b506101c35473ffffffffffffffffffffffffffffffffffffffff166103f2565b348015610a9057600080fd5b50610437610a9f3660046156b9565b612c95565b348015610ab057600080fd5b50610437610abf366004615a99565b612d8b565b348015610ad057600080fd5b50610437610adf3660046154b1565b612e47565b348015610af057600080fd5b506103c5612fd2565b348015610b0557600080fd5b5061039b610b14366004615ac3565b613061565b348015610b2557600080fd5b50610437610b343660046156b9565b6130d6565b60007fffffffff0000000000000000000000000000000000000000000000000000000082167f8c65f84d000000000000000000000000000000000000000000000000000000001480610bcc57507fffffffff0000000000000000000000000000000000000000000000000000000082167f2a55205a00000000000000000000000000000000000000000000000000000000145b80610bdb5750610bdb82613170565b92915050565b606060658054610bf090615aed565b80601f0160208091040260200160405190810160405280929190818152602001828054610c1c90615aed565b8015610c695780601f10610c3e57610100808354040283529160200191610c69565b820191906000526020600020905b815481529060010190602001808311610c4c57829003601f168201915b5050505050905090565b6000610c7e826131c6565b5060009081526069602052604090205473ffffffffffffffffffffffffffffffffffffffff1690565b6000610cb282612184565b90508073ffffffffffffffffffffffffffffffffffffffff168373ffffffffffffffffffffffffffffffffffffffff161415610d5b5760405162461bcd60e51b815260206004820152602160248201527f4552433732313a20617070726f76616c20746f2063757272656e74206f776e6560448201527f720000000000000000000000000000000000000000000000000000000000000060648201526084015b60405180910390fd5b8073ffffffffffffffffffffffffffffffffffffffff16610d7a613237565b73ffffffffffffffffffffffffffffffffffffffff161480610da35750610da381610b14613237565b610e155760405162461bcd60e51b815260206004820152603e60248201527f4552433732313a20617070726f76652063616c6c6572206973206e6f7420746f60448201527f6b656e206f776e6572206e6f7220617070726f76656420666f7220616c6c00006064820152608401610d52565b610e1f8383613246565b505050565b6000610e2e6132e6565b610e36613237565b73ffffffffffffffffffffffffffffffffffffffff16610e6c61012d5473ffffffffffffffffffffffffffffffffffffffff1690565b73ffffffffffffffffffffffffffffffffffffffff161480610e945750610e94610570613237565b610ee05760405162461bcd60e51b815260206004820152601c60248201527f63616c6c6572206973206e6f74206f776e6572206f722061646d696e000000006044820152606401610d52565b60005b8551811015610f3d57610f2c868281518110610f0157610f01615b41565b6020026020010151826101c5546001610f1a9190615b9f565b610f249190615b9f565b878787613339565b50610f3681615bb7565b9050610ee3565b5084516101c56000828254610f529190615b9f565b9091555060019150505b949350505050565b6000610f6f826131c6565b5060009081526101c6602052604090205490565b610f8b613237565b73ffffffffffffffffffffffffffffffffffffffff16610fc161012d5473ffffffffffffffffffffffffffffffffffffffff1690565b73ffffffffffffffffffffffffffffffffffffffff161480610fe95750610fe9610570613237565b6110355760405162461bcd60e51b815260206004820152601c60248201527f63616c6c6572206973206e6f74206f776e6572206f722061646d696e000000006044820152606401610d52565b73ffffffffffffffffffffffffffffffffffffffff811660008181526101cb6020908152604080832080547fffffffffffffffffffffffffffffffffffffffffffffffffffffffffffffff001690558051938452908301919091527f235bc17e7930760029e9f4d860a2a8089976de5b381cf8380fc11c1d88a1113391015b60405180910390a150565b60006110ca826131c6565b5060009081526101ca602052604090205467ffffffffffffffff1690565b6110f0613237565b73ffffffffffffffffffffffffffffffffffffffff1661112661012d5473ffffffffffffffffffffffffffffffffffffffff1690565b73ffffffffffffffffffffffffffffffffffffffff16148061114e575061114e610570613237565b61119a5760405162461bcd60e51b815260206004820152601c60248201527f63616c6c6572206973206e6f74206f776e6572206f722061646d696e000000006044820152606401610d52565b6111a26132e6565b806101c554106111f45760405162461bcd60e51b815260206004820152601760248201527f4e65772049642068617320746f206265206869676865720000000000000000006044820152606401610d52565b6101c555565b611202613237565b73ffffffffffffffffffffffffffffffffffffffff1661123861012d5473ffffffffffffffffffffffffffffffffffffffff1690565b73ffffffffffffffffffffffffffffffffffffffff1614806112605750611260610570613237565b6112ac5760405162461bcd60e51b815260206004820152601c60248201527f63616c6c6572206973206e6f74206f776e6572206f722061646d696e000000006044820152606401610d52565b60008181526101ca6020908152604080832080547fffffffffffffffffffffffffffffffffffffffffffffffff00000000000000001690555191825282917f2ec2be2c4b90c2cf13ecb6751a24daed6bb741ae5ed3f7371aabf9402f6d62e8910160405180910390a250565b611329611323613237565b826133e7565b61139b5760405162461bcd60e51b815260206004820152602e60248201527f4552433732313a2063616c6c6572206973206e6f7420746f6b656e206f776e6560448201527f72206e6f7220617070726f7665640000000000000000000000000000000000006064820152608401610d52565b610e1f838383613479565b60008060006113b485610f64565b60008181526101c9602090815260409182902082518084019093525473ffffffffffffffffffffffffffffffffffffffff8116808452740100000000000000000000000000000000000000009091046bffffffffffffffffffffffff1691830191909152919250906114745750604080518082019091526101c85473ffffffffffffffffffffffffffffffffffffffff811682527401000000000000000000000000000000000000000090046bffffffffffffffffffffffff1660208201525b602081015160009061271090611498906bffffffffffffffffffffffff1688615bf0565b6114a29190615c5c565b91519791965090945050505050565b60006114bc836124b6565b82106115305760405162461bcd60e51b815260206004820152602b60248201527f455243373231456e756d657261626c653a206f776e657220696e646578206f7560448201527f74206f6620626f756e64730000000000000000000000000000000000000000006064820152608401610d52565b5073ffffffffffffffffffffffffffffffffffffffff919091166000908152609760209081526040808320938352929052205490565b3073ffffffffffffffffffffffffffffffffffffffff7f00000000000000000000000000000000000000000000000000000000000000001614156116125760405162461bcd60e51b815260206004820152602c60248201527f46756e6374696f6e206d7573742062652063616c6c6564207468726f7567682060448201527f64656c656761746563616c6c00000000000000000000000000000000000000006064820152608401610d52565b7f000000000000000000000000000000000000000000000000000000000000000073ffffffffffffffffffffffffffffffffffffffff166116877f360894a13ba1a3210667c828492db98dca3e2076cc3735a920a3ca505d382bbc5473ffffffffffffffffffffffffffffffffffffffff1690565b73ffffffffffffffffffffffffffffffffffffffff16146117105760405162461bcd60e51b815260206004820152602c60248201527f46756e6374696f6e206d7573742062652063616c6c6564207468726f7567682060448201527f6163746976652070726f787900000000000000000000000000000000000000006064820152608401610d52565b611719816136b7565b6040805160008082526020820190925261173591839190613769565b50565b611740613237565b73ffffffffffffffffffffffffffffffffffffffff1661177661012d5473ffffffffffffffffffffffffffffffffffffffff1690565b73ffffffffffffffffffffffffffffffffffffffff16148061179e575061179e610570613237565b6117ea5760405162461bcd60e51b815260206004820152601c60248201527f63616c6c6572206973206e6f74206f776e6572206f722061646d696e000000006044820152606401610d52565b6117f2613934565b565b610e1f83838360405180602001604052806000815250612a81565b61181a611323613237565b61188c5760405162461bcd60e51b815260206004820152602e60248201527f4552433732313a2063616c6c6572206973206e6f7420746f6b656e206f776e6560448201527f72206e6f7220617070726f7665640000000000000000000000000000000000006064820152608401610d52565b611735816139b7565b61189d613237565b73ffffffffffffffffffffffffffffffffffffffff166118d361012d5473ffffffffffffffffffffffffffffffffffffffff1690565b73ffffffffffffffffffffffffffffffffffffffff1614806118fb57506118fb610570613237565b6119475760405162461bcd60e51b815260206004820152601c60248201527f63616c6c6572206973206e6f74206f776e6572206f722061646d696e000000006044820152606401610d52565b60008181526101ca6020526040902054429067ffffffffffffffff808316911610156119b55760405162461bcd60e51b815260206004820152601f60248201527f546f6b656e2063616e6e6f7420616c72656164792062652065787069726564006044820152606401610d52565b60008281526101ca602090815260409182902080547fffffffffffffffffffffffffffffffffffffffffffffffff00000000000000001667ffffffffffffffff8516908117909155915191825283917f2ec2be2c4b90c2cf13ecb6751a24daed6bb741ae5ed3f7371aabf9402f6d62e8910160405180910390a25050565b600054610100900460ff1615808015611a535750600054600160ff909116105b80611a6d5750303b158015611a6d575060005460ff166001145b611adf5760405162461bcd60e51b815260206004820152602e60248201527f496e697469616c697a61626c653a20636f6e747261637420697320616c72656160448201527f647920696e697469616c697a65640000000000000000000000000000000000006064820152608401610d52565b600080547fffffffffffffffffffffffffffffffffffffffffffffffffffffffffffffff001660011790558015611b3d57600080547fffffffffffffffffffffffffffffffffffffffffffffffffffffffffffff00ff166101001790555b611b478383613a33565b611b4f613aba565b611b57613b37565b611b5f613bbc565b611b67613aba565b611b6f613aba565b739367ee417ae552cb94f3249d0424000747877aa860008190526101cb60209081527f74b1fd68002674778377a91442d1bc428836f03e7f6339c753d29446074fc12880547fffffffffffffffffffffffffffffffffffffffffffffffffffffffffffffff0016600190811790915560408051848152928301919091527f235bc17e7930760029e9f4d860a2a8089976de5b381cf8380fc11c1d88a11133910160405180910390a1508015610e1f57600080547fffffffffffffffffffffffffffffffffffffffffffffffffffffffffffff00ff169055604051600181527f7f26b83ff96e1f2b6a682f133852f6798a09c465da95921460cefb38474024989060200160405180910390a1505050565b3073ffffffffffffffffffffffffffffffffffffffff7f0000000000000000000000000000000000000000000000000000000000000000161415611d2b5760405162461bcd60e51b815260206004820152602c60248201527f46756e6374696f6e206d7573742062652063616c6c6564207468726f7567682060448201527f64656c656761746563616c6c00000000000000000000000000000000000000006064820152608401610d52565b7f000000000000000000000000000000000000000000000000000000000000000073ffffffffffffffffffffffffffffffffffffffff16611da07f360894a13ba1a3210667c828492db98dca3e2076cc3735a920a3ca505d382bbc5473ffffffffffffffffffffffffffffffffffffffff1690565b73ffffffffffffffffffffffffffffffffffffffff1614611e295760405162461bcd60e51b815260206004820152602c60248201527f46756e6374696f6e206d7573742062652063616c6c6564207468726f7567682060448201527f6163746976652070726f787900000000000000000000000000000000000000006064820152608401610d52565b611e32826136b7565b611e3e82826001613769565b5050565b6000611e4d60995490565b8210611ec15760405162461bcd60e51b815260206004820152602c60248201527f455243373231456e756d657261626c653a20676c6f62616c20696e646578206f60448201527f7574206f6620626f756e647300000000000000000000000000000000000000006064820152608401610d52565b60998281548110611ed457611ed4615b41565b90600052602060002001549050919050565b611eee613237565b73ffffffffffffffffffffffffffffffffffffffff16611f2461012d5473ffffffffffffffffffffffffffffffffffffffff1690565b73ffffffffffffffffffffffffffffffffffffffff161480611f4c5750611f4c610570613237565b611f985760405162461bcd60e51b815260206004820152601c60248201527f63616c6c6572206973206e6f74206f776e6572206f722061646d696e000000006044820152606401610d52565b611fa1816131c6565b60008181526101c7602052604090205460ff1615611fc257611fc281613c41565b611735611fce82612184565b61012d5473ffffffffffffffffffffffffffffffffffffffff1683613479565b60003073ffffffffffffffffffffffffffffffffffffffff7f0000000000000000000000000000000000000000000000000000000000000000161461209b5760405162461bcd60e51b815260206004820152603860248201527f555550535570677261646561626c653a206d757374206e6f742062652063616c60448201527f6c6564207468726f7567682064656c656761746563616c6c00000000000000006064820152608401610d52565b507f360894a13ba1a3210667c828492db98dca3e2076cc3735a920a3ca505d382bbc90565b6120c8613237565b73ffffffffffffffffffffffffffffffffffffffff166120fe61012d5473ffffffffffffffffffffffffffffffffffffffff1690565b73ffffffffffffffffffffffffffffffffffffffff1614806121265750612126610570613237565b6121725760405162461bcd60e51b815260206004820152601c60248201527f63616c6c6572206973206e6f74206f776e6572206f722061646d696e000000006044820152606401610d52565b60009081526101c96020526040812055565b60008181526067602052604081205473ffffffffffffffffffffffffffffffffffffffff1680610bdb5760405162461bcd60e51b815260206004820152601860248201527f4552433732313a20696e76616c696420746f6b656e20494400000000000000006044820152606401610d52565b6121fe613237565b73ffffffffffffffffffffffffffffffffffffffff1661223461012d5473ffffffffffffffffffffffffffffffffffffffff1690565b73ffffffffffffffffffffffffffffffffffffffff16148061225c575061225c610570613237565b6122a85760405162461bcd60e51b815260206004820152601c60248201527f63616c6c6572206973206e6f74206f776e6572206f722061646d696e000000006044820152606401610d52565b6122b06132e6565b6040517fa089479900000000000000000000000000000000000000000000000000000000815260048101829052309063a089479990602401602060405180830381865afa158015612305573d6000803e3d6000fd5b505050506040513d601f19601f820116820180604052508101906123299190615c70565b6123755760405162461bcd60e51b815260206004820152601360248201527f546f6b656e206973206e6f742066726f7a656e000000000000000000000000006044820152606401610d52565b61173581613c41565b60008061238b84846114b1565b915061239682610f64565b90509250929050565b6123a7613ca8565b73ffffffffffffffffffffffffffffffffffffffff811661242f5760405162461bcd60e51b8152602060048201526024808201527f4e65772061646d696e2063616e6e6f7420626520746865207a65726f2061646460448201527f72657373000000000000000000000000000000000000000000000000000000006064820152608401610d52565b73ffffffffffffffffffffffffffffffffffffffff811660008181526101cb602090815260409182902080547fffffffffffffffffffffffffffffffffffffffffffffffffffffffffffffff001660019081179091558251938452908301527f235bc17e7930760029e9f4d860a2a8089976de5b381cf8380fc11c1d88a1113391016110b4565b600073ffffffffffffffffffffffffffffffffffffffff82166125415760405162461bcd60e51b815260206004820152602960248201527f4552433732313a2061646472657373207a65726f206973206e6f74206120766160448201527f6c6964206f776e657200000000000000000000000000000000000000000000006064820152608401610d52565b5073ffffffffffffffffffffffffffffffffffffffff1660009081526068602052604090205490565b612572613ca8565b6117f26000613d49565b612584613237565b73ffffffffffffffffffffffffffffffffffffffff166125ba61012d5473ffffffffffffffffffffffffffffffffffffffff1690565b73ffffffffffffffffffffffffffffffffffffffff1614806125e257506125e2610570613237565b61262e5760405162461bcd60e51b815260206004820152601c60248201527f63616c6c6572206973206e6f74206f776e6572206f722061646d696e000000006044820152606401610d52565b612637826131c6565b611e3e8282613dc1565b612649613237565b73ffffffffffffffffffffffffffffffffffffffff1661267f61012d5473ffffffffffffffffffffffffffffffffffffffff1690565b73ffffffffffffffffffffffffffffffffffffffff1614806126a757506126a7610570613237565b6126f35760405162461bcd60e51b815260206004820152601c60248201527f63616c6c6572206973206e6f74206f776e6572206f722061646d696e000000006044820152606401610d52565b610e1f838383613e7f565b612706613237565b73ffffffffffffffffffffffffffffffffffffffff1661273c61012d5473ffffffffffffffffffffffffffffffffffffffff1690565b73ffffffffffffffffffffffffffffffffffffffff1614806127645750612764610570613237565b6127b05760405162461bcd60e51b815260206004820152601c60248201527f63616c6c6572206973206e6f74206f776e6572206f722061646d696e000000006044820152606401610d52565b8051611e3e906101c4906020840190615344565b6127cc613237565b73ffffffffffffffffffffffffffffffffffffffff1661280261012d5473ffffffffffffffffffffffffffffffffffffffff1690565b73ffffffffffffffffffffffffffffffffffffffff16148061282a575061282a610570613237565b6128765760405162461bcd60e51b815260206004820152601c60248201527f63616c6c6572206973206e6f74206f776e6572206f722061646d696e000000006044820152606401610d52565b6117f2613fd6565b60006128886132e6565b612890613237565b73ffffffffffffffffffffffffffffffffffffffff166128c661012d5473ffffffffffffffffffffffffffffffffffffffff1690565b73ffffffffffffffffffffffffffffffffffffffff1614806128ee57506128ee610570613237565b61293a5760405162461bcd60e51b815260206004820152601c60248201527f63616c6c6572206973206e6f74206f776e6572206f722061646d696e000000006044820152606401610d52565b60016101c5600082825461294e9190615b9f565b92505081905550612965856101c554868686613339565b95945050505050565b606060668054610bf090615aed565b612985613237565b73ffffffffffffffffffffffffffffffffffffffff166129bb61012d5473ffffffffffffffffffffffffffffffffffffffff1690565b73ffffffffffffffffffffffffffffffffffffffff1614806129e357506129e3610570613237565b612a2f5760405162461bcd60e51b815260206004820152601c60248201527f63616c6c6572206973206e6f74206f776e6572206f722061646d696e000000006044820152606401610d52565b6117f260006101c855565b60606101c4612a4883614032565b604051602001612a59929190615d5e565b6040516020818303038152906040529050919050565b611e3e612a7a613237565b8383614164565b612a92612a8c613237565b836133e7565b612b045760405162461bcd60e51b815260206004820152602e60248201527f4552433732313a2063616c6c6572206973206e6f7420746f6b656e206f776e6560448201527f72206e6f7220617070726f7665640000000000000000000000000000000000006064820152608401610d52565b612b1084848484614278565b50505050565b6000612b206132e6565b612b28613237565b73ffffffffffffffffffffffffffffffffffffffff16612b5e61012d5473ffffffffffffffffffffffffffffffffffffffff1690565b73ffffffffffffffffffffffffffffffffffffffff161480612b865750612b86610570613237565b612bd25760405162461bcd60e51b815260206004820152601c60248201527f63616c6c6572206973206e6f74206f776e6572206f722061646d696e000000006044820152606401610d52565b60005b8451811015612c2f57612c1e86826101c5546001612bf39190615b9f565b612bfd9190615b9f565b878481518110612c0f57612c0f615b41565b60200260200101518787613339565b50612c2881615bb7565b9050612bd5565b5083516101c56000828254610f529190615b9f565b60008181526101c660205260409020546060906101c4612c6382614032565b612c6c85614032565b604051602001612c7e93929190615d83565b604051602081830303815290604052915050919050565b612c9d613237565b73ffffffffffffffffffffffffffffffffffffffff16612cd361012d5473ffffffffffffffffffffffffffffffffffffffff1690565b73ffffffffffffffffffffffffffffffffffffffff161480612cfb5750612cfb610570613237565b612d475760405162461bcd60e51b815260206004820152601c60248201527f63616c6c6572206973206e6f74206f776e6572206f722061646d696e000000006044820152606401610d52565b6101c380547fffffffffffffffffffffffff00000000000000000000000000000000000000001673ffffffffffffffffffffffffffffffffffffffff831617905550565b612d93613237565b73ffffffffffffffffffffffffffffffffffffffff16612dc961012d5473ffffffffffffffffffffffffffffffffffffffff1690565b73ffffffffffffffffffffffffffffffffffffffff161480612df15750612df1610570613237565b612e3d5760405162461bcd60e51b815260206004820152601c60248201527f63616c6c6572206973206e6f74206f776e6572206f722061646d696e000000006044820152606401610d52565b611e3e8282614301565b612e4f613237565b73ffffffffffffffffffffffffffffffffffffffff16612e8561012d5473ffffffffffffffffffffffffffffffffffffffff1690565b73ffffffffffffffffffffffffffffffffffffffff161480612ead5750612ead610570613237565b612ef95760405162461bcd60e51b815260206004820152601c60248201527f63616c6c6572206973206e6f74206f776e6572206f722061646d696e000000006044820152606401610d52565b612f016132e6565b6040517fa0894799000000000000000000000000000000000000000000000000000000008152600481018290528190309063a089479990602401602060405180830381865afa158015612f58573d6000803e3d6000fd5b505050506040513d601f19601f82011682018060405250810190612f7c9190615c70565b15612fc95760405162461bcd60e51b815260206004820152600f60248201527f546f6b656e2069732066726f7a656e00000000000000000000000000000000006044820152606401610d52565b611e3e82614447565b6101c48054612fe090615aed565b80601f016020809104026020016040519081016040528092919081815260200182805461300c90615aed565b80156130595780601f1061302e57610100808354040283529160200191613059565b820191906000526020600020905b81548152906001019060200180831161303c57829003601f168201915b505050505081565b600073ffffffffffffffffffffffffffffffffffffffff82166e6c3852cbef3e08e8df289169ede581141561309857506001610bdb565b73ffffffffffffffffffffffffffffffffffffffff8084166000908152606a602090815260408083209386168352929052205460ff165b9392505050565b6130de613ca8565b73ffffffffffffffffffffffffffffffffffffffff81166131675760405162461bcd60e51b815260206004820152602660248201527f4f776e61626c653a206e6577206f776e657220697320746865207a65726f206160448201527f64647265737300000000000000000000000000000000000000000000000000006064820152608401610d52565b61173581613d49565b60007fffffffff0000000000000000000000000000000000000000000000000000000082167f780e9d63000000000000000000000000000000000000000000000000000000001480610bdb5750610bdb826144b1565b60008181526067602052604090205473ffffffffffffffffffffffffffffffffffffffff166117355760405162461bcd60e51b815260206004820152601860248201527f4552433732313a20696e76616c696420746f6b656e20494400000000000000006044820152606401610d52565b6000613241614594565b905090565b600081815260696020526040902080547fffffffffffffffffffffffff00000000000000000000000000000000000000001673ffffffffffffffffffffffffffffffffffffffff841690811790915581906132a082612184565b73ffffffffffffffffffffffffffffffffffffffff167f8c5be1e5ebec7d5bd14f71427d1e84f3dd0314c0f7b2291e5b200ac8c7c3b92560405160405180910390a45050565b60fb5460ff16156117f25760405162461bcd60e51b815260206004820152601060248201527f5061757361626c653a20706175736564000000000000000000000000000000006044820152606401610d52565b600061334584866145f4565b60008581526101c66020526040908190208790555186907f259eb7b480b3d449f506927269e4665c83c69e4cd797143eaa8f84632dc7a02b906133aa908890889091825273ffffffffffffffffffffffffffffffffffffffff16602082015260400190565b60405180910390a282156133c1576133c185612e47565b67ffffffffffffffff8216156133db576133db8583613dc1565b50600195945050505050565b6000806133f383612184565b90508073ffffffffffffffffffffffffffffffffffffffff168473ffffffffffffffffffffffffffffffffffffffff16148061343457506134348185613061565b80610f5c57508373ffffffffffffffffffffffffffffffffffffffff1661345a84610c73565b73ffffffffffffffffffffffffffffffffffffffff1614949350505050565b8273ffffffffffffffffffffffffffffffffffffffff1661349982612184565b73ffffffffffffffffffffffffffffffffffffffff16146135225760405162461bcd60e51b815260206004820152602560248201527f4552433732313a207472616e736665722066726f6d20696e636f72726563742060448201527f6f776e65720000000000000000000000000000000000000000000000000000006064820152608401610d52565b73ffffffffffffffffffffffffffffffffffffffff82166135aa5760405162461bcd60e51b8152602060048201526024808201527f4552433732313a207472616e7366657220746f20746865207a65726f2061646460448201527f72657373000000000000000000000000000000000000000000000000000000006064820152608401610d52565b6135b583838361460e565b6135c0600082613246565b73ffffffffffffffffffffffffffffffffffffffff831660009081526068602052604081208054600192906135f6908490615de5565b909155505073ffffffffffffffffffffffffffffffffffffffff82166000908152606860205260408120805460019290613631908490615b9f565b909155505060008181526067602052604080822080547fffffffffffffffffffffffff00000000000000000000000000000000000000001673ffffffffffffffffffffffffffffffffffffffff86811691821790925591518493918716917fddf252ad1be2c89b69c2b068fc378daa952ba7f163c4a11628f55a4df523b3ef91a4505050565b6136bf613237565b73ffffffffffffffffffffffffffffffffffffffff166136f561012d5473ffffffffffffffffffffffffffffffffffffffff1690565b73ffffffffffffffffffffffffffffffffffffffff16148061371d575061371d610570613237565b6117355760405162461bcd60e51b815260206004820152601c60248201527f63616c6c6572206973206e6f74206f776e6572206f722061646d696e000000006044820152606401610d52565b7f4910fdfa16fed3260ed0e7147f7cc6da11a60208b5b9406d12a635614ffd91435460ff161561379c57610e1f836146e9565b8273ffffffffffffffffffffffffffffffffffffffff166352d1902d6040518163ffffffff1660e01b8152600401602060405180830381865afa925050508015613821575060408051601f3d9081017fffffffffffffffffffffffffffffffffffffffffffffffffffffffffffffffe016820190925261381e91810190615dfc565b60015b6138935760405162461bcd60e51b815260206004820152602e60248201527f45524331393637557067726164653a206e657720696d706c656d656e7461746960448201527f6f6e206973206e6f7420555550530000000000000000000000000000000000006064820152608401610d52565b7f360894a13ba1a3210667c828492db98dca3e2076cc3735a920a3ca505d382bbc81146139285760405162461bcd60e51b815260206004820152602960248201527f45524331393637557067726164653a20756e737570706f727465642070726f7860448201527f6961626c655555494400000000000000000000000000000000000000000000006064820152608401610d52565b50610e1f8383836147d9565b61393c6147fe565b60fb80547fffffffffffffffffffffffffffffffffffffffffffffffffffffffffffffff001690557f5db9ee0a495bf2e6ff9c91a7834c1ba4fdd244a5e8aa4e537bd38aeae4b073aa61398d613237565b60405173ffffffffffffffffffffffffffffffffffffffff909116815260200160405180910390a1565b6139c081614850565b60009081526101c6602090815260408083208390556101c7825280832080547fffffffffffffffffffffffffffffffffffffffffffffffffffffffffffffff001690556101ca909152902080547fffffffffffffffffffffffffffffffffffffffffffffffff0000000000000000169055565b600054610100900460ff16613ab05760405162461bcd60e51b815260206004820152602b60248201527f496e697469616c697a61626c653a20636f6e7472616374206973206e6f74206960448201527f6e697469616c697a696e670000000000000000000000000000000000000000006064820152608401610d52565b611e3e8282614929565b600054610100900460ff166117f25760405162461bcd60e51b815260206004820152602b60248201527f496e697469616c697a61626c653a20636f6e7472616374206973206e6f74206960448201527f6e697469616c697a696e670000000000000000000000000000000000000000006064820152608401610d52565b600054610100900460ff16613bb45760405162461bcd60e51b815260206004820152602b60248201527f496e697469616c697a61626c653a20636f6e7472616374206973206e6f74206960448201527f6e697469616c697a696e670000000000000000000000000000000000000000006064820152608401610d52565b6117f26149cd565b600054610100900460ff16613c395760405162461bcd60e51b815260206004820152602b60248201527f496e697469616c697a61626c653a20636f6e7472616374206973206e6f74206960448201527f6e697469616c697a696e670000000000000000000000000000000000000000006064820152608401610d52565b6117f2614a74565b60008181526101c760205260409081902080547fffffffffffffffffffffffffffffffffffffffffffffffffffffffffffffff00169055517f083eea12772ab70fba01c8212d02f3bc5dc29b8540dcdc84298e5dfa22731b92906110b49083815260200190565b613cb0613237565b73ffffffffffffffffffffffffffffffffffffffff16613ce661012d5473ffffffffffffffffffffffffffffffffffffffff1690565b73ffffffffffffffffffffffffffffffffffffffff16146117f25760405162461bcd60e51b815260206004820181905260248201527f4f776e61626c653a2063616c6c6572206973206e6f7420746865206f776e65726044820152606401610d52565b61012d805473ffffffffffffffffffffffffffffffffffffffff8381167fffffffffffffffffffffffff0000000000000000000000000000000000000000831681179093556040519116919082907f8be0079c531659141344cd1fd0a4f28419497f9722a3daafe3b4186f6b6457e090600090a35050565b60008281526101ca602052604081205467ffffffffffffffff169081613df257613deb8342615e15565b9050613dff565b613dfc8383615e15565b90505b60008481526101ca602090815260409182902080547fffffffffffffffffffffffffffffffffffffffffffffffff00000000000000001667ffffffffffffffff8516908117909155915191825285917f2ec2be2c4b90c2cf13ecb6751a24daed6bb741ae5ed3f7371aabf9402f6d62e8910160405180910390a250505050565b6127106bffffffffffffffffffffffff82161115613f055760405162461bcd60e51b815260206004820152602a60248201527f455243323938313a20726f79616c7479206665652077696c6c2065786365656460448201527f2073616c655072696365000000000000000000000000000000000000000000006064820152608401610d52565b73ffffffffffffffffffffffffffffffffffffffff8216613f685760405162461bcd60e51b815260206004820152601b60248201527f455243323938313a20496e76616c696420706172616d657465727300000000006044820152606401610d52565b60408051808201825273ffffffffffffffffffffffffffffffffffffffff93841681526bffffffffffffffffffffffff928316602080830191825260009687526101c99052919094209351905190911674010000000000000000000000000000000000000000029116179055565b613fde6132e6565b60fb80547fffffffffffffffffffffffffffffffffffffffffffffffffffffffffffffff001660011790557f62e78cea01bee320cd4e420270b5ea74000d11b0c9f74754ebdbfc544b05a25861398d613237565b60608161407257505060408051808201909152600181527f3000000000000000000000000000000000000000000000000000000000000000602082015290565b8160005b811561409c578061408681615bb7565b91506140959050600a83615c5c565b9150614076565b60008167ffffffffffffffff8111156140b7576140b761551d565b6040519080825280601f01601f1916602001820160405280156140e1576020820181803683370190505b5090505b8415610f5c576140f6600183615de5565b9150614103600a86615e38565b61410e906030615b9f565b60f81b81838151811061412357614123615b41565b60200101907effffffffffffffffffffffffffffffffffffffffffffffffffffffffffffff1916908160001a90535061415d600a86615c5c565b94506140e5565b8173ffffffffffffffffffffffffffffffffffffffff168373ffffffffffffffffffffffffffffffffffffffff1614156141e05760405162461bcd60e51b815260206004820152601960248201527f4552433732313a20617070726f766520746f2063616c6c6572000000000000006044820152606401610d52565b73ffffffffffffffffffffffffffffffffffffffff8381166000818152606a602090815260408083209487168084529482529182902080547fffffffffffffffffffffffffffffffffffffffffffffffffffffffffffffff001686151590811790915591519182527f17307eab39ab6107e8899845ad3d59bd9653f200f220920489ca2b5937696c31910160405180910390a3505050565b614283848484613479565b61428f84848484614b01565b612b105760405162461bcd60e51b815260206004820152603260248201527f4552433732313a207472616e7366657220746f206e6f6e20455243373231526560448201527f63656976657220696d706c656d656e74657200000000000000000000000000006064820152608401610d52565b6127106bffffffffffffffffffffffff821611156143875760405162461bcd60e51b815260206004820152602a60248201527f455243323938313a20726f79616c7479206665652077696c6c2065786365656460448201527f2073616c655072696365000000000000000000000000000000000000000000006064820152608401610d52565b73ffffffffffffffffffffffffffffffffffffffff82166143ea5760405162461bcd60e51b815260206004820152601960248201527f455243323938313a20696e76616c6964207265636569766572000000000000006044820152606401610d52565b6040805180820190915273ffffffffffffffffffffffffffffffffffffffff9092168083526bffffffffffffffffffffffff909116602090920182905274010000000000000000000000000000000000000000909102176101c855565b60008181526101c760205260409081902080547fffffffffffffffffffffffffffffffffffffffffffffffffffffffffffffff00166001179055517f4d69b51fee53c28bd8b61fe008151577ca65160b5248f6225e74d64fd4cf7328906110b49083815260200190565b60007fffffffff0000000000000000000000000000000000000000000000000000000082167f80ac58cd00000000000000000000000000000000000000000000000000000000148061454457507fffffffff0000000000000000000000000000000000000000000000000000000082167f5b5e139f00000000000000000000000000000000000000000000000000000000145b80610bdb57507f01ffc9a7000000000000000000000000000000000000000000000000000000007fffffffff00000000000000000000000000000000000000000000000000000000831614610bdb565b6000601436108015906145bf57506101c35473ffffffffffffffffffffffffffffffffffffffff1633145b156145ef57507fffffffffffffffffffffffffffffffffffffffffffffffffffffffffffffffec36013560601c90565b503390565b611e3e828260405180602001604052806000815250614cc2565b6146166132e6565b6040517fa0894799000000000000000000000000000000000000000000000000000000008152600481018290528190309063a089479990602401602060405180830381865afa15801561466d573d6000803e3d6000fd5b505050506040513d601f19601f820116820180604052508101906146919190615c70565b156146de5760405162461bcd60e51b815260206004820152600f60248201527f546f6b656e2069732066726f7a656e00000000000000000000000000000000006044820152606401610d52565b612b10848484614d4b565b73ffffffffffffffffffffffffffffffffffffffff81163b6147735760405162461bcd60e51b815260206004820152602d60248201527f455243313936373a206e657720696d706c656d656e746174696f6e206973206e60448201527f6f74206120636f6e7472616374000000000000000000000000000000000000006064820152608401610d52565b7f360894a13ba1a3210667c828492db98dca3e2076cc3735a920a3ca505d382bbc80547fffffffffffffffffffffffff00000000000000000000000000000000000000001673ffffffffffffffffffffffffffffffffffffffff92909216919091179055565b6147e283614e51565b6000825111806147ef5750805b15610e1f57612b108383614e9e565b60fb5460ff166117f25760405162461bcd60e51b815260206004820152601460248201527f5061757361626c653a206e6f74207061757365640000000000000000000000006044820152606401610d52565b600061485b82612184565b90506148698160008461460e565b614874600083613246565b73ffffffffffffffffffffffffffffffffffffffff811660009081526068602052604081208054600192906148aa908490615de5565b909155505060008281526067602052604080822080547fffffffffffffffffffffffff00000000000000000000000000000000000000001690555183919073ffffffffffffffffffffffffffffffffffffffff8416907fddf252ad1be2c89b69c2b068fc378daa952ba7f163c4a11628f55a4df523b3ef908390a45050565b600054610100900460ff166149a65760405162461bcd60e51b815260206004820152602b60248201527f496e697469616c697a61626c653a20636f6e7472616374206973206e6f74206960448201527f6e697469616c697a696e670000000000000000000000000000000000000000006064820152608401610d52565b81516149b9906065906020850190615344565b508051610e1f906066906020840190615344565b600054610100900460ff16614a4a5760405162461bcd60e51b815260206004820152602b60248201527f496e697469616c697a61626c653a20636f6e7472616374206973206e6f74206960448201527f6e697469616c697a696e670000000000000000000000000000000000000000006064820152608401610d52565b60fb80547fffffffffffffffffffffffffffffffffffffffffffffffffffffffffffffff00169055565b600054610100900460ff16614af15760405162461bcd60e51b815260206004820152602b60248201527f496e697469616c697a61626c653a20636f6e7472616374206973206e6f74206960448201527f6e697469616c697a696e670000000000000000000000000000000000000000006064820152608401610d52565b6117f2614afc613237565b613d49565b600073ffffffffffffffffffffffffffffffffffffffff84163b15614cba578373ffffffffffffffffffffffffffffffffffffffff1663150b7a02614b44613237565b8786866040518563ffffffff1660e01b8152600401614b669493929190615e4c565b6020604051808303816000875af1925050508015614bbf575060408051601f3d9081017fffffffffffffffffffffffffffffffffffffffffffffffffffffffffffffffe0168201909252614bbc91810190615e95565b60015b614c6f573d808015614bed576040519150601f19603f3d011682016040523d82523d6000602084013e614bf2565b606091505b508051614c675760405162461bcd60e51b815260206004820152603260248201527f4552433732313a207472616e7366657220746f206e6f6e20455243373231526560448201527f63656976657220696d706c656d656e74657200000000000000000000000000006064820152608401610d52565b805181602001fd5b7fffffffff00000000000000000000000000000000000000000000000000000000167f150b7a0200000000000000000000000000000000000000000000000000000000149050610f5c565b506001610f5c565b614ccc8383614fba565b614cd96000848484614b01565b610e1f5760405162461bcd60e51b815260206004820152603260248201527f4552433732313a207472616e7366657220746f206e6f6e20455243373231526560448201527f63656976657220696d706c656d656e74657200000000000000000000000000006064820152608401610d52565b73ffffffffffffffffffffffffffffffffffffffff8316614db357614dae81609980546000838152609a60205260408120829055600182018355919091527f72a152ddfb8e864297c917af52ea6c1c68aead0fee1a62673fcc7e0c94979d000155565b614df0565b8173ffffffffffffffffffffffffffffffffffffffff168373ffffffffffffffffffffffffffffffffffffffff1614614df057614df08382615154565b73ffffffffffffffffffffffffffffffffffffffff8216614e1457610e1f8161520b565b8273ffffffffffffffffffffffffffffffffffffffff168273ffffffffffffffffffffffffffffffffffffffff1614610e1f57610e1f82826152ba565b614e5a816146e9565b60405173ffffffffffffffffffffffffffffffffffffffff8216907fbc7cd75a20ee27fd9adebab32041f755214dbc6bffa90cc0225b39da2e5c2d3b90600090a250565b606073ffffffffffffffffffffffffffffffffffffffff83163b614f2a5760405162461bcd60e51b815260206004820152602660248201527f416464726573733a2064656c65676174652063616c6c20746f206e6f6e2d636f60448201527f6e747261637400000000000000000000000000000000000000000000000000006064820152608401610d52565b6000808473ffffffffffffffffffffffffffffffffffffffff1684604051614f529190615eb2565b600060405180830381855af49150503d8060008114614f8d576040519150601f19603f3d011682016040523d82523d6000602084013e614f92565b606091505b50915091506129658282604051806060016040528060278152602001615efe6027913961530b565b73ffffffffffffffffffffffffffffffffffffffff821661501d5760405162461bcd60e51b815260206004820181905260248201527f4552433732313a206d696e7420746f20746865207a65726f20616464726573736044820152606401610d52565b60008181526067602052604090205473ffffffffffffffffffffffffffffffffffffffff161561508f5760405162461bcd60e51b815260206004820152601c60248201527f4552433732313a20746f6b656e20616c7265616479206d696e746564000000006044820152606401610d52565b61509b6000838361460e565b73ffffffffffffffffffffffffffffffffffffffff821660009081526068602052604081208054600192906150d1908490615b9f565b909155505060008181526067602052604080822080547fffffffffffffffffffffffff00000000000000000000000000000000000000001673ffffffffffffffffffffffffffffffffffffffff861690811790915590518392907fddf252ad1be2c89b69c2b068fc378daa952ba7f163c4a11628f55a4df523b3ef908290a45050565b60006001615161846124b6565b61516b9190615de5565b6000838152609860205260409020549091508082146151cb5773ffffffffffffffffffffffffffffffffffffffff841660009081526097602090815260408083208584528252808320548484528184208190558352609890915290208190555b50600091825260986020908152604080842084905573ffffffffffffffffffffffffffffffffffffffff9094168352609781528383209183525290812055565b60995460009061521d90600190615de5565b6000838152609a60205260408120546099805493945090928490811061524557615245615b41565b90600052602060002001549050806099838154811061526657615266615b41565b6000918252602080832090910192909255828152609a9091526040808220849055858252812055609980548061529e5761529e615ece565b6001900381819060005260206000200160009055905550505050565b60006152c5836124b6565b73ffffffffffffffffffffffffffffffffffffffff9093166000908152609760209081526040808320868452825280832085905593825260989052919091209190915550565b6060831561531a5750816130cf565b82511561532a5782518084602001fd5b8160405162461bcd60e51b8152600401610d52919061549e565b82805461535090615aed565b90600052602060002090601f01602090048101928261537257600085556153b8565b82601f1061538b57805160ff19168380011785556153b8565b828001600101855582156153b8579182015b828111156153b857825182559160200191906001019061539d565b506153c49291506153c8565b5090565b5b808211156153c457600081556001016153c9565b7fffffffff000000000000000000000000000000000000000000000000000000008116811461173557600080fd5b60006020828403121561541d57600080fd5b81356130cf816153dd565b60005b8381101561544357818101518382015260200161542b565b83811115612b105750506000910152565b6000815180845261546c816020860160208601615428565b601f017fffffffffffffffffffffffffffffffffffffffffffffffffffffffffffffffe0169290920160200192915050565b6020815260006130cf6020830184615454565b6000602082840312156154c357600080fd5b5035919050565b803573ffffffffffffffffffffffffffffffffffffffff811681146154ee57600080fd5b919050565b6000806040838503121561550657600080fd5b61550f836154ca565b946020939093013593505050565b7f4e487b7100000000000000000000000000000000000000000000000000000000600052604160045260246000fd5b604051601f82017fffffffffffffffffffffffffffffffffffffffffffffffffffffffffffffffe016810167ffffffffffffffff811182821017156155935761559361551d565b604052919050565b600067ffffffffffffffff8211156155b5576155b561551d565b5060051b60200190565b801515811461173557600080fd5b80356154ee816155bf565b803567ffffffffffffffff811681146154ee57600080fd5b6000806000806080858703121561560657600080fd5b843567ffffffffffffffff81111561561d57600080fd5b8501601f8101871361562e57600080fd5b8035602061564361563e8361559b565b61554c565b82815260059290921b8301810191818101908a84111561566257600080fd5b938201935b8385101561568057843582529382019390820190615667565b975061568f90508882016154ca565b95505050506156a0604086016155cd565b91506156ae606086016155d8565b905092959194509250565b6000602082840312156156cb57600080fd5b6130cf826154ca565b6000806000606084860312156156e957600080fd5b6156f2846154ca565b9250615700602085016154ca565b9150604084013590509250925092565b6000806040838503121561572357600080fd5b50508035926020909101359150565b600082601f83011261574357600080fd5b813567ffffffffffffffff81111561575d5761575d61551d565b61578e60207fffffffffffffffffffffffffffffffffffffffffffffffffffffffffffffffe0601f8401160161554c565b8181528460208386010111156157a357600080fd5b816020850160208301376000918101602001919091529392505050565b600080604083850312156157d357600080fd5b823567ffffffffffffffff808211156157eb57600080fd5b6157f786838701615732565b9350602085013591508082111561580d57600080fd5b5061581a85828601615732565b9150509250929050565b6000806040838503121561583757600080fd5b615840836154ca565b9150602083013567ffffffffffffffff81111561585c57600080fd5b61581a85828601615732565b6000806040838503121561587b57600080fd5b82359150612396602084016155d8565b80356bffffffffffffffffffffffff811681146154ee57600080fd5b6000806000606084860312156158bc57600080fd5b833592506158cc602085016154ca565b91506158da6040850161588b565b90509250925092565b6000602082840312156158f557600080fd5b813567ffffffffffffffff81111561590c57600080fd5b610f5c84828501615732565b6000806000806080858703121561592e57600080fd5b8435935061593e602086016154ca565b925060408501356156a0816155bf565b6000806040838503121561596157600080fd5b61596a836154ca565b9150602083013561597a816155bf565b809150509250929050565b6000806000806080858703121561599b57600080fd5b6159a4856154ca565b93506159b2602086016154ca565b925060408501359150606085013567ffffffffffffffff8111156159d557600080fd5b6159e187828801615732565b91505092959194509250565b60008060008060808587031215615a0357600080fd5b8435935060208086013567ffffffffffffffff811115615a2257600080fd5b8601601f81018813615a3357600080fd5b8035615a4161563e8261559b565b81815260059190911b8201830190838101908a831115615a6057600080fd5b928401925b82841015615a8557615a76846154ca565b82529284019290840190615a65565b80975050505050506156a0604086016155cd565b60008060408385031215615aac57600080fd5b615ab5836154ca565b91506123966020840161588b565b60008060408385031215615ad657600080fd5b615adf836154ca565b9150612396602084016154ca565b600181811c90821680615b0157607f821691505b60208210811415615b3b577f4e487b7100000000000000000000000000000000000000000000000000000000600052602260045260246000fd5b50919050565b7f4e487b7100000000000000000000000000000000000000000000000000000000600052603260045260246000fd5b7f4e487b7100000000000000000000000000000000000000000000000000000000600052601160045260246000fd5b60008219821115615bb257615bb2615b70565b500190565b60007fffffffffffffffffffffffffffffffffffffffffffffffffffffffffffffffff821415615be957615be9615b70565b5060010190565b6000817fffffffffffffffffffffffffffffffffffffffffffffffffffffffffffffffff0483118215151615615c2857615c28615b70565b500290565b7f4e487b7100000000000000000000000000000000000000000000000000000000600052601260045260246000fd5b600082615c6b57615c6b615c2d565b500490565b600060208284031215615c8257600080fd5b81516130cf816155bf565b8054600090600181811c9080831680615ca757607f831692505b6020808410821415615ce2577f4e487b7100000000000000000000000000000000000000000000000000000000600052602260045260246000fd5b818015615cf65760018114615d2557615d52565b7fffffffffffffffffffffffffffffffffffffffffffffffffffffffffffffff00861689528489019650615d52565b60008881526020902060005b86811015615d4a5781548b820152908501908301615d31565b505084890196505b50505050505092915050565b6000615d6a8285615c8d565b8351615d7a818360208801615428565b01949350505050565b6000615d8f8286615c8d565b8451615d9f818360208901615428565b7f2f0000000000000000000000000000000000000000000000000000000000000091019081528351615dd8816001840160208801615428565b0160010195945050505050565b600082821015615df757615df7615b70565b500390565b600060208284031215615e0e57600080fd5b5051919050565b600067ffffffffffffffff808316818516808303821115615d7a57615d7a615b70565b600082615e4757615e47615c2d565b500690565b600073ffffffffffffffffffffffffffffffffffffffff808716835280861660208401525083604083015260806060830152615e8b6080830184615454565b9695505050505050565b600060208284031215615ea757600080fd5b81516130cf816153dd565b60008251615ec4818460208701615428565b9190910192915050565b7f4e487b7100000000000000000000000000000000000000000000000000000000600052603160045260246000fdfe416464726573733a206c6f772d6c6576656c2064656c65676174652063616c6c206661696c6564a264697066735822122065b369bd31e40506f8ce2d4333d2d56ffe0418caa46cc1495cf2ae211d5fd45c64736f6c634300080c0033",
  "linkReferences": {},
  "deployedLinkReferences": {}
}