{
  "_format": "hh-sol-artifact-1",
  "contractName": "UVCollectable",
  "sourceName": "contracts/UVCollectable.sol",
  "abi": [
    {
      "inputs": [],
      "stateMutability": "nonpayable",
      "type": "constructor"
    },
    {
      "inputs": [
        {
          "internalType": "address",
          "name": "operator",
          "type": "address"
        }
      ],
      "name": "OperatorNotAllowed",
      "type": "error"
    },
    {
      "anonymous": false,
      "inputs": [
        {
          "indexed": false,
          "internalType": "address",
          "name": "previousAdmin",
          "type": "address"
        },
        {
          "indexed": false,
          "internalType": "address",
          "name": "newAdmin",
          "type": "address"
        }
      ],
      "name": "AdminChanged",
      "type": "event"
    },
    {
      "anonymous": false,
      "inputs": [
        {
          "indexed": false,
          "internalType": "address",
          "name": "admin",
          "type": "address"
        },
        {
          "indexed": false,
          "internalType": "bool",
          "name": "added",
          "type": "bool"
        }
      ],
      "name": "AdminUpdated",
      "type": "event"
    },
    {
      "anonymous": false,
      "inputs": [
        {
          "indexed": true,
          "internalType": "address",
          "name": "owner",
          "type": "address"
        },
        {
          "indexed": true,
          "internalType": "address",
          "name": "approved",
          "type": "address"
        },
        {
          "indexed": true,
          "internalType": "uint256",
          "name": "tokenId",
          "type": "uint256"
        }
      ],
      "name": "Approval",
      "type": "event"
    },
    {
      "anonymous": false,
      "inputs": [
        {
          "indexed": true,
          "internalType": "address",
          "name": "owner",
          "type": "address"
        },
        {
          "indexed": true,
          "internalType": "address",
          "name": "operator",
          "type": "address"
        },
        {
          "indexed": false,
          "internalType": "bool",
          "name": "approved",
          "type": "bool"
        }
      ],
      "name": "ApprovalForAll",
      "type": "event"
    },
    {
      "anonymous": false,
      "inputs": [
        {
          "indexed": true,
          "internalType": "address",
          "name": "beacon",
          "type": "address"
        }
      ],
      "name": "BeaconUpgraded",
      "type": "event"
    },
    {
      "anonymous": false,
      "inputs": [
        {
          "indexed": false,
          "internalType": "uint8",
          "name": "version",
          "type": "uint8"
        }
      ],
      "name": "Initialized",
      "type": "event"
    },
    {
      "anonymous": false,
      "inputs": [
        {
          "indexed": false,
          "internalType": "uint256",
          "name": "tokenId",
          "type": "uint256"
        }
      ],
      "name": "Locked",
      "type": "event"
    },
    {
      "anonymous": false,
      "inputs": [
        {
          "indexed": true,
          "internalType": "address",
          "name": "previousOwner",
          "type": "address"
        },
        {
          "indexed": true,
          "internalType": "address",
          "name": "newOwner",
          "type": "address"
        }
      ],
      "name": "OwnershipTransferred",
      "type": "event"
    },
    {
      "anonymous": false,
      "inputs": [
        {
          "indexed": false,
          "internalType": "address",
          "name": "account",
          "type": "address"
        }
      ],
      "name": "Paused",
      "type": "event"
    },
    {
      "anonymous": false,
      "inputs": [
        {
          "indexed": true,
          "internalType": "uint256",
          "name": "tokenId",
          "type": "uint256"
        },
        {
          "indexed": false,
          "internalType": "uint64",
          "name": "expiration",
          "type": "uint64"
        }
      ],
      "name": "SubscriptionUpdate",
      "type": "event"
    },
    {
      "anonymous": false,
      "inputs": [
        {
          "indexed": true,
          "internalType": "address",
          "name": "from",
          "type": "address"
        },
        {
          "indexed": true,
          "internalType": "address",
          "name": "to",
          "type": "address"
        },
        {
          "indexed": true,
          "internalType": "uint256",
          "name": "tokenId",
          "type": "uint256"
        }
      ],
      "name": "Transfer",
      "type": "event"
    },
    {
      "anonymous": false,
      "inputs": [
        {
          "indexed": false,
          "internalType": "uint256",
          "name": "tokenId",
          "type": "uint256"
        }
      ],
      "name": "Unlocked",
      "type": "event"
    },
    {
      "anonymous": false,
      "inputs": [
        {
          "indexed": false,
          "internalType": "address",
          "name": "account",
          "type": "address"
        }
      ],
      "name": "Unpaused",
      "type": "event"
    },
    {
      "anonymous": false,
      "inputs": [
        {
          "indexed": true,
          "internalType": "address",
          "name": "implementation",
          "type": "address"
        }
      ],
      "name": "Upgraded",
      "type": "event"
    },
    {
      "inputs": [
        {
          "internalType": "address",
          "name": "newAdmin",
          "type": "address"
        }
      ],
      "name": "addAdmin",
      "outputs": [],
      "stateMutability": "nonpayable",
      "type": "function"
    },
    {
      "inputs": [
        {
          "internalType": "address",
          "name": "operator",
          "type": "address"
        },
        {
          "internalType": "uint256",
          "name": "tokenId",
          "type": "uint256"
        }
      ],
      "name": "approve",
      "outputs": [],
      "stateMutability": "nonpayable",
      "type": "function"
    },
    {
      "inputs": [
        {
          "internalType": "address",
          "name": "owner",
          "type": "address"
        }
      ],
      "name": "balanceOf",
      "outputs": [
        {
          "internalType": "uint256",
          "name": "",
          "type": "uint256"
        }
      ],
      "stateMutability": "view",
      "type": "function"
    },
    {
      "inputs": [
        {
          "internalType": "uint256",
          "name": "tokenId",
          "type": "uint256"
        }
      ],
      "name": "burn",
      "outputs": [],
      "stateMutability": "nonpayable",
      "type": "function"
    },
    {
      "inputs": [
        {
          "internalType": "uint256",
          "name": "tokenId",
          "type": "uint256"
        }
      ],
      "name": "cancelSubscription",
      "outputs": [],
      "stateMutability": "nonpayable",
      "type": "function"
    },
    {
      "inputs": [
        {
          "internalType": "uint256",
          "name": "collectionId",
          "type": "uint256"
        }
      ],
      "name": "collectionURI",
      "outputs": [
        {
          "internalType": "string",
          "name": "",
          "type": "string"
        }
      ],
      "stateMutability": "view",
      "type": "function"
    },
    {
      "inputs": [],
      "name": "contractURI",
      "outputs": [
        {
          "internalType": "string",
          "name": "",
          "type": "string"
        }
      ],
      "stateMutability": "view",
      "type": "function"
    },
    {
      "inputs": [
        {
          "internalType": "uint256",
          "name": "tokenId",
          "type": "uint256"
        }
      ],
      "name": "expiresAt",
      "outputs": [
        {
          "internalType": "uint64",
          "name": "",
          "type": "uint64"
        }
      ],
      "stateMutability": "view",
      "type": "function"
    },
    {
      "inputs": [
        {
          "internalType": "uint256",
          "name": "tokenId",
          "type": "uint256"
        }
      ],
      "name": "getApproved",
      "outputs": [
        {
          "internalType": "address",
          "name": "",
          "type": "address"
        }
      ],
      "stateMutability": "view",
      "type": "function"
    },
    {
      "inputs": [],
      "name": "getTrustedForwarder",
      "outputs": [
        {
          "internalType": "address",
          "name": "forwarder",
          "type": "address"
        }
      ],
      "stateMutability": "view",
      "type": "function"
    },
    {
      "inputs": [
        {
          "internalType": "string",
          "name": "__name",
          "type": "string"
        },
        {
          "internalType": "string",
          "name": "__symbol",
          "type": "string"
        },
        {
          "internalType": "string",
          "name": "__contractURI",
          "type": "string"
        },
        {
          "internalType": "address[]",
          "name": "__admins",
          "type": "address[]"
        }
      ],
      "name": "initialize",
      "outputs": [],
      "stateMutability": "nonpayable",
      "type": "function"
    },
    {
      "inputs": [
        {
          "internalType": "address",
          "name": "admin",
          "type": "address"
        }
      ],
      "name": "isAdmin",
      "outputs": [
        {
          "internalType": "bool",
          "name": "",
          "type": "bool"
        }
      ],
      "stateMutability": "view",
      "type": "function"
    },
    {
      "inputs": [
        {
          "internalType": "address",
          "name": "_owner",
          "type": "address"
        },
        {
          "internalType": "address",
          "name": "_operator",
          "type": "address"
        }
      ],
      "name": "isApprovedForAll",
      "outputs": [
        {
          "internalType": "bool",
          "name": "isOperator",
          "type": "bool"
        }
      ],
      "stateMutability": "view",
      "type": "function"
    },
    {
      "inputs": [
        {
          "internalType": "uint256",
          "name": "tokenId",
          "type": "uint256"
        }
      ],
      "name": "isLocked",
      "outputs": [
        {
          "internalType": "bool",
          "name": "",
          "type": "bool"
        }
      ],
      "stateMutability": "view",
      "type": "function"
    },
    {
      "inputs": [
        {
          "internalType": "uint256",
          "name": "",
          "type": "uint256"
        }
      ],
      "name": "isRenewable",
      "outputs": [
        {
          "internalType": "bool",
          "name": "",
          "type": "bool"
        }
      ],
      "stateMutability": "pure",
      "type": "function"
    },
    {
      "inputs": [
        {
          "internalType": "address",
          "name": "forwarder",
          "type": "address"
        }
      ],
      "name": "isTrustedForwarder",
      "outputs": [
        {
          "internalType": "bool",
          "name": "",
          "type": "bool"
        }
      ],
      "stateMutability": "view",
      "type": "function"
    },
    {
      "inputs": [],
      "name": "lastId",
      "outputs": [
        {
          "internalType": "uint256",
          "name": "",
          "type": "uint256"
        }
      ],
      "stateMutability": "view",
      "type": "function"
    },
    {
      "inputs": [
        {
          "internalType": "uint256",
          "name": "tokenId",
          "type": "uint256"
        }
      ],
      "name": "lockToken",
      "outputs": [],
      "stateMutability": "nonpayable",
      "type": "function"
    },
    {
      "inputs": [
        {
          "internalType": "uint256",
          "name": "collectionId",
          "type": "uint256"
        },
        {
          "internalType": "address[]",
          "name": "to",
          "type": "address[]"
        },
        {
          "internalType": "bool",
          "name": "locked",
          "type": "bool"
        },
        {
          "internalType": "uint64",
          "name": "validDuration",
          "type": "uint64"
        }
      ],
      "name": "mintCollectionToManyUsers",
      "outputs": [
        {
          "internalType": "bool",
          "name": "",
          "type": "bool"
        }
      ],
      "stateMutability": "nonpayable",
      "type": "function"
    },
    {
      "inputs": [
        {
          "internalType": "uint256",
          "name": "collectionId",
          "type": "uint256"
        },
        {
          "internalType": "address",
          "name": "to",
          "type": "address"
        },
        {
          "internalType": "bool",
          "name": "locked",
          "type": "bool"
        },
        {
          "internalType": "uint64",
          "name": "validDuration",
          "type": "uint64"
        }
      ],
      "name": "mintToken",
      "outputs": [
        {
          "internalType": "bool",
          "name": "",
          "type": "bool"
        }
      ],
      "stateMutability": "nonpayable",
      "type": "function"
    },
    {
      "inputs": [
        {
          "internalType": "uint256[]",
          "name": "collectionIds",
          "type": "uint256[]"
        },
        {
          "internalType": "address",
          "name": "to",
          "type": "address"
        },
        {
          "internalType": "bool",
          "name": "locked",
          "type": "bool"
        },
        {
          "internalType": "uint64",
          "name": "validDuration",
          "type": "uint64"
        }
      ],
      "name": "mintUserToManyCollections",
      "outputs": [
        {
          "internalType": "bool",
          "name": "",
          "type": "bool"
        }
      ],
      "stateMutability": "nonpayable",
      "type": "function"
    },
    {
      "inputs": [],
      "name": "name",
      "outputs": [
        {
          "internalType": "string",
          "name": "",
          "type": "string"
        }
      ],
      "stateMutability": "view",
      "type": "function"
    },
    {
      "inputs": [],
      "name": "owner",
      "outputs": [
        {
          "internalType": "address",
          "name": "",
          "type": "address"
        }
      ],
      "stateMutability": "view",
      "type": "function"
    },
    {
      "inputs": [
        {
          "internalType": "uint256",
          "name": "tokenId",
          "type": "uint256"
        }
      ],
      "name": "ownerOf",
      "outputs": [
        {
          "internalType": "address",
          "name": "",
          "type": "address"
        }
      ],
      "stateMutability": "view",
      "type": "function"
    },
    {
      "inputs": [],
      "name": "pause",
      "outputs": [],
      "stateMutability": "nonpayable",
      "type": "function"
    },
    {
      "inputs": [],
      "name": "paused",
      "outputs": [
        {
          "internalType": "bool",
          "name": "",
          "type": "bool"
        }
      ],
      "stateMutability": "view",
      "type": "function"
    },
    {
      "inputs": [],
      "name": "proxiableUUID",
      "outputs": [
        {
          "internalType": "bytes32",
          "name": "",
          "type": "bytes32"
        }
      ],
      "stateMutability": "view",
      "type": "function"
    },
    {
      "inputs": [
        {
          "internalType": "uint256",
          "name": "tokenId",
          "type": "uint256"
        },
        {
          "internalType": "address",
          "name": "recipient",
          "type": "address"
        }
      ],
      "name": "reclaimToken",
      "outputs": [],
      "stateMutability": "nonpayable",
      "type": "function"
    },
    {
      "inputs": [
        {
          "internalType": "address",
          "name": "admin",
          "type": "address"
        }
      ],
      "name": "removeAdmin",
      "outputs": [],
      "stateMutability": "nonpayable",
      "type": "function"
    },
    {
      "inputs": [
        {
          "internalType": "uint256",
          "name": "collectionId",
          "type": "uint256"
        }
      ],
      "name": "removeCollectionRoyalty",
      "outputs": [],
      "stateMutability": "nonpayable",
      "type": "function"
    },
    {
      "inputs": [],
      "name": "removeDefaultRoyalty",
      "outputs": [],
      "stateMutability": "nonpayable",
      "type": "function"
    },
    {
      "inputs": [
        {
          "internalType": "uint256",
          "name": "tokenId",
          "type": "uint256"
        },
        {
          "internalType": "uint64",
          "name": "duration",
          "type": "uint64"
        }
      ],
      "name": "renewSubscription",
      "outputs": [],
      "stateMutability": "nonpayable",
      "type": "function"
    },
    {
      "inputs": [],
      "name": "renounceOwnership",
      "outputs": [],
      "stateMutability": "nonpayable",
      "type": "function"
    },
    {
      "inputs": [
        {
          "internalType": "uint256",
          "name": "_tokenId",
          "type": "uint256"
        },
        {
          "internalType": "uint256",
          "name": "_salePrice",
          "type": "uint256"
        }
      ],
      "name": "royaltyInfo",
      "outputs": [
        {
          "internalType": "address",
          "name": "",
          "type": "address"
        },
        {
          "internalType": "uint256",
          "name": "",
          "type": "uint256"
        }
      ],
      "stateMutability": "view",
      "type": "function"
    },
    {
      "inputs": [
        {
          "internalType": "address",
          "name": "from",
          "type": "address"
        },
        {
          "internalType": "address",
          "name": "to",
          "type": "address"
        },
        {
          "internalType": "uint256",
          "name": "tokenId",
          "type": "uint256"
        }
      ],
      "name": "safeTransferFrom",
      "outputs": [],
      "stateMutability": "nonpayable",
      "type": "function"
    },
    {
      "inputs": [
        {
          "internalType": "address",
          "name": "from",
          "type": "address"
        },
        {
          "internalType": "address",
          "name": "to",
          "type": "address"
        },
        {
          "internalType": "uint256",
          "name": "tokenId",
          "type": "uint256"
        },
        {
          "internalType": "bytes",
          "name": "data",
          "type": "bytes"
        }
      ],
      "name": "safeTransferFrom",
      "outputs": [],
      "stateMutability": "nonpayable",
      "type": "function"
    },
    {
      "inputs": [
        {
          "internalType": "address",
          "name": "operator",
          "type": "address"
        },
        {
          "internalType": "bool",
          "name": "approved",
          "type": "bool"
        }
      ],
      "name": "setApprovalForAll",
      "outputs": [],
      "stateMutability": "nonpayable",
      "type": "function"
    },
    {
      "inputs": [
        {
          "internalType": "uint256",
          "name": "tokenId",
          "type": "uint256"
        },
        {
          "internalType": "uint64",
          "name": "newExpiration",
          "type": "uint64"
        }
      ],
      "name": "setExpiration",
      "outputs": [],
      "stateMutability": "nonpayable",
      "type": "function"
    },
    {
      "inputs": [
        {
          "internalType": "uint256",
          "name": "newLastId",
          "type": "uint256"
        }
      ],
      "name": "setLastId",
      "outputs": [],
      "stateMutability": "nonpayable",
      "type": "function"
    },
    {
      "inputs": [
        {
          "internalType": "address",
          "name": "forwarder",
          "type": "address"
        }
      ],
      "name": "setTurstedForwarder",
      "outputs": [],
      "stateMutability": "nonpayable",
      "type": "function"
    },
    {
      "inputs": [
        {
          "internalType": "bytes4",
          "name": "interfaceId",
          "type": "bytes4"
        }
      ],
      "name": "supportsInterface",
      "outputs": [
        {
          "internalType": "bool",
          "name": "",
          "type": "bool"
        }
      ],
      "stateMutability": "view",
      "type": "function"
    },
    {
      "inputs": [],
      "name": "symbol",
      "outputs": [
        {
          "internalType": "string",
          "name": "",
          "type": "string"
        }
      ],
      "stateMutability": "view",
      "type": "function"
    },
    {
      "inputs": [
        {
          "internalType": "uint256",
          "name": "tokenId",
          "type": "uint256"
        }
      ],
      "name": "tokenCollection",
      "outputs": [
        {
          "internalType": "uint256",
          "name": "",
          "type": "uint256"
        }
      ],
      "stateMutability": "view",
      "type": "function"
    },
    {
      "inputs": [
        {
          "internalType": "uint256",
          "name": "tokenId",
          "type": "uint256"
        }
      ],
      "name": "tokenURI",
      "outputs": [
        {
          "internalType": "string",
          "name": "",
          "type": "string"
        }
      ],
      "stateMutability": "view",
      "type": "function"
    },
    {
      "inputs": [
        {
          "internalType": "address",
          "name": "from",
          "type": "address"
        },
        {
          "internalType": "address",
          "name": "to",
          "type": "address"
        },
        {
          "internalType": "uint256",
          "name": "tokenId",
          "type": "uint256"
        }
      ],
      "name": "transferFrom",
      "outputs": [],
      "stateMutability": "nonpayable",
      "type": "function"
    },
    {
      "inputs": [
        {
          "internalType": "address",
          "name": "newOwner",
          "type": "address"
        }
      ],
      "name": "transferOwnership",
      "outputs": [],
      "stateMutability": "nonpayable",
      "type": "function"
    },
    {
      "inputs": [
        {
          "internalType": "uint256",
          "name": "tokenId",
          "type": "uint256"
        }
      ],
      "name": "unlockToken",
      "outputs": [],
      "stateMutability": "nonpayable",
      "type": "function"
    },
    {
      "inputs": [],
      "name": "unpause",
      "outputs": [],
      "stateMutability": "nonpayable",
      "type": "function"
    },
    {
      "inputs": [
        {
          "internalType": "uint256",
          "name": "collectionId",
          "type": "uint256"
        },
        {
          "internalType": "address",
          "name": "receiver",
          "type": "address"
        },
        {
          "internalType": "uint96",
          "name": "feeNumerator",
          "type": "uint96"
        }
      ],
      "name": "updateCollectionRoyalty",
      "outputs": [],
      "stateMutability": "nonpayable",
      "type": "function"
    },
    {
      "inputs": [
        {
          "internalType": "string",
          "name": "__contractURI",
          "type": "string"
        }
      ],
      "name": "updateContractURI",
      "outputs": [],
      "stateMutability": "nonpayable",
      "type": "function"
    },
    {
      "inputs": [
        {
          "internalType": "address",
          "name": "receiver",
          "type": "address"
        },
        {
          "internalType": "uint96",
          "name": "feeNumerator",
          "type": "uint96"
        }
      ],
      "name": "updateDefaultRoyalty",
      "outputs": [],
      "stateMutability": "nonpayable",
      "type": "function"
    },
    {
      "inputs": [
        {
          "internalType": "uint256",
          "name": "tokenId",
          "type": "uint256"
        },
        {
          "internalType": "uint256",
          "name": "newCollectionId",
          "type": "uint256"
        }
      ],
      "name": "updateTokenCollection",
      "outputs": [],
      "stateMutability": "nonpayable",
      "type": "function"
    },
    {
      "inputs": [
        {
          "internalType": "address",
          "name": "newImplementation",
          "type": "address"
        }
      ],
      "name": "upgradeTo",
      "outputs": [],
      "stateMutability": "nonpayable",
      "type": "function"
    },
    {
      "inputs": [
        {
          "internalType": "address",
          "name": "newImplementation",
          "type": "address"
        },
        {
          "internalType": "bytes",
          "name": "data",
          "type": "bytes"
        }
      ],
      "name": "upgradeToAndCall",
      "outputs": [],
      "stateMutability": "payable",
      "type": "function"
    }
  ],
  "bytecode": "0x60a0604052306080523480156200001557600080fd5b506200002062000026565b620000e8565b600054610100900460ff1615620000935760405162461bcd60e51b815260206004820152602760248201527f496e697469616c697a61626c653a20636f6e747261637420697320696e697469604482015266616c697a696e6760c81b606482015260840160405180910390fd5b60005460ff9081161015620000e6576000805460ff191660ff9081179091556040519081527f7f26b83ff96e1f2b6a682f133852f6798a09c465da95921460cefb38474024989060200160405180910390a15b565b608051615ba96200012060003960008181611268015281816112fe01528181611623015281816116b901526117b40152615ba96000f3fe6080604052600436106103555760003560e01c8063776ce868116101bb578063c87b56dd116100f7578063dd2e0ac011610095578063f2fde38b1161006f578063f2fde38b146109ce578063f6aacfb1146109ee578063fb1fcca114610a1f578063fe94630914610a3f57600080fd5b8063dd2e0ac014610979578063e8a3d48514610999578063e985e9c5146109ae57600080fd5b8063cea0302e116100d1578063cea0302e146108f9578063d1c332de14610919578063d691e43c14610939578063d953e4d41461095957600080fd5b8063c87b56dd14610899578063cde317af146108b9578063ce1b815f146108da57600080fd5b80638e45d62e116101645780639a80c5e31161013e5780639a80c5e314610822578063a22cb46514610842578063b88d4fde14610862578063c1292cc31461088257600080fd5b80638e45d62e146107d857806395d89b41146107f857806397ec4fba1461080d57600080fd5b80638456cb59116101955780638456cb59146107855780638d2320941461079a5780638da5cb5b146107ba57600080fd5b8063776ce868146107255780637e5b1e241461074557806380f203631461076557600080fd5b80633659cfe61161029557806359ce12ad116102335780636a662a3c1161020d5780636a662a3c146106b057806370480275146106d057806370a08231146106f0578063715018a61461071057600080fd5b806359ce12ad146106585780635c975abb146106785780636352211e1461069057600080fd5b806342966c681161026f57806342966c68146105e05780634f1ef2861461060057806352d1902d14610613578063572b6c051461062857600080fd5b80633659cfe61461058b5780633f4ba83a146105ab57806342842e0e146105c057600080fd5b806317c957091161030257806323b872dd116102dc57806323b872dd146104c457806324d7806c146104e45780632a55205a1461051e5780632dd883e81461055d57600080fd5b806317c957091461044b5780631a27e85f1461048457806321235083146104a457600080fd5b8063095ea7b311610333578063095ea7b3146103e95780631771c96c1461040b5780631785f53c1461042b57600080fd5b806301ffc9a71461035a57806306fdde031461038f578063081812fc146103b1575b600080fd5b34801561036657600080fd5b5061037a6103753660046150c7565b610a5f565b60405190151581526020015b60405180910390f35b34801561039b57600080fd5b506103a4610b07565b604051610386919061515a565b3480156103bd57600080fd5b506103d16103cc36600461516d565b610b99565b6040516001600160a01b039091168152602001610386565b3480156103f557600080fd5b506104096104043660046151a2565b610bc0565b005b34801561041757600080fd5b506103a461042636600461516d565b610cc0565b34801561043757600080fd5b506104096104463660046151cc565b610cf5565b34801561045757600080fd5b5061046b61046636600461516d565b610dfc565b60405167ffffffffffffffff9091168152602001610386565b34801561049057600080fd5b5061040961049f36600461516d565b610e25565b3480156104b057600080fd5b506104096104bf36600461516d565b610f0f565b3480156104d057600080fd5b506104096104df3660046151e7565b611005565b3480156104f057600080fd5b5061037a6104ff3660046151cc565b6001600160a01b03166000908152610199602052604090205460ff1690565b34801561052a57600080fd5b5061053e610539366004615223565b61114b565b604080516001600160a01b039093168352602083019190915201610386565b34801561056957600080fd5b5061057d61057836600461516d565b61123e565b604051908152602001610386565b34801561059757600080fd5b506104096105a63660046151cc565b61125d565b3480156105b757600080fd5b506104096113fb565b3480156105cc57600080fd5b506104096105db3660046151e7565b61148f565b3480156105ec57600080fd5b506104096105fb36600461516d565b61158c565b61040961060e36600461531f565b611618565b34801561061f57600080fd5b5061057d6117a7565b34801561063457600080fd5b5061037a6106433660046151cc565b610191546001600160a01b0391821691161490565b34801561066457600080fd5b5061040961067336600461536d565b61186c565b34801561068457600080fd5b5060c95460ff1661037a565b34801561069c57600080fd5b506103d16106ab36600461516d565b61191b565b3480156106bc57600080fd5b506104096106cb3660046153b5565b611980565b3480156106dc57600080fd5b506104096106eb3660046151cc565b611a15565b3480156106fc57600080fd5b5061057d61070b3660046151cc565b611b94565b34801561071c57600080fd5b50610409611c2e565b34801561073157600080fd5b50610409610740366004615409565b611c40565b34801561075157600080fd5b5061040961076036600461542c565b611cdd565b34801561077157600080fd5b5061040961078036600461516d565b611d7b565b34801561079157600080fd5b50610409611ed7565b3480156107a657600080fd5b506104096107b53660046154a6565b611f69565b3480156107c657600080fd5b5060fb546001600160a01b03166103d1565b3480156107e457600080fd5b5061037a6107f3366004615568565b61215f565b34801561080457600080fd5b506103a4612229565b34801561081957600080fd5b50610409612238565b34801561082e57600080fd5b5061037a61083d3660046155b7565b6122cd565b34801561084e57600080fd5b5061040961085d366004615627565b61248e565b34801561086e57600080fd5b5061040961087d36600461565e565b612584565b34801561088e57600080fd5b5061057d6101935481565b3480156108a557600080fd5b506103a46108b436600461516d565b61268f565b3480156108c557600080fd5b5061037a6108d436600461516d565b50600190565b3480156108e657600080fd5b50610191546001600160a01b03166103d1565b34801561090557600080fd5b506104096109143660046151cc565b6126dc565b34801561092557600080fd5b50610409610934366004615409565b61279d565b34801561094557600080fd5b506104096109543660046156c6565b6128ae565b34801561096557600080fd5b5061040961097436600461516d565b612942565b34801561098557600080fd5b5061040961099436600461516d565b6129de565b3480156109a557600080fd5b506103a4612a82565b3480156109ba57600080fd5b5061037a6109c93660046156f0565b612b11565b3480156109da57600080fd5b506104096109e93660046151cc565b612b90565b3480156109fa57600080fd5b5061037a610a0936600461516d565b6000908152610195602052604090205460ff1690565b348015610a2b57600080fd5b5061037a610a3a36600461571a565b612c1d565b348015610a4b57600080fd5b50610409610a5a366004615223565b612db1565b60007fffffffff0000000000000000000000000000000000000000000000000000000082167f8c65f84d000000000000000000000000000000000000000000000000000000001480610af257507fffffffff0000000000000000000000000000000000000000000000000000000082167f2a55205a00000000000000000000000000000000000000000000000000000000145b80610b015750610b0182612e5f565b92915050565b606060658054610b1690615778565b80601f0160208091040260200160405190810160405280929190818152602001828054610b4290615778565b8015610b8f5780601f10610b6457610100808354040283529160200191610b8f565b820191906000526020600020905b815481529060010190602001808311610b7257829003601f168201915b5050505050905090565b6000610ba482612f42565b506000908152606960205260409020546001600160a01b031690565b816daaeb6d7670e522a718067333cd4e3b15610cb1576040517fc61711340000000000000000000000000000000000000000000000000000000081523060048201526001600160a01b03821660248201526daaeb6d7670e522a718067333cd4e9063c617113490604401602060405180830381865afa158015610c47573d6000803e3d6000fd5b505050506040513d601f19601f82011682018060405250810190610c6b91906157cc565b610cb1576040517fede71dcc0000000000000000000000000000000000000000000000000000000081526001600160a01b03821660048201526024015b60405180910390fd5b610cbb8383612fa6565b505050565b6060610192610cce836130e5565b604051602001610cdf9291906158ba565b6040516020818303038152906040529050919050565b610cfd613217565b6001600160a01b0316610d1860fb546001600160a01b031690565b6001600160a01b03161480610d335750610d336104ff613217565b610d7f5760405162461bcd60e51b815260206004820152601c60248201527f63616c6c6572206973206e6f74206f776e6572206f722061646d696e000000006044820152606401610ca8565b6001600160a01b03811660008181526101996020908152604080832080547fffffffffffffffffffffffffffffffffffffffffffffffffffffffffffffff001690558051938452908301919091527f235bc17e7930760029e9f4d860a2a8089976de5b381cf8380fc11c1d88a1113391015b60405180910390a150565b6000610e0782612f42565b506000908152610198602052604090205467ffffffffffffffff1690565b610e2d613217565b6001600160a01b0316610e4860fb546001600160a01b031690565b6001600160a01b03161480610e635750610e636104ff613217565b610eaf5760405162461bcd60e51b815260206004820152601c60248201527f63616c6c6572206973206e6f74206f776e6572206f722061646d696e000000006044820152606401610ca8565b610eb7613226565b806101935410610f095760405162461bcd60e51b815260206004820152601760248201527f4e65772049642068617320746f206265206869676865720000000000000000006044820152606401610ca8565b61019355565b610f17613217565b6001600160a01b0316610f3260fb546001600160a01b031690565b6001600160a01b03161480610f4d5750610f4d6104ff613217565b610f995760405162461bcd60e51b815260206004820152601c60248201527f63616c6c6572206973206e6f74206f776e6572206f722061646d696e000000006044820152606401610ca8565b60008181526101986020908152604080832080547fffffffffffffffffffffffffffffffffffffffffffffffff00000000000000001690555191825282917f2ec2be2c4b90c2cf13ecb6751a24daed6bb741ae5ed3f7371aabf9402f6d62e8910160405180910390a250565b826daaeb6d7670e522a718067333cd4e3b1561113a57611023613217565b6001600160a01b0316816001600160a01b0316141561104c57611047848484613279565b611145565b6daaeb6d7670e522a718067333cd4e63c617113430611069613217565b6040517fffffffff0000000000000000000000000000000000000000000000000000000060e085901b1681526001600160a01b03928316600482015291166024820152604401602060405180830381865afa1580156110cc573d6000803e3d6000fd5b505050506040513d601f19601f820116820180604052508101906110f091906157cc565b61113a576110fc613217565b6040517fede71dcc0000000000000000000000000000000000000000000000000000000081526001600160a01b039091166004820152602401610ca8565b611145848484613279565b50505050565b60008060006111598561123e565b600081815261019760209081526040918290208251808401909352546001600160a01b038116808452740100000000000000000000000000000000000000009091046bffffffffffffffffffffffff1691830191909152919250906111ff575060408051808201909152610196546001600160a01b03811682527401000000000000000000000000000000000000000090046bffffffffffffffffffffffff1660208201525b602081015160009061271090611223906bffffffffffffffffffffffff168861590e565b61122d919061597a565b9151945090925050505b9250929050565b600061124982612f42565b506000908152610194602052604090205490565b306001600160a01b037f00000000000000000000000000000000000000000000000000000000000000001614156112fc5760405162461bcd60e51b815260206004820152602c60248201527f46756e6374696f6e206d7573742062652063616c6c6564207468726f7567682060448201527f64656c656761746563616c6c00000000000000000000000000000000000000006064820152608401610ca8565b7f00000000000000000000000000000000000000000000000000000000000000006001600160a01b03166113577f360894a13ba1a3210667c828492db98dca3e2076cc3735a920a3ca505d382bbc546001600160a01b031690565b6001600160a01b0316146113d35760405162461bcd60e51b815260206004820152602c60248201527f46756e6374696f6e206d7573742062652063616c6c6564207468726f7567682060448201527f6163746976652070726f787900000000000000000000000000000000000000006064820152608401610ca8565b6113dc81613301565b604080516000808252602082019092526113f89183919061338b565b50565b611403613217565b6001600160a01b031661141e60fb546001600160a01b031690565b6001600160a01b0316148061143957506114396104ff613217565b6114855760405162461bcd60e51b815260206004820152601c60248201527f63616c6c6572206973206e6f74206f776e6572206f722061646d696e000000006044820152606401610ca8565b61148d613549565b565b826daaeb6d7670e522a718067333cd4e3b15611581576114ad613217565b6001600160a01b0316816001600160a01b031614156114d1576110478484846135bf565b6daaeb6d7670e522a718067333cd4e63c6171134306114ee613217565b6040517fffffffff0000000000000000000000000000000000000000000000000000000060e085901b1681526001600160a01b03928316600482015291166024820152604401602060405180830381865afa158015611551573d6000803e3d6000fd5b505050506040513d601f19601f8201168201806040525081019061157591906157cc565b611581576110fc613217565b6111458484846135bf565b61159d611597613217565b826135da565b61160f5760405162461bcd60e51b815260206004820152602e60248201527f4552433732313a2063616c6c6572206973206e6f7420746f6b656e206f776e6560448201527f72206e6f7220617070726f7665640000000000000000000000000000000000006064820152608401610ca8565b6113f881613638565b306001600160a01b037f00000000000000000000000000000000000000000000000000000000000000001614156116b75760405162461bcd60e51b815260206004820152602c60248201527f46756e6374696f6e206d7573742062652063616c6c6564207468726f7567682060448201527f64656c656761746563616c6c00000000000000000000000000000000000000006064820152608401610ca8565b7f00000000000000000000000000000000000000000000000000000000000000006001600160a01b03166117127f360894a13ba1a3210667c828492db98dca3e2076cc3735a920a3ca505d382bbc546001600160a01b031690565b6001600160a01b03161461178e5760405162461bcd60e51b815260206004820152602c60248201527f46756e6374696f6e206d7573742062652063616c6c6564207468726f7567682060448201527f6163746976652070726f787900000000000000000000000000000000000000006064820152608401610ca8565b61179782613301565b6117a38282600161338b565b5050565b6000306001600160a01b037f000000000000000000000000000000000000000000000000000000000000000016146118475760405162461bcd60e51b815260206004820152603860248201527f555550535570677261646561626c653a206d757374206e6f742062652063616c60448201527f6c6564207468726f7567682064656c656761746563616c6c00000000000000006064820152608401610ca8565b507f360894a13ba1a3210667c828492db98dca3e2076cc3735a920a3ca505d382bbc90565b611874613217565b6001600160a01b031661188f60fb546001600160a01b031690565b6001600160a01b031614806118aa57506118aa6104ff613217565b6118f65760405162461bcd60e51b815260206004820152601c60248201527f63616c6c6572206973206e6f74206f776e6572206f722061646d696e000000006044820152606401610ca8565b6118ff826136b4565b6119088261371c565b6117a36119148361191b565b8284613783565b6000818152606760205260408120546001600160a01b031680610b015760405162461bcd60e51b815260206004820152601860248201527f4552433732313a20696e76616c696420746f6b656e20494400000000000000006044820152606401610ca8565b611988613217565b6001600160a01b03166119a360fb546001600160a01b031690565b6001600160a01b031614806119be57506119be6104ff613217565b611a0a5760405162461bcd60e51b815260206004820152601c60248201527f63616c6c6572206973206e6f74206f776e6572206f722061646d696e000000006044820152606401610ca8565b610cbb838383613973565b611a1d613217565b6001600160a01b0316611a3860fb546001600160a01b031690565b6001600160a01b03161480611a535750611a536104ff613217565b611a9f5760405162461bcd60e51b815260206004820152601c60248201527f63616c6c6572206973206e6f74206f776e6572206f722061646d696e000000006044820152606401610ca8565b6001600160a01b038116611b1a5760405162461bcd60e51b8152602060048201526024808201527f4e65772061646d696e2063616e6e6f7420626520746865207a65726f2061646460448201527f72657373000000000000000000000000000000000000000000000000000000006064820152608401610ca8565b6001600160a01b0381166000818152610199602090815260409182902080547fffffffffffffffffffffffffffffffffffffffffffffffffffffffffffffff001660019081179091558251938452908301527f235bc17e7930760029e9f4d860a2a8089976de5b381cf8380fc11c1d88a111339101610df1565b60006001600160a01b038216611c125760405162461bcd60e51b815260206004820152602960248201527f4552433732313a2061646472657373207a65726f206973206e6f74206120766160448201527f6c6964206f776e657200000000000000000000000000000000000000000000006064820152608401610ca8565b506001600160a01b031660009081526068602052604090205490565b611c36613ab0565b61148d6000613b29565b611c48613217565b6001600160a01b0316611c6360fb546001600160a01b031690565b6001600160a01b03161480611c7e5750611c7e6104ff613217565b611cca5760405162461bcd60e51b815260206004820152601c60248201527f63616c6c6572206973206e6f74206f776e6572206f722061646d696e000000006044820152606401610ca8565b611cd382612f42565b6117a38282613b93565b611ce5613217565b6001600160a01b0316611d0060fb546001600160a01b031690565b6001600160a01b03161480611d1b5750611d1b6104ff613217565b611d675760405162461bcd60e51b815260206004820152601c60248201527f63616c6c6572206973206e6f74206f776e6572206f722061646d696e000000006044820152606401610ca8565b80516117a390610192906020840190615000565b611d83613226565b6040517ff6aacfb1000000000000000000000000000000000000000000000000000000008152600481018290528190309063f6aacfb190602401602060405180830381865afa158015611dda573d6000803e3d6000fd5b505050506040513d601f19601f82011682018060405250810190611dfe91906157cc565b15611e4b5760405162461bcd60e51b815260206004820152600f60248201527f546f6b656e206973206c6f636b656400000000000000000000000000000000006044820152606401610ca8565b611e5c611e56613217565b836135da565b611ece5760405162461bcd60e51b815260206004820152602560248201527f63616c6c6572206973206e6f7420746f6b656e206f776e6572206f722061707060448201527f726f7665640000000000000000000000000000000000000000000000000000006064820152608401610ca8565b6117a382613c51565b611edf613217565b6001600160a01b0316611efa60fb546001600160a01b031690565b6001600160a01b03161480611f155750611f156104ff613217565b611f615760405162461bcd60e51b815260206004820152601c60248201527f63616c6c6572206973206e6f74206f776e6572206f722061646d696e000000006044820152606401610ca8565b61148d613cbb565b600054610100900460ff1615808015611f895750600054600160ff909116105b80611fa35750303b158015611fa3575060005460ff166001145b6120155760405162461bcd60e51b815260206004820152602e60248201527f496e697469616c697a61626c653a20636f6e747261637420697320616c72656160448201527f647920696e697469616c697a65640000000000000000000000000000000000006064820152608401610ca8565b600080547fffffffffffffffffffffffffffffffffffffffffffffffffffffffffffffff00166001179055801561207357600080547fffffffffffffffffffffffffffffffffffffffffffffffffffffffffffff00ff166101001790555b61207d8686613d17565b612085613d9e565b61208d613e23565b612095613ea8565b61209d613ea8565b6120a5613f25565b6120ae84611cdd565b60005b828110156120f3576120e38484838181106120ce576120ce61598e565b90506020020160208101906106eb91906151cc565b6120ec816159bd565b90506120b1565b50801561215757600080547fffffffffffffffffffffffffffffffffffffffffffffffffffffffffffff00ff169055604051600181527f7f26b83ff96e1f2b6a682f133852f6798a09c465da95921460cefb38474024989060200160405180910390a15b505050505050565b6000612169613226565b612171613217565b6001600160a01b031661218c60fb546001600160a01b031690565b6001600160a01b031614806121a757506121a76104ff613217565b6121f35760405162461bcd60e51b815260206004820152601c60248201527f63616c6c6572206973206e6f74206f776e6572206f722061646d696e000000006044820152606401610ca8565b6001610193600082825461220791906159f6565b9250508190555061221e8561019354868686613fc1565b90505b949350505050565b606060668054610b1690615778565b612240613217565b6001600160a01b031661225b60fb546001600160a01b031690565b6001600160a01b0316148061227657506122766104ff613217565b6122c25760405162461bcd60e51b815260206004820152601c60248201527f63616c6c6572206973206e6f74206f776e6572206f722061646d696e000000006044820152606401610ca8565b61148d600061019655565b60006122d7613226565b6122df613217565b6001600160a01b03166122fa60fb546001600160a01b031690565b6001600160a01b0316148061231557506123156104ff613217565b6123615760405162461bcd60e51b815260206004820152601c60248201527f63616c6c6572206973206e6f74206f776e6572206f722061646d696e000000006044820152606401610ca8565b67ffffffffffffffff8216156123fd5760008061237e8442615a0e565b905060005b868110156123f5578061019354600161239c91906159f6565b6123a691906159f6565b92506123da89848a8a858181106123bf576123bf61598e565b90506020020160208101906123d491906151cc565b89614014565b506123e5838361279d565b6123ee816159bd565b9050612383565b505050612467565b60005b8481101561246557612454878261019354600161241d91906159f6565b61242791906159f6565b8888858181106124395761243961598e565b905060200201602081019061244e91906151cc565b87614014565b5061245e816159bd565b9050612400565b505b84849050610193600082825461247d91906159f6565b909155506001979650505050505050565b816daaeb6d7670e522a718067333cd4e3b1561257a576040517fc61711340000000000000000000000000000000000000000000000000000000081523060048201526001600160a01b03821660248201526daaeb6d7670e522a718067333cd4e9063c617113490604401602060405180830381865afa158015612515573d6000803e3d6000fd5b505050506040513d601f19601f8201168201806040525081019061253991906157cc565b61257a576040517fede71dcc0000000000000000000000000000000000000000000000000000000081526001600160a01b0382166004820152602401610ca8565b610cbb838361404c565b836daaeb6d7670e522a718067333cd4e3b1561267c576125a2613217565b6001600160a01b0316816001600160a01b031614156125cc576125c78585858561405e565b612688565b6daaeb6d7670e522a718067333cd4e63c6171134306125e9613217565b6040517fffffffff0000000000000000000000000000000000000000000000000000000060e085901b1681526001600160a01b03928316600482015291166024820152604401602060405180830381865afa15801561264c573d6000803e3d6000fd5b505050506040513d601f19601f8201168201806040525081019061267091906157cc565b61267c576110fc613217565b6126888585858561405e565b5050505050565b6060600061269c8361123e565b90506101926126aa826130e5565b6126b3856130e5565b6040516020016126c593929190615a31565b604051602081830303815290604052915050919050565b6126e4613217565b6001600160a01b03166126ff60fb546001600160a01b031690565b6001600160a01b0316148061271a575061271a6104ff613217565b6127665760405162461bcd60e51b815260206004820152601c60248201527f63616c6c6572206973206e6f74206f776e6572206f722061646d696e000000006044820152606401610ca8565b61019180547fffffffffffffffffffffffff0000000000000000000000000000000000000000166001600160a01b03831617905550565b6127a5613217565b6001600160a01b03166127c060fb546001600160a01b031690565b6001600160a01b031614806127db57506127db6104ff613217565b6128275760405162461bcd60e51b815260206004820152601c60248201527f63616c6c6572206973206e6f74206f776e6572206f722061646d696e000000006044820152606401610ca8565b61283082612f42565b6000828152610198602090815260409182902080547fffffffffffffffffffffffffffffffffffffffffffffffff00000000000000001667ffffffffffffffff8516908117909155915191825283917f2ec2be2c4b90c2cf13ecb6751a24daed6bb741ae5ed3f7371aabf9402f6d62e8910160405180910390a25050565b6128b6613217565b6001600160a01b03166128d160fb546001600160a01b031690565b6001600160a01b031614806128ec57506128ec6104ff613217565b6129385760405162461bcd60e51b815260206004820152601c60248201527f63616c6c6572206973206e6f74206f776e6572206f722061646d696e000000006044820152606401610ca8565b6117a382826140e7565b61294a613217565b6001600160a01b031661296560fb546001600160a01b031690565b6001600160a01b0316148061298057506129806104ff613217565b6129cc5760405162461bcd60e51b815260206004820152601c60248201527f63616c6c6572206973206e6f74206f776e6572206f722061646d696e000000006044820152606401610ca8565b60009081526101976020526040812055565b6129e6613217565b6001600160a01b0316612a0160fb546001600160a01b031690565b6001600160a01b03161480612a1c5750612a1c6104ff613217565b612a685760405162461bcd60e51b815260206004820152601c60248201527f63616c6c6572206973206e6f74206f776e6572206f722061646d696e000000006044820152606401610ca8565b612a70613226565b612a79816136b4565b6113f88161371c565b6101928054612a9090615778565b80601f0160208091040260200160405190810160405280929190818152602001828054612abc90615778565b8015612b095780601f10612ade57610100808354040283529160200191612b09565b820191906000526020600020905b815481529060010190602001808311612aec57829003601f168201915b505050505081565b60006001600160a01b0382166e6c3852cbef3e08e8df289169ede5811480612b5257506001600160a01b0382166000908152610199602052604090205460ff165b15612b5f57506001610b01565b6001600160a01b038084166000908152606a602090815260408083209386168352929052205460ff165b9392505050565b612b98613ab0565b6001600160a01b038116612c145760405162461bcd60e51b815260206004820152602660248201527f4f776e61626c653a206e6577206f776e657220697320746865207a65726f206160448201527f64647265737300000000000000000000000000000000000000000000000000006064820152608401610ca8565b6113f881613b29565b6000612c27613226565b612c2f613217565b6001600160a01b0316612c4a60fb546001600160a01b031690565b6001600160a01b03161480612c655750612c656104ff613217565b612cb15760405162461bcd60e51b815260206004820152601c60248201527f63616c6c6572206973206e6f74206f776e6572206f722061646d696e000000006044820152606401610ca8565b67ffffffffffffffff821615612d3f57600080612cce8442615a0e565b905060005b87811015612d375780610193546001612cec91906159f6565b612cf691906159f6565b9250612d1c898983818110612d0d57612d0d61598e565b90506020020135848989614014565b50612d27838361279d565b612d30816159bd565b9050612cd3565b505050612d9b565b60005b85811015612d9957612d88878783818110612d5f57612d5f61598e565b9050602002013582610193546001612d7791906159f6565b612d8191906159f6565b8787614014565b50612d92816159bd565b9050612d42565b505b85859050610193600082825461247d91906159f6565b612db9613217565b6001600160a01b0316612dd460fb546001600160a01b031690565b6001600160a01b03161480612def5750612def6104ff613217565b612e3b5760405162461bcd60e51b815260206004820152601c60248201527f63616c6c6572206973206e6f74206f776e6572206f722061646d696e000000006044820152606401610ca8565b612e43613226565b612e4c82612f42565b6000918252610194602052604090912055565b60007fffffffff0000000000000000000000000000000000000000000000000000000082167f80ac58cd000000000000000000000000000000000000000000000000000000001480612ef257507fffffffff0000000000000000000000000000000000000000000000000000000082167f5b5e139f00000000000000000000000000000000000000000000000000000000145b80610b0157507f01ffc9a7000000000000000000000000000000000000000000000000000000007fffffffff00000000000000000000000000000000000000000000000000000000831614610b01565b6000818152606760205260409020546001600160a01b03166113f85760405162461bcd60e51b815260206004820152601860248201527f4552433732313a20696e76616c696420746f6b656e20494400000000000000006044820152606401610ca8565b6000612fb18261191b565b9050806001600160a01b0316836001600160a01b0316141561303b5760405162461bcd60e51b815260206004820152602160248201527f4552433732313a20617070726f76616c20746f2063757272656e74206f776e6560448201527f72000000000000000000000000000000000000000000000000000000000000006064820152608401610ca8565b806001600160a01b031661304d613217565b6001600160a01b031614806130695750613069816109c9613217565b6130db5760405162461bcd60e51b815260206004820152603e60248201527f4552433732313a20617070726f76652063616c6c6572206973206e6f7420746f60448201527f6b656e206f776e6572206e6f7220617070726f76656420666f7220616c6c00006064820152608401610ca8565b610cbb8383614213565b60608161312557505060408051808201909152600181527f3000000000000000000000000000000000000000000000000000000000000000602082015290565b8160005b811561314f5780613139816159bd565b91506131489050600a8361597a565b9150613129565b60008167ffffffffffffffff81111561316a5761316a615245565b6040519080825280601f01601f191660200182016040528015613194576020820181803683370190505b5090505b8415612221576131a9600183615a93565b91506131b6600a86615aaa565b6131c19060306159f6565b60f81b8183815181106131d6576131d661598e565b60200101907effffffffffffffffffffffffffffffffffffffffffffffffffffffffffffff1916908160001a905350613210600a8661597a565b9450613198565b6000613221614299565b905090565b60c95460ff161561148d5760405162461bcd60e51b815260206004820152601060248201527f5061757361626c653a20706175736564000000000000000000000000000000006044820152606401610ca8565b613284611597613217565b6132f65760405162461bcd60e51b815260206004820152602e60248201527f4552433732313a2063616c6c6572206973206e6f7420746f6b656e206f776e6560448201527f72206e6f7220617070726f7665640000000000000000000000000000000000006064820152608401610ca8565b610cbb838383613783565b613309613217565b6001600160a01b031661332460fb546001600160a01b031690565b6001600160a01b0316148061333f575061333f6104ff613217565b6113f85760405162461bcd60e51b815260206004820152601c60248201527f63616c6c6572206973206e6f74206f776e6572206f722061646d696e000000006044820152606401610ca8565b7f4910fdfa16fed3260ed0e7147f7cc6da11a60208b5b9406d12a635614ffd91435460ff16156133be57610cbb836142ec565b826001600160a01b03166352d1902d6040518163ffffffff1660e01b8152600401602060405180830381865afa925050508015613436575060408051601f3d9081017fffffffffffffffffffffffffffffffffffffffffffffffffffffffffffffffe016820190925261343391810190615abe565b60015b6134a85760405162461bcd60e51b815260206004820152602e60248201527f45524331393637557067726164653a206e657720696d706c656d656e7461746960448201527f6f6e206973206e6f7420555550530000000000000000000000000000000000006064820152608401610ca8565b7f360894a13ba1a3210667c828492db98dca3e2076cc3735a920a3ca505d382bbc811461353d5760405162461bcd60e51b815260206004820152602960248201527f45524331393637557067726164653a20756e737570706f727465642070726f7860448201527f6961626c655555494400000000000000000000000000000000000000000000006064820152608401610ca8565b50610cbb8383836143c2565b6135516143e7565b60c980547fffffffffffffffffffffffffffffffffffffffffffffffffffffffffffffff001690557f5db9ee0a495bf2e6ff9c91a7834c1ba4fdd244a5e8aa4e537bd38aeae4b073aa6135a2613217565b6040516001600160a01b03909116815260200160405180910390a1565b610cbb83838360405180602001604052806000815250612584565b6000806135e68361191b565b9050806001600160a01b0316846001600160a01b0316148061360d575061360d8185612b11565b806122215750836001600160a01b031661362684610b99565b6001600160a01b031614949350505050565b61364181614439565b600090815261019460209081526040808320839055610195825280832080547fffffffffffffffffffffffffffffffffffffffffffffffffffffffffffffff00169055610198909152902080547fffffffffffffffffffffffffffffffffffffffffffffffff0000000000000000169055565b6136bd81612f42565b6000818152610195602052604090205460ff166113f85760405162461bcd60e51b815260206004820152601360248201527f546f6b656e206973206e6f74206c6f636b6564000000000000000000000000006044820152606401610ca8565b600081815261019560205260409081902080547fffffffffffffffffffffffffffffffffffffffffffffffffffffffffffffff00169055517ff27b6ce5b2f5e68ddb2fd95a8a909d4ecf1daaac270935fff052feacb24f184290610df19083815260200190565b826001600160a01b03166137968261191b565b6001600160a01b0316146138125760405162461bcd60e51b815260206004820152602560248201527f4552433732313a207472616e736665722066726f6d20696e636f72726563742060448201527f6f776e65720000000000000000000000000000000000000000000000000000006064820152608401610ca8565b6001600160a01b03821661388d5760405162461bcd60e51b8152602060048201526024808201527f4552433732313a207472616e7366657220746f20746865207a65726f2061646460448201527f72657373000000000000000000000000000000000000000000000000000000006064820152608401610ca8565b6138988383836144f8565b6138a3600082614213565b6001600160a01b03831660009081526068602052604081208054600192906138cc908490615a93565b90915550506001600160a01b03821660009081526068602052604081208054600192906138fa9084906159f6565b909155505060008181526067602052604080822080547fffffffffffffffffffffffff0000000000000000000000000000000000000000166001600160a01b0386811691821790925591518493918716917fddf252ad1be2c89b69c2b068fc378daa952ba7f163c4a11628f55a4df523b3ef91a4505050565b6127106bffffffffffffffffffffffff821611156139f95760405162461bcd60e51b815260206004820152602a60248201527f455243323938313a20726f79616c7479206665652077696c6c2065786365656460448201527f2073616c655072696365000000000000000000000000000000000000000000006064820152608401610ca8565b6001600160a01b038216613a4f5760405162461bcd60e51b815260206004820152601b60248201527f455243323938313a20496e76616c696420706172616d657465727300000000006044820152606401610ca8565b6040805180820182526001600160a01b0393841681526bffffffffffffffffffffffff928316602080830191825260009687526101979052919094209351905190911674010000000000000000000000000000000000000000029116179055565b613ab8613217565b6001600160a01b0316613ad360fb546001600160a01b031690565b6001600160a01b03161461148d5760405162461bcd60e51b815260206004820181905260248201527f4f776e61626c653a2063616c6c6572206973206e6f7420746865206f776e65726044820152606401610ca8565b60fb80546001600160a01b038381167fffffffffffffffffffffffff0000000000000000000000000000000000000000831681179093556040519116919082907f8be0079c531659141344cd1fd0a4f28419497f9722a3daafe3b4186f6b6457e090600090a35050565b6000828152610198602052604081205467ffffffffffffffff169081613bc457613bbd8342615a0e565b9050613bd1565b613bce8383615a0e565b90505b6000848152610198602090815260409182902080547fffffffffffffffffffffffffffffffffffffffffffffffff00000000000000001667ffffffffffffffff8516908117909155915191825285917f2ec2be2c4b90c2cf13ecb6751a24daed6bb741ae5ed3f7371aabf9402f6d62e8910160405180910390a250505050565b600081815261019560205260409081902080547fffffffffffffffffffffffffffffffffffffffffffffffffffffffffffffff00166001179055517f032bc66be43dbccb7487781d168eb7bda224628a3b2c3388bdf69b532a3a161190610df19083815260200190565b613cc3613226565b60c980547fffffffffffffffffffffffffffffffffffffffffffffffffffffffffffffff001660011790557f62e78cea01bee320cd4e420270b5ea74000d11b0c9f74754ebdbfc544b05a2586135a2613217565b600054610100900460ff16613d945760405162461bcd60e51b815260206004820152602b60248201527f496e697469616c697a61626c653a20636f6e7472616374206973206e6f74206960448201527f6e697469616c697a696e670000000000000000000000000000000000000000006064820152608401610ca8565b6117a382826145c8565b600054610100900460ff16613e1b5760405162461bcd60e51b815260206004820152602b60248201527f496e697469616c697a61626c653a20636f6e7472616374206973206e6f74206960448201527f6e697469616c697a696e670000000000000000000000000000000000000000006064820152608401610ca8565b61148d61466c565b600054610100900460ff16613ea05760405162461bcd60e51b815260206004820152602b60248201527f496e697469616c697a61626c653a20636f6e7472616374206973206e6f74206960448201527f6e697469616c697a696e670000000000000000000000000000000000000000006064820152608401610ca8565b61148d614713565b600054610100900460ff1661148d5760405162461bcd60e51b815260206004820152602b60248201527f496e697469616c697a61626c653a20636f6e7472616374206973206e6f74206960448201527f6e697469616c697a696e670000000000000000000000000000000000000000006064820152608401610ca8565b600054610100900460ff16613fa25760405162461bcd60e51b815260206004820152602b60248201527f496e697469616c697a61626c653a20636f6e7472616374206973206e6f74206960448201527f6e697469616c697a696e670000000000000000000000000000000000000000006064820152608401610ca8565b61148d733cc6cdda760b79bafa08df41ecfa224f810dceb660016147a0565b6000613fcd84866149f9565b6000858152610194602052604090208690558215613fee57613fee85613c51565b67ffffffffffffffff821615614008576140088583613b93565b50600195945050505050565b600061402083856149f9565b60008481526101946020526040902085905581156140415761404184613c51565b506001949350505050565b6117a3614057613217565b8383614b5f565b614069611e56613217565b6140db5760405162461bcd60e51b815260206004820152602e60248201527f4552433732313a2063616c6c6572206973206e6f7420746f6b656e206f776e6560448201527f72206e6f7220617070726f7665640000000000000000000000000000000000006064820152608401610ca8565b61114584848484614c4c565b6127106bffffffffffffffffffffffff8216111561416d5760405162461bcd60e51b815260206004820152602a60248201527f455243323938313a20726f79616c7479206665652077696c6c2065786365656460448201527f2073616c655072696365000000000000000000000000000000000000000000006064820152608401610ca8565b6001600160a01b0382166141c35760405162461bcd60e51b815260206004820152601960248201527f455243323938313a20696e76616c6964207265636569766572000000000000006044820152606401610ca8565b604080518082019091526001600160a01b039092168083526bffffffffffffffffffffffff9091166020909201829052740100000000000000000000000000000000000000009091021761019655565b600081815260696020526040902080547fffffffffffffffffffffffff0000000000000000000000000000000000000000166001600160a01b03841690811790915581906142608261191b565b6001600160a01b03167f8c5be1e5ebec7d5bd14f71427d1e84f3dd0314c0f7b2291e5b200ac8c7c3b92560405160405180910390a45050565b6000601436108015906142b75750610191546001600160a01b031633145b156142e757507fffffffffffffffffffffffffffffffffffffffffffffffffffffffffffffffec36013560601c90565b503390565b6001600160a01b0381163b6143695760405162461bcd60e51b815260206004820152602d60248201527f455243313936373a206e657720696d706c656d656e746174696f6e206973206e60448201527f6f74206120636f6e7472616374000000000000000000000000000000000000006064820152608401610ca8565b7f360894a13ba1a3210667c828492db98dca3e2076cc3735a920a3ca505d382bbc80547fffffffffffffffffffffffff0000000000000000000000000000000000000000166001600160a01b0392909216919091179055565b6143cb83614cd5565b6000825111806143d85750805b15610cbb576111458383614d15565b60c95460ff1661148d5760405162461bcd60e51b815260206004820152601460248201527f5061757361626c653a206e6f74207061757365640000000000000000000000006044820152606401610ca8565b60006144448261191b565b9050614452816000846144f8565b61445d600083614213565b6001600160a01b0381166000908152606860205260408120805460019290614486908490615a93565b909155505060008281526067602052604080822080547fffffffffffffffffffffffff0000000000000000000000000000000000000000169055518391906001600160a01b038416907fddf252ad1be2c89b69c2b068fc378daa952ba7f163c4a11628f55a4df523b3ef908390a45050565b614500613226565b6040517ff6aacfb1000000000000000000000000000000000000000000000000000000008152600481018290528190309063f6aacfb190602401602060405180830381865afa158015614557573d6000803e3d6000fd5b505050506040513d601f19601f8201168201806040525081019061457b91906157cc565b156110475760405162461bcd60e51b815260206004820152600f60248201527f546f6b656e206973206c6f636b656400000000000000000000000000000000006044820152606401610ca8565b600054610100900460ff166146455760405162461bcd60e51b815260206004820152602b60248201527f496e697469616c697a61626c653a20636f6e7472616374206973206e6f74206960448201527f6e697469616c697a696e670000000000000000000000000000000000000000006064820152608401610ca8565b8151614658906065906020850190615000565b508051610cbb906066906020840190615000565b600054610100900460ff166146e95760405162461bcd60e51b815260206004820152602b60248201527f496e697469616c697a61626c653a20636f6e7472616374206973206e6f74206960448201527f6e697469616c697a696e670000000000000000000000000000000000000000006064820152608401610ca8565b60c980547fffffffffffffffffffffffffffffffffffffffffffffffffffffffffffffff00169055565b600054610100900460ff166147905760405162461bcd60e51b815260206004820152602b60248201527f496e697469616c697a61626c653a20636f6e7472616374206973206e6f74206960448201527f6e697469616c697a696e670000000000000000000000000000000000000000006064820152608401610ca8565b61148d61479b613217565b613b29565b600054610100900460ff1661481d5760405162461bcd60e51b815260206004820152602b60248201527f496e697469616c697a61626c653a20636f6e7472616374206973206e6f74206960448201527f6e697469616c697a696e670000000000000000000000000000000000000000006064820152608401610ca8565b6daaeb6d7670e522a718067333cd4e3b156117a3576040517fc3c5a5470000000000000000000000000000000000000000000000000000000081523060048201526daaeb6d7670e522a718067333cd4e9063c3c5a547906024016020604051808303816000875af1158015614896573d6000803e3d6000fd5b505050506040513d601f19601f820116820180604052508101906148ba91906157cc565b6117a3578015614947576040517f7d3e3dbe0000000000000000000000000000000000000000000000000000000081523060048201526001600160a01b03831660248201526daaeb6d7670e522a718067333cd4e90637d3e3dbe906044015b600060405180830381600087803b15801561493357600080fd5b505af1158015612157573d6000803e3d6000fd5b6001600160a01b038216156149af576040517fa0af29030000000000000000000000000000000000000000000000000000000081523060048201526001600160a01b03831660248201526daaeb6d7670e522a718067333cd4e9063a0af290390604401614919565b6040517f4420e4860000000000000000000000000000000000000000000000000000000081523060048201526daaeb6d7670e522a718067333cd4e90634420e48690602401614919565b6001600160a01b038216614a4f5760405162461bcd60e51b815260206004820181905260248201527f4552433732313a206d696e7420746f20746865207a65726f20616464726573736044820152606401610ca8565b6000818152606760205260409020546001600160a01b031615614ab45760405162461bcd60e51b815260206004820152601c60248201527f4552433732313a20746f6b656e20616c7265616479206d696e746564000000006044820152606401610ca8565b614ac0600083836144f8565b6001600160a01b0382166000908152606860205260408120805460019290614ae99084906159f6565b909155505060008181526067602052604080822080547fffffffffffffffffffffffff0000000000000000000000000000000000000000166001600160a01b03861690811790915590518392907fddf252ad1be2c89b69c2b068fc378daa952ba7f163c4a11628f55a4df523b3ef908290a45050565b816001600160a01b0316836001600160a01b03161415614bc15760405162461bcd60e51b815260206004820152601960248201527f4552433732313a20617070726f766520746f2063616c6c6572000000000000006044820152606401610ca8565b6001600160a01b038381166000818152606a602090815260408083209487168084529482529182902080547fffffffffffffffffffffffffffffffffffffffffffffffffffffffffffffff001686151590811790915591519182527f17307eab39ab6107e8899845ad3d59bd9653f200f220920489ca2b5937696c31910160405180910390a3505050565b614c57848484613783565b614c6384848484614e20565b6111455760405162461bcd60e51b815260206004820152603260248201527f4552433732313a207472616e7366657220746f206e6f6e20455243373231526560448201527f63656976657220696d706c656d656e74657200000000000000000000000000006064820152608401610ca8565b614cde816142ec565b6040516001600160a01b038216907fbc7cd75a20ee27fd9adebab32041f755214dbc6bffa90cc0225b39da2e5c2d3b90600090a250565b60606001600160a01b0383163b614d945760405162461bcd60e51b815260206004820152602660248201527f416464726573733a2064656c65676174652063616c6c20746f206e6f6e2d636f60448201527f6e747261637400000000000000000000000000000000000000000000000000006064820152608401610ca8565b600080846001600160a01b031684604051614daf9190615ad7565b600060405180830381855af49150503d8060008114614dea576040519150601f19603f3d011682016040523d82523d6000602084013e614def565b606091505b5091509150614e178282604051806060016040528060278152602001615b4d60279139614fc7565b95945050505050565b60006001600160a01b0384163b15614fbf57836001600160a01b031663150b7a02614e49613217565b8786866040518563ffffffff1660e01b8152600401614e6b9493929190615af3565b6020604051808303816000875af1925050508015614ec4575060408051601f3d9081017fffffffffffffffffffffffffffffffffffffffffffffffffffffffffffffffe0168201909252614ec191810190615b2f565b60015b614f74573d808015614ef2576040519150601f19603f3d011682016040523d82523d6000602084013e614ef7565b606091505b508051614f6c5760405162461bcd60e51b815260206004820152603260248201527f4552433732313a207472616e7366657220746f206e6f6e20455243373231526560448201527f63656976657220696d706c656d656e74657200000000000000000000000000006064820152608401610ca8565b805181602001fd5b7fffffffff00000000000000000000000000000000000000000000000000000000167f150b7a0200000000000000000000000000000000000000000000000000000000149050612221565b506001612221565b60608315614fd6575081612b89565b825115614fe65782518084602001fd5b8160405162461bcd60e51b8152600401610ca8919061515a565b82805461500c90615778565b90600052602060002090601f01602090048101928261502e5760008555615074565b82601f1061504757805160ff1916838001178555615074565b82800160010185558215615074579182015b82811115615074578251825591602001919060010190615059565b50615080929150615084565b5090565b5b808211156150805760008155600101615085565b7fffffffff00000000000000000000000000000000000000000000000000000000811681146113f857600080fd5b6000602082840312156150d957600080fd5b8135612b8981615099565b60005b838110156150ff5781810151838201526020016150e7565b838111156111455750506000910152565b600081518084526151288160208601602086016150e4565b601f017fffffffffffffffffffffffffffffffffffffffffffffffffffffffffffffffe0169290920160200192915050565b602081526000612b896020830184615110565b60006020828403121561517f57600080fd5b5035919050565b80356001600160a01b038116811461519d57600080fd5b919050565b600080604083850312156151b557600080fd5b6151be83615186565b946020939093013593505050565b6000602082840312156151de57600080fd5b612b8982615186565b6000806000606084860312156151fc57600080fd5b61520584615186565b925061521360208501615186565b9150604084013590509250925092565b6000806040838503121561523657600080fd5b50508035926020909101359150565b7f4e487b7100000000000000000000000000000000000000000000000000000000600052604160045260246000fd5b600082601f83011261528557600080fd5b813567ffffffffffffffff808211156152a0576152a0615245565b604051601f83017fffffffffffffffffffffffffffffffffffffffffffffffffffffffffffffffe0908116603f011681019082821181831017156152e6576152e6615245565b816040528381528660208588010111156152ff57600080fd5b836020870160208301376000602085830101528094505050505092915050565b6000806040838503121561533257600080fd5b61533b83615186565b9150602083013567ffffffffffffffff81111561535757600080fd5b61536385828601615274565b9150509250929050565b6000806040838503121561538057600080fd5b8235915061539060208401615186565b90509250929050565b80356bffffffffffffffffffffffff8116811461519d57600080fd5b6000806000606084860312156153ca57600080fd5b833592506153da60208501615186565b91506153e860408501615399565b90509250925092565b803567ffffffffffffffff8116811461519d57600080fd5b6000806040838503121561541c57600080fd5b82359150615390602084016153f1565b60006020828403121561543e57600080fd5b813567ffffffffffffffff81111561545557600080fd5b61222184828501615274565b60008083601f84011261547357600080fd5b50813567ffffffffffffffff81111561548b57600080fd5b6020830191508360208260051b850101111561123757600080fd5b6000806000806000608086880312156154be57600080fd5b853567ffffffffffffffff808211156154d657600080fd5b6154e289838a01615274565b965060208801359150808211156154f857600080fd5b61550489838a01615274565b9550604088013591508082111561551a57600080fd5b61552689838a01615274565b9450606088013591508082111561553c57600080fd5b5061554988828901615461565b969995985093965092949392505050565b80151581146113f857600080fd5b6000806000806080858703121561557e57600080fd5b8435935061558e60208601615186565b9250604085013561559e8161555a565b91506155ac606086016153f1565b905092959194509250565b6000806000806000608086880312156155cf57600080fd5b85359450602086013567ffffffffffffffff8111156155ed57600080fd5b6155f988828901615461565b909550935050604086013561560d8161555a565b915061561b606087016153f1565b90509295509295909350565b6000806040838503121561563a57600080fd5b61564383615186565b915060208301356156538161555a565b809150509250929050565b6000806000806080858703121561567457600080fd5b61567d85615186565b935061568b60208601615186565b925060408501359150606085013567ffffffffffffffff8111156156ae57600080fd5b6156ba87828801615274565b91505092959194509250565b600080604083850312156156d957600080fd5b6156e283615186565b915061539060208401615399565b6000806040838503121561570357600080fd5b61570c83615186565b915061539060208401615186565b60008060008060006080868803121561573257600080fd5b853567ffffffffffffffff81111561574957600080fd5b61575588828901615461565b9096509450615768905060208701615186565b9250604086013561560d8161555a565b600181811c9082168061578c57607f821691505b602082108114156157c6577f4e487b7100000000000000000000000000000000000000000000000000000000600052602260045260246000fd5b50919050565b6000602082840312156157de57600080fd5b8151612b898161555a565b8054600090600181811c908083168061580357607f831692505b602080841082141561583e577f4e487b7100000000000000000000000000000000000000000000000000000000600052602260045260246000fd5b8180156158525760018114615881576158ae565b7fffffffffffffffffffffffffffffffffffffffffffffffffffffffffffffff008616895284890196506158ae565b60008881526020902060005b868110156158a65781548b82015290850190830161588d565b505084890196505b50505050505092915050565b60006158c682856157e9565b83516158d68183602088016150e4565b01949350505050565b7f4e487b7100000000000000000000000000000000000000000000000000000000600052601160045260246000fd5b6000817fffffffffffffffffffffffffffffffffffffffffffffffffffffffffffffffff0483118215151615615946576159466158df565b500290565b7f4e487b7100000000000000000000000000000000000000000000000000000000600052601260045260246000fd5b6000826159895761598961594b565b500490565b7f4e487b7100000000000000000000000000000000000000000000000000000000600052603260045260246000fd5b60007fffffffffffffffffffffffffffffffffffffffffffffffffffffffffffffffff8214156159ef576159ef6158df565b5060010190565b60008219821115615a0957615a096158df565b500190565b600067ffffffffffffffff8083168185168083038211156158d6576158d66158df565b6000615a3d82866157e9565b8451615a4d8183602089016150e4565b7f2f0000000000000000000000000000000000000000000000000000000000000091019081528351615a868160018401602088016150e4565b0160010195945050505050565b600082821015615aa557615aa56158df565b500390565b600082615ab957615ab961594b565b500690565b600060208284031215615ad057600080fd5b5051919050565b60008251615ae98184602087016150e4565b9190910192915050565b60006001600160a01b03808716835280861660208401525083604083015260806060830152615b256080830184615110565b9695505050505050565b600060208284031215615b4157600080fd5b8151612b898161509956fe416464726573733a206c6f772d6c6576656c2064656c65676174652063616c6c206661696c6564a264697066735822122018f4f4cce41e61ca7a350b355b059973e46dc0262f7527b2820948314ac59e5c64736f6c634300080c0033",
  "linkReferences": {},
  "deployedLinkReferences": {}
}