{
  "_format": "hh-sol-artifact-1",
  "contractName": "UVCollectable",
  "sourceName": "contracts/UVCollectable.sol",
  "abi": [
    {
      "inputs": [],
      "stateMutability": "nonpayable",
      "type": "constructor"
    },
    {
      "anonymous": false,
      "inputs": [
        {
          "indexed": false,
          "internalType": "address",
          "name": "previousAdmin",
          "type": "address"
        },
        {
          "indexed": false,
          "internalType": "address",
          "name": "newAdmin",
          "type": "address"
        }
      ],
      "name": "AdminChanged",
      "type": "event"
    },
    {
      "anonymous": false,
      "inputs": [
        {
          "indexed": false,
          "internalType": "address",
          "name": "admin",
          "type": "address"
        },
        {
          "indexed": false,
          "internalType": "bool",
          "name": "added",
          "type": "bool"
        }
      ],
      "name": "AdminUpdated",
      "type": "event"
    },
    {
      "anonymous": false,
      "inputs": [
        {
          "indexed": true,
          "internalType": "address",
          "name": "owner",
          "type": "address"
        },
        {
          "indexed": true,
          "internalType": "address",
          "name": "approved",
          "type": "address"
        },
        {
          "indexed": true,
          "internalType": "uint256",
          "name": "tokenId",
          "type": "uint256"
        }
      ],
      "name": "Approval",
      "type": "event"
    },
    {
      "anonymous": false,
      "inputs": [
        {
          "indexed": true,
          "internalType": "address",
          "name": "owner",
          "type": "address"
        },
        {
          "indexed": true,
          "internalType": "address",
          "name": "operator",
          "type": "address"
        },
        {
          "indexed": false,
          "internalType": "bool",
          "name": "approved",
          "type": "bool"
        }
      ],
      "name": "ApprovalForAll",
      "type": "event"
    },
    {
      "anonymous": false,
      "inputs": [
        {
          "indexed": true,
          "internalType": "address",
          "name": "beacon",
          "type": "address"
        }
      ],
      "name": "BeaconUpgraded",
      "type": "event"
    },
    {
      "anonymous": false,
      "inputs": [
        {
          "indexed": false,
          "internalType": "uint256",
          "name": "tokenId",
          "type": "uint256"
        }
      ],
      "name": "Frozen",
      "type": "event"
    },
    {
      "anonymous": false,
      "inputs": [
        {
          "indexed": false,
          "internalType": "uint8",
          "name": "version",
          "type": "uint8"
        }
      ],
      "name": "Initialized",
      "type": "event"
    },
    {
      "anonymous": false,
      "inputs": [
        {
          "indexed": true,
          "internalType": "address",
          "name": "previousOwner",
          "type": "address"
        },
        {
          "indexed": true,
          "internalType": "address",
          "name": "newOwner",
          "type": "address"
        }
      ],
      "name": "OwnershipTransferred",
      "type": "event"
    },
    {
      "anonymous": false,
      "inputs": [
        {
          "indexed": false,
          "internalType": "address",
          "name": "account",
          "type": "address"
        }
      ],
      "name": "Paused",
      "type": "event"
    },
    {
      "anonymous": false,
      "inputs": [
        {
          "indexed": true,
          "internalType": "uint256",
          "name": "tokenId",
          "type": "uint256"
        },
        {
          "indexed": false,
          "internalType": "uint64",
          "name": "expiration",
          "type": "uint64"
        }
      ],
      "name": "SubscriptionUpdate",
      "type": "event"
    },
    {
      "anonymous": false,
      "inputs": [
        {
          "indexed": true,
          "internalType": "address",
          "name": "from",
          "type": "address"
        },
        {
          "indexed": true,
          "internalType": "address",
          "name": "to",
          "type": "address"
        },
        {
          "indexed": true,
          "internalType": "uint256",
          "name": "tokenId",
          "type": "uint256"
        }
      ],
      "name": "Transfer",
      "type": "event"
    },
    {
      "anonymous": false,
      "inputs": [
        {
          "indexed": false,
          "internalType": "uint256",
          "name": "tokenId",
          "type": "uint256"
        }
      ],
      "name": "Unfrozen",
      "type": "event"
    },
    {
      "anonymous": false,
      "inputs": [
        {
          "indexed": false,
          "internalType": "address",
          "name": "account",
          "type": "address"
        }
      ],
      "name": "Unpaused",
      "type": "event"
    },
    {
      "anonymous": false,
      "inputs": [
        {
          "indexed": true,
          "internalType": "address",
          "name": "implementation",
          "type": "address"
        }
      ],
      "name": "Upgraded",
      "type": "event"
    },
    {
      "inputs": [
        {
          "internalType": "address",
          "name": "newAdmin",
          "type": "address"
        }
      ],
      "name": "addAdmin",
      "outputs": [],
      "stateMutability": "nonpayable",
      "type": "function"
    },
    {
      "inputs": [
        {
          "internalType": "address",
          "name": "to",
          "type": "address"
        },
        {
          "internalType": "uint256",
          "name": "tokenId",
          "type": "uint256"
        }
      ],
      "name": "approve",
      "outputs": [],
      "stateMutability": "nonpayable",
      "type": "function"
    },
    {
      "inputs": [
        {
          "internalType": "address",
          "name": "owner",
          "type": "address"
        }
      ],
      "name": "balanceOf",
      "outputs": [
        {
          "internalType": "uint256",
          "name": "",
          "type": "uint256"
        }
      ],
      "stateMutability": "view",
      "type": "function"
    },
    {
      "inputs": [
        {
          "internalType": "uint256",
          "name": "tokenId",
          "type": "uint256"
        }
      ],
      "name": "burn",
      "outputs": [],
      "stateMutability": "nonpayable",
      "type": "function"
    },
    {
      "inputs": [
        {
          "internalType": "uint256",
          "name": "tokenId",
          "type": "uint256"
        }
      ],
      "name": "cancelSubscription",
      "outputs": [],
      "stateMutability": "nonpayable",
      "type": "function"
    },
    {
      "inputs": [
        {
          "internalType": "uint256",
          "name": "collectionId",
          "type": "uint256"
        }
      ],
      "name": "collectionURI",
      "outputs": [
        {
          "internalType": "string",
          "name": "",
          "type": "string"
        }
      ],
      "stateMutability": "view",
      "type": "function"
    },
    {
      "inputs": [],
      "name": "contractURI",
      "outputs": [
        {
          "internalType": "string",
          "name": "",
          "type": "string"
        }
      ],
      "stateMutability": "view",
      "type": "function"
    },
    {
      "inputs": [
        {
          "internalType": "uint256",
          "name": "tokenId",
          "type": "uint256"
        }
      ],
      "name": "expiresAt",
      "outputs": [
        {
          "internalType": "uint64",
          "name": "",
          "type": "uint64"
        }
      ],
      "stateMutability": "view",
      "type": "function"
    },
    {
      "inputs": [
        {
          "internalType": "uint256",
          "name": "tokenId",
          "type": "uint256"
        }
      ],
      "name": "freeze",
      "outputs": [],
      "stateMutability": "nonpayable",
      "type": "function"
    },
    {
      "inputs": [
        {
          "internalType": "uint256",
          "name": "tokenId",
          "type": "uint256"
        }
      ],
      "name": "getApproved",
      "outputs": [
        {
          "internalType": "address",
          "name": "",
          "type": "address"
        }
      ],
      "stateMutability": "view",
      "type": "function"
    },
    {
      "inputs": [],
      "name": "getTrustedForwarder",
      "outputs": [
        {
          "internalType": "address",
          "name": "forwarder",
          "type": "address"
        }
      ],
      "stateMutability": "view",
      "type": "function"
    },
    {
      "inputs": [
        {
          "internalType": "string",
          "name": "__name",
          "type": "string"
        },
        {
          "internalType": "string",
          "name": "__symbol",
          "type": "string"
        }
      ],
      "name": "initialize",
      "outputs": [],
      "stateMutability": "nonpayable",
      "type": "function"
    },
    {
      "inputs": [
        {
          "internalType": "address",
          "name": "admin",
          "type": "address"
        }
      ],
      "name": "isAdmin",
      "outputs": [
        {
          "internalType": "bool",
          "name": "",
          "type": "bool"
        }
      ],
      "stateMutability": "view",
      "type": "function"
    },
    {
      "inputs": [
        {
          "internalType": "address",
          "name": "_owner",
          "type": "address"
        },
        {
          "internalType": "address",
          "name": "_operator",
          "type": "address"
        }
      ],
      "name": "isApprovedForAll",
      "outputs": [
        {
          "internalType": "bool",
          "name": "isOperator",
          "type": "bool"
        }
      ],
      "stateMutability": "view",
      "type": "function"
    },
    {
      "inputs": [
        {
          "internalType": "uint256",
          "name": "tokenId",
          "type": "uint256"
        }
      ],
      "name": "isFrozen",
      "outputs": [
        {
          "internalType": "bool",
          "name": "",
          "type": "bool"
        }
      ],
      "stateMutability": "view",
      "type": "function"
    },
    {
      "inputs": [
        {
          "internalType": "uint256",
          "name": "",
          "type": "uint256"
        }
      ],
      "name": "isRenewable",
      "outputs": [
        {
          "internalType": "bool",
          "name": "",
          "type": "bool"
        }
      ],
      "stateMutability": "pure",
      "type": "function"
    },
    {
      "inputs": [
        {
          "internalType": "address",
          "name": "forwarder",
          "type": "address"
        }
      ],
      "name": "isTrustedForwarder",
      "outputs": [
        {
          "internalType": "bool",
          "name": "",
          "type": "bool"
        }
      ],
      "stateMutability": "view",
      "type": "function"
    },
    {
      "inputs": [],
      "name": "lastId",
      "outputs": [
        {
          "internalType": "uint256",
          "name": "",
          "type": "uint256"
        }
      ],
      "stateMutability": "view",
      "type": "function"
    },
    {
      "inputs": [
        {
          "internalType": "uint256",
          "name": "collectionId",
          "type": "uint256"
        },
        {
          "internalType": "address[]",
          "name": "to",
          "type": "address[]"
        },
        {
          "internalType": "bool",
          "name": "frozen",
          "type": "bool"
        },
        {
          "internalType": "uint64",
          "name": "validDuration",
          "type": "uint64"
        }
      ],
      "name": "mintCollectionToManyUsers",
      "outputs": [
        {
          "internalType": "bool",
          "name": "",
          "type": "bool"
        }
      ],
      "stateMutability": "nonpayable",
      "type": "function"
    },
    {
      "inputs": [
        {
          "internalType": "uint256",
          "name": "collectionId",
          "type": "uint256"
        },
        {
          "internalType": "address",
          "name": "to",
          "type": "address"
        },
        {
          "internalType": "bool",
          "name": "frozen",
          "type": "bool"
        },
        {
          "internalType": "uint64",
          "name": "validDuration",
          "type": "uint64"
        }
      ],
      "name": "mintToken",
      "outputs": [
        {
          "internalType": "bool",
          "name": "",
          "type": "bool"
        }
      ],
      "stateMutability": "nonpayable",
      "type": "function"
    },
    {
      "inputs": [
        {
          "internalType": "uint256[]",
          "name": "collectionIds",
          "type": "uint256[]"
        },
        {
          "internalType": "address",
          "name": "to",
          "type": "address"
        },
        {
          "internalType": "bool",
          "name": "frozen",
          "type": "bool"
        },
        {
          "internalType": "uint64",
          "name": "validDuration",
          "type": "uint64"
        }
      ],
      "name": "mintUserToManyCollections",
      "outputs": [
        {
          "internalType": "bool",
          "name": "",
          "type": "bool"
        }
      ],
      "stateMutability": "nonpayable",
      "type": "function"
    },
    {
      "inputs": [],
      "name": "name",
      "outputs": [
        {
          "internalType": "string",
          "name": "",
          "type": "string"
        }
      ],
      "stateMutability": "view",
      "type": "function"
    },
    {
      "inputs": [],
      "name": "owner",
      "outputs": [
        {
          "internalType": "address",
          "name": "",
          "type": "address"
        }
      ],
      "stateMutability": "view",
      "type": "function"
    },
    {
      "inputs": [
        {
          "internalType": "uint256",
          "name": "tokenId",
          "type": "uint256"
        }
      ],
      "name": "ownerOf",
      "outputs": [
        {
          "internalType": "address",
          "name": "",
          "type": "address"
        }
      ],
      "stateMutability": "view",
      "type": "function"
    },
    {
      "inputs": [],
      "name": "pause",
      "outputs": [],
      "stateMutability": "nonpayable",
      "type": "function"
    },
    {
      "inputs": [],
      "name": "paused",
      "outputs": [
        {
          "internalType": "bool",
          "name": "",
          "type": "bool"
        }
      ],
      "stateMutability": "view",
      "type": "function"
    },
    {
      "inputs": [],
      "name": "proxiableUUID",
      "outputs": [
        {
          "internalType": "bytes32",
          "name": "",
          "type": "bytes32"
        }
      ],
      "stateMutability": "view",
      "type": "function"
    },
    {
      "inputs": [
        {
          "internalType": "uint256",
          "name": "tokenId",
          "type": "uint256"
        }
      ],
      "name": "reclaimToken",
      "outputs": [],
      "stateMutability": "nonpayable",
      "type": "function"
    },
    {
      "inputs": [
        {
          "internalType": "address",
          "name": "admin",
          "type": "address"
        }
      ],
      "name": "removeAdmin",
      "outputs": [],
      "stateMutability": "nonpayable",
      "type": "function"
    },
    {
      "inputs": [
        {
          "internalType": "uint256",
          "name": "collectionId",
          "type": "uint256"
        }
      ],
      "name": "removeCollectionRoyalty",
      "outputs": [],
      "stateMutability": "nonpayable",
      "type": "function"
    },
    {
      "inputs": [],
      "name": "removeDefaultRoyalty",
      "outputs": [],
      "stateMutability": "nonpayable",
      "type": "function"
    },
    {
      "inputs": [
        {
          "internalType": "uint256",
          "name": "tokenId",
          "type": "uint256"
        },
        {
          "internalType": "uint64",
          "name": "duration",
          "type": "uint64"
        }
      ],
      "name": "renewSubscription",
      "outputs": [],
      "stateMutability": "nonpayable",
      "type": "function"
    },
    {
      "inputs": [],
      "name": "renounceOwnership",
      "outputs": [],
      "stateMutability": "nonpayable",
      "type": "function"
    },
    {
      "inputs": [
        {
          "internalType": "uint256",
          "name": "_tokenId",
          "type": "uint256"
        },
        {
          "internalType": "uint256",
          "name": "_salePrice",
          "type": "uint256"
        }
      ],
      "name": "royaltyInfo",
      "outputs": [
        {
          "internalType": "address",
          "name": "",
          "type": "address"
        },
        {
          "internalType": "uint256",
          "name": "",
          "type": "uint256"
        }
      ],
      "stateMutability": "view",
      "type": "function"
    },
    {
      "inputs": [
        {
          "internalType": "address",
          "name": "from",
          "type": "address"
        },
        {
          "internalType": "address",
          "name": "to",
          "type": "address"
        },
        {
          "internalType": "uint256",
          "name": "tokenId",
          "type": "uint256"
        }
      ],
      "name": "safeTransferFrom",
      "outputs": [],
      "stateMutability": "nonpayable",
      "type": "function"
    },
    {
      "inputs": [
        {
          "internalType": "address",
          "name": "from",
          "type": "address"
        },
        {
          "internalType": "address",
          "name": "to",
          "type": "address"
        },
        {
          "internalType": "uint256",
          "name": "tokenId",
          "type": "uint256"
        },
        {
          "internalType": "bytes",
          "name": "data",
          "type": "bytes"
        }
      ],
      "name": "safeTransferFrom",
      "outputs": [],
      "stateMutability": "nonpayable",
      "type": "function"
    },
    {
      "inputs": [
        {
          "internalType": "address",
          "name": "operator",
          "type": "address"
        },
        {
          "internalType": "bool",
          "name": "approved",
          "type": "bool"
        }
      ],
      "name": "setApprovalForAll",
      "outputs": [],
      "stateMutability": "nonpayable",
      "type": "function"
    },
    {
      "inputs": [
        {
          "internalType": "uint256",
          "name": "tokenId",
          "type": "uint256"
        },
        {
          "internalType": "uint64",
          "name": "newExpiration",
          "type": "uint64"
        }
      ],
      "name": "setExpiration",
      "outputs": [],
      "stateMutability": "nonpayable",
      "type": "function"
    },
    {
      "inputs": [
        {
          "internalType": "uint256",
          "name": "newLastId",
          "type": "uint256"
        }
      ],
      "name": "setLastId",
      "outputs": [],
      "stateMutability": "nonpayable",
      "type": "function"
    },
    {
      "inputs": [
        {
          "internalType": "address",
          "name": "forwarder",
          "type": "address"
        }
      ],
      "name": "setTurstedForwarder",
      "outputs": [],
      "stateMutability": "nonpayable",
      "type": "function"
    },
    {
      "inputs": [
        {
          "internalType": "bytes4",
          "name": "interfaceId",
          "type": "bytes4"
        }
      ],
      "name": "supportsInterface",
      "outputs": [
        {
          "internalType": "bool",
          "name": "",
          "type": "bool"
        }
      ],
      "stateMutability": "view",
      "type": "function"
    },
    {
      "inputs": [],
      "name": "symbol",
      "outputs": [
        {
          "internalType": "string",
          "name": "",
          "type": "string"
        }
      ],
      "stateMutability": "view",
      "type": "function"
    },
    {
      "inputs": [
        {
          "internalType": "uint256",
          "name": "tokenId",
          "type": "uint256"
        }
      ],
      "name": "tokenCollection",
      "outputs": [
        {
          "internalType": "uint256",
          "name": "",
          "type": "uint256"
        }
      ],
      "stateMutability": "view",
      "type": "function"
    },
    {
      "inputs": [
        {
          "internalType": "uint256",
          "name": "tokenId",
          "type": "uint256"
        }
      ],
      "name": "tokenURI",
      "outputs": [
        {
          "internalType": "string",
          "name": "",
          "type": "string"
        }
      ],
      "stateMutability": "view",
      "type": "function"
    },
    {
      "inputs": [
        {
          "internalType": "address",
          "name": "from",
          "type": "address"
        },
        {
          "internalType": "address",
          "name": "to",
          "type": "address"
        },
        {
          "internalType": "uint256",
          "name": "tokenId",
          "type": "uint256"
        }
      ],
      "name": "transferFrom",
      "outputs": [],
      "stateMutability": "nonpayable",
      "type": "function"
    },
    {
      "inputs": [
        {
          "internalType": "address",
          "name": "newOwner",
          "type": "address"
        }
      ],
      "name": "transferOwnership",
      "outputs": [],
      "stateMutability": "nonpayable",
      "type": "function"
    },
    {
      "inputs": [
        {
          "internalType": "uint256",
          "name": "tokenId",
          "type": "uint256"
        }
      ],
      "name": "unfreeze",
      "outputs": [],
      "stateMutability": "nonpayable",
      "type": "function"
    },
    {
      "inputs": [],
      "name": "unpause",
      "outputs": [],
      "stateMutability": "nonpayable",
      "type": "function"
    },
    {
      "inputs": [
        {
          "internalType": "uint256",
          "name": "collectionId",
          "type": "uint256"
        },
        {
          "internalType": "address",
          "name": "receiver",
          "type": "address"
        },
        {
          "internalType": "uint96",
          "name": "feeNumerator",
          "type": "uint96"
        }
      ],
      "name": "updateCollectionRoyalty",
      "outputs": [],
      "stateMutability": "nonpayable",
      "type": "function"
    },
    {
      "inputs": [
        {
          "internalType": "string",
          "name": "__contractURI",
          "type": "string"
        }
      ],
      "name": "updateContractURI",
      "outputs": [],
      "stateMutability": "nonpayable",
      "type": "function"
    },
    {
      "inputs": [
        {
          "internalType": "address",
          "name": "receiver",
          "type": "address"
        },
        {
          "internalType": "uint96",
          "name": "feeNumerator",
          "type": "uint96"
        }
      ],
      "name": "updateDefaultRoyalty",
      "outputs": [],
      "stateMutability": "nonpayable",
      "type": "function"
    },
    {
      "inputs": [
        {
          "internalType": "address",
          "name": "newImplementation",
          "type": "address"
        }
      ],
      "name": "upgradeTo",
      "outputs": [],
      "stateMutability": "nonpayable",
      "type": "function"
    },
    {
      "inputs": [
        {
          "internalType": "address",
          "name": "newImplementation",
          "type": "address"
        },
        {
          "internalType": "bytes",
          "name": "data",
          "type": "bytes"
        }
      ],
      "name": "upgradeToAndCall",
      "outputs": [],
      "stateMutability": "payable",
      "type": "function"
    }
  ],
  "bytecode": "0x60a0604052306080523480156200001557600080fd5b506200002062000026565b620000e8565b600054610100900460ff1615620000935760405162461bcd60e51b815260206004820152602760248201527f496e697469616c697a61626c653a20636f6e747261637420697320696e697469604482015266616c697a696e6760c81b606482015260840160405180910390fd5b60005460ff9081161015620000e6576000805460ff191660ff9081179091556040519081527f7f26b83ff96e1f2b6a682f133852f6798a09c465da95921460cefb38474024989060200160405180910390a15b565b60805161595d62000120600039600081816113040152818161139a015281816118760152818161190c0152611b29015261595d6000f3fe60806040526004361061034a5760003560e01c806370480275116101bb578063b88d4fde116100f7578063d691e43c11610095578063e8a3d4851161006f578063e8a3d48514610a0d578063e985e9c514610a22578063f2fde38b14610a42578063fb1fcca114610a6257600080fd5b8063d691e43c146109ad578063d7a78db8146109cd578063d953e4d4146109ed57600080fd5b8063cde317af116100d1578063cde317af14610920578063ce1b815f14610941578063cea0302e1461096d578063d1c332de1461098d57600080fd5b8063b88d4fde146108c9578063c1292cc3146108e9578063c87b56dd1461090057600080fd5b80638da5cb5b1161016457806397ec4fba1161013e57806397ec4fba146108435780639a80c5e314610858578063a089479914610878578063a22cb465146108a957600080fd5b80638da5cb5b146107e35780638e45d62e1461080e57806395d89b411461082e57600080fd5b8063776ce86811610195578063776ce8681461078e5780637e5b1e24146107ae5780638456cb59146107ce57600080fd5b8063704802751461073957806370a0823114610759578063715018a61461077957600080fd5b80633659cfe61161028a578063508061a2116102335780635c975abb1161020d5780635c975abb146106c15780636352211e146106d95780636623fc46146106f95780636a662a3c1461071957600080fd5b8063508061a21461064f57806352d1902d1461066f578063572b6c051461068457600080fd5b806342966c681161026457806342966c68146105fc5780634cd88b761461061c5780634f1ef2861461063c57600080fd5b80633659cfe6146105a75780633f4ba83a146105c757806342842e0e146105dc57600080fd5b806317c95709116102f757806323b872dd116102d157806323b872dd146104c657806324d7806c146104e65780632a55205a1461052d5780632dd883e81461057957600080fd5b806317c957091461044d5780631a27e85f1461048657806321235083146104a657600080fd5b8063095ea7b311610328578063095ea7b3146103eb5780631771c96c1461040d5780631785f53c1461042d57600080fd5b806301ffc9a71461034f57806306fdde0314610384578063081812fc146103a6575b600080fd5b34801561035b57600080fd5b5061036f61036a366004614e34565b610a82565b60405190151581526020015b60405180910390f35b34801561039057600080fd5b50610399610b2a565b60405161037b9190614ec7565b3480156103b257600080fd5b506103c66103c1366004614eda565b610bbc565b60405173ffffffffffffffffffffffffffffffffffffffff909116815260200161037b565b3480156103f757600080fd5b5061040b610406366004614f1c565b610bf0565b005b34801561041957600080fd5b50610399610428366004614eda565b610d6d565b34801561043957600080fd5b5061040b610448366004614f46565b610da2565b34801561045957600080fd5b5061046d610468366004614eda565b610edd565b60405167ffffffffffffffff909116815260200161037b565b34801561049257600080fd5b5061040b6104a1366004614eda565b610f06565b3480156104b257600080fd5b5061040b6104c1366004614eda565b611017565b3480156104d257600080fd5b5061040b6104e1366004614f61565b611134565b3480156104f257600080fd5b5061036f610501366004614f46565b73ffffffffffffffffffffffffffffffffffffffff166000908152610199602052604090205460ff1690565b34801561053957600080fd5b5061054d610548366004614f9d565b6111c2565b6040805173ffffffffffffffffffffffffffffffffffffffff909316835260208301919091520161037b565b34801561058557600080fd5b50610599610594366004614eda565b6112cd565b60405190815260200161037b565b3480156105b357600080fd5b5061040b6105c2366004614f46565b6112ec565b3480156105d357600080fd5b5061040b6114be565b3480156105e857600080fd5b5061040b6105f7366004614f61565b611579565b34801561060857600080fd5b5061040b610617366004614eda565b611594565b34801561062857600080fd5b5061040b6106373660046150cb565b61161a565b61040b61064a36600461512f565b61185e565b34801561065b57600080fd5b5061040b61066a366004614eda565b611a21565b34801561067b57600080fd5b50610599611b0f565b34801561069057600080fd5b5061036f61069f366004614f46565b6101915473ffffffffffffffffffffffffffffffffffffffff91821691161490565b3480156106cd57600080fd5b5060c95460ff1661036f565b3480156106e557600080fd5b506103c66106f4366004614eda565b611be1565b34801561070557600080fd5b5061040b610714366004614eda565b611c53565b34801561072557600080fd5b5061040b61073436600461518f565b611d1e565b34801561074557600080fd5b5061040b610754366004614f46565b611dda565b34801561076557600080fd5b50610599610774366004614f46565b611ef1565b34801561078557600080fd5b5061040b611fa5565b34801561079a57600080fd5b5061040b6107a93660046151e3565b611fb7565b3480156107ba57600080fd5b5061040b6107c936600461520f565b61207b565b3480156107da57600080fd5b5061040b612140565b3480156107ef57600080fd5b5060fb5473ffffffffffffffffffffffffffffffffffffffff166103c6565b34801561081a57600080fd5b5061036f61082936600461525d565b6121f9565b34801561083a57600080fd5b506103996122ea565b34801561084f57600080fd5b5061040b6122f9565b34801561086457600080fd5b5061036f6108733660046152d0565b6123b5565b34801561088457600080fd5b5061036f610893366004614eda565b6000908152610195602052604090205460ff1690565b3480156108b557600080fd5b5061040b6108c4366004615381565b612582565b3480156108d557600080fd5b5061040b6108e43660046153b8565b612594565b3480156108f557600080fd5b506105996101935481565b34801561090c57600080fd5b5061039961091b366004614eda565b612629565b34801561092c57600080fd5b5061036f61093b366004614eda565b50600190565b34801561094d57600080fd5b506101915473ffffffffffffffffffffffffffffffffffffffff166103c6565b34801561097957600080fd5b5061040b610988366004614f46565b61267a565b34801561099957600080fd5b5061040b6109a83660046151e3565b61276f565b3480156109b957600080fd5b5061040b6109c8366004615420565b6128a7565b3480156109d957600080fd5b5061040b6109e8366004614eda565b612962565b3480156109f957600080fd5b5061040b610a08366004614eda565b612aec565b348015610a1957600080fd5b50610399612baf565b348015610a2e57600080fd5b5061036f610a3d36600461544a565b612c3e565b348015610a4e57600080fd5b5061040b610a5d366004614f46565b612cb3565b348015610a6e57600080fd5b5061036f610a7d366004615474565b612d4d565b60007fffffffff0000000000000000000000000000000000000000000000000000000082167f8c65f84d000000000000000000000000000000000000000000000000000000001480610b1557507fffffffff0000000000000000000000000000000000000000000000000000000082167f2a55205a00000000000000000000000000000000000000000000000000000000145b80610b245750610b2482612f0a565b92915050565b606060658054610b399061551f565b80601f0160208091040260200160405190810160405280929190818152602001828054610b659061551f565b8015610bb25780601f10610b8757610100808354040283529160200191610bb2565b820191906000526020600020905b815481529060010190602001808311610b9557829003601f168201915b5050505050905090565b6000610bc782612fed565b5060009081526069602052604090205473ffffffffffffffffffffffffffffffffffffffff1690565b6000610bfb82611be1565b90508073ffffffffffffffffffffffffffffffffffffffff168373ffffffffffffffffffffffffffffffffffffffff161415610ca45760405162461bcd60e51b815260206004820152602160248201527f4552433732313a20617070726f76616c20746f2063757272656e74206f776e6560448201527f720000000000000000000000000000000000000000000000000000000000000060648201526084015b60405180910390fd5b8073ffffffffffffffffffffffffffffffffffffffff16610cc361305e565b73ffffffffffffffffffffffffffffffffffffffff161480610cec5750610cec81610a3d61305e565b610d5e5760405162461bcd60e51b815260206004820152603e60248201527f4552433732313a20617070726f76652063616c6c6572206973206e6f7420746f60448201527f6b656e206f776e6572206e6f7220617070726f76656420666f7220616c6c00006064820152608401610c9b565b610d68838361306d565b505050565b6060610192610d7b8361310d565b604051602001610d8c929190615644565b6040516020818303038152906040529050919050565b610daa61305e565b73ffffffffffffffffffffffffffffffffffffffff16610ddf60fb5473ffffffffffffffffffffffffffffffffffffffff1690565b73ffffffffffffffffffffffffffffffffffffffff161480610e075750610e0761050161305e565b610e535760405162461bcd60e51b815260206004820152601c60248201527f63616c6c6572206973206e6f74206f776e6572206f722061646d696e000000006044820152606401610c9b565b73ffffffffffffffffffffffffffffffffffffffff811660008181526101996020908152604080832080547fffffffffffffffffffffffffffffffffffffffffffffffffffffffffffffff001690558051938452908301919091527f235bc17e7930760029e9f4d860a2a8089976de5b381cf8380fc11c1d88a1113391015b60405180910390a150565b6000610ee882612fed565b506000908152610198602052604090205467ffffffffffffffff1690565b610f0e61305e565b73ffffffffffffffffffffffffffffffffffffffff16610f4360fb5473ffffffffffffffffffffffffffffffffffffffff1690565b73ffffffffffffffffffffffffffffffffffffffff161480610f6b5750610f6b61050161305e565b610fb75760405162461bcd60e51b815260206004820152601c60248201527f63616c6c6572206973206e6f74206f776e6572206f722061646d696e000000006044820152606401610c9b565b610fbf61323f565b8061019354106110115760405162461bcd60e51b815260206004820152601760248201527f4e65772049642068617320746f206265206869676865720000000000000000006044820152606401610c9b565b61019355565b61101f61305e565b73ffffffffffffffffffffffffffffffffffffffff1661105460fb5473ffffffffffffffffffffffffffffffffffffffff1690565b73ffffffffffffffffffffffffffffffffffffffff16148061107c575061107c61050161305e565b6110c85760405162461bcd60e51b815260206004820152601c60248201527f63616c6c6572206973206e6f74206f776e6572206f722061646d696e000000006044820152606401610c9b565b60008181526101986020908152604080832080547fffffffffffffffffffffffffffffffffffffffffffffffff00000000000000001690555191825282917f2ec2be2c4b90c2cf13ecb6751a24daed6bb741ae5ed3f7371aabf9402f6d62e8910160405180910390a250565b61114561113f61305e565b82613292565b6111b75760405162461bcd60e51b815260206004820152602e60248201527f4552433732313a2063616c6c6572206973206e6f7420746f6b656e206f776e6560448201527f72206e6f7220617070726f7665640000000000000000000000000000000000006064820152608401610c9b565b610d68838383613324565b60008060006111d0856112cd565b6000818152610197602090815260409182902082518084019093525473ffffffffffffffffffffffffffffffffffffffff8116808452740100000000000000000000000000000000000000009091046bffffffffffffffffffffffff1691830191909152919250906112905750604080518082019091526101965473ffffffffffffffffffffffffffffffffffffffff811682527401000000000000000000000000000000000000000090046bffffffffffffffffffffffff1660208201525b6020810151600090612710906112b4906bffffffffffffffffffffffff1688615698565b6112be9190615704565b91519791965090945050505050565b60006112d882612fed565b506000908152610194602052604090205490565b3073ffffffffffffffffffffffffffffffffffffffff7f00000000000000000000000000000000000000000000000000000000000000001614156113985760405162461bcd60e51b815260206004820152602c60248201527f46756e6374696f6e206d7573742062652063616c6c6564207468726f7567682060448201527f64656c656761746563616c6c00000000000000000000000000000000000000006064820152608401610c9b565b7f000000000000000000000000000000000000000000000000000000000000000073ffffffffffffffffffffffffffffffffffffffff1661140d7f360894a13ba1a3210667c828492db98dca3e2076cc3735a920a3ca505d382bbc5473ffffffffffffffffffffffffffffffffffffffff1690565b73ffffffffffffffffffffffffffffffffffffffff16146114965760405162461bcd60e51b815260206004820152602c60248201527f46756e6374696f6e206d7573742062652063616c6c6564207468726f7567682060448201527f6163746976652070726f787900000000000000000000000000000000000000006064820152608401610c9b565b61149f81613562565b604080516000808252602082019092526114bb91839190613613565b50565b6114c661305e565b73ffffffffffffffffffffffffffffffffffffffff166114fb60fb5473ffffffffffffffffffffffffffffffffffffffff1690565b73ffffffffffffffffffffffffffffffffffffffff161480611523575061152361050161305e565b61156f5760405162461bcd60e51b815260206004820152601c60248201527f63616c6c6572206973206e6f74206f776e6572206f722061646d696e000000006044820152606401610c9b565b6115776137de565b565b610d6883838360405180602001604052806000815250612594565b61159f61113f61305e565b6116115760405162461bcd60e51b815260206004820152602e60248201527f4552433732313a2063616c6c6572206973206e6f7420746f6b656e206f776e6560448201527f72206e6f7220617070726f7665640000000000000000000000000000000000006064820152608401610c9b565b6114bb81613861565b600054610100900460ff161580801561163a5750600054600160ff909116105b806116545750303b158015611654575060005460ff166001145b6116c65760405162461bcd60e51b815260206004820152602e60248201527f496e697469616c697a61626c653a20636f6e747261637420697320616c72656160448201527f647920696e697469616c697a65640000000000000000000000000000000000006064820152608401610c9b565b600080547fffffffffffffffffffffffffffffffffffffffffffffffffffffffffffffff00166001179055801561172457600080547fffffffffffffffffffffffffffffffffffffffffffffffffffffffffffff00ff166101001790555b61172e83836138dd565b611736613964565b61173e6139e9565b611746613a6e565b61174e613a6e565b739367ee417ae552cb94f3249d0424000747877aa8600081905261019960209081527fba4450de6f0bfa5c2d7737230b0f2eb1ba62f1bb4896e8c70a5dc7764e12eee680547fffffffffffffffffffffffffffffffffffffffffffffffffffffffffffffff0016600190811790915560408051848152928301919091527f235bc17e7930760029e9f4d860a2a8089976de5b381cf8380fc11c1d88a11133910160405180910390a1508015610d6857600080547fffffffffffffffffffffffffffffffffffffffffffffffffffffffffffff00ff169055604051600181527f7f26b83ff96e1f2b6a682f133852f6798a09c465da95921460cefb38474024989060200160405180910390a1505050565b3073ffffffffffffffffffffffffffffffffffffffff7f000000000000000000000000000000000000000000000000000000000000000016141561190a5760405162461bcd60e51b815260206004820152602c60248201527f46756e6374696f6e206d7573742062652063616c6c6564207468726f7567682060448201527f64656c656761746563616c6c00000000000000000000000000000000000000006064820152608401610c9b565b7f000000000000000000000000000000000000000000000000000000000000000073ffffffffffffffffffffffffffffffffffffffff1661197f7f360894a13ba1a3210667c828492db98dca3e2076cc3735a920a3ca505d382bbc5473ffffffffffffffffffffffffffffffffffffffff1690565b73ffffffffffffffffffffffffffffffffffffffff1614611a085760405162461bcd60e51b815260206004820152602c60248201527f46756e6374696f6e206d7573742062652063616c6c6564207468726f7567682060448201527f6163746976652070726f787900000000000000000000000000000000000000006064820152608401610c9b565b611a1182613562565b611a1d82826001613613565b5050565b611a2961305e565b73ffffffffffffffffffffffffffffffffffffffff16611a5e60fb5473ffffffffffffffffffffffffffffffffffffffff1690565b73ffffffffffffffffffffffffffffffffffffffff161480611a865750611a8661050161305e565b611ad25760405162461bcd60e51b815260206004820152601c60248201527f63616c6c6572206973206e6f74206f776e6572206f722061646d696e000000006044820152606401610c9b565b611adb81613aeb565b611ae481613b53565b6114bb611af082611be1565b60fb5473ffffffffffffffffffffffffffffffffffffffff1683613324565b60003073ffffffffffffffffffffffffffffffffffffffff7f00000000000000000000000000000000000000000000000000000000000000001614611bbc5760405162461bcd60e51b815260206004820152603860248201527f555550535570677261646561626c653a206d757374206e6f742062652063616c60448201527f6c6564207468726f7567682064656c656761746563616c6c00000000000000006064820152608401610c9b565b507f360894a13ba1a3210667c828492db98dca3e2076cc3735a920a3ca505d382bbc90565b60008181526067602052604081205473ffffffffffffffffffffffffffffffffffffffff1680610b245760405162461bcd60e51b815260206004820152601860248201527f4552433732313a20696e76616c696420746f6b656e20494400000000000000006044820152606401610c9b565b611c5b61305e565b73ffffffffffffffffffffffffffffffffffffffff16611c9060fb5473ffffffffffffffffffffffffffffffffffffffff1690565b73ffffffffffffffffffffffffffffffffffffffff161480611cb85750611cb861050161305e565b611d045760405162461bcd60e51b815260206004820152601c60248201527f63616c6c6572206973206e6f74206f776e6572206f722061646d696e000000006044820152606401610c9b565b611d0c61323f565b611d1581613aeb565b6114bb81613b53565b611d2661305e565b73ffffffffffffffffffffffffffffffffffffffff16611d5b60fb5473ffffffffffffffffffffffffffffffffffffffff1690565b73ffffffffffffffffffffffffffffffffffffffff161480611d835750611d8361050161305e565b611dcf5760405162461bcd60e51b815260206004820152601c60248201527f63616c6c6572206973206e6f74206f776e6572206f722061646d696e000000006044820152606401610c9b565b610d68838383613bba565b611de2613d11565b73ffffffffffffffffffffffffffffffffffffffff8116611e6a5760405162461bcd60e51b8152602060048201526024808201527f4e65772061646d696e2063616e6e6f7420626520746865207a65726f2061646460448201527f72657373000000000000000000000000000000000000000000000000000000006064820152608401610c9b565b73ffffffffffffffffffffffffffffffffffffffff81166000818152610199602090815260409182902080547fffffffffffffffffffffffffffffffffffffffffffffffffffffffffffffff001660019081179091558251938452908301527f235bc17e7930760029e9f4d860a2a8089976de5b381cf8380fc11c1d88a111339101610ed2565b600073ffffffffffffffffffffffffffffffffffffffff8216611f7c5760405162461bcd60e51b815260206004820152602960248201527f4552433732313a2061646472657373207a65726f206973206e6f74206120766160448201527f6c6964206f776e657200000000000000000000000000000000000000000000006064820152608401610c9b565b5073ffffffffffffffffffffffffffffffffffffffff1660009081526068602052604090205490565b611fad613d11565b6115776000613db1565b611fbf61305e565b73ffffffffffffffffffffffffffffffffffffffff16611ff460fb5473ffffffffffffffffffffffffffffffffffffffff1690565b73ffffffffffffffffffffffffffffffffffffffff16148061201c575061201c61050161305e565b6120685760405162461bcd60e51b815260206004820152601c60248201527f63616c6c6572206973206e6f74206f776e6572206f722061646d696e000000006044820152606401610c9b565b61207182612fed565b611a1d8282613e28565b61208361305e565b73ffffffffffffffffffffffffffffffffffffffff166120b860fb5473ffffffffffffffffffffffffffffffffffffffff1690565b73ffffffffffffffffffffffffffffffffffffffff1614806120e057506120e061050161305e565b61212c5760405162461bcd60e51b815260206004820152601c60248201527f63616c6c6572206973206e6f74206f776e6572206f722061646d696e000000006044820152606401610c9b565b8051611a1d90610192906020840190614d6d565b61214861305e565b73ffffffffffffffffffffffffffffffffffffffff1661217d60fb5473ffffffffffffffffffffffffffffffffffffffff1690565b73ffffffffffffffffffffffffffffffffffffffff1614806121a557506121a561050161305e565b6121f15760405162461bcd60e51b815260206004820152601c60248201527f63616c6c6572206973206e6f74206f776e6572206f722061646d696e000000006044820152606401610c9b565b611577613ee6565b600061220361323f565b61220b61305e565b73ffffffffffffffffffffffffffffffffffffffff1661224060fb5473ffffffffffffffffffffffffffffffffffffffff1690565b73ffffffffffffffffffffffffffffffffffffffff161480612268575061226861050161305e565b6122b45760405162461bcd60e51b815260206004820152601c60248201527f63616c6c6572206973206e6f74206f776e6572206f722061646d696e000000006044820152606401610c9b565b600161019360008282546122c89190615718565b925050819055506122df8561019354868686613f42565b90505b949350505050565b606060668054610b399061551f565b61230161305e565b73ffffffffffffffffffffffffffffffffffffffff1661233660fb5473ffffffffffffffffffffffffffffffffffffffff1690565b73ffffffffffffffffffffffffffffffffffffffff16148061235e575061235e61050161305e565b6123aa5760405162461bcd60e51b815260206004820152601c60248201527f63616c6c6572206973206e6f74206f776e6572206f722061646d696e000000006044820152606401610c9b565b611577600061019655565b60006123bf61323f565b6123c761305e565b73ffffffffffffffffffffffffffffffffffffffff166123fc60fb5473ffffffffffffffffffffffffffffffffffffffff1690565b73ffffffffffffffffffffffffffffffffffffffff161480612424575061242461050161305e565b6124705760405162461bcd60e51b815260206004820152601c60248201527f63616c6c6572206973206e6f74206f776e6572206f722061646d696e000000006044820152606401610c9b565b67ffffffffffffffff8216156125005760008061248d8442615730565b905060005b86518110156124f857806101935460016124ac9190615718565b6124b69190615718565b92506124dd88848984815181106124cf576124cf615753565b602002602001015189613f95565b506124e8838361276f565b6124f181615782565b9050612492565b50505061255e565b60005b845181101561255c5761254b86826101935460016125219190615718565b61252b9190615718565b87848151811061253d5761253d615753565b602002602001015187613f95565b5061255581615782565b9050612503565b505b835161019360008282546125729190615718565b9091555060019695505050505050565b611a1d61258d61305e565b8383613fcd565b6125a561259f61305e565b83613292565b6126175760405162461bcd60e51b815260206004820152602e60248201527f4552433732313a2063616c6c6572206973206e6f7420746f6b656e206f776e6560448201527f72206e6f7220617070726f7665640000000000000000000000000000000000006064820152608401610c9b565b612623848484846140e1565b50505050565b600081815261019460205260409020546060906101926126488261310d565b6126518561310d565b604051602001612663939291906157bb565b604051602081830303815290604052915050919050565b61268261305e565b73ffffffffffffffffffffffffffffffffffffffff166126b760fb5473ffffffffffffffffffffffffffffffffffffffff1690565b73ffffffffffffffffffffffffffffffffffffffff1614806126df57506126df61050161305e565b61272b5760405162461bcd60e51b815260206004820152601c60248201527f63616c6c6572206973206e6f74206f776e6572206f722061646d696e000000006044820152606401610c9b565b61019180547fffffffffffffffffffffffff00000000000000000000000000000000000000001673ffffffffffffffffffffffffffffffffffffffff831617905550565b61277761305e565b73ffffffffffffffffffffffffffffffffffffffff166127ac60fb5473ffffffffffffffffffffffffffffffffffffffff1690565b73ffffffffffffffffffffffffffffffffffffffff1614806127d457506127d461050161305e565b6128205760405162461bcd60e51b815260206004820152601c60248201527f63616c6c6572206973206e6f74206f776e6572206f722061646d696e000000006044820152606401610c9b565b61282982612fed565b6000828152610198602090815260409182902080547fffffffffffffffffffffffffffffffffffffffffffffffff00000000000000001667ffffffffffffffff8516908117909155915191825283917f2ec2be2c4b90c2cf13ecb6751a24daed6bb741ae5ed3f7371aabf9402f6d62e8910160405180910390a25050565b6128af61305e565b73ffffffffffffffffffffffffffffffffffffffff166128e460fb5473ffffffffffffffffffffffffffffffffffffffff1690565b73ffffffffffffffffffffffffffffffffffffffff16148061290c575061290c61050161305e565b6129585760405162461bcd60e51b815260206004820152601c60248201527f63616c6c6572206973206e6f74206f776e6572206f722061646d696e000000006044820152606401610c9b565b611a1d828261416a565b61296a61305e565b73ffffffffffffffffffffffffffffffffffffffff1661299f60fb5473ffffffffffffffffffffffffffffffffffffffff1690565b73ffffffffffffffffffffffffffffffffffffffff1614806129c757506129c761050161305e565b612a135760405162461bcd60e51b815260206004820152601c60248201527f63616c6c6572206973206e6f74206f776e6572206f722061646d696e000000006044820152606401610c9b565b612a1b61323f565b6040517fa0894799000000000000000000000000000000000000000000000000000000008152600481018290528190309063a089479990602401602060405180830381865afa158015612a72573d6000803e3d6000fd5b505050506040513d601f19601f82011682018060405250810190612a96919061581d565b15612ae35760405162461bcd60e51b815260206004820152600f60248201527f546f6b656e2069732066726f7a656e00000000000000000000000000000000006044820152606401610c9b565b611a1d826142b0565b612af461305e565b73ffffffffffffffffffffffffffffffffffffffff16612b2960fb5473ffffffffffffffffffffffffffffffffffffffff1690565b73ffffffffffffffffffffffffffffffffffffffff161480612b515750612b5161050161305e565b612b9d5760405162461bcd60e51b815260206004820152601c60248201527f63616c6c6572206973206e6f74206f776e6572206f722061646d696e000000006044820152606401610c9b565b60009081526101976020526040812055565b6101928054612bbd9061551f565b80601f0160208091040260200160405190810160405280929190818152602001828054612be99061551f565b8015612c365780601f10612c0b57610100808354040283529160200191612c36565b820191906000526020600020905b815481529060010190602001808311612c1957829003601f168201915b505050505081565b600073ffffffffffffffffffffffffffffffffffffffff82166e6c3852cbef3e08e8df289169ede5811415612c7557506001610b24565b73ffffffffffffffffffffffffffffffffffffffff8084166000908152606a602090815260408083209386168352929052205460ff165b9392505050565b612cbb613d11565b73ffffffffffffffffffffffffffffffffffffffff8116612d445760405162461bcd60e51b815260206004820152602660248201527f4f776e61626c653a206e6577206f776e657220697320746865207a65726f206160448201527f64647265737300000000000000000000000000000000000000000000000000006064820152608401610c9b565b6114bb81613db1565b6000612d5761323f565b612d5f61305e565b73ffffffffffffffffffffffffffffffffffffffff16612d9460fb5473ffffffffffffffffffffffffffffffffffffffff1690565b73ffffffffffffffffffffffffffffffffffffffff161480612dbc5750612dbc61050161305e565b612e085760405162461bcd60e51b815260206004820152601c60248201527f63616c6c6572206973206e6f74206f776e6572206f722061646d696e000000006044820152606401610c9b565b67ffffffffffffffff821615612e9857600080612e258442615730565b905060005b8751811015612e905780610193546001612e449190615718565b612e4e9190615718565b9250612e75888281518110612e6557612e65615753565b6020026020010151848989613f95565b50612e80838361276f565b612e8981615782565b9050612e2a565b505050612ef6565b60005b8551811015612ef457612ee3868281518110612eb957612eb9615753565b602002602001015182610193546001612ed29190615718565b612edc9190615718565b8787613f95565b50612eed81615782565b9050612e9b565b505b845161019360008282546125729190615718565b60007fffffffff0000000000000000000000000000000000000000000000000000000082167f80ac58cd000000000000000000000000000000000000000000000000000000001480612f9d57507fffffffff0000000000000000000000000000000000000000000000000000000082167f5b5e139f00000000000000000000000000000000000000000000000000000000145b80610b2457507f01ffc9a7000000000000000000000000000000000000000000000000000000007fffffffff00000000000000000000000000000000000000000000000000000000831614610b24565b60008181526067602052604090205473ffffffffffffffffffffffffffffffffffffffff166114bb5760405162461bcd60e51b815260206004820152601860248201527f4552433732313a20696e76616c696420746f6b656e20494400000000000000006044820152606401610c9b565b600061306861431a565b905090565b600081815260696020526040902080547fffffffffffffffffffffffff00000000000000000000000000000000000000001673ffffffffffffffffffffffffffffffffffffffff841690811790915581906130c782611be1565b73ffffffffffffffffffffffffffffffffffffffff167f8c5be1e5ebec7d5bd14f71427d1e84f3dd0314c0f7b2291e5b200ac8c7c3b92560405160405180910390a45050565b60608161314d57505060408051808201909152600181527f3000000000000000000000000000000000000000000000000000000000000000602082015290565b8160005b8115613177578061316181615782565b91506131709050600a83615704565b9150613151565b60008167ffffffffffffffff81111561319257613192614fbf565b6040519080825280601f01601f1916602001820160405280156131bc576020820181803683370190505b5090505b84156122e2576131d160018361583a565b91506131de600a86615851565b6131e9906030615718565b60f81b8183815181106131fe576131fe615753565b60200101907effffffffffffffffffffffffffffffffffffffffffffffffffffffffffffff1916908160001a905350613238600a86615704565b94506131c0565b60c95460ff16156115775760405162461bcd60e51b815260206004820152601060248201527f5061757361626c653a20706175736564000000000000000000000000000000006044820152606401610c9b565b60008061329e83611be1565b90508073ffffffffffffffffffffffffffffffffffffffff168473ffffffffffffffffffffffffffffffffffffffff1614806132df57506132df8185612c3e565b806122e257508373ffffffffffffffffffffffffffffffffffffffff1661330584610bbc565b73ffffffffffffffffffffffffffffffffffffffff1614949350505050565b8273ffffffffffffffffffffffffffffffffffffffff1661334482611be1565b73ffffffffffffffffffffffffffffffffffffffff16146133cd5760405162461bcd60e51b815260206004820152602560248201527f4552433732313a207472616e736665722066726f6d20696e636f72726563742060448201527f6f776e65720000000000000000000000000000000000000000000000000000006064820152608401610c9b565b73ffffffffffffffffffffffffffffffffffffffff82166134555760405162461bcd60e51b8152602060048201526024808201527f4552433732313a207472616e7366657220746f20746865207a65726f2061646460448201527f72657373000000000000000000000000000000000000000000000000000000006064820152608401610c9b565b61346083838361437a565b61346b60008261306d565b73ffffffffffffffffffffffffffffffffffffffff831660009081526068602052604081208054600192906134a190849061583a565b909155505073ffffffffffffffffffffffffffffffffffffffff821660009081526068602052604081208054600192906134dc908490615718565b909155505060008181526067602052604080822080547fffffffffffffffffffffffff00000000000000000000000000000000000000001673ffffffffffffffffffffffffffffffffffffffff86811691821790925591518493918716917fddf252ad1be2c89b69c2b068fc378daa952ba7f163c4a11628f55a4df523b3ef91a4505050565b61356a61305e565b73ffffffffffffffffffffffffffffffffffffffff1661359f60fb5473ffffffffffffffffffffffffffffffffffffffff1690565b73ffffffffffffffffffffffffffffffffffffffff1614806135c757506135c761050161305e565b6114bb5760405162461bcd60e51b815260206004820152601c60248201527f63616c6c6572206973206e6f74206f776e6572206f722061646d696e000000006044820152606401610c9b565b7f4910fdfa16fed3260ed0e7147f7cc6da11a60208b5b9406d12a635614ffd91435460ff161561364657610d688361444f565b8273ffffffffffffffffffffffffffffffffffffffff166352d1902d6040518163ffffffff1660e01b8152600401602060405180830381865afa9250505080156136cb575060408051601f3d9081017fffffffffffffffffffffffffffffffffffffffffffffffffffffffffffffffe01682019092526136c891810190615865565b60015b61373d5760405162461bcd60e51b815260206004820152602e60248201527f45524331393637557067726164653a206e657720696d706c656d656e7461746960448201527f6f6e206973206e6f7420555550530000000000000000000000000000000000006064820152608401610c9b565b7f360894a13ba1a3210667c828492db98dca3e2076cc3735a920a3ca505d382bbc81146137d25760405162461bcd60e51b815260206004820152602960248201527f45524331393637557067726164653a20756e737570706f727465642070726f7860448201527f6961626c655555494400000000000000000000000000000000000000000000006064820152608401610c9b565b50610d6883838361453f565b6137e6614564565b60c980547fffffffffffffffffffffffffffffffffffffffffffffffffffffffffffffff001690557f5db9ee0a495bf2e6ff9c91a7834c1ba4fdd244a5e8aa4e537bd38aeae4b073aa61383761305e565b60405173ffffffffffffffffffffffffffffffffffffffff909116815260200160405180910390a1565b61386a816145b6565b600090815261019460209081526040808320839055610195825280832080547fffffffffffffffffffffffffffffffffffffffffffffffffffffffffffffff00169055610198909152902080547fffffffffffffffffffffffffffffffffffffffffffffffff0000000000000000169055565b600054610100900460ff1661395a5760405162461bcd60e51b815260206004820152602b60248201527f496e697469616c697a61626c653a20636f6e7472616374206973206e6f74206960448201527f6e697469616c697a696e670000000000000000000000000000000000000000006064820152608401610c9b565b611a1d828261468f565b600054610100900460ff166139e15760405162461bcd60e51b815260206004820152602b60248201527f496e697469616c697a61626c653a20636f6e7472616374206973206e6f74206960448201527f6e697469616c697a696e670000000000000000000000000000000000000000006064820152608401610c9b565b611577614733565b600054610100900460ff16613a665760405162461bcd60e51b815260206004820152602b60248201527f496e697469616c697a61626c653a20636f6e7472616374206973206e6f74206960448201527f6e697469616c697a696e670000000000000000000000000000000000000000006064820152608401610c9b565b6115776147da565b600054610100900460ff166115775760405162461bcd60e51b815260206004820152602b60248201527f496e697469616c697a61626c653a20636f6e7472616374206973206e6f74206960448201527f6e697469616c697a696e670000000000000000000000000000000000000000006064820152608401610c9b565b613af481612fed565b6000818152610195602052604090205460ff166114bb5760405162461bcd60e51b815260206004820152601360248201527f546f6b656e206973206e6f742066726f7a656e000000000000000000000000006044820152606401610c9b565b600081815261019560205260409081902080547fffffffffffffffffffffffffffffffffffffffffffffffffffffffffffffff00169055517f083eea12772ab70fba01c8212d02f3bc5dc29b8540dcdc84298e5dfa22731b9290610ed29083815260200190565b6127106bffffffffffffffffffffffff82161115613c405760405162461bcd60e51b815260206004820152602a60248201527f455243323938313a20726f79616c7479206665652077696c6c2065786365656460448201527f2073616c655072696365000000000000000000000000000000000000000000006064820152608401610c9b565b73ffffffffffffffffffffffffffffffffffffffff8216613ca35760405162461bcd60e51b815260206004820152601b60248201527f455243323938313a20496e76616c696420706172616d657465727300000000006044820152606401610c9b565b60408051808201825273ffffffffffffffffffffffffffffffffffffffff93841681526bffffffffffffffffffffffff928316602080830191825260009687526101979052919094209351905190911674010000000000000000000000000000000000000000029116179055565b613d1961305e565b73ffffffffffffffffffffffffffffffffffffffff16613d4e60fb5473ffffffffffffffffffffffffffffffffffffffff1690565b73ffffffffffffffffffffffffffffffffffffffff16146115775760405162461bcd60e51b815260206004820181905260248201527f4f776e61626c653a2063616c6c6572206973206e6f7420746865206f776e65726044820152606401610c9b565b60fb805473ffffffffffffffffffffffffffffffffffffffff8381167fffffffffffffffffffffffff0000000000000000000000000000000000000000831681179093556040519116919082907f8be0079c531659141344cd1fd0a4f28419497f9722a3daafe3b4186f6b6457e090600090a35050565b6000828152610198602052604081205467ffffffffffffffff169081613e5957613e528342615730565b9050613e66565b613e638383615730565b90505b6000848152610198602090815260409182902080547fffffffffffffffffffffffffffffffffffffffffffffffff00000000000000001667ffffffffffffffff8516908117909155915191825285917f2ec2be2c4b90c2cf13ecb6751a24daed6bb741ae5ed3f7371aabf9402f6d62e8910160405180910390a250505050565b613eee61323f565b60c980547fffffffffffffffffffffffffffffffffffffffffffffffffffffffffffffff001660011790557f62e78cea01bee320cd4e420270b5ea74000d11b0c9f74754ebdbfc544b05a25861383761305e565b6000613f4e8486614867565b6000858152610194602052604090208690558215613f6f57613f6f85612962565b67ffffffffffffffff821615613f8957613f898583613e28565b50600195945050505050565b6000613fa18385614867565b6000848152610194602052604090208590558115613fc257613fc284612962565b506001949350505050565b8173ffffffffffffffffffffffffffffffffffffffff168373ffffffffffffffffffffffffffffffffffffffff1614156140495760405162461bcd60e51b815260206004820152601960248201527f4552433732313a20617070726f766520746f2063616c6c6572000000000000006044820152606401610c9b565b73ffffffffffffffffffffffffffffffffffffffff8381166000818152606a602090815260408083209487168084529482529182902080547fffffffffffffffffffffffffffffffffffffffffffffffffffffffffffffff001686151590811790915591519182527f17307eab39ab6107e8899845ad3d59bd9653f200f220920489ca2b5937696c31910160405180910390a3505050565b6140ec848484613324565b6140f884848484614a01565b6126235760405162461bcd60e51b815260206004820152603260248201527f4552433732313a207472616e7366657220746f206e6f6e20455243373231526560448201527f63656976657220696d706c656d656e74657200000000000000000000000000006064820152608401610c9b565b6127106bffffffffffffffffffffffff821611156141f05760405162461bcd60e51b815260206004820152602a60248201527f455243323938313a20726f79616c7479206665652077696c6c2065786365656460448201527f2073616c655072696365000000000000000000000000000000000000000000006064820152608401610c9b565b73ffffffffffffffffffffffffffffffffffffffff82166142535760405162461bcd60e51b815260206004820152601960248201527f455243323938313a20696e76616c6964207265636569766572000000000000006044820152606401610c9b565b6040805180820190915273ffffffffffffffffffffffffffffffffffffffff9092168083526bffffffffffffffffffffffff9091166020909201829052740100000000000000000000000000000000000000009091021761019655565b600081815261019560205260409081902080547fffffffffffffffffffffffffffffffffffffffffffffffffffffffffffffff00166001179055517f4d69b51fee53c28bd8b61fe008151577ca65160b5248f6225e74d64fd4cf732890610ed29083815260200190565b60006014361080159061434557506101915473ffffffffffffffffffffffffffffffffffffffff1633145b1561437557507fffffffffffffffffffffffffffffffffffffffffffffffffffffffffffffffec36013560601c90565b503390565b61438261323f565b6040517fa0894799000000000000000000000000000000000000000000000000000000008152600481018290528190309063a089479990602401602060405180830381865afa1580156143d9573d6000803e3d6000fd5b505050506040513d601f19601f820116820180604052508101906143fd919061581d565b1561444a5760405162461bcd60e51b815260206004820152600f60248201527f546f6b656e2069732066726f7a656e00000000000000000000000000000000006044820152606401610c9b565b612623565b73ffffffffffffffffffffffffffffffffffffffff81163b6144d95760405162461bcd60e51b815260206004820152602d60248201527f455243313936373a206e657720696d706c656d656e746174696f6e206973206e60448201527f6f74206120636f6e7472616374000000000000000000000000000000000000006064820152608401610c9b565b7f360894a13ba1a3210667c828492db98dca3e2076cc3735a920a3ca505d382bbc80547fffffffffffffffffffffffff00000000000000000000000000000000000000001673ffffffffffffffffffffffffffffffffffffffff92909216919091179055565b61454883614bc2565b6000825111806145555750805b15610d68576126238383614c0f565b60c95460ff166115775760405162461bcd60e51b815260206004820152601460248201527f5061757361626c653a206e6f74207061757365640000000000000000000000006044820152606401610c9b565b60006145c182611be1565b90506145cf8160008461437a565b6145da60008361306d565b73ffffffffffffffffffffffffffffffffffffffff8116600090815260686020526040812080546001929061461090849061583a565b909155505060008281526067602052604080822080547fffffffffffffffffffffffff00000000000000000000000000000000000000001690555183919073ffffffffffffffffffffffffffffffffffffffff8416907fddf252ad1be2c89b69c2b068fc378daa952ba7f163c4a11628f55a4df523b3ef908390a45050565b600054610100900460ff1661470c5760405162461bcd60e51b815260206004820152602b60248201527f496e697469616c697a61626c653a20636f6e7472616374206973206e6f74206960448201527f6e697469616c697a696e670000000000000000000000000000000000000000006064820152608401610c9b565b815161471f906065906020850190614d6d565b508051610d68906066906020840190614d6d565b600054610100900460ff166147b05760405162461bcd60e51b815260206004820152602b60248201527f496e697469616c697a61626c653a20636f6e7472616374206973206e6f74206960448201527f6e697469616c697a696e670000000000000000000000000000000000000000006064820152608401610c9b565b60c980547fffffffffffffffffffffffffffffffffffffffffffffffffffffffffffffff00169055565b600054610100900460ff166148575760405162461bcd60e51b815260206004820152602b60248201527f496e697469616c697a61626c653a20636f6e7472616374206973206e6f74206960448201527f6e697469616c697a696e670000000000000000000000000000000000000000006064820152608401610c9b565b61157761486261305e565b613db1565b73ffffffffffffffffffffffffffffffffffffffff82166148ca5760405162461bcd60e51b815260206004820181905260248201527f4552433732313a206d696e7420746f20746865207a65726f20616464726573736044820152606401610c9b565b60008181526067602052604090205473ffffffffffffffffffffffffffffffffffffffff161561493c5760405162461bcd60e51b815260206004820152601c60248201527f4552433732313a20746f6b656e20616c7265616479206d696e746564000000006044820152606401610c9b565b6149486000838361437a565b73ffffffffffffffffffffffffffffffffffffffff8216600090815260686020526040812080546001929061497e908490615718565b909155505060008181526067602052604080822080547fffffffffffffffffffffffff00000000000000000000000000000000000000001673ffffffffffffffffffffffffffffffffffffffff861690811790915590518392907fddf252ad1be2c89b69c2b068fc378daa952ba7f163c4a11628f55a4df523b3ef908290a45050565b600073ffffffffffffffffffffffffffffffffffffffff84163b15614bba578373ffffffffffffffffffffffffffffffffffffffff1663150b7a02614a4461305e565b8786866040518563ffffffff1660e01b8152600401614a66949392919061587e565b6020604051808303816000875af1925050508015614abf575060408051601f3d9081017fffffffffffffffffffffffffffffffffffffffffffffffffffffffffffffffe0168201909252614abc918101906158c7565b60015b614b6f573d808015614aed576040519150601f19603f3d011682016040523d82523d6000602084013e614af2565b606091505b508051614b675760405162461bcd60e51b815260206004820152603260248201527f4552433732313a207472616e7366657220746f206e6f6e20455243373231526560448201527f63656976657220696d706c656d656e74657200000000000000000000000000006064820152608401610c9b565b805181602001fd5b7fffffffff00000000000000000000000000000000000000000000000000000000167f150b7a02000000000000000000000000000000000000000000000000000000001490506122e2565b5060016122e2565b614bcb8161444f565b60405173ffffffffffffffffffffffffffffffffffffffff8216907fbc7cd75a20ee27fd9adebab32041f755214dbc6bffa90cc0225b39da2e5c2d3b90600090a250565b606073ffffffffffffffffffffffffffffffffffffffff83163b614c9b5760405162461bcd60e51b815260206004820152602660248201527f416464726573733a2064656c65676174652063616c6c20746f206e6f6e2d636f60448201527f6e747261637400000000000000000000000000000000000000000000000000006064820152608401610c9b565b6000808473ffffffffffffffffffffffffffffffffffffffff1684604051614cc391906158e4565b600060405180830381855af49150503d8060008114614cfe576040519150601f19603f3d011682016040523d82523d6000602084013e614d03565b606091505b5091509150614d2b828260405180606001604052806027815260200161590160279139614d34565b95945050505050565b60608315614d43575081612cac565b825115614d535782518084602001fd5b8160405162461bcd60e51b8152600401610c9b9190614ec7565b828054614d799061551f565b90600052602060002090601f016020900481019282614d9b5760008555614de1565b82601f10614db457805160ff1916838001178555614de1565b82800160010185558215614de1579182015b82811115614de1578251825591602001919060010190614dc6565b50614ded929150614df1565b5090565b5b80821115614ded5760008155600101614df2565b7fffffffff00000000000000000000000000000000000000000000000000000000811681146114bb57600080fd5b600060208284031215614e4657600080fd5b8135612cac81614e06565b60005b83811015614e6c578181015183820152602001614e54565b838111156126235750506000910152565b60008151808452614e95816020860160208601614e51565b601f017fffffffffffffffffffffffffffffffffffffffffffffffffffffffffffffffe0169290920160200192915050565b602081526000612cac6020830184614e7d565b600060208284031215614eec57600080fd5b5035919050565b803573ffffffffffffffffffffffffffffffffffffffff81168114614f1757600080fd5b919050565b60008060408385031215614f2f57600080fd5b614f3883614ef3565b946020939093013593505050565b600060208284031215614f5857600080fd5b612cac82614ef3565b600080600060608486031215614f7657600080fd5b614f7f84614ef3565b9250614f8d60208501614ef3565b9150604084013590509250925092565b60008060408385031215614fb057600080fd5b50508035926020909101359150565b7f4e487b7100000000000000000000000000000000000000000000000000000000600052604160045260246000fd5b604051601f82017fffffffffffffffffffffffffffffffffffffffffffffffffffffffffffffffe016810167ffffffffffffffff8111828210171561503557615035614fbf565b604052919050565b600082601f83011261504e57600080fd5b813567ffffffffffffffff81111561506857615068614fbf565b61509960207fffffffffffffffffffffffffffffffffffffffffffffffffffffffffffffffe0601f84011601614fee565b8181528460208386010111156150ae57600080fd5b816020850160208301376000918101602001919091529392505050565b600080604083850312156150de57600080fd5b823567ffffffffffffffff808211156150f657600080fd5b6151028683870161503d565b9350602085013591508082111561511857600080fd5b506151258582860161503d565b9150509250929050565b6000806040838503121561514257600080fd5b61514b83614ef3565b9150602083013567ffffffffffffffff81111561516757600080fd5b6151258582860161503d565b80356bffffffffffffffffffffffff81168114614f1757600080fd5b6000806000606084860312156151a457600080fd5b833592506151b460208501614ef3565b91506151c260408501615173565b90509250925092565b803567ffffffffffffffff81168114614f1757600080fd5b600080604083850312156151f657600080fd5b82359150615206602084016151cb565b90509250929050565b60006020828403121561522157600080fd5b813567ffffffffffffffff81111561523857600080fd5b6122e28482850161503d565b80151581146114bb57600080fd5b8035614f1781615244565b6000806000806080858703121561527357600080fd5b8435935061528360208601614ef3565b9250604085013561529381615244565b91506152a1606086016151cb565b905092959194509250565b600067ffffffffffffffff8211156152c6576152c6614fbf565b5060051b60200190565b600080600080608085870312156152e657600080fd5b8435935060208086013567ffffffffffffffff81111561530557600080fd5b8601601f8101881361531657600080fd5b8035615329615324826152ac565b614fee565b81815260059190911b8201830190838101908a83111561534857600080fd5b928401925b8284101561536d5761535e84614ef3565b8252928401929084019061534d565b809750505050505061529360408601615252565b6000806040838503121561539457600080fd5b61539d83614ef3565b915060208301356153ad81615244565b809150509250929050565b600080600080608085870312156153ce57600080fd5b6153d785614ef3565b93506153e560208601614ef3565b925060408501359150606085013567ffffffffffffffff81111561540857600080fd5b6154148782880161503d565b91505092959194509250565b6000806040838503121561543357600080fd5b61543c83614ef3565b915061520660208401615173565b6000806040838503121561545d57600080fd5b61546683614ef3565b915061520660208401614ef3565b6000806000806080858703121561548a57600080fd5b843567ffffffffffffffff8111156154a157600080fd5b8501601f810187136154b257600080fd5b803560206154c2615324836152ac565b82815260059290921b8301810191818101908a8411156154e157600080fd5b938201935b838510156154ff578435825293820193908201906154e6565b975061550e9050888201614ef3565b955050505061529360408601615252565b600181811c9082168061553357607f821691505b6020821081141561556d577f4e487b7100000000000000000000000000000000000000000000000000000000600052602260045260246000fd5b50919050565b8054600090600181811c908083168061558d57607f831692505b60208084108214156155c8577f4e487b7100000000000000000000000000000000000000000000000000000000600052602260045260246000fd5b8180156155dc576001811461560b57615638565b7fffffffffffffffffffffffffffffffffffffffffffffffffffffffffffffff00861689528489019650615638565b60008881526020902060005b868110156156305781548b820152908501908301615617565b505084890196505b50505050505092915050565b60006156508285615573565b8351615660818360208801614e51565b01949350505050565b7f4e487b7100000000000000000000000000000000000000000000000000000000600052601160045260246000fd5b6000817fffffffffffffffffffffffffffffffffffffffffffffffffffffffffffffffff04831182151516156156d0576156d0615669565b500290565b7f4e487b7100000000000000000000000000000000000000000000000000000000600052601260045260246000fd5b600082615713576157136156d5565b500490565b6000821982111561572b5761572b615669565b500190565b600067ffffffffffffffff80831681851680830382111561566057615660615669565b7f4e487b7100000000000000000000000000000000000000000000000000000000600052603260045260246000fd5b60007fffffffffffffffffffffffffffffffffffffffffffffffffffffffffffffffff8214156157b4576157b4615669565b5060010190565b60006157c78286615573565b84516157d7818360208901614e51565b7f2f0000000000000000000000000000000000000000000000000000000000000091019081528351615810816001840160208801614e51565b0160010195945050505050565b60006020828403121561582f57600080fd5b8151612cac81615244565b60008282101561584c5761584c615669565b500390565b600082615860576158606156d5565b500690565b60006020828403121561587757600080fd5b5051919050565b600073ffffffffffffffffffffffffffffffffffffffff8087168352808616602084015250836040830152608060608301526158bd6080830184614e7d565b9695505050505050565b6000602082840312156158d957600080fd5b8151612cac81614e06565b600082516158f6818460208701614e51565b919091019291505056fe416464726573733a206c6f772d6c6576656c2064656c65676174652063616c6c206661696c6564a264697066735822122094cd42c855f714e122d01d69c8b681706130449b3e814deaadf564e16695dec264736f6c634300080c0033",
  "linkReferences": {},
  "deployedLinkReferences": {}
}