{
  "_format": "hh-sol-artifact-1",
  "contractName": "UVCollectable",
  "sourceName": "contracts/UVCollectable.sol",
  "abi": [
    {
      "inputs": [],
      "stateMutability": "nonpayable",
      "type": "constructor"
    },
    {
      "anonymous": false,
      "inputs": [
        {
          "indexed": false,
          "internalType": "address",
          "name": "previousAdmin",
          "type": "address"
        },
        {
          "indexed": false,
          "internalType": "address",
          "name": "newAdmin",
          "type": "address"
        }
      ],
      "name": "AdminChanged",
      "type": "event"
    },
    {
      "anonymous": false,
      "inputs": [
        {
          "indexed": false,
          "internalType": "address",
          "name": "admin",
          "type": "address"
        },
        {
          "indexed": false,
          "internalType": "bool",
          "name": "added",
          "type": "bool"
        }
      ],
      "name": "AdminUpdated",
      "type": "event"
    },
    {
      "anonymous": false,
      "inputs": [
        {
          "indexed": true,
          "internalType": "address",
          "name": "owner",
          "type": "address"
        },
        {
          "indexed": true,
          "internalType": "address",
          "name": "approved",
          "type": "address"
        },
        {
          "indexed": true,
          "internalType": "uint256",
          "name": "tokenId",
          "type": "uint256"
        }
      ],
      "name": "Approval",
      "type": "event"
    },
    {
      "anonymous": false,
      "inputs": [
        {
          "indexed": true,
          "internalType": "address",
          "name": "owner",
          "type": "address"
        },
        {
          "indexed": true,
          "internalType": "address",
          "name": "operator",
          "type": "address"
        },
        {
          "indexed": false,
          "internalType": "bool",
          "name": "approved",
          "type": "bool"
        }
      ],
      "name": "ApprovalForAll",
      "type": "event"
    },
    {
      "anonymous": false,
      "inputs": [
        {
          "indexed": true,
          "internalType": "address",
          "name": "beacon",
          "type": "address"
        }
      ],
      "name": "BeaconUpgraded",
      "type": "event"
    },
    {
      "anonymous": false,
      "inputs": [
        {
          "indexed": false,
          "internalType": "uint256",
          "name": "tokenId",
          "type": "uint256"
        }
      ],
      "name": "Frozen",
      "type": "event"
    },
    {
      "anonymous": false,
      "inputs": [
        {
          "indexed": false,
          "internalType": "uint8",
          "name": "version",
          "type": "uint8"
        }
      ],
      "name": "Initialized",
      "type": "event"
    },
    {
      "anonymous": false,
      "inputs": [
        {
          "indexed": true,
          "internalType": "address",
          "name": "previousOwner",
          "type": "address"
        },
        {
          "indexed": true,
          "internalType": "address",
          "name": "newOwner",
          "type": "address"
        }
      ],
      "name": "OwnershipTransferred",
      "type": "event"
    },
    {
      "anonymous": false,
      "inputs": [
        {
          "indexed": false,
          "internalType": "address",
          "name": "account",
          "type": "address"
        }
      ],
      "name": "Paused",
      "type": "event"
    },
    {
      "anonymous": false,
      "inputs": [
        {
          "indexed": true,
          "internalType": "uint256",
          "name": "tokenId",
          "type": "uint256"
        },
        {
          "indexed": false,
          "internalType": "uint64",
          "name": "expiration",
          "type": "uint64"
        }
      ],
      "name": "SubscriptionUpdate",
      "type": "event"
    },
    {
      "anonymous": false,
      "inputs": [
        {
          "indexed": true,
          "internalType": "address",
          "name": "from",
          "type": "address"
        },
        {
          "indexed": true,
          "internalType": "address",
          "name": "to",
          "type": "address"
        },
        {
          "indexed": true,
          "internalType": "uint256",
          "name": "tokenId",
          "type": "uint256"
        }
      ],
      "name": "Transfer",
      "type": "event"
    },
    {
      "anonymous": false,
      "inputs": [
        {
          "indexed": false,
          "internalType": "uint256",
          "name": "tokenId",
          "type": "uint256"
        }
      ],
      "name": "Unfrozen",
      "type": "event"
    },
    {
      "anonymous": false,
      "inputs": [
        {
          "indexed": false,
          "internalType": "address",
          "name": "account",
          "type": "address"
        }
      ],
      "name": "Unpaused",
      "type": "event"
    },
    {
      "anonymous": false,
      "inputs": [
        {
          "indexed": true,
          "internalType": "address",
          "name": "implementation",
          "type": "address"
        }
      ],
      "name": "Upgraded",
      "type": "event"
    },
    {
      "inputs": [
        {
          "internalType": "address",
          "name": "newAdmin",
          "type": "address"
        }
      ],
      "name": "addAdmin",
      "outputs": [],
      "stateMutability": "nonpayable",
      "type": "function"
    },
    {
      "inputs": [
        {
          "internalType": "address",
          "name": "to",
          "type": "address"
        },
        {
          "internalType": "uint256",
          "name": "tokenId",
          "type": "uint256"
        }
      ],
      "name": "approve",
      "outputs": [],
      "stateMutability": "nonpayable",
      "type": "function"
    },
    {
      "inputs": [
        {
          "internalType": "address",
          "name": "owner",
          "type": "address"
        }
      ],
      "name": "balanceOf",
      "outputs": [
        {
          "internalType": "uint256",
          "name": "",
          "type": "uint256"
        }
      ],
      "stateMutability": "view",
      "type": "function"
    },
    {
      "inputs": [
        {
          "internalType": "uint256",
          "name": "tokenId",
          "type": "uint256"
        }
      ],
      "name": "burn",
      "outputs": [],
      "stateMutability": "nonpayable",
      "type": "function"
    },
    {
      "inputs": [
        {
          "internalType": "uint256",
          "name": "tokenId",
          "type": "uint256"
        }
      ],
      "name": "cancelSubscription",
      "outputs": [],
      "stateMutability": "nonpayable",
      "type": "function"
    },
    {
      "inputs": [
        {
          "internalType": "uint256",
          "name": "collectionId",
          "type": "uint256"
        }
      ],
      "name": "collectionURI",
      "outputs": [
        {
          "internalType": "string",
          "name": "",
          "type": "string"
        }
      ],
      "stateMutability": "view",
      "type": "function"
    },
    {
      "inputs": [],
      "name": "contractURI",
      "outputs": [
        {
          "internalType": "string",
          "name": "",
          "type": "string"
        }
      ],
      "stateMutability": "view",
      "type": "function"
    },
    {
      "inputs": [
        {
          "internalType": "uint256",
          "name": "tokenId",
          "type": "uint256"
        }
      ],
      "name": "expireSubscription",
      "outputs": [],
      "stateMutability": "nonpayable",
      "type": "function"
    },
    {
      "inputs": [
        {
          "internalType": "uint256",
          "name": "tokenId",
          "type": "uint256"
        }
      ],
      "name": "expiresAt",
      "outputs": [
        {
          "internalType": "uint64",
          "name": "",
          "type": "uint64"
        }
      ],
      "stateMutability": "view",
      "type": "function"
    },
    {
      "inputs": [
        {
          "internalType": "uint256",
          "name": "tokenId",
          "type": "uint256"
        }
      ],
      "name": "freeze",
      "outputs": [],
      "stateMutability": "nonpayable",
      "type": "function"
    },
    {
      "inputs": [
        {
          "internalType": "uint256",
          "name": "tokenId",
          "type": "uint256"
        }
      ],
      "name": "getApproved",
      "outputs": [
        {
          "internalType": "address",
          "name": "",
          "type": "address"
        }
      ],
      "stateMutability": "view",
      "type": "function"
    },
    {
      "inputs": [],
      "name": "getTrustedForwarder",
      "outputs": [
        {
          "internalType": "address",
          "name": "forwarder",
          "type": "address"
        }
      ],
      "stateMutability": "view",
      "type": "function"
    },
    {
      "inputs": [
        {
          "internalType": "string",
          "name": "__name",
          "type": "string"
        },
        {
          "internalType": "string",
          "name": "__symbol",
          "type": "string"
        }
      ],
      "name": "initialize",
      "outputs": [],
      "stateMutability": "nonpayable",
      "type": "function"
    },
    {
      "inputs": [
        {
          "internalType": "address",
          "name": "admin",
          "type": "address"
        }
      ],
      "name": "isAdmin",
      "outputs": [
        {
          "internalType": "bool",
          "name": "",
          "type": "bool"
        }
      ],
      "stateMutability": "view",
      "type": "function"
    },
    {
      "inputs": [
        {
          "internalType": "address",
          "name": "_owner",
          "type": "address"
        },
        {
          "internalType": "address",
          "name": "_operator",
          "type": "address"
        }
      ],
      "name": "isApprovedForAll",
      "outputs": [
        {
          "internalType": "bool",
          "name": "isOperator",
          "type": "bool"
        }
      ],
      "stateMutability": "view",
      "type": "function"
    },
    {
      "inputs": [
        {
          "internalType": "uint256",
          "name": "tokenId",
          "type": "uint256"
        }
      ],
      "name": "isFrozen",
      "outputs": [
        {
          "internalType": "bool",
          "name": "",
          "type": "bool"
        }
      ],
      "stateMutability": "view",
      "type": "function"
    },
    {
      "inputs": [
        {
          "internalType": "uint256",
          "name": "",
          "type": "uint256"
        }
      ],
      "name": "isRenewable",
      "outputs": [
        {
          "internalType": "bool",
          "name": "",
          "type": "bool"
        }
      ],
      "stateMutability": "pure",
      "type": "function"
    },
    {
      "inputs": [
        {
          "internalType": "address",
          "name": "forwarder",
          "type": "address"
        }
      ],
      "name": "isTrustedForwarder",
      "outputs": [
        {
          "internalType": "bool",
          "name": "",
          "type": "bool"
        }
      ],
      "stateMutability": "view",
      "type": "function"
    },
    {
      "inputs": [],
      "name": "lastId",
      "outputs": [
        {
          "internalType": "uint256",
          "name": "",
          "type": "uint256"
        }
      ],
      "stateMutability": "view",
      "type": "function"
    },
    {
      "inputs": [
        {
          "internalType": "uint256",
          "name": "collectionId",
          "type": "uint256"
        },
        {
          "internalType": "address[]",
          "name": "to",
          "type": "address[]"
        },
        {
          "internalType": "bool",
          "name": "frozen",
          "type": "bool"
        },
        {
          "internalType": "uint64",
          "name": "validDuration",
          "type": "uint64"
        }
      ],
      "name": "mintCollectionToManyUsers",
      "outputs": [
        {
          "internalType": "bool",
          "name": "",
          "type": "bool"
        }
      ],
      "stateMutability": "nonpayable",
      "type": "function"
    },
    {
      "inputs": [
        {
          "internalType": "uint256",
          "name": "collectionId",
          "type": "uint256"
        },
        {
          "internalType": "address",
          "name": "to",
          "type": "address"
        },
        {
          "internalType": "bool",
          "name": "frozen",
          "type": "bool"
        },
        {
          "internalType": "uint64",
          "name": "validDuration",
          "type": "uint64"
        }
      ],
      "name": "mintToken",
      "outputs": [
        {
          "internalType": "bool",
          "name": "",
          "type": "bool"
        }
      ],
      "stateMutability": "nonpayable",
      "type": "function"
    },
    {
      "inputs": [
        {
          "internalType": "uint256[]",
          "name": "collectionIds",
          "type": "uint256[]"
        },
        {
          "internalType": "address",
          "name": "to",
          "type": "address"
        },
        {
          "internalType": "bool",
          "name": "frozen",
          "type": "bool"
        },
        {
          "internalType": "uint64",
          "name": "validDuration",
          "type": "uint64"
        }
      ],
      "name": "mintUserToManyCollections",
      "outputs": [
        {
          "internalType": "bool",
          "name": "",
          "type": "bool"
        }
      ],
      "stateMutability": "nonpayable",
      "type": "function"
    },
    {
      "inputs": [],
      "name": "name",
      "outputs": [
        {
          "internalType": "string",
          "name": "",
          "type": "string"
        }
      ],
      "stateMutability": "view",
      "type": "function"
    },
    {
      "inputs": [],
      "name": "owner",
      "outputs": [
        {
          "internalType": "address",
          "name": "",
          "type": "address"
        }
      ],
      "stateMutability": "view",
      "type": "function"
    },
    {
      "inputs": [
        {
          "internalType": "uint256",
          "name": "tokenId",
          "type": "uint256"
        }
      ],
      "name": "ownerOf",
      "outputs": [
        {
          "internalType": "address",
          "name": "",
          "type": "address"
        }
      ],
      "stateMutability": "view",
      "type": "function"
    },
    {
      "inputs": [],
      "name": "pause",
      "outputs": [],
      "stateMutability": "nonpayable",
      "type": "function"
    },
    {
      "inputs": [],
      "name": "paused",
      "outputs": [
        {
          "internalType": "bool",
          "name": "",
          "type": "bool"
        }
      ],
      "stateMutability": "view",
      "type": "function"
    },
    {
      "inputs": [],
      "name": "proxiableUUID",
      "outputs": [
        {
          "internalType": "bytes32",
          "name": "",
          "type": "bytes32"
        }
      ],
      "stateMutability": "view",
      "type": "function"
    },
    {
      "inputs": [
        {
          "internalType": "uint256",
          "name": "tokenId",
          "type": "uint256"
        }
      ],
      "name": "reclaimToken",
      "outputs": [],
      "stateMutability": "nonpayable",
      "type": "function"
    },
    {
      "inputs": [
        {
          "internalType": "address",
          "name": "admin",
          "type": "address"
        }
      ],
      "name": "removeAdmin",
      "outputs": [],
      "stateMutability": "nonpayable",
      "type": "function"
    },
    {
      "inputs": [
        {
          "internalType": "uint256",
          "name": "collectionId",
          "type": "uint256"
        }
      ],
      "name": "removeCollectionRoyalty",
      "outputs": [],
      "stateMutability": "nonpayable",
      "type": "function"
    },
    {
      "inputs": [],
      "name": "removeDefaultRoyalty",
      "outputs": [],
      "stateMutability": "nonpayable",
      "type": "function"
    },
    {
      "inputs": [
        {
          "internalType": "uint256",
          "name": "tokenId",
          "type": "uint256"
        },
        {
          "internalType": "uint64",
          "name": "duration",
          "type": "uint64"
        }
      ],
      "name": "renewSubscription",
      "outputs": [],
      "stateMutability": "nonpayable",
      "type": "function"
    },
    {
      "inputs": [],
      "name": "renounceOwnership",
      "outputs": [],
      "stateMutability": "nonpayable",
      "type": "function"
    },
    {
      "inputs": [
        {
          "internalType": "uint256",
          "name": "_tokenId",
          "type": "uint256"
        },
        {
          "internalType": "uint256",
          "name": "_salePrice",
          "type": "uint256"
        }
      ],
      "name": "royaltyInfo",
      "outputs": [
        {
          "internalType": "address",
          "name": "",
          "type": "address"
        },
        {
          "internalType": "uint256",
          "name": "",
          "type": "uint256"
        }
      ],
      "stateMutability": "view",
      "type": "function"
    },
    {
      "inputs": [
        {
          "internalType": "address",
          "name": "from",
          "type": "address"
        },
        {
          "internalType": "address",
          "name": "to",
          "type": "address"
        },
        {
          "internalType": "uint256",
          "name": "tokenId",
          "type": "uint256"
        }
      ],
      "name": "safeTransferFrom",
      "outputs": [],
      "stateMutability": "nonpayable",
      "type": "function"
    },
    {
      "inputs": [
        {
          "internalType": "address",
          "name": "from",
          "type": "address"
        },
        {
          "internalType": "address",
          "name": "to",
          "type": "address"
        },
        {
          "internalType": "uint256",
          "name": "tokenId",
          "type": "uint256"
        },
        {
          "internalType": "bytes",
          "name": "data",
          "type": "bytes"
        }
      ],
      "name": "safeTransferFrom",
      "outputs": [],
      "stateMutability": "nonpayable",
      "type": "function"
    },
    {
      "inputs": [
        {
          "internalType": "address",
          "name": "operator",
          "type": "address"
        },
        {
          "internalType": "bool",
          "name": "approved",
          "type": "bool"
        }
      ],
      "name": "setApprovalForAll",
      "outputs": [],
      "stateMutability": "nonpayable",
      "type": "function"
    },
    {
      "inputs": [
        {
          "internalType": "uint256",
          "name": "newLastId",
          "type": "uint256"
        }
      ],
      "name": "setLastId",
      "outputs": [],
      "stateMutability": "nonpayable",
      "type": "function"
    },
    {
      "inputs": [
        {
          "internalType": "address",
          "name": "forwarder",
          "type": "address"
        }
      ],
      "name": "setTurstedForwarder",
      "outputs": [],
      "stateMutability": "nonpayable",
      "type": "function"
    },
    {
      "inputs": [
        {
          "internalType": "bytes4",
          "name": "interfaceId",
          "type": "bytes4"
        }
      ],
      "name": "supportsInterface",
      "outputs": [
        {
          "internalType": "bool",
          "name": "",
          "type": "bool"
        }
      ],
      "stateMutability": "view",
      "type": "function"
    },
    {
      "inputs": [],
      "name": "symbol",
      "outputs": [
        {
          "internalType": "string",
          "name": "",
          "type": "string"
        }
      ],
      "stateMutability": "view",
      "type": "function"
    },
    {
      "inputs": [
        {
          "internalType": "uint256",
          "name": "tokenId",
          "type": "uint256"
        }
      ],
      "name": "tokenCollection",
      "outputs": [
        {
          "internalType": "uint256",
          "name": "",
          "type": "uint256"
        }
      ],
      "stateMutability": "view",
      "type": "function"
    },
    {
      "inputs": [
        {
          "internalType": "uint256",
          "name": "tokenId",
          "type": "uint256"
        }
      ],
      "name": "tokenURI",
      "outputs": [
        {
          "internalType": "string",
          "name": "",
          "type": "string"
        }
      ],
      "stateMutability": "view",
      "type": "function"
    },
    {
      "inputs": [
        {
          "internalType": "address",
          "name": "from",
          "type": "address"
        },
        {
          "internalType": "address",
          "name": "to",
          "type": "address"
        },
        {
          "internalType": "uint256",
          "name": "tokenId",
          "type": "uint256"
        }
      ],
      "name": "transferFrom",
      "outputs": [],
      "stateMutability": "nonpayable",
      "type": "function"
    },
    {
      "inputs": [
        {
          "internalType": "address",
          "name": "newOwner",
          "type": "address"
        }
      ],
      "name": "transferOwnership",
      "outputs": [],
      "stateMutability": "nonpayable",
      "type": "function"
    },
    {
      "inputs": [
        {
          "internalType": "uint256",
          "name": "tokenId",
          "type": "uint256"
        }
      ],
      "name": "unfreeze",
      "outputs": [],
      "stateMutability": "nonpayable",
      "type": "function"
    },
    {
      "inputs": [],
      "name": "unpause",
      "outputs": [],
      "stateMutability": "nonpayable",
      "type": "function"
    },
    {
      "inputs": [
        {
          "internalType": "uint256",
          "name": "collectionId",
          "type": "uint256"
        },
        {
          "internalType": "address",
          "name": "receiver",
          "type": "address"
        },
        {
          "internalType": "uint96",
          "name": "feeNumerator",
          "type": "uint96"
        }
      ],
      "name": "updateCollectionRoyalty",
      "outputs": [],
      "stateMutability": "nonpayable",
      "type": "function"
    },
    {
      "inputs": [
        {
          "internalType": "string",
          "name": "__contractURI",
          "type": "string"
        }
      ],
      "name": "updateContractURI",
      "outputs": [],
      "stateMutability": "nonpayable",
      "type": "function"
    },
    {
      "inputs": [
        {
          "internalType": "address",
          "name": "receiver",
          "type": "address"
        },
        {
          "internalType": "uint96",
          "name": "feeNumerator",
          "type": "uint96"
        }
      ],
      "name": "updateDefaultRoyalty",
      "outputs": [],
      "stateMutability": "nonpayable",
      "type": "function"
    },
    {
      "inputs": [
        {
          "internalType": "address",
          "name": "newImplementation",
          "type": "address"
        }
      ],
      "name": "upgradeTo",
      "outputs": [],
      "stateMutability": "nonpayable",
      "type": "function"
    },
    {
      "inputs": [
        {
          "internalType": "address",
          "name": "newImplementation",
          "type": "address"
        },
        {
          "internalType": "bytes",
          "name": "data",
          "type": "bytes"
        }
      ],
      "name": "upgradeToAndCall",
      "outputs": [],
      "stateMutability": "payable",
      "type": "function"
    }
  ],
  "bytecode": "0x60a0604052306080523480156200001557600080fd5b506200002062000026565b620000e8565b600054610100900460ff1615620000935760405162461bcd60e51b815260206004820152602760248201527f496e697469616c697a61626c653a20636f6e747261637420697320696e697469604482015266616c697a696e6760c81b606482015260840160405180910390fd5b60005460ff9081161015620000e6576000805460ff191660ff9081179091556040519081527f7f26b83ff96e1f2b6a682f133852f6798a09c465da95921460cefb38474024989060200160405180910390a15b565b60805161597962000120600039600081816113040152818161139a01528181611a1301528181611aa90152611cde01526159796000f3fe60806040526004361061034a5760003560e01c80636a662a3c116101bb578063a22cb465116100f7578063d691e43c11610095578063e8a3d4851161006f578063e8a3d48514610a0d578063e985e9c514610a22578063f2fde38b14610a42578063fb1fcca114610a6257600080fd5b8063d691e43c146109ad578063d7a78db8146109cd578063d953e4d4146109ed57600080fd5b8063c87b56dd116100d1578063c87b56dd14610920578063cde317af14610940578063ce1b815f14610961578063cea0302e1461098d57600080fd5b8063a22cb465146108c9578063b88d4fde146108e9578063c1292cc31461090957600080fd5b80638456cb591161016457806395d89b411161013e57806395d89b411461084e57806397ec4fba146108635780639a80c5e314610878578063a08947991461089857600080fd5b80638456cb59146107ee5780638da5cb5b146108035780638e45d62e1461082e57600080fd5b8063715018a611610195578063715018a614610799578063776ce868146107ae5780637e5b1e24146107ce57600080fd5b80636a662a3c14610739578063704802751461075957806370a082311461077957600080fd5b80633659cfe61161028a5780634f1ef28611610233578063572b6c051161020d578063572b6c05146106a45780635c975abb146106e15780636352211e146106f95780636623fc461461071957600080fd5b80634f1ef2861461065c578063508061a21461066f57806352d1902d1461068f57600080fd5b806342966c681161026457806342966c68146105fc578063493a75761461061c5780634cd88b761461063c57600080fd5b80633659cfe6146105a75780633f4ba83a146105c757806342842e0e146105dc57600080fd5b806317c95709116102f757806323b872dd116102d157806323b872dd146104c657806324d7806c146104e65780632a55205a1461052d5780632dd883e81461057957600080fd5b806317c957091461044d5780631a27e85f1461048657806321235083146104a657600080fd5b8063095ea7b311610328578063095ea7b3146103eb5780631771c96c1461040d5780631785f53c1461042d57600080fd5b806301ffc9a71461034f57806306fdde0314610384578063081812fc146103a6575b600080fd5b34801561035b57600080fd5b5061036f61036a366004614e50565b610a82565b60405190151581526020015b60405180910390f35b34801561039057600080fd5b50610399610b2a565b60405161037b9190614ee3565b3480156103b257600080fd5b506103c66103c1366004614ef6565b610bbc565b60405173ffffffffffffffffffffffffffffffffffffffff909116815260200161037b565b3480156103f757600080fd5b5061040b610406366004614f38565b610bf0565b005b34801561041957600080fd5b50610399610428366004614ef6565b610d6d565b34801561043957600080fd5b5061040b610448366004614f62565b610da2565b34801561045957600080fd5b5061046d610468366004614ef6565b610edd565b60405167ffffffffffffffff909116815260200161037b565b34801561049257600080fd5b5061040b6104a1366004614ef6565b610f06565b3480156104b257600080fd5b5061040b6104c1366004614ef6565b611017565b3480156104d257600080fd5b5061040b6104e1366004614f7d565b611134565b3480156104f257600080fd5b5061036f610501366004614f62565b73ffffffffffffffffffffffffffffffffffffffff166000908152610199602052604090205460ff1690565b34801561053957600080fd5b5061054d610548366004614fb9565b6111c2565b6040805173ffffffffffffffffffffffffffffffffffffffff909316835260208301919091520161037b565b34801561058557600080fd5b50610599610594366004614ef6565b6112cd565b60405190815260200161037b565b3480156105b357600080fd5b5061040b6105c2366004614f62565b6112ec565b3480156105d357600080fd5b5061040b6114be565b3480156105e857600080fd5b5061040b6105f7366004614f7d565b611579565b34801561060857600080fd5b5061040b610617366004614ef6565b611594565b34801561062857600080fd5b5061040b610637366004614ef6565b61161a565b34801561064857600080fd5b5061040b6106573660046150e7565b6117b7565b61040b61066a36600461514b565b6119fb565b34801561067b57600080fd5b5061040b61068a366004614ef6565b611bbe565b34801561069b57600080fd5b50610599611cc4565b3480156106b057600080fd5b5061036f6106bf366004614f62565b6101915473ffffffffffffffffffffffffffffffffffffffff91821691161490565b3480156106ed57600080fd5b5060c95460ff1661036f565b34801561070557600080fd5b506103c6610714366004614ef6565b611d96565b34801561072557600080fd5b5061040b610734366004614ef6565b611e08565b34801561074557600080fd5b5061040b6107543660046151ab565b611f8f565b34801561076557600080fd5b5061040b610774366004614f62565b61204b565b34801561078557600080fd5b50610599610794366004614f62565b612162565b3480156107a557600080fd5b5061040b612216565b3480156107ba57600080fd5b5061040b6107c93660046151ff565b612228565b3480156107da57600080fd5b5061040b6107e936600461522b565b6122ec565b3480156107fa57600080fd5b5061040b6123b1565b34801561080f57600080fd5b5060fb5473ffffffffffffffffffffffffffffffffffffffff166103c6565b34801561083a57600080fd5b5061036f610849366004615279565b61246a565b34801561085a57600080fd5b5061039961255b565b34801561086f57600080fd5b5061040b61256a565b34801561088457600080fd5b5061036f6108933660046152ec565b612626565b3480156108a457600080fd5b5061036f6108b3366004614ef6565b6000908152610195602052604090205460ff1690565b3480156108d557600080fd5b5061040b6108e436600461539d565b612763565b3480156108f557600080fd5b5061040b6109043660046153d4565b612775565b34801561091557600080fd5b506105996101935481565b34801561092c57600080fd5b5061039961093b366004614ef6565b61280a565b34801561094c57600080fd5b5061036f61095b366004614ef6565b50600190565b34801561096d57600080fd5b506101915473ffffffffffffffffffffffffffffffffffffffff166103c6565b34801561099957600080fd5b5061040b6109a8366004614f62565b61285b565b3480156109b957600080fd5b5061040b6109c836600461543c565b612950565b3480156109d957600080fd5b5061040b6109e8366004614ef6565b612a0b565b3480156109f957600080fd5b5061040b610a08366004614ef6565b612b95565b348015610a1957600080fd5b50610399612c58565b348015610a2e57600080fd5b5061036f610a3d366004615466565b612ce7565b348015610a4e57600080fd5b5061040b610a5d366004614f62565b612d5c565b348015610a6e57600080fd5b5061036f610a7d366004615490565b612df6565b60007fffffffff0000000000000000000000000000000000000000000000000000000082167f8c65f84d000000000000000000000000000000000000000000000000000000001480610b1557507fffffffff0000000000000000000000000000000000000000000000000000000082167f2a55205a00000000000000000000000000000000000000000000000000000000145b80610b245750610b2482612f23565b92915050565b606060658054610b399061553b565b80601f0160208091040260200160405190810160405280929190818152602001828054610b659061553b565b8015610bb25780601f10610b8757610100808354040283529160200191610bb2565b820191906000526020600020905b815481529060010190602001808311610b9557829003601f168201915b5050505050905090565b6000610bc782613006565b5060009081526069602052604090205473ffffffffffffffffffffffffffffffffffffffff1690565b6000610bfb82611d96565b90508073ffffffffffffffffffffffffffffffffffffffff168373ffffffffffffffffffffffffffffffffffffffff161415610ca45760405162461bcd60e51b815260206004820152602160248201527f4552433732313a20617070726f76616c20746f2063757272656e74206f776e6560448201527f720000000000000000000000000000000000000000000000000000000000000060648201526084015b60405180910390fd5b8073ffffffffffffffffffffffffffffffffffffffff16610cc3613077565b73ffffffffffffffffffffffffffffffffffffffff161480610cec5750610cec81610a3d613077565b610d5e5760405162461bcd60e51b815260206004820152603e60248201527f4552433732313a20617070726f76652063616c6c6572206973206e6f7420746f60448201527f6b656e206f776e6572206e6f7220617070726f76656420666f7220616c6c00006064820152608401610c9b565b610d688383613086565b505050565b6060610192610d7b83613126565b604051602001610d8c929190615660565b6040516020818303038152906040529050919050565b610daa613077565b73ffffffffffffffffffffffffffffffffffffffff16610ddf60fb5473ffffffffffffffffffffffffffffffffffffffff1690565b73ffffffffffffffffffffffffffffffffffffffff161480610e075750610e07610501613077565b610e535760405162461bcd60e51b815260206004820152601c60248201527f63616c6c6572206973206e6f74206f776e6572206f722061646d696e000000006044820152606401610c9b565b73ffffffffffffffffffffffffffffffffffffffff811660008181526101996020908152604080832080547fffffffffffffffffffffffffffffffffffffffffffffffffffffffffffffff001690558051938452908301919091527f235bc17e7930760029e9f4d860a2a8089976de5b381cf8380fc11c1d88a1113391015b60405180910390a150565b6000610ee882613006565b506000908152610198602052604090205467ffffffffffffffff1690565b610f0e613077565b73ffffffffffffffffffffffffffffffffffffffff16610f4360fb5473ffffffffffffffffffffffffffffffffffffffff1690565b73ffffffffffffffffffffffffffffffffffffffff161480610f6b5750610f6b610501613077565b610fb75760405162461bcd60e51b815260206004820152601c60248201527f63616c6c6572206973206e6f74206f776e6572206f722061646d696e000000006044820152606401610c9b565b610fbf613258565b8061019354106110115760405162461bcd60e51b815260206004820152601760248201527f4e65772049642068617320746f206265206869676865720000000000000000006044820152606401610c9b565b61019355565b61101f613077565b73ffffffffffffffffffffffffffffffffffffffff1661105460fb5473ffffffffffffffffffffffffffffffffffffffff1690565b73ffffffffffffffffffffffffffffffffffffffff16148061107c575061107c610501613077565b6110c85760405162461bcd60e51b815260206004820152601c60248201527f63616c6c6572206973206e6f74206f776e6572206f722061646d696e000000006044820152606401610c9b565b60008181526101986020908152604080832080547fffffffffffffffffffffffffffffffffffffffffffffffff00000000000000001690555191825282917f2ec2be2c4b90c2cf13ecb6751a24daed6bb741ae5ed3f7371aabf9402f6d62e8910160405180910390a250565b61114561113f613077565b826132ab565b6111b75760405162461bcd60e51b815260206004820152602e60248201527f4552433732313a2063616c6c6572206973206e6f7420746f6b656e206f776e6560448201527f72206e6f7220617070726f7665640000000000000000000000000000000000006064820152608401610c9b565b610d6883838361333d565b60008060006111d0856112cd565b6000818152610197602090815260409182902082518084019093525473ffffffffffffffffffffffffffffffffffffffff8116808452740100000000000000000000000000000000000000009091046bffffffffffffffffffffffff1691830191909152919250906112905750604080518082019091526101965473ffffffffffffffffffffffffffffffffffffffff811682527401000000000000000000000000000000000000000090046bffffffffffffffffffffffff1660208201525b6020810151600090612710906112b4906bffffffffffffffffffffffff16886156b4565b6112be9190615720565b91519791965090945050505050565b60006112d882613006565b506000908152610194602052604090205490565b3073ffffffffffffffffffffffffffffffffffffffff7f00000000000000000000000000000000000000000000000000000000000000001614156113985760405162461bcd60e51b815260206004820152602c60248201527f46756e6374696f6e206d7573742062652063616c6c6564207468726f7567682060448201527f64656c656761746563616c6c00000000000000000000000000000000000000006064820152608401610c9b565b7f000000000000000000000000000000000000000000000000000000000000000073ffffffffffffffffffffffffffffffffffffffff1661140d7f360894a13ba1a3210667c828492db98dca3e2076cc3735a920a3ca505d382bbc5473ffffffffffffffffffffffffffffffffffffffff1690565b73ffffffffffffffffffffffffffffffffffffffff16146114965760405162461bcd60e51b815260206004820152602c60248201527f46756e6374696f6e206d7573742062652063616c6c6564207468726f7567682060448201527f6163746976652070726f787900000000000000000000000000000000000000006064820152608401610c9b565b61149f8161357b565b604080516000808252602082019092526114bb9183919061362c565b50565b6114c6613077565b73ffffffffffffffffffffffffffffffffffffffff166114fb60fb5473ffffffffffffffffffffffffffffffffffffffff1690565b73ffffffffffffffffffffffffffffffffffffffff1614806115235750611523610501613077565b61156f5760405162461bcd60e51b815260206004820152601c60248201527f63616c6c6572206973206e6f74206f776e6572206f722061646d696e000000006044820152606401610c9b565b6115776137f7565b565b610d6883838360405180602001604052806000815250612775565b61159f61113f613077565b6116115760405162461bcd60e51b815260206004820152602e60248201527f4552433732313a2063616c6c6572206973206e6f7420746f6b656e206f776e6560448201527f72206e6f7220617070726f7665640000000000000000000000000000000000006064820152608401610c9b565b6114bb8161387a565b611622613077565b73ffffffffffffffffffffffffffffffffffffffff1661165760fb5473ffffffffffffffffffffffffffffffffffffffff1690565b73ffffffffffffffffffffffffffffffffffffffff16148061167f575061167f610501613077565b6116cb5760405162461bcd60e51b815260206004820152601c60248201527f63616c6c6572206973206e6f74206f776e6572206f722061646d696e000000006044820152606401610c9b565b60008181526101986020526040902054429067ffffffffffffffff808316911610156117395760405162461bcd60e51b815260206004820152601f60248201527f546f6b656e2063616e6e6f7420616c72656164792062652065787069726564006044820152606401610c9b565b6000828152610198602090815260409182902080547fffffffffffffffffffffffffffffffffffffffffffffffff00000000000000001667ffffffffffffffff8516908117909155915191825283917f2ec2be2c4b90c2cf13ecb6751a24daed6bb741ae5ed3f7371aabf9402f6d62e8910160405180910390a25050565b600054610100900460ff16158080156117d75750600054600160ff909116105b806117f15750303b1580156117f1575060005460ff166001145b6118635760405162461bcd60e51b815260206004820152602e60248201527f496e697469616c697a61626c653a20636f6e747261637420697320616c72656160448201527f647920696e697469616c697a65640000000000000000000000000000000000006064820152608401610c9b565b600080547fffffffffffffffffffffffffffffffffffffffffffffffffffffffffffffff0016600117905580156118c157600080547fffffffffffffffffffffffffffffffffffffffffffffffffffffffffffff00ff166101001790555b6118cb83836138f6565b6118d361397d565b6118db613a02565b6118e3613a87565b6118eb613a87565b739367ee417ae552cb94f3249d0424000747877aa8600081905261019960209081527fba4450de6f0bfa5c2d7737230b0f2eb1ba62f1bb4896e8c70a5dc7764e12eee680547fffffffffffffffffffffffffffffffffffffffffffffffffffffffffffffff0016600190811790915560408051848152928301919091527f235bc17e7930760029e9f4d860a2a8089976de5b381cf8380fc11c1d88a11133910160405180910390a1508015610d6857600080547fffffffffffffffffffffffffffffffffffffffffffffffffffffffffffff00ff169055604051600181527f7f26b83ff96e1f2b6a682f133852f6798a09c465da95921460cefb38474024989060200160405180910390a1505050565b3073ffffffffffffffffffffffffffffffffffffffff7f0000000000000000000000000000000000000000000000000000000000000000161415611aa75760405162461bcd60e51b815260206004820152602c60248201527f46756e6374696f6e206d7573742062652063616c6c6564207468726f7567682060448201527f64656c656761746563616c6c00000000000000000000000000000000000000006064820152608401610c9b565b7f000000000000000000000000000000000000000000000000000000000000000073ffffffffffffffffffffffffffffffffffffffff16611b1c7f360894a13ba1a3210667c828492db98dca3e2076cc3735a920a3ca505d382bbc5473ffffffffffffffffffffffffffffffffffffffff1690565b73ffffffffffffffffffffffffffffffffffffffff1614611ba55760405162461bcd60e51b815260206004820152602c60248201527f46756e6374696f6e206d7573742062652063616c6c6564207468726f7567682060448201527f6163746976652070726f787900000000000000000000000000000000000000006064820152608401610c9b565b611bae8261357b565b611bba8282600161362c565b5050565b611bc6613077565b73ffffffffffffffffffffffffffffffffffffffff16611bfb60fb5473ffffffffffffffffffffffffffffffffffffffff1690565b73ffffffffffffffffffffffffffffffffffffffff161480611c235750611c23610501613077565b611c6f5760405162461bcd60e51b815260206004820152601c60248201527f63616c6c6572206973206e6f74206f776e6572206f722061646d696e000000006044820152606401610c9b565b611c7881613006565b6000818152610195602052604090205460ff1615611c9957611c9981613b04565b6114bb611ca582611d96565b60fb5473ffffffffffffffffffffffffffffffffffffffff168361333d565b60003073ffffffffffffffffffffffffffffffffffffffff7f00000000000000000000000000000000000000000000000000000000000000001614611d715760405162461bcd60e51b815260206004820152603860248201527f555550535570677261646561626c653a206d757374206e6f742062652063616c60448201527f6c6564207468726f7567682064656c656761746563616c6c00000000000000006064820152608401610c9b565b507f360894a13ba1a3210667c828492db98dca3e2076cc3735a920a3ca505d382bbc90565b60008181526067602052604081205473ffffffffffffffffffffffffffffffffffffffff1680610b245760405162461bcd60e51b815260206004820152601860248201527f4552433732313a20696e76616c696420746f6b656e20494400000000000000006044820152606401610c9b565b611e10613077565b73ffffffffffffffffffffffffffffffffffffffff16611e4560fb5473ffffffffffffffffffffffffffffffffffffffff1690565b73ffffffffffffffffffffffffffffffffffffffff161480611e6d5750611e6d610501613077565b611eb95760405162461bcd60e51b815260206004820152601c60248201527f63616c6c6572206973206e6f74206f776e6572206f722061646d696e000000006044820152606401610c9b565b611ec1613258565b6040517fa089479900000000000000000000000000000000000000000000000000000000815260048101829052309063a089479990602401602060405180830381865afa158015611f16573d6000803e3d6000fd5b505050506040513d601f19601f82011682018060405250810190611f3a9190615734565b611f865760405162461bcd60e51b815260206004820152601360248201527f546f6b656e206973206e6f742066726f7a656e000000000000000000000000006044820152606401610c9b565b6114bb81613b04565b611f97613077565b73ffffffffffffffffffffffffffffffffffffffff16611fcc60fb5473ffffffffffffffffffffffffffffffffffffffff1690565b73ffffffffffffffffffffffffffffffffffffffff161480611ff45750611ff4610501613077565b6120405760405162461bcd60e51b815260206004820152601c60248201527f63616c6c6572206973206e6f74206f776e6572206f722061646d696e000000006044820152606401610c9b565b610d68838383613b6b565b612053613cc2565b73ffffffffffffffffffffffffffffffffffffffff81166120db5760405162461bcd60e51b8152602060048201526024808201527f4e65772061646d696e2063616e6e6f7420626520746865207a65726f2061646460448201527f72657373000000000000000000000000000000000000000000000000000000006064820152608401610c9b565b73ffffffffffffffffffffffffffffffffffffffff81166000818152610199602090815260409182902080547fffffffffffffffffffffffffffffffffffffffffffffffffffffffffffffff001660019081179091558251938452908301527f235bc17e7930760029e9f4d860a2a8089976de5b381cf8380fc11c1d88a111339101610ed2565b600073ffffffffffffffffffffffffffffffffffffffff82166121ed5760405162461bcd60e51b815260206004820152602960248201527f4552433732313a2061646472657373207a65726f206973206e6f74206120766160448201527f6c6964206f776e657200000000000000000000000000000000000000000000006064820152608401610c9b565b5073ffffffffffffffffffffffffffffffffffffffff1660009081526068602052604090205490565b61221e613cc2565b6115776000613d62565b612230613077565b73ffffffffffffffffffffffffffffffffffffffff1661226560fb5473ffffffffffffffffffffffffffffffffffffffff1690565b73ffffffffffffffffffffffffffffffffffffffff16148061228d575061228d610501613077565b6122d95760405162461bcd60e51b815260206004820152601c60248201527f63616c6c6572206973206e6f74206f776e6572206f722061646d696e000000006044820152606401610c9b565b6122e282613006565b611bba8282613dd9565b6122f4613077565b73ffffffffffffffffffffffffffffffffffffffff1661232960fb5473ffffffffffffffffffffffffffffffffffffffff1690565b73ffffffffffffffffffffffffffffffffffffffff1614806123515750612351610501613077565b61239d5760405162461bcd60e51b815260206004820152601c60248201527f63616c6c6572206973206e6f74206f776e6572206f722061646d696e000000006044820152606401610c9b565b8051611bba90610192906020840190614d89565b6123b9613077565b73ffffffffffffffffffffffffffffffffffffffff166123ee60fb5473ffffffffffffffffffffffffffffffffffffffff1690565b73ffffffffffffffffffffffffffffffffffffffff1614806124165750612416610501613077565b6124625760405162461bcd60e51b815260206004820152601c60248201527f63616c6c6572206973206e6f74206f776e6572206f722061646d696e000000006044820152606401610c9b565b611577613e97565b6000612474613258565b61247c613077565b73ffffffffffffffffffffffffffffffffffffffff166124b160fb5473ffffffffffffffffffffffffffffffffffffffff1690565b73ffffffffffffffffffffffffffffffffffffffff1614806124d957506124d9610501613077565b6125255760405162461bcd60e51b815260206004820152601c60248201527f63616c6c6572206973206e6f74206f776e6572206f722061646d696e000000006044820152606401610c9b565b600161019360008282546125399190615751565b925050819055506125508561019354868686613ef3565b90505b949350505050565b606060668054610b399061553b565b612572613077565b73ffffffffffffffffffffffffffffffffffffffff166125a760fb5473ffffffffffffffffffffffffffffffffffffffff1690565b73ffffffffffffffffffffffffffffffffffffffff1614806125cf57506125cf610501613077565b61261b5760405162461bcd60e51b815260206004820152601c60248201527f63616c6c6572206973206e6f74206f776e6572206f722061646d696e000000006044820152606401610c9b565b611577600061019655565b6000612630613258565b612638613077565b73ffffffffffffffffffffffffffffffffffffffff1661266d60fb5473ffffffffffffffffffffffffffffffffffffffff1690565b73ffffffffffffffffffffffffffffffffffffffff1614806126955750612695610501613077565b6126e15760405162461bcd60e51b815260206004820152601c60248201527f63616c6c6572206973206e6f74206f776e6572206f722061646d696e000000006044820152606401610c9b565b60005b845181101561273e5761272d86826101935460016127029190615751565b61270c9190615751565b87848151811061271e5761271e615769565b60200260200101518787613ef3565b5061273781615798565b90506126e4565b50835161019360008282546127539190615751565b9091555060019695505050505050565b611bba61276e613077565b8383613f46565b612786612780613077565b836132ab565b6127f85760405162461bcd60e51b815260206004820152602e60248201527f4552433732313a2063616c6c6572206973206e6f7420746f6b656e206f776e6560448201527f72206e6f7220617070726f7665640000000000000000000000000000000000006064820152608401610c9b565b6128048484848461405a565b50505050565b6000818152610194602052604090205460609061019261282982613126565b61283285613126565b604051602001612844939291906157d1565b604051602081830303815290604052915050919050565b612863613077565b73ffffffffffffffffffffffffffffffffffffffff1661289860fb5473ffffffffffffffffffffffffffffffffffffffff1690565b73ffffffffffffffffffffffffffffffffffffffff1614806128c057506128c0610501613077565b61290c5760405162461bcd60e51b815260206004820152601c60248201527f63616c6c6572206973206e6f74206f776e6572206f722061646d696e000000006044820152606401610c9b565b61019180547fffffffffffffffffffffffff00000000000000000000000000000000000000001673ffffffffffffffffffffffffffffffffffffffff831617905550565b612958613077565b73ffffffffffffffffffffffffffffffffffffffff1661298d60fb5473ffffffffffffffffffffffffffffffffffffffff1690565b73ffffffffffffffffffffffffffffffffffffffff1614806129b557506129b5610501613077565b612a015760405162461bcd60e51b815260206004820152601c60248201527f63616c6c6572206973206e6f74206f776e6572206f722061646d696e000000006044820152606401610c9b565b611bba82826140e3565b612a13613077565b73ffffffffffffffffffffffffffffffffffffffff16612a4860fb5473ffffffffffffffffffffffffffffffffffffffff1690565b73ffffffffffffffffffffffffffffffffffffffff161480612a705750612a70610501613077565b612abc5760405162461bcd60e51b815260206004820152601c60248201527f63616c6c6572206973206e6f74206f776e6572206f722061646d696e000000006044820152606401610c9b565b612ac4613258565b6040517fa0894799000000000000000000000000000000000000000000000000000000008152600481018290528190309063a089479990602401602060405180830381865afa158015612b1b573d6000803e3d6000fd5b505050506040513d601f19601f82011682018060405250810190612b3f9190615734565b15612b8c5760405162461bcd60e51b815260206004820152600f60248201527f546f6b656e2069732066726f7a656e00000000000000000000000000000000006044820152606401610c9b565b611bba82614229565b612b9d613077565b73ffffffffffffffffffffffffffffffffffffffff16612bd260fb5473ffffffffffffffffffffffffffffffffffffffff1690565b73ffffffffffffffffffffffffffffffffffffffff161480612bfa5750612bfa610501613077565b612c465760405162461bcd60e51b815260206004820152601c60248201527f63616c6c6572206973206e6f74206f776e6572206f722061646d696e000000006044820152606401610c9b565b60009081526101976020526040812055565b6101928054612c669061553b565b80601f0160208091040260200160405190810160405280929190818152602001828054612c929061553b565b8015612cdf5780601f10612cb457610100808354040283529160200191612cdf565b820191906000526020600020905b815481529060010190602001808311612cc257829003601f168201915b505050505081565b600073ffffffffffffffffffffffffffffffffffffffff82166e6c3852cbef3e08e8df289169ede5811415612d1e57506001610b24565b73ffffffffffffffffffffffffffffffffffffffff8084166000908152606a602090815260408083209386168352929052205460ff165b9392505050565b612d64613cc2565b73ffffffffffffffffffffffffffffffffffffffff8116612ded5760405162461bcd60e51b815260206004820152602660248201527f4f776e61626c653a206e6577206f776e657220697320746865207a65726f206160448201527f64647265737300000000000000000000000000000000000000000000000000006064820152608401610c9b565b6114bb81613d62565b6000612e00613258565b612e08613077565b73ffffffffffffffffffffffffffffffffffffffff16612e3d60fb5473ffffffffffffffffffffffffffffffffffffffff1690565b73ffffffffffffffffffffffffffffffffffffffff161480612e655750612e65610501613077565b612eb15760405162461bcd60e51b815260206004820152601c60248201527f63616c6c6572206973206e6f74206f776e6572206f722061646d696e000000006044820152606401610c9b565b60005b8551811015612f0e57612efd868281518110612ed257612ed2615769565b602002602001015182610193546001612eeb9190615751565b612ef59190615751565b878787613ef3565b50612f0781615798565b9050612eb4565b50845161019360008282546127539190615751565b60007fffffffff0000000000000000000000000000000000000000000000000000000082167f80ac58cd000000000000000000000000000000000000000000000000000000001480612fb657507fffffffff0000000000000000000000000000000000000000000000000000000082167f5b5e139f00000000000000000000000000000000000000000000000000000000145b80610b2457507f01ffc9a7000000000000000000000000000000000000000000000000000000007fffffffff00000000000000000000000000000000000000000000000000000000831614610b24565b60008181526067602052604090205473ffffffffffffffffffffffffffffffffffffffff166114bb5760405162461bcd60e51b815260206004820152601860248201527f4552433732313a20696e76616c696420746f6b656e20494400000000000000006044820152606401610c9b565b6000613081614293565b905090565b600081815260696020526040902080547fffffffffffffffffffffffff00000000000000000000000000000000000000001673ffffffffffffffffffffffffffffffffffffffff841690811790915581906130e082611d96565b73ffffffffffffffffffffffffffffffffffffffff167f8c5be1e5ebec7d5bd14f71427d1e84f3dd0314c0f7b2291e5b200ac8c7c3b92560405160405180910390a45050565b60608161316657505060408051808201909152600181527f3000000000000000000000000000000000000000000000000000000000000000602082015290565b8160005b8115613190578061317a81615798565b91506131899050600a83615720565b915061316a565b60008167ffffffffffffffff8111156131ab576131ab614fdb565b6040519080825280601f01601f1916602001820160405280156131d5576020820181803683370190505b5090505b8415612553576131ea600183615833565b91506131f7600a8661584a565b613202906030615751565b60f81b81838151811061321757613217615769565b60200101907effffffffffffffffffffffffffffffffffffffffffffffffffffffffffffff1916908160001a905350613251600a86615720565b94506131d9565b60c95460ff16156115775760405162461bcd60e51b815260206004820152601060248201527f5061757361626c653a20706175736564000000000000000000000000000000006044820152606401610c9b565b6000806132b783611d96565b90508073ffffffffffffffffffffffffffffffffffffffff168473ffffffffffffffffffffffffffffffffffffffff1614806132f857506132f88185612ce7565b8061255357508373ffffffffffffffffffffffffffffffffffffffff1661331e84610bbc565b73ffffffffffffffffffffffffffffffffffffffff1614949350505050565b8273ffffffffffffffffffffffffffffffffffffffff1661335d82611d96565b73ffffffffffffffffffffffffffffffffffffffff16146133e65760405162461bcd60e51b815260206004820152602560248201527f4552433732313a207472616e736665722066726f6d20696e636f72726563742060448201527f6f776e65720000000000000000000000000000000000000000000000000000006064820152608401610c9b565b73ffffffffffffffffffffffffffffffffffffffff821661346e5760405162461bcd60e51b8152602060048201526024808201527f4552433732313a207472616e7366657220746f20746865207a65726f2061646460448201527f72657373000000000000000000000000000000000000000000000000000000006064820152608401610c9b565b6134798383836142f3565b613484600082613086565b73ffffffffffffffffffffffffffffffffffffffff831660009081526068602052604081208054600192906134ba908490615833565b909155505073ffffffffffffffffffffffffffffffffffffffff821660009081526068602052604081208054600192906134f5908490615751565b909155505060008181526067602052604080822080547fffffffffffffffffffffffff00000000000000000000000000000000000000001673ffffffffffffffffffffffffffffffffffffffff86811691821790925591518493918716917fddf252ad1be2c89b69c2b068fc378daa952ba7f163c4a11628f55a4df523b3ef91a4505050565b613583613077565b73ffffffffffffffffffffffffffffffffffffffff166135b860fb5473ffffffffffffffffffffffffffffffffffffffff1690565b73ffffffffffffffffffffffffffffffffffffffff1614806135e057506135e0610501613077565b6114bb5760405162461bcd60e51b815260206004820152601c60248201527f63616c6c6572206973206e6f74206f776e6572206f722061646d696e000000006044820152606401610c9b565b7f4910fdfa16fed3260ed0e7147f7cc6da11a60208b5b9406d12a635614ffd91435460ff161561365f57610d68836143c8565b8273ffffffffffffffffffffffffffffffffffffffff166352d1902d6040518163ffffffff1660e01b8152600401602060405180830381865afa9250505080156136e4575060408051601f3d9081017fffffffffffffffffffffffffffffffffffffffffffffffffffffffffffffffe01682019092526136e19181019061585e565b60015b6137565760405162461bcd60e51b815260206004820152602e60248201527f45524331393637557067726164653a206e657720696d706c656d656e7461746960448201527f6f6e206973206e6f7420555550530000000000000000000000000000000000006064820152608401610c9b565b7f360894a13ba1a3210667c828492db98dca3e2076cc3735a920a3ca505d382bbc81146137eb5760405162461bcd60e51b815260206004820152602960248201527f45524331393637557067726164653a20756e737570706f727465642070726f7860448201527f6961626c655555494400000000000000000000000000000000000000000000006064820152608401610c9b565b50610d688383836144b8565b6137ff6144dd565b60c980547fffffffffffffffffffffffffffffffffffffffffffffffffffffffffffffff001690557f5db9ee0a495bf2e6ff9c91a7834c1ba4fdd244a5e8aa4e537bd38aeae4b073aa613850613077565b60405173ffffffffffffffffffffffffffffffffffffffff909116815260200160405180910390a1565b6138838161452f565b600090815261019460209081526040808320839055610195825280832080547fffffffffffffffffffffffffffffffffffffffffffffffffffffffffffffff00169055610198909152902080547fffffffffffffffffffffffffffffffffffffffffffffffff0000000000000000169055565b600054610100900460ff166139735760405162461bcd60e51b815260206004820152602b60248201527f496e697469616c697a61626c653a20636f6e7472616374206973206e6f74206960448201527f6e697469616c697a696e670000000000000000000000000000000000000000006064820152608401610c9b565b611bba8282614608565b600054610100900460ff166139fa5760405162461bcd60e51b815260206004820152602b60248201527f496e697469616c697a61626c653a20636f6e7472616374206973206e6f74206960448201527f6e697469616c697a696e670000000000000000000000000000000000000000006064820152608401610c9b565b6115776146ac565b600054610100900460ff16613a7f5760405162461bcd60e51b815260206004820152602b60248201527f496e697469616c697a61626c653a20636f6e7472616374206973206e6f74206960448201527f6e697469616c697a696e670000000000000000000000000000000000000000006064820152608401610c9b565b611577614753565b600054610100900460ff166115775760405162461bcd60e51b815260206004820152602b60248201527f496e697469616c697a61626c653a20636f6e7472616374206973206e6f74206960448201527f6e697469616c697a696e670000000000000000000000000000000000000000006064820152608401610c9b565b600081815261019560205260409081902080547fffffffffffffffffffffffffffffffffffffffffffffffffffffffffffffff00169055517f083eea12772ab70fba01c8212d02f3bc5dc29b8540dcdc84298e5dfa22731b9290610ed29083815260200190565b6127106bffffffffffffffffffffffff82161115613bf15760405162461bcd60e51b815260206004820152602a60248201527f455243323938313a20726f79616c7479206665652077696c6c2065786365656460448201527f2073616c655072696365000000000000000000000000000000000000000000006064820152608401610c9b565b73ffffffffffffffffffffffffffffffffffffffff8216613c545760405162461bcd60e51b815260206004820152601b60248201527f455243323938313a20496e76616c696420706172616d657465727300000000006044820152606401610c9b565b60408051808201825273ffffffffffffffffffffffffffffffffffffffff93841681526bffffffffffffffffffffffff928316602080830191825260009687526101979052919094209351905190911674010000000000000000000000000000000000000000029116179055565b613cca613077565b73ffffffffffffffffffffffffffffffffffffffff16613cff60fb5473ffffffffffffffffffffffffffffffffffffffff1690565b73ffffffffffffffffffffffffffffffffffffffff16146115775760405162461bcd60e51b815260206004820181905260248201527f4f776e61626c653a2063616c6c6572206973206e6f7420746865206f776e65726044820152606401610c9b565b60fb805473ffffffffffffffffffffffffffffffffffffffff8381167fffffffffffffffffffffffff0000000000000000000000000000000000000000831681179093556040519116919082907f8be0079c531659141344cd1fd0a4f28419497f9722a3daafe3b4186f6b6457e090600090a35050565b6000828152610198602052604081205467ffffffffffffffff169081613e0a57613e038342615877565b9050613e17565b613e148383615877565b90505b6000848152610198602090815260409182902080547fffffffffffffffffffffffffffffffffffffffffffffffff00000000000000001667ffffffffffffffff8516908117909155915191825285917f2ec2be2c4b90c2cf13ecb6751a24daed6bb741ae5ed3f7371aabf9402f6d62e8910160405180910390a250505050565b613e9f613258565b60c980547fffffffffffffffffffffffffffffffffffffffffffffffffffffffffffffff001660011790557f62e78cea01bee320cd4e420270b5ea74000d11b0c9f74754ebdbfc544b05a258613850613077565b6000613eff84866147e0565b6000858152610194602052604090208690558215613f2057613f2085612a0b565b67ffffffffffffffff821615613f3a57613f3a8583613dd9565b50600195945050505050565b8173ffffffffffffffffffffffffffffffffffffffff168373ffffffffffffffffffffffffffffffffffffffff161415613fc25760405162461bcd60e51b815260206004820152601960248201527f4552433732313a20617070726f766520746f2063616c6c6572000000000000006044820152606401610c9b565b73ffffffffffffffffffffffffffffffffffffffff8381166000818152606a602090815260408083209487168084529482529182902080547fffffffffffffffffffffffffffffffffffffffffffffffffffffffffffffff001686151590811790915591519182527f17307eab39ab6107e8899845ad3d59bd9653f200f220920489ca2b5937696c31910160405180910390a3505050565b61406584848461333d565b614071848484846147fa565b6128045760405162461bcd60e51b815260206004820152603260248201527f4552433732313a207472616e7366657220746f206e6f6e20455243373231526560448201527f63656976657220696d706c656d656e74657200000000000000000000000000006064820152608401610c9b565b6127106bffffffffffffffffffffffff821611156141695760405162461bcd60e51b815260206004820152602a60248201527f455243323938313a20726f79616c7479206665652077696c6c2065786365656460448201527f2073616c655072696365000000000000000000000000000000000000000000006064820152608401610c9b565b73ffffffffffffffffffffffffffffffffffffffff82166141cc5760405162461bcd60e51b815260206004820152601960248201527f455243323938313a20696e76616c6964207265636569766572000000000000006044820152606401610c9b565b6040805180820190915273ffffffffffffffffffffffffffffffffffffffff9092168083526bffffffffffffffffffffffff9091166020909201829052740100000000000000000000000000000000000000009091021761019655565b600081815261019560205260409081902080547fffffffffffffffffffffffffffffffffffffffffffffffffffffffffffffff00166001179055517f4d69b51fee53c28bd8b61fe008151577ca65160b5248f6225e74d64fd4cf732890610ed29083815260200190565b6000601436108015906142be57506101915473ffffffffffffffffffffffffffffffffffffffff1633145b156142ee57507fffffffffffffffffffffffffffffffffffffffffffffffffffffffffffffffec36013560601c90565b503390565b6142fb613258565b6040517fa0894799000000000000000000000000000000000000000000000000000000008152600481018290528190309063a089479990602401602060405180830381865afa158015614352573d6000803e3d6000fd5b505050506040513d601f19601f820116820180604052508101906143769190615734565b156143c35760405162461bcd60e51b815260206004820152600f60248201527f546f6b656e2069732066726f7a656e00000000000000000000000000000000006044820152606401610c9b565b612804565b73ffffffffffffffffffffffffffffffffffffffff81163b6144525760405162461bcd60e51b815260206004820152602d60248201527f455243313936373a206e657720696d706c656d656e746174696f6e206973206e60448201527f6f74206120636f6e7472616374000000000000000000000000000000000000006064820152608401610c9b565b7f360894a13ba1a3210667c828492db98dca3e2076cc3735a920a3ca505d382bbc80547fffffffffffffffffffffffff00000000000000000000000000000000000000001673ffffffffffffffffffffffffffffffffffffffff92909216919091179055565b6144c1836149bb565b6000825111806144ce5750805b15610d68576128048383614a08565b60c95460ff166115775760405162461bcd60e51b815260206004820152601460248201527f5061757361626c653a206e6f74207061757365640000000000000000000000006044820152606401610c9b565b600061453a82611d96565b9050614548816000846142f3565b614553600083613086565b73ffffffffffffffffffffffffffffffffffffffff81166000908152606860205260408120805460019290614589908490615833565b909155505060008281526067602052604080822080547fffffffffffffffffffffffff00000000000000000000000000000000000000001690555183919073ffffffffffffffffffffffffffffffffffffffff8416907fddf252ad1be2c89b69c2b068fc378daa952ba7f163c4a11628f55a4df523b3ef908390a45050565b600054610100900460ff166146855760405162461bcd60e51b815260206004820152602b60248201527f496e697469616c697a61626c653a20636f6e7472616374206973206e6f74206960448201527f6e697469616c697a696e670000000000000000000000000000000000000000006064820152608401610c9b565b8151614698906065906020850190614d89565b508051610d68906066906020840190614d89565b600054610100900460ff166147295760405162461bcd60e51b815260206004820152602b60248201527f496e697469616c697a61626c653a20636f6e7472616374206973206e6f74206960448201527f6e697469616c697a696e670000000000000000000000000000000000000000006064820152608401610c9b565b60c980547fffffffffffffffffffffffffffffffffffffffffffffffffffffffffffffff00169055565b600054610100900460ff166147d05760405162461bcd60e51b815260206004820152602b60248201527f496e697469616c697a61626c653a20636f6e7472616374206973206e6f74206960448201527f6e697469616c697a696e670000000000000000000000000000000000000000006064820152608401610c9b565b6115776147db613077565b613d62565b611bba828260405180602001604052806000815250614b2d565b600073ffffffffffffffffffffffffffffffffffffffff84163b156149b3578373ffffffffffffffffffffffffffffffffffffffff1663150b7a0261483d613077565b8786866040518563ffffffff1660e01b815260040161485f949392919061589a565b6020604051808303816000875af19250505080156148b8575060408051601f3d9081017fffffffffffffffffffffffffffffffffffffffffffffffffffffffffffffffe01682019092526148b5918101906158e3565b60015b614968573d8080156148e6576040519150601f19603f3d011682016040523d82523d6000602084013e6148eb565b606091505b5080516149605760405162461bcd60e51b815260206004820152603260248201527f4552433732313a207472616e7366657220746f206e6f6e20455243373231526560448201527f63656976657220696d706c656d656e74657200000000000000000000000000006064820152608401610c9b565b805181602001fd5b7fffffffff00000000000000000000000000000000000000000000000000000000167f150b7a0200000000000000000000000000000000000000000000000000000000149050612553565b506001612553565b6149c4816143c8565b60405173ffffffffffffffffffffffffffffffffffffffff8216907fbc7cd75a20ee27fd9adebab32041f755214dbc6bffa90cc0225b39da2e5c2d3b90600090a250565b606073ffffffffffffffffffffffffffffffffffffffff83163b614a945760405162461bcd60e51b815260206004820152602660248201527f416464726573733a2064656c65676174652063616c6c20746f206e6f6e2d636f60448201527f6e747261637400000000000000000000000000000000000000000000000000006064820152608401610c9b565b6000808473ffffffffffffffffffffffffffffffffffffffff1684604051614abc9190615900565b600060405180830381855af49150503d8060008114614af7576040519150601f19603f3d011682016040523d82523d6000602084013e614afc565b606091505b5091509150614b24828260405180606001604052806027815260200161591d60279139614bb6565b95945050505050565b614b378383614bef565b614b4460008484846147fa565b610d685760405162461bcd60e51b815260206004820152603260248201527f4552433732313a207472616e7366657220746f206e6f6e20455243373231526560448201527f63656976657220696d706c656d656e74657200000000000000000000000000006064820152608401610c9b565b60608315614bc5575081612d55565b825115614bd55782518084602001fd5b8160405162461bcd60e51b8152600401610c9b9190614ee3565b73ffffffffffffffffffffffffffffffffffffffff8216614c525760405162461bcd60e51b815260206004820181905260248201527f4552433732313a206d696e7420746f20746865207a65726f20616464726573736044820152606401610c9b565b60008181526067602052604090205473ffffffffffffffffffffffffffffffffffffffff1615614cc45760405162461bcd60e51b815260206004820152601c60248201527f4552433732313a20746f6b656e20616c7265616479206d696e746564000000006044820152606401610c9b565b614cd0600083836142f3565b73ffffffffffffffffffffffffffffffffffffffff82166000908152606860205260408120805460019290614d06908490615751565b909155505060008181526067602052604080822080547fffffffffffffffffffffffff00000000000000000000000000000000000000001673ffffffffffffffffffffffffffffffffffffffff861690811790915590518392907fddf252ad1be2c89b69c2b068fc378daa952ba7f163c4a11628f55a4df523b3ef908290a45050565b828054614d959061553b565b90600052602060002090601f016020900481019282614db75760008555614dfd565b82601f10614dd057805160ff1916838001178555614dfd565b82800160010185558215614dfd579182015b82811115614dfd578251825591602001919060010190614de2565b50614e09929150614e0d565b5090565b5b80821115614e095760008155600101614e0e565b7fffffffff00000000000000000000000000000000000000000000000000000000811681146114bb57600080fd5b600060208284031215614e6257600080fd5b8135612d5581614e22565b60005b83811015614e88578181015183820152602001614e70565b838111156128045750506000910152565b60008151808452614eb1816020860160208601614e6d565b601f017fffffffffffffffffffffffffffffffffffffffffffffffffffffffffffffffe0169290920160200192915050565b602081526000612d556020830184614e99565b600060208284031215614f0857600080fd5b5035919050565b803573ffffffffffffffffffffffffffffffffffffffff81168114614f3357600080fd5b919050565b60008060408385031215614f4b57600080fd5b614f5483614f0f565b946020939093013593505050565b600060208284031215614f7457600080fd5b612d5582614f0f565b600080600060608486031215614f9257600080fd5b614f9b84614f0f565b9250614fa960208501614f0f565b9150604084013590509250925092565b60008060408385031215614fcc57600080fd5b50508035926020909101359150565b7f4e487b7100000000000000000000000000000000000000000000000000000000600052604160045260246000fd5b604051601f82017fffffffffffffffffffffffffffffffffffffffffffffffffffffffffffffffe016810167ffffffffffffffff8111828210171561505157615051614fdb565b604052919050565b600082601f83011261506a57600080fd5b813567ffffffffffffffff81111561508457615084614fdb565b6150b560207fffffffffffffffffffffffffffffffffffffffffffffffffffffffffffffffe0601f8401160161500a565b8181528460208386010111156150ca57600080fd5b816020850160208301376000918101602001919091529392505050565b600080604083850312156150fa57600080fd5b823567ffffffffffffffff8082111561511257600080fd5b61511e86838701615059565b9350602085013591508082111561513457600080fd5b5061514185828601615059565b9150509250929050565b6000806040838503121561515e57600080fd5b61516783614f0f565b9150602083013567ffffffffffffffff81111561518357600080fd5b61514185828601615059565b80356bffffffffffffffffffffffff81168114614f3357600080fd5b6000806000606084860312156151c057600080fd5b833592506151d060208501614f0f565b91506151de6040850161518f565b90509250925092565b803567ffffffffffffffff81168114614f3357600080fd5b6000806040838503121561521257600080fd5b82359150615222602084016151e7565b90509250929050565b60006020828403121561523d57600080fd5b813567ffffffffffffffff81111561525457600080fd5b61255384828501615059565b80151581146114bb57600080fd5b8035614f3381615260565b6000806000806080858703121561528f57600080fd5b8435935061529f60208601614f0f565b925060408501356152af81615260565b91506152bd606086016151e7565b905092959194509250565b600067ffffffffffffffff8211156152e2576152e2614fdb565b5060051b60200190565b6000806000806080858703121561530257600080fd5b8435935060208086013567ffffffffffffffff81111561532157600080fd5b8601601f8101881361533257600080fd5b8035615345615340826152c8565b61500a565b81815260059190911b8201830190838101908a83111561536457600080fd5b928401925b828410156153895761537a84614f0f565b82529284019290840190615369565b80975050505050506152af6040860161526e565b600080604083850312156153b057600080fd5b6153b983614f0f565b915060208301356153c981615260565b809150509250929050565b600080600080608085870312156153ea57600080fd5b6153f385614f0f565b935061540160208601614f0f565b925060408501359150606085013567ffffffffffffffff81111561542457600080fd5b61543087828801615059565b91505092959194509250565b6000806040838503121561544f57600080fd5b61545883614f0f565b91506152226020840161518f565b6000806040838503121561547957600080fd5b61548283614f0f565b915061522260208401614f0f565b600080600080608085870312156154a657600080fd5b843567ffffffffffffffff8111156154bd57600080fd5b8501601f810187136154ce57600080fd5b803560206154de615340836152c8565b82815260059290921b8301810191818101908a8411156154fd57600080fd5b938201935b8385101561551b57843582529382019390820190615502565b975061552a9050888201614f0f565b95505050506152af6040860161526e565b600181811c9082168061554f57607f821691505b60208210811415615589577f4e487b7100000000000000000000000000000000000000000000000000000000600052602260045260246000fd5b50919050565b8054600090600181811c90808316806155a957607f831692505b60208084108214156155e4577f4e487b7100000000000000000000000000000000000000000000000000000000600052602260045260246000fd5b8180156155f8576001811461562757615654565b7fffffffffffffffffffffffffffffffffffffffffffffffffffffffffffffff00861689528489019650615654565b60008881526020902060005b8681101561564c5781548b820152908501908301615633565b505084890196505b50505050505092915050565b600061566c828561558f565b835161567c818360208801614e6d565b01949350505050565b7f4e487b7100000000000000000000000000000000000000000000000000000000600052601160045260246000fd5b6000817fffffffffffffffffffffffffffffffffffffffffffffffffffffffffffffffff04831182151516156156ec576156ec615685565b500290565b7f4e487b7100000000000000000000000000000000000000000000000000000000600052601260045260246000fd5b60008261572f5761572f6156f1565b500490565b60006020828403121561574657600080fd5b8151612d5581615260565b6000821982111561576457615764615685565b500190565b7f4e487b7100000000000000000000000000000000000000000000000000000000600052603260045260246000fd5b60007fffffffffffffffffffffffffffffffffffffffffffffffffffffffffffffffff8214156157ca576157ca615685565b5060010190565b60006157dd828661558f565b84516157ed818360208901614e6d565b7f2f0000000000000000000000000000000000000000000000000000000000000091019081528351615826816001840160208801614e6d565b0160010195945050505050565b60008282101561584557615845615685565b500390565b600082615859576158596156f1565b500690565b60006020828403121561587057600080fd5b5051919050565b600067ffffffffffffffff80831681851680830382111561567c5761567c615685565b600073ffffffffffffffffffffffffffffffffffffffff8087168352808616602084015250836040830152608060608301526158d96080830184614e99565b9695505050505050565b6000602082840312156158f557600080fd5b8151612d5581614e22565b60008251615912818460208701614e6d565b919091019291505056fe416464726573733a206c6f772d6c6576656c2064656c65676174652063616c6c206661696c6564a26469706673582212202a1bfe10ac2c81a49da266de36585cf66579c95e4f3c68662adf9932361ebe7564736f6c634300080c0033",
  "linkReferences": {},
  "deployedLinkReferences": {}
}