{
  "_format": "hh-sol-artifact-1",
  "contractName": "UVCollectable",
  "sourceName": "contracts/UVCollectable.sol",
  "abi": [
    {
      "inputs": [],
      "stateMutability": "nonpayable",
      "type": "constructor"
    },
    {
      "anonymous": false,
      "inputs": [
        {
          "indexed": false,
          "internalType": "address",
          "name": "previousAdmin",
          "type": "address"
        },
        {
          "indexed": false,
          "internalType": "address",
          "name": "newAdmin",
          "type": "address"
        }
      ],
      "name": "AdminChanged",
      "type": "event"
    },
    {
      "anonymous": false,
      "inputs": [
        {
          "indexed": false,
          "internalType": "address",
          "name": "admin",
          "type": "address"
        },
        {
          "indexed": false,
          "internalType": "bool",
          "name": "added",
          "type": "bool"
        }
      ],
      "name": "AdminUpdated",
      "type": "event"
    },
    {
      "anonymous": false,
      "inputs": [
        {
          "indexed": true,
          "internalType": "address",
          "name": "owner",
          "type": "address"
        },
        {
          "indexed": true,
          "internalType": "address",
          "name": "approved",
          "type": "address"
        },
        {
          "indexed": true,
          "internalType": "uint256",
          "name": "tokenId",
          "type": "uint256"
        }
      ],
      "name": "Approval",
      "type": "event"
    },
    {
      "anonymous": false,
      "inputs": [
        {
          "indexed": true,
          "internalType": "address",
          "name": "owner",
          "type": "address"
        },
        {
          "indexed": true,
          "internalType": "address",
          "name": "operator",
          "type": "address"
        },
        {
          "indexed": false,
          "internalType": "bool",
          "name": "approved",
          "type": "bool"
        }
      ],
      "name": "ApprovalForAll",
      "type": "event"
    },
    {
      "anonymous": false,
      "inputs": [
        {
          "indexed": true,
          "internalType": "address",
          "name": "beacon",
          "type": "address"
        }
      ],
      "name": "BeaconUpgraded",
      "type": "event"
    },
    {
      "anonymous": false,
      "inputs": [
        {
          "indexed": false,
          "internalType": "uint256",
          "name": "tokenId",
          "type": "uint256"
        }
      ],
      "name": "Frozen",
      "type": "event"
    },
    {
      "anonymous": false,
      "inputs": [
        {
          "indexed": false,
          "internalType": "uint8",
          "name": "version",
          "type": "uint8"
        }
      ],
      "name": "Initialized",
      "type": "event"
    },
    {
      "anonymous": false,
      "inputs": [
        {
          "indexed": true,
          "internalType": "address",
          "name": "previousOwner",
          "type": "address"
        },
        {
          "indexed": true,
          "internalType": "address",
          "name": "newOwner",
          "type": "address"
        }
      ],
      "name": "OwnershipTransferred",
      "type": "event"
    },
    {
      "anonymous": false,
      "inputs": [
        {
          "indexed": false,
          "internalType": "address",
          "name": "account",
          "type": "address"
        }
      ],
      "name": "Paused",
      "type": "event"
    },
    {
      "anonymous": false,
      "inputs": [
        {
          "indexed": true,
          "internalType": "uint256",
          "name": "tokenId",
          "type": "uint256"
        },
        {
          "indexed": false,
          "internalType": "uint64",
          "name": "expiration",
          "type": "uint64"
        }
      ],
      "name": "SubscriptionUpdate",
      "type": "event"
    },
    {
      "anonymous": false,
      "inputs": [
        {
          "indexed": true,
          "internalType": "address",
          "name": "from",
          "type": "address"
        },
        {
          "indexed": true,
          "internalType": "address",
          "name": "to",
          "type": "address"
        },
        {
          "indexed": true,
          "internalType": "uint256",
          "name": "tokenId",
          "type": "uint256"
        }
      ],
      "name": "Transfer",
      "type": "event"
    },
    {
      "anonymous": false,
      "inputs": [
        {
          "indexed": false,
          "internalType": "uint256",
          "name": "tokenId",
          "type": "uint256"
        }
      ],
      "name": "Unfrozen",
      "type": "event"
    },
    {
      "anonymous": false,
      "inputs": [
        {
          "indexed": false,
          "internalType": "address",
          "name": "account",
          "type": "address"
        }
      ],
      "name": "Unpaused",
      "type": "event"
    },
    {
      "anonymous": false,
      "inputs": [
        {
          "indexed": true,
          "internalType": "address",
          "name": "implementation",
          "type": "address"
        }
      ],
      "name": "Upgraded",
      "type": "event"
    },
    {
      "inputs": [
        {
          "internalType": "address",
          "name": "newAdmin",
          "type": "address"
        }
      ],
      "name": "addAdmin",
      "outputs": [],
      "stateMutability": "nonpayable",
      "type": "function"
    },
    {
      "inputs": [
        {
          "internalType": "address",
          "name": "to",
          "type": "address"
        },
        {
          "internalType": "uint256",
          "name": "tokenId",
          "type": "uint256"
        }
      ],
      "name": "approve",
      "outputs": [],
      "stateMutability": "nonpayable",
      "type": "function"
    },
    {
      "inputs": [
        {
          "internalType": "address",
          "name": "owner",
          "type": "address"
        }
      ],
      "name": "balanceOf",
      "outputs": [
        {
          "internalType": "uint256",
          "name": "",
          "type": "uint256"
        }
      ],
      "stateMutability": "view",
      "type": "function"
    },
    {
      "inputs": [
        {
          "internalType": "uint256",
          "name": "tokenId",
          "type": "uint256"
        }
      ],
      "name": "burn",
      "outputs": [],
      "stateMutability": "nonpayable",
      "type": "function"
    },
    {
      "inputs": [
        {
          "internalType": "uint256",
          "name": "tokenId",
          "type": "uint256"
        }
      ],
      "name": "cancelSubscription",
      "outputs": [],
      "stateMutability": "nonpayable",
      "type": "function"
    },
    {
      "inputs": [
        {
          "internalType": "uint256",
          "name": "collectionId",
          "type": "uint256"
        }
      ],
      "name": "collectionURI",
      "outputs": [
        {
          "internalType": "string",
          "name": "",
          "type": "string"
        }
      ],
      "stateMutability": "view",
      "type": "function"
    },
    {
      "inputs": [],
      "name": "contractURI",
      "outputs": [
        {
          "internalType": "string",
          "name": "",
          "type": "string"
        }
      ],
      "stateMutability": "view",
      "type": "function"
    },
    {
      "inputs": [
        {
          "internalType": "uint256",
          "name": "tokenId",
          "type": "uint256"
        }
      ],
      "name": "expiresAt",
      "outputs": [
        {
          "internalType": "uint64",
          "name": "",
          "type": "uint64"
        }
      ],
      "stateMutability": "view",
      "type": "function"
    },
    {
      "inputs": [
        {
          "internalType": "uint256",
          "name": "tokenId",
          "type": "uint256"
        }
      ],
      "name": "freeze",
      "outputs": [],
      "stateMutability": "nonpayable",
      "type": "function"
    },
    {
      "inputs": [
        {
          "internalType": "uint256",
          "name": "tokenId",
          "type": "uint256"
        }
      ],
      "name": "getApproved",
      "outputs": [
        {
          "internalType": "address",
          "name": "",
          "type": "address"
        }
      ],
      "stateMutability": "view",
      "type": "function"
    },
    {
      "inputs": [],
      "name": "getTrustedForwarder",
      "outputs": [
        {
          "internalType": "address",
          "name": "forwarder",
          "type": "address"
        }
      ],
      "stateMutability": "view",
      "type": "function"
    },
    {
      "inputs": [
        {
          "internalType": "string",
          "name": "__name",
          "type": "string"
        },
        {
          "internalType": "string",
          "name": "__symbol",
          "type": "string"
        }
      ],
      "name": "initialize",
      "outputs": [],
      "stateMutability": "nonpayable",
      "type": "function"
    },
    {
      "inputs": [
        {
          "internalType": "address",
          "name": "admin",
          "type": "address"
        }
      ],
      "name": "isAdmin",
      "outputs": [
        {
          "internalType": "bool",
          "name": "",
          "type": "bool"
        }
      ],
      "stateMutability": "view",
      "type": "function"
    },
    {
      "inputs": [
        {
          "internalType": "address",
          "name": "_owner",
          "type": "address"
        },
        {
          "internalType": "address",
          "name": "_operator",
          "type": "address"
        }
      ],
      "name": "isApprovedForAll",
      "outputs": [
        {
          "internalType": "bool",
          "name": "isOperator",
          "type": "bool"
        }
      ],
      "stateMutability": "view",
      "type": "function"
    },
    {
      "inputs": [
        {
          "internalType": "uint256",
          "name": "tokenId",
          "type": "uint256"
        }
      ],
      "name": "isFrozen",
      "outputs": [
        {
          "internalType": "bool",
          "name": "",
          "type": "bool"
        }
      ],
      "stateMutability": "view",
      "type": "function"
    },
    {
      "inputs": [
        {
          "internalType": "uint256",
          "name": "",
          "type": "uint256"
        }
      ],
      "name": "isRenewable",
      "outputs": [
        {
          "internalType": "bool",
          "name": "",
          "type": "bool"
        }
      ],
      "stateMutability": "pure",
      "type": "function"
    },
    {
      "inputs": [
        {
          "internalType": "address",
          "name": "forwarder",
          "type": "address"
        }
      ],
      "name": "isTrustedForwarder",
      "outputs": [
        {
          "internalType": "bool",
          "name": "",
          "type": "bool"
        }
      ],
      "stateMutability": "view",
      "type": "function"
    },
    {
      "inputs": [],
      "name": "lastId",
      "outputs": [
        {
          "internalType": "uint256",
          "name": "",
          "type": "uint256"
        }
      ],
      "stateMutability": "view",
      "type": "function"
    },
    {
      "inputs": [
        {
          "internalType": "uint256",
          "name": "collectionId",
          "type": "uint256"
        },
        {
          "internalType": "address[]",
          "name": "to",
          "type": "address[]"
        },
        {
          "internalType": "bool",
          "name": "frozen",
          "type": "bool"
        },
        {
          "internalType": "uint64",
          "name": "validDuration",
          "type": "uint64"
        }
      ],
      "name": "mintCollectionToManyUsers",
      "outputs": [
        {
          "internalType": "bool",
          "name": "",
          "type": "bool"
        }
      ],
      "stateMutability": "nonpayable",
      "type": "function"
    },
    {
      "inputs": [
        {
          "internalType": "uint256",
          "name": "collectionId",
          "type": "uint256"
        },
        {
          "internalType": "address",
          "name": "to",
          "type": "address"
        },
        {
          "internalType": "bool",
          "name": "frozen",
          "type": "bool"
        },
        {
          "internalType": "uint64",
          "name": "validDuration",
          "type": "uint64"
        }
      ],
      "name": "mintToken",
      "outputs": [
        {
          "internalType": "bool",
          "name": "",
          "type": "bool"
        }
      ],
      "stateMutability": "nonpayable",
      "type": "function"
    },
    {
      "inputs": [
        {
          "internalType": "uint256[]",
          "name": "collectionIds",
          "type": "uint256[]"
        },
        {
          "internalType": "address",
          "name": "to",
          "type": "address"
        },
        {
          "internalType": "bool",
          "name": "frozen",
          "type": "bool"
        },
        {
          "internalType": "uint64",
          "name": "validDuration",
          "type": "uint64"
        }
      ],
      "name": "mintUserToManyCollections",
      "outputs": [
        {
          "internalType": "bool",
          "name": "",
          "type": "bool"
        }
      ],
      "stateMutability": "nonpayable",
      "type": "function"
    },
    {
      "inputs": [],
      "name": "name",
      "outputs": [
        {
          "internalType": "string",
          "name": "",
          "type": "string"
        }
      ],
      "stateMutability": "view",
      "type": "function"
    },
    {
      "inputs": [],
      "name": "owner",
      "outputs": [
        {
          "internalType": "address",
          "name": "",
          "type": "address"
        }
      ],
      "stateMutability": "view",
      "type": "function"
    },
    {
      "inputs": [
        {
          "internalType": "uint256",
          "name": "tokenId",
          "type": "uint256"
        }
      ],
      "name": "ownerOf",
      "outputs": [
        {
          "internalType": "address",
          "name": "",
          "type": "address"
        }
      ],
      "stateMutability": "view",
      "type": "function"
    },
    {
      "inputs": [],
      "name": "pause",
      "outputs": [],
      "stateMutability": "nonpayable",
      "type": "function"
    },
    {
      "inputs": [],
      "name": "paused",
      "outputs": [
        {
          "internalType": "bool",
          "name": "",
          "type": "bool"
        }
      ],
      "stateMutability": "view",
      "type": "function"
    },
    {
      "inputs": [],
      "name": "proxiableUUID",
      "outputs": [
        {
          "internalType": "bytes32",
          "name": "",
          "type": "bytes32"
        }
      ],
      "stateMutability": "view",
      "type": "function"
    },
    {
      "inputs": [
        {
          "internalType": "uint256",
          "name": "tokenId",
          "type": "uint256"
        }
      ],
      "name": "reclaimToken",
      "outputs": [],
      "stateMutability": "nonpayable",
      "type": "function"
    },
    {
      "inputs": [
        {
          "internalType": "address",
          "name": "admin",
          "type": "address"
        }
      ],
      "name": "removeAdmin",
      "outputs": [],
      "stateMutability": "nonpayable",
      "type": "function"
    },
    {
      "inputs": [
        {
          "internalType": "uint256",
          "name": "collectionId",
          "type": "uint256"
        }
      ],
      "name": "removeCollectionRoyalty",
      "outputs": [],
      "stateMutability": "nonpayable",
      "type": "function"
    },
    {
      "inputs": [],
      "name": "removeDefaultRoyalty",
      "outputs": [],
      "stateMutability": "nonpayable",
      "type": "function"
    },
    {
      "inputs": [
        {
          "internalType": "uint256",
          "name": "tokenId",
          "type": "uint256"
        },
        {
          "internalType": "uint64",
          "name": "duration",
          "type": "uint64"
        }
      ],
      "name": "renewSubscription",
      "outputs": [],
      "stateMutability": "nonpayable",
      "type": "function"
    },
    {
      "inputs": [],
      "name": "renounceOwnership",
      "outputs": [],
      "stateMutability": "nonpayable",
      "type": "function"
    },
    {
      "inputs": [
        {
          "internalType": "uint256",
          "name": "_tokenId",
          "type": "uint256"
        },
        {
          "internalType": "uint256",
          "name": "_salePrice",
          "type": "uint256"
        }
      ],
      "name": "royaltyInfo",
      "outputs": [
        {
          "internalType": "address",
          "name": "",
          "type": "address"
        },
        {
          "internalType": "uint256",
          "name": "",
          "type": "uint256"
        }
      ],
      "stateMutability": "view",
      "type": "function"
    },
    {
      "inputs": [
        {
          "internalType": "address",
          "name": "from",
          "type": "address"
        },
        {
          "internalType": "address",
          "name": "to",
          "type": "address"
        },
        {
          "internalType": "uint256",
          "name": "tokenId",
          "type": "uint256"
        }
      ],
      "name": "safeTransferFrom",
      "outputs": [],
      "stateMutability": "nonpayable",
      "type": "function"
    },
    {
      "inputs": [
        {
          "internalType": "address",
          "name": "from",
          "type": "address"
        },
        {
          "internalType": "address",
          "name": "to",
          "type": "address"
        },
        {
          "internalType": "uint256",
          "name": "tokenId",
          "type": "uint256"
        },
        {
          "internalType": "bytes",
          "name": "data",
          "type": "bytes"
        }
      ],
      "name": "safeTransferFrom",
      "outputs": [],
      "stateMutability": "nonpayable",
      "type": "function"
    },
    {
      "inputs": [
        {
          "internalType": "address",
          "name": "operator",
          "type": "address"
        },
        {
          "internalType": "bool",
          "name": "approved",
          "type": "bool"
        }
      ],
      "name": "setApprovalForAll",
      "outputs": [],
      "stateMutability": "nonpayable",
      "type": "function"
    },
    {
      "inputs": [
        {
          "internalType": "uint256",
          "name": "tokenId",
          "type": "uint256"
        },
        {
          "internalType": "uint64",
          "name": "newExpiration",
          "type": "uint64"
        }
      ],
      "name": "setExpiration",
      "outputs": [],
      "stateMutability": "nonpayable",
      "type": "function"
    },
    {
      "inputs": [
        {
          "internalType": "uint256",
          "name": "newLastId",
          "type": "uint256"
        }
      ],
      "name": "setLastId",
      "outputs": [],
      "stateMutability": "nonpayable",
      "type": "function"
    },
    {
      "inputs": [
        {
          "internalType": "address",
          "name": "forwarder",
          "type": "address"
        }
      ],
      "name": "setTurstedForwarder",
      "outputs": [],
      "stateMutability": "nonpayable",
      "type": "function"
    },
    {
      "inputs": [
        {
          "internalType": "bytes4",
          "name": "interfaceId",
          "type": "bytes4"
        }
      ],
      "name": "supportsInterface",
      "outputs": [
        {
          "internalType": "bool",
          "name": "",
          "type": "bool"
        }
      ],
      "stateMutability": "view",
      "type": "function"
    },
    {
      "inputs": [],
      "name": "symbol",
      "outputs": [
        {
          "internalType": "string",
          "name": "",
          "type": "string"
        }
      ],
      "stateMutability": "view",
      "type": "function"
    },
    {
      "inputs": [
        {
          "internalType": "uint256",
          "name": "tokenId",
          "type": "uint256"
        }
      ],
      "name": "tokenCollection",
      "outputs": [
        {
          "internalType": "uint256",
          "name": "",
          "type": "uint256"
        }
      ],
      "stateMutability": "view",
      "type": "function"
    },
    {
      "inputs": [
        {
          "internalType": "uint256",
          "name": "tokenId",
          "type": "uint256"
        }
      ],
      "name": "tokenURI",
      "outputs": [
        {
          "internalType": "string",
          "name": "",
          "type": "string"
        }
      ],
      "stateMutability": "view",
      "type": "function"
    },
    {
      "inputs": [
        {
          "internalType": "address",
          "name": "from",
          "type": "address"
        },
        {
          "internalType": "address",
          "name": "to",
          "type": "address"
        },
        {
          "internalType": "uint256",
          "name": "tokenId",
          "type": "uint256"
        }
      ],
      "name": "transferFrom",
      "outputs": [],
      "stateMutability": "nonpayable",
      "type": "function"
    },
    {
      "inputs": [
        {
          "internalType": "address",
          "name": "newOwner",
          "type": "address"
        }
      ],
      "name": "transferOwnership",
      "outputs": [],
      "stateMutability": "nonpayable",
      "type": "function"
    },
    {
      "inputs": [
        {
          "internalType": "uint256",
          "name": "tokenId",
          "type": "uint256"
        }
      ],
      "name": "unfreeze",
      "outputs": [],
      "stateMutability": "nonpayable",
      "type": "function"
    },
    {
      "inputs": [],
      "name": "unpause",
      "outputs": [],
      "stateMutability": "nonpayable",
      "type": "function"
    },
    {
      "inputs": [
        {
          "internalType": "uint256",
          "name": "collectionId",
          "type": "uint256"
        },
        {
          "internalType": "address",
          "name": "receiver",
          "type": "address"
        },
        {
          "internalType": "uint96",
          "name": "feeNumerator",
          "type": "uint96"
        }
      ],
      "name": "updateCollectionRoyalty",
      "outputs": [],
      "stateMutability": "nonpayable",
      "type": "function"
    },
    {
      "inputs": [
        {
          "internalType": "string",
          "name": "__contractURI",
          "type": "string"
        }
      ],
      "name": "updateContractURI",
      "outputs": [],
      "stateMutability": "nonpayable",
      "type": "function"
    },
    {
      "inputs": [
        {
          "internalType": "address",
          "name": "receiver",
          "type": "address"
        },
        {
          "internalType": "uint96",
          "name": "feeNumerator",
          "type": "uint96"
        }
      ],
      "name": "updateDefaultRoyalty",
      "outputs": [],
      "stateMutability": "nonpayable",
      "type": "function"
    },
    {
      "inputs": [
        {
          "internalType": "address",
          "name": "newImplementation",
          "type": "address"
        }
      ],
      "name": "upgradeTo",
      "outputs": [],
      "stateMutability": "nonpayable",
      "type": "function"
    },
    {
      "inputs": [
        {
          "internalType": "address",
          "name": "newImplementation",
          "type": "address"
        },
        {
          "internalType": "bytes",
          "name": "data",
          "type": "bytes"
        }
      ],
      "name": "upgradeToAndCall",
      "outputs": [],
      "stateMutability": "payable",
      "type": "function"
    }
  ],
  "bytecode": "0x60a0604052306080523480156200001557600080fd5b506200002062000026565b620000e8565b600054610100900460ff1615620000935760405162461bcd60e51b815260206004820152602760248201527f496e697469616c697a61626c653a20636f6e747261637420697320696e697469604482015266616c697a696e6760c81b606482015260840160405180910390fd5b60005460ff9081161015620000e6576000805460ff191660ff9081179091556040519081527f7f26b83ff96e1f2b6a682f133852f6798a09c465da95921460cefb38474024989060200160405180910390a15b565b60805161598e62000120600039600081816113040152818161139a015281816118760152818161190c0152611b29015261598e6000f3fe60806040526004361061034a5760003560e01c806370480275116101bb578063b88d4fde116100f7578063d691e43c11610095578063e8a3d4851161006f578063e8a3d48514610a0d578063e985e9c514610a22578063f2fde38b14610a42578063fb1fcca114610a6257600080fd5b8063d691e43c146109ad578063d7a78db8146109cd578063d953e4d4146109ed57600080fd5b8063cde317af116100d1578063cde317af14610920578063ce1b815f14610941578063cea0302e1461096d578063d1c332de1461098d57600080fd5b8063b88d4fde146108c9578063c1292cc3146108e9578063c87b56dd1461090057600080fd5b80638da5cb5b1161016457806397ec4fba1161013e57806397ec4fba146108435780639a80c5e314610858578063a089479914610878578063a22cb465146108a957600080fd5b80638da5cb5b146107e35780638e45d62e1461080e57806395d89b411461082e57600080fd5b8063776ce86811610195578063776ce8681461078e5780637e5b1e24146107ae5780638456cb59146107ce57600080fd5b8063704802751461073957806370a0823114610759578063715018a61461077957600080fd5b80633659cfe61161028a578063508061a2116102335780635c975abb1161020d5780635c975abb146106c15780636352211e146106d95780636623fc46146106f95780636a662a3c1461071957600080fd5b8063508061a21461064f57806352d1902d1461066f578063572b6c051461068457600080fd5b806342966c681161026457806342966c68146105fc5780634cd88b761461061c5780634f1ef2861461063c57600080fd5b80633659cfe6146105a75780633f4ba83a146105c757806342842e0e146105dc57600080fd5b806317c95709116102f757806323b872dd116102d157806323b872dd146104c657806324d7806c146104e65780632a55205a1461052d5780632dd883e81461057957600080fd5b806317c957091461044d5780631a27e85f1461048657806321235083146104a657600080fd5b8063095ea7b311610328578063095ea7b3146103eb5780631771c96c1461040d5780631785f53c1461042d57600080fd5b806301ffc9a71461034f57806306fdde0314610384578063081812fc146103a6575b600080fd5b34801561035b57600080fd5b5061036f61036a366004614e65565b610a82565b60405190151581526020015b60405180910390f35b34801561039057600080fd5b50610399610b2a565b60405161037b9190614ef8565b3480156103b257600080fd5b506103c66103c1366004614f0b565b610bbc565b60405173ffffffffffffffffffffffffffffffffffffffff909116815260200161037b565b3480156103f757600080fd5b5061040b610406366004614f4d565b610bf0565b005b34801561041957600080fd5b50610399610428366004614f0b565b610d6d565b34801561043957600080fd5b5061040b610448366004614f77565b610da2565b34801561045957600080fd5b5061046d610468366004614f0b565b610edd565b60405167ffffffffffffffff909116815260200161037b565b34801561049257600080fd5b5061040b6104a1366004614f0b565b610f06565b3480156104b257600080fd5b5061040b6104c1366004614f0b565b611017565b3480156104d257600080fd5b5061040b6104e1366004614f92565b611134565b3480156104f257600080fd5b5061036f610501366004614f77565b73ffffffffffffffffffffffffffffffffffffffff166000908152610199602052604090205460ff1690565b34801561053957600080fd5b5061054d610548366004614fce565b6111c2565b6040805173ffffffffffffffffffffffffffffffffffffffff909316835260208301919091520161037b565b34801561058557600080fd5b50610599610594366004614f0b565b6112cd565b60405190815260200161037b565b3480156105b357600080fd5b5061040b6105c2366004614f77565b6112ec565b3480156105d357600080fd5b5061040b6114be565b3480156105e857600080fd5b5061040b6105f7366004614f92565b611579565b34801561060857600080fd5b5061040b610617366004614f0b565b611594565b34801561062857600080fd5b5061040b6106373660046150fc565b61161a565b61040b61064a366004615160565b61185e565b34801561065b57600080fd5b5061040b61066a366004614f0b565b611a21565b34801561067b57600080fd5b50610599611b0f565b34801561069057600080fd5b5061036f61069f366004614f77565b6101915473ffffffffffffffffffffffffffffffffffffffff91821691161490565b3480156106cd57600080fd5b5060c95460ff1661036f565b3480156106e557600080fd5b506103c66106f4366004614f0b565b611be1565b34801561070557600080fd5b5061040b610714366004614f0b565b611c53565b34801561072557600080fd5b5061040b6107343660046151c0565b611d1e565b34801561074557600080fd5b5061040b610754366004614f77565b611dda565b34801561076557600080fd5b50610599610774366004614f77565b611ef1565b34801561078557600080fd5b5061040b611fa5565b34801561079a57600080fd5b5061040b6107a9366004615214565b611fb7565b3480156107ba57600080fd5b5061040b6107c9366004615240565b61207b565b3480156107da57600080fd5b5061040b612140565b3480156107ef57600080fd5b5060fb5473ffffffffffffffffffffffffffffffffffffffff166103c6565b34801561081a57600080fd5b5061036f61082936600461528e565b6121f9565b34801561083a57600080fd5b506103996122ea565b34801561084f57600080fd5b5061040b6122f9565b34801561086457600080fd5b5061036f610873366004615301565b6123b5565b34801561088457600080fd5b5061036f610893366004614f0b565b6000908152610195602052604090205460ff1690565b3480156108b557600080fd5b5061040b6108c43660046153b2565b612582565b3480156108d557600080fd5b5061040b6108e43660046153e9565b612594565b3480156108f557600080fd5b506105996101935481565b34801561090c57600080fd5b5061039961091b366004614f0b565b612629565b34801561092c57600080fd5b5061036f61093b366004614f0b565b50600190565b34801561094d57600080fd5b506101915473ffffffffffffffffffffffffffffffffffffffff166103c6565b34801561097957600080fd5b5061040b610988366004614f77565b61267a565b34801561099957600080fd5b5061040b6109a8366004615214565b61276f565b3480156109b957600080fd5b5061040b6109c8366004615451565b6128a7565b3480156109d957600080fd5b5061040b6109e8366004614f0b565b612962565b3480156109f957600080fd5b5061040b610a08366004614f0b565b612aec565b348015610a1957600080fd5b50610399612baf565b348015610a2e57600080fd5b5061036f610a3d36600461547b565b612c3e565b348015610a4e57600080fd5b5061040b610a5d366004614f77565b612ce4565b348015610a6e57600080fd5b5061036f610a7d3660046154a5565b612d7e565b60007fffffffff0000000000000000000000000000000000000000000000000000000082167f8c65f84d000000000000000000000000000000000000000000000000000000001480610b1557507fffffffff0000000000000000000000000000000000000000000000000000000082167f2a55205a00000000000000000000000000000000000000000000000000000000145b80610b245750610b2482612f3b565b92915050565b606060658054610b3990615550565b80601f0160208091040260200160405190810160405280929190818152602001828054610b6590615550565b8015610bb25780601f10610b8757610100808354040283529160200191610bb2565b820191906000526020600020905b815481529060010190602001808311610b9557829003601f168201915b5050505050905090565b6000610bc78261301e565b5060009081526069602052604090205473ffffffffffffffffffffffffffffffffffffffff1690565b6000610bfb82611be1565b90508073ffffffffffffffffffffffffffffffffffffffff168373ffffffffffffffffffffffffffffffffffffffff161415610ca45760405162461bcd60e51b815260206004820152602160248201527f4552433732313a20617070726f76616c20746f2063757272656e74206f776e6560448201527f720000000000000000000000000000000000000000000000000000000000000060648201526084015b60405180910390fd5b8073ffffffffffffffffffffffffffffffffffffffff16610cc361308f565b73ffffffffffffffffffffffffffffffffffffffff161480610cec5750610cec81610a3d61308f565b610d5e5760405162461bcd60e51b815260206004820152603e60248201527f4552433732313a20617070726f76652063616c6c6572206973206e6f7420746f60448201527f6b656e206f776e6572206e6f7220617070726f76656420666f7220616c6c00006064820152608401610c9b565b610d68838361309e565b505050565b6060610192610d7b8361313e565b604051602001610d8c929190615675565b6040516020818303038152906040529050919050565b610daa61308f565b73ffffffffffffffffffffffffffffffffffffffff16610ddf60fb5473ffffffffffffffffffffffffffffffffffffffff1690565b73ffffffffffffffffffffffffffffffffffffffff161480610e075750610e0761050161308f565b610e535760405162461bcd60e51b815260206004820152601c60248201527f63616c6c6572206973206e6f74206f776e6572206f722061646d696e000000006044820152606401610c9b565b73ffffffffffffffffffffffffffffffffffffffff811660008181526101996020908152604080832080547fffffffffffffffffffffffffffffffffffffffffffffffffffffffffffffff001690558051938452908301919091527f235bc17e7930760029e9f4d860a2a8089976de5b381cf8380fc11c1d88a1113391015b60405180910390a150565b6000610ee88261301e565b506000908152610198602052604090205467ffffffffffffffff1690565b610f0e61308f565b73ffffffffffffffffffffffffffffffffffffffff16610f4360fb5473ffffffffffffffffffffffffffffffffffffffff1690565b73ffffffffffffffffffffffffffffffffffffffff161480610f6b5750610f6b61050161308f565b610fb75760405162461bcd60e51b815260206004820152601c60248201527f63616c6c6572206973206e6f74206f776e6572206f722061646d696e000000006044820152606401610c9b565b610fbf613270565b8061019354106110115760405162461bcd60e51b815260206004820152601760248201527f4e65772049642068617320746f206265206869676865720000000000000000006044820152606401610c9b565b61019355565b61101f61308f565b73ffffffffffffffffffffffffffffffffffffffff1661105460fb5473ffffffffffffffffffffffffffffffffffffffff1690565b73ffffffffffffffffffffffffffffffffffffffff16148061107c575061107c61050161308f565b6110c85760405162461bcd60e51b815260206004820152601c60248201527f63616c6c6572206973206e6f74206f776e6572206f722061646d696e000000006044820152606401610c9b565b60008181526101986020908152604080832080547fffffffffffffffffffffffffffffffffffffffffffffffff00000000000000001690555191825282917f2ec2be2c4b90c2cf13ecb6751a24daed6bb741ae5ed3f7371aabf9402f6d62e8910160405180910390a250565b61114561113f61308f565b826132c3565b6111b75760405162461bcd60e51b815260206004820152602e60248201527f4552433732313a2063616c6c6572206973206e6f7420746f6b656e206f776e6560448201527f72206e6f7220617070726f7665640000000000000000000000000000000000006064820152608401610c9b565b610d68838383613355565b60008060006111d0856112cd565b6000818152610197602090815260409182902082518084019093525473ffffffffffffffffffffffffffffffffffffffff8116808452740100000000000000000000000000000000000000009091046bffffffffffffffffffffffff1691830191909152919250906112905750604080518082019091526101965473ffffffffffffffffffffffffffffffffffffffff811682527401000000000000000000000000000000000000000090046bffffffffffffffffffffffff1660208201525b6020810151600090612710906112b4906bffffffffffffffffffffffff16886156c9565b6112be9190615735565b91519791965090945050505050565b60006112d88261301e565b506000908152610194602052604090205490565b3073ffffffffffffffffffffffffffffffffffffffff7f00000000000000000000000000000000000000000000000000000000000000001614156113985760405162461bcd60e51b815260206004820152602c60248201527f46756e6374696f6e206d7573742062652063616c6c6564207468726f7567682060448201527f64656c656761746563616c6c00000000000000000000000000000000000000006064820152608401610c9b565b7f000000000000000000000000000000000000000000000000000000000000000073ffffffffffffffffffffffffffffffffffffffff1661140d7f360894a13ba1a3210667c828492db98dca3e2076cc3735a920a3ca505d382bbc5473ffffffffffffffffffffffffffffffffffffffff1690565b73ffffffffffffffffffffffffffffffffffffffff16146114965760405162461bcd60e51b815260206004820152602c60248201527f46756e6374696f6e206d7573742062652063616c6c6564207468726f7567682060448201527f6163746976652070726f787900000000000000000000000000000000000000006064820152608401610c9b565b61149f81613593565b604080516000808252602082019092526114bb91839190613644565b50565b6114c661308f565b73ffffffffffffffffffffffffffffffffffffffff166114fb60fb5473ffffffffffffffffffffffffffffffffffffffff1690565b73ffffffffffffffffffffffffffffffffffffffff161480611523575061152361050161308f565b61156f5760405162461bcd60e51b815260206004820152601c60248201527f63616c6c6572206973206e6f74206f776e6572206f722061646d696e000000006044820152606401610c9b565b61157761380f565b565b610d6883838360405180602001604052806000815250612594565b61159f61113f61308f565b6116115760405162461bcd60e51b815260206004820152602e60248201527f4552433732313a2063616c6c6572206973206e6f7420746f6b656e206f776e6560448201527f72206e6f7220617070726f7665640000000000000000000000000000000000006064820152608401610c9b565b6114bb81613892565b600054610100900460ff161580801561163a5750600054600160ff909116105b806116545750303b158015611654575060005460ff166001145b6116c65760405162461bcd60e51b815260206004820152602e60248201527f496e697469616c697a61626c653a20636f6e747261637420697320616c72656160448201527f647920696e697469616c697a65640000000000000000000000000000000000006064820152608401610c9b565b600080547fffffffffffffffffffffffffffffffffffffffffffffffffffffffffffffff00166001179055801561172457600080547fffffffffffffffffffffffffffffffffffffffffffffffffffffffffffff00ff166101001790555b61172e838361390e565b611736613995565b61173e613a1a565b611746613a9f565b61174e613a9f565b739367ee417ae552cb94f3249d0424000747877aa8600081905261019960209081527fba4450de6f0bfa5c2d7737230b0f2eb1ba62f1bb4896e8c70a5dc7764e12eee680547fffffffffffffffffffffffffffffffffffffffffffffffffffffffffffffff0016600190811790915560408051848152928301919091527f235bc17e7930760029e9f4d860a2a8089976de5b381cf8380fc11c1d88a11133910160405180910390a1508015610d6857600080547fffffffffffffffffffffffffffffffffffffffffffffffffffffffffffff00ff169055604051600181527f7f26b83ff96e1f2b6a682f133852f6798a09c465da95921460cefb38474024989060200160405180910390a1505050565b3073ffffffffffffffffffffffffffffffffffffffff7f000000000000000000000000000000000000000000000000000000000000000016141561190a5760405162461bcd60e51b815260206004820152602c60248201527f46756e6374696f6e206d7573742062652063616c6c6564207468726f7567682060448201527f64656c656761746563616c6c00000000000000000000000000000000000000006064820152608401610c9b565b7f000000000000000000000000000000000000000000000000000000000000000073ffffffffffffffffffffffffffffffffffffffff1661197f7f360894a13ba1a3210667c828492db98dca3e2076cc3735a920a3ca505d382bbc5473ffffffffffffffffffffffffffffffffffffffff1690565b73ffffffffffffffffffffffffffffffffffffffff1614611a085760405162461bcd60e51b815260206004820152602c60248201527f46756e6374696f6e206d7573742062652063616c6c6564207468726f7567682060448201527f6163746976652070726f787900000000000000000000000000000000000000006064820152608401610c9b565b611a1182613593565b611a1d82826001613644565b5050565b611a2961308f565b73ffffffffffffffffffffffffffffffffffffffff16611a5e60fb5473ffffffffffffffffffffffffffffffffffffffff1690565b73ffffffffffffffffffffffffffffffffffffffff161480611a865750611a8661050161308f565b611ad25760405162461bcd60e51b815260206004820152601c60248201527f63616c6c6572206973206e6f74206f776e6572206f722061646d696e000000006044820152606401610c9b565b611adb81613b1c565b611ae481613b84565b6114bb611af082611be1565b60fb5473ffffffffffffffffffffffffffffffffffffffff1683613355565b60003073ffffffffffffffffffffffffffffffffffffffff7f00000000000000000000000000000000000000000000000000000000000000001614611bbc5760405162461bcd60e51b815260206004820152603860248201527f555550535570677261646561626c653a206d757374206e6f742062652063616c60448201527f6c6564207468726f7567682064656c656761746563616c6c00000000000000006064820152608401610c9b565b507f360894a13ba1a3210667c828492db98dca3e2076cc3735a920a3ca505d382bbc90565b60008181526067602052604081205473ffffffffffffffffffffffffffffffffffffffff1680610b245760405162461bcd60e51b815260206004820152601860248201527f4552433732313a20696e76616c696420746f6b656e20494400000000000000006044820152606401610c9b565b611c5b61308f565b73ffffffffffffffffffffffffffffffffffffffff16611c9060fb5473ffffffffffffffffffffffffffffffffffffffff1690565b73ffffffffffffffffffffffffffffffffffffffff161480611cb85750611cb861050161308f565b611d045760405162461bcd60e51b815260206004820152601c60248201527f63616c6c6572206973206e6f74206f776e6572206f722061646d696e000000006044820152606401610c9b565b611d0c613270565b611d1581613b1c565b6114bb81613b84565b611d2661308f565b73ffffffffffffffffffffffffffffffffffffffff16611d5b60fb5473ffffffffffffffffffffffffffffffffffffffff1690565b73ffffffffffffffffffffffffffffffffffffffff161480611d835750611d8361050161308f565b611dcf5760405162461bcd60e51b815260206004820152601c60248201527f63616c6c6572206973206e6f74206f776e6572206f722061646d696e000000006044820152606401610c9b565b610d68838383613beb565b611de2613d42565b73ffffffffffffffffffffffffffffffffffffffff8116611e6a5760405162461bcd60e51b8152602060048201526024808201527f4e65772061646d696e2063616e6e6f7420626520746865207a65726f2061646460448201527f72657373000000000000000000000000000000000000000000000000000000006064820152608401610c9b565b73ffffffffffffffffffffffffffffffffffffffff81166000818152610199602090815260409182902080547fffffffffffffffffffffffffffffffffffffffffffffffffffffffffffffff001660019081179091558251938452908301527f235bc17e7930760029e9f4d860a2a8089976de5b381cf8380fc11c1d88a111339101610ed2565b600073ffffffffffffffffffffffffffffffffffffffff8216611f7c5760405162461bcd60e51b815260206004820152602960248201527f4552433732313a2061646472657373207a65726f206973206e6f74206120766160448201527f6c6964206f776e657200000000000000000000000000000000000000000000006064820152608401610c9b565b5073ffffffffffffffffffffffffffffffffffffffff1660009081526068602052604090205490565b611fad613d42565b6115776000613de2565b611fbf61308f565b73ffffffffffffffffffffffffffffffffffffffff16611ff460fb5473ffffffffffffffffffffffffffffffffffffffff1690565b73ffffffffffffffffffffffffffffffffffffffff16148061201c575061201c61050161308f565b6120685760405162461bcd60e51b815260206004820152601c60248201527f63616c6c6572206973206e6f74206f776e6572206f722061646d696e000000006044820152606401610c9b565b6120718261301e565b611a1d8282613e59565b61208361308f565b73ffffffffffffffffffffffffffffffffffffffff166120b860fb5473ffffffffffffffffffffffffffffffffffffffff1690565b73ffffffffffffffffffffffffffffffffffffffff1614806120e057506120e061050161308f565b61212c5760405162461bcd60e51b815260206004820152601c60248201527f63616c6c6572206973206e6f74206f776e6572206f722061646d696e000000006044820152606401610c9b565b8051611a1d90610192906020840190614d9e565b61214861308f565b73ffffffffffffffffffffffffffffffffffffffff1661217d60fb5473ffffffffffffffffffffffffffffffffffffffff1690565b73ffffffffffffffffffffffffffffffffffffffff1614806121a557506121a561050161308f565b6121f15760405162461bcd60e51b815260206004820152601c60248201527f63616c6c6572206973206e6f74206f776e6572206f722061646d696e000000006044820152606401610c9b565b611577613f17565b6000612203613270565b61220b61308f565b73ffffffffffffffffffffffffffffffffffffffff1661224060fb5473ffffffffffffffffffffffffffffffffffffffff1690565b73ffffffffffffffffffffffffffffffffffffffff161480612268575061226861050161308f565b6122b45760405162461bcd60e51b815260206004820152601c60248201527f63616c6c6572206973206e6f74206f776e6572206f722061646d696e000000006044820152606401610c9b565b600161019360008282546122c89190615749565b925050819055506122df8561019354868686613f73565b90505b949350505050565b606060668054610b3990615550565b61230161308f565b73ffffffffffffffffffffffffffffffffffffffff1661233660fb5473ffffffffffffffffffffffffffffffffffffffff1690565b73ffffffffffffffffffffffffffffffffffffffff16148061235e575061235e61050161308f565b6123aa5760405162461bcd60e51b815260206004820152601c60248201527f63616c6c6572206973206e6f74206f776e6572206f722061646d696e000000006044820152606401610c9b565b611577600061019655565b60006123bf613270565b6123c761308f565b73ffffffffffffffffffffffffffffffffffffffff166123fc60fb5473ffffffffffffffffffffffffffffffffffffffff1690565b73ffffffffffffffffffffffffffffffffffffffff161480612424575061242461050161308f565b6124705760405162461bcd60e51b815260206004820152601c60248201527f63616c6c6572206973206e6f74206f776e6572206f722061646d696e000000006044820152606401610c9b565b67ffffffffffffffff8216156125005760008061248d8442615761565b905060005b86518110156124f857806101935460016124ac9190615749565b6124b69190615749565b92506124dd88848984815181106124cf576124cf615784565b602002602001015189613fc6565b506124e8838361276f565b6124f1816157b3565b9050612492565b50505061255e565b60005b845181101561255c5761254b86826101935460016125219190615749565b61252b9190615749565b87848151811061253d5761253d615784565b602002602001015187613fc6565b50612555816157b3565b9050612503565b505b835161019360008282546125729190615749565b9091555060019695505050505050565b611a1d61258d61308f565b8383613ffe565b6125a561259f61308f565b836132c3565b6126175760405162461bcd60e51b815260206004820152602e60248201527f4552433732313a2063616c6c6572206973206e6f7420746f6b656e206f776e6560448201527f72206e6f7220617070726f7665640000000000000000000000000000000000006064820152608401610c9b565b61262384848484614112565b50505050565b600081815261019460205260409020546060906101926126488261313e565b6126518561313e565b604051602001612663939291906157ec565b604051602081830303815290604052915050919050565b61268261308f565b73ffffffffffffffffffffffffffffffffffffffff166126b760fb5473ffffffffffffffffffffffffffffffffffffffff1690565b73ffffffffffffffffffffffffffffffffffffffff1614806126df57506126df61050161308f565b61272b5760405162461bcd60e51b815260206004820152601c60248201527f63616c6c6572206973206e6f74206f776e6572206f722061646d696e000000006044820152606401610c9b565b61019180547fffffffffffffffffffffffff00000000000000000000000000000000000000001673ffffffffffffffffffffffffffffffffffffffff831617905550565b61277761308f565b73ffffffffffffffffffffffffffffffffffffffff166127ac60fb5473ffffffffffffffffffffffffffffffffffffffff1690565b73ffffffffffffffffffffffffffffffffffffffff1614806127d457506127d461050161308f565b6128205760405162461bcd60e51b815260206004820152601c60248201527f63616c6c6572206973206e6f74206f776e6572206f722061646d696e000000006044820152606401610c9b565b6128298261301e565b6000828152610198602090815260409182902080547fffffffffffffffffffffffffffffffffffffffffffffffff00000000000000001667ffffffffffffffff8516908117909155915191825283917f2ec2be2c4b90c2cf13ecb6751a24daed6bb741ae5ed3f7371aabf9402f6d62e8910160405180910390a25050565b6128af61308f565b73ffffffffffffffffffffffffffffffffffffffff166128e460fb5473ffffffffffffffffffffffffffffffffffffffff1690565b73ffffffffffffffffffffffffffffffffffffffff16148061290c575061290c61050161308f565b6129585760405162461bcd60e51b815260206004820152601c60248201527f63616c6c6572206973206e6f74206f776e6572206f722061646d696e000000006044820152606401610c9b565b611a1d828261419b565b61296a61308f565b73ffffffffffffffffffffffffffffffffffffffff1661299f60fb5473ffffffffffffffffffffffffffffffffffffffff1690565b73ffffffffffffffffffffffffffffffffffffffff1614806129c757506129c761050161308f565b612a135760405162461bcd60e51b815260206004820152601c60248201527f63616c6c6572206973206e6f74206f776e6572206f722061646d696e000000006044820152606401610c9b565b612a1b613270565b6040517fa0894799000000000000000000000000000000000000000000000000000000008152600481018290528190309063a089479990602401602060405180830381865afa158015612a72573d6000803e3d6000fd5b505050506040513d601f19601f82011682018060405250810190612a96919061584e565b15612ae35760405162461bcd60e51b815260206004820152600f60248201527f546f6b656e2069732066726f7a656e00000000000000000000000000000000006044820152606401610c9b565b611a1d826142e1565b612af461308f565b73ffffffffffffffffffffffffffffffffffffffff16612b2960fb5473ffffffffffffffffffffffffffffffffffffffff1690565b73ffffffffffffffffffffffffffffffffffffffff161480612b515750612b5161050161308f565b612b9d5760405162461bcd60e51b815260206004820152601c60248201527f63616c6c6572206973206e6f74206f776e6572206f722061646d696e000000006044820152606401610c9b565b60009081526101976020526040812055565b6101928054612bbd90615550565b80601f0160208091040260200160405190810160405280929190818152602001828054612be990615550565b8015612c365780601f10612c0b57610100808354040283529160200191612c36565b820191906000526020600020905b815481529060010190602001808311612c1957829003601f168201915b505050505081565b600073ffffffffffffffffffffffffffffffffffffffff82166e6c3852cbef3e08e8df289169ede5811480612c99575073ffffffffffffffffffffffffffffffffffffffff82166000908152610199602052604090205460ff165b15612ca657506001610b24565b73ffffffffffffffffffffffffffffffffffffffff8084166000908152606a602090815260408083209386168352929052205460ff165b9392505050565b612cec613d42565b73ffffffffffffffffffffffffffffffffffffffff8116612d755760405162461bcd60e51b815260206004820152602660248201527f4f776e61626c653a206e6577206f776e657220697320746865207a65726f206160448201527f64647265737300000000000000000000000000000000000000000000000000006064820152608401610c9b565b6114bb81613de2565b6000612d88613270565b612d9061308f565b73ffffffffffffffffffffffffffffffffffffffff16612dc560fb5473ffffffffffffffffffffffffffffffffffffffff1690565b73ffffffffffffffffffffffffffffffffffffffff161480612ded5750612ded61050161308f565b612e395760405162461bcd60e51b815260206004820152601c60248201527f63616c6c6572206973206e6f74206f776e6572206f722061646d696e000000006044820152606401610c9b565b67ffffffffffffffff821615612ec957600080612e568442615761565b905060005b8751811015612ec15780610193546001612e759190615749565b612e7f9190615749565b9250612ea6888281518110612e9657612e96615784565b6020026020010151848989613fc6565b50612eb1838361276f565b612eba816157b3565b9050612e5b565b505050612f27565b60005b8551811015612f2557612f14868281518110612eea57612eea615784565b602002602001015182610193546001612f039190615749565b612f0d9190615749565b8787613fc6565b50612f1e816157b3565b9050612ecc565b505b845161019360008282546125729190615749565b60007fffffffff0000000000000000000000000000000000000000000000000000000082167f80ac58cd000000000000000000000000000000000000000000000000000000001480612fce57507fffffffff0000000000000000000000000000000000000000000000000000000082167f5b5e139f00000000000000000000000000000000000000000000000000000000145b80610b2457507f01ffc9a7000000000000000000000000000000000000000000000000000000007fffffffff00000000000000000000000000000000000000000000000000000000831614610b24565b60008181526067602052604090205473ffffffffffffffffffffffffffffffffffffffff166114bb5760405162461bcd60e51b815260206004820152601860248201527f4552433732313a20696e76616c696420746f6b656e20494400000000000000006044820152606401610c9b565b600061309961434b565b905090565b600081815260696020526040902080547fffffffffffffffffffffffff00000000000000000000000000000000000000001673ffffffffffffffffffffffffffffffffffffffff841690811790915581906130f882611be1565b73ffffffffffffffffffffffffffffffffffffffff167f8c5be1e5ebec7d5bd14f71427d1e84f3dd0314c0f7b2291e5b200ac8c7c3b92560405160405180910390a45050565b60608161317e57505060408051808201909152600181527f3000000000000000000000000000000000000000000000000000000000000000602082015290565b8160005b81156131a85780613192816157b3565b91506131a19050600a83615735565b9150613182565b60008167ffffffffffffffff8111156131c3576131c3614ff0565b6040519080825280601f01601f1916602001820160405280156131ed576020820181803683370190505b5090505b84156122e25761320260018361586b565b915061320f600a86615882565b61321a906030615749565b60f81b81838151811061322f5761322f615784565b60200101907effffffffffffffffffffffffffffffffffffffffffffffffffffffffffffff1916908160001a905350613269600a86615735565b94506131f1565b60c95460ff16156115775760405162461bcd60e51b815260206004820152601060248201527f5061757361626c653a20706175736564000000000000000000000000000000006044820152606401610c9b565b6000806132cf83611be1565b90508073ffffffffffffffffffffffffffffffffffffffff168473ffffffffffffffffffffffffffffffffffffffff16148061331057506133108185612c3e565b806122e257508373ffffffffffffffffffffffffffffffffffffffff1661333684610bbc565b73ffffffffffffffffffffffffffffffffffffffff1614949350505050565b8273ffffffffffffffffffffffffffffffffffffffff1661337582611be1565b73ffffffffffffffffffffffffffffffffffffffff16146133fe5760405162461bcd60e51b815260206004820152602560248201527f4552433732313a207472616e736665722066726f6d20696e636f72726563742060448201527f6f776e65720000000000000000000000000000000000000000000000000000006064820152608401610c9b565b73ffffffffffffffffffffffffffffffffffffffff82166134865760405162461bcd60e51b8152602060048201526024808201527f4552433732313a207472616e7366657220746f20746865207a65726f2061646460448201527f72657373000000000000000000000000000000000000000000000000000000006064820152608401610c9b565b6134918383836143ab565b61349c60008261309e565b73ffffffffffffffffffffffffffffffffffffffff831660009081526068602052604081208054600192906134d290849061586b565b909155505073ffffffffffffffffffffffffffffffffffffffff8216600090815260686020526040812080546001929061350d908490615749565b909155505060008181526067602052604080822080547fffffffffffffffffffffffff00000000000000000000000000000000000000001673ffffffffffffffffffffffffffffffffffffffff86811691821790925591518493918716917fddf252ad1be2c89b69c2b068fc378daa952ba7f163c4a11628f55a4df523b3ef91a4505050565b61359b61308f565b73ffffffffffffffffffffffffffffffffffffffff166135d060fb5473ffffffffffffffffffffffffffffffffffffffff1690565b73ffffffffffffffffffffffffffffffffffffffff1614806135f857506135f861050161308f565b6114bb5760405162461bcd60e51b815260206004820152601c60248201527f63616c6c6572206973206e6f74206f776e6572206f722061646d696e000000006044820152606401610c9b565b7f4910fdfa16fed3260ed0e7147f7cc6da11a60208b5b9406d12a635614ffd91435460ff161561367757610d6883614480565b8273ffffffffffffffffffffffffffffffffffffffff166352d1902d6040518163ffffffff1660e01b8152600401602060405180830381865afa9250505080156136fc575060408051601f3d9081017fffffffffffffffffffffffffffffffffffffffffffffffffffffffffffffffe01682019092526136f991810190615896565b60015b61376e5760405162461bcd60e51b815260206004820152602e60248201527f45524331393637557067726164653a206e657720696d706c656d656e7461746960448201527f6f6e206973206e6f7420555550530000000000000000000000000000000000006064820152608401610c9b565b7f360894a13ba1a3210667c828492db98dca3e2076cc3735a920a3ca505d382bbc81146138035760405162461bcd60e51b815260206004820152602960248201527f45524331393637557067726164653a20756e737570706f727465642070726f7860448201527f6961626c655555494400000000000000000000000000000000000000000000006064820152608401610c9b565b50610d68838383614570565b613817614595565b60c980547fffffffffffffffffffffffffffffffffffffffffffffffffffffffffffffff001690557f5db9ee0a495bf2e6ff9c91a7834c1ba4fdd244a5e8aa4e537bd38aeae4b073aa61386861308f565b60405173ffffffffffffffffffffffffffffffffffffffff909116815260200160405180910390a1565b61389b816145e7565b600090815261019460209081526040808320839055610195825280832080547fffffffffffffffffffffffffffffffffffffffffffffffffffffffffffffff00169055610198909152902080547fffffffffffffffffffffffffffffffffffffffffffffffff0000000000000000169055565b600054610100900460ff1661398b5760405162461bcd60e51b815260206004820152602b60248201527f496e697469616c697a61626c653a20636f6e7472616374206973206e6f74206960448201527f6e697469616c697a696e670000000000000000000000000000000000000000006064820152608401610c9b565b611a1d82826146c0565b600054610100900460ff16613a125760405162461bcd60e51b815260206004820152602b60248201527f496e697469616c697a61626c653a20636f6e7472616374206973206e6f74206960448201527f6e697469616c697a696e670000000000000000000000000000000000000000006064820152608401610c9b565b611577614764565b600054610100900460ff16613a975760405162461bcd60e51b815260206004820152602b60248201527f496e697469616c697a61626c653a20636f6e7472616374206973206e6f74206960448201527f6e697469616c697a696e670000000000000000000000000000000000000000006064820152608401610c9b565b61157761480b565b600054610100900460ff166115775760405162461bcd60e51b815260206004820152602b60248201527f496e697469616c697a61626c653a20636f6e7472616374206973206e6f74206960448201527f6e697469616c697a696e670000000000000000000000000000000000000000006064820152608401610c9b565b613b258161301e565b6000818152610195602052604090205460ff166114bb5760405162461bcd60e51b815260206004820152601360248201527f546f6b656e206973206e6f742066726f7a656e000000000000000000000000006044820152606401610c9b565b600081815261019560205260409081902080547fffffffffffffffffffffffffffffffffffffffffffffffffffffffffffffff00169055517f083eea12772ab70fba01c8212d02f3bc5dc29b8540dcdc84298e5dfa22731b9290610ed29083815260200190565b6127106bffffffffffffffffffffffff82161115613c715760405162461bcd60e51b815260206004820152602a60248201527f455243323938313a20726f79616c7479206665652077696c6c2065786365656460448201527f2073616c655072696365000000000000000000000000000000000000000000006064820152608401610c9b565b73ffffffffffffffffffffffffffffffffffffffff8216613cd45760405162461bcd60e51b815260206004820152601b60248201527f455243323938313a20496e76616c696420706172616d657465727300000000006044820152606401610c9b565b60408051808201825273ffffffffffffffffffffffffffffffffffffffff93841681526bffffffffffffffffffffffff928316602080830191825260009687526101979052919094209351905190911674010000000000000000000000000000000000000000029116179055565b613d4a61308f565b73ffffffffffffffffffffffffffffffffffffffff16613d7f60fb5473ffffffffffffffffffffffffffffffffffffffff1690565b73ffffffffffffffffffffffffffffffffffffffff16146115775760405162461bcd60e51b815260206004820181905260248201527f4f776e61626c653a2063616c6c6572206973206e6f7420746865206f776e65726044820152606401610c9b565b60fb805473ffffffffffffffffffffffffffffffffffffffff8381167fffffffffffffffffffffffff0000000000000000000000000000000000000000831681179093556040519116919082907f8be0079c531659141344cd1fd0a4f28419497f9722a3daafe3b4186f6b6457e090600090a35050565b6000828152610198602052604081205467ffffffffffffffff169081613e8a57613e838342615761565b9050613e97565b613e948383615761565b90505b6000848152610198602090815260409182902080547fffffffffffffffffffffffffffffffffffffffffffffffff00000000000000001667ffffffffffffffff8516908117909155915191825285917f2ec2be2c4b90c2cf13ecb6751a24daed6bb741ae5ed3f7371aabf9402f6d62e8910160405180910390a250505050565b613f1f613270565b60c980547fffffffffffffffffffffffffffffffffffffffffffffffffffffffffffffff001660011790557f62e78cea01bee320cd4e420270b5ea74000d11b0c9f74754ebdbfc544b05a25861386861308f565b6000613f7f8486614898565b6000858152610194602052604090208690558215613fa057613fa085612962565b67ffffffffffffffff821615613fba57613fba8583613e59565b50600195945050505050565b6000613fd28385614898565b6000848152610194602052604090208590558115613ff357613ff384612962565b506001949350505050565b8173ffffffffffffffffffffffffffffffffffffffff168373ffffffffffffffffffffffffffffffffffffffff16141561407a5760405162461bcd60e51b815260206004820152601960248201527f4552433732313a20617070726f766520746f2063616c6c6572000000000000006044820152606401610c9b565b73ffffffffffffffffffffffffffffffffffffffff8381166000818152606a602090815260408083209487168084529482529182902080547fffffffffffffffffffffffffffffffffffffffffffffffffffffffffffffff001686151590811790915591519182527f17307eab39ab6107e8899845ad3d59bd9653f200f220920489ca2b5937696c31910160405180910390a3505050565b61411d848484613355565b61412984848484614a32565b6126235760405162461bcd60e51b815260206004820152603260248201527f4552433732313a207472616e7366657220746f206e6f6e20455243373231526560448201527f63656976657220696d706c656d656e74657200000000000000000000000000006064820152608401610c9b565b6127106bffffffffffffffffffffffff821611156142215760405162461bcd60e51b815260206004820152602a60248201527f455243323938313a20726f79616c7479206665652077696c6c2065786365656460448201527f2073616c655072696365000000000000000000000000000000000000000000006064820152608401610c9b565b73ffffffffffffffffffffffffffffffffffffffff82166142845760405162461bcd60e51b815260206004820152601960248201527f455243323938313a20696e76616c6964207265636569766572000000000000006044820152606401610c9b565b6040805180820190915273ffffffffffffffffffffffffffffffffffffffff9092168083526bffffffffffffffffffffffff9091166020909201829052740100000000000000000000000000000000000000009091021761019655565b600081815261019560205260409081902080547fffffffffffffffffffffffffffffffffffffffffffffffffffffffffffffff00166001179055517f4d69b51fee53c28bd8b61fe008151577ca65160b5248f6225e74d64fd4cf732890610ed29083815260200190565b60006014361080159061437657506101915473ffffffffffffffffffffffffffffffffffffffff1633145b156143a657507fffffffffffffffffffffffffffffffffffffffffffffffffffffffffffffffec36013560601c90565b503390565b6143b3613270565b6040517fa0894799000000000000000000000000000000000000000000000000000000008152600481018290528190309063a089479990602401602060405180830381865afa15801561440a573d6000803e3d6000fd5b505050506040513d601f19601f8201168201806040525081019061442e919061584e565b1561447b5760405162461bcd60e51b815260206004820152600f60248201527f546f6b656e2069732066726f7a656e00000000000000000000000000000000006044820152606401610c9b565b612623565b73ffffffffffffffffffffffffffffffffffffffff81163b61450a5760405162461bcd60e51b815260206004820152602d60248201527f455243313936373a206e657720696d706c656d656e746174696f6e206973206e60448201527f6f74206120636f6e7472616374000000000000000000000000000000000000006064820152608401610c9b565b7f360894a13ba1a3210667c828492db98dca3e2076cc3735a920a3ca505d382bbc80547fffffffffffffffffffffffff00000000000000000000000000000000000000001673ffffffffffffffffffffffffffffffffffffffff92909216919091179055565b61457983614bf3565b6000825111806145865750805b15610d68576126238383614c40565b60c95460ff166115775760405162461bcd60e51b815260206004820152601460248201527f5061757361626c653a206e6f74207061757365640000000000000000000000006044820152606401610c9b565b60006145f282611be1565b9050614600816000846143ab565b61460b60008361309e565b73ffffffffffffffffffffffffffffffffffffffff8116600090815260686020526040812080546001929061464190849061586b565b909155505060008281526067602052604080822080547fffffffffffffffffffffffff00000000000000000000000000000000000000001690555183919073ffffffffffffffffffffffffffffffffffffffff8416907fddf252ad1be2c89b69c2b068fc378daa952ba7f163c4a11628f55a4df523b3ef908390a45050565b600054610100900460ff1661473d5760405162461bcd60e51b815260206004820152602b60248201527f496e697469616c697a61626c653a20636f6e7472616374206973206e6f74206960448201527f6e697469616c697a696e670000000000000000000000000000000000000000006064820152608401610c9b565b8151614750906065906020850190614d9e565b508051610d68906066906020840190614d9e565b600054610100900460ff166147e15760405162461bcd60e51b815260206004820152602b60248201527f496e697469616c697a61626c653a20636f6e7472616374206973206e6f74206960448201527f6e697469616c697a696e670000000000000000000000000000000000000000006064820152608401610c9b565b60c980547fffffffffffffffffffffffffffffffffffffffffffffffffffffffffffffff00169055565b600054610100900460ff166148885760405162461bcd60e51b815260206004820152602b60248201527f496e697469616c697a61626c653a20636f6e7472616374206973206e6f74206960448201527f6e697469616c697a696e670000000000000000000000000000000000000000006064820152608401610c9b565b61157761489361308f565b613de2565b73ffffffffffffffffffffffffffffffffffffffff82166148fb5760405162461bcd60e51b815260206004820181905260248201527f4552433732313a206d696e7420746f20746865207a65726f20616464726573736044820152606401610c9b565b60008181526067602052604090205473ffffffffffffffffffffffffffffffffffffffff161561496d5760405162461bcd60e51b815260206004820152601c60248201527f4552433732313a20746f6b656e20616c7265616479206d696e746564000000006044820152606401610c9b565b614979600083836143ab565b73ffffffffffffffffffffffffffffffffffffffff821660009081526068602052604081208054600192906149af908490615749565b909155505060008181526067602052604080822080547fffffffffffffffffffffffff00000000000000000000000000000000000000001673ffffffffffffffffffffffffffffffffffffffff861690811790915590518392907fddf252ad1be2c89b69c2b068fc378daa952ba7f163c4a11628f55a4df523b3ef908290a45050565b600073ffffffffffffffffffffffffffffffffffffffff84163b15614beb578373ffffffffffffffffffffffffffffffffffffffff1663150b7a02614a7561308f565b8786866040518563ffffffff1660e01b8152600401614a9794939291906158af565b6020604051808303816000875af1925050508015614af0575060408051601f3d9081017fffffffffffffffffffffffffffffffffffffffffffffffffffffffffffffffe0168201909252614aed918101906158f8565b60015b614ba0573d808015614b1e576040519150601f19603f3d011682016040523d82523d6000602084013e614b23565b606091505b508051614b985760405162461bcd60e51b815260206004820152603260248201527f4552433732313a207472616e7366657220746f206e6f6e20455243373231526560448201527f63656976657220696d706c656d656e74657200000000000000000000000000006064820152608401610c9b565b805181602001fd5b7fffffffff00000000000000000000000000000000000000000000000000000000167f150b7a02000000000000000000000000000000000000000000000000000000001490506122e2565b5060016122e2565b614bfc81614480565b60405173ffffffffffffffffffffffffffffffffffffffff8216907fbc7cd75a20ee27fd9adebab32041f755214dbc6bffa90cc0225b39da2e5c2d3b90600090a250565b606073ffffffffffffffffffffffffffffffffffffffff83163b614ccc5760405162461bcd60e51b815260206004820152602660248201527f416464726573733a2064656c65676174652063616c6c20746f206e6f6e2d636f60448201527f6e747261637400000000000000000000000000000000000000000000000000006064820152608401610c9b565b6000808473ffffffffffffffffffffffffffffffffffffffff1684604051614cf49190615915565b600060405180830381855af49150503d8060008114614d2f576040519150601f19603f3d011682016040523d82523d6000602084013e614d34565b606091505b5091509150614d5c828260405180606001604052806027815260200161593260279139614d65565b95945050505050565b60608315614d74575081612cdd565b825115614d845782518084602001fd5b8160405162461bcd60e51b8152600401610c9b9190614ef8565b828054614daa90615550565b90600052602060002090601f016020900481019282614dcc5760008555614e12565b82601f10614de557805160ff1916838001178555614e12565b82800160010185558215614e12579182015b82811115614e12578251825591602001919060010190614df7565b50614e1e929150614e22565b5090565b5b80821115614e1e5760008155600101614e23565b7fffffffff00000000000000000000000000000000000000000000000000000000811681146114bb57600080fd5b600060208284031215614e7757600080fd5b8135612cdd81614e37565b60005b83811015614e9d578181015183820152602001614e85565b838111156126235750506000910152565b60008151808452614ec6816020860160208601614e82565b601f017fffffffffffffffffffffffffffffffffffffffffffffffffffffffffffffffe0169290920160200192915050565b602081526000612cdd6020830184614eae565b600060208284031215614f1d57600080fd5b5035919050565b803573ffffffffffffffffffffffffffffffffffffffff81168114614f4857600080fd5b919050565b60008060408385031215614f6057600080fd5b614f6983614f24565b946020939093013593505050565b600060208284031215614f8957600080fd5b612cdd82614f24565b600080600060608486031215614fa757600080fd5b614fb084614f24565b9250614fbe60208501614f24565b9150604084013590509250925092565b60008060408385031215614fe157600080fd5b50508035926020909101359150565b7f4e487b7100000000000000000000000000000000000000000000000000000000600052604160045260246000fd5b604051601f82017fffffffffffffffffffffffffffffffffffffffffffffffffffffffffffffffe016810167ffffffffffffffff8111828210171561506657615066614ff0565b604052919050565b600082601f83011261507f57600080fd5b813567ffffffffffffffff81111561509957615099614ff0565b6150ca60207fffffffffffffffffffffffffffffffffffffffffffffffffffffffffffffffe0601f8401160161501f565b8181528460208386010111156150df57600080fd5b816020850160208301376000918101602001919091529392505050565b6000806040838503121561510f57600080fd5b823567ffffffffffffffff8082111561512757600080fd5b6151338683870161506e565b9350602085013591508082111561514957600080fd5b506151568582860161506e565b9150509250929050565b6000806040838503121561517357600080fd5b61517c83614f24565b9150602083013567ffffffffffffffff81111561519857600080fd5b6151568582860161506e565b80356bffffffffffffffffffffffff81168114614f4857600080fd5b6000806000606084860312156151d557600080fd5b833592506151e560208501614f24565b91506151f3604085016151a4565b90509250925092565b803567ffffffffffffffff81168114614f4857600080fd5b6000806040838503121561522757600080fd5b82359150615237602084016151fc565b90509250929050565b60006020828403121561525257600080fd5b813567ffffffffffffffff81111561526957600080fd5b6122e28482850161506e565b80151581146114bb57600080fd5b8035614f4881615275565b600080600080608085870312156152a457600080fd5b843593506152b460208601614f24565b925060408501356152c481615275565b91506152d2606086016151fc565b905092959194509250565b600067ffffffffffffffff8211156152f7576152f7614ff0565b5060051b60200190565b6000806000806080858703121561531757600080fd5b8435935060208086013567ffffffffffffffff81111561533657600080fd5b8601601f8101881361534757600080fd5b803561535a615355826152dd565b61501f565b81815260059190911b8201830190838101908a83111561537957600080fd5b928401925b8284101561539e5761538f84614f24565b8252928401929084019061537e565b80975050505050506152c460408601615283565b600080604083850312156153c557600080fd5b6153ce83614f24565b915060208301356153de81615275565b809150509250929050565b600080600080608085870312156153ff57600080fd5b61540885614f24565b935061541660208601614f24565b925060408501359150606085013567ffffffffffffffff81111561543957600080fd5b6154458782880161506e565b91505092959194509250565b6000806040838503121561546457600080fd5b61546d83614f24565b9150615237602084016151a4565b6000806040838503121561548e57600080fd5b61549783614f24565b915061523760208401614f24565b600080600080608085870312156154bb57600080fd5b843567ffffffffffffffff8111156154d257600080fd5b8501601f810187136154e357600080fd5b803560206154f3615355836152dd565b82815260059290921b8301810191818101908a84111561551257600080fd5b938201935b8385101561553057843582529382019390820190615517565b975061553f9050888201614f24565b95505050506152c460408601615283565b600181811c9082168061556457607f821691505b6020821081141561559e577f4e487b7100000000000000000000000000000000000000000000000000000000600052602260045260246000fd5b50919050565b8054600090600181811c90808316806155be57607f831692505b60208084108214156155f9577f4e487b7100000000000000000000000000000000000000000000000000000000600052602260045260246000fd5b81801561560d576001811461563c57615669565b7fffffffffffffffffffffffffffffffffffffffffffffffffffffffffffffff00861689528489019650615669565b60008881526020902060005b868110156156615781548b820152908501908301615648565b505084890196505b50505050505092915050565b600061568182856155a4565b8351615691818360208801614e82565b01949350505050565b7f4e487b7100000000000000000000000000000000000000000000000000000000600052601160045260246000fd5b6000817fffffffffffffffffffffffffffffffffffffffffffffffffffffffffffffffff04831182151516156157015761570161569a565b500290565b7f4e487b7100000000000000000000000000000000000000000000000000000000600052601260045260246000fd5b60008261574457615744615706565b500490565b6000821982111561575c5761575c61569a565b500190565b600067ffffffffffffffff8083168185168083038211156156915761569161569a565b7f4e487b7100000000000000000000000000000000000000000000000000000000600052603260045260246000fd5b60007fffffffffffffffffffffffffffffffffffffffffffffffffffffffffffffffff8214156157e5576157e561569a565b5060010190565b60006157f882866155a4565b8451615808818360208901614e82565b7f2f0000000000000000000000000000000000000000000000000000000000000091019081528351615841816001840160208801614e82565b0160010195945050505050565b60006020828403121561586057600080fd5b8151612cdd81615275565b60008282101561587d5761587d61569a565b500390565b60008261589157615891615706565b500690565b6000602082840312156158a857600080fd5b5051919050565b600073ffffffffffffffffffffffffffffffffffffffff8087168352808616602084015250836040830152608060608301526158ee6080830184614eae565b9695505050505050565b60006020828403121561590a57600080fd5b8151612cdd81614e37565b60008251615927818460208701614e82565b919091019291505056fe416464726573733a206c6f772d6c6576656c2064656c65676174652063616c6c206661696c6564a2646970667358221220c11ed0eb39251e9501df46128cc3beeb105fd704bb184ce79816c06ef58fe78b64736f6c634300080c0033",
  "linkReferences": {},
  "deployedLinkReferences": {}
}