{
  "_format": "hh-sol-artifact-1",
  "contractName": "UVCollectable",
  "sourceName": "contracts/UVCollectable.sol",
  "abi": [
    {
      "inputs": [],
      "stateMutability": "nonpayable",
      "type": "constructor"
    },
    {
      "inputs": [
        {
          "internalType": "address",
          "name": "operator",
          "type": "address"
        }
      ],
      "name": "OperatorNotAllowed",
      "type": "error"
    },
    {
      "anonymous": false,
      "inputs": [
        {
          "indexed": false,
          "internalType": "address",
          "name": "previousAdmin",
          "type": "address"
        },
        {
          "indexed": false,
          "internalType": "address",
          "name": "newAdmin",
          "type": "address"
        }
      ],
      "name": "AdminChanged",
      "type": "event"
    },
    {
      "anonymous": false,
      "inputs": [
        {
          "indexed": false,
          "internalType": "address",
          "name": "admin",
          "type": "address"
        },
        {
          "indexed": false,
          "internalType": "bool",
          "name": "added",
          "type": "bool"
        }
      ],
      "name": "AdminUpdated",
      "type": "event"
    },
    {
      "anonymous": false,
      "inputs": [
        {
          "indexed": true,
          "internalType": "address",
          "name": "owner",
          "type": "address"
        },
        {
          "indexed": true,
          "internalType": "address",
          "name": "approved",
          "type": "address"
        },
        {
          "indexed": true,
          "internalType": "uint256",
          "name": "tokenId",
          "type": "uint256"
        }
      ],
      "name": "Approval",
      "type": "event"
    },
    {
      "anonymous": false,
      "inputs": [
        {
          "indexed": true,
          "internalType": "address",
          "name": "owner",
          "type": "address"
        },
        {
          "indexed": true,
          "internalType": "address",
          "name": "operator",
          "type": "address"
        },
        {
          "indexed": false,
          "internalType": "bool",
          "name": "approved",
          "type": "bool"
        }
      ],
      "name": "ApprovalForAll",
      "type": "event"
    },
    {
      "anonymous": false,
      "inputs": [
        {
          "indexed": true,
          "internalType": "address",
          "name": "beacon",
          "type": "address"
        }
      ],
      "name": "BeaconUpgraded",
      "type": "event"
    },
    {
      "anonymous": false,
      "inputs": [
        {
          "indexed": false,
          "internalType": "uint8",
          "name": "version",
          "type": "uint8"
        }
      ],
      "name": "Initialized",
      "type": "event"
    },
    {
      "anonymous": false,
      "inputs": [
        {
          "indexed": false,
          "internalType": "uint256",
          "name": "tokenId",
          "type": "uint256"
        }
      ],
      "name": "Locked",
      "type": "event"
    },
    {
      "anonymous": false,
      "inputs": [
        {
          "indexed": true,
          "internalType": "address",
          "name": "previousOwner",
          "type": "address"
        },
        {
          "indexed": true,
          "internalType": "address",
          "name": "newOwner",
          "type": "address"
        }
      ],
      "name": "OwnershipTransferred",
      "type": "event"
    },
    {
      "anonymous": false,
      "inputs": [
        {
          "indexed": false,
          "internalType": "address",
          "name": "account",
          "type": "address"
        }
      ],
      "name": "Paused",
      "type": "event"
    },
    {
      "anonymous": false,
      "inputs": [
        {
          "indexed": true,
          "internalType": "uint256",
          "name": "tokenId",
          "type": "uint256"
        },
        {
          "indexed": false,
          "internalType": "uint64",
          "name": "expiration",
          "type": "uint64"
        }
      ],
      "name": "SubscriptionUpdate",
      "type": "event"
    },
    {
      "anonymous": false,
      "inputs": [
        {
          "indexed": true,
          "internalType": "address",
          "name": "from",
          "type": "address"
        },
        {
          "indexed": true,
          "internalType": "address",
          "name": "to",
          "type": "address"
        },
        {
          "indexed": true,
          "internalType": "uint256",
          "name": "tokenId",
          "type": "uint256"
        }
      ],
      "name": "Transfer",
      "type": "event"
    },
    {
      "anonymous": false,
      "inputs": [
        {
          "indexed": false,
          "internalType": "uint256",
          "name": "tokenId",
          "type": "uint256"
        }
      ],
      "name": "Unlocked",
      "type": "event"
    },
    {
      "anonymous": false,
      "inputs": [
        {
          "indexed": false,
          "internalType": "address",
          "name": "account",
          "type": "address"
        }
      ],
      "name": "Unpaused",
      "type": "event"
    },
    {
      "anonymous": false,
      "inputs": [
        {
          "indexed": true,
          "internalType": "address",
          "name": "implementation",
          "type": "address"
        }
      ],
      "name": "Upgraded",
      "type": "event"
    },
    {
      "inputs": [
        {
          "internalType": "address",
          "name": "newAdmin",
          "type": "address"
        }
      ],
      "name": "addAdmin",
      "outputs": [],
      "stateMutability": "nonpayable",
      "type": "function"
    },
    {
      "inputs": [
        {
          "internalType": "address",
          "name": "operator",
          "type": "address"
        },
        {
          "internalType": "uint256",
          "name": "tokenId",
          "type": "uint256"
        }
      ],
      "name": "approve",
      "outputs": [],
      "stateMutability": "nonpayable",
      "type": "function"
    },
    {
      "inputs": [
        {
          "internalType": "address",
          "name": "owner",
          "type": "address"
        }
      ],
      "name": "balanceOf",
      "outputs": [
        {
          "internalType": "uint256",
          "name": "",
          "type": "uint256"
        }
      ],
      "stateMutability": "view",
      "type": "function"
    },
    {
      "inputs": [
        {
          "internalType": "uint256",
          "name": "tokenId",
          "type": "uint256"
        }
      ],
      "name": "burn",
      "outputs": [],
      "stateMutability": "nonpayable",
      "type": "function"
    },
    {
      "inputs": [
        {
          "internalType": "uint256",
          "name": "tokenId",
          "type": "uint256"
        }
      ],
      "name": "cancelSubscription",
      "outputs": [],
      "stateMutability": "nonpayable",
      "type": "function"
    },
    {
      "inputs": [
        {
          "internalType": "uint256",
          "name": "collectionId",
          "type": "uint256"
        }
      ],
      "name": "collectionURI",
      "outputs": [
        {
          "internalType": "string",
          "name": "",
          "type": "string"
        }
      ],
      "stateMutability": "view",
      "type": "function"
    },
    {
      "inputs": [],
      "name": "contractURI",
      "outputs": [
        {
          "internalType": "string",
          "name": "",
          "type": "string"
        }
      ],
      "stateMutability": "view",
      "type": "function"
    },
    {
      "inputs": [
        {
          "internalType": "uint256",
          "name": "tokenId",
          "type": "uint256"
        }
      ],
      "name": "expiresAt",
      "outputs": [
        {
          "internalType": "uint64",
          "name": "",
          "type": "uint64"
        }
      ],
      "stateMutability": "view",
      "type": "function"
    },
    {
      "inputs": [
        {
          "internalType": "uint256",
          "name": "tokenId",
          "type": "uint256"
        }
      ],
      "name": "getApproved",
      "outputs": [
        {
          "internalType": "address",
          "name": "",
          "type": "address"
        }
      ],
      "stateMutability": "view",
      "type": "function"
    },
    {
      "inputs": [],
      "name": "getTrustedForwarder",
      "outputs": [
        {
          "internalType": "address",
          "name": "forwarder",
          "type": "address"
        }
      ],
      "stateMutability": "view",
      "type": "function"
    },
    {
      "inputs": [
        {
          "internalType": "string",
          "name": "__name",
          "type": "string"
        },
        {
          "internalType": "string",
          "name": "__symbol",
          "type": "string"
        },
        {
          "internalType": "string",
          "name": "__contractURI",
          "type": "string"
        },
        {
          "internalType": "address[]",
          "name": "__admins",
          "type": "address[]"
        }
      ],
      "name": "initialize",
      "outputs": [],
      "stateMutability": "nonpayable",
      "type": "function"
    },
    {
      "inputs": [
        {
          "internalType": "address",
          "name": "admin",
          "type": "address"
        }
      ],
      "name": "isAdmin",
      "outputs": [
        {
          "internalType": "bool",
          "name": "",
          "type": "bool"
        }
      ],
      "stateMutability": "view",
      "type": "function"
    },
    {
      "inputs": [
        {
          "internalType": "address",
          "name": "_owner",
          "type": "address"
        },
        {
          "internalType": "address",
          "name": "_operator",
          "type": "address"
        }
      ],
      "name": "isApprovedForAll",
      "outputs": [
        {
          "internalType": "bool",
          "name": "isOperator",
          "type": "bool"
        }
      ],
      "stateMutability": "view",
      "type": "function"
    },
    {
      "inputs": [
        {
          "internalType": "uint256",
          "name": "tokenId",
          "type": "uint256"
        }
      ],
      "name": "isLocked",
      "outputs": [
        {
          "internalType": "bool",
          "name": "",
          "type": "bool"
        }
      ],
      "stateMutability": "view",
      "type": "function"
    },
    {
      "inputs": [
        {
          "internalType": "uint256",
          "name": "",
          "type": "uint256"
        }
      ],
      "name": "isRenewable",
      "outputs": [
        {
          "internalType": "bool",
          "name": "",
          "type": "bool"
        }
      ],
      "stateMutability": "pure",
      "type": "function"
    },
    {
      "inputs": [
        {
          "internalType": "address",
          "name": "forwarder",
          "type": "address"
        }
      ],
      "name": "isTrustedForwarder",
      "outputs": [
        {
          "internalType": "bool",
          "name": "",
          "type": "bool"
        }
      ],
      "stateMutability": "view",
      "type": "function"
    },
    {
      "inputs": [],
      "name": "lastId",
      "outputs": [
        {
          "internalType": "uint256",
          "name": "",
          "type": "uint256"
        }
      ],
      "stateMutability": "view",
      "type": "function"
    },
    {
      "inputs": [
        {
          "internalType": "uint256",
          "name": "tokenId",
          "type": "uint256"
        }
      ],
      "name": "lockToken",
      "outputs": [],
      "stateMutability": "nonpayable",
      "type": "function"
    },
    {
      "inputs": [
        {
          "internalType": "uint256",
          "name": "collectionId",
          "type": "uint256"
        },
        {
          "internalType": "address[]",
          "name": "to",
          "type": "address[]"
        },
        {
          "internalType": "bool",
          "name": "locked",
          "type": "bool"
        },
        {
          "internalType": "uint64",
          "name": "validDuration",
          "type": "uint64"
        }
      ],
      "name": "mintCollectionToManyUsers",
      "outputs": [
        {
          "internalType": "bool",
          "name": "",
          "type": "bool"
        }
      ],
      "stateMutability": "nonpayable",
      "type": "function"
    },
    {
      "inputs": [
        {
          "internalType": "uint256",
          "name": "collectionId",
          "type": "uint256"
        },
        {
          "internalType": "address",
          "name": "to",
          "type": "address"
        },
        {
          "internalType": "bool",
          "name": "locked",
          "type": "bool"
        },
        {
          "internalType": "uint64",
          "name": "validDuration",
          "type": "uint64"
        }
      ],
      "name": "mintToken",
      "outputs": [
        {
          "internalType": "bool",
          "name": "",
          "type": "bool"
        }
      ],
      "stateMutability": "nonpayable",
      "type": "function"
    },
    {
      "inputs": [
        {
          "internalType": "uint256[]",
          "name": "collectionIds",
          "type": "uint256[]"
        },
        {
          "internalType": "address",
          "name": "to",
          "type": "address"
        },
        {
          "internalType": "bool",
          "name": "locked",
          "type": "bool"
        },
        {
          "internalType": "uint64",
          "name": "validDuration",
          "type": "uint64"
        }
      ],
      "name": "mintUserToManyCollections",
      "outputs": [
        {
          "internalType": "bool",
          "name": "",
          "type": "bool"
        }
      ],
      "stateMutability": "nonpayable",
      "type": "function"
    },
    {
      "inputs": [],
      "name": "name",
      "outputs": [
        {
          "internalType": "string",
          "name": "",
          "type": "string"
        }
      ],
      "stateMutability": "view",
      "type": "function"
    },
    {
      "inputs": [],
      "name": "owner",
      "outputs": [
        {
          "internalType": "address",
          "name": "",
          "type": "address"
        }
      ],
      "stateMutability": "view",
      "type": "function"
    },
    {
      "inputs": [
        {
          "internalType": "uint256",
          "name": "tokenId",
          "type": "uint256"
        }
      ],
      "name": "ownerOf",
      "outputs": [
        {
          "internalType": "address",
          "name": "",
          "type": "address"
        }
      ],
      "stateMutability": "view",
      "type": "function"
    },
    {
      "inputs": [],
      "name": "pause",
      "outputs": [],
      "stateMutability": "nonpayable",
      "type": "function"
    },
    {
      "inputs": [],
      "name": "paused",
      "outputs": [
        {
          "internalType": "bool",
          "name": "",
          "type": "bool"
        }
      ],
      "stateMutability": "view",
      "type": "function"
    },
    {
      "inputs": [],
      "name": "proxiableUUID",
      "outputs": [
        {
          "internalType": "bytes32",
          "name": "",
          "type": "bytes32"
        }
      ],
      "stateMutability": "view",
      "type": "function"
    },
    {
      "inputs": [
        {
          "internalType": "uint256",
          "name": "tokenId",
          "type": "uint256"
        },
        {
          "internalType": "address",
          "name": "recipient",
          "type": "address"
        }
      ],
      "name": "reclaimToken",
      "outputs": [],
      "stateMutability": "nonpayable",
      "type": "function"
    },
    {
      "inputs": [
        {
          "internalType": "address",
          "name": "admin",
          "type": "address"
        }
      ],
      "name": "removeAdmin",
      "outputs": [],
      "stateMutability": "nonpayable",
      "type": "function"
    },
    {
      "inputs": [
        {
          "internalType": "uint256",
          "name": "collectionId",
          "type": "uint256"
        }
      ],
      "name": "removeCollectionRoyalty",
      "outputs": [],
      "stateMutability": "nonpayable",
      "type": "function"
    },
    {
      "inputs": [],
      "name": "removeDefaultRoyalty",
      "outputs": [],
      "stateMutability": "nonpayable",
      "type": "function"
    },
    {
      "inputs": [
        {
          "internalType": "uint256",
          "name": "tokenId",
          "type": "uint256"
        },
        {
          "internalType": "uint64",
          "name": "duration",
          "type": "uint64"
        }
      ],
      "name": "renewSubscription",
      "outputs": [],
      "stateMutability": "nonpayable",
      "type": "function"
    },
    {
      "inputs": [],
      "name": "renounceOwnership",
      "outputs": [],
      "stateMutability": "nonpayable",
      "type": "function"
    },
    {
      "inputs": [
        {
          "internalType": "uint256",
          "name": "_tokenId",
          "type": "uint256"
        },
        {
          "internalType": "uint256",
          "name": "_salePrice",
          "type": "uint256"
        }
      ],
      "name": "royaltyInfo",
      "outputs": [
        {
          "internalType": "address",
          "name": "",
          "type": "address"
        },
        {
          "internalType": "uint256",
          "name": "",
          "type": "uint256"
        }
      ],
      "stateMutability": "view",
      "type": "function"
    },
    {
      "inputs": [
        {
          "internalType": "address",
          "name": "from",
          "type": "address"
        },
        {
          "internalType": "address",
          "name": "to",
          "type": "address"
        },
        {
          "internalType": "uint256",
          "name": "tokenId",
          "type": "uint256"
        }
      ],
      "name": "safeTransferFrom",
      "outputs": [],
      "stateMutability": "nonpayable",
      "type": "function"
    },
    {
      "inputs": [
        {
          "internalType": "address",
          "name": "from",
          "type": "address"
        },
        {
          "internalType": "address",
          "name": "to",
          "type": "address"
        },
        {
          "internalType": "uint256",
          "name": "tokenId",
          "type": "uint256"
        },
        {
          "internalType": "bytes",
          "name": "data",
          "type": "bytes"
        }
      ],
      "name": "safeTransferFrom",
      "outputs": [],
      "stateMutability": "nonpayable",
      "type": "function"
    },
    {
      "inputs": [
        {
          "internalType": "address",
          "name": "operator",
          "type": "address"
        },
        {
          "internalType": "bool",
          "name": "approved",
          "type": "bool"
        }
      ],
      "name": "setApprovalForAll",
      "outputs": [],
      "stateMutability": "nonpayable",
      "type": "function"
    },
    {
      "inputs": [
        {
          "internalType": "uint256",
          "name": "tokenId",
          "type": "uint256"
        },
        {
          "internalType": "uint64",
          "name": "newExpiration",
          "type": "uint64"
        }
      ],
      "name": "setExpiration",
      "outputs": [],
      "stateMutability": "nonpayable",
      "type": "function"
    },
    {
      "inputs": [
        {
          "internalType": "uint256",
          "name": "newLastId",
          "type": "uint256"
        }
      ],
      "name": "setLastId",
      "outputs": [],
      "stateMutability": "nonpayable",
      "type": "function"
    },
    {
      "inputs": [
        {
          "internalType": "address",
          "name": "forwarder",
          "type": "address"
        }
      ],
      "name": "setTurstedForwarder",
      "outputs": [],
      "stateMutability": "nonpayable",
      "type": "function"
    },
    {
      "inputs": [
        {
          "internalType": "bytes4",
          "name": "interfaceId",
          "type": "bytes4"
        }
      ],
      "name": "supportsInterface",
      "outputs": [
        {
          "internalType": "bool",
          "name": "",
          "type": "bool"
        }
      ],
      "stateMutability": "view",
      "type": "function"
    },
    {
      "inputs": [],
      "name": "symbol",
      "outputs": [
        {
          "internalType": "string",
          "name": "",
          "type": "string"
        }
      ],
      "stateMutability": "view",
      "type": "function"
    },
    {
      "inputs": [
        {
          "internalType": "uint256",
          "name": "tokenId",
          "type": "uint256"
        }
      ],
      "name": "tokenCollection",
      "outputs": [
        {
          "internalType": "uint256",
          "name": "",
          "type": "uint256"
        }
      ],
      "stateMutability": "view",
      "type": "function"
    },
    {
      "inputs": [
        {
          "internalType": "uint256",
          "name": "tokenId",
          "type": "uint256"
        }
      ],
      "name": "tokenURI",
      "outputs": [
        {
          "internalType": "string",
          "name": "",
          "type": "string"
        }
      ],
      "stateMutability": "view",
      "type": "function"
    },
    {
      "inputs": [
        {
          "internalType": "address",
          "name": "from",
          "type": "address"
        },
        {
          "internalType": "address",
          "name": "to",
          "type": "address"
        },
        {
          "internalType": "uint256",
          "name": "tokenId",
          "type": "uint256"
        }
      ],
      "name": "transferFrom",
      "outputs": [],
      "stateMutability": "nonpayable",
      "type": "function"
    },
    {
      "inputs": [
        {
          "internalType": "address",
          "name": "newOwner",
          "type": "address"
        }
      ],
      "name": "transferOwnership",
      "outputs": [],
      "stateMutability": "nonpayable",
      "type": "function"
    },
    {
      "inputs": [
        {
          "internalType": "uint256",
          "name": "tokenId",
          "type": "uint256"
        }
      ],
      "name": "unlockToken",
      "outputs": [],
      "stateMutability": "nonpayable",
      "type": "function"
    },
    {
      "inputs": [],
      "name": "unpause",
      "outputs": [],
      "stateMutability": "nonpayable",
      "type": "function"
    },
    {
      "inputs": [
        {
          "internalType": "uint256",
          "name": "collectionId",
          "type": "uint256"
        },
        {
          "internalType": "address",
          "name": "receiver",
          "type": "address"
        },
        {
          "internalType": "uint96",
          "name": "feeNumerator",
          "type": "uint96"
        }
      ],
      "name": "updateCollectionRoyalty",
      "outputs": [],
      "stateMutability": "nonpayable",
      "type": "function"
    },
    {
      "inputs": [
        {
          "internalType": "string",
          "name": "__contractURI",
          "type": "string"
        }
      ],
      "name": "updateContractURI",
      "outputs": [],
      "stateMutability": "nonpayable",
      "type": "function"
    },
    {
      "inputs": [
        {
          "internalType": "address",
          "name": "receiver",
          "type": "address"
        },
        {
          "internalType": "uint96",
          "name": "feeNumerator",
          "type": "uint96"
        }
      ],
      "name": "updateDefaultRoyalty",
      "outputs": [],
      "stateMutability": "nonpayable",
      "type": "function"
    },
    {
      "inputs": [
        {
          "internalType": "uint256",
          "name": "tokenId",
          "type": "uint256"
        },
        {
          "internalType": "uint256",
          "name": "newCollectionId",
          "type": "uint256"
        }
      ],
      "name": "updateTokenCollection",
      "outputs": [],
      "stateMutability": "nonpayable",
      "type": "function"
    },
    {
      "inputs": [
        {
          "internalType": "address",
          "name": "newImplementation",
          "type": "address"
        }
      ],
      "name": "upgradeTo",
      "outputs": [],
      "stateMutability": "nonpayable",
      "type": "function"
    },
    {
      "inputs": [
        {
          "internalType": "address",
          "name": "newImplementation",
          "type": "address"
        },
        {
          "internalType": "bytes",
          "name": "data",
          "type": "bytes"
        }
      ],
      "name": "upgradeToAndCall",
      "outputs": [],
      "stateMutability": "payable",
      "type": "function"
    },
    {
      "inputs": [],
      "name": "version",
      "outputs": [
        {
          "internalType": "uint16",
          "name": "",
          "type": "uint16"
        }
      ],
      "stateMutability": "view",
      "type": "function"
    }
  ],
  "bytecode": "0x60a060405230608052610191805461ffff60a01b191690553480156200002457600080fd5b506200002f62000035565b620000f7565b600054610100900460ff1615620000a25760405162461bcd60e51b815260206004820152602760248201527f496e697469616c697a61626c653a20636f6e747261637420697320696e697469604482015266616c697a696e6760c81b606482015260840160405180910390fd5b60005460ff9081161015620000f5576000805460ff191660ff9081179091556040519081527f7f26b83ff96e1f2b6a682f133852f6798a09c465da95921460cefb38474024989060200160405180910390a15b565b608051615bfb6200012f600039600081816112ba01528181611350015281816116750152818161170b01526118060152615bfb6000f3fe6080604052600436106103605760003560e01c8063715018a6116101c6578063c87b56dd116100f7578063dd2e0ac011610095578063f2fde38b1161006f578063f2fde38b14610a20578063f6aacfb114610a40578063fb1fcca114610a71578063fe94630914610a9157600080fd5b8063dd2e0ac0146109cb578063e8a3d485146109eb578063e985e9c514610a0057600080fd5b8063cea0302e116100d1578063cea0302e1461094b578063d1c332de1461096b578063d691e43c1461098b578063d953e4d4146109ab57600080fd5b8063c87b56dd146108eb578063cde317af1461090b578063ce1b815f1461092c57600080fd5b80638e45d62e116101645780639a80c5e31161013e5780639a80c5e314610874578063a22cb46514610894578063b88d4fde146108b4578063c1292cc3146108d457600080fd5b80638e45d62e1461082a57806395d89b411461084a57806397ec4fba1461085f57600080fd5b806380f20363116101a057806380f20363146107b75780638456cb59146107d75780638d232094146107ec5780638da5cb5b1461080c57600080fd5b8063715018a614610762578063776ce868146107775780637e5b1e241461079757600080fd5b80633659cfe6116102a0578063572b6c051161023e5780636352211e116102185780636352211e146106e25780636a662a3c14610702578063704802751461072257806370a082311461074257600080fd5b8063572b6c051461067a57806359ce12ad146106aa5780635c975abb146106ca57600080fd5b806342966c681161027a57806342966c68146105eb5780634f1ef2861461060b57806352d1902d1461061e57806354fd4d501461063357600080fd5b80633659cfe6146105965780633f4ba83a146105b657806342842e0e146105cb57600080fd5b806317c957091161030d57806323b872dd116102e757806323b872dd146104cf57806324d7806c146104ef5780632a55205a146105295780632dd883e81461056857600080fd5b806317c95709146104565780631a27e85f1461048f57806321235083146104af57600080fd5b8063095ea7b31161033e578063095ea7b3146103f45780631771c96c146104165780631785f53c1461043657600080fd5b806301ffc9a71461036557806306fdde031461039a578063081812fc146103bc575b600080fd5b34801561037157600080fd5b50610385610380366004615119565b610ab1565b60405190151581526020015b60405180910390f35b3480156103a657600080fd5b506103af610b59565b60405161039191906151ac565b3480156103c857600080fd5b506103dc6103d73660046151bf565b610beb565b6040516001600160a01b039091168152602001610391565b34801561040057600080fd5b5061041461040f3660046151f4565b610c12565b005b34801561042257600080fd5b506103af6104313660046151bf565b610d12565b34801561044257600080fd5b5061041461045136600461521e565b610d47565b34801561046257600080fd5b506104766104713660046151bf565b610e4e565b60405167ffffffffffffffff9091168152602001610391565b34801561049b57600080fd5b506104146104aa3660046151bf565b610e77565b3480156104bb57600080fd5b506104146104ca3660046151bf565b610f61565b3480156104db57600080fd5b506104146104ea366004615239565b611057565b3480156104fb57600080fd5b5061038561050a36600461521e565b6001600160a01b03166000908152610199602052604090205460ff1690565b34801561053557600080fd5b50610549610544366004615275565b61119d565b604080516001600160a01b039093168352602083019190915201610391565b34801561057457600080fd5b506105886105833660046151bf565b611290565b604051908152602001610391565b3480156105a257600080fd5b506104146105b136600461521e565b6112af565b3480156105c257600080fd5b5061041461144d565b3480156105d757600080fd5b506104146105e6366004615239565b6114e1565b3480156105f757600080fd5b506104146106063660046151bf565b6115de565b610414610619366004615371565b61166a565b34801561062a57600080fd5b506105886117f9565b34801561063f57600080fd5b50610191546106679074010000000000000000000000000000000000000000900461ffff1681565b60405161ffff9091168152602001610391565b34801561068657600080fd5b5061038561069536600461521e565b610191546001600160a01b0391821691161490565b3480156106b657600080fd5b506104146106c53660046153bf565b6118be565b3480156106d657600080fd5b5060c95460ff16610385565b3480156106ee57600080fd5b506103dc6106fd3660046151bf565b61196d565b34801561070e57600080fd5b5061041461071d366004615407565b6119d2565b34801561072e57600080fd5b5061041461073d36600461521e565b611a67565b34801561074e57600080fd5b5061058861075d36600461521e565b611be6565b34801561076e57600080fd5b50610414611c80565b34801561078357600080fd5b5061041461079236600461545b565b611c92565b3480156107a357600080fd5b506104146107b236600461547e565b611d2f565b3480156107c357600080fd5b506104146107d23660046151bf565b611dcd565b3480156107e357600080fd5b50610414611f29565b3480156107f857600080fd5b506104146108073660046154f8565b611fbb565b34801561081857600080fd5b5060fb546001600160a01b03166103dc565b34801561083657600080fd5b506103856108453660046155ba565b6121b1565b34801561085657600080fd5b506103af61227b565b34801561086b57600080fd5b5061041461228a565b34801561088057600080fd5b5061038561088f366004615609565b61231f565b3480156108a057600080fd5b506104146108af366004615679565b6124e0565b3480156108c057600080fd5b506104146108cf3660046156b0565b6125d6565b3480156108e057600080fd5b506105886101935481565b3480156108f757600080fd5b506103af6109063660046151bf565b6126e1565b34801561091757600080fd5b506103856109263660046151bf565b50600190565b34801561093857600080fd5b50610191546001600160a01b03166103dc565b34801561095757600080fd5b5061041461096636600461521e565b61272e565b34801561097757600080fd5b5061041461098636600461545b565b6127ef565b34801561099757600080fd5b506104146109a6366004615718565b612900565b3480156109b757600080fd5b506104146109c63660046151bf565b612994565b3480156109d757600080fd5b506104146109e63660046151bf565b612a30565b3480156109f757600080fd5b506103af612ad4565b348015610a0c57600080fd5b50610385610a1b366004615742565b612b63565b348015610a2c57600080fd5b50610414610a3b36600461521e565b612be2565b348015610a4c57600080fd5b50610385610a5b3660046151bf565b6000908152610195602052604090205460ff1690565b348015610a7d57600080fd5b50610385610a8c36600461576c565b612c6f565b348015610a9d57600080fd5b50610414610aac366004615275565b612e03565b60007fffffffff0000000000000000000000000000000000000000000000000000000082167f8c65f84d000000000000000000000000000000000000000000000000000000001480610b4457507fffffffff0000000000000000000000000000000000000000000000000000000082167f2a55205a00000000000000000000000000000000000000000000000000000000145b80610b535750610b5382612eb1565b92915050565b606060658054610b68906157ca565b80601f0160208091040260200160405190810160405280929190818152602001828054610b94906157ca565b8015610be15780601f10610bb657610100808354040283529160200191610be1565b820191906000526020600020905b815481529060010190602001808311610bc457829003601f168201915b5050505050905090565b6000610bf682612f94565b506000908152606960205260409020546001600160a01b031690565b816daaeb6d7670e522a718067333cd4e3b15610d03576040517fc61711340000000000000000000000000000000000000000000000000000000081523060048201526001600160a01b03821660248201526daaeb6d7670e522a718067333cd4e9063c617113490604401602060405180830381865afa158015610c99573d6000803e3d6000fd5b505050506040513d601f19601f82011682018060405250810190610cbd919061581e565b610d03576040517fede71dcc0000000000000000000000000000000000000000000000000000000081526001600160a01b03821660048201526024015b60405180910390fd5b610d0d8383612ff8565b505050565b6060610192610d2083613137565b604051602001610d3192919061590c565b6040516020818303038152906040529050919050565b610d4f613269565b6001600160a01b0316610d6a60fb546001600160a01b031690565b6001600160a01b03161480610d855750610d8561050a613269565b610dd15760405162461bcd60e51b815260206004820152601c60248201527f63616c6c6572206973206e6f74206f776e6572206f722061646d696e000000006044820152606401610cfa565b6001600160a01b03811660008181526101996020908152604080832080547fffffffffffffffffffffffffffffffffffffffffffffffffffffffffffffff001690558051938452908301919091527f235bc17e7930760029e9f4d860a2a8089976de5b381cf8380fc11c1d88a1113391015b60405180910390a150565b6000610e5982612f94565b506000908152610198602052604090205467ffffffffffffffff1690565b610e7f613269565b6001600160a01b0316610e9a60fb546001600160a01b031690565b6001600160a01b03161480610eb55750610eb561050a613269565b610f015760405162461bcd60e51b815260206004820152601c60248201527f63616c6c6572206973206e6f74206f776e6572206f722061646d696e000000006044820152606401610cfa565b610f09613278565b806101935410610f5b5760405162461bcd60e51b815260206004820152601760248201527f4e65772049642068617320746f206265206869676865720000000000000000006044820152606401610cfa565b61019355565b610f69613269565b6001600160a01b0316610f8460fb546001600160a01b031690565b6001600160a01b03161480610f9f5750610f9f61050a613269565b610feb5760405162461bcd60e51b815260206004820152601c60248201527f63616c6c6572206973206e6f74206f776e6572206f722061646d696e000000006044820152606401610cfa565b60008181526101986020908152604080832080547fffffffffffffffffffffffffffffffffffffffffffffffff00000000000000001690555191825282917f2ec2be2c4b90c2cf13ecb6751a24daed6bb741ae5ed3f7371aabf9402f6d62e8910160405180910390a250565b826daaeb6d7670e522a718067333cd4e3b1561118c57611075613269565b6001600160a01b0316816001600160a01b0316141561109e576110998484846132cb565b611197565b6daaeb6d7670e522a718067333cd4e63c6171134306110bb613269565b6040517fffffffff0000000000000000000000000000000000000000000000000000000060e085901b1681526001600160a01b03928316600482015291166024820152604401602060405180830381865afa15801561111e573d6000803e3d6000fd5b505050506040513d601f19601f82011682018060405250810190611142919061581e565b61118c5761114e613269565b6040517fede71dcc0000000000000000000000000000000000000000000000000000000081526001600160a01b039091166004820152602401610cfa565b6111978484846132cb565b50505050565b60008060006111ab85611290565b600081815261019760209081526040918290208251808401909352546001600160a01b038116808452740100000000000000000000000000000000000000009091046bffffffffffffffffffffffff169183019190915291925090611251575060408051808201909152610196546001600160a01b03811682527401000000000000000000000000000000000000000090046bffffffffffffffffffffffff1660208201525b602081015160009061271090611275906bffffffffffffffffffffffff1688615960565b61127f91906159cc565b9151945090925050505b9250929050565b600061129b82612f94565b506000908152610194602052604090205490565b306001600160a01b037f000000000000000000000000000000000000000000000000000000000000000016141561134e5760405162461bcd60e51b815260206004820152602c60248201527f46756e6374696f6e206d7573742062652063616c6c6564207468726f7567682060448201527f64656c656761746563616c6c00000000000000000000000000000000000000006064820152608401610cfa565b7f00000000000000000000000000000000000000000000000000000000000000006001600160a01b03166113a97f360894a13ba1a3210667c828492db98dca3e2076cc3735a920a3ca505d382bbc546001600160a01b031690565b6001600160a01b0316146114255760405162461bcd60e51b815260206004820152602c60248201527f46756e6374696f6e206d7573742062652063616c6c6564207468726f7567682060448201527f6163746976652070726f787900000000000000000000000000000000000000006064820152608401610cfa565b61142e81613353565b6040805160008082526020820190925261144a918391906133dd565b50565b611455613269565b6001600160a01b031661147060fb546001600160a01b031690565b6001600160a01b0316148061148b575061148b61050a613269565b6114d75760405162461bcd60e51b815260206004820152601c60248201527f63616c6c6572206973206e6f74206f776e6572206f722061646d696e000000006044820152606401610cfa565b6114df61359b565b565b826daaeb6d7670e522a718067333cd4e3b156115d3576114ff613269565b6001600160a01b0316816001600160a01b0316141561152357611099848484613611565b6daaeb6d7670e522a718067333cd4e63c617113430611540613269565b6040517fffffffff0000000000000000000000000000000000000000000000000000000060e085901b1681526001600160a01b03928316600482015291166024820152604401602060405180830381865afa1580156115a3573d6000803e3d6000fd5b505050506040513d601f19601f820116820180604052508101906115c7919061581e565b6115d35761114e613269565b611197848484613611565b6115ef6115e9613269565b8261362c565b6116615760405162461bcd60e51b815260206004820152602e60248201527f4552433732313a2063616c6c6572206973206e6f7420746f6b656e206f776e6560448201527f72206e6f7220617070726f7665640000000000000000000000000000000000006064820152608401610cfa565b61144a8161368a565b306001600160a01b037f00000000000000000000000000000000000000000000000000000000000000001614156117095760405162461bcd60e51b815260206004820152602c60248201527f46756e6374696f6e206d7573742062652063616c6c6564207468726f7567682060448201527f64656c656761746563616c6c00000000000000000000000000000000000000006064820152608401610cfa565b7f00000000000000000000000000000000000000000000000000000000000000006001600160a01b03166117647f360894a13ba1a3210667c828492db98dca3e2076cc3735a920a3ca505d382bbc546001600160a01b031690565b6001600160a01b0316146117e05760405162461bcd60e51b815260206004820152602c60248201527f46756e6374696f6e206d7573742062652063616c6c6564207468726f7567682060448201527f6163746976652070726f787900000000000000000000000000000000000000006064820152608401610cfa565b6117e982613353565b6117f5828260016133dd565b5050565b6000306001600160a01b037f000000000000000000000000000000000000000000000000000000000000000016146118995760405162461bcd60e51b815260206004820152603860248201527f555550535570677261646561626c653a206d757374206e6f742062652063616c60448201527f6c6564207468726f7567682064656c656761746563616c6c00000000000000006064820152608401610cfa565b507f360894a13ba1a3210667c828492db98dca3e2076cc3735a920a3ca505d382bbc90565b6118c6613269565b6001600160a01b03166118e160fb546001600160a01b031690565b6001600160a01b031614806118fc57506118fc61050a613269565b6119485760405162461bcd60e51b815260206004820152601c60248201527f63616c6c6572206973206e6f74206f776e6572206f722061646d696e000000006044820152606401610cfa565b61195182613706565b61195a8261376e565b6117f56119668361196d565b82846137d5565b6000818152606760205260408120546001600160a01b031680610b535760405162461bcd60e51b815260206004820152601860248201527f4552433732313a20696e76616c696420746f6b656e20494400000000000000006044820152606401610cfa565b6119da613269565b6001600160a01b03166119f560fb546001600160a01b031690565b6001600160a01b03161480611a105750611a1061050a613269565b611a5c5760405162461bcd60e51b815260206004820152601c60248201527f63616c6c6572206973206e6f74206f776e6572206f722061646d696e000000006044820152606401610cfa565b610d0d8383836139c5565b611a6f613269565b6001600160a01b0316611a8a60fb546001600160a01b031690565b6001600160a01b03161480611aa55750611aa561050a613269565b611af15760405162461bcd60e51b815260206004820152601c60248201527f63616c6c6572206973206e6f74206f776e6572206f722061646d696e000000006044820152606401610cfa565b6001600160a01b038116611b6c5760405162461bcd60e51b8152602060048201526024808201527f4e65772061646d696e2063616e6e6f7420626520746865207a65726f2061646460448201527f72657373000000000000000000000000000000000000000000000000000000006064820152608401610cfa565b6001600160a01b0381166000818152610199602090815260409182902080547fffffffffffffffffffffffffffffffffffffffffffffffffffffffffffffff001660019081179091558251938452908301527f235bc17e7930760029e9f4d860a2a8089976de5b381cf8380fc11c1d88a111339101610e43565b60006001600160a01b038216611c645760405162461bcd60e51b815260206004820152602960248201527f4552433732313a2061646472657373207a65726f206973206e6f74206120766160448201527f6c6964206f776e657200000000000000000000000000000000000000000000006064820152608401610cfa565b506001600160a01b031660009081526068602052604090205490565b611c88613b02565b6114df6000613b7b565b611c9a613269565b6001600160a01b0316611cb560fb546001600160a01b031690565b6001600160a01b03161480611cd05750611cd061050a613269565b611d1c5760405162461bcd60e51b815260206004820152601c60248201527f63616c6c6572206973206e6f74206f776e6572206f722061646d696e000000006044820152606401610cfa565b611d2582612f94565b6117f58282613be5565b611d37613269565b6001600160a01b0316611d5260fb546001600160a01b031690565b6001600160a01b03161480611d6d5750611d6d61050a613269565b611db95760405162461bcd60e51b815260206004820152601c60248201527f63616c6c6572206973206e6f74206f776e6572206f722061646d696e000000006044820152606401610cfa565b80516117f590610192906020840190615052565b611dd5613278565b6040517ff6aacfb1000000000000000000000000000000000000000000000000000000008152600481018290528190309063f6aacfb190602401602060405180830381865afa158015611e2c573d6000803e3d6000fd5b505050506040513d601f19601f82011682018060405250810190611e50919061581e565b15611e9d5760405162461bcd60e51b815260206004820152600f60248201527f546f6b656e206973206c6f636b656400000000000000000000000000000000006044820152606401610cfa565b611eae611ea8613269565b8361362c565b611f205760405162461bcd60e51b815260206004820152602560248201527f63616c6c6572206973206e6f7420746f6b656e206f776e6572206f722061707060448201527f726f7665640000000000000000000000000000000000000000000000000000006064820152608401610cfa565b6117f582613ca3565b611f31613269565b6001600160a01b0316611f4c60fb546001600160a01b031690565b6001600160a01b03161480611f675750611f6761050a613269565b611fb35760405162461bcd60e51b815260206004820152601c60248201527f63616c6c6572206973206e6f74206f776e6572206f722061646d696e000000006044820152606401610cfa565b6114df613d0d565b600054610100900460ff1615808015611fdb5750600054600160ff909116105b80611ff55750303b158015611ff5575060005460ff166001145b6120675760405162461bcd60e51b815260206004820152602e60248201527f496e697469616c697a61626c653a20636f6e747261637420697320616c72656160448201527f647920696e697469616c697a65640000000000000000000000000000000000006064820152608401610cfa565b600080547fffffffffffffffffffffffffffffffffffffffffffffffffffffffffffffff0016600117905580156120c557600080547fffffffffffffffffffffffffffffffffffffffffffffffffffffffffffff00ff166101001790555b6120cf8686613d69565b6120d7613df0565b6120df613e75565b6120e7613efa565b6120ef613efa565b6120f7613f77565b61210084611d2f565b60005b8281101561214557612135848483818110612120576121206159e0565b905060200201602081019061073d919061521e565b61213e81615a0f565b9050612103565b5080156121a957600080547fffffffffffffffffffffffffffffffffffffffffffffffffffffffffffff00ff169055604051600181527f7f26b83ff96e1f2b6a682f133852f6798a09c465da95921460cefb38474024989060200160405180910390a15b505050505050565b60006121bb613278565b6121c3613269565b6001600160a01b03166121de60fb546001600160a01b031690565b6001600160a01b031614806121f957506121f961050a613269565b6122455760405162461bcd60e51b815260206004820152601c60248201527f63616c6c6572206973206e6f74206f776e6572206f722061646d696e000000006044820152606401610cfa565b600161019360008282546122599190615a48565b925050819055506122708561019354868686614013565b90505b949350505050565b606060668054610b68906157ca565b612292613269565b6001600160a01b03166122ad60fb546001600160a01b031690565b6001600160a01b031614806122c857506122c861050a613269565b6123145760405162461bcd60e51b815260206004820152601c60248201527f63616c6c6572206973206e6f74206f776e6572206f722061646d696e000000006044820152606401610cfa565b6114df600061019655565b6000612329613278565b612331613269565b6001600160a01b031661234c60fb546001600160a01b031690565b6001600160a01b03161480612367575061236761050a613269565b6123b35760405162461bcd60e51b815260206004820152601c60248201527f63616c6c6572206973206e6f74206f776e6572206f722061646d696e000000006044820152606401610cfa565b67ffffffffffffffff82161561244f576000806123d08442615a60565b905060005b8681101561244757806101935460016123ee9190615a48565b6123f89190615a48565b925061242c89848a8a85818110612411576124116159e0565b9050602002016020810190612426919061521e565b89614066565b5061243783836127ef565b61244081615a0f565b90506123d5565b5050506124b9565b60005b848110156124b7576124a6878261019354600161246f9190615a48565b6124799190615a48565b88888581811061248b5761248b6159e0565b90506020020160208101906124a0919061521e565b87614066565b506124b081615a0f565b9050612452565b505b8484905061019360008282546124cf9190615a48565b909155506001979650505050505050565b816daaeb6d7670e522a718067333cd4e3b156125cc576040517fc61711340000000000000000000000000000000000000000000000000000000081523060048201526001600160a01b03821660248201526daaeb6d7670e522a718067333cd4e9063c617113490604401602060405180830381865afa158015612567573d6000803e3d6000fd5b505050506040513d601f19601f8201168201806040525081019061258b919061581e565b6125cc576040517fede71dcc0000000000000000000000000000000000000000000000000000000081526001600160a01b0382166004820152602401610cfa565b610d0d838361409e565b836daaeb6d7670e522a718067333cd4e3b156126ce576125f4613269565b6001600160a01b0316816001600160a01b0316141561261e57612619858585856140b0565b6126da565b6daaeb6d7670e522a718067333cd4e63c61711343061263b613269565b6040517fffffffff0000000000000000000000000000000000000000000000000000000060e085901b1681526001600160a01b03928316600482015291166024820152604401602060405180830381865afa15801561269e573d6000803e3d6000fd5b505050506040513d601f19601f820116820180604052508101906126c2919061581e565b6126ce5761114e613269565b6126da858585856140b0565b5050505050565b606060006126ee83611290565b90506101926126fc82613137565b61270585613137565b60405160200161271793929190615a83565b604051602081830303815290604052915050919050565b612736613269565b6001600160a01b031661275160fb546001600160a01b031690565b6001600160a01b0316148061276c575061276c61050a613269565b6127b85760405162461bcd60e51b815260206004820152601c60248201527f63616c6c6572206973206e6f74206f776e6572206f722061646d696e000000006044820152606401610cfa565b61019180547fffffffffffffffffffffffff0000000000000000000000000000000000000000166001600160a01b03831617905550565b6127f7613269565b6001600160a01b031661281260fb546001600160a01b031690565b6001600160a01b0316148061282d575061282d61050a613269565b6128795760405162461bcd60e51b815260206004820152601c60248201527f63616c6c6572206973206e6f74206f776e6572206f722061646d696e000000006044820152606401610cfa565b61288282612f94565b6000828152610198602090815260409182902080547fffffffffffffffffffffffffffffffffffffffffffffffff00000000000000001667ffffffffffffffff8516908117909155915191825283917f2ec2be2c4b90c2cf13ecb6751a24daed6bb741ae5ed3f7371aabf9402f6d62e8910160405180910390a25050565b612908613269565b6001600160a01b031661292360fb546001600160a01b031690565b6001600160a01b0316148061293e575061293e61050a613269565b61298a5760405162461bcd60e51b815260206004820152601c60248201527f63616c6c6572206973206e6f74206f776e6572206f722061646d696e000000006044820152606401610cfa565b6117f58282614139565b61299c613269565b6001600160a01b03166129b760fb546001600160a01b031690565b6001600160a01b031614806129d257506129d261050a613269565b612a1e5760405162461bcd60e51b815260206004820152601c60248201527f63616c6c6572206973206e6f74206f776e6572206f722061646d696e000000006044820152606401610cfa565b60009081526101976020526040812055565b612a38613269565b6001600160a01b0316612a5360fb546001600160a01b031690565b6001600160a01b03161480612a6e5750612a6e61050a613269565b612aba5760405162461bcd60e51b815260206004820152601c60248201527f63616c6c6572206973206e6f74206f776e6572206f722061646d696e000000006044820152606401610cfa565b612ac2613278565b612acb81613706565b61144a8161376e565b6101928054612ae2906157ca565b80601f0160208091040260200160405190810160405280929190818152602001828054612b0e906157ca565b8015612b5b5780601f10612b3057610100808354040283529160200191612b5b565b820191906000526020600020905b815481529060010190602001808311612b3e57829003601f168201915b505050505081565b60006001600160a01b0382166e6c3852cbef3e08e8df289169ede5811480612ba457506001600160a01b0382166000908152610199602052604090205460ff165b15612bb157506001610b53565b6001600160a01b038084166000908152606a602090815260408083209386168352929052205460ff165b9392505050565b612bea613b02565b6001600160a01b038116612c665760405162461bcd60e51b815260206004820152602660248201527f4f776e61626c653a206e6577206f776e657220697320746865207a65726f206160448201527f64647265737300000000000000000000000000000000000000000000000000006064820152608401610cfa565b61144a81613b7b565b6000612c79613278565b612c81613269565b6001600160a01b0316612c9c60fb546001600160a01b031690565b6001600160a01b03161480612cb75750612cb761050a613269565b612d035760405162461bcd60e51b815260206004820152601c60248201527f63616c6c6572206973206e6f74206f776e6572206f722061646d696e000000006044820152606401610cfa565b67ffffffffffffffff821615612d9157600080612d208442615a60565b905060005b87811015612d895780610193546001612d3e9190615a48565b612d489190615a48565b9250612d6e898983818110612d5f57612d5f6159e0565b90506020020135848989614066565b50612d7983836127ef565b612d8281615a0f565b9050612d25565b505050612ded565b60005b85811015612deb57612dda878783818110612db157612db16159e0565b9050602002013582610193546001612dc99190615a48565b612dd39190615a48565b8787614066565b50612de481615a0f565b9050612d94565b505b8585905061019360008282546124cf9190615a48565b612e0b613269565b6001600160a01b0316612e2660fb546001600160a01b031690565b6001600160a01b03161480612e415750612e4161050a613269565b612e8d5760405162461bcd60e51b815260206004820152601c60248201527f63616c6c6572206973206e6f74206f776e6572206f722061646d696e000000006044820152606401610cfa565b612e95613278565b612e9e82612f94565b6000918252610194602052604090912055565b60007fffffffff0000000000000000000000000000000000000000000000000000000082167f80ac58cd000000000000000000000000000000000000000000000000000000001480612f4457507fffffffff0000000000000000000000000000000000000000000000000000000082167f5b5e139f00000000000000000000000000000000000000000000000000000000145b80610b5357507f01ffc9a7000000000000000000000000000000000000000000000000000000007fffffffff00000000000000000000000000000000000000000000000000000000831614610b53565b6000818152606760205260409020546001600160a01b031661144a5760405162461bcd60e51b815260206004820152601860248201527f4552433732313a20696e76616c696420746f6b656e20494400000000000000006044820152606401610cfa565b60006130038261196d565b9050806001600160a01b0316836001600160a01b0316141561308d5760405162461bcd60e51b815260206004820152602160248201527f4552433732313a20617070726f76616c20746f2063757272656e74206f776e6560448201527f72000000000000000000000000000000000000000000000000000000000000006064820152608401610cfa565b806001600160a01b031661309f613269565b6001600160a01b031614806130bb57506130bb81610a1b613269565b61312d5760405162461bcd60e51b815260206004820152603e60248201527f4552433732313a20617070726f76652063616c6c6572206973206e6f7420746f60448201527f6b656e206f776e6572206e6f7220617070726f76656420666f7220616c6c00006064820152608401610cfa565b610d0d8383614265565b60608161317757505060408051808201909152600181527f3000000000000000000000000000000000000000000000000000000000000000602082015290565b8160005b81156131a1578061318b81615a0f565b915061319a9050600a836159cc565b915061317b565b60008167ffffffffffffffff8111156131bc576131bc615297565b6040519080825280601f01601f1916602001820160405280156131e6576020820181803683370190505b5090505b8415612273576131fb600183615ae5565b9150613208600a86615afc565b613213906030615a48565b60f81b818381518110613228576132286159e0565b60200101907effffffffffffffffffffffffffffffffffffffffffffffffffffffffffffff1916908160001a905350613262600a866159cc565b94506131ea565b60006132736142eb565b905090565b60c95460ff16156114df5760405162461bcd60e51b815260206004820152601060248201527f5061757361626c653a20706175736564000000000000000000000000000000006044820152606401610cfa565b6132d66115e9613269565b6133485760405162461bcd60e51b815260206004820152602e60248201527f4552433732313a2063616c6c6572206973206e6f7420746f6b656e206f776e6560448201527f72206e6f7220617070726f7665640000000000000000000000000000000000006064820152608401610cfa565b610d0d8383836137d5565b61335b613269565b6001600160a01b031661337660fb546001600160a01b031690565b6001600160a01b03161480613391575061339161050a613269565b61144a5760405162461bcd60e51b815260206004820152601c60248201527f63616c6c6572206973206e6f74206f776e6572206f722061646d696e000000006044820152606401610cfa565b7f4910fdfa16fed3260ed0e7147f7cc6da11a60208b5b9406d12a635614ffd91435460ff161561341057610d0d8361433e565b826001600160a01b03166352d1902d6040518163ffffffff1660e01b8152600401602060405180830381865afa925050508015613488575060408051601f3d9081017fffffffffffffffffffffffffffffffffffffffffffffffffffffffffffffffe016820190925261348591810190615b10565b60015b6134fa5760405162461bcd60e51b815260206004820152602e60248201527f45524331393637557067726164653a206e657720696d706c656d656e7461746960448201527f6f6e206973206e6f7420555550530000000000000000000000000000000000006064820152608401610cfa565b7f360894a13ba1a3210667c828492db98dca3e2076cc3735a920a3ca505d382bbc811461358f5760405162461bcd60e51b815260206004820152602960248201527f45524331393637557067726164653a20756e737570706f727465642070726f7860448201527f6961626c655555494400000000000000000000000000000000000000000000006064820152608401610cfa565b50610d0d838383614414565b6135a3614439565b60c980547fffffffffffffffffffffffffffffffffffffffffffffffffffffffffffffff001690557f5db9ee0a495bf2e6ff9c91a7834c1ba4fdd244a5e8aa4e537bd38aeae4b073aa6135f4613269565b6040516001600160a01b03909116815260200160405180910390a1565b610d0d838383604051806020016040528060008152506125d6565b6000806136388361196d565b9050806001600160a01b0316846001600160a01b0316148061365f575061365f8185612b63565b806122735750836001600160a01b031661367884610beb565b6001600160a01b031614949350505050565b6136938161448b565b600090815261019460209081526040808320839055610195825280832080547fffffffffffffffffffffffffffffffffffffffffffffffffffffffffffffff00169055610198909152902080547fffffffffffffffffffffffffffffffffffffffffffffffff0000000000000000169055565b61370f81612f94565b6000818152610195602052604090205460ff1661144a5760405162461bcd60e51b815260206004820152601360248201527f546f6b656e206973206e6f74206c6f636b6564000000000000000000000000006044820152606401610cfa565b600081815261019560205260409081902080547fffffffffffffffffffffffffffffffffffffffffffffffffffffffffffffff00169055517ff27b6ce5b2f5e68ddb2fd95a8a909d4ecf1daaac270935fff052feacb24f184290610e439083815260200190565b826001600160a01b03166137e88261196d565b6001600160a01b0316146138645760405162461bcd60e51b815260206004820152602560248201527f4552433732313a207472616e736665722066726f6d20696e636f72726563742060448201527f6f776e65720000000000000000000000000000000000000000000000000000006064820152608401610cfa565b6001600160a01b0382166138df5760405162461bcd60e51b8152602060048201526024808201527f4552433732313a207472616e7366657220746f20746865207a65726f2061646460448201527f72657373000000000000000000000000000000000000000000000000000000006064820152608401610cfa565b6138ea83838361454a565b6138f5600082614265565b6001600160a01b038316600090815260686020526040812080546001929061391e908490615ae5565b90915550506001600160a01b038216600090815260686020526040812080546001929061394c908490615a48565b909155505060008181526067602052604080822080547fffffffffffffffffffffffff0000000000000000000000000000000000000000166001600160a01b0386811691821790925591518493918716917fddf252ad1be2c89b69c2b068fc378daa952ba7f163c4a11628f55a4df523b3ef91a4505050565b6127106bffffffffffffffffffffffff82161115613a4b5760405162461bcd60e51b815260206004820152602a60248201527f455243323938313a20726f79616c7479206665652077696c6c2065786365656460448201527f2073616c655072696365000000000000000000000000000000000000000000006064820152608401610cfa565b6001600160a01b038216613aa15760405162461bcd60e51b815260206004820152601b60248201527f455243323938313a20496e76616c696420706172616d657465727300000000006044820152606401610cfa565b6040805180820182526001600160a01b0393841681526bffffffffffffffffffffffff928316602080830191825260009687526101979052919094209351905190911674010000000000000000000000000000000000000000029116179055565b613b0a613269565b6001600160a01b0316613b2560fb546001600160a01b031690565b6001600160a01b0316146114df5760405162461bcd60e51b815260206004820181905260248201527f4f776e61626c653a2063616c6c6572206973206e6f7420746865206f776e65726044820152606401610cfa565b60fb80546001600160a01b038381167fffffffffffffffffffffffff0000000000000000000000000000000000000000831681179093556040519116919082907f8be0079c531659141344cd1fd0a4f28419497f9722a3daafe3b4186f6b6457e090600090a35050565b6000828152610198602052604081205467ffffffffffffffff169081613c1657613c0f8342615a60565b9050613c23565b613c208383615a60565b90505b6000848152610198602090815260409182902080547fffffffffffffffffffffffffffffffffffffffffffffffff00000000000000001667ffffffffffffffff8516908117909155915191825285917f2ec2be2c4b90c2cf13ecb6751a24daed6bb741ae5ed3f7371aabf9402f6d62e8910160405180910390a250505050565b600081815261019560205260409081902080547fffffffffffffffffffffffffffffffffffffffffffffffffffffffffffffff00166001179055517f032bc66be43dbccb7487781d168eb7bda224628a3b2c3388bdf69b532a3a161190610e439083815260200190565b613d15613278565b60c980547fffffffffffffffffffffffffffffffffffffffffffffffffffffffffffffff001660011790557f62e78cea01bee320cd4e420270b5ea74000d11b0c9f74754ebdbfc544b05a2586135f4613269565b600054610100900460ff16613de65760405162461bcd60e51b815260206004820152602b60248201527f496e697469616c697a61626c653a20636f6e7472616374206973206e6f74206960448201527f6e697469616c697a696e670000000000000000000000000000000000000000006064820152608401610cfa565b6117f5828261461a565b600054610100900460ff16613e6d5760405162461bcd60e51b815260206004820152602b60248201527f496e697469616c697a61626c653a20636f6e7472616374206973206e6f74206960448201527f6e697469616c697a696e670000000000000000000000000000000000000000006064820152608401610cfa565b6114df6146be565b600054610100900460ff16613ef25760405162461bcd60e51b815260206004820152602b60248201527f496e697469616c697a61626c653a20636f6e7472616374206973206e6f74206960448201527f6e697469616c697a696e670000000000000000000000000000000000000000006064820152608401610cfa565b6114df614765565b600054610100900460ff166114df5760405162461bcd60e51b815260206004820152602b60248201527f496e697469616c697a61626c653a20636f6e7472616374206973206e6f74206960448201527f6e697469616c697a696e670000000000000000000000000000000000000000006064820152608401610cfa565b600054610100900460ff16613ff45760405162461bcd60e51b815260206004820152602b60248201527f496e697469616c697a61626c653a20636f6e7472616374206973206e6f74206960448201527f6e697469616c697a696e670000000000000000000000000000000000000000006064820152608401610cfa565b6114df733cc6cdda760b79bafa08df41ecfa224f810dceb660016147f2565b600061401f8486614a4b565b60008581526101946020526040902086905582156140405761404085613ca3565b67ffffffffffffffff82161561405a5761405a8583613be5565b50600195945050505050565b60006140728385614a4b565b60008481526101946020526040902085905581156140935761409384613ca3565b506001949350505050565b6117f56140a9613269565b8383614bb1565b6140bb611ea8613269565b61412d5760405162461bcd60e51b815260206004820152602e60248201527f4552433732313a2063616c6c6572206973206e6f7420746f6b656e206f776e6560448201527f72206e6f7220617070726f7665640000000000000000000000000000000000006064820152608401610cfa565b61119784848484614c9e565b6127106bffffffffffffffffffffffff821611156141bf5760405162461bcd60e51b815260206004820152602a60248201527f455243323938313a20726f79616c7479206665652077696c6c2065786365656460448201527f2073616c655072696365000000000000000000000000000000000000000000006064820152608401610cfa565b6001600160a01b0382166142155760405162461bcd60e51b815260206004820152601960248201527f455243323938313a20696e76616c6964207265636569766572000000000000006044820152606401610cfa565b604080518082019091526001600160a01b039092168083526bffffffffffffffffffffffff9091166020909201829052740100000000000000000000000000000000000000009091021761019655565b600081815260696020526040902080547fffffffffffffffffffffffff0000000000000000000000000000000000000000166001600160a01b03841690811790915581906142b28261196d565b6001600160a01b03167f8c5be1e5ebec7d5bd14f71427d1e84f3dd0314c0f7b2291e5b200ac8c7c3b92560405160405180910390a45050565b6000601436108015906143095750610191546001600160a01b031633145b1561433957507fffffffffffffffffffffffffffffffffffffffffffffffffffffffffffffffec36013560601c90565b503390565b6001600160a01b0381163b6143bb5760405162461bcd60e51b815260206004820152602d60248201527f455243313936373a206e657720696d706c656d656e746174696f6e206973206e60448201527f6f74206120636f6e7472616374000000000000000000000000000000000000006064820152608401610cfa565b7f360894a13ba1a3210667c828492db98dca3e2076cc3735a920a3ca505d382bbc80547fffffffffffffffffffffffff0000000000000000000000000000000000000000166001600160a01b0392909216919091179055565b61441d83614d27565b60008251118061442a5750805b15610d0d576111978383614d67565b60c95460ff166114df5760405162461bcd60e51b815260206004820152601460248201527f5061757361626c653a206e6f74207061757365640000000000000000000000006044820152606401610cfa565b60006144968261196d565b90506144a48160008461454a565b6144af600083614265565b6001600160a01b03811660009081526068602052604081208054600192906144d8908490615ae5565b909155505060008281526067602052604080822080547fffffffffffffffffffffffff0000000000000000000000000000000000000000169055518391906001600160a01b038416907fddf252ad1be2c89b69c2b068fc378daa952ba7f163c4a11628f55a4df523b3ef908390a45050565b614552613278565b6040517ff6aacfb1000000000000000000000000000000000000000000000000000000008152600481018290528190309063f6aacfb190602401602060405180830381865afa1580156145a9573d6000803e3d6000fd5b505050506040513d601f19601f820116820180604052508101906145cd919061581e565b156110995760405162461bcd60e51b815260206004820152600f60248201527f546f6b656e206973206c6f636b656400000000000000000000000000000000006044820152606401610cfa565b600054610100900460ff166146975760405162461bcd60e51b815260206004820152602b60248201527f496e697469616c697a61626c653a20636f6e7472616374206973206e6f74206960448201527f6e697469616c697a696e670000000000000000000000000000000000000000006064820152608401610cfa565b81516146aa906065906020850190615052565b508051610d0d906066906020840190615052565b600054610100900460ff1661473b5760405162461bcd60e51b815260206004820152602b60248201527f496e697469616c697a61626c653a20636f6e7472616374206973206e6f74206960448201527f6e697469616c697a696e670000000000000000000000000000000000000000006064820152608401610cfa565b60c980547fffffffffffffffffffffffffffffffffffffffffffffffffffffffffffffff00169055565b600054610100900460ff166147e25760405162461bcd60e51b815260206004820152602b60248201527f496e697469616c697a61626c653a20636f6e7472616374206973206e6f74206960448201527f6e697469616c697a696e670000000000000000000000000000000000000000006064820152608401610cfa565b6114df6147ed613269565b613b7b565b600054610100900460ff1661486f5760405162461bcd60e51b815260206004820152602b60248201527f496e697469616c697a61626c653a20636f6e7472616374206973206e6f74206960448201527f6e697469616c697a696e670000000000000000000000000000000000000000006064820152608401610cfa565b6daaeb6d7670e522a718067333cd4e3b156117f5576040517fc3c5a5470000000000000000000000000000000000000000000000000000000081523060048201526daaeb6d7670e522a718067333cd4e9063c3c5a547906024016020604051808303816000875af11580156148e8573d6000803e3d6000fd5b505050506040513d601f19601f8201168201806040525081019061490c919061581e565b6117f5578015614999576040517f7d3e3dbe0000000000000000000000000000000000000000000000000000000081523060048201526001600160a01b03831660248201526daaeb6d7670e522a718067333cd4e90637d3e3dbe906044015b600060405180830381600087803b15801561498557600080fd5b505af11580156121a9573d6000803e3d6000fd5b6001600160a01b03821615614a01576040517fa0af29030000000000000000000000000000000000000000000000000000000081523060048201526001600160a01b03831660248201526daaeb6d7670e522a718067333cd4e9063a0af29039060440161496b565b6040517f4420e4860000000000000000000000000000000000000000000000000000000081523060048201526daaeb6d7670e522a718067333cd4e90634420e4869060240161496b565b6001600160a01b038216614aa15760405162461bcd60e51b815260206004820181905260248201527f4552433732313a206d696e7420746f20746865207a65726f20616464726573736044820152606401610cfa565b6000818152606760205260409020546001600160a01b031615614b065760405162461bcd60e51b815260206004820152601c60248201527f4552433732313a20746f6b656e20616c7265616479206d696e746564000000006044820152606401610cfa565b614b126000838361454a565b6001600160a01b0382166000908152606860205260408120805460019290614b3b908490615a48565b909155505060008181526067602052604080822080547fffffffffffffffffffffffff0000000000000000000000000000000000000000166001600160a01b03861690811790915590518392907fddf252ad1be2c89b69c2b068fc378daa952ba7f163c4a11628f55a4df523b3ef908290a45050565b816001600160a01b0316836001600160a01b03161415614c135760405162461bcd60e51b815260206004820152601960248201527f4552433732313a20617070726f766520746f2063616c6c6572000000000000006044820152606401610cfa565b6001600160a01b038381166000818152606a602090815260408083209487168084529482529182902080547fffffffffffffffffffffffffffffffffffffffffffffffffffffffffffffff001686151590811790915591519182527f17307eab39ab6107e8899845ad3d59bd9653f200f220920489ca2b5937696c31910160405180910390a3505050565b614ca98484846137d5565b614cb584848484614e72565b6111975760405162461bcd60e51b815260206004820152603260248201527f4552433732313a207472616e7366657220746f206e6f6e20455243373231526560448201527f63656976657220696d706c656d656e74657200000000000000000000000000006064820152608401610cfa565b614d308161433e565b6040516001600160a01b038216907fbc7cd75a20ee27fd9adebab32041f755214dbc6bffa90cc0225b39da2e5c2d3b90600090a250565b60606001600160a01b0383163b614de65760405162461bcd60e51b815260206004820152602660248201527f416464726573733a2064656c65676174652063616c6c20746f206e6f6e2d636f60448201527f6e747261637400000000000000000000000000000000000000000000000000006064820152608401610cfa565b600080846001600160a01b031684604051614e019190615b29565b600060405180830381855af49150503d8060008114614e3c576040519150601f19603f3d011682016040523d82523d6000602084013e614e41565b606091505b5091509150614e698282604051806060016040528060278152602001615b9f60279139615019565b95945050505050565b60006001600160a01b0384163b1561501157836001600160a01b031663150b7a02614e9b613269565b8786866040518563ffffffff1660e01b8152600401614ebd9493929190615b45565b6020604051808303816000875af1925050508015614f16575060408051601f3d9081017fffffffffffffffffffffffffffffffffffffffffffffffffffffffffffffffe0168201909252614f1391810190615b81565b60015b614fc6573d808015614f44576040519150601f19603f3d011682016040523d82523d6000602084013e614f49565b606091505b508051614fbe5760405162461bcd60e51b815260206004820152603260248201527f4552433732313a207472616e7366657220746f206e6f6e20455243373231526560448201527f63656976657220696d706c656d656e74657200000000000000000000000000006064820152608401610cfa565b805181602001fd5b7fffffffff00000000000000000000000000000000000000000000000000000000167f150b7a0200000000000000000000000000000000000000000000000000000000149050612273565b506001612273565b60608315615028575081612bdb565b8251156150385782518084602001fd5b8160405162461bcd60e51b8152600401610cfa91906151ac565b82805461505e906157ca565b90600052602060002090601f01602090048101928261508057600085556150c6565b82601f1061509957805160ff19168380011785556150c6565b828001600101855582156150c6579182015b828111156150c65782518255916020019190600101906150ab565b506150d29291506150d6565b5090565b5b808211156150d257600081556001016150d7565b7fffffffff000000000000000000000000000000000000000000000000000000008116811461144a57600080fd5b60006020828403121561512b57600080fd5b8135612bdb816150eb565b60005b83811015615151578181015183820152602001615139565b838111156111975750506000910152565b6000815180845261517a816020860160208601615136565b601f017fffffffffffffffffffffffffffffffffffffffffffffffffffffffffffffffe0169290920160200192915050565b602081526000612bdb6020830184615162565b6000602082840312156151d157600080fd5b5035919050565b80356001600160a01b03811681146151ef57600080fd5b919050565b6000806040838503121561520757600080fd5b615210836151d8565b946020939093013593505050565b60006020828403121561523057600080fd5b612bdb826151d8565b60008060006060848603121561524e57600080fd5b615257846151d8565b9250615265602085016151d8565b9150604084013590509250925092565b6000806040838503121561528857600080fd5b50508035926020909101359150565b7f4e487b7100000000000000000000000000000000000000000000000000000000600052604160045260246000fd5b600082601f8301126152d757600080fd5b813567ffffffffffffffff808211156152f2576152f2615297565b604051601f83017fffffffffffffffffffffffffffffffffffffffffffffffffffffffffffffffe0908116603f0116810190828211818310171561533857615338615297565b8160405283815286602085880101111561535157600080fd5b836020870160208301376000602085830101528094505050505092915050565b6000806040838503121561538457600080fd5b61538d836151d8565b9150602083013567ffffffffffffffff8111156153a957600080fd5b6153b5858286016152c6565b9150509250929050565b600080604083850312156153d257600080fd5b823591506153e2602084016151d8565b90509250929050565b80356bffffffffffffffffffffffff811681146151ef57600080fd5b60008060006060848603121561541c57600080fd5b8335925061542c602085016151d8565b915061543a604085016153eb565b90509250925092565b803567ffffffffffffffff811681146151ef57600080fd5b6000806040838503121561546e57600080fd5b823591506153e260208401615443565b60006020828403121561549057600080fd5b813567ffffffffffffffff8111156154a757600080fd5b612273848285016152c6565b60008083601f8401126154c557600080fd5b50813567ffffffffffffffff8111156154dd57600080fd5b6020830191508360208260051b850101111561128957600080fd5b60008060008060006080868803121561551057600080fd5b853567ffffffffffffffff8082111561552857600080fd5b61553489838a016152c6565b9650602088013591508082111561554a57600080fd5b61555689838a016152c6565b9550604088013591508082111561556c57600080fd5b61557889838a016152c6565b9450606088013591508082111561558e57600080fd5b5061559b888289016154b3565b969995985093965092949392505050565b801515811461144a57600080fd5b600080600080608085870312156155d057600080fd5b843593506155e0602086016151d8565b925060408501356155f0816155ac565b91506155fe60608601615443565b905092959194509250565b60008060008060006080868803121561562157600080fd5b85359450602086013567ffffffffffffffff81111561563f57600080fd5b61564b888289016154b3565b909550935050604086013561565f816155ac565b915061566d60608701615443565b90509295509295909350565b6000806040838503121561568c57600080fd5b615695836151d8565b915060208301356156a5816155ac565b809150509250929050565b600080600080608085870312156156c657600080fd5b6156cf856151d8565b93506156dd602086016151d8565b925060408501359150606085013567ffffffffffffffff81111561570057600080fd5b61570c878288016152c6565b91505092959194509250565b6000806040838503121561572b57600080fd5b615734836151d8565b91506153e2602084016153eb565b6000806040838503121561575557600080fd5b61575e836151d8565b91506153e2602084016151d8565b60008060008060006080868803121561578457600080fd5b853567ffffffffffffffff81111561579b57600080fd5b6157a7888289016154b3565b90965094506157ba9050602087016151d8565b9250604086013561565f816155ac565b600181811c908216806157de57607f821691505b60208210811415615818577f4e487b7100000000000000000000000000000000000000000000000000000000600052602260045260246000fd5b50919050565b60006020828403121561583057600080fd5b8151612bdb816155ac565b8054600090600181811c908083168061585557607f831692505b6020808410821415615890577f4e487b7100000000000000000000000000000000000000000000000000000000600052602260045260246000fd5b8180156158a457600181146158d357615900565b7fffffffffffffffffffffffffffffffffffffffffffffffffffffffffffffff00861689528489019650615900565b60008881526020902060005b868110156158f85781548b8201529085019083016158df565b505084890196505b50505050505092915050565b6000615918828561583b565b8351615928818360208801615136565b01949350505050565b7f4e487b7100000000000000000000000000000000000000000000000000000000600052601160045260246000fd5b6000817fffffffffffffffffffffffffffffffffffffffffffffffffffffffffffffffff048311821515161561599857615998615931565b500290565b7f4e487b7100000000000000000000000000000000000000000000000000000000600052601260045260246000fd5b6000826159db576159db61599d565b500490565b7f4e487b7100000000000000000000000000000000000000000000000000000000600052603260045260246000fd5b60007fffffffffffffffffffffffffffffffffffffffffffffffffffffffffffffffff821415615a4157615a41615931565b5060010190565b60008219821115615a5b57615a5b615931565b500190565b600067ffffffffffffffff80831681851680830382111561592857615928615931565b6000615a8f828661583b565b8451615a9f818360208901615136565b7f2f0000000000000000000000000000000000000000000000000000000000000091019081528351615ad8816001840160208801615136565b0160010195945050505050565b600082821015615af757615af7615931565b500390565b600082615b0b57615b0b61599d565b500690565b600060208284031215615b2257600080fd5b5051919050565b60008251615b3b818460208701615136565b9190910192915050565b60006001600160a01b03808716835280861660208401525083604083015260806060830152615b776080830184615162565b9695505050505050565b600060208284031215615b9357600080fd5b8151612bdb816150eb56fe416464726573733a206c6f772d6c6576656c2064656c65676174652063616c6c206661696c6564a26469706673582212203726d3e44a5e3b22e4f0e182427af6b95c502973d767f8e94316fa9ca4e0b11864736f6c634300080c0033",
  "linkReferences": {},
  "deployedLinkReferences": {}
}