{
  "_format": "hh-sol-artifact-1",
  "contractName": "UVCollectable",
  "sourceName": "contracts/UVCollectable.sol",
  "abi": [
    {
      "inputs": [],
      "stateMutability": "nonpayable",
      "type": "constructor"
    },
    {
      "inputs": [
        {
          "internalType": "address",
          "name": "operator",
          "type": "address"
        }
      ],
      "name": "OperatorNotAllowed",
      "type": "error"
    },
    {
      "anonymous": false,
      "inputs": [
        {
          "indexed": false,
          "internalType": "address",
          "name": "previousAdmin",
          "type": "address"
        },
        {
          "indexed": false,
          "internalType": "address",
          "name": "newAdmin",
          "type": "address"
        }
      ],
      "name": "AdminChanged",
      "type": "event"
    },
    {
      "anonymous": false,
      "inputs": [
        {
          "indexed": false,
          "internalType": "address",
          "name": "admin",
          "type": "address"
        },
        {
          "indexed": false,
          "internalType": "bool",
          "name": "added",
          "type": "bool"
        }
      ],
      "name": "AdminUpdated",
      "type": "event"
    },
    {
      "anonymous": false,
      "inputs": [
        {
          "indexed": true,
          "internalType": "address",
          "name": "owner",
          "type": "address"
        },
        {
          "indexed": true,
          "internalType": "address",
          "name": "approved",
          "type": "address"
        },
        {
          "indexed": true,
          "internalType": "uint256",
          "name": "tokenId",
          "type": "uint256"
        }
      ],
      "name": "Approval",
      "type": "event"
    },
    {
      "anonymous": false,
      "inputs": [
        {
          "indexed": true,
          "internalType": "address",
          "name": "owner",
          "type": "address"
        },
        {
          "indexed": true,
          "internalType": "address",
          "name": "operator",
          "type": "address"
        },
        {
          "indexed": false,
          "internalType": "bool",
          "name": "approved",
          "type": "bool"
        }
      ],
      "name": "ApprovalForAll",
      "type": "event"
    },
    {
      "anonymous": false,
      "inputs": [
        {
          "indexed": true,
          "internalType": "address",
          "name": "beacon",
          "type": "address"
        }
      ],
      "name": "BeaconUpgraded",
      "type": "event"
    },
    {
      "anonymous": false,
      "inputs": [
        {
          "indexed": false,
          "internalType": "uint256",
          "name": "tokenId",
          "type": "uint256"
        }
      ],
      "name": "Frozen",
      "type": "event"
    },
    {
      "anonymous": false,
      "inputs": [
        {
          "indexed": false,
          "internalType": "uint8",
          "name": "version",
          "type": "uint8"
        }
      ],
      "name": "Initialized",
      "type": "event"
    },
    {
      "anonymous": false,
      "inputs": [
        {
          "indexed": true,
          "internalType": "address",
          "name": "previousOwner",
          "type": "address"
        },
        {
          "indexed": true,
          "internalType": "address",
          "name": "newOwner",
          "type": "address"
        }
      ],
      "name": "OwnershipTransferred",
      "type": "event"
    },
    {
      "anonymous": false,
      "inputs": [
        {
          "indexed": false,
          "internalType": "address",
          "name": "account",
          "type": "address"
        }
      ],
      "name": "Paused",
      "type": "event"
    },
    {
      "anonymous": false,
      "inputs": [
        {
          "indexed": true,
          "internalType": "uint256",
          "name": "tokenId",
          "type": "uint256"
        },
        {
          "indexed": false,
          "internalType": "uint64",
          "name": "expiration",
          "type": "uint64"
        }
      ],
      "name": "SubscriptionUpdate",
      "type": "event"
    },
    {
      "anonymous": false,
      "inputs": [
        {
          "indexed": true,
          "internalType": "address",
          "name": "from",
          "type": "address"
        },
        {
          "indexed": true,
          "internalType": "address",
          "name": "to",
          "type": "address"
        },
        {
          "indexed": true,
          "internalType": "uint256",
          "name": "tokenId",
          "type": "uint256"
        }
      ],
      "name": "Transfer",
      "type": "event"
    },
    {
      "anonymous": false,
      "inputs": [
        {
          "indexed": false,
          "internalType": "uint256",
          "name": "tokenId",
          "type": "uint256"
        }
      ],
      "name": "Unfrozen",
      "type": "event"
    },
    {
      "anonymous": false,
      "inputs": [
        {
          "indexed": false,
          "internalType": "address",
          "name": "account",
          "type": "address"
        }
      ],
      "name": "Unpaused",
      "type": "event"
    },
    {
      "anonymous": false,
      "inputs": [
        {
          "indexed": true,
          "internalType": "address",
          "name": "implementation",
          "type": "address"
        }
      ],
      "name": "Upgraded",
      "type": "event"
    },
    {
      "inputs": [
        {
          "internalType": "address",
          "name": "newAdmin",
          "type": "address"
        }
      ],
      "name": "addAdmin",
      "outputs": [],
      "stateMutability": "nonpayable",
      "type": "function"
    },
    {
      "inputs": [
        {
          "internalType": "address",
          "name": "operator",
          "type": "address"
        },
        {
          "internalType": "uint256",
          "name": "tokenId",
          "type": "uint256"
        }
      ],
      "name": "approve",
      "outputs": [],
      "stateMutability": "nonpayable",
      "type": "function"
    },
    {
      "inputs": [
        {
          "internalType": "address",
          "name": "owner",
          "type": "address"
        }
      ],
      "name": "balanceOf",
      "outputs": [
        {
          "internalType": "uint256",
          "name": "",
          "type": "uint256"
        }
      ],
      "stateMutability": "view",
      "type": "function"
    },
    {
      "inputs": [
        {
          "internalType": "uint256",
          "name": "tokenId",
          "type": "uint256"
        }
      ],
      "name": "burn",
      "outputs": [],
      "stateMutability": "nonpayable",
      "type": "function"
    },
    {
      "inputs": [
        {
          "internalType": "uint256",
          "name": "tokenId",
          "type": "uint256"
        }
      ],
      "name": "cancelSubscription",
      "outputs": [],
      "stateMutability": "nonpayable",
      "type": "function"
    },
    {
      "inputs": [
        {
          "internalType": "uint256",
          "name": "collectionId",
          "type": "uint256"
        }
      ],
      "name": "collectionURI",
      "outputs": [
        {
          "internalType": "string",
          "name": "",
          "type": "string"
        }
      ],
      "stateMutability": "view",
      "type": "function"
    },
    {
      "inputs": [],
      "name": "contractURI",
      "outputs": [
        {
          "internalType": "string",
          "name": "",
          "type": "string"
        }
      ],
      "stateMutability": "view",
      "type": "function"
    },
    {
      "inputs": [
        {
          "internalType": "uint256",
          "name": "tokenId",
          "type": "uint256"
        }
      ],
      "name": "expiresAt",
      "outputs": [
        {
          "internalType": "uint64",
          "name": "",
          "type": "uint64"
        }
      ],
      "stateMutability": "view",
      "type": "function"
    },
    {
      "inputs": [
        {
          "internalType": "uint256",
          "name": "tokenId",
          "type": "uint256"
        }
      ],
      "name": "freeze",
      "outputs": [],
      "stateMutability": "nonpayable",
      "type": "function"
    },
    {
      "inputs": [
        {
          "internalType": "uint256",
          "name": "tokenId",
          "type": "uint256"
        }
      ],
      "name": "getApproved",
      "outputs": [
        {
          "internalType": "address",
          "name": "",
          "type": "address"
        }
      ],
      "stateMutability": "view",
      "type": "function"
    },
    {
      "inputs": [],
      "name": "getTrustedForwarder",
      "outputs": [
        {
          "internalType": "address",
          "name": "forwarder",
          "type": "address"
        }
      ],
      "stateMutability": "view",
      "type": "function"
    },
    {
      "inputs": [
        {
          "internalType": "string",
          "name": "__name",
          "type": "string"
        },
        {
          "internalType": "string",
          "name": "__symbol",
          "type": "string"
        },
        {
          "internalType": "string",
          "name": "__contractURI",
          "type": "string"
        },
        {
          "internalType": "address[]",
          "name": "__admins",
          "type": "address[]"
        }
      ],
      "name": "initialize",
      "outputs": [],
      "stateMutability": "nonpayable",
      "type": "function"
    },
    {
      "inputs": [
        {
          "internalType": "address",
          "name": "admin",
          "type": "address"
        }
      ],
      "name": "isAdmin",
      "outputs": [
        {
          "internalType": "bool",
          "name": "",
          "type": "bool"
        }
      ],
      "stateMutability": "view",
      "type": "function"
    },
    {
      "inputs": [
        {
          "internalType": "address",
          "name": "_owner",
          "type": "address"
        },
        {
          "internalType": "address",
          "name": "_operator",
          "type": "address"
        }
      ],
      "name": "isApprovedForAll",
      "outputs": [
        {
          "internalType": "bool",
          "name": "isOperator",
          "type": "bool"
        }
      ],
      "stateMutability": "view",
      "type": "function"
    },
    {
      "inputs": [
        {
          "internalType": "uint256",
          "name": "tokenId",
          "type": "uint256"
        }
      ],
      "name": "isFrozen",
      "outputs": [
        {
          "internalType": "bool",
          "name": "",
          "type": "bool"
        }
      ],
      "stateMutability": "view",
      "type": "function"
    },
    {
      "inputs": [
        {
          "internalType": "uint256",
          "name": "",
          "type": "uint256"
        }
      ],
      "name": "isRenewable",
      "outputs": [
        {
          "internalType": "bool",
          "name": "",
          "type": "bool"
        }
      ],
      "stateMutability": "pure",
      "type": "function"
    },
    {
      "inputs": [
        {
          "internalType": "address",
          "name": "forwarder",
          "type": "address"
        }
      ],
      "name": "isTrustedForwarder",
      "outputs": [
        {
          "internalType": "bool",
          "name": "",
          "type": "bool"
        }
      ],
      "stateMutability": "view",
      "type": "function"
    },
    {
      "inputs": [],
      "name": "lastId",
      "outputs": [
        {
          "internalType": "uint256",
          "name": "",
          "type": "uint256"
        }
      ],
      "stateMutability": "view",
      "type": "function"
    },
    {
      "inputs": [
        {
          "internalType": "uint256",
          "name": "collectionId",
          "type": "uint256"
        },
        {
          "internalType": "address[]",
          "name": "to",
          "type": "address[]"
        },
        {
          "internalType": "bool",
          "name": "frozen",
          "type": "bool"
        },
        {
          "internalType": "uint64",
          "name": "validDuration",
          "type": "uint64"
        }
      ],
      "name": "mintCollectionToManyUsers",
      "outputs": [
        {
          "internalType": "bool",
          "name": "",
          "type": "bool"
        }
      ],
      "stateMutability": "nonpayable",
      "type": "function"
    },
    {
      "inputs": [
        {
          "internalType": "uint256",
          "name": "collectionId",
          "type": "uint256"
        },
        {
          "internalType": "address",
          "name": "to",
          "type": "address"
        },
        {
          "internalType": "bool",
          "name": "frozen",
          "type": "bool"
        },
        {
          "internalType": "uint64",
          "name": "validDuration",
          "type": "uint64"
        }
      ],
      "name": "mintToken",
      "outputs": [
        {
          "internalType": "bool",
          "name": "",
          "type": "bool"
        }
      ],
      "stateMutability": "nonpayable",
      "type": "function"
    },
    {
      "inputs": [
        {
          "internalType": "uint256[]",
          "name": "collectionIds",
          "type": "uint256[]"
        },
        {
          "internalType": "address",
          "name": "to",
          "type": "address"
        },
        {
          "internalType": "bool",
          "name": "frozen",
          "type": "bool"
        },
        {
          "internalType": "uint64",
          "name": "validDuration",
          "type": "uint64"
        }
      ],
      "name": "mintUserToManyCollections",
      "outputs": [
        {
          "internalType": "bool",
          "name": "",
          "type": "bool"
        }
      ],
      "stateMutability": "nonpayable",
      "type": "function"
    },
    {
      "inputs": [],
      "name": "name",
      "outputs": [
        {
          "internalType": "string",
          "name": "",
          "type": "string"
        }
      ],
      "stateMutability": "view",
      "type": "function"
    },
    {
      "inputs": [],
      "name": "owner",
      "outputs": [
        {
          "internalType": "address",
          "name": "",
          "type": "address"
        }
      ],
      "stateMutability": "view",
      "type": "function"
    },
    {
      "inputs": [
        {
          "internalType": "uint256",
          "name": "tokenId",
          "type": "uint256"
        }
      ],
      "name": "ownerOf",
      "outputs": [
        {
          "internalType": "address",
          "name": "",
          "type": "address"
        }
      ],
      "stateMutability": "view",
      "type": "function"
    },
    {
      "inputs": [],
      "name": "pause",
      "outputs": [],
      "stateMutability": "nonpayable",
      "type": "function"
    },
    {
      "inputs": [],
      "name": "paused",
      "outputs": [
        {
          "internalType": "bool",
          "name": "",
          "type": "bool"
        }
      ],
      "stateMutability": "view",
      "type": "function"
    },
    {
      "inputs": [],
      "name": "proxiableUUID",
      "outputs": [
        {
          "internalType": "bytes32",
          "name": "",
          "type": "bytes32"
        }
      ],
      "stateMutability": "view",
      "type": "function"
    },
    {
      "inputs": [
        {
          "internalType": "uint256",
          "name": "tokenId",
          "type": "uint256"
        }
      ],
      "name": "reclaimToken",
      "outputs": [],
      "stateMutability": "nonpayable",
      "type": "function"
    },
    {
      "inputs": [
        {
          "internalType": "address",
          "name": "admin",
          "type": "address"
        }
      ],
      "name": "removeAdmin",
      "outputs": [],
      "stateMutability": "nonpayable",
      "type": "function"
    },
    {
      "inputs": [
        {
          "internalType": "uint256",
          "name": "collectionId",
          "type": "uint256"
        }
      ],
      "name": "removeCollectionRoyalty",
      "outputs": [],
      "stateMutability": "nonpayable",
      "type": "function"
    },
    {
      "inputs": [],
      "name": "removeDefaultRoyalty",
      "outputs": [],
      "stateMutability": "nonpayable",
      "type": "function"
    },
    {
      "inputs": [
        {
          "internalType": "uint256",
          "name": "tokenId",
          "type": "uint256"
        },
        {
          "internalType": "uint64",
          "name": "duration",
          "type": "uint64"
        }
      ],
      "name": "renewSubscription",
      "outputs": [],
      "stateMutability": "nonpayable",
      "type": "function"
    },
    {
      "inputs": [],
      "name": "renounceOwnership",
      "outputs": [],
      "stateMutability": "nonpayable",
      "type": "function"
    },
    {
      "inputs": [
        {
          "internalType": "uint256",
          "name": "_tokenId",
          "type": "uint256"
        },
        {
          "internalType": "uint256",
          "name": "_salePrice",
          "type": "uint256"
        }
      ],
      "name": "royaltyInfo",
      "outputs": [
        {
          "internalType": "address",
          "name": "",
          "type": "address"
        },
        {
          "internalType": "uint256",
          "name": "",
          "type": "uint256"
        }
      ],
      "stateMutability": "view",
      "type": "function"
    },
    {
      "inputs": [
        {
          "internalType": "address",
          "name": "from",
          "type": "address"
        },
        {
          "internalType": "address",
          "name": "to",
          "type": "address"
        },
        {
          "internalType": "uint256",
          "name": "tokenId",
          "type": "uint256"
        }
      ],
      "name": "safeTransferFrom",
      "outputs": [],
      "stateMutability": "nonpayable",
      "type": "function"
    },
    {
      "inputs": [
        {
          "internalType": "address",
          "name": "from",
          "type": "address"
        },
        {
          "internalType": "address",
          "name": "to",
          "type": "address"
        },
        {
          "internalType": "uint256",
          "name": "tokenId",
          "type": "uint256"
        },
        {
          "internalType": "bytes",
          "name": "data",
          "type": "bytes"
        }
      ],
      "name": "safeTransferFrom",
      "outputs": [],
      "stateMutability": "nonpayable",
      "type": "function"
    },
    {
      "inputs": [
        {
          "internalType": "address",
          "name": "operator",
          "type": "address"
        },
        {
          "internalType": "bool",
          "name": "approved",
          "type": "bool"
        }
      ],
      "name": "setApprovalForAll",
      "outputs": [],
      "stateMutability": "nonpayable",
      "type": "function"
    },
    {
      "inputs": [
        {
          "internalType": "uint256",
          "name": "tokenId",
          "type": "uint256"
        },
        {
          "internalType": "uint64",
          "name": "newExpiration",
          "type": "uint64"
        }
      ],
      "name": "setExpiration",
      "outputs": [],
      "stateMutability": "nonpayable",
      "type": "function"
    },
    {
      "inputs": [
        {
          "internalType": "uint256",
          "name": "newLastId",
          "type": "uint256"
        }
      ],
      "name": "setLastId",
      "outputs": [],
      "stateMutability": "nonpayable",
      "type": "function"
    },
    {
      "inputs": [
        {
          "internalType": "address",
          "name": "forwarder",
          "type": "address"
        }
      ],
      "name": "setTurstedForwarder",
      "outputs": [],
      "stateMutability": "nonpayable",
      "type": "function"
    },
    {
      "inputs": [
        {
          "internalType": "bytes4",
          "name": "interfaceId",
          "type": "bytes4"
        }
      ],
      "name": "supportsInterface",
      "outputs": [
        {
          "internalType": "bool",
          "name": "",
          "type": "bool"
        }
      ],
      "stateMutability": "view",
      "type": "function"
    },
    {
      "inputs": [],
      "name": "symbol",
      "outputs": [
        {
          "internalType": "string",
          "name": "",
          "type": "string"
        }
      ],
      "stateMutability": "view",
      "type": "function"
    },
    {
      "inputs": [
        {
          "internalType": "uint256",
          "name": "tokenId",
          "type": "uint256"
        }
      ],
      "name": "tokenCollection",
      "outputs": [
        {
          "internalType": "uint256",
          "name": "",
          "type": "uint256"
        }
      ],
      "stateMutability": "view",
      "type": "function"
    },
    {
      "inputs": [
        {
          "internalType": "uint256",
          "name": "tokenId",
          "type": "uint256"
        }
      ],
      "name": "tokenURI",
      "outputs": [
        {
          "internalType": "string",
          "name": "",
          "type": "string"
        }
      ],
      "stateMutability": "view",
      "type": "function"
    },
    {
      "inputs": [
        {
          "internalType": "address",
          "name": "from",
          "type": "address"
        },
        {
          "internalType": "address",
          "name": "to",
          "type": "address"
        },
        {
          "internalType": "uint256",
          "name": "tokenId",
          "type": "uint256"
        }
      ],
      "name": "transferFrom",
      "outputs": [],
      "stateMutability": "nonpayable",
      "type": "function"
    },
    {
      "inputs": [
        {
          "internalType": "address",
          "name": "newOwner",
          "type": "address"
        }
      ],
      "name": "transferOwnership",
      "outputs": [],
      "stateMutability": "nonpayable",
      "type": "function"
    },
    {
      "inputs": [
        {
          "internalType": "uint256",
          "name": "tokenId",
          "type": "uint256"
        }
      ],
      "name": "unfreeze",
      "outputs": [],
      "stateMutability": "nonpayable",
      "type": "function"
    },
    {
      "inputs": [],
      "name": "unpause",
      "outputs": [],
      "stateMutability": "nonpayable",
      "type": "function"
    },
    {
      "inputs": [
        {
          "internalType": "uint256",
          "name": "collectionId",
          "type": "uint256"
        },
        {
          "internalType": "address",
          "name": "receiver",
          "type": "address"
        },
        {
          "internalType": "uint96",
          "name": "feeNumerator",
          "type": "uint96"
        }
      ],
      "name": "updateCollectionRoyalty",
      "outputs": [],
      "stateMutability": "nonpayable",
      "type": "function"
    },
    {
      "inputs": [
        {
          "internalType": "string",
          "name": "__contractURI",
          "type": "string"
        }
      ],
      "name": "updateContractURI",
      "outputs": [],
      "stateMutability": "nonpayable",
      "type": "function"
    },
    {
      "inputs": [
        {
          "internalType": "address",
          "name": "receiver",
          "type": "address"
        },
        {
          "internalType": "uint96",
          "name": "feeNumerator",
          "type": "uint96"
        }
      ],
      "name": "updateDefaultRoyalty",
      "outputs": [],
      "stateMutability": "nonpayable",
      "type": "function"
    },
    {
      "inputs": [
        {
          "internalType": "address",
          "name": "newImplementation",
          "type": "address"
        }
      ],
      "name": "upgradeTo",
      "outputs": [],
      "stateMutability": "nonpayable",
      "type": "function"
    },
    {
      "inputs": [
        {
          "internalType": "address",
          "name": "newImplementation",
          "type": "address"
        },
        {
          "internalType": "bytes",
          "name": "data",
          "type": "bytes"
        }
      ],
      "name": "upgradeToAndCall",
      "outputs": [],
      "stateMutability": "payable",
      "type": "function"
    }
  ],
  "bytecode": "0x60a0604052306080523480156200001557600080fd5b506200002062000026565b620000e8565b600054610100900460ff1615620000935760405162461bcd60e51b815260206004820152602760248201527f496e697469616c697a61626c653a20636f6e747261637420697320696e697469604482015266616c697a696e6760c81b606482015260840160405180910390fd5b60005460ff9081161015620000e6576000805460ff191660ff9081179091556040519081527f7f26b83ff96e1f2b6a682f133852f6798a09c465da95921460cefb38474024989060200160405180910390a15b565b608051615ac5620001206000396000818161123d015281816112d3015281816115f80152818161168e01526118430152615ac56000f3fe60806040526004361061034a5760003560e01c806370a08231116101bb578063b88d4fde116100f7578063d691e43c11610095578063e8a3d4851161006f578063e8a3d485146109bf578063e985e9c5146109d4578063f2fde38b146109f4578063fb1fcca114610a1457600080fd5b8063d691e43c1461095f578063d7a78db81461097f578063d953e4d41461099f57600080fd5b8063cde317af116100d1578063cde317af146108df578063ce1b815f14610900578063cea0302e1461091f578063d1c332de1461093f57600080fd5b8063b88d4fde14610888578063c1292cc3146108a8578063c87b56dd146108bf57600080fd5b80638da5cb5b1161016457806397ec4fba1161013e57806397ec4fba146108025780639a80c5e314610817578063a089479914610837578063a22cb4651461086857600080fd5b80638da5cb5b146107af5780638e45d62e146107cd57806395d89b41146107ed57600080fd5b80637e5b1e24116101955780637e5b1e241461075a5780638456cb591461077a5780638d2320941461078f57600080fd5b806370a0823114610705578063715018a614610725578063776ce8681461073a57600080fd5b80633659cfe61161028a57806352d1902d116102335780636352211e1161020d5780636352211e146106855780636623fc46146106a55780636a662a3c146106c557806370480275146106e557600080fd5b806352d1902d14610628578063572b6c051461063d5780635c975abb1461066d57600080fd5b806342966c681161026457806342966c68146105d55780634f1ef286146105f5578063508061a21461060857600080fd5b80633659cfe6146105805780633f4ba83a146105a057806342842e0e146105b557600080fd5b806317c95709116102f757806323b872dd116102d157806323b872dd146104b957806324d7806c146104d95780632a55205a146105135780632dd883e81461055257600080fd5b806317c95709146104405780631a27e85f14610479578063212350831461049957600080fd5b8063095ea7b311610328578063095ea7b3146103de5780631771c96c146104005780631785f53c1461042057600080fd5b806301ffc9a71461034f57806306fdde0314610384578063081812fc146103a6575b600080fd5b34801561035b57600080fd5b5061036f61036a366004615006565b610a34565b60405190151581526020015b60405180910390f35b34801561039057600080fd5b50610399610adc565b60405161037b9190615099565b3480156103b257600080fd5b506103c66103c13660046150ac565b610b6e565b6040516001600160a01b03909116815260200161037b565b3480156103ea57600080fd5b506103fe6103f93660046150e1565b610b95565b005b34801561040c57600080fd5b5061039961041b3660046150ac565b610c95565b34801561042c57600080fd5b506103fe61043b36600461510b565b610cca565b34801561044c57600080fd5b5061046061045b3660046150ac565b610dd1565b60405167ffffffffffffffff909116815260200161037b565b34801561048557600080fd5b506103fe6104943660046150ac565b610dfa565b3480156104a557600080fd5b506103fe6104b43660046150ac565b610ee4565b3480156104c557600080fd5b506103fe6104d4366004615126565b610fda565b3480156104e557600080fd5b5061036f6104f436600461510b565b6001600160a01b03166000908152610199602052604090205460ff1690565b34801561051f57600080fd5b5061053361052e366004615162565b611120565b604080516001600160a01b03909316835260208301919091520161037b565b34801561055e57600080fd5b5061057261056d3660046150ac565b611213565b60405190815260200161037b565b34801561058c57600080fd5b506103fe61059b36600461510b565b611232565b3480156105ac57600080fd5b506103fe6113d0565b3480156105c157600080fd5b506103fe6105d0366004615126565b611464565b3480156105e157600080fd5b506103fe6105f03660046150ac565b611561565b6103fe61060336600461525e565b6115ed565b34801561061457600080fd5b506103fe6106233660046150ac565b61177c565b34801561063457600080fd5b50610572611836565b34801561064957600080fd5b5061036f61065836600461510b565b610191546001600160a01b0391821691161490565b34801561067957600080fd5b5060c95460ff1661036f565b34801561069157600080fd5b506103c66106a03660046150ac565b6118fb565b3480156106b157600080fd5b506103fe6106c03660046150ac565b611960565b3480156106d157600080fd5b506103fe6106e03660046152c8565b611a04565b3480156106f157600080fd5b506103fe61070036600461510b565b611a99565b34801561071157600080fd5b5061057261072036600461510b565b611c18565b34801561073157600080fd5b506103fe611cb2565b34801561074657600080fd5b506103fe61075536600461531c565b611cc4565b34801561076657600080fd5b506103fe610775366004615348565b611d61565b34801561078657600080fd5b506103fe611dff565b34801561079b57600080fd5b506103fe6107aa3660046153c2565b611e91565b3480156107bb57600080fd5b5060fb546001600160a01b03166103c6565b3480156107d957600080fd5b5061036f6107e8366004615484565b612087565b3480156107f957600080fd5b50610399612151565b34801561080e57600080fd5b506103fe612160565b34801561082357600080fd5b5061036f6108323660046154d3565b6121f5565b34801561084357600080fd5b5061036f6108523660046150ac565b6000908152610195602052604090205460ff1690565b34801561087457600080fd5b506103fe610883366004615543565b6123b6565b34801561089457600080fd5b506103fe6108a336600461557a565b6124ac565b3480156108b457600080fd5b506105726101935481565b3480156108cb57600080fd5b506103996108da3660046150ac565b6125b7565b3480156108eb57600080fd5b5061036f6108fa3660046150ac565b50600190565b34801561090c57600080fd5b50610191546001600160a01b03166103c6565b34801561092b57600080fd5b506103fe61093a36600461510b565b612604565b34801561094b57600080fd5b506103fe61095a36600461531c565b6126c5565b34801561096b57600080fd5b506103fe61097a3660046155e2565b6127d6565b34801561098b57600080fd5b506103fe61099a3660046150ac565b61286a565b3480156109ab57600080fd5b506103fe6109ba3660046150ac565b6129cd565b3480156109cb57600080fd5b50610399612a69565b3480156109e057600080fd5b5061036f6109ef36600461560c565b612af8565b348015610a0057600080fd5b506103fe610a0f36600461510b565b612b77565b348015610a2057600080fd5b5061036f610a2f366004615636565b612c04565b60007fffffffff0000000000000000000000000000000000000000000000000000000082167f8c65f84d000000000000000000000000000000000000000000000000000000001480610ac757507fffffffff0000000000000000000000000000000000000000000000000000000082167f2a55205a00000000000000000000000000000000000000000000000000000000145b80610ad65750610ad682612d98565b92915050565b606060658054610aeb90615694565b80601f0160208091040260200160405190810160405280929190818152602001828054610b1790615694565b8015610b645780601f10610b3957610100808354040283529160200191610b64565b820191906000526020600020905b815481529060010190602001808311610b4757829003601f168201915b5050505050905090565b6000610b7982612e7b565b506000908152606960205260409020546001600160a01b031690565b816daaeb6d7670e522a718067333cd4e3b15610c86576040517fc61711340000000000000000000000000000000000000000000000000000000081523060048201526001600160a01b03821660248201526daaeb6d7670e522a718067333cd4e9063c617113490604401602060405180830381865afa158015610c1c573d6000803e3d6000fd5b505050506040513d601f19601f82011682018060405250810190610c4091906156e8565b610c86576040517fede71dcc0000000000000000000000000000000000000000000000000000000081526001600160a01b03821660048201526024015b60405180910390fd5b610c908383612edf565b505050565b6060610192610ca38361301e565b604051602001610cb49291906157d6565b6040516020818303038152906040529050919050565b610cd2613150565b6001600160a01b0316610ced60fb546001600160a01b031690565b6001600160a01b03161480610d085750610d086104f4613150565b610d545760405162461bcd60e51b815260206004820152601c60248201527f63616c6c6572206973206e6f74206f776e6572206f722061646d696e000000006044820152606401610c7d565b6001600160a01b03811660008181526101996020908152604080832080547fffffffffffffffffffffffffffffffffffffffffffffffffffffffffffffff001690558051938452908301919091527f235bc17e7930760029e9f4d860a2a8089976de5b381cf8380fc11c1d88a1113391015b60405180910390a150565b6000610ddc82612e7b565b506000908152610198602052604090205467ffffffffffffffff1690565b610e02613150565b6001600160a01b0316610e1d60fb546001600160a01b031690565b6001600160a01b03161480610e385750610e386104f4613150565b610e845760405162461bcd60e51b815260206004820152601c60248201527f63616c6c6572206973206e6f74206f776e6572206f722061646d696e000000006044820152606401610c7d565b610e8c61315f565b806101935410610ede5760405162461bcd60e51b815260206004820152601760248201527f4e65772049642068617320746f206265206869676865720000000000000000006044820152606401610c7d565b61019355565b610eec613150565b6001600160a01b0316610f0760fb546001600160a01b031690565b6001600160a01b03161480610f225750610f226104f4613150565b610f6e5760405162461bcd60e51b815260206004820152601c60248201527f63616c6c6572206973206e6f74206f776e6572206f722061646d696e000000006044820152606401610c7d565b60008181526101986020908152604080832080547fffffffffffffffffffffffffffffffffffffffffffffffff00000000000000001690555191825282917f2ec2be2c4b90c2cf13ecb6751a24daed6bb741ae5ed3f7371aabf9402f6d62e8910160405180910390a250565b826daaeb6d7670e522a718067333cd4e3b1561110f57610ff8613150565b6001600160a01b0316816001600160a01b031614156110215761101c8484846131b2565b61111a565b6daaeb6d7670e522a718067333cd4e63c61711343061103e613150565b6040517fffffffff0000000000000000000000000000000000000000000000000000000060e085901b1681526001600160a01b03928316600482015291166024820152604401602060405180830381865afa1580156110a1573d6000803e3d6000fd5b505050506040513d601f19601f820116820180604052508101906110c591906156e8565b61110f576110d1613150565b6040517fede71dcc0000000000000000000000000000000000000000000000000000000081526001600160a01b039091166004820152602401610c7d565b61111a8484846131b2565b50505050565b600080600061112e85611213565b600081815261019760209081526040918290208251808401909352546001600160a01b038116808452740100000000000000000000000000000000000000009091046bffffffffffffffffffffffff1691830191909152919250906111d4575060408051808201909152610196546001600160a01b03811682527401000000000000000000000000000000000000000090046bffffffffffffffffffffffff1660208201525b6020810151600090612710906111f8906bffffffffffffffffffffffff168861582a565b6112029190615896565b9151945090925050505b9250929050565b600061121e82612e7b565b506000908152610194602052604090205490565b306001600160a01b037f00000000000000000000000000000000000000000000000000000000000000001614156112d15760405162461bcd60e51b815260206004820152602c60248201527f46756e6374696f6e206d7573742062652063616c6c6564207468726f7567682060448201527f64656c656761746563616c6c00000000000000000000000000000000000000006064820152608401610c7d565b7f00000000000000000000000000000000000000000000000000000000000000006001600160a01b031661132c7f360894a13ba1a3210667c828492db98dca3e2076cc3735a920a3ca505d382bbc546001600160a01b031690565b6001600160a01b0316146113a85760405162461bcd60e51b815260206004820152602c60248201527f46756e6374696f6e206d7573742062652063616c6c6564207468726f7567682060448201527f6163746976652070726f787900000000000000000000000000000000000000006064820152608401610c7d565b6113b18161323a565b604080516000808252602082019092526113cd918391906132c4565b50565b6113d8613150565b6001600160a01b03166113f360fb546001600160a01b031690565b6001600160a01b0316148061140e575061140e6104f4613150565b61145a5760405162461bcd60e51b815260206004820152601c60248201527f63616c6c6572206973206e6f74206f776e6572206f722061646d696e000000006044820152606401610c7d565b611462613482565b565b826daaeb6d7670e522a718067333cd4e3b1561155657611482613150565b6001600160a01b0316816001600160a01b031614156114a65761101c8484846134f8565b6daaeb6d7670e522a718067333cd4e63c6171134306114c3613150565b6040517fffffffff0000000000000000000000000000000000000000000000000000000060e085901b1681526001600160a01b03928316600482015291166024820152604401602060405180830381865afa158015611526573d6000803e3d6000fd5b505050506040513d601f19601f8201168201806040525081019061154a91906156e8565b611556576110d1613150565b61111a8484846134f8565b61157261156c613150565b82613513565b6115e45760405162461bcd60e51b815260206004820152602e60248201527f4552433732313a2063616c6c6572206973206e6f7420746f6b656e206f776e6560448201527f72206e6f7220617070726f7665640000000000000000000000000000000000006064820152608401610c7d565b6113cd81613571565b306001600160a01b037f000000000000000000000000000000000000000000000000000000000000000016141561168c5760405162461bcd60e51b815260206004820152602c60248201527f46756e6374696f6e206d7573742062652063616c6c6564207468726f7567682060448201527f64656c656761746563616c6c00000000000000000000000000000000000000006064820152608401610c7d565b7f00000000000000000000000000000000000000000000000000000000000000006001600160a01b03166116e77f360894a13ba1a3210667c828492db98dca3e2076cc3735a920a3ca505d382bbc546001600160a01b031690565b6001600160a01b0316146117635760405162461bcd60e51b815260206004820152602c60248201527f46756e6374696f6e206d7573742062652063616c6c6564207468726f7567682060448201527f6163746976652070726f787900000000000000000000000000000000000000006064820152608401610c7d565b61176c8261323a565b611778828260016132c4565b5050565b611784613150565b6001600160a01b031661179f60fb546001600160a01b031690565b6001600160a01b031614806117ba57506117ba6104f4613150565b6118065760405162461bcd60e51b815260206004820152601c60248201527f63616c6c6572206973206e6f74206f776e6572206f722061646d696e000000006044820152606401610c7d565b61180f816135ed565b61181881613655565b6113cd611824826118fb565b60fb546001600160a01b0316836136bc565b6000306001600160a01b037f000000000000000000000000000000000000000000000000000000000000000016146118d65760405162461bcd60e51b815260206004820152603860248201527f555550535570677261646561626c653a206d757374206e6f742062652063616c60448201527f6c6564207468726f7567682064656c656761746563616c6c00000000000000006064820152608401610c7d565b507f360894a13ba1a3210667c828492db98dca3e2076cc3735a920a3ca505d382bbc90565b6000818152606760205260408120546001600160a01b031680610ad65760405162461bcd60e51b815260206004820152601860248201527f4552433732313a20696e76616c696420746f6b656e20494400000000000000006044820152606401610c7d565b611968613150565b6001600160a01b031661198360fb546001600160a01b031690565b6001600160a01b0316148061199e575061199e6104f4613150565b6119ea5760405162461bcd60e51b815260206004820152601c60248201527f63616c6c6572206973206e6f74206f776e6572206f722061646d696e000000006044820152606401610c7d565b6119f261315f565b6119fb816135ed565b6113cd81613655565b611a0c613150565b6001600160a01b0316611a2760fb546001600160a01b031690565b6001600160a01b03161480611a425750611a426104f4613150565b611a8e5760405162461bcd60e51b815260206004820152601c60248201527f63616c6c6572206973206e6f74206f776e6572206f722061646d696e000000006044820152606401610c7d565b610c908383836138ac565b611aa1613150565b6001600160a01b0316611abc60fb546001600160a01b031690565b6001600160a01b03161480611ad75750611ad76104f4613150565b611b235760405162461bcd60e51b815260206004820152601c60248201527f63616c6c6572206973206e6f74206f776e6572206f722061646d696e000000006044820152606401610c7d565b6001600160a01b038116611b9e5760405162461bcd60e51b8152602060048201526024808201527f4e65772061646d696e2063616e6e6f7420626520746865207a65726f2061646460448201527f72657373000000000000000000000000000000000000000000000000000000006064820152608401610c7d565b6001600160a01b0381166000818152610199602090815260409182902080547fffffffffffffffffffffffffffffffffffffffffffffffffffffffffffffff001660019081179091558251938452908301527f235bc17e7930760029e9f4d860a2a8089976de5b381cf8380fc11c1d88a111339101610dc6565b60006001600160a01b038216611c965760405162461bcd60e51b815260206004820152602960248201527f4552433732313a2061646472657373207a65726f206973206e6f74206120766160448201527f6c6964206f776e657200000000000000000000000000000000000000000000006064820152608401610c7d565b506001600160a01b031660009081526068602052604090205490565b611cba6139e9565b6114626000613a62565b611ccc613150565b6001600160a01b0316611ce760fb546001600160a01b031690565b6001600160a01b03161480611d025750611d026104f4613150565b611d4e5760405162461bcd60e51b815260206004820152601c60248201527f63616c6c6572206973206e6f74206f776e6572206f722061646d696e000000006044820152606401610c7d565b611d5782612e7b565b6117788282613acc565b611d69613150565b6001600160a01b0316611d8460fb546001600160a01b031690565b6001600160a01b03161480611d9f5750611d9f6104f4613150565b611deb5760405162461bcd60e51b815260206004820152601c60248201527f63616c6c6572206973206e6f74206f776e6572206f722061646d696e000000006044820152606401610c7d565b805161177890610192906020840190614f3f565b611e07613150565b6001600160a01b0316611e2260fb546001600160a01b031690565b6001600160a01b03161480611e3d5750611e3d6104f4613150565b611e895760405162461bcd60e51b815260206004820152601c60248201527f63616c6c6572206973206e6f74206f776e6572206f722061646d696e000000006044820152606401610c7d565b611462613b8a565b600054610100900460ff1615808015611eb15750600054600160ff909116105b80611ecb5750303b158015611ecb575060005460ff166001145b611f3d5760405162461bcd60e51b815260206004820152602e60248201527f496e697469616c697a61626c653a20636f6e747261637420697320616c72656160448201527f647920696e697469616c697a65640000000000000000000000000000000000006064820152608401610c7d565b600080547fffffffffffffffffffffffffffffffffffffffffffffffffffffffffffffff001660011790558015611f9b57600080547fffffffffffffffffffffffffffffffffffffffffffffffffffffffffffff00ff166101001790555b611fa58686613be6565b611fad613c6d565b611fb5613cf2565b611fbd613d77565b611fc5613d77565b611fcd613df4565b611fd684611d61565b60005b8281101561201b5761200b848483818110611ff657611ff66158aa565b9050602002016020810190610700919061510b565b612014816158d9565b9050611fd9565b50801561207f57600080547fffffffffffffffffffffffffffffffffffffffffffffffffffffffffffff00ff169055604051600181527f7f26b83ff96e1f2b6a682f133852f6798a09c465da95921460cefb38474024989060200160405180910390a15b505050505050565b600061209161315f565b612099613150565b6001600160a01b03166120b460fb546001600160a01b031690565b6001600160a01b031614806120cf57506120cf6104f4613150565b61211b5760405162461bcd60e51b815260206004820152601c60248201527f63616c6c6572206973206e6f74206f776e6572206f722061646d696e000000006044820152606401610c7d565b6001610193600082825461212f9190615912565b925050819055506121468561019354868686613e90565b90505b949350505050565b606060668054610aeb90615694565b612168613150565b6001600160a01b031661218360fb546001600160a01b031690565b6001600160a01b0316148061219e575061219e6104f4613150565b6121ea5760405162461bcd60e51b815260206004820152601c60248201527f63616c6c6572206973206e6f74206f776e6572206f722061646d696e000000006044820152606401610c7d565b611462600061019655565b60006121ff61315f565b612207613150565b6001600160a01b031661222260fb546001600160a01b031690565b6001600160a01b0316148061223d575061223d6104f4613150565b6122895760405162461bcd60e51b815260206004820152601c60248201527f63616c6c6572206973206e6f74206f776e6572206f722061646d696e000000006044820152606401610c7d565b67ffffffffffffffff821615612325576000806122a6844261592a565b905060005b8681101561231d57806101935460016122c49190615912565b6122ce9190615912565b925061230289848a8a858181106122e7576122e76158aa565b90506020020160208101906122fc919061510b565b89613ee3565b5061230d83836126c5565b612316816158d9565b90506122ab565b50505061238f565b60005b8481101561238d5761237c87826101935460016123459190615912565b61234f9190615912565b888885818110612361576123616158aa565b9050602002016020810190612376919061510b565b87613ee3565b50612386816158d9565b9050612328565b505b8484905061019360008282546123a59190615912565b909155506001979650505050505050565b816daaeb6d7670e522a718067333cd4e3b156124a2576040517fc61711340000000000000000000000000000000000000000000000000000000081523060048201526001600160a01b03821660248201526daaeb6d7670e522a718067333cd4e9063c617113490604401602060405180830381865afa15801561243d573d6000803e3d6000fd5b505050506040513d601f19601f8201168201806040525081019061246191906156e8565b6124a2576040517fede71dcc0000000000000000000000000000000000000000000000000000000081526001600160a01b0382166004820152602401610c7d565b610c908383613f1b565b836daaeb6d7670e522a718067333cd4e3b156125a4576124ca613150565b6001600160a01b0316816001600160a01b031614156124f4576124ef85858585613f2d565b6125b0565b6daaeb6d7670e522a718067333cd4e63c617113430612511613150565b6040517fffffffff0000000000000000000000000000000000000000000000000000000060e085901b1681526001600160a01b03928316600482015291166024820152604401602060405180830381865afa158015612574573d6000803e3d6000fd5b505050506040513d601f19601f8201168201806040525081019061259891906156e8565b6125a4576110d1613150565b6125b085858585613f2d565b5050505050565b606060006125c483611213565b90506101926125d28261301e565b6125db8561301e565b6040516020016125ed9392919061594d565b604051602081830303815290604052915050919050565b61260c613150565b6001600160a01b031661262760fb546001600160a01b031690565b6001600160a01b0316148061264257506126426104f4613150565b61268e5760405162461bcd60e51b815260206004820152601c60248201527f63616c6c6572206973206e6f74206f776e6572206f722061646d696e000000006044820152606401610c7d565b61019180547fffffffffffffffffffffffff0000000000000000000000000000000000000000166001600160a01b03831617905550565b6126cd613150565b6001600160a01b03166126e860fb546001600160a01b031690565b6001600160a01b0316148061270357506127036104f4613150565b61274f5760405162461bcd60e51b815260206004820152601c60248201527f63616c6c6572206973206e6f74206f776e6572206f722061646d696e000000006044820152606401610c7d565b61275882612e7b565b6000828152610198602090815260409182902080547fffffffffffffffffffffffffffffffffffffffffffffffff00000000000000001667ffffffffffffffff8516908117909155915191825283917f2ec2be2c4b90c2cf13ecb6751a24daed6bb741ae5ed3f7371aabf9402f6d62e8910160405180910390a25050565b6127de613150565b6001600160a01b03166127f960fb546001600160a01b031690565b6001600160a01b0316148061281457506128146104f4613150565b6128605760405162461bcd60e51b815260206004820152601c60248201527f63616c6c6572206973206e6f74206f776e6572206f722061646d696e000000006044820152606401610c7d565b6117788282613fbc565b612872613150565b6001600160a01b031661288d60fb546001600160a01b031690565b6001600160a01b031614806128a857506128a86104f4613150565b6128f45760405162461bcd60e51b815260206004820152601c60248201527f63616c6c6572206973206e6f74206f776e6572206f722061646d696e000000006044820152606401610c7d565b6128fc61315f565b6040517fa0894799000000000000000000000000000000000000000000000000000000008152600481018290528190309063a089479990602401602060405180830381865afa158015612953573d6000803e3d6000fd5b505050506040513d601f19601f8201168201806040525081019061297791906156e8565b156129c45760405162461bcd60e51b815260206004820152600f60248201527f546f6b656e2069732066726f7a656e00000000000000000000000000000000006044820152606401610c7d565b611778826140e8565b6129d5613150565b6001600160a01b03166129f060fb546001600160a01b031690565b6001600160a01b03161480612a0b5750612a0b6104f4613150565b612a575760405162461bcd60e51b815260206004820152601c60248201527f63616c6c6572206973206e6f74206f776e6572206f722061646d696e000000006044820152606401610c7d565b60009081526101976020526040812055565b6101928054612a7790615694565b80601f0160208091040260200160405190810160405280929190818152602001828054612aa390615694565b8015612af05780601f10612ac557610100808354040283529160200191612af0565b820191906000526020600020905b815481529060010190602001808311612ad357829003601f168201915b505050505081565b60006001600160a01b0382166e6c3852cbef3e08e8df289169ede5811480612b3957506001600160a01b0382166000908152610199602052604090205460ff165b15612b4657506001610ad6565b6001600160a01b038084166000908152606a602090815260408083209386168352929052205460ff165b9392505050565b612b7f6139e9565b6001600160a01b038116612bfb5760405162461bcd60e51b815260206004820152602660248201527f4f776e61626c653a206e6577206f776e657220697320746865207a65726f206160448201527f64647265737300000000000000000000000000000000000000000000000000006064820152608401610c7d565b6113cd81613a62565b6000612c0e61315f565b612c16613150565b6001600160a01b0316612c3160fb546001600160a01b031690565b6001600160a01b03161480612c4c5750612c4c6104f4613150565b612c985760405162461bcd60e51b815260206004820152601c60248201527f63616c6c6572206973206e6f74206f776e6572206f722061646d696e000000006044820152606401610c7d565b67ffffffffffffffff821615612d2657600080612cb5844261592a565b905060005b87811015612d1e5780610193546001612cd39190615912565b612cdd9190615912565b9250612d03898983818110612cf457612cf46158aa565b90506020020135848989613ee3565b50612d0e83836126c5565b612d17816158d9565b9050612cba565b505050612d82565b60005b85811015612d8057612d6f878783818110612d4657612d466158aa565b9050602002013582610193546001612d5e9190615912565b612d689190615912565b8787613ee3565b50612d79816158d9565b9050612d29565b505b8585905061019360008282546123a59190615912565b60007fffffffff0000000000000000000000000000000000000000000000000000000082167f80ac58cd000000000000000000000000000000000000000000000000000000001480612e2b57507fffffffff0000000000000000000000000000000000000000000000000000000082167f5b5e139f00000000000000000000000000000000000000000000000000000000145b80610ad657507f01ffc9a7000000000000000000000000000000000000000000000000000000007fffffffff00000000000000000000000000000000000000000000000000000000831614610ad6565b6000818152606760205260409020546001600160a01b03166113cd5760405162461bcd60e51b815260206004820152601860248201527f4552433732313a20696e76616c696420746f6b656e20494400000000000000006044820152606401610c7d565b6000612eea826118fb565b9050806001600160a01b0316836001600160a01b03161415612f745760405162461bcd60e51b815260206004820152602160248201527f4552433732313a20617070726f76616c20746f2063757272656e74206f776e6560448201527f72000000000000000000000000000000000000000000000000000000000000006064820152608401610c7d565b806001600160a01b0316612f86613150565b6001600160a01b03161480612fa25750612fa2816109ef613150565b6130145760405162461bcd60e51b815260206004820152603e60248201527f4552433732313a20617070726f76652063616c6c6572206973206e6f7420746f60448201527f6b656e206f776e6572206e6f7220617070726f76656420666f7220616c6c00006064820152608401610c7d565b610c908383614152565b60608161305e57505060408051808201909152600181527f3000000000000000000000000000000000000000000000000000000000000000602082015290565b8160005b81156130885780613072816158d9565b91506130819050600a83615896565b9150613062565b60008167ffffffffffffffff8111156130a3576130a3615184565b6040519080825280601f01601f1916602001820160405280156130cd576020820181803683370190505b5090505b8415612149576130e26001836159af565b91506130ef600a866159c6565b6130fa906030615912565b60f81b81838151811061310f5761310f6158aa565b60200101907effffffffffffffffffffffffffffffffffffffffffffffffffffffffffffff1916908160001a905350613149600a86615896565b94506130d1565b600061315a6141d8565b905090565b60c95460ff16156114625760405162461bcd60e51b815260206004820152601060248201527f5061757361626c653a20706175736564000000000000000000000000000000006044820152606401610c7d565b6131bd61156c613150565b61322f5760405162461bcd60e51b815260206004820152602e60248201527f4552433732313a2063616c6c6572206973206e6f7420746f6b656e206f776e6560448201527f72206e6f7220617070726f7665640000000000000000000000000000000000006064820152608401610c7d565b610c908383836136bc565b613242613150565b6001600160a01b031661325d60fb546001600160a01b031690565b6001600160a01b0316148061327857506132786104f4613150565b6113cd5760405162461bcd60e51b815260206004820152601c60248201527f63616c6c6572206973206e6f74206f776e6572206f722061646d696e000000006044820152606401610c7d565b7f4910fdfa16fed3260ed0e7147f7cc6da11a60208b5b9406d12a635614ffd91435460ff16156132f757610c908361422b565b826001600160a01b03166352d1902d6040518163ffffffff1660e01b8152600401602060405180830381865afa92505050801561336f575060408051601f3d9081017fffffffffffffffffffffffffffffffffffffffffffffffffffffffffffffffe016820190925261336c918101906159da565b60015b6133e15760405162461bcd60e51b815260206004820152602e60248201527f45524331393637557067726164653a206e657720696d706c656d656e7461746960448201527f6f6e206973206e6f7420555550530000000000000000000000000000000000006064820152608401610c7d565b7f360894a13ba1a3210667c828492db98dca3e2076cc3735a920a3ca505d382bbc81146134765760405162461bcd60e51b815260206004820152602960248201527f45524331393637557067726164653a20756e737570706f727465642070726f7860448201527f6961626c655555494400000000000000000000000000000000000000000000006064820152608401610c7d565b50610c90838383614301565b61348a614326565b60c980547fffffffffffffffffffffffffffffffffffffffffffffffffffffffffffffff001690557f5db9ee0a495bf2e6ff9c91a7834c1ba4fdd244a5e8aa4e537bd38aeae4b073aa6134db613150565b6040516001600160a01b03909116815260200160405180910390a1565b610c90838383604051806020016040528060008152506124ac565b60008061351f836118fb565b9050806001600160a01b0316846001600160a01b0316148061354657506135468185612af8565b806121495750836001600160a01b031661355f84610b6e565b6001600160a01b031614949350505050565b61357a81614378565b600090815261019460209081526040808320839055610195825280832080547fffffffffffffffffffffffffffffffffffffffffffffffffffffffffffffff00169055610198909152902080547fffffffffffffffffffffffffffffffffffffffffffffffff0000000000000000169055565b6135f681612e7b565b6000818152610195602052604090205460ff166113cd5760405162461bcd60e51b815260206004820152601360248201527f546f6b656e206973206e6f742066726f7a656e000000000000000000000000006044820152606401610c7d565b600081815261019560205260409081902080547fffffffffffffffffffffffffffffffffffffffffffffffffffffffffffffff00169055517f083eea12772ab70fba01c8212d02f3bc5dc29b8540dcdc84298e5dfa22731b9290610dc69083815260200190565b826001600160a01b03166136cf826118fb565b6001600160a01b03161461374b5760405162461bcd60e51b815260206004820152602560248201527f4552433732313a207472616e736665722066726f6d20696e636f72726563742060448201527f6f776e65720000000000000000000000000000000000000000000000000000006064820152608401610c7d565b6001600160a01b0382166137c65760405162461bcd60e51b8152602060048201526024808201527f4552433732313a207472616e7366657220746f20746865207a65726f2061646460448201527f72657373000000000000000000000000000000000000000000000000000000006064820152608401610c7d565b6137d1838383614437565b6137dc600082614152565b6001600160a01b03831660009081526068602052604081208054600192906138059084906159af565b90915550506001600160a01b0382166000908152606860205260408120805460019290613833908490615912565b909155505060008181526067602052604080822080547fffffffffffffffffffffffff0000000000000000000000000000000000000000166001600160a01b0386811691821790925591518493918716917fddf252ad1be2c89b69c2b068fc378daa952ba7f163c4a11628f55a4df523b3ef91a4505050565b6127106bffffffffffffffffffffffff821611156139325760405162461bcd60e51b815260206004820152602a60248201527f455243323938313a20726f79616c7479206665652077696c6c2065786365656460448201527f2073616c655072696365000000000000000000000000000000000000000000006064820152608401610c7d565b6001600160a01b0382166139885760405162461bcd60e51b815260206004820152601b60248201527f455243323938313a20496e76616c696420706172616d657465727300000000006044820152606401610c7d565b6040805180820182526001600160a01b0393841681526bffffffffffffffffffffffff928316602080830191825260009687526101979052919094209351905190911674010000000000000000000000000000000000000000029116179055565b6139f1613150565b6001600160a01b0316613a0c60fb546001600160a01b031690565b6001600160a01b0316146114625760405162461bcd60e51b815260206004820181905260248201527f4f776e61626c653a2063616c6c6572206973206e6f7420746865206f776e65726044820152606401610c7d565b60fb80546001600160a01b038381167fffffffffffffffffffffffff0000000000000000000000000000000000000000831681179093556040519116919082907f8be0079c531659141344cd1fd0a4f28419497f9722a3daafe3b4186f6b6457e090600090a35050565b6000828152610198602052604081205467ffffffffffffffff169081613afd57613af6834261592a565b9050613b0a565b613b07838361592a565b90505b6000848152610198602090815260409182902080547fffffffffffffffffffffffffffffffffffffffffffffffff00000000000000001667ffffffffffffffff8516908117909155915191825285917f2ec2be2c4b90c2cf13ecb6751a24daed6bb741ae5ed3f7371aabf9402f6d62e8910160405180910390a250505050565b613b9261315f565b60c980547fffffffffffffffffffffffffffffffffffffffffffffffffffffffffffffff001660011790557f62e78cea01bee320cd4e420270b5ea74000d11b0c9f74754ebdbfc544b05a2586134db613150565b600054610100900460ff16613c635760405162461bcd60e51b815260206004820152602b60248201527f496e697469616c697a61626c653a20636f6e7472616374206973206e6f74206960448201527f6e697469616c697a696e670000000000000000000000000000000000000000006064820152608401610c7d565b6117788282614507565b600054610100900460ff16613cea5760405162461bcd60e51b815260206004820152602b60248201527f496e697469616c697a61626c653a20636f6e7472616374206973206e6f74206960448201527f6e697469616c697a696e670000000000000000000000000000000000000000006064820152608401610c7d565b6114626145ab565b600054610100900460ff16613d6f5760405162461bcd60e51b815260206004820152602b60248201527f496e697469616c697a61626c653a20636f6e7472616374206973206e6f74206960448201527f6e697469616c697a696e670000000000000000000000000000000000000000006064820152608401610c7d565b611462614652565b600054610100900460ff166114625760405162461bcd60e51b815260206004820152602b60248201527f496e697469616c697a61626c653a20636f6e7472616374206973206e6f74206960448201527f6e697469616c697a696e670000000000000000000000000000000000000000006064820152608401610c7d565b600054610100900460ff16613e715760405162461bcd60e51b815260206004820152602b60248201527f496e697469616c697a61626c653a20636f6e7472616374206973206e6f74206960448201527f6e697469616c697a696e670000000000000000000000000000000000000000006064820152608401610c7d565b611462733cc6cdda760b79bafa08df41ecfa224f810dceb660016146df565b6000613e9c8486614938565b6000858152610194602052604090208690558215613ebd57613ebd8561286a565b67ffffffffffffffff821615613ed757613ed78583613acc565b50600195945050505050565b6000613eef8385614938565b6000848152610194602052604090208590558115613f1057613f108461286a565b506001949350505050565b611778613f26613150565b8383614a9e565b613f3e613f38613150565b83613513565b613fb05760405162461bcd60e51b815260206004820152602e60248201527f4552433732313a2063616c6c6572206973206e6f7420746f6b656e206f776e6560448201527f72206e6f7220617070726f7665640000000000000000000000000000000000006064820152608401610c7d565b61111a84848484614b8b565b6127106bffffffffffffffffffffffff821611156140425760405162461bcd60e51b815260206004820152602a60248201527f455243323938313a20726f79616c7479206665652077696c6c2065786365656460448201527f2073616c655072696365000000000000000000000000000000000000000000006064820152608401610c7d565b6001600160a01b0382166140985760405162461bcd60e51b815260206004820152601960248201527f455243323938313a20696e76616c6964207265636569766572000000000000006044820152606401610c7d565b604080518082019091526001600160a01b039092168083526bffffffffffffffffffffffff9091166020909201829052740100000000000000000000000000000000000000009091021761019655565b600081815261019560205260409081902080547fffffffffffffffffffffffffffffffffffffffffffffffffffffffffffffff00166001179055517f4d69b51fee53c28bd8b61fe008151577ca65160b5248f6225e74d64fd4cf732890610dc69083815260200190565b600081815260696020526040902080547fffffffffffffffffffffffff0000000000000000000000000000000000000000166001600160a01b038416908117909155819061419f826118fb565b6001600160a01b03167f8c5be1e5ebec7d5bd14f71427d1e84f3dd0314c0f7b2291e5b200ac8c7c3b92560405160405180910390a45050565b6000601436108015906141f65750610191546001600160a01b031633145b1561422657507fffffffffffffffffffffffffffffffffffffffffffffffffffffffffffffffec36013560601c90565b503390565b6001600160a01b0381163b6142a85760405162461bcd60e51b815260206004820152602d60248201527f455243313936373a206e657720696d706c656d656e746174696f6e206973206e60448201527f6f74206120636f6e7472616374000000000000000000000000000000000000006064820152608401610c7d565b7f360894a13ba1a3210667c828492db98dca3e2076cc3735a920a3ca505d382bbc80547fffffffffffffffffffffffff0000000000000000000000000000000000000000166001600160a01b0392909216919091179055565b61430a83614c14565b6000825111806143175750805b15610c905761111a8383614c54565b60c95460ff166114625760405162461bcd60e51b815260206004820152601460248201527f5061757361626c653a206e6f74207061757365640000000000000000000000006044820152606401610c7d565b6000614383826118fb565b905061439181600084614437565b61439c600083614152565b6001600160a01b03811660009081526068602052604081208054600192906143c59084906159af565b909155505060008281526067602052604080822080547fffffffffffffffffffffffff0000000000000000000000000000000000000000169055518391906001600160a01b038416907fddf252ad1be2c89b69c2b068fc378daa952ba7f163c4a11628f55a4df523b3ef908390a45050565b61443f61315f565b6040517fa0894799000000000000000000000000000000000000000000000000000000008152600481018290528190309063a089479990602401602060405180830381865afa158015614496573d6000803e3d6000fd5b505050506040513d601f19601f820116820180604052508101906144ba91906156e8565b1561101c5760405162461bcd60e51b815260206004820152600f60248201527f546f6b656e2069732066726f7a656e00000000000000000000000000000000006044820152606401610c7d565b600054610100900460ff166145845760405162461bcd60e51b815260206004820152602b60248201527f496e697469616c697a61626c653a20636f6e7472616374206973206e6f74206960448201527f6e697469616c697a696e670000000000000000000000000000000000000000006064820152608401610c7d565b8151614597906065906020850190614f3f565b508051610c90906066906020840190614f3f565b600054610100900460ff166146285760405162461bcd60e51b815260206004820152602b60248201527f496e697469616c697a61626c653a20636f6e7472616374206973206e6f74206960448201527f6e697469616c697a696e670000000000000000000000000000000000000000006064820152608401610c7d565b60c980547fffffffffffffffffffffffffffffffffffffffffffffffffffffffffffffff00169055565b600054610100900460ff166146cf5760405162461bcd60e51b815260206004820152602b60248201527f496e697469616c697a61626c653a20636f6e7472616374206973206e6f74206960448201527f6e697469616c697a696e670000000000000000000000000000000000000000006064820152608401610c7d565b6114626146da613150565b613a62565b600054610100900460ff1661475c5760405162461bcd60e51b815260206004820152602b60248201527f496e697469616c697a61626c653a20636f6e7472616374206973206e6f74206960448201527f6e697469616c697a696e670000000000000000000000000000000000000000006064820152608401610c7d565b6daaeb6d7670e522a718067333cd4e3b15611778576040517fc3c5a5470000000000000000000000000000000000000000000000000000000081523060048201526daaeb6d7670e522a718067333cd4e9063c3c5a547906024016020604051808303816000875af11580156147d5573d6000803e3d6000fd5b505050506040513d601f19601f820116820180604052508101906147f991906156e8565b611778578015614886576040517f7d3e3dbe0000000000000000000000000000000000000000000000000000000081523060048201526001600160a01b03831660248201526daaeb6d7670e522a718067333cd4e90637d3e3dbe906044015b600060405180830381600087803b15801561487257600080fd5b505af115801561207f573d6000803e3d6000fd5b6001600160a01b038216156148ee576040517fa0af29030000000000000000000000000000000000000000000000000000000081523060048201526001600160a01b03831660248201526daaeb6d7670e522a718067333cd4e9063a0af290390604401614858565b6040517f4420e4860000000000000000000000000000000000000000000000000000000081523060048201526daaeb6d7670e522a718067333cd4e90634420e48690602401614858565b6001600160a01b03821661498e5760405162461bcd60e51b815260206004820181905260248201527f4552433732313a206d696e7420746f20746865207a65726f20616464726573736044820152606401610c7d565b6000818152606760205260409020546001600160a01b0316156149f35760405162461bcd60e51b815260206004820152601c60248201527f4552433732313a20746f6b656e20616c7265616479206d696e746564000000006044820152606401610c7d565b6149ff60008383614437565b6001600160a01b0382166000908152606860205260408120805460019290614a28908490615912565b909155505060008181526067602052604080822080547fffffffffffffffffffffffff0000000000000000000000000000000000000000166001600160a01b03861690811790915590518392907fddf252ad1be2c89b69c2b068fc378daa952ba7f163c4a11628f55a4df523b3ef908290a45050565b816001600160a01b0316836001600160a01b03161415614b005760405162461bcd60e51b815260206004820152601960248201527f4552433732313a20617070726f766520746f2063616c6c6572000000000000006044820152606401610c7d565b6001600160a01b038381166000818152606a602090815260408083209487168084529482529182902080547fffffffffffffffffffffffffffffffffffffffffffffffffffffffffffffff001686151590811790915591519182527f17307eab39ab6107e8899845ad3d59bd9653f200f220920489ca2b5937696c31910160405180910390a3505050565b614b968484846136bc565b614ba284848484614d5f565b61111a5760405162461bcd60e51b815260206004820152603260248201527f4552433732313a207472616e7366657220746f206e6f6e20455243373231526560448201527f63656976657220696d706c656d656e74657200000000000000000000000000006064820152608401610c7d565b614c1d8161422b565b6040516001600160a01b038216907fbc7cd75a20ee27fd9adebab32041f755214dbc6bffa90cc0225b39da2e5c2d3b90600090a250565b60606001600160a01b0383163b614cd35760405162461bcd60e51b815260206004820152602660248201527f416464726573733a2064656c65676174652063616c6c20746f206e6f6e2d636f60448201527f6e747261637400000000000000000000000000000000000000000000000000006064820152608401610c7d565b600080846001600160a01b031684604051614cee91906159f3565b600060405180830381855af49150503d8060008114614d29576040519150601f19603f3d011682016040523d82523d6000602084013e614d2e565b606091505b5091509150614d568282604051806060016040528060278152602001615a6960279139614f06565b95945050505050565b60006001600160a01b0384163b15614efe57836001600160a01b031663150b7a02614d88613150565b8786866040518563ffffffff1660e01b8152600401614daa9493929190615a0f565b6020604051808303816000875af1925050508015614e03575060408051601f3d9081017fffffffffffffffffffffffffffffffffffffffffffffffffffffffffffffffe0168201909252614e0091810190615a4b565b60015b614eb3573d808015614e31576040519150601f19603f3d011682016040523d82523d6000602084013e614e36565b606091505b508051614eab5760405162461bcd60e51b815260206004820152603260248201527f4552433732313a207472616e7366657220746f206e6f6e20455243373231526560448201527f63656976657220696d706c656d656e74657200000000000000000000000000006064820152608401610c7d565b805181602001fd5b7fffffffff00000000000000000000000000000000000000000000000000000000167f150b7a0200000000000000000000000000000000000000000000000000000000149050612149565b506001612149565b60608315614f15575081612b70565b825115614f255782518084602001fd5b8160405162461bcd60e51b8152600401610c7d9190615099565b828054614f4b90615694565b90600052602060002090601f016020900481019282614f6d5760008555614fb3565b82601f10614f8657805160ff1916838001178555614fb3565b82800160010185558215614fb3579182015b82811115614fb3578251825591602001919060010190614f98565b50614fbf929150614fc3565b5090565b5b80821115614fbf5760008155600101614fc4565b7fffffffff00000000000000000000000000000000000000000000000000000000811681146113cd57600080fd5b60006020828403121561501857600080fd5b8135612b7081614fd8565b60005b8381101561503e578181015183820152602001615026565b8381111561111a5750506000910152565b60008151808452615067816020860160208601615023565b601f017fffffffffffffffffffffffffffffffffffffffffffffffffffffffffffffffe0169290920160200192915050565b602081526000612b70602083018461504f565b6000602082840312156150be57600080fd5b5035919050565b80356001600160a01b03811681146150dc57600080fd5b919050565b600080604083850312156150f457600080fd5b6150fd836150c5565b946020939093013593505050565b60006020828403121561511d57600080fd5b612b70826150c5565b60008060006060848603121561513b57600080fd5b615144846150c5565b9250615152602085016150c5565b9150604084013590509250925092565b6000806040838503121561517557600080fd5b50508035926020909101359150565b7f4e487b7100000000000000000000000000000000000000000000000000000000600052604160045260246000fd5b600082601f8301126151c457600080fd5b813567ffffffffffffffff808211156151df576151df615184565b604051601f83017fffffffffffffffffffffffffffffffffffffffffffffffffffffffffffffffe0908116603f0116810190828211818310171561522557615225615184565b8160405283815286602085880101111561523e57600080fd5b836020870160208301376000602085830101528094505050505092915050565b6000806040838503121561527157600080fd5b61527a836150c5565b9150602083013567ffffffffffffffff81111561529657600080fd5b6152a2858286016151b3565b9150509250929050565b80356bffffffffffffffffffffffff811681146150dc57600080fd5b6000806000606084860312156152dd57600080fd5b833592506152ed602085016150c5565b91506152fb604085016152ac565b90509250925092565b803567ffffffffffffffff811681146150dc57600080fd5b6000806040838503121561532f57600080fd5b8235915061533f60208401615304565b90509250929050565b60006020828403121561535a57600080fd5b813567ffffffffffffffff81111561537157600080fd5b612149848285016151b3565b60008083601f84011261538f57600080fd5b50813567ffffffffffffffff8111156153a757600080fd5b6020830191508360208260051b850101111561120c57600080fd5b6000806000806000608086880312156153da57600080fd5b853567ffffffffffffffff808211156153f257600080fd5b6153fe89838a016151b3565b9650602088013591508082111561541457600080fd5b61542089838a016151b3565b9550604088013591508082111561543657600080fd5b61544289838a016151b3565b9450606088013591508082111561545857600080fd5b506154658882890161537d565b969995985093965092949392505050565b80151581146113cd57600080fd5b6000806000806080858703121561549a57600080fd5b843593506154aa602086016150c5565b925060408501356154ba81615476565b91506154c860608601615304565b905092959194509250565b6000806000806000608086880312156154eb57600080fd5b85359450602086013567ffffffffffffffff81111561550957600080fd5b6155158882890161537d565b909550935050604086013561552981615476565b915061553760608701615304565b90509295509295909350565b6000806040838503121561555657600080fd5b61555f836150c5565b9150602083013561556f81615476565b809150509250929050565b6000806000806080858703121561559057600080fd5b615599856150c5565b93506155a7602086016150c5565b925060408501359150606085013567ffffffffffffffff8111156155ca57600080fd5b6155d6878288016151b3565b91505092959194509250565b600080604083850312156155f557600080fd5b6155fe836150c5565b915061533f602084016152ac565b6000806040838503121561561f57600080fd5b615628836150c5565b915061533f602084016150c5565b60008060008060006080868803121561564e57600080fd5b853567ffffffffffffffff81111561566557600080fd5b6156718882890161537d565b90965094506156849050602087016150c5565b9250604086013561552981615476565b600181811c908216806156a857607f821691505b602082108114156156e2577f4e487b7100000000000000000000000000000000000000000000000000000000600052602260045260246000fd5b50919050565b6000602082840312156156fa57600080fd5b8151612b7081615476565b8054600090600181811c908083168061571f57607f831692505b602080841082141561575a577f4e487b7100000000000000000000000000000000000000000000000000000000600052602260045260246000fd5b81801561576e576001811461579d576157ca565b7fffffffffffffffffffffffffffffffffffffffffffffffffffffffffffffff008616895284890196506157ca565b60008881526020902060005b868110156157c25781548b8201529085019083016157a9565b505084890196505b50505050505092915050565b60006157e28285615705565b83516157f2818360208801615023565b01949350505050565b7f4e487b7100000000000000000000000000000000000000000000000000000000600052601160045260246000fd5b6000817fffffffffffffffffffffffffffffffffffffffffffffffffffffffffffffffff0483118215151615615862576158626157fb565b500290565b7f4e487b7100000000000000000000000000000000000000000000000000000000600052601260045260246000fd5b6000826158a5576158a5615867565b500490565b7f4e487b7100000000000000000000000000000000000000000000000000000000600052603260045260246000fd5b60007fffffffffffffffffffffffffffffffffffffffffffffffffffffffffffffffff82141561590b5761590b6157fb565b5060010190565b60008219821115615925576159256157fb565b500190565b600067ffffffffffffffff8083168185168083038211156157f2576157f26157fb565b60006159598286615705565b8451615969818360208901615023565b7f2f00000000000000000000000000000000000000000000000000000000000000910190815283516159a2816001840160208801615023565b0160010195945050505050565b6000828210156159c1576159c16157fb565b500390565b6000826159d5576159d5615867565b500690565b6000602082840312156159ec57600080fd5b5051919050565b60008251615a05818460208701615023565b9190910192915050565b60006001600160a01b03808716835280861660208401525083604083015260806060830152615a41608083018461504f565b9695505050505050565b600060208284031215615a5d57600080fd5b8151612b7081614fd856fe416464726573733a206c6f772d6c6576656c2064656c65676174652063616c6c206661696c6564a26469706673582212209506e7b30ac6e2d43e2ec75ac04d92845975584a5feed00488aa09ede4e7c43364736f6c634300080c0033",
  "linkReferences": {},
  "deployedLinkReferences": {}
}