{
  "_format": "hh-sol-artifact-1",
  "contractName": "UVCollectable",
  "sourceName": "contracts/UVCollectable.sol",
  "abi": [
    {
      "inputs": [],
      "stateMutability": "nonpayable",
      "type": "constructor"
    },
    {
      "anonymous": false,
      "inputs": [
        {
          "indexed": false,
          "internalType": "address",
          "name": "previousAdmin",
          "type": "address"
        },
        {
          "indexed": false,
          "internalType": "address",
          "name": "newAdmin",
          "type": "address"
        }
      ],
      "name": "AdminChanged",
      "type": "event"
    },
    {
      "anonymous": false,
      "inputs": [
        {
          "indexed": false,
          "internalType": "address",
          "name": "admin",
          "type": "address"
        },
        {
          "indexed": false,
          "internalType": "bool",
          "name": "added",
          "type": "bool"
        }
      ],
      "name": "AdminUpdated",
      "type": "event"
    },
    {
      "anonymous": false,
      "inputs": [
        {
          "indexed": true,
          "internalType": "address",
          "name": "owner",
          "type": "address"
        },
        {
          "indexed": true,
          "internalType": "address",
          "name": "approved",
          "type": "address"
        },
        {
          "indexed": true,
          "internalType": "uint256",
          "name": "tokenId",
          "type": "uint256"
        }
      ],
      "name": "Approval",
      "type": "event"
    },
    {
      "anonymous": false,
      "inputs": [
        {
          "indexed": true,
          "internalType": "address",
          "name": "owner",
          "type": "address"
        },
        {
          "indexed": true,
          "internalType": "address",
          "name": "operator",
          "type": "address"
        },
        {
          "indexed": false,
          "internalType": "bool",
          "name": "approved",
          "type": "bool"
        }
      ],
      "name": "ApprovalForAll",
      "type": "event"
    },
    {
      "anonymous": false,
      "inputs": [
        {
          "indexed": true,
          "internalType": "address",
          "name": "beacon",
          "type": "address"
        }
      ],
      "name": "BeaconUpgraded",
      "type": "event"
    },
    {
      "anonymous": false,
      "inputs": [
        {
          "indexed": false,
          "internalType": "uint256",
          "name": "tokenId",
          "type": "uint256"
        }
      ],
      "name": "Frozen",
      "type": "event"
    },
    {
      "anonymous": false,
      "inputs": [
        {
          "indexed": false,
          "internalType": "uint8",
          "name": "version",
          "type": "uint8"
        }
      ],
      "name": "Initialized",
      "type": "event"
    },
    {
      "anonymous": false,
      "inputs": [
        {
          "indexed": true,
          "internalType": "address",
          "name": "previousOwner",
          "type": "address"
        },
        {
          "indexed": true,
          "internalType": "address",
          "name": "newOwner",
          "type": "address"
        }
      ],
      "name": "OwnershipTransferred",
      "type": "event"
    },
    {
      "anonymous": false,
      "inputs": [
        {
          "indexed": false,
          "internalType": "address",
          "name": "account",
          "type": "address"
        }
      ],
      "name": "Paused",
      "type": "event"
    },
    {
      "anonymous": false,
      "inputs": [
        {
          "indexed": true,
          "internalType": "uint256",
          "name": "tokenId",
          "type": "uint256"
        },
        {
          "indexed": false,
          "internalType": "uint64",
          "name": "expiration",
          "type": "uint64"
        }
      ],
      "name": "SubscriptionUpdate",
      "type": "event"
    },
    {
      "anonymous": false,
      "inputs": [
        {
          "indexed": true,
          "internalType": "address",
          "name": "from",
          "type": "address"
        },
        {
          "indexed": true,
          "internalType": "address",
          "name": "to",
          "type": "address"
        },
        {
          "indexed": true,
          "internalType": "uint256",
          "name": "tokenId",
          "type": "uint256"
        }
      ],
      "name": "Transfer",
      "type": "event"
    },
    {
      "anonymous": false,
      "inputs": [
        {
          "indexed": false,
          "internalType": "uint256",
          "name": "tokenId",
          "type": "uint256"
        }
      ],
      "name": "Unfrozen",
      "type": "event"
    },
    {
      "anonymous": false,
      "inputs": [
        {
          "indexed": false,
          "internalType": "address",
          "name": "account",
          "type": "address"
        }
      ],
      "name": "Unpaused",
      "type": "event"
    },
    {
      "anonymous": false,
      "inputs": [
        {
          "indexed": true,
          "internalType": "address",
          "name": "implementation",
          "type": "address"
        }
      ],
      "name": "Upgraded",
      "type": "event"
    },
    {
      "inputs": [
        {
          "internalType": "address",
          "name": "newAdmin",
          "type": "address"
        }
      ],
      "name": "addAdmin",
      "outputs": [],
      "stateMutability": "nonpayable",
      "type": "function"
    },
    {
      "inputs": [
        {
          "internalType": "address",
          "name": "to",
          "type": "address"
        },
        {
          "internalType": "uint256",
          "name": "tokenId",
          "type": "uint256"
        }
      ],
      "name": "approve",
      "outputs": [],
      "stateMutability": "nonpayable",
      "type": "function"
    },
    {
      "inputs": [
        {
          "internalType": "address",
          "name": "owner",
          "type": "address"
        }
      ],
      "name": "balanceOf",
      "outputs": [
        {
          "internalType": "uint256",
          "name": "",
          "type": "uint256"
        }
      ],
      "stateMutability": "view",
      "type": "function"
    },
    {
      "inputs": [
        {
          "internalType": "uint256",
          "name": "tokenId",
          "type": "uint256"
        }
      ],
      "name": "burn",
      "outputs": [],
      "stateMutability": "nonpayable",
      "type": "function"
    },
    {
      "inputs": [
        {
          "internalType": "uint256",
          "name": "tokenId",
          "type": "uint256"
        }
      ],
      "name": "cancelSubscription",
      "outputs": [],
      "stateMutability": "nonpayable",
      "type": "function"
    },
    {
      "inputs": [
        {
          "internalType": "uint256",
          "name": "collectionId",
          "type": "uint256"
        }
      ],
      "name": "collectionURI",
      "outputs": [
        {
          "internalType": "string",
          "name": "",
          "type": "string"
        }
      ],
      "stateMutability": "view",
      "type": "function"
    },
    {
      "inputs": [],
      "name": "contractURI",
      "outputs": [
        {
          "internalType": "string",
          "name": "",
          "type": "string"
        }
      ],
      "stateMutability": "view",
      "type": "function"
    },
    {
      "inputs": [
        {
          "internalType": "uint256",
          "name": "tokenId",
          "type": "uint256"
        }
      ],
      "name": "expireSubscription",
      "outputs": [],
      "stateMutability": "nonpayable",
      "type": "function"
    },
    {
      "inputs": [
        {
          "internalType": "uint256",
          "name": "tokenId",
          "type": "uint256"
        }
      ],
      "name": "expiresAt",
      "outputs": [
        {
          "internalType": "uint64",
          "name": "",
          "type": "uint64"
        }
      ],
      "stateMutability": "view",
      "type": "function"
    },
    {
      "inputs": [
        {
          "internalType": "uint256",
          "name": "tokenId",
          "type": "uint256"
        }
      ],
      "name": "freeze",
      "outputs": [],
      "stateMutability": "nonpayable",
      "type": "function"
    },
    {
      "inputs": [
        {
          "internalType": "uint256",
          "name": "tokenId",
          "type": "uint256"
        }
      ],
      "name": "getApproved",
      "outputs": [
        {
          "internalType": "address",
          "name": "",
          "type": "address"
        }
      ],
      "stateMutability": "view",
      "type": "function"
    },
    {
      "inputs": [],
      "name": "getTrustedForwarder",
      "outputs": [
        {
          "internalType": "address",
          "name": "forwarder",
          "type": "address"
        }
      ],
      "stateMutability": "view",
      "type": "function"
    },
    {
      "inputs": [
        {
          "internalType": "string",
          "name": "__name",
          "type": "string"
        },
        {
          "internalType": "string",
          "name": "__symbol",
          "type": "string"
        },
        {
          "internalType": "address[]",
          "name": "__admins",
          "type": "address[]"
        }
      ],
      "name": "initialize",
      "outputs": [],
      "stateMutability": "nonpayable",
      "type": "function"
    },
    {
      "inputs": [
        {
          "internalType": "address",
          "name": "user",
          "type": "address"
        }
      ],
      "name": "isAdmin",
      "outputs": [
        {
          "internalType": "bool",
          "name": "",
          "type": "bool"
        }
      ],
      "stateMutability": "view",
      "type": "function"
    },
    {
      "inputs": [
        {
          "internalType": "address",
          "name": "_owner",
          "type": "address"
        },
        {
          "internalType": "address",
          "name": "_operator",
          "type": "address"
        }
      ],
      "name": "isApprovedForAll",
      "outputs": [
        {
          "internalType": "bool",
          "name": "isOperator",
          "type": "bool"
        }
      ],
      "stateMutability": "view",
      "type": "function"
    },
    {
      "inputs": [
        {
          "internalType": "uint256",
          "name": "tokenId",
          "type": "uint256"
        }
      ],
      "name": "isFrozen",
      "outputs": [
        {
          "internalType": "bool",
          "name": "",
          "type": "bool"
        }
      ],
      "stateMutability": "view",
      "type": "function"
    },
    {
      "inputs": [
        {
          "internalType": "uint256",
          "name": "",
          "type": "uint256"
        }
      ],
      "name": "isRenewable",
      "outputs": [
        {
          "internalType": "bool",
          "name": "",
          "type": "bool"
        }
      ],
      "stateMutability": "pure",
      "type": "function"
    },
    {
      "inputs": [
        {
          "internalType": "address",
          "name": "forwarder",
          "type": "address"
        }
      ],
      "name": "isTrustedForwarder",
      "outputs": [
        {
          "internalType": "bool",
          "name": "",
          "type": "bool"
        }
      ],
      "stateMutability": "view",
      "type": "function"
    },
    {
      "inputs": [],
      "name": "lastId",
      "outputs": [
        {
          "internalType": "uint256",
          "name": "",
          "type": "uint256"
        }
      ],
      "stateMutability": "view",
      "type": "function"
    },
    {
      "inputs": [
        {
          "internalType": "uint256",
          "name": "collectionId",
          "type": "uint256"
        },
        {
          "internalType": "address[]",
          "name": "to",
          "type": "address[]"
        },
        {
          "internalType": "bool",
          "name": "frozen",
          "type": "bool"
        },
        {
          "internalType": "uint64",
          "name": "validDuration",
          "type": "uint64"
        }
      ],
      "name": "mintCollectionToManyUsers",
      "outputs": [
        {
          "internalType": "bool",
          "name": "",
          "type": "bool"
        }
      ],
      "stateMutability": "nonpayable",
      "type": "function"
    },
    {
      "inputs": [
        {
          "internalType": "uint256",
          "name": "collectionId",
          "type": "uint256"
        },
        {
          "internalType": "address",
          "name": "to",
          "type": "address"
        },
        {
          "internalType": "bool",
          "name": "frozen",
          "type": "bool"
        },
        {
          "internalType": "uint64",
          "name": "validDuration",
          "type": "uint64"
        }
      ],
      "name": "mintToken",
      "outputs": [
        {
          "internalType": "bool",
          "name": "",
          "type": "bool"
        }
      ],
      "stateMutability": "nonpayable",
      "type": "function"
    },
    {
      "inputs": [
        {
          "internalType": "uint256[]",
          "name": "collectionIds",
          "type": "uint256[]"
        },
        {
          "internalType": "address",
          "name": "to",
          "type": "address"
        },
        {
          "internalType": "bool",
          "name": "frozen",
          "type": "bool"
        },
        {
          "internalType": "uint64",
          "name": "validDuration",
          "type": "uint64"
        }
      ],
      "name": "mintUserToManyCollections",
      "outputs": [
        {
          "internalType": "bool",
          "name": "",
          "type": "bool"
        }
      ],
      "stateMutability": "nonpayable",
      "type": "function"
    },
    {
      "inputs": [],
      "name": "name",
      "outputs": [
        {
          "internalType": "string",
          "name": "",
          "type": "string"
        }
      ],
      "stateMutability": "view",
      "type": "function"
    },
    {
      "inputs": [],
      "name": "owner",
      "outputs": [
        {
          "internalType": "address",
          "name": "",
          "type": "address"
        }
      ],
      "stateMutability": "view",
      "type": "function"
    },
    {
      "inputs": [
        {
          "internalType": "uint256",
          "name": "tokenId",
          "type": "uint256"
        }
      ],
      "name": "ownerOf",
      "outputs": [
        {
          "internalType": "address",
          "name": "",
          "type": "address"
        }
      ],
      "stateMutability": "view",
      "type": "function"
    },
    {
      "inputs": [],
      "name": "pause",
      "outputs": [],
      "stateMutability": "nonpayable",
      "type": "function"
    },
    {
      "inputs": [],
      "name": "paused",
      "outputs": [
        {
          "internalType": "bool",
          "name": "",
          "type": "bool"
        }
      ],
      "stateMutability": "view",
      "type": "function"
    },
    {
      "inputs": [],
      "name": "proxiableUUID",
      "outputs": [
        {
          "internalType": "bytes32",
          "name": "",
          "type": "bytes32"
        }
      ],
      "stateMutability": "view",
      "type": "function"
    },
    {
      "inputs": [
        {
          "internalType": "uint256",
          "name": "tokenId",
          "type": "uint256"
        }
      ],
      "name": "reclaimToken",
      "outputs": [],
      "stateMutability": "nonpayable",
      "type": "function"
    },
    {
      "inputs": [
        {
          "internalType": "address",
          "name": "admin",
          "type": "address"
        }
      ],
      "name": "removeAdmin",
      "outputs": [],
      "stateMutability": "nonpayable",
      "type": "function"
    },
    {
      "inputs": [
        {
          "internalType": "uint256",
          "name": "collectionId",
          "type": "uint256"
        }
      ],
      "name": "removeCollectionRoyalty",
      "outputs": [],
      "stateMutability": "nonpayable",
      "type": "function"
    },
    {
      "inputs": [],
      "name": "removeDefaultRoyalty",
      "outputs": [],
      "stateMutability": "nonpayable",
      "type": "function"
    },
    {
      "inputs": [
        {
          "internalType": "uint256",
          "name": "tokenId",
          "type": "uint256"
        },
        {
          "internalType": "uint64",
          "name": "duration",
          "type": "uint64"
        }
      ],
      "name": "renewSubscription",
      "outputs": [],
      "stateMutability": "nonpayable",
      "type": "function"
    },
    {
      "inputs": [],
      "name": "renounceOwnership",
      "outputs": [],
      "stateMutability": "nonpayable",
      "type": "function"
    },
    {
      "inputs": [
        {
          "internalType": "uint256",
          "name": "_tokenId",
          "type": "uint256"
        },
        {
          "internalType": "uint256",
          "name": "_salePrice",
          "type": "uint256"
        }
      ],
      "name": "royaltyInfo",
      "outputs": [
        {
          "internalType": "address",
          "name": "",
          "type": "address"
        },
        {
          "internalType": "uint256",
          "name": "",
          "type": "uint256"
        }
      ],
      "stateMutability": "view",
      "type": "function"
    },
    {
      "inputs": [
        {
          "internalType": "address",
          "name": "from",
          "type": "address"
        },
        {
          "internalType": "address",
          "name": "to",
          "type": "address"
        },
        {
          "internalType": "uint256",
          "name": "tokenId",
          "type": "uint256"
        }
      ],
      "name": "safeTransferFrom",
      "outputs": [],
      "stateMutability": "nonpayable",
      "type": "function"
    },
    {
      "inputs": [
        {
          "internalType": "address",
          "name": "from",
          "type": "address"
        },
        {
          "internalType": "address",
          "name": "to",
          "type": "address"
        },
        {
          "internalType": "uint256",
          "name": "tokenId",
          "type": "uint256"
        },
        {
          "internalType": "bytes",
          "name": "data",
          "type": "bytes"
        }
      ],
      "name": "safeTransferFrom",
      "outputs": [],
      "stateMutability": "nonpayable",
      "type": "function"
    },
    {
      "inputs": [
        {
          "internalType": "address",
          "name": "operator",
          "type": "address"
        },
        {
          "internalType": "bool",
          "name": "approved",
          "type": "bool"
        }
      ],
      "name": "setApprovalForAll",
      "outputs": [],
      "stateMutability": "nonpayable",
      "type": "function"
    },
    {
      "inputs": [
        {
          "internalType": "uint256",
          "name": "tokenId",
          "type": "uint256"
        },
        {
          "internalType": "uint64",
          "name": "newExpiration",
          "type": "uint64"
        }
      ],
      "name": "setExpiration",
      "outputs": [],
      "stateMutability": "nonpayable",
      "type": "function"
    },
    {
      "inputs": [
        {
          "internalType": "uint256",
          "name": "newLastId",
          "type": "uint256"
        }
      ],
      "name": "setLastId",
      "outputs": [],
      "stateMutability": "nonpayable",
      "type": "function"
    },
    {
      "inputs": [
        {
          "internalType": "address",
          "name": "forwarder",
          "type": "address"
        }
      ],
      "name": "setTurstedForwarder",
      "outputs": [],
      "stateMutability": "nonpayable",
      "type": "function"
    },
    {
      "inputs": [
        {
          "internalType": "bytes4",
          "name": "interfaceId",
          "type": "bytes4"
        }
      ],
      "name": "supportsInterface",
      "outputs": [
        {
          "internalType": "bool",
          "name": "",
          "type": "bool"
        }
      ],
      "stateMutability": "view",
      "type": "function"
    },
    {
      "inputs": [],
      "name": "symbol",
      "outputs": [
        {
          "internalType": "string",
          "name": "",
          "type": "string"
        }
      ],
      "stateMutability": "view",
      "type": "function"
    },
    {
      "inputs": [
        {
          "internalType": "uint256",
          "name": "tokenId",
          "type": "uint256"
        }
      ],
      "name": "tokenCollection",
      "outputs": [
        {
          "internalType": "uint256",
          "name": "",
          "type": "uint256"
        }
      ],
      "stateMutability": "view",
      "type": "function"
    },
    {
      "inputs": [
        {
          "internalType": "uint256",
          "name": "tokenId",
          "type": "uint256"
        }
      ],
      "name": "tokenURI",
      "outputs": [
        {
          "internalType": "string",
          "name": "",
          "type": "string"
        }
      ],
      "stateMutability": "view",
      "type": "function"
    },
    {
      "inputs": [
        {
          "internalType": "address",
          "name": "from",
          "type": "address"
        },
        {
          "internalType": "address",
          "name": "to",
          "type": "address"
        },
        {
          "internalType": "uint256",
          "name": "tokenId",
          "type": "uint256"
        }
      ],
      "name": "transferFrom",
      "outputs": [],
      "stateMutability": "nonpayable",
      "type": "function"
    },
    {
      "inputs": [
        {
          "internalType": "address",
          "name": "newOwner",
          "type": "address"
        }
      ],
      "name": "transferOwnership",
      "outputs": [],
      "stateMutability": "nonpayable",
      "type": "function"
    },
    {
      "inputs": [
        {
          "internalType": "uint256",
          "name": "tokenId",
          "type": "uint256"
        }
      ],
      "name": "unfreeze",
      "outputs": [],
      "stateMutability": "nonpayable",
      "type": "function"
    },
    {
      "inputs": [],
      "name": "unpause",
      "outputs": [],
      "stateMutability": "nonpayable",
      "type": "function"
    },
    {
      "inputs": [
        {
          "internalType": "uint256",
          "name": "collectionId",
          "type": "uint256"
        },
        {
          "internalType": "address",
          "name": "receiver",
          "type": "address"
        },
        {
          "internalType": "uint96",
          "name": "feeNumerator",
          "type": "uint96"
        }
      ],
      "name": "updateCollectionRoyalty",
      "outputs": [],
      "stateMutability": "nonpayable",
      "type": "function"
    },
    {
      "inputs": [
        {
          "internalType": "string",
          "name": "__contractURI",
          "type": "string"
        }
      ],
      "name": "updateContractURI",
      "outputs": [],
      "stateMutability": "nonpayable",
      "type": "function"
    },
    {
      "inputs": [
        {
          "internalType": "address",
          "name": "receiver",
          "type": "address"
        },
        {
          "internalType": "uint96",
          "name": "feeNumerator",
          "type": "uint96"
        }
      ],
      "name": "updateDefaultRoyalty",
      "outputs": [],
      "stateMutability": "nonpayable",
      "type": "function"
    },
    {
      "inputs": [
        {
          "internalType": "address",
          "name": "newImplementation",
          "type": "address"
        }
      ],
      "name": "upgradeTo",
      "outputs": [],
      "stateMutability": "nonpayable",
      "type": "function"
    },
    {
      "inputs": [
        {
          "internalType": "address",
          "name": "newImplementation",
          "type": "address"
        },
        {
          "internalType": "bytes",
          "name": "data",
          "type": "bytes"
        }
      ],
      "name": "upgradeToAndCall",
      "outputs": [],
      "stateMutability": "payable",
      "type": "function"
    }
  ],
  "bytecode": "0x60a0604052306080523480156200001557600080fd5b506200002062000026565b620000e8565b600054610100900460ff1615620000935760405162461bcd60e51b815260206004820152602760248201527f496e697469616c697a61626c653a20636f6e747261637420697320696e697469604482015266616c697a696e6760c81b606482015260840160405180910390fd5b60005460ff9081161015620000e6576000805460ff191660ff9081179091556040519081527f7f26b83ff96e1f2b6a682f133852f6798a09c465da95921460cefb38474024989060200160405180910390a15b565b6080516158266200012060003960008181611320015281816113b6015281816117eb015281816118810152611aea01526158266000f3fe6080604052600436106103555760003560e01c806370a08231116101bb578063c1292cc3116100f7578063d691e43c11610095578063e8a3d4851161006f578063e8a3d48514610a27578063e985e9c514610a3c578063f2fde38b14610a5c578063fb1fcca114610a7c57600080fd5b8063d691e43c146109c7578063d7a78db8146109e7578063d953e4d414610a0757600080fd5b8063cde317af116100d1578063cde317af1461093a578063ce1b815f1461095b578063cea0302e14610987578063d1c332de146109a757600080fd5b8063c1292cc3146108e3578063c87b56dd146108fa578063ca2759311461091a57600080fd5b80638e45d62e116101645780639a80c5e31161013e5780639a80c5e314610863578063a089479914610883578063a22cb465146108a3578063b88d4fde146108c357600080fd5b80638e45d62e1461081957806395d89b411461083957806397ec4fba1461084e57600080fd5b80637e5b1e24116101955780637e5b1e24146107b95780638456cb59146107d95780638da5cb5b146107ee57600080fd5b806370a0823114610764578063715018a614610784578063776ce8681461079957600080fd5b80633659cfe61161029557806352d1902d116102335780636352211e1161020d5780636352211e146106e45780636623fc46146107045780636a662a3c14610724578063704802751461074457600080fd5b806352d1902d1461067a578063572b6c051461068f5780635c975abb146106cc57600080fd5b806342966c681161026f57806342966c6814610607578063493a7576146106275780634f1ef28614610647578063508061a21461065a57600080fd5b80633659cfe6146105b25780633f4ba83a146105d257806342842e0e146105e757600080fd5b806317c957091161030257806323b872dd116102dc57806323b872dd146104d157806324d7806c146104f15780632a55205a146105385780632dd883e81461058457600080fd5b806317c95709146104585780631a27e85f1461049157806321235083146104b157600080fd5b8063095ea7b311610333578063095ea7b3146103f65780631771c96c146104185780631785f53c1461043857600080fd5b806301ffc9a71461035a57806306fdde031461038f578063081812fc146103b1575b600080fd5b34801561036657600080fd5b5061037a610375366004614da3565b610a9c565b60405190151581526020015b60405180910390f35b34801561039b57600080fd5b506103a4610b44565b6040516103869190614e36565b3480156103bd57600080fd5b506103d16103cc366004614e49565b610bd6565b60405173ffffffffffffffffffffffffffffffffffffffff9091168152602001610386565b34801561040257600080fd5b50610416610411366004614e8b565b610c0a565b005b34801561042457600080fd5b506103a4610433366004614e49565b610d87565b34801561044457600080fd5b50610416610453366004614eb5565b610dbc565b34801561046457600080fd5b50610478610473366004614e49565b610ef7565b60405167ffffffffffffffff9091168152602001610386565b34801561049d57600080fd5b506104166104ac366004614e49565b610f20565b3480156104bd57600080fd5b506104166104cc366004614e49565b611031565b3480156104dd57600080fd5b506104166104ec366004614ed0565b61114e565b3480156104fd57600080fd5b5061037a61050c366004614eb5565b73ffffffffffffffffffffffffffffffffffffffff166000908152610199602052604090205460ff1690565b34801561054457600080fd5b50610558610553366004614f0c565b6111dc565b6040805173ffffffffffffffffffffffffffffffffffffffff9093168352602083019190915201610386565b34801561059057600080fd5b506105a461059f366004614e49565b6112e9565b604051908152602001610386565b3480156105be57600080fd5b506104166105cd366004614eb5565b611308565b3480156105de57600080fd5b506104166114da565b3480156105f357600080fd5b50610416610602366004614ed0565b611595565b34801561061357600080fd5b50610416610622366004614e49565b6115b0565b34801561063357600080fd5b50610416610642366004614e49565b611636565b610416610655366004615008565b6117d3565b34801561066657600080fd5b50610416610675366004614e49565b611996565b34801561068657600080fd5b506105a4611ad0565b34801561069b57600080fd5b5061037a6106aa366004614eb5565b6101915473ffffffffffffffffffffffffffffffffffffffff91821691161490565b3480156106d857600080fd5b5060c95460ff1661037a565b3480156106f057600080fd5b506103d16106ff366004614e49565b611ba2565b34801561071057600080fd5b5061041661071f366004614e49565b611c14565b34801561073057600080fd5b5061041661073f366004615072565b611d2b565b34801561075057600080fd5b5061041661075f366004614eb5565b611de7565b34801561077057600080fd5b506105a461077f366004614eb5565b611efe565b34801561079057600080fd5b50610416611fb2565b3480156107a557600080fd5b506104166107b43660046150c6565b611fc4565b3480156107c557600080fd5b506104166107d43660046150f2565b612088565b3480156107e557600080fd5b5061041661214d565b3480156107fa57600080fd5b5060fb5473ffffffffffffffffffffffffffffffffffffffff166103d1565b34801561082557600080fd5b5061037a610834366004615137565b612206565b34801561084557600080fd5b506103a46122f7565b34801561085a57600080fd5b50610416612306565b34801561086f57600080fd5b5061037a61087e3660046151c9565b6123c2565b34801561088f57600080fd5b5061037a61089e366004614e49565b61253c565b3480156108af57600080fd5b506104166108be366004615238565b61255e565b3480156108cf57600080fd5b506104166108de366004615262565b612570565b3480156108ef57600080fd5b506105a46101935481565b34801561090657600080fd5b506103a4610915366004614e49565b612605565b34801561092657600080fd5b506104166109353660046152ca565b612656565b34801561094657600080fd5b5061037a610955366004614e49565b50600190565b34801561096757600080fd5b506101915473ffffffffffffffffffffffffffffffffffffffff166103d1565b34801561099357600080fd5b506104166109a2366004614eb5565b61283a565b3480156109b357600080fd5b506104166109c23660046150c6565b61292f565b3480156109d357600080fd5b506104166109e2366004615355565b6129e9565b3480156109f357600080fd5b50610416610a02366004614e49565b612aa4565b348015610a1357600080fd5b50610416610a22366004614e49565b612b66565b348015610a3357600080fd5b506103a4612c29565b348015610a4857600080fd5b5061037a610a5736600461537f565b612cb8565b348015610a6857600080fd5b50610416610a77366004614eb5565b612d5e565b348015610a8857600080fd5b5061037a610a973660046153a9565b612df8565b60007fffffffff0000000000000000000000000000000000000000000000000000000082167f8c65f84d000000000000000000000000000000000000000000000000000000001480610b2f57507fffffffff0000000000000000000000000000000000000000000000000000000082167f2a55205a00000000000000000000000000000000000000000000000000000000145b80610b3e5750610b3e82612f52565b92915050565b606060658054610b5390615405565b80601f0160208091040260200160405190810160405280929190818152602001828054610b7f90615405565b8015610bcc5780601f10610ba157610100808354040283529160200191610bcc565b820191906000526020600020905b815481529060010190602001808311610baf57829003601f168201915b5050505050905090565b6000610be182613035565b5060009081526069602052604090205473ffffffffffffffffffffffffffffffffffffffff1690565b6000610c1582611ba2565b90508073ffffffffffffffffffffffffffffffffffffffff168373ffffffffffffffffffffffffffffffffffffffff161415610cbe5760405162461bcd60e51b815260206004820152602160248201527f4552433732313a20617070726f76616c20746f2063757272656e74206f776e6560448201527f720000000000000000000000000000000000000000000000000000000000000060648201526084015b60405180910390fd5b8073ffffffffffffffffffffffffffffffffffffffff16610cdd6130a6565b73ffffffffffffffffffffffffffffffffffffffff161480610d065750610d0681610a576130a6565b610d785760405162461bcd60e51b815260206004820152603e60248201527f4552433732313a20617070726f76652063616c6c6572206973206e6f7420746f60448201527f6b656e206f776e6572206e6f7220617070726f76656420666f7220616c6c00006064820152608401610cb5565b610d8283836130b5565b505050565b6060610192610d9583613155565b604051602001610da692919061552a565b6040516020818303038152906040529050919050565b610dc46130a6565b73ffffffffffffffffffffffffffffffffffffffff16610df960fb5473ffffffffffffffffffffffffffffffffffffffff1690565b73ffffffffffffffffffffffffffffffffffffffff161480610e215750610e2161050c6130a6565b610e6d5760405162461bcd60e51b815260206004820152601c60248201527f63616c6c6572206973206e6f74206f776e6572206f722061646d696e000000006044820152606401610cb5565b73ffffffffffffffffffffffffffffffffffffffff811660008181526101996020908152604080832080547fffffffffffffffffffffffffffffffffffffffffffffffffffffffffffffff001690558051938452908301919091527f235bc17e7930760029e9f4d860a2a8089976de5b381cf8380fc11c1d88a1113391015b60405180910390a150565b6000610f0282613035565b506000908152610198602052604090205467ffffffffffffffff1690565b610f286130a6565b73ffffffffffffffffffffffffffffffffffffffff16610f5d60fb5473ffffffffffffffffffffffffffffffffffffffff1690565b73ffffffffffffffffffffffffffffffffffffffff161480610f855750610f8561050c6130a6565b610fd15760405162461bcd60e51b815260206004820152601c60248201527f63616c6c6572206973206e6f74206f776e6572206f722061646d696e000000006044820152606401610cb5565b610fd9613287565b80610193541061102b5760405162461bcd60e51b815260206004820152601760248201527f4e65772049642068617320746f206265206869676865720000000000000000006044820152606401610cb5565b61019355565b6110396130a6565b73ffffffffffffffffffffffffffffffffffffffff1661106e60fb5473ffffffffffffffffffffffffffffffffffffffff1690565b73ffffffffffffffffffffffffffffffffffffffff161480611096575061109661050c6130a6565b6110e25760405162461bcd60e51b815260206004820152601c60248201527f63616c6c6572206973206e6f74206f776e6572206f722061646d696e000000006044820152606401610cb5565b60008181526101986020908152604080832080547fffffffffffffffffffffffffffffffffffffffffffffffff00000000000000001690555191825282917f2ec2be2c4b90c2cf13ecb6751a24daed6bb741ae5ed3f7371aabf9402f6d62e8910160405180910390a250565b61115f6111596130a6565b826132da565b6111d15760405162461bcd60e51b815260206004820152602e60248201527f4552433732313a2063616c6c6572206973206e6f7420746f6b656e206f776e6560448201527f72206e6f7220617070726f7665640000000000000000000000000000000000006064820152608401610cb5565b610d8283838361336c565b60008060006111ea856112e9565b6000818152610197602090815260409182902082518084019093525473ffffffffffffffffffffffffffffffffffffffff8116808452740100000000000000000000000000000000000000009091046bffffffffffffffffffffffff1691830191909152919250906112aa5750604080518082019091526101965473ffffffffffffffffffffffffffffffffffffffff811682527401000000000000000000000000000000000000000090046bffffffffffffffffffffffff1660208201525b6020810151600090612710906112ce906bffffffffffffffffffffffff168861557e565b6112d891906155ea565b9151945090925050505b9250929050565b60006112f482613035565b506000908152610194602052604090205490565b3073ffffffffffffffffffffffffffffffffffffffff7f00000000000000000000000000000000000000000000000000000000000000001614156113b45760405162461bcd60e51b815260206004820152602c60248201527f46756e6374696f6e206d7573742062652063616c6c6564207468726f7567682060448201527f64656c656761746563616c6c00000000000000000000000000000000000000006064820152608401610cb5565b7f000000000000000000000000000000000000000000000000000000000000000073ffffffffffffffffffffffffffffffffffffffff166114297f360894a13ba1a3210667c828492db98dca3e2076cc3735a920a3ca505d382bbc5473ffffffffffffffffffffffffffffffffffffffff1690565b73ffffffffffffffffffffffffffffffffffffffff16146114b25760405162461bcd60e51b815260206004820152602c60248201527f46756e6374696f6e206d7573742062652063616c6c6564207468726f7567682060448201527f6163746976652070726f787900000000000000000000000000000000000000006064820152608401610cb5565b6114bb816135aa565b604080516000808252602082019092526114d79183919061365b565b50565b6114e26130a6565b73ffffffffffffffffffffffffffffffffffffffff1661151760fb5473ffffffffffffffffffffffffffffffffffffffff1690565b73ffffffffffffffffffffffffffffffffffffffff16148061153f575061153f61050c6130a6565b61158b5760405162461bcd60e51b815260206004820152601c60248201527f63616c6c6572206973206e6f74206f776e6572206f722061646d696e000000006044820152606401610cb5565b611593613826565b565b610d8283838360405180602001604052806000815250612570565b6115bb6111596130a6565b61162d5760405162461bcd60e51b815260206004820152602e60248201527f4552433732313a2063616c6c6572206973206e6f7420746f6b656e206f776e6560448201527f72206e6f7220617070726f7665640000000000000000000000000000000000006064820152608401610cb5565b6114d7816138a9565b61163e6130a6565b73ffffffffffffffffffffffffffffffffffffffff1661167360fb5473ffffffffffffffffffffffffffffffffffffffff1690565b73ffffffffffffffffffffffffffffffffffffffff16148061169b575061169b61050c6130a6565b6116e75760405162461bcd60e51b815260206004820152601c60248201527f63616c6c6572206973206e6f74206f776e6572206f722061646d696e000000006044820152606401610cb5565b60008181526101986020526040902054429067ffffffffffffffff808316911610156117555760405162461bcd60e51b815260206004820152601f60248201527f546f6b656e2063616e6e6f7420616c72656164792062652065787069726564006044820152606401610cb5565b6000828152610198602090815260409182902080547fffffffffffffffffffffffffffffffffffffffffffffffff00000000000000001667ffffffffffffffff8516908117909155915191825283917f2ec2be2c4b90c2cf13ecb6751a24daed6bb741ae5ed3f7371aabf9402f6d62e8910160405180910390a25050565b3073ffffffffffffffffffffffffffffffffffffffff7f000000000000000000000000000000000000000000000000000000000000000016141561187f5760405162461bcd60e51b815260206004820152602c60248201527f46756e6374696f6e206d7573742062652063616c6c6564207468726f7567682060448201527f64656c656761746563616c6c00000000000000000000000000000000000000006064820152608401610cb5565b7f000000000000000000000000000000000000000000000000000000000000000073ffffffffffffffffffffffffffffffffffffffff166118f47f360894a13ba1a3210667c828492db98dca3e2076cc3735a920a3ca505d382bbc5473ffffffffffffffffffffffffffffffffffffffff1690565b73ffffffffffffffffffffffffffffffffffffffff161461197d5760405162461bcd60e51b815260206004820152602c60248201527f46756e6374696f6e206d7573742062652063616c6c6564207468726f7567682060448201527f6163746976652070726f787900000000000000000000000000000000000000006064820152608401610cb5565b611986826135aa565b6119928282600161365b565b5050565b61199e6130a6565b73ffffffffffffffffffffffffffffffffffffffff166119d360fb5473ffffffffffffffffffffffffffffffffffffffff1690565b73ffffffffffffffffffffffffffffffffffffffff1614806119fb57506119fb61050c6130a6565b611a475760405162461bcd60e51b815260206004820152601c60248201527f63616c6c6572206973206e6f74206f776e6572206f722061646d696e000000006044820152606401610cb5565b611a508161253c565b611a9c5760405162461bcd60e51b815260206004820152601460248201527f546f6b656e206d7573742062652066726f7a656e0000000000000000000000006044820152606401610cb5565b611aa581613925565b6114d7611ab182611ba2565b60fb5473ffffffffffffffffffffffffffffffffffffffff168361336c565b60003073ffffffffffffffffffffffffffffffffffffffff7f00000000000000000000000000000000000000000000000000000000000000001614611b7d5760405162461bcd60e51b815260206004820152603860248201527f555550535570677261646561626c653a206d757374206e6f742062652063616c60448201527f6c6564207468726f7567682064656c656761746563616c6c00000000000000006064820152608401610cb5565b507f360894a13ba1a3210667c828492db98dca3e2076cc3735a920a3ca505d382bbc90565b60008181526067602052604081205473ffffffffffffffffffffffffffffffffffffffff1680610b3e5760405162461bcd60e51b815260206004820152601860248201527f4552433732313a20696e76616c696420746f6b656e20494400000000000000006044820152606401610cb5565b611c1c6130a6565b73ffffffffffffffffffffffffffffffffffffffff16611c5160fb5473ffffffffffffffffffffffffffffffffffffffff1690565b73ffffffffffffffffffffffffffffffffffffffff161480611c795750611c7961050c6130a6565b611cc55760405162461bcd60e51b815260206004820152601c60248201527f63616c6c6572206973206e6f74206f776e6572206f722061646d696e000000006044820152606401610cb5565b611ccd613287565b611cd68161253c565b611d225760405162461bcd60e51b815260206004820152601360248201527f546f6b656e206973206e6f742066726f7a656e000000000000000000000000006044820152606401610cb5565b6114d781613925565b611d336130a6565b73ffffffffffffffffffffffffffffffffffffffff16611d6860fb5473ffffffffffffffffffffffffffffffffffffffff1690565b73ffffffffffffffffffffffffffffffffffffffff161480611d905750611d9061050c6130a6565b611ddc5760405162461bcd60e51b815260206004820152601c60248201527f63616c6c6572206973206e6f74206f776e6572206f722061646d696e000000006044820152606401610cb5565b610d8283838361398c565b611def613ae3565b73ffffffffffffffffffffffffffffffffffffffff8116611e775760405162461bcd60e51b8152602060048201526024808201527f4e65772061646d696e2063616e6e6f7420626520746865207a65726f2061646460448201527f72657373000000000000000000000000000000000000000000000000000000006064820152608401610cb5565b73ffffffffffffffffffffffffffffffffffffffff81166000818152610199602090815260409182902080547fffffffffffffffffffffffffffffffffffffffffffffffffffffffffffffff001660019081179091558251938452908301527f235bc17e7930760029e9f4d860a2a8089976de5b381cf8380fc11c1d88a111339101610eec565b600073ffffffffffffffffffffffffffffffffffffffff8216611f895760405162461bcd60e51b815260206004820152602960248201527f4552433732313a2061646472657373207a65726f206973206e6f74206120766160448201527f6c6964206f776e657200000000000000000000000000000000000000000000006064820152608401610cb5565b5073ffffffffffffffffffffffffffffffffffffffff1660009081526068602052604090205490565b611fba613ae3565b6115936000613b83565b611fcc6130a6565b73ffffffffffffffffffffffffffffffffffffffff1661200160fb5473ffffffffffffffffffffffffffffffffffffffff1690565b73ffffffffffffffffffffffffffffffffffffffff161480612029575061202961050c6130a6565b6120755760405162461bcd60e51b815260206004820152601c60248201527f63616c6c6572206973206e6f74206f776e6572206f722061646d696e000000006044820152606401610cb5565b61207e82613035565b6119928282613bfa565b6120906130a6565b73ffffffffffffffffffffffffffffffffffffffff166120c560fb5473ffffffffffffffffffffffffffffffffffffffff1690565b73ffffffffffffffffffffffffffffffffffffffff1614806120ed57506120ed61050c6130a6565b6121395760405162461bcd60e51b815260206004820152601c60248201527f63616c6c6572206973206e6f74206f776e6572206f722061646d696e000000006044820152606401610cb5565b805161199290610192906020840190614cdc565b6121556130a6565b73ffffffffffffffffffffffffffffffffffffffff1661218a60fb5473ffffffffffffffffffffffffffffffffffffffff1690565b73ffffffffffffffffffffffffffffffffffffffff1614806121b257506121b261050c6130a6565b6121fe5760405162461bcd60e51b815260206004820152601c60248201527f63616c6c6572206973206e6f74206f776e6572206f722061646d696e000000006044820152606401610cb5565b611593613cb8565b6000612210613287565b6122186130a6565b73ffffffffffffffffffffffffffffffffffffffff1661224d60fb5473ffffffffffffffffffffffffffffffffffffffff1690565b73ffffffffffffffffffffffffffffffffffffffff161480612275575061227561050c6130a6565b6122c15760405162461bcd60e51b815260206004820152601c60248201527f63616c6c6572206973206e6f74206f776e6572206f722061646d696e000000006044820152606401610cb5565b600161019360008282546122d591906155fe565b925050819055506122ec8561019354868686613d14565b90505b949350505050565b606060668054610b5390615405565b61230e6130a6565b73ffffffffffffffffffffffffffffffffffffffff1661234360fb5473ffffffffffffffffffffffffffffffffffffffff1690565b73ffffffffffffffffffffffffffffffffffffffff16148061236b575061236b61050c6130a6565b6123b75760405162461bcd60e51b815260206004820152601c60248201527f63616c6c6572206973206e6f74206f776e6572206f722061646d696e000000006044820152606401610cb5565b611593600061019655565b60006123cc613287565b6123d46130a6565b73ffffffffffffffffffffffffffffffffffffffff1661240960fb5473ffffffffffffffffffffffffffffffffffffffff1690565b73ffffffffffffffffffffffffffffffffffffffff161480612431575061243161050c6130a6565b61247d5760405162461bcd60e51b815260206004820152601c60248201527f63616c6c6572206973206e6f74206f776e6572206f722061646d696e000000006044820152606401610cb5565b60006124898342615616565b905060005b85811015612513576000816101935460016124a991906155fe565b6124b391906155fe565b90506124e789828a8a868181106124cc576124cc615639565b90506020020160208101906124e19190614eb5565b89613d67565b5067ffffffffffffffff85161561250257612502818461292f565b5061250c81615668565b905061248e565b5085859050610193600082825461252a91906155fe565b90915550600198975050505050505050565b600061254782613035565b506000908152610195602052604090205460ff1690565b6119926125696130a6565b8383613d9f565b61258161257b6130a6565b836132da565b6125f35760405162461bcd60e51b815260206004820152602e60248201527f4552433732313a2063616c6c6572206973206e6f7420746f6b656e206f776e6560448201527f72206e6f7220617070726f7665640000000000000000000000000000000000006064820152608401610cb5565b6125ff84848484613eb3565b50505050565b6000818152610194602052604090205460609061019261262482613155565b61262d85613155565b60405160200161263f939291906156a1565b604051602081830303815290604052915050919050565b600054610100900460ff16158080156126765750600054600160ff909116105b806126905750303b158015612690575060005460ff166001145b6127025760405162461bcd60e51b815260206004820152602e60248201527f496e697469616c697a61626c653a20636f6e747261637420697320616c72656160448201527f647920696e697469616c697a65640000000000000000000000000000000000006064820152608401610cb5565b600080547fffffffffffffffffffffffffffffffffffffffffffffffffffffffffffffff00166001179055801561276057600080547fffffffffffffffffffffffffffffffffffffffffffffffffffffffffffff00ff166101001790555b61276a8585613f3c565b612772613fc3565b61277a614048565b6127826140cd565b61278a6140cd565b60005b828110156127cf576127bf8484838181106127aa576127aa615639565b905060200201602081019061075f9190614eb5565b6127c881615668565b905061278d565b50801561283357600080547fffffffffffffffffffffffffffffffffffffffffffffffffffffffffffff00ff169055604051600181527f7f26b83ff96e1f2b6a682f133852f6798a09c465da95921460cefb38474024989060200160405180910390a15b5050505050565b6128426130a6565b73ffffffffffffffffffffffffffffffffffffffff1661287760fb5473ffffffffffffffffffffffffffffffffffffffff1690565b73ffffffffffffffffffffffffffffffffffffffff16148061289f575061289f61050c6130a6565b6128eb5760405162461bcd60e51b815260206004820152601c60248201527f63616c6c6572206973206e6f74206f776e6572206f722061646d696e000000006044820152606401610cb5565b61019180547fffffffffffffffffffffffff00000000000000000000000000000000000000001673ffffffffffffffffffffffffffffffffffffffff831617905550565b6129376130a6565b73ffffffffffffffffffffffffffffffffffffffff1661296c60fb5473ffffffffffffffffffffffffffffffffffffffff1690565b73ffffffffffffffffffffffffffffffffffffffff161480612994575061299461050c6130a6565b6129e05760405162461bcd60e51b815260206004820152601c60248201527f63616c6c6572206973206e6f74206f776e6572206f722061646d696e000000006044820152606401610cb5565b61175582613035565b6129f16130a6565b73ffffffffffffffffffffffffffffffffffffffff16612a2660fb5473ffffffffffffffffffffffffffffffffffffffff1690565b73ffffffffffffffffffffffffffffffffffffffff161480612a4e5750612a4e61050c6130a6565b612a9a5760405162461bcd60e51b815260206004820152601c60248201527f63616c6c6572206973206e6f74206f776e6572206f722061646d696e000000006044820152606401610cb5565b611992828261414a565b612aac6130a6565b73ffffffffffffffffffffffffffffffffffffffff16612ae160fb5473ffffffffffffffffffffffffffffffffffffffff1690565b73ffffffffffffffffffffffffffffffffffffffff161480612b095750612b0961050c6130a6565b612b555760405162461bcd60e51b815260206004820152601c60248201527f63616c6c6572206973206e6f74206f776e6572206f722061646d696e000000006044820152606401610cb5565b612b5d613287565b6114d781614290565b612b6e6130a6565b73ffffffffffffffffffffffffffffffffffffffff16612ba360fb5473ffffffffffffffffffffffffffffffffffffffff1690565b73ffffffffffffffffffffffffffffffffffffffff161480612bcb5750612bcb61050c6130a6565b612c175760405162461bcd60e51b815260206004820152601c60248201527f63616c6c6572206973206e6f74206f776e6572206f722061646d696e000000006044820152606401610cb5565b60009081526101976020526040812055565b6101928054612c3790615405565b80601f0160208091040260200160405190810160405280929190818152602001828054612c6390615405565b8015612cb05780601f10612c8557610100808354040283529160200191612cb0565b820191906000526020600020905b815481529060010190602001808311612c9357829003601f168201915b505050505081565b600073ffffffffffffffffffffffffffffffffffffffff82166e6c3852cbef3e08e8df289169ede5811480612d13575073ffffffffffffffffffffffffffffffffffffffff82166000908152610199602052604090205460ff165b15612d2057506001610b3e565b73ffffffffffffffffffffffffffffffffffffffff8084166000908152606a602090815260408083209386168352929052205460ff165b9392505050565b612d66613ae3565b73ffffffffffffffffffffffffffffffffffffffff8116612def5760405162461bcd60e51b815260206004820152602660248201527f4f776e61626c653a206e6577206f776e657220697320746865207a65726f206160448201527f64647265737300000000000000000000000000000000000000000000000000006064820152608401610cb5565b6114d781613b83565b6000612e02613287565b612e0a6130a6565b73ffffffffffffffffffffffffffffffffffffffff16612e3f60fb5473ffffffffffffffffffffffffffffffffffffffff1690565b73ffffffffffffffffffffffffffffffffffffffff161480612e675750612e6761050c6130a6565b612eb35760405162461bcd60e51b815260206004820152601c60248201527f63616c6c6572206973206e6f74206f776e6572206f722061646d696e000000006044820152606401610cb5565b6000612ebf8342615616565b905060005b86811015612f3b57600081610193546001612edf91906155fe565b612ee991906155fe565b9050612f0f898984818110612f0057612f00615639565b90506020020135828989613d67565b5067ffffffffffffffff851615612f2a57612f2a818461292f565b50612f3481615668565b9050612ec4565b5086869050610193600082825461252a91906155fe565b60007fffffffff0000000000000000000000000000000000000000000000000000000082167f80ac58cd000000000000000000000000000000000000000000000000000000001480612fe557507fffffffff0000000000000000000000000000000000000000000000000000000082167f5b5e139f00000000000000000000000000000000000000000000000000000000145b80610b3e57507f01ffc9a7000000000000000000000000000000000000000000000000000000007fffffffff00000000000000000000000000000000000000000000000000000000831614610b3e565b60008181526067602052604090205473ffffffffffffffffffffffffffffffffffffffff166114d75760405162461bcd60e51b815260206004820152601860248201527f4552433732313a20696e76616c696420746f6b656e20494400000000000000006044820152606401610cb5565b60006130b06142fa565b905090565b600081815260696020526040902080547fffffffffffffffffffffffff00000000000000000000000000000000000000001673ffffffffffffffffffffffffffffffffffffffff8416908117909155819061310f82611ba2565b73ffffffffffffffffffffffffffffffffffffffff167f8c5be1e5ebec7d5bd14f71427d1e84f3dd0314c0f7b2291e5b200ac8c7c3b92560405160405180910390a45050565b60608161319557505060408051808201909152600181527f3000000000000000000000000000000000000000000000000000000000000000602082015290565b8160005b81156131bf57806131a981615668565b91506131b89050600a836155ea565b9150613199565b60008167ffffffffffffffff8111156131da576131da614f2e565b6040519080825280601f01601f191660200182016040528015613204576020820181803683370190505b5090505b84156122ef57613219600183615703565b9150613226600a8661571a565b6132319060306155fe565b60f81b81838151811061324657613246615639565b60200101907effffffffffffffffffffffffffffffffffffffffffffffffffffffffffffff1916908160001a905350613280600a866155ea565b9450613208565b60c95460ff16156115935760405162461bcd60e51b815260206004820152601060248201527f5061757361626c653a20706175736564000000000000000000000000000000006044820152606401610cb5565b6000806132e683611ba2565b90508073ffffffffffffffffffffffffffffffffffffffff168473ffffffffffffffffffffffffffffffffffffffff16148061332757506133278185612cb8565b806122ef57508373ffffffffffffffffffffffffffffffffffffffff1661334d84610bd6565b73ffffffffffffffffffffffffffffffffffffffff1614949350505050565b8273ffffffffffffffffffffffffffffffffffffffff1661338c82611ba2565b73ffffffffffffffffffffffffffffffffffffffff16146134155760405162461bcd60e51b815260206004820152602560248201527f4552433732313a207472616e736665722066726f6d20696e636f72726563742060448201527f6f776e65720000000000000000000000000000000000000000000000000000006064820152608401610cb5565b73ffffffffffffffffffffffffffffffffffffffff821661349d5760405162461bcd60e51b8152602060048201526024808201527f4552433732313a207472616e7366657220746f20746865207a65726f2061646460448201527f72657373000000000000000000000000000000000000000000000000000000006064820152608401610cb5565b6134a883838361435a565b6134b36000826130b5565b73ffffffffffffffffffffffffffffffffffffffff831660009081526068602052604081208054600192906134e9908490615703565b909155505073ffffffffffffffffffffffffffffffffffffffff821660009081526068602052604081208054600192906135249084906155fe565b909155505060008181526067602052604080822080547fffffffffffffffffffffffff00000000000000000000000000000000000000001673ffffffffffffffffffffffffffffffffffffffff86811691821790925591518493918716917fddf252ad1be2c89b69c2b068fc378daa952ba7f163c4a11628f55a4df523b3ef91a4505050565b6135b26130a6565b73ffffffffffffffffffffffffffffffffffffffff166135e760fb5473ffffffffffffffffffffffffffffffffffffffff1690565b73ffffffffffffffffffffffffffffffffffffffff16148061360f575061360f61050c6130a6565b6114d75760405162461bcd60e51b815260206004820152601c60248201527f63616c6c6572206973206e6f74206f776e6572206f722061646d696e000000006044820152606401610cb5565b7f4910fdfa16fed3260ed0e7147f7cc6da11a60208b5b9406d12a635614ffd91435460ff161561368e57610d82836143be565b8273ffffffffffffffffffffffffffffffffffffffff166352d1902d6040518163ffffffff1660e01b8152600401602060405180830381865afa925050508015613713575060408051601f3d9081017fffffffffffffffffffffffffffffffffffffffffffffffffffffffffffffffe01682019092526137109181019061572e565b60015b6137855760405162461bcd60e51b815260206004820152602e60248201527f45524331393637557067726164653a206e657720696d706c656d656e7461746960448201527f6f6e206973206e6f7420555550530000000000000000000000000000000000006064820152608401610cb5565b7f360894a13ba1a3210667c828492db98dca3e2076cc3735a920a3ca505d382bbc811461381a5760405162461bcd60e51b815260206004820152602960248201527f45524331393637557067726164653a20756e737570706f727465642070726f7860448201527f6961626c655555494400000000000000000000000000000000000000000000006064820152608401610cb5565b50610d828383836144ae565b61382e6144d3565b60c980547fffffffffffffffffffffffffffffffffffffffffffffffffffffffffffffff001690557f5db9ee0a495bf2e6ff9c91a7834c1ba4fdd244a5e8aa4e537bd38aeae4b073aa61387f6130a6565b60405173ffffffffffffffffffffffffffffffffffffffff909116815260200160405180910390a1565b6138b281614525565b600090815261019460209081526040808320839055610195825280832080547fffffffffffffffffffffffffffffffffffffffffffffffffffffffffffffff00169055610198909152902080547fffffffffffffffffffffffffffffffffffffffffffffffff0000000000000000169055565b600081815261019560205260409081902080547fffffffffffffffffffffffffffffffffffffffffffffffffffffffffffffff00169055517f083eea12772ab70fba01c8212d02f3bc5dc29b8540dcdc84298e5dfa22731b9290610eec9083815260200190565b6127106bffffffffffffffffffffffff82161115613a125760405162461bcd60e51b815260206004820152602a60248201527f455243323938313a20726f79616c7479206665652077696c6c2065786365656460448201527f2073616c655072696365000000000000000000000000000000000000000000006064820152608401610cb5565b73ffffffffffffffffffffffffffffffffffffffff8216613a755760405162461bcd60e51b815260206004820152601b60248201527f455243323938313a20496e76616c696420706172616d657465727300000000006044820152606401610cb5565b60408051808201825273ffffffffffffffffffffffffffffffffffffffff93841681526bffffffffffffffffffffffff928316602080830191825260009687526101979052919094209351905190911674010000000000000000000000000000000000000000029116179055565b613aeb6130a6565b73ffffffffffffffffffffffffffffffffffffffff16613b2060fb5473ffffffffffffffffffffffffffffffffffffffff1690565b73ffffffffffffffffffffffffffffffffffffffff16146115935760405162461bcd60e51b815260206004820181905260248201527f4f776e61626c653a2063616c6c6572206973206e6f7420746865206f776e65726044820152606401610cb5565b60fb805473ffffffffffffffffffffffffffffffffffffffff8381167fffffffffffffffffffffffff0000000000000000000000000000000000000000831681179093556040519116919082907f8be0079c531659141344cd1fd0a4f28419497f9722a3daafe3b4186f6b6457e090600090a35050565b6000828152610198602052604081205467ffffffffffffffff169081613c2b57613c248342615616565b9050613c38565b613c358383615616565b90505b6000848152610198602090815260409182902080547fffffffffffffffffffffffffffffffffffffffffffffffff00000000000000001667ffffffffffffffff8516908117909155915191825285917f2ec2be2c4b90c2cf13ecb6751a24daed6bb741ae5ed3f7371aabf9402f6d62e8910160405180910390a250505050565b613cc0613287565b60c980547fffffffffffffffffffffffffffffffffffffffffffffffffffffffffffffff001660011790557f62e78cea01bee320cd4e420270b5ea74000d11b0c9f74754ebdbfc544b05a25861387f6130a6565b6000613d2084866145fe565b6000858152610194602052604090208690558215613d4157613d4185612aa4565b67ffffffffffffffff821615613d5b57613d5b8583613bfa565b50600195945050505050565b6000613d7383856145fe565b6000848152610194602052604090208590558115613d9457613d9484612aa4565b506001949350505050565b8173ffffffffffffffffffffffffffffffffffffffff168373ffffffffffffffffffffffffffffffffffffffff161415613e1b5760405162461bcd60e51b815260206004820152601960248201527f4552433732313a20617070726f766520746f2063616c6c6572000000000000006044820152606401610cb5565b73ffffffffffffffffffffffffffffffffffffffff8381166000818152606a602090815260408083209487168084529482529182902080547fffffffffffffffffffffffffffffffffffffffffffffffffffffffffffffff001686151590811790915591519182527f17307eab39ab6107e8899845ad3d59bd9653f200f220920489ca2b5937696c31910160405180910390a3505050565b613ebe84848461336c565b613eca84848484614798565b6125ff5760405162461bcd60e51b815260206004820152603260248201527f4552433732313a207472616e7366657220746f206e6f6e20455243373231526560448201527f63656976657220696d706c656d656e74657200000000000000000000000000006064820152608401610cb5565b600054610100900460ff16613fb95760405162461bcd60e51b815260206004820152602b60248201527f496e697469616c697a61626c653a20636f6e7472616374206973206e6f74206960448201527f6e697469616c697a696e670000000000000000000000000000000000000000006064820152608401610cb5565b6119928282614959565b600054610100900460ff166140405760405162461bcd60e51b815260206004820152602b60248201527f496e697469616c697a61626c653a20636f6e7472616374206973206e6f74206960448201527f6e697469616c697a696e670000000000000000000000000000000000000000006064820152608401610cb5565b6115936149fd565b600054610100900460ff166140c55760405162461bcd60e51b815260206004820152602b60248201527f496e697469616c697a61626c653a20636f6e7472616374206973206e6f74206960448201527f6e697469616c697a696e670000000000000000000000000000000000000000006064820152608401610cb5565b611593614aa4565b600054610100900460ff166115935760405162461bcd60e51b815260206004820152602b60248201527f496e697469616c697a61626c653a20636f6e7472616374206973206e6f74206960448201527f6e697469616c697a696e670000000000000000000000000000000000000000006064820152608401610cb5565b6127106bffffffffffffffffffffffff821611156141d05760405162461bcd60e51b815260206004820152602a60248201527f455243323938313a20726f79616c7479206665652077696c6c2065786365656460448201527f2073616c655072696365000000000000000000000000000000000000000000006064820152608401610cb5565b73ffffffffffffffffffffffffffffffffffffffff82166142335760405162461bcd60e51b815260206004820152601960248201527f455243323938313a20696e76616c6964207265636569766572000000000000006044820152606401610cb5565b6040805180820190915273ffffffffffffffffffffffffffffffffffffffff9092168083526bffffffffffffffffffffffff9091166020909201829052740100000000000000000000000000000000000000009091021761019655565b600081815261019560205260409081902080547fffffffffffffffffffffffffffffffffffffffffffffffffffffffffffffff00166001179055517f4d69b51fee53c28bd8b61fe008151577ca65160b5248f6225e74d64fd4cf732890610eec9083815260200190565b60006014361080159061432557506101915473ffffffffffffffffffffffffffffffffffffffff1633145b1561435557507fffffffffffffffffffffffffffffffffffffffffffffffffffffffffffffffec36013560601c90565b503390565b614362613287565b8061436c8161253c565b156143b95760405162461bcd60e51b815260206004820152600f60248201527f546f6b656e2069732066726f7a656e00000000000000000000000000000000006044820152606401610cb5565b6125ff565b73ffffffffffffffffffffffffffffffffffffffff81163b6144485760405162461bcd60e51b815260206004820152602d60248201527f455243313936373a206e657720696d706c656d656e746174696f6e206973206e60448201527f6f74206120636f6e7472616374000000000000000000000000000000000000006064820152608401610cb5565b7f360894a13ba1a3210667c828492db98dca3e2076cc3735a920a3ca505d382bbc80547fffffffffffffffffffffffff00000000000000000000000000000000000000001673ffffffffffffffffffffffffffffffffffffffff92909216919091179055565b6144b783614b31565b6000825111806144c45750805b15610d82576125ff8383614b7e565b60c95460ff166115935760405162461bcd60e51b815260206004820152601460248201527f5061757361626c653a206e6f74207061757365640000000000000000000000006044820152606401610cb5565b600061453082611ba2565b905061453e8160008461435a565b6145496000836130b5565b73ffffffffffffffffffffffffffffffffffffffff8116600090815260686020526040812080546001929061457f908490615703565b909155505060008281526067602052604080822080547fffffffffffffffffffffffff00000000000000000000000000000000000000001690555183919073ffffffffffffffffffffffffffffffffffffffff8416907fddf252ad1be2c89b69c2b068fc378daa952ba7f163c4a11628f55a4df523b3ef908390a45050565b73ffffffffffffffffffffffffffffffffffffffff82166146615760405162461bcd60e51b815260206004820181905260248201527f4552433732313a206d696e7420746f20746865207a65726f20616464726573736044820152606401610cb5565b60008181526067602052604090205473ffffffffffffffffffffffffffffffffffffffff16156146d35760405162461bcd60e51b815260206004820152601c60248201527f4552433732313a20746f6b656e20616c7265616479206d696e746564000000006044820152606401610cb5565b6146df6000838361435a565b73ffffffffffffffffffffffffffffffffffffffff821660009081526068602052604081208054600192906147159084906155fe565b909155505060008181526067602052604080822080547fffffffffffffffffffffffff00000000000000000000000000000000000000001673ffffffffffffffffffffffffffffffffffffffff861690811790915590518392907fddf252ad1be2c89b69c2b068fc378daa952ba7f163c4a11628f55a4df523b3ef908290a45050565b600073ffffffffffffffffffffffffffffffffffffffff84163b15614951578373ffffffffffffffffffffffffffffffffffffffff1663150b7a026147db6130a6565b8786866040518563ffffffff1660e01b81526004016147fd9493929190615747565b6020604051808303816000875af1925050508015614856575060408051601f3d9081017fffffffffffffffffffffffffffffffffffffffffffffffffffffffffffffffe016820190925261485391810190615790565b60015b614906573d808015614884576040519150601f19603f3d011682016040523d82523d6000602084013e614889565b606091505b5080516148fe5760405162461bcd60e51b815260206004820152603260248201527f4552433732313a207472616e7366657220746f206e6f6e20455243373231526560448201527f63656976657220696d706c656d656e74657200000000000000000000000000006064820152608401610cb5565b805181602001fd5b7fffffffff00000000000000000000000000000000000000000000000000000000167f150b7a02000000000000000000000000000000000000000000000000000000001490506122ef565b5060016122ef565b600054610100900460ff166149d65760405162461bcd60e51b815260206004820152602b60248201527f496e697469616c697a61626c653a20636f6e7472616374206973206e6f74206960448201527f6e697469616c697a696e670000000000000000000000000000000000000000006064820152608401610cb5565b81516149e9906065906020850190614cdc565b508051610d82906066906020840190614cdc565b600054610100900460ff16614a7a5760405162461bcd60e51b815260206004820152602b60248201527f496e697469616c697a61626c653a20636f6e7472616374206973206e6f74206960448201527f6e697469616c697a696e670000000000000000000000000000000000000000006064820152608401610cb5565b60c980547fffffffffffffffffffffffffffffffffffffffffffffffffffffffffffffff00169055565b600054610100900460ff16614b215760405162461bcd60e51b815260206004820152602b60248201527f496e697469616c697a61626c653a20636f6e7472616374206973206e6f74206960448201527f6e697469616c697a696e670000000000000000000000000000000000000000006064820152608401610cb5565b611593614b2c6130a6565b613b83565b614b3a816143be565b60405173ffffffffffffffffffffffffffffffffffffffff8216907fbc7cd75a20ee27fd9adebab32041f755214dbc6bffa90cc0225b39da2e5c2d3b90600090a250565b606073ffffffffffffffffffffffffffffffffffffffff83163b614c0a5760405162461bcd60e51b815260206004820152602660248201527f416464726573733a2064656c65676174652063616c6c20746f206e6f6e2d636f60448201527f6e747261637400000000000000000000000000000000000000000000000000006064820152608401610cb5565b6000808473ffffffffffffffffffffffffffffffffffffffff1684604051614c3291906157ad565b600060405180830381855af49150503d8060008114614c6d576040519150601f19603f3d011682016040523d82523d6000602084013e614c72565b606091505b5091509150614c9a82826040518060600160405280602781526020016157ca60279139614ca3565b95945050505050565b60608315614cb2575081612d57565b825115614cc25782518084602001fd5b8160405162461bcd60e51b8152600401610cb59190614e36565b828054614ce890615405565b90600052602060002090601f016020900481019282614d0a5760008555614d50565b82601f10614d2357805160ff1916838001178555614d50565b82800160010185558215614d50579182015b82811115614d50578251825591602001919060010190614d35565b50614d5c929150614d60565b5090565b5b80821115614d5c5760008155600101614d61565b7fffffffff00000000000000000000000000000000000000000000000000000000811681146114d757600080fd5b600060208284031215614db557600080fd5b8135612d5781614d75565b60005b83811015614ddb578181015183820152602001614dc3565b838111156125ff5750506000910152565b60008151808452614e04816020860160208601614dc0565b601f017fffffffffffffffffffffffffffffffffffffffffffffffffffffffffffffffe0169290920160200192915050565b602081526000612d576020830184614dec565b600060208284031215614e5b57600080fd5b5035919050565b803573ffffffffffffffffffffffffffffffffffffffff81168114614e8657600080fd5b919050565b60008060408385031215614e9e57600080fd5b614ea783614e62565b946020939093013593505050565b600060208284031215614ec757600080fd5b612d5782614e62565b600080600060608486031215614ee557600080fd5b614eee84614e62565b9250614efc60208501614e62565b9150604084013590509250925092565b60008060408385031215614f1f57600080fd5b50508035926020909101359150565b7f4e487b7100000000000000000000000000000000000000000000000000000000600052604160045260246000fd5b600082601f830112614f6e57600080fd5b813567ffffffffffffffff80821115614f8957614f89614f2e565b604051601f83017fffffffffffffffffffffffffffffffffffffffffffffffffffffffffffffffe0908116603f01168101908282118183101715614fcf57614fcf614f2e565b81604052838152866020858801011115614fe857600080fd5b836020870160208301376000602085830101528094505050505092915050565b6000806040838503121561501b57600080fd5b61502483614e62565b9150602083013567ffffffffffffffff81111561504057600080fd5b61504c85828601614f5d565b9150509250929050565b80356bffffffffffffffffffffffff81168114614e8657600080fd5b60008060006060848603121561508757600080fd5b8335925061509760208501614e62565b91506150a560408501615056565b90509250925092565b803567ffffffffffffffff81168114614e8657600080fd5b600080604083850312156150d957600080fd5b823591506150e9602084016150ae565b90509250929050565b60006020828403121561510457600080fd5b813567ffffffffffffffff81111561511b57600080fd5b6122ef84828501614f5d565b80358015158114614e8657600080fd5b6000806000806080858703121561514d57600080fd5b8435935061515d60208601614e62565b925061516b60408601615127565b9150615179606086016150ae565b905092959194509250565b60008083601f84011261519657600080fd5b50813567ffffffffffffffff8111156151ae57600080fd5b6020830191508360208260051b85010111156112e257600080fd5b6000806000806000608086880312156151e157600080fd5b85359450602086013567ffffffffffffffff8111156151ff57600080fd5b61520b88828901615184565b909550935061521e905060408701615127565b915061522c606087016150ae565b90509295509295909350565b6000806040838503121561524b57600080fd5b61525483614e62565b91506150e960208401615127565b6000806000806080858703121561527857600080fd5b61528185614e62565b935061528f60208601614e62565b925060408501359150606085013567ffffffffffffffff8111156152b257600080fd5b6152be87828801614f5d565b91505092959194509250565b600080600080606085870312156152e057600080fd5b843567ffffffffffffffff808211156152f857600080fd5b61530488838901614f5d565b9550602087013591508082111561531a57600080fd5b61532688838901614f5d565b9450604087013591508082111561533c57600080fd5b5061534987828801615184565b95989497509550505050565b6000806040838503121561536857600080fd5b61537183614e62565b91506150e960208401615056565b6000806040838503121561539257600080fd5b61539b83614e62565b91506150e960208401614e62565b6000806000806000608086880312156153c157600080fd5b853567ffffffffffffffff8111156153d857600080fd5b6153e488828901615184565b90965094506153f7905060208701614e62565b925061521e60408701615127565b600181811c9082168061541957607f821691505b60208210811415615453577f4e487b7100000000000000000000000000000000000000000000000000000000600052602260045260246000fd5b50919050565b8054600090600181811c908083168061547357607f831692505b60208084108214156154ae577f4e487b7100000000000000000000000000000000000000000000000000000000600052602260045260246000fd5b8180156154c257600181146154f15761551e565b7fffffffffffffffffffffffffffffffffffffffffffffffffffffffffffffff0086168952848901965061551e565b60008881526020902060005b868110156155165781548b8201529085019083016154fd565b505084890196505b50505050505092915050565b60006155368285615459565b8351615546818360208801614dc0565b01949350505050565b7f4e487b7100000000000000000000000000000000000000000000000000000000600052601160045260246000fd5b6000817fffffffffffffffffffffffffffffffffffffffffffffffffffffffffffffffff04831182151516156155b6576155b661554f565b500290565b7f4e487b7100000000000000000000000000000000000000000000000000000000600052601260045260246000fd5b6000826155f9576155f96155bb565b500490565b600082198211156156115761561161554f565b500190565b600067ffffffffffffffff8083168185168083038211156155465761554661554f565b7f4e487b7100000000000000000000000000000000000000000000000000000000600052603260045260246000fd5b60007fffffffffffffffffffffffffffffffffffffffffffffffffffffffffffffffff82141561569a5761569a61554f565b5060010190565b60006156ad8286615459565b84516156bd818360208901614dc0565b7f2f00000000000000000000000000000000000000000000000000000000000000910190815283516156f6816001840160208801614dc0565b0160010195945050505050565b6000828210156157155761571561554f565b500390565b600082615729576157296155bb565b500690565b60006020828403121561574057600080fd5b5051919050565b600073ffffffffffffffffffffffffffffffffffffffff8087168352808616602084015250836040830152608060608301526157866080830184614dec565b9695505050505050565b6000602082840312156157a257600080fd5b8151612d5781614d75565b600082516157bf818460208701614dc0565b919091019291505056fe416464726573733a206c6f772d6c6576656c2064656c65676174652063616c6c206661696c6564a26469706673582212200293ae0feebdfaee7f6ee2eb208265ffd54d1decf4941eccebeaf041b329918064736f6c634300080c0033",
  "linkReferences": {},
  "deployedLinkReferences": {}
}