{
  "_format": "hh-sol-artifact-1",
  "contractName": "UVCollectable",
  "sourceName": "contracts/UVCollectable.sol",
  "abi": [
    {
      "inputs": [],
      "stateMutability": "nonpayable",
      "type": "constructor"
    },
    {
      "inputs": [
        {
          "internalType": "address",
          "name": "operator",
          "type": "address"
        }
      ],
      "name": "OperatorNotAllowed",
      "type": "error"
    },
    {
      "anonymous": false,
      "inputs": [
        {
          "indexed": false,
          "internalType": "address",
          "name": "previousAdmin",
          "type": "address"
        },
        {
          "indexed": false,
          "internalType": "address",
          "name": "newAdmin",
          "type": "address"
        }
      ],
      "name": "AdminChanged",
      "type": "event"
    },
    {
      "anonymous": false,
      "inputs": [
        {
          "indexed": false,
          "internalType": "address",
          "name": "admin",
          "type": "address"
        },
        {
          "indexed": false,
          "internalType": "bool",
          "name": "added",
          "type": "bool"
        }
      ],
      "name": "AdminUpdated",
      "type": "event"
    },
    {
      "anonymous": false,
      "inputs": [
        {
          "indexed": true,
          "internalType": "address",
          "name": "owner",
          "type": "address"
        },
        {
          "indexed": true,
          "internalType": "address",
          "name": "approved",
          "type": "address"
        },
        {
          "indexed": true,
          "internalType": "uint256",
          "name": "tokenId",
          "type": "uint256"
        }
      ],
      "name": "Approval",
      "type": "event"
    },
    {
      "anonymous": false,
      "inputs": [
        {
          "indexed": true,
          "internalType": "address",
          "name": "owner",
          "type": "address"
        },
        {
          "indexed": true,
          "internalType": "address",
          "name": "operator",
          "type": "address"
        },
        {
          "indexed": false,
          "internalType": "bool",
          "name": "approved",
          "type": "bool"
        }
      ],
      "name": "ApprovalForAll",
      "type": "event"
    },
    {
      "anonymous": false,
      "inputs": [
        {
          "indexed": true,
          "internalType": "address",
          "name": "beacon",
          "type": "address"
        }
      ],
      "name": "BeaconUpgraded",
      "type": "event"
    },
    {
      "anonymous": false,
      "inputs": [
        {
          "indexed": false,
          "internalType": "uint8",
          "name": "version",
          "type": "uint8"
        }
      ],
      "name": "Initialized",
      "type": "event"
    },
    {
      "anonymous": false,
      "inputs": [
        {
          "indexed": false,
          "internalType": "uint256",
          "name": "tokenId",
          "type": "uint256"
        }
      ],
      "name": "Locked",
      "type": "event"
    },
    {
      "anonymous": false,
      "inputs": [
        {
          "indexed": true,
          "internalType": "address",
          "name": "previousOwner",
          "type": "address"
        },
        {
          "indexed": true,
          "internalType": "address",
          "name": "newOwner",
          "type": "address"
        }
      ],
      "name": "OwnershipTransferred",
      "type": "event"
    },
    {
      "anonymous": false,
      "inputs": [
        {
          "indexed": false,
          "internalType": "address",
          "name": "account",
          "type": "address"
        }
      ],
      "name": "Paused",
      "type": "event"
    },
    {
      "anonymous": false,
      "inputs": [
        {
          "indexed": true,
          "internalType": "uint256",
          "name": "tokenId",
          "type": "uint256"
        },
        {
          "indexed": false,
          "internalType": "uint64",
          "name": "expiration",
          "type": "uint64"
        }
      ],
      "name": "SubscriptionUpdate",
      "type": "event"
    },
    {
      "anonymous": false,
      "inputs": [
        {
          "indexed": true,
          "internalType": "address",
          "name": "from",
          "type": "address"
        },
        {
          "indexed": true,
          "internalType": "address",
          "name": "to",
          "type": "address"
        },
        {
          "indexed": true,
          "internalType": "uint256",
          "name": "tokenId",
          "type": "uint256"
        }
      ],
      "name": "Transfer",
      "type": "event"
    },
    {
      "anonymous": false,
      "inputs": [
        {
          "indexed": false,
          "internalType": "uint256",
          "name": "tokenId",
          "type": "uint256"
        }
      ],
      "name": "Unlocked",
      "type": "event"
    },
    {
      "anonymous": false,
      "inputs": [
        {
          "indexed": false,
          "internalType": "address",
          "name": "account",
          "type": "address"
        }
      ],
      "name": "Unpaused",
      "type": "event"
    },
    {
      "anonymous": false,
      "inputs": [
        {
          "indexed": true,
          "internalType": "address",
          "name": "implementation",
          "type": "address"
        }
      ],
      "name": "Upgraded",
      "type": "event"
    },
    {
      "inputs": [
        {
          "internalType": "address",
          "name": "newAdmin",
          "type": "address"
        }
      ],
      "name": "addAdmin",
      "outputs": [],
      "stateMutability": "nonpayable",
      "type": "function"
    },
    {
      "inputs": [
        {
          "internalType": "address",
          "name": "operator",
          "type": "address"
        },
        {
          "internalType": "uint256",
          "name": "tokenId",
          "type": "uint256"
        }
      ],
      "name": "approve",
      "outputs": [],
      "stateMutability": "nonpayable",
      "type": "function"
    },
    {
      "inputs": [
        {
          "internalType": "address",
          "name": "owner",
          "type": "address"
        }
      ],
      "name": "balanceOf",
      "outputs": [
        {
          "internalType": "uint256",
          "name": "",
          "type": "uint256"
        }
      ],
      "stateMutability": "view",
      "type": "function"
    },
    {
      "inputs": [
        {
          "internalType": "uint256",
          "name": "tokenId",
          "type": "uint256"
        }
      ],
      "name": "burn",
      "outputs": [],
      "stateMutability": "nonpayable",
      "type": "function"
    },
    {
      "inputs": [
        {
          "internalType": "uint256",
          "name": "tokenId",
          "type": "uint256"
        }
      ],
      "name": "cancelSubscription",
      "outputs": [],
      "stateMutability": "nonpayable",
      "type": "function"
    },
    {
      "inputs": [
        {
          "internalType": "uint256",
          "name": "collectionId",
          "type": "uint256"
        }
      ],
      "name": "collectionURI",
      "outputs": [
        {
          "internalType": "string",
          "name": "",
          "type": "string"
        }
      ],
      "stateMutability": "view",
      "type": "function"
    },
    {
      "inputs": [],
      "name": "contractURI",
      "outputs": [
        {
          "internalType": "string",
          "name": "",
          "type": "string"
        }
      ],
      "stateMutability": "view",
      "type": "function"
    },
    {
      "inputs": [
        {
          "internalType": "uint256",
          "name": "tokenId",
          "type": "uint256"
        }
      ],
      "name": "expiresAt",
      "outputs": [
        {
          "internalType": "uint64",
          "name": "",
          "type": "uint64"
        }
      ],
      "stateMutability": "view",
      "type": "function"
    },
    {
      "inputs": [
        {
          "internalType": "uint256",
          "name": "tokenId",
          "type": "uint256"
        }
      ],
      "name": "getApproved",
      "outputs": [
        {
          "internalType": "address",
          "name": "",
          "type": "address"
        }
      ],
      "stateMutability": "view",
      "type": "function"
    },
    {
      "inputs": [],
      "name": "getTrustedForwarder",
      "outputs": [
        {
          "internalType": "address",
          "name": "forwarder",
          "type": "address"
        }
      ],
      "stateMutability": "view",
      "type": "function"
    },
    {
      "inputs": [
        {
          "internalType": "string",
          "name": "__name",
          "type": "string"
        },
        {
          "internalType": "string",
          "name": "__symbol",
          "type": "string"
        },
        {
          "internalType": "string",
          "name": "__contractURI",
          "type": "string"
        },
        {
          "internalType": "address[]",
          "name": "__admins",
          "type": "address[]"
        }
      ],
      "name": "initialize",
      "outputs": [],
      "stateMutability": "nonpayable",
      "type": "function"
    },
    {
      "inputs": [
        {
          "internalType": "address",
          "name": "admin",
          "type": "address"
        }
      ],
      "name": "isAdmin",
      "outputs": [
        {
          "internalType": "bool",
          "name": "",
          "type": "bool"
        }
      ],
      "stateMutability": "view",
      "type": "function"
    },
    {
      "inputs": [
        {
          "internalType": "address",
          "name": "_owner",
          "type": "address"
        },
        {
          "internalType": "address",
          "name": "_operator",
          "type": "address"
        }
      ],
      "name": "isApprovedForAll",
      "outputs": [
        {
          "internalType": "bool",
          "name": "isOperator",
          "type": "bool"
        }
      ],
      "stateMutability": "view",
      "type": "function"
    },
    {
      "inputs": [
        {
          "internalType": "uint256",
          "name": "tokenId",
          "type": "uint256"
        }
      ],
      "name": "isLocked",
      "outputs": [
        {
          "internalType": "bool",
          "name": "",
          "type": "bool"
        }
      ],
      "stateMutability": "view",
      "type": "function"
    },
    {
      "inputs": [
        {
          "internalType": "uint256",
          "name": "",
          "type": "uint256"
        }
      ],
      "name": "isRenewable",
      "outputs": [
        {
          "internalType": "bool",
          "name": "",
          "type": "bool"
        }
      ],
      "stateMutability": "pure",
      "type": "function"
    },
    {
      "inputs": [
        {
          "internalType": "address",
          "name": "forwarder",
          "type": "address"
        }
      ],
      "name": "isTrustedForwarder",
      "outputs": [
        {
          "internalType": "bool",
          "name": "",
          "type": "bool"
        }
      ],
      "stateMutability": "view",
      "type": "function"
    },
    {
      "inputs": [],
      "name": "lastId",
      "outputs": [
        {
          "internalType": "uint256",
          "name": "",
          "type": "uint256"
        }
      ],
      "stateMutability": "view",
      "type": "function"
    },
    {
      "inputs": [
        {
          "internalType": "uint256",
          "name": "tokenId",
          "type": "uint256"
        }
      ],
      "name": "lockToken",
      "outputs": [],
      "stateMutability": "nonpayable",
      "type": "function"
    },
    {
      "inputs": [
        {
          "internalType": "uint256",
          "name": "collectionId",
          "type": "uint256"
        },
        {
          "internalType": "address[]",
          "name": "to",
          "type": "address[]"
        },
        {
          "internalType": "bool",
          "name": "locked",
          "type": "bool"
        },
        {
          "internalType": "uint64",
          "name": "validDuration",
          "type": "uint64"
        }
      ],
      "name": "mintCollectionToManyUsers",
      "outputs": [
        {
          "internalType": "bool",
          "name": "",
          "type": "bool"
        }
      ],
      "stateMutability": "nonpayable",
      "type": "function"
    },
    {
      "inputs": [
        {
          "internalType": "uint256",
          "name": "collectionId",
          "type": "uint256"
        },
        {
          "internalType": "address",
          "name": "to",
          "type": "address"
        },
        {
          "internalType": "bool",
          "name": "locked",
          "type": "bool"
        },
        {
          "internalType": "uint64",
          "name": "validDuration",
          "type": "uint64"
        }
      ],
      "name": "mintToken",
      "outputs": [
        {
          "internalType": "bool",
          "name": "",
          "type": "bool"
        }
      ],
      "stateMutability": "nonpayable",
      "type": "function"
    },
    {
      "inputs": [
        {
          "internalType": "uint256[]",
          "name": "collectionIds",
          "type": "uint256[]"
        },
        {
          "internalType": "address",
          "name": "to",
          "type": "address"
        },
        {
          "internalType": "bool",
          "name": "locked",
          "type": "bool"
        },
        {
          "internalType": "uint64",
          "name": "validDuration",
          "type": "uint64"
        }
      ],
      "name": "mintUserToManyCollections",
      "outputs": [
        {
          "internalType": "bool",
          "name": "",
          "type": "bool"
        }
      ],
      "stateMutability": "nonpayable",
      "type": "function"
    },
    {
      "inputs": [],
      "name": "name",
      "outputs": [
        {
          "internalType": "string",
          "name": "",
          "type": "string"
        }
      ],
      "stateMutability": "view",
      "type": "function"
    },
    {
      "inputs": [],
      "name": "owner",
      "outputs": [
        {
          "internalType": "address",
          "name": "",
          "type": "address"
        }
      ],
      "stateMutability": "view",
      "type": "function"
    },
    {
      "inputs": [
        {
          "internalType": "uint256",
          "name": "tokenId",
          "type": "uint256"
        }
      ],
      "name": "ownerOf",
      "outputs": [
        {
          "internalType": "address",
          "name": "",
          "type": "address"
        }
      ],
      "stateMutability": "view",
      "type": "function"
    },
    {
      "inputs": [],
      "name": "pause",
      "outputs": [],
      "stateMutability": "nonpayable",
      "type": "function"
    },
    {
      "inputs": [],
      "name": "paused",
      "outputs": [
        {
          "internalType": "bool",
          "name": "",
          "type": "bool"
        }
      ],
      "stateMutability": "view",
      "type": "function"
    },
    {
      "inputs": [],
      "name": "proxiableUUID",
      "outputs": [
        {
          "internalType": "bytes32",
          "name": "",
          "type": "bytes32"
        }
      ],
      "stateMutability": "view",
      "type": "function"
    },
    {
      "inputs": [
        {
          "internalType": "uint256",
          "name": "tokenId",
          "type": "uint256"
        },
        {
          "internalType": "address",
          "name": "recipient",
          "type": "address"
        }
      ],
      "name": "reclaimToken",
      "outputs": [],
      "stateMutability": "nonpayable",
      "type": "function"
    },
    {
      "inputs": [
        {
          "internalType": "address",
          "name": "admin",
          "type": "address"
        }
      ],
      "name": "removeAdmin",
      "outputs": [],
      "stateMutability": "nonpayable",
      "type": "function"
    },
    {
      "inputs": [
        {
          "internalType": "uint256",
          "name": "collectionId",
          "type": "uint256"
        }
      ],
      "name": "removeCollectionRoyalty",
      "outputs": [],
      "stateMutability": "nonpayable",
      "type": "function"
    },
    {
      "inputs": [],
      "name": "removeDefaultRoyalty",
      "outputs": [],
      "stateMutability": "nonpayable",
      "type": "function"
    },
    {
      "inputs": [
        {
          "internalType": "uint256",
          "name": "tokenId",
          "type": "uint256"
        },
        {
          "internalType": "uint64",
          "name": "duration",
          "type": "uint64"
        }
      ],
      "name": "renewSubscription",
      "outputs": [],
      "stateMutability": "nonpayable",
      "type": "function"
    },
    {
      "inputs": [],
      "name": "renounceOwnership",
      "outputs": [],
      "stateMutability": "nonpayable",
      "type": "function"
    },
    {
      "inputs": [
        {
          "internalType": "uint256",
          "name": "_tokenId",
          "type": "uint256"
        },
        {
          "internalType": "uint256",
          "name": "_salePrice",
          "type": "uint256"
        }
      ],
      "name": "royaltyInfo",
      "outputs": [
        {
          "internalType": "address",
          "name": "",
          "type": "address"
        },
        {
          "internalType": "uint256",
          "name": "",
          "type": "uint256"
        }
      ],
      "stateMutability": "view",
      "type": "function"
    },
    {
      "inputs": [
        {
          "internalType": "address",
          "name": "from",
          "type": "address"
        },
        {
          "internalType": "address",
          "name": "to",
          "type": "address"
        },
        {
          "internalType": "uint256",
          "name": "tokenId",
          "type": "uint256"
        }
      ],
      "name": "safeTransferFrom",
      "outputs": [],
      "stateMutability": "nonpayable",
      "type": "function"
    },
    {
      "inputs": [
        {
          "internalType": "address",
          "name": "from",
          "type": "address"
        },
        {
          "internalType": "address",
          "name": "to",
          "type": "address"
        },
        {
          "internalType": "uint256",
          "name": "tokenId",
          "type": "uint256"
        },
        {
          "internalType": "bytes",
          "name": "data",
          "type": "bytes"
        }
      ],
      "name": "safeTransferFrom",
      "outputs": [],
      "stateMutability": "nonpayable",
      "type": "function"
    },
    {
      "inputs": [
        {
          "internalType": "address",
          "name": "operator",
          "type": "address"
        },
        {
          "internalType": "bool",
          "name": "approved",
          "type": "bool"
        }
      ],
      "name": "setApprovalForAll",
      "outputs": [],
      "stateMutability": "nonpayable",
      "type": "function"
    },
    {
      "inputs": [
        {
          "internalType": "uint256",
          "name": "tokenId",
          "type": "uint256"
        },
        {
          "internalType": "uint64",
          "name": "newExpiration",
          "type": "uint64"
        }
      ],
      "name": "setExpiration",
      "outputs": [],
      "stateMutability": "nonpayable",
      "type": "function"
    },
    {
      "inputs": [
        {
          "internalType": "uint256",
          "name": "newLastId",
          "type": "uint256"
        }
      ],
      "name": "setLastId",
      "outputs": [],
      "stateMutability": "nonpayable",
      "type": "function"
    },
    {
      "inputs": [
        {
          "internalType": "address",
          "name": "forwarder",
          "type": "address"
        }
      ],
      "name": "setTurstedForwarder",
      "outputs": [],
      "stateMutability": "nonpayable",
      "type": "function"
    },
    {
      "inputs": [
        {
          "internalType": "bytes4",
          "name": "interfaceId",
          "type": "bytes4"
        }
      ],
      "name": "supportsInterface",
      "outputs": [
        {
          "internalType": "bool",
          "name": "",
          "type": "bool"
        }
      ],
      "stateMutability": "view",
      "type": "function"
    },
    {
      "inputs": [],
      "name": "symbol",
      "outputs": [
        {
          "internalType": "string",
          "name": "",
          "type": "string"
        }
      ],
      "stateMutability": "view",
      "type": "function"
    },
    {
      "inputs": [
        {
          "internalType": "uint256",
          "name": "tokenId",
          "type": "uint256"
        }
      ],
      "name": "tokenCollection",
      "outputs": [
        {
          "internalType": "uint256",
          "name": "",
          "type": "uint256"
        }
      ],
      "stateMutability": "view",
      "type": "function"
    },
    {
      "inputs": [
        {
          "internalType": "uint256",
          "name": "tokenId",
          "type": "uint256"
        }
      ],
      "name": "tokenURI",
      "outputs": [
        {
          "internalType": "string",
          "name": "",
          "type": "string"
        }
      ],
      "stateMutability": "view",
      "type": "function"
    },
    {
      "inputs": [
        {
          "internalType": "address",
          "name": "from",
          "type": "address"
        },
        {
          "internalType": "address",
          "name": "to",
          "type": "address"
        },
        {
          "internalType": "uint256",
          "name": "tokenId",
          "type": "uint256"
        }
      ],
      "name": "transferFrom",
      "outputs": [],
      "stateMutability": "nonpayable",
      "type": "function"
    },
    {
      "inputs": [
        {
          "internalType": "address",
          "name": "newOwner",
          "type": "address"
        }
      ],
      "name": "transferOwnership",
      "outputs": [],
      "stateMutability": "nonpayable",
      "type": "function"
    },
    {
      "inputs": [
        {
          "internalType": "uint256",
          "name": "tokenId",
          "type": "uint256"
        }
      ],
      "name": "unlockToken",
      "outputs": [],
      "stateMutability": "nonpayable",
      "type": "function"
    },
    {
      "inputs": [],
      "name": "unpause",
      "outputs": [],
      "stateMutability": "nonpayable",
      "type": "function"
    },
    {
      "inputs": [
        {
          "internalType": "uint256",
          "name": "collectionId",
          "type": "uint256"
        },
        {
          "internalType": "address",
          "name": "receiver",
          "type": "address"
        },
        {
          "internalType": "uint96",
          "name": "feeNumerator",
          "type": "uint96"
        }
      ],
      "name": "updateCollectionRoyalty",
      "outputs": [],
      "stateMutability": "nonpayable",
      "type": "function"
    },
    {
      "inputs": [
        {
          "internalType": "string",
          "name": "__contractURI",
          "type": "string"
        }
      ],
      "name": "updateContractURI",
      "outputs": [],
      "stateMutability": "nonpayable",
      "type": "function"
    },
    {
      "inputs": [
        {
          "internalType": "address",
          "name": "receiver",
          "type": "address"
        },
        {
          "internalType": "uint96",
          "name": "feeNumerator",
          "type": "uint96"
        }
      ],
      "name": "updateDefaultRoyalty",
      "outputs": [],
      "stateMutability": "nonpayable",
      "type": "function"
    },
    {
      "inputs": [
        {
          "internalType": "string",
          "name": "newName",
          "type": "string"
        }
      ],
      "name": "updateName",
      "outputs": [],
      "stateMutability": "nonpayable",
      "type": "function"
    },
    {
      "inputs": [
        {
          "internalType": "string",
          "name": "newSymbol",
          "type": "string"
        }
      ],
      "name": "updateSymbol",
      "outputs": [],
      "stateMutability": "nonpayable",
      "type": "function"
    },
    {
      "inputs": [
        {
          "internalType": "uint256",
          "name": "tokenId",
          "type": "uint256"
        },
        {
          "internalType": "uint256",
          "name": "newCollectionId",
          "type": "uint256"
        }
      ],
      "name": "updateTokenCollection",
      "outputs": [],
      "stateMutability": "nonpayable",
      "type": "function"
    },
    {
      "inputs": [
        {
          "internalType": "address",
          "name": "newImplementation",
          "type": "address"
        }
      ],
      "name": "upgradeTo",
      "outputs": [],
      "stateMutability": "nonpayable",
      "type": "function"
    },
    {
      "inputs": [
        {
          "internalType": "address",
          "name": "newImplementation",
          "type": "address"
        },
        {
          "internalType": "bytes",
          "name": "data",
          "type": "bytes"
        }
      ],
      "name": "upgradeToAndCall",
      "outputs": [],
      "stateMutability": "payable",
      "type": "function"
    },
    {
      "inputs": [],
      "name": "version",
      "outputs": [
        {
          "internalType": "uint16",
          "name": "",
          "type": "uint16"
        }
      ],
      "stateMutability": "view",
      "type": "function"
    }
  ],
  "bytecode": "0x60a0604052306080523480156200001557600080fd5b506200002062000026565b620000e8565b600054610100900460ff1615620000935760405162461bcd60e51b815260206004820152602760248201527f496e697469616c697a61626c653a20636f6e747261637420697320696e697469604482015266616c697a696e6760c81b606482015260840160405180910390fd5b60005460ff9081161015620000e6576000805460ff191660ff9081179091556040519081527f7f26b83ff96e1f2b6a682f133852f6798a09c465da95921460cefb38474024989060200160405180910390a15b565b608051615dca62000120600039600081816112f90152818161138f015281816116b40152818161174a01526118450152615dca6000f3fe6080604052600436106103765760003560e01c8063715018a6116101d1578063c1292cc311610102578063d953e4d4116100a0578063f2fde38b1161006f578063f2fde38b14610a5e578063f6aacfb114610a7e578063fb1fcca114610aaf578063fe94630914610acf57600080fd5b8063d953e4d4146109e9578063dd2e0ac014610a09578063e8a3d48514610a29578063e985e9c514610a3e57600080fd5b8063ce1b815f116100dc578063ce1b815f1461096a578063cea0302e14610989578063d1c332de146109a9578063d691e43c146109c957600080fd5b8063c1292cc314610912578063c87b56dd14610929578063cde317af1461094957600080fd5b80638da5cb5b1161016f57806397ec4fba1161014957806397ec4fba1461089d5780639a80c5e3146108b2578063a22cb465146108d2578063b88d4fde146108f257600080fd5b80638da5cb5b1461084a5780638e45d62e1461086857806395d89b411461088857600080fd5b806380f20363116101ab57806380f20363146107d55780638456cb59146107f557806384da92a71461080a5780638d2320941461082a57600080fd5b8063715018a614610780578063776ce868146107955780637e5b1e24146107b557600080fd5b80633f4ba83a116102ab578063572b6c05116102495780636352211e116102235780636352211e146107005780636a662a3c14610720578063704802751461074057806370a082311461076057600080fd5b8063572b6c051461069857806359ce12ad146106c85780635c975abb146106e857600080fd5b80634f1ef286116102855780634f1ef2861461062157806352d1902d14610634578063537f53121461064957806354fd4d501461066957600080fd5b80633f4ba83a146105cc57806342842e0e146105e157806342966c681461060157600080fd5b80631a27e85f1161031857806324d7806c116102f257806324d7806c146105055780632a55205a1461053f5780632dd883e81461057e5780633659cfe6146105ac57600080fd5b80631a27e85f146104a557806321235083146104c557806323b872dd146104e557600080fd5b8063095ea7b311610354578063095ea7b31461040a5780631771c96c1461042c5780631785f53c1461044c57806317c957091461046c57600080fd5b806301ffc9a71461037b57806306fdde03146103b0578063081812fc146103d2575b600080fd5b34801561038757600080fd5b5061039b6103963660046152e8565b610aef565b60405190151581526020015b60405180910390f35b3480156103bc57600080fd5b506103c5610b97565b6040516103a7919061537b565b3480156103de57600080fd5b506103f26103ed36600461538e565b610c2a565b6040516001600160a01b0390911681526020016103a7565b34801561041657600080fd5b5061042a6104253660046153c3565b610c51565b005b34801561043857600080fd5b506103c561044736600461538e565b610d51565b34801561045857600080fd5b5061042a6104673660046153ed565b610d86565b34801561047857600080fd5b5061048c61048736600461538e565b610e8d565b60405167ffffffffffffffff90911681526020016103a7565b3480156104b157600080fd5b5061042a6104c036600461538e565b610eb6565b3480156104d157600080fd5b5061042a6104e036600461538e565b610fa0565b3480156104f157600080fd5b5061042a610500366004615408565b611096565b34801561051157600080fd5b5061039b6105203660046153ed565b6001600160a01b0316600090815261019c602052604090205460ff1690565b34801561054b57600080fd5b5061055f61055a366004615444565b6111dc565b604080516001600160a01b0390931683526020830191909152016103a7565b34801561058a57600080fd5b5061059e61059936600461538e565b6112cf565b6040519081526020016103a7565b3480156105b857600080fd5b5061042a6105c73660046153ed565b6112ee565b3480156105d857600080fd5b5061042a61148c565b3480156105ed57600080fd5b5061042a6105fc366004615408565b611520565b34801561060d57600080fd5b5061042a61061c36600461538e565b61161d565b61042a61062f366004615540565b6116a9565b34801561064057600080fd5b5061059e611838565b34801561065557600080fd5b5061042a61066436600461558e565b6118fd565b34801561067557600080fd5b50610194546106859061ffff1681565b60405161ffff90911681526020016103a7565b3480156106a457600080fd5b5061039b6106b33660046153ed565b610191546001600160a01b0391821691161490565b3480156106d457600080fd5b5061042a6106e33660046155c3565b61199b565b3480156106f457600080fd5b5060c95460ff1661039b565b34801561070c57600080fd5b506103f261071b36600461538e565b611a4a565b34801561072c57600080fd5b5061042a61073b36600461560b565b611aaf565b34801561074c57600080fd5b5061042a61075b3660046153ed565b611b44565b34801561076c57600080fd5b5061059e61077b3660046153ed565b611cc3565b34801561078c57600080fd5b5061042a611d5d565b3480156107a157600080fd5b5061042a6107b036600461565f565b611d6f565b3480156107c157600080fd5b5061042a6107d036600461558e565b611e0c565b3480156107e157600080fd5b5061042a6107f036600461538e565b611eaa565b34801561080157600080fd5b5061042a612006565b34801561081657600080fd5b5061042a61082536600461558e565b612098565b34801561083657600080fd5b5061042a6108453660046156c7565b612136565b34801561085657600080fd5b5060fb546001600160a01b03166103f2565b34801561087457600080fd5b5061039b610883366004615789565b61237f565b34801561089457600080fd5b506103c5612449565b3480156108a957600080fd5b5061042a612459565b3480156108be57600080fd5b5061039b6108cd3660046157d8565b6124ee565b3480156108de57600080fd5b5061042a6108ed366004615848565b6126af565b3480156108fe57600080fd5b5061042a61090d36600461587f565b6127a5565b34801561091e57600080fd5b5061059e6101965481565b34801561093557600080fd5b506103c561094436600461538e565b6128b0565b34801561095557600080fd5b5061039b61096436600461538e565b50600190565b34801561097657600080fd5b50610191546001600160a01b03166103f2565b34801561099557600080fd5b5061042a6109a43660046153ed565b6128fd565b3480156109b557600080fd5b5061042a6109c436600461565f565b6129be565b3480156109d557600080fd5b5061042a6109e43660046158e7565b612acf565b3480156109f557600080fd5b5061042a610a0436600461538e565b612b63565b348015610a1557600080fd5b5061042a610a2436600461538e565b612bff565b348015610a3557600080fd5b506103c5612ca3565b348015610a4a57600080fd5b5061039b610a59366004615911565b612d32565b348015610a6a57600080fd5b5061042a610a793660046153ed565b612db1565b348015610a8a57600080fd5b5061039b610a9936600461538e565b6000908152610198602052604090205460ff1690565b348015610abb57600080fd5b5061039b610aca36600461593b565b612e3e565b348015610adb57600080fd5b5061042a610aea366004615444565b612fd2565b60007fffffffff0000000000000000000000000000000000000000000000000000000082167f8c65f84d000000000000000000000000000000000000000000000000000000001480610b8257507fffffffff0000000000000000000000000000000000000000000000000000000082167f2a55205a00000000000000000000000000000000000000000000000000000000145b80610b915750610b9182613080565b92915050565b60606101928054610ba790615999565b80601f0160208091040260200160405190810160405280929190818152602001828054610bd390615999565b8015610c205780601f10610bf557610100808354040283529160200191610c20565b820191906000526020600020905b815481529060010190602001808311610c0357829003601f168201915b5050505050905090565b6000610c3582613163565b506000908152606960205260409020546001600160a01b031690565b816daaeb6d7670e522a718067333cd4e3b15610d42576040517fc61711340000000000000000000000000000000000000000000000000000000081523060048201526001600160a01b03821660248201526daaeb6d7670e522a718067333cd4e9063c617113490604401602060405180830381865afa158015610cd8573d6000803e3d6000fd5b505050506040513d601f19601f82011682018060405250810190610cfc91906159ed565b610d42576040517fede71dcc0000000000000000000000000000000000000000000000000000000081526001600160a01b03821660048201526024015b60405180910390fd5b610d4c83836131c7565b505050565b6060610195610d5f83613306565b604051602001610d70929190615adb565b6040516020818303038152906040529050919050565b610d8e613438565b6001600160a01b0316610da960fb546001600160a01b031690565b6001600160a01b03161480610dc45750610dc4610520613438565b610e105760405162461bcd60e51b815260206004820152601c60248201527f63616c6c6572206973206e6f74206f776e6572206f722061646d696e000000006044820152606401610d39565b6001600160a01b038116600081815261019c6020908152604080832080547fffffffffffffffffffffffffffffffffffffffffffffffffffffffffffffff001690558051938452908301919091527f235bc17e7930760029e9f4d860a2a8089976de5b381cf8380fc11c1d88a1113391015b60405180910390a150565b6000610e9882613163565b50600090815261019b602052604090205467ffffffffffffffff1690565b610ebe613438565b6001600160a01b0316610ed960fb546001600160a01b031690565b6001600160a01b03161480610ef45750610ef4610520613438565b610f405760405162461bcd60e51b815260206004820152601c60248201527f63616c6c6572206973206e6f74206f776e6572206f722061646d696e000000006044820152606401610d39565b610f48613447565b806101965410610f9a5760405162461bcd60e51b815260206004820152601760248201527f4e65772049642068617320746f206265206869676865720000000000000000006044820152606401610d39565b61019655565b610fa8613438565b6001600160a01b0316610fc360fb546001600160a01b031690565b6001600160a01b03161480610fde5750610fde610520613438565b61102a5760405162461bcd60e51b815260206004820152601c60248201527f63616c6c6572206973206e6f74206f776e6572206f722061646d696e000000006044820152606401610d39565b600081815261019b6020908152604080832080547fffffffffffffffffffffffffffffffffffffffffffffffff00000000000000001690555191825282917f2ec2be2c4b90c2cf13ecb6751a24daed6bb741ae5ed3f7371aabf9402f6d62e8910160405180910390a250565b826daaeb6d7670e522a718067333cd4e3b156111cb576110b4613438565b6001600160a01b0316816001600160a01b031614156110dd576110d884848461349a565b6111d6565b6daaeb6d7670e522a718067333cd4e63c6171134306110fa613438565b6040517fffffffff0000000000000000000000000000000000000000000000000000000060e085901b1681526001600160a01b03928316600482015291166024820152604401602060405180830381865afa15801561115d573d6000803e3d6000fd5b505050506040513d601f19601f8201168201806040525081019061118191906159ed565b6111cb5761118d613438565b6040517fede71dcc0000000000000000000000000000000000000000000000000000000081526001600160a01b039091166004820152602401610d39565b6111d684848461349a565b50505050565b60008060006111ea856112cf565b600081815261019a60209081526040918290208251808401909352546001600160a01b038116808452740100000000000000000000000000000000000000009091046bffffffffffffffffffffffff169183019190915291925090611290575060408051808201909152610199546001600160a01b03811682527401000000000000000000000000000000000000000090046bffffffffffffffffffffffff1660208201525b6020810151600090612710906112b4906bffffffffffffffffffffffff1688615b2f565b6112be9190615b9b565b9151945090925050505b9250929050565b60006112da82613163565b506000908152610197602052604090205490565b306001600160a01b037f000000000000000000000000000000000000000000000000000000000000000016141561138d5760405162461bcd60e51b815260206004820152602c60248201527f46756e6374696f6e206d7573742062652063616c6c6564207468726f7567682060448201527f64656c656761746563616c6c00000000000000000000000000000000000000006064820152608401610d39565b7f00000000000000000000000000000000000000000000000000000000000000006001600160a01b03166113e87f360894a13ba1a3210667c828492db98dca3e2076cc3735a920a3ca505d382bbc546001600160a01b031690565b6001600160a01b0316146114645760405162461bcd60e51b815260206004820152602c60248201527f46756e6374696f6e206d7573742062652063616c6c6564207468726f7567682060448201527f6163746976652070726f787900000000000000000000000000000000000000006064820152608401610d39565b61146d81613522565b60408051600080825260208201909252611489918391906135ac565b50565b611494613438565b6001600160a01b03166114af60fb546001600160a01b031690565b6001600160a01b031614806114ca57506114ca610520613438565b6115165760405162461bcd60e51b815260206004820152601c60248201527f63616c6c6572206973206e6f74206f776e6572206f722061646d696e000000006044820152606401610d39565b61151e61376a565b565b826daaeb6d7670e522a718067333cd4e3b156116125761153e613438565b6001600160a01b0316816001600160a01b03161415611562576110d88484846137e0565b6daaeb6d7670e522a718067333cd4e63c61711343061157f613438565b6040517fffffffff0000000000000000000000000000000000000000000000000000000060e085901b1681526001600160a01b03928316600482015291166024820152604401602060405180830381865afa1580156115e2573d6000803e3d6000fd5b505050506040513d601f19601f8201168201806040525081019061160691906159ed565b6116125761118d613438565b6111d68484846137e0565b61162e611628613438565b826137fb565b6116a05760405162461bcd60e51b815260206004820152602e60248201527f4552433732313a2063616c6c6572206973206e6f7420746f6b656e206f776e6560448201527f72206e6f7220617070726f7665640000000000000000000000000000000000006064820152608401610d39565b61148981613859565b306001600160a01b037f00000000000000000000000000000000000000000000000000000000000000001614156117485760405162461bcd60e51b815260206004820152602c60248201527f46756e6374696f6e206d7573742062652063616c6c6564207468726f7567682060448201527f64656c656761746563616c6c00000000000000000000000000000000000000006064820152608401610d39565b7f00000000000000000000000000000000000000000000000000000000000000006001600160a01b03166117a37f360894a13ba1a3210667c828492db98dca3e2076cc3735a920a3ca505d382bbc546001600160a01b031690565b6001600160a01b03161461181f5760405162461bcd60e51b815260206004820152602c60248201527f46756e6374696f6e206d7573742062652063616c6c6564207468726f7567682060448201527f6163746976652070726f787900000000000000000000000000000000000000006064820152608401610d39565b61182882613522565b611834828260016135ac565b5050565b6000306001600160a01b037f000000000000000000000000000000000000000000000000000000000000000016146118d85760405162461bcd60e51b815260206004820152603860248201527f555550535570677261646561626c653a206d757374206e6f742062652063616c60448201527f6c6564207468726f7567682064656c656761746563616c6c00000000000000006064820152608401610d39565b507f360894a13ba1a3210667c828492db98dca3e2076cc3735a920a3ca505d382bbc90565b611905613438565b6001600160a01b031661192060fb546001600160a01b031690565b6001600160a01b0316148061193b575061193b610520613438565b6119875760405162461bcd60e51b815260206004820152601c60248201527f63616c6c6572206973206e6f74206f776e6572206f722061646d696e000000006044820152606401610d39565b805161183490610193906020840190615221565b6119a3613438565b6001600160a01b03166119be60fb546001600160a01b031690565b6001600160a01b031614806119d957506119d9610520613438565b611a255760405162461bcd60e51b815260206004820152601c60248201527f63616c6c6572206973206e6f74206f776e6572206f722061646d696e000000006044820152606401610d39565b611a2e826138d5565b611a378261393d565b611834611a4383611a4a565b82846139a4565b6000818152606760205260408120546001600160a01b031680610b915760405162461bcd60e51b815260206004820152601860248201527f4552433732313a20696e76616c696420746f6b656e20494400000000000000006044820152606401610d39565b611ab7613438565b6001600160a01b0316611ad260fb546001600160a01b031690565b6001600160a01b03161480611aed5750611aed610520613438565b611b395760405162461bcd60e51b815260206004820152601c60248201527f63616c6c6572206973206e6f74206f776e6572206f722061646d696e000000006044820152606401610d39565b610d4c838383613b94565b611b4c613438565b6001600160a01b0316611b6760fb546001600160a01b031690565b6001600160a01b03161480611b825750611b82610520613438565b611bce5760405162461bcd60e51b815260206004820152601c60248201527f63616c6c6572206973206e6f74206f776e6572206f722061646d696e000000006044820152606401610d39565b6001600160a01b038116611c495760405162461bcd60e51b8152602060048201526024808201527f4e65772061646d696e2063616e6e6f7420626520746865207a65726f2061646460448201527f72657373000000000000000000000000000000000000000000000000000000006064820152608401610d39565b6001600160a01b038116600081815261019c602090815260409182902080547fffffffffffffffffffffffffffffffffffffffffffffffffffffffffffffff001660019081179091558251938452908301527f235bc17e7930760029e9f4d860a2a8089976de5b381cf8380fc11c1d88a111339101610e82565b60006001600160a01b038216611d415760405162461bcd60e51b815260206004820152602960248201527f4552433732313a2061646472657373207a65726f206973206e6f74206120766160448201527f6c6964206f776e657200000000000000000000000000000000000000000000006064820152608401610d39565b506001600160a01b031660009081526068602052604090205490565b611d65613cd1565b61151e6000613d4a565b611d77613438565b6001600160a01b0316611d9260fb546001600160a01b031690565b6001600160a01b03161480611dad5750611dad610520613438565b611df95760405162461bcd60e51b815260206004820152601c60248201527f63616c6c6572206973206e6f74206f776e6572206f722061646d696e000000006044820152606401610d39565b611e0282613163565b6118348282613db4565b611e14613438565b6001600160a01b0316611e2f60fb546001600160a01b031690565b6001600160a01b03161480611e4a5750611e4a610520613438565b611e965760405162461bcd60e51b815260206004820152601c60248201527f63616c6c6572206973206e6f74206f776e6572206f722061646d696e000000006044820152606401610d39565b805161183490610195906020840190615221565b611eb2613447565b6040517ff6aacfb1000000000000000000000000000000000000000000000000000000008152600481018290528190309063f6aacfb190602401602060405180830381865afa158015611f09573d6000803e3d6000fd5b505050506040513d601f19601f82011682018060405250810190611f2d91906159ed565b15611f7a5760405162461bcd60e51b815260206004820152600f60248201527f546f6b656e206973206c6f636b656400000000000000000000000000000000006044820152606401610d39565b611f8b611f85613438565b836137fb565b611ffd5760405162461bcd60e51b815260206004820152602560248201527f63616c6c6572206973206e6f7420746f6b656e206f776e6572206f722061707060448201527f726f7665640000000000000000000000000000000000000000000000000000006064820152608401610d39565b61183482613e72565b61200e613438565b6001600160a01b031661202960fb546001600160a01b031690565b6001600160a01b031614806120445750612044610520613438565b6120905760405162461bcd60e51b815260206004820152601c60248201527f63616c6c6572206973206e6f74206f776e6572206f722061646d696e000000006044820152606401610d39565b61151e613edc565b6120a0613438565b6001600160a01b03166120bb60fb546001600160a01b031690565b6001600160a01b031614806120d657506120d6610520613438565b6121225760405162461bcd60e51b815260206004820152601c60248201527f63616c6c6572206973206e6f74206f776e6572206f722061646d696e000000006044820152606401610d39565b805161183490610192906020840190615221565b600054610100900460ff16158080156121565750600054600160ff909116105b806121705750303b158015612170575060005460ff166001145b6121e25760405162461bcd60e51b815260206004820152602e60248201527f496e697469616c697a61626c653a20636f6e747261637420697320616c72656160448201527f647920696e697469616c697a65640000000000000000000000000000000000006064820152608401610d39565b600080547fffffffffffffffffffffffffffffffffffffffffffffffffffffffffffffff00166001179055801561224057600080547fffffffffffffffffffffffffffffffffffffffffffffffffffffffffffff00ff166101001790555b61224a8686613f38565b612252613fbf565b61225a614044565b6122626140c9565b61226a6140c9565b612272614146565b855161228690610192906020890190615221565b50845161229b90610193906020880190615221565b5061019480547fffffffffffffffffffffffffffffffffffffffffffffffffffffffffffff00001690556122ce84611e0c565b60005b82811015612313576123038484838181106122ee576122ee615baf565b905060200201602081019061075b91906153ed565b61230c81615bde565b90506122d1565b50801561237757600080547fffffffffffffffffffffffffffffffffffffffffffffffffffffffffffff00ff169055604051600181527f7f26b83ff96e1f2b6a682f133852f6798a09c465da95921460cefb38474024989060200160405180910390a15b505050505050565b6000612389613447565b612391613438565b6001600160a01b03166123ac60fb546001600160a01b031690565b6001600160a01b031614806123c757506123c7610520613438565b6124135760405162461bcd60e51b815260206004820152601c60248201527f63616c6c6572206973206e6f74206f776e6572206f722061646d696e000000006044820152606401610d39565b600161019660008282546124279190615c17565b9250508190555061243e85610196548686866141e2565b90505b949350505050565b60606101938054610ba790615999565b612461613438565b6001600160a01b031661247c60fb546001600160a01b031690565b6001600160a01b031614806124975750612497610520613438565b6124e35760405162461bcd60e51b815260206004820152601c60248201527f63616c6c6572206973206e6f74206f776e6572206f722061646d696e000000006044820152606401610d39565b61151e600061019955565b60006124f8613447565b612500613438565b6001600160a01b031661251b60fb546001600160a01b031690565b6001600160a01b031614806125365750612536610520613438565b6125825760405162461bcd60e51b815260206004820152601c60248201527f63616c6c6572206973206e6f74206f776e6572206f722061646d696e000000006044820152606401610d39565b67ffffffffffffffff82161561261e5760008061259f8442615c2f565b905060005b8681101561261657806101965460016125bd9190615c17565b6125c79190615c17565b92506125fb89848a8a858181106125e0576125e0615baf565b90506020020160208101906125f591906153ed565b89614235565b5061260683836129be565b61260f81615bde565b90506125a4565b505050612688565b60005b8481101561268657612675878261019654600161263e9190615c17565b6126489190615c17565b88888581811061265a5761265a615baf565b905060200201602081019061266f91906153ed565b87614235565b5061267f81615bde565b9050612621565b505b84849050610196600082825461269e9190615c17565b909155506001979650505050505050565b816daaeb6d7670e522a718067333cd4e3b1561279b576040517fc61711340000000000000000000000000000000000000000000000000000000081523060048201526001600160a01b03821660248201526daaeb6d7670e522a718067333cd4e9063c617113490604401602060405180830381865afa158015612736573d6000803e3d6000fd5b505050506040513d601f19601f8201168201806040525081019061275a91906159ed565b61279b576040517fede71dcc0000000000000000000000000000000000000000000000000000000081526001600160a01b0382166004820152602401610d39565b610d4c838361426d565b836daaeb6d7670e522a718067333cd4e3b1561289d576127c3613438565b6001600160a01b0316816001600160a01b031614156127ed576127e88585858561427f565b6128a9565b6daaeb6d7670e522a718067333cd4e63c61711343061280a613438565b6040517fffffffff0000000000000000000000000000000000000000000000000000000060e085901b1681526001600160a01b03928316600482015291166024820152604401602060405180830381865afa15801561286d573d6000803e3d6000fd5b505050506040513d601f19601f8201168201806040525081019061289191906159ed565b61289d5761118d613438565b6128a98585858561427f565b5050505050565b606060006128bd836112cf565b90506101956128cb82613306565b6128d485613306565b6040516020016128e693929190615c52565b604051602081830303815290604052915050919050565b612905613438565b6001600160a01b031661292060fb546001600160a01b031690565b6001600160a01b0316148061293b575061293b610520613438565b6129875760405162461bcd60e51b815260206004820152601c60248201527f63616c6c6572206973206e6f74206f776e6572206f722061646d696e000000006044820152606401610d39565b61019180547fffffffffffffffffffffffff0000000000000000000000000000000000000000166001600160a01b03831617905550565b6129c6613438565b6001600160a01b03166129e160fb546001600160a01b031690565b6001600160a01b031614806129fc57506129fc610520613438565b612a485760405162461bcd60e51b815260206004820152601c60248201527f63616c6c6572206973206e6f74206f776e6572206f722061646d696e000000006044820152606401610d39565b612a5182613163565b600082815261019b602090815260409182902080547fffffffffffffffffffffffffffffffffffffffffffffffff00000000000000001667ffffffffffffffff8516908117909155915191825283917f2ec2be2c4b90c2cf13ecb6751a24daed6bb741ae5ed3f7371aabf9402f6d62e8910160405180910390a25050565b612ad7613438565b6001600160a01b0316612af260fb546001600160a01b031690565b6001600160a01b03161480612b0d5750612b0d610520613438565b612b595760405162461bcd60e51b815260206004820152601c60248201527f63616c6c6572206973206e6f74206f776e6572206f722061646d696e000000006044820152606401610d39565b6118348282614308565b612b6b613438565b6001600160a01b0316612b8660fb546001600160a01b031690565b6001600160a01b03161480612ba15750612ba1610520613438565b612bed5760405162461bcd60e51b815260206004820152601c60248201527f63616c6c6572206973206e6f74206f776e6572206f722061646d696e000000006044820152606401610d39565b600090815261019a6020526040812055565b612c07613438565b6001600160a01b0316612c2260fb546001600160a01b031690565b6001600160a01b03161480612c3d5750612c3d610520613438565b612c895760405162461bcd60e51b815260206004820152601c60248201527f63616c6c6572206973206e6f74206f776e6572206f722061646d696e000000006044820152606401610d39565b612c91613447565b612c9a816138d5565b6114898161393d565b6101958054612cb190615999565b80601f0160208091040260200160405190810160405280929190818152602001828054612cdd90615999565b8015612d2a5780601f10612cff57610100808354040283529160200191612d2a565b820191906000526020600020905b815481529060010190602001808311612d0d57829003601f168201915b505050505081565b60006001600160a01b0382166e6c3852cbef3e08e8df289169ede5811480612d7357506001600160a01b038216600090815261019c602052604090205460ff165b15612d8057506001610b91565b6001600160a01b038084166000908152606a602090815260408083209386168352929052205460ff165b9392505050565b612db9613cd1565b6001600160a01b038116612e355760405162461bcd60e51b815260206004820152602660248201527f4f776e61626c653a206e6577206f776e657220697320746865207a65726f206160448201527f64647265737300000000000000000000000000000000000000000000000000006064820152608401610d39565b61148981613d4a565b6000612e48613447565b612e50613438565b6001600160a01b0316612e6b60fb546001600160a01b031690565b6001600160a01b03161480612e865750612e86610520613438565b612ed25760405162461bcd60e51b815260206004820152601c60248201527f63616c6c6572206973206e6f74206f776e6572206f722061646d696e000000006044820152606401610d39565b67ffffffffffffffff821615612f6057600080612eef8442615c2f565b905060005b87811015612f585780610196546001612f0d9190615c17565b612f179190615c17565b9250612f3d898983818110612f2e57612f2e615baf565b90506020020135848989614235565b50612f4883836129be565b612f5181615bde565b9050612ef4565b505050612fbc565b60005b85811015612fba57612fa9878783818110612f8057612f80615baf565b9050602002013582610196546001612f989190615c17565b612fa29190615c17565b8787614235565b50612fb381615bde565b9050612f63565b505b85859050610196600082825461269e9190615c17565b612fda613438565b6001600160a01b0316612ff560fb546001600160a01b031690565b6001600160a01b031614806130105750613010610520613438565b61305c5760405162461bcd60e51b815260206004820152601c60248201527f63616c6c6572206973206e6f74206f776e6572206f722061646d696e000000006044820152606401610d39565b613064613447565b61306d82613163565b6000918252610197602052604090912055565b60007fffffffff0000000000000000000000000000000000000000000000000000000082167f80ac58cd00000000000000000000000000000000000000000000000000000000148061311357507fffffffff0000000000000000000000000000000000000000000000000000000082167f5b5e139f00000000000000000000000000000000000000000000000000000000145b80610b9157507f01ffc9a7000000000000000000000000000000000000000000000000000000007fffffffff00000000000000000000000000000000000000000000000000000000831614610b91565b6000818152606760205260409020546001600160a01b03166114895760405162461bcd60e51b815260206004820152601860248201527f4552433732313a20696e76616c696420746f6b656e20494400000000000000006044820152606401610d39565b60006131d282611a4a565b9050806001600160a01b0316836001600160a01b0316141561325c5760405162461bcd60e51b815260206004820152602160248201527f4552433732313a20617070726f76616c20746f2063757272656e74206f776e6560448201527f72000000000000000000000000000000000000000000000000000000000000006064820152608401610d39565b806001600160a01b031661326e613438565b6001600160a01b0316148061328a575061328a81610a59613438565b6132fc5760405162461bcd60e51b815260206004820152603e60248201527f4552433732313a20617070726f76652063616c6c6572206973206e6f7420746f60448201527f6b656e206f776e6572206e6f7220617070726f76656420666f7220616c6c00006064820152608401610d39565b610d4c8383614434565b60608161334657505060408051808201909152600181527f3000000000000000000000000000000000000000000000000000000000000000602082015290565b8160005b8115613370578061335a81615bde565b91506133699050600a83615b9b565b915061334a565b60008167ffffffffffffffff81111561338b5761338b615466565b6040519080825280601f01601f1916602001820160405280156133b5576020820181803683370190505b5090505b8415612441576133ca600183615cb4565b91506133d7600a86615ccb565b6133e2906030615c17565b60f81b8183815181106133f7576133f7615baf565b60200101907effffffffffffffffffffffffffffffffffffffffffffffffffffffffffffff1916908160001a905350613431600a86615b9b565b94506133b9565b60006134426144ba565b905090565b60c95460ff161561151e5760405162461bcd60e51b815260206004820152601060248201527f5061757361626c653a20706175736564000000000000000000000000000000006044820152606401610d39565b6134a5611628613438565b6135175760405162461bcd60e51b815260206004820152602e60248201527f4552433732313a2063616c6c6572206973206e6f7420746f6b656e206f776e6560448201527f72206e6f7220617070726f7665640000000000000000000000000000000000006064820152608401610d39565b610d4c8383836139a4565b61352a613438565b6001600160a01b031661354560fb546001600160a01b031690565b6001600160a01b031614806135605750613560610520613438565b6114895760405162461bcd60e51b815260206004820152601c60248201527f63616c6c6572206973206e6f74206f776e6572206f722061646d696e000000006044820152606401610d39565b7f4910fdfa16fed3260ed0e7147f7cc6da11a60208b5b9406d12a635614ffd91435460ff16156135df57610d4c8361450d565b826001600160a01b03166352d1902d6040518163ffffffff1660e01b8152600401602060405180830381865afa925050508015613657575060408051601f3d9081017fffffffffffffffffffffffffffffffffffffffffffffffffffffffffffffffe016820190925261365491810190615cdf565b60015b6136c95760405162461bcd60e51b815260206004820152602e60248201527f45524331393637557067726164653a206e657720696d706c656d656e7461746960448201527f6f6e206973206e6f7420555550530000000000000000000000000000000000006064820152608401610d39565b7f360894a13ba1a3210667c828492db98dca3e2076cc3735a920a3ca505d382bbc811461375e5760405162461bcd60e51b815260206004820152602960248201527f45524331393637557067726164653a20756e737570706f727465642070726f7860448201527f6961626c655555494400000000000000000000000000000000000000000000006064820152608401610d39565b50610d4c8383836145e3565b613772614608565b60c980547fffffffffffffffffffffffffffffffffffffffffffffffffffffffffffffff001690557f5db9ee0a495bf2e6ff9c91a7834c1ba4fdd244a5e8aa4e537bd38aeae4b073aa6137c3613438565b6040516001600160a01b03909116815260200160405180910390a1565b610d4c838383604051806020016040528060008152506127a5565b60008061380783611a4a565b9050806001600160a01b0316846001600160a01b0316148061382e575061382e8185612d32565b806124415750836001600160a01b031661384784610c2a565b6001600160a01b031614949350505050565b6138628161465a565b600090815261019760209081526040808320839055610198825280832080547fffffffffffffffffffffffffffffffffffffffffffffffffffffffffffffff0016905561019b909152902080547fffffffffffffffffffffffffffffffffffffffffffffffff0000000000000000169055565b6138de81613163565b6000818152610198602052604090205460ff166114895760405162461bcd60e51b815260206004820152601360248201527f546f6b656e206973206e6f74206c6f636b6564000000000000000000000000006044820152606401610d39565b600081815261019860205260409081902080547fffffffffffffffffffffffffffffffffffffffffffffffffffffffffffffff00169055517ff27b6ce5b2f5e68ddb2fd95a8a909d4ecf1daaac270935fff052feacb24f184290610e829083815260200190565b826001600160a01b03166139b782611a4a565b6001600160a01b031614613a335760405162461bcd60e51b815260206004820152602560248201527f4552433732313a207472616e736665722066726f6d20696e636f72726563742060448201527f6f776e65720000000000000000000000000000000000000000000000000000006064820152608401610d39565b6001600160a01b038216613aae5760405162461bcd60e51b8152602060048201526024808201527f4552433732313a207472616e7366657220746f20746865207a65726f2061646460448201527f72657373000000000000000000000000000000000000000000000000000000006064820152608401610d39565b613ab9838383614719565b613ac4600082614434565b6001600160a01b0383166000908152606860205260408120805460019290613aed908490615cb4565b90915550506001600160a01b0382166000908152606860205260408120805460019290613b1b908490615c17565b909155505060008181526067602052604080822080547fffffffffffffffffffffffff0000000000000000000000000000000000000000166001600160a01b0386811691821790925591518493918716917fddf252ad1be2c89b69c2b068fc378daa952ba7f163c4a11628f55a4df523b3ef91a4505050565b6127106bffffffffffffffffffffffff82161115613c1a5760405162461bcd60e51b815260206004820152602a60248201527f455243323938313a20726f79616c7479206665652077696c6c2065786365656460448201527f2073616c655072696365000000000000000000000000000000000000000000006064820152608401610d39565b6001600160a01b038216613c705760405162461bcd60e51b815260206004820152601b60248201527f455243323938313a20496e76616c696420706172616d657465727300000000006044820152606401610d39565b6040805180820182526001600160a01b0393841681526bffffffffffffffffffffffff9283166020808301918252600096875261019a9052919094209351905190911674010000000000000000000000000000000000000000029116179055565b613cd9613438565b6001600160a01b0316613cf460fb546001600160a01b031690565b6001600160a01b03161461151e5760405162461bcd60e51b815260206004820181905260248201527f4f776e61626c653a2063616c6c6572206973206e6f7420746865206f776e65726044820152606401610d39565b60fb80546001600160a01b038381167fffffffffffffffffffffffff0000000000000000000000000000000000000000831681179093556040519116919082907f8be0079c531659141344cd1fd0a4f28419497f9722a3daafe3b4186f6b6457e090600090a35050565b600082815261019b602052604081205467ffffffffffffffff169081613de557613dde8342615c2f565b9050613df2565b613def8383615c2f565b90505b600084815261019b602090815260409182902080547fffffffffffffffffffffffffffffffffffffffffffffffff00000000000000001667ffffffffffffffff8516908117909155915191825285917f2ec2be2c4b90c2cf13ecb6751a24daed6bb741ae5ed3f7371aabf9402f6d62e8910160405180910390a250505050565b600081815261019860205260409081902080547fffffffffffffffffffffffffffffffffffffffffffffffffffffffffffffff00166001179055517f032bc66be43dbccb7487781d168eb7bda224628a3b2c3388bdf69b532a3a161190610e829083815260200190565b613ee4613447565b60c980547fffffffffffffffffffffffffffffffffffffffffffffffffffffffffffffff001660011790557f62e78cea01bee320cd4e420270b5ea74000d11b0c9f74754ebdbfc544b05a2586137c3613438565b600054610100900460ff16613fb55760405162461bcd60e51b815260206004820152602b60248201527f496e697469616c697a61626c653a20636f6e7472616374206973206e6f74206960448201527f6e697469616c697a696e670000000000000000000000000000000000000000006064820152608401610d39565b61183482826147e9565b600054610100900460ff1661403c5760405162461bcd60e51b815260206004820152602b60248201527f496e697469616c697a61626c653a20636f6e7472616374206973206e6f74206960448201527f6e697469616c697a696e670000000000000000000000000000000000000000006064820152608401610d39565b61151e61488d565b600054610100900460ff166140c15760405162461bcd60e51b815260206004820152602b60248201527f496e697469616c697a61626c653a20636f6e7472616374206973206e6f74206960448201527f6e697469616c697a696e670000000000000000000000000000000000000000006064820152608401610d39565b61151e614934565b600054610100900460ff1661151e5760405162461bcd60e51b815260206004820152602b60248201527f496e697469616c697a61626c653a20636f6e7472616374206973206e6f74206960448201527f6e697469616c697a696e670000000000000000000000000000000000000000006064820152608401610d39565b600054610100900460ff166141c35760405162461bcd60e51b815260206004820152602b60248201527f496e697469616c697a61626c653a20636f6e7472616374206973206e6f74206960448201527f6e697469616c697a696e670000000000000000000000000000000000000000006064820152608401610d39565b61151e733cc6cdda760b79bafa08df41ecfa224f810dceb660016149c1565b60006141ee8486614c1a565b600085815261019760205260409020869055821561420f5761420f85613e72565b67ffffffffffffffff821615614229576142298583613db4565b50600195945050505050565b60006142418385614c1a565b60008481526101976020526040902085905581156142625761426284613e72565b506001949350505050565b611834614278613438565b8383614d80565b61428a611f85613438565b6142fc5760405162461bcd60e51b815260206004820152602e60248201527f4552433732313a2063616c6c6572206973206e6f7420746f6b656e206f776e6560448201527f72206e6f7220617070726f7665640000000000000000000000000000000000006064820152608401610d39565b6111d684848484614e6d565b6127106bffffffffffffffffffffffff8216111561438e5760405162461bcd60e51b815260206004820152602a60248201527f455243323938313a20726f79616c7479206665652077696c6c2065786365656460448201527f2073616c655072696365000000000000000000000000000000000000000000006064820152608401610d39565b6001600160a01b0382166143e45760405162461bcd60e51b815260206004820152601960248201527f455243323938313a20696e76616c6964207265636569766572000000000000006044820152606401610d39565b604080518082019091526001600160a01b039092168083526bffffffffffffffffffffffff9091166020909201829052740100000000000000000000000000000000000000009091021761019955565b600081815260696020526040902080547fffffffffffffffffffffffff0000000000000000000000000000000000000000166001600160a01b038416908117909155819061448182611a4a565b6001600160a01b03167f8c5be1e5ebec7d5bd14f71427d1e84f3dd0314c0f7b2291e5b200ac8c7c3b92560405160405180910390a45050565b6000601436108015906144d85750610191546001600160a01b031633145b1561450857507fffffffffffffffffffffffffffffffffffffffffffffffffffffffffffffffec36013560601c90565b503390565b6001600160a01b0381163b61458a5760405162461bcd60e51b815260206004820152602d60248201527f455243313936373a206e657720696d706c656d656e746174696f6e206973206e60448201527f6f74206120636f6e7472616374000000000000000000000000000000000000006064820152608401610d39565b7f360894a13ba1a3210667c828492db98dca3e2076cc3735a920a3ca505d382bbc80547fffffffffffffffffffffffff0000000000000000000000000000000000000000166001600160a01b0392909216919091179055565b6145ec83614ef6565b6000825111806145f95750805b15610d4c576111d68383614f36565b60c95460ff1661151e5760405162461bcd60e51b815260206004820152601460248201527f5061757361626c653a206e6f74207061757365640000000000000000000000006044820152606401610d39565b600061466582611a4a565b905061467381600084614719565b61467e600083614434565b6001600160a01b03811660009081526068602052604081208054600192906146a7908490615cb4565b909155505060008281526067602052604080822080547fffffffffffffffffffffffff0000000000000000000000000000000000000000169055518391906001600160a01b038416907fddf252ad1be2c89b69c2b068fc378daa952ba7f163c4a11628f55a4df523b3ef908390a45050565b614721613447565b6040517ff6aacfb1000000000000000000000000000000000000000000000000000000008152600481018290528190309063f6aacfb190602401602060405180830381865afa158015614778573d6000803e3d6000fd5b505050506040513d601f19601f8201168201806040525081019061479c91906159ed565b156110d85760405162461bcd60e51b815260206004820152600f60248201527f546f6b656e206973206c6f636b656400000000000000000000000000000000006044820152606401610d39565b600054610100900460ff166148665760405162461bcd60e51b815260206004820152602b60248201527f496e697469616c697a61626c653a20636f6e7472616374206973206e6f74206960448201527f6e697469616c697a696e670000000000000000000000000000000000000000006064820152608401610d39565b8151614879906065906020850190615221565b508051610d4c906066906020840190615221565b600054610100900460ff1661490a5760405162461bcd60e51b815260206004820152602b60248201527f496e697469616c697a61626c653a20636f6e7472616374206973206e6f74206960448201527f6e697469616c697a696e670000000000000000000000000000000000000000006064820152608401610d39565b60c980547fffffffffffffffffffffffffffffffffffffffffffffffffffffffffffffff00169055565b600054610100900460ff166149b15760405162461bcd60e51b815260206004820152602b60248201527f496e697469616c697a61626c653a20636f6e7472616374206973206e6f74206960448201527f6e697469616c697a696e670000000000000000000000000000000000000000006064820152608401610d39565b61151e6149bc613438565b613d4a565b600054610100900460ff16614a3e5760405162461bcd60e51b815260206004820152602b60248201527f496e697469616c697a61626c653a20636f6e7472616374206973206e6f74206960448201527f6e697469616c697a696e670000000000000000000000000000000000000000006064820152608401610d39565b6daaeb6d7670e522a718067333cd4e3b15611834576040517fc3c5a5470000000000000000000000000000000000000000000000000000000081523060048201526daaeb6d7670e522a718067333cd4e9063c3c5a547906024016020604051808303816000875af1158015614ab7573d6000803e3d6000fd5b505050506040513d601f19601f82011682018060405250810190614adb91906159ed565b611834578015614b68576040517f7d3e3dbe0000000000000000000000000000000000000000000000000000000081523060048201526001600160a01b03831660248201526daaeb6d7670e522a718067333cd4e90637d3e3dbe906044015b600060405180830381600087803b158015614b5457600080fd5b505af1158015612377573d6000803e3d6000fd5b6001600160a01b03821615614bd0576040517fa0af29030000000000000000000000000000000000000000000000000000000081523060048201526001600160a01b03831660248201526daaeb6d7670e522a718067333cd4e9063a0af290390604401614b3a565b6040517f4420e4860000000000000000000000000000000000000000000000000000000081523060048201526daaeb6d7670e522a718067333cd4e90634420e48690602401614b3a565b6001600160a01b038216614c705760405162461bcd60e51b815260206004820181905260248201527f4552433732313a206d696e7420746f20746865207a65726f20616464726573736044820152606401610d39565b6000818152606760205260409020546001600160a01b031615614cd55760405162461bcd60e51b815260206004820152601c60248201527f4552433732313a20746f6b656e20616c7265616479206d696e746564000000006044820152606401610d39565b614ce160008383614719565b6001600160a01b0382166000908152606860205260408120805460019290614d0a908490615c17565b909155505060008181526067602052604080822080547fffffffffffffffffffffffff0000000000000000000000000000000000000000166001600160a01b03861690811790915590518392907fddf252ad1be2c89b69c2b068fc378daa952ba7f163c4a11628f55a4df523b3ef908290a45050565b816001600160a01b0316836001600160a01b03161415614de25760405162461bcd60e51b815260206004820152601960248201527f4552433732313a20617070726f766520746f2063616c6c6572000000000000006044820152606401610d39565b6001600160a01b038381166000818152606a602090815260408083209487168084529482529182902080547fffffffffffffffffffffffffffffffffffffffffffffffffffffffffffffff001686151590811790915591519182527f17307eab39ab6107e8899845ad3d59bd9653f200f220920489ca2b5937696c31910160405180910390a3505050565b614e788484846139a4565b614e8484848484615041565b6111d65760405162461bcd60e51b815260206004820152603260248201527f4552433732313a207472616e7366657220746f206e6f6e20455243373231526560448201527f63656976657220696d706c656d656e74657200000000000000000000000000006064820152608401610d39565b614eff8161450d565b6040516001600160a01b038216907fbc7cd75a20ee27fd9adebab32041f755214dbc6bffa90cc0225b39da2e5c2d3b90600090a250565b60606001600160a01b0383163b614fb55760405162461bcd60e51b815260206004820152602660248201527f416464726573733a2064656c65676174652063616c6c20746f206e6f6e2d636f60448201527f6e747261637400000000000000000000000000000000000000000000000000006064820152608401610d39565b600080846001600160a01b031684604051614fd09190615cf8565b600060405180830381855af49150503d806000811461500b576040519150601f19603f3d011682016040523d82523d6000602084013e615010565b606091505b50915091506150388282604051806060016040528060278152602001615d6e602791396151e8565b95945050505050565b60006001600160a01b0384163b156151e057836001600160a01b031663150b7a0261506a613438565b8786866040518563ffffffff1660e01b815260040161508c9493929190615d14565b6020604051808303816000875af19250505080156150e5575060408051601f3d9081017fffffffffffffffffffffffffffffffffffffffffffffffffffffffffffffffe01682019092526150e291810190615d50565b60015b615195573d808015615113576040519150601f19603f3d011682016040523d82523d6000602084013e615118565b606091505b50805161518d5760405162461bcd60e51b815260206004820152603260248201527f4552433732313a207472616e7366657220746f206e6f6e20455243373231526560448201527f63656976657220696d706c656d656e74657200000000000000000000000000006064820152608401610d39565b805181602001fd5b7fffffffff00000000000000000000000000000000000000000000000000000000167f150b7a0200000000000000000000000000000000000000000000000000000000149050612441565b506001612441565b606083156151f7575081612daa565b8251156152075782518084602001fd5b8160405162461bcd60e51b8152600401610d39919061537b565b82805461522d90615999565b90600052602060002090601f01602090048101928261524f5760008555615295565b82601f1061526857805160ff1916838001178555615295565b82800160010185558215615295579182015b8281111561529557825182559160200191906001019061527a565b506152a19291506152a5565b5090565b5b808211156152a157600081556001016152a6565b7fffffffff000000000000000000000000000000000000000000000000000000008116811461148957600080fd5b6000602082840312156152fa57600080fd5b8135612daa816152ba565b60005b83811015615320578181015183820152602001615308565b838111156111d65750506000910152565b60008151808452615349816020860160208601615305565b601f017fffffffffffffffffffffffffffffffffffffffffffffffffffffffffffffffe0169290920160200192915050565b602081526000612daa6020830184615331565b6000602082840312156153a057600080fd5b5035919050565b80356001600160a01b03811681146153be57600080fd5b919050565b600080604083850312156153d657600080fd5b6153df836153a7565b946020939093013593505050565b6000602082840312156153ff57600080fd5b612daa826153a7565b60008060006060848603121561541d57600080fd5b615426846153a7565b9250615434602085016153a7565b9150604084013590509250925092565b6000806040838503121561545757600080fd5b50508035926020909101359150565b7f4e487b7100000000000000000000000000000000000000000000000000000000600052604160045260246000fd5b600082601f8301126154a657600080fd5b813567ffffffffffffffff808211156154c1576154c1615466565b604051601f83017fffffffffffffffffffffffffffffffffffffffffffffffffffffffffffffffe0908116603f0116810190828211818310171561550757615507615466565b8160405283815286602085880101111561552057600080fd5b836020870160208301376000602085830101528094505050505092915050565b6000806040838503121561555357600080fd5b61555c836153a7565b9150602083013567ffffffffffffffff81111561557857600080fd5b61558485828601615495565b9150509250929050565b6000602082840312156155a057600080fd5b813567ffffffffffffffff8111156155b757600080fd5b61244184828501615495565b600080604083850312156155d657600080fd5b823591506155e6602084016153a7565b90509250929050565b80356bffffffffffffffffffffffff811681146153be57600080fd5b60008060006060848603121561562057600080fd5b83359250615630602085016153a7565b915061563e604085016155ef565b90509250925092565b803567ffffffffffffffff811681146153be57600080fd5b6000806040838503121561567257600080fd5b823591506155e660208401615647565b60008083601f84011261569457600080fd5b50813567ffffffffffffffff8111156156ac57600080fd5b6020830191508360208260051b85010111156112c857600080fd5b6000806000806000608086880312156156df57600080fd5b853567ffffffffffffffff808211156156f757600080fd5b61570389838a01615495565b9650602088013591508082111561571957600080fd5b61572589838a01615495565b9550604088013591508082111561573b57600080fd5b61574789838a01615495565b9450606088013591508082111561575d57600080fd5b5061576a88828901615682565b969995985093965092949392505050565b801515811461148957600080fd5b6000806000806080858703121561579f57600080fd5b843593506157af602086016153a7565b925060408501356157bf8161577b565b91506157cd60608601615647565b905092959194509250565b6000806000806000608086880312156157f057600080fd5b85359450602086013567ffffffffffffffff81111561580e57600080fd5b61581a88828901615682565b909550935050604086013561582e8161577b565b915061583c60608701615647565b90509295509295909350565b6000806040838503121561585b57600080fd5b615864836153a7565b915060208301356158748161577b565b809150509250929050565b6000806000806080858703121561589557600080fd5b61589e856153a7565b93506158ac602086016153a7565b925060408501359150606085013567ffffffffffffffff8111156158cf57600080fd5b6158db87828801615495565b91505092959194509250565b600080604083850312156158fa57600080fd5b615903836153a7565b91506155e6602084016155ef565b6000806040838503121561592457600080fd5b61592d836153a7565b91506155e6602084016153a7565b60008060008060006080868803121561595357600080fd5b853567ffffffffffffffff81111561596a57600080fd5b61597688828901615682565b90965094506159899050602087016153a7565b9250604086013561582e8161577b565b600181811c908216806159ad57607f821691505b602082108114156159e7577f4e487b7100000000000000000000000000000000000000000000000000000000600052602260045260246000fd5b50919050565b6000602082840312156159ff57600080fd5b8151612daa8161577b565b8054600090600181811c9080831680615a2457607f831692505b6020808410821415615a5f577f4e487b7100000000000000000000000000000000000000000000000000000000600052602260045260246000fd5b818015615a735760018114615aa257615acf565b7fffffffffffffffffffffffffffffffffffffffffffffffffffffffffffffff00861689528489019650615acf565b60008881526020902060005b86811015615ac75781548b820152908501908301615aae565b505084890196505b50505050505092915050565b6000615ae78285615a0a565b8351615af7818360208801615305565b01949350505050565b7f4e487b7100000000000000000000000000000000000000000000000000000000600052601160045260246000fd5b6000817fffffffffffffffffffffffffffffffffffffffffffffffffffffffffffffffff0483118215151615615b6757615b67615b00565b500290565b7f4e487b7100000000000000000000000000000000000000000000000000000000600052601260045260246000fd5b600082615baa57615baa615b6c565b500490565b7f4e487b7100000000000000000000000000000000000000000000000000000000600052603260045260246000fd5b60007fffffffffffffffffffffffffffffffffffffffffffffffffffffffffffffffff821415615c1057615c10615b00565b5060010190565b60008219821115615c2a57615c2a615b00565b500190565b600067ffffffffffffffff808316818516808303821115615af757615af7615b00565b6000615c5e8286615a0a565b8451615c6e818360208901615305565b7f2f0000000000000000000000000000000000000000000000000000000000000091019081528351615ca7816001840160208801615305565b0160010195945050505050565b600082821015615cc657615cc6615b00565b500390565b600082615cda57615cda615b6c565b500690565b600060208284031215615cf157600080fd5b5051919050565b60008251615d0a818460208701615305565b9190910192915050565b60006001600160a01b03808716835280861660208401525083604083015260806060830152615d466080830184615331565b9695505050505050565b600060208284031215615d6257600080fd5b8151612daa816152ba56fe416464726573733a206c6f772d6c6576656c2064656c65676174652063616c6c206661696c6564a2646970667358221220786d2abca5bd2302a37642143a22efa8703002003e29426a7813588b9351a01164736f6c634300080c0033",
  "linkReferences": {},
  "deployedLinkReferences": {}
}