{
  "_format": "hh-sol-artifact-1",
  "contractName": "OctiToken1155Upgradeable",
  "sourceName": "contracts/OctiToken1155Upgradeable.sol",
  "abi": [
    {
      "inputs": [],
      "stateMutability": "nonpayable",
      "type": "constructor"
    },
    {
      "anonymous": false,
      "inputs": [
        {
          "indexed": false,
          "internalType": "address",
          "name": "previousAdmin",
          "type": "address"
        },
        {
          "indexed": false,
          "internalType": "address",
          "name": "newAdmin",
          "type": "address"
        }
      ],
      "name": "AdminChanged",
      "type": "event"
    },
    {
      "anonymous": false,
      "inputs": [
        {
          "indexed": true,
          "internalType": "address",
          "name": "account",
          "type": "address"
        },
        {
          "indexed": true,
          "internalType": "address",
          "name": "operator",
          "type": "address"
        },
        {
          "indexed": false,
          "internalType": "bool",
          "name": "approved",
          "type": "bool"
        }
      ],
      "name": "ApprovalForAll",
      "type": "event"
    },
    {
      "anonymous": false,
      "inputs": [
        {
          "indexed": true,
          "internalType": "address",
          "name": "beacon",
          "type": "address"
        }
      ],
      "name": "BeaconUpgraded",
      "type": "event"
    },
    {
      "anonymous": false,
      "inputs": [
        {
          "indexed": false,
          "internalType": "uint8",
          "name": "version",
          "type": "uint8"
        }
      ],
      "name": "Initialized",
      "type": "event"
    },
    {
      "anonymous": false,
      "inputs": [
        {
          "indexed": true,
          "internalType": "address",
          "name": "previousOwner",
          "type": "address"
        },
        {
          "indexed": true,
          "internalType": "address",
          "name": "newOwner",
          "type": "address"
        }
      ],
      "name": "OwnershipTransferred",
      "type": "event"
    },
    {
      "anonymous": false,
      "inputs": [
        {
          "indexed": false,
          "internalType": "address",
          "name": "account",
          "type": "address"
        }
      ],
      "name": "Paused",
      "type": "event"
    },
    {
      "anonymous": false,
      "inputs": [
        {
          "indexed": true,
          "internalType": "address",
          "name": "operator",
          "type": "address"
        },
        {
          "indexed": true,
          "internalType": "address",
          "name": "from",
          "type": "address"
        },
        {
          "indexed": true,
          "internalType": "address",
          "name": "to",
          "type": "address"
        },
        {
          "indexed": false,
          "internalType": "uint256[]",
          "name": "ids",
          "type": "uint256[]"
        },
        {
          "indexed": false,
          "internalType": "uint256[]",
          "name": "values",
          "type": "uint256[]"
        }
      ],
      "name": "TransferBatch",
      "type": "event"
    },
    {
      "anonymous": false,
      "inputs": [
        {
          "indexed": true,
          "internalType": "address",
          "name": "operator",
          "type": "address"
        },
        {
          "indexed": true,
          "internalType": "address",
          "name": "from",
          "type": "address"
        },
        {
          "indexed": true,
          "internalType": "address",
          "name": "to",
          "type": "address"
        },
        {
          "indexed": false,
          "internalType": "uint256",
          "name": "id",
          "type": "uint256"
        },
        {
          "indexed": false,
          "internalType": "uint256",
          "name": "value",
          "type": "uint256"
        }
      ],
      "name": "TransferSingle",
      "type": "event"
    },
    {
      "anonymous": false,
      "inputs": [
        {
          "indexed": false,
          "internalType": "string",
          "name": "value",
          "type": "string"
        },
        {
          "indexed": true,
          "internalType": "uint256",
          "name": "id",
          "type": "uint256"
        }
      ],
      "name": "URI",
      "type": "event"
    },
    {
      "anonymous": false,
      "inputs": [
        {
          "indexed": false,
          "internalType": "address",
          "name": "account",
          "type": "address"
        }
      ],
      "name": "Unpaused",
      "type": "event"
    },
    {
      "anonymous": false,
      "inputs": [
        {
          "indexed": true,
          "internalType": "address",
          "name": "implementation",
          "type": "address"
        }
      ],
      "name": "Upgraded",
      "type": "event"
    },
    {
      "inputs": [
        {
          "internalType": "address",
          "name": "account",
          "type": "address"
        },
        {
          "internalType": "uint256",
          "name": "id",
          "type": "uint256"
        }
      ],
      "name": "balanceOf",
      "outputs": [
        {
          "internalType": "uint256",
          "name": "",
          "type": "uint256"
        }
      ],
      "stateMutability": "view",
      "type": "function"
    },
    {
      "inputs": [
        {
          "internalType": "address[]",
          "name": "accounts",
          "type": "address[]"
        },
        {
          "internalType": "uint256[]",
          "name": "ids",
          "type": "uint256[]"
        }
      ],
      "name": "balanceOfBatch",
      "outputs": [
        {
          "internalType": "uint256[]",
          "name": "",
          "type": "uint256[]"
        }
      ],
      "stateMutability": "view",
      "type": "function"
    },
    {
      "inputs": [
        {
          "internalType": "address",
          "name": "account",
          "type": "address"
        },
        {
          "internalType": "uint256",
          "name": "id",
          "type": "uint256"
        },
        {
          "internalType": "uint256",
          "name": "value",
          "type": "uint256"
        }
      ],
      "name": "burn",
      "outputs": [],
      "stateMutability": "nonpayable",
      "type": "function"
    },
    {
      "inputs": [
        {
          "internalType": "address",
          "name": "account",
          "type": "address"
        },
        {
          "internalType": "uint256[]",
          "name": "ids",
          "type": "uint256[]"
        },
        {
          "internalType": "uint256[]",
          "name": "values",
          "type": "uint256[]"
        }
      ],
      "name": "burnBatch",
      "outputs": [],
      "stateMutability": "nonpayable",
      "type": "function"
    },
    {
      "inputs": [
        {
          "internalType": "uint256",
          "name": "id",
          "type": "uint256"
        }
      ],
      "name": "exists",
      "outputs": [
        {
          "internalType": "bool",
          "name": "",
          "type": "bool"
        }
      ],
      "stateMutability": "view",
      "type": "function"
    },
    {
      "inputs": [],
      "name": "initialize",
      "outputs": [],
      "stateMutability": "nonpayable",
      "type": "function"
    },
    {
      "inputs": [
        {
          "internalType": "address",
          "name": "account",
          "type": "address"
        },
        {
          "internalType": "address",
          "name": "operator",
          "type": "address"
        }
      ],
      "name": "isApprovedForAll",
      "outputs": [
        {
          "internalType": "bool",
          "name": "",
          "type": "bool"
        }
      ],
      "stateMutability": "view",
      "type": "function"
    },
    {
      "inputs": [
        {
          "internalType": "address",
          "name": "account",
          "type": "address"
        },
        {
          "internalType": "uint256",
          "name": "id",
          "type": "uint256"
        },
        {
          "internalType": "uint256",
          "name": "amount",
          "type": "uint256"
        },
        {
          "internalType": "bytes",
          "name": "data",
          "type": "bytes"
        }
      ],
      "name": "mint",
      "outputs": [],
      "stateMutability": "nonpayable",
      "type": "function"
    },
    {
      "inputs": [
        {
          "internalType": "address",
          "name": "to",
          "type": "address"
        },
        {
          "internalType": "uint256[]",
          "name": "ids",
          "type": "uint256[]"
        },
        {
          "internalType": "uint256[]",
          "name": "amounts",
          "type": "uint256[]"
        },
        {
          "internalType": "bytes",
          "name": "data",
          "type": "bytes"
        }
      ],
      "name": "mintBatch",
      "outputs": [],
      "stateMutability": "nonpayable",
      "type": "function"
    },
    {
      "inputs": [],
      "name": "owner",
      "outputs": [
        {
          "internalType": "address",
          "name": "",
          "type": "address"
        }
      ],
      "stateMutability": "view",
      "type": "function"
    },
    {
      "inputs": [],
      "name": "pause",
      "outputs": [],
      "stateMutability": "nonpayable",
      "type": "function"
    },
    {
      "inputs": [],
      "name": "paused",
      "outputs": [
        {
          "internalType": "bool",
          "name": "",
          "type": "bool"
        }
      ],
      "stateMutability": "view",
      "type": "function"
    },
    {
      "inputs": [],
      "name": "proxiableUUID",
      "outputs": [
        {
          "internalType": "bytes32",
          "name": "",
          "type": "bytes32"
        }
      ],
      "stateMutability": "view",
      "type": "function"
    },
    {
      "inputs": [],
      "name": "removeDefaultRoyalty",
      "outputs": [],
      "stateMutability": "nonpayable",
      "type": "function"
    },
    {
      "inputs": [
        {
          "internalType": "uint256",
          "name": "tokenId",
          "type": "uint256"
        }
      ],
      "name": "removeTokenRoyalty",
      "outputs": [],
      "stateMutability": "nonpayable",
      "type": "function"
    },
    {
      "inputs": [],
      "name": "renounceOwnership",
      "outputs": [],
      "stateMutability": "nonpayable",
      "type": "function"
    },
    {
      "inputs": [
        {
          "internalType": "uint256",
          "name": "_tokenId",
          "type": "uint256"
        },
        {
          "internalType": "uint256",
          "name": "_salePrice",
          "type": "uint256"
        }
      ],
      "name": "royaltyInfo",
      "outputs": [
        {
          "internalType": "address",
          "name": "",
          "type": "address"
        },
        {
          "internalType": "uint256",
          "name": "",
          "type": "uint256"
        }
      ],
      "stateMutability": "view",
      "type": "function"
    },
    {
      "inputs": [
        {
          "internalType": "address",
          "name": "from",
          "type": "address"
        },
        {
          "internalType": "address",
          "name": "to",
          "type": "address"
        },
        {
          "internalType": "uint256[]",
          "name": "ids",
          "type": "uint256[]"
        },
        {
          "internalType": "uint256[]",
          "name": "amounts",
          "type": "uint256[]"
        },
        {
          "internalType": "bytes",
          "name": "data",
          "type": "bytes"
        }
      ],
      "name": "safeBatchTransferFrom",
      "outputs": [],
      "stateMutability": "nonpayable",
      "type": "function"
    },
    {
      "inputs": [
        {
          "internalType": "address",
          "name": "from",
          "type": "address"
        },
        {
          "internalType": "address",
          "name": "to",
          "type": "address"
        },
        {
          "internalType": "uint256",
          "name": "id",
          "type": "uint256"
        },
        {
          "internalType": "uint256",
          "name": "amount",
          "type": "uint256"
        },
        {
          "internalType": "bytes",
          "name": "data",
          "type": "bytes"
        }
      ],
      "name": "safeTransferFrom",
      "outputs": [],
      "stateMutability": "nonpayable",
      "type": "function"
    },
    {
      "inputs": [
        {
          "internalType": "address",
          "name": "operator",
          "type": "address"
        },
        {
          "internalType": "bool",
          "name": "approved",
          "type": "bool"
        }
      ],
      "name": "setApprovalForAll",
      "outputs": [],
      "stateMutability": "nonpayable",
      "type": "function"
    },
    {
      "inputs": [
        {
          "internalType": "string",
          "name": "newuri",
          "type": "string"
        }
      ],
      "name": "setURI",
      "outputs": [],
      "stateMutability": "nonpayable",
      "type": "function"
    },
    {
      "inputs": [
        {
          "internalType": "bytes4",
          "name": "interfaceId",
          "type": "bytes4"
        }
      ],
      "name": "supportsInterface",
      "outputs": [
        {
          "internalType": "bool",
          "name": "",
          "type": "bool"
        }
      ],
      "stateMutability": "view",
      "type": "function"
    },
    {
      "inputs": [
        {
          "internalType": "uint256",
          "name": "id",
          "type": "uint256"
        }
      ],
      "name": "totalSupply",
      "outputs": [
        {
          "internalType": "uint256",
          "name": "",
          "type": "uint256"
        }
      ],
      "stateMutability": "view",
      "type": "function"
    },
    {
      "inputs": [
        {
          "internalType": "address",
          "name": "newOwner",
          "type": "address"
        }
      ],
      "name": "transferOwnership",
      "outputs": [],
      "stateMutability": "nonpayable",
      "type": "function"
    },
    {
      "inputs": [],
      "name": "unpause",
      "outputs": [],
      "stateMutability": "nonpayable",
      "type": "function"
    },
    {
      "inputs": [
        {
          "internalType": "address",
          "name": "receiver",
          "type": "address"
        },
        {
          "internalType": "uint96",
          "name": "feeNumerator",
          "type": "uint96"
        }
      ],
      "name": "updateDefaultRoyalty",
      "outputs": [],
      "stateMutability": "nonpayable",
      "type": "function"
    },
    {
      "inputs": [
        {
          "internalType": "uint256",
          "name": "tokenId",
          "type": "uint256"
        },
        {
          "internalType": "address",
          "name": "receiver",
          "type": "address"
        },
        {
          "internalType": "uint96",
          "name": "feeNumerator",
          "type": "uint96"
        }
      ],
      "name": "updateTokenRoyalty",
      "outputs": [],
      "stateMutability": "nonpayable",
      "type": "function"
    },
    {
      "inputs": [
        {
          "internalType": "address",
          "name": "newImplementation",
          "type": "address"
        }
      ],
      "name": "upgradeTo",
      "outputs": [],
      "stateMutability": "nonpayable",
      "type": "function"
    },
    {
      "inputs": [
        {
          "internalType": "address",
          "name": "newImplementation",
          "type": "address"
        },
        {
          "internalType": "bytes",
          "name": "data",
          "type": "bytes"
        }
      ],
      "name": "upgradeToAndCall",
      "outputs": [],
      "stateMutability": "payable",
      "type": "function"
    },
    {
      "inputs": [
        {
          "internalType": "uint256",
          "name": "",
          "type": "uint256"
        }
      ],
      "name": "uri",
      "outputs": [
        {
          "internalType": "string",
          "name": "",
          "type": "string"
        }
      ],
      "stateMutability": "view",
      "type": "function"
    }
  ],
  "bytecode": "0x60a0604052306080523480156200001557600080fd5b506200002062000026565b620000e8565b600054610100900460ff1615620000935760405162461bcd60e51b815260206004820152602760248201527f496e697469616c697a61626c653a20636f6e747261637420697320696e697469604482015266616c697a696e6760c81b606482015260840160405180910390fd5b60005460ff9081161015620000e6576000805460ff191660ff9081179091556040519081527f7f26b83ff96e1f2b6a682f133852f6798a09c465da95921460cefb38474024989060200160405180910390a15b565b6080516133eb620001206000396000818161086d015281816108ad01528181610a8501528181610ac50152610b5801526133eb6000f3fe6080604052600436106101cc5760003560e01c80636b20c454116100f757806397ec4fba11610095578063e985e9c511610064578063e985e9c51461053d578063f242432a14610586578063f2fde38b146105a6578063f5298aca146105c657600080fd5b806397ec4fba146104bb578063a22cb465146104d0578063bd85b039146104f0578063d691e43c1461051d57600080fd5b80638129fc1c116100d15780638129fc1c146104495780638456cb591461045e57806386e228d5146104735780638da5cb5b1461049357600080fd5b80636b20c454146103f4578063715018a614610414578063731133e91461042957600080fd5b80632eb2c2d61161016f5780634f1ef2861161013e5780634f1ef286146103845780634f558e791461039757806352d1902d146103c65780635c975abb146103db57600080fd5b80632eb2c2d6146103025780633659cfe6146103225780633f4ba83a146103425780634e1273f41461035757600080fd5b80630e89341c116101ab5780630e89341c146102565780631e6b5818146102835780631f7fdffa146102a35780632a55205a146102c357600080fd5b8062fdd58e146101d157806301ffc9a71461020457806302fe530514610234575b600080fd5b3480156101dd57600080fd5b506101f16101ec3660046125cb565b6105e6565b6040519081526020015b60405180910390f35b34801561021057600080fd5b5061022461021f36600461260b565b61067e565b60405190151581526020016101fb565b34801561024057600080fd5b5061025461024f3660046126c7565b61068f565b005b34801561026257600080fd5b50610276610271366004612717565b6106a3565b6040516101fb9190612788565b34801561028f57600080fd5b5061025461029e366004612717565b610737565b3480156102af57600080fd5b506102546102be36600461284f565b610750565b3480156102cf57600080fd5b506102e36102de3660046128e7565b61076a565b604080516001600160a01b0390931683526020830191909152016101fb565b34801561030e57600080fd5b5061025461031d366004612909565b610816565b34801561032e57600080fd5b5061025461033d3660046129b2565b610862565b34801561034e57600080fd5b5061025461093f565b34801561036357600080fd5b506103776103723660046129cd565b610951565b6040516101fb9190612ad2565b610254610392366004612ae5565b610a7a565b3480156103a357600080fd5b506102246103b2366004612717565b600090815260fb6020526040902054151590565b3480156103d257600080fd5b506101f1610b4b565b3480156103e757600080fd5b5061012d5460ff16610224565b34801561040057600080fd5b5061025461040f366004612b28565b610bff565b34801561042057600080fd5b50610254610c47565b34801561043557600080fd5b50610254610444366004612b9b565b610c59565b34801561045557600080fd5b50610254610c6d565b34801561046a57600080fd5b50610254610dd0565b34801561047f57600080fd5b5061025461048e366004612c06565b610de0565b34801561049f57600080fd5b506033546040516001600160a01b0390911681526020016101fb565b3480156104c757600080fd5b50610254610df3565b3480156104dc57600080fd5b506102546104eb366004612c42565b610e05565b3480156104fc57600080fd5b506101f161050b366004612717565b600090815260fb602052604090205490565b34801561052957600080fd5b50610254610538366004612c7e565b610e10565b34801561054957600080fd5b50610224610558366004612cb1565b6001600160a01b03918216600090815260986020908152604080832093909416825291909152205460ff1690565b34801561059257600080fd5b506102546105a1366004612cdb565b610e22565b3480156105b257600080fd5b506102546105c13660046129b2565b610e67565b3480156105d257600080fd5b506102546105e1366004612d3f565b610edd565b60006001600160a01b0383166106565760405162461bcd60e51b815260206004820152602a60248201527f455243313135353a2061646472657373207a65726f206973206e6f742061207660448201526930b634b21037bbb732b960b11b60648201526084015b60405180910390fd5b5060009081526097602090815260408083206001600160a01b03949094168352929052205490565b600061068982610f20565b92915050565b610697610f45565b6106a081610f9f565b50565b6060609980546106b290612d72565b80601f01602080910402602001604051908101604052809291908181526020018280546106de90612d72565b801561072b5780601f106107005761010080835404028352916020019161072b565b820191906000526020600020905b81548152906001019060200180831161070e57829003601f168201915b50505050509050919050565b61073f610f45565b600090815260ca6020526040812055565b610758610f45565b61076484848484610fb2565b50505050565b600082815260ca602090815260408083208151808301909252546001600160a01b038116808352600160a01b9091046001600160601b03169282019290925282916107df57506040805180820190915260c9546001600160a01b0381168252600160a01b90046001600160601b031660208201525b6020810151600090612710906107fe906001600160601b031687612dc3565b6108089190612de2565b915196919550909350505050565b6001600160a01b03851633148061083257506108328533610558565b61084e5760405162461bcd60e51b815260040161064d90612e04565b61085b858585858561110d565b5050505050565b306001600160a01b037f00000000000000000000000000000000000000000000000000000000000000001614156108ab5760405162461bcd60e51b815260040161064d90612e53565b7f00000000000000000000000000000000000000000000000000000000000000006001600160a01b03166108f460008051602061336f833981519152546001600160a01b031690565b6001600160a01b03161461091a5760405162461bcd60e51b815260040161064d90612e9f565b610923816112ba565b604080516000808252602082019092526106a0918391906112c2565b610947610f45565b61094f61142d565b565b606081518351146109b65760405162461bcd60e51b815260206004820152602960248201527f455243313135353a206163636f756e747320616e6420696473206c656e677468604482015268040dad2e6dac2e8c6d60bb1b606482015260840161064d565b600083516001600160401b038111156109d1576109d1612628565b6040519080825280602002602001820160405280156109fa578160200160208202803683370190505b50905060005b8451811015610a7257610a45858281518110610a1e57610a1e612eeb565b6020026020010151858381518110610a3857610a38612eeb565b60200260200101516105e6565b828281518110610a5757610a57612eeb565b6020908102919091010152610a6b81612f01565b9050610a00565b509392505050565b306001600160a01b037f0000000000000000000000000000000000000000000000000000000000000000161415610ac35760405162461bcd60e51b815260040161064d90612e53565b7f00000000000000000000000000000000000000000000000000000000000000006001600160a01b0316610b0c60008051602061336f833981519152546001600160a01b031690565b6001600160a01b031614610b325760405162461bcd60e51b815260040161064d90612e9f565b610b3b826112ba565b610b47828260016112c2565b5050565b6000306001600160a01b037f00000000000000000000000000000000000000000000000000000000000000001614610beb5760405162461bcd60e51b815260206004820152603860248201527f555550535570677261646561626c653a206d757374206e6f742062652063616c60448201527f6c6564207468726f7567682064656c656761746563616c6c0000000000000000606482015260840161064d565b5060008051602061336f8339815191525b90565b6001600160a01b038316331480610c1b5750610c1b8333610558565b610c375760405162461bcd60e51b815260040161064d90612e04565b610c42838383611480565b505050565b610c4f610f45565b61094f600061161f565b610c61610f45565b61076484848484611671565b600054610100900460ff1615808015610c8d5750600054600160ff909116105b80610ca75750303b158015610ca7575060005460ff166001145b610d0a5760405162461bcd60e51b815260206004820152602e60248201527f496e697469616c697a61626c653a20636f6e747261637420697320616c72656160448201526d191e481a5b9a5d1a585b1a5e995960921b606482015260840161064d565b6000805460ff191660011790558015610d2d576000805461ff0019166101001790555b610d586040518060400160405280600a815260200169676f6f676c652e636f6d60b01b81525061175c565b610d6061178c565b610d686117bb565b610d706117ea565b610d786117ea565b610d806117ea565b610d886117ea565b80156106a0576000805461ff0019169055604051600181527f7f26b83ff96e1f2b6a682f133852f6798a09c465da95921460cefb38474024989060200160405180910390a150565b610dd8610f45565b61094f611811565b610de8610f45565b610c4283838361184f565b610dfb610f45565b61094f600060c955565b610b4733838361191a565b610e18610f45565b610b4782826119fb565b6001600160a01b038516331480610e3e5750610e3e8533610558565b610e5a5760405162461bcd60e51b815260040161064d90612e04565b61085b8585858585611ab5565b610e6f610f45565b6001600160a01b038116610ed45760405162461bcd60e51b815260206004820152602660248201527f4f776e61626c653a206e6577206f776e657220697320746865207a65726f206160448201526564647265737360d01b606482015260840161064d565b6106a08161161f565b6001600160a01b038316331480610ef95750610ef98333610558565b610f155760405162461bcd60e51b815260040161064d90612e04565b610c42838383611bf1565b60006001600160e01b0319821663152a902d60e11b1480610689575061068982611d0d565b6033546001600160a01b0316331461094f5760405162461bcd60e51b815260206004820181905260248201527f4f776e61626c653a2063616c6c6572206973206e6f7420746865206f776e6572604482015260640161064d565b8051610b47906099906020840190612516565b6001600160a01b038416610fd85760405162461bcd60e51b815260040161064d90612f1c565b8151835114610ff95760405162461bcd60e51b815260040161064d90612f5d565b3361100981600087878787611d5d565b60005b84518110156110a55783818151811061102757611027612eeb565b60200260200101516097600087848151811061104557611045612eeb565b602002602001015181526020019081526020016000206000886001600160a01b03166001600160a01b03168152602001908152602001600020600082825461108d9190612fa5565b9091555081905061109d81612f01565b91505061100c565b50846001600160a01b031660006001600160a01b0316826001600160a01b03167f4a39dc06d4c0dbc64b70af90fd698a233a518aa5d07e595d983b8c0526c8f7fb87876040516110f6929190612fbd565b60405180910390a461085b81600087878787611d73565b815183511461112e5760405162461bcd60e51b815260040161064d90612f5d565b6001600160a01b0384166111545760405162461bcd60e51b815260040161064d90612fe2565b33611163818787878787611d5d565b60005b845181101561124c57600085828151811061118357611183612eeb565b6020026020010151905060008583815181106111a1576111a1612eeb565b60209081029190910181015160008481526097835260408082206001600160a01b038e1683529093529190912054909150818110156111f25760405162461bcd60e51b815260040161064d90613027565b60008381526097602090815260408083206001600160a01b038e8116855292528083208585039055908b16825281208054849290611231908490612fa5565b925050819055505050508061124590612f01565b9050611166565b50846001600160a01b0316866001600160a01b0316826001600160a01b03167f4a39dc06d4c0dbc64b70af90fd698a233a518aa5d07e595d983b8c0526c8f7fb878760405161129c929190612fbd565b60405180910390a46112b2818787878787611d73565b505050505050565b6106a0610f45565b7f4910fdfa16fed3260ed0e7147f7cc6da11a60208b5b9406d12a635614ffd91435460ff16156112f557610c4283611ecf565b826001600160a01b03166352d1902d6040518163ffffffff1660e01b8152600401602060405180830381865afa92505050801561134f575060408051601f3d908101601f1916820190925261134c91810190613071565b60015b6113b25760405162461bcd60e51b815260206004820152602e60248201527f45524331393637557067726164653a206e657720696d706c656d656e7461746960448201526d6f6e206973206e6f74205555505360901b606482015260840161064d565b60008051602061336f83398151915281146114215760405162461bcd60e51b815260206004820152602960248201527f45524331393637557067726164653a20756e737570706f727465642070726f786044820152681a58589b195555525160ba1b606482015260840161064d565b50610c42838383611f6b565b611435611f90565b61012d805460ff191690557f5db9ee0a495bf2e6ff9c91a7834c1ba4fdd244a5e8aa4e537bd38aeae4b073aa335b6040516001600160a01b03909116815260200160405180910390a1565b6001600160a01b0383166114a65760405162461bcd60e51b815260040161064d9061308a565b80518251146114c75760405162461bcd60e51b815260040161064d90612f5d565b60003390506114ea81856000868660405180602001604052806000815250611d5d565b60005b83518110156115b257600084828151811061150a5761150a612eeb565b60200260200101519050600084838151811061152857611528612eeb565b60209081029190910181015160008481526097835260408082206001600160a01b038c1683529093529190912054909150818110156115795760405162461bcd60e51b815260040161064d906130cd565b60009283526097602090815260408085206001600160a01b038b16865290915290922091039055806115aa81612f01565b9150506114ed565b5060006001600160a01b0316846001600160a01b0316826001600160a01b03167f4a39dc06d4c0dbc64b70af90fd698a233a518aa5d07e595d983b8c0526c8f7fb8686604051611603929190612fbd565b60405180910390a4604080516020810190915260009052610764565b603380546001600160a01b038381166001600160a01b0319831681179093556040519116919082907f8be0079c531659141344cd1fd0a4f28419497f9722a3daafe3b4186f6b6457e090600090a35050565b6001600160a01b0384166116975760405162461bcd60e51b815260040161064d90612f1c565b3360006116a385611fda565b905060006116b085611fda565b90506116c183600089858589611d5d565b60008681526097602090815260408083206001600160a01b038b168452909152812080548792906116f3908490612fa5565b909155505060408051878152602081018790526001600160a01b03808a1692600092918716917fc3d58168c5ae7397731d063d5bbf3d657854427343f4c083240f7aacaa2d0f62910160405180910390a461175383600089898989612025565b50505050505050565b600054610100900460ff166117835760405162461bcd60e51b815260040161064d90613111565b6106a0816120e0565b600054610100900460ff166117b35760405162461bcd60e51b815260040161064d90613111565b61094f612107565b600054610100900460ff166117e25760405162461bcd60e51b815260040161064d90613111565b61094f612137565b600054610100900460ff1661094f5760405162461bcd60e51b815260040161064d90613111565b61181961216b565b61012d805460ff191660011790557f62e78cea01bee320cd4e420270b5ea74000d11b0c9f74754ebdbfc544b05a2586114633390565b6127106001600160601b038216111561187a5760405162461bcd60e51b815260040161064d9061315c565b6001600160a01b0382166118d05760405162461bcd60e51b815260206004820152601b60248201527f455243323938313a20496e76616c696420706172616d65746572730000000000604482015260640161064d565b6040805180820182526001600160a01b0393841681526001600160601b039283166020808301918252600096875260ca90529190942093519051909116600160a01b029116179055565b816001600160a01b0316836001600160a01b0316141561198e5760405162461bcd60e51b815260206004820152602960248201527f455243313135353a2073657474696e6720617070726f76616c20737461747573604482015268103337b91039b2b63360b91b606482015260840161064d565b6001600160a01b03838116600081815260986020908152604080832094871680845294825291829020805460ff191686151590811790915591519182527f17307eab39ab6107e8899845ad3d59bd9653f200f220920489ca2b5937696c31910160405180910390a3505050565b6127106001600160601b0382161115611a265760405162461bcd60e51b815260040161064d9061315c565b6001600160a01b038216611a7c5760405162461bcd60e51b815260206004820152601960248201527f455243323938313a20696e76616c696420726563656976657200000000000000604482015260640161064d565b604080518082019091526001600160a01b039092168083526001600160601b039091166020909201829052600160a01b9091021760c955565b6001600160a01b038416611adb5760405162461bcd60e51b815260040161064d90612fe2565b336000611ae785611fda565b90506000611af485611fda565b9050611b04838989858589611d5d565b60008681526097602090815260408083206001600160a01b038c16845290915290205485811015611b475760405162461bcd60e51b815260040161064d90613027565b60008781526097602090815260408083206001600160a01b038d8116855292528083208985039055908a16825281208054889290611b86908490612fa5565b909155505060408051888152602081018890526001600160a01b03808b16928c821692918816917fc3d58168c5ae7397731d063d5bbf3d657854427343f4c083240f7aacaa2d0f62910160405180910390a4611be6848a8a8a8a8a612025565b505050505050505050565b6001600160a01b038316611c175760405162461bcd60e51b815260040161064d9061308a565b336000611c2384611fda565b90506000611c3084611fda565b9050611c5083876000858560405180602001604052806000815250611d5d565b60008581526097602090815260408083206001600160a01b038a16845290915290205484811015611c935760405162461bcd60e51b815260040161064d906130cd565b60008681526097602090815260408083206001600160a01b038b81168086529184528285208a8703905582518b81529384018a90529092908816917fc3d58168c5ae7397731d063d5bbf3d657854427343f4c083240f7aacaa2d0f62910160405180910390a4604080516020810190915260009052611753565b60006001600160e01b03198216636cdb3d1360e11b1480611d3e57506001600160e01b031982166303a24d0760e21b145b8061068957506301ffc9a760e01b6001600160e01b0319831614610689565b611d6561216b565b6112b28686868686866121b2565b6001600160a01b0384163b156112b25760405163bc197c8160e01b81526001600160a01b0385169063bc197c8190611db790899089908890889088906004016131a6565b6020604051808303816000875af1925050508015611df2575060408051601f3d908101601f19168201909252611def91810190613204565b60015b611e9f57611dfe613221565b806308c379a01415611e385750611e1361323c565b80611e1e5750611e3a565b8060405162461bcd60e51b815260040161064d9190612788565b505b60405162461bcd60e51b815260206004820152603460248201527f455243313135353a207472616e7366657220746f206e6f6e20455243313135356044820152732932b1b2b4bb32b91034b6b83632b6b2b73a32b960611b606482015260840161064d565b6001600160e01b0319811663bc197c8160e01b146117535760405162461bcd60e51b815260040161064d906132c5565b6001600160a01b0381163b611f3c5760405162461bcd60e51b815260206004820152602d60248201527f455243313936373a206e657720696d706c656d656e746174696f6e206973206e60448201526c1bdd08184818dbdb9d1c9858dd609a1b606482015260840161064d565b60008051602061336f83398151915280546001600160a01b0319166001600160a01b0392909216919091179055565b611f7483612229565b600082511180611f815750805b15610c42576107648383612269565b61012d5460ff1661094f5760405162461bcd60e51b815260206004820152601460248201527314185d5cd8589b194e881b9bdd081c185d5cd95960621b604482015260640161064d565b6040805160018082528183019092526060916000919060208083019080368337019050509050828160008151811061201457612014612eeb565b602090810291909101015292915050565b6001600160a01b0384163b156112b25760405163f23a6e6160e01b81526001600160a01b0385169063f23a6e6190612069908990899088908890889060040161330d565b6020604051808303816000875af19250505080156120a4575060408051601f3d908101601f191682019092526120a191810190613204565b60015b6120b057611dfe613221565b6001600160e01b0319811663f23a6e6160e01b146117535760405162461bcd60e51b815260040161064d906132c5565b600054610100900460ff166106975760405162461bcd60e51b815260040161064d90613111565b600054610100900460ff1661212e5760405162461bcd60e51b815260040161064d90613111565b61094f3361161f565b600054610100900460ff1661215e5760405162461bcd60e51b815260040161064d90613111565b61012d805460ff19169055565b61012d5460ff161561094f5760405162461bcd60e51b815260206004820152601060248201526f14185d5cd8589b194e881c185d5cd95960821b604482015260640161064d565b6121c086868686868661235d565b61012d5460ff16156112b25760405162461bcd60e51b815260206004820152602c60248201527f455243313135355061757361626c653a20746f6b656e207472616e736665722060448201526b1dda1a5b19481c185d5cd95960a21b606482015260840161064d565b61223281611ecf565b6040516001600160a01b038216907fbc7cd75a20ee27fd9adebab32041f755214dbc6bffa90cc0225b39da2e5c2d3b90600090a250565b60606001600160a01b0383163b6122d15760405162461bcd60e51b815260206004820152602660248201527f416464726573733a2064656c65676174652063616c6c20746f206e6f6e2d636f6044820152651b9d1c9858dd60d21b606482015260840161064d565b600080846001600160a01b0316846040516122ec9190613352565b600060405180830381855af49150503d8060008114612327576040519150601f19603f3d011682016040523d82523d6000602084013e61232c565b606091505b5091509150612354828260405180606001604052806027815260200161338f602791396124d6565b95945050505050565b6001600160a01b0385166123e45760005b83518110156123e25782818151811061238957612389612eeb565b602002602001015160fb60008684815181106123a7576123a7612eeb565b6020026020010151815260200190815260200160002060008282546123cc9190612fa5565b909155506123db905081612f01565b905061236e565b505b6001600160a01b0384166112b25760005b835181101561175357600084828151811061241257612412612eeb565b60200260200101519050600084838151811061243057612430612eeb565b60200260200101519050600060fb6000848152602001908152602001600020549050818110156124b35760405162461bcd60e51b815260206004820152602860248201527f455243313135353a206275726e20616d6f756e74206578636565647320746f74604482015267616c537570706c7960c01b606482015260840161064d565b600092835260fb6020526040909220910390556124cf81612f01565b90506123f5565b606083156124e557508161250f565b8251156124f55782518084602001fd5b8160405162461bcd60e51b815260040161064d9190612788565b9392505050565b82805461252290612d72565b90600052602060002090601f016020900481019282612544576000855561258a565b82601f1061255d57805160ff191683800117855561258a565b8280016001018555821561258a579182015b8281111561258a57825182559160200191906001019061256f565b5061259692915061259a565b5090565b5b80821115612596576000815560010161259b565b80356001600160a01b03811681146125c657600080fd5b919050565b600080604083850312156125de57600080fd5b6125e7836125af565b946020939093013593505050565b6001600160e01b0319811681146106a057600080fd5b60006020828403121561261d57600080fd5b813561250f816125f5565b634e487b7160e01b600052604160045260246000fd5b601f8201601f191681016001600160401b038111828210171561266357612663612628565b6040525050565b60006001600160401b0383111561268357612683612628565b60405161269a601f8501601f19166020018261263e565b8091508381528484840111156126af57600080fd5b83836020830137600060208583010152509392505050565b6000602082840312156126d957600080fd5b81356001600160401b038111156126ef57600080fd5b8201601f8101841361270057600080fd5b61270f8482356020840161266a565b949350505050565b60006020828403121561272957600080fd5b5035919050565b60005b8381101561274b578181015183820152602001612733565b838111156107645750506000910152565b60008151808452612774816020860160208601612730565b601f01601f19169290920160200192915050565b60208152600061250f602083018461275c565b60006001600160401b038211156127b4576127b4612628565b5060051b60200190565b600082601f8301126127cf57600080fd5b813560206127dc8261279b565b6040516127e9828261263e565b83815260059390931b850182019282810191508684111561280957600080fd5b8286015b84811015612824578035835291830191830161280d565b509695505050505050565b600082601f83011261284057600080fd5b61250f8383356020850161266a565b6000806000806080858703121561286557600080fd5b61286e856125af565b935060208501356001600160401b038082111561288a57600080fd5b612896888389016127be565b945060408701359150808211156128ac57600080fd5b6128b8888389016127be565b935060608701359150808211156128ce57600080fd5b506128db8782880161282f565b91505092959194509250565b600080604083850312156128fa57600080fd5b50508035926020909101359150565b600080600080600060a0868803121561292157600080fd5b61292a866125af565b9450612938602087016125af565b935060408601356001600160401b038082111561295457600080fd5b61296089838a016127be565b9450606088013591508082111561297657600080fd5b61298289838a016127be565b9350608088013591508082111561299857600080fd5b506129a58882890161282f565b9150509295509295909350565b6000602082840312156129c457600080fd5b61250f826125af565b600080604083850312156129e057600080fd5b82356001600160401b03808211156129f757600080fd5b818501915085601f830112612a0b57600080fd5b81356020612a188261279b565b604051612a25828261263e565b83815260059390931b8501820192828101915089841115612a4557600080fd5b948201945b83861015612a6a57612a5b866125af565b82529482019490820190612a4a565b96505086013592505080821115612a8057600080fd5b50612a8d858286016127be565b9150509250929050565b600081518084526020808501945080840160005b83811015612ac757815187529582019590820190600101612aab565b509495945050505050565b60208152600061250f6020830184612a97565b60008060408385031215612af857600080fd5b612b01836125af565b915060208301356001600160401b03811115612b1c57600080fd5b612a8d8582860161282f565b600080600060608486031215612b3d57600080fd5b612b46846125af565b925060208401356001600160401b0380821115612b6257600080fd5b612b6e878388016127be565b93506040860135915080821115612b8457600080fd5b50612b91868287016127be565b9150509250925092565b60008060008060808587031215612bb157600080fd5b612bba856125af565b9350602085013592506040850135915060608501356001600160401b03811115612be357600080fd5b6128db8782880161282f565b80356001600160601b03811681146125c657600080fd5b600080600060608486031215612c1b57600080fd5b83359250612c2b602085016125af565b9150612c3960408501612bef565b90509250925092565b60008060408385031215612c5557600080fd5b612c5e836125af565b915060208301358015158114612c7357600080fd5b809150509250929050565b60008060408385031215612c9157600080fd5b612c9a836125af565b9150612ca860208401612bef565b90509250929050565b60008060408385031215612cc457600080fd5b612ccd836125af565b9150612ca8602084016125af565b600080600080600060a08688031215612cf357600080fd5b612cfc866125af565b9450612d0a602087016125af565b9350604086013592506060860135915060808601356001600160401b03811115612d3357600080fd5b6129a58882890161282f565b600080600060608486031215612d5457600080fd5b612d5d846125af565b95602085013595506040909401359392505050565b600181811c90821680612d8657607f821691505b60208210811415612da757634e487b7160e01b600052602260045260246000fd5b50919050565b634e487b7160e01b600052601160045260246000fd5b6000816000190483118215151615612ddd57612ddd612dad565b500290565b600082612dff57634e487b7160e01b600052601260045260246000fd5b500490565b6020808252602f908201527f455243313135353a2063616c6c6572206973206e6f7420746f6b656e206f776e60408201526e195c881b9bdc88185c1c1c9bdd9959608a1b606082015260800190565b6020808252602c908201527f46756e6374696f6e206d7573742062652063616c6c6564207468726f7567682060408201526b19195b1959d85d1958d85b1b60a21b606082015260800190565b6020808252602c908201527f46756e6374696f6e206d7573742062652063616c6c6564207468726f7567682060408201526b6163746976652070726f787960a01b606082015260800190565b634e487b7160e01b600052603260045260246000fd5b6000600019821415612f1557612f15612dad565b5060010190565b60208082526021908201527f455243313135353a206d696e7420746f20746865207a65726f206164647265736040820152607360f81b606082015260800190565b60208082526028908201527f455243313135353a2069647320616e6420616d6f756e7473206c656e677468206040820152670dad2e6dac2e8c6d60c31b606082015260800190565b60008219821115612fb857612fb8612dad565b500190565b604081526000612fd06040830185612a97565b82810360208401526123548185612a97565b60208082526025908201527f455243313135353a207472616e7366657220746f20746865207a65726f206164604082015264647265737360d81b606082015260800190565b6020808252602a908201527f455243313135353a20696e73756666696369656e742062616c616e636520666f60408201526939103a3930b739b332b960b11b606082015260800190565b60006020828403121561308357600080fd5b5051919050565b60208082526023908201527f455243313135353a206275726e2066726f6d20746865207a65726f206164647260408201526265737360e81b606082015260800190565b60208082526024908201527f455243313135353a206275726e20616d6f756e7420657863656564732062616c604082015263616e636560e01b606082015260800190565b6020808252602b908201527f496e697469616c697a61626c653a20636f6e7472616374206973206e6f74206960408201526a6e697469616c697a696e6760a81b606082015260800190565b6020808252602a908201527f455243323938313a20726f79616c7479206665652077696c6c206578636565646040820152692073616c65507269636560b01b606082015260800190565b6001600160a01b0386811682528516602082015260a0604082018190526000906131d290830186612a97565b82810360608401526131e48186612a97565b905082810360808401526131f8818561275c565b98975050505050505050565b60006020828403121561321657600080fd5b815161250f816125f5565b600060033d1115610bfc5760046000803e5060005160e01c90565b600060443d101561324a5790565b6040516003193d81016004833e81513d6001600160401b03816024840111818411171561327957505050505090565b82850191508151818111156132915750505050505090565b843d87010160208285010111156132ab5750505050505090565b6132ba6020828601018761263e565b509095945050505050565b60208082526028908201527f455243313135353a204552433131353552656365697665722072656a656374656040820152676420746f6b656e7360c01b606082015260800190565b6001600160a01b03868116825285166020820152604081018490526060810183905260a0608082018190526000906133479083018461275c565b979650505050505050565b60008251613364818460208701612730565b919091019291505056fe360894a13ba1a3210667c828492db98dca3e2076cc3735a920a3ca505d382bbc416464726573733a206c6f772d6c6576656c2064656c65676174652063616c6c206661696c6564a2646970667358221220149acb1f7ca8df09055d7fc3dcd271910da0f7193f866d708bcf138766f82bd264736f6c634300080c0033",
  "linkReferences": {},
  "deployedLinkReferences": {}
}