{
  "_format": "hh-sol-artifact-1",
  "contractName": "OctiToken1155Upgradeable",
  "sourceName": "contracts/OctiToken1155Upgradeable.sol",
  "abi": [
    {
      "inputs": [],
      "stateMutability": "nonpayable",
      "type": "constructor"
    },
    {
      "anonymous": false,
      "inputs": [
        {
          "indexed": false,
          "internalType": "address",
          "name": "previousAdmin",
          "type": "address"
        },
        {
          "indexed": false,
          "internalType": "address",
          "name": "newAdmin",
          "type": "address"
        }
      ],
      "name": "AdminChanged",
      "type": "event"
    },
    {
      "anonymous": false,
      "inputs": [
        {
          "indexed": true,
          "internalType": "address",
          "name": "account",
          "type": "address"
        },
        {
          "indexed": true,
          "internalType": "address",
          "name": "operator",
          "type": "address"
        },
        {
          "indexed": false,
          "internalType": "bool",
          "name": "approved",
          "type": "bool"
        }
      ],
      "name": "ApprovalForAll",
      "type": "event"
    },
    {
      "anonymous": false,
      "inputs": [
        {
          "indexed": true,
          "internalType": "address",
          "name": "beacon",
          "type": "address"
        }
      ],
      "name": "BeaconUpgraded",
      "type": "event"
    },
    {
      "anonymous": false,
      "inputs": [
        {
          "indexed": false,
          "internalType": "uint8",
          "name": "version",
          "type": "uint8"
        }
      ],
      "name": "Initialized",
      "type": "event"
    },
    {
      "anonymous": false,
      "inputs": [
        {
          "indexed": true,
          "internalType": "address",
          "name": "previousOwner",
          "type": "address"
        },
        {
          "indexed": true,
          "internalType": "address",
          "name": "newOwner",
          "type": "address"
        }
      ],
      "name": "OwnershipTransferred",
      "type": "event"
    },
    {
      "anonymous": false,
      "inputs": [
        {
          "indexed": false,
          "internalType": "address",
          "name": "account",
          "type": "address"
        }
      ],
      "name": "Paused",
      "type": "event"
    },
    {
      "anonymous": false,
      "inputs": [
        {
          "indexed": true,
          "internalType": "address",
          "name": "operator",
          "type": "address"
        },
        {
          "indexed": true,
          "internalType": "address",
          "name": "from",
          "type": "address"
        },
        {
          "indexed": true,
          "internalType": "address",
          "name": "to",
          "type": "address"
        },
        {
          "indexed": false,
          "internalType": "uint256[]",
          "name": "ids",
          "type": "uint256[]"
        },
        {
          "indexed": false,
          "internalType": "uint256[]",
          "name": "values",
          "type": "uint256[]"
        }
      ],
      "name": "TransferBatch",
      "type": "event"
    },
    {
      "anonymous": false,
      "inputs": [
        {
          "indexed": true,
          "internalType": "address",
          "name": "operator",
          "type": "address"
        },
        {
          "indexed": true,
          "internalType": "address",
          "name": "from",
          "type": "address"
        },
        {
          "indexed": true,
          "internalType": "address",
          "name": "to",
          "type": "address"
        },
        {
          "indexed": false,
          "internalType": "uint256",
          "name": "id",
          "type": "uint256"
        },
        {
          "indexed": false,
          "internalType": "uint256",
          "name": "value",
          "type": "uint256"
        }
      ],
      "name": "TransferSingle",
      "type": "event"
    },
    {
      "anonymous": false,
      "inputs": [
        {
          "indexed": false,
          "internalType": "string",
          "name": "value",
          "type": "string"
        },
        {
          "indexed": true,
          "internalType": "uint256",
          "name": "id",
          "type": "uint256"
        }
      ],
      "name": "URI",
      "type": "event"
    },
    {
      "anonymous": false,
      "inputs": [
        {
          "indexed": false,
          "internalType": "address",
          "name": "account",
          "type": "address"
        }
      ],
      "name": "Unpaused",
      "type": "event"
    },
    {
      "anonymous": false,
      "inputs": [
        {
          "indexed": true,
          "internalType": "address",
          "name": "implementation",
          "type": "address"
        }
      ],
      "name": "Upgraded",
      "type": "event"
    },
    {
      "inputs": [
        {
          "internalType": "address",
          "name": "account",
          "type": "address"
        },
        {
          "internalType": "uint256",
          "name": "id",
          "type": "uint256"
        }
      ],
      "name": "balanceOf",
      "outputs": [
        {
          "internalType": "uint256",
          "name": "",
          "type": "uint256"
        }
      ],
      "stateMutability": "view",
      "type": "function"
    },
    {
      "inputs": [
        {
          "internalType": "address[]",
          "name": "accounts",
          "type": "address[]"
        },
        {
          "internalType": "uint256[]",
          "name": "ids",
          "type": "uint256[]"
        }
      ],
      "name": "balanceOfBatch",
      "outputs": [
        {
          "internalType": "uint256[]",
          "name": "",
          "type": "uint256[]"
        }
      ],
      "stateMutability": "view",
      "type": "function"
    },
    {
      "inputs": [
        {
          "internalType": "address",
          "name": "account",
          "type": "address"
        },
        {
          "internalType": "uint256",
          "name": "id",
          "type": "uint256"
        },
        {
          "internalType": "uint256",
          "name": "value",
          "type": "uint256"
        }
      ],
      "name": "burn",
      "outputs": [],
      "stateMutability": "nonpayable",
      "type": "function"
    },
    {
      "inputs": [
        {
          "internalType": "address",
          "name": "account",
          "type": "address"
        },
        {
          "internalType": "uint256[]",
          "name": "ids",
          "type": "uint256[]"
        },
        {
          "internalType": "uint256[]",
          "name": "values",
          "type": "uint256[]"
        }
      ],
      "name": "burnBatch",
      "outputs": [],
      "stateMutability": "nonpayable",
      "type": "function"
    },
    {
      "inputs": [],
      "name": "contractURI",
      "outputs": [
        {
          "internalType": "string",
          "name": "",
          "type": "string"
        }
      ],
      "stateMutability": "view",
      "type": "function"
    },
    {
      "inputs": [
        {
          "internalType": "uint256",
          "name": "id",
          "type": "uint256"
        }
      ],
      "name": "exists",
      "outputs": [
        {
          "internalType": "bool",
          "name": "",
          "type": "bool"
        }
      ],
      "stateMutability": "view",
      "type": "function"
    },
    {
      "inputs": [],
      "name": "initialize",
      "outputs": [],
      "stateMutability": "nonpayable",
      "type": "function"
    },
    {
      "inputs": [
        {
          "internalType": "address",
          "name": "account",
          "type": "address"
        },
        {
          "internalType": "address",
          "name": "operator",
          "type": "address"
        }
      ],
      "name": "isApprovedForAll",
      "outputs": [
        {
          "internalType": "bool",
          "name": "",
          "type": "bool"
        }
      ],
      "stateMutability": "view",
      "type": "function"
    },
    {
      "inputs": [
        {
          "internalType": "address",
          "name": "account",
          "type": "address"
        },
        {
          "internalType": "uint256",
          "name": "id",
          "type": "uint256"
        },
        {
          "internalType": "uint256",
          "name": "amount",
          "type": "uint256"
        },
        {
          "internalType": "bytes",
          "name": "data",
          "type": "bytes"
        }
      ],
      "name": "mint",
      "outputs": [],
      "stateMutability": "nonpayable",
      "type": "function"
    },
    {
      "inputs": [
        {
          "internalType": "address",
          "name": "to",
          "type": "address"
        },
        {
          "internalType": "uint256[]",
          "name": "ids",
          "type": "uint256[]"
        },
        {
          "internalType": "uint256[]",
          "name": "amounts",
          "type": "uint256[]"
        },
        {
          "internalType": "bytes",
          "name": "data",
          "type": "bytes"
        }
      ],
      "name": "mintBatch",
      "outputs": [],
      "stateMutability": "nonpayable",
      "type": "function"
    },
    {
      "inputs": [],
      "name": "name",
      "outputs": [
        {
          "internalType": "string",
          "name": "",
          "type": "string"
        }
      ],
      "stateMutability": "view",
      "type": "function"
    },
    {
      "inputs": [],
      "name": "owner",
      "outputs": [
        {
          "internalType": "address",
          "name": "",
          "type": "address"
        }
      ],
      "stateMutability": "view",
      "type": "function"
    },
    {
      "inputs": [],
      "name": "pause",
      "outputs": [],
      "stateMutability": "nonpayable",
      "type": "function"
    },
    {
      "inputs": [],
      "name": "paused",
      "outputs": [
        {
          "internalType": "bool",
          "name": "",
          "type": "bool"
        }
      ],
      "stateMutability": "view",
      "type": "function"
    },
    {
      "inputs": [],
      "name": "proxiableUUID",
      "outputs": [
        {
          "internalType": "bytes32",
          "name": "",
          "type": "bytes32"
        }
      ],
      "stateMutability": "view",
      "type": "function"
    },
    {
      "inputs": [],
      "name": "removeDefaultRoyalty",
      "outputs": [],
      "stateMutability": "nonpayable",
      "type": "function"
    },
    {
      "inputs": [
        {
          "internalType": "uint256",
          "name": "tokenId",
          "type": "uint256"
        }
      ],
      "name": "removeTokenRoyalty",
      "outputs": [],
      "stateMutability": "nonpayable",
      "type": "function"
    },
    {
      "inputs": [],
      "name": "renounceOwnership",
      "outputs": [],
      "stateMutability": "nonpayable",
      "type": "function"
    },
    {
      "inputs": [
        {
          "internalType": "uint256",
          "name": "_tokenId",
          "type": "uint256"
        },
        {
          "internalType": "uint256",
          "name": "_salePrice",
          "type": "uint256"
        }
      ],
      "name": "royaltyInfo",
      "outputs": [
        {
          "internalType": "address",
          "name": "",
          "type": "address"
        },
        {
          "internalType": "uint256",
          "name": "",
          "type": "uint256"
        }
      ],
      "stateMutability": "view",
      "type": "function"
    },
    {
      "inputs": [
        {
          "internalType": "address",
          "name": "from",
          "type": "address"
        },
        {
          "internalType": "address",
          "name": "to",
          "type": "address"
        },
        {
          "internalType": "uint256[]",
          "name": "ids",
          "type": "uint256[]"
        },
        {
          "internalType": "uint256[]",
          "name": "amounts",
          "type": "uint256[]"
        },
        {
          "internalType": "bytes",
          "name": "data",
          "type": "bytes"
        }
      ],
      "name": "safeBatchTransferFrom",
      "outputs": [],
      "stateMutability": "nonpayable",
      "type": "function"
    },
    {
      "inputs": [
        {
          "internalType": "address",
          "name": "from",
          "type": "address"
        },
        {
          "internalType": "address",
          "name": "to",
          "type": "address"
        },
        {
          "internalType": "uint256",
          "name": "id",
          "type": "uint256"
        },
        {
          "internalType": "uint256",
          "name": "amount",
          "type": "uint256"
        },
        {
          "internalType": "bytes",
          "name": "data",
          "type": "bytes"
        }
      ],
      "name": "safeTransferFrom",
      "outputs": [],
      "stateMutability": "nonpayable",
      "type": "function"
    },
    {
      "inputs": [
        {
          "internalType": "address",
          "name": "operator",
          "type": "address"
        },
        {
          "internalType": "bool",
          "name": "approved",
          "type": "bool"
        }
      ],
      "name": "setApprovalForAll",
      "outputs": [],
      "stateMutability": "nonpayable",
      "type": "function"
    },
    {
      "inputs": [
        {
          "internalType": "string",
          "name": "newuri",
          "type": "string"
        }
      ],
      "name": "setContractURI",
      "outputs": [],
      "stateMutability": "nonpayable",
      "type": "function"
    },
    {
      "inputs": [
        {
          "internalType": "string",
          "name": "newuri",
          "type": "string"
        }
      ],
      "name": "setURI",
      "outputs": [],
      "stateMutability": "nonpayable",
      "type": "function"
    },
    {
      "inputs": [
        {
          "internalType": "bytes4",
          "name": "interfaceId",
          "type": "bytes4"
        }
      ],
      "name": "supportsInterface",
      "outputs": [
        {
          "internalType": "bool",
          "name": "",
          "type": "bool"
        }
      ],
      "stateMutability": "view",
      "type": "function"
    },
    {
      "inputs": [],
      "name": "symbol",
      "outputs": [
        {
          "internalType": "string",
          "name": "",
          "type": "string"
        }
      ],
      "stateMutability": "view",
      "type": "function"
    },
    {
      "inputs": [
        {
          "internalType": "uint256",
          "name": "id",
          "type": "uint256"
        }
      ],
      "name": "totalSupply",
      "outputs": [
        {
          "internalType": "uint256",
          "name": "",
          "type": "uint256"
        }
      ],
      "stateMutability": "view",
      "type": "function"
    },
    {
      "inputs": [
        {
          "internalType": "address",
          "name": "newOwner",
          "type": "address"
        }
      ],
      "name": "transferOwnership",
      "outputs": [],
      "stateMutability": "nonpayable",
      "type": "function"
    },
    {
      "inputs": [],
      "name": "unpause",
      "outputs": [],
      "stateMutability": "nonpayable",
      "type": "function"
    },
    {
      "inputs": [
        {
          "internalType": "address",
          "name": "receiver",
          "type": "address"
        },
        {
          "internalType": "uint96",
          "name": "feeNumerator",
          "type": "uint96"
        }
      ],
      "name": "updateDefaultRoyalty",
      "outputs": [],
      "stateMutability": "nonpayable",
      "type": "function"
    },
    {
      "inputs": [
        {
          "internalType": "uint256",
          "name": "tokenId",
          "type": "uint256"
        },
        {
          "internalType": "address",
          "name": "receiver",
          "type": "address"
        },
        {
          "internalType": "uint96",
          "name": "feeNumerator",
          "type": "uint96"
        }
      ],
      "name": "updateTokenRoyalty",
      "outputs": [],
      "stateMutability": "nonpayable",
      "type": "function"
    },
    {
      "inputs": [
        {
          "internalType": "address",
          "name": "newImplementation",
          "type": "address"
        }
      ],
      "name": "upgradeTo",
      "outputs": [],
      "stateMutability": "nonpayable",
      "type": "function"
    },
    {
      "inputs": [
        {
          "internalType": "address",
          "name": "newImplementation",
          "type": "address"
        },
        {
          "internalType": "bytes",
          "name": "data",
          "type": "bytes"
        }
      ],
      "name": "upgradeToAndCall",
      "outputs": [],
      "stateMutability": "payable",
      "type": "function"
    },
    {
      "inputs": [
        {
          "internalType": "uint256",
          "name": "",
          "type": "uint256"
        }
      ],
      "name": "uri",
      "outputs": [
        {
          "internalType": "string",
          "name": "",
          "type": "string"
        }
      ],
      "stateMutability": "view",
      "type": "function"
    }
  ],
  "bytecode": "0x60a0604052306080523480156200001557600080fd5b506200002062000026565b620000e8565b600054610100900460ff1615620000935760405162461bcd60e51b815260206004820152602760248201527f496e697469616c697a61626c653a20636f6e747261637420697320696e697469604482015266616c697a696e6760c81b606482015260840160405180910390fd5b60005460ff9081161015620000e6576000805460ff191660ff9081179091556040519081527f7f26b83ff96e1f2b6a682f133852f6798a09c465da95921460cefb38474024989060200160405180910390a15b565b6080516136aa6200012060003960008181610987015281816109c701528181610b9f01528181610bdf0152610c7201526136aa6000f3fe6080604052600436106101f85760003560e01c8063715018a61161010d57806397ec4fba116100a0578063e8a3d4851161006f578063e8a3d485146105b3578063e985e9c5146105c8578063f242432a14610611578063f2fde38b14610631578063f5298aca1461065157600080fd5b806397ec4fba14610531578063a22cb46514610546578063bd85b03914610566578063d691e43c1461059357600080fd5b806386e228d5116100dc57806386e228d5146104b45780638da5cb5b146104d4578063938e3d7b146104fc57806395d89b411461051c57600080fd5b8063715018a614610455578063731133e91461046a5780638129fc1c1461048a5780638456cb591461049f57600080fd5b80632eb2c2d6116101905780634f1ef2861161015f5780634f1ef286146103c55780634f558e79146103d857806352d1902d146104075780635c975abb1461041c5780636b20c4541461043557600080fd5b80632eb2c2d6146103435780633659cfe6146103635780633f4ba83a146103835780634e1273f41461039857600080fd5b80630e89341c116101cc5780630e89341c146102a45780631e6b5818146102c45780631f7fdffa146102e45780632a55205a1461030457600080fd5b8062fdd58e146101fd57806301ffc9a71461023057806302fe53051461026057806306fdde0314610282575b600080fd5b34801561020957600080fd5b5061021d610218366004612826565b610671565b6040519081526020015b60405180910390f35b34801561023c57600080fd5b5061025061024b366004612866565b610709565b6040519015158152602001610227565b34801561026c57600080fd5b5061028061027b366004612922565b61071a565b005b34801561028e57600080fd5b5061029761072e565b60405161022791906129ca565b3480156102b057600080fd5b506102976102bf3660046129dd565b6107bd565b3480156102d057600080fd5b506102806102df3660046129dd565b610851565b3480156102f057600080fd5b506102806102ff366004612aaa565b61086a565b34801561031057600080fd5b5061032461031f366004612b42565b610884565b604080516001600160a01b039093168352602083019190915201610227565b34801561034f57600080fd5b5061028061035e366004612b64565b610930565b34801561036f57600080fd5b5061028061037e366004612c0d565b61097c565b34801561038f57600080fd5b50610280610a59565b3480156103a457600080fd5b506103b86103b3366004612c28565b610a6b565b6040516102279190612d2d565b6102806103d3366004612d40565b610b94565b3480156103e457600080fd5b506102506103f33660046129dd565b600090815260fb6020526040902054151590565b34801561041357600080fd5b5061021d610c65565b34801561042857600080fd5b5061012d5460ff16610250565b34801561044157600080fd5b50610280610450366004612d83565b610d19565b34801561046157600080fd5b50610280610d61565b34801561047657600080fd5b50610280610485366004612df6565b610d73565b34801561049657600080fd5b50610280610d87565b3480156104ab57600080fd5b50610280610f6e565b3480156104c057600080fd5b506102806104cf366004612e61565b610f7e565b3480156104e057600080fd5b506033546040516001600160a01b039091168152602001610227565b34801561050857600080fd5b50610280610517366004612922565b610f91565b34801561052857600080fd5b50610297610fad565b34801561053d57600080fd5b50610280610fbb565b34801561055257600080fd5b50610280610561366004612e9d565b610fcd565b34801561057257600080fd5b5061021d6105813660046129dd565b600090815260fb602052604090205490565b34801561059f57600080fd5b506102806105ae366004612ed9565b610fd8565b3480156105bf57600080fd5b50610297610fea565b3480156105d457600080fd5b506102506105e3366004612f0c565b6001600160a01b03918216600090815260986020908152604080832093909416825291909152205460ff1690565b34801561061d57600080fd5b5061028061062c366004612f36565b61107d565b34801561063d57600080fd5b5061028061064c366004612c0d565b6110c2565b34801561065d57600080fd5b5061028061066c366004612f9a565b611138565b60006001600160a01b0383166106e15760405162461bcd60e51b815260206004820152602a60248201527f455243313135353a2061646472657373207a65726f206973206e6f742061207660448201526930b634b21037bbb732b960b11b60648201526084015b60405180910390fd5b5060009081526097602090815260408083206001600160a01b03949094168352929052205490565b60006107148261117b565b92915050565b6107226111a0565b61072b816111fa565b50565b610227805461073c90612fcd565b80601f016020809104026020016040519081016040528092919081815260200182805461076890612fcd565b80156107b55780601f1061078a576101008083540402835291602001916107b5565b820191906000526020600020905b81548152906001019060200180831161079857829003601f168201915b505050505081565b6060609980546107cc90612fcd565b80601f01602080910402602001604051908101604052809291908181526020018280546107f890612fcd565b80156108455780601f1061081a57610100808354040283529160200191610845565b820191906000526020600020905b81548152906001019060200180831161082857829003601f168201915b50505050509050919050565b6108596111a0565b600090815260ca6020526040812055565b6108726111a0565b61087e8484848461120d565b50505050565b600082815260ca602090815260408083208151808301909252546001600160a01b038116808352600160a01b9091046001600160601b03169282019290925282916108f957506040805180820190915260c9546001600160a01b0381168252600160a01b90046001600160601b031660208201525b602081015160009061271090610918906001600160601b03168761301e565b610922919061303d565b915196919550909350505050565b6001600160a01b03851633148061094c575061094c85336105e3565b6109685760405162461bcd60e51b81526004016106d89061305f565b6109758585858585611368565b5050505050565b306001600160a01b037f00000000000000000000000000000000000000000000000000000000000000001614156109c55760405162461bcd60e51b81526004016106d8906130ae565b7f00000000000000000000000000000000000000000000000000000000000000006001600160a01b0316610a0e6000805160206135ca833981519152546001600160a01b031690565b6001600160a01b031614610a345760405162461bcd60e51b81526004016106d8906130fa565b610a3d81611515565b6040805160008082526020820190925261072b9183919061151d565b610a616111a0565b610a69611688565b565b60608151835114610ad05760405162461bcd60e51b815260206004820152602960248201527f455243313135353a206163636f756e747320616e6420696473206c656e677468604482015268040dad2e6dac2e8c6d60bb1b60648201526084016106d8565b600083516001600160401b03811115610aeb57610aeb612883565b604051908082528060200260200182016040528015610b14578160200160208202803683370190505b50905060005b8451811015610b8c57610b5f858281518110610b3857610b38613146565b6020026020010151858381518110610b5257610b52613146565b6020026020010151610671565b828281518110610b7157610b71613146565b6020908102919091010152610b858161315c565b9050610b1a565b509392505050565b306001600160a01b037f0000000000000000000000000000000000000000000000000000000000000000161415610bdd5760405162461bcd60e51b81526004016106d8906130ae565b7f00000000000000000000000000000000000000000000000000000000000000006001600160a01b0316610c266000805160206135ca833981519152546001600160a01b031690565b6001600160a01b031614610c4c5760405162461bcd60e51b81526004016106d8906130fa565b610c5582611515565b610c618282600161151d565b5050565b6000306001600160a01b037f00000000000000000000000000000000000000000000000000000000000000001614610d055760405162461bcd60e51b815260206004820152603860248201527f555550535570677261646561626c653a206d757374206e6f742062652063616c60448201527f6c6564207468726f7567682064656c656761746563616c6c000000000000000060648201526084016106d8565b506000805160206135ca8339815191525b90565b6001600160a01b038316331480610d355750610d3583336105e3565b610d515760405162461bcd60e51b81526004016106d89061305f565b610d5c8383836116db565b505050565b610d696111a0565b610a69600061187a565b610d7b6111a0565b61087e848484846118cc565b600054610100900460ff1615808015610da75750600054600160ff909116105b80610dc15750303b158015610dc1575060005460ff166001145b610e245760405162461bcd60e51b815260206004820152602e60248201527f496e697469616c697a61626c653a20636f6e747261637420697320616c72656160448201526d191e481a5b9a5d1a585b1a5e995960921b60648201526084016106d8565b6000805460ff191660011790558015610e47576000805461ff0019166101001790555b60408051808201909152600b8082526a155b1d1c985d9a5bdb195d60aa1b6020909201918252610e7a9161022791612771565b50604080518082019091526002808252612aab60f11b6020909201918252610ea59161022891612771565b50604051806060016040528060308152602001613645603091398051610ed49161022991602090910190612771565b50610ef66040518060600160405280603481526020016135ea603491396119b7565b610efe6119e7565b610f06611a16565b610f0e611a45565b610f16611a45565b610f1e611a45565b610f26611a45565b801561072b576000805461ff0019169055604051600181527f7f26b83ff96e1f2b6a682f133852f6798a09c465da95921460cefb38474024989060200160405180910390a150565b610f766111a0565b610a69611a6c565b610f866111a0565b610d5c838383611aaa565b610f996111a0565b8051610c6190610229906020840190612771565b610228805461073c90612fcd565b610fc36111a0565b610a69600060c955565b610c61338383611b75565b610fe06111a0565b610c618282611c56565b60606102298054610ffa90612fcd565b80601f016020809104026020016040519081016040528092919081815260200182805461102690612fcd565b80156110735780601f1061104857610100808354040283529160200191611073565b820191906000526020600020905b81548152906001019060200180831161105657829003601f168201915b5050505050905090565b6001600160a01b038516331480611099575061109985336105e3565b6110b55760405162461bcd60e51b81526004016106d89061305f565b6109758585858585611d10565b6110ca6111a0565b6001600160a01b03811661112f5760405162461bcd60e51b815260206004820152602660248201527f4f776e61626c653a206e6577206f776e657220697320746865207a65726f206160448201526564647265737360d01b60648201526084016106d8565b61072b8161187a565b6001600160a01b038316331480611154575061115483336105e3565b6111705760405162461bcd60e51b81526004016106d89061305f565b610d5c838383611e4c565b60006001600160e01b0319821663152a902d60e11b1480610714575061071482611f68565b6033546001600160a01b03163314610a695760405162461bcd60e51b815260206004820181905260248201527f4f776e61626c653a2063616c6c6572206973206e6f7420746865206f776e657260448201526064016106d8565b8051610c61906099906020840190612771565b6001600160a01b0384166112335760405162461bcd60e51b81526004016106d890613177565b81518351146112545760405162461bcd60e51b81526004016106d8906131b8565b3361126481600087878787611fb8565b60005b84518110156113005783818151811061128257611282613146565b6020026020010151609760008784815181106112a0576112a0613146565b602002602001015181526020019081526020016000206000886001600160a01b03166001600160a01b0316815260200190815260200160002060008282546112e89190613200565b909155508190506112f88161315c565b915050611267565b50846001600160a01b031660006001600160a01b0316826001600160a01b03167f4a39dc06d4c0dbc64b70af90fd698a233a518aa5d07e595d983b8c0526c8f7fb8787604051611351929190613218565b60405180910390a461097581600087878787611fce565b81518351146113895760405162461bcd60e51b81526004016106d8906131b8565b6001600160a01b0384166113af5760405162461bcd60e51b81526004016106d89061323d565b336113be818787878787611fb8565b60005b84518110156114a75760008582815181106113de576113de613146565b6020026020010151905060008583815181106113fc576113fc613146565b60209081029190910181015160008481526097835260408082206001600160a01b038e16835290935291909120549091508181101561144d5760405162461bcd60e51b81526004016106d890613282565b60008381526097602090815260408083206001600160a01b038e8116855292528083208585039055908b1682528120805484929061148c908490613200565b92505081905550505050806114a09061315c565b90506113c1565b50846001600160a01b0316866001600160a01b0316826001600160a01b03167f4a39dc06d4c0dbc64b70af90fd698a233a518aa5d07e595d983b8c0526c8f7fb87876040516114f7929190613218565b60405180910390a461150d818787878787611fce565b505050505050565b61072b6111a0565b7f4910fdfa16fed3260ed0e7147f7cc6da11a60208b5b9406d12a635614ffd91435460ff161561155057610d5c8361212a565b826001600160a01b03166352d1902d6040518163ffffffff1660e01b8152600401602060405180830381865afa9250505080156115aa575060408051601f3d908101601f191682019092526115a7918101906132cc565b60015b61160d5760405162461bcd60e51b815260206004820152602e60248201527f45524331393637557067726164653a206e657720696d706c656d656e7461746960448201526d6f6e206973206e6f74205555505360901b60648201526084016106d8565b6000805160206135ca833981519152811461167c5760405162461bcd60e51b815260206004820152602960248201527f45524331393637557067726164653a20756e737570706f727465642070726f786044820152681a58589b195555525160ba1b60648201526084016106d8565b50610d5c8383836121c6565b6116906121eb565b61012d805460ff191690557f5db9ee0a495bf2e6ff9c91a7834c1ba4fdd244a5e8aa4e537bd38aeae4b073aa335b6040516001600160a01b03909116815260200160405180910390a1565b6001600160a01b0383166117015760405162461bcd60e51b81526004016106d8906132e5565b80518251146117225760405162461bcd60e51b81526004016106d8906131b8565b600033905061174581856000868660405180602001604052806000815250611fb8565b60005b835181101561180d57600084828151811061176557611765613146565b60200260200101519050600084838151811061178357611783613146565b60209081029190910181015160008481526097835260408082206001600160a01b038c1683529093529190912054909150818110156117d45760405162461bcd60e51b81526004016106d890613328565b60009283526097602090815260408085206001600160a01b038b16865290915290922091039055806118058161315c565b915050611748565b5060006001600160a01b0316846001600160a01b0316826001600160a01b03167f4a39dc06d4c0dbc64b70af90fd698a233a518aa5d07e595d983b8c0526c8f7fb868660405161185e929190613218565b60405180910390a460408051602081019091526000905261087e565b603380546001600160a01b038381166001600160a01b0319831681179093556040519116919082907f8be0079c531659141344cd1fd0a4f28419497f9722a3daafe3b4186f6b6457e090600090a35050565b6001600160a01b0384166118f25760405162461bcd60e51b81526004016106d890613177565b3360006118fe85612235565b9050600061190b85612235565b905061191c83600089858589611fb8565b60008681526097602090815260408083206001600160a01b038b1684529091528120805487929061194e908490613200565b909155505060408051878152602081018790526001600160a01b03808a1692600092918716917fc3d58168c5ae7397731d063d5bbf3d657854427343f4c083240f7aacaa2d0f62910160405180910390a46119ae83600089898989612280565b50505050505050565b600054610100900460ff166119de5760405162461bcd60e51b81526004016106d89061336c565b61072b8161233b565b600054610100900460ff16611a0e5760405162461bcd60e51b81526004016106d89061336c565b610a69612362565b600054610100900460ff16611a3d5760405162461bcd60e51b81526004016106d89061336c565b610a69612392565b600054610100900460ff16610a695760405162461bcd60e51b81526004016106d89061336c565b611a746123c6565b61012d805460ff191660011790557f62e78cea01bee320cd4e420270b5ea74000d11b0c9f74754ebdbfc544b05a2586116be3390565b6127106001600160601b0382161115611ad55760405162461bcd60e51b81526004016106d8906133b7565b6001600160a01b038216611b2b5760405162461bcd60e51b815260206004820152601b60248201527f455243323938313a20496e76616c696420706172616d6574657273000000000060448201526064016106d8565b6040805180820182526001600160a01b0393841681526001600160601b039283166020808301918252600096875260ca90529190942093519051909116600160a01b029116179055565b816001600160a01b0316836001600160a01b03161415611be95760405162461bcd60e51b815260206004820152602960248201527f455243313135353a2073657474696e6720617070726f76616c20737461747573604482015268103337b91039b2b63360b91b60648201526084016106d8565b6001600160a01b03838116600081815260986020908152604080832094871680845294825291829020805460ff191686151590811790915591519182527f17307eab39ab6107e8899845ad3d59bd9653f200f220920489ca2b5937696c31910160405180910390a3505050565b6127106001600160601b0382161115611c815760405162461bcd60e51b81526004016106d8906133b7565b6001600160a01b038216611cd75760405162461bcd60e51b815260206004820152601960248201527f455243323938313a20696e76616c69642072656365697665720000000000000060448201526064016106d8565b604080518082019091526001600160a01b039092168083526001600160601b039091166020909201829052600160a01b9091021760c955565b6001600160a01b038416611d365760405162461bcd60e51b81526004016106d89061323d565b336000611d4285612235565b90506000611d4f85612235565b9050611d5f838989858589611fb8565b60008681526097602090815260408083206001600160a01b038c16845290915290205485811015611da25760405162461bcd60e51b81526004016106d890613282565b60008781526097602090815260408083206001600160a01b038d8116855292528083208985039055908a16825281208054889290611de1908490613200565b909155505060408051888152602081018890526001600160a01b03808b16928c821692918816917fc3d58168c5ae7397731d063d5bbf3d657854427343f4c083240f7aacaa2d0f62910160405180910390a4611e41848a8a8a8a8a612280565b505050505050505050565b6001600160a01b038316611e725760405162461bcd60e51b81526004016106d8906132e5565b336000611e7e84612235565b90506000611e8b84612235565b9050611eab83876000858560405180602001604052806000815250611fb8565b60008581526097602090815260408083206001600160a01b038a16845290915290205484811015611eee5760405162461bcd60e51b81526004016106d890613328565b60008681526097602090815260408083206001600160a01b038b81168086529184528285208a8703905582518b81529384018a90529092908816917fc3d58168c5ae7397731d063d5bbf3d657854427343f4c083240f7aacaa2d0f62910160405180910390a46040805160208101909152600090526119ae565b60006001600160e01b03198216636cdb3d1360e11b1480611f9957506001600160e01b031982166303a24d0760e21b145b8061071457506301ffc9a760e01b6001600160e01b0319831614610714565b611fc06123c6565b61150d86868686868661240d565b6001600160a01b0384163b1561150d5760405163bc197c8160e01b81526001600160a01b0385169063bc197c81906120129089908990889088908890600401613401565b6020604051808303816000875af192505050801561204d575060408051601f3d908101601f1916820190925261204a9181019061345f565b60015b6120fa5761205961347c565b806308c379a01415612093575061206e613497565b806120795750612095565b8060405162461bcd60e51b81526004016106d891906129ca565b505b60405162461bcd60e51b815260206004820152603460248201527f455243313135353a207472616e7366657220746f206e6f6e20455243313135356044820152732932b1b2b4bb32b91034b6b83632b6b2b73a32b960611b60648201526084016106d8565b6001600160e01b0319811663bc197c8160e01b146119ae5760405162461bcd60e51b81526004016106d890613520565b6001600160a01b0381163b6121975760405162461bcd60e51b815260206004820152602d60248201527f455243313936373a206e657720696d706c656d656e746174696f6e206973206e60448201526c1bdd08184818dbdb9d1c9858dd609a1b60648201526084016106d8565b6000805160206135ca83398151915280546001600160a01b0319166001600160a01b0392909216919091179055565b6121cf83612484565b6000825111806121dc5750805b15610d5c5761087e83836124c4565b61012d5460ff16610a695760405162461bcd60e51b815260206004820152601460248201527314185d5cd8589b194e881b9bdd081c185d5cd95960621b60448201526064016106d8565b6040805160018082528183019092526060916000919060208083019080368337019050509050828160008151811061226f5761226f613146565b602090810291909101015292915050565b6001600160a01b0384163b1561150d5760405163f23a6e6160e01b81526001600160a01b0385169063f23a6e61906122c49089908990889088908890600401613568565b6020604051808303816000875af19250505080156122ff575060408051601f3d908101601f191682019092526122fc9181019061345f565b60015b61230b5761205961347c565b6001600160e01b0319811663f23a6e6160e01b146119ae5760405162461bcd60e51b81526004016106d890613520565b600054610100900460ff166107225760405162461bcd60e51b81526004016106d89061336c565b600054610100900460ff166123895760405162461bcd60e51b81526004016106d89061336c565b610a693361187a565b600054610100900460ff166123b95760405162461bcd60e51b81526004016106d89061336c565b61012d805460ff19169055565b61012d5460ff1615610a695760405162461bcd60e51b815260206004820152601060248201526f14185d5cd8589b194e881c185d5cd95960821b60448201526064016106d8565b61241b8686868686866125b8565b61012d5460ff161561150d5760405162461bcd60e51b815260206004820152602c60248201527f455243313135355061757361626c653a20746f6b656e207472616e736665722060448201526b1dda1a5b19481c185d5cd95960a21b60648201526084016106d8565b61248d8161212a565b6040516001600160a01b038216907fbc7cd75a20ee27fd9adebab32041f755214dbc6bffa90cc0225b39da2e5c2d3b90600090a250565b60606001600160a01b0383163b61252c5760405162461bcd60e51b815260206004820152602660248201527f416464726573733a2064656c65676174652063616c6c20746f206e6f6e2d636f6044820152651b9d1c9858dd60d21b60648201526084016106d8565b600080846001600160a01b03168460405161254791906135ad565b600060405180830381855af49150503d8060008114612582576040519150601f19603f3d011682016040523d82523d6000602084013e612587565b606091505b50915091506125af828260405180606001604052806027815260200161361e60279139612731565b95945050505050565b6001600160a01b03851661263f5760005b835181101561263d578281815181106125e4576125e4613146565b602002602001015160fb600086848151811061260257612602613146565b6020026020010151815260200190815260200160002060008282546126279190613200565b9091555061263690508161315c565b90506125c9565b505b6001600160a01b03841661150d5760005b83518110156119ae57600084828151811061266d5761266d613146565b60200260200101519050600084838151811061268b5761268b613146565b60200260200101519050600060fb60008481526020019081526020016000205490508181101561270e5760405162461bcd60e51b815260206004820152602860248201527f455243313135353a206275726e20616d6f756e74206578636565647320746f74604482015267616c537570706c7960c01b60648201526084016106d8565b600092835260fb60205260409092209103905561272a8161315c565b9050612650565b6060831561274057508161276a565b8251156127505782518084602001fd5b8160405162461bcd60e51b81526004016106d891906129ca565b9392505050565b82805461277d90612fcd565b90600052602060002090601f01602090048101928261279f57600085556127e5565b82601f106127b857805160ff19168380011785556127e5565b828001600101855582156127e5579182015b828111156127e55782518255916020019190600101906127ca565b506127f19291506127f5565b5090565b5b808211156127f157600081556001016127f6565b80356001600160a01b038116811461282157600080fd5b919050565b6000806040838503121561283957600080fd5b6128428361280a565b946020939093013593505050565b6001600160e01b03198116811461072b57600080fd5b60006020828403121561287857600080fd5b813561276a81612850565b634e487b7160e01b600052604160045260246000fd5b601f8201601f191681016001600160401b03811182821017156128be576128be612883565b6040525050565b60006001600160401b038311156128de576128de612883565b6040516128f5601f8501601f191660200182612899565b80915083815284848401111561290a57600080fd5b83836020830137600060208583010152509392505050565b60006020828403121561293457600080fd5b81356001600160401b0381111561294a57600080fd5b8201601f8101841361295b57600080fd5b61296a848235602084016128c5565b949350505050565b60005b8381101561298d578181015183820152602001612975565b8381111561087e5750506000910152565b600081518084526129b6816020860160208601612972565b601f01601f19169290920160200192915050565b60208152600061276a602083018461299e565b6000602082840312156129ef57600080fd5b5035919050565b60006001600160401b03821115612a0f57612a0f612883565b5060051b60200190565b600082601f830112612a2a57600080fd5b81356020612a37826129f6565b604051612a448282612899565b83815260059390931b8501820192828101915086841115612a6457600080fd5b8286015b84811015612a7f5780358352918301918301612a68565b509695505050505050565b600082601f830112612a9b57600080fd5b61276a838335602085016128c5565b60008060008060808587031215612ac057600080fd5b612ac98561280a565b935060208501356001600160401b0380821115612ae557600080fd5b612af188838901612a19565b94506040870135915080821115612b0757600080fd5b612b1388838901612a19565b93506060870135915080821115612b2957600080fd5b50612b3687828801612a8a565b91505092959194509250565b60008060408385031215612b5557600080fd5b50508035926020909101359150565b600080600080600060a08688031215612b7c57600080fd5b612b858661280a565b9450612b936020870161280a565b935060408601356001600160401b0380821115612baf57600080fd5b612bbb89838a01612a19565b94506060880135915080821115612bd157600080fd5b612bdd89838a01612a19565b93506080880135915080821115612bf357600080fd5b50612c0088828901612a8a565b9150509295509295909350565b600060208284031215612c1f57600080fd5b61276a8261280a565b60008060408385031215612c3b57600080fd5b82356001600160401b0380821115612c5257600080fd5b818501915085601f830112612c6657600080fd5b81356020612c73826129f6565b604051612c808282612899565b83815260059390931b8501820192828101915089841115612ca057600080fd5b948201945b83861015612cc557612cb68661280a565b82529482019490820190612ca5565b96505086013592505080821115612cdb57600080fd5b50612ce885828601612a19565b9150509250929050565b600081518084526020808501945080840160005b83811015612d2257815187529582019590820190600101612d06565b509495945050505050565b60208152600061276a6020830184612cf2565b60008060408385031215612d5357600080fd5b612d5c8361280a565b915060208301356001600160401b03811115612d7757600080fd5b612ce885828601612a8a565b600080600060608486031215612d9857600080fd5b612da18461280a565b925060208401356001600160401b0380821115612dbd57600080fd5b612dc987838801612a19565b93506040860135915080821115612ddf57600080fd5b50612dec86828701612a19565b9150509250925092565b60008060008060808587031215612e0c57600080fd5b612e158561280a565b9350602085013592506040850135915060608501356001600160401b03811115612e3e57600080fd5b612b3687828801612a8a565b80356001600160601b038116811461282157600080fd5b600080600060608486031215612e7657600080fd5b83359250612e866020850161280a565b9150612e9460408501612e4a565b90509250925092565b60008060408385031215612eb057600080fd5b612eb98361280a565b915060208301358015158114612ece57600080fd5b809150509250929050565b60008060408385031215612eec57600080fd5b612ef58361280a565b9150612f0360208401612e4a565b90509250929050565b60008060408385031215612f1f57600080fd5b612f288361280a565b9150612f036020840161280a565b600080600080600060a08688031215612f4e57600080fd5b612f578661280a565b9450612f656020870161280a565b9350604086013592506060860135915060808601356001600160401b03811115612f8e57600080fd5b612c0088828901612a8a565b600080600060608486031215612faf57600080fd5b612fb88461280a565b95602085013595506040909401359392505050565b600181811c90821680612fe157607f821691505b6020821081141561300257634e487b7160e01b600052602260045260246000fd5b50919050565b634e487b7160e01b600052601160045260246000fd5b600081600019048311821515161561303857613038613008565b500290565b60008261305a57634e487b7160e01b600052601260045260246000fd5b500490565b6020808252602f908201527f455243313135353a2063616c6c6572206973206e6f7420746f6b656e206f776e60408201526e195c881b9bdc88185c1c1c9bdd9959608a1b606082015260800190565b6020808252602c908201527f46756e6374696f6e206d7573742062652063616c6c6564207468726f7567682060408201526b19195b1959d85d1958d85b1b60a21b606082015260800190565b6020808252602c908201527f46756e6374696f6e206d7573742062652063616c6c6564207468726f7567682060408201526b6163746976652070726f787960a01b606082015260800190565b634e487b7160e01b600052603260045260246000fd5b600060001982141561317057613170613008565b5060010190565b60208082526021908201527f455243313135353a206d696e7420746f20746865207a65726f206164647265736040820152607360f81b606082015260800190565b60208082526028908201527f455243313135353a2069647320616e6420616d6f756e7473206c656e677468206040820152670dad2e6dac2e8c6d60c31b606082015260800190565b6000821982111561321357613213613008565b500190565b60408152600061322b6040830185612cf2565b82810360208401526125af8185612cf2565b60208082526025908201527f455243313135353a207472616e7366657220746f20746865207a65726f206164604082015264647265737360d81b606082015260800190565b6020808252602a908201527f455243313135353a20696e73756666696369656e742062616c616e636520666f60408201526939103a3930b739b332b960b11b606082015260800190565b6000602082840312156132de57600080fd5b5051919050565b60208082526023908201527f455243313135353a206275726e2066726f6d20746865207a65726f206164647260408201526265737360e81b606082015260800190565b60208082526024908201527f455243313135353a206275726e20616d6f756e7420657863656564732062616c604082015263616e636560e01b606082015260800190565b6020808252602b908201527f496e697469616c697a61626c653a20636f6e7472616374206973206e6f74206960408201526a6e697469616c697a696e6760a81b606082015260800190565b6020808252602a908201527f455243323938313a20726f79616c7479206665652077696c6c206578636565646040820152692073616c65507269636560b01b606082015260800190565b6001600160a01b0386811682528516602082015260a06040820181905260009061342d90830186612cf2565b828103606084015261343f8186612cf2565b90508281036080840152613453818561299e565b98975050505050505050565b60006020828403121561347157600080fd5b815161276a81612850565b600060033d1115610d165760046000803e5060005160e01c90565b600060443d10156134a55790565b6040516003193d81016004833e81513d6001600160401b0381602484011181841117156134d457505050505090565b82850191508151818111156134ec5750505050505090565b843d87010160208285010111156135065750505050505090565b61351560208286010187612899565b509095945050505050565b60208082526028908201527f455243313135353a204552433131353552656365697665722072656a656374656040820152676420746f6b656e7360c01b606082015260800190565b6001600160a01b03868116825285166020820152604081018490526060810183905260a0608082018190526000906135a29083018461299e565b979650505050505050565b600082516135bf818460208701612972565b919091019291505056fe360894a13ba1a3210667c828492db98dca3e2076cc3735a920a3ca505d382bbc68747470733a2f2f696d782d6d657461646174612d746573742e6865726f6b756170702e636f6d2f706f6c79676f6e2f7b69647d416464726573733a206c6f772d6c6576656c2064656c65676174652063616c6c206661696c656468747470733a2f2f696d782d6d657461646174612d746573742e6865726f6b756170702e636f6d2f706f6c79676f6e2fa26469706673582212203a97c03a70fa69358f44b796b05b5f9658e292c25c6887a27be26a67686a288164736f6c634300080c0033",
  "linkReferences": {},
  "deployedLinkReferences": {}
}