{
  "_format": "hh-sol-artifact-1",
  "contractName": "OctiToken",
  "sourceName": "contracts/OctiToken.sol",
  "abi": [
    {
      "inputs": [
        {
          "internalType": "address",
          "name": "newOwner",
          "type": "address"
        },
        {
          "internalType": "address",
          "name": "royaltyAddress",
          "type": "address"
        },
        {
          "internalType": "string",
          "name": "_newContractURI",
          "type": "string"
        }
      ],
      "stateMutability": "nonpayable",
      "type": "constructor"
    },
    {
      "anonymous": false,
      "inputs": [
        {
          "indexed": true,
          "internalType": "address",
          "name": "owner",
          "type": "address"
        },
        {
          "indexed": true,
          "internalType": "address",
          "name": "approved",
          "type": "address"
        },
        {
          "indexed": true,
          "internalType": "uint256",
          "name": "tokenId",
          "type": "uint256"
        }
      ],
      "name": "Approval",
      "type": "event"
    },
    {
      "anonymous": false,
      "inputs": [
        {
          "indexed": true,
          "internalType": "address",
          "name": "owner",
          "type": "address"
        },
        {
          "indexed": true,
          "internalType": "address",
          "name": "operator",
          "type": "address"
        },
        {
          "indexed": false,
          "internalType": "bool",
          "name": "approved",
          "type": "bool"
        }
      ],
      "name": "ApprovalForAll",
      "type": "event"
    },
    {
      "anonymous": false,
      "inputs": [
        {
          "indexed": true,
          "internalType": "address",
          "name": "previousOwner",
          "type": "address"
        },
        {
          "indexed": true,
          "internalType": "address",
          "name": "newOwner",
          "type": "address"
        }
      ],
      "name": "OwnershipTransferred",
      "type": "event"
    },
    {
      "anonymous": false,
      "inputs": [
        {
          "indexed": false,
          "internalType": "address",
          "name": "account",
          "type": "address"
        }
      ],
      "name": "Paused",
      "type": "event"
    },
    {
      "anonymous": false,
      "inputs": [
        {
          "indexed": true,
          "internalType": "address",
          "name": "from",
          "type": "address"
        },
        {
          "indexed": true,
          "internalType": "address",
          "name": "to",
          "type": "address"
        },
        {
          "indexed": true,
          "internalType": "uint256",
          "name": "tokenId",
          "type": "uint256"
        }
      ],
      "name": "Transfer",
      "type": "event"
    },
    {
      "anonymous": false,
      "inputs": [
        {
          "indexed": false,
          "internalType": "address",
          "name": "account",
          "type": "address"
        }
      ],
      "name": "Unpaused",
      "type": "event"
    },
    {
      "inputs": [
        {
          "internalType": "address",
          "name": "to",
          "type": "address"
        },
        {
          "internalType": "uint256",
          "name": "tokenId",
          "type": "uint256"
        }
      ],
      "name": "approve",
      "outputs": [],
      "stateMutability": "nonpayable",
      "type": "function"
    },
    {
      "inputs": [
        {
          "internalType": "address",
          "name": "owner",
          "type": "address"
        }
      ],
      "name": "balanceOf",
      "outputs": [
        {
          "internalType": "uint256",
          "name": "",
          "type": "uint256"
        }
      ],
      "stateMutability": "view",
      "type": "function"
    },
    {
      "inputs": [
        {
          "internalType": "uint256",
          "name": "tokenId",
          "type": "uint256"
        }
      ],
      "name": "burn",
      "outputs": [],
      "stateMutability": "nonpayable",
      "type": "function"
    },
    {
      "inputs": [
        {
          "internalType": "uint256",
          "name": "tokenId",
          "type": "uint256"
        }
      ],
      "name": "getApproved",
      "outputs": [
        {
          "internalType": "address",
          "name": "",
          "type": "address"
        }
      ],
      "stateMutability": "view",
      "type": "function"
    },
    {
      "inputs": [
        {
          "internalType": "address",
          "name": "_owner",
          "type": "address"
        },
        {
          "internalType": "address",
          "name": "_operator",
          "type": "address"
        }
      ],
      "name": "isApprovedForAll",
      "outputs": [
        {
          "internalType": "bool",
          "name": "isOperator",
          "type": "bool"
        }
      ],
      "stateMutability": "view",
      "type": "function"
    },
    {
      "inputs": [
        {
          "internalType": "address",
          "name": "to",
          "type": "address"
        },
        {
          "internalType": "uint256",
          "name": "tokenId",
          "type": "uint256"
        },
        {
          "internalType": "address",
          "name": "receiver",
          "type": "address"
        },
        {
          "internalType": "uint96",
          "name": "feeNumerator",
          "type": "uint96"
        }
      ],
      "name": "mintNFTWithRoyalty",
      "outputs": [],
      "stateMutability": "nonpayable",
      "type": "function"
    },
    {
      "inputs": [],
      "name": "name",
      "outputs": [
        {
          "internalType": "string",
          "name": "",
          "type": "string"
        }
      ],
      "stateMutability": "view",
      "type": "function"
    },
    {
      "inputs": [],
      "name": "owner",
      "outputs": [
        {
          "internalType": "address",
          "name": "",
          "type": "address"
        }
      ],
      "stateMutability": "view",
      "type": "function"
    },
    {
      "inputs": [
        {
          "internalType": "uint256",
          "name": "tokenId",
          "type": "uint256"
        }
      ],
      "name": "ownerOf",
      "outputs": [
        {
          "internalType": "address",
          "name": "",
          "type": "address"
        }
      ],
      "stateMutability": "view",
      "type": "function"
    },
    {
      "inputs": [],
      "name": "pause",
      "outputs": [],
      "stateMutability": "nonpayable",
      "type": "function"
    },
    {
      "inputs": [],
      "name": "paused",
      "outputs": [
        {
          "internalType": "bool",
          "name": "",
          "type": "bool"
        }
      ],
      "stateMutability": "view",
      "type": "function"
    },
    {
      "inputs": [],
      "name": "removeDefaultRoyalty",
      "outputs": [],
      "stateMutability": "nonpayable",
      "type": "function"
    },
    {
      "inputs": [
        {
          "internalType": "uint256",
          "name": "tokenId",
          "type": "uint256"
        }
      ],
      "name": "removeTokenRoyalty",
      "outputs": [],
      "stateMutability": "nonpayable",
      "type": "function"
    },
    {
      "inputs": [],
      "name": "renounceOwnership",
      "outputs": [],
      "stateMutability": "nonpayable",
      "type": "function"
    },
    {
      "inputs": [
        {
          "internalType": "uint256",
          "name": "_tokenId",
          "type": "uint256"
        },
        {
          "internalType": "uint256",
          "name": "_salePrice",
          "type": "uint256"
        }
      ],
      "name": "royaltyInfo",
      "outputs": [
        {
          "internalType": "address",
          "name": "",
          "type": "address"
        },
        {
          "internalType": "uint256",
          "name": "",
          "type": "uint256"
        }
      ],
      "stateMutability": "view",
      "type": "function"
    },
    {
      "inputs": [
        {
          "internalType": "address",
          "name": "to",
          "type": "address"
        },
        {
          "internalType": "uint256",
          "name": "tokenId",
          "type": "uint256"
        }
      ],
      "name": "safeMint",
      "outputs": [],
      "stateMutability": "nonpayable",
      "type": "function"
    },
    {
      "inputs": [
        {
          "internalType": "address",
          "name": "from",
          "type": "address"
        },
        {
          "internalType": "address",
          "name": "to",
          "type": "address"
        },
        {
          "internalType": "uint256",
          "name": "tokenId",
          "type": "uint256"
        }
      ],
      "name": "safeTransferFrom",
      "outputs": [],
      "stateMutability": "nonpayable",
      "type": "function"
    },
    {
      "inputs": [
        {
          "internalType": "address",
          "name": "from",
          "type": "address"
        },
        {
          "internalType": "address",
          "name": "to",
          "type": "address"
        },
        {
          "internalType": "uint256",
          "name": "tokenId",
          "type": "uint256"
        },
        {
          "internalType": "bytes",
          "name": "data",
          "type": "bytes"
        }
      ],
      "name": "safeTransferFrom",
      "outputs": [],
      "stateMutability": "nonpayable",
      "type": "function"
    },
    {
      "inputs": [
        {
          "internalType": "address",
          "name": "operator",
          "type": "address"
        },
        {
          "internalType": "bool",
          "name": "approved",
          "type": "bool"
        }
      ],
      "name": "setApprovalForAll",
      "outputs": [],
      "stateMutability": "nonpayable",
      "type": "function"
    },
    {
      "inputs": [
        {
          "internalType": "bytes4",
          "name": "interfaceId",
          "type": "bytes4"
        }
      ],
      "name": "supportsInterface",
      "outputs": [
        {
          "internalType": "bool",
          "name": "",
          "type": "bool"
        }
      ],
      "stateMutability": "view",
      "type": "function"
    },
    {
      "inputs": [],
      "name": "symbol",
      "outputs": [
        {
          "internalType": "string",
          "name": "",
          "type": "string"
        }
      ],
      "stateMutability": "view",
      "type": "function"
    },
    {
      "inputs": [
        {
          "internalType": "uint256",
          "name": "index",
          "type": "uint256"
        }
      ],
      "name": "tokenByIndex",
      "outputs": [
        {
          "internalType": "uint256",
          "name": "",
          "type": "uint256"
        }
      ],
      "stateMutability": "view",
      "type": "function"
    },
    {
      "inputs": [
        {
          "internalType": "address",
          "name": "owner",
          "type": "address"
        },
        {
          "internalType": "uint256",
          "name": "index",
          "type": "uint256"
        }
      ],
      "name": "tokenOfOwnerByIndex",
      "outputs": [
        {
          "internalType": "uint256",
          "name": "",
          "type": "uint256"
        }
      ],
      "stateMutability": "view",
      "type": "function"
    },
    {
      "inputs": [
        {
          "internalType": "uint256",
          "name": "tokenId",
          "type": "uint256"
        }
      ],
      "name": "tokenURI",
      "outputs": [
        {
          "internalType": "string",
          "name": "",
          "type": "string"
        }
      ],
      "stateMutability": "view",
      "type": "function"
    },
    {
      "inputs": [],
      "name": "totalSupply",
      "outputs": [
        {
          "internalType": "uint256",
          "name": "",
          "type": "uint256"
        }
      ],
      "stateMutability": "view",
      "type": "function"
    },
    {
      "inputs": [
        {
          "internalType": "address",
          "name": "from",
          "type": "address"
        },
        {
          "internalType": "address",
          "name": "to",
          "type": "address"
        },
        {
          "internalType": "uint256",
          "name": "tokenId",
          "type": "uint256"
        }
      ],
      "name": "transferFrom",
      "outputs": [],
      "stateMutability": "nonpayable",
      "type": "function"
    },
    {
      "inputs": [
        {
          "internalType": "address",
          "name": "newOwner",
          "type": "address"
        }
      ],
      "name": "transferOwnership",
      "outputs": [],
      "stateMutability": "nonpayable",
      "type": "function"
    },
    {
      "inputs": [],
      "name": "unpause",
      "outputs": [],
      "stateMutability": "nonpayable",
      "type": "function"
    },
    {
      "inputs": [
        {
          "internalType": "string",
          "name": "_newContractURI",
          "type": "string"
        }
      ],
      "name": "updateBaseURI",
      "outputs": [],
      "stateMutability": "nonpayable",
      "type": "function"
    },
    {
      "inputs": [
        {
          "internalType": "address",
          "name": "receiver",
          "type": "address"
        },
        {
          "internalType": "uint96",
          "name": "feeNumerator",
          "type": "uint96"
        }
      ],
      "name": "updateDefaultRoyalty",
      "outputs": [],
      "stateMutability": "nonpayable",
      "type": "function"
    },
    {
      "inputs": [
        {
          "internalType": "uint256",
          "name": "tokenId",
          "type": "uint256"
        },
        {
          "internalType": "address",
          "name": "receiver",
          "type": "address"
        },
        {
          "internalType": "uint96",
          "name": "feeNumerator",
          "type": "uint96"
        }
      ],
      "name": "updateTokenRoyalty",
      "outputs": [],
      "stateMutability": "nonpayable",
      "type": "function"
    }
  ],
  "bytecode": "0x60e0604052602b6080818152906200275260a03980516200002991600e916020909101906200037f565b503480156200003757600080fd5b506040516200277d3803806200277d8339810160408190526200005a9162000458565b604080518082018252600b81526a155b1d1c985d9a5bdb195d60aa1b6020808301918252835180850190945260048452634f43544960e01b908401528151919291620000a9916000916200037f565b508051620000bf9060019060208401906200037f565b5050600c805460ff1916905550620000d73362000104565b620000e5826103e86200015e565b620000f08162000178565b620000fb8362000197565b50505062000599565b600c80546001600160a01b03838116610100818102610100600160a81b031985161790945560405193909204169182907f8be0079c531659141344cd1fd0a4f28419497f9722a3daafe3b4186f6b6457e090600090a35050565b620001686200021a565b6200017482826200027e565b5050565b620001826200021a565b80516200017490600d9060208401906200037f565b620001a16200021a565b6001600160a01b0381166200020c5760405162461bcd60e51b815260206004820152602660248201527f4f776e61626c653a206e6577206f776e657220697320746865207a65726f206160448201526564647265737360d01b60648201526084015b60405180910390fd5b620002178162000104565b50565b600c546001600160a01b036101009091041633146200027c5760405162461bcd60e51b815260206004820181905260248201527f4f776e61626c653a2063616c6c6572206973206e6f7420746865206f776e6572604482015260640162000203565b565b6127106001600160601b0382161115620002ee5760405162461bcd60e51b815260206004820152602a60248201527f455243323938313a20726f79616c7479206665652077696c6c206578636565646044820152692073616c65507269636560b01b606482015260840162000203565b6001600160a01b038216620003465760405162461bcd60e51b815260206004820152601960248201527f455243323938313a20696e76616c696420726563656976657200000000000000604482015260640162000203565b604080518082019091526001600160a01b039092168083526001600160601b039091166020909201829052600160a01b90910217600655565b8280546200038d906200055c565b90600052602060002090601f016020900481019282620003b15760008555620003fc565b82601f10620003cc57805160ff1916838001178555620003fc565b82800160010185558215620003fc579182015b82811115620003fc578251825591602001919060010190620003df565b506200040a9291506200040e565b5090565b5b808211156200040a57600081556001016200040f565b80516001600160a01b03811681146200043d57600080fd5b919050565b634e487b7160e01b600052604160045260246000fd5b6000806000606084860312156200046e57600080fd5b620004798462000425565b925060206200048a81860162000425565b60408601519093506001600160401b0380821115620004a857600080fd5b818701915087601f830112620004bd57600080fd5b815181811115620004d257620004d262000442565b604051601f8201601f19908116603f01168101908382118183101715620004fd57620004fd62000442565b816040528281528a868487010111156200051657600080fd5b600093505b828410156200053a57848401860151818501870152928501926200051b565b828411156200054c5760008684830101525b8096505050505050509250925092565b600181811c908216806200057157607f821691505b602082108114156200059357634e487b7160e01b600052602260045260246000fd5b50919050565b6121a980620005a96000396000f3fe608060405234801561001057600080fd5b50600436106101e55760003560e01c806370a082311161010f57806397ec4fba116100a2578063c87b56dd11610071578063c87b56dd146103fe578063d691e43c14610411578063e985e9c514610424578063f2fde38b1461043757600080fd5b806397ec4fba146103bd578063a1448194146103c5578063a22cb465146103d8578063b88d4fde146103eb57600080fd5b806386e228d5116100de57806386e228d5146103795780638da5cb5b1461038c578063931688cb146103a257806395d89b41146103b557600080fd5b806370a0823114610343578063715018a614610356578063745ec1501461035e5780638456cb591461037157600080fd5b80632a55205a1161018757806342966c681161015657806342966c68146102ff5780634f6ccce7146103125780635c975abb146103255780636352211e1461033057600080fd5b80632a55205a1461029f5780632f745c59146102d15780633f4ba83a146102e457806342842e0e146102ec57600080fd5b8063095ea7b3116101c3578063095ea7b31461025257806318160ddd146102675780631e6b58181461027957806323b872dd1461028c57600080fd5b806301ffc9a7146101ea57806306fdde0314610212578063081812fc14610227575b600080fd5b6101fd6101f8366004611af2565b61044a565b60405190151581526020015b60405180910390f35b61021a61045b565b6040516102099190611b67565b61023a610235366004611b7a565b6104ed565b6040516001600160a01b039091168152602001610209565b610265610260366004611baf565b610514565b005b600a545b604051908152602001610209565b610265610287366004611b7a565b61062f565b61026561029a366004611bd9565b61064b565b6102b26102ad366004611c15565b61067d565b604080516001600160a01b039093168352602083019190915201610209565b61026b6102df366004611baf565b610729565b6102656107bf565b6102656102fa366004611bd9565b6107d1565b61026561030d366004611b7a565b6107ec565b61026b610320366004611b7a565b61081a565b600c5460ff166101fd565b61023a61033e366004611b7a565b6108ad565b61026b610351366004611c37565b61090d565b610265610993565b61026561036c366004611c69565b6109a5565b6102656109c8565b610265610387366004611cb6565b6109d8565b600c5461010090046001600160a01b031661023a565b6102656103b0366004611d7e565b6109eb565b61021a610a0a565b610265610a19565b6102656103d3366004611baf565b610a2b565b6102656103e6366004611dc7565b610a3d565b6102656103f9366004611e03565b610a48565b61021a61040c366004611b7a565b610a7a565b61026561041f366004611e7f565b610ae1565b6101fd610432366004611eb2565b610af3565b610265610445366004611c37565b610b50565b600061045582610bc6565b92915050565b60606000805461046a90611edc565b80601f016020809104026020016040519081016040528092919081815260200182805461049690611edc565b80156104e35780601f106104b8576101008083540402835291602001916104e3565b820191906000526020600020905b8154815290600101906020018083116104c657829003601f168201915b5050505050905090565b60006104f882610beb565b506000908152600460205260409020546001600160a01b031690565b600061051f826108ad565b9050806001600160a01b0316836001600160a01b031614156105925760405162461bcd60e51b815260206004820152602160248201527f4552433732313a20617070726f76616c20746f2063757272656e74206f776e656044820152603960f91b60648201526084015b60405180910390fd5b336001600160a01b03821614806105ae57506105ae8133610af3565b6106205760405162461bcd60e51b815260206004820152603e60248201527f4552433732313a20617070726f76652063616c6c6572206973206e6f7420746f60448201527f6b656e206f776e6572206e6f7220617070726f76656420666f7220616c6c00006064820152608401610589565b61062a8383610c4a565b505050565b610637610cb8565b600090815260076020526040812055565b50565b610656335b82610d18565b6106725760405162461bcd60e51b815260040161058990611f17565b61062a838383610d77565b60008281526007602090815260408083208151808301909252546001600160a01b038116808352600160a01b9091046001600160601b03169282019290925282916106f25750604080518082019091526006546001600160a01b0381168252600160a01b90046001600160601b031660208201525b602081015160009061271090610711906001600160601b031687611f7b565b61071b9190611fb0565b915196919550909350505050565b60006107348361090d565b82106107965760405162461bcd60e51b815260206004820152602b60248201527f455243373231456e756d657261626c653a206f776e657220696e646578206f7560448201526a74206f6620626f756e647360a81b6064820152608401610589565b506001600160a01b03919091166000908152600860209081526040808320938352929052205490565b6107c7610cb8565b6107cf610f1e565b565b61062a83838360405180602001604052806000815250610a48565b6107f533610650565b6108115760405162461bcd60e51b815260040161058990611f17565b61064881610f70565b6000610825600a5490565b82106108885760405162461bcd60e51b815260206004820152602c60248201527f455243373231456e756d657261626c653a20676c6f62616c20696e646578206f60448201526b7574206f6620626f756e647360a01b6064820152608401610589565b600a828154811061089b5761089b611fc4565b90600052602060002001549050919050565b6000818152600260205260408120546001600160a01b0316806104555760405162461bcd60e51b8152602060048201526018602482015277115490cdcc8c4e881a5b9d985b1a59081d1bdad95b88125160421b6044820152606401610589565b60006001600160a01b0382166109775760405162461bcd60e51b815260206004820152602960248201527f4552433732313a2061646472657373207a65726f206973206e6f7420612076616044820152683634b21037bbb732b960b91b6064820152608401610589565b506001600160a01b031660009081526003602052604090205490565b61099b610cb8565b6107cf6000610f79565b6109ad610cb8565b6109b78484610a2b565b6109c28383836109d8565b50505050565b6109d0610cb8565b6107cf610fd3565b6109e0610cb8565b61062a838383611010565b6109f3610cb8565b8051610a0690600d906020840190611a43565b5050565b60606001805461046a90611edc565b610a21610cb8565b6107cf6000600655565b610a33610cb8565b610a0682826110db565b610a063383836110f5565b610a523383610d18565b610a6e5760405162461bcd60e51b815260040161058990611f17565b6109c2848484846111c4565b6060610a8582610beb565b6000610a8f6111f7565b90506000815111610aaf5760405180602001604052806000815250610ada565b80610ab984611206565b604051602001610aca929190611fda565b6040516020818303038152906040525b9392505050565b610ae9610cb8565b610a068282611304565b60006001600160a01b03821673ff7ca10af37178bdd056628ef42fd7f799fac77c1415610b2257506001610455565b6001600160a01b0380841660009081526005602090815260408083209386168352929052205460ff16610ada565b610b58610cb8565b6001600160a01b038116610bbd5760405162461bcd60e51b815260206004820152602660248201527f4f776e61626c653a206e6577206f776e657220697320746865207a65726f206160448201526564647265737360d01b6064820152608401610589565b61064881610f79565b60006001600160e01b0319821663780e9d6360e01b14806104555750610455826113be565b6000818152600260205260409020546001600160a01b03166106485760405162461bcd60e51b8152602060048201526018602482015277115490cdcc8c4e881a5b9d985b1a59081d1bdad95b88125160421b6044820152606401610589565b600081815260046020526040902080546001600160a01b0319166001600160a01b0384169081179091558190610c7f826108ad565b6001600160a01b03167f8c5be1e5ebec7d5bd14f71427d1e84f3dd0314c0f7b2291e5b200ac8c7c3b92560405160405180910390a45050565b600c546001600160a01b036101009091041633146107cf5760405162461bcd60e51b815260206004820181905260248201527f4f776e61626c653a2063616c6c6572206973206e6f7420746865206f776e65726044820152606401610589565b600080610d24836108ad565b9050806001600160a01b0316846001600160a01b03161480610d4b5750610d4b8185610af3565b80610d6f5750836001600160a01b0316610d64846104ed565b6001600160a01b0316145b949350505050565b826001600160a01b0316610d8a826108ad565b6001600160a01b031614610dee5760405162461bcd60e51b815260206004820152602560248201527f4552433732313a207472616e736665722066726f6d20696e636f72726563742060448201526437bbb732b960d91b6064820152608401610589565b6001600160a01b038216610e505760405162461bcd60e51b8152602060048201526024808201527f4552433732313a207472616e7366657220746f20746865207a65726f206164646044820152637265737360e01b6064820152608401610589565b610e5b8383836113e3565b610e66600082610c4a565b6001600160a01b0383166000908152600360205260408120805460019290610e8f908490612009565b90915550506001600160a01b0382166000908152600360205260408120805460019290610ebd908490612020565b909155505060008181526002602052604080822080546001600160a01b0319166001600160a01b0386811691821790925591518493918716917fddf252ad1be2c89b69c2b068fc378daa952ba7f163c4a11628f55a4df523b3ef91a4505050565b610f266113f6565b600c805460ff191690557f5db9ee0a495bf2e6ff9c91a7834c1ba4fdd244a5e8aa4e537bd38aeae4b073aa335b6040516001600160a01b03909116815260200160405180910390a1565b6106378161143f565b600c80546001600160a01b03838116610100818102610100600160a81b031985161790945560405193909204169182907f8be0079c531659141344cd1fd0a4f28419497f9722a3daafe3b4186f6b6457e090600090a35050565b610fdb6114e6565b600c805460ff191660011790557f62e78cea01bee320cd4e420270b5ea74000d11b0c9f74754ebdbfc544b05a258610f533390565b6127106001600160601b038216111561103b5760405162461bcd60e51b815260040161058990612038565b6001600160a01b0382166110915760405162461bcd60e51b815260206004820152601b60248201527f455243323938313a20496e76616c696420706172616d657465727300000000006044820152606401610589565b6040805180820182526001600160a01b0393841681526001600160601b0392831660208083019182526000968752600790529190942093519051909116600160a01b029116179055565b610a0682826040518060200160405280600081525061152c565b816001600160a01b0316836001600160a01b031614156111575760405162461bcd60e51b815260206004820152601960248201527f4552433732313a20617070726f766520746f2063616c6c6572000000000000006044820152606401610589565b6001600160a01b03838116600081815260056020908152604080832094871680845294825291829020805460ff191686151590811790915591519182527f17307eab39ab6107e8899845ad3d59bd9653f200f220920489ca2b5937696c31910160405180910390a3505050565b6111cf848484610d77565b6111db8484848461155f565b6109c25760405162461bcd60e51b815260040161058990612082565b6060600d805461046a90611edc565b60608161122a5750506040805180820190915260018152600360fc1b602082015290565b8160005b8115611254578061123e816120d4565b915061124d9050600a83611fb0565b915061122e565b60008167ffffffffffffffff81111561126f5761126f611cf2565b6040519080825280601f01601f191660200182016040528015611299576020820181803683370190505b5090505b8415610d6f576112ae600183612009565b91506112bb600a866120ef565b6112c6906030612020565b60f81b8183815181106112db576112db611fc4565b60200101906001600160f81b031916908160001a9053506112fd600a86611fb0565b945061129d565b6127106001600160601b038216111561132f5760405162461bcd60e51b815260040161058990612038565b6001600160a01b0382166113855760405162461bcd60e51b815260206004820152601960248201527f455243323938313a20696e76616c6964207265636569766572000000000000006044820152606401610589565b604080518082019091526001600160a01b039092168083526001600160601b039091166020909201829052600160a01b90910217600655565b60006001600160e01b0319821663152a902d60e11b148061045557506104558261165d565b6113eb6114e6565b61062a8383836116ad565b600c5460ff166107cf5760405162461bcd60e51b815260206004820152601460248201527314185d5cd8589b194e881b9bdd081c185d5cd95960621b6044820152606401610589565b600061144a826108ad565b9050611458816000846113e3565b611463600083610c4a565b6001600160a01b038116600090815260036020526040812080546001929061148c908490612009565b909155505060008281526002602052604080822080546001600160a01b0319169055518391906001600160a01b038416907fddf252ad1be2c89b69c2b068fc378daa952ba7f163c4a11628f55a4df523b3ef908390a45050565b600c5460ff16156107cf5760405162461bcd60e51b815260206004820152601060248201526f14185d5cd8589b194e881c185d5cd95960821b6044820152606401610589565b6115368383611765565b611543600084848461155f565b61062a5760405162461bcd60e51b815260040161058990612082565b60006001600160a01b0384163b1561165257604051630a85bd0160e11b81526001600160a01b0385169063150b7a02906115a3903390899088908890600401612103565b6020604051808303816000875af19250505080156115de575060408051601f3d908101601f191682019092526115db91810190612140565b60015b611638573d80801561160c576040519150601f19603f3d011682016040523d82523d6000602084013e611611565b606091505b5080516116305760405162461bcd60e51b815260040161058990612082565b805181602001fd5b6001600160e01b031916630a85bd0160e11b149050610d6f565b506001949350505050565b60006001600160e01b031982166380ac58cd60e01b148061168e57506001600160e01b03198216635b5e139f60e01b145b8061045557506301ffc9a760e01b6001600160e01b0319831614610455565b6001600160a01b0383166117085761170381600a80546000838152600b60205260408120829055600182018355919091527fc65a7bb8d6351c1cf70c95a316cc6a92839c986682d98bc35f958f4883f9d2a80155565b61172b565b816001600160a01b0316836001600160a01b03161461172b5761172b83826118b3565b6001600160a01b0382166117425761062a81611950565b826001600160a01b0316826001600160a01b03161461062a5761062a82826119ff565b6001600160a01b0382166117bb5760405162461bcd60e51b815260206004820181905260248201527f4552433732313a206d696e7420746f20746865207a65726f20616464726573736044820152606401610589565b6000818152600260205260409020546001600160a01b0316156118205760405162461bcd60e51b815260206004820152601c60248201527f4552433732313a20746f6b656e20616c7265616479206d696e746564000000006044820152606401610589565b61182c600083836113e3565b6001600160a01b0382166000908152600360205260408120805460019290611855908490612020565b909155505060008181526002602052604080822080546001600160a01b0319166001600160a01b03861690811790915590518392907fddf252ad1be2c89b69c2b068fc378daa952ba7f163c4a11628f55a4df523b3ef908290a45050565b600060016118c08461090d565b6118ca9190612009565b60008381526009602052604090205490915080821461191d576001600160a01b03841660009081526008602090815260408083208584528252808320548484528184208190558352600990915290208190555b5060009182526009602090815260408084208490556001600160a01b039094168352600881528383209183525290812055565b600a5460009061196290600190612009565b6000838152600b6020526040812054600a805493945090928490811061198a5761198a611fc4565b9060005260206000200154905080600a83815481106119ab576119ab611fc4565b6000918252602080832090910192909255828152600b9091526040808220849055858252812055600a8054806119e3576119e361215d565b6001900381819060005260206000200160009055905550505050565b6000611a0a8361090d565b6001600160a01b039093166000908152600860209081526040808320868452825280832085905593825260099052919091209190915550565b828054611a4f90611edc565b90600052602060002090601f016020900481019282611a715760008555611ab7565b82601f10611a8a57805160ff1916838001178555611ab7565b82800160010185558215611ab7579182015b82811115611ab7578251825591602001919060010190611a9c565b50611ac3929150611ac7565b5090565b5b80821115611ac35760008155600101611ac8565b6001600160e01b03198116811461064857600080fd5b600060208284031215611b0457600080fd5b8135610ada81611adc565b60005b83811015611b2a578181015183820152602001611b12565b838111156109c25750506000910152565b60008151808452611b53816020860160208601611b0f565b601f01601f19169290920160200192915050565b602081526000610ada6020830184611b3b565b600060208284031215611b8c57600080fd5b5035919050565b80356001600160a01b0381168114611baa57600080fd5b919050565b60008060408385031215611bc257600080fd5b611bcb83611b93565b946020939093013593505050565b600080600060608486031215611bee57600080fd5b611bf784611b93565b9250611c0560208501611b93565b9150604084013590509250925092565b60008060408385031215611c2857600080fd5b50508035926020909101359150565b600060208284031215611c4957600080fd5b610ada82611b93565b80356001600160601b0381168114611baa57600080fd5b60008060008060808587031215611c7f57600080fd5b611c8885611b93565b935060208501359250611c9d60408601611b93565b9150611cab60608601611c52565b905092959194509250565b600080600060608486031215611ccb57600080fd5b83359250611cdb60208501611b93565b9150611ce960408501611c52565b90509250925092565b634e487b7160e01b600052604160045260246000fd5b600067ffffffffffffffff80841115611d2357611d23611cf2565b604051601f8501601f19908116603f01168101908282118183101715611d4b57611d4b611cf2565b81604052809350858152868686011115611d6457600080fd5b858560208301376000602087830101525050509392505050565b600060208284031215611d9057600080fd5b813567ffffffffffffffff811115611da757600080fd5b8201601f81018413611db857600080fd5b610d6f84823560208401611d08565b60008060408385031215611dda57600080fd5b611de383611b93565b915060208301358015158114611df857600080fd5b809150509250929050565b60008060008060808587031215611e1957600080fd5b611e2285611b93565b9350611e3060208601611b93565b925060408501359150606085013567ffffffffffffffff811115611e5357600080fd5b8501601f81018713611e6457600080fd5b611e7387823560208401611d08565b91505092959194509250565b60008060408385031215611e9257600080fd5b611e9b83611b93565b9150611ea960208401611c52565b90509250929050565b60008060408385031215611ec557600080fd5b611ece83611b93565b9150611ea960208401611b93565b600181811c90821680611ef057607f821691505b60208210811415611f1157634e487b7160e01b600052602260045260246000fd5b50919050565b6020808252602e908201527f4552433732313a2063616c6c6572206973206e6f7420746f6b656e206f776e6560408201526d1c881b9bdc88185c1c1c9bdd995960921b606082015260800190565b634e487b7160e01b600052601160045260246000fd5b6000816000190483118215151615611f9557611f95611f65565b500290565b634e487b7160e01b600052601260045260246000fd5b600082611fbf57611fbf611f9a565b500490565b634e487b7160e01b600052603260045260246000fd5b60008351611fec818460208801611b0f565b835190830190612000818360208801611b0f565b01949350505050565b60008282101561201b5761201b611f65565b500390565b6000821982111561203357612033611f65565b500190565b6020808252602a908201527f455243323938313a20726f79616c7479206665652077696c6c206578636565646040820152692073616c65507269636560b01b606082015260800190565b60208082526032908201527f4552433732313a207472616e7366657220746f206e6f6e20455243373231526560408201527131b2b4bb32b91034b6b83632b6b2b73a32b960711b606082015260800190565b60006000198214156120e8576120e8611f65565b5060010190565b6000826120fe576120fe611f9a565b500690565b6001600160a01b038581168252841660208201526040810183905260806060820181905260009061213690830184611b3b565b9695505050505050565b60006020828403121561215257600080fd5b8151610ada81611adc565b634e487b7160e01b600052603160045260246000fdfea26469706673582212205b616f637a37610fd455488c41d803cb29a983f09dddbd7ca9ee039567f0674d64736f6c634300080c003368747470733a2f2f746573746e6574732e756c74726176696f6c65742e776f726c642f706f6c79676f6e2f",
  "linkReferences": {},
  "deployedLinkReferences": {}
}