{"contracts/UVCollectable.sol":{"UVCollectable":{"abi":[{"inputs":[],"stateMutability":"nonpayable","type":"constructor"},{"inputs":[{"internalType":"address","name":"operator","type":"address"}],"name":"OperatorNotAllowed","type":"error"},{"anonymous":false,"inputs":[{"indexed":false,"internalType":"address","name":"previousAdmin","type":"address"},{"indexed":false,"internalType":"address","name":"newAdmin","type":"address"}],"name":"AdminChanged","type":"event"},{"anonymous":false,"inputs":[{"indexed":false,"internalType":"address","name":"admin","type":"address"},{"indexed":false,"internalType":"bool","name":"added","type":"bool"}],"name":"AdminUpdated","type":"event"},{"anonymous":false,"inputs":[{"indexed":true,"internalType":"address","name":"owner","type":"address"},{"indexed":true,"internalType":"address","name":"approved","type":"address"},{"indexed":true,"internalType":"uint256","name":"tokenId","type":"uint256"}],"name":"Approval","type":"event"},{"anonymous":false,"inputs":[{"indexed":true,"internalType":"address","name":"owner","type":"address"},{"indexed":true,"internalType":"address","name":"operator","type":"address"},{"indexed":false,"internalType":"bool","name":"approved","type":"bool"}],"name":"ApprovalForAll","type":"event"},{"anonymous":false,"inputs":[{"indexed":true,"internalType":"address","name":"beacon","type":"address"}],"name":"BeaconUpgraded","type":"event"},{"anonymous":false,"inputs":[{"indexed":false,"internalType":"uint256","name":"tokenId","type":"uint256"}],"name":"Frozen","type":"event"},{"anonymous":false,"inputs":[{"indexed":false,"internalType":"uint8","name":"version","type":"uint8"}],"name":"Initialized","type":"event"},{"anonymous":false,"inputs":[{"indexed":true,"internalType":"address","name":"previousOwner","type":"address"},{"indexed":true,"internalType":"address","name":"newOwner","type":"address"}],"name":"OwnershipTransferred","type":"event"},{"anonymous":false,"inputs":[{"indexed":false,"internalType":"address","name":"account","type":"address"}],"name":"Paused","type":"event"},{"anonymous":false,"inputs":[{"indexed":true,"internalType":"uint256","name":"tokenId","type":"uint256"},{"indexed":false,"internalType":"uint64","name":"expiration","type":"uint64"}],"name":"SubscriptionUpdate","type":"event"},{"anonymous":false,"inputs":[{"indexed":true,"internalType":"address","name":"from","type":"address"},{"indexed":true,"internalType":"address","name":"to","type":"address"},{"indexed":true,"internalType":"uint256","name":"tokenId","type":"uint256"}],"name":"Transfer","type":"event"},{"anonymous":false,"inputs":[{"indexed":false,"internalType":"uint256","name":"tokenId","type":"uint256"}],"name":"Unfrozen","type":"event"},{"anonymous":false,"inputs":[{"indexed":false,"internalType":"address","name":"account","type":"address"}],"name":"Unpaused","type":"event"},{"anonymous":false,"inputs":[{"indexed":true,"internalType":"address","name":"implementation","type":"address"}],"name":"Upgraded","type":"event"},{"inputs":[{"internalType":"address","name":"newAdmin","type":"address"}],"name":"addAdmin","outputs":[],"stateMutability":"nonpayable","type":"function"},{"inputs":[{"internalType":"address","name":"operator","type":"address"},{"internalType":"uint256","name":"tokenId","type":"uint256"}],"name":"approve","outputs":[],"stateMutability":"nonpayable","type":"function"},{"inputs":[{"internalType":"address","name":"owner","type":"address"}],"name":"balanceOf","outputs":[{"internalType":"uint256","name":"","type":"uint256"}],"stateMutability":"view","type":"function"},{"inputs":[{"internalType":"uint256","name":"tokenId","type":"uint256"}],"name":"burn","outputs":[],"stateMutability":"nonpayable","type":"function"},{"inputs":[{"internalType":"uint256","name":"tokenId","type":"uint256"}],"name":"cancelSubscription","outputs":[],"stateMutability":"nonpayable","type":"function"},{"inputs":[{"internalType":"uint256","name":"collectionId","type":"uint256"}],"name":"collectionURI","outputs":[{"internalType":"string","name":"","type":"string"}],"stateMutability":"view","type":"function"},{"inputs":[],"name":"contractURI","outputs":[{"internalType":"string","name":"","type":"string"}],"stateMutability":"view","type":"function"},{"inputs":[{"internalType":"uint256","name":"tokenId","type":"uint256"}],"name":"expiresAt","outputs":[{"internalType":"uint64","name":"","type":"uint64"}],"stateMutability":"view","type":"function"},{"inputs":[{"internalType":"uint256","name":"tokenId","type":"uint256"}],"name":"freeze","outputs":[],"stateMutability":"nonpayable","type":"function"},{"inputs":[{"internalType":"uint256","name":"tokenId","type":"uint256"}],"name":"getApproved","outputs":[{"internalType":"address","name":"","type":"address"}],"stateMutability":"view","type":"function"},{"inputs":[],"name":"getTrustedForwarder","outputs":[{"internalType":"address","name":"forwarder","type":"address"}],"stateMutability":"view","type":"function"},{"inputs":[{"internalType":"string","name":"__name","type":"string"},{"internalType":"string","name":"__symbol","type":"string"},{"internalType":"string","name":"__contractURI","type":"string"},{"internalType":"address[]","name":"__admins","type":"address[]"}],"name":"initialize","outputs":[],"stateMutability":"nonpayable","type":"function"},{"inputs":[{"internalType":"address","name":"admin","type":"address"}],"name":"isAdmin","outputs":[{"internalType":"bool","name":"","type":"bool"}],"stateMutability":"view","type":"function"},{"inputs":[{"internalType":"address","name":"_owner","type":"address"},{"internalType":"address","name":"_operator","type":"address"}],"name":"isApprovedForAll","outputs":[{"internalType":"bool","name":"isOperator","type":"bool"}],"stateMutability":"view","type":"function"},{"inputs":[{"internalType":"uint256","name":"tokenId","type":"uint256"}],"name":"isFrozen","outputs":[{"internalType":"bool","name":"","type":"bool"}],"stateMutability":"view","type":"function"},{"inputs":[{"internalType":"uint256","name":"","type":"uint256"}],"name":"isRenewable","outputs":[{"internalType":"bool","name":"","type":"bool"}],"stateMutability":"pure","type":"function"},{"inputs":[{"internalType":"address","name":"forwarder","type":"address"}],"name":"isTrustedForwarder","outputs":[{"internalType":"bool","name":"","type":"bool"}],"stateMutability":"view","type":"function"},{"inputs":[],"name":"lastId","outputs":[{"internalType":"uint256","name":"","type":"uint256"}],"stateMutability":"view","type":"function"},{"inputs":[{"internalType":"uint256","name":"collectionId","type":"uint256"},{"internalType":"address[]","name":"to","type":"address[]"},{"internalType":"bool","name":"frozen","type":"bool"},{"internalType":"uint64","name":"validDuration","type":"uint64"}],"name":"mintCollectionToManyUsers","outputs":[{"internalType":"bool","name":"","type":"bool"}],"stateMutability":"nonpayable","type":"function"},{"inputs":[{"internalType":"uint256","name":"collectionId","type":"uint256"},{"internalType":"address","name":"to","type":"address"},{"internalType":"bool","name":"frozen","type":"bool"},{"internalType":"uint64","name":"validDuration","type":"uint64"}],"name":"mintToken","outputs":[{"internalType":"bool","name":"","type":"bool"}],"stateMutability":"nonpayable","type":"function"},{"inputs":[{"internalType":"uint256[]","name":"collectionIds","type":"uint256[]"},{"internalType":"address","name":"to","type":"address"},{"internalType":"bool","name":"frozen","type":"bool"},{"internalType":"uint64","name":"validDuration","type":"uint64"}],"name":"mintUserToManyCollections","outputs":[{"internalType":"bool","name":"","type":"bool"}],"stateMutability":"nonpayable","type":"function"},{"inputs":[],"name":"name","outputs":[{"internalType":"string","name":"","type":"string"}],"stateMutability":"view","type":"function"},{"inputs":[],"name":"owner","outputs":[{"internalType":"address","name":"","type":"address"}],"stateMutability":"view","type":"function"},{"inputs":[{"internalType":"uint256","name":"tokenId","type":"uint256"}],"name":"ownerOf","outputs":[{"internalType":"address","name":"","type":"address"}],"stateMutability":"view","type":"function"},{"inputs":[],"name":"pause","outputs":[],"stateMutability":"nonpayable","type":"function"},{"inputs":[],"name":"paused","outputs":[{"internalType":"bool","name":"","type":"bool"}],"stateMutability":"view","type":"function"},{"inputs":[],"name":"proxiableUUID","outputs":[{"internalType":"bytes32","name":"","type":"bytes32"}],"stateMutability":"view","type":"function"},{"inputs":[{"internalType":"uint256","name":"tokenId","type":"uint256"}],"name":"reclaimToken","outputs":[],"stateMutability":"nonpayable","type":"function"},{"inputs":[{"internalType":"address","name":"admin","type":"address"}],"name":"removeAdmin","outputs":[],"stateMutability":"nonpayable","type":"function"},{"inputs":[{"internalType":"uint256","name":"collectionId","type":"uint256"}],"name":"removeCollectionRoyalty","outputs":[],"stateMutability":"nonpayable","type":"function"},{"inputs":[],"name":"removeDefaultRoyalty","outputs":[],"stateMutability":"nonpayable","type":"function"},{"inputs":[{"internalType":"uint256","name":"tokenId","type":"uint256"},{"internalType":"uint64","name":"duration","type":"uint64"}],"name":"renewSubscription","outputs":[],"stateMutability":"nonpayable","type":"function"},{"inputs":[],"name":"renounceOwnership","outputs":[],"stateMutability":"nonpayable","type":"function"},{"inputs":[{"internalType":"uint256","name":"_tokenId","type":"uint256"},{"internalType":"uint256","name":"_salePrice","type":"uint256"}],"name":"royaltyInfo","outputs":[{"internalType":"address","name":"","type":"address"},{"internalType":"uint256","name":"","type":"uint256"}],"stateMutability":"view","type":"function"},{"inputs":[{"internalType":"address","name":"from","type":"address"},{"internalType":"address","name":"to","type":"address"},{"internalType":"uint256","name":"tokenId","type":"uint256"}],"name":"safeTransferFrom","outputs":[],"stateMutability":"nonpayable","type":"function"},{"inputs":[{"internalType":"address","name":"from","type":"address"},{"internalType":"address","name":"to","type":"address"},{"internalType":"uint256","name":"tokenId","type":"uint256"},{"internalType":"bytes","name":"data","type":"bytes"}],"name":"safeTransferFrom","outputs":[],"stateMutability":"nonpayable","type":"function"},{"inputs":[{"internalType":"address","name":"operator","type":"address"},{"internalType":"bool","name":"approved","type":"bool"}],"name":"setApprovalForAll","outputs":[],"stateMutability":"nonpayable","type":"function"},{"inputs":[{"internalType":"uint256","name":"tokenId","type":"uint256"},{"internalType":"uint64","name":"newExpiration","type":"uint64"}],"name":"setExpiration","outputs":[],"stateMutability":"nonpayable","type":"function"},{"inputs":[{"internalType":"uint256","name":"newLastId","type":"uint256"}],"name":"setLastId","outputs":[],"stateMutability":"nonpayable","type":"function"},{"inputs":[{"internalType":"address","name":"forwarder","type":"address"}],"name":"setTurstedForwarder","outputs":[],"stateMutability":"nonpayable","type":"function"},{"inputs":[{"internalType":"bytes4","name":"interfaceId","type":"bytes4"}],"name":"supportsInterface","outputs":[{"internalType":"bool","name":"","type":"bool"}],"stateMutability":"view","type":"function"},{"inputs":[],"name":"symbol","outputs":[{"internalType":"string","name":"","type":"string"}],"stateMutability":"view","type":"function"},{"inputs":[{"internalType":"uint256","name":"tokenId","type":"uint256"}],"name":"tokenCollection","outputs":[{"internalType":"uint256","name":"","type":"uint256"}],"stateMutability":"view","type":"function"},{"inputs":[{"internalType":"uint256","name":"tokenId","type":"uint256"}],"name":"tokenURI","outputs":[{"internalType":"string","name":"","type":"string"}],"stateMutability":"view","type":"function"},{"inputs":[{"internalType":"address","name":"from","type":"address"},{"internalType":"address","name":"to","type":"address"},{"internalType":"uint256","name":"tokenId","type":"uint256"}],"name":"transferFrom","outputs":[],"stateMutability":"nonpayable","type":"function"},{"inputs":[{"internalType":"address","name":"newOwner","type":"address"}],"name":"transferOwnership","outputs":[],"stateMutability":"nonpayable","type":"function"},{"inputs":[{"internalType":"uint256","name":"tokenId","type":"uint256"}],"name":"unfreeze","outputs":[],"stateMutability":"nonpayable","type":"function"},{"inputs":[],"name":"unpause","outputs":[],"stateMutability":"nonpayable","type":"function"},{"inputs":[{"internalType":"uint256","name":"collectionId","type":"uint256"},{"internalType":"address","name":"receiver","type":"address"},{"internalType":"uint96","name":"feeNumerator","type":"uint96"}],"name":"updateCollectionRoyalty","outputs":[],"stateMutability":"nonpayable","type":"function"},{"inputs":[{"internalType":"string","name":"__contractURI","type":"string"}],"name":"updateContractURI","outputs":[],"stateMutability":"nonpayable","type":"function"},{"inputs":[{"internalType":"address","name":"receiver","type":"address"},{"internalType":"uint96","name":"feeNumerator","type":"uint96"}],"name":"updateDefaultRoyalty","outputs":[],"stateMutability":"nonpayable","type":"function"},{"inputs":[{"internalType":"address","name":"newImplementation","type":"address"}],"name":"upgradeTo","outputs":[],"stateMutability":"nonpayable","type":"function"},{"inputs":[{"internalType":"address","name":"newImplementation","type":"address"},{"internalType":"bytes","name":"data","type":"bytes"}],"name":"upgradeToAndCall","outputs":[],"stateMutability":"payable","type":"function"}],"devdoc":{"custom:security-contact":"security@ultraviolet.club","events":{"AdminUpdated(address,bool)":{"details":"Emmited when an admin is added"},"Frozen(uint256)":{"details":"Emmited when token is frozen"},"Unfrozen(uint256)":{"details":"Emmited when token is unfrozen by function call"}},"kind":"dev","methods":{"addAdmin(address)":{"details":"Grants admin user privilages to newAdmin.","params":{"newAdmin":"( address )"}},"balanceOf(address)":{"details":"See {IERC721-balanceOf}."},"burn(uint256)":{"details":"Burns `tokenId`. See {ERC721-_burn}. Requirements: - The caller must own `tokenId` or be an approved operator."},"cancelSubscription(uint256)":{"details":"See {IERC5643-cancelSubscription}."},"collectionURI(uint256)":{"details":"Gets URI for the token metadata","params":{"collectionId":"( uint256 ) The Event Id you want to get the URI"},"returns":{"_0":"( string ) URI for the collection metadata"}},"constructor":{"custom:oz-upgrades-unsafe-allow":"constructor"},"expiresAt(uint256)":{"details":"See {IERC5643-expiresAt}."},"freeze(uint256)":{"details":"Freeze a specific ERC721 token. Requires - The msg sender to be the owner - The contract does not have to be paused - The token does not have to be frozen","params":{"tokenId":"( uint256 ) Id of the ERC721 token to be frozen."}},"getApproved(uint256)":{"details":"See {IERC721-getApproved}."},"getTrustedForwarder()":{"returns":{"forwarder":"The address of the Forwarder contract that is being used."}},"isAdmin(address)":{"details":"Returns the true if the address is an admin user, else false.","params":{"admin":"( address )"}},"isFrozen(uint256)":{"details":"Gets the token freeze status","params":{"tokenId":"( uint256 ) The token id to check."},"returns":{"_0":"bool representing the token freeze status"}},"isRenewable(uint256)":{"details":"See {IERC5643-isRenewable}."},"isTrustedForwarder(address)":{"params":{"forwarder":"The address of the Forwarder contract that is being used."},"returns":{"_0":"isTrustedForwarder `true` if the Forwarder is trusted to forward relayed transactions by this Recipient."}},"mintCollectionToManyUsers(uint256,address[],bool,uint64)":{"details":"Mint token to many addresses. Requires - The msg sender to be the owner - The contract does not have to be paused","params":{"collectionId":"( uint256 ) CollectionId for the new token","frozen":"( bool ) true if minted token should be frozen, else false","to":"( array of address ) The addresses that will receive the minted tokens.","validDuration":"( unit64 ) duration in seconds that the minted token is valid for, 0 if not subscription token"},"returns":{"_0":"A boolean that indicates if the operation was successful."}},"mintToken(uint256,address,bool,uint64)":{"details":"Mint token to address. Requires - The msg sender to be the onwer - The contract does not have to be paused","params":{"collectionId":"( uint256 ) CollectionId for the new token","frozen":"( bool ) true if minted token should be frozen, else false","to":"( address ) The address that will receive the minted tokens.","validDuration":"( unit64 ) duration in seconds that the minted token is valid for, 0 if not subscription token"},"returns":{"_0":"A boolean that indicates if the operation was successful."}},"mintUserToManyCollections(uint256[],address,bool,uint64)":{"details":"Mint many tokens to address. Requires - The msg sender to be the admin - The contract does not have to be paused","params":{"collectionIds":"( array uint256 ) Collection Ids to assing to user","frozen":"( bool ) true if minted token should be frozen, else false","to":"( address ) The address that will receive the minted tokens.","validDuration":"( unit64 ) duration in seconds that the minted token is valid for, 0 if not subscription token"},"returns":{"_0":"A boolean that indicates if the operation was successful."}},"name()":{"details":"See {IERC721Metadata-name}."},"owner()":{"details":"Returns the address of the current owner."},"ownerOf(uint256)":{"details":"See {IERC721-ownerOf}."},"pause()":{"details":"Freezes all token transfers."},"paused()":{"details":"Returns true if the contract is paused, and false otherwise."},"proxiableUUID()":{"details":"Implementation of the ERC1822 {proxiableUUID} function. This returns the storage slot used by the implementation. It is used to validate that the this implementation remains valid after an upgrade. IMPORTANT: A proxy pointing at a proxiable contract should not be considered proxiable itself, because this risks bricking a proxy that upgrades to it, by delegating to itself until out of gas. Thus it is critical that this function revert if invoked through a proxy. This is guaranteed by the `notDelegated` modifier."},"reclaimToken(uint256)":{"details":"Reclaim a token from a user to the owner's wallet Requires:  - msg sender to be the contract owner","params":{"tokenId":"( uint256 ) Id of the token being reclaimed"}},"removeAdmin(address)":{"details":"Revokes admin user privilages to admin.","params":{"admin":"( address )"}},"removeCollectionRoyalty(uint256)":{"details":"Resets royalty information for the token id back to the global default."},"removeDefaultRoyalty()":{"details":"Removes default royalty information."},"renewSubscription(uint256,uint64)":{"details":"See {IERC5643-renewSubscription}."},"renounceOwnership()":{"details":"Leaves the contract without owner. It will not be possible to call `onlyOwner` functions anymore. Can only be called by the current owner. NOTE: Renouncing ownership will leave the contract without an owner, thereby removing any functionality that is only available to the owner."},"royaltyInfo(uint256,uint256)":{"details":"Returns how much royalty is owed and to whom, based on a sale price that may be denominated in any unit of exchange. The royalty amount is denominated and should be paid in that same unit of exchange."},"safeTransferFrom(address,address,uint256)":{"details":"See {IERC721-safeTransferFrom}."},"safeTransferFrom(address,address,uint256,bytes)":{"details":"See {IERC721-safeTransferFrom}."},"setApprovalForAll(address,bool)":{"details":"See {IERC721-setApprovalForAll}."},"setExpiration(uint256,uint64)":{"details":"Sets the expiration time of the given token If the `tokenId` does not exist, an error will be thrown.","params":{"newExpiration":"( uint64 ) time that the token expires Emits a {SubscriptionUpdate} event after the subscription is modified.","tokenId":"( uint256 ) Id of the token"}},"setLastId(uint256)":{"details":"Sets Last Id for minting. Requires - The msg sender to be the admin - The contract does not have to be paused","params":{"newLastId":"( uint256 ) The new Last Id"}},"setTurstedForwarder(address)":{"details":"Allows the owner to update the trusted forwarder for erc2771 transactions","params":{"forwarder":"( address ) contract address of the new forwarder"}},"symbol()":{"details":"See {IERC721Metadata-symbol}."},"tokenCollection(uint256)":{"details":"Gets the Collection Id for the token","params":{"tokenId":"( uint256 ) The Token Id you want to query"},"returns":{"_0":"( uint256 ) representing the Collection id for the token"}},"tokenURI(uint256)":{"details":"Gets URI for the token metadata","params":{"tokenId":"( uint256 ) The Token Id you want to get the URI"},"returns":{"_0":"( string ) URI for the token metadata"}},"transferFrom(address,address,uint256)":{"details":"See {IERC721-transferFrom}."},"transferOwnership(address)":{"details":"Transfers ownership of the contract to a new account (`newOwner`). Can only be called by the current owner."},"unfreeze(uint256)":{"details":"Unfreeze a specific ERC721 token. Requires - The msg sender to be the owner - The contract does not have to be paused - The token must be frozen","params":{"tokenId":"( uint256 ) Id of the ERC721 token to be unfrozen."}},"unpause()":{"details":"Removes a pause."},"updateCollectionRoyalty(uint256,address,uint96)":{"details":"Sets the royalty information for a specific token id, overriding the global default.","params":{"feeNumerator":"Size of the royalty in basis points. Cannot be greater than the fee denominator (10000).","receiver":"Address to receive the royalties. Cannot be the zero address."}},"updateContractURI(string)":{"details":"Changes the base URI","params":{"__contractURI":"String representing RFC 3986 URI."}},"updateDefaultRoyalty(address,uint96)":{"details":"Sets the royalty information that all ids in this contract will default to.","params":{"feeNumerator":"Size of the royalty in basis points. Cannot be greater than the fee denominator (10000).","receiver":"Address to receive the royalties. Cannot be the zero address."}},"upgradeTo(address)":{"details":"Upgrade the implementation of the proxy to `newImplementation`. Calls {_authorizeUpgrade}. Emits an {Upgraded} event."},"upgradeToAndCall(address,bytes)":{"details":"Upgrade the implementation of the proxy to `newImplementation`, and subsequently execute the function call encoded in `data`. Calls {_authorizeUpgrade}. Emits an {Upgraded} event."}},"version":1},"evm":{"bytecode":{"linkReferences":{},"object":"60a0604052306080523480156200001557600080fd5b506200002062000026565b620000e8565b600054610100900460ff1615620000935760405162461bcd60e51b815260206004820152602760248201527f496e697469616c697a61626c653a20636f6e747261637420697320696e697469604482015266616c697a696e6760c81b606482015260840160405180910390fd5b60005460ff9081161015620000e6576000805460ff191660ff9081179091556040519081527f7f26b83ff96e1f2b6a682f133852f6798a09c465da95921460cefb38474024989060200160405180910390a15b565b608051615ac5620001206000396000818161123d015281816112d3015281816115f80152818161168e01526118430152615ac56000f3fe60806040526004361061034a5760003560e01c806370a08231116101bb578063b88d4fde116100f7578063d691e43c11610095578063e8a3d4851161006f578063e8a3d485146109bf578063e985e9c5146109d4578063f2fde38b146109f4578063fb1fcca114610a1457600080fd5b8063d691e43c1461095f578063d7a78db81461097f578063d953e4d41461099f57600080fd5b8063cde317af116100d1578063cde317af146108df578063ce1b815f14610900578063cea0302e1461091f578063d1c332de1461093f57600080fd5b8063b88d4fde14610888578063c1292cc3146108a8578063c87b56dd146108bf57600080fd5b80638da5cb5b1161016457806397ec4fba1161013e57806397ec4fba146108025780639a80c5e314610817578063a089479914610837578063a22cb4651461086857600080fd5b80638da5cb5b146107af5780638e45d62e146107cd57806395d89b41146107ed57600080fd5b80637e5b1e24116101955780637e5b1e241461075a5780638456cb591461077a5780638d2320941461078f57600080fd5b806370a0823114610705578063715018a614610725578063776ce8681461073a57600080fd5b80633659cfe61161028a57806352d1902d116102335780636352211e1161020d5780636352211e146106855780636623fc46146106a55780636a662a3c146106c557806370480275146106e557600080fd5b806352d1902d14610628578063572b6c051461063d5780635c975abb1461066d57600080fd5b806342966c681161026457806342966c68146105d55780634f1ef286146105f5578063508061a21461060857600080fd5b80633659cfe6146105805780633f4ba83a146105a057806342842e0e146105b557600080fd5b806317c95709116102f757806323b872dd116102d157806323b872dd146104b957806324d7806c146104d95780632a55205a146105135780632dd883e81461055257600080fd5b806317c95709146104405780631a27e85f14610479578063212350831461049957600080fd5b8063095ea7b311610328578063095ea7b3146103de5780631771c96c146104005780631785f53c1461042057600080fd5b806301ffc9a71461034f57806306fdde0314610384578063081812fc146103a6575b600080fd5b34801561035b57600080fd5b5061036f61036a366004615006565b610a34565b60405190151581526020015b60405180910390f35b34801561039057600080fd5b50610399610adc565b60405161037b9190615099565b3480156103b257600080fd5b506103c66103c13660046150ac565b610b6e565b6040516001600160a01b03909116815260200161037b565b3480156103ea57600080fd5b506103fe6103f93660046150e1565b610b95565b005b34801561040c57600080fd5b5061039961041b3660046150ac565b610c95565b34801561042c57600080fd5b506103fe61043b36600461510b565b610cca565b34801561044c57600080fd5b5061046061045b3660046150ac565b610dd1565b60405167ffffffffffffffff909116815260200161037b565b34801561048557600080fd5b506103fe6104943660046150ac565b610dfa565b3480156104a557600080fd5b506103fe6104b43660046150ac565b610ee4565b3480156104c557600080fd5b506103fe6104d4366004615126565b610fda565b3480156104e557600080fd5b5061036f6104f436600461510b565b6001600160a01b03166000908152610199602052604090205460ff1690565b34801561051f57600080fd5b5061053361052e366004615162565b611120565b604080516001600160a01b03909316835260208301919091520161037b565b34801561055e57600080fd5b5061057261056d3660046150ac565b611213565b60405190815260200161037b565b34801561058c57600080fd5b506103fe61059b36600461510b565b611232565b3480156105ac57600080fd5b506103fe6113d0565b3480156105c157600080fd5b506103fe6105d0366004615126565b611464565b3480156105e157600080fd5b506103fe6105f03660046150ac565b611561565b6103fe61060336600461525e565b6115ed565b34801561061457600080fd5b506103fe6106233660046150ac565b61177c565b34801561063457600080fd5b50610572611836565b34801561064957600080fd5b5061036f61065836600461510b565b610191546001600160a01b0391821691161490565b34801561067957600080fd5b5060c95460ff1661036f565b34801561069157600080fd5b506103c66106a03660046150ac565b6118fb565b3480156106b157600080fd5b506103fe6106c03660046150ac565b611960565b3480156106d157600080fd5b506103fe6106e03660046152c8565b611a04565b3480156106f157600080fd5b506103fe61070036600461510b565b611a99565b34801561071157600080fd5b5061057261072036600461510b565b611c18565b34801561073157600080fd5b506103fe611cb2565b34801561074657600080fd5b506103fe61075536600461531c565b611cc4565b34801561076657600080fd5b506103fe610775366004615348565b611d61565b34801561078657600080fd5b506103fe611dff565b34801561079b57600080fd5b506103fe6107aa3660046153c2565b611e91565b3480156107bb57600080fd5b5060fb546001600160a01b03166103c6565b3480156107d957600080fd5b5061036f6107e8366004615484565b612087565b3480156107f957600080fd5b50610399612151565b34801561080e57600080fd5b506103fe612160565b34801561082357600080fd5b5061036f6108323660046154d3565b6121f5565b34801561084357600080fd5b5061036f6108523660046150ac565b6000908152610195602052604090205460ff1690565b34801561087457600080fd5b506103fe610883366004615543565b6123b6565b34801561089457600080fd5b506103fe6108a336600461557a565b6124ac565b3480156108b457600080fd5b506105726101935481565b3480156108cb57600080fd5b506103996108da3660046150ac565b6125b7565b3480156108eb57600080fd5b5061036f6108fa3660046150ac565b50600190565b34801561090c57600080fd5b50610191546001600160a01b03166103c6565b34801561092b57600080fd5b506103fe61093a36600461510b565b612604565b34801561094b57600080fd5b506103fe61095a36600461531c565b6126c5565b34801561096b57600080fd5b506103fe61097a3660046155e2565b6127d6565b34801561098b57600080fd5b506103fe61099a3660046150ac565b61286a565b3480156109ab57600080fd5b506103fe6109ba3660046150ac565b6129cd565b3480156109cb57600080fd5b50610399612a69565b3480156109e057600080fd5b5061036f6109ef36600461560c565b612af8565b348015610a0057600080fd5b506103fe610a0f36600461510b565b612b77565b348015610a2057600080fd5b5061036f610a2f366004615636565b612c04565b60007fffffffff0000000000000000000000000000000000000000000000000000000082167f8c65f84d000000000000000000000000000000000000000000000000000000001480610ac757507fffffffff0000000000000000000000000000000000000000000000000000000082167f2a55205a00000000000000000000000000000000000000000000000000000000145b80610ad65750610ad682612d98565b92915050565b606060658054610aeb90615694565b80601f0160208091040260200160405190810160405280929190818152602001828054610b1790615694565b8015610b645780601f10610b3957610100808354040283529160200191610b64565b820191906000526020600020905b815481529060010190602001808311610b4757829003601f168201915b5050505050905090565b6000610b7982612e7b565b506000908152606960205260409020546001600160a01b031690565b816daaeb6d7670e522a718067333cd4e3b15610c86576040517fc61711340000000000000000000000000000000000000000000000000000000081523060048201526001600160a01b03821660248201526daaeb6d7670e522a718067333cd4e9063c617113490604401602060405180830381865afa158015610c1c573d6000803e3d6000fd5b505050506040513d601f19601f82011682018060405250810190610c4091906156e8565b610c86576040517fede71dcc0000000000000000000000000000000000000000000000000000000081526001600160a01b03821660048201526024015b60405180910390fd5b610c908383612edf565b505050565b6060610192610ca38361301e565b604051602001610cb49291906157d6565b6040516020818303038152906040529050919050565b610cd2613150565b6001600160a01b0316610ced60fb546001600160a01b031690565b6001600160a01b03161480610d085750610d086104f4613150565b610d545760405162461bcd60e51b815260206004820152601c60248201527f63616c6c6572206973206e6f74206f776e6572206f722061646d696e000000006044820152606401610c7d565b6001600160a01b03811660008181526101996020908152604080832080547fffffffffffffffffffffffffffffffffffffffffffffffffffffffffffffff001690558051938452908301919091527f235bc17e7930760029e9f4d860a2a8089976de5b381cf8380fc11c1d88a1113391015b60405180910390a150565b6000610ddc82612e7b565b506000908152610198602052604090205467ffffffffffffffff1690565b610e02613150565b6001600160a01b0316610e1d60fb546001600160a01b031690565b6001600160a01b03161480610e385750610e386104f4613150565b610e845760405162461bcd60e51b815260206004820152601c60248201527f63616c6c6572206973206e6f74206f776e6572206f722061646d696e000000006044820152606401610c7d565b610e8c61315f565b806101935410610ede5760405162461bcd60e51b815260206004820152601760248201527f4e65772049642068617320746f206265206869676865720000000000000000006044820152606401610c7d565b61019355565b610eec613150565b6001600160a01b0316610f0760fb546001600160a01b031690565b6001600160a01b03161480610f225750610f226104f4613150565b610f6e5760405162461bcd60e51b815260206004820152601c60248201527f63616c6c6572206973206e6f74206f776e6572206f722061646d696e000000006044820152606401610c7d565b60008181526101986020908152604080832080547fffffffffffffffffffffffffffffffffffffffffffffffff00000000000000001690555191825282917f2ec2be2c4b90c2cf13ecb6751a24daed6bb741ae5ed3f7371aabf9402f6d62e8910160405180910390a250565b826daaeb6d7670e522a718067333cd4e3b1561110f57610ff8613150565b6001600160a01b0316816001600160a01b031614156110215761101c8484846131b2565b61111a565b6daaeb6d7670e522a718067333cd4e63c61711343061103e613150565b6040517fffffffff0000000000000000000000000000000000000000000000000000000060e085901b1681526001600160a01b03928316600482015291166024820152604401602060405180830381865afa1580156110a1573d6000803e3d6000fd5b505050506040513d601f19601f820116820180604052508101906110c591906156e8565b61110f576110d1613150565b6040517fede71dcc0000000000000000000000000000000000000000000000000000000081526001600160a01b039091166004820152602401610c7d565b61111a8484846131b2565b50505050565b600080600061112e85611213565b600081815261019760209081526040918290208251808401909352546001600160a01b038116808452740100000000000000000000000000000000000000009091046bffffffffffffffffffffffff1691830191909152919250906111d4575060408051808201909152610196546001600160a01b03811682527401000000000000000000000000000000000000000090046bffffffffffffffffffffffff1660208201525b6020810151600090612710906111f8906bffffffffffffffffffffffff168861582a565b6112029190615896565b9151945090925050505b9250929050565b600061121e82612e7b565b506000908152610194602052604090205490565b306001600160a01b037f00000000000000000000000000000000000000000000000000000000000000001614156112d15760405162461bcd60e51b815260206004820152602c60248201527f46756e6374696f6e206d7573742062652063616c6c6564207468726f7567682060448201527f64656c656761746563616c6c00000000000000000000000000000000000000006064820152608401610c7d565b7f00000000000000000000000000000000000000000000000000000000000000006001600160a01b031661132c7f360894a13ba1a3210667c828492db98dca3e2076cc3735a920a3ca505d382bbc546001600160a01b031690565b6001600160a01b0316146113a85760405162461bcd60e51b815260206004820152602c60248201527f46756e6374696f6e206d7573742062652063616c6c6564207468726f7567682060448201527f6163746976652070726f787900000000000000000000000000000000000000006064820152608401610c7d565b6113b18161323a565b604080516000808252602082019092526113cd918391906132c4565b50565b6113d8613150565b6001600160a01b03166113f360fb546001600160a01b031690565b6001600160a01b0316148061140e575061140e6104f4613150565b61145a5760405162461bcd60e51b815260206004820152601c60248201527f63616c6c6572206973206e6f74206f776e6572206f722061646d696e000000006044820152606401610c7d565b611462613482565b565b826daaeb6d7670e522a718067333cd4e3b1561155657611482613150565b6001600160a01b0316816001600160a01b031614156114a65761101c8484846134f8565b6daaeb6d7670e522a718067333cd4e63c6171134306114c3613150565b6040517fffffffff0000000000000000000000000000000000000000000000000000000060e085901b1681526001600160a01b03928316600482015291166024820152604401602060405180830381865afa158015611526573d6000803e3d6000fd5b505050506040513d601f19601f8201168201806040525081019061154a91906156e8565b611556576110d1613150565b61111a8484846134f8565b61157261156c613150565b82613513565b6115e45760405162461bcd60e51b815260206004820152602e60248201527f4552433732313a2063616c6c6572206973206e6f7420746f6b656e206f776e6560448201527f72206e6f7220617070726f7665640000000000000000000000000000000000006064820152608401610c7d565b6113cd81613571565b306001600160a01b037f000000000000000000000000000000000000000000000000000000000000000016141561168c5760405162461bcd60e51b815260206004820152602c60248201527f46756e6374696f6e206d7573742062652063616c6c6564207468726f7567682060448201527f64656c656761746563616c6c00000000000000000000000000000000000000006064820152608401610c7d565b7f00000000000000000000000000000000000000000000000000000000000000006001600160a01b03166116e77f360894a13ba1a3210667c828492db98dca3e2076cc3735a920a3ca505d382bbc546001600160a01b031690565b6001600160a01b0316146117635760405162461bcd60e51b815260206004820152602c60248201527f46756e6374696f6e206d7573742062652063616c6c6564207468726f7567682060448201527f6163746976652070726f787900000000000000000000000000000000000000006064820152608401610c7d565b61176c8261323a565b611778828260016132c4565b5050565b611784613150565b6001600160a01b031661179f60fb546001600160a01b031690565b6001600160a01b031614806117ba57506117ba6104f4613150565b6118065760405162461bcd60e51b815260206004820152601c60248201527f63616c6c6572206973206e6f74206f776e6572206f722061646d696e000000006044820152606401610c7d565b61180f816135ed565b61181881613655565b6113cd611824826118fb565b60fb546001600160a01b0316836136bc565b6000306001600160a01b037f000000000000000000000000000000000000000000000000000000000000000016146118d65760405162461bcd60e51b815260206004820152603860248201527f555550535570677261646561626c653a206d757374206e6f742062652063616c60448201527f6c6564207468726f7567682064656c656761746563616c6c00000000000000006064820152608401610c7d565b507f360894a13ba1a3210667c828492db98dca3e2076cc3735a920a3ca505d382bbc90565b6000818152606760205260408120546001600160a01b031680610ad65760405162461bcd60e51b815260206004820152601860248201527f4552433732313a20696e76616c696420746f6b656e20494400000000000000006044820152606401610c7d565b611968613150565b6001600160a01b031661198360fb546001600160a01b031690565b6001600160a01b0316148061199e575061199e6104f4613150565b6119ea5760405162461bcd60e51b815260206004820152601c60248201527f63616c6c6572206973206e6f74206f776e6572206f722061646d696e000000006044820152606401610c7d565b6119f261315f565b6119fb816135ed565b6113cd81613655565b611a0c613150565b6001600160a01b0316611a2760fb546001600160a01b031690565b6001600160a01b03161480611a425750611a426104f4613150565b611a8e5760405162461bcd60e51b815260206004820152601c60248201527f63616c6c6572206973206e6f74206f776e6572206f722061646d696e000000006044820152606401610c7d565b610c908383836138ac565b611aa1613150565b6001600160a01b0316611abc60fb546001600160a01b031690565b6001600160a01b03161480611ad75750611ad76104f4613150565b611b235760405162461bcd60e51b815260206004820152601c60248201527f63616c6c6572206973206e6f74206f776e6572206f722061646d696e000000006044820152606401610c7d565b6001600160a01b038116611b9e5760405162461bcd60e51b8152602060048201526024808201527f4e65772061646d696e2063616e6e6f7420626520746865207a65726f2061646460448201527f72657373000000000000000000000000000000000000000000000000000000006064820152608401610c7d565b6001600160a01b0381166000818152610199602090815260409182902080547fffffffffffffffffffffffffffffffffffffffffffffffffffffffffffffff001660019081179091558251938452908301527f235bc17e7930760029e9f4d860a2a8089976de5b381cf8380fc11c1d88a111339101610dc6565b60006001600160a01b038216611c965760405162461bcd60e51b815260206004820152602960248201527f4552433732313a2061646472657373207a65726f206973206e6f74206120766160448201527f6c6964206f776e657200000000000000000000000000000000000000000000006064820152608401610c7d565b506001600160a01b031660009081526068602052604090205490565b611cba6139e9565b6114626000613a62565b611ccc613150565b6001600160a01b0316611ce760fb546001600160a01b031690565b6001600160a01b03161480611d025750611d026104f4613150565b611d4e5760405162461bcd60e51b815260206004820152601c60248201527f63616c6c6572206973206e6f74206f776e6572206f722061646d696e000000006044820152606401610c7d565b611d5782612e7b565b6117788282613acc565b611d69613150565b6001600160a01b0316611d8460fb546001600160a01b031690565b6001600160a01b03161480611d9f5750611d9f6104f4613150565b611deb5760405162461bcd60e51b815260206004820152601c60248201527f63616c6c6572206973206e6f74206f776e6572206f722061646d696e000000006044820152606401610c7d565b805161177890610192906020840190614f3f565b611e07613150565b6001600160a01b0316611e2260fb546001600160a01b031690565b6001600160a01b03161480611e3d5750611e3d6104f4613150565b611e895760405162461bcd60e51b815260206004820152601c60248201527f63616c6c6572206973206e6f74206f776e6572206f722061646d696e000000006044820152606401610c7d565b611462613b8a565b600054610100900460ff1615808015611eb15750600054600160ff909116105b80611ecb5750303b158015611ecb575060005460ff166001145b611f3d5760405162461bcd60e51b815260206004820152602e60248201527f496e697469616c697a61626c653a20636f6e747261637420697320616c72656160448201527f647920696e697469616c697a65640000000000000000000000000000000000006064820152608401610c7d565b600080547fffffffffffffffffffffffffffffffffffffffffffffffffffffffffffffff001660011790558015611f9b57600080547fffffffffffffffffffffffffffffffffffffffffffffffffffffffffffff00ff166101001790555b611fa58686613be6565b611fad613c6d565b611fb5613cf2565b611fbd613d77565b611fc5613d77565b611fcd613df4565b611fd684611d61565b60005b8281101561201b5761200b848483818110611ff657611ff66158aa565b9050602002016020810190610700919061510b565b612014816158d9565b9050611fd9565b50801561207f57600080547fffffffffffffffffffffffffffffffffffffffffffffffffffffffffffff00ff169055604051600181527f7f26b83ff96e1f2b6a682f133852f6798a09c465da95921460cefb38474024989060200160405180910390a15b505050505050565b600061209161315f565b612099613150565b6001600160a01b03166120b460fb546001600160a01b031690565b6001600160a01b031614806120cf57506120cf6104f4613150565b61211b5760405162461bcd60e51b815260206004820152601c60248201527f63616c6c6572206973206e6f74206f776e6572206f722061646d696e000000006044820152606401610c7d565b6001610193600082825461212f9190615912565b925050819055506121468561019354868686613e90565b90505b949350505050565b606060668054610aeb90615694565b612168613150565b6001600160a01b031661218360fb546001600160a01b031690565b6001600160a01b0316148061219e575061219e6104f4613150565b6121ea5760405162461bcd60e51b815260206004820152601c60248201527f63616c6c6572206973206e6f74206f776e6572206f722061646d696e000000006044820152606401610c7d565b611462600061019655565b60006121ff61315f565b612207613150565b6001600160a01b031661222260fb546001600160a01b031690565b6001600160a01b0316148061223d575061223d6104f4613150565b6122895760405162461bcd60e51b815260206004820152601c60248201527f63616c6c6572206973206e6f74206f776e6572206f722061646d696e000000006044820152606401610c7d565b67ffffffffffffffff821615612325576000806122a6844261592a565b905060005b8681101561231d57806101935460016122c49190615912565b6122ce9190615912565b925061230289848a8a858181106122e7576122e76158aa565b90506020020160208101906122fc919061510b565b89613ee3565b5061230d83836126c5565b612316816158d9565b90506122ab565b50505061238f565b60005b8481101561238d5761237c87826101935460016123459190615912565b61234f9190615912565b888885818110612361576123616158aa565b9050602002016020810190612376919061510b565b87613ee3565b50612386816158d9565b9050612328565b505b8484905061019360008282546123a59190615912565b909155506001979650505050505050565b816daaeb6d7670e522a718067333cd4e3b156124a2576040517fc61711340000000000000000000000000000000000000000000000000000000081523060048201526001600160a01b03821660248201526daaeb6d7670e522a718067333cd4e9063c617113490604401602060405180830381865afa15801561243d573d6000803e3d6000fd5b505050506040513d601f19601f8201168201806040525081019061246191906156e8565b6124a2576040517fede71dcc0000000000000000000000000000000000000000000000000000000081526001600160a01b0382166004820152602401610c7d565b610c908383613f1b565b836daaeb6d7670e522a718067333cd4e3b156125a4576124ca613150565b6001600160a01b0316816001600160a01b031614156124f4576124ef85858585613f2d565b6125b0565b6daaeb6d7670e522a718067333cd4e63c617113430612511613150565b6040517fffffffff0000000000000000000000000000000000000000000000000000000060e085901b1681526001600160a01b03928316600482015291166024820152604401602060405180830381865afa158015612574573d6000803e3d6000fd5b505050506040513d601f19601f8201168201806040525081019061259891906156e8565b6125a4576110d1613150565b6125b085858585613f2d565b5050505050565b606060006125c483611213565b90506101926125d28261301e565b6125db8561301e565b6040516020016125ed9392919061594d565b604051602081830303815290604052915050919050565b61260c613150565b6001600160a01b031661262760fb546001600160a01b031690565b6001600160a01b0316148061264257506126426104f4613150565b61268e5760405162461bcd60e51b815260206004820152601c60248201527f63616c6c6572206973206e6f74206f776e6572206f722061646d696e000000006044820152606401610c7d565b61019180547fffffffffffffffffffffffff0000000000000000000000000000000000000000166001600160a01b03831617905550565b6126cd613150565b6001600160a01b03166126e860fb546001600160a01b031690565b6001600160a01b0316148061270357506127036104f4613150565b61274f5760405162461bcd60e51b815260206004820152601c60248201527f63616c6c6572206973206e6f74206f776e6572206f722061646d696e000000006044820152606401610c7d565b61275882612e7b565b6000828152610198602090815260409182902080547fffffffffffffffffffffffffffffffffffffffffffffffff00000000000000001667ffffffffffffffff8516908117909155915191825283917f2ec2be2c4b90c2cf13ecb6751a24daed6bb741ae5ed3f7371aabf9402f6d62e8910160405180910390a25050565b6127de613150565b6001600160a01b03166127f960fb546001600160a01b031690565b6001600160a01b0316148061281457506128146104f4613150565b6128605760405162461bcd60e51b815260206004820152601c60248201527f63616c6c6572206973206e6f74206f776e6572206f722061646d696e000000006044820152606401610c7d565b6117788282613fbc565b612872613150565b6001600160a01b031661288d60fb546001600160a01b031690565b6001600160a01b031614806128a857506128a86104f4613150565b6128f45760405162461bcd60e51b815260206004820152601c60248201527f63616c6c6572206973206e6f74206f776e6572206f722061646d696e000000006044820152606401610c7d565b6128fc61315f565b6040517fa0894799000000000000000000000000000000000000000000000000000000008152600481018290528190309063a089479990602401602060405180830381865afa158015612953573d6000803e3d6000fd5b505050506040513d601f19601f8201168201806040525081019061297791906156e8565b156129c45760405162461bcd60e51b815260206004820152600f60248201527f546f6b656e2069732066726f7a656e00000000000000000000000000000000006044820152606401610c7d565b611778826140e8565b6129d5613150565b6001600160a01b03166129f060fb546001600160a01b031690565b6001600160a01b03161480612a0b5750612a0b6104f4613150565b612a575760405162461bcd60e51b815260206004820152601c60248201527f63616c6c6572206973206e6f74206f776e6572206f722061646d696e000000006044820152606401610c7d565b60009081526101976020526040812055565b6101928054612a7790615694565b80601f0160208091040260200160405190810160405280929190818152602001828054612aa390615694565b8015612af05780601f10612ac557610100808354040283529160200191612af0565b820191906000526020600020905b815481529060010190602001808311612ad357829003601f168201915b505050505081565b60006001600160a01b0382166e6c3852cbef3e08e8df289169ede5811480612b3957506001600160a01b0382166000908152610199602052604090205460ff165b15612b4657506001610ad6565b6001600160a01b038084166000908152606a602090815260408083209386168352929052205460ff165b9392505050565b612b7f6139e9565b6001600160a01b038116612bfb5760405162461bcd60e51b815260206004820152602660248201527f4f776e61626c653a206e6577206f776e657220697320746865207a65726f206160448201527f64647265737300000000000000000000000000000000000000000000000000006064820152608401610c7d565b6113cd81613a62565b6000612c0e61315f565b612c16613150565b6001600160a01b0316612c3160fb546001600160a01b031690565b6001600160a01b03161480612c4c5750612c4c6104f4613150565b612c985760405162461bcd60e51b815260206004820152601c60248201527f63616c6c6572206973206e6f74206f776e6572206f722061646d696e000000006044820152606401610c7d565b67ffffffffffffffff821615612d2657600080612cb5844261592a565b905060005b87811015612d1e5780610193546001612cd39190615912565b612cdd9190615912565b9250612d03898983818110612cf457612cf46158aa565b90506020020135848989613ee3565b50612d0e83836126c5565b612d17816158d9565b9050612cba565b505050612d82565b60005b85811015612d8057612d6f878783818110612d4657612d466158aa565b9050602002013582610193546001612d5e9190615912565b612d689190615912565b8787613ee3565b50612d79816158d9565b9050612d29565b505b8585905061019360008282546123a59190615912565b60007fffffffff0000000000000000000000000000000000000000000000000000000082167f80ac58cd000000000000000000000000000000000000000000000000000000001480612e2b57507fffffffff0000000000000000000000000000000000000000000000000000000082167f5b5e139f00000000000000000000000000000000000000000000000000000000145b80610ad657507f01ffc9a7000000000000000000000000000000000000000000000000000000007fffffffff00000000000000000000000000000000000000000000000000000000831614610ad6565b6000818152606760205260409020546001600160a01b03166113cd5760405162461bcd60e51b815260206004820152601860248201527f4552433732313a20696e76616c696420746f6b656e20494400000000000000006044820152606401610c7d565b6000612eea826118fb565b9050806001600160a01b0316836001600160a01b03161415612f745760405162461bcd60e51b815260206004820152602160248201527f4552433732313a20617070726f76616c20746f2063757272656e74206f776e6560448201527f72000000000000000000000000000000000000000000000000000000000000006064820152608401610c7d565b806001600160a01b0316612f86613150565b6001600160a01b03161480612fa25750612fa2816109ef613150565b6130145760405162461bcd60e51b815260206004820152603e60248201527f4552433732313a20617070726f76652063616c6c6572206973206e6f7420746f60448201527f6b656e206f776e6572206e6f7220617070726f76656420666f7220616c6c00006064820152608401610c7d565b610c908383614152565b60608161305e57505060408051808201909152600181527f3000000000000000000000000000000000000000000000000000000000000000602082015290565b8160005b81156130885780613072816158d9565b91506130819050600a83615896565b9150613062565b60008167ffffffffffffffff8111156130a3576130a3615184565b6040519080825280601f01601f1916602001820160405280156130cd576020820181803683370190505b5090505b8415612149576130e26001836159af565b91506130ef600a866159c6565b6130fa906030615912565b60f81b81838151811061310f5761310f6158aa565b60200101907effffffffffffffffffffffffffffffffffffffffffffffffffffffffffffff1916908160001a905350613149600a86615896565b94506130d1565b600061315a6141d8565b905090565b60c95460ff16156114625760405162461bcd60e51b815260206004820152601060248201527f5061757361626c653a20706175736564000000000000000000000000000000006044820152606401610c7d565b6131bd61156c613150565b61322f5760405162461bcd60e51b815260206004820152602e60248201527f4552433732313a2063616c6c6572206973206e6f7420746f6b656e206f776e6560448201527f72206e6f7220617070726f7665640000000000000000000000000000000000006064820152608401610c7d565b610c908383836136bc565b613242613150565b6001600160a01b031661325d60fb546001600160a01b031690565b6001600160a01b0316148061327857506132786104f4613150565b6113cd5760405162461bcd60e51b815260206004820152601c60248201527f63616c6c6572206973206e6f74206f776e6572206f722061646d696e000000006044820152606401610c7d565b7f4910fdfa16fed3260ed0e7147f7cc6da11a60208b5b9406d12a635614ffd91435460ff16156132f757610c908361422b565b826001600160a01b03166352d1902d6040518163ffffffff1660e01b8152600401602060405180830381865afa92505050801561336f575060408051601f3d9081017fffffffffffffffffffffffffffffffffffffffffffffffffffffffffffffffe016820190925261336c918101906159da565b60015b6133e15760405162461bcd60e51b815260206004820152602e60248201527f45524331393637557067726164653a206e657720696d706c656d656e7461746960448201527f6f6e206973206e6f7420555550530000000000000000000000000000000000006064820152608401610c7d565b7f360894a13ba1a3210667c828492db98dca3e2076cc3735a920a3ca505d382bbc81146134765760405162461bcd60e51b815260206004820152602960248201527f45524331393637557067726164653a20756e737570706f727465642070726f7860448201527f6961626c655555494400000000000000000000000000000000000000000000006064820152608401610c7d565b50610c90838383614301565b61348a614326565b60c980547fffffffffffffffffffffffffffffffffffffffffffffffffffffffffffffff001690557f5db9ee0a495bf2e6ff9c91a7834c1ba4fdd244a5e8aa4e537bd38aeae4b073aa6134db613150565b6040516001600160a01b03909116815260200160405180910390a1565b610c90838383604051806020016040528060008152506124ac565b60008061351f836118fb565b9050806001600160a01b0316846001600160a01b0316148061354657506135468185612af8565b806121495750836001600160a01b031661355f84610b6e565b6001600160a01b031614949350505050565b61357a81614378565b600090815261019460209081526040808320839055610195825280832080547fffffffffffffffffffffffffffffffffffffffffffffffffffffffffffffff00169055610198909152902080547fffffffffffffffffffffffffffffffffffffffffffffffff0000000000000000169055565b6135f681612e7b565b6000818152610195602052604090205460ff166113cd5760405162461bcd60e51b815260206004820152601360248201527f546f6b656e206973206e6f742066726f7a656e000000000000000000000000006044820152606401610c7d565b600081815261019560205260409081902080547fffffffffffffffffffffffffffffffffffffffffffffffffffffffffffffff00169055517f083eea12772ab70fba01c8212d02f3bc5dc29b8540dcdc84298e5dfa22731b9290610dc69083815260200190565b826001600160a01b03166136cf826118fb565b6001600160a01b03161461374b5760405162461bcd60e51b815260206004820152602560248201527f4552433732313a207472616e736665722066726f6d20696e636f72726563742060448201527f6f776e65720000000000000000000000000000000000000000000000000000006064820152608401610c7d565b6001600160a01b0382166137c65760405162461bcd60e51b8152602060048201526024808201527f4552433732313a207472616e7366657220746f20746865207a65726f2061646460448201527f72657373000000000000000000000000000000000000000000000000000000006064820152608401610c7d565b6137d1838383614437565b6137dc600082614152565b6001600160a01b03831660009081526068602052604081208054600192906138059084906159af565b90915550506001600160a01b0382166000908152606860205260408120805460019290613833908490615912565b909155505060008181526067602052604080822080547fffffffffffffffffffffffff0000000000000000000000000000000000000000166001600160a01b0386811691821790925591518493918716917fddf252ad1be2c89b69c2b068fc378daa952ba7f163c4a11628f55a4df523b3ef91a4505050565b6127106bffffffffffffffffffffffff821611156139325760405162461bcd60e51b815260206004820152602a60248201527f455243323938313a20726f79616c7479206665652077696c6c2065786365656460448201527f2073616c655072696365000000000000000000000000000000000000000000006064820152608401610c7d565b6001600160a01b0382166139885760405162461bcd60e51b815260206004820152601b60248201527f455243323938313a20496e76616c696420706172616d657465727300000000006044820152606401610c7d565b6040805180820182526001600160a01b0393841681526bffffffffffffffffffffffff928316602080830191825260009687526101979052919094209351905190911674010000000000000000000000000000000000000000029116179055565b6139f1613150565b6001600160a01b0316613a0c60fb546001600160a01b031690565b6001600160a01b0316146114625760405162461bcd60e51b815260206004820181905260248201527f4f776e61626c653a2063616c6c6572206973206e6f7420746865206f776e65726044820152606401610c7d565b60fb80546001600160a01b038381167fffffffffffffffffffffffff0000000000000000000000000000000000000000831681179093556040519116919082907f8be0079c531659141344cd1fd0a4f28419497f9722a3daafe3b4186f6b6457e090600090a35050565b6000828152610198602052604081205467ffffffffffffffff169081613afd57613af6834261592a565b9050613b0a565b613b07838361592a565b90505b6000848152610198602090815260409182902080547fffffffffffffffffffffffffffffffffffffffffffffffff00000000000000001667ffffffffffffffff8516908117909155915191825285917f2ec2be2c4b90c2cf13ecb6751a24daed6bb741ae5ed3f7371aabf9402f6d62e8910160405180910390a250505050565b613b9261315f565b60c980547fffffffffffffffffffffffffffffffffffffffffffffffffffffffffffffff001660011790557f62e78cea01bee320cd4e420270b5ea74000d11b0c9f74754ebdbfc544b05a2586134db613150565b600054610100900460ff16613c635760405162461bcd60e51b815260206004820152602b60248201527f496e697469616c697a61626c653a20636f6e7472616374206973206e6f74206960448201527f6e697469616c697a696e670000000000000000000000000000000000000000006064820152608401610c7d565b6117788282614507565b600054610100900460ff16613cea5760405162461bcd60e51b815260206004820152602b60248201527f496e697469616c697a61626c653a20636f6e7472616374206973206e6f74206960448201527f6e697469616c697a696e670000000000000000000000000000000000000000006064820152608401610c7d565b6114626145ab565b600054610100900460ff16613d6f5760405162461bcd60e51b815260206004820152602b60248201527f496e697469616c697a61626c653a20636f6e7472616374206973206e6f74206960448201527f6e697469616c697a696e670000000000000000000000000000000000000000006064820152608401610c7d565b611462614652565b600054610100900460ff166114625760405162461bcd60e51b815260206004820152602b60248201527f496e697469616c697a61626c653a20636f6e7472616374206973206e6f74206960448201527f6e697469616c697a696e670000000000000000000000000000000000000000006064820152608401610c7d565b600054610100900460ff16613e715760405162461bcd60e51b815260206004820152602b60248201527f496e697469616c697a61626c653a20636f6e7472616374206973206e6f74206960448201527f6e697469616c697a696e670000000000000000000000000000000000000000006064820152608401610c7d565b611462733cc6cdda760b79bafa08df41ecfa224f810dceb660016146df565b6000613e9c8486614938565b6000858152610194602052604090208690558215613ebd57613ebd8561286a565b67ffffffffffffffff821615613ed757613ed78583613acc565b50600195945050505050565b6000613eef8385614938565b6000848152610194602052604090208590558115613f1057613f108461286a565b506001949350505050565b611778613f26613150565b8383614a9e565b613f3e613f38613150565b83613513565b613fb05760405162461bcd60e51b815260206004820152602e60248201527f4552433732313a2063616c6c6572206973206e6f7420746f6b656e206f776e6560448201527f72206e6f7220617070726f7665640000000000000000000000000000000000006064820152608401610c7d565b61111a84848484614b8b565b6127106bffffffffffffffffffffffff821611156140425760405162461bcd60e51b815260206004820152602a60248201527f455243323938313a20726f79616c7479206665652077696c6c2065786365656460448201527f2073616c655072696365000000000000000000000000000000000000000000006064820152608401610c7d565b6001600160a01b0382166140985760405162461bcd60e51b815260206004820152601960248201527f455243323938313a20696e76616c6964207265636569766572000000000000006044820152606401610c7d565b604080518082019091526001600160a01b039092168083526bffffffffffffffffffffffff9091166020909201829052740100000000000000000000000000000000000000009091021761019655565b600081815261019560205260409081902080547fffffffffffffffffffffffffffffffffffffffffffffffffffffffffffffff00166001179055517f4d69b51fee53c28bd8b61fe008151577ca65160b5248f6225e74d64fd4cf732890610dc69083815260200190565b600081815260696020526040902080547fffffffffffffffffffffffff0000000000000000000000000000000000000000166001600160a01b038416908117909155819061419f826118fb565b6001600160a01b03167f8c5be1e5ebec7d5bd14f71427d1e84f3dd0314c0f7b2291e5b200ac8c7c3b92560405160405180910390a45050565b6000601436108015906141f65750610191546001600160a01b031633145b1561422657507fffffffffffffffffffffffffffffffffffffffffffffffffffffffffffffffec36013560601c90565b503390565b6001600160a01b0381163b6142a85760405162461bcd60e51b815260206004820152602d60248201527f455243313936373a206e657720696d706c656d656e746174696f6e206973206e60448201527f6f74206120636f6e7472616374000000000000000000000000000000000000006064820152608401610c7d565b7f360894a13ba1a3210667c828492db98dca3e2076cc3735a920a3ca505d382bbc80547fffffffffffffffffffffffff0000000000000000000000000000000000000000166001600160a01b0392909216919091179055565b61430a83614c14565b6000825111806143175750805b15610c905761111a8383614c54565b60c95460ff166114625760405162461bcd60e51b815260206004820152601460248201527f5061757361626c653a206e6f74207061757365640000000000000000000000006044820152606401610c7d565b6000614383826118fb565b905061439181600084614437565b61439c600083614152565b6001600160a01b03811660009081526068602052604081208054600192906143c59084906159af565b909155505060008281526067602052604080822080547fffffffffffffffffffffffff0000000000000000000000000000000000000000169055518391906001600160a01b038416907fddf252ad1be2c89b69c2b068fc378daa952ba7f163c4a11628f55a4df523b3ef908390a45050565b61443f61315f565b6040517fa0894799000000000000000000000000000000000000000000000000000000008152600481018290528190309063a089479990602401602060405180830381865afa158015614496573d6000803e3d6000fd5b505050506040513d601f19601f820116820180604052508101906144ba91906156e8565b1561101c5760405162461bcd60e51b815260206004820152600f60248201527f546f6b656e2069732066726f7a656e00000000000000000000000000000000006044820152606401610c7d565b600054610100900460ff166145845760405162461bcd60e51b815260206004820152602b60248201527f496e697469616c697a61626c653a20636f6e7472616374206973206e6f74206960448201527f6e697469616c697a696e670000000000000000000000000000000000000000006064820152608401610c7d565b8151614597906065906020850190614f3f565b508051610c90906066906020840190614f3f565b600054610100900460ff166146285760405162461bcd60e51b815260206004820152602b60248201527f496e697469616c697a61626c653a20636f6e7472616374206973206e6f74206960448201527f6e697469616c697a696e670000000000000000000000000000000000000000006064820152608401610c7d565b60c980547fffffffffffffffffffffffffffffffffffffffffffffffffffffffffffffff00169055565b600054610100900460ff166146cf5760405162461bcd60e51b815260206004820152602b60248201527f496e697469616c697a61626c653a20636f6e7472616374206973206e6f74206960448201527f6e697469616c697a696e670000000000000000000000000000000000000000006064820152608401610c7d565b6114626146da613150565b613a62565b600054610100900460ff1661475c5760405162461bcd60e51b815260206004820152602b60248201527f496e697469616c697a61626c653a20636f6e7472616374206973206e6f74206960448201527f6e697469616c697a696e670000000000000000000000000000000000000000006064820152608401610c7d565b6daaeb6d7670e522a718067333cd4e3b15611778576040517fc3c5a5470000000000000000000000000000000000000000000000000000000081523060048201526daaeb6d7670e522a718067333cd4e9063c3c5a547906024016020604051808303816000875af11580156147d5573d6000803e3d6000fd5b505050506040513d601f19601f820116820180604052508101906147f991906156e8565b611778578015614886576040517f7d3e3dbe0000000000000000000000000000000000000000000000000000000081523060048201526001600160a01b03831660248201526daaeb6d7670e522a718067333cd4e90637d3e3dbe906044015b600060405180830381600087803b15801561487257600080fd5b505af115801561207f573d6000803e3d6000fd5b6001600160a01b038216156148ee576040517fa0af29030000000000000000000000000000000000000000000000000000000081523060048201526001600160a01b03831660248201526daaeb6d7670e522a718067333cd4e9063a0af290390604401614858565b6040517f4420e4860000000000000000000000000000000000000000000000000000000081523060048201526daaeb6d7670e522a718067333cd4e90634420e48690602401614858565b6001600160a01b03821661498e5760405162461bcd60e51b815260206004820181905260248201527f4552433732313a206d696e7420746f20746865207a65726f20616464726573736044820152606401610c7d565b6000818152606760205260409020546001600160a01b0316156149f35760405162461bcd60e51b815260206004820152601c60248201527f4552433732313a20746f6b656e20616c7265616479206d696e746564000000006044820152606401610c7d565b6149ff60008383614437565b6001600160a01b0382166000908152606860205260408120805460019290614a28908490615912565b909155505060008181526067602052604080822080547fffffffffffffffffffffffff0000000000000000000000000000000000000000166001600160a01b03861690811790915590518392907fddf252ad1be2c89b69c2b068fc378daa952ba7f163c4a11628f55a4df523b3ef908290a45050565b816001600160a01b0316836001600160a01b03161415614b005760405162461bcd60e51b815260206004820152601960248201527f4552433732313a20617070726f766520746f2063616c6c6572000000000000006044820152606401610c7d565b6001600160a01b038381166000818152606a602090815260408083209487168084529482529182902080547fffffffffffffffffffffffffffffffffffffffffffffffffffffffffffffff001686151590811790915591519182527f17307eab39ab6107e8899845ad3d59bd9653f200f220920489ca2b5937696c31910160405180910390a3505050565b614b968484846136bc565b614ba284848484614d5f565b61111a5760405162461bcd60e51b815260206004820152603260248201527f4552433732313a207472616e7366657220746f206e6f6e20455243373231526560448201527f63656976657220696d706c656d656e74657200000000000000000000000000006064820152608401610c7d565b614c1d8161422b565b6040516001600160a01b038216907fbc7cd75a20ee27fd9adebab32041f755214dbc6bffa90cc0225b39da2e5c2d3b90600090a250565b60606001600160a01b0383163b614cd35760405162461bcd60e51b815260206004820152602660248201527f416464726573733a2064656c65676174652063616c6c20746f206e6f6e2d636f60448201527f6e747261637400000000000000000000000000000000000000000000000000006064820152608401610c7d565b600080846001600160a01b031684604051614cee91906159f3565b600060405180830381855af49150503d8060008114614d29576040519150601f19603f3d011682016040523d82523d6000602084013e614d2e565b606091505b5091509150614d568282604051806060016040528060278152602001615a6960279139614f06565b95945050505050565b60006001600160a01b0384163b15614efe57836001600160a01b031663150b7a02614d88613150565b8786866040518563ffffffff1660e01b8152600401614daa9493929190615a0f565b6020604051808303816000875af1925050508015614e03575060408051601f3d9081017fffffffffffffffffffffffffffffffffffffffffffffffffffffffffffffffe0168201909252614e0091810190615a4b565b60015b614eb3573d808015614e31576040519150601f19603f3d011682016040523d82523d6000602084013e614e36565b606091505b508051614eab5760405162461bcd60e51b815260206004820152603260248201527f4552433732313a207472616e7366657220746f206e6f6e20455243373231526560448201527f63656976657220696d706c656d656e74657200000000000000000000000000006064820152608401610c7d565b805181602001fd5b7fffffffff00000000000000000000000000000000000000000000000000000000167f150b7a0200000000000000000000000000000000000000000000000000000000149050612149565b506001612149565b60608315614f15575081612b70565b825115614f255782518084602001fd5b8160405162461bcd60e51b8152600401610c7d9190615099565b828054614f4b90615694565b90600052602060002090601f016020900481019282614f6d5760008555614fb3565b82601f10614f8657805160ff1916838001178555614fb3565b82800160010185558215614fb3579182015b82811115614fb3578251825591602001919060010190614f98565b50614fbf929150614fc3565b5090565b5b80821115614fbf5760008155600101614fc4565b7fffffffff00000000000000000000000000000000000000000000000000000000811681146113cd57600080fd5b60006020828403121561501857600080fd5b8135612b7081614fd8565b60005b8381101561503e578181015183820152602001615026565b8381111561111a5750506000910152565b60008151808452615067816020860160208601615023565b601f017fffffffffffffffffffffffffffffffffffffffffffffffffffffffffffffffe0169290920160200192915050565b602081526000612b70602083018461504f565b6000602082840312156150be57600080fd5b5035919050565b80356001600160a01b03811681146150dc57600080fd5b919050565b600080604083850312156150f457600080fd5b6150fd836150c5565b946020939093013593505050565b60006020828403121561511d57600080fd5b612b70826150c5565b60008060006060848603121561513b57600080fd5b615144846150c5565b9250615152602085016150c5565b9150604084013590509250925092565b6000806040838503121561517557600080fd5b50508035926020909101359150565b7f4e487b7100000000000000000000000000000000000000000000000000000000600052604160045260246000fd5b600082601f8301126151c457600080fd5b813567ffffffffffffffff808211156151df576151df615184565b604051601f83017fffffffffffffffffffffffffffffffffffffffffffffffffffffffffffffffe0908116603f0116810190828211818310171561522557615225615184565b8160405283815286602085880101111561523e57600080fd5b836020870160208301376000602085830101528094505050505092915050565b6000806040838503121561527157600080fd5b61527a836150c5565b9150602083013567ffffffffffffffff81111561529657600080fd5b6152a2858286016151b3565b9150509250929050565b80356bffffffffffffffffffffffff811681146150dc57600080fd5b6000806000606084860312156152dd57600080fd5b833592506152ed602085016150c5565b91506152fb604085016152ac565b90509250925092565b803567ffffffffffffffff811681146150dc57600080fd5b6000806040838503121561532f57600080fd5b8235915061533f60208401615304565b90509250929050565b60006020828403121561535a57600080fd5b813567ffffffffffffffff81111561537157600080fd5b612149848285016151b3565b60008083601f84011261538f57600080fd5b50813567ffffffffffffffff8111156153a757600080fd5b6020830191508360208260051b850101111561120c57600080fd5b6000806000806000608086880312156153da57600080fd5b853567ffffffffffffffff808211156153f257600080fd5b6153fe89838a016151b3565b9650602088013591508082111561541457600080fd5b61542089838a016151b3565b9550604088013591508082111561543657600080fd5b61544289838a016151b3565b9450606088013591508082111561545857600080fd5b506154658882890161537d565b969995985093965092949392505050565b80151581146113cd57600080fd5b6000806000806080858703121561549a57600080fd5b843593506154aa602086016150c5565b925060408501356154ba81615476565b91506154c860608601615304565b905092959194509250565b6000806000806000608086880312156154eb57600080fd5b85359450602086013567ffffffffffffffff81111561550957600080fd5b6155158882890161537d565b909550935050604086013561552981615476565b915061553760608701615304565b90509295509295909350565b6000806040838503121561555657600080fd5b61555f836150c5565b9150602083013561556f81615476565b809150509250929050565b6000806000806080858703121561559057600080fd5b615599856150c5565b93506155a7602086016150c5565b925060408501359150606085013567ffffffffffffffff8111156155ca57600080fd5b6155d6878288016151b3565b91505092959194509250565b600080604083850312156155f557600080fd5b6155fe836150c5565b915061533f602084016152ac565b6000806040838503121561561f57600080fd5b615628836150c5565b915061533f602084016150c5565b60008060008060006080868803121561564e57600080fd5b853567ffffffffffffffff81111561566557600080fd5b6156718882890161537d565b90965094506156849050602087016150c5565b9250604086013561552981615476565b600181811c908216806156a857607f821691505b602082108114156156e2577f4e487b7100000000000000000000000000000000000000000000000000000000600052602260045260246000fd5b50919050565b6000602082840312156156fa57600080fd5b8151612b7081615476565b8054600090600181811c908083168061571f57607f831692505b602080841082141561575a577f4e487b7100000000000000000000000000000000000000000000000000000000600052602260045260246000fd5b81801561576e576001811461579d576157ca565b7fffffffffffffffffffffffffffffffffffffffffffffffffffffffffffffff008616895284890196506157ca565b60008881526020902060005b868110156157c25781548b8201529085019083016157a9565b505084890196505b50505050505092915050565b60006157e28285615705565b83516157f2818360208801615023565b01949350505050565b7f4e487b7100000000000000000000000000000000000000000000000000000000600052601160045260246000fd5b6000817fffffffffffffffffffffffffffffffffffffffffffffffffffffffffffffffff0483118215151615615862576158626157fb565b500290565b7f4e487b7100000000000000000000000000000000000000000000000000000000600052601260045260246000fd5b6000826158a5576158a5615867565b500490565b7f4e487b7100000000000000000000000000000000000000000000000000000000600052603260045260246000fd5b60007fffffffffffffffffffffffffffffffffffffffffffffffffffffffffffffffff82141561590b5761590b6157fb565b5060010190565b60008219821115615925576159256157fb565b500190565b600067ffffffffffffffff8083168185168083038211156157f2576157f26157fb565b60006159598286615705565b8451615969818360208901615023565b7f2f00000000000000000000000000000000000000000000000000000000000000910190815283516159a2816001840160208801615023565b0160010195945050505050565b6000828210156159c1576159c16157fb565b500390565b6000826159d5576159d5615867565b500690565b6000602082840312156159ec57600080fd5b5051919050565b60008251615a05818460208701615023565b9190910192915050565b60006001600160a01b03808716835280861660208401525083604083015260806060830152615a41608083018461504f565b9695505050505050565b600060208284031215615a5d57600080fd5b8151612b7081614fd856fe416464726573733a206c6f772d6c6576656c2064656c65676174652063616c6c206661696c6564a26469706673582212209506e7b30ac6e2d43e2ec75ac04d92845975584a5feed00488aa09ede4e7c43364736f6c634300080c0033","opcodes":"PUSH1 0xA0 PUSH1 0x40 MSTORE ADDRESS PUSH1 0x80 MSTORE CALLVALUE DUP1 ISZERO PUSH3 0x15 JUMPI PUSH1 0x0 DUP1 REVERT JUMPDEST POP PUSH3 0x20 PUSH3 0x26 JUMP JUMPDEST PUSH3 0xE8 JUMP JUMPDEST PUSH1 0x0 SLOAD PUSH2 0x100 SWAP1 DIV PUSH1 0xFF AND ISZERO PUSH3 0x93 JUMPI PUSH1 0x40 MLOAD PUSH3 0x461BCD PUSH1 0xE5 SHL DUP2 MSTORE PUSH1 0x20 PUSH1 0x4 DUP3 ADD MSTORE PUSH1 0x27 PUSH1 0x24 DUP3 ADD MSTORE PUSH32 0x496E697469616C697A61626C653A20636F6E747261637420697320696E697469 PUSH1 0x44 DUP3 ADD MSTORE PUSH7 0x616C697A696E67 PUSH1 0xC8 SHL PUSH1 0x64 DUP3 ADD MSTORE PUSH1 0x84 ADD PUSH1 0x40 MLOAD DUP1 SWAP2 SUB SWAP1 REVERT JUMPDEST PUSH1 0x0 SLOAD PUSH1 0xFF SWAP1 DUP2 AND LT ISZERO PUSH3 0xE6 JUMPI PUSH1 0x0 DUP1 SLOAD PUSH1 0xFF NOT AND PUSH1 0xFF SWAP1 DUP2 OR SWAP1 SWAP2 SSTORE PUSH1 0x40 MLOAD SWAP1 DUP2 MSTORE PUSH32 0x7F26B83FF96E1F2B6A682F133852F6798A09C465DA95921460CEFB3847402498 SWAP1 PUSH1 0x20 ADD PUSH1 0x40 MLOAD DUP1 SWAP2 SUB SWAP1 LOG1 JUMPDEST JUMP JUMPDEST PUSH1 0x80 MLOAD PUSH2 0x5AC5 PUSH3 0x120 PUSH1 0x0 CODECOPY PUSH1 0x0 DUP2 DUP2 PUSH2 0x123D ADD MSTORE DUP2 DUP2 PUSH2 0x12D3 ADD MSTORE DUP2 DUP2 PUSH2 0x15F8 ADD MSTORE DUP2 DUP2 PUSH2 0x168E ADD MSTORE PUSH2 0x1843 ADD MSTORE PUSH2 0x5AC5 PUSH1 0x0 RETURN INVALID PUSH1 0x80 PUSH1 0x40 MSTORE PUSH1 0x4 CALLDATASIZE LT PUSH2 0x34A JUMPI PUSH1 0x0 CALLDATALOAD PUSH1 0xE0 SHR DUP1 PUSH4 0x70A08231 GT PUSH2 0x1BB JUMPI DUP1 PUSH4 0xB88D4FDE GT PUSH2 0xF7 JUMPI DUP1 PUSH4 0xD691E43C GT PUSH2 0x95 JUMPI DUP1 PUSH4 0xE8A3D485 GT PUSH2 0x6F JUMPI DUP1 PUSH4 0xE8A3D485 EQ PUSH2 0x9BF JUMPI DUP1 PUSH4 0xE985E9C5 EQ PUSH2 0x9D4 JUMPI DUP1 PUSH4 0xF2FDE38B EQ PUSH2 0x9F4 JUMPI DUP1 PUSH4 0xFB1FCCA1 EQ PUSH2 0xA14 JUMPI PUSH1 0x0 DUP1 REVERT JUMPDEST DUP1 PUSH4 0xD691E43C EQ PUSH2 0x95F JUMPI DUP1 PUSH4 0xD7A78DB8 EQ PUSH2 0x97F JUMPI DUP1 PUSH4 0xD953E4D4 EQ PUSH2 0x99F JUMPI PUSH1 0x0 DUP1 REVERT JUMPDEST DUP1 PUSH4 0xCDE317AF GT PUSH2 0xD1 JUMPI DUP1 PUSH4 0xCDE317AF EQ PUSH2 0x8DF JUMPI DUP1 PUSH4 0xCE1B815F EQ PUSH2 0x900 JUMPI DUP1 PUSH4 0xCEA0302E EQ PUSH2 0x91F JUMPI DUP1 PUSH4 0xD1C332DE EQ PUSH2 0x93F JUMPI PUSH1 0x0 DUP1 REVERT JUMPDEST DUP1 PUSH4 0xB88D4FDE EQ PUSH2 0x888 JUMPI DUP1 PUSH4 0xC1292CC3 EQ PUSH2 0x8A8 JUMPI DUP1 PUSH4 0xC87B56DD EQ PUSH2 0x8BF JUMPI PUSH1 0x0 DUP1 REVERT JUMPDEST DUP1 PUSH4 0x8DA5CB5B GT PUSH2 0x164 JUMPI DUP1 PUSH4 0x97EC4FBA GT PUSH2 0x13E JUMPI DUP1 PUSH4 0x97EC4FBA EQ PUSH2 0x802 JUMPI DUP1 PUSH4 0x9A80C5E3 EQ PUSH2 0x817 JUMPI DUP1 PUSH4 0xA0894799 EQ PUSH2 0x837 JUMPI DUP1 PUSH4 0xA22CB465 EQ PUSH2 0x868 JUMPI PUSH1 0x0 DUP1 REVERT JUMPDEST DUP1 PUSH4 0x8DA5CB5B EQ PUSH2 0x7AF JUMPI DUP1 PUSH4 0x8E45D62E EQ PUSH2 0x7CD JUMPI DUP1 PUSH4 0x95D89B41 EQ PUSH2 0x7ED JUMPI PUSH1 0x0 DUP1 REVERT JUMPDEST DUP1 PUSH4 0x7E5B1E24 GT PUSH2 0x195 JUMPI DUP1 PUSH4 0x7E5B1E24 EQ PUSH2 0x75A JUMPI DUP1 PUSH4 0x8456CB59 EQ PUSH2 0x77A JUMPI DUP1 PUSH4 0x8D232094 EQ PUSH2 0x78F JUMPI PUSH1 0x0 DUP1 REVERT JUMPDEST DUP1 PUSH4 0x70A08231 EQ PUSH2 0x705 JUMPI DUP1 PUSH4 0x715018A6 EQ PUSH2 0x725 JUMPI DUP1 PUSH4 0x776CE868 EQ PUSH2 0x73A JUMPI PUSH1 0x0 DUP1 REVERT JUMPDEST DUP1 PUSH4 0x3659CFE6 GT PUSH2 0x28A JUMPI DUP1 PUSH4 0x52D1902D GT PUSH2 0x233 JUMPI DUP1 PUSH4 0x6352211E GT PUSH2 0x20D JUMPI DUP1 PUSH4 0x6352211E EQ PUSH2 0x685 JUMPI DUP1 PUSH4 0x6623FC46 EQ PUSH2 0x6A5 JUMPI DUP1 PUSH4 0x6A662A3C EQ PUSH2 0x6C5 JUMPI DUP1 PUSH4 0x70480275 EQ PUSH2 0x6E5 JUMPI PUSH1 0x0 DUP1 REVERT JUMPDEST DUP1 PUSH4 0x52D1902D EQ PUSH2 0x628 JUMPI DUP1 PUSH4 0x572B6C05 EQ PUSH2 0x63D JUMPI DUP1 PUSH4 0x5C975ABB EQ PUSH2 0x66D JUMPI PUSH1 0x0 DUP1 REVERT JUMPDEST DUP1 PUSH4 0x42966C68 GT PUSH2 0x264 JUMPI DUP1 PUSH4 0x42966C68 EQ PUSH2 0x5D5 JUMPI DUP1 PUSH4 0x4F1EF286 EQ PUSH2 0x5F5 JUMPI DUP1 PUSH4 0x508061A2 EQ PUSH2 0x608 JUMPI PUSH1 0x0 DUP1 REVERT JUMPDEST DUP1 PUSH4 0x3659CFE6 EQ PUSH2 0x580 JUMPI DUP1 PUSH4 0x3F4BA83A EQ PUSH2 0x5A0 JUMPI DUP1 PUSH4 0x42842E0E EQ PUSH2 0x5B5 JUMPI PUSH1 0x0 DUP1 REVERT JUMPDEST DUP1 PUSH4 0x17C95709 GT PUSH2 0x2F7 JUMPI DUP1 PUSH4 0x23B872DD GT PUSH2 0x2D1 JUMPI DUP1 PUSH4 0x23B872DD EQ PUSH2 0x4B9 JUMPI DUP1 PUSH4 0x24D7806C EQ PUSH2 0x4D9 JUMPI DUP1 PUSH4 0x2A55205A EQ PUSH2 0x513 JUMPI DUP1 PUSH4 0x2DD883E8 EQ PUSH2 0x552 JUMPI PUSH1 0x0 DUP1 REVERT JUMPDEST DUP1 PUSH4 0x17C95709 EQ PUSH2 0x440 JUMPI DUP1 PUSH4 0x1A27E85F EQ PUSH2 0x479 JUMPI DUP1 PUSH4 0x21235083 EQ PUSH2 0x499 JUMPI PUSH1 0x0 DUP1 REVERT JUMPDEST DUP1 PUSH4 0x95EA7B3 GT PUSH2 0x328 JUMPI DUP1 PUSH4 0x95EA7B3 EQ PUSH2 0x3DE JUMPI DUP1 PUSH4 0x1771C96C EQ PUSH2 0x400 JUMPI DUP1 PUSH4 0x1785F53C EQ PUSH2 0x420 JUMPI PUSH1 0x0 DUP1 REVERT JUMPDEST DUP1 PUSH4 0x1FFC9A7 EQ PUSH2 0x34F JUMPI DUP1 PUSH4 0x6FDDE03 EQ PUSH2 0x384 JUMPI DUP1 PUSH4 0x81812FC EQ PUSH2 0x3A6 JUMPI JUMPDEST PUSH1 0x0 DUP1 REVERT JUMPDEST CALLVALUE DUP1 ISZERO PUSH2 0x35B JUMPI PUSH1 0x0 DUP1 REVERT JUMPDEST POP PUSH2 0x36F PUSH2 0x36A CALLDATASIZE PUSH1 0x4 PUSH2 0x5006 JUMP JUMPDEST PUSH2 0xA34 JUMP JUMPDEST PUSH1 0x40 MLOAD SWAP1 ISZERO ISZERO DUP2 MSTORE PUSH1 0x20 ADD JUMPDEST PUSH1 0x40 MLOAD DUP1 SWAP2 SUB SWAP1 RETURN JUMPDEST CALLVALUE DUP1 ISZERO PUSH2 0x390 JUMPI PUSH1 0x0 DUP1 REVERT JUMPDEST POP PUSH2 0x399 PUSH2 0xADC JUMP JUMPDEST PUSH1 0x40 MLOAD PUSH2 0x37B SWAP2 SWAP1 PUSH2 0x5099 JUMP JUMPDEST CALLVALUE DUP1 ISZERO PUSH2 0x3B2 JUMPI PUSH1 0x0 DUP1 REVERT JUMPDEST POP PUSH2 0x3C6 PUSH2 0x3C1 CALLDATASIZE PUSH1 0x4 PUSH2 0x50AC JUMP JUMPDEST PUSH2 0xB6E JUMP JUMPDEST PUSH1 0x40 MLOAD PUSH1 0x1 PUSH1 0x1 PUSH1 0xA0 SHL SUB SWAP1 SWAP2 AND DUP2 MSTORE PUSH1 0x20 ADD PUSH2 0x37B JUMP JUMPDEST CALLVALUE DUP1 ISZERO PUSH2 0x3EA JUMPI PUSH1 0x0 DUP1 REVERT JUMPDEST POP PUSH2 0x3FE PUSH2 0x3F9 CALLDATASIZE PUSH1 0x4 PUSH2 0x50E1 JUMP JUMPDEST PUSH2 0xB95 JUMP JUMPDEST STOP JUMPDEST CALLVALUE DUP1 ISZERO PUSH2 0x40C JUMPI PUSH1 0x0 DUP1 REVERT JUMPDEST POP PUSH2 0x399 PUSH2 0x41B CALLDATASIZE PUSH1 0x4 PUSH2 0x50AC JUMP JUMPDEST PUSH2 0xC95 JUMP JUMPDEST CALLVALUE DUP1 ISZERO PUSH2 0x42C JUMPI PUSH1 0x0 DUP1 REVERT JUMPDEST POP PUSH2 0x3FE PUSH2 0x43B CALLDATASIZE PUSH1 0x4 PUSH2 0x510B JUMP JUMPDEST PUSH2 0xCCA JUMP JUMPDEST CALLVALUE DUP1 ISZERO PUSH2 0x44C JUMPI PUSH1 0x0 DUP1 REVERT JUMPDEST POP PUSH2 0x460 PUSH2 0x45B CALLDATASIZE PUSH1 0x4 PUSH2 0x50AC JUMP JUMPDEST PUSH2 0xDD1 JUMP JUMPDEST PUSH1 0x40 MLOAD PUSH8 0xFFFFFFFFFFFFFFFF SWAP1 SWAP2 AND DUP2 MSTORE PUSH1 0x20 ADD PUSH2 0x37B JUMP JUMPDEST CALLVALUE DUP1 ISZERO PUSH2 0x485 JUMPI PUSH1 0x0 DUP1 REVERT JUMPDEST POP PUSH2 0x3FE PUSH2 0x494 CALLDATASIZE PUSH1 0x4 PUSH2 0x50AC JUMP JUMPDEST PUSH2 0xDFA JUMP JUMPDEST CALLVALUE DUP1 ISZERO PUSH2 0x4A5 JUMPI PUSH1 0x0 DUP1 REVERT JUMPDEST POP PUSH2 0x3FE PUSH2 0x4B4 CALLDATASIZE PUSH1 0x4 PUSH2 0x50AC JUMP JUMPDEST PUSH2 0xEE4 JUMP JUMPDEST CALLVALUE DUP1 ISZERO PUSH2 0x4C5 JUMPI PUSH1 0x0 DUP1 REVERT JUMPDEST POP PUSH2 0x3FE PUSH2 0x4D4 CALLDATASIZE PUSH1 0x4 PUSH2 0x5126 JUMP JUMPDEST PUSH2 0xFDA JUMP JUMPDEST CALLVALUE DUP1 ISZERO PUSH2 0x4E5 JUMPI PUSH1 0x0 DUP1 REVERT JUMPDEST POP PUSH2 0x36F PUSH2 0x4F4 CALLDATASIZE PUSH1 0x4 PUSH2 0x510B JUMP JUMPDEST PUSH1 0x1 PUSH1 0x1 PUSH1 0xA0 SHL SUB AND PUSH1 0x0 SWAP1 DUP2 MSTORE PUSH2 0x199 PUSH1 0x20 MSTORE PUSH1 0x40 SWAP1 KECCAK256 SLOAD PUSH1 0xFF AND SWAP1 JUMP JUMPDEST CALLVALUE DUP1 ISZERO PUSH2 0x51F JUMPI PUSH1 0x0 DUP1 REVERT JUMPDEST POP PUSH2 0x533 PUSH2 0x52E CALLDATASIZE PUSH1 0x4 PUSH2 0x5162 JUMP JUMPDEST PUSH2 0x1120 JUMP JUMPDEST PUSH1 0x40 DUP1 MLOAD PUSH1 0x1 PUSH1 0x1 PUSH1 0xA0 SHL SUB SWAP1 SWAP4 AND DUP4 MSTORE PUSH1 0x20 DUP4 ADD SWAP2 SWAP1 SWAP2 MSTORE ADD PUSH2 0x37B JUMP JUMPDEST CALLVALUE DUP1 ISZERO PUSH2 0x55E JUMPI PUSH1 0x0 DUP1 REVERT JUMPDEST POP PUSH2 0x572 PUSH2 0x56D CALLDATASIZE PUSH1 0x4 PUSH2 0x50AC JUMP JUMPDEST PUSH2 0x1213 JUMP JUMPDEST PUSH1 0x40 MLOAD SWAP1 DUP2 MSTORE PUSH1 0x20 ADD PUSH2 0x37B JUMP JUMPDEST CALLVALUE DUP1 ISZERO PUSH2 0x58C JUMPI PUSH1 0x0 DUP1 REVERT JUMPDEST POP PUSH2 0x3FE PUSH2 0x59B CALLDATASIZE PUSH1 0x4 PUSH2 0x510B JUMP JUMPDEST PUSH2 0x1232 JUMP JUMPDEST CALLVALUE DUP1 ISZERO PUSH2 0x5AC JUMPI PUSH1 0x0 DUP1 REVERT JUMPDEST POP PUSH2 0x3FE PUSH2 0x13D0 JUMP JUMPDEST CALLVALUE DUP1 ISZERO PUSH2 0x5C1 JUMPI PUSH1 0x0 DUP1 REVERT JUMPDEST POP PUSH2 0x3FE PUSH2 0x5D0 CALLDATASIZE PUSH1 0x4 PUSH2 0x5126 JUMP JUMPDEST PUSH2 0x1464 JUMP JUMPDEST CALLVALUE DUP1 ISZERO PUSH2 0x5E1 JUMPI PUSH1 0x0 DUP1 REVERT JUMPDEST POP PUSH2 0x3FE PUSH2 0x5F0 CALLDATASIZE PUSH1 0x4 PUSH2 0x50AC JUMP JUMPDEST PUSH2 0x1561 JUMP JUMPDEST PUSH2 0x3FE PUSH2 0x603 CALLDATASIZE PUSH1 0x4 PUSH2 0x525E JUMP JUMPDEST PUSH2 0x15ED JUMP JUMPDEST CALLVALUE DUP1 ISZERO PUSH2 0x614 JUMPI PUSH1 0x0 DUP1 REVERT JUMPDEST POP PUSH2 0x3FE PUSH2 0x623 CALLDATASIZE PUSH1 0x4 PUSH2 0x50AC JUMP JUMPDEST PUSH2 0x177C JUMP JUMPDEST CALLVALUE DUP1 ISZERO PUSH2 0x634 JUMPI PUSH1 0x0 DUP1 REVERT JUMPDEST POP PUSH2 0x572 PUSH2 0x1836 JUMP JUMPDEST CALLVALUE DUP1 ISZERO PUSH2 0x649 JUMPI PUSH1 0x0 DUP1 REVERT JUMPDEST POP PUSH2 0x36F PUSH2 0x658 CALLDATASIZE PUSH1 0x4 PUSH2 0x510B JUMP JUMPDEST PUSH2 0x191 SLOAD PUSH1 0x1 PUSH1 0x1 PUSH1 0xA0 SHL SUB SWAP2 DUP3 AND SWAP2 AND EQ SWAP1 JUMP JUMPDEST CALLVALUE DUP1 ISZERO PUSH2 0x679 JUMPI PUSH1 0x0 DUP1 REVERT JUMPDEST POP PUSH1 0xC9 SLOAD PUSH1 0xFF AND PUSH2 0x36F JUMP JUMPDEST CALLVALUE DUP1 ISZERO PUSH2 0x691 JUMPI PUSH1 0x0 DUP1 REVERT JUMPDEST POP PUSH2 0x3C6 PUSH2 0x6A0 CALLDATASIZE PUSH1 0x4 PUSH2 0x50AC JUMP JUMPDEST PUSH2 0x18FB JUMP JUMPDEST CALLVALUE DUP1 ISZERO PUSH2 0x6B1 JUMPI PUSH1 0x0 DUP1 REVERT JUMPDEST POP PUSH2 0x3FE PUSH2 0x6C0 CALLDATASIZE PUSH1 0x4 PUSH2 0x50AC JUMP JUMPDEST PUSH2 0x1960 JUMP JUMPDEST CALLVALUE DUP1 ISZERO PUSH2 0x6D1 JUMPI PUSH1 0x0 DUP1 REVERT JUMPDEST POP PUSH2 0x3FE PUSH2 0x6E0 CALLDATASIZE PUSH1 0x4 PUSH2 0x52C8 JUMP JUMPDEST PUSH2 0x1A04 JUMP JUMPDEST CALLVALUE DUP1 ISZERO PUSH2 0x6F1 JUMPI PUSH1 0x0 DUP1 REVERT JUMPDEST POP PUSH2 0x3FE PUSH2 0x700 CALLDATASIZE PUSH1 0x4 PUSH2 0x510B JUMP JUMPDEST PUSH2 0x1A99 JUMP JUMPDEST CALLVALUE DUP1 ISZERO PUSH2 0x711 JUMPI PUSH1 0x0 DUP1 REVERT JUMPDEST POP PUSH2 0x572 PUSH2 0x720 CALLDATASIZE PUSH1 0x4 PUSH2 0x510B JUMP JUMPDEST PUSH2 0x1C18 JUMP JUMPDEST CALLVALUE DUP1 ISZERO PUSH2 0x731 JUMPI PUSH1 0x0 DUP1 REVERT JUMPDEST POP PUSH2 0x3FE PUSH2 0x1CB2 JUMP JUMPDEST CALLVALUE DUP1 ISZERO PUSH2 0x746 JUMPI PUSH1 0x0 DUP1 REVERT JUMPDEST POP PUSH2 0x3FE PUSH2 0x755 CALLDATASIZE PUSH1 0x4 PUSH2 0x531C JUMP JUMPDEST PUSH2 0x1CC4 JUMP JUMPDEST CALLVALUE DUP1 ISZERO PUSH2 0x766 JUMPI PUSH1 0x0 DUP1 REVERT JUMPDEST POP PUSH2 0x3FE PUSH2 0x775 CALLDATASIZE PUSH1 0x4 PUSH2 0x5348 JUMP JUMPDEST PUSH2 0x1D61 JUMP JUMPDEST CALLVALUE DUP1 ISZERO PUSH2 0x786 JUMPI PUSH1 0x0 DUP1 REVERT JUMPDEST POP PUSH2 0x3FE PUSH2 0x1DFF JUMP JUMPDEST CALLVALUE DUP1 ISZERO PUSH2 0x79B JUMPI PUSH1 0x0 DUP1 REVERT JUMPDEST POP PUSH2 0x3FE PUSH2 0x7AA CALLDATASIZE PUSH1 0x4 PUSH2 0x53C2 JUMP JUMPDEST PUSH2 0x1E91 JUMP JUMPDEST CALLVALUE DUP1 ISZERO PUSH2 0x7BB JUMPI PUSH1 0x0 DUP1 REVERT JUMPDEST POP PUSH1 0xFB SLOAD PUSH1 0x1 PUSH1 0x1 PUSH1 0xA0 SHL SUB AND PUSH2 0x3C6 JUMP JUMPDEST CALLVALUE DUP1 ISZERO PUSH2 0x7D9 JUMPI PUSH1 0x0 DUP1 REVERT JUMPDEST POP PUSH2 0x36F PUSH2 0x7E8 CALLDATASIZE PUSH1 0x4 PUSH2 0x5484 JUMP JUMPDEST PUSH2 0x2087 JUMP JUMPDEST CALLVALUE DUP1 ISZERO PUSH2 0x7F9 JUMPI PUSH1 0x0 DUP1 REVERT JUMPDEST POP PUSH2 0x399 PUSH2 0x2151 JUMP JUMPDEST CALLVALUE DUP1 ISZERO PUSH2 0x80E JUMPI PUSH1 0x0 DUP1 REVERT JUMPDEST POP PUSH2 0x3FE PUSH2 0x2160 JUMP JUMPDEST CALLVALUE DUP1 ISZERO PUSH2 0x823 JUMPI PUSH1 0x0 DUP1 REVERT JUMPDEST POP PUSH2 0x36F PUSH2 0x832 CALLDATASIZE PUSH1 0x4 PUSH2 0x54D3 JUMP JUMPDEST PUSH2 0x21F5 JUMP JUMPDEST CALLVALUE DUP1 ISZERO PUSH2 0x843 JUMPI PUSH1 0x0 DUP1 REVERT JUMPDEST POP PUSH2 0x36F PUSH2 0x852 CALLDATASIZE PUSH1 0x4 PUSH2 0x50AC JUMP JUMPDEST PUSH1 0x0 SWAP1 DUP2 MSTORE PUSH2 0x195 PUSH1 0x20 MSTORE PUSH1 0x40 SWAP1 KECCAK256 SLOAD PUSH1 0xFF AND SWAP1 JUMP JUMPDEST CALLVALUE DUP1 ISZERO PUSH2 0x874 JUMPI PUSH1 0x0 DUP1 REVERT JUMPDEST POP PUSH2 0x3FE PUSH2 0x883 CALLDATASIZE PUSH1 0x4 PUSH2 0x5543 JUMP JUMPDEST PUSH2 0x23B6 JUMP JUMPDEST CALLVALUE DUP1 ISZERO PUSH2 0x894 JUMPI PUSH1 0x0 DUP1 REVERT JUMPDEST POP PUSH2 0x3FE PUSH2 0x8A3 CALLDATASIZE PUSH1 0x4 PUSH2 0x557A JUMP JUMPDEST PUSH2 0x24AC JUMP JUMPDEST CALLVALUE DUP1 ISZERO PUSH2 0x8B4 JUMPI PUSH1 0x0 DUP1 REVERT JUMPDEST POP PUSH2 0x572 PUSH2 0x193 SLOAD DUP2 JUMP JUMPDEST CALLVALUE DUP1 ISZERO PUSH2 0x8CB JUMPI PUSH1 0x0 DUP1 REVERT JUMPDEST POP PUSH2 0x399 PUSH2 0x8DA CALLDATASIZE PUSH1 0x4 PUSH2 0x50AC JUMP JUMPDEST PUSH2 0x25B7 JUMP JUMPDEST CALLVALUE DUP1 ISZERO PUSH2 0x8EB JUMPI PUSH1 0x0 DUP1 REVERT JUMPDEST POP PUSH2 0x36F PUSH2 0x8FA CALLDATASIZE PUSH1 0x4 PUSH2 0x50AC JUMP JUMPDEST POP PUSH1 0x1 SWAP1 JUMP JUMPDEST CALLVALUE DUP1 ISZERO PUSH2 0x90C JUMPI PUSH1 0x0 DUP1 REVERT JUMPDEST POP PUSH2 0x191 SLOAD PUSH1 0x1 PUSH1 0x1 PUSH1 0xA0 SHL SUB AND PUSH2 0x3C6 JUMP JUMPDEST CALLVALUE DUP1 ISZERO PUSH2 0x92B JUMPI PUSH1 0x0 DUP1 REVERT JUMPDEST POP PUSH2 0x3FE PUSH2 0x93A CALLDATASIZE PUSH1 0x4 PUSH2 0x510B JUMP JUMPDEST PUSH2 0x2604 JUMP JUMPDEST CALLVALUE DUP1 ISZERO PUSH2 0x94B JUMPI PUSH1 0x0 DUP1 REVERT JUMPDEST POP PUSH2 0x3FE PUSH2 0x95A CALLDATASIZE PUSH1 0x4 PUSH2 0x531C JUMP JUMPDEST PUSH2 0x26C5 JUMP JUMPDEST CALLVALUE DUP1 ISZERO PUSH2 0x96B JUMPI PUSH1 0x0 DUP1 REVERT JUMPDEST POP PUSH2 0x3FE PUSH2 0x97A CALLDATASIZE PUSH1 0x4 PUSH2 0x55E2 JUMP JUMPDEST PUSH2 0x27D6 JUMP JUMPDEST CALLVALUE DUP1 ISZERO PUSH2 0x98B JUMPI PUSH1 0x0 DUP1 REVERT JUMPDEST POP PUSH2 0x3FE PUSH2 0x99A CALLDATASIZE PUSH1 0x4 PUSH2 0x50AC JUMP JUMPDEST PUSH2 0x286A JUMP JUMPDEST CALLVALUE DUP1 ISZERO PUSH2 0x9AB JUMPI PUSH1 0x0 DUP1 REVERT JUMPDEST POP PUSH2 0x3FE PUSH2 0x9BA CALLDATASIZE PUSH1 0x4 PUSH2 0x50AC JUMP JUMPDEST PUSH2 0x29CD JUMP JUMPDEST CALLVALUE DUP1 ISZERO PUSH2 0x9CB JUMPI PUSH1 0x0 DUP1 REVERT JUMPDEST POP PUSH2 0x399 PUSH2 0x2A69 JUMP JUMPDEST CALLVALUE DUP1 ISZERO PUSH2 0x9E0 JUMPI PUSH1 0x0 DUP1 REVERT JUMPDEST POP PUSH2 0x36F PUSH2 0x9EF CALLDATASIZE PUSH1 0x4 PUSH2 0x560C JUMP JUMPDEST PUSH2 0x2AF8 JUMP JUMPDEST CALLVALUE DUP1 ISZERO PUSH2 0xA00 JUMPI PUSH1 0x0 DUP1 REVERT JUMPDEST POP PUSH2 0x3FE PUSH2 0xA0F CALLDATASIZE PUSH1 0x4 PUSH2 0x510B JUMP JUMPDEST PUSH2 0x2B77 JUMP JUMPDEST CALLVALUE DUP1 ISZERO PUSH2 0xA20 JUMPI PUSH1 0x0 DUP1 REVERT JUMPDEST POP PUSH2 0x36F PUSH2 0xA2F CALLDATASIZE PUSH1 0x4 PUSH2 0x5636 JUMP JUMPDEST PUSH2 0x2C04 JUMP JUMPDEST PUSH1 0x0 PUSH32 0xFFFFFFFF00000000000000000000000000000000000000000000000000000000 DUP3 AND PUSH32 0x8C65F84D00000000000000000000000000000000000000000000000000000000 EQ DUP1 PUSH2 0xAC7 JUMPI POP PUSH32 0xFFFFFFFF00000000000000000000000000000000000000000000000000000000 DUP3 AND PUSH32 0x2A55205A00000000000000000000000000000000000000000000000000000000 EQ JUMPDEST DUP1 PUSH2 0xAD6 JUMPI POP PUSH2 0xAD6 DUP3 PUSH2 0x2D98 JUMP JUMPDEST SWAP3 SWAP2 POP POP JUMP JUMPDEST PUSH1 0x60 PUSH1 0x65 DUP1 SLOAD PUSH2 0xAEB SWAP1 PUSH2 0x5694 JUMP JUMPDEST DUP1 PUSH1 0x1F ADD PUSH1 0x20 DUP1 SWAP2 DIV MUL PUSH1 0x20 ADD PUSH1 0x40 MLOAD SWAP1 DUP2 ADD PUSH1 0x40 MSTORE DUP1 SWAP3 SWAP2 SWAP1 DUP2 DUP2 MSTORE PUSH1 0x20 ADD DUP3 DUP1 SLOAD PUSH2 0xB17 SWAP1 PUSH2 0x5694 JUMP JUMPDEST DUP1 ISZERO PUSH2 0xB64 JUMPI DUP1 PUSH1 0x1F LT PUSH2 0xB39 JUMPI PUSH2 0x100 DUP1 DUP4 SLOAD DIV MUL DUP4 MSTORE SWAP2 PUSH1 0x20 ADD SWAP2 PUSH2 0xB64 JUMP JUMPDEST DUP3 ADD SWAP2 SWAP1 PUSH1 0x0 MSTORE PUSH1 0x20 PUSH1 0x0 KECCAK256 SWAP1 JUMPDEST DUP2 SLOAD DUP2 MSTORE SWAP1 PUSH1 0x1 ADD SWAP1 PUSH1 0x20 ADD DUP1 DUP4 GT PUSH2 0xB47 JUMPI DUP3 SWAP1 SUB PUSH1 0x1F AND DUP3 ADD SWAP2 JUMPDEST POP POP POP POP POP SWAP1 POP SWAP1 JUMP JUMPDEST PUSH1 0x0 PUSH2 0xB79 DUP3 PUSH2 0x2E7B JUMP JUMPDEST POP PUSH1 0x0 SWAP1 DUP2 MSTORE PUSH1 0x69 PUSH1 0x20 MSTORE PUSH1 0x40 SWAP1 KECCAK256 SLOAD PUSH1 0x1 PUSH1 0x1 PUSH1 0xA0 SHL SUB AND SWAP1 JUMP JUMPDEST DUP2 PUSH14 0xAAEB6D7670E522A718067333CD4E EXTCODESIZE ISZERO PUSH2 0xC86 JUMPI PUSH1 0x40 MLOAD PUSH32 0xC617113400000000000000000000000000000000000000000000000000000000 DUP2 MSTORE ADDRESS PUSH1 0x4 DUP3 ADD MSTORE PUSH1 0x1 PUSH1 0x1 PUSH1 0xA0 SHL SUB DUP3 AND PUSH1 0x24 DUP3 ADD MSTORE PUSH14 0xAAEB6D7670E522A718067333CD4E SWAP1 PUSH4 0xC6171134 SWAP1 PUSH1 0x44 ADD PUSH1 0x20 PUSH1 0x40 MLOAD DUP1 DUP4 SUB DUP2 DUP7 GAS STATICCALL ISZERO DUP1 ISZERO PUSH2 0xC1C JUMPI RETURNDATASIZE PUSH1 0x0 DUP1 RETURNDATACOPY RETURNDATASIZE PUSH1 0x0 REVERT JUMPDEST POP POP POP POP PUSH1 0x40 MLOAD RETURNDATASIZE PUSH1 0x1F NOT PUSH1 0x1F DUP3 ADD AND DUP3 ADD DUP1 PUSH1 0x40 MSTORE POP DUP2 ADD SWAP1 PUSH2 0xC40 SWAP2 SWAP1 PUSH2 0x56E8 JUMP JUMPDEST PUSH2 0xC86 JUMPI PUSH1 0x40 MLOAD PUSH32 0xEDE71DCC00000000000000000000000000000000000000000000000000000000 DUP2 MSTORE PUSH1 0x1 PUSH1 0x1 PUSH1 0xA0 SHL SUB DUP3 AND PUSH1 0x4 DUP3 ADD MSTORE PUSH1 0x24 ADD JUMPDEST PUSH1 0x40 MLOAD DUP1 SWAP2 SUB SWAP1 REVERT JUMPDEST PUSH2 0xC90 DUP4 DUP4 PUSH2 0x2EDF JUMP JUMPDEST POP POP POP JUMP JUMPDEST PUSH1 0x60 PUSH2 0x192 PUSH2 0xCA3 DUP4 PUSH2 0x301E JUMP JUMPDEST PUSH1 0x40 MLOAD PUSH1 0x20 ADD PUSH2 0xCB4 SWAP3 SWAP2 SWAP1 PUSH2 0x57D6 JUMP JUMPDEST PUSH1 0x40 MLOAD PUSH1 0x20 DUP2 DUP4 SUB SUB DUP2 MSTORE SWAP1 PUSH1 0x40 MSTORE SWAP1 POP SWAP2 SWAP1 POP JUMP JUMPDEST PUSH2 0xCD2 PUSH2 0x3150 JUMP JUMPDEST PUSH1 0x1 PUSH1 0x1 PUSH1 0xA0 SHL SUB AND PUSH2 0xCED PUSH1 0xFB SLOAD PUSH1 0x1 PUSH1 0x1 PUSH1 0xA0 SHL SUB AND SWAP1 JUMP JUMPDEST PUSH1 0x1 PUSH1 0x1 PUSH1 0xA0 SHL SUB AND EQ DUP1 PUSH2 0xD08 JUMPI POP PUSH2 0xD08 PUSH2 0x4F4 PUSH2 0x3150 JUMP JUMPDEST PUSH2 0xD54 JUMPI PUSH1 0x40 MLOAD PUSH3 0x461BCD PUSH1 0xE5 SHL DUP2 MSTORE PUSH1 0x20 PUSH1 0x4 DUP3 ADD MSTORE PUSH1 0x1C PUSH1 0x24 DUP3 ADD MSTORE PUSH32 0x63616C6C6572206973206E6F74206F776E6572206F722061646D696E00000000 PUSH1 0x44 DUP3 ADD MSTORE PUSH1 0x64 ADD PUSH2 0xC7D JUMP JUMPDEST PUSH1 0x1 PUSH1 0x1 PUSH1 0xA0 SHL SUB DUP2 AND PUSH1 0x0 DUP2 DUP2 MSTORE PUSH2 0x199 PUSH1 0x20 SWAP1 DUP2 MSTORE PUSH1 0x40 DUP1 DUP4 KECCAK256 DUP1 SLOAD PUSH32 0xFFFFFFFFFFFFFFFFFFFFFFFFFFFFFFFFFFFFFFFFFFFFFFFFFFFFFFFFFFFFFF00 AND SWAP1 SSTORE DUP1 MLOAD SWAP4 DUP5 MSTORE SWAP1 DUP4 ADD SWAP2 SWAP1 SWAP2 MSTORE PUSH32 0x235BC17E7930760029E9F4D860A2A8089976DE5B381CF8380FC11C1D88A11133 SWAP2 ADD JUMPDEST PUSH1 0x40 MLOAD DUP1 SWAP2 SUB SWAP1 LOG1 POP JUMP JUMPDEST PUSH1 0x0 PUSH2 0xDDC DUP3 PUSH2 0x2E7B JUMP JUMPDEST POP PUSH1 0x0 SWAP1 DUP2 MSTORE PUSH2 0x198 PUSH1 0x20 MSTORE PUSH1 0x40 SWAP1 KECCAK256 SLOAD PUSH8 0xFFFFFFFFFFFFFFFF AND SWAP1 JUMP JUMPDEST PUSH2 0xE02 PUSH2 0x3150 JUMP JUMPDEST PUSH1 0x1 PUSH1 0x1 PUSH1 0xA0 SHL SUB AND PUSH2 0xE1D PUSH1 0xFB SLOAD PUSH1 0x1 PUSH1 0x1 PUSH1 0xA0 SHL SUB AND SWAP1 JUMP JUMPDEST PUSH1 0x1 PUSH1 0x1 PUSH1 0xA0 SHL SUB AND EQ DUP1 PUSH2 0xE38 JUMPI POP PUSH2 0xE38 PUSH2 0x4F4 PUSH2 0x3150 JUMP JUMPDEST PUSH2 0xE84 JUMPI PUSH1 0x40 MLOAD PUSH3 0x461BCD PUSH1 0xE5 SHL DUP2 MSTORE PUSH1 0x20 PUSH1 0x4 DUP3 ADD MSTORE PUSH1 0x1C PUSH1 0x24 DUP3 ADD MSTORE PUSH32 0x63616C6C6572206973206E6F74206F776E6572206F722061646D696E00000000 PUSH1 0x44 DUP3 ADD MSTORE PUSH1 0x64 ADD PUSH2 0xC7D JUMP JUMPDEST PUSH2 0xE8C PUSH2 0x315F JUMP JUMPDEST DUP1 PUSH2 0x193 SLOAD LT PUSH2 0xEDE JUMPI PUSH1 0x40 MLOAD PUSH3 0x461BCD PUSH1 0xE5 SHL DUP2 MSTORE PUSH1 0x20 PUSH1 0x4 DUP3 ADD MSTORE PUSH1 0x17 PUSH1 0x24 DUP3 ADD MSTORE PUSH32 0x4E65772049642068617320746F20626520686967686572000000000000000000 PUSH1 0x44 DUP3 ADD MSTORE PUSH1 0x64 ADD PUSH2 0xC7D JUMP JUMPDEST PUSH2 0x193 SSTORE JUMP JUMPDEST PUSH2 0xEEC PUSH2 0x3150 JUMP JUMPDEST PUSH1 0x1 PUSH1 0x1 PUSH1 0xA0 SHL SUB AND PUSH2 0xF07 PUSH1 0xFB SLOAD PUSH1 0x1 PUSH1 0x1 PUSH1 0xA0 SHL SUB AND SWAP1 JUMP JUMPDEST PUSH1 0x1 PUSH1 0x1 PUSH1 0xA0 SHL SUB AND EQ DUP1 PUSH2 0xF22 JUMPI POP PUSH2 0xF22 PUSH2 0x4F4 PUSH2 0x3150 JUMP JUMPDEST PUSH2 0xF6E JUMPI PUSH1 0x40 MLOAD PUSH3 0x461BCD PUSH1 0xE5 SHL DUP2 MSTORE PUSH1 0x20 PUSH1 0x4 DUP3 ADD MSTORE PUSH1 0x1C PUSH1 0x24 DUP3 ADD MSTORE PUSH32 0x63616C6C6572206973206E6F74206F776E6572206F722061646D696E00000000 PUSH1 0x44 DUP3 ADD MSTORE PUSH1 0x64 ADD PUSH2 0xC7D JUMP JUMPDEST PUSH1 0x0 DUP2 DUP2 MSTORE PUSH2 0x198 PUSH1 0x20 SWAP1 DUP2 MSTORE PUSH1 0x40 DUP1 DUP4 KECCAK256 DUP1 SLOAD PUSH32 0xFFFFFFFFFFFFFFFFFFFFFFFFFFFFFFFFFFFFFFFFFFFFFFFF0000000000000000 AND SWAP1 SSTORE MLOAD SWAP2 DUP3 MSTORE DUP3 SWAP2 PUSH32 0x2EC2BE2C4B90C2CF13ECB6751A24DAED6BB741AE5ED3F7371AABF9402F6D62E8 SWAP2 ADD PUSH1 0x40 MLOAD DUP1 SWAP2 SUB SWAP1 LOG2 POP JUMP JUMPDEST DUP3 PUSH14 0xAAEB6D7670E522A718067333CD4E EXTCODESIZE ISZERO PUSH2 0x110F JUMPI PUSH2 0xFF8 PUSH2 0x3150 JUMP JUMPDEST PUSH1 0x1 PUSH1 0x1 PUSH1 0xA0 SHL SUB AND DUP2 PUSH1 0x1 PUSH1 0x1 PUSH1 0xA0 SHL SUB AND EQ ISZERO PUSH2 0x1021 JUMPI PUSH2 0x101C DUP5 DUP5 DUP5 PUSH2 0x31B2 JUMP JUMPDEST PUSH2 0x111A JUMP JUMPDEST PUSH14 0xAAEB6D7670E522A718067333CD4E PUSH4 0xC6171134 ADDRESS PUSH2 0x103E PUSH2 0x3150 JUMP JUMPDEST PUSH1 0x40 MLOAD PUSH32 0xFFFFFFFF00000000000000000000000000000000000000000000000000000000 PUSH1 0xE0 DUP6 SWAP1 SHL AND DUP2 MSTORE PUSH1 0x1 PUSH1 0x1 PUSH1 0xA0 SHL SUB SWAP3 DUP4 AND PUSH1 0x4 DUP3 ADD MSTORE SWAP2 AND PUSH1 0x24 DUP3 ADD MSTORE PUSH1 0x44 ADD PUSH1 0x20 PUSH1 0x40 MLOAD DUP1 DUP4 SUB DUP2 DUP7 GAS STATICCALL ISZERO DUP1 ISZERO PUSH2 0x10A1 JUMPI RETURNDATASIZE PUSH1 0x0 DUP1 RETURNDATACOPY RETURNDATASIZE PUSH1 0x0 REVERT JUMPDEST POP POP POP POP PUSH1 0x40 MLOAD RETURNDATASIZE PUSH1 0x1F NOT PUSH1 0x1F DUP3 ADD AND DUP3 ADD DUP1 PUSH1 0x40 MSTORE POP DUP2 ADD SWAP1 PUSH2 0x10C5 SWAP2 SWAP1 PUSH2 0x56E8 JUMP JUMPDEST PUSH2 0x110F JUMPI PUSH2 0x10D1 PUSH2 0x3150 JUMP JUMPDEST PUSH1 0x40 MLOAD PUSH32 0xEDE71DCC00000000000000000000000000000000000000000000000000000000 DUP2 MSTORE PUSH1 0x1 PUSH1 0x1 PUSH1 0xA0 SHL SUB SWAP1 SWAP2 AND PUSH1 0x4 DUP3 ADD MSTORE PUSH1 0x24 ADD PUSH2 0xC7D JUMP JUMPDEST PUSH2 0x111A DUP5 DUP5 DUP5 PUSH2 0x31B2 JUMP JUMPDEST POP POP POP POP JUMP JUMPDEST PUSH1 0x0 DUP1 PUSH1 0x0 PUSH2 0x112E DUP6 PUSH2 0x1213 JUMP JUMPDEST PUSH1 0x0 DUP2 DUP2 MSTORE PUSH2 0x197 PUSH1 0x20 SWAP1 DUP2 MSTORE PUSH1 0x40 SWAP2 DUP3 SWAP1 KECCAK256 DUP3 MLOAD DUP1 DUP5 ADD SWAP1 SWAP4 MSTORE SLOAD PUSH1 0x1 PUSH1 0x1 PUSH1 0xA0 SHL SUB DUP2 AND DUP1 DUP5 MSTORE PUSH21 0x10000000000000000000000000000000000000000 SWAP1 SWAP2 DIV PUSH12 0xFFFFFFFFFFFFFFFFFFFFFFFF AND SWAP2 DUP4 ADD SWAP2 SWAP1 SWAP2 MSTORE SWAP2 SWAP3 POP SWAP1 PUSH2 0x11D4 JUMPI POP PUSH1 0x40 DUP1 MLOAD DUP1 DUP3 ADD SWAP1 SWAP2 MSTORE PUSH2 0x196 SLOAD PUSH1 0x1 PUSH1 0x1 PUSH1 0xA0 SHL SUB DUP2 AND DUP3 MSTORE PUSH21 0x10000000000000000000000000000000000000000 SWAP1 DIV PUSH12 0xFFFFFFFFFFFFFFFFFFFFFFFF AND PUSH1 0x20 DUP3 ADD MSTORE JUMPDEST PUSH1 0x20 DUP2 ADD MLOAD PUSH1 0x0 SWAP1 PUSH2 0x2710 SWAP1 PUSH2 0x11F8 SWAP1 PUSH12 0xFFFFFFFFFFFFFFFFFFFFFFFF AND DUP9 PUSH2 0x582A JUMP JUMPDEST PUSH2 0x1202 SWAP2 SWAP1 PUSH2 0x5896 JUMP JUMPDEST SWAP2 MLOAD SWAP5 POP SWAP1 SWAP3 POP POP POP JUMPDEST SWAP3 POP SWAP3 SWAP1 POP JUMP JUMPDEST PUSH1 0x0 PUSH2 0x121E DUP3 PUSH2 0x2E7B JUMP JUMPDEST POP PUSH1 0x0 SWAP1 DUP2 MSTORE PUSH2 0x194 PUSH1 0x20 MSTORE PUSH1 0x40 SWAP1 KECCAK256 SLOAD SWAP1 JUMP JUMPDEST ADDRESS PUSH1 0x1 PUSH1 0x1 PUSH1 0xA0 SHL SUB PUSH32 0x0 AND EQ ISZERO PUSH2 0x12D1 JUMPI PUSH1 0x40 MLOAD PUSH3 0x461BCD PUSH1 0xE5 SHL DUP2 MSTORE PUSH1 0x20 PUSH1 0x4 DUP3 ADD MSTORE PUSH1 0x2C PUSH1 0x24 DUP3 ADD MSTORE PUSH32 0x46756E6374696F6E206D7573742062652063616C6C6564207468726F75676820 PUSH1 0x44 DUP3 ADD MSTORE PUSH32 0x64656C656761746563616C6C0000000000000000000000000000000000000000 PUSH1 0x64 DUP3 ADD MSTORE PUSH1 0x84 ADD PUSH2 0xC7D JUMP JUMPDEST PUSH32 0x0 PUSH1 0x1 PUSH1 0x1 PUSH1 0xA0 SHL SUB AND PUSH2 0x132C PUSH32 0x360894A13BA1A3210667C828492DB98DCA3E2076CC3735A920A3CA505D382BBC SLOAD PUSH1 0x1 PUSH1 0x1 PUSH1 0xA0 SHL SUB AND SWAP1 JUMP JUMPDEST PUSH1 0x1 PUSH1 0x1 PUSH1 0xA0 SHL SUB AND EQ PUSH2 0x13A8 JUMPI PUSH1 0x40 MLOAD PUSH3 0x461BCD PUSH1 0xE5 SHL DUP2 MSTORE PUSH1 0x20 PUSH1 0x4 DUP3 ADD MSTORE PUSH1 0x2C PUSH1 0x24 DUP3 ADD MSTORE PUSH32 0x46756E6374696F6E206D7573742062652063616C6C6564207468726F75676820 PUSH1 0x44 DUP3 ADD MSTORE PUSH32 0x6163746976652070726F78790000000000000000000000000000000000000000 PUSH1 0x64 DUP3 ADD MSTORE PUSH1 0x84 ADD PUSH2 0xC7D JUMP JUMPDEST PUSH2 0x13B1 DUP2 PUSH2 0x323A JUMP JUMPDEST PUSH1 0x40 DUP1 MLOAD PUSH1 0x0 DUP1 DUP3 MSTORE PUSH1 0x20 DUP3 ADD SWAP1 SWAP3 MSTORE PUSH2 0x13CD SWAP2 DUP4 SWAP2 SWAP1 PUSH2 0x32C4 JUMP JUMPDEST POP JUMP JUMPDEST PUSH2 0x13D8 PUSH2 0x3150 JUMP JUMPDEST PUSH1 0x1 PUSH1 0x1 PUSH1 0xA0 SHL SUB AND PUSH2 0x13F3 PUSH1 0xFB SLOAD PUSH1 0x1 PUSH1 0x1 PUSH1 0xA0 SHL SUB AND SWAP1 JUMP JUMPDEST PUSH1 0x1 PUSH1 0x1 PUSH1 0xA0 SHL SUB AND EQ DUP1 PUSH2 0x140E JUMPI POP PUSH2 0x140E PUSH2 0x4F4 PUSH2 0x3150 JUMP JUMPDEST PUSH2 0x145A JUMPI PUSH1 0x40 MLOAD PUSH3 0x461BCD PUSH1 0xE5 SHL DUP2 MSTORE PUSH1 0x20 PUSH1 0x4 DUP3 ADD MSTORE PUSH1 0x1C PUSH1 0x24 DUP3 ADD MSTORE PUSH32 0x63616C6C6572206973206E6F74206F776E6572206F722061646D696E00000000 PUSH1 0x44 DUP3 ADD MSTORE PUSH1 0x64 ADD PUSH2 0xC7D JUMP JUMPDEST PUSH2 0x1462 PUSH2 0x3482 JUMP JUMPDEST JUMP JUMPDEST DUP3 PUSH14 0xAAEB6D7670E522A718067333CD4E EXTCODESIZE ISZERO PUSH2 0x1556 JUMPI PUSH2 0x1482 PUSH2 0x3150 JUMP JUMPDEST PUSH1 0x1 PUSH1 0x1 PUSH1 0xA0 SHL SUB AND DUP2 PUSH1 0x1 PUSH1 0x1 PUSH1 0xA0 SHL SUB AND EQ ISZERO PUSH2 0x14A6 JUMPI PUSH2 0x101C DUP5 DUP5 DUP5 PUSH2 0x34F8 JUMP JUMPDEST PUSH14 0xAAEB6D7670E522A718067333CD4E PUSH4 0xC6171134 ADDRESS PUSH2 0x14C3 PUSH2 0x3150 JUMP JUMPDEST PUSH1 0x40 MLOAD PUSH32 0xFFFFFFFF00000000000000000000000000000000000000000000000000000000 PUSH1 0xE0 DUP6 SWAP1 SHL AND DUP2 MSTORE PUSH1 0x1 PUSH1 0x1 PUSH1 0xA0 SHL SUB SWAP3 DUP4 AND PUSH1 0x4 DUP3 ADD MSTORE SWAP2 AND PUSH1 0x24 DUP3 ADD MSTORE PUSH1 0x44 ADD PUSH1 0x20 PUSH1 0x40 MLOAD DUP1 DUP4 SUB DUP2 DUP7 GAS STATICCALL ISZERO DUP1 ISZERO PUSH2 0x1526 JUMPI RETURNDATASIZE PUSH1 0x0 DUP1 RETURNDATACOPY RETURNDATASIZE PUSH1 0x0 REVERT JUMPDEST POP POP POP POP PUSH1 0x40 MLOAD RETURNDATASIZE PUSH1 0x1F NOT PUSH1 0x1F DUP3 ADD AND DUP3 ADD DUP1 PUSH1 0x40 MSTORE POP DUP2 ADD SWAP1 PUSH2 0x154A SWAP2 SWAP1 PUSH2 0x56E8 JUMP JUMPDEST PUSH2 0x1556 JUMPI PUSH2 0x10D1 PUSH2 0x3150 JUMP JUMPDEST PUSH2 0x111A DUP5 DUP5 DUP5 PUSH2 0x34F8 JUMP JUMPDEST PUSH2 0x1572 PUSH2 0x156C PUSH2 0x3150 JUMP JUMPDEST DUP3 PUSH2 0x3513 JUMP JUMPDEST PUSH2 0x15E4 JUMPI PUSH1 0x40 MLOAD PUSH3 0x461BCD PUSH1 0xE5 SHL DUP2 MSTORE PUSH1 0x20 PUSH1 0x4 DUP3 ADD MSTORE PUSH1 0x2E PUSH1 0x24 DUP3 ADD MSTORE PUSH32 0x4552433732313A2063616C6C6572206973206E6F7420746F6B656E206F776E65 PUSH1 0x44 DUP3 ADD MSTORE PUSH32 0x72206E6F7220617070726F766564000000000000000000000000000000000000 PUSH1 0x64 DUP3 ADD MSTORE PUSH1 0x84 ADD PUSH2 0xC7D JUMP JUMPDEST PUSH2 0x13CD DUP2 PUSH2 0x3571 JUMP JUMPDEST ADDRESS PUSH1 0x1 PUSH1 0x1 PUSH1 0xA0 SHL SUB PUSH32 0x0 AND EQ ISZERO PUSH2 0x168C JUMPI PUSH1 0x40 MLOAD PUSH3 0x461BCD PUSH1 0xE5 SHL DUP2 MSTORE PUSH1 0x20 PUSH1 0x4 DUP3 ADD MSTORE PUSH1 0x2C PUSH1 0x24 DUP3 ADD MSTORE PUSH32 0x46756E6374696F6E206D7573742062652063616C6C6564207468726F75676820 PUSH1 0x44 DUP3 ADD MSTORE PUSH32 0x64656C656761746563616C6C0000000000000000000000000000000000000000 PUSH1 0x64 DUP3 ADD MSTORE PUSH1 0x84 ADD PUSH2 0xC7D JUMP JUMPDEST PUSH32 0x0 PUSH1 0x1 PUSH1 0x1 PUSH1 0xA0 SHL SUB AND PUSH2 0x16E7 PUSH32 0x360894A13BA1A3210667C828492DB98DCA3E2076CC3735A920A3CA505D382BBC SLOAD PUSH1 0x1 PUSH1 0x1 PUSH1 0xA0 SHL SUB AND SWAP1 JUMP JUMPDEST PUSH1 0x1 PUSH1 0x1 PUSH1 0xA0 SHL SUB AND EQ PUSH2 0x1763 JUMPI PUSH1 0x40 MLOAD PUSH3 0x461BCD PUSH1 0xE5 SHL DUP2 MSTORE PUSH1 0x20 PUSH1 0x4 DUP3 ADD MSTORE PUSH1 0x2C PUSH1 0x24 DUP3 ADD MSTORE PUSH32 0x46756E6374696F6E206D7573742062652063616C6C6564207468726F75676820 PUSH1 0x44 DUP3 ADD MSTORE PUSH32 0x6163746976652070726F78790000000000000000000000000000000000000000 PUSH1 0x64 DUP3 ADD MSTORE PUSH1 0x84 ADD PUSH2 0xC7D JUMP JUMPDEST PUSH2 0x176C DUP3 PUSH2 0x323A JUMP JUMPDEST PUSH2 0x1778 DUP3 DUP3 PUSH1 0x1 PUSH2 0x32C4 JUMP JUMPDEST POP POP JUMP JUMPDEST PUSH2 0x1784 PUSH2 0x3150 JUMP JUMPDEST PUSH1 0x1 PUSH1 0x1 PUSH1 0xA0 SHL SUB AND PUSH2 0x179F PUSH1 0xFB SLOAD PUSH1 0x1 PUSH1 0x1 PUSH1 0xA0 SHL SUB AND SWAP1 JUMP JUMPDEST PUSH1 0x1 PUSH1 0x1 PUSH1 0xA0 SHL SUB AND EQ DUP1 PUSH2 0x17BA JUMPI POP PUSH2 0x17BA PUSH2 0x4F4 PUSH2 0x3150 JUMP JUMPDEST PUSH2 0x1806 JUMPI PUSH1 0x40 MLOAD PUSH3 0x461BCD PUSH1 0xE5 SHL DUP2 MSTORE PUSH1 0x20 PUSH1 0x4 DUP3 ADD MSTORE PUSH1 0x1C PUSH1 0x24 DUP3 ADD MSTORE PUSH32 0x63616C6C6572206973206E6F74206F776E6572206F722061646D696E00000000 PUSH1 0x44 DUP3 ADD MSTORE PUSH1 0x64 ADD PUSH2 0xC7D JUMP JUMPDEST PUSH2 0x180F DUP2 PUSH2 0x35ED JUMP JUMPDEST PUSH2 0x1818 DUP2 PUSH2 0x3655 JUMP JUMPDEST PUSH2 0x13CD PUSH2 0x1824 DUP3 PUSH2 0x18FB JUMP JUMPDEST PUSH1 0xFB SLOAD PUSH1 0x1 PUSH1 0x1 PUSH1 0xA0 SHL SUB AND DUP4 PUSH2 0x36BC JUMP JUMPDEST PUSH1 0x0 ADDRESS PUSH1 0x1 PUSH1 0x1 PUSH1 0xA0 SHL SUB PUSH32 0x0 AND EQ PUSH2 0x18D6 JUMPI PUSH1 0x40 MLOAD PUSH3 0x461BCD PUSH1 0xE5 SHL DUP2 MSTORE PUSH1 0x20 PUSH1 0x4 DUP3 ADD MSTORE PUSH1 0x38 PUSH1 0x24 DUP3 ADD MSTORE PUSH32 0x555550535570677261646561626C653A206D757374206E6F742062652063616C PUSH1 0x44 DUP3 ADD MSTORE PUSH32 0x6C6564207468726F7567682064656C656761746563616C6C0000000000000000 PUSH1 0x64 DUP3 ADD MSTORE PUSH1 0x84 ADD PUSH2 0xC7D JUMP JUMPDEST POP PUSH32 0x360894A13BA1A3210667C828492DB98DCA3E2076CC3735A920A3CA505D382BBC SWAP1 JUMP JUMPDEST PUSH1 0x0 DUP2 DUP2 MSTORE PUSH1 0x67 PUSH1 0x20 MSTORE PUSH1 0x40 DUP2 KECCAK256 SLOAD PUSH1 0x1 PUSH1 0x1 PUSH1 0xA0 SHL SUB AND DUP1 PUSH2 0xAD6 JUMPI PUSH1 0x40 MLOAD PUSH3 0x461BCD PUSH1 0xE5 SHL DUP2 MSTORE PUSH1 0x20 PUSH1 0x4 DUP3 ADD MSTORE PUSH1 0x18 PUSH1 0x24 DUP3 ADD MSTORE PUSH32 0x4552433732313A20696E76616C696420746F6B656E2049440000000000000000 PUSH1 0x44 DUP3 ADD MSTORE PUSH1 0x64 ADD PUSH2 0xC7D JUMP JUMPDEST PUSH2 0x1968 PUSH2 0x3150 JUMP JUMPDEST PUSH1 0x1 PUSH1 0x1 PUSH1 0xA0 SHL SUB AND PUSH2 0x1983 PUSH1 0xFB SLOAD PUSH1 0x1 PUSH1 0x1 PUSH1 0xA0 SHL SUB AND SWAP1 JUMP JUMPDEST PUSH1 0x1 PUSH1 0x1 PUSH1 0xA0 SHL SUB AND EQ DUP1 PUSH2 0x199E JUMPI POP PUSH2 0x199E PUSH2 0x4F4 PUSH2 0x3150 JUMP JUMPDEST PUSH2 0x19EA JUMPI PUSH1 0x40 MLOAD PUSH3 0x461BCD PUSH1 0xE5 SHL DUP2 MSTORE PUSH1 0x20 PUSH1 0x4 DUP3 ADD MSTORE PUSH1 0x1C PUSH1 0x24 DUP3 ADD MSTORE PUSH32 0x63616C6C6572206973206E6F74206F776E6572206F722061646D696E00000000 PUSH1 0x44 DUP3 ADD MSTORE PUSH1 0x64 ADD PUSH2 0xC7D JUMP JUMPDEST PUSH2 0x19F2 PUSH2 0x315F JUMP JUMPDEST PUSH2 0x19FB DUP2 PUSH2 0x35ED JUMP JUMPDEST PUSH2 0x13CD DUP2 PUSH2 0x3655 JUMP JUMPDEST PUSH2 0x1A0C PUSH2 0x3150 JUMP JUMPDEST PUSH1 0x1 PUSH1 0x1 PUSH1 0xA0 SHL SUB AND PUSH2 0x1A27 PUSH1 0xFB SLOAD PUSH1 0x1 PUSH1 0x1 PUSH1 0xA0 SHL SUB AND SWAP1 JUMP JUMPDEST PUSH1 0x1 PUSH1 0x1 PUSH1 0xA0 SHL SUB AND EQ DUP1 PUSH2 0x1A42 JUMPI POP PUSH2 0x1A42 PUSH2 0x4F4 PUSH2 0x3150 JUMP JUMPDEST PUSH2 0x1A8E JUMPI PUSH1 0x40 MLOAD PUSH3 0x461BCD PUSH1 0xE5 SHL DUP2 MSTORE PUSH1 0x20 PUSH1 0x4 DUP3 ADD MSTORE PUSH1 0x1C PUSH1 0x24 DUP3 ADD MSTORE PUSH32 0x63616C6C6572206973206E6F74206F776E6572206F722061646D696E00000000 PUSH1 0x44 DUP3 ADD MSTORE PUSH1 0x64 ADD PUSH2 0xC7D JUMP JUMPDEST PUSH2 0xC90 DUP4 DUP4 DUP4 PUSH2 0x38AC JUMP JUMPDEST PUSH2 0x1AA1 PUSH2 0x3150 JUMP JUMPDEST PUSH1 0x1 PUSH1 0x1 PUSH1 0xA0 SHL SUB AND PUSH2 0x1ABC PUSH1 0xFB SLOAD PUSH1 0x1 PUSH1 0x1 PUSH1 0xA0 SHL SUB AND SWAP1 JUMP JUMPDEST PUSH1 0x1 PUSH1 0x1 PUSH1 0xA0 SHL SUB AND EQ DUP1 PUSH2 0x1AD7 JUMPI POP PUSH2 0x1AD7 PUSH2 0x4F4 PUSH2 0x3150 JUMP JUMPDEST PUSH2 0x1B23 JUMPI PUSH1 0x40 MLOAD PUSH3 0x461BCD PUSH1 0xE5 SHL DUP2 MSTORE PUSH1 0x20 PUSH1 0x4 DUP3 ADD MSTORE PUSH1 0x1C PUSH1 0x24 DUP3 ADD MSTORE PUSH32 0x63616C6C6572206973206E6F74206F776E6572206F722061646D696E00000000 PUSH1 0x44 DUP3 ADD MSTORE PUSH1 0x64 ADD PUSH2 0xC7D JUMP JUMPDEST PUSH1 0x1 PUSH1 0x1 PUSH1 0xA0 SHL SUB DUP2 AND PUSH2 0x1B9E JUMPI PUSH1 0x40 MLOAD PUSH3 0x461BCD PUSH1 0xE5 SHL DUP2 MSTORE PUSH1 0x20 PUSH1 0x4 DUP3 ADD MSTORE PUSH1 0x24 DUP1 DUP3 ADD MSTORE PUSH32 0x4E65772061646D696E2063616E6E6F7420626520746865207A65726F20616464 PUSH1 0x44 DUP3 ADD MSTORE PUSH32 0x7265737300000000000000000000000000000000000000000000000000000000 PUSH1 0x64 DUP3 ADD MSTORE PUSH1 0x84 ADD PUSH2 0xC7D JUMP JUMPDEST PUSH1 0x1 PUSH1 0x1 PUSH1 0xA0 SHL SUB DUP2 AND PUSH1 0x0 DUP2 DUP2 MSTORE PUSH2 0x199 PUSH1 0x20 SWAP1 DUP2 MSTORE PUSH1 0x40 SWAP2 DUP3 SWAP1 KECCAK256 DUP1 SLOAD PUSH32 0xFFFFFFFFFFFFFFFFFFFFFFFFFFFFFFFFFFFFFFFFFFFFFFFFFFFFFFFFFFFFFF00 AND PUSH1 0x1 SWAP1 DUP2 OR SWAP1 SWAP2 SSTORE DUP3 MLOAD SWAP4 DUP5 MSTORE SWAP1 DUP4 ADD MSTORE PUSH32 0x235BC17E7930760029E9F4D860A2A8089976DE5B381CF8380FC11C1D88A11133 SWAP2 ADD PUSH2 0xDC6 JUMP JUMPDEST PUSH1 0x0 PUSH1 0x1 PUSH1 0x1 PUSH1 0xA0 SHL SUB DUP3 AND PUSH2 0x1C96 JUMPI PUSH1 0x40 MLOAD PUSH3 0x461BCD PUSH1 0xE5 SHL DUP2 MSTORE PUSH1 0x20 PUSH1 0x4 DUP3 ADD MSTORE PUSH1 0x29 PUSH1 0x24 DUP3 ADD MSTORE PUSH32 0x4552433732313A2061646472657373207A65726F206973206E6F742061207661 PUSH1 0x44 DUP3 ADD MSTORE PUSH32 0x6C6964206F776E65720000000000000000000000000000000000000000000000 PUSH1 0x64 DUP3 ADD MSTORE PUSH1 0x84 ADD PUSH2 0xC7D JUMP JUMPDEST POP PUSH1 0x1 PUSH1 0x1 PUSH1 0xA0 SHL SUB AND PUSH1 0x0 SWAP1 DUP2 MSTORE PUSH1 0x68 PUSH1 0x20 MSTORE PUSH1 0x40 SWAP1 KECCAK256 SLOAD SWAP1 JUMP JUMPDEST PUSH2 0x1CBA PUSH2 0x39E9 JUMP JUMPDEST PUSH2 0x1462 PUSH1 0x0 PUSH2 0x3A62 JUMP JUMPDEST PUSH2 0x1CCC PUSH2 0x3150 JUMP JUMPDEST PUSH1 0x1 PUSH1 0x1 PUSH1 0xA0 SHL SUB AND PUSH2 0x1CE7 PUSH1 0xFB SLOAD PUSH1 0x1 PUSH1 0x1 PUSH1 0xA0 SHL SUB AND SWAP1 JUMP JUMPDEST PUSH1 0x1 PUSH1 0x1 PUSH1 0xA0 SHL SUB AND EQ DUP1 PUSH2 0x1D02 JUMPI POP PUSH2 0x1D02 PUSH2 0x4F4 PUSH2 0x3150 JUMP JUMPDEST PUSH2 0x1D4E JUMPI PUSH1 0x40 MLOAD PUSH3 0x461BCD PUSH1 0xE5 SHL DUP2 MSTORE PUSH1 0x20 PUSH1 0x4 DUP3 ADD MSTORE PUSH1 0x1C PUSH1 0x24 DUP3 ADD MSTORE PUSH32 0x63616C6C6572206973206E6F74206F776E6572206F722061646D696E00000000 PUSH1 0x44 DUP3 ADD MSTORE PUSH1 0x64 ADD PUSH2 0xC7D JUMP JUMPDEST PUSH2 0x1D57 DUP3 PUSH2 0x2E7B JUMP JUMPDEST PUSH2 0x1778 DUP3 DUP3 PUSH2 0x3ACC JUMP JUMPDEST PUSH2 0x1D69 PUSH2 0x3150 JUMP JUMPDEST PUSH1 0x1 PUSH1 0x1 PUSH1 0xA0 SHL SUB AND PUSH2 0x1D84 PUSH1 0xFB SLOAD PUSH1 0x1 PUSH1 0x1 PUSH1 0xA0 SHL SUB AND SWAP1 JUMP JUMPDEST PUSH1 0x1 PUSH1 0x1 PUSH1 0xA0 SHL SUB AND EQ DUP1 PUSH2 0x1D9F JUMPI POP PUSH2 0x1D9F PUSH2 0x4F4 PUSH2 0x3150 JUMP JUMPDEST PUSH2 0x1DEB JUMPI PUSH1 0x40 MLOAD PUSH3 0x461BCD PUSH1 0xE5 SHL DUP2 MSTORE PUSH1 0x20 PUSH1 0x4 DUP3 ADD MSTORE PUSH1 0x1C PUSH1 0x24 DUP3 ADD MSTORE PUSH32 0x63616C6C6572206973206E6F74206F776E6572206F722061646D696E00000000 PUSH1 0x44 DUP3 ADD MSTORE PUSH1 0x64 ADD PUSH2 0xC7D JUMP JUMPDEST DUP1 MLOAD PUSH2 0x1778 SWAP1 PUSH2 0x192 SWAP1 PUSH1 0x20 DUP5 ADD SWAP1 PUSH2 0x4F3F JUMP JUMPDEST PUSH2 0x1E07 PUSH2 0x3150 JUMP JUMPDEST PUSH1 0x1 PUSH1 0x1 PUSH1 0xA0 SHL SUB AND PUSH2 0x1E22 PUSH1 0xFB SLOAD PUSH1 0x1 PUSH1 0x1 PUSH1 0xA0 SHL SUB AND SWAP1 JUMP JUMPDEST PUSH1 0x1 PUSH1 0x1 PUSH1 0xA0 SHL SUB AND EQ DUP1 PUSH2 0x1E3D JUMPI POP PUSH2 0x1E3D PUSH2 0x4F4 PUSH2 0x3150 JUMP JUMPDEST PUSH2 0x1E89 JUMPI PUSH1 0x40 MLOAD PUSH3 0x461BCD PUSH1 0xE5 SHL DUP2 MSTORE PUSH1 0x20 PUSH1 0x4 DUP3 ADD MSTORE PUSH1 0x1C PUSH1 0x24 DUP3 ADD MSTORE PUSH32 0x63616C6C6572206973206E6F74206F776E6572206F722061646D696E00000000 PUSH1 0x44 DUP3 ADD MSTORE PUSH1 0x64 ADD PUSH2 0xC7D JUMP JUMPDEST PUSH2 0x1462 PUSH2 0x3B8A JUMP JUMPDEST PUSH1 0x0 SLOAD PUSH2 0x100 SWAP1 DIV PUSH1 0xFF AND ISZERO DUP1 DUP1 ISZERO PUSH2 0x1EB1 JUMPI POP PUSH1 0x0 SLOAD PUSH1 0x1 PUSH1 0xFF SWAP1 SWAP2 AND LT JUMPDEST DUP1 PUSH2 0x1ECB JUMPI POP ADDRESS EXTCODESIZE ISZERO DUP1 ISZERO PUSH2 0x1ECB JUMPI POP PUSH1 0x0 SLOAD PUSH1 0xFF AND PUSH1 0x1 EQ JUMPDEST PUSH2 0x1F3D JUMPI PUSH1 0x40 MLOAD PUSH3 0x461BCD PUSH1 0xE5 SHL DUP2 MSTORE PUSH1 0x20 PUSH1 0x4 DUP3 ADD MSTORE PUSH1 0x2E PUSH1 0x24 DUP3 ADD MSTORE PUSH32 0x496E697469616C697A61626C653A20636F6E747261637420697320616C726561 PUSH1 0x44 DUP3 ADD MSTORE PUSH32 0x647920696E697469616C697A6564000000000000000000000000000000000000 PUSH1 0x64 DUP3 ADD MSTORE PUSH1 0x84 ADD PUSH2 0xC7D JUMP JUMPDEST PUSH1 0x0 DUP1 SLOAD PUSH32 0xFFFFFFFFFFFFFFFFFFFFFFFFFFFFFFFFFFFFFFFFFFFFFFFFFFFFFFFFFFFFFF00 AND PUSH1 0x1 OR SWAP1 SSTORE DUP1 ISZERO PUSH2 0x1F9B JUMPI PUSH1 0x0 DUP1 SLOAD PUSH32 0xFFFFFFFFFFFFFFFFFFFFFFFFFFFFFFFFFFFFFFFFFFFFFFFFFFFFFFFFFFFF00FF AND PUSH2 0x100 OR SWAP1 SSTORE JUMPDEST PUSH2 0x1FA5 DUP7 DUP7 PUSH2 0x3BE6 JUMP JUMPDEST PUSH2 0x1FAD PUSH2 0x3C6D JUMP JUMPDEST PUSH2 0x1FB5 PUSH2 0x3CF2 JUMP JUMPDEST PUSH2 0x1FBD PUSH2 0x3D77 JUMP JUMPDEST PUSH2 0x1FC5 PUSH2 0x3D77 JUMP JUMPDEST PUSH2 0x1FCD PUSH2 0x3DF4 JUMP JUMPDEST PUSH2 0x1FD6 DUP5 PUSH2 0x1D61 JUMP JUMPDEST PUSH1 0x0 JUMPDEST DUP3 DUP2 LT ISZERO PUSH2 0x201B JUMPI PUSH2 0x200B DUP5 DUP5 DUP4 DUP2 DUP2 LT PUSH2 0x1FF6 JUMPI PUSH2 0x1FF6 PUSH2 0x58AA JUMP JUMPDEST SWAP1 POP PUSH1 0x20 MUL ADD PUSH1 0x20 DUP2 ADD SWAP1 PUSH2 0x700 SWAP2 SWAP1 PUSH2 0x510B JUMP JUMPDEST PUSH2 0x2014 DUP2 PUSH2 0x58D9 JUMP JUMPDEST SWAP1 POP PUSH2 0x1FD9 JUMP JUMPDEST POP DUP1 ISZERO PUSH2 0x207F JUMPI PUSH1 0x0 DUP1 SLOAD PUSH32 0xFFFFFFFFFFFFFFFFFFFFFFFFFFFFFFFFFFFFFFFFFFFFFFFFFFFFFFFFFFFF00FF AND SWAP1 SSTORE PUSH1 0x40 MLOAD PUSH1 0x1 DUP2 MSTORE PUSH32 0x7F26B83FF96E1F2B6A682F133852F6798A09C465DA95921460CEFB3847402498 SWAP1 PUSH1 0x20 ADD PUSH1 0x40 MLOAD DUP1 SWAP2 SUB SWAP1 LOG1 JUMPDEST POP POP POP POP POP POP JUMP JUMPDEST PUSH1 0x0 PUSH2 0x2091 PUSH2 0x315F JUMP JUMPDEST PUSH2 0x2099 PUSH2 0x3150 JUMP JUMPDEST PUSH1 0x1 PUSH1 0x1 PUSH1 0xA0 SHL SUB AND PUSH2 0x20B4 PUSH1 0xFB SLOAD PUSH1 0x1 PUSH1 0x1 PUSH1 0xA0 SHL SUB AND SWAP1 JUMP JUMPDEST PUSH1 0x1 PUSH1 0x1 PUSH1 0xA0 SHL SUB AND EQ DUP1 PUSH2 0x20CF JUMPI POP PUSH2 0x20CF PUSH2 0x4F4 PUSH2 0x3150 JUMP JUMPDEST PUSH2 0x211B JUMPI PUSH1 0x40 MLOAD PUSH3 0x461BCD PUSH1 0xE5 SHL DUP2 MSTORE PUSH1 0x20 PUSH1 0x4 DUP3 ADD MSTORE PUSH1 0x1C PUSH1 0x24 DUP3 ADD MSTORE PUSH32 0x63616C6C6572206973206E6F74206F776E6572206F722061646D696E00000000 PUSH1 0x44 DUP3 ADD MSTORE PUSH1 0x64 ADD PUSH2 0xC7D JUMP JUMPDEST PUSH1 0x1 PUSH2 0x193 PUSH1 0x0 DUP3 DUP3 SLOAD PUSH2 0x212F SWAP2 SWAP1 PUSH2 0x5912 JUMP JUMPDEST SWAP3 POP POP DUP2 SWAP1 SSTORE POP PUSH2 0x2146 DUP6 PUSH2 0x193 SLOAD DUP7 DUP7 DUP7 PUSH2 0x3E90 JUMP JUMPDEST SWAP1 POP JUMPDEST SWAP5 SWAP4 POP POP POP POP JUMP JUMPDEST PUSH1 0x60 PUSH1 0x66 DUP1 SLOAD PUSH2 0xAEB SWAP1 PUSH2 0x5694 JUMP JUMPDEST PUSH2 0x2168 PUSH2 0x3150 JUMP JUMPDEST PUSH1 0x1 PUSH1 0x1 PUSH1 0xA0 SHL SUB AND PUSH2 0x2183 PUSH1 0xFB SLOAD PUSH1 0x1 PUSH1 0x1 PUSH1 0xA0 SHL SUB AND SWAP1 JUMP JUMPDEST PUSH1 0x1 PUSH1 0x1 PUSH1 0xA0 SHL SUB AND EQ DUP1 PUSH2 0x219E JUMPI POP PUSH2 0x219E PUSH2 0x4F4 PUSH2 0x3150 JUMP JUMPDEST PUSH2 0x21EA JUMPI PUSH1 0x40 MLOAD PUSH3 0x461BCD PUSH1 0xE5 SHL DUP2 MSTORE PUSH1 0x20 PUSH1 0x4 DUP3 ADD MSTORE PUSH1 0x1C PUSH1 0x24 DUP3 ADD MSTORE PUSH32 0x63616C6C6572206973206E6F74206F776E6572206F722061646D696E00000000 PUSH1 0x44 DUP3 ADD MSTORE PUSH1 0x64 ADD PUSH2 0xC7D JUMP JUMPDEST PUSH2 0x1462 PUSH1 0x0 PUSH2 0x196 SSTORE JUMP JUMPDEST PUSH1 0x0 PUSH2 0x21FF PUSH2 0x315F JUMP JUMPDEST PUSH2 0x2207 PUSH2 0x3150 JUMP JUMPDEST PUSH1 0x1 PUSH1 0x1 PUSH1 0xA0 SHL SUB AND PUSH2 0x2222 PUSH1 0xFB SLOAD PUSH1 0x1 PUSH1 0x1 PUSH1 0xA0 SHL SUB AND SWAP1 JUMP JUMPDEST PUSH1 0x1 PUSH1 0x1 PUSH1 0xA0 SHL SUB AND EQ DUP1 PUSH2 0x223D JUMPI POP PUSH2 0x223D PUSH2 0x4F4 PUSH2 0x3150 JUMP JUMPDEST PUSH2 0x2289 JUMPI PUSH1 0x40 MLOAD PUSH3 0x461BCD PUSH1 0xE5 SHL DUP2 MSTORE PUSH1 0x20 PUSH1 0x4 DUP3 ADD MSTORE PUSH1 0x1C PUSH1 0x24 DUP3 ADD MSTORE PUSH32 0x63616C6C6572206973206E6F74206F776E6572206F722061646D696E00000000 PUSH1 0x44 DUP3 ADD MSTORE PUSH1 0x64 ADD PUSH2 0xC7D JUMP JUMPDEST PUSH8 0xFFFFFFFFFFFFFFFF DUP3 AND ISZERO PUSH2 0x2325 JUMPI PUSH1 0x0 DUP1 PUSH2 0x22A6 DUP5 TIMESTAMP PUSH2 0x592A JUMP JUMPDEST SWAP1 POP PUSH1 0x0 JUMPDEST DUP7 DUP2 LT ISZERO PUSH2 0x231D JUMPI DUP1 PUSH2 0x193 SLOAD PUSH1 0x1 PUSH2 0x22C4 SWAP2 SWAP1 PUSH2 0x5912 JUMP JUMPDEST PUSH2 0x22CE SWAP2 SWAP1 PUSH2 0x5912 JUMP JUMPDEST SWAP3 POP PUSH2 0x2302 DUP10 DUP5 DUP11 DUP11 DUP6 DUP2 DUP2 LT PUSH2 0x22E7 JUMPI PUSH2 0x22E7 PUSH2 0x58AA JUMP JUMPDEST SWAP1 POP PUSH1 0x20 MUL ADD PUSH1 0x20 DUP2 ADD SWAP1 PUSH2 0x22FC SWAP2 SWAP1 PUSH2 0x510B JUMP JUMPDEST DUP10 PUSH2 0x3EE3 JUMP JUMPDEST POP PUSH2 0x230D DUP4 DUP4 PUSH2 0x26C5 JUMP JUMPDEST PUSH2 0x2316 DUP2 PUSH2 0x58D9 JUMP JUMPDEST SWAP1 POP PUSH2 0x22AB JUMP JUMPDEST POP POP POP PUSH2 0x238F JUMP JUMPDEST PUSH1 0x0 JUMPDEST DUP5 DUP2 LT ISZERO PUSH2 0x238D JUMPI PUSH2 0x237C DUP8 DUP3 PUSH2 0x193 SLOAD PUSH1 0x1 PUSH2 0x2345 SWAP2 SWAP1 PUSH2 0x5912 JUMP JUMPDEST PUSH2 0x234F SWAP2 SWAP1 PUSH2 0x5912 JUMP JUMPDEST DUP9 DUP9 DUP6 DUP2 DUP2 LT PUSH2 0x2361 JUMPI PUSH2 0x2361 PUSH2 0x58AA JUMP JUMPDEST SWAP1 POP PUSH1 0x20 MUL ADD PUSH1 0x20 DUP2 ADD SWAP1 PUSH2 0x2376 SWAP2 SWAP1 PUSH2 0x510B JUMP JUMPDEST DUP8 PUSH2 0x3EE3 JUMP JUMPDEST POP PUSH2 0x2386 DUP2 PUSH2 0x58D9 JUMP JUMPDEST SWAP1 POP PUSH2 0x2328 JUMP JUMPDEST POP JUMPDEST DUP5 DUP5 SWAP1 POP PUSH2 0x193 PUSH1 0x0 DUP3 DUP3 SLOAD PUSH2 0x23A5 SWAP2 SWAP1 PUSH2 0x5912 JUMP JUMPDEST SWAP1 SWAP2 SSTORE POP PUSH1 0x1 SWAP8 SWAP7 POP POP POP POP POP POP POP JUMP JUMPDEST DUP2 PUSH14 0xAAEB6D7670E522A718067333CD4E EXTCODESIZE ISZERO PUSH2 0x24A2 JUMPI PUSH1 0x40 MLOAD PUSH32 0xC617113400000000000000000000000000000000000000000000000000000000 DUP2 MSTORE ADDRESS PUSH1 0x4 DUP3 ADD MSTORE PUSH1 0x1 PUSH1 0x1 PUSH1 0xA0 SHL SUB DUP3 AND PUSH1 0x24 DUP3 ADD MSTORE PUSH14 0xAAEB6D7670E522A718067333CD4E SWAP1 PUSH4 0xC6171134 SWAP1 PUSH1 0x44 ADD PUSH1 0x20 PUSH1 0x40 MLOAD DUP1 DUP4 SUB DUP2 DUP7 GAS STATICCALL ISZERO DUP1 ISZERO PUSH2 0x243D JUMPI RETURNDATASIZE PUSH1 0x0 DUP1 RETURNDATACOPY RETURNDATASIZE PUSH1 0x0 REVERT JUMPDEST POP POP POP POP PUSH1 0x40 MLOAD RETURNDATASIZE PUSH1 0x1F NOT PUSH1 0x1F DUP3 ADD AND DUP3 ADD DUP1 PUSH1 0x40 MSTORE POP DUP2 ADD SWAP1 PUSH2 0x2461 SWAP2 SWAP1 PUSH2 0x56E8 JUMP JUMPDEST PUSH2 0x24A2 JUMPI PUSH1 0x40 MLOAD PUSH32 0xEDE71DCC00000000000000000000000000000000000000000000000000000000 DUP2 MSTORE PUSH1 0x1 PUSH1 0x1 PUSH1 0xA0 SHL SUB DUP3 AND PUSH1 0x4 DUP3 ADD MSTORE PUSH1 0x24 ADD PUSH2 0xC7D JUMP JUMPDEST PUSH2 0xC90 DUP4 DUP4 PUSH2 0x3F1B JUMP JUMPDEST DUP4 PUSH14 0xAAEB6D7670E522A718067333CD4E EXTCODESIZE ISZERO PUSH2 0x25A4 JUMPI PUSH2 0x24CA PUSH2 0x3150 JUMP JUMPDEST PUSH1 0x1 PUSH1 0x1 PUSH1 0xA0 SHL SUB AND DUP2 PUSH1 0x1 PUSH1 0x1 PUSH1 0xA0 SHL SUB AND EQ ISZERO PUSH2 0x24F4 JUMPI PUSH2 0x24EF DUP6 DUP6 DUP6 DUP6 PUSH2 0x3F2D JUMP JUMPDEST PUSH2 0x25B0 JUMP JUMPDEST PUSH14 0xAAEB6D7670E522A718067333CD4E PUSH4 0xC6171134 ADDRESS PUSH2 0x2511 PUSH2 0x3150 JUMP JUMPDEST PUSH1 0x40 MLOAD PUSH32 0xFFFFFFFF00000000000000000000000000000000000000000000000000000000 PUSH1 0xE0 DUP6 SWAP1 SHL AND DUP2 MSTORE PUSH1 0x1 PUSH1 0x1 PUSH1 0xA0 SHL SUB SWAP3 DUP4 AND PUSH1 0x4 DUP3 ADD MSTORE SWAP2 AND PUSH1 0x24 DUP3 ADD MSTORE PUSH1 0x44 ADD PUSH1 0x20 PUSH1 0x40 MLOAD DUP1 DUP4 SUB DUP2 DUP7 GAS STATICCALL ISZERO DUP1 ISZERO PUSH2 0x2574 JUMPI RETURNDATASIZE PUSH1 0x0 DUP1 RETURNDATACOPY RETURNDATASIZE PUSH1 0x0 REVERT JUMPDEST POP POP POP POP PUSH1 0x40 MLOAD RETURNDATASIZE PUSH1 0x1F NOT PUSH1 0x1F DUP3 ADD AND DUP3 ADD DUP1 PUSH1 0x40 MSTORE POP DUP2 ADD SWAP1 PUSH2 0x2598 SWAP2 SWAP1 PUSH2 0x56E8 JUMP JUMPDEST PUSH2 0x25A4 JUMPI PUSH2 0x10D1 PUSH2 0x3150 JUMP JUMPDEST PUSH2 0x25B0 DUP6 DUP6 DUP6 DUP6 PUSH2 0x3F2D JUMP JUMPDEST POP POP POP POP POP JUMP JUMPDEST PUSH1 0x60 PUSH1 0x0 PUSH2 0x25C4 DUP4 PUSH2 0x1213 JUMP JUMPDEST SWAP1 POP PUSH2 0x192 PUSH2 0x25D2 DUP3 PUSH2 0x301E JUMP JUMPDEST PUSH2 0x25DB DUP6 PUSH2 0x301E JUMP JUMPDEST PUSH1 0x40 MLOAD PUSH1 0x20 ADD PUSH2 0x25ED SWAP4 SWAP3 SWAP2 SWAP1 PUSH2 0x594D JUMP JUMPDEST PUSH1 0x40 MLOAD PUSH1 0x20 DUP2 DUP4 SUB SUB DUP2 MSTORE SWAP1 PUSH1 0x40 MSTORE SWAP2 POP POP SWAP2 SWAP1 POP JUMP JUMPDEST PUSH2 0x260C PUSH2 0x3150 JUMP JUMPDEST PUSH1 0x1 PUSH1 0x1 PUSH1 0xA0 SHL SUB AND PUSH2 0x2627 PUSH1 0xFB SLOAD PUSH1 0x1 PUSH1 0x1 PUSH1 0xA0 SHL SUB AND SWAP1 JUMP JUMPDEST PUSH1 0x1 PUSH1 0x1 PUSH1 0xA0 SHL SUB AND EQ DUP1 PUSH2 0x2642 JUMPI POP PUSH2 0x2642 PUSH2 0x4F4 PUSH2 0x3150 JUMP JUMPDEST PUSH2 0x268E JUMPI PUSH1 0x40 MLOAD PUSH3 0x461BCD PUSH1 0xE5 SHL DUP2 MSTORE PUSH1 0x20 PUSH1 0x4 DUP3 ADD MSTORE PUSH1 0x1C PUSH1 0x24 DUP3 ADD MSTORE PUSH32 0x63616C6C6572206973206E6F74206F776E6572206F722061646D696E00000000 PUSH1 0x44 DUP3 ADD MSTORE PUSH1 0x64 ADD PUSH2 0xC7D JUMP JUMPDEST PUSH2 0x191 DUP1 SLOAD PUSH32 0xFFFFFFFFFFFFFFFFFFFFFFFF0000000000000000000000000000000000000000 AND PUSH1 0x1 PUSH1 0x1 PUSH1 0xA0 SHL SUB DUP4 AND OR SWAP1 SSTORE POP JUMP JUMPDEST PUSH2 0x26CD PUSH2 0x3150 JUMP JUMPDEST PUSH1 0x1 PUSH1 0x1 PUSH1 0xA0 SHL SUB AND PUSH2 0x26E8 PUSH1 0xFB SLOAD PUSH1 0x1 PUSH1 0x1 PUSH1 0xA0 SHL SUB AND SWAP1 JUMP JUMPDEST PUSH1 0x1 PUSH1 0x1 PUSH1 0xA0 SHL SUB AND EQ DUP1 PUSH2 0x2703 JUMPI POP PUSH2 0x2703 PUSH2 0x4F4 PUSH2 0x3150 JUMP JUMPDEST PUSH2 0x274F JUMPI PUSH1 0x40 MLOAD PUSH3 0x461BCD PUSH1 0xE5 SHL DUP2 MSTORE PUSH1 0x20 PUSH1 0x4 DUP3 ADD MSTORE PUSH1 0x1C PUSH1 0x24 DUP3 ADD MSTORE PUSH32 0x63616C6C6572206973206E6F74206F776E6572206F722061646D696E00000000 PUSH1 0x44 DUP3 ADD MSTORE PUSH1 0x64 ADD PUSH2 0xC7D JUMP JUMPDEST PUSH2 0x2758 DUP3 PUSH2 0x2E7B JUMP JUMPDEST PUSH1 0x0 DUP3 DUP2 MSTORE PUSH2 0x198 PUSH1 0x20 SWAP1 DUP2 MSTORE PUSH1 0x40 SWAP2 DUP3 SWAP1 KECCAK256 DUP1 SLOAD PUSH32 0xFFFFFFFFFFFFFFFFFFFFFFFFFFFFFFFFFFFFFFFFFFFFFFFF0000000000000000 AND PUSH8 0xFFFFFFFFFFFFFFFF DUP6 AND SWAP1 DUP2 OR SWAP1 SWAP2 SSTORE SWAP2 MLOAD SWAP2 DUP3 MSTORE DUP4 SWAP2 PUSH32 0x2EC2BE2C4B90C2CF13ECB6751A24DAED6BB741AE5ED3F7371AABF9402F6D62E8 SWAP2 ADD PUSH1 0x40 MLOAD DUP1 SWAP2 SUB SWAP1 LOG2 POP POP JUMP JUMPDEST PUSH2 0x27DE PUSH2 0x3150 JUMP JUMPDEST PUSH1 0x1 PUSH1 0x1 PUSH1 0xA0 SHL SUB AND PUSH2 0x27F9 PUSH1 0xFB SLOAD PUSH1 0x1 PUSH1 0x1 PUSH1 0xA0 SHL SUB AND SWAP1 JUMP JUMPDEST PUSH1 0x1 PUSH1 0x1 PUSH1 0xA0 SHL SUB AND EQ DUP1 PUSH2 0x2814 JUMPI POP PUSH2 0x2814 PUSH2 0x4F4 PUSH2 0x3150 JUMP JUMPDEST PUSH2 0x2860 JUMPI PUSH1 0x40 MLOAD PUSH3 0x461BCD PUSH1 0xE5 SHL DUP2 MSTORE PUSH1 0x20 PUSH1 0x4 DUP3 ADD MSTORE PUSH1 0x1C PUSH1 0x24 DUP3 ADD MSTORE PUSH32 0x63616C6C6572206973206E6F74206F776E6572206F722061646D696E00000000 PUSH1 0x44 DUP3 ADD MSTORE PUSH1 0x64 ADD PUSH2 0xC7D JUMP JUMPDEST PUSH2 0x1778 DUP3 DUP3 PUSH2 0x3FBC JUMP JUMPDEST PUSH2 0x2872 PUSH2 0x3150 JUMP JUMPDEST PUSH1 0x1 PUSH1 0x1 PUSH1 0xA0 SHL SUB AND PUSH2 0x288D PUSH1 0xFB SLOAD PUSH1 0x1 PUSH1 0x1 PUSH1 0xA0 SHL SUB AND SWAP1 JUMP JUMPDEST PUSH1 0x1 PUSH1 0x1 PUSH1 0xA0 SHL SUB AND EQ DUP1 PUSH2 0x28A8 JUMPI POP PUSH2 0x28A8 PUSH2 0x4F4 PUSH2 0x3150 JUMP JUMPDEST PUSH2 0x28F4 JUMPI PUSH1 0x40 MLOAD PUSH3 0x461BCD PUSH1 0xE5 SHL DUP2 MSTORE PUSH1 0x20 PUSH1 0x4 DUP3 ADD MSTORE PUSH1 0x1C PUSH1 0x24 DUP3 ADD MSTORE PUSH32 0x63616C6C6572206973206E6F74206F776E6572206F722061646D696E00000000 PUSH1 0x44 DUP3 ADD MSTORE PUSH1 0x64 ADD PUSH2 0xC7D JUMP JUMPDEST PUSH2 0x28FC PUSH2 0x315F JUMP JUMPDEST PUSH1 0x40 MLOAD PUSH32 0xA089479900000000000000000000000000000000000000000000000000000000 DUP2 MSTORE PUSH1 0x4 DUP2 ADD DUP3 SWAP1 MSTORE DUP2 SWAP1 ADDRESS SWAP1 PUSH4 0xA0894799 SWAP1 PUSH1 0x24 ADD PUSH1 0x20 PUSH1 0x40 MLOAD DUP1 DUP4 SUB DUP2 DUP7 GAS STATICCALL ISZERO DUP1 ISZERO PUSH2 0x2953 JUMPI RETURNDATASIZE PUSH1 0x0 DUP1 RETURNDATACOPY RETURNDATASIZE PUSH1 0x0 REVERT JUMPDEST POP POP POP POP PUSH1 0x40 MLOAD RETURNDATASIZE PUSH1 0x1F NOT PUSH1 0x1F DUP3 ADD AND DUP3 ADD DUP1 PUSH1 0x40 MSTORE POP DUP2 ADD SWAP1 PUSH2 0x2977 SWAP2 SWAP1 PUSH2 0x56E8 JUMP JUMPDEST ISZERO PUSH2 0x29C4 JUMPI PUSH1 0x40 MLOAD PUSH3 0x461BCD PUSH1 0xE5 SHL DUP2 MSTORE PUSH1 0x20 PUSH1 0x4 DUP3 ADD MSTORE PUSH1 0xF PUSH1 0x24 DUP3 ADD MSTORE PUSH32 0x546F6B656E2069732066726F7A656E0000000000000000000000000000000000 PUSH1 0x44 DUP3 ADD MSTORE PUSH1 0x64 ADD PUSH2 0xC7D JUMP JUMPDEST PUSH2 0x1778 DUP3 PUSH2 0x40E8 JUMP JUMPDEST PUSH2 0x29D5 PUSH2 0x3150 JUMP JUMPDEST PUSH1 0x1 PUSH1 0x1 PUSH1 0xA0 SHL SUB AND PUSH2 0x29F0 PUSH1 0xFB SLOAD PUSH1 0x1 PUSH1 0x1 PUSH1 0xA0 SHL SUB AND SWAP1 JUMP JUMPDEST PUSH1 0x1 PUSH1 0x1 PUSH1 0xA0 SHL SUB AND EQ DUP1 PUSH2 0x2A0B JUMPI POP PUSH2 0x2A0B PUSH2 0x4F4 PUSH2 0x3150 JUMP JUMPDEST PUSH2 0x2A57 JUMPI PUSH1 0x40 MLOAD PUSH3 0x461BCD PUSH1 0xE5 SHL DUP2 MSTORE PUSH1 0x20 PUSH1 0x4 DUP3 ADD MSTORE PUSH1 0x1C PUSH1 0x24 DUP3 ADD MSTORE PUSH32 0x63616C6C6572206973206E6F74206F776E6572206F722061646D696E00000000 PUSH1 0x44 DUP3 ADD MSTORE PUSH1 0x64 ADD PUSH2 0xC7D JUMP JUMPDEST PUSH1 0x0 SWAP1 DUP2 MSTORE PUSH2 0x197 PUSH1 0x20 MSTORE PUSH1 0x40 DUP2 KECCAK256 SSTORE JUMP JUMPDEST PUSH2 0x192 DUP1 SLOAD PUSH2 0x2A77 SWAP1 PUSH2 0x5694 JUMP JUMPDEST DUP1 PUSH1 0x1F ADD PUSH1 0x20 DUP1 SWAP2 DIV MUL PUSH1 0x20 ADD PUSH1 0x40 MLOAD SWAP1 DUP2 ADD PUSH1 0x40 MSTORE DUP1 SWAP3 SWAP2 SWAP1 DUP2 DUP2 MSTORE PUSH1 0x20 ADD DUP3 DUP1 SLOAD PUSH2 0x2AA3 SWAP1 PUSH2 0x5694 JUMP JUMPDEST DUP1 ISZERO PUSH2 0x2AF0 JUMPI DUP1 PUSH1 0x1F LT PUSH2 0x2AC5 JUMPI PUSH2 0x100 DUP1 DUP4 SLOAD DIV MUL DUP4 MSTORE SWAP2 PUSH1 0x20 ADD SWAP2 PUSH2 0x2AF0 JUMP JUMPDEST DUP3 ADD SWAP2 SWAP1 PUSH1 0x0 MSTORE PUSH1 0x20 PUSH1 0x0 KECCAK256 SWAP1 JUMPDEST DUP2 SLOAD DUP2 MSTORE SWAP1 PUSH1 0x1 ADD SWAP1 PUSH1 0x20 ADD DUP1 DUP4 GT PUSH2 0x2AD3 JUMPI DUP3 SWAP1 SUB PUSH1 0x1F AND DUP3 ADD SWAP2 JUMPDEST POP POP POP POP POP DUP2 JUMP JUMPDEST PUSH1 0x0 PUSH1 0x1 PUSH1 0x1 PUSH1 0xA0 SHL SUB DUP3 AND PUSH15 0x6C3852CBEF3E08E8DF289169EDE581 EQ DUP1 PUSH2 0x2B39 JUMPI POP PUSH1 0x1 PUSH1 0x1 PUSH1 0xA0 SHL SUB DUP3 AND PUSH1 0x0 SWAP1 DUP2 MSTORE PUSH2 0x199 PUSH1 0x20 MSTORE PUSH1 0x40 SWAP1 KECCAK256 SLOAD PUSH1 0xFF AND JUMPDEST ISZERO PUSH2 0x2B46 JUMPI POP PUSH1 0x1 PUSH2 0xAD6 JUMP JUMPDEST PUSH1 0x1 PUSH1 0x1 PUSH1 0xA0 SHL SUB DUP1 DUP5 AND PUSH1 0x0 SWAP1 DUP2 MSTORE PUSH1 0x6A PUSH1 0x20 SWAP1 DUP2 MSTORE PUSH1 0x40 DUP1 DUP4 KECCAK256 SWAP4 DUP7 AND DUP4 MSTORE SWAP3 SWAP1 MSTORE KECCAK256 SLOAD PUSH1 0xFF AND JUMPDEST SWAP4 SWAP3 POP POP POP JUMP JUMPDEST PUSH2 0x2B7F PUSH2 0x39E9 JUMP JUMPDEST PUSH1 0x1 PUSH1 0x1 PUSH1 0xA0 SHL SUB DUP2 AND PUSH2 0x2BFB JUMPI PUSH1 0x40 MLOAD PUSH3 0x461BCD PUSH1 0xE5 SHL DUP2 MSTORE PUSH1 0x20 PUSH1 0x4 DUP3 ADD MSTORE PUSH1 0x26 PUSH1 0x24 DUP3 ADD MSTORE PUSH32 0x4F776E61626C653A206E6577206F776E657220697320746865207A65726F2061 PUSH1 0x44 DUP3 ADD MSTORE PUSH32 0x6464726573730000000000000000000000000000000000000000000000000000 PUSH1 0x64 DUP3 ADD MSTORE PUSH1 0x84 ADD PUSH2 0xC7D JUMP JUMPDEST PUSH2 0x13CD DUP2 PUSH2 0x3A62 JUMP JUMPDEST PUSH1 0x0 PUSH2 0x2C0E PUSH2 0x315F JUMP JUMPDEST PUSH2 0x2C16 PUSH2 0x3150 JUMP JUMPDEST PUSH1 0x1 PUSH1 0x1 PUSH1 0xA0 SHL SUB AND PUSH2 0x2C31 PUSH1 0xFB SLOAD PUSH1 0x1 PUSH1 0x1 PUSH1 0xA0 SHL SUB AND SWAP1 JUMP JUMPDEST PUSH1 0x1 PUSH1 0x1 PUSH1 0xA0 SHL SUB AND EQ DUP1 PUSH2 0x2C4C JUMPI POP PUSH2 0x2C4C PUSH2 0x4F4 PUSH2 0x3150 JUMP JUMPDEST PUSH2 0x2C98 JUMPI PUSH1 0x40 MLOAD PUSH3 0x461BCD PUSH1 0xE5 SHL DUP2 MSTORE PUSH1 0x20 PUSH1 0x4 DUP3 ADD MSTORE PUSH1 0x1C PUSH1 0x24 DUP3 ADD MSTORE PUSH32 0x63616C6C6572206973206E6F74206F776E6572206F722061646D696E00000000 PUSH1 0x44 DUP3 ADD MSTORE PUSH1 0x64 ADD PUSH2 0xC7D JUMP JUMPDEST PUSH8 0xFFFFFFFFFFFFFFFF DUP3 AND ISZERO PUSH2 0x2D26 JUMPI PUSH1 0x0 DUP1 PUSH2 0x2CB5 DUP5 TIMESTAMP PUSH2 0x592A JUMP JUMPDEST SWAP1 POP PUSH1 0x0 JUMPDEST DUP8 DUP2 LT ISZERO PUSH2 0x2D1E JUMPI DUP1 PUSH2 0x193 SLOAD PUSH1 0x1 PUSH2 0x2CD3 SWAP2 SWAP1 PUSH2 0x5912 JUMP JUMPDEST PUSH2 0x2CDD SWAP2 SWAP1 PUSH2 0x5912 JUMP JUMPDEST SWAP3 POP PUSH2 0x2D03 DUP10 DUP10 DUP4 DUP2 DUP2 LT PUSH2 0x2CF4 JUMPI PUSH2 0x2CF4 PUSH2 0x58AA JUMP JUMPDEST SWAP1 POP PUSH1 0x20 MUL ADD CALLDATALOAD DUP5 DUP10 DUP10 PUSH2 0x3EE3 JUMP JUMPDEST POP PUSH2 0x2D0E DUP4 DUP4 PUSH2 0x26C5 JUMP JUMPDEST PUSH2 0x2D17 DUP2 PUSH2 0x58D9 JUMP JUMPDEST SWAP1 POP PUSH2 0x2CBA JUMP JUMPDEST POP POP POP PUSH2 0x2D82 JUMP JUMPDEST PUSH1 0x0 JUMPDEST DUP6 DUP2 LT ISZERO PUSH2 0x2D80 JUMPI PUSH2 0x2D6F DUP8 DUP8 DUP4 DUP2 DUP2 LT PUSH2 0x2D46 JUMPI PUSH2 0x2D46 PUSH2 0x58AA JUMP JUMPDEST SWAP1 POP PUSH1 0x20 MUL ADD CALLDATALOAD DUP3 PUSH2 0x193 SLOAD PUSH1 0x1 PUSH2 0x2D5E SWAP2 SWAP1 PUSH2 0x5912 JUMP JUMPDEST PUSH2 0x2D68 SWAP2 SWAP1 PUSH2 0x5912 JUMP JUMPDEST DUP8 DUP8 PUSH2 0x3EE3 JUMP JUMPDEST POP PUSH2 0x2D79 DUP2 PUSH2 0x58D9 JUMP JUMPDEST SWAP1 POP PUSH2 0x2D29 JUMP JUMPDEST POP JUMPDEST DUP6 DUP6 SWAP1 POP PUSH2 0x193 PUSH1 0x0 DUP3 DUP3 SLOAD PUSH2 0x23A5 SWAP2 SWAP1 PUSH2 0x5912 JUMP JUMPDEST PUSH1 0x0 PUSH32 0xFFFFFFFF00000000000000000000000000000000000000000000000000000000 DUP3 AND PUSH32 0x80AC58CD00000000000000000000000000000000000000000000000000000000 EQ DUP1 PUSH2 0x2E2B JUMPI POP PUSH32 0xFFFFFFFF00000000000000000000000000000000000000000000000000000000 DUP3 AND PUSH32 0x5B5E139F00000000000000000000000000000000000000000000000000000000 EQ JUMPDEST DUP1 PUSH2 0xAD6 JUMPI POP PUSH32 0x1FFC9A700000000000000000000000000000000000000000000000000000000 PUSH32 0xFFFFFFFF00000000000000000000000000000000000000000000000000000000 DUP4 AND EQ PUSH2 0xAD6 JUMP JUMPDEST PUSH1 0x0 DUP2 DUP2 MSTORE PUSH1 0x67 PUSH1 0x20 MSTORE PUSH1 0x40 SWAP1 KECCAK256 SLOAD PUSH1 0x1 PUSH1 0x1 PUSH1 0xA0 SHL SUB AND PUSH2 0x13CD JUMPI PUSH1 0x40 MLOAD PUSH3 0x461BCD PUSH1 0xE5 SHL DUP2 MSTORE PUSH1 0x20 PUSH1 0x4 DUP3 ADD MSTORE PUSH1 0x18 PUSH1 0x24 DUP3 ADD MSTORE PUSH32 0x4552433732313A20696E76616C696420746F6B656E2049440000000000000000 PUSH1 0x44 DUP3 ADD MSTORE PUSH1 0x64 ADD PUSH2 0xC7D JUMP JUMPDEST PUSH1 0x0 PUSH2 0x2EEA DUP3 PUSH2 0x18FB JUMP JUMPDEST SWAP1 POP DUP1 PUSH1 0x1 PUSH1 0x1 PUSH1 0xA0 SHL SUB AND DUP4 PUSH1 0x1 PUSH1 0x1 PUSH1 0xA0 SHL SUB AND EQ ISZERO PUSH2 0x2F74 JUMPI PUSH1 0x40 MLOAD PUSH3 0x461BCD PUSH1 0xE5 SHL DUP2 MSTORE PUSH1 0x20 PUSH1 0x4 DUP3 ADD MSTORE PUSH1 0x21 PUSH1 0x24 DUP3 ADD MSTORE PUSH32 0x4552433732313A20617070726F76616C20746F2063757272656E74206F776E65 PUSH1 0x44 DUP3 ADD MSTORE PUSH32 0x7200000000000000000000000000000000000000000000000000000000000000 PUSH1 0x64 DUP3 ADD MSTORE PUSH1 0x84 ADD PUSH2 0xC7D JUMP JUMPDEST DUP1 PUSH1 0x1 PUSH1 0x1 PUSH1 0xA0 SHL SUB AND PUSH2 0x2F86 PUSH2 0x3150 JUMP JUMPDEST PUSH1 0x1 PUSH1 0x1 PUSH1 0xA0 SHL SUB AND EQ DUP1 PUSH2 0x2FA2 JUMPI POP PUSH2 0x2FA2 DUP2 PUSH2 0x9EF PUSH2 0x3150 JUMP JUMPDEST PUSH2 0x3014 JUMPI PUSH1 0x40 MLOAD PUSH3 0x461BCD PUSH1 0xE5 SHL DUP2 MSTORE PUSH1 0x20 PUSH1 0x4 DUP3 ADD MSTORE PUSH1 0x3E PUSH1 0x24 DUP3 ADD MSTORE PUSH32 0x4552433732313A20617070726F76652063616C6C6572206973206E6F7420746F PUSH1 0x44 DUP3 ADD MSTORE PUSH32 0x6B656E206F776E6572206E6F7220617070726F76656420666F7220616C6C0000 PUSH1 0x64 DUP3 ADD MSTORE PUSH1 0x84 ADD PUSH2 0xC7D JUMP JUMPDEST PUSH2 0xC90 DUP4 DUP4 PUSH2 0x4152 JUMP JUMPDEST PUSH1 0x60 DUP2 PUSH2 0x305E JUMPI POP POP PUSH1 0x40 DUP1 MLOAD DUP1 DUP3 ADD SWAP1 SWAP2 MSTORE PUSH1 0x1 DUP2 MSTORE PUSH32 0x3000000000000000000000000000000000000000000000000000000000000000 PUSH1 0x20 DUP3 ADD MSTORE SWAP1 JUMP JUMPDEST DUP2 PUSH1 0x0 JUMPDEST DUP2 ISZERO PUSH2 0x3088 JUMPI DUP1 PUSH2 0x3072 DUP2 PUSH2 0x58D9 JUMP JUMPDEST SWAP2 POP PUSH2 0x3081 SWAP1 POP PUSH1 0xA DUP4 PUSH2 0x5896 JUMP JUMPDEST SWAP2 POP PUSH2 0x3062 JUMP JUMPDEST PUSH1 0x0 DUP2 PUSH8 0xFFFFFFFFFFFFFFFF DUP2 GT ISZERO PUSH2 0x30A3 JUMPI PUSH2 0x30A3 PUSH2 0x5184 JUMP JUMPDEST PUSH1 0x40 MLOAD SWAP1 DUP1 DUP3 MSTORE DUP1 PUSH1 0x1F ADD PUSH1 0x1F NOT AND PUSH1 0x20 ADD DUP3 ADD PUSH1 0x40 MSTORE DUP1 ISZERO PUSH2 0x30CD JUMPI PUSH1 0x20 DUP3 ADD DUP2 DUP1 CALLDATASIZE DUP4 CALLDATACOPY ADD SWAP1 POP JUMPDEST POP SWAP1 POP JUMPDEST DUP5 ISZERO PUSH2 0x2149 JUMPI PUSH2 0x30E2 PUSH1 0x1 DUP4 PUSH2 0x59AF JUMP JUMPDEST SWAP2 POP PUSH2 0x30EF PUSH1 0xA DUP7 PUSH2 0x59C6 JUMP JUMPDEST PUSH2 0x30FA SWAP1 PUSH1 0x30 PUSH2 0x5912 JUMP JUMPDEST PUSH1 0xF8 SHL DUP2 DUP4 DUP2 MLOAD DUP2 LT PUSH2 0x310F JUMPI PUSH2 0x310F PUSH2 0x58AA JUMP JUMPDEST PUSH1 0x20 ADD ADD SWAP1 PUSH31 0xFFFFFFFFFFFFFFFFFFFFFFFFFFFFFFFFFFFFFFFFFFFFFFFFFFFFFFFFFFFFFF NOT AND SWAP1 DUP2 PUSH1 0x0 BYTE SWAP1 MSTORE8 POP PUSH2 0x3149 PUSH1 0xA DUP7 PUSH2 0x5896 JUMP JUMPDEST SWAP5 POP PUSH2 0x30D1 JUMP JUMPDEST PUSH1 0x0 PUSH2 0x315A PUSH2 0x41D8 JUMP JUMPDEST SWAP1 POP SWAP1 JUMP JUMPDEST PUSH1 0xC9 SLOAD PUSH1 0xFF AND ISZERO PUSH2 0x1462 JUMPI PUSH1 0x40 MLOAD PUSH3 0x461BCD PUSH1 0xE5 SHL DUP2 MSTORE PUSH1 0x20 PUSH1 0x4 DUP3 ADD MSTORE PUSH1 0x10 PUSH1 0x24 DUP3 ADD MSTORE PUSH32 0x5061757361626C653A2070617573656400000000000000000000000000000000 PUSH1 0x44 DUP3 ADD MSTORE PUSH1 0x64 ADD PUSH2 0xC7D JUMP JUMPDEST PUSH2 0x31BD PUSH2 0x156C PUSH2 0x3150 JUMP JUMPDEST PUSH2 0x322F JUMPI PUSH1 0x40 MLOAD PUSH3 0x461BCD PUSH1 0xE5 SHL DUP2 MSTORE PUSH1 0x20 PUSH1 0x4 DUP3 ADD MSTORE PUSH1 0x2E PUSH1 0x24 DUP3 ADD MSTORE PUSH32 0x4552433732313A2063616C6C6572206973206E6F7420746F6B656E206F776E65 PUSH1 0x44 DUP3 ADD MSTORE PUSH32 0x72206E6F7220617070726F766564000000000000000000000000000000000000 PUSH1 0x64 DUP3 ADD MSTORE PUSH1 0x84 ADD PUSH2 0xC7D JUMP JUMPDEST PUSH2 0xC90 DUP4 DUP4 DUP4 PUSH2 0x36BC JUMP JUMPDEST PUSH2 0x3242 PUSH2 0x3150 JUMP JUMPDEST PUSH1 0x1 PUSH1 0x1 PUSH1 0xA0 SHL SUB AND PUSH2 0x325D PUSH1 0xFB SLOAD PUSH1 0x1 PUSH1 0x1 PUSH1 0xA0 SHL SUB AND SWAP1 JUMP JUMPDEST PUSH1 0x1 PUSH1 0x1 PUSH1 0xA0 SHL SUB AND EQ DUP1 PUSH2 0x3278 JUMPI POP PUSH2 0x3278 PUSH2 0x4F4 PUSH2 0x3150 JUMP JUMPDEST PUSH2 0x13CD JUMPI PUSH1 0x40 MLOAD PUSH3 0x461BCD PUSH1 0xE5 SHL DUP2 MSTORE PUSH1 0x20 PUSH1 0x4 DUP3 ADD MSTORE PUSH1 0x1C PUSH1 0x24 DUP3 ADD MSTORE PUSH32 0x63616C6C6572206973206E6F74206F776E6572206F722061646D696E00000000 PUSH1 0x44 DUP3 ADD MSTORE PUSH1 0x64 ADD PUSH2 0xC7D JUMP JUMPDEST PUSH32 0x4910FDFA16FED3260ED0E7147F7CC6DA11A60208B5B9406D12A635614FFD9143 SLOAD PUSH1 0xFF AND ISZERO PUSH2 0x32F7 JUMPI PUSH2 0xC90 DUP4 PUSH2 0x422B JUMP JUMPDEST DUP3 PUSH1 0x1 PUSH1 0x1 PUSH1 0xA0 SHL SUB AND PUSH4 0x52D1902D PUSH1 0x40 MLOAD DUP2 PUSH4 0xFFFFFFFF AND PUSH1 0xE0 SHL DUP2 MSTORE PUSH1 0x4 ADD PUSH1 0x20 PUSH1 0x40 MLOAD DUP1 DUP4 SUB DUP2 DUP7 GAS STATICCALL SWAP3 POP POP POP DUP1 ISZERO PUSH2 0x336F JUMPI POP PUSH1 0x40 DUP1 MLOAD PUSH1 0x1F RETURNDATASIZE SWAP1 DUP2 ADD PUSH32 0xFFFFFFFFFFFFFFFFFFFFFFFFFFFFFFFFFFFFFFFFFFFFFFFFFFFFFFFFFFFFFFE0 AND DUP3 ADD SWAP1 SWAP3 MSTORE PUSH2 0x336C SWAP2 DUP2 ADD SWAP1 PUSH2 0x59DA JUMP JUMPDEST PUSH1 0x1 JUMPDEST PUSH2 0x33E1 JUMPI PUSH1 0x40 MLOAD PUSH3 0x461BCD PUSH1 0xE5 SHL DUP2 MSTORE PUSH1 0x20 PUSH1 0x4 DUP3 ADD MSTORE PUSH1 0x2E PUSH1 0x24 DUP3 ADD MSTORE PUSH32 0x45524331393637557067726164653A206E657720696D706C656D656E74617469 PUSH1 0x44 DUP3 ADD MSTORE PUSH32 0x6F6E206973206E6F742055555053000000000000000000000000000000000000 PUSH1 0x64 DUP3 ADD MSTORE PUSH1 0x84 ADD PUSH2 0xC7D JUMP JUMPDEST PUSH32 0x360894A13BA1A3210667C828492DB98DCA3E2076CC3735A920A3CA505D382BBC DUP2 EQ PUSH2 0x3476 JUMPI PUSH1 0x40 MLOAD PUSH3 0x461BCD PUSH1 0xE5 SHL DUP2 MSTORE PUSH1 0x20 PUSH1 0x4 DUP3 ADD MSTORE PUSH1 0x29 PUSH1 0x24 DUP3 ADD MSTORE PUSH32 0x45524331393637557067726164653A20756E737570706F727465642070726F78 PUSH1 0x44 DUP3 ADD MSTORE PUSH32 0x6961626C65555549440000000000000000000000000000000000000000000000 PUSH1 0x64 DUP3 ADD MSTORE PUSH1 0x84 ADD PUSH2 0xC7D JUMP JUMPDEST POP PUSH2 0xC90 DUP4 DUP4 DUP4 PUSH2 0x4301 JUMP JUMPDEST PUSH2 0x348A PUSH2 0x4326 JUMP JUMPDEST PUSH1 0xC9 DUP1 SLOAD PUSH32 0xFFFFFFFFFFFFFFFFFFFFFFFFFFFFFFFFFFFFFFFFFFFFFFFFFFFFFFFFFFFFFF00 AND SWAP1 SSTORE PUSH32 0x5DB9EE0A495BF2E6FF9C91A7834C1BA4FDD244A5E8AA4E537BD38AEAE4B073AA PUSH2 0x34DB PUSH2 0x3150 JUMP JUMPDEST PUSH1 0x40 MLOAD PUSH1 0x1 PUSH1 0x1 PUSH1 0xA0 SHL SUB SWAP1 SWAP2 AND DUP2 MSTORE PUSH1 0x20 ADD PUSH1 0x40 MLOAD DUP1 SWAP2 SUB SWAP1 LOG1 JUMP JUMPDEST PUSH2 0xC90 DUP4 DUP4 DUP4 PUSH1 0x40 MLOAD DUP1 PUSH1 0x20 ADD PUSH1 0x40 MSTORE DUP1 PUSH1 0x0 DUP2 MSTORE POP PUSH2 0x24AC JUMP JUMPDEST PUSH1 0x0 DUP1 PUSH2 0x351F DUP4 PUSH2 0x18FB JUMP JUMPDEST SWAP1 POP DUP1 PUSH1 0x1 PUSH1 0x1 PUSH1 0xA0 SHL SUB AND DUP5 PUSH1 0x1 PUSH1 0x1 PUSH1 0xA0 SHL SUB AND EQ DUP1 PUSH2 0x3546 JUMPI POP PUSH2 0x3546 DUP2 DUP6 PUSH2 0x2AF8 JUMP JUMPDEST DUP1 PUSH2 0x2149 JUMPI POP DUP4 PUSH1 0x1 PUSH1 0x1 PUSH1 0xA0 SHL SUB AND PUSH2 0x355F DUP5 PUSH2 0xB6E JUMP JUMPDEST PUSH1 0x1 PUSH1 0x1 PUSH1 0xA0 SHL SUB AND EQ SWAP5 SWAP4 POP POP POP POP JUMP JUMPDEST PUSH2 0x357A DUP2 PUSH2 0x4378 JUMP JUMPDEST PUSH1 0x0 SWAP1 DUP2 MSTORE PUSH2 0x194 PUSH1 0x20 SWAP1 DUP2 MSTORE PUSH1 0x40 DUP1 DUP4 KECCAK256 DUP4 SWAP1 SSTORE PUSH2 0x195 DUP3 MSTORE DUP1 DUP4 KECCAK256 DUP1 SLOAD PUSH32 0xFFFFFFFFFFFFFFFFFFFFFFFFFFFFFFFFFFFFFFFFFFFFFFFFFFFFFFFFFFFFFF00 AND SWAP1 SSTORE PUSH2 0x198 SWAP1 SWAP2 MSTORE SWAP1 KECCAK256 DUP1 SLOAD PUSH32 0xFFFFFFFFFFFFFFFFFFFFFFFFFFFFFFFFFFFFFFFFFFFFFFFF0000000000000000 AND SWAP1 SSTORE JUMP JUMPDEST PUSH2 0x35F6 DUP2 PUSH2 0x2E7B JUMP JUMPDEST PUSH1 0x0 DUP2 DUP2 MSTORE PUSH2 0x195 PUSH1 0x20 MSTORE PUSH1 0x40 SWAP1 KECCAK256 SLOAD PUSH1 0xFF AND PUSH2 0x13CD JUMPI PUSH1 0x40 MLOAD PUSH3 0x461BCD PUSH1 0xE5 SHL DUP2 MSTORE PUSH1 0x20 PUSH1 0x4 DUP3 ADD MSTORE PUSH1 0x13 PUSH1 0x24 DUP3 ADD MSTORE PUSH32 0x546F6B656E206973206E6F742066726F7A656E00000000000000000000000000 PUSH1 0x44 DUP3 ADD MSTORE PUSH1 0x64 ADD PUSH2 0xC7D JUMP JUMPDEST PUSH1 0x0 DUP2 DUP2 MSTORE PUSH2 0x195 PUSH1 0x20 MSTORE PUSH1 0x40 SWAP1 DUP2 SWAP1 KECCAK256 DUP1 SLOAD PUSH32 0xFFFFFFFFFFFFFFFFFFFFFFFFFFFFFFFFFFFFFFFFFFFFFFFFFFFFFFFFFFFFFF00 AND SWAP1 SSTORE MLOAD PUSH32 0x83EEA12772AB70FBA01C8212D02F3BC5DC29B8540DCDC84298E5DFA22731B92 SWAP1 PUSH2 0xDC6 SWAP1 DUP4 DUP2 MSTORE PUSH1 0x20 ADD SWAP1 JUMP JUMPDEST DUP3 PUSH1 0x1 PUSH1 0x1 PUSH1 0xA0 SHL SUB AND PUSH2 0x36CF DUP3 PUSH2 0x18FB JUMP JUMPDEST PUSH1 0x1 PUSH1 0x1 PUSH1 0xA0 SHL SUB AND EQ PUSH2 0x374B JUMPI PUSH1 0x40 MLOAD PUSH3 0x461BCD PUSH1 0xE5 SHL DUP2 MSTORE PUSH1 0x20 PUSH1 0x4 DUP3 ADD MSTORE PUSH1 0x25 PUSH1 0x24 DUP3 ADD MSTORE PUSH32 0x4552433732313A207472616E736665722066726F6D20696E636F727265637420 PUSH1 0x44 DUP3 ADD MSTORE PUSH32 0x6F776E6572000000000000000000000000000000000000000000000000000000 PUSH1 0x64 DUP3 ADD MSTORE PUSH1 0x84 ADD PUSH2 0xC7D JUMP JUMPDEST PUSH1 0x1 PUSH1 0x1 PUSH1 0xA0 SHL SUB DUP3 AND PUSH2 0x37C6 JUMPI PUSH1 0x40 MLOAD PUSH3 0x461BCD PUSH1 0xE5 SHL DUP2 MSTORE PUSH1 0x20 PUSH1 0x4 DUP3 ADD MSTORE PUSH1 0x24 DUP1 DUP3 ADD MSTORE PUSH32 0x4552433732313A207472616E7366657220746F20746865207A65726F20616464 PUSH1 0x44 DUP3 ADD MSTORE PUSH32 0x7265737300000000000000000000000000000000000000000000000000000000 PUSH1 0x64 DUP3 ADD MSTORE PUSH1 0x84 ADD PUSH2 0xC7D JUMP JUMPDEST PUSH2 0x37D1 DUP4 DUP4 DUP4 PUSH2 0x4437 JUMP JUMPDEST PUSH2 0x37DC PUSH1 0x0 DUP3 PUSH2 0x4152 JUMP JUMPDEST PUSH1 0x1 PUSH1 0x1 PUSH1 0xA0 SHL SUB DUP4 AND PUSH1 0x0 SWAP1 DUP2 MSTORE PUSH1 0x68 PUSH1 0x20 MSTORE PUSH1 0x40 DUP2 KECCAK256 DUP1 SLOAD PUSH1 0x1 SWAP3 SWAP1 PUSH2 0x3805 SWAP1 DUP5 SWAP1 PUSH2 0x59AF JUMP JUMPDEST SWAP1 SWAP2 SSTORE POP POP PUSH1 0x1 PUSH1 0x1 PUSH1 0xA0 SHL SUB DUP3 AND PUSH1 0x0 SWAP1 DUP2 MSTORE PUSH1 0x68 PUSH1 0x20 MSTORE PUSH1 0x40 DUP2 KECCAK256 DUP1 SLOAD PUSH1 0x1 SWAP3 SWAP1 PUSH2 0x3833 SWAP1 DUP5 SWAP1 PUSH2 0x5912 JUMP JUMPDEST SWAP1 SWAP2 SSTORE POP POP PUSH1 0x0 DUP2 DUP2 MSTORE PUSH1 0x67 PUSH1 0x20 MSTORE PUSH1 0x40 DUP1 DUP3 KECCAK256 DUP1 SLOAD PUSH32 0xFFFFFFFFFFFFFFFFFFFFFFFF0000000000000000000000000000000000000000 AND PUSH1 0x1 PUSH1 0x1 PUSH1 0xA0 SHL SUB DUP7 DUP2 AND SWAP2 DUP3 OR SWAP1 SWAP3 SSTORE SWAP2 MLOAD DUP5 SWAP4 SWAP2 DUP8 AND SWAP2 PUSH32 0xDDF252AD1BE2C89B69C2B068FC378DAA952BA7F163C4A11628F55A4DF523B3EF SWAP2 LOG4 POP POP POP JUMP JUMPDEST PUSH2 0x2710 PUSH12 0xFFFFFFFFFFFFFFFFFFFFFFFF DUP3 AND GT ISZERO PUSH2 0x3932 JUMPI PUSH1 0x40 MLOAD PUSH3 0x461BCD PUSH1 0xE5 SHL DUP2 MSTORE PUSH1 0x20 PUSH1 0x4 DUP3 ADD MSTORE PUSH1 0x2A PUSH1 0x24 DUP3 ADD MSTORE PUSH32 0x455243323938313A20726F79616C7479206665652077696C6C20657863656564 PUSH1 0x44 DUP3 ADD MSTORE PUSH32 0x2073616C65507269636500000000000000000000000000000000000000000000 PUSH1 0x64 DUP3 ADD MSTORE PUSH1 0x84 ADD PUSH2 0xC7D JUMP JUMPDEST PUSH1 0x1 PUSH1 0x1 PUSH1 0xA0 SHL SUB DUP3 AND PUSH2 0x3988 JUMPI PUSH1 0x40 MLOAD PUSH3 0x461BCD PUSH1 0xE5 SHL DUP2 MSTORE PUSH1 0x20 PUSH1 0x4 DUP3 ADD MSTORE PUSH1 0x1B PUSH1 0x24 DUP3 ADD MSTORE PUSH32 0x455243323938313A20496E76616C696420706172616D65746572730000000000 PUSH1 0x44 DUP3 ADD MSTORE PUSH1 0x64 ADD PUSH2 0xC7D JUMP JUMPDEST PUSH1 0x40 DUP1 MLOAD DUP1 DUP3 ADD DUP3 MSTORE PUSH1 0x1 PUSH1 0x1 PUSH1 0xA0 SHL SUB SWAP4 DUP5 AND DUP2 MSTORE PUSH12 0xFFFFFFFFFFFFFFFFFFFFFFFF SWAP3 DUP4 AND PUSH1 0x20 DUP1 DUP4 ADD SWAP2 DUP3 MSTORE PUSH1 0x0 SWAP7 DUP8 MSTORE PUSH2 0x197 SWAP1 MSTORE SWAP2 SWAP1 SWAP5 KECCAK256 SWAP4 MLOAD SWAP1 MLOAD SWAP1 SWAP2 AND PUSH21 0x10000000000000000000000000000000000000000 MUL SWAP2 AND OR SWAP1 SSTORE JUMP JUMPDEST PUSH2 0x39F1 PUSH2 0x3150 JUMP JUMPDEST PUSH1 0x1 PUSH1 0x1 PUSH1 0xA0 SHL SUB AND PUSH2 0x3A0C PUSH1 0xFB SLOAD PUSH1 0x1 PUSH1 0x1 PUSH1 0xA0 SHL SUB AND SWAP1 JUMP JUMPDEST PUSH1 0x1 PUSH1 0x1 PUSH1 0xA0 SHL SUB AND EQ PUSH2 0x1462 JUMPI PUSH1 0x40 MLOAD PUSH3 0x461BCD PUSH1 0xE5 SHL DUP2 MSTORE PUSH1 0x20 PUSH1 0x4 DUP3 ADD DUP2 SWAP1 MSTORE PUSH1 0x24 DUP3 ADD MSTORE PUSH32 0x4F776E61626C653A2063616C6C6572206973206E6F7420746865206F776E6572 PUSH1 0x44 DUP3 ADD MSTORE PUSH1 0x64 ADD PUSH2 0xC7D JUMP JUMPDEST PUSH1 0xFB DUP1 SLOAD PUSH1 0x1 PUSH1 0x1 PUSH1 0xA0 SHL SUB DUP4 DUP2 AND PUSH32 0xFFFFFFFFFFFFFFFFFFFFFFFF0000000000000000000000000000000000000000 DUP4 AND DUP2 OR SWAP1 SWAP4 SSTORE PUSH1 0x40 MLOAD SWAP2 AND SWAP2 SWAP1 DUP3 SWAP1 PUSH32 0x8BE0079C531659141344CD1FD0A4F28419497F9722A3DAAFE3B4186F6B6457E0 SWAP1 PUSH1 0x0 SWAP1 LOG3 POP POP JUMP JUMPDEST PUSH1 0x0 DUP3 DUP2 MSTORE PUSH2 0x198 PUSH1 0x20 MSTORE PUSH1 0x40 DUP2 KECCAK256 SLOAD PUSH8 0xFFFFFFFFFFFFFFFF AND SWAP1 DUP2 PUSH2 0x3AFD JUMPI PUSH2 0x3AF6 DUP4 TIMESTAMP PUSH2 0x592A JUMP JUMPDEST SWAP1 POP PUSH2 0x3B0A JUMP JUMPDEST PUSH2 0x3B07 DUP4 DUP4 PUSH2 0x592A JUMP JUMPDEST SWAP1 POP JUMPDEST PUSH1 0x0 DUP5 DUP2 MSTORE PUSH2 0x198 PUSH1 0x20 SWAP1 DUP2 MSTORE PUSH1 0x40 SWAP2 DUP3 SWAP1 KECCAK256 DUP1 SLOAD PUSH32 0xFFFFFFFFFFFFFFFFFFFFFFFFFFFFFFFFFFFFFFFFFFFFFFFF0000000000000000 AND PUSH8 0xFFFFFFFFFFFFFFFF DUP6 AND SWAP1 DUP2 OR SWAP1 SWAP2 SSTORE SWAP2 MLOAD SWAP2 DUP3 MSTORE DUP6 SWAP2 PUSH32 0x2EC2BE2C4B90C2CF13ECB6751A24DAED6BB741AE5ED3F7371AABF9402F6D62E8 SWAP2 ADD PUSH1 0x40 MLOAD DUP1 SWAP2 SUB SWAP1 LOG2 POP POP POP POP JUMP JUMPDEST PUSH2 0x3B92 PUSH2 0x315F JUMP JUMPDEST PUSH1 0xC9 DUP1 SLOAD PUSH32 0xFFFFFFFFFFFFFFFFFFFFFFFFFFFFFFFFFFFFFFFFFFFFFFFFFFFFFFFFFFFFFF00 AND PUSH1 0x1 OR SWAP1 SSTORE PUSH32 0x62E78CEA01BEE320CD4E420270B5EA74000D11B0C9F74754EBDBFC544B05A258 PUSH2 0x34DB PUSH2 0x3150 JUMP JUMPDEST PUSH1 0x0 SLOAD PUSH2 0x100 SWAP1 DIV PUSH1 0xFF AND PUSH2 0x3C63 JUMPI PUSH1 0x40 MLOAD PUSH3 0x461BCD PUSH1 0xE5 SHL DUP2 MSTORE PUSH1 0x20 PUSH1 0x4 DUP3 ADD MSTORE PUSH1 0x2B PUSH1 0x24 DUP3 ADD MSTORE PUSH32 0x496E697469616C697A61626C653A20636F6E7472616374206973206E6F742069 PUSH1 0x44 DUP3 ADD MSTORE PUSH32 0x6E697469616C697A696E67000000000000000000000000000000000000000000 PUSH1 0x64 DUP3 ADD MSTORE PUSH1 0x84 ADD PUSH2 0xC7D JUMP JUMPDEST PUSH2 0x1778 DUP3 DUP3 PUSH2 0x4507 JUMP JUMPDEST PUSH1 0x0 SLOAD PUSH2 0x100 SWAP1 DIV PUSH1 0xFF AND PUSH2 0x3CEA JUMPI PUSH1 0x40 MLOAD PUSH3 0x461BCD PUSH1 0xE5 SHL DUP2 MSTORE PUSH1 0x20 PUSH1 0x4 DUP3 ADD MSTORE PUSH1 0x2B PUSH1 0x24 DUP3 ADD MSTORE PUSH32 0x496E697469616C697A61626C653A20636F6E7472616374206973206E6F742069 PUSH1 0x44 DUP3 ADD MSTORE PUSH32 0x6E697469616C697A696E67000000000000000000000000000000000000000000 PUSH1 0x64 DUP3 ADD MSTORE PUSH1 0x84 ADD PUSH2 0xC7D JUMP JUMPDEST PUSH2 0x1462 PUSH2 0x45AB JUMP JUMPDEST PUSH1 0x0 SLOAD PUSH2 0x100 SWAP1 DIV PUSH1 0xFF AND PUSH2 0x3D6F JUMPI PUSH1 0x40 MLOAD PUSH3 0x461BCD PUSH1 0xE5 SHL DUP2 MSTORE PUSH1 0x20 PUSH1 0x4 DUP3 ADD MSTORE PUSH1 0x2B PUSH1 0x24 DUP3 ADD MSTORE PUSH32 0x496E697469616C697A61626C653A20636F6E7472616374206973206E6F742069 PUSH1 0x44 DUP3 ADD MSTORE PUSH32 0x6E697469616C697A696E67000000000000000000000000000000000000000000 PUSH1 0x64 DUP3 ADD MSTORE PUSH1 0x84 ADD PUSH2 0xC7D JUMP JUMPDEST PUSH2 0x1462 PUSH2 0x4652 JUMP JUMPDEST PUSH1 0x0 SLOAD PUSH2 0x100 SWAP1 DIV PUSH1 0xFF AND PUSH2 0x1462 JUMPI PUSH1 0x40 MLOAD PUSH3 0x461BCD PUSH1 0xE5 SHL DUP2 MSTORE PUSH1 0x20 PUSH1 0x4 DUP3 ADD MSTORE PUSH1 0x2B PUSH1 0x24 DUP3 ADD MSTORE PUSH32 0x496E697469616C697A61626C653A20636F6E7472616374206973206E6F742069 PUSH1 0x44 DUP3 ADD MSTORE PUSH32 0x6E697469616C697A696E67000000000000000000000000000000000000000000 PUSH1 0x64 DUP3 ADD MSTORE PUSH1 0x84 ADD PUSH2 0xC7D JUMP JUMPDEST PUSH1 0x0 SLOAD PUSH2 0x100 SWAP1 DIV PUSH1 0xFF AND PUSH2 0x3E71 JUMPI PUSH1 0x40 MLOAD PUSH3 0x461BCD PUSH1 0xE5 SHL DUP2 MSTORE PUSH1 0x20 PUSH1 0x4 DUP3 ADD MSTORE PUSH1 0x2B PUSH1 0x24 DUP3 ADD MSTORE PUSH32 0x496E697469616C697A61626C653A20636F6E7472616374206973206E6F742069 PUSH1 0x44 DUP3 ADD MSTORE PUSH32 0x6E697469616C697A696E67000000000000000000000000000000000000000000 PUSH1 0x64 DUP3 ADD MSTORE PUSH1 0x84 ADD PUSH2 0xC7D JUMP JUMPDEST PUSH2 0x1462 PUSH20 0x3CC6CDDA760B79BAFA08DF41ECFA224F810DCEB6 PUSH1 0x1 PUSH2 0x46DF JUMP JUMPDEST PUSH1 0x0 PUSH2 0x3E9C DUP5 DUP7 PUSH2 0x4938 JUMP JUMPDEST PUSH1 0x0 DUP6 DUP2 MSTORE PUSH2 0x194 PUSH1 0x20 MSTORE PUSH1 0x40 SWAP1 KECCAK256 DUP7 SWAP1 SSTORE DUP3 ISZERO PUSH2 0x3EBD JUMPI PUSH2 0x3EBD DUP6 PUSH2 0x286A JUMP JUMPDEST PUSH8 0xFFFFFFFFFFFFFFFF DUP3 AND ISZERO PUSH2 0x3ED7 JUMPI PUSH2 0x3ED7 DUP6 DUP4 PUSH2 0x3ACC JUMP JUMPDEST POP PUSH1 0x1 SWAP6 SWAP5 POP POP POP POP POP JUMP JUMPDEST PUSH1 0x0 PUSH2 0x3EEF DUP4 DUP6 PUSH2 0x4938 JUMP JUMPDEST PUSH1 0x0 DUP5 DUP2 MSTORE PUSH2 0x194 PUSH1 0x20 MSTORE PUSH1 0x40 SWAP1 KECCAK256 DUP6 SWAP1 SSTORE DUP2 ISZERO PUSH2 0x3F10 JUMPI PUSH2 0x3F10 DUP5 PUSH2 0x286A JUMP JUMPDEST POP PUSH1 0x1 SWAP5 SWAP4 POP POP POP POP JUMP JUMPDEST PUSH2 0x1778 PUSH2 0x3F26 PUSH2 0x3150 JUMP JUMPDEST DUP4 DUP4 PUSH2 0x4A9E JUMP JUMPDEST PUSH2 0x3F3E PUSH2 0x3F38 PUSH2 0x3150 JUMP JUMPDEST DUP4 PUSH2 0x3513 JUMP JUMPDEST PUSH2 0x3FB0 JUMPI PUSH1 0x40 MLOAD PUSH3 0x461BCD PUSH1 0xE5 SHL DUP2 MSTORE PUSH1 0x20 PUSH1 0x4 DUP3 ADD MSTORE PUSH1 0x2E PUSH1 0x24 DUP3 ADD MSTORE PUSH32 0x4552433732313A2063616C6C6572206973206E6F7420746F6B656E206F776E65 PUSH1 0x44 DUP3 ADD MSTORE PUSH32 0x72206E6F7220617070726F766564000000000000000000000000000000000000 PUSH1 0x64 DUP3 ADD MSTORE PUSH1 0x84 ADD PUSH2 0xC7D JUMP JUMPDEST PUSH2 0x111A DUP5 DUP5 DUP5 DUP5 PUSH2 0x4B8B JUMP JUMPDEST PUSH2 0x2710 PUSH12 0xFFFFFFFFFFFFFFFFFFFFFFFF DUP3 AND GT ISZERO PUSH2 0x4042 JUMPI PUSH1 0x40 MLOAD PUSH3 0x461BCD PUSH1 0xE5 SHL DUP2 MSTORE PUSH1 0x20 PUSH1 0x4 DUP3 ADD MSTORE PUSH1 0x2A PUSH1 0x24 DUP3 ADD MSTORE PUSH32 0x455243323938313A20726F79616C7479206665652077696C6C20657863656564 PUSH1 0x44 DUP3 ADD MSTORE PUSH32 0x2073616C65507269636500000000000000000000000000000000000000000000 PUSH1 0x64 DUP3 ADD MSTORE PUSH1 0x84 ADD PUSH2 0xC7D JUMP JUMPDEST PUSH1 0x1 PUSH1 0x1 PUSH1 0xA0 SHL SUB DUP3 AND PUSH2 0x4098 JUMPI PUSH1 0x40 MLOAD PUSH3 0x461BCD PUSH1 0xE5 SHL DUP2 MSTORE PUSH1 0x20 PUSH1 0x4 DUP3 ADD MSTORE PUSH1 0x19 PUSH1 0x24 DUP3 ADD MSTORE PUSH32 0x455243323938313A20696E76616C696420726563656976657200000000000000 PUSH1 0x44 DUP3 ADD MSTORE PUSH1 0x64 ADD PUSH2 0xC7D JUMP JUMPDEST PUSH1 0x40 DUP1 MLOAD DUP1 DUP3 ADD SWAP1 SWAP2 MSTORE PUSH1 0x1 PUSH1 0x1 PUSH1 0xA0 SHL SUB SWAP1 SWAP3 AND DUP1 DUP4 MSTORE PUSH12 0xFFFFFFFFFFFFFFFFFFFFFFFF SWAP1 SWAP2 AND PUSH1 0x20 SWAP1 SWAP3 ADD DUP3 SWAP1 MSTORE PUSH21 0x10000000000000000000000000000000000000000 SWAP1 SWAP2 MUL OR PUSH2 0x196 SSTORE JUMP JUMPDEST PUSH1 0x0 DUP2 DUP2 MSTORE PUSH2 0x195 PUSH1 0x20 MSTORE PUSH1 0x40 SWAP1 DUP2 SWAP1 KECCAK256 DUP1 SLOAD PUSH32 0xFFFFFFFFFFFFFFFFFFFFFFFFFFFFFFFFFFFFFFFFFFFFFFFFFFFFFFFFFFFFFF00 AND PUSH1 0x1 OR SWAP1 SSTORE MLOAD PUSH32 0x4D69B51FEE53C28BD8B61FE008151577CA65160B5248F6225E74D64FD4CF7328 SWAP1 PUSH2 0xDC6 SWAP1 DUP4 DUP2 MSTORE PUSH1 0x20 ADD SWAP1 JUMP JUMPDEST PUSH1 0x0 DUP2 DUP2 MSTORE PUSH1 0x69 PUSH1 0x20 MSTORE PUSH1 0x40 SWAP1 KECCAK256 DUP1 SLOAD PUSH32 0xFFFFFFFFFFFFFFFFFFFFFFFF0000000000000000000000000000000000000000 AND PUSH1 0x1 PUSH1 0x1 PUSH1 0xA0 SHL SUB DUP5 AND SWAP1 DUP2 OR SWAP1 SWAP2 SSTORE DUP2 SWAP1 PUSH2 0x419F DUP3 PUSH2 0x18FB JUMP JUMPDEST PUSH1 0x1 PUSH1 0x1 PUSH1 0xA0 SHL SUB AND PUSH32 0x8C5BE1E5EBEC7D5BD14F71427D1E84F3DD0314C0F7B2291E5B200AC8C7C3B925 PUSH1 0x40 MLOAD PUSH1 0x40 MLOAD DUP1 SWAP2 SUB SWAP1 LOG4 POP POP JUMP JUMPDEST PUSH1 0x0 PUSH1 0x14 CALLDATASIZE LT DUP1 ISZERO SWAP1 PUSH2 0x41F6 JUMPI POP PUSH2 0x191 SLOAD PUSH1 0x1 PUSH1 0x1 PUSH1 0xA0 SHL SUB AND CALLER EQ JUMPDEST ISZERO PUSH2 0x4226 JUMPI POP PUSH32 0xFFFFFFFFFFFFFFFFFFFFFFFFFFFFFFFFFFFFFFFFFFFFFFFFFFFFFFFFFFFFFFEC CALLDATASIZE ADD CALLDATALOAD PUSH1 0x60 SHR SWAP1 JUMP JUMPDEST POP CALLER SWAP1 JUMP JUMPDEST PUSH1 0x1 PUSH1 0x1 PUSH1 0xA0 SHL SUB DUP2 AND EXTCODESIZE PUSH2 0x42A8 JUMPI PUSH1 0x40 MLOAD PUSH3 0x461BCD PUSH1 0xE5 SHL DUP2 MSTORE PUSH1 0x20 PUSH1 0x4 DUP3 ADD MSTORE PUSH1 0x2D PUSH1 0x24 DUP3 ADD MSTORE PUSH32 0x455243313936373A206E657720696D706C656D656E746174696F6E206973206E PUSH1 0x44 DUP3 ADD MSTORE PUSH32 0x6F74206120636F6E747261637400000000000000000000000000000000000000 PUSH1 0x64 DUP3 ADD MSTORE PUSH1 0x84 ADD PUSH2 0xC7D JUMP JUMPDEST PUSH32 0x360894A13BA1A3210667C828492DB98DCA3E2076CC3735A920A3CA505D382BBC DUP1 SLOAD PUSH32 0xFFFFFFFFFFFFFFFFFFFFFFFF0000000000000000000000000000000000000000 AND PUSH1 0x1 PUSH1 0x1 PUSH1 0xA0 SHL SUB SWAP3 SWAP1 SWAP3 AND SWAP2 SWAP1 SWAP2 OR SWAP1 SSTORE JUMP JUMPDEST PUSH2 0x430A DUP4 PUSH2 0x4C14 JUMP JUMPDEST PUSH1 0x0 DUP3 MLOAD GT DUP1 PUSH2 0x4317 JUMPI POP DUP1 JUMPDEST ISZERO PUSH2 0xC90 JUMPI PUSH2 0x111A DUP4 DUP4 PUSH2 0x4C54 JUMP JUMPDEST PUSH1 0xC9 SLOAD PUSH1 0xFF AND PUSH2 0x1462 JUMPI PUSH1 0x40 MLOAD PUSH3 0x461BCD PUSH1 0xE5 SHL DUP2 MSTORE PUSH1 0x20 PUSH1 0x4 DUP3 ADD MSTORE PUSH1 0x14 PUSH1 0x24 DUP3 ADD MSTORE PUSH32 0x5061757361626C653A206E6F7420706175736564000000000000000000000000 PUSH1 0x44 DUP3 ADD MSTORE PUSH1 0x64 ADD PUSH2 0xC7D JUMP JUMPDEST PUSH1 0x0 PUSH2 0x4383 DUP3 PUSH2 0x18FB JUMP JUMPDEST SWAP1 POP PUSH2 0x4391 DUP2 PUSH1 0x0 DUP5 PUSH2 0x4437 JUMP JUMPDEST PUSH2 0x439C PUSH1 0x0 DUP4 PUSH2 0x4152 JUMP JUMPDEST PUSH1 0x1 PUSH1 0x1 PUSH1 0xA0 SHL SUB DUP2 AND PUSH1 0x0 SWAP1 DUP2 MSTORE PUSH1 0x68 PUSH1 0x20 MSTORE PUSH1 0x40 DUP2 KECCAK256 DUP1 SLOAD PUSH1 0x1 SWAP3 SWAP1 PUSH2 0x43C5 SWAP1 DUP5 SWAP1 PUSH2 0x59AF JUMP JUMPDEST SWAP1 SWAP2 SSTORE POP POP PUSH1 0x0 DUP3 DUP2 MSTORE PUSH1 0x67 PUSH1 0x20 MSTORE PUSH1 0x40 DUP1 DUP3 KECCAK256 DUP1 SLOAD PUSH32 0xFFFFFFFFFFFFFFFFFFFFFFFF0000000000000000000000000000000000000000 AND SWAP1 SSTORE MLOAD DUP4 SWAP2 SWAP1 PUSH1 0x1 PUSH1 0x1 PUSH1 0xA0 SHL SUB DUP5 AND SWAP1 PUSH32 0xDDF252AD1BE2C89B69C2B068FC378DAA952BA7F163C4A11628F55A4DF523B3EF SWAP1 DUP4 SWAP1 LOG4 POP POP JUMP JUMPDEST PUSH2 0x443F PUSH2 0x315F JUMP JUMPDEST PUSH1 0x40 MLOAD PUSH32 0xA089479900000000000000000000000000000000000000000000000000000000 DUP2 MSTORE PUSH1 0x4 DUP2 ADD DUP3 SWAP1 MSTORE DUP2 SWAP1 ADDRESS SWAP1 PUSH4 0xA0894799 SWAP1 PUSH1 0x24 ADD PUSH1 0x20 PUSH1 0x40 MLOAD DUP1 DUP4 SUB DUP2 DUP7 GAS STATICCALL ISZERO DUP1 ISZERO PUSH2 0x4496 JUMPI RETURNDATASIZE PUSH1 0x0 DUP1 RETURNDATACOPY RETURNDATASIZE PUSH1 0x0 REVERT JUMPDEST POP POP POP POP PUSH1 0x40 MLOAD RETURNDATASIZE PUSH1 0x1F NOT PUSH1 0x1F DUP3 ADD AND DUP3 ADD DUP1 PUSH1 0x40 MSTORE POP DUP2 ADD SWAP1 PUSH2 0x44BA SWAP2 SWAP1 PUSH2 0x56E8 JUMP JUMPDEST ISZERO PUSH2 0x101C JUMPI PUSH1 0x40 MLOAD PUSH3 0x461BCD PUSH1 0xE5 SHL DUP2 MSTORE PUSH1 0x20 PUSH1 0x4 DUP3 ADD MSTORE PUSH1 0xF PUSH1 0x24 DUP3 ADD MSTORE PUSH32 0x546F6B656E2069732066726F7A656E0000000000000000000000000000000000 PUSH1 0x44 DUP3 ADD MSTORE PUSH1 0x64 ADD PUSH2 0xC7D JUMP JUMPDEST PUSH1 0x0 SLOAD PUSH2 0x100 SWAP1 DIV PUSH1 0xFF AND PUSH2 0x4584 JUMPI PUSH1 0x40 MLOAD PUSH3 0x461BCD PUSH1 0xE5 SHL DUP2 MSTORE PUSH1 0x20 PUSH1 0x4 DUP3 ADD MSTORE PUSH1 0x2B PUSH1 0x24 DUP3 ADD MSTORE PUSH32 0x496E697469616C697A61626C653A20636F6E7472616374206973206E6F742069 PUSH1 0x44 DUP3 ADD MSTORE PUSH32 0x6E697469616C697A696E67000000000000000000000000000000000000000000 PUSH1 0x64 DUP3 ADD MSTORE PUSH1 0x84 ADD PUSH2 0xC7D JUMP JUMPDEST DUP2 MLOAD PUSH2 0x4597 SWAP1 PUSH1 0x65 SWAP1 PUSH1 0x20 DUP6 ADD SWAP1 PUSH2 0x4F3F JUMP JUMPDEST POP DUP1 MLOAD PUSH2 0xC90 SWAP1 PUSH1 0x66 SWAP1 PUSH1 0x20 DUP5 ADD SWAP1 PUSH2 0x4F3F JUMP JUMPDEST PUSH1 0x0 SLOAD PUSH2 0x100 SWAP1 DIV PUSH1 0xFF AND PUSH2 0x4628 JUMPI PUSH1 0x40 MLOAD PUSH3 0x461BCD PUSH1 0xE5 SHL DUP2 MSTORE PUSH1 0x20 PUSH1 0x4 DUP3 ADD MSTORE PUSH1 0x2B PUSH1 0x24 DUP3 ADD MSTORE PUSH32 0x496E697469616C697A61626C653A20636F6E7472616374206973206E6F742069 PUSH1 0x44 DUP3 ADD MSTORE PUSH32 0x6E697469616C697A696E67000000000000000000000000000000000000000000 PUSH1 0x64 DUP3 ADD MSTORE PUSH1 0x84 ADD PUSH2 0xC7D JUMP JUMPDEST PUSH1 0xC9 DUP1 SLOAD PUSH32 0xFFFFFFFFFFFFFFFFFFFFFFFFFFFFFFFFFFFFFFFFFFFFFFFFFFFFFFFFFFFFFF00 AND SWAP1 SSTORE JUMP JUMPDEST PUSH1 0x0 SLOAD PUSH2 0x100 SWAP1 DIV PUSH1 0xFF AND PUSH2 0x46CF JUMPI PUSH1 0x40 MLOAD PUSH3 0x461BCD PUSH1 0xE5 SHL DUP2 MSTORE PUSH1 0x20 PUSH1 0x4 DUP3 ADD MSTORE PUSH1 0x2B PUSH1 0x24 DUP3 ADD MSTORE PUSH32 0x496E697469616C697A61626C653A20636F6E7472616374206973206E6F742069 PUSH1 0x44 DUP3 ADD MSTORE PUSH32 0x6E697469616C697A696E67000000000000000000000000000000000000000000 PUSH1 0x64 DUP3 ADD MSTORE PUSH1 0x84 ADD PUSH2 0xC7D JUMP JUMPDEST PUSH2 0x1462 PUSH2 0x46DA PUSH2 0x3150 JUMP JUMPDEST PUSH2 0x3A62 JUMP JUMPDEST PUSH1 0x0 SLOAD PUSH2 0x100 SWAP1 DIV PUSH1 0xFF AND PUSH2 0x475C JUMPI PUSH1 0x40 MLOAD PUSH3 0x461BCD PUSH1 0xE5 SHL DUP2 MSTORE PUSH1 0x20 PUSH1 0x4 DUP3 ADD MSTORE PUSH1 0x2B PUSH1 0x24 DUP3 ADD MSTORE PUSH32 0x496E697469616C697A61626C653A20636F6E7472616374206973206E6F742069 PUSH1 0x44 DUP3 ADD MSTORE PUSH32 0x6E697469616C697A696E67000000000000000000000000000000000000000000 PUSH1 0x64 DUP3 ADD MSTORE PUSH1 0x84 ADD PUSH2 0xC7D JUMP JUMPDEST PUSH14 0xAAEB6D7670E522A718067333CD4E EXTCODESIZE ISZERO PUSH2 0x1778 JUMPI PUSH1 0x40 MLOAD PUSH32 0xC3C5A54700000000000000000000000000000000000000000000000000000000 DUP2 MSTORE ADDRESS PUSH1 0x4 DUP3 ADD MSTORE PUSH14 0xAAEB6D7670E522A718067333CD4E SWAP1 PUSH4 0xC3C5A547 SWAP1 PUSH1 0x24 ADD PUSH1 0x20 PUSH1 0x40 MLOAD DUP1 DUP4 SUB DUP2 PUSH1 0x0 DUP8 GAS CALL ISZERO DUP1 ISZERO PUSH2 0x47D5 JUMPI RETURNDATASIZE PUSH1 0x0 DUP1 RETURNDATACOPY RETURNDATASIZE PUSH1 0x0 REVERT JUMPDEST POP POP POP POP PUSH1 0x40 MLOAD RETURNDATASIZE PUSH1 0x1F NOT PUSH1 0x1F DUP3 ADD AND DUP3 ADD DUP1 PUSH1 0x40 MSTORE POP DUP2 ADD SWAP1 PUSH2 0x47F9 SWAP2 SWAP1 PUSH2 0x56E8 JUMP JUMPDEST PUSH2 0x1778 JUMPI DUP1 ISZERO PUSH2 0x4886 JUMPI PUSH1 0x40 MLOAD PUSH32 0x7D3E3DBE00000000000000000000000000000000000000000000000000000000 DUP2 MSTORE ADDRESS PUSH1 0x4 DUP3 ADD MSTORE PUSH1 0x1 PUSH1 0x1 PUSH1 0xA0 SHL SUB DUP4 AND PUSH1 0x24 DUP3 ADD MSTORE PUSH14 0xAAEB6D7670E522A718067333CD4E SWAP1 PUSH4 0x7D3E3DBE SWAP1 PUSH1 0x44 ADD JUMPDEST PUSH1 0x0 PUSH1 0x40 MLOAD DUP1 DUP4 SUB DUP2 PUSH1 0x0 DUP8 DUP1 EXTCODESIZE ISZERO DUP1 ISZERO PUSH2 0x4872 JUMPI PUSH1 0x0 DUP1 REVERT JUMPDEST POP GAS CALL ISZERO DUP1 ISZERO PUSH2 0x207F JUMPI RETURNDATASIZE PUSH1 0x0 DUP1 RETURNDATACOPY RETURNDATASIZE PUSH1 0x0 REVERT JUMPDEST PUSH1 0x1 PUSH1 0x1 PUSH1 0xA0 SHL SUB DUP3 AND ISZERO PUSH2 0x48EE JUMPI PUSH1 0x40 MLOAD PUSH32 0xA0AF290300000000000000000000000000000000000000000000000000000000 DUP2 MSTORE ADDRESS PUSH1 0x4 DUP3 ADD MSTORE PUSH1 0x1 PUSH1 0x1 PUSH1 0xA0 SHL SUB DUP4 AND PUSH1 0x24 DUP3 ADD MSTORE PUSH14 0xAAEB6D7670E522A718067333CD4E SWAP1 PUSH4 0xA0AF2903 SWAP1 PUSH1 0x44 ADD PUSH2 0x4858 JUMP JUMPDEST PUSH1 0x40 MLOAD PUSH32 0x4420E48600000000000000000000000000000000000000000000000000000000 DUP2 MSTORE ADDRESS PUSH1 0x4 DUP3 ADD MSTORE PUSH14 0xAAEB6D7670E522A718067333CD4E SWAP1 PUSH4 0x4420E486 SWAP1 PUSH1 0x24 ADD PUSH2 0x4858 JUMP JUMPDEST PUSH1 0x1 PUSH1 0x1 PUSH1 0xA0 SHL SUB DUP3 AND PUSH2 0x498E JUMPI PUSH1 0x40 MLOAD PUSH3 0x461BCD PUSH1 0xE5 SHL DUP2 MSTORE PUSH1 0x20 PUSH1 0x4 DUP3 ADD DUP2 SWAP1 MSTORE PUSH1 0x24 DUP3 ADD MSTORE PUSH32 0x4552433732313A206D696E7420746F20746865207A65726F2061646472657373 PUSH1 0x44 DUP3 ADD MSTORE PUSH1 0x64 ADD PUSH2 0xC7D JUMP JUMPDEST PUSH1 0x0 DUP2 DUP2 MSTORE PUSH1 0x67 PUSH1 0x20 MSTORE PUSH1 0x40 SWAP1 KECCAK256 SLOAD PUSH1 0x1 PUSH1 0x1 PUSH1 0xA0 SHL SUB AND ISZERO PUSH2 0x49F3 JUMPI PUSH1 0x40 MLOAD PUSH3 0x461BCD PUSH1 0xE5 SHL DUP2 MSTORE PUSH1 0x20 PUSH1 0x4 DUP3 ADD MSTORE PUSH1 0x1C PUSH1 0x24 DUP3 ADD MSTORE PUSH32 0x4552433732313A20746F6B656E20616C7265616479206D696E74656400000000 PUSH1 0x44 DUP3 ADD MSTORE PUSH1 0x64 ADD PUSH2 0xC7D JUMP JUMPDEST PUSH2 0x49FF PUSH1 0x0 DUP4 DUP4 PUSH2 0x4437 JUMP JUMPDEST PUSH1 0x1 PUSH1 0x1 PUSH1 0xA0 SHL SUB DUP3 AND PUSH1 0x0 SWAP1 DUP2 MSTORE PUSH1 0x68 PUSH1 0x20 MSTORE PUSH1 0x40 DUP2 KECCAK256 DUP1 SLOAD PUSH1 0x1 SWAP3 SWAP1 PUSH2 0x4A28 SWAP1 DUP5 SWAP1 PUSH2 0x5912 JUMP JUMPDEST SWAP1 SWAP2 SSTORE POP POP PUSH1 0x0 DUP2 DUP2 MSTORE PUSH1 0x67 PUSH1 0x20 MSTORE PUSH1 0x40 DUP1 DUP3 KECCAK256 DUP1 SLOAD PUSH32 0xFFFFFFFFFFFFFFFFFFFFFFFF0000000000000000000000000000000000000000 AND PUSH1 0x1 PUSH1 0x1 PUSH1 0xA0 SHL SUB DUP7 AND SWAP1 DUP2 OR SWAP1 SWAP2 SSTORE SWAP1 MLOAD DUP4 SWAP3 SWAP1 PUSH32 0xDDF252AD1BE2C89B69C2B068FC378DAA952BA7F163C4A11628F55A4DF523B3EF SWAP1 DUP3 SWAP1 LOG4 POP POP JUMP JUMPDEST DUP2 PUSH1 0x1 PUSH1 0x1 PUSH1 0xA0 SHL SUB AND DUP4 PUSH1 0x1 PUSH1 0x1 PUSH1 0xA0 SHL SUB AND EQ ISZERO PUSH2 0x4B00 JUMPI PUSH1 0x40 MLOAD PUSH3 0x461BCD PUSH1 0xE5 SHL DUP2 MSTORE PUSH1 0x20 PUSH1 0x4 DUP3 ADD MSTORE PUSH1 0x19 PUSH1 0x24 DUP3 ADD MSTORE PUSH32 0x4552433732313A20617070726F766520746F2063616C6C657200000000000000 PUSH1 0x44 DUP3 ADD MSTORE PUSH1 0x64 ADD PUSH2 0xC7D JUMP JUMPDEST PUSH1 0x1 PUSH1 0x1 PUSH1 0xA0 SHL SUB DUP4 DUP2 AND PUSH1 0x0 DUP2 DUP2 MSTORE PUSH1 0x6A PUSH1 0x20 SWAP1 DUP2 MSTORE PUSH1 0x40 DUP1 DUP4 KECCAK256 SWAP5 DUP8 AND DUP1 DUP5 MSTORE SWAP5 DUP3 MSTORE SWAP2 DUP3 SWAP1 KECCAK256 DUP1 SLOAD PUSH32 0xFFFFFFFFFFFFFFFFFFFFFFFFFFFFFFFFFFFFFFFFFFFFFFFFFFFFFFFFFFFFFF00 AND DUP7 ISZERO ISZERO SWAP1 DUP2 OR SWAP1 SWAP2 SSTORE SWAP2 MLOAD SWAP2 DUP3 MSTORE PUSH32 0x17307EAB39AB6107E8899845AD3D59BD9653F200F220920489CA2B5937696C31 SWAP2 ADD PUSH1 0x40 MLOAD DUP1 SWAP2 SUB SWAP1 LOG3 POP POP POP JUMP JUMPDEST PUSH2 0x4B96 DUP5 DUP5 DUP5 PUSH2 0x36BC JUMP JUMPDEST PUSH2 0x4BA2 DUP5 DUP5 DUP5 DUP5 PUSH2 0x4D5F JUMP JUMPDEST PUSH2 0x111A JUMPI PUSH1 0x40 MLOAD PUSH3 0x461BCD PUSH1 0xE5 SHL DUP2 MSTORE PUSH1 0x20 PUSH1 0x4 DUP3 ADD MSTORE PUSH1 0x32 PUSH1 0x24 DUP3 ADD MSTORE PUSH32 0x4552433732313A207472616E7366657220746F206E6F6E204552433732315265 PUSH1 0x44 DUP3 ADD MSTORE PUSH32 0x63656976657220696D706C656D656E7465720000000000000000000000000000 PUSH1 0x64 DUP3 ADD MSTORE PUSH1 0x84 ADD PUSH2 0xC7D JUMP JUMPDEST PUSH2 0x4C1D DUP2 PUSH2 0x422B JUMP JUMPDEST PUSH1 0x40 MLOAD PUSH1 0x1 PUSH1 0x1 PUSH1 0xA0 SHL SUB DUP3 AND SWAP1 PUSH32 0xBC7CD75A20EE27FD9ADEBAB32041F755214DBC6BFFA90CC0225B39DA2E5C2D3B SWAP1 PUSH1 0x0 SWAP1 LOG2 POP JUMP JUMPDEST PUSH1 0x60 PUSH1 0x1 PUSH1 0x1 PUSH1 0xA0 SHL SUB DUP4 AND EXTCODESIZE PUSH2 0x4CD3 JUMPI PUSH1 0x40 MLOAD PUSH3 0x461BCD PUSH1 0xE5 SHL DUP2 MSTORE PUSH1 0x20 PUSH1 0x4 DUP3 ADD MSTORE PUSH1 0x26 PUSH1 0x24 DUP3 ADD MSTORE PUSH32 0x416464726573733A2064656C65676174652063616C6C20746F206E6F6E2D636F PUSH1 0x44 DUP3 ADD MSTORE PUSH32 0x6E74726163740000000000000000000000000000000000000000000000000000 PUSH1 0x64 DUP3 ADD MSTORE PUSH1 0x84 ADD PUSH2 0xC7D JUMP JUMPDEST PUSH1 0x0 DUP1 DUP5 PUSH1 0x1 PUSH1 0x1 PUSH1 0xA0 SHL SUB AND DUP5 PUSH1 0x40 MLOAD PUSH2 0x4CEE SWAP2 SWAP1 PUSH2 0x59F3 JUMP JUMPDEST PUSH1 0x0 PUSH1 0x40 MLOAD DUP1 DUP4 SUB DUP2 DUP6 GAS DELEGATECALL SWAP2 POP POP RETURNDATASIZE DUP1 PUSH1 0x0 DUP2 EQ PUSH2 0x4D29 JUMPI PUSH1 0x40 MLOAD SWAP2 POP PUSH1 0x1F NOT PUSH1 0x3F RETURNDATASIZE ADD AND DUP3 ADD PUSH1 0x40 MSTORE RETURNDATASIZE DUP3 MSTORE RETURNDATASIZE PUSH1 0x0 PUSH1 0x20 DUP5 ADD RETURNDATACOPY PUSH2 0x4D2E JUMP JUMPDEST PUSH1 0x60 SWAP2 POP JUMPDEST POP SWAP2 POP SWAP2 POP PUSH2 0x4D56 DUP3 DUP3 PUSH1 0x40 MLOAD DUP1 PUSH1 0x60 ADD PUSH1 0x40 MSTORE DUP1 PUSH1 0x27 DUP2 MSTORE PUSH1 0x20 ADD PUSH2 0x5A69 PUSH1 0x27 SWAP2 CODECOPY PUSH2 0x4F06 JUMP JUMPDEST SWAP6 SWAP5 POP POP POP POP POP JUMP JUMPDEST PUSH1 0x0 PUSH1 0x1 PUSH1 0x1 PUSH1 0xA0 SHL SUB DUP5 AND EXTCODESIZE ISZERO PUSH2 0x4EFE JUMPI DUP4 PUSH1 0x1 PUSH1 0x1 PUSH1 0xA0 SHL SUB AND PUSH4 0x150B7A02 PUSH2 0x4D88 PUSH2 0x3150 JUMP JUMPDEST DUP8 DUP7 DUP7 PUSH1 0x40 MLOAD DUP6 PUSH4 0xFFFFFFFF AND PUSH1 0xE0 SHL DUP2 MSTORE PUSH1 0x4 ADD PUSH2 0x4DAA SWAP5 SWAP4 SWAP3 SWAP2 SWAP1 PUSH2 0x5A0F JUMP JUMPDEST PUSH1 0x20 PUSH1 0x40 MLOAD DUP1 DUP4 SUB DUP2 PUSH1 0x0 DUP8 GAS CALL SWAP3 POP POP POP DUP1 ISZERO PUSH2 0x4E03 JUMPI POP PUSH1 0x40 DUP1 MLOAD PUSH1 0x1F RETURNDATASIZE SWAP1 DUP2 ADD PUSH32 0xFFFFFFFFFFFFFFFFFFFFFFFFFFFFFFFFFFFFFFFFFFFFFFFFFFFFFFFFFFFFFFE0 AND DUP3 ADD SWAP1 SWAP3 MSTORE PUSH2 0x4E00 SWAP2 DUP2 ADD SWAP1 PUSH2 0x5A4B JUMP JUMPDEST PUSH1 0x1 JUMPDEST PUSH2 0x4EB3 JUMPI RETURNDATASIZE DUP1 DUP1 ISZERO PUSH2 0x4E31 JUMPI PUSH1 0x40 MLOAD SWAP2 POP PUSH1 0x1F NOT PUSH1 0x3F RETURNDATASIZE ADD AND DUP3 ADD PUSH1 0x40 MSTORE RETURNDATASIZE DUP3 MSTORE RETURNDATASIZE PUSH1 0x0 PUSH1 0x20 DUP5 ADD RETURNDATACOPY PUSH2 0x4E36 JUMP JUMPDEST PUSH1 0x60 SWAP2 POP JUMPDEST POP DUP1 MLOAD PUSH2 0x4EAB JUMPI PUSH1 0x40 MLOAD PUSH3 0x461BCD PUSH1 0xE5 SHL DUP2 MSTORE PUSH1 0x20 PUSH1 0x4 DUP3 ADD MSTORE PUSH1 0x32 PUSH1 0x24 DUP3 ADD MSTORE PUSH32 0x4552433732313A207472616E7366657220746F206E6F6E204552433732315265 PUSH1 0x44 DUP3 ADD MSTORE PUSH32 0x63656976657220696D706C656D656E7465720000000000000000000000000000 PUSH1 0x64 DUP3 ADD MSTORE PUSH1 0x84 ADD PUSH2 0xC7D JUMP JUMPDEST DUP1 MLOAD DUP2 PUSH1 0x20 ADD REVERT JUMPDEST PUSH32 0xFFFFFFFF00000000000000000000000000000000000000000000000000000000 AND PUSH32 0x150B7A0200000000000000000000000000000000000000000000000000000000 EQ SWAP1 POP PUSH2 0x2149 JUMP JUMPDEST POP PUSH1 0x1 PUSH2 0x2149 JUMP JUMPDEST PUSH1 0x60 DUP4 ISZERO PUSH2 0x4F15 JUMPI POP DUP2 PUSH2 0x2B70 JUMP JUMPDEST DUP3 MLOAD ISZERO PUSH2 0x4F25 JUMPI DUP3 MLOAD DUP1 DUP5 PUSH1 0x20 ADD REVERT JUMPDEST DUP2 PUSH1 0x40 MLOAD PUSH3 0x461BCD PUSH1 0xE5 SHL DUP2 MSTORE PUSH1 0x4 ADD PUSH2 0xC7D SWAP2 SWAP1 PUSH2 0x5099 JUMP JUMPDEST DUP3 DUP1 SLOAD PUSH2 0x4F4B SWAP1 PUSH2 0x5694 JUMP JUMPDEST SWAP1 PUSH1 0x0 MSTORE PUSH1 0x20 PUSH1 0x0 KECCAK256 SWAP1 PUSH1 0x1F ADD PUSH1 0x20 SWAP1 DIV DUP2 ADD SWAP3 DUP3 PUSH2 0x4F6D JUMPI PUSH1 0x0 DUP6 SSTORE PUSH2 0x4FB3 JUMP JUMPDEST DUP3 PUSH1 0x1F LT PUSH2 0x4F86 JUMPI DUP1 MLOAD PUSH1 0xFF NOT AND DUP4 DUP1 ADD OR DUP6 SSTORE PUSH2 0x4FB3 JUMP JUMPDEST DUP3 DUP1 ADD PUSH1 0x1 ADD DUP6 SSTORE DUP3 ISZERO PUSH2 0x4FB3 JUMPI SWAP2 DUP3 ADD JUMPDEST DUP3 DUP2 GT ISZERO PUSH2 0x4FB3 JUMPI DUP3 MLOAD DUP3 SSTORE SWAP2 PUSH1 0x20 ADD SWAP2 SWAP1 PUSH1 0x1 ADD SWAP1 PUSH2 0x4F98 JUMP JUMPDEST POP PUSH2 0x4FBF SWAP3 SWAP2 POP PUSH2 0x4FC3 JUMP JUMPDEST POP SWAP1 JUMP JUMPDEST JUMPDEST DUP1 DUP3 GT ISZERO PUSH2 0x4FBF JUMPI PUSH1 0x0 DUP2 SSTORE PUSH1 0x1 ADD PUSH2 0x4FC4 JUMP JUMPDEST PUSH32 0xFFFFFFFF00000000000000000000000000000000000000000000000000000000 DUP2 AND DUP2 EQ PUSH2 0x13CD JUMPI PUSH1 0x0 DUP1 REVERT JUMPDEST PUSH1 0x0 PUSH1 0x20 DUP3 DUP5 SUB SLT ISZERO PUSH2 0x5018 JUMPI PUSH1 0x0 DUP1 REVERT JUMPDEST DUP2 CALLDATALOAD PUSH2 0x2B70 DUP2 PUSH2 0x4FD8 JUMP JUMPDEST PUSH1 0x0 JUMPDEST DUP4 DUP2 LT ISZERO PUSH2 0x503E JUMPI DUP2 DUP2 ADD MLOAD DUP4 DUP3 ADD MSTORE PUSH1 0x20 ADD PUSH2 0x5026 JUMP JUMPDEST DUP4 DUP2 GT ISZERO PUSH2 0x111A JUMPI POP POP PUSH1 0x0 SWAP2 ADD MSTORE JUMP JUMPDEST PUSH1 0x0 DUP2 MLOAD DUP1 DUP5 MSTORE PUSH2 0x5067 DUP2 PUSH1 0x20 DUP7 ADD PUSH1 0x20 DUP7 ADD PUSH2 0x5023 JUMP JUMPDEST PUSH1 0x1F ADD PUSH32 0xFFFFFFFFFFFFFFFFFFFFFFFFFFFFFFFFFFFFFFFFFFFFFFFFFFFFFFFFFFFFFFE0 AND SWAP3 SWAP1 SWAP3 ADD PUSH1 0x20 ADD SWAP3 SWAP2 POP POP JUMP JUMPDEST PUSH1 0x20 DUP2 MSTORE PUSH1 0x0 PUSH2 0x2B70 PUSH1 0x20 DUP4 ADD DUP5 PUSH2 0x504F JUMP JUMPDEST PUSH1 0x0 PUSH1 0x20 DUP3 DUP5 SUB SLT ISZERO PUSH2 0x50BE JUMPI PUSH1 0x0 DUP1 REVERT JUMPDEST POP CALLDATALOAD SWAP2 SWAP1 POP JUMP JUMPDEST DUP1 CALLDATALOAD PUSH1 0x1 PUSH1 0x1 PUSH1 0xA0 SHL SUB DUP2 AND DUP2 EQ PUSH2 0x50DC JUMPI PUSH1 0x0 DUP1 REVERT JUMPDEST SWAP2 SWAP1 POP JUMP JUMPDEST PUSH1 0x0 DUP1 PUSH1 0x40 DUP4 DUP6 SUB SLT ISZERO PUSH2 0x50F4 JUMPI PUSH1 0x0 DUP1 REVERT JUMPDEST PUSH2 0x50FD DUP4 PUSH2 0x50C5 JUMP JUMPDEST SWAP5 PUSH1 0x20 SWAP4 SWAP1 SWAP4 ADD CALLDATALOAD SWAP4 POP POP POP JUMP JUMPDEST PUSH1 0x0 PUSH1 0x20 DUP3 DUP5 SUB SLT ISZERO PUSH2 0x511D JUMPI PUSH1 0x0 DUP1 REVERT JUMPDEST PUSH2 0x2B70 DUP3 PUSH2 0x50C5 JUMP JUMPDEST PUSH1 0x0 DUP1 PUSH1 0x0 PUSH1 0x60 DUP5 DUP7 SUB SLT ISZERO PUSH2 0x513B JUMPI PUSH1 0x0 DUP1 REVERT JUMPDEST PUSH2 0x5144 DUP5 PUSH2 0x50C5 JUMP JUMPDEST SWAP3 POP PUSH2 0x5152 PUSH1 0x20 DUP6 ADD PUSH2 0x50C5 JUMP JUMPDEST SWAP2 POP PUSH1 0x40 DUP5 ADD CALLDATALOAD SWAP1 POP SWAP3 POP SWAP3 POP SWAP3 JUMP JUMPDEST PUSH1 0x0 DUP1 PUSH1 0x40 DUP4 DUP6 SUB SLT ISZERO PUSH2 0x5175 JUMPI PUSH1 0x0 DUP1 REVERT JUMPDEST POP POP DUP1 CALLDATALOAD SWAP3 PUSH1 0x20 SWAP1 SWAP2 ADD CALLDATALOAD SWAP2 POP JUMP JUMPDEST PUSH32 0x4E487B7100000000000000000000000000000000000000000000000000000000 PUSH1 0x0 MSTORE PUSH1 0x41 PUSH1 0x4 MSTORE PUSH1 0x24 PUSH1 0x0 REVERT JUMPDEST PUSH1 0x0 DUP3 PUSH1 0x1F DUP4 ADD SLT PUSH2 0x51C4 JUMPI PUSH1 0x0 DUP1 REVERT JUMPDEST DUP2 CALLDATALOAD PUSH8 0xFFFFFFFFFFFFFFFF DUP1 DUP3 GT ISZERO PUSH2 0x51DF JUMPI PUSH2 0x51DF PUSH2 0x5184 JUMP JUMPDEST PUSH1 0x40 MLOAD PUSH1 0x1F DUP4 ADD PUSH32 0xFFFFFFFFFFFFFFFFFFFFFFFFFFFFFFFFFFFFFFFFFFFFFFFFFFFFFFFFFFFFFFE0 SWAP1 DUP2 AND PUSH1 0x3F ADD AND DUP2 ADD SWAP1 DUP3 DUP3 GT DUP2 DUP4 LT OR ISZERO PUSH2 0x5225 JUMPI PUSH2 0x5225 PUSH2 0x5184 JUMP JUMPDEST DUP2 PUSH1 0x40 MSTORE DUP4 DUP2 MSTORE DUP7 PUSH1 0x20 DUP6 DUP9 ADD ADD GT ISZERO PUSH2 0x523E JUMPI PUSH1 0x0 DUP1 REVERT JUMPDEST DUP4 PUSH1 0x20 DUP8 ADD PUSH1 0x20 DUP4 ADD CALLDATACOPY PUSH1 0x0 PUSH1 0x20 DUP6 DUP4 ADD ADD MSTORE DUP1 SWAP5 POP POP POP POP POP SWAP3 SWAP2 POP POP JUMP JUMPDEST PUSH1 0x0 DUP1 PUSH1 0x40 DUP4 DUP6 SUB SLT ISZERO PUSH2 0x5271 JUMPI PUSH1 0x0 DUP1 REVERT JUMPDEST PUSH2 0x527A DUP4 PUSH2 0x50C5 JUMP JUMPDEST SWAP2 POP PUSH1 0x20 DUP4 ADD CALLDATALOAD PUSH8 0xFFFFFFFFFFFFFFFF DUP2 GT ISZERO PUSH2 0x5296 JUMPI PUSH1 0x0 DUP1 REVERT JUMPDEST PUSH2 0x52A2 DUP6 DUP3 DUP7 ADD PUSH2 0x51B3 JUMP JUMPDEST SWAP2 POP POP SWAP3 POP SWAP3 SWAP1 POP JUMP JUMPDEST DUP1 CALLDATALOAD PUSH12 0xFFFFFFFFFFFFFFFFFFFFFFFF DUP2 AND DUP2 EQ PUSH2 0x50DC JUMPI PUSH1 0x0 DUP1 REVERT JUMPDEST PUSH1 0x0 DUP1 PUSH1 0x0 PUSH1 0x60 DUP5 DUP7 SUB SLT ISZERO PUSH2 0x52DD JUMPI PUSH1 0x0 DUP1 REVERT JUMPDEST DUP4 CALLDATALOAD SWAP3 POP PUSH2 0x52ED PUSH1 0x20 DUP6 ADD PUSH2 0x50C5 JUMP JUMPDEST SWAP2 POP PUSH2 0x52FB PUSH1 0x40 DUP6 ADD PUSH2 0x52AC JUMP JUMPDEST SWAP1 POP SWAP3 POP SWAP3 POP SWAP3 JUMP JUMPDEST DUP1 CALLDATALOAD PUSH8 0xFFFFFFFFFFFFFFFF DUP2 AND DUP2 EQ PUSH2 0x50DC JUMPI PUSH1 0x0 DUP1 REVERT JUMPDEST PUSH1 0x0 DUP1 PUSH1 0x40 DUP4 DUP6 SUB SLT ISZERO PUSH2 0x532F JUMPI PUSH1 0x0 DUP1 REVERT JUMPDEST DUP3 CALLDATALOAD SWAP2 POP PUSH2 0x533F PUSH1 0x20 DUP5 ADD PUSH2 0x5304 JUMP JUMPDEST SWAP1 POP SWAP3 POP SWAP3 SWAP1 POP JUMP JUMPDEST PUSH1 0x0 PUSH1 0x20 DUP3 DUP5 SUB SLT ISZERO PUSH2 0x535A JUMPI PUSH1 0x0 DUP1 REVERT JUMPDEST DUP2 CALLDATALOAD PUSH8 0xFFFFFFFFFFFFFFFF DUP2 GT ISZERO PUSH2 0x5371 JUMPI PUSH1 0x0 DUP1 REVERT JUMPDEST PUSH2 0x2149 DUP5 DUP3 DUP6 ADD PUSH2 0x51B3 JUMP JUMPDEST PUSH1 0x0 DUP1 DUP4 PUSH1 0x1F DUP5 ADD SLT PUSH2 0x538F JUMPI PUSH1 0x0 DUP1 REVERT JUMPDEST POP DUP2 CALLDATALOAD PUSH8 0xFFFFFFFFFFFFFFFF DUP2 GT ISZERO PUSH2 0x53A7 JUMPI PUSH1 0x0 DUP1 REVERT JUMPDEST PUSH1 0x20 DUP4 ADD SWAP2 POP DUP4 PUSH1 0x20 DUP3 PUSH1 0x5 SHL DUP6 ADD ADD GT ISZERO PUSH2 0x120C JUMPI PUSH1 0x0 DUP1 REVERT JUMPDEST PUSH1 0x0 DUP1 PUSH1 0x0 DUP1 PUSH1 0x0 PUSH1 0x80 DUP7 DUP9 SUB SLT ISZERO PUSH2 0x53DA JUMPI PUSH1 0x0 DUP1 REVERT JUMPDEST DUP6 CALLDATALOAD PUSH8 0xFFFFFFFFFFFFFFFF DUP1 DUP3 GT ISZERO PUSH2 0x53F2 JUMPI PUSH1 0x0 DUP1 REVERT JUMPDEST PUSH2 0x53FE DUP10 DUP4 DUP11 ADD PUSH2 0x51B3 JUMP JUMPDEST SWAP7 POP PUSH1 0x20 DUP9 ADD CALLDATALOAD SWAP2 POP DUP1 DUP3 GT ISZERO PUSH2 0x5414 JUMPI PUSH1 0x0 DUP1 REVERT JUMPDEST PUSH2 0x5420 DUP10 DUP4 DUP11 ADD PUSH2 0x51B3 JUMP JUMPDEST SWAP6 POP PUSH1 0x40 DUP9 ADD CALLDATALOAD SWAP2 POP DUP1 DUP3 GT ISZERO PUSH2 0x5436 JUMPI PUSH1 0x0 DUP1 REVERT JUMPDEST PUSH2 0x5442 DUP10 DUP4 DUP11 ADD PUSH2 0x51B3 JUMP JUMPDEST SWAP5 POP PUSH1 0x60 DUP9 ADD CALLDATALOAD SWAP2 POP DUP1 DUP3 GT ISZERO PUSH2 0x5458 JUMPI PUSH1 0x0 DUP1 REVERT JUMPDEST POP PUSH2 0x5465 DUP9 DUP3 DUP10 ADD PUSH2 0x537D JUMP JUMPDEST SWAP7 SWAP10 SWAP6 SWAP9 POP SWAP4 SWAP7 POP SWAP3 SWAP5 SWAP4 SWAP3 POP POP POP JUMP JUMPDEST DUP1 ISZERO ISZERO DUP2 EQ PUSH2 0x13CD JUMPI PUSH1 0x0 DUP1 REVERT JUMPDEST PUSH1 0x0 DUP1 PUSH1 0x0 DUP1 PUSH1 0x80 DUP6 DUP8 SUB SLT ISZERO PUSH2 0x549A JUMPI PUSH1 0x0 DUP1 REVERT JUMPDEST DUP5 CALLDATALOAD SWAP4 POP PUSH2 0x54AA PUSH1 0x20 DUP7 ADD PUSH2 0x50C5 JUMP JUMPDEST SWAP3 POP PUSH1 0x40 DUP6 ADD CALLDATALOAD PUSH2 0x54BA DUP2 PUSH2 0x5476 JUMP JUMPDEST SWAP2 POP PUSH2 0x54C8 PUSH1 0x60 DUP7 ADD PUSH2 0x5304 JUMP JUMPDEST SWAP1 POP SWAP3 SWAP6 SWAP2 SWAP5 POP SWAP3 POP JUMP JUMPDEST PUSH1 0x0 DUP1 PUSH1 0x0 DUP1 PUSH1 0x0 PUSH1 0x80 DUP7 DUP9 SUB SLT ISZERO PUSH2 0x54EB JUMPI PUSH1 0x0 DUP1 REVERT JUMPDEST DUP6 CALLDATALOAD SWAP5 POP PUSH1 0x20 DUP7 ADD CALLDATALOAD PUSH8 0xFFFFFFFFFFFFFFFF DUP2 GT ISZERO PUSH2 0x5509 JUMPI PUSH1 0x0 DUP1 REVERT JUMPDEST PUSH2 0x5515 DUP9 DUP3 DUP10 ADD PUSH2 0x537D JUMP JUMPDEST SWAP1 SWAP6 POP SWAP4 POP POP PUSH1 0x40 DUP7 ADD CALLDATALOAD PUSH2 0x5529 DUP2 PUSH2 0x5476 JUMP JUMPDEST SWAP2 POP PUSH2 0x5537 PUSH1 0x60 DUP8 ADD PUSH2 0x5304 JUMP JUMPDEST SWAP1 POP SWAP3 SWAP6 POP SWAP3 SWAP6 SWAP1 SWAP4 POP JUMP JUMPDEST PUSH1 0x0 DUP1 PUSH1 0x40 DUP4 DUP6 SUB SLT ISZERO PUSH2 0x5556 JUMPI PUSH1 0x0 DUP1 REVERT JUMPDEST PUSH2 0x555F DUP4 PUSH2 0x50C5 JUMP JUMPDEST SWAP2 POP PUSH1 0x20 DUP4 ADD CALLDATALOAD PUSH2 0x556F DUP2 PUSH2 0x5476 JUMP JUMPDEST DUP1 SWAP2 POP POP SWAP3 POP SWAP3 SWAP1 POP JUMP JUMPDEST PUSH1 0x0 DUP1 PUSH1 0x0 DUP1 PUSH1 0x80 DUP6 DUP8 SUB SLT ISZERO PUSH2 0x5590 JUMPI PUSH1 0x0 DUP1 REVERT JUMPDEST PUSH2 0x5599 DUP6 PUSH2 0x50C5 JUMP JUMPDEST SWAP4 POP PUSH2 0x55A7 PUSH1 0x20 DUP7 ADD PUSH2 0x50C5 JUMP JUMPDEST SWAP3 POP PUSH1 0x40 DUP6 ADD CALLDATALOAD SWAP2 POP PUSH1 0x60 DUP6 ADD CALLDATALOAD PUSH8 0xFFFFFFFFFFFFFFFF DUP2 GT ISZERO PUSH2 0x55CA JUMPI PUSH1 0x0 DUP1 REVERT JUMPDEST PUSH2 0x55D6 DUP8 DUP3 DUP9 ADD PUSH2 0x51B3 JUMP JUMPDEST SWAP2 POP POP SWAP3 SWAP6 SWAP2 SWAP5 POP SWAP3 POP JUMP JUMPDEST PUSH1 0x0 DUP1 PUSH1 0x40 DUP4 DUP6 SUB SLT ISZERO PUSH2 0x55F5 JUMPI PUSH1 0x0 DUP1 REVERT JUMPDEST PUSH2 0x55FE DUP4 PUSH2 0x50C5 JUMP JUMPDEST SWAP2 POP PUSH2 0x533F PUSH1 0x20 DUP5 ADD PUSH2 0x52AC JUMP JUMPDEST PUSH1 0x0 DUP1 PUSH1 0x40 DUP4 DUP6 SUB SLT ISZERO PUSH2 0x561F JUMPI PUSH1 0x0 DUP1 REVERT JUMPDEST PUSH2 0x5628 DUP4 PUSH2 0x50C5 JUMP JUMPDEST SWAP2 POP PUSH2 0x533F PUSH1 0x20 DUP5 ADD PUSH2 0x50C5 JUMP JUMPDEST PUSH1 0x0 DUP1 PUSH1 0x0 DUP1 PUSH1 0x0 PUSH1 0x80 DUP7 DUP9 SUB SLT ISZERO PUSH2 0x564E JUMPI PUSH1 0x0 DUP1 REVERT JUMPDEST DUP6 CALLDATALOAD PUSH8 0xFFFFFFFFFFFFFFFF DUP2 GT ISZERO PUSH2 0x5665 JUMPI PUSH1 0x0 DUP1 REVERT JUMPDEST PUSH2 0x5671 DUP9 DUP3 DUP10 ADD PUSH2 0x537D JUMP JUMPDEST SWAP1 SWAP7 POP SWAP5 POP PUSH2 0x5684 SWAP1 POP PUSH1 0x20 DUP8 ADD PUSH2 0x50C5 JUMP JUMPDEST SWAP3 POP PUSH1 0x40 DUP7 ADD CALLDATALOAD PUSH2 0x5529 DUP2 PUSH2 0x5476 JUMP JUMPDEST PUSH1 0x1 DUP2 DUP2 SHR SWAP1 DUP3 AND DUP1 PUSH2 0x56A8 JUMPI PUSH1 0x7F DUP3 AND SWAP2 POP JUMPDEST PUSH1 0x20 DUP3 LT DUP2 EQ ISZERO PUSH2 0x56E2 JUMPI PUSH32 0x4E487B7100000000000000000000000000000000000000000000000000000000 PUSH1 0x0 MSTORE PUSH1 0x22 PUSH1 0x4 MSTORE PUSH1 0x24 PUSH1 0x0 REVERT JUMPDEST POP SWAP2 SWAP1 POP JUMP JUMPDEST PUSH1 0x0 PUSH1 0x20 DUP3 DUP5 SUB SLT ISZERO PUSH2 0x56FA JUMPI PUSH1 0x0 DUP1 REVERT JUMPDEST DUP2 MLOAD PUSH2 0x2B70 DUP2 PUSH2 0x5476 JUMP JUMPDEST DUP1 SLOAD PUSH1 0x0 SWAP1 PUSH1 0x1 DUP2 DUP2 SHR SWAP1 DUP1 DUP4 AND DUP1 PUSH2 0x571F JUMPI PUSH1 0x7F DUP4 AND SWAP3 POP JUMPDEST PUSH1 0x20 DUP1 DUP5 LT DUP3 EQ ISZERO PUSH2 0x575A JUMPI PUSH32 0x4E487B7100000000000000000000000000000000000000000000000000000000 PUSH1 0x0 MSTORE PUSH1 0x22 PUSH1 0x4 MSTORE PUSH1 0x24 PUSH1 0x0 REVERT JUMPDEST DUP2 DUP1 ISZERO PUSH2 0x576E JUMPI PUSH1 0x1 DUP2 EQ PUSH2 0x579D JUMPI PUSH2 0x57CA JUMP JUMPDEST PUSH32 0xFFFFFFFFFFFFFFFFFFFFFFFFFFFFFFFFFFFFFFFFFFFFFFFFFFFFFFFFFFFFFF00 DUP7 AND DUP10 MSTORE DUP5 DUP10 ADD SWAP7 POP PUSH2 0x57CA JUMP JUMPDEST PUSH1 0x0 DUP9 DUP2 MSTORE PUSH1 0x20 SWAP1 KECCAK256 PUSH1 0x0 JUMPDEST DUP7 DUP2 LT ISZERO PUSH2 0x57C2 JUMPI DUP2 SLOAD DUP12 DUP3 ADD MSTORE SWAP1 DUP6 ADD SWAP1 DUP4 ADD PUSH2 0x57A9 JUMP JUMPDEST POP POP DUP5 DUP10 ADD SWAP7 POP JUMPDEST POP POP POP POP POP POP SWAP3 SWAP2 POP POP JUMP JUMPDEST PUSH1 0x0 PUSH2 0x57E2 DUP3 DUP6 PUSH2 0x5705 JUMP JUMPDEST DUP4 MLOAD PUSH2 0x57F2 DUP2 DUP4 PUSH1 0x20 DUP9 ADD PUSH2 0x5023 JUMP JUMPDEST ADD SWAP5 SWAP4 POP POP POP POP JUMP JUMPDEST PUSH32 0x4E487B7100000000000000000000000000000000000000000000000000000000 PUSH1 0x0 MSTORE PUSH1 0x11 PUSH1 0x4 MSTORE PUSH1 0x24 PUSH1 0x0 REVERT JUMPDEST PUSH1 0x0 DUP2 PUSH32 0xFFFFFFFFFFFFFFFFFFFFFFFFFFFFFFFFFFFFFFFFFFFFFFFFFFFFFFFFFFFFFFFF DIV DUP4 GT DUP3 ISZERO ISZERO AND ISZERO PUSH2 0x5862 JUMPI PUSH2 0x5862 PUSH2 0x57FB JUMP JUMPDEST POP MUL SWAP1 JUMP JUMPDEST PUSH32 0x4E487B7100000000000000000000000000000000000000000000000000000000 PUSH1 0x0 MSTORE PUSH1 0x12 PUSH1 0x4 MSTORE PUSH1 0x24 PUSH1 0x0 REVERT JUMPDEST PUSH1 0x0 DUP3 PUSH2 0x58A5 JUMPI PUSH2 0x58A5 PUSH2 0x5867 JUMP JUMPDEST POP DIV SWAP1 JUMP JUMPDEST PUSH32 0x4E487B7100000000000000000000000000000000000000000000000000000000 PUSH1 0x0 MSTORE PUSH1 0x32 PUSH1 0x4 MSTORE PUSH1 0x24 PUSH1 0x0 REVERT JUMPDEST PUSH1 0x0 PUSH32 0xFFFFFFFFFFFFFFFFFFFFFFFFFFFFFFFFFFFFFFFFFFFFFFFFFFFFFFFFFFFFFFFF DUP3 EQ ISZERO PUSH2 0x590B JUMPI PUSH2 0x590B PUSH2 0x57FB JUMP JUMPDEST POP PUSH1 0x1 ADD SWAP1 JUMP JUMPDEST PUSH1 0x0 DUP3 NOT DUP3 GT ISZERO PUSH2 0x5925 JUMPI PUSH2 0x5925 PUSH2 0x57FB JUMP JUMPDEST POP ADD SWAP1 JUMP JUMPDEST PUSH1 0x0 PUSH8 0xFFFFFFFFFFFFFFFF DUP1 DUP4 AND DUP2 DUP6 AND DUP1 DUP4 SUB DUP3 GT ISZERO PUSH2 0x57F2 JUMPI PUSH2 0x57F2 PUSH2 0x57FB JUMP JUMPDEST PUSH1 0x0 PUSH2 0x5959 DUP3 DUP7 PUSH2 0x5705 JUMP JUMPDEST DUP5 MLOAD PUSH2 0x5969 DUP2 DUP4 PUSH1 0x20 DUP10 ADD PUSH2 0x5023 JUMP JUMPDEST PUSH32 0x2F00000000000000000000000000000000000000000000000000000000000000 SWAP2 ADD SWAP1 DUP2 MSTORE DUP4 MLOAD PUSH2 0x59A2 DUP2 PUSH1 0x1 DUP5 ADD PUSH1 0x20 DUP9 ADD PUSH2 0x5023 JUMP JUMPDEST ADD PUSH1 0x1 ADD SWAP6 SWAP5 POP POP POP POP POP JUMP JUMPDEST PUSH1 0x0 DUP3 DUP3 LT ISZERO PUSH2 0x59C1 JUMPI PUSH2 0x59C1 PUSH2 0x57FB JUMP JUMPDEST POP SUB SWAP1 JUMP JUMPDEST PUSH1 0x0 DUP3 PUSH2 0x59D5 JUMPI PUSH2 0x59D5 PUSH2 0x5867 JUMP JUMPDEST POP MOD SWAP1 JUMP JUMPDEST PUSH1 0x0 PUSH1 0x20 DUP3 DUP5 SUB SLT ISZERO PUSH2 0x59EC JUMPI PUSH1 0x0 DUP1 REVERT JUMPDEST POP MLOAD SWAP2 SWAP1 POP JUMP JUMPDEST PUSH1 0x0 DUP3 MLOAD PUSH2 0x5A05 DUP2 DUP5 PUSH1 0x20 DUP8 ADD PUSH2 0x5023 JUMP JUMPDEST SWAP2 SWAP1 SWAP2 ADD SWAP3 SWAP2 POP POP JUMP JUMPDEST PUSH1 0x0 PUSH1 0x1 PUSH1 0x1 PUSH1 0xA0 SHL SUB DUP1 DUP8 AND DUP4 MSTORE DUP1 DUP7 AND PUSH1 0x20 DUP5 ADD MSTORE POP DUP4 PUSH1 0x40 DUP4 ADD MSTORE PUSH1 0x80 PUSH1 0x60 DUP4 ADD MSTORE PUSH2 0x5A41 PUSH1 0x80 DUP4 ADD DUP5 PUSH2 0x504F JUMP JUMPDEST SWAP7 SWAP6 POP POP POP POP POP POP JUMP JUMPDEST PUSH1 0x0 PUSH1 0x20 DUP3 DUP5 SUB SLT ISZERO PUSH2 0x5A5D JUMPI PUSH1 0x0 DUP1 REVERT JUMPDEST DUP2 MLOAD PUSH2 0x2B70 DUP2 PUSH2 0x4FD8 JUMP INVALID COINBASE PUSH5 0x6472657373 GASPRICE KECCAK256 PUSH13 0x6F772D6C6576656C2064656C65 PUSH8 0x6174652063616C6C KECCAK256 PUSH7 0x61696C6564A264 PUSH10 0x706673582212209506E7 0xB3 EXP 0xC6 0xE2 0xD4 RETURNDATACOPY 0x2E 0xC7 GAS 0xC0 0x4D SWAP3 DUP5 MSIZE PUSH22 0x584A5FEED00488AA09EDE4E7C43364736F6C63430008 0xC STOP CALLER "},"methodIdentifiers":{"addAdmin(address)":"70480275","approve(address,uint256)":"095ea7b3","balanceOf(address)":"70a08231","burn(uint256)":"42966c68","cancelSubscription(uint256)":"21235083","collectionURI(uint256)":"1771c96c","contractURI()":"e8a3d485","expiresAt(uint256)":"17c95709","freeze(uint256)":"d7a78db8","getApproved(uint256)":"081812fc","getTrustedForwarder()":"ce1b815f","initialize(string,string,string,address[])":"8d232094","isAdmin(address)":"24d7806c","isApprovedForAll(address,address)":"e985e9c5","isFrozen(uint256)":"a0894799","isRenewable(uint256)":"cde317af","isTrustedForwarder(address)":"572b6c05","lastId()":"c1292cc3","mintCollectionToManyUsers(uint256,address[],bool,uint64)":"9a80c5e3","mintToken(uint256,address,bool,uint64)":"8e45d62e","mintUserToManyCollections(uint256[],address,bool,uint64)":"fb1fcca1","name()":"06fdde03","owner()":"8da5cb5b","ownerOf(uint256)":"6352211e","pause()":"8456cb59","paused()":"5c975abb","proxiableUUID()":"52d1902d","reclaimToken(uint256)":"508061a2","removeAdmin(address)":"1785f53c","removeCollectionRoyalty(uint256)":"d953e4d4","removeDefaultRoyalty()":"97ec4fba","renewSubscription(uint256,uint64)":"776ce868","renounceOwnership()":"715018a6","royaltyInfo(uint256,uint256)":"2a55205a","safeTransferFrom(address,address,uint256)":"42842e0e","safeTransferFrom(address,address,uint256,bytes)":"b88d4fde","setApprovalForAll(address,bool)":"a22cb465","setExpiration(uint256,uint64)":"d1c332de","setLastId(uint256)":"1a27e85f","setTurstedForwarder(address)":"cea0302e","supportsInterface(bytes4)":"01ffc9a7","symbol()":"95d89b41","tokenCollection(uint256)":"2dd883e8","tokenURI(uint256)":"c87b56dd","transferFrom(address,address,uint256)":"23b872dd","transferOwnership(address)":"f2fde38b","unfreeze(uint256)":"6623fc46","unpause()":"3f4ba83a","updateCollectionRoyalty(uint256,address,uint96)":"6a662a3c","updateContractURI(string)":"7e5b1e24","updateDefaultRoyalty(address,uint96)":"d691e43c","upgradeTo(address)":"3659cfe6","upgradeToAndCall(address,bytes)":"4f1ef286"}},"storageLayout":{"storage":[{"astId":673,"contract":"contracts/UVCollectable.sol:UVCollectable","label":"_initialized","offset":0,"slot":"0","type":"t_uint8"},{"astId":676,"contract":"contracts/UVCollectable.sol:UVCollectable","label":"_initializing","offset":1,"slot":"0","type":"t_bool"},{"astId":2467,"contract":"contracts/UVCollectable.sol:UVCollectable","label":"__gap","offset":0,"slot":"1","type":"t_array(t_uint256)50_storage"},{"astId":2797,"contract":"contracts/UVCollectable.sol:UVCollectable","label":"__gap","offset":0,"slot":"51","type":"t_array(t_uint256)50_storage"},{"astId":1109,"contract":"contracts/UVCollectable.sol:UVCollectable","label":"_name","offset":0,"slot":"101","type":"t_string_storage"},{"astId":1111,"contract":"contracts/UVCollectable.sol:UVCollectable","label":"_symbol","offset":0,"slot":"102","type":"t_string_storage"},{"astId":1115,"contract":"contracts/UVCollectable.sol:UVCollectable","label":"_owners","offset":0,"slot":"103","type":"t_mapping(t_uint256,t_address)"},{"astId":1119,"contract":"contracts/UVCollectable.sol:UVCollectable","label":"_balances","offset":0,"slot":"104","type":"t_mapping(t_address,t_uint256)"},{"astId":1123,"contract":"contracts/UVCollectable.sol:UVCollectable","label":"_tokenApprovals","offset":0,"slot":"105","type":"t_mapping(t_uint256,t_address)"},{"astId":1129,"contract":"contracts/UVCollectable.sol:UVCollectable","label":"_operatorApprovals","offset":0,"slot":"106","type":"t_mapping(t_address,t_mapping(t_address,t_bool))"},{"astId":1971,"contract":"contracts/UVCollectable.sol:UVCollectable","label":"__gap","offset":0,"slot":"107","type":"t_array(t_uint256)44_storage"},{"astId":2155,"contract":"contracts/UVCollectable.sol:UVCollectable","label":"__gap","offset":0,"slot":"151","type":"t_array(t_uint256)50_storage"},{"astId":974,"contract":"contracts/UVCollectable.sol:UVCollectable","label":"_paused","offset":0,"slot":"201","type":"t_bool"},{"astId":1079,"contract":"contracts/UVCollectable.sol:UVCollectable","label":"__gap","offset":0,"slot":"202","type":"t_array(t_uint256)49_storage"},{"astId":137,"contract":"contracts/UVCollectable.sol:UVCollectable","label":"_owner","offset":0,"slot":"251","type":"t_address"},{"astId":257,"contract":"contracts/UVCollectable.sol:UVCollectable","label":"__gap","offset":0,"slot":"252","type":"t_array(t_uint256)49_storage"},{"astId":655,"contract":"contracts/UVCollectable.sol:UVCollectable","label":"__gap","offset":0,"slot":"301","type":"t_array(t_uint256)50_storage"},{"astId":952,"contract":"contracts/UVCollectable.sol:UVCollectable","label":"__gap","offset":0,"slot":"351","type":"t_array(t_uint256)50_storage"},{"astId":7,"contract":"contracts/UVCollectable.sol:UVCollectable","label":"_trustedForwarder","offset":0,"slot":"401","type":"t_address"},{"astId":2903,"contract":"contracts/UVCollectable.sol:UVCollectable","label":"contractURI","offset":0,"slot":"402","type":"t_string_storage"},{"astId":2905,"contract":"contracts/UVCollectable.sol:UVCollectable","label":"lastId","offset":0,"slot":"403","type":"t_uint256"},{"astId":2909,"contract":"contracts/UVCollectable.sol:UVCollectable","label":"_tokenCollection","offset":0,"slot":"404","type":"t_mapping(t_uint256,t_uint256)"},{"astId":2913,"contract":"contracts/UVCollectable.sol:UVCollectable","label":"_tokenFrozen","offset":0,"slot":"405","type":"t_mapping(t_uint256,t_bool)"},{"astId":2921,"contract":"contracts/UVCollectable.sol:UVCollectable","label":"_defaultRoyaltyInfo","offset":0,"slot":"406","type":"t_struct(RoyaltyInfo)2918_storage"},{"astId":2926,"contract":"contracts/UVCollectable.sol:UVCollectable","label":"_collectionRoyaltyInfo","offset":0,"slot":"407","type":"t_mapping(t_uint256,t_struct(RoyaltyInfo)2918_storage)"},{"astId":2930,"contract":"contracts/UVCollectable.sol:UVCollectable","label":"_expirations","offset":0,"slot":"408","type":"t_mapping(t_uint256,t_uint64)"},{"astId":2934,"contract":"contracts/UVCollectable.sol:UVCollectable","label":"_admins","offset":0,"slot":"409","type":"t_mapping(t_address,t_bool)"}],"types":{"t_address":{"encoding":"inplace","label":"address","numberOfBytes":"20"},"t_array(t_uint256)44_storage":{"base":"t_uint256","encoding":"inplace","label":"uint256[44]","numberOfBytes":"1408"},"t_array(t_uint256)49_storage":{"base":"t_uint256","encoding":"inplace","label":"uint256[49]","numberOfBytes":"1568"},"t_array(t_uint256)50_storage":{"base":"t_uint256","encoding":"inplace","label":"uint256[50]","numberOfBytes":"1600"},"t_bool":{"encoding":"inplace","label":"bool","numberOfBytes":"1"},"t_mapping(t_address,t_bool)":{"encoding":"mapping","key":"t_address","label":"mapping(address => bool)","numberOfBytes":"32","value":"t_bool"},"t_mapping(t_address,t_mapping(t_address,t_bool))":{"encoding":"mapping","key":"t_address","label":"mapping(address => mapping(address => bool))","numberOfBytes":"32","value":"t_mapping(t_address,t_bool)"},"t_mapping(t_address,t_uint256)":{"encoding":"mapping","key":"t_address","label":"mapping(address => uint256)","numberOfBytes":"32","value":"t_uint256"},"t_mapping(t_uint256,t_address)":{"encoding":"mapping","key":"t_uint256","label":"mapping(uint256 => address)","numberOfBytes":"32","value":"t_address"},"t_mapping(t_uint256,t_bool)":{"encoding":"mapping","key":"t_uint256","label":"mapping(uint256 => bool)","numberOfBytes":"32","value":"t_bool"},"t_mapping(t_uint256,t_struct(RoyaltyInfo)2918_storage)":{"encoding":"mapping","key":"t_uint256","label":"mapping(uint256 => struct UVCollectable.RoyaltyInfo)","numberOfBytes":"32","value":"t_struct(RoyaltyInfo)2918_storage"},"t_mapping(t_uint256,t_uint256)":{"encoding":"mapping","key":"t_uint256","label":"mapping(uint256 => uint256)","numberOfBytes":"32","value":"t_uint256"},"t_mapping(t_uint256,t_uint64)":{"encoding":"mapping","key":"t_uint256","label":"mapping(uint256 => uint64)","numberOfBytes":"32","value":"t_uint64"},"t_string_storage":{"encoding":"bytes","label":"string","numberOfBytes":"32"},"t_struct(RoyaltyInfo)2918_storage":{"encoding":"inplace","label":"struct UVCollectable.RoyaltyInfo","members":[{"astId":2915,"contract":"contracts/UVCollectable.sol:UVCollectable","label":"receiver","offset":0,"slot":"0","type":"t_address"},{"astId":2917,"contract":"contracts/UVCollectable.sol:UVCollectable","label":"royaltyFraction","offset":20,"slot":"0","type":"t_uint96"}],"numberOfBytes":"32"},"t_uint256":{"encoding":"inplace","label":"uint256","numberOfBytes":"32"},"t_uint64":{"encoding":"inplace","label":"uint64","numberOfBytes":"8"},"t_uint8":{"encoding":"inplace","label":"uint8","numberOfBytes":"1"},"t_uint96":{"encoding":"inplace","label":"uint96","numberOfBytes":"12"}}},"userdoc":{"events":{"SubscriptionUpdate(uint256,uint64)":{"notice":"Emitted when a subscription expiration changes"}},"kind":"user","methods":{"getTrustedForwarder()":{"notice":":warning: **Warning** :warning: The Forwarder can have a full control over your Recipient. Only trust verified Forwarder.Method is not a required method to allow Recipients to trust multiple Forwarders. Not recommended yet."},"isApprovedForAll(address,address)":{"notice":"Override isApprovedForAll to auto-approve OS's proxy contract See: https://github.com/ProjectOpenSea/seaport"},"isTrustedForwarder(address)":{"notice":":warning: **Warning** :warning: The Forwarder can have a full control over your Recipient. Only trust verified Forwarder."},"pause()":{"notice":"Useful for scenarios such as preventing trades until the end of an evaluation period, or having an emergency switch for freezing all token transfers in the event of a large bug."}},"version":1}}}}