{
  "_format": "hh-sol-artifact-1",
  "contractName": "OctiTokenV2",
  "sourceName": "contracts/OctiTokenV2.sol",
  "abi": [
    {
      "anonymous": false,
      "inputs": [
        {
          "indexed": false,
          "internalType": "address",
          "name": "previousAdmin",
          "type": "address"
        },
        {
          "indexed": false,
          "internalType": "address",
          "name": "newAdmin",
          "type": "address"
        }
      ],
      "name": "AdminChanged",
      "type": "event"
    },
    {
      "anonymous": false,
      "inputs": [
        {
          "indexed": true,
          "internalType": "address",
          "name": "owner",
          "type": "address"
        },
        {
          "indexed": true,
          "internalType": "address",
          "name": "approved",
          "type": "address"
        },
        {
          "indexed": true,
          "internalType": "uint256",
          "name": "tokenId",
          "type": "uint256"
        }
      ],
      "name": "Approval",
      "type": "event"
    },
    {
      "anonymous": false,
      "inputs": [
        {
          "indexed": true,
          "internalType": "address",
          "name": "owner",
          "type": "address"
        },
        {
          "indexed": true,
          "internalType": "address",
          "name": "operator",
          "type": "address"
        },
        {
          "indexed": false,
          "internalType": "bool",
          "name": "approved",
          "type": "bool"
        }
      ],
      "name": "ApprovalForAll",
      "type": "event"
    },
    {
      "anonymous": false,
      "inputs": [
        {
          "indexed": true,
          "internalType": "address",
          "name": "beacon",
          "type": "address"
        }
      ],
      "name": "BeaconUpgraded",
      "type": "event"
    },
    {
      "anonymous": false,
      "inputs": [
        {
          "indexed": false,
          "internalType": "uint8",
          "name": "version",
          "type": "uint8"
        }
      ],
      "name": "Initialized",
      "type": "event"
    },
    {
      "anonymous": false,
      "inputs": [
        {
          "indexed": true,
          "internalType": "address",
          "name": "previousOwner",
          "type": "address"
        },
        {
          "indexed": true,
          "internalType": "address",
          "name": "newOwner",
          "type": "address"
        }
      ],
      "name": "OwnershipTransferred",
      "type": "event"
    },
    {
      "anonymous": false,
      "inputs": [
        {
          "indexed": false,
          "internalType": "address",
          "name": "account",
          "type": "address"
        }
      ],
      "name": "Paused",
      "type": "event"
    },
    {
      "anonymous": false,
      "inputs": [
        {
          "indexed": true,
          "internalType": "address",
          "name": "from",
          "type": "address"
        },
        {
          "indexed": true,
          "internalType": "address",
          "name": "to",
          "type": "address"
        },
        {
          "indexed": true,
          "internalType": "uint256",
          "name": "tokenId",
          "type": "uint256"
        }
      ],
      "name": "Transfer",
      "type": "event"
    },
    {
      "anonymous": false,
      "inputs": [
        {
          "indexed": false,
          "internalType": "address",
          "name": "account",
          "type": "address"
        }
      ],
      "name": "Unpaused",
      "type": "event"
    },
    {
      "anonymous": false,
      "inputs": [
        {
          "indexed": true,
          "internalType": "address",
          "name": "implementation",
          "type": "address"
        }
      ],
      "name": "Upgraded",
      "type": "event"
    },
    {
      "inputs": [
        {
          "internalType": "address",
          "name": "to",
          "type": "address"
        },
        {
          "internalType": "uint256",
          "name": "tokenId",
          "type": "uint256"
        }
      ],
      "name": "approve",
      "outputs": [],
      "stateMutability": "nonpayable",
      "type": "function"
    },
    {
      "inputs": [
        {
          "internalType": "address",
          "name": "owner",
          "type": "address"
        }
      ],
      "name": "balanceOf",
      "outputs": [
        {
          "internalType": "uint256",
          "name": "",
          "type": "uint256"
        }
      ],
      "stateMutability": "view",
      "type": "function"
    },
    {
      "inputs": [
        {
          "internalType": "uint256",
          "name": "tokenId",
          "type": "uint256"
        }
      ],
      "name": "burn",
      "outputs": [],
      "stateMutability": "nonpayable",
      "type": "function"
    },
    {
      "inputs": [],
      "name": "contractURI",
      "outputs": [
        {
          "internalType": "string",
          "name": "",
          "type": "string"
        }
      ],
      "stateMutability": "view",
      "type": "function"
    },
    {
      "inputs": [
        {
          "internalType": "uint256",
          "name": "tokenId",
          "type": "uint256"
        }
      ],
      "name": "getApproved",
      "outputs": [
        {
          "internalType": "address",
          "name": "",
          "type": "address"
        }
      ],
      "stateMutability": "view",
      "type": "function"
    },
    {
      "inputs": [],
      "name": "getVersion",
      "outputs": [
        {
          "internalType": "string",
          "name": "",
          "type": "string"
        }
      ],
      "stateMutability": "pure",
      "type": "function"
    },
    {
      "inputs": [
        {
          "internalType": "address",
          "name": "royaltyAddress",
          "type": "address"
        },
        {
          "internalType": "string",
          "name": "_newContractURI",
          "type": "string"
        }
      ],
      "name": "initialize",
      "outputs": [],
      "stateMutability": "nonpayable",
      "type": "function"
    },
    {
      "inputs": [
        {
          "internalType": "address",
          "name": "owner",
          "type": "address"
        },
        {
          "internalType": "address",
          "name": "operator",
          "type": "address"
        }
      ],
      "name": "isApprovedForAll",
      "outputs": [
        {
          "internalType": "bool",
          "name": "",
          "type": "bool"
        }
      ],
      "stateMutability": "view",
      "type": "function"
    },
    {
      "inputs": [],
      "name": "name",
      "outputs": [
        {
          "internalType": "string",
          "name": "",
          "type": "string"
        }
      ],
      "stateMutability": "view",
      "type": "function"
    },
    {
      "inputs": [],
      "name": "owner",
      "outputs": [
        {
          "internalType": "address",
          "name": "",
          "type": "address"
        }
      ],
      "stateMutability": "view",
      "type": "function"
    },
    {
      "inputs": [
        {
          "internalType": "uint256",
          "name": "tokenId",
          "type": "uint256"
        }
      ],
      "name": "ownerOf",
      "outputs": [
        {
          "internalType": "address",
          "name": "",
          "type": "address"
        }
      ],
      "stateMutability": "view",
      "type": "function"
    },
    {
      "inputs": [],
      "name": "pause",
      "outputs": [],
      "stateMutability": "nonpayable",
      "type": "function"
    },
    {
      "inputs": [],
      "name": "paused",
      "outputs": [
        {
          "internalType": "bool",
          "name": "",
          "type": "bool"
        }
      ],
      "stateMutability": "view",
      "type": "function"
    },
    {
      "inputs": [],
      "name": "proxiableUUID",
      "outputs": [
        {
          "internalType": "bytes32",
          "name": "",
          "type": "bytes32"
        }
      ],
      "stateMutability": "view",
      "type": "function"
    },
    {
      "inputs": [],
      "name": "removeDefaultRoyalty",
      "outputs": [],
      "stateMutability": "nonpayable",
      "type": "function"
    },
    {
      "inputs": [
        {
          "internalType": "uint256",
          "name": "tokenId",
          "type": "uint256"
        }
      ],
      "name": "removeTokenRoyalty",
      "outputs": [],
      "stateMutability": "nonpayable",
      "type": "function"
    },
    {
      "inputs": [],
      "name": "renounceOwnership",
      "outputs": [],
      "stateMutability": "nonpayable",
      "type": "function"
    },
    {
      "inputs": [
        {
          "internalType": "uint256",
          "name": "_tokenId",
          "type": "uint256"
        },
        {
          "internalType": "uint256",
          "name": "_salePrice",
          "type": "uint256"
        }
      ],
      "name": "royaltyInfo",
      "outputs": [
        {
          "internalType": "address",
          "name": "",
          "type": "address"
        },
        {
          "internalType": "uint256",
          "name": "",
          "type": "uint256"
        }
      ],
      "stateMutability": "view",
      "type": "function"
    },
    {
      "inputs": [
        {
          "internalType": "address",
          "name": "to",
          "type": "address"
        },
        {
          "internalType": "uint256",
          "name": "tokenId",
          "type": "uint256"
        }
      ],
      "name": "safeMint",
      "outputs": [],
      "stateMutability": "nonpayable",
      "type": "function"
    },
    {
      "inputs": [
        {
          "internalType": "address",
          "name": "to",
          "type": "address"
        },
        {
          "internalType": "uint256",
          "name": "tokenId",
          "type": "uint256"
        },
        {
          "internalType": "address",
          "name": "feeReceiver",
          "type": "address"
        },
        {
          "internalType": "uint96",
          "name": "feeNumerator",
          "type": "uint96"
        }
      ],
      "name": "safeMintWithRoyalty",
      "outputs": [],
      "stateMutability": "nonpayable",
      "type": "function"
    },
    {
      "inputs": [
        {
          "internalType": "address",
          "name": "from",
          "type": "address"
        },
        {
          "internalType": "address",
          "name": "to",
          "type": "address"
        },
        {
          "internalType": "uint256",
          "name": "tokenId",
          "type": "uint256"
        }
      ],
      "name": "safeTransferFrom",
      "outputs": [],
      "stateMutability": "nonpayable",
      "type": "function"
    },
    {
      "inputs": [
        {
          "internalType": "address",
          "name": "from",
          "type": "address"
        },
        {
          "internalType": "address",
          "name": "to",
          "type": "address"
        },
        {
          "internalType": "uint256",
          "name": "tokenId",
          "type": "uint256"
        },
        {
          "internalType": "bytes",
          "name": "data",
          "type": "bytes"
        }
      ],
      "name": "safeTransferFrom",
      "outputs": [],
      "stateMutability": "nonpayable",
      "type": "function"
    },
    {
      "inputs": [
        {
          "internalType": "address",
          "name": "operator",
          "type": "address"
        },
        {
          "internalType": "bool",
          "name": "approved",
          "type": "bool"
        }
      ],
      "name": "setApprovalForAll",
      "outputs": [],
      "stateMutability": "nonpayable",
      "type": "function"
    },
    {
      "inputs": [
        {
          "internalType": "bytes4",
          "name": "interfaceId",
          "type": "bytes4"
        }
      ],
      "name": "supportsInterface",
      "outputs": [
        {
          "internalType": "bool",
          "name": "",
          "type": "bool"
        }
      ],
      "stateMutability": "view",
      "type": "function"
    },
    {
      "inputs": [],
      "name": "symbol",
      "outputs": [
        {
          "internalType": "string",
          "name": "",
          "type": "string"
        }
      ],
      "stateMutability": "view",
      "type": "function"
    },
    {
      "inputs": [
        {
          "internalType": "uint256",
          "name": "index",
          "type": "uint256"
        }
      ],
      "name": "tokenByIndex",
      "outputs": [
        {
          "internalType": "uint256",
          "name": "",
          "type": "uint256"
        }
      ],
      "stateMutability": "view",
      "type": "function"
    },
    {
      "inputs": [
        {
          "internalType": "address",
          "name": "owner",
          "type": "address"
        },
        {
          "internalType": "uint256",
          "name": "index",
          "type": "uint256"
        }
      ],
      "name": "tokenOfOwnerByIndex",
      "outputs": [
        {
          "internalType": "uint256",
          "name": "",
          "type": "uint256"
        }
      ],
      "stateMutability": "view",
      "type": "function"
    },
    {
      "inputs": [
        {
          "internalType": "uint256",
          "name": "tokenId",
          "type": "uint256"
        }
      ],
      "name": "tokenURI",
      "outputs": [
        {
          "internalType": "string",
          "name": "",
          "type": "string"
        }
      ],
      "stateMutability": "view",
      "type": "function"
    },
    {
      "inputs": [],
      "name": "totalSupply",
      "outputs": [
        {
          "internalType": "uint256",
          "name": "",
          "type": "uint256"
        }
      ],
      "stateMutability": "view",
      "type": "function"
    },
    {
      "inputs": [
        {
          "internalType": "address",
          "name": "from",
          "type": "address"
        },
        {
          "internalType": "address",
          "name": "to",
          "type": "address"
        },
        {
          "internalType": "uint256",
          "name": "tokenId",
          "type": "uint256"
        }
      ],
      "name": "transferFrom",
      "outputs": [],
      "stateMutability": "nonpayable",
      "type": "function"
    },
    {
      "inputs": [
        {
          "internalType": "address",
          "name": "newOwner",
          "type": "address"
        }
      ],
      "name": "transferOwnership",
      "outputs": [],
      "stateMutability": "nonpayable",
      "type": "function"
    },
    {
      "inputs": [],
      "name": "unpause",
      "outputs": [],
      "stateMutability": "nonpayable",
      "type": "function"
    },
    {
      "inputs": [
        {
          "internalType": "string",
          "name": "_newContractURI",
          "type": "string"
        }
      ],
      "name": "updateContractURI",
      "outputs": [],
      "stateMutability": "nonpayable",
      "type": "function"
    },
    {
      "inputs": [
        {
          "internalType": "address",
          "name": "receiver",
          "type": "address"
        },
        {
          "internalType": "uint96",
          "name": "feeNumerator",
          "type": "uint96"
        }
      ],
      "name": "updateDefaultRoyalty",
      "outputs": [],
      "stateMutability": "nonpayable",
      "type": "function"
    },
    {
      "inputs": [
        {
          "internalType": "uint256",
          "name": "tokenId",
          "type": "uint256"
        },
        {
          "internalType": "address",
          "name": "receiver",
          "type": "address"
        },
        {
          "internalType": "uint96",
          "name": "feeNumerator",
          "type": "uint96"
        }
      ],
      "name": "updateTokenRoyalty",
      "outputs": [],
      "stateMutability": "nonpayable",
      "type": "function"
    },
    {
      "inputs": [
        {
          "internalType": "address",
          "name": "newImplementation",
          "type": "address"
        }
      ],
      "name": "upgradeTo",
      "outputs": [],
      "stateMutability": "nonpayable",
      "type": "function"
    },
    {
      "inputs": [
        {
          "internalType": "address",
          "name": "newImplementation",
          "type": "address"
        },
        {
          "internalType": "bytes",
          "name": "data",
          "type": "bytes"
        }
      ],
      "name": "upgradeToAndCall",
      "outputs": [],
      "stateMutability": "payable",
      "type": "function"
    }
  ],
  "bytecode": "0x60a0604052306080523480156200001557600080fd5b506200002062000026565b620000e8565b600054610100900460ff1615620000935760405162461bcd60e51b815260206004820152602760248201527f496e697469616c697a61626c653a20636f6e747261637420697320696e697469604482015266616c697a696e6760c81b606482015260840160405180910390fd5b60005460ff9081161015620000e6576000805460ff191660ff9081179091556040519081527f7f26b83ff96e1f2b6a682f133852f6798a09c465da95921460cefb38474024989060200160405180910390a15b565b608051612f346200012060003960008181610a6f01528181610aaf01528181610ba701528181610be70152610d0d0152612f346000f3fe60806040526004361061021a5760003560e01c80636352211e11610123578063a1448194116100ab578063e8a3d4851161006f578063e8a3d48514610631578063e985e9c514610646578063f10ac4a11461068f578063f2fde38b146106af578063f399e22e146106cf57600080fd5b8063a144819414610591578063a22cb465146105b1578063b88d4fde146105d1578063c87b56dd146105f1578063d691e43c1461061157600080fd5b80638456cb59116100f25780638456cb591461051357806386e228d5146105285780638da5cb5b1461054857806395d89b411461056757806397ec4fba1461057c57600080fd5b80636352211e1461049e57806370a08231146104be578063715018a6146104de5780637e5b1e24146104f357600080fd5b80632f745c59116101a657806342966c681161017557806342966c681461041d5780634f1ef2861461043d5780634f6ccce71461045057806352d1902d146104705780635c975abb1461048557600080fd5b80632f745c59146103a85780633659cfe6146103c85780633f4ba83a146103e857806342842e0e146103fd57600080fd5b80630d8e6e2c116101ed5780630d8e6e2c146102d057806318160ddd1461030a5780631e6b58181461032957806323b872dd146103495780632a55205a1461036957600080fd5b806301ffc9a71461021f57806306fdde0314610254578063081812fc14610276578063095ea7b3146102ae575b600080fd5b34801561022b57600080fd5b5061023f61023a3660046126e1565b6106ef565b60405190151581526020015b60405180910390f35b34801561026057600080fd5b50610269610700565b60405161024b9190612756565b34801561028257600080fd5b50610296610291366004612769565b610792565b6040516001600160a01b03909116815260200161024b565b3480156102ba57600080fd5b506102ce6102c936600461279e565b6107b9565b005b3480156102dc57600080fd5b506040805180820190915260118152702a3434b99034b9903b32b939b4b7b7101960791b6020820152610269565b34801561031657600080fd5b5060cb545b60405190815260200161024b565b34801561033557600080fd5b506102ce610344366004612769565b6108d4565b34801561035557600080fd5b506102ce6103643660046127c8565b6108f0565b34801561037557600080fd5b50610389610384366004612804565b610922565b604080516001600160a01b03909316835260208301919091520161024b565b3480156103b457600080fd5b5061031b6103c336600461279e565b6109ce565b3480156103d457600080fd5b506102ce6103e3366004612826565b610a64565b3480156103f457600080fd5b506102ce610b41565b34801561040957600080fd5b506102ce6104183660046127c8565b610b53565b34801561042957600080fd5b506102ce610438366004612769565b610b6e565b6102ce61044b3660046128e4565b610b9c565b34801561045c57600080fd5b5061031b61046b366004612769565b610c6d565b34801561047c57600080fd5b5061031b610d00565b34801561049157600080fd5b5061012d5460ff1661023f565b3480156104aa57600080fd5b506102966104b9366004612769565b610db3565b3480156104ca57600080fd5b5061031b6104d9366004612826565b610e13565b3480156104ea57600080fd5b506102ce610e99565b3480156104ff57600080fd5b506102ce61050e366004612932565b610eab565b34801561051f57600080fd5b506102ce610ec7565b34801561053457600080fd5b506102ce61054336600461297e565b610ed7565b34801561055457600080fd5b5061015f546001600160a01b0316610296565b34801561057357600080fd5b50610269610eea565b34801561058857600080fd5b506102ce610ef9565b34801561059d57600080fd5b506102ce6105ac36600461279e565b610f0b565b3480156105bd57600080fd5b506102ce6105cc3660046129ba565b610f1d565b3480156105dd57600080fd5b506102ce6105ec3660046129f6565b610f28565b3480156105fd57600080fd5b5061026961060c366004612769565b610f60565b34801561061d57600080fd5b506102ce61062c366004612a5e565b610fc7565b34801561063d57600080fd5b50610269610fd9565b34801561065257600080fd5b5061023f610661366004612a91565b6001600160a01b039182166000908152606a6020908152604080832093909416825291909152205460ff1690565b34801561069b57600080fd5b506102ce6106aa366004612abb565b611068565b3480156106bb57600080fd5b506102ce6106ca366004612826565b611085565b3480156106db57600080fd5b506102ce6106ea3660046128e4565b6110fb565b60006106fa82611293565b92915050565b60606065805461070f90612b08565b80601f016020809104026020016040519081016040528092919081815260200182805461073b90612b08565b80156107885780601f1061075d57610100808354040283529160200191610788565b820191906000526020600020905b81548152906001019060200180831161076b57829003601f168201915b5050505050905090565b600061079d826112b8565b506000908152606960205260409020546001600160a01b031690565b60006107c482610db3565b9050806001600160a01b0316836001600160a01b031614156108375760405162461bcd60e51b815260206004820152602160248201527f4552433732313a20617070726f76616c20746f2063757272656e74206f776e656044820152603960f91b60648201526084015b60405180910390fd5b336001600160a01b038216148061085357506108538133610661565b6108c55760405162461bcd60e51b815260206004820152603e60248201527f4552433732313a20617070726f76652063616c6c6572206973206e6f7420746f60448201527f6b656e206f776e6572206e6f7220617070726f76656420666f7220616c6c0000606482015260840161082e565b6108cf8383611317565b505050565b6108dc611385565b600090815260986020526040812055565b50565b6108fb335b826113e0565b6109175760405162461bcd60e51b815260040161082e90612b43565b6108cf83838361145f565b60008281526098602090815260408083208151808301909252546001600160a01b038116808352600160a01b9091046001600160601b03169282019290925282916109975750604080518082019091526097546001600160a01b0381168252600160a01b90046001600160601b031660208201525b6020810151600090612710906109b6906001600160601b031687612ba7565b6109c09190612bdc565b915196919550909350505050565b60006109d983610e13565b8210610a3b5760405162461bcd60e51b815260206004820152602b60248201527f455243373231456e756d657261626c653a206f776e657220696e646578206f7560448201526a74206f6620626f756e647360a81b606482015260840161082e565b506001600160a01b0391909116600090815260c960209081526040808320938352929052205490565b306001600160a01b037f0000000000000000000000000000000000000000000000000000000000000000161415610aad5760405162461bcd60e51b815260040161082e90612bf0565b7f00000000000000000000000000000000000000000000000000000000000000006001600160a01b0316610af6600080516020612eb8833981519152546001600160a01b031690565b6001600160a01b031614610b1c5760405162461bcd60e51b815260040161082e90612c3c565b610b2581611606565b604080516000808252602082019092526108ed9183919061160e565b610b49611385565b610b51611779565b565b6108cf83838360405180602001604052806000815250610f28565b610b77336108f5565b610b935760405162461bcd60e51b815260040161082e90612b43565b6108ed816117cc565b306001600160a01b037f0000000000000000000000000000000000000000000000000000000000000000161415610be55760405162461bcd60e51b815260040161082e90612bf0565b7f00000000000000000000000000000000000000000000000000000000000000006001600160a01b0316610c2e600080516020612eb8833981519152546001600160a01b031690565b6001600160a01b031614610c545760405162461bcd60e51b815260040161082e90612c3c565b610c5d82611606565b610c698282600161160e565b5050565b6000610c7860cb5490565b8210610cdb5760405162461bcd60e51b815260206004820152602c60248201527f455243373231456e756d657261626c653a20676c6f62616c20696e646578206f60448201526b7574206f6620626f756e647360a01b606482015260840161082e565b60cb8281548110610cee57610cee612c88565b90600052602060002001549050919050565b6000306001600160a01b037f00000000000000000000000000000000000000000000000000000000000000001614610da05760405162461bcd60e51b815260206004820152603860248201527f555550535570677261646561626c653a206d757374206e6f742062652063616c60448201527f6c6564207468726f7567682064656c656761746563616c6c0000000000000000606482015260840161082e565b50600080516020612eb883398151915290565b6000818152606760205260408120546001600160a01b0316806106fa5760405162461bcd60e51b8152602060048201526018602482015277115490cdcc8c4e881a5b9d985b1a59081d1bdad95b88125160421b604482015260640161082e565b60006001600160a01b038216610e7d5760405162461bcd60e51b815260206004820152602960248201527f4552433732313a2061646472657373207a65726f206973206e6f7420612076616044820152683634b21037bbb732b960b91b606482015260840161082e565b506001600160a01b031660009081526068602052604090205490565b610ea1611385565b610b5160006117d5565b610eb3611385565b8051610c69906101f5906020840190612632565b610ecf611385565b610b51611828565b610edf611385565b6108cf838383611866565b60606066805461070f90612b08565b610f01611385565b610b516000609755565b610f13611385565b610c698282611931565b610c6933838361194b565b610f3233836113e0565b610f4e5760405162461bcd60e51b815260040161082e90612b43565b610f5a84848484611a1a565b50505050565b6060610f6b826112b8565b6000610f75611a4d565b90506000815111610f955760405180602001604052806000815250610fc0565b80610f9f84611a5d565b604051602001610fb0929190612c9e565b6040516020818303038152906040525b9392505050565b610fcf611385565b610c698282611b5b565b6101f58054610fe790612b08565b80601f016020809104026020016040519081016040528092919081815260200182805461101390612b08565b80156110605780601f1061103557610100808354040283529160200191611060565b820191906000526020600020905b81548152906001019060200180831161104357829003601f168201915b505050505081565b611070611385565b61107a8484610f0b565b610f5a838383610ed7565b61108d611385565b6001600160a01b0381166110f25760405162461bcd60e51b815260206004820152602660248201527f4f776e61626c653a206e6577206f776e657220697320746865207a65726f206160448201526564647265737360d01b606482015260840161082e565b6108ed816117d5565b600054610100900460ff161580801561111b5750600054600160ff909116105b806111355750303b158015611135575060005460ff166001145b6111985760405162461bcd60e51b815260206004820152602e60248201527f496e697469616c697a61626c653a20636f6e747261637420697320616c72656160448201526d191e481a5b9a5d1a585b1a5e995960921b606482015260840161082e565b6000805460ff1916600117905580156111bb576000805461ff0019166101001790555b6112046040518060400160405280600b81526020016a155b1d1c985d9a5bdb195d60aa1b815250604051806040016040528060048152602001634f43544960e01b815250611c15565b61120c611c46565b611214611c6d565b61121c611c9c565b611224611c46565b61122c611c46565b611234611c46565b611240836103e8610fc7565b61124982610eab565b80156108cf576000805461ff0019169055604051600181527f7f26b83ff96e1f2b6a682f133852f6798a09c465da95921460cefb38474024989060200160405180910390a1505050565b60006001600160e01b0319821663780e9d6360e01b14806106fa57506106fa82611ccb565b6000818152606760205260409020546001600160a01b03166108ed5760405162461bcd60e51b8152602060048201526018602482015277115490cdcc8c4e881a5b9d985b1a59081d1bdad95b88125160421b604482015260640161082e565b600081815260696020526040902080546001600160a01b0319166001600160a01b038416908117909155819061134c82610db3565b6001600160a01b03167f8c5be1e5ebec7d5bd14f71427d1e84f3dd0314c0f7b2291e5b200ac8c7c3b92560405160405180910390a45050565b61015f546001600160a01b03163314610b515760405162461bcd60e51b815260206004820181905260248201527f4f776e61626c653a2063616c6c6572206973206e6f7420746865206f776e6572604482015260640161082e565b6000806113ec83610db3565b9050806001600160a01b0316846001600160a01b0316148061143357506001600160a01b038082166000908152606a602090815260408083209388168352929052205460ff165b806114575750836001600160a01b031661144c84610792565b6001600160a01b0316145b949350505050565b826001600160a01b031661147282610db3565b6001600160a01b0316146114d65760405162461bcd60e51b815260206004820152602560248201527f4552433732313a207472616e736665722066726f6d20696e636f72726563742060448201526437bbb732b960d91b606482015260840161082e565b6001600160a01b0382166115385760405162461bcd60e51b8152602060048201526024808201527f4552433732313a207472616e7366657220746f20746865207a65726f206164646044820152637265737360e01b606482015260840161082e565b611543838383611cf0565b61154e600082611317565b6001600160a01b0383166000908152606860205260408120805460019290611577908490612ccd565b90915550506001600160a01b03821660009081526068602052604081208054600192906115a5908490612ce4565b909155505060008181526067602052604080822080546001600160a01b0319166001600160a01b0386811691821790925591518493918716917fddf252ad1be2c89b69c2b068fc378daa952ba7f163c4a11628f55a4df523b3ef91a4505050565b6108ed611385565b7f4910fdfa16fed3260ed0e7147f7cc6da11a60208b5b9406d12a635614ffd91435460ff1615611641576108cf83611d03565b826001600160a01b03166352d1902d6040518163ffffffff1660e01b8152600401602060405180830381865afa92505050801561169b575060408051601f3d908101601f1916820190925261169891810190612cfc565b60015b6116fe5760405162461bcd60e51b815260206004820152602e60248201527f45524331393637557067726164653a206e657720696d706c656d656e7461746960448201526d6f6e206973206e6f74205555505360901b606482015260840161082e565b600080516020612eb8833981519152811461176d5760405162461bcd60e51b815260206004820152602960248201527f45524331393637557067726164653a20756e737570706f727465642070726f786044820152681a58589b195555525160ba1b606482015260840161082e565b506108cf838383611d9f565b611781611dc4565b61012d805460ff191690557f5db9ee0a495bf2e6ff9c91a7834c1ba4fdd244a5e8aa4e537bd38aeae4b073aa335b6040516001600160a01b03909116815260200160405180910390a1565b6108dc81611e0e565b61015f80546001600160a01b038381166001600160a01b0319831681179093556040519116919082907f8be0079c531659141344cd1fd0a4f28419497f9722a3daafe3b4186f6b6457e090600090a35050565b611830611eb5565b61012d805460ff191660011790557f62e78cea01bee320cd4e420270b5ea74000d11b0c9f74754ebdbfc544b05a2586117af3390565b6127106001600160601b03821611156118915760405162461bcd60e51b815260040161082e90612d15565b6001600160a01b0382166118e75760405162461bcd60e51b815260206004820152601b60248201527f455243323938313a20496e76616c696420706172616d65746572730000000000604482015260640161082e565b6040805180820182526001600160a01b0393841681526001600160601b0392831660208083019182526000968752609890529190942093519051909116600160a01b029116179055565b610c69828260405180602001604052806000815250611efc565b816001600160a01b0316836001600160a01b031614156119ad5760405162461bcd60e51b815260206004820152601960248201527f4552433732313a20617070726f766520746f2063616c6c657200000000000000604482015260640161082e565b6001600160a01b038381166000818152606a6020908152604080832094871680845294825291829020805460ff191686151590811790915591519182527f17307eab39ab6107e8899845ad3d59bd9653f200f220920489ca2b5937696c31910160405180910390a3505050565b611a2584848461145f565b611a3184848484611f2f565b610f5a5760405162461bcd60e51b815260040161082e90612d5f565b60606101f5805461070f90612b08565b606081611a815750506040805180820190915260018152600360fc1b602082015290565b8160005b8115611aab5780611a9581612db1565b9150611aa49050600a83612bdc565b9150611a85565b60008167ffffffffffffffff811115611ac657611ac6612841565b6040519080825280601f01601f191660200182016040528015611af0576020820181803683370190505b5090505b841561145757611b05600183612ccd565b9150611b12600a86612dcc565b611b1d906030612ce4565b60f81b818381518110611b3257611b32612c88565b60200101906001600160f81b031916908160001a905350611b54600a86612bdc565b9450611af4565b6127106001600160601b0382161115611b865760405162461bcd60e51b815260040161082e90612d15565b6001600160a01b038216611bdc5760405162461bcd60e51b815260206004820152601960248201527f455243323938313a20696e76616c696420726563656976657200000000000000604482015260640161082e565b604080518082019091526001600160a01b039092168083526001600160601b039091166020909201829052600160a01b90910217609755565b600054610100900460ff16611c3c5760405162461bcd60e51b815260040161082e90612de0565b610c69828261202d565b600054610100900460ff16610b515760405162461bcd60e51b815260040161082e90612de0565b600054610100900460ff16611c945760405162461bcd60e51b815260040161082e90612de0565b610b5161207b565b600054610100900460ff16611cc35760405162461bcd60e51b815260040161082e90612de0565b610b516120af565b60006001600160e01b0319821663152a902d60e11b14806106fa57506106fa826120df565b611cf8611eb5565b6108cf83838361212f565b6001600160a01b0381163b611d705760405162461bcd60e51b815260206004820152602d60248201527f455243313936373a206e657720696d706c656d656e746174696f6e206973206e60448201526c1bdd08184818dbdb9d1c9858dd609a1b606482015260840161082e565b600080516020612eb883398151915280546001600160a01b0319166001600160a01b0392909216919091179055565b611da8836121e7565b600082511180611db55750805b156108cf57610f5a8383612227565b61012d5460ff16610b515760405162461bcd60e51b815260206004820152601460248201527314185d5cd8589b194e881b9bdd081c185d5cd95960621b604482015260640161082e565b6000611e1982610db3565b9050611e2781600084611cf0565b611e32600083611317565b6001600160a01b0381166000908152606860205260408120805460019290611e5b908490612ccd565b909155505060008281526067602052604080822080546001600160a01b0319169055518391906001600160a01b038416907fddf252ad1be2c89b69c2b068fc378daa952ba7f163c4a11628f55a4df523b3ef908390a45050565b61012d5460ff1615610b515760405162461bcd60e51b815260206004820152601060248201526f14185d5cd8589b194e881c185d5cd95960821b604482015260640161082e565b611f06838361231b565b611f136000848484611f2f565b6108cf5760405162461bcd60e51b815260040161082e90612d5f565b60006001600160a01b0384163b1561202257604051630a85bd0160e11b81526001600160a01b0385169063150b7a0290611f73903390899088908890600401612e2b565b6020604051808303816000875af1925050508015611fae575060408051601f3d908101601f19168201909252611fab91810190612e68565b60015b612008573d808015611fdc576040519150601f19603f3d011682016040523d82523d6000602084013e611fe1565b606091505b5080516120005760405162461bcd60e51b815260040161082e90612d5f565b805181602001fd5b6001600160e01b031916630a85bd0160e11b149050611457565b506001949350505050565b600054610100900460ff166120545760405162461bcd60e51b815260040161082e90612de0565b8151612067906065906020850190612632565b5080516108cf906066906020840190612632565b600054610100900460ff166120a25760405162461bcd60e51b815260040161082e90612de0565b61012d805460ff19169055565b600054610100900460ff166120d65760405162461bcd60e51b815260040161082e90612de0565b610b51336117d5565b60006001600160e01b031982166380ac58cd60e01b148061211057506001600160e01b03198216635b5e139f60e01b145b806106fa57506301ffc9a760e01b6001600160e01b03198316146106fa565b6001600160a01b03831661218a576121858160cb8054600083815260cc60205260408120829055600182018355919091527fa7ce836d032b2bf62b7e2097a8e0a6d8aeb35405ad15271e96d3b0188a1d06fb0155565b6121ad565b816001600160a01b0316836001600160a01b0316146121ad576121ad8382612469565b6001600160a01b0382166121c4576108cf81612506565b826001600160a01b0316826001600160a01b0316146108cf576108cf82826125b5565b6121f081611d03565b6040516001600160a01b038216907fbc7cd75a20ee27fd9adebab32041f755214dbc6bffa90cc0225b39da2e5c2d3b90600090a250565b60606001600160a01b0383163b61228f5760405162461bcd60e51b815260206004820152602660248201527f416464726573733a2064656c65676174652063616c6c20746f206e6f6e2d636f6044820152651b9d1c9858dd60d21b606482015260840161082e565b600080846001600160a01b0316846040516122aa9190612e85565b600060405180830381855af49150503d80600081146122e5576040519150601f19603f3d011682016040523d82523d6000602084013e6122ea565b606091505b50915091506123128282604051806060016040528060278152602001612ed8602791396125f9565b95945050505050565b6001600160a01b0382166123715760405162461bcd60e51b815260206004820181905260248201527f4552433732313a206d696e7420746f20746865207a65726f2061646472657373604482015260640161082e565b6000818152606760205260409020546001600160a01b0316156123d65760405162461bcd60e51b815260206004820152601c60248201527f4552433732313a20746f6b656e20616c7265616479206d696e74656400000000604482015260640161082e565b6123e260008383611cf0565b6001600160a01b038216600090815260686020526040812080546001929061240b908490612ce4565b909155505060008181526067602052604080822080546001600160a01b0319166001600160a01b03861690811790915590518392907fddf252ad1be2c89b69c2b068fc378daa952ba7f163c4a11628f55a4df523b3ef908290a45050565b6000600161247684610e13565b6124809190612ccd565b600083815260ca60205260409020549091508082146124d3576001600160a01b038416600090815260c960209081526040808320858452825280832054848452818420819055835260ca90915290208190555b50600091825260ca602090815260408084208490556001600160a01b03909416835260c981528383209183525290812055565b60cb5460009061251890600190612ccd565b600083815260cc602052604081205460cb805493945090928490811061254057612540612c88565b906000526020600020015490508060cb838154811061256157612561612c88565b600091825260208083209091019290925582815260cc909152604080822084905585825281205560cb80548061259957612599612ea1565b6001900381819060005260206000200160009055905550505050565b60006125c083610e13565b6001600160a01b03909316600090815260c960209081526040808320868452825280832085905593825260ca9052919091209190915550565b60608315612608575081610fc0565b8251156126185782518084602001fd5b8160405162461bcd60e51b815260040161082e9190612756565b82805461263e90612b08565b90600052602060002090601f01602090048101928261266057600085556126a6565b82601f1061267957805160ff19168380011785556126a6565b828001600101855582156126a6579182015b828111156126a657825182559160200191906001019061268b565b506126b29291506126b6565b5090565b5b808211156126b257600081556001016126b7565b6001600160e01b0319811681146108ed57600080fd5b6000602082840312156126f357600080fd5b8135610fc0816126cb565b60005b83811015612719578181015183820152602001612701565b83811115610f5a5750506000910152565b600081518084526127428160208601602086016126fe565b601f01601f19169290920160200192915050565b602081526000610fc0602083018461272a565b60006020828403121561277b57600080fd5b5035919050565b80356001600160a01b038116811461279957600080fd5b919050565b600080604083850312156127b157600080fd5b6127ba83612782565b946020939093013593505050565b6000806000606084860312156127dd57600080fd5b6127e684612782565b92506127f460208501612782565b9150604084013590509250925092565b6000806040838503121561281757600080fd5b50508035926020909101359150565b60006020828403121561283857600080fd5b610fc082612782565b634e487b7160e01b600052604160045260246000fd5b600082601f83011261286857600080fd5b813567ffffffffffffffff8082111561288357612883612841565b604051601f8301601f19908116603f011681019082821181831017156128ab576128ab612841565b816040528381528660208588010111156128c457600080fd5b836020870160208301376000602085830101528094505050505092915050565b600080604083850312156128f757600080fd5b61290083612782565b9150602083013567ffffffffffffffff81111561291c57600080fd5b61292885828601612857565b9150509250929050565b60006020828403121561294457600080fd5b813567ffffffffffffffff81111561295b57600080fd5b61145784828501612857565b80356001600160601b038116811461279957600080fd5b60008060006060848603121561299357600080fd5b833592506129a360208501612782565b91506129b160408501612967565b90509250925092565b600080604083850312156129cd57600080fd5b6129d683612782565b9150602083013580151581146129eb57600080fd5b809150509250929050565b60008060008060808587031215612a0c57600080fd5b612a1585612782565b9350612a2360208601612782565b925060408501359150606085013567ffffffffffffffff811115612a4657600080fd5b612a5287828801612857565b91505092959194509250565b60008060408385031215612a7157600080fd5b612a7a83612782565b9150612a8860208401612967565b90509250929050565b60008060408385031215612aa457600080fd5b612aad83612782565b9150612a8860208401612782565b60008060008060808587031215612ad157600080fd5b612ada85612782565b935060208501359250612aef60408601612782565b9150612afd60608601612967565b905092959194509250565b600181811c90821680612b1c57607f821691505b60208210811415612b3d57634e487b7160e01b600052602260045260246000fd5b50919050565b6020808252602e908201527f4552433732313a2063616c6c6572206973206e6f7420746f6b656e206f776e6560408201526d1c881b9bdc88185c1c1c9bdd995960921b606082015260800190565b634e487b7160e01b600052601160045260246000fd5b6000816000190483118215151615612bc157612bc1612b91565b500290565b634e487b7160e01b600052601260045260246000fd5b600082612beb57612beb612bc6565b500490565b6020808252602c908201527f46756e6374696f6e206d7573742062652063616c6c6564207468726f7567682060408201526b19195b1959d85d1958d85b1b60a21b606082015260800190565b6020808252602c908201527f46756e6374696f6e206d7573742062652063616c6c6564207468726f7567682060408201526b6163746976652070726f787960a01b606082015260800190565b634e487b7160e01b600052603260045260246000fd5b60008351612cb08184602088016126fe565b835190830190612cc48183602088016126fe565b01949350505050565b600082821015612cdf57612cdf612b91565b500390565b60008219821115612cf757612cf7612b91565b500190565b600060208284031215612d0e57600080fd5b5051919050565b6020808252602a908201527f455243323938313a20726f79616c7479206665652077696c6c206578636565646040820152692073616c65507269636560b01b606082015260800190565b60208082526032908201527f4552433732313a207472616e7366657220746f206e6f6e20455243373231526560408201527131b2b4bb32b91034b6b83632b6b2b73a32b960711b606082015260800190565b6000600019821415612dc557612dc5612b91565b5060010190565b600082612ddb57612ddb612bc6565b500690565b6020808252602b908201527f496e697469616c697a61626c653a20636f6e7472616374206973206e6f74206960408201526a6e697469616c697a696e6760a81b606082015260800190565b6001600160a01b0385811682528416602082015260408101839052608060608201819052600090612e5e9083018461272a565b9695505050505050565b600060208284031215612e7a57600080fd5b8151610fc0816126cb565b60008251612e978184602087016126fe565b9190910192915050565b634e487b7160e01b600052603160045260246000fdfe360894a13ba1a3210667c828492db98dca3e2076cc3735a920a3ca505d382bbc416464726573733a206c6f772d6c6576656c2064656c65676174652063616c6c206661696c6564a264697066735822122010f609a377a6f1f94996e9f182e8300270d4b115abca74ac4f76d8f6be1ca8d364736f6c634300080c0033",
  "linkReferences": {},
  "deployedLinkReferences": {}
}