{
  "_format": "hh-sol-artifact-1",
  "contractName": "OctiToken",
  "sourceName": "contracts/OctiToken.sol",
  "abi": [
    {
      "inputs": [],
      "stateMutability": "nonpayable",
      "type": "constructor"
    },
    {
      "anonymous": false,
      "inputs": [
        {
          "indexed": false,
          "internalType": "address",
          "name": "previousAdmin",
          "type": "address"
        },
        {
          "indexed": false,
          "internalType": "address",
          "name": "newAdmin",
          "type": "address"
        }
      ],
      "name": "AdminChanged",
      "type": "event"
    },
    {
      "anonymous": false,
      "inputs": [
        {
          "indexed": true,
          "internalType": "address",
          "name": "owner",
          "type": "address"
        },
        {
          "indexed": true,
          "internalType": "address",
          "name": "approved",
          "type": "address"
        },
        {
          "indexed": true,
          "internalType": "uint256",
          "name": "tokenId",
          "type": "uint256"
        }
      ],
      "name": "Approval",
      "type": "event"
    },
    {
      "anonymous": false,
      "inputs": [
        {
          "indexed": true,
          "internalType": "address",
          "name": "owner",
          "type": "address"
        },
        {
          "indexed": true,
          "internalType": "address",
          "name": "operator",
          "type": "address"
        },
        {
          "indexed": false,
          "internalType": "bool",
          "name": "approved",
          "type": "bool"
        }
      ],
      "name": "ApprovalForAll",
      "type": "event"
    },
    {
      "anonymous": false,
      "inputs": [
        {
          "indexed": true,
          "internalType": "address",
          "name": "beacon",
          "type": "address"
        }
      ],
      "name": "BeaconUpgraded",
      "type": "event"
    },
    {
      "anonymous": false,
      "inputs": [
        {
          "indexed": false,
          "internalType": "uint8",
          "name": "version",
          "type": "uint8"
        }
      ],
      "name": "Initialized",
      "type": "event"
    },
    {
      "anonymous": false,
      "inputs": [
        {
          "indexed": true,
          "internalType": "address",
          "name": "previousOwner",
          "type": "address"
        },
        {
          "indexed": true,
          "internalType": "address",
          "name": "newOwner",
          "type": "address"
        }
      ],
      "name": "OwnershipTransferred",
      "type": "event"
    },
    {
      "anonymous": false,
      "inputs": [
        {
          "indexed": false,
          "internalType": "address",
          "name": "account",
          "type": "address"
        }
      ],
      "name": "Paused",
      "type": "event"
    },
    {
      "anonymous": false,
      "inputs": [
        {
          "indexed": true,
          "internalType": "address",
          "name": "from",
          "type": "address"
        },
        {
          "indexed": true,
          "internalType": "address",
          "name": "to",
          "type": "address"
        },
        {
          "indexed": true,
          "internalType": "uint256",
          "name": "tokenId",
          "type": "uint256"
        }
      ],
      "name": "Transfer",
      "type": "event"
    },
    {
      "anonymous": false,
      "inputs": [
        {
          "indexed": false,
          "internalType": "address",
          "name": "account",
          "type": "address"
        }
      ],
      "name": "Unpaused",
      "type": "event"
    },
    {
      "anonymous": false,
      "inputs": [
        {
          "indexed": true,
          "internalType": "address",
          "name": "implementation",
          "type": "address"
        }
      ],
      "name": "Upgraded",
      "type": "event"
    },
    {
      "inputs": [
        {
          "internalType": "address",
          "name": "to",
          "type": "address"
        },
        {
          "internalType": "uint256",
          "name": "tokenId",
          "type": "uint256"
        }
      ],
      "name": "approve",
      "outputs": [],
      "stateMutability": "nonpayable",
      "type": "function"
    },
    {
      "inputs": [
        {
          "internalType": "address",
          "name": "owner",
          "type": "address"
        }
      ],
      "name": "balanceOf",
      "outputs": [
        {
          "internalType": "uint256",
          "name": "",
          "type": "uint256"
        }
      ],
      "stateMutability": "view",
      "type": "function"
    },
    {
      "inputs": [
        {
          "internalType": "uint256",
          "name": "tokenId",
          "type": "uint256"
        }
      ],
      "name": "burn",
      "outputs": [],
      "stateMutability": "nonpayable",
      "type": "function"
    },
    {
      "inputs": [],
      "name": "contractURI",
      "outputs": [
        {
          "internalType": "string",
          "name": "",
          "type": "string"
        }
      ],
      "stateMutability": "view",
      "type": "function"
    },
    {
      "inputs": [
        {
          "internalType": "uint256",
          "name": "tokenId",
          "type": "uint256"
        }
      ],
      "name": "getApproved",
      "outputs": [
        {
          "internalType": "address",
          "name": "",
          "type": "address"
        }
      ],
      "stateMutability": "view",
      "type": "function"
    },
    {
      "inputs": [
        {
          "internalType": "address",
          "name": "royaltyAddress",
          "type": "address"
        },
        {
          "internalType": "string",
          "name": "_newContractURI",
          "type": "string"
        }
      ],
      "name": "initialize",
      "outputs": [],
      "stateMutability": "nonpayable",
      "type": "function"
    },
    {
      "inputs": [
        {
          "internalType": "address",
          "name": "owner",
          "type": "address"
        },
        {
          "internalType": "address",
          "name": "operator",
          "type": "address"
        }
      ],
      "name": "isApprovedForAll",
      "outputs": [
        {
          "internalType": "bool",
          "name": "",
          "type": "bool"
        }
      ],
      "stateMutability": "view",
      "type": "function"
    },
    {
      "inputs": [],
      "name": "name",
      "outputs": [
        {
          "internalType": "string",
          "name": "",
          "type": "string"
        }
      ],
      "stateMutability": "view",
      "type": "function"
    },
    {
      "inputs": [],
      "name": "owner",
      "outputs": [
        {
          "internalType": "address",
          "name": "",
          "type": "address"
        }
      ],
      "stateMutability": "view",
      "type": "function"
    },
    {
      "inputs": [
        {
          "internalType": "uint256",
          "name": "tokenId",
          "type": "uint256"
        }
      ],
      "name": "ownerOf",
      "outputs": [
        {
          "internalType": "address",
          "name": "",
          "type": "address"
        }
      ],
      "stateMutability": "view",
      "type": "function"
    },
    {
      "inputs": [],
      "name": "pause",
      "outputs": [],
      "stateMutability": "nonpayable",
      "type": "function"
    },
    {
      "inputs": [],
      "name": "paused",
      "outputs": [
        {
          "internalType": "bool",
          "name": "",
          "type": "bool"
        }
      ],
      "stateMutability": "view",
      "type": "function"
    },
    {
      "inputs": [],
      "name": "proxiableUUID",
      "outputs": [
        {
          "internalType": "bytes32",
          "name": "",
          "type": "bytes32"
        }
      ],
      "stateMutability": "view",
      "type": "function"
    },
    {
      "inputs": [],
      "name": "removeDefaultRoyalty",
      "outputs": [],
      "stateMutability": "nonpayable",
      "type": "function"
    },
    {
      "inputs": [
        {
          "internalType": "uint256",
          "name": "tokenId",
          "type": "uint256"
        }
      ],
      "name": "removeTokenRoyalty",
      "outputs": [],
      "stateMutability": "nonpayable",
      "type": "function"
    },
    {
      "inputs": [],
      "name": "renounceOwnership",
      "outputs": [],
      "stateMutability": "nonpayable",
      "type": "function"
    },
    {
      "inputs": [
        {
          "internalType": "uint256",
          "name": "_tokenId",
          "type": "uint256"
        },
        {
          "internalType": "uint256",
          "name": "_salePrice",
          "type": "uint256"
        }
      ],
      "name": "royaltyInfo",
      "outputs": [
        {
          "internalType": "address",
          "name": "",
          "type": "address"
        },
        {
          "internalType": "uint256",
          "name": "",
          "type": "uint256"
        }
      ],
      "stateMutability": "view",
      "type": "function"
    },
    {
      "inputs": [
        {
          "internalType": "address",
          "name": "to",
          "type": "address"
        },
        {
          "internalType": "uint256",
          "name": "tokenId",
          "type": "uint256"
        }
      ],
      "name": "safeMint",
      "outputs": [],
      "stateMutability": "nonpayable",
      "type": "function"
    },
    {
      "inputs": [
        {
          "internalType": "address",
          "name": "to",
          "type": "address"
        },
        {
          "internalType": "uint256",
          "name": "tokenId",
          "type": "uint256"
        },
        {
          "internalType": "address",
          "name": "feeReceiver",
          "type": "address"
        },
        {
          "internalType": "uint96",
          "name": "feeNumerator",
          "type": "uint96"
        }
      ],
      "name": "safeMintWithRoyalty",
      "outputs": [],
      "stateMutability": "nonpayable",
      "type": "function"
    },
    {
      "inputs": [
        {
          "internalType": "address",
          "name": "from",
          "type": "address"
        },
        {
          "internalType": "address",
          "name": "to",
          "type": "address"
        },
        {
          "internalType": "uint256",
          "name": "tokenId",
          "type": "uint256"
        }
      ],
      "name": "safeTransferFrom",
      "outputs": [],
      "stateMutability": "nonpayable",
      "type": "function"
    },
    {
      "inputs": [
        {
          "internalType": "address",
          "name": "from",
          "type": "address"
        },
        {
          "internalType": "address",
          "name": "to",
          "type": "address"
        },
        {
          "internalType": "uint256",
          "name": "tokenId",
          "type": "uint256"
        },
        {
          "internalType": "bytes",
          "name": "data",
          "type": "bytes"
        }
      ],
      "name": "safeTransferFrom",
      "outputs": [],
      "stateMutability": "nonpayable",
      "type": "function"
    },
    {
      "inputs": [
        {
          "internalType": "address",
          "name": "operator",
          "type": "address"
        },
        {
          "internalType": "bool",
          "name": "approved",
          "type": "bool"
        }
      ],
      "name": "setApprovalForAll",
      "outputs": [],
      "stateMutability": "nonpayable",
      "type": "function"
    },
    {
      "inputs": [
        {
          "internalType": "bytes4",
          "name": "interfaceId",
          "type": "bytes4"
        }
      ],
      "name": "supportsInterface",
      "outputs": [
        {
          "internalType": "bool",
          "name": "",
          "type": "bool"
        }
      ],
      "stateMutability": "view",
      "type": "function"
    },
    {
      "inputs": [],
      "name": "symbol",
      "outputs": [
        {
          "internalType": "string",
          "name": "",
          "type": "string"
        }
      ],
      "stateMutability": "view",
      "type": "function"
    },
    {
      "inputs": [
        {
          "internalType": "uint256",
          "name": "index",
          "type": "uint256"
        }
      ],
      "name": "tokenByIndex",
      "outputs": [
        {
          "internalType": "uint256",
          "name": "",
          "type": "uint256"
        }
      ],
      "stateMutability": "view",
      "type": "function"
    },
    {
      "inputs": [
        {
          "internalType": "address",
          "name": "owner",
          "type": "address"
        },
        {
          "internalType": "uint256",
          "name": "index",
          "type": "uint256"
        }
      ],
      "name": "tokenOfOwnerByIndex",
      "outputs": [
        {
          "internalType": "uint256",
          "name": "",
          "type": "uint256"
        }
      ],
      "stateMutability": "view",
      "type": "function"
    },
    {
      "inputs": [
        {
          "internalType": "uint256",
          "name": "tokenId",
          "type": "uint256"
        }
      ],
      "name": "tokenURI",
      "outputs": [
        {
          "internalType": "string",
          "name": "",
          "type": "string"
        }
      ],
      "stateMutability": "view",
      "type": "function"
    },
    {
      "inputs": [],
      "name": "totalSupply",
      "outputs": [
        {
          "internalType": "uint256",
          "name": "",
          "type": "uint256"
        }
      ],
      "stateMutability": "view",
      "type": "function"
    },
    {
      "inputs": [
        {
          "internalType": "address",
          "name": "from",
          "type": "address"
        },
        {
          "internalType": "address",
          "name": "to",
          "type": "address"
        },
        {
          "internalType": "uint256",
          "name": "tokenId",
          "type": "uint256"
        }
      ],
      "name": "transferFrom",
      "outputs": [],
      "stateMutability": "nonpayable",
      "type": "function"
    },
    {
      "inputs": [
        {
          "internalType": "address",
          "name": "newOwner",
          "type": "address"
        }
      ],
      "name": "transferOwnership",
      "outputs": [],
      "stateMutability": "nonpayable",
      "type": "function"
    },
    {
      "inputs": [],
      "name": "unpause",
      "outputs": [],
      "stateMutability": "nonpayable",
      "type": "function"
    },
    {
      "inputs": [
        {
          "internalType": "string",
          "name": "_newContractURI",
          "type": "string"
        }
      ],
      "name": "updateContractURI",
      "outputs": [],
      "stateMutability": "nonpayable",
      "type": "function"
    },
    {
      "inputs": [
        {
          "internalType": "address",
          "name": "receiver",
          "type": "address"
        },
        {
          "internalType": "uint96",
          "name": "feeNumerator",
          "type": "uint96"
        }
      ],
      "name": "updateDefaultRoyalty",
      "outputs": [],
      "stateMutability": "nonpayable",
      "type": "function"
    },
    {
      "inputs": [
        {
          "internalType": "uint256",
          "name": "tokenId",
          "type": "uint256"
        },
        {
          "internalType": "address",
          "name": "receiver",
          "type": "address"
        },
        {
          "internalType": "uint96",
          "name": "feeNumerator",
          "type": "uint96"
        }
      ],
      "name": "updateTokenRoyalty",
      "outputs": [],
      "stateMutability": "nonpayable",
      "type": "function"
    },
    {
      "inputs": [
        {
          "internalType": "address",
          "name": "newImplementation",
          "type": "address"
        }
      ],
      "name": "upgradeTo",
      "outputs": [],
      "stateMutability": "nonpayable",
      "type": "function"
    },
    {
      "inputs": [
        {
          "internalType": "address",
          "name": "newImplementation",
          "type": "address"
        },
        {
          "internalType": "bytes",
          "name": "data",
          "type": "bytes"
        }
      ],
      "name": "upgradeToAndCall",
      "outputs": [],
      "stateMutability": "payable",
      "type": "function"
    }
  ],
  "bytecode": "0x60a0604052306080523480156200001557600080fd5b506200002062000026565b620000e8565b600054610100900460ff1615620000935760405162461bcd60e51b815260206004820152602760248201527f496e697469616c697a61626c653a20636f6e747261637420697320696e697469604482015266616c697a696e6760c81b606482015260840160405180910390fd5b60005460ff9081161015620000e6576000805460ff191660ff9081179091556040519081527f7f26b83ff96e1f2b6a682f133852f6798a09c465da95921460cefb38474024989060200160405180910390a15b565b608051612eef6200012060003960008181610a2a01528181610a6a01528181610b6201528181610ba20152610cc80152612eef6000f3fe60806040526004361061020f5760003560e01c806370a0823111610118578063a22cb465116100a0578063e8a3d4851161006f578063e8a3d485146105ec578063e985e9c514610601578063f10ac4a11461064a578063f2fde38b1461066a578063f399e22e1461068a57600080fd5b8063a22cb4651461056c578063b88d4fde1461058c578063c87b56dd146105ac578063d691e43c146105cc57600080fd5b806386e228d5116100e757806386e228d5146104e35780638da5cb5b1461050357806395d89b411461052257806397ec4fba14610537578063a14481941461054c57600080fd5b806370a0823114610479578063715018a6146104995780637e5b1e24146104ae5780638456cb59146104ce57600080fd5b80633659cfe61161019b5780634f1ef2861161016a5780634f1ef286146103f85780634f6ccce71461040b57806352d1902d1461042b5780635c975abb146104405780636352211e1461045957600080fd5b80633659cfe6146103835780633f4ba83a146103a357806342842e0e146103b857806342966c68146103d857600080fd5b806318160ddd116101e257806318160ddd146102c55780631e6b5818146102e457806323b872dd146103045780632a55205a146103245780632f745c591461036357600080fd5b806301ffc9a71461021457806306fdde0314610249578063081812fc1461026b578063095ea7b3146102a3575b600080fd5b34801561022057600080fd5b5061023461022f36600461269c565b6106aa565b60405190151581526020015b60405180910390f35b34801561025557600080fd5b5061025e6106bb565b6040516102409190612711565b34801561027757600080fd5b5061028b610286366004612724565b61074d565b6040516001600160a01b039091168152602001610240565b3480156102af57600080fd5b506102c36102be366004612759565b610774565b005b3480156102d157600080fd5b5060cb545b604051908152602001610240565b3480156102f057600080fd5b506102c36102ff366004612724565b61088f565b34801561031057600080fd5b506102c361031f366004612783565b6108ab565b34801561033057600080fd5b5061034461033f3660046127bf565b6108dd565b604080516001600160a01b039093168352602083019190915201610240565b34801561036f57600080fd5b506102d661037e366004612759565b610989565b34801561038f57600080fd5b506102c361039e3660046127e1565b610a1f565b3480156103af57600080fd5b506102c3610afc565b3480156103c457600080fd5b506102c36103d3366004612783565b610b0e565b3480156103e457600080fd5b506102c36103f3366004612724565b610b29565b6102c361040636600461289f565b610b57565b34801561041757600080fd5b506102d6610426366004612724565b610c28565b34801561043757600080fd5b506102d6610cbb565b34801561044c57600080fd5b5061012d5460ff16610234565b34801561046557600080fd5b5061028b610474366004612724565b610d6e565b34801561048557600080fd5b506102d66104943660046127e1565b610dce565b3480156104a557600080fd5b506102c3610e54565b3480156104ba57600080fd5b506102c36104c93660046128ed565b610e66565b3480156104da57600080fd5b506102c3610e82565b3480156104ef57600080fd5b506102c36104fe366004612939565b610e92565b34801561050f57600080fd5b5061015f546001600160a01b031661028b565b34801561052e57600080fd5b5061025e610ea5565b34801561054357600080fd5b506102c3610eb4565b34801561055857600080fd5b506102c3610567366004612759565b610ec6565b34801561057857600080fd5b506102c3610587366004612975565b610ed8565b34801561059857600080fd5b506102c36105a73660046129b1565b610ee3565b3480156105b857600080fd5b5061025e6105c7366004612724565b610f1b565b3480156105d857600080fd5b506102c36105e7366004612a19565b610f82565b3480156105f857600080fd5b5061025e610f94565b34801561060d57600080fd5b5061023461061c366004612a4c565b6001600160a01b039182166000908152606a6020908152604080832093909416825291909152205460ff1690565b34801561065657600080fd5b506102c3610665366004612a76565b611023565b34801561067657600080fd5b506102c36106853660046127e1565b611040565b34801561069657600080fd5b506102c36106a536600461289f565b6110b6565b60006106b58261124e565b92915050565b6060606580546106ca90612ac3565b80601f01602080910402602001604051908101604052809291908181526020018280546106f690612ac3565b80156107435780601f1061071857610100808354040283529160200191610743565b820191906000526020600020905b81548152906001019060200180831161072657829003601f168201915b5050505050905090565b600061075882611273565b506000908152606960205260409020546001600160a01b031690565b600061077f82610d6e565b9050806001600160a01b0316836001600160a01b031614156107f25760405162461bcd60e51b815260206004820152602160248201527f4552433732313a20617070726f76616c20746f2063757272656e74206f776e656044820152603960f91b60648201526084015b60405180910390fd5b336001600160a01b038216148061080e575061080e813361061c565b6108805760405162461bcd60e51b815260206004820152603e60248201527f4552433732313a20617070726f76652063616c6c6572206973206e6f7420746f60448201527f6b656e206f776e6572206e6f7220617070726f76656420666f7220616c6c000060648201526084016107e9565b61088a83836112d2565b505050565b610897611340565b600090815260986020526040812055565b50565b6108b6335b8261139b565b6108d25760405162461bcd60e51b81526004016107e990612afe565b61088a83838361141a565b60008281526098602090815260408083208151808301909252546001600160a01b038116808352600160a01b9091046001600160601b03169282019290925282916109525750604080518082019091526097546001600160a01b0381168252600160a01b90046001600160601b031660208201525b602081015160009061271090610971906001600160601b031687612b62565b61097b9190612b97565b915196919550909350505050565b600061099483610dce565b82106109f65760405162461bcd60e51b815260206004820152602b60248201527f455243373231456e756d657261626c653a206f776e657220696e646578206f7560448201526a74206f6620626f756e647360a81b60648201526084016107e9565b506001600160a01b0391909116600090815260c960209081526040808320938352929052205490565b306001600160a01b037f0000000000000000000000000000000000000000000000000000000000000000161415610a685760405162461bcd60e51b81526004016107e990612bab565b7f00000000000000000000000000000000000000000000000000000000000000006001600160a01b0316610ab1600080516020612e73833981519152546001600160a01b031690565b6001600160a01b031614610ad75760405162461bcd60e51b81526004016107e990612bf7565b610ae0816115c1565b604080516000808252602082019092526108a8918391906115c9565b610b04611340565b610b0c611734565b565b61088a83838360405180602001604052806000815250610ee3565b610b32336108b0565b610b4e5760405162461bcd60e51b81526004016107e990612afe565b6108a881611787565b306001600160a01b037f0000000000000000000000000000000000000000000000000000000000000000161415610ba05760405162461bcd60e51b81526004016107e990612bab565b7f00000000000000000000000000000000000000000000000000000000000000006001600160a01b0316610be9600080516020612e73833981519152546001600160a01b031690565b6001600160a01b031614610c0f5760405162461bcd60e51b81526004016107e990612bf7565b610c18826115c1565b610c24828260016115c9565b5050565b6000610c3360cb5490565b8210610c965760405162461bcd60e51b815260206004820152602c60248201527f455243373231456e756d657261626c653a20676c6f62616c20696e646578206f60448201526b7574206f6620626f756e647360a01b60648201526084016107e9565b60cb8281548110610ca957610ca9612c43565b90600052602060002001549050919050565b6000306001600160a01b037f00000000000000000000000000000000000000000000000000000000000000001614610d5b5760405162461bcd60e51b815260206004820152603860248201527f555550535570677261646561626c653a206d757374206e6f742062652063616c60448201527f6c6564207468726f7567682064656c656761746563616c6c000000000000000060648201526084016107e9565b50600080516020612e7383398151915290565b6000818152606760205260408120546001600160a01b0316806106b55760405162461bcd60e51b8152602060048201526018602482015277115490cdcc8c4e881a5b9d985b1a59081d1bdad95b88125160421b60448201526064016107e9565b60006001600160a01b038216610e385760405162461bcd60e51b815260206004820152602960248201527f4552433732313a2061646472657373207a65726f206973206e6f7420612076616044820152683634b21037bbb732b960b91b60648201526084016107e9565b506001600160a01b031660009081526068602052604090205490565b610e5c611340565b610b0c6000611790565b610e6e611340565b8051610c24906101f59060208401906125ed565b610e8a611340565b610b0c6117e3565b610e9a611340565b61088a838383611821565b6060606680546106ca90612ac3565b610ebc611340565b610b0c6000609755565b610ece611340565b610c2482826118ec565b610c24338383611906565b610eed338361139b565b610f095760405162461bcd60e51b81526004016107e990612afe565b610f15848484846119d5565b50505050565b6060610f2682611273565b6000610f30611a08565b90506000815111610f505760405180602001604052806000815250610f7b565b80610f5a84611a18565b604051602001610f6b929190612c59565b6040516020818303038152906040525b9392505050565b610f8a611340565b610c248282611b16565b6101f58054610fa290612ac3565b80601f0160208091040260200160405190810160405280929190818152602001828054610fce90612ac3565b801561101b5780601f10610ff05761010080835404028352916020019161101b565b820191906000526020600020905b815481529060010190602001808311610ffe57829003601f168201915b505050505081565b61102b611340565b6110358484610ec6565b610f15838383610e92565b611048611340565b6001600160a01b0381166110ad5760405162461bcd60e51b815260206004820152602660248201527f4f776e61626c653a206e6577206f776e657220697320746865207a65726f206160448201526564647265737360d01b60648201526084016107e9565b6108a881611790565b600054610100900460ff16158080156110d65750600054600160ff909116105b806110f05750303b1580156110f0575060005460ff166001145b6111535760405162461bcd60e51b815260206004820152602e60248201527f496e697469616c697a61626c653a20636f6e747261637420697320616c72656160448201526d191e481a5b9a5d1a585b1a5e995960921b60648201526084016107e9565b6000805460ff191660011790558015611176576000805461ff0019166101001790555b6111bf6040518060400160405280600b81526020016a155b1d1c985d9a5bdb195d60aa1b815250604051806040016040528060048152602001634f43544960e01b815250611bd0565b6111c7611c01565b6111cf611c28565b6111d7611c57565b6111df611c01565b6111e7611c01565b6111ef611c01565b6111fb836103e8610f82565b61120482610e66565b801561088a576000805461ff0019169055604051600181527f7f26b83ff96e1f2b6a682f133852f6798a09c465da95921460cefb38474024989060200160405180910390a1505050565b60006001600160e01b0319821663780e9d6360e01b14806106b557506106b582611c86565b6000818152606760205260409020546001600160a01b03166108a85760405162461bcd60e51b8152602060048201526018602482015277115490cdcc8c4e881a5b9d985b1a59081d1bdad95b88125160421b60448201526064016107e9565b600081815260696020526040902080546001600160a01b0319166001600160a01b038416908117909155819061130782610d6e565b6001600160a01b03167f8c5be1e5ebec7d5bd14f71427d1e84f3dd0314c0f7b2291e5b200ac8c7c3b92560405160405180910390a45050565b61015f546001600160a01b03163314610b0c5760405162461bcd60e51b815260206004820181905260248201527f4f776e61626c653a2063616c6c6572206973206e6f7420746865206f776e657260448201526064016107e9565b6000806113a783610d6e565b9050806001600160a01b0316846001600160a01b031614806113ee57506001600160a01b038082166000908152606a602090815260408083209388168352929052205460ff165b806114125750836001600160a01b03166114078461074d565b6001600160a01b0316145b949350505050565b826001600160a01b031661142d82610d6e565b6001600160a01b0316146114915760405162461bcd60e51b815260206004820152602560248201527f4552433732313a207472616e736665722066726f6d20696e636f72726563742060448201526437bbb732b960d91b60648201526084016107e9565b6001600160a01b0382166114f35760405162461bcd60e51b8152602060048201526024808201527f4552433732313a207472616e7366657220746f20746865207a65726f206164646044820152637265737360e01b60648201526084016107e9565b6114fe838383611cab565b6115096000826112d2565b6001600160a01b0383166000908152606860205260408120805460019290611532908490612c88565b90915550506001600160a01b0382166000908152606860205260408120805460019290611560908490612c9f565b909155505060008181526067602052604080822080546001600160a01b0319166001600160a01b0386811691821790925591518493918716917fddf252ad1be2c89b69c2b068fc378daa952ba7f163c4a11628f55a4df523b3ef91a4505050565b6108a8611340565b7f4910fdfa16fed3260ed0e7147f7cc6da11a60208b5b9406d12a635614ffd91435460ff16156115fc5761088a83611cbe565b826001600160a01b03166352d1902d6040518163ffffffff1660e01b8152600401602060405180830381865afa925050508015611656575060408051601f3d908101601f1916820190925261165391810190612cb7565b60015b6116b95760405162461bcd60e51b815260206004820152602e60248201527f45524331393637557067726164653a206e657720696d706c656d656e7461746960448201526d6f6e206973206e6f74205555505360901b60648201526084016107e9565b600080516020612e7383398151915281146117285760405162461bcd60e51b815260206004820152602960248201527f45524331393637557067726164653a20756e737570706f727465642070726f786044820152681a58589b195555525160ba1b60648201526084016107e9565b5061088a838383611d5a565b61173c611d7f565b61012d805460ff191690557f5db9ee0a495bf2e6ff9c91a7834c1ba4fdd244a5e8aa4e537bd38aeae4b073aa335b6040516001600160a01b03909116815260200160405180910390a1565b61089781611dc9565b61015f80546001600160a01b038381166001600160a01b0319831681179093556040519116919082907f8be0079c531659141344cd1fd0a4f28419497f9722a3daafe3b4186f6b6457e090600090a35050565b6117eb611e70565b61012d805460ff191660011790557f62e78cea01bee320cd4e420270b5ea74000d11b0c9f74754ebdbfc544b05a25861176a3390565b6127106001600160601b038216111561184c5760405162461bcd60e51b81526004016107e990612cd0565b6001600160a01b0382166118a25760405162461bcd60e51b815260206004820152601b60248201527f455243323938313a20496e76616c696420706172616d6574657273000000000060448201526064016107e9565b6040805180820182526001600160a01b0393841681526001600160601b0392831660208083019182526000968752609890529190942093519051909116600160a01b029116179055565b610c24828260405180602001604052806000815250611eb7565b816001600160a01b0316836001600160a01b031614156119685760405162461bcd60e51b815260206004820152601960248201527f4552433732313a20617070726f766520746f2063616c6c65720000000000000060448201526064016107e9565b6001600160a01b038381166000818152606a6020908152604080832094871680845294825291829020805460ff191686151590811790915591519182527f17307eab39ab6107e8899845ad3d59bd9653f200f220920489ca2b5937696c31910160405180910390a3505050565b6119e084848461141a565b6119ec84848484611eea565b610f155760405162461bcd60e51b81526004016107e990612d1a565b60606101f580546106ca90612ac3565b606081611a3c5750506040805180820190915260018152600360fc1b602082015290565b8160005b8115611a665780611a5081612d6c565b9150611a5f9050600a83612b97565b9150611a40565b60008167ffffffffffffffff811115611a8157611a816127fc565b6040519080825280601f01601f191660200182016040528015611aab576020820181803683370190505b5090505b841561141257611ac0600183612c88565b9150611acd600a86612d87565b611ad8906030612c9f565b60f81b818381518110611aed57611aed612c43565b60200101906001600160f81b031916908160001a905350611b0f600a86612b97565b9450611aaf565b6127106001600160601b0382161115611b415760405162461bcd60e51b81526004016107e990612cd0565b6001600160a01b038216611b975760405162461bcd60e51b815260206004820152601960248201527f455243323938313a20696e76616c69642072656365697665720000000000000060448201526064016107e9565b604080518082019091526001600160a01b039092168083526001600160601b039091166020909201829052600160a01b90910217609755565b600054610100900460ff16611bf75760405162461bcd60e51b81526004016107e990612d9b565b610c248282611fe8565b600054610100900460ff16610b0c5760405162461bcd60e51b81526004016107e990612d9b565b600054610100900460ff16611c4f5760405162461bcd60e51b81526004016107e990612d9b565b610b0c612036565b600054610100900460ff16611c7e5760405162461bcd60e51b81526004016107e990612d9b565b610b0c61206a565b60006001600160e01b0319821663152a902d60e11b14806106b557506106b58261209a565b611cb3611e70565b61088a8383836120ea565b6001600160a01b0381163b611d2b5760405162461bcd60e51b815260206004820152602d60248201527f455243313936373a206e657720696d706c656d656e746174696f6e206973206e60448201526c1bdd08184818dbdb9d1c9858dd609a1b60648201526084016107e9565b600080516020612e7383398151915280546001600160a01b0319166001600160a01b0392909216919091179055565b611d63836121a2565b600082511180611d705750805b1561088a57610f1583836121e2565b61012d5460ff16610b0c5760405162461bcd60e51b815260206004820152601460248201527314185d5cd8589b194e881b9bdd081c185d5cd95960621b60448201526064016107e9565b6000611dd482610d6e565b9050611de281600084611cab565b611ded6000836112d2565b6001600160a01b0381166000908152606860205260408120805460019290611e16908490612c88565b909155505060008281526067602052604080822080546001600160a01b0319169055518391906001600160a01b038416907fddf252ad1be2c89b69c2b068fc378daa952ba7f163c4a11628f55a4df523b3ef908390a45050565b61012d5460ff1615610b0c5760405162461bcd60e51b815260206004820152601060248201526f14185d5cd8589b194e881c185d5cd95960821b60448201526064016107e9565b611ec183836122d6565b611ece6000848484611eea565b61088a5760405162461bcd60e51b81526004016107e990612d1a565b60006001600160a01b0384163b15611fdd57604051630a85bd0160e11b81526001600160a01b0385169063150b7a0290611f2e903390899088908890600401612de6565b6020604051808303816000875af1925050508015611f69575060408051601f3d908101601f19168201909252611f6691810190612e23565b60015b611fc3573d808015611f97576040519150601f19603f3d011682016040523d82523d6000602084013e611f9c565b606091505b508051611fbb5760405162461bcd60e51b81526004016107e990612d1a565b805181602001fd5b6001600160e01b031916630a85bd0160e11b149050611412565b506001949350505050565b600054610100900460ff1661200f5760405162461bcd60e51b81526004016107e990612d9b565b81516120229060659060208501906125ed565b50805161088a9060669060208401906125ed565b600054610100900460ff1661205d5760405162461bcd60e51b81526004016107e990612d9b565b61012d805460ff19169055565b600054610100900460ff166120915760405162461bcd60e51b81526004016107e990612d9b565b610b0c33611790565b60006001600160e01b031982166380ac58cd60e01b14806120cb57506001600160e01b03198216635b5e139f60e01b145b806106b557506301ffc9a760e01b6001600160e01b03198316146106b5565b6001600160a01b038316612145576121408160cb8054600083815260cc60205260408120829055600182018355919091527fa7ce836d032b2bf62b7e2097a8e0a6d8aeb35405ad15271e96d3b0188a1d06fb0155565b612168565b816001600160a01b0316836001600160a01b031614612168576121688382612424565b6001600160a01b03821661217f5761088a816124c1565b826001600160a01b0316826001600160a01b03161461088a5761088a8282612570565b6121ab81611cbe565b6040516001600160a01b038216907fbc7cd75a20ee27fd9adebab32041f755214dbc6bffa90cc0225b39da2e5c2d3b90600090a250565b60606001600160a01b0383163b61224a5760405162461bcd60e51b815260206004820152602660248201527f416464726573733a2064656c65676174652063616c6c20746f206e6f6e2d636f6044820152651b9d1c9858dd60d21b60648201526084016107e9565b600080846001600160a01b0316846040516122659190612e40565b600060405180830381855af49150503d80600081146122a0576040519150601f19603f3d011682016040523d82523d6000602084013e6122a5565b606091505b50915091506122cd8282604051806060016040528060278152602001612e93602791396125b4565b95945050505050565b6001600160a01b03821661232c5760405162461bcd60e51b815260206004820181905260248201527f4552433732313a206d696e7420746f20746865207a65726f206164647265737360448201526064016107e9565b6000818152606760205260409020546001600160a01b0316156123915760405162461bcd60e51b815260206004820152601c60248201527f4552433732313a20746f6b656e20616c7265616479206d696e7465640000000060448201526064016107e9565b61239d60008383611cab565b6001600160a01b03821660009081526068602052604081208054600192906123c6908490612c9f565b909155505060008181526067602052604080822080546001600160a01b0319166001600160a01b03861690811790915590518392907fddf252ad1be2c89b69c2b068fc378daa952ba7f163c4a11628f55a4df523b3ef908290a45050565b6000600161243184610dce565b61243b9190612c88565b600083815260ca602052604090205490915080821461248e576001600160a01b038416600090815260c960209081526040808320858452825280832054848452818420819055835260ca90915290208190555b50600091825260ca602090815260408084208490556001600160a01b03909416835260c981528383209183525290812055565b60cb546000906124d390600190612c88565b600083815260cc602052604081205460cb80549394509092849081106124fb576124fb612c43565b906000526020600020015490508060cb838154811061251c5761251c612c43565b600091825260208083209091019290925582815260cc909152604080822084905585825281205560cb80548061255457612554612e5c565b6001900381819060005260206000200160009055905550505050565b600061257b83610dce565b6001600160a01b03909316600090815260c960209081526040808320868452825280832085905593825260ca9052919091209190915550565b606083156125c3575081610f7b565b8251156125d35782518084602001fd5b8160405162461bcd60e51b81526004016107e99190612711565b8280546125f990612ac3565b90600052602060002090601f01602090048101928261261b5760008555612661565b82601f1061263457805160ff1916838001178555612661565b82800160010185558215612661579182015b82811115612661578251825591602001919060010190612646565b5061266d929150612671565b5090565b5b8082111561266d5760008155600101612672565b6001600160e01b0319811681146108a857600080fd5b6000602082840312156126ae57600080fd5b8135610f7b81612686565b60005b838110156126d45781810151838201526020016126bc565b83811115610f155750506000910152565b600081518084526126fd8160208601602086016126b9565b601f01601f19169290920160200192915050565b602081526000610f7b60208301846126e5565b60006020828403121561273657600080fd5b5035919050565b80356001600160a01b038116811461275457600080fd5b919050565b6000806040838503121561276c57600080fd5b6127758361273d565b946020939093013593505050565b60008060006060848603121561279857600080fd5b6127a18461273d565b92506127af6020850161273d565b9150604084013590509250925092565b600080604083850312156127d257600080fd5b50508035926020909101359150565b6000602082840312156127f357600080fd5b610f7b8261273d565b634e487b7160e01b600052604160045260246000fd5b600082601f83011261282357600080fd5b813567ffffffffffffffff8082111561283e5761283e6127fc565b604051601f8301601f19908116603f01168101908282118183101715612866576128666127fc565b8160405283815286602085880101111561287f57600080fd5b836020870160208301376000602085830101528094505050505092915050565b600080604083850312156128b257600080fd5b6128bb8361273d565b9150602083013567ffffffffffffffff8111156128d757600080fd5b6128e385828601612812565b9150509250929050565b6000602082840312156128ff57600080fd5b813567ffffffffffffffff81111561291657600080fd5b61141284828501612812565b80356001600160601b038116811461275457600080fd5b60008060006060848603121561294e57600080fd5b8335925061295e6020850161273d565b915061296c60408501612922565b90509250925092565b6000806040838503121561298857600080fd5b6129918361273d565b9150602083013580151581146129a657600080fd5b809150509250929050565b600080600080608085870312156129c757600080fd5b6129d08561273d565b93506129de6020860161273d565b925060408501359150606085013567ffffffffffffffff811115612a0157600080fd5b612a0d87828801612812565b91505092959194509250565b60008060408385031215612a2c57600080fd5b612a358361273d565b9150612a4360208401612922565b90509250929050565b60008060408385031215612a5f57600080fd5b612a688361273d565b9150612a436020840161273d565b60008060008060808587031215612a8c57600080fd5b612a958561273d565b935060208501359250612aaa6040860161273d565b9150612ab860608601612922565b905092959194509250565b600181811c90821680612ad757607f821691505b60208210811415612af857634e487b7160e01b600052602260045260246000fd5b50919050565b6020808252602e908201527f4552433732313a2063616c6c6572206973206e6f7420746f6b656e206f776e6560408201526d1c881b9bdc88185c1c1c9bdd995960921b606082015260800190565b634e487b7160e01b600052601160045260246000fd5b6000816000190483118215151615612b7c57612b7c612b4c565b500290565b634e487b7160e01b600052601260045260246000fd5b600082612ba657612ba6612b81565b500490565b6020808252602c908201527f46756e6374696f6e206d7573742062652063616c6c6564207468726f7567682060408201526b19195b1959d85d1958d85b1b60a21b606082015260800190565b6020808252602c908201527f46756e6374696f6e206d7573742062652063616c6c6564207468726f7567682060408201526b6163746976652070726f787960a01b606082015260800190565b634e487b7160e01b600052603260045260246000fd5b60008351612c6b8184602088016126b9565b835190830190612c7f8183602088016126b9565b01949350505050565b600082821015612c9a57612c9a612b4c565b500390565b60008219821115612cb257612cb2612b4c565b500190565b600060208284031215612cc957600080fd5b5051919050565b6020808252602a908201527f455243323938313a20726f79616c7479206665652077696c6c206578636565646040820152692073616c65507269636560b01b606082015260800190565b60208082526032908201527f4552433732313a207472616e7366657220746f206e6f6e20455243373231526560408201527131b2b4bb32b91034b6b83632b6b2b73a32b960711b606082015260800190565b6000600019821415612d8057612d80612b4c565b5060010190565b600082612d9657612d96612b81565b500690565b6020808252602b908201527f496e697469616c697a61626c653a20636f6e7472616374206973206e6f74206960408201526a6e697469616c697a696e6760a81b606082015260800190565b6001600160a01b0385811682528416602082015260408101839052608060608201819052600090612e19908301846126e5565b9695505050505050565b600060208284031215612e3557600080fd5b8151610f7b81612686565b60008251612e528184602087016126b9565b9190910192915050565b634e487b7160e01b600052603160045260246000fdfe360894a13ba1a3210667c828492db98dca3e2076cc3735a920a3ca505d382bbc416464726573733a206c6f772d6c6576656c2064656c65676174652063616c6c206661696c6564a26469706673582212202f1dc9d72b548b860e59660ef56c563b100bd8d128b7f1ece34abbb8c9450b0c64736f6c634300080c0033",
  "linkReferences": {},
  "deployedLinkReferences": {}
}