{
  "_format": "hh-sol-artifact-1",
  "contractName": "OctiPaymentSplitter",
  "sourceName": "contracts/PaymentSplitter.sol",
  "abi": [
    {
      "inputs": [
        {
          "internalType": "address[]",
          "name": "_payees",
          "type": "address[]"
        },
        {
          "internalType": "uint256[]",
          "name": "_shares",
          "type": "uint256[]"
        }
      ],
      "stateMutability": "payable",
      "type": "constructor"
    },
    {
      "anonymous": false,
      "inputs": [
        {
          "indexed": true,
          "internalType": "contract IERC20",
          "name": "token",
          "type": "address"
        },
        {
          "indexed": false,
          "internalType": "address",
          "name": "to",
          "type": "address"
        },
        {
          "indexed": false,
          "internalType": "uint256",
          "name": "amount",
          "type": "uint256"
        }
      ],
      "name": "ERC20PaymentReleased",
      "type": "event"
    },
    {
      "anonymous": false,
      "inputs": [
        {
          "indexed": false,
          "internalType": "address",
          "name": "account",
          "type": "address"
        },
        {
          "indexed": false,
          "internalType": "uint256",
          "name": "shares",
          "type": "uint256"
        }
      ],
      "name": "PayeeAdded",
      "type": "event"
    },
    {
      "anonymous": false,
      "inputs": [
        {
          "indexed": false,
          "internalType": "address",
          "name": "from",
          "type": "address"
        },
        {
          "indexed": false,
          "internalType": "uint256",
          "name": "amount",
          "type": "uint256"
        }
      ],
      "name": "PaymentReceived",
      "type": "event"
    },
    {
      "anonymous": false,
      "inputs": [
        {
          "indexed": false,
          "internalType": "address",
          "name": "to",
          "type": "address"
        },
        {
          "indexed": false,
          "internalType": "uint256",
          "name": "amount",
          "type": "uint256"
        }
      ],
      "name": "PaymentReleased",
      "type": "event"
    },
    {
      "inputs": [
        {
          "internalType": "uint256",
          "name": "index",
          "type": "uint256"
        }
      ],
      "name": "payee",
      "outputs": [
        {
          "internalType": "address",
          "name": "",
          "type": "address"
        }
      ],
      "stateMutability": "view",
      "type": "function"
    },
    {
      "inputs": [
        {
          "internalType": "address",
          "name": "account",
          "type": "address"
        }
      ],
      "name": "releasable",
      "outputs": [
        {
          "internalType": "uint256",
          "name": "",
          "type": "uint256"
        }
      ],
      "stateMutability": "view",
      "type": "function"
    },
    {
      "inputs": [
        {
          "internalType": "contract IERC20",
          "name": "token",
          "type": "address"
        },
        {
          "internalType": "address",
          "name": "account",
          "type": "address"
        }
      ],
      "name": "releasable",
      "outputs": [
        {
          "internalType": "uint256",
          "name": "",
          "type": "uint256"
        }
      ],
      "stateMutability": "view",
      "type": "function"
    },
    {
      "inputs": [
        {
          "internalType": "address payable",
          "name": "account",
          "type": "address"
        }
      ],
      "name": "release",
      "outputs": [],
      "stateMutability": "nonpayable",
      "type": "function"
    },
    {
      "inputs": [
        {
          "internalType": "contract IERC20",
          "name": "token",
          "type": "address"
        },
        {
          "internalType": "address",
          "name": "account",
          "type": "address"
        }
      ],
      "name": "release",
      "outputs": [],
      "stateMutability": "nonpayable",
      "type": "function"
    },
    {
      "inputs": [
        {
          "internalType": "contract IERC20",
          "name": "token",
          "type": "address"
        },
        {
          "internalType": "address",
          "name": "account",
          "type": "address"
        }
      ],
      "name": "released",
      "outputs": [
        {
          "internalType": "uint256",
          "name": "",
          "type": "uint256"
        }
      ],
      "stateMutability": "view",
      "type": "function"
    },
    {
      "inputs": [
        {
          "internalType": "address",
          "name": "account",
          "type": "address"
        }
      ],
      "name": "released",
      "outputs": [
        {
          "internalType": "uint256",
          "name": "",
          "type": "uint256"
        }
      ],
      "stateMutability": "view",
      "type": "function"
    },
    {
      "inputs": [
        {
          "internalType": "address",
          "name": "account",
          "type": "address"
        }
      ],
      "name": "shares",
      "outputs": [
        {
          "internalType": "uint256",
          "name": "",
          "type": "uint256"
        }
      ],
      "stateMutability": "view",
      "type": "function"
    },
    {
      "inputs": [
        {
          "internalType": "contract IERC20",
          "name": "token",
          "type": "address"
        }
      ],
      "name": "totalReleased",
      "outputs": [
        {
          "internalType": "uint256",
          "name": "",
          "type": "uint256"
        }
      ],
      "stateMutability": "view",
      "type": "function"
    },
    {
      "inputs": [],
      "name": "totalReleased",
      "outputs": [
        {
          "internalType": "uint256",
          "name": "",
          "type": "uint256"
        }
      ],
      "stateMutability": "view",
      "type": "function"
    },
    {
      "inputs": [],
      "name": "totalShares",
      "outputs": [
        {
          "internalType": "uint256",
          "name": "",
          "type": "uint256"
        }
      ],
      "stateMutability": "view",
      "type": "function"
    },
    {
      "stateMutability": "payable",
      "type": "receive"
    }
  ],
  "bytecode": "0x60806040526040516200239a3803806200239a83398181016040528101906200002991906200066c565b8181805182511462000072576040517f08c379a0000000000000000000000000000000000000000000000000000000008152600401620000699062000778565b60405180910390fd5b6000825111620000b9576040517f08c379a0000000000000000000000000000000000000000000000000000000008152600401620000b090620007ea565b60405180910390fd5b60005b8251811015620001285762000112838281518110620000e057620000df6200080c565b5b6020026020010151838381518110620000fe57620000fd6200080c565b5b60200260200101516200013360201b60201c565b80806200011f906200086a565b915050620000bc565b505050505062000b06565b600073ffffffffffffffffffffffffffffffffffffffff168273ffffffffffffffffffffffffffffffffffffffff161415620001a6576040517f08c379a00000000000000000000000000000000000000000000000000000000081526004016200019d906200092e565b60405180910390fd5b60008111620001ec576040517f08c379a0000000000000000000000000000000000000000000000000000000008152600401620001e390620009a0565b60405180910390fd5b6000600260008473ffffffffffffffffffffffffffffffffffffffff1673ffffffffffffffffffffffffffffffffffffffff168152602001908152602001600020541462000271576040517f08c379a0000000000000000000000000000000000000000000000000000000008152600401620002689062000a38565b60405180910390fd5b6004829080600181540180825580915050600190039060005260206000200160009091909190916101000a81548173ffffffffffffffffffffffffffffffffffffffff021916908373ffffffffffffffffffffffffffffffffffffffff16021790555080600260008473ffffffffffffffffffffffffffffffffffffffff1673ffffffffffffffffffffffffffffffffffffffff168152602001908152602001600020819055508060005462000328919062000a5a565b6000819055507f40c340f65e17194d14ddddb073d3c9f888e3cb52b5aae0c6c7706b4fbc905fac82826040516200036192919062000ad9565b60405180910390a15050565b6000604051905090565b600080fd5b600080fd5b600080fd5b6000601f19601f8301169050919050565b7f4e487b7100000000000000000000000000000000000000000000000000000000600052604160045260246000fd5b620003d18262000386565b810181811067ffffffffffffffff82111715620003f357620003f262000397565b5b80604052505050565b6000620004086200036d565b9050620004168282620003c6565b919050565b600067ffffffffffffffff82111562000439576200043862000397565b5b602082029050602081019050919050565b600080fd5b600073ffffffffffffffffffffffffffffffffffffffff82169050919050565b60006200047c826200044f565b9050919050565b6200048e816200046f565b81146200049a57600080fd5b50565b600081519050620004ae8162000483565b92915050565b6000620004cb620004c5846200041b565b620003fc565b90508083825260208201905060208402830185811115620004f157620004f06200044a565b5b835b818110156200051e57806200050988826200049d565b845260208401935050602081019050620004f3565b5050509392505050565b600082601f83011262000540576200053f62000381565b5b815162000552848260208601620004b4565b91505092915050565b600067ffffffffffffffff82111562000579576200057862000397565b5b602082029050602081019050919050565b6000819050919050565b6200059f816200058a565b8114620005ab57600080fd5b50565b600081519050620005bf8162000594565b92915050565b6000620005dc620005d6846200055b565b620003fc565b905080838252602082019050602084028301858111156200060257620006016200044a565b5b835b818110156200062f57806200061a8882620005ae565b84526020840193505060208101905062000604565b5050509392505050565b600082601f83011262000651576200065062000381565b5b815162000663848260208601620005c5565b91505092915050565b6000806040838503121562000686576200068562000377565b5b600083015167ffffffffffffffff811115620006a757620006a66200037c565b5b620006b58582860162000528565b925050602083015167ffffffffffffffff811115620006d957620006d86200037c565b5b620006e78582860162000639565b9150509250929050565b600082825260208201905092915050565b7f5061796d656e7453706c69747465723a2070617965657320616e64207368617260008201527f6573206c656e677468206d69736d617463680000000000000000000000000000602082015250565b600062000760603283620006f1565b91506200076d8262000702565b604082019050919050565b60006020820190508181036000830152620007938162000751565b9050919050565b7f5061796d656e7453706c69747465723a206e6f20706179656573000000000000600082015250565b6000620007d2601a83620006f1565b9150620007df826200079a565b602082019050919050565b600060208201905081810360008301526200080581620007c3565b9050919050565b7f4e487b7100000000000000000000000000000000000000000000000000000000600052603260045260246000fd5b7f4e487b7100000000000000000000000000000000000000000000000000000000600052601160045260246000fd5b600062000877826200058a565b91507fffffffffffffffffffffffffffffffffffffffffffffffffffffffffffffffff821415620008ad57620008ac6200083b565b5b600182019050919050565b7f5061796d656e7453706c69747465723a206163636f756e74206973207468652060008201527f7a65726f20616464726573730000000000000000000000000000000000000000602082015250565b600062000916602c83620006f1565b91506200092382620008b8565b604082019050919050565b60006020820190508181036000830152620009498162000907565b9050919050565b7f5061796d656e7453706c69747465723a20736861726573206172652030000000600082015250565b600062000988601d83620006f1565b9150620009958262000950565b602082019050919050565b60006020820190508181036000830152620009bb8162000979565b9050919050565b7f5061796d656e7453706c69747465723a206163636f756e7420616c726561647960008201527f2068617320736861726573000000000000000000000000000000000000000000602082015250565b600062000a20602b83620006f1565b915062000a2d82620009c2565b604082019050919050565b6000602082019050818103600083015262000a538162000a11565b9050919050565b600062000a67826200058a565b915062000a74836200058a565b9250827fffffffffffffffffffffffffffffffffffffffffffffffffffffffffffffffff0382111562000aac5762000aab6200083b565b5b828201905092915050565b62000ac2816200046f565b82525050565b62000ad3816200058a565b82525050565b600060408201905062000af0600083018562000ab7565b62000aff602083018462000ac8565b9392505050565b6118848062000b166000396000f3fe6080604052600436106100a05760003560e01c80639852595c116100645780639852595c146101e3578063a3f8eace14610220578063c45ac0501461025d578063ce7c2ac21461029a578063d79779b2146102d7578063e33b7de314610314576100e7565b806319165587146100ec5780633a98ef3914610115578063406072a91461014057806348b750441461017d5780638b83209b146101a6576100e7565b366100e7577f6ef95f06320e7a25a04a175ca677b7052bdd97131872c2192525a629f51be7706100ce61033f565b346040516100dd929190610e4b565b60405180910390a1005b600080fd5b3480156100f857600080fd5b50610113600480360381019061010e9190610eb7565b610347565b005b34801561012157600080fd5b5061012a6104d0565b6040516101379190610ee4565b60405180910390f35b34801561014c57600080fd5b5061016760048036038101906101629190610f69565b6104d9565b6040516101749190610ee4565b60405180910390f35b34801561018957600080fd5b506101a4600480360381019061019f9190610f69565b610560565b005b3480156101b257600080fd5b506101cd60048036038101906101c89190610fd5565b61077d565b6040516101da9190611002565b60405180910390f35b3480156101ef57600080fd5b5061020a6004803603810190610205919061101d565b6107c5565b6040516102179190610ee4565b60405180910390f35b34801561022c57600080fd5b506102476004803603810190610242919061101d565b61080e565b6040516102549190610ee4565b60405180910390f35b34801561026957600080fd5b50610284600480360381019061027f9190610f69565b610841565b6040516102919190610ee4565b60405180910390f35b3480156102a657600080fd5b506102c160048036038101906102bc919061101d565b6108f0565b6040516102ce9190610ee4565b60405180910390f35b3480156102e357600080fd5b506102fe60048036038101906102f9919061104a565b610939565b60405161030b9190610ee4565b60405180910390f35b34801561032057600080fd5b50610329610982565b6040516103369190610ee4565b60405180910390f35b600033905090565b6000600260008373ffffffffffffffffffffffffffffffffffffffff1673ffffffffffffffffffffffffffffffffffffffff16815260200190815260200160002054116103c9576040517f08c379a00000000000000000000000000000000000000000000000000000000081526004016103c0906110fa565b60405180910390fd5b60006103d48261080e565b9050600081141561041a576040517f08c379a00000000000000000000000000000000000000000000000000000000081526004016104119061118c565b60405180910390fd5b80600360008473ffffffffffffffffffffffffffffffffffffffff1673ffffffffffffffffffffffffffffffffffffffff168152602001908152602001600020600082825461046991906111db565b92505081905550806001600082825461048291906111db565b92505081905550610493828261098c565b7fdf20fd1e76bc69d672e4814fafb2c449bba3a5369d8359adf9e05e6fde87b05682826040516104c4929190611290565b60405180910390a15050565b60008054905090565b6000600660008473ffffffffffffffffffffffffffffffffffffffff1673ffffffffffffffffffffffffffffffffffffffff16815260200190815260200160002060008373ffffffffffffffffffffffffffffffffffffffff1673ffffffffffffffffffffffffffffffffffffffff16815260200190815260200160002054905092915050565b6000600260008373ffffffffffffffffffffffffffffffffffffffff1673ffffffffffffffffffffffffffffffffffffffff16815260200190815260200160002054116105e2576040517f08c379a00000000000000000000000000000000000000000000000000000000081526004016105d9906110fa565b60405180910390fd5b60006105ee8383610841565b90506000811415610634576040517f08c379a000000000000000000000000000000000000000000000000000000000815260040161062b9061118c565b60405180910390fd5b80600660008573ffffffffffffffffffffffffffffffffffffffff1673ffffffffffffffffffffffffffffffffffffffff16815260200190815260200160002060008473ffffffffffffffffffffffffffffffffffffffff1673ffffffffffffffffffffffffffffffffffffffff16815260200190815260200160002060008282546106c091906111db565b9250508190555080600560008573ffffffffffffffffffffffffffffffffffffffff1673ffffffffffffffffffffffffffffffffffffffff168152602001908152602001600020600082825461071691906111db565b92505081905550610728838383610a80565b8273ffffffffffffffffffffffffffffffffffffffff167f3be5b7a71e84ed12875d241991c70855ac5817d847039e17a9d895c1ceb0f18a8383604051610770929190610e4b565b60405180910390a2505050565b600060048281548110610793576107926112b9565b5b9060005260206000200160009054906101000a900473ffffffffffffffffffffffffffffffffffffffff169050919050565b6000600360008373ffffffffffffffffffffffffffffffffffffffff1673ffffffffffffffffffffffffffffffffffffffff168152602001908152602001600020549050919050565b600080610819610982565b4761082491906111db565b90506108398382610834866107c5565b610b06565b915050919050565b60008061084d84610939565b8473ffffffffffffffffffffffffffffffffffffffff166370a08231306040518263ffffffff1660e01b81526004016108869190611002565b602060405180830381865afa1580156108a3573d6000803e3d6000fd5b505050506040513d601f19601f820116820180604052508101906108c791906112fd565b6108d191906111db565b90506108e783826108e287876104d9565b610b06565b91505092915050565b6000600260008373ffffffffffffffffffffffffffffffffffffffff1673ffffffffffffffffffffffffffffffffffffffff168152602001908152602001600020549050919050565b6000600560008373ffffffffffffffffffffffffffffffffffffffff1673ffffffffffffffffffffffffffffffffffffffff168152602001908152602001600020549050919050565b6000600154905090565b804710156109cf576040517f08c379a00000000000000000000000000000000000000000000000000000000081526004016109c690611376565b60405180910390fd5b60008273ffffffffffffffffffffffffffffffffffffffff16826040516109f5906113c7565b60006040518083038185875af1925050503d8060008114610a32576040519150601f19603f3d011682016040523d82523d6000602084013e610a37565b606091505b5050905080610a7b576040517f08c379a0000000000000000000000000000000000000000000000000000000008152600401610a729061144e565b60405180910390fd5b505050565b610b018363a9059cbb60e01b8484604051602401610a9f929190610e4b565b604051602081830303815290604052907bffffffffffffffffffffffffffffffffffffffffffffffffffffffff19166020820180517bffffffffffffffffffffffffffffffffffffffffffffffffffffffff8381831617835250505050610b74565b505050565b600081600054600260008773ffffffffffffffffffffffffffffffffffffffff1673ffffffffffffffffffffffffffffffffffffffff1681526020019081526020016000205485610b57919061146e565b610b6191906114f7565b610b6b9190611528565b90509392505050565b6000610bd6826040518060400160405280602081526020017f5361666545524332303a206c6f772d6c6576656c2063616c6c206661696c65648152508573ffffffffffffffffffffffffffffffffffffffff16610c3b9092919063ffffffff16565b9050600081511115610c365780806020019051810190610bf69190611594565b610c35576040517f08c379a0000000000000000000000000000000000000000000000000000000008152600401610c2c90611633565b60405180910390fd5b5b505050565b6060610c4a8484600085610c53565b90509392505050565b606082471015610c98576040517f08c379a0000000000000000000000000000000000000000000000000000000008152600401610c8f906116c5565b60405180910390fd5b610ca185610d67565b610ce0576040517f08c379a0000000000000000000000000000000000000000000000000000000008152600401610cd790611731565b60405180910390fd5b6000808673ffffffffffffffffffffffffffffffffffffffff168587604051610d0991906117c0565b60006040518083038185875af1925050503d8060008114610d46576040519150601f19603f3d011682016040523d82523d6000602084013e610d4b565b606091505b5091509150610d5b828286610d8a565b92505050949350505050565b6000808273ffffffffffffffffffffffffffffffffffffffff163b119050919050565b60608315610d9a57829050610dea565b600083511115610dad5782518084602001fd5b816040517f08c379a0000000000000000000000000000000000000000000000000000000008152600401610de1919061182c565b60405180910390fd5b9392505050565b600073ffffffffffffffffffffffffffffffffffffffff82169050919050565b6000610e1c82610df1565b9050919050565b610e2c81610e11565b82525050565b6000819050919050565b610e4581610e32565b82525050565b6000604082019050610e606000830185610e23565b610e6d6020830184610e3c565b9392505050565b600080fd5b6000610e8482610df1565b9050919050565b610e9481610e79565b8114610e9f57600080fd5b50565b600081359050610eb181610e8b565b92915050565b600060208284031215610ecd57610ecc610e74565b5b6000610edb84828501610ea2565b91505092915050565b6000602082019050610ef96000830184610e3c565b92915050565b6000610f0a82610e11565b9050919050565b610f1a81610eff565b8114610f2557600080fd5b50565b600081359050610f3781610f11565b92915050565b610f4681610e11565b8114610f5157600080fd5b50565b600081359050610f6381610f3d565b92915050565b60008060408385031215610f8057610f7f610e74565b5b6000610f8e85828601610f28565b9250506020610f9f85828601610f54565b9150509250929050565b610fb281610e32565b8114610fbd57600080fd5b50565b600081359050610fcf81610fa9565b92915050565b600060208284031215610feb57610fea610e74565b5b6000610ff984828501610fc0565b91505092915050565b60006020820190506110176000830184610e23565b92915050565b60006020828403121561103357611032610e74565b5b600061104184828501610f54565b91505092915050565b6000602082840312156110605761105f610e74565b5b600061106e84828501610f28565b91505092915050565b600082825260208201905092915050565b7f5061796d656e7453706c69747465723a206163636f756e7420686173206e6f2060008201527f7368617265730000000000000000000000000000000000000000000000000000602082015250565b60006110e4602683611077565b91506110ef82611088565b604082019050919050565b60006020820190508181036000830152611113816110d7565b9050919050565b7f5061796d656e7453706c69747465723a206163636f756e74206973206e6f742060008201527f647565207061796d656e74000000000000000000000000000000000000000000602082015250565b6000611176602b83611077565b91506111818261111a565b604082019050919050565b600060208201905081810360008301526111a581611169565b9050919050565b7f4e487b7100000000000000000000000000000000000000000000000000000000600052601160045260246000fd5b60006111e682610e32565b91506111f183610e32565b9250827fffffffffffffffffffffffffffffffffffffffffffffffffffffffffffffffff03821115611226576112256111ac565b5b828201905092915050565b6000819050919050565b600061125661125161124c84610df1565b611231565b610df1565b9050919050565b60006112688261123b565b9050919050565b600061127a8261125d565b9050919050565b61128a8161126f565b82525050565b60006040820190506112a56000830185611281565b6112b26020830184610e3c565b9392505050565b7f4e487b7100000000000000000000000000000000000000000000000000000000600052603260045260246000fd5b6000815190506112f781610fa9565b92915050565b60006020828403121561131357611312610e74565b5b6000611321848285016112e8565b91505092915050565b7f416464726573733a20696e73756666696369656e742062616c616e6365000000600082015250565b6000611360601d83611077565b915061136b8261132a565b602082019050919050565b6000602082019050818103600083015261138f81611353565b9050919050565b600081905092915050565b50565b60006113b1600083611396565b91506113bc826113a1565b600082019050919050565b60006113d2826113a4565b9150819050919050565b7f416464726573733a20756e61626c6520746f2073656e642076616c75652c207260008201527f6563697069656e74206d61792068617665207265766572746564000000000000602082015250565b6000611438603a83611077565b9150611443826113dc565b604082019050919050565b600060208201905081810360008301526114678161142b565b9050919050565b600061147982610e32565b915061148483610e32565b9250817fffffffffffffffffffffffffffffffffffffffffffffffffffffffffffffffff04831182151516156114bd576114bc6111ac565b5b828202905092915050565b7f4e487b7100000000000000000000000000000000000000000000000000000000600052601260045260246000fd5b600061150282610e32565b915061150d83610e32565b92508261151d5761151c6114c8565b5b828204905092915050565b600061153382610e32565b915061153e83610e32565b925082821015611551576115506111ac565b5b828203905092915050565b60008115159050919050565b6115718161155c565b811461157c57600080fd5b50565b60008151905061158e81611568565b92915050565b6000602082840312156115aa576115a9610e74565b5b60006115b88482850161157f565b91505092915050565b7f5361666545524332303a204552433230206f7065726174696f6e20646964206e60008201527f6f74207375636365656400000000000000000000000000000000000000000000602082015250565b600061161d602a83611077565b9150611628826115c1565b604082019050919050565b6000602082019050818103600083015261164c81611610565b9050919050565b7f416464726573733a20696e73756666696369656e742062616c616e636520666f60008201527f722063616c6c0000000000000000000000000000000000000000000000000000602082015250565b60006116af602683611077565b91506116ba82611653565b604082019050919050565b600060208201905081810360008301526116de816116a2565b9050919050565b7f416464726573733a2063616c6c20746f206e6f6e2d636f6e7472616374000000600082015250565b600061171b601d83611077565b9150611726826116e5565b602082019050919050565b6000602082019050818103600083015261174a8161170e565b9050919050565b600081519050919050565b60005b8381101561177a57808201518184015260208101905061175f565b83811115611789576000848401525b50505050565b600061179a82611751565b6117a48185611396565b93506117b481856020860161175c565b80840191505092915050565b60006117cc828461178f565b915081905092915050565b600081519050919050565b6000601f19601f8301169050919050565b60006117fe826117d7565b6118088185611077565b935061181881856020860161175c565b611821816117e2565b840191505092915050565b6000602082019050818103600083015261184681846117f3565b90509291505056fea2646970667358221220a40a9b8146f8040b8a6a193fd42445bc318f57621500ebf092f08a721c82632c64736f6c634300080c0033",
  "linkReferences": {},
  "deployedLinkReferences": {}
}