{"contracts/OctiTokenCollectableSubscribable.sol":{"OctiTokenCollectableSubscribable":{"abi":[{"inputs":[],"stateMutability":"nonpayable","type":"constructor"},{"anonymous":false,"inputs":[{"indexed":false,"internalType":"address","name":"previousAdmin","type":"address"},{"indexed":false,"internalType":"address","name":"newAdmin","type":"address"}],"name":"AdminChanged","type":"event"},{"anonymous":false,"inputs":[{"indexed":true,"internalType":"address","name":"owner","type":"address"},{"indexed":true,"internalType":"address","name":"approved","type":"address"},{"indexed":true,"internalType":"uint256","name":"tokenId","type":"uint256"}],"name":"Approval","type":"event"},{"anonymous":false,"inputs":[{"indexed":true,"internalType":"address","name":"owner","type":"address"},{"indexed":true,"internalType":"address","name":"operator","type":"address"},{"indexed":false,"internalType":"bool","name":"approved","type":"bool"}],"name":"ApprovalForAll","type":"event"},{"anonymous":false,"inputs":[{"indexed":true,"internalType":"address","name":"beacon","type":"address"}],"name":"BeaconUpgraded","type":"event"},{"anonymous":false,"inputs":[{"indexed":false,"internalType":"uint256","name":"tokenId","type":"uint256"}],"name":"Frozen","type":"event"},{"anonymous":false,"inputs":[{"indexed":false,"internalType":"uint8","name":"version","type":"uint8"}],"name":"Initialized","type":"event"},{"anonymous":false,"inputs":[{"indexed":true,"internalType":"uint256","name":"eventId","type":"uint256"},{"indexed":false,"internalType":"uint256","name":"tokenId","type":"uint256"},{"indexed":false,"internalType":"address","name":"owner","type":"address"}],"name":"Minted","type":"event"},{"anonymous":false,"inputs":[{"indexed":true,"internalType":"address","name":"previousOwner","type":"address"},{"indexed":true,"internalType":"address","name":"newOwner","type":"address"}],"name":"OwnershipTransferred","type":"event"},{"anonymous":false,"inputs":[{"indexed":false,"internalType":"address","name":"account","type":"address"}],"name":"Paused","type":"event"},{"anonymous":false,"inputs":[{"indexed":true,"internalType":"uint256","name":"tokenId","type":"uint256"},{"indexed":false,"internalType":"uint64","name":"expiration","type":"uint64"}],"name":"SubscriptionUpdate","type":"event"},{"anonymous":false,"inputs":[{"indexed":true,"internalType":"address","name":"from","type":"address"},{"indexed":true,"internalType":"address","name":"to","type":"address"},{"indexed":true,"internalType":"uint256","name":"tokenId","type":"uint256"}],"name":"Transfer","type":"event"},{"anonymous":false,"inputs":[{"indexed":false,"internalType":"uint256","name":"tokenId","type":"uint256"}],"name":"Unfrozen","type":"event"},{"anonymous":false,"inputs":[{"indexed":false,"internalType":"address","name":"account","type":"address"}],"name":"Unpaused","type":"event"},{"anonymous":false,"inputs":[{"indexed":true,"internalType":"address","name":"implementation","type":"address"}],"name":"Upgraded","type":"event"},{"inputs":[{"internalType":"address","name":"to","type":"address"},{"internalType":"uint256","name":"tokenId","type":"uint256"}],"name":"approve","outputs":[],"stateMutability":"nonpayable","type":"function"},{"inputs":[{"internalType":"address","name":"owner","type":"address"}],"name":"balanceOf","outputs":[{"internalType":"uint256","name":"","type":"uint256"}],"stateMutability":"view","type":"function"},{"inputs":[{"internalType":"uint256","name":"tokenId","type":"uint256"}],"name":"burn","outputs":[],"stateMutability":"nonpayable","type":"function"},{"inputs":[{"internalType":"uint256","name":"tokenId","type":"uint256"}],"name":"cancelSubscription","outputs":[],"stateMutability":"nonpayable","type":"function"},{"inputs":[],"name":"contractURI","outputs":[{"internalType":"string","name":"","type":"string"}],"stateMutability":"view","type":"function"},{"inputs":[{"internalType":"uint256","name":"eventId","type":"uint256"}],"name":"eventURI","outputs":[{"internalType":"string","name":"","type":"string"}],"stateMutability":"view","type":"function"},{"inputs":[{"internalType":"uint256","name":"tokenId","type":"uint256"}],"name":"expireSubscription","outputs":[],"stateMutability":"nonpayable","type":"function"},{"inputs":[{"internalType":"uint256","name":"tokenId","type":"uint256"}],"name":"expiresAt","outputs":[{"internalType":"uint64","name":"","type":"uint64"}],"stateMutability":"view","type":"function"},{"inputs":[{"internalType":"uint256","name":"tokenId","type":"uint256"}],"name":"freeze","outputs":[],"stateMutability":"nonpayable","type":"function"},{"inputs":[{"internalType":"uint256","name":"tokenId","type":"uint256"}],"name":"getApproved","outputs":[{"internalType":"address","name":"","type":"address"}],"stateMutability":"view","type":"function"},{"inputs":[{"internalType":"string","name":"__name","type":"string"},{"internalType":"string","name":"__symbol","type":"string"}],"name":"initialize","outputs":[],"stateMutability":"nonpayable","type":"function"},{"inputs":[{"internalType":"address","name":"_owner","type":"address"},{"internalType":"address","name":"_operator","type":"address"}],"name":"isApprovedForAll","outputs":[{"internalType":"bool","name":"isOperator","type":"bool"}],"stateMutability":"view","type":"function"},{"inputs":[{"internalType":"uint256","name":"tokenId","type":"uint256"}],"name":"isFrozen","outputs":[{"internalType":"bool","name":"","type":"bool"}],"stateMutability":"view","type":"function"},{"inputs":[{"internalType":"uint256","name":"tokenId","type":"uint256"}],"name":"isRenewable","outputs":[{"internalType":"bool","name":"","type":"bool"}],"stateMutability":"view","type":"function"},{"inputs":[],"name":"lastId","outputs":[{"internalType":"uint256","name":"","type":"uint256"}],"stateMutability":"view","type":"function"},{"inputs":[{"internalType":"uint256","name":"eventId","type":"uint256"},{"internalType":"address[]","name":"to","type":"address[]"},{"internalType":"bool","name":"frozen","type":"bool"},{"internalType":"uint64","name":"validDuration","type":"uint64"}],"name":"mintEventToManyUsers","outputs":[{"internalType":"bool","name":"","type":"bool"}],"stateMutability":"nonpayable","type":"function"},{"inputs":[{"internalType":"uint256","name":"eventId","type":"uint256"},{"internalType":"address","name":"to","type":"address"},{"internalType":"bool","name":"frozen","type":"bool"},{"internalType":"uint64","name":"validDuration","type":"uint64"}],"name":"mintToken","outputs":[{"internalType":"bool","name":"","type":"bool"}],"stateMutability":"nonpayable","type":"function"},{"inputs":[{"internalType":"uint256[]","name":"eventIds","type":"uint256[]"},{"internalType":"address","name":"to","type":"address"},{"internalType":"bool","name":"frozen","type":"bool"},{"internalType":"uint64","name":"validDuration","type":"uint64"}],"name":"mintUserToManyEvents","outputs":[{"internalType":"bool","name":"","type":"bool"}],"stateMutability":"nonpayable","type":"function"},{"inputs":[],"name":"name","outputs":[{"internalType":"string","name":"","type":"string"}],"stateMutability":"view","type":"function"},{"inputs":[],"name":"owner","outputs":[{"internalType":"address","name":"","type":"address"}],"stateMutability":"view","type":"function"},{"inputs":[{"internalType":"uint256","name":"tokenId","type":"uint256"}],"name":"ownerOf","outputs":[{"internalType":"address","name":"","type":"address"}],"stateMutability":"view","type":"function"},{"inputs":[],"name":"pause","outputs":[],"stateMutability":"nonpayable","type":"function"},{"inputs":[],"name":"paused","outputs":[{"internalType":"bool","name":"","type":"bool"}],"stateMutability":"view","type":"function"},{"inputs":[],"name":"proxiableUUID","outputs":[{"internalType":"bytes32","name":"","type":"bytes32"}],"stateMutability":"view","type":"function"},{"inputs":[{"internalType":"uint256","name":"tokenId","type":"uint256"}],"name":"reclaimToken","outputs":[],"stateMutability":"nonpayable","type":"function"},{"inputs":[],"name":"removeDefaultRoyalty","outputs":[],"stateMutability":"nonpayable","type":"function"},{"inputs":[{"internalType":"uint256","name":"eventId","type":"uint256"}],"name":"removeEventRoyalty","outputs":[],"stateMutability":"nonpayable","type":"function"},{"inputs":[{"internalType":"uint256","name":"tokenId","type":"uint256"},{"internalType":"uint64","name":"duration","type":"uint64"}],"name":"renewSubscription","outputs":[],"stateMutability":"nonpayable","type":"function"},{"inputs":[],"name":"renounceOwnership","outputs":[],"stateMutability":"nonpayable","type":"function"},{"inputs":[{"internalType":"uint256","name":"_tokenId","type":"uint256"},{"internalType":"uint256","name":"_salePrice","type":"uint256"}],"name":"royaltyInfo","outputs":[{"internalType":"address","name":"","type":"address"},{"internalType":"uint256","name":"","type":"uint256"}],"stateMutability":"view","type":"function"},{"inputs":[{"internalType":"address","name":"from","type":"address"},{"internalType":"address","name":"to","type":"address"},{"internalType":"uint256","name":"tokenId","type":"uint256"}],"name":"safeTransferFrom","outputs":[],"stateMutability":"nonpayable","type":"function"},{"inputs":[{"internalType":"address","name":"from","type":"address"},{"internalType":"address","name":"to","type":"address"},{"internalType":"uint256","name":"tokenId","type":"uint256"},{"internalType":"bytes","name":"data","type":"bytes"}],"name":"safeTransferFrom","outputs":[],"stateMutability":"nonpayable","type":"function"},{"inputs":[{"internalType":"address","name":"operator","type":"address"},{"internalType":"bool","name":"approved","type":"bool"}],"name":"setApprovalForAll","outputs":[],"stateMutability":"nonpayable","type":"function"},{"inputs":[{"internalType":"uint256","name":"newLastId","type":"uint256"}],"name":"setLastId","outputs":[],"stateMutability":"nonpayable","type":"function"},{"inputs":[{"internalType":"bytes4","name":"interfaceId","type":"bytes4"}],"name":"supportsInterface","outputs":[{"internalType":"bool","name":"","type":"bool"}],"stateMutability":"view","type":"function"},{"inputs":[],"name":"symbol","outputs":[{"internalType":"string","name":"","type":"string"}],"stateMutability":"view","type":"function"},{"inputs":[{"internalType":"uint256","name":"index","type":"uint256"}],"name":"tokenByIndex","outputs":[{"internalType":"uint256","name":"","type":"uint256"}],"stateMutability":"view","type":"function"},{"inputs":[{"internalType":"address","name":"owner","type":"address"},{"internalType":"uint256","name":"index","type":"uint256"}],"name":"tokenDetailsOfOwnerByIndex","outputs":[{"internalType":"uint256","name":"tokenId","type":"uint256"},{"internalType":"uint256","name":"eventId","type":"uint256"}],"stateMutability":"view","type":"function"},{"inputs":[{"internalType":"uint256","name":"tokenId","type":"uint256"}],"name":"tokenEvent","outputs":[{"internalType":"uint256","name":"","type":"uint256"}],"stateMutability":"view","type":"function"},{"inputs":[{"internalType":"address","name":"owner","type":"address"},{"internalType":"uint256","name":"index","type":"uint256"}],"name":"tokenOfOwnerByIndex","outputs":[{"internalType":"uint256","name":"","type":"uint256"}],"stateMutability":"view","type":"function"},{"inputs":[{"internalType":"uint256","name":"tokenId","type":"uint256"}],"name":"tokenURI","outputs":[{"internalType":"string","name":"","type":"string"}],"stateMutability":"view","type":"function"},{"inputs":[],"name":"totalSupply","outputs":[{"internalType":"uint256","name":"","type":"uint256"}],"stateMutability":"view","type":"function"},{"inputs":[{"internalType":"address","name":"from","type":"address"},{"internalType":"address","name":"to","type":"address"},{"internalType":"uint256","name":"tokenId","type":"uint256"}],"name":"transferFrom","outputs":[],"stateMutability":"nonpayable","type":"function"},{"inputs":[{"internalType":"address","name":"newOwner","type":"address"}],"name":"transferOwnership","outputs":[],"stateMutability":"nonpayable","type":"function"},{"inputs":[{"internalType":"uint256","name":"tokenId","type":"uint256"}],"name":"unfreeze","outputs":[],"stateMutability":"nonpayable","type":"function"},{"inputs":[],"name":"unpause","outputs":[],"stateMutability":"nonpayable","type":"function"},{"inputs":[{"internalType":"string","name":"__contractURI","type":"string"}],"name":"updateContractURI","outputs":[],"stateMutability":"nonpayable","type":"function"},{"inputs":[{"internalType":"address","name":"receiver","type":"address"},{"internalType":"uint96","name":"feeNumerator","type":"uint96"}],"name":"updateDefaultRoyalty","outputs":[],"stateMutability":"nonpayable","type":"function"},{"inputs":[{"internalType":"uint256","name":"eventId","type":"uint256"},{"internalType":"address","name":"receiver","type":"address"},{"internalType":"uint96","name":"feeNumerator","type":"uint96"}],"name":"updateEventRoyalty","outputs":[],"stateMutability":"nonpayable","type":"function"},{"inputs":[{"internalType":"address","name":"newImplementation","type":"address"}],"name":"upgradeTo","outputs":[],"stateMutability":"nonpayable","type":"function"},{"inputs":[{"internalType":"address","name":"newImplementation","type":"address"},{"internalType":"bytes","name":"data","type":"bytes"}],"name":"upgradeToAndCall","outputs":[],"stateMutability":"payable","type":"function"}],"devdoc":{"custom:security-contact":"security@ultraviolet.club","events":{"Frozen(uint256)":{"details":"Emmited when token is frozen"},"Minted(uint256,uint256,address)":{"details":"Emmited when token is created"},"Unfrozen(uint256)":{"details":"Emmited when token is unfrozen by function call"}},"kind":"dev","methods":{"approve(address,uint256)":{"details":"See {IERC721-approve}."},"balanceOf(address)":{"details":"See {IERC721-balanceOf}."},"burn(uint256)":{"details":"Burns `tokenId`. See {ERC721-_burn}. Requirements: - The caller must own `tokenId` or be an approved operator."},"cancelSubscription(uint256)":{"details":"See {IERC5643-cancelSubscription}."},"constructor":{"custom:oz-upgrades-unsafe-allow":"constructor"},"eventURI(uint256)":{"details":"Gets URI for the token metadata","params":{"eventId":"( uint256 ) The Event Id you want to get the URI"},"returns":{"_0":"( string ) URI for the event metadata"}},"expireSubscription(uint256)":{"details":"Sets the expiration of the token to the current timestamp","params":{"tokenId":"( uint256 ) id for the token"}},"expiresAt(uint256)":{"details":"See {IERC5643-expiresAt}."},"freeze(uint256)":{"details":"Freeze a specific ERC721 token. Requires - The msg sender to be the owner - The contract does not have to be paused - The token does not have to be frozen","params":{"tokenId":"( uint256 ) Id of the ERC721 token to be frozen."}},"getApproved(uint256)":{"details":"See {IERC721-getApproved}."},"isFrozen(uint256)":{"details":"Gets the token freeze status","params":{"tokenId":"( uint256 ) The token id to check."},"returns":{"_0":"bool representing the token freeze status"}},"isRenewable(uint256)":{"details":"See {IERC5643-isRenewable}."},"mintEventToManyUsers(uint256,address[],bool,uint64)":{"details":"Mint token to many addresses. Requires - The msg sender to be the owner - The contract does not have to be paused","params":{"eventId":"( uint256 ) EventId for the new token","frozen":"( bool ) true if minted token should be frozen, else false","to":"( array of address ) The addresses that will receive the minted tokens.","validDuration":"( unit64 ) duration in seconds that the minted token is valid for, 0 if not subscription token"},"returns":{"_0":"A boolean that indicates if the operation was successful."}},"mintToken(uint256,address,bool,uint64)":{"details":"Mint token to address. Requires - The msg sender to be the onwer - The contract does not have to be paused","params":{"eventId":"( uint256 ) EventId for the new token","frozen":"( bool ) true if minted token should be frozen, else false","to":"( address ) The address that will receive the minted tokens.","validDuration":"( unit64 ) duration in seconds that the minted token is valid for, 0 if not subscription token"},"returns":{"_0":"A boolean that indicates if the operation was successful."}},"mintUserToManyEvents(uint256[],address,bool,uint64)":{"details":"Mint many tokens to address. Requires - The msg sender to be the admin - The contract does not have to be paused","params":{"eventIds":"( array uint256 ) Event Ids to assing to user","frozen":"( bool ) true if minted token should be frozen, else false","to":"( address ) The address that will receive the minted tokens.","validDuration":"( unit64 ) duration in seconds that the minted token is valid for, 0 if not subscription token"},"returns":{"_0":"A boolean that indicates if the operation was successful."}},"name()":{"details":"See {IERC721Metadata-name}."},"owner()":{"details":"Returns the address of the current owner."},"ownerOf(uint256)":{"details":"See {IERC721-ownerOf}."},"pause()":{"details":"Freezes all token transfers."},"paused()":{"details":"Returns true if the contract is paused, and false otherwise."},"proxiableUUID()":{"details":"Implementation of the ERC1822 {proxiableUUID} function. This returns the storage slot used by the implementation. It is used to validate that the this implementation remains valid after an upgrade. IMPORTANT: A proxy pointing at a proxiable contract should not be considered proxiable itself, because this risks bricking a proxy that upgrades to it, by delegating to itself until out of gas. Thus it is critical that this function revert if invoked through a proxy. This is guaranteed by the `notDelegated` modifier."},"reclaimToken(uint256)":{"details":"Reclaim a token from a user to the owner's wallet Requires:  - msg sender to be the contract owner","params":{"tokenId":"( uint256 ) Id of the token being reclaimed"}},"removeDefaultRoyalty()":{"details":"Removes default royalty information."},"removeEventRoyalty(uint256)":{"details":"Resets royalty information for the token id back to the global default."},"renewSubscription(uint256,uint64)":{"details":"See {IERC5643-renewSubscription}."},"renounceOwnership()":{"details":"Leaves the contract without owner. It will not be possible to call `onlyOwner` functions anymore. Can only be called by the current owner. NOTE: Renouncing ownership will leave the contract without an owner, thereby removing any functionality that is only available to the owner."},"royaltyInfo(uint256,uint256)":{"details":"Returns how much royalty is owed and to whom, based on a sale price that may be denominated in any unit of exchange. The royalty amount is denominated and should be paid in that same unit of exchange."},"safeTransferFrom(address,address,uint256)":{"details":"See {IERC721-safeTransferFrom}."},"safeTransferFrom(address,address,uint256,bytes)":{"details":"See {IERC721-safeTransferFrom}."},"setApprovalForAll(address,bool)":{"details":"See {IERC721-setApprovalForAll}."},"setLastId(uint256)":{"details":"Sets Last Id for minting. Requires - The msg sender to be the admin - The contract does not have to be paused","params":{"newLastId":"( uint256 ) The new Last Id"}},"symbol()":{"details":"See {IERC721Metadata-symbol}."},"tokenByIndex(uint256)":{"details":"See {IERC721Enumerable-tokenByIndex}."},"tokenDetailsOfOwnerByIndex(address,uint256)":{"details":"Gets the Token Id and Event Id for a given index of the tokens list of the requested owner","params":{"index":"( uint256 ) Index to be accessed of the requested tokens list","owner":"( address ) Owner address of the token list to be queried"},"returns":{"eventId":"( uint256 ) Event Id for the given token","tokenId":"( uint256 ) Token Id for the given index of the tokens list owned by the requested address"}},"tokenEvent(uint256)":{"details":"Gets the Event Id for the token","params":{"tokenId":"( uint256 ) The Token Id you want to query"},"returns":{"_0":"( uint256 ) representing the Event id for the token"}},"tokenOfOwnerByIndex(address,uint256)":{"details":"See {IERC721Enumerable-tokenOfOwnerByIndex}."},"tokenURI(uint256)":{"details":"Gets URI for the token metadata","params":{"tokenId":"( uint256 ) The Token Id you want to get the URI"},"returns":{"_0":"( string ) URI for the token metadata"}},"totalSupply()":{"details":"See {IERC721Enumerable-totalSupply}."},"transferFrom(address,address,uint256)":{"details":"See {IERC721-transferFrom}."},"transferOwnership(address)":{"details":"Transfers ownership of the contract to a new account (`newOwner`). Can only be called by the current owner."},"unfreeze(uint256)":{"details":"Unfreeze a specific ERC721 token. Requires - The msg sender to be the owner - The contract does not have to be paused - The token must be frozen","params":{"tokenId":"( uint256 ) Id of the ERC721 token to be unfrozen."}},"unpause()":{"details":"Removes a pause."},"updateContractURI(string)":{"details":"Changes the base URI","params":{"__contractURI":"String representing RFC 3986 URI."}},"updateDefaultRoyalty(address,uint96)":{"details":"Sets the royalty information that all ids in this contract will default to.","params":{"feeNumerator":"Size of the royalty in basis points. Cannot be greater than the fee denominator (10000).","receiver":"Address to receive the royalties. Cannot be the zero address."}},"updateEventRoyalty(uint256,address,uint96)":{"details":"Sets the royalty information for a specific token id, overriding the global default.","params":{"feeNumerator":"Size of the royalty in basis points. Cannot be greater than the fee denominator (10000).","receiver":"Address to receive the royalties. Cannot be the zero address."}},"upgradeTo(address)":{"details":"Upgrade the implementation of the proxy to `newImplementation`. Calls {_authorizeUpgrade}. Emits an {Upgraded} event."},"upgradeToAndCall(address,bytes)":{"details":"Upgrade the implementation of the proxy to `newImplementation`, and subsequently execute the function call encoded in `data`. Calls {_authorizeUpgrade}. Emits an {Upgraded} event."}},"version":1},"evm":{"bytecode":{"linkReferences":{},"object":"60a0604052306080523480156200001557600080fd5b506200002062000026565b620000e8565b600054610100900460ff1615620000935760405162461bcd60e51b815260206004820152602760248201527f496e697469616c697a61626c653a20636f6e747261637420697320696e697469604482015266616c697a696e6760c81b606482015260840160405180910390fd5b60005460ff9081161015620000e6576000805460ff191660ff9081179091556040519081527f7f26b83ff96e1f2b6a682f133852f6798a09c465da95921460cefb38474024989060200160405180910390a15b565b608051615260620001206000396000818161114e015281816111fe015281816116ea0152818161179a01526119ff01526152606000f3fe6080604052600436106103345760003560e01c80636352211e116101b0578063a0894799116100ec578063c87b56dd11610095578063d7a78db81161006f578063d7a78db814610971578063e8a3d48514610991578063e985e9c5146109a6578063f2fde38b146109c657600080fd5b8063c87b56dd14610911578063cde317af14610931578063d691e43c1461095157600080fd5b8063b88d4fde116100c6578063b88d4fde146108ba578063bceb2f84146108da578063c1292cc3146108fa57600080fd5b8063a089479914610849578063a0fd0c6a1461087a578063a22cb4651461089a57600080fd5b806378fa0654116101595780638da5cb5b116101335780638da5cb5b146107d35780638e45d62e146107ff57806395d89b411461081f57806397ec4fba1461083457600080fd5b806378fa06541461077e5780637e5b1e241461079e5780638456cb59146107be57600080fd5b806370a082311161018a57806370a0823114610729578063715018a614610749578063776ce8681461075e57600080fd5b80636352211e146106b45780636623fc46146106d457806367e971ce146106f457600080fd5b80632f745c591161027f5780634cd88b7611610228578063508061a211610202578063508061a21461064757806352d1902d146106675780635c975abb1461067c5780635f330b411461069457600080fd5b80634cd88b76146105f45780634f1ef286146106145780634f6ccce71461062757600080fd5b806342842e0e1161025957806342842e0e1461059457806342966c68146105b4578063493a7576146105d457600080fd5b80632f745c591461053f5780633659cfe61461055f5780633f4ba83a1461057f57600080fd5b806317c95709116102e157806321235083116102bb57806321235083146104b357806323b872dd146104d35780632a55205a146104f357600080fd5b806317c957091461044557806318160ddd1461047e5780631a27e85f1461049357600080fd5b8063095ea7b311610312578063095ea7b3146103d5578063099bff12146103f7578063127a52981461041757600080fd5b806301ffc9a71461033957806306fdde031461036e578063081812fc14610390575b600080fd5b34801561034557600080fd5b50610359610354366004614711565b6109e6565b60405190151581526020015b60405180910390f35b34801561037a57600080fd5b50610383610a8e565b60405161036591906147a4565b34801561039c57600080fd5b506103b06103ab3660046147b7565b610b20565b60405173ffffffffffffffffffffffffffffffffffffffff9091168152602001610365565b3480156103e157600080fd5b506103f56103f03660046147f9565b610b54565b005b34801561040357600080fd5b506103596104123660046148f6565b610ce6565b34801561042357600080fd5b506104376104323660046147b7565b610d7c565b604051908152602001610365565b34801561045157600080fd5b506104656104603660046147b7565b610d9b565b60405167ffffffffffffffff9091168152602001610365565b34801561048a57600080fd5b50609954610437565b34801561049f57600080fd5b506103f56104ae3660046147b7565b610dc4565b3480156104bf57600080fd5b506103f56104ce3660046147b7565b610e46565b3480156104df57600080fd5b506103f56104ee3660046149bf565b610eba565b3480156104ff57600080fd5b5061051361050e3660046149fb565b610f5c565b6040805173ffffffffffffffffffffffffffffffffffffffff9093168352602083019190915201610365565b34801561054b57600080fd5b5061043761055a3660046147f9565b611067565b34801561056b57600080fd5b506103f561057a366004614a1d565b611136565b34801561058b57600080fd5b506103f561133c565b3480156105a057600080fd5b506103f56105af3660046149bf565b61134e565b3480156105c057600080fd5b506103f56105cf3660046147b7565b611369565b3480156105e057600080fd5b506103f56105ef3660046147b7565b611407565b34801561060057600080fd5b506103f561060f366004614ac6565b611515565b6103f5610622366004614b2a565b6116d2565b34801561063357600080fd5b506104376106423660046147b7565b6118c9565b34801561065357600080fd5b506103f56106623660046147b7565b611987565b34801561067357600080fd5b506104376119e5565b34801561068857600080fd5b5060fb5460ff16610359565b3480156106a057600080fd5b506103f56106af3660046147b7565b611ad1565b3480156106c057600080fd5b506103b06106cf3660046147b7565b611aeb565b3480156106e057600080fd5b506103f56106ef3660046147b7565b611b77565b34801561070057600080fd5b5061071461070f3660046147f9565b611c6f565b60408051928352602083019190915201610365565b34801561073557600080fd5b50610437610744366004614a1d565b611c90565b34801561075557600080fd5b506103f5611d5e565b34801561076a57600080fd5b506103f5610779366004614b6e565b611d70565b34801561078a57600080fd5b506103f5610799366004614bad565b611d8b565b3480156107aa57600080fd5b506103f56107b9366004614be9565b611d9e565b3480156107ca57600080fd5b506103f5611dba565b3480156107df57600080fd5b5061012d5473ffffffffffffffffffffffffffffffffffffffff166103b0565b34801561080b57600080fd5b5061035961081a366004614c1e565b611dca565b34801561082b57600080fd5b50610383611e10565b34801561084057600080fd5b506103f5611e1f565b34801561085557600080fd5b506103596108643660046147b7565b60009081526101c6602052604090205460ff1690565b34801561088657600080fd5b506103836108953660046147b7565b611e32565b3480156108a657600080fd5b506103f56108b5366004614c54565b611e67565b3480156108c657600080fd5b506103f56108d5366004614c8b565b611e72565b3480156108e657600080fd5b506103596108f5366004614cf3565b611f1a565b34801561090657600080fd5b506104376101c45481565b34801561091d57600080fd5b5061038361092c3660046147b7565b611f9e565b34801561093d57600080fd5b5061035961094c3660046147b7565b611fef565b34801561095d57600080fd5b506103f561096c366004614d9f565b612002565b34801561097d57600080fd5b506103f561098c3660046147b7565b612014565b34801561099d57600080fd5b5061038361210f565b3480156109b257600080fd5b506103596109c1366004614dc9565b61219e565b3480156109d257600080fd5b506103f56109e1366004614a1d565b612213565b60007fffffffff0000000000000000000000000000000000000000000000000000000082167f8c65f84d000000000000000000000000000000000000000000000000000000001480610a7957507fffffffff0000000000000000000000000000000000000000000000000000000082167f2a55205a00000000000000000000000000000000000000000000000000000000145b80610a885750610a88826122c7565b92915050565b606060658054610a9d90614df3565b80601f0160208091040260200160405190810160405280929190818152602001828054610ac990614df3565b8015610b165780601f10610aeb57610100808354040283529160200191610b16565b820191906000526020600020905b815481529060010190602001808311610af957829003601f168201915b5050505050905090565b6000610b2b8261231d565b5060009081526069602052604090205473ffffffffffffffffffffffffffffffffffffffff1690565b6000610b5f82611aeb565b90508073ffffffffffffffffffffffffffffffffffffffff168373ffffffffffffffffffffffffffffffffffffffff161415610c22576040517f08c379a000000000000000000000000000000000000000000000000000000000815260206004820152602160248201527f4552433732313a20617070726f76616c20746f2063757272656e74206f776e6560448201527f720000000000000000000000000000000000000000000000000000000000000060648201526084015b60405180910390fd5b3373ffffffffffffffffffffffffffffffffffffffff82161480610c4b5750610c4b813361219e565b610cd7576040517f08c379a000000000000000000000000000000000000000000000000000000000815260206004820152603e60248201527f4552433732313a20617070726f76652063616c6c6572206973206e6f7420746f60448201527f6b656e206f776e6572206e6f7220617070726f76656420666f7220616c6c00006064820152608401610c19565b610ce183836123a8565b505050565b6000610cf0612448565b610cf86124b5565b60005b8551811015610d5557610d44868281518110610d1957610d19614e47565b6020026020010151826101c4546001610d329190614ea5565b610d3c9190614ea5565b878787612537565b50610d4e81614ebd565b9050610cfb565b5084516101c46000828254610d6a9190614ea5565b9091555060019150505b949350505050565b6000610d878261231d565b5060009081526101c5602052604090205490565b6000610da68261231d565b5060009081526101c9602052604090205467ffffffffffffffff1690565b610dcc6124b5565b610dd4612448565b806101c45410610e40576040517f08c379a000000000000000000000000000000000000000000000000000000000815260206004820152601760248201527f4e65772049642068617320746f206265206869676865720000000000000000006044820152606401610c19565b6101c455565b610e4e6124b5565b60008181526101c96020908152604080832080547fffffffffffffffffffffffffffffffffffffffffffffffff00000000000000001690555191825282917f2ec2be2c4b90c2cf13ecb6751a24daed6bb741ae5ed3f7371aabf9402f6d62e8910160405180910390a250565b610ec5335b826125e5565b610f51576040517f08c379a000000000000000000000000000000000000000000000000000000000815260206004820152602e60248201527f4552433732313a2063616c6c6572206973206e6f7420746f6b656e206f776e6560448201527f72206e6f7220617070726f7665640000000000000000000000000000000000006064820152608401610c19565b610ce1838383612677565b6000806000610f6a85610d7c565b60008181526101c8602090815260409182902082518084019093525473ffffffffffffffffffffffffffffffffffffffff8116808452740100000000000000000000000000000000000000009091046bffffffffffffffffffffffff16918301919091529192509061102a5750604080518082019091526101c75473ffffffffffffffffffffffffffffffffffffffff811682527401000000000000000000000000000000000000000090046bffffffffffffffffffffffff1660208201525b60208101516000906127109061104e906bffffffffffffffffffffffff1688614ef6565b6110589190614f62565b91519791965090945050505050565b600061107283611c90565b8210611100576040517f08c379a000000000000000000000000000000000000000000000000000000000815260206004820152602b60248201527f455243373231456e756d657261626c653a206f776e657220696e646578206f7560448201527f74206f6620626f756e64730000000000000000000000000000000000000000006064820152608401610c19565b5073ffffffffffffffffffffffffffffffffffffffff919091166000908152609760209081526040808320938352929052205490565b3073ffffffffffffffffffffffffffffffffffffffff7f00000000000000000000000000000000000000000000000000000000000000001614156111fc576040517f08c379a000000000000000000000000000000000000000000000000000000000815260206004820152602c60248201527f46756e6374696f6e206d7573742062652063616c6c6564207468726f7567682060448201527f64656c656761746563616c6c00000000000000000000000000000000000000006064820152608401610c19565b7f000000000000000000000000000000000000000000000000000000000000000073ffffffffffffffffffffffffffffffffffffffff166112717f360894a13ba1a3210667c828492db98dca3e2076cc3735a920a3ca505d382bbc5473ffffffffffffffffffffffffffffffffffffffff1690565b73ffffffffffffffffffffffffffffffffffffffff1614611314576040517f08c379a000000000000000000000000000000000000000000000000000000000815260206004820152602c60248201527f46756e6374696f6e206d7573742062652063616c6c6564207468726f7567682060448201527f6163746976652070726f787900000000000000000000000000000000000000006064820152608401610c19565b61131d816128e9565b60408051600080825260208201909252611339918391906128f1565b50565b6113446124b5565b61134c612af0565b565b610ce183838360405180602001604052806000815250611e72565b61137233610ebf565b6113fe576040517f08c379a000000000000000000000000000000000000000000000000000000000815260206004820152602e60248201527f4552433732313a2063616c6c6572206973206e6f7420746f6b656e206f776e6560448201527f72206e6f7220617070726f7665640000000000000000000000000000000000006064820152608401610c19565b61133981612b6d565b61140f6124b5565b60008181526101c96020526040902054429067ffffffffffffffff80831691161015611497576040517f08c379a000000000000000000000000000000000000000000000000000000000815260206004820152601f60248201527f546f6b656e2063616e6e6f7420616c72656164792062652065787069726564006044820152606401610c19565b60008281526101c9602090815260409182902080547fffffffffffffffffffffffffffffffffffffffffffffffff00000000000000001667ffffffffffffffff8516908117909155915191825283917f2ec2be2c4b90c2cf13ecb6751a24daed6bb741ae5ed3f7371aabf9402f6d62e8910160405180910390a25050565b600054610100900460ff16158080156115355750600054600160ff909116105b8061154f5750303b15801561154f575060005460ff166001145b6115db576040517f08c379a000000000000000000000000000000000000000000000000000000000815260206004820152602e60248201527f496e697469616c697a61626c653a20636f6e747261637420697320616c72656160448201527f647920696e697469616c697a65640000000000000000000000000000000000006064820152608401610c19565b600080547fffffffffffffffffffffffffffffffffffffffffffffffffffffffffffffff00166001179055801561163957600080547fffffffffffffffffffffffffffffffffffffffffffffffffffffffffffff00ff166101001790555b6116438383612be9565b61164b612c8a565b611653612d21565b61165b612dc0565b611663612c8a565b61166b612c8a565b8015610ce157600080547fffffffffffffffffffffffffffffffffffffffffffffffffffffffffffff00ff169055604051600181527f7f26b83ff96e1f2b6a682f133852f6798a09c465da95921460cefb38474024989060200160405180910390a1505050565b3073ffffffffffffffffffffffffffffffffffffffff7f0000000000000000000000000000000000000000000000000000000000000000161415611798576040517f08c379a000000000000000000000000000000000000000000000000000000000815260206004820152602c60248201527f46756e6374696f6e206d7573742062652063616c6c6564207468726f7567682060448201527f64656c656761746563616c6c00000000000000000000000000000000000000006064820152608401610c19565b7f000000000000000000000000000000000000000000000000000000000000000073ffffffffffffffffffffffffffffffffffffffff1661180d7f360894a13ba1a3210667c828492db98dca3e2076cc3735a920a3ca505d382bbc5473ffffffffffffffffffffffffffffffffffffffff1690565b73ffffffffffffffffffffffffffffffffffffffff16146118b0576040517f08c379a000000000000000000000000000000000000000000000000000000000815260206004820152602c60248201527f46756e6374696f6e206d7573742062652063616c6c6564207468726f7567682060448201527f6163746976652070726f787900000000000000000000000000000000000000006064820152608401610c19565b6118b9826128e9565b6118c5828260016128f1565b5050565b60006118d460995490565b8210611962576040517f08c379a000000000000000000000000000000000000000000000000000000000815260206004820152602c60248201527f455243373231456e756d657261626c653a20676c6f62616c20696e646578206f60448201527f7574206f6620626f756e647300000000000000000000000000000000000000006064820152608401610c19565b6099828154811061197557611975614e47565b90600052602060002001549050919050565b61198f6124b5565b6119988161231d565b60008181526101c6602052604090205460ff16156119b9576119b981612e5f565b6113396119c582611aeb565b61012d5473ffffffffffffffffffffffffffffffffffffffff1683612677565b60003073ffffffffffffffffffffffffffffffffffffffff7f00000000000000000000000000000000000000000000000000000000000000001614611aac576040517f08c379a000000000000000000000000000000000000000000000000000000000815260206004820152603860248201527f555550535570677261646561626c653a206d757374206e6f742062652063616c60448201527f6c6564207468726f7567682064656c656761746563616c6c00000000000000006064820152608401610c19565b507f360894a13ba1a3210667c828492db98dca3e2076cc3735a920a3ca505d382bbc90565b611ad96124b5565b60009081526101c86020526040812055565b60008181526067602052604081205473ffffffffffffffffffffffffffffffffffffffff1680610a88576040517f08c379a000000000000000000000000000000000000000000000000000000000815260206004820152601860248201527f4552433732313a20696e76616c696420746f6b656e20494400000000000000006044820152606401610c19565b611b7f6124b5565b611b87612448565b6040517fa089479900000000000000000000000000000000000000000000000000000000815260048101829052309063a089479990602401602060405180830381865afa158015611bdc573d6000803e3d6000fd5b505050506040513d601f19601f82011682018060405250810190611c009190614f76565b611c66576040517f08c379a000000000000000000000000000000000000000000000000000000000815260206004820152601360248201527f546f6b656e206973206e6f742066726f7a656e000000000000000000000000006044820152606401610c19565b61133981612e5f565b600080611c7c8484611067565b9150611c8782610d7c565b90509250929050565b600073ffffffffffffffffffffffffffffffffffffffff8216611d35576040517f08c379a000000000000000000000000000000000000000000000000000000000815260206004820152602960248201527f4552433732313a2061646472657373207a65726f206973206e6f74206120766160448201527f6c6964206f776e657200000000000000000000000000000000000000000000006064820152608401610c19565b5073ffffffffffffffffffffffffffffffffffffffff1660009081526068602052604090205490565b611d666124b5565b61134c6000612ed1565b611d786124b5565b611d818261231d565b6118c58282612f49565b611d936124b5565b610ce1838383613007565b611da66124b5565b80516118c5906101c390602084019061464a565b611dc26124b5565b61134c613192565b6000611dd4612448565b611ddc6124b5565b60016101c46000828254611df09190614ea5565b92505081905550611e07856101c454868686612537565b95945050505050565b606060668054610a9d90614df3565b611e276124b5565b61134c60006101c755565b60606101c3611e40836131ed565b604051602001611e51929190615064565b6040516020818303038152906040529050919050565b6118c533838361331f565b611e7c33836125e5565b611f08576040517f08c379a000000000000000000000000000000000000000000000000000000000815260206004820152602e60248201527f4552433732313a2063616c6c6572206973206e6f7420746f6b656e206f776e6560448201527f72206e6f7220617070726f7665640000000000000000000000000000000000006064820152608401610c19565b611f148484848461344d565b50505050565b6000611f24612448565b611f2c6124b5565b60005b8451811015611f8957611f7886826101c4546001611f4d9190614ea5565b611f579190614ea5565b878481518110611f6957611f69614e47565b60200260200101518787612537565b50611f8281614ebd565b9050611f2f565b5083516101c46000828254610d6a9190614ea5565b60008181526101c560205260409020546060906101c3611fbd826131ed565b611fc6856131ed565b604051602001611fd893929190615089565b604051602081830303815290604052915050919050565b6000611ffa8261231d565b506001919050565b61200a6124b5565b6118c582826134f0565b61201c6124b5565b612024612448565b6040517fa0894799000000000000000000000000000000000000000000000000000000008152600481018290528190309063a089479990602401602060405180830381865afa15801561207b573d6000803e3d6000fd5b505050506040513d601f19601f8201168201806040525081019061209f9190614f76565b15612106576040517f08c379a000000000000000000000000000000000000000000000000000000000815260206004820152600f60248201527f546f6b656e2069732066726f7a656e00000000000000000000000000000000006044820152606401610c19565b6118c58261366a565b6101c3805461211d90614df3565b80601f016020809104026020016040519081016040528092919081815260200182805461214990614df3565b80156121965780601f1061216b57610100808354040283529160200191612196565b820191906000526020600020905b81548152906001019060200180831161217957829003601f168201915b505050505081565b600073ffffffffffffffffffffffffffffffffffffffff82166e6c3852cbef3e08e8df289169ede58114156121d557506001610a88565b73ffffffffffffffffffffffffffffffffffffffff8084166000908152606a602090815260408083209386168352929052205460ff165b9392505050565b61221b6124b5565b73ffffffffffffffffffffffffffffffffffffffff81166122be576040517f08c379a000000000000000000000000000000000000000000000000000000000815260206004820152602660248201527f4f776e61626c653a206e6577206f776e657220697320746865207a65726f206160448201527f64647265737300000000000000000000000000000000000000000000000000006064820152608401610c19565b61133981612ed1565b60007fffffffff0000000000000000000000000000000000000000000000000000000082167f780e9d63000000000000000000000000000000000000000000000000000000001480610a885750610a88826136d4565b60008181526067602052604090205473ffffffffffffffffffffffffffffffffffffffff16611339576040517f08c379a000000000000000000000000000000000000000000000000000000000815260206004820152601860248201527f4552433732313a20696e76616c696420746f6b656e20494400000000000000006044820152606401610c19565b600081815260696020526040902080547fffffffffffffffffffffffff00000000000000000000000000000000000000001673ffffffffffffffffffffffffffffffffffffffff8416908117909155819061240282611aeb565b73ffffffffffffffffffffffffffffffffffffffff167f8c5be1e5ebec7d5bd14f71427d1e84f3dd0314c0f7b2291e5b200ac8c7c3b92560405160405180910390a45050565b60fb5460ff161561134c576040517f08c379a000000000000000000000000000000000000000000000000000000000815260206004820152601060248201527f5061757361626c653a20706175736564000000000000000000000000000000006044820152606401610c19565b61012d5473ffffffffffffffffffffffffffffffffffffffff16331461134c576040517f08c379a000000000000000000000000000000000000000000000000000000000815260206004820181905260248201527f4f776e61626c653a2063616c6c6572206973206e6f7420746865206f776e65726044820152606401610c19565b600061254384866137b7565b60008581526101c56020526040908190208790555186907f259eb7b480b3d449f506927269e4665c83c69e4cd797143eaa8f84632dc7a02b906125a8908890889091825273ffffffffffffffffffffffffffffffffffffffff16602082015260400190565b60405180910390a282156125bf576125bf85612014565b67ffffffffffffffff8216156125d9576125d98583612f49565b50600195945050505050565b6000806125f183611aeb565b90508073ffffffffffffffffffffffffffffffffffffffff168473ffffffffffffffffffffffffffffffffffffffff1614806126325750612632818561219e565b80610d7457508373ffffffffffffffffffffffffffffffffffffffff1661265884610b20565b73ffffffffffffffffffffffffffffffffffffffff1614949350505050565b8273ffffffffffffffffffffffffffffffffffffffff1661269782611aeb565b73ffffffffffffffffffffffffffffffffffffffff161461273a576040517f08c379a000000000000000000000000000000000000000000000000000000000815260206004820152602560248201527f4552433732313a207472616e736665722066726f6d20696e636f72726563742060448201527f6f776e65720000000000000000000000000000000000000000000000000000006064820152608401610c19565b73ffffffffffffffffffffffffffffffffffffffff82166127dc576040517f08c379a0000000000000000000000000000000000000000000000000000000008152602060048201526024808201527f4552433732313a207472616e7366657220746f20746865207a65726f2061646460448201527f72657373000000000000000000000000000000000000000000000000000000006064820152608401610c19565b6127e78383836137d1565b6127f26000826123a8565b73ffffffffffffffffffffffffffffffffffffffff831660009081526068602052604081208054600192906128289084906150eb565b909155505073ffffffffffffffffffffffffffffffffffffffff82166000908152606860205260408120805460019290612863908490614ea5565b909155505060008181526067602052604080822080547fffffffffffffffffffffffff00000000000000000000000000000000000000001673ffffffffffffffffffffffffffffffffffffffff86811691821790925591518493918716917fddf252ad1be2c89b69c2b068fc378daa952ba7f163c4a11628f55a4df523b3ef91a4505050565b6113396124b5565b7f4910fdfa16fed3260ed0e7147f7cc6da11a60208b5b9406d12a635614ffd91435460ff161561292457610ce1836138c6565b8273ffffffffffffffffffffffffffffffffffffffff166352d1902d6040518163ffffffff1660e01b8152600401602060405180830381865afa9250505080156129a9575060408051601f3d9081017fffffffffffffffffffffffffffffffffffffffffffffffffffffffffffffffe01682019092526129a691810190615102565b60015b612a35576040517f08c379a000000000000000000000000000000000000000000000000000000000815260206004820152602e60248201527f45524331393637557067726164653a206e657720696d706c656d656e7461746960448201527f6f6e206973206e6f7420555550530000000000000000000000000000000000006064820152608401610c19565b7f360894a13ba1a3210667c828492db98dca3e2076cc3735a920a3ca505d382bbc8114612ae4576040517f08c379a000000000000000000000000000000000000000000000000000000000815260206004820152602960248201527f45524331393637557067726164653a20756e737570706f727465642070726f7860448201527f6961626c655555494400000000000000000000000000000000000000000000006064820152608401610c19565b50610ce18383836139d0565b612af86139f5565b60fb80547fffffffffffffffffffffffffffffffffffffffffffffffffffffffffffffff001690557f5db9ee0a495bf2e6ff9c91a7834c1ba4fdd244a5e8aa4e537bd38aeae4b073aa335b60405173ffffffffffffffffffffffffffffffffffffffff909116815260200160405180910390a1565b612b7681613a61565b60009081526101c5602090815260408083208390556101c6825280832080547fffffffffffffffffffffffffffffffffffffffffffffffffffffffffffffff001690556101c9909152902080547fffffffffffffffffffffffffffffffffffffffffffffffff0000000000000000169055565b600054610100900460ff16612c80576040517f08c379a000000000000000000000000000000000000000000000000000000000815260206004820152602b60248201527f496e697469616c697a61626c653a20636f6e7472616374206973206e6f74206960448201527f6e697469616c697a696e670000000000000000000000000000000000000000006064820152608401610c19565b6118c58282613b3a565b600054610100900460ff1661134c576040517f08c379a000000000000000000000000000000000000000000000000000000000815260206004820152602b60248201527f496e697469616c697a61626c653a20636f6e7472616374206973206e6f74206960448201527f6e697469616c697a696e670000000000000000000000000000000000000000006064820152608401610c19565b600054610100900460ff16612db8576040517f08c379a000000000000000000000000000000000000000000000000000000000815260206004820152602b60248201527f496e697469616c697a61626c653a20636f6e7472616374206973206e6f74206960448201527f6e697469616c697a696e670000000000000000000000000000000000000000006064820152608401610c19565b61134c613bf8565b600054610100900460ff16612e57576040517f08c379a000000000000000000000000000000000000000000000000000000000815260206004820152602b60248201527f496e697469616c697a61626c653a20636f6e7472616374206973206e6f74206960448201527f6e697469616c697a696e670000000000000000000000000000000000000000006064820152608401610c19565b61134c613cb9565b60008181526101c660205260409081902080547fffffffffffffffffffffffffffffffffffffffffffffffffffffffffffffff00169055517f083eea12772ab70fba01c8212d02f3bc5dc29b8540dcdc84298e5dfa22731b9290612ec69083815260200190565b60405180910390a150565b61012d805473ffffffffffffffffffffffffffffffffffffffff8381167fffffffffffffffffffffffff0000000000000000000000000000000000000000831681179093556040519116919082907f8be0079c531659141344cd1fd0a4f28419497f9722a3daafe3b4186f6b6457e090600090a35050565b60008281526101c9602052604081205467ffffffffffffffff169081612f7a57612f73834261511b565b9050612f87565b612f84838361511b565b90505b60008481526101c9602090815260409182902080547fffffffffffffffffffffffffffffffffffffffffffffffff00000000000000001667ffffffffffffffff8516908117909155915191825285917f2ec2be2c4b90c2cf13ecb6751a24daed6bb741ae5ed3f7371aabf9402f6d62e8910160405180910390a250505050565b6127106bffffffffffffffffffffffff821611156130a7576040517f08c379a000000000000000000000000000000000000000000000000000000000815260206004820152602a60248201527f455243323938313a20726f79616c7479206665652077696c6c2065786365656460448201527f2073616c655072696365000000000000000000000000000000000000000000006064820152608401610c19565b73ffffffffffffffffffffffffffffffffffffffff8216613124576040517f08c379a000000000000000000000000000000000000000000000000000000000815260206004820152601b60248201527f455243323938313a20496e76616c696420706172616d657465727300000000006044820152606401610c19565b60408051808201825273ffffffffffffffffffffffffffffffffffffffff93841681526bffffffffffffffffffffffff928316602080830191825260009687526101c89052919094209351905190911674010000000000000000000000000000000000000000029116179055565b61319a612448565b60fb80547fffffffffffffffffffffffffffffffffffffffffffffffffffffffffffffff001660011790557f62e78cea01bee320cd4e420270b5ea74000d11b0c9f74754ebdbfc544b05a258612b433390565b60608161322d57505060408051808201909152600181527f3000000000000000000000000000000000000000000000000000000000000000602082015290565b8160005b8115613257578061324181614ebd565b91506132509050600a83614f62565b9150613231565b60008167ffffffffffffffff81111561327257613272614823565b6040519080825280601f01601f19166020018201604052801561329c576020820181803683370190505b5090505b8415610d74576132b16001836150eb565b91506132be600a8661513e565b6132c9906030614ea5565b60f81b8183815181106132de576132de614e47565b60200101907effffffffffffffffffffffffffffffffffffffffffffffffffffffffffffff1916908160001a905350613318600a86614f62565b94506132a0565b8173ffffffffffffffffffffffffffffffffffffffff168373ffffffffffffffffffffffffffffffffffffffff1614156133b5576040517f08c379a000000000000000000000000000000000000000000000000000000000815260206004820152601960248201527f4552433732313a20617070726f766520746f2063616c6c6572000000000000006044820152606401610c19565b73ffffffffffffffffffffffffffffffffffffffff8381166000818152606a602090815260408083209487168084529482529182902080547fffffffffffffffffffffffffffffffffffffffffffffffffffffffffffffff001686151590811790915591519182527f17307eab39ab6107e8899845ad3d59bd9653f200f220920489ca2b5937696c31910160405180910390a3505050565b613458848484612677565b61346484848484613d59565b611f14576040517f08c379a000000000000000000000000000000000000000000000000000000000815260206004820152603260248201527f4552433732313a207472616e7366657220746f206e6f6e20455243373231526560448201527f63656976657220696d706c656d656e74657200000000000000000000000000006064820152608401610c19565b6127106bffffffffffffffffffffffff82161115613590576040517f08c379a000000000000000000000000000000000000000000000000000000000815260206004820152602a60248201527f455243323938313a20726f79616c7479206665652077696c6c2065786365656460448201527f2073616c655072696365000000000000000000000000000000000000000000006064820152608401610c19565b73ffffffffffffffffffffffffffffffffffffffff821661360d576040517f08c379a000000000000000000000000000000000000000000000000000000000815260206004820152601960248201527f455243323938313a20696e76616c6964207265636569766572000000000000006044820152606401610c19565b6040805180820190915273ffffffffffffffffffffffffffffffffffffffff9092168083526bffffffffffffffffffffffff909116602090920182905274010000000000000000000000000000000000000000909102176101c755565b60008181526101c660205260409081902080547fffffffffffffffffffffffffffffffffffffffffffffffffffffffffffffff00166001179055517f4d69b51fee53c28bd8b61fe008151577ca65160b5248f6225e74d64fd4cf732890612ec69083815260200190565b60007fffffffff0000000000000000000000000000000000000000000000000000000082167f80ac58cd00000000000000000000000000000000000000000000000000000000148061376757507fffffffff0000000000000000000000000000000000000000000000000000000082167f5b5e139f00000000000000000000000000000000000000000000000000000000145b80610a8857507f01ffc9a7000000000000000000000000000000000000000000000000000000007fffffffff00000000000000000000000000000000000000000000000000000000831614610a88565b6118c5828260405180602001604052806000815250613f46565b6137d9612448565b6040517fa0894799000000000000000000000000000000000000000000000000000000008152600481018290528190309063a089479990602401602060405180830381865afa158015613830573d6000803e3d6000fd5b505050506040513d601f19601f820116820180604052508101906138549190614f76565b156138bb576040517f08c379a000000000000000000000000000000000000000000000000000000000815260206004820152600f60248201527f546f6b656e2069732066726f7a656e00000000000000000000000000000000006044820152606401610c19565b611f14848484613fe9565b73ffffffffffffffffffffffffffffffffffffffff81163b61396a576040517f08c379a000000000000000000000000000000000000000000000000000000000815260206004820152602d60248201527f455243313936373a206e657720696d706c656d656e746174696f6e206973206e60448201527f6f74206120636f6e7472616374000000000000000000000000000000000000006064820152608401610c19565b7f360894a13ba1a3210667c828492db98dca3e2076cc3735a920a3ca505d382bbc80547fffffffffffffffffffffffff00000000000000000000000000000000000000001673ffffffffffffffffffffffffffffffffffffffff92909216919091179055565b6139d9836140ef565b6000825111806139e65750805b15610ce157611f14838361413c565b60fb5460ff1661134c576040517f08c379a000000000000000000000000000000000000000000000000000000000815260206004820152601460248201527f5061757361626c653a206e6f74207061757365640000000000000000000000006044820152606401610c19565b6000613a6c82611aeb565b9050613a7a816000846137d1565b613a856000836123a8565b73ffffffffffffffffffffffffffffffffffffffff81166000908152606860205260408120805460019290613abb9084906150eb565b909155505060008281526067602052604080822080547fffffffffffffffffffffffff00000000000000000000000000000000000000001690555183919073ffffffffffffffffffffffffffffffffffffffff8416907fddf252ad1be2c89b69c2b068fc378daa952ba7f163c4a11628f55a4df523b3ef908390a45050565b600054610100900460ff16613bd1576040517f08c379a000000000000000000000000000000000000000000000000000000000815260206004820152602b60248201527f496e697469616c697a61626c653a20636f6e7472616374206973206e6f74206960448201527f6e697469616c697a696e670000000000000000000000000000000000000000006064820152608401610c19565b8151613be490606590602085019061464a565b508051610ce190606690602084019061464a565b600054610100900460ff16613c8f576040517f08c379a000000000000000000000000000000000000000000000000000000000815260206004820152602b60248201527f496e697469616c697a61626c653a20636f6e7472616374206973206e6f74206960448201527f6e697469616c697a696e670000000000000000000000000000000000000000006064820152608401610c19565b60fb80547fffffffffffffffffffffffffffffffffffffffffffffffffffffffffffffff00169055565b600054610100900460ff16613d50576040517f08c379a000000000000000000000000000000000000000000000000000000000815260206004820152602b60248201527f496e697469616c697a61626c653a20636f6e7472616374206973206e6f74206960448201527f6e697469616c697a696e670000000000000000000000000000000000000000006064820152608401610c19565b61134c33612ed1565b600073ffffffffffffffffffffffffffffffffffffffff84163b15613f3e576040517f150b7a0200000000000000000000000000000000000000000000000000000000815273ffffffffffffffffffffffffffffffffffffffff85169063150b7a0290613dd0903390899088908890600401615152565b6020604051808303816000875af1925050508015613e29575060408051601f3d9081017fffffffffffffffffffffffffffffffffffffffffffffffffffffffffffffffe0168201909252613e269181019061519b565b60015b613ef3573d808015613e57576040519150601f19603f3d011682016040523d82523d6000602084013e613e5c565b606091505b508051613eeb576040517f08c379a000000000000000000000000000000000000000000000000000000000815260206004820152603260248201527f4552433732313a207472616e7366657220746f206e6f6e20455243373231526560448201527f63656976657220696d706c656d656e74657200000000000000000000000000006064820152608401610c19565b805181602001fd5b7fffffffff00000000000000000000000000000000000000000000000000000000167f150b7a0200000000000000000000000000000000000000000000000000000000149050610d74565b506001610d74565b613f508383614272565b613f5d6000848484613d59565b610ce1576040517f08c379a000000000000000000000000000000000000000000000000000000000815260206004820152603260248201527f4552433732313a207472616e7366657220746f206e6f6e20455243373231526560448201527f63656976657220696d706c656d656e74657200000000000000000000000000006064820152608401610c19565b73ffffffffffffffffffffffffffffffffffffffff83166140515761404c81609980546000838152609a60205260408120829055600182018355919091527f72a152ddfb8e864297c917af52ea6c1c68aead0fee1a62673fcc7e0c94979d000155565b61408e565b8173ffffffffffffffffffffffffffffffffffffffff168373ffffffffffffffffffffffffffffffffffffffff161461408e5761408e8382614440565b73ffffffffffffffffffffffffffffffffffffffff82166140b257610ce1816144f7565b8273ffffffffffffffffffffffffffffffffffffffff168273ffffffffffffffffffffffffffffffffffffffff1614610ce157610ce182826145a6565b6140f8816138c6565b60405173ffffffffffffffffffffffffffffffffffffffff8216907fbc7cd75a20ee27fd9adebab32041f755214dbc6bffa90cc0225b39da2e5c2d3b90600090a250565b606073ffffffffffffffffffffffffffffffffffffffff83163b6141e2576040517f08c379a000000000000000000000000000000000000000000000000000000000815260206004820152602660248201527f416464726573733a2064656c65676174652063616c6c20746f206e6f6e2d636f60448201527f6e747261637400000000000000000000000000000000000000000000000000006064820152608401610c19565b6000808473ffffffffffffffffffffffffffffffffffffffff168460405161420a91906151b8565b600060405180830381855af49150503d8060008114614245576040519150601f19603f3d011682016040523d82523d6000602084013e61424a565b606091505b5091509150611e078282604051806060016040528060278152602001615204602791396145f7565b73ffffffffffffffffffffffffffffffffffffffff82166142ef576040517f08c379a000000000000000000000000000000000000000000000000000000000815260206004820181905260248201527f4552433732313a206d696e7420746f20746865207a65726f20616464726573736044820152606401610c19565b60008181526067602052604090205473ffffffffffffffffffffffffffffffffffffffff161561437b576040517f08c379a000000000000000000000000000000000000000000000000000000000815260206004820152601c60248201527f4552433732313a20746f6b656e20616c7265616479206d696e746564000000006044820152606401610c19565b614387600083836137d1565b73ffffffffffffffffffffffffffffffffffffffff821660009081526068602052604081208054600192906143bd908490614ea5565b909155505060008181526067602052604080822080547fffffffffffffffffffffffff00000000000000000000000000000000000000001673ffffffffffffffffffffffffffffffffffffffff861690811790915590518392907fddf252ad1be2c89b69c2b068fc378daa952ba7f163c4a11628f55a4df523b3ef908290a45050565b6000600161444d84611c90565b61445791906150eb565b6000838152609860205260409020549091508082146144b75773ffffffffffffffffffffffffffffffffffffffff841660009081526097602090815260408083208584528252808320548484528184208190558352609890915290208190555b50600091825260986020908152604080842084905573ffffffffffffffffffffffffffffffffffffffff9094168352609781528383209183525290812055565b609954600090614509906001906150eb565b6000838152609a60205260408120546099805493945090928490811061453157614531614e47565b90600052602060002001549050806099838154811061455257614552614e47565b6000918252602080832090910192909255828152609a9091526040808220849055858252812055609980548061458a5761458a6151d4565b6001900381819060005260206000200160009055905550505050565b60006145b183611c90565b73ffffffffffffffffffffffffffffffffffffffff9093166000908152609760209081526040808320868452825280832085905593825260989052919091209190915550565b6060831561460657508161220c565b8251156146165782518084602001fd5b816040517f08c379a0000000000000000000000000000000000000000000000000000000008152600401610c1991906147a4565b82805461465690614df3565b90600052602060002090601f01602090048101928261467857600085556146be565b82601f1061469157805160ff19168380011785556146be565b828001600101855582156146be579182015b828111156146be5782518255916020019190600101906146a3565b506146ca9291506146ce565b5090565b5b808211156146ca57600081556001016146cf565b7fffffffff000000000000000000000000000000000000000000000000000000008116811461133957600080fd5b60006020828403121561472357600080fd5b813561220c816146e3565b60005b83811015614749578181015183820152602001614731565b83811115611f145750506000910152565b6000815180845261477281602086016020860161472e565b601f017fffffffffffffffffffffffffffffffffffffffffffffffffffffffffffffffe0169290920160200192915050565b60208152600061220c602083018461475a565b6000602082840312156147c957600080fd5b5035919050565b803573ffffffffffffffffffffffffffffffffffffffff811681146147f457600080fd5b919050565b6000806040838503121561480c57600080fd5b614815836147d0565b946020939093013593505050565b7f4e487b7100000000000000000000000000000000000000000000000000000000600052604160045260246000fd5b604051601f82017fffffffffffffffffffffffffffffffffffffffffffffffffffffffffffffffe016810167ffffffffffffffff8111828210171561489957614899614823565b604052919050565b600067ffffffffffffffff8211156148bb576148bb614823565b5060051b60200190565b801515811461133957600080fd5b80356147f4816148c5565b803567ffffffffffffffff811681146147f457600080fd5b6000806000806080858703121561490c57600080fd5b843567ffffffffffffffff81111561492357600080fd5b8501601f8101871361493457600080fd5b80356020614949614944836148a1565b614852565b82815260059290921b8301810191818101908a84111561496857600080fd5b938201935b838510156149865784358252938201939082019061496d565b975061499590508882016147d0565b95505050506149a6604086016148d3565b91506149b4606086016148de565b905092959194509250565b6000806000606084860312156149d457600080fd5b6149dd846147d0565b92506149eb602085016147d0565b9150604084013590509250925092565b60008060408385031215614a0e57600080fd5b50508035926020909101359150565b600060208284031215614a2f57600080fd5b61220c826147d0565b600082601f830112614a4957600080fd5b813567ffffffffffffffff811115614a6357614a63614823565b614a9460207fffffffffffffffffffffffffffffffffffffffffffffffffffffffffffffffe0601f84011601614852565b818152846020838601011115614aa957600080fd5b816020850160208301376000918101602001919091529392505050565b60008060408385031215614ad957600080fd5b823567ffffffffffffffff80821115614af157600080fd5b614afd86838701614a38565b93506020850135915080821115614b1357600080fd5b50614b2085828601614a38565b9150509250929050565b60008060408385031215614b3d57600080fd5b614b46836147d0565b9150602083013567ffffffffffffffff811115614b6257600080fd5b614b2085828601614a38565b60008060408385031215614b8157600080fd5b82359150611c87602084016148de565b80356bffffffffffffffffffffffff811681146147f457600080fd5b600080600060608486031215614bc257600080fd5b83359250614bd2602085016147d0565b9150614be060408501614b91565b90509250925092565b600060208284031215614bfb57600080fd5b813567ffffffffffffffff811115614c1257600080fd5b610d7484828501614a38565b60008060008060808587031215614c3457600080fd5b84359350614c44602086016147d0565b925060408501356149a6816148c5565b60008060408385031215614c6757600080fd5b614c70836147d0565b91506020830135614c80816148c5565b809150509250929050565b60008060008060808587031215614ca157600080fd5b614caa856147d0565b9350614cb8602086016147d0565b925060408501359150606085013567ffffffffffffffff811115614cdb57600080fd5b614ce787828801614a38565b91505092959194509250565b60008060008060808587031215614d0957600080fd5b8435935060208086013567ffffffffffffffff811115614d2857600080fd5b8601601f81018813614d3957600080fd5b8035614d47614944826148a1565b81815260059190911b8201830190838101908a831115614d6657600080fd5b928401925b82841015614d8b57614d7c846147d0565b82529284019290840190614d6b565b80975050505050506149a6604086016148d3565b60008060408385031215614db257600080fd5b614dbb836147d0565b9150611c8760208401614b91565b60008060408385031215614ddc57600080fd5b614de5836147d0565b9150611c87602084016147d0565b600181811c90821680614e0757607f821691505b60208210811415614e41577f4e487b7100000000000000000000000000000000000000000000000000000000600052602260045260246000fd5b50919050565b7f4e487b7100000000000000000000000000000000000000000000000000000000600052603260045260246000fd5b7f4e487b7100000000000000000000000000000000000000000000000000000000600052601160045260246000fd5b60008219821115614eb857614eb8614e76565b500190565b60007fffffffffffffffffffffffffffffffffffffffffffffffffffffffffffffffff821415614eef57614eef614e76565b5060010190565b6000817fffffffffffffffffffffffffffffffffffffffffffffffffffffffffffffffff0483118215151615614f2e57614f2e614e76565b500290565b7f4e487b7100000000000000000000000000000000000000000000000000000000600052601260045260246000fd5b600082614f7157614f71614f33565b500490565b600060208284031215614f8857600080fd5b815161220c816148c5565b8054600090600181811c9080831680614fad57607f831692505b6020808410821415614fe8577f4e487b7100000000000000000000000000000000000000000000000000000000600052602260045260246000fd5b818015614ffc576001811461502b57615058565b7fffffffffffffffffffffffffffffffffffffffffffffffffffffffffffffff00861689528489019650615058565b60008881526020902060005b868110156150505781548b820152908501908301615037565b505084890196505b50505050505092915050565b60006150708285614f93565b835161508081836020880161472e565b01949350505050565b60006150958286614f93565b84516150a581836020890161472e565b7f2f00000000000000000000000000000000000000000000000000000000000000910190815283516150de81600184016020880161472e565b0160010195945050505050565b6000828210156150fd576150fd614e76565b500390565b60006020828403121561511457600080fd5b5051919050565b600067ffffffffffffffff80831681851680830382111561508057615080614e76565b60008261514d5761514d614f33565b500690565b600073ffffffffffffffffffffffffffffffffffffffff808716835280861660208401525083604083015260806060830152615191608083018461475a565b9695505050505050565b6000602082840312156151ad57600080fd5b815161220c816146e3565b600082516151ca81846020870161472e565b9190910192915050565b7f4e487b7100000000000000000000000000000000000000000000000000000000600052603160045260246000fdfe416464726573733a206c6f772d6c6576656c2064656c65676174652063616c6c206661696c6564a264697066735822122078e8fc9e00946e68c15f630e632ed6ff464c4806006071b3e97836a25ed637ba64736f6c634300080c0033","opcodes":"PUSH1 0xA0 PUSH1 0x40 MSTORE ADDRESS PUSH1 0x80 MSTORE CALLVALUE DUP1 ISZERO PUSH3 0x15 JUMPI PUSH1 0x0 DUP1 REVERT JUMPDEST POP PUSH3 0x20 PUSH3 0x26 JUMP JUMPDEST PUSH3 0xE8 JUMP JUMPDEST PUSH1 0x0 SLOAD PUSH2 0x100 SWAP1 DIV PUSH1 0xFF AND ISZERO PUSH3 0x93 JUMPI PUSH1 0x40 MLOAD PUSH3 0x461BCD PUSH1 0xE5 SHL DUP2 MSTORE PUSH1 0x20 PUSH1 0x4 DUP3 ADD MSTORE PUSH1 0x27 PUSH1 0x24 DUP3 ADD MSTORE PUSH32 0x496E697469616C697A61626C653A20636F6E747261637420697320696E697469 PUSH1 0x44 DUP3 ADD MSTORE PUSH7 0x616C697A696E67 PUSH1 0xC8 SHL PUSH1 0x64 DUP3 ADD MSTORE PUSH1 0x84 ADD PUSH1 0x40 MLOAD DUP1 SWAP2 SUB SWAP1 REVERT JUMPDEST PUSH1 0x0 SLOAD PUSH1 0xFF SWAP1 DUP2 AND LT ISZERO PUSH3 0xE6 JUMPI PUSH1 0x0 DUP1 SLOAD PUSH1 0xFF NOT AND PUSH1 0xFF SWAP1 DUP2 OR SWAP1 SWAP2 SSTORE PUSH1 0x40 MLOAD SWAP1 DUP2 MSTORE PUSH32 0x7F26B83FF96E1F2B6A682F133852F6798A09C465DA95921460CEFB3847402498 SWAP1 PUSH1 0x20 ADD PUSH1 0x40 MLOAD DUP1 SWAP2 SUB SWAP1 LOG1 JUMPDEST JUMP JUMPDEST PUSH1 0x80 MLOAD PUSH2 0x5260 PUSH3 0x120 PUSH1 0x0 CODECOPY PUSH1 0x0 DUP2 DUP2 PUSH2 0x114E ADD MSTORE DUP2 DUP2 PUSH2 0x11FE ADD MSTORE DUP2 DUP2 PUSH2 0x16EA ADD MSTORE DUP2 DUP2 PUSH2 0x179A ADD MSTORE PUSH2 0x19FF ADD MSTORE PUSH2 0x5260 PUSH1 0x0 RETURN INVALID PUSH1 0x80 PUSH1 0x40 MSTORE PUSH1 0x4 CALLDATASIZE LT PUSH2 0x334 JUMPI PUSH1 0x0 CALLDATALOAD PUSH1 0xE0 SHR DUP1 PUSH4 0x6352211E GT PUSH2 0x1B0 JUMPI DUP1 PUSH4 0xA0894799 GT PUSH2 0xEC JUMPI DUP1 PUSH4 0xC87B56DD GT PUSH2 0x95 JUMPI DUP1 PUSH4 0xD7A78DB8 GT PUSH2 0x6F JUMPI DUP1 PUSH4 0xD7A78DB8 EQ PUSH2 0x971 JUMPI DUP1 PUSH4 0xE8A3D485 EQ PUSH2 0x991 JUMPI DUP1 PUSH4 0xE985E9C5 EQ PUSH2 0x9A6 JUMPI DUP1 PUSH4 0xF2FDE38B EQ PUSH2 0x9C6 JUMPI PUSH1 0x0 DUP1 REVERT JUMPDEST DUP1 PUSH4 0xC87B56DD EQ PUSH2 0x911 JUMPI DUP1 PUSH4 0xCDE317AF EQ PUSH2 0x931 JUMPI DUP1 PUSH4 0xD691E43C EQ PUSH2 0x951 JUMPI PUSH1 0x0 DUP1 REVERT JUMPDEST DUP1 PUSH4 0xB88D4FDE GT PUSH2 0xC6 JUMPI DUP1 PUSH4 0xB88D4FDE EQ PUSH2 0x8BA JUMPI DUP1 PUSH4 0xBCEB2F84 EQ PUSH2 0x8DA JUMPI DUP1 PUSH4 0xC1292CC3 EQ PUSH2 0x8FA JUMPI PUSH1 0x0 DUP1 REVERT JUMPDEST DUP1 PUSH4 0xA0894799 EQ PUSH2 0x849 JUMPI DUP1 PUSH4 0xA0FD0C6A EQ PUSH2 0x87A JUMPI DUP1 PUSH4 0xA22CB465 EQ PUSH2 0x89A JUMPI PUSH1 0x0 DUP1 REVERT JUMPDEST DUP1 PUSH4 0x78FA0654 GT PUSH2 0x159 JUMPI DUP1 PUSH4 0x8DA5CB5B GT PUSH2 0x133 JUMPI DUP1 PUSH4 0x8DA5CB5B EQ PUSH2 0x7D3 JUMPI DUP1 PUSH4 0x8E45D62E EQ PUSH2 0x7FF JUMPI DUP1 PUSH4 0x95D89B41 EQ PUSH2 0x81F JUMPI DUP1 PUSH4 0x97EC4FBA EQ PUSH2 0x834 JUMPI PUSH1 0x0 DUP1 REVERT JUMPDEST DUP1 PUSH4 0x78FA0654 EQ PUSH2 0x77E JUMPI DUP1 PUSH4 0x7E5B1E24 EQ PUSH2 0x79E JUMPI DUP1 PUSH4 0x8456CB59 EQ PUSH2 0x7BE JUMPI PUSH1 0x0 DUP1 REVERT JUMPDEST DUP1 PUSH4 0x70A08231 GT PUSH2 0x18A JUMPI DUP1 PUSH4 0x70A08231 EQ PUSH2 0x729 JUMPI DUP1 PUSH4 0x715018A6 EQ PUSH2 0x749 JUMPI DUP1 PUSH4 0x776CE868 EQ PUSH2 0x75E JUMPI PUSH1 0x0 DUP1 REVERT JUMPDEST DUP1 PUSH4 0x6352211E EQ PUSH2 0x6B4 JUMPI DUP1 PUSH4 0x6623FC46 EQ PUSH2 0x6D4 JUMPI DUP1 PUSH4 0x67E971CE EQ PUSH2 0x6F4 JUMPI PUSH1 0x0 DUP1 REVERT JUMPDEST DUP1 PUSH4 0x2F745C59 GT PUSH2 0x27F JUMPI DUP1 PUSH4 0x4CD88B76 GT PUSH2 0x228 JUMPI DUP1 PUSH4 0x508061A2 GT PUSH2 0x202 JUMPI DUP1 PUSH4 0x508061A2 EQ PUSH2 0x647 JUMPI DUP1 PUSH4 0x52D1902D EQ PUSH2 0x667 JUMPI DUP1 PUSH4 0x5C975ABB EQ PUSH2 0x67C JUMPI DUP1 PUSH4 0x5F330B41 EQ PUSH2 0x694 JUMPI PUSH1 0x0 DUP1 REVERT JUMPDEST DUP1 PUSH4 0x4CD88B76 EQ PUSH2 0x5F4 JUMPI DUP1 PUSH4 0x4F1EF286 EQ PUSH2 0x614 JUMPI DUP1 PUSH4 0x4F6CCCE7 EQ PUSH2 0x627 JUMPI PUSH1 0x0 DUP1 REVERT JUMPDEST DUP1 PUSH4 0x42842E0E GT PUSH2 0x259 JUMPI DUP1 PUSH4 0x42842E0E EQ PUSH2 0x594 JUMPI DUP1 PUSH4 0x42966C68 EQ PUSH2 0x5B4 JUMPI DUP1 PUSH4 0x493A7576 EQ PUSH2 0x5D4 JUMPI PUSH1 0x0 DUP1 REVERT JUMPDEST DUP1 PUSH4 0x2F745C59 EQ PUSH2 0x53F JUMPI DUP1 PUSH4 0x3659CFE6 EQ PUSH2 0x55F JUMPI DUP1 PUSH4 0x3F4BA83A EQ PUSH2 0x57F JUMPI PUSH1 0x0 DUP1 REVERT JUMPDEST DUP1 PUSH4 0x17C95709 GT PUSH2 0x2E1 JUMPI DUP1 PUSH4 0x21235083 GT PUSH2 0x2BB JUMPI DUP1 PUSH4 0x21235083 EQ PUSH2 0x4B3 JUMPI DUP1 PUSH4 0x23B872DD EQ PUSH2 0x4D3 JUMPI DUP1 PUSH4 0x2A55205A EQ PUSH2 0x4F3 JUMPI PUSH1 0x0 DUP1 REVERT JUMPDEST DUP1 PUSH4 0x17C95709 EQ PUSH2 0x445 JUMPI DUP1 PUSH4 0x18160DDD EQ PUSH2 0x47E JUMPI DUP1 PUSH4 0x1A27E85F EQ PUSH2 0x493 JUMPI PUSH1 0x0 DUP1 REVERT JUMPDEST DUP1 PUSH4 0x95EA7B3 GT PUSH2 0x312 JUMPI DUP1 PUSH4 0x95EA7B3 EQ PUSH2 0x3D5 JUMPI DUP1 PUSH4 0x99BFF12 EQ PUSH2 0x3F7 JUMPI DUP1 PUSH4 0x127A5298 EQ PUSH2 0x417 JUMPI PUSH1 0x0 DUP1 REVERT JUMPDEST DUP1 PUSH4 0x1FFC9A7 EQ PUSH2 0x339 JUMPI DUP1 PUSH4 0x6FDDE03 EQ PUSH2 0x36E JUMPI DUP1 PUSH4 0x81812FC EQ PUSH2 0x390 JUMPI JUMPDEST PUSH1 0x0 DUP1 REVERT JUMPDEST CALLVALUE DUP1 ISZERO PUSH2 0x345 JUMPI PUSH1 0x0 DUP1 REVERT JUMPDEST POP PUSH2 0x359 PUSH2 0x354 CALLDATASIZE PUSH1 0x4 PUSH2 0x4711 JUMP JUMPDEST PUSH2 0x9E6 JUMP JUMPDEST PUSH1 0x40 MLOAD SWAP1 ISZERO ISZERO DUP2 MSTORE PUSH1 0x20 ADD JUMPDEST PUSH1 0x40 MLOAD DUP1 SWAP2 SUB SWAP1 RETURN JUMPDEST CALLVALUE DUP1 ISZERO PUSH2 0x37A JUMPI PUSH1 0x0 DUP1 REVERT JUMPDEST POP PUSH2 0x383 PUSH2 0xA8E JUMP JUMPDEST PUSH1 0x40 MLOAD PUSH2 0x365 SWAP2 SWAP1 PUSH2 0x47A4 JUMP JUMPDEST CALLVALUE DUP1 ISZERO PUSH2 0x39C JUMPI PUSH1 0x0 DUP1 REVERT JUMPDEST POP PUSH2 0x3B0 PUSH2 0x3AB CALLDATASIZE PUSH1 0x4 PUSH2 0x47B7 JUMP JUMPDEST PUSH2 0xB20 JUMP JUMPDEST PUSH1 0x40 MLOAD PUSH20 0xFFFFFFFFFFFFFFFFFFFFFFFFFFFFFFFFFFFFFFFF SWAP1 SWAP2 AND DUP2 MSTORE PUSH1 0x20 ADD PUSH2 0x365 JUMP JUMPDEST CALLVALUE DUP1 ISZERO PUSH2 0x3E1 JUMPI PUSH1 0x0 DUP1 REVERT JUMPDEST POP PUSH2 0x3F5 PUSH2 0x3F0 CALLDATASIZE PUSH1 0x4 PUSH2 0x47F9 JUMP JUMPDEST PUSH2 0xB54 JUMP JUMPDEST STOP JUMPDEST CALLVALUE DUP1 ISZERO PUSH2 0x403 JUMPI PUSH1 0x0 DUP1 REVERT JUMPDEST POP PUSH2 0x359 PUSH2 0x412 CALLDATASIZE PUSH1 0x4 PUSH2 0x48F6 JUMP JUMPDEST PUSH2 0xCE6 JUMP JUMPDEST CALLVALUE DUP1 ISZERO PUSH2 0x423 JUMPI PUSH1 0x0 DUP1 REVERT JUMPDEST POP PUSH2 0x437 PUSH2 0x432 CALLDATASIZE PUSH1 0x4 PUSH2 0x47B7 JUMP JUMPDEST PUSH2 0xD7C JUMP JUMPDEST PUSH1 0x40 MLOAD SWAP1 DUP2 MSTORE PUSH1 0x20 ADD PUSH2 0x365 JUMP JUMPDEST CALLVALUE DUP1 ISZERO PUSH2 0x451 JUMPI PUSH1 0x0 DUP1 REVERT JUMPDEST POP PUSH2 0x465 PUSH2 0x460 CALLDATASIZE PUSH1 0x4 PUSH2 0x47B7 JUMP JUMPDEST PUSH2 0xD9B JUMP JUMPDEST PUSH1 0x40 MLOAD PUSH8 0xFFFFFFFFFFFFFFFF SWAP1 SWAP2 AND DUP2 MSTORE PUSH1 0x20 ADD PUSH2 0x365 JUMP JUMPDEST CALLVALUE DUP1 ISZERO PUSH2 0x48A JUMPI PUSH1 0x0 DUP1 REVERT JUMPDEST POP PUSH1 0x99 SLOAD PUSH2 0x437 JUMP JUMPDEST CALLVALUE DUP1 ISZERO PUSH2 0x49F JUMPI PUSH1 0x0 DUP1 REVERT JUMPDEST POP PUSH2 0x3F5 PUSH2 0x4AE CALLDATASIZE PUSH1 0x4 PUSH2 0x47B7 JUMP JUMPDEST PUSH2 0xDC4 JUMP JUMPDEST CALLVALUE DUP1 ISZERO PUSH2 0x4BF JUMPI PUSH1 0x0 DUP1 REVERT JUMPDEST POP PUSH2 0x3F5 PUSH2 0x4CE CALLDATASIZE PUSH1 0x4 PUSH2 0x47B7 JUMP JUMPDEST PUSH2 0xE46 JUMP JUMPDEST CALLVALUE DUP1 ISZERO PUSH2 0x4DF JUMPI PUSH1 0x0 DUP1 REVERT JUMPDEST POP PUSH2 0x3F5 PUSH2 0x4EE CALLDATASIZE PUSH1 0x4 PUSH2 0x49BF JUMP JUMPDEST PUSH2 0xEBA JUMP JUMPDEST CALLVALUE DUP1 ISZERO PUSH2 0x4FF JUMPI PUSH1 0x0 DUP1 REVERT JUMPDEST POP PUSH2 0x513 PUSH2 0x50E CALLDATASIZE PUSH1 0x4 PUSH2 0x49FB JUMP JUMPDEST PUSH2 0xF5C JUMP JUMPDEST PUSH1 0x40 DUP1 MLOAD PUSH20 0xFFFFFFFFFFFFFFFFFFFFFFFFFFFFFFFFFFFFFFFF SWAP1 SWAP4 AND DUP4 MSTORE PUSH1 0x20 DUP4 ADD SWAP2 SWAP1 SWAP2 MSTORE ADD PUSH2 0x365 JUMP JUMPDEST CALLVALUE DUP1 ISZERO PUSH2 0x54B JUMPI PUSH1 0x0 DUP1 REVERT JUMPDEST POP PUSH2 0x437 PUSH2 0x55A CALLDATASIZE PUSH1 0x4 PUSH2 0x47F9 JUMP JUMPDEST PUSH2 0x1067 JUMP JUMPDEST CALLVALUE DUP1 ISZERO PUSH2 0x56B JUMPI PUSH1 0x0 DUP1 REVERT JUMPDEST POP PUSH2 0x3F5 PUSH2 0x57A CALLDATASIZE PUSH1 0x4 PUSH2 0x4A1D JUMP JUMPDEST PUSH2 0x1136 JUMP JUMPDEST CALLVALUE DUP1 ISZERO PUSH2 0x58B JUMPI PUSH1 0x0 DUP1 REVERT JUMPDEST POP PUSH2 0x3F5 PUSH2 0x133C JUMP JUMPDEST CALLVALUE DUP1 ISZERO PUSH2 0x5A0 JUMPI PUSH1 0x0 DUP1 REVERT JUMPDEST POP PUSH2 0x3F5 PUSH2 0x5AF CALLDATASIZE PUSH1 0x4 PUSH2 0x49BF JUMP JUMPDEST PUSH2 0x134E JUMP JUMPDEST CALLVALUE DUP1 ISZERO PUSH2 0x5C0 JUMPI PUSH1 0x0 DUP1 REVERT JUMPDEST POP PUSH2 0x3F5 PUSH2 0x5CF CALLDATASIZE PUSH1 0x4 PUSH2 0x47B7 JUMP JUMPDEST PUSH2 0x1369 JUMP JUMPDEST CALLVALUE DUP1 ISZERO PUSH2 0x5E0 JUMPI PUSH1 0x0 DUP1 REVERT JUMPDEST POP PUSH2 0x3F5 PUSH2 0x5EF CALLDATASIZE PUSH1 0x4 PUSH2 0x47B7 JUMP JUMPDEST PUSH2 0x1407 JUMP JUMPDEST CALLVALUE DUP1 ISZERO PUSH2 0x600 JUMPI PUSH1 0x0 DUP1 REVERT JUMPDEST POP PUSH2 0x3F5 PUSH2 0x60F CALLDATASIZE PUSH1 0x4 PUSH2 0x4AC6 JUMP JUMPDEST PUSH2 0x1515 JUMP JUMPDEST PUSH2 0x3F5 PUSH2 0x622 CALLDATASIZE PUSH1 0x4 PUSH2 0x4B2A JUMP JUMPDEST PUSH2 0x16D2 JUMP JUMPDEST CALLVALUE DUP1 ISZERO PUSH2 0x633 JUMPI PUSH1 0x0 DUP1 REVERT JUMPDEST POP PUSH2 0x437 PUSH2 0x642 CALLDATASIZE PUSH1 0x4 PUSH2 0x47B7 JUMP JUMPDEST PUSH2 0x18C9 JUMP JUMPDEST CALLVALUE DUP1 ISZERO PUSH2 0x653 JUMPI PUSH1 0x0 DUP1 REVERT JUMPDEST POP PUSH2 0x3F5 PUSH2 0x662 CALLDATASIZE PUSH1 0x4 PUSH2 0x47B7 JUMP JUMPDEST PUSH2 0x1987 JUMP JUMPDEST CALLVALUE DUP1 ISZERO PUSH2 0x673 JUMPI PUSH1 0x0 DUP1 REVERT JUMPDEST POP PUSH2 0x437 PUSH2 0x19E5 JUMP JUMPDEST CALLVALUE DUP1 ISZERO PUSH2 0x688 JUMPI PUSH1 0x0 DUP1 REVERT JUMPDEST POP PUSH1 0xFB SLOAD PUSH1 0xFF AND PUSH2 0x359 JUMP JUMPDEST CALLVALUE DUP1 ISZERO PUSH2 0x6A0 JUMPI PUSH1 0x0 DUP1 REVERT JUMPDEST POP PUSH2 0x3F5 PUSH2 0x6AF CALLDATASIZE PUSH1 0x4 PUSH2 0x47B7 JUMP JUMPDEST PUSH2 0x1AD1 JUMP JUMPDEST CALLVALUE DUP1 ISZERO PUSH2 0x6C0 JUMPI PUSH1 0x0 DUP1 REVERT JUMPDEST POP PUSH2 0x3B0 PUSH2 0x6CF CALLDATASIZE PUSH1 0x4 PUSH2 0x47B7 JUMP JUMPDEST PUSH2 0x1AEB JUMP JUMPDEST CALLVALUE DUP1 ISZERO PUSH2 0x6E0 JUMPI PUSH1 0x0 DUP1 REVERT JUMPDEST POP PUSH2 0x3F5 PUSH2 0x6EF CALLDATASIZE PUSH1 0x4 PUSH2 0x47B7 JUMP JUMPDEST PUSH2 0x1B77 JUMP JUMPDEST CALLVALUE DUP1 ISZERO PUSH2 0x700 JUMPI PUSH1 0x0 DUP1 REVERT JUMPDEST POP PUSH2 0x714 PUSH2 0x70F CALLDATASIZE PUSH1 0x4 PUSH2 0x47F9 JUMP JUMPDEST PUSH2 0x1C6F JUMP JUMPDEST PUSH1 0x40 DUP1 MLOAD SWAP3 DUP4 MSTORE PUSH1 0x20 DUP4 ADD SWAP2 SWAP1 SWAP2 MSTORE ADD PUSH2 0x365 JUMP JUMPDEST CALLVALUE DUP1 ISZERO PUSH2 0x735 JUMPI PUSH1 0x0 DUP1 REVERT JUMPDEST POP PUSH2 0x437 PUSH2 0x744 CALLDATASIZE PUSH1 0x4 PUSH2 0x4A1D JUMP JUMPDEST PUSH2 0x1C90 JUMP JUMPDEST CALLVALUE DUP1 ISZERO PUSH2 0x755 JUMPI PUSH1 0x0 DUP1 REVERT JUMPDEST POP PUSH2 0x3F5 PUSH2 0x1D5E JUMP JUMPDEST CALLVALUE DUP1 ISZERO PUSH2 0x76A JUMPI PUSH1 0x0 DUP1 REVERT JUMPDEST POP PUSH2 0x3F5 PUSH2 0x779 CALLDATASIZE PUSH1 0x4 PUSH2 0x4B6E JUMP JUMPDEST PUSH2 0x1D70 JUMP JUMPDEST CALLVALUE DUP1 ISZERO PUSH2 0x78A JUMPI PUSH1 0x0 DUP1 REVERT JUMPDEST POP PUSH2 0x3F5 PUSH2 0x799 CALLDATASIZE PUSH1 0x4 PUSH2 0x4BAD JUMP JUMPDEST PUSH2 0x1D8B JUMP JUMPDEST CALLVALUE DUP1 ISZERO PUSH2 0x7AA JUMPI PUSH1 0x0 DUP1 REVERT JUMPDEST POP PUSH2 0x3F5 PUSH2 0x7B9 CALLDATASIZE PUSH1 0x4 PUSH2 0x4BE9 JUMP JUMPDEST PUSH2 0x1D9E JUMP JUMPDEST CALLVALUE DUP1 ISZERO PUSH2 0x7CA JUMPI PUSH1 0x0 DUP1 REVERT JUMPDEST POP PUSH2 0x3F5 PUSH2 0x1DBA JUMP JUMPDEST CALLVALUE DUP1 ISZERO PUSH2 0x7DF JUMPI PUSH1 0x0 DUP1 REVERT JUMPDEST POP PUSH2 0x12D SLOAD PUSH20 0xFFFFFFFFFFFFFFFFFFFFFFFFFFFFFFFFFFFFFFFF AND PUSH2 0x3B0 JUMP JUMPDEST CALLVALUE DUP1 ISZERO PUSH2 0x80B JUMPI PUSH1 0x0 DUP1 REVERT JUMPDEST POP PUSH2 0x359 PUSH2 0x81A CALLDATASIZE PUSH1 0x4 PUSH2 0x4C1E JUMP JUMPDEST PUSH2 0x1DCA JUMP JUMPDEST CALLVALUE DUP1 ISZERO PUSH2 0x82B JUMPI PUSH1 0x0 DUP1 REVERT JUMPDEST POP PUSH2 0x383 PUSH2 0x1E10 JUMP JUMPDEST CALLVALUE DUP1 ISZERO PUSH2 0x840 JUMPI PUSH1 0x0 DUP1 REVERT JUMPDEST POP PUSH2 0x3F5 PUSH2 0x1E1F JUMP JUMPDEST CALLVALUE DUP1 ISZERO PUSH2 0x855 JUMPI PUSH1 0x0 DUP1 REVERT JUMPDEST POP PUSH2 0x359 PUSH2 0x864 CALLDATASIZE PUSH1 0x4 PUSH2 0x47B7 JUMP JUMPDEST PUSH1 0x0 SWAP1 DUP2 MSTORE PUSH2 0x1C6 PUSH1 0x20 MSTORE PUSH1 0x40 SWAP1 KECCAK256 SLOAD PUSH1 0xFF AND SWAP1 JUMP JUMPDEST CALLVALUE DUP1 ISZERO PUSH2 0x886 JUMPI PUSH1 0x0 DUP1 REVERT JUMPDEST POP PUSH2 0x383 PUSH2 0x895 CALLDATASIZE PUSH1 0x4 PUSH2 0x47B7 JUMP JUMPDEST PUSH2 0x1E32 JUMP JUMPDEST CALLVALUE DUP1 ISZERO PUSH2 0x8A6 JUMPI PUSH1 0x0 DUP1 REVERT JUMPDEST POP PUSH2 0x3F5 PUSH2 0x8B5 CALLDATASIZE PUSH1 0x4 PUSH2 0x4C54 JUMP JUMPDEST PUSH2 0x1E67 JUMP JUMPDEST CALLVALUE DUP1 ISZERO PUSH2 0x8C6 JUMPI PUSH1 0x0 DUP1 REVERT JUMPDEST POP PUSH2 0x3F5 PUSH2 0x8D5 CALLDATASIZE PUSH1 0x4 PUSH2 0x4C8B JUMP JUMPDEST PUSH2 0x1E72 JUMP JUMPDEST CALLVALUE DUP1 ISZERO PUSH2 0x8E6 JUMPI PUSH1 0x0 DUP1 REVERT JUMPDEST POP PUSH2 0x359 PUSH2 0x8F5 CALLDATASIZE PUSH1 0x4 PUSH2 0x4CF3 JUMP JUMPDEST PUSH2 0x1F1A JUMP JUMPDEST CALLVALUE DUP1 ISZERO PUSH2 0x906 JUMPI PUSH1 0x0 DUP1 REVERT JUMPDEST POP PUSH2 0x437 PUSH2 0x1C4 SLOAD DUP2 JUMP JUMPDEST CALLVALUE DUP1 ISZERO PUSH2 0x91D JUMPI PUSH1 0x0 DUP1 REVERT JUMPDEST POP PUSH2 0x383 PUSH2 0x92C CALLDATASIZE PUSH1 0x4 PUSH2 0x47B7 JUMP JUMPDEST PUSH2 0x1F9E JUMP JUMPDEST CALLVALUE DUP1 ISZERO PUSH2 0x93D JUMPI PUSH1 0x0 DUP1 REVERT JUMPDEST POP PUSH2 0x359 PUSH2 0x94C CALLDATASIZE PUSH1 0x4 PUSH2 0x47B7 JUMP JUMPDEST PUSH2 0x1FEF JUMP JUMPDEST CALLVALUE DUP1 ISZERO PUSH2 0x95D JUMPI PUSH1 0x0 DUP1 REVERT JUMPDEST POP PUSH2 0x3F5 PUSH2 0x96C CALLDATASIZE PUSH1 0x4 PUSH2 0x4D9F JUMP JUMPDEST PUSH2 0x2002 JUMP JUMPDEST CALLVALUE DUP1 ISZERO PUSH2 0x97D JUMPI PUSH1 0x0 DUP1 REVERT JUMPDEST POP PUSH2 0x3F5 PUSH2 0x98C CALLDATASIZE PUSH1 0x4 PUSH2 0x47B7 JUMP JUMPDEST PUSH2 0x2014 JUMP JUMPDEST CALLVALUE DUP1 ISZERO PUSH2 0x99D JUMPI PUSH1 0x0 DUP1 REVERT JUMPDEST POP PUSH2 0x383 PUSH2 0x210F JUMP JUMPDEST CALLVALUE DUP1 ISZERO PUSH2 0x9B2 JUMPI PUSH1 0x0 DUP1 REVERT JUMPDEST POP PUSH2 0x359 PUSH2 0x9C1 CALLDATASIZE PUSH1 0x4 PUSH2 0x4DC9 JUMP JUMPDEST PUSH2 0x219E JUMP JUMPDEST CALLVALUE DUP1 ISZERO PUSH2 0x9D2 JUMPI PUSH1 0x0 DUP1 REVERT JUMPDEST POP PUSH2 0x3F5 PUSH2 0x9E1 CALLDATASIZE PUSH1 0x4 PUSH2 0x4A1D JUMP JUMPDEST PUSH2 0x2213 JUMP JUMPDEST PUSH1 0x0 PUSH32 0xFFFFFFFF00000000000000000000000000000000000000000000000000000000 DUP3 AND PUSH32 0x8C65F84D00000000000000000000000000000000000000000000000000000000 EQ DUP1 PUSH2 0xA79 JUMPI POP PUSH32 0xFFFFFFFF00000000000000000000000000000000000000000000000000000000 DUP3 AND PUSH32 0x2A55205A00000000000000000000000000000000000000000000000000000000 EQ JUMPDEST DUP1 PUSH2 0xA88 JUMPI POP PUSH2 0xA88 DUP3 PUSH2 0x22C7 JUMP JUMPDEST SWAP3 SWAP2 POP POP JUMP JUMPDEST PUSH1 0x60 PUSH1 0x65 DUP1 SLOAD PUSH2 0xA9D SWAP1 PUSH2 0x4DF3 JUMP JUMPDEST DUP1 PUSH1 0x1F ADD PUSH1 0x20 DUP1 SWAP2 DIV MUL PUSH1 0x20 ADD PUSH1 0x40 MLOAD SWAP1 DUP2 ADD PUSH1 0x40 MSTORE DUP1 SWAP3 SWAP2 SWAP1 DUP2 DUP2 MSTORE PUSH1 0x20 ADD DUP3 DUP1 SLOAD PUSH2 0xAC9 SWAP1 PUSH2 0x4DF3 JUMP JUMPDEST DUP1 ISZERO PUSH2 0xB16 JUMPI DUP1 PUSH1 0x1F LT PUSH2 0xAEB JUMPI PUSH2 0x100 DUP1 DUP4 SLOAD DIV MUL DUP4 MSTORE SWAP2 PUSH1 0x20 ADD SWAP2 PUSH2 0xB16 JUMP JUMPDEST DUP3 ADD SWAP2 SWAP1 PUSH1 0x0 MSTORE PUSH1 0x20 PUSH1 0x0 KECCAK256 SWAP1 JUMPDEST DUP2 SLOAD DUP2 MSTORE SWAP1 PUSH1 0x1 ADD SWAP1 PUSH1 0x20 ADD DUP1 DUP4 GT PUSH2 0xAF9 JUMPI DUP3 SWAP1 SUB PUSH1 0x1F AND DUP3 ADD SWAP2 JUMPDEST POP POP POP POP POP SWAP1 POP SWAP1 JUMP JUMPDEST PUSH1 0x0 PUSH2 0xB2B DUP3 PUSH2 0x231D JUMP JUMPDEST POP PUSH1 0x0 SWAP1 DUP2 MSTORE PUSH1 0x69 PUSH1 0x20 MSTORE PUSH1 0x40 SWAP1 KECCAK256 SLOAD PUSH20 0xFFFFFFFFFFFFFFFFFFFFFFFFFFFFFFFFFFFFFFFF AND SWAP1 JUMP JUMPDEST PUSH1 0x0 PUSH2 0xB5F DUP3 PUSH2 0x1AEB JUMP JUMPDEST SWAP1 POP DUP1 PUSH20 0xFFFFFFFFFFFFFFFFFFFFFFFFFFFFFFFFFFFFFFFF AND DUP4 PUSH20 0xFFFFFFFFFFFFFFFFFFFFFFFFFFFFFFFFFFFFFFFF AND EQ ISZERO PUSH2 0xC22 JUMPI PUSH1 0x40 MLOAD PUSH32 0x8C379A000000000000000000000000000000000000000000000000000000000 DUP2 MSTORE PUSH1 0x20 PUSH1 0x4 DUP3 ADD MSTORE PUSH1 0x21 PUSH1 0x24 DUP3 ADD MSTORE PUSH32 0x4552433732313A20617070726F76616C20746F2063757272656E74206F776E65 PUSH1 0x44 DUP3 ADD MSTORE PUSH32 0x7200000000000000000000000000000000000000000000000000000000000000 PUSH1 0x64 DUP3 ADD MSTORE PUSH1 0x84 ADD JUMPDEST PUSH1 0x40 MLOAD DUP1 SWAP2 SUB SWAP1 REVERT JUMPDEST CALLER PUSH20 0xFFFFFFFFFFFFFFFFFFFFFFFFFFFFFFFFFFFFFFFF DUP3 AND EQ DUP1 PUSH2 0xC4B JUMPI POP PUSH2 0xC4B DUP2 CALLER PUSH2 0x219E JUMP JUMPDEST PUSH2 0xCD7 JUMPI PUSH1 0x40 MLOAD PUSH32 0x8C379A000000000000000000000000000000000000000000000000000000000 DUP2 MSTORE PUSH1 0x20 PUSH1 0x4 DUP3 ADD MSTORE PUSH1 0x3E PUSH1 0x24 DUP3 ADD MSTORE PUSH32 0x4552433732313A20617070726F76652063616C6C6572206973206E6F7420746F PUSH1 0x44 DUP3 ADD MSTORE PUSH32 0x6B656E206F776E6572206E6F7220617070726F76656420666F7220616C6C0000 PUSH1 0x64 DUP3 ADD MSTORE PUSH1 0x84 ADD PUSH2 0xC19 JUMP JUMPDEST PUSH2 0xCE1 DUP4 DUP4 PUSH2 0x23A8 JUMP JUMPDEST POP POP POP JUMP JUMPDEST PUSH1 0x0 PUSH2 0xCF0 PUSH2 0x2448 JUMP JUMPDEST PUSH2 0xCF8 PUSH2 0x24B5 JUMP JUMPDEST PUSH1 0x0 JUMPDEST DUP6 MLOAD DUP2 LT ISZERO PUSH2 0xD55 JUMPI PUSH2 0xD44 DUP7 DUP3 DUP2 MLOAD DUP2 LT PUSH2 0xD19 JUMPI PUSH2 0xD19 PUSH2 0x4E47 JUMP JUMPDEST PUSH1 0x20 MUL PUSH1 0x20 ADD ADD MLOAD DUP3 PUSH2 0x1C4 SLOAD PUSH1 0x1 PUSH2 0xD32 SWAP2 SWAP1 PUSH2 0x4EA5 JUMP JUMPDEST PUSH2 0xD3C SWAP2 SWAP1 PUSH2 0x4EA5 JUMP JUMPDEST DUP8 DUP8 DUP8 PUSH2 0x2537 JUMP JUMPDEST POP PUSH2 0xD4E DUP2 PUSH2 0x4EBD JUMP JUMPDEST SWAP1 POP PUSH2 0xCFB JUMP JUMPDEST POP DUP5 MLOAD PUSH2 0x1C4 PUSH1 0x0 DUP3 DUP3 SLOAD PUSH2 0xD6A SWAP2 SWAP1 PUSH2 0x4EA5 JUMP JUMPDEST SWAP1 SWAP2 SSTORE POP PUSH1 0x1 SWAP2 POP POP JUMPDEST SWAP5 SWAP4 POP POP POP POP JUMP JUMPDEST PUSH1 0x0 PUSH2 0xD87 DUP3 PUSH2 0x231D JUMP JUMPDEST POP PUSH1 0x0 SWAP1 DUP2 MSTORE PUSH2 0x1C5 PUSH1 0x20 MSTORE PUSH1 0x40 SWAP1 KECCAK256 SLOAD SWAP1 JUMP JUMPDEST PUSH1 0x0 PUSH2 0xDA6 DUP3 PUSH2 0x231D JUMP JUMPDEST POP PUSH1 0x0 SWAP1 DUP2 MSTORE PUSH2 0x1C9 PUSH1 0x20 MSTORE PUSH1 0x40 SWAP1 KECCAK256 SLOAD PUSH8 0xFFFFFFFFFFFFFFFF AND SWAP1 JUMP JUMPDEST PUSH2 0xDCC PUSH2 0x24B5 JUMP JUMPDEST PUSH2 0xDD4 PUSH2 0x2448 JUMP JUMPDEST DUP1 PUSH2 0x1C4 SLOAD LT PUSH2 0xE40 JUMPI PUSH1 0x40 MLOAD PUSH32 0x8C379A000000000000000000000000000000000000000000000000000000000 DUP2 MSTORE PUSH1 0x20 PUSH1 0x4 DUP3 ADD MSTORE PUSH1 0x17 PUSH1 0x24 DUP3 ADD MSTORE PUSH32 0x4E65772049642068617320746F20626520686967686572000000000000000000 PUSH1 0x44 DUP3 ADD MSTORE PUSH1 0x64 ADD PUSH2 0xC19 JUMP JUMPDEST PUSH2 0x1C4 SSTORE JUMP JUMPDEST PUSH2 0xE4E PUSH2 0x24B5 JUMP JUMPDEST PUSH1 0x0 DUP2 DUP2 MSTORE PUSH2 0x1C9 PUSH1 0x20 SWAP1 DUP2 MSTORE PUSH1 0x40 DUP1 DUP4 KECCAK256 DUP1 SLOAD PUSH32 0xFFFFFFFFFFFFFFFFFFFFFFFFFFFFFFFFFFFFFFFFFFFFFFFF0000000000000000 AND SWAP1 SSTORE MLOAD SWAP2 DUP3 MSTORE DUP3 SWAP2 PUSH32 0x2EC2BE2C4B90C2CF13ECB6751A24DAED6BB741AE5ED3F7371AABF9402F6D62E8 SWAP2 ADD PUSH1 0x40 MLOAD DUP1 SWAP2 SUB SWAP1 LOG2 POP JUMP JUMPDEST PUSH2 0xEC5 CALLER JUMPDEST DUP3 PUSH2 0x25E5 JUMP JUMPDEST PUSH2 0xF51 JUMPI PUSH1 0x40 MLOAD PUSH32 0x8C379A000000000000000000000000000000000000000000000000000000000 DUP2 MSTORE PUSH1 0x20 PUSH1 0x4 DUP3 ADD MSTORE PUSH1 0x2E PUSH1 0x24 DUP3 ADD MSTORE PUSH32 0x4552433732313A2063616C6C6572206973206E6F7420746F6B656E206F776E65 PUSH1 0x44 DUP3 ADD MSTORE PUSH32 0x72206E6F7220617070726F766564000000000000000000000000000000000000 PUSH1 0x64 DUP3 ADD MSTORE PUSH1 0x84 ADD PUSH2 0xC19 JUMP JUMPDEST PUSH2 0xCE1 DUP4 DUP4 DUP4 PUSH2 0x2677 JUMP JUMPDEST PUSH1 0x0 DUP1 PUSH1 0x0 PUSH2 0xF6A DUP6 PUSH2 0xD7C JUMP JUMPDEST PUSH1 0x0 DUP2 DUP2 MSTORE PUSH2 0x1C8 PUSH1 0x20 SWAP1 DUP2 MSTORE PUSH1 0x40 SWAP2 DUP3 SWAP1 KECCAK256 DUP3 MLOAD DUP1 DUP5 ADD SWAP1 SWAP4 MSTORE SLOAD PUSH20 0xFFFFFFFFFFFFFFFFFFFFFFFFFFFFFFFFFFFFFFFF DUP2 AND DUP1 DUP5 MSTORE PUSH21 0x10000000000000000000000000000000000000000 SWAP1 SWAP2 DIV PUSH12 0xFFFFFFFFFFFFFFFFFFFFFFFF AND SWAP2 DUP4 ADD SWAP2 SWAP1 SWAP2 MSTORE SWAP2 SWAP3 POP SWAP1 PUSH2 0x102A JUMPI POP PUSH1 0x40 DUP1 MLOAD DUP1 DUP3 ADD SWAP1 SWAP2 MSTORE PUSH2 0x1C7 SLOAD PUSH20 0xFFFFFFFFFFFFFFFFFFFFFFFFFFFFFFFFFFFFFFFF DUP2 AND DUP3 MSTORE PUSH21 0x10000000000000000000000000000000000000000 SWAP1 DIV PUSH12 0xFFFFFFFFFFFFFFFFFFFFFFFF AND PUSH1 0x20 DUP3 ADD MSTORE JUMPDEST PUSH1 0x20 DUP2 ADD MLOAD PUSH1 0x0 SWAP1 PUSH2 0x2710 SWAP1 PUSH2 0x104E SWAP1 PUSH12 0xFFFFFFFFFFFFFFFFFFFFFFFF AND DUP9 PUSH2 0x4EF6 JUMP JUMPDEST PUSH2 0x1058 SWAP2 SWAP1 PUSH2 0x4F62 JUMP JUMPDEST SWAP2 MLOAD SWAP8 SWAP2 SWAP7 POP SWAP1 SWAP5 POP POP POP POP POP JUMP JUMPDEST PUSH1 0x0 PUSH2 0x1072 DUP4 PUSH2 0x1C90 JUMP JUMPDEST DUP3 LT PUSH2 0x1100 JUMPI PUSH1 0x40 MLOAD PUSH32 0x8C379A000000000000000000000000000000000000000000000000000000000 DUP2 MSTORE PUSH1 0x20 PUSH1 0x4 DUP3 ADD MSTORE PUSH1 0x2B PUSH1 0x24 DUP3 ADD MSTORE PUSH32 0x455243373231456E756D657261626C653A206F776E657220696E646578206F75 PUSH1 0x44 DUP3 ADD MSTORE PUSH32 0x74206F6620626F756E6473000000000000000000000000000000000000000000 PUSH1 0x64 DUP3 ADD MSTORE PUSH1 0x84 ADD PUSH2 0xC19 JUMP JUMPDEST POP PUSH20 0xFFFFFFFFFFFFFFFFFFFFFFFFFFFFFFFFFFFFFFFF SWAP2 SWAP1 SWAP2 AND PUSH1 0x0 SWAP1 DUP2 MSTORE PUSH1 0x97 PUSH1 0x20 SWAP1 DUP2 MSTORE PUSH1 0x40 DUP1 DUP4 KECCAK256 SWAP4 DUP4 MSTORE SWAP3 SWAP1 MSTORE KECCAK256 SLOAD SWAP1 JUMP JUMPDEST ADDRESS PUSH20 0xFFFFFFFFFFFFFFFFFFFFFFFFFFFFFFFFFFFFFFFF PUSH32 0x0 AND EQ ISZERO PUSH2 0x11FC JUMPI PUSH1 0x40 MLOAD PUSH32 0x8C379A000000000000000000000000000000000000000000000000000000000 DUP2 MSTORE PUSH1 0x20 PUSH1 0x4 DUP3 ADD MSTORE PUSH1 0x2C PUSH1 0x24 DUP3 ADD MSTORE PUSH32 0x46756E6374696F6E206D7573742062652063616C6C6564207468726F75676820 PUSH1 0x44 DUP3 ADD MSTORE PUSH32 0x64656C656761746563616C6C0000000000000000000000000000000000000000 PUSH1 0x64 DUP3 ADD MSTORE PUSH1 0x84 ADD PUSH2 0xC19 JUMP JUMPDEST PUSH32 0x0 PUSH20 0xFFFFFFFFFFFFFFFFFFFFFFFFFFFFFFFFFFFFFFFF AND PUSH2 0x1271 PUSH32 0x360894A13BA1A3210667C828492DB98DCA3E2076CC3735A920A3CA505D382BBC SLOAD PUSH20 0xFFFFFFFFFFFFFFFFFFFFFFFFFFFFFFFFFFFFFFFF AND SWAP1 JUMP JUMPDEST PUSH20 0xFFFFFFFFFFFFFFFFFFFFFFFFFFFFFFFFFFFFFFFF AND EQ PUSH2 0x1314 JUMPI PUSH1 0x40 MLOAD PUSH32 0x8C379A000000000000000000000000000000000000000000000000000000000 DUP2 MSTORE PUSH1 0x20 PUSH1 0x4 DUP3 ADD MSTORE PUSH1 0x2C PUSH1 0x24 DUP3 ADD MSTORE PUSH32 0x46756E6374696F6E206D7573742062652063616C6C6564207468726F75676820 PUSH1 0x44 DUP3 ADD MSTORE PUSH32 0x6163746976652070726F78790000000000000000000000000000000000000000 PUSH1 0x64 DUP3 ADD MSTORE PUSH1 0x84 ADD PUSH2 0xC19 JUMP JUMPDEST PUSH2 0x131D DUP2 PUSH2 0x28E9 JUMP JUMPDEST PUSH1 0x40 DUP1 MLOAD PUSH1 0x0 DUP1 DUP3 MSTORE PUSH1 0x20 DUP3 ADD SWAP1 SWAP3 MSTORE PUSH2 0x1339 SWAP2 DUP4 SWAP2 SWAP1 PUSH2 0x28F1 JUMP JUMPDEST POP JUMP JUMPDEST PUSH2 0x1344 PUSH2 0x24B5 JUMP JUMPDEST PUSH2 0x134C PUSH2 0x2AF0 JUMP JUMPDEST JUMP JUMPDEST PUSH2 0xCE1 DUP4 DUP4 DUP4 PUSH1 0x40 MLOAD DUP1 PUSH1 0x20 ADD PUSH1 0x40 MSTORE DUP1 PUSH1 0x0 DUP2 MSTORE POP PUSH2 0x1E72 JUMP JUMPDEST PUSH2 0x1372 CALLER PUSH2 0xEBF JUMP JUMPDEST PUSH2 0x13FE JUMPI PUSH1 0x40 MLOAD PUSH32 0x8C379A000000000000000000000000000000000000000000000000000000000 DUP2 MSTORE PUSH1 0x20 PUSH1 0x4 DUP3 ADD MSTORE PUSH1 0x2E PUSH1 0x24 DUP3 ADD MSTORE PUSH32 0x4552433732313A2063616C6C6572206973206E6F7420746F6B656E206F776E65 PUSH1 0x44 DUP3 ADD MSTORE PUSH32 0x72206E6F7220617070726F766564000000000000000000000000000000000000 PUSH1 0x64 DUP3 ADD MSTORE PUSH1 0x84 ADD PUSH2 0xC19 JUMP JUMPDEST PUSH2 0x1339 DUP2 PUSH2 0x2B6D JUMP JUMPDEST PUSH2 0x140F PUSH2 0x24B5 JUMP JUMPDEST PUSH1 0x0 DUP2 DUP2 MSTORE PUSH2 0x1C9 PUSH1 0x20 MSTORE PUSH1 0x40 SWAP1 KECCAK256 SLOAD TIMESTAMP SWAP1 PUSH8 0xFFFFFFFFFFFFFFFF DUP1 DUP4 AND SWAP2 AND LT ISZERO PUSH2 0x1497 JUMPI PUSH1 0x40 MLOAD PUSH32 0x8C379A000000000000000000000000000000000000000000000000000000000 DUP2 MSTORE PUSH1 0x20 PUSH1 0x4 DUP3 ADD MSTORE PUSH1 0x1F PUSH1 0x24 DUP3 ADD MSTORE PUSH32 0x546F6B656E2063616E6E6F7420616C7265616479206265206578706972656400 PUSH1 0x44 DUP3 ADD MSTORE PUSH1 0x64 ADD PUSH2 0xC19 JUMP JUMPDEST PUSH1 0x0 DUP3 DUP2 MSTORE PUSH2 0x1C9 PUSH1 0x20 SWAP1 DUP2 MSTORE PUSH1 0x40 SWAP2 DUP3 SWAP1 KECCAK256 DUP1 SLOAD PUSH32 0xFFFFFFFFFFFFFFFFFFFFFFFFFFFFFFFFFFFFFFFFFFFFFFFF0000000000000000 AND PUSH8 0xFFFFFFFFFFFFFFFF DUP6 AND SWAP1 DUP2 OR SWAP1 SWAP2 SSTORE SWAP2 MLOAD SWAP2 DUP3 MSTORE DUP4 SWAP2 PUSH32 0x2EC2BE2C4B90C2CF13ECB6751A24DAED6BB741AE5ED3F7371AABF9402F6D62E8 SWAP2 ADD PUSH1 0x40 MLOAD DUP1 SWAP2 SUB SWAP1 LOG2 POP POP JUMP JUMPDEST PUSH1 0x0 SLOAD PUSH2 0x100 SWAP1 DIV PUSH1 0xFF AND ISZERO DUP1 DUP1 ISZERO PUSH2 0x1535 JUMPI POP PUSH1 0x0 SLOAD PUSH1 0x1 PUSH1 0xFF SWAP1 SWAP2 AND LT JUMPDEST DUP1 PUSH2 0x154F JUMPI POP ADDRESS EXTCODESIZE ISZERO DUP1 ISZERO PUSH2 0x154F JUMPI POP PUSH1 0x0 SLOAD PUSH1 0xFF AND PUSH1 0x1 EQ JUMPDEST PUSH2 0x15DB JUMPI PUSH1 0x40 MLOAD PUSH32 0x8C379A000000000000000000000000000000000000000000000000000000000 DUP2 MSTORE PUSH1 0x20 PUSH1 0x4 DUP3 ADD MSTORE PUSH1 0x2E PUSH1 0x24 DUP3 ADD MSTORE PUSH32 0x496E697469616C697A61626C653A20636F6E747261637420697320616C726561 PUSH1 0x44 DUP3 ADD MSTORE PUSH32 0x647920696E697469616C697A6564000000000000000000000000000000000000 PUSH1 0x64 DUP3 ADD MSTORE PUSH1 0x84 ADD PUSH2 0xC19 JUMP JUMPDEST PUSH1 0x0 DUP1 SLOAD PUSH32 0xFFFFFFFFFFFFFFFFFFFFFFFFFFFFFFFFFFFFFFFFFFFFFFFFFFFFFFFFFFFFFF00 AND PUSH1 0x1 OR SWAP1 SSTORE DUP1 ISZERO PUSH2 0x1639 JUMPI PUSH1 0x0 DUP1 SLOAD PUSH32 0xFFFFFFFFFFFFFFFFFFFFFFFFFFFFFFFFFFFFFFFFFFFFFFFFFFFFFFFFFFFF00FF AND PUSH2 0x100 OR SWAP1 SSTORE JUMPDEST PUSH2 0x1643 DUP4 DUP4 PUSH2 0x2BE9 JUMP JUMPDEST PUSH2 0x164B PUSH2 0x2C8A JUMP JUMPDEST PUSH2 0x1653 PUSH2 0x2D21 JUMP JUMPDEST PUSH2 0x165B PUSH2 0x2DC0 JUMP JUMPDEST PUSH2 0x1663 PUSH2 0x2C8A JUMP JUMPDEST PUSH2 0x166B PUSH2 0x2C8A JUMP JUMPDEST DUP1 ISZERO PUSH2 0xCE1 JUMPI PUSH1 0x0 DUP1 SLOAD PUSH32 0xFFFFFFFFFFFFFFFFFFFFFFFFFFFFFFFFFFFFFFFFFFFFFFFFFFFFFFFFFFFF00FF AND SWAP1 SSTORE PUSH1 0x40 MLOAD PUSH1 0x1 DUP2 MSTORE PUSH32 0x7F26B83FF96E1F2B6A682F133852F6798A09C465DA95921460CEFB3847402498 SWAP1 PUSH1 0x20 ADD PUSH1 0x40 MLOAD DUP1 SWAP2 SUB SWAP1 LOG1 POP POP POP JUMP JUMPDEST ADDRESS PUSH20 0xFFFFFFFFFFFFFFFFFFFFFFFFFFFFFFFFFFFFFFFF PUSH32 0x0 AND EQ ISZERO PUSH2 0x1798 JUMPI PUSH1 0x40 MLOAD PUSH32 0x8C379A000000000000000000000000000000000000000000000000000000000 DUP2 MSTORE PUSH1 0x20 PUSH1 0x4 DUP3 ADD MSTORE PUSH1 0x2C PUSH1 0x24 DUP3 ADD MSTORE PUSH32 0x46756E6374696F6E206D7573742062652063616C6C6564207468726F75676820 PUSH1 0x44 DUP3 ADD MSTORE PUSH32 0x64656C656761746563616C6C0000000000000000000000000000000000000000 PUSH1 0x64 DUP3 ADD MSTORE PUSH1 0x84 ADD PUSH2 0xC19 JUMP JUMPDEST PUSH32 0x0 PUSH20 0xFFFFFFFFFFFFFFFFFFFFFFFFFFFFFFFFFFFFFFFF AND PUSH2 0x180D PUSH32 0x360894A13BA1A3210667C828492DB98DCA3E2076CC3735A920A3CA505D382BBC SLOAD PUSH20 0xFFFFFFFFFFFFFFFFFFFFFFFFFFFFFFFFFFFFFFFF AND SWAP1 JUMP JUMPDEST PUSH20 0xFFFFFFFFFFFFFFFFFFFFFFFFFFFFFFFFFFFFFFFF AND EQ PUSH2 0x18B0 JUMPI PUSH1 0x40 MLOAD PUSH32 0x8C379A000000000000000000000000000000000000000000000000000000000 DUP2 MSTORE PUSH1 0x20 PUSH1 0x4 DUP3 ADD MSTORE PUSH1 0x2C PUSH1 0x24 DUP3 ADD MSTORE PUSH32 0x46756E6374696F6E206D7573742062652063616C6C6564207468726F75676820 PUSH1 0x44 DUP3 ADD MSTORE PUSH32 0x6163746976652070726F78790000000000000000000000000000000000000000 PUSH1 0x64 DUP3 ADD MSTORE PUSH1 0x84 ADD PUSH2 0xC19 JUMP JUMPDEST PUSH2 0x18B9 DUP3 PUSH2 0x28E9 JUMP JUMPDEST PUSH2 0x18C5 DUP3 DUP3 PUSH1 0x1 PUSH2 0x28F1 JUMP JUMPDEST POP POP JUMP JUMPDEST PUSH1 0x0 PUSH2 0x18D4 PUSH1 0x99 SLOAD SWAP1 JUMP JUMPDEST DUP3 LT PUSH2 0x1962 JUMPI PUSH1 0x40 MLOAD PUSH32 0x8C379A000000000000000000000000000000000000000000000000000000000 DUP2 MSTORE PUSH1 0x20 PUSH1 0x4 DUP3 ADD MSTORE PUSH1 0x2C PUSH1 0x24 DUP3 ADD MSTORE PUSH32 0x455243373231456E756D657261626C653A20676C6F62616C20696E646578206F PUSH1 0x44 DUP3 ADD MSTORE PUSH32 0x7574206F6620626F756E64730000000000000000000000000000000000000000 PUSH1 0x64 DUP3 ADD MSTORE PUSH1 0x84 ADD PUSH2 0xC19 JUMP JUMPDEST PUSH1 0x99 DUP3 DUP2 SLOAD DUP2 LT PUSH2 0x1975 JUMPI PUSH2 0x1975 PUSH2 0x4E47 JUMP JUMPDEST SWAP1 PUSH1 0x0 MSTORE PUSH1 0x20 PUSH1 0x0 KECCAK256 ADD SLOAD SWAP1 POP SWAP2 SWAP1 POP JUMP JUMPDEST PUSH2 0x198F PUSH2 0x24B5 JUMP JUMPDEST PUSH2 0x1998 DUP2 PUSH2 0x231D JUMP JUMPDEST PUSH1 0x0 DUP2 DUP2 MSTORE PUSH2 0x1C6 PUSH1 0x20 MSTORE PUSH1 0x40 SWAP1 KECCAK256 SLOAD PUSH1 0xFF AND ISZERO PUSH2 0x19B9 JUMPI PUSH2 0x19B9 DUP2 PUSH2 0x2E5F JUMP JUMPDEST PUSH2 0x1339 PUSH2 0x19C5 DUP3 PUSH2 0x1AEB JUMP JUMPDEST PUSH2 0x12D SLOAD PUSH20 0xFFFFFFFFFFFFFFFFFFFFFFFFFFFFFFFFFFFFFFFF AND DUP4 PUSH2 0x2677 JUMP JUMPDEST PUSH1 0x0 ADDRESS PUSH20 0xFFFFFFFFFFFFFFFFFFFFFFFFFFFFFFFFFFFFFFFF PUSH32 0x0 AND EQ PUSH2 0x1AAC JUMPI PUSH1 0x40 MLOAD PUSH32 0x8C379A000000000000000000000000000000000000000000000000000000000 DUP2 MSTORE PUSH1 0x20 PUSH1 0x4 DUP3 ADD MSTORE PUSH1 0x38 PUSH1 0x24 DUP3 ADD MSTORE PUSH32 0x555550535570677261646561626C653A206D757374206E6F742062652063616C PUSH1 0x44 DUP3 ADD MSTORE PUSH32 0x6C6564207468726F7567682064656C656761746563616C6C0000000000000000 PUSH1 0x64 DUP3 ADD MSTORE PUSH1 0x84 ADD PUSH2 0xC19 JUMP JUMPDEST POP PUSH32 0x360894A13BA1A3210667C828492DB98DCA3E2076CC3735A920A3CA505D382BBC SWAP1 JUMP JUMPDEST PUSH2 0x1AD9 PUSH2 0x24B5 JUMP JUMPDEST PUSH1 0x0 SWAP1 DUP2 MSTORE PUSH2 0x1C8 PUSH1 0x20 MSTORE PUSH1 0x40 DUP2 KECCAK256 SSTORE JUMP JUMPDEST PUSH1 0x0 DUP2 DUP2 MSTORE PUSH1 0x67 PUSH1 0x20 MSTORE PUSH1 0x40 DUP2 KECCAK256 SLOAD PUSH20 0xFFFFFFFFFFFFFFFFFFFFFFFFFFFFFFFFFFFFFFFF AND DUP1 PUSH2 0xA88 JUMPI PUSH1 0x40 MLOAD PUSH32 0x8C379A000000000000000000000000000000000000000000000000000000000 DUP2 MSTORE PUSH1 0x20 PUSH1 0x4 DUP3 ADD MSTORE PUSH1 0x18 PUSH1 0x24 DUP3 ADD MSTORE PUSH32 0x4552433732313A20696E76616C696420746F6B656E2049440000000000000000 PUSH1 0x44 DUP3 ADD MSTORE PUSH1 0x64 ADD PUSH2 0xC19 JUMP JUMPDEST PUSH2 0x1B7F PUSH2 0x24B5 JUMP JUMPDEST PUSH2 0x1B87 PUSH2 0x2448 JUMP JUMPDEST PUSH1 0x40 MLOAD PUSH32 0xA089479900000000000000000000000000000000000000000000000000000000 DUP2 MSTORE PUSH1 0x4 DUP2 ADD DUP3 SWAP1 MSTORE ADDRESS SWAP1 PUSH4 0xA0894799 SWAP1 PUSH1 0x24 ADD PUSH1 0x20 PUSH1 0x40 MLOAD DUP1 DUP4 SUB DUP2 DUP7 GAS STATICCALL ISZERO DUP1 ISZERO PUSH2 0x1BDC JUMPI RETURNDATASIZE PUSH1 0x0 DUP1 RETURNDATACOPY RETURNDATASIZE PUSH1 0x0 REVERT JUMPDEST POP POP POP POP PUSH1 0x40 MLOAD RETURNDATASIZE PUSH1 0x1F NOT PUSH1 0x1F DUP3 ADD AND DUP3 ADD DUP1 PUSH1 0x40 MSTORE POP DUP2 ADD SWAP1 PUSH2 0x1C00 SWAP2 SWAP1 PUSH2 0x4F76 JUMP JUMPDEST PUSH2 0x1C66 JUMPI PUSH1 0x40 MLOAD PUSH32 0x8C379A000000000000000000000000000000000000000000000000000000000 DUP2 MSTORE PUSH1 0x20 PUSH1 0x4 DUP3 ADD MSTORE PUSH1 0x13 PUSH1 0x24 DUP3 ADD MSTORE PUSH32 0x546F6B656E206973206E6F742066726F7A656E00000000000000000000000000 PUSH1 0x44 DUP3 ADD MSTORE PUSH1 0x64 ADD PUSH2 0xC19 JUMP JUMPDEST PUSH2 0x1339 DUP2 PUSH2 0x2E5F JUMP JUMPDEST PUSH1 0x0 DUP1 PUSH2 0x1C7C DUP5 DUP5 PUSH2 0x1067 JUMP JUMPDEST SWAP2 POP PUSH2 0x1C87 DUP3 PUSH2 0xD7C JUMP JUMPDEST SWAP1 POP SWAP3 POP SWAP3 SWAP1 POP JUMP JUMPDEST PUSH1 0x0 PUSH20 0xFFFFFFFFFFFFFFFFFFFFFFFFFFFFFFFFFFFFFFFF DUP3 AND PUSH2 0x1D35 JUMPI PUSH1 0x40 MLOAD PUSH32 0x8C379A000000000000000000000000000000000000000000000000000000000 DUP2 MSTORE PUSH1 0x20 PUSH1 0x4 DUP3 ADD MSTORE PUSH1 0x29 PUSH1 0x24 DUP3 ADD MSTORE PUSH32 0x4552433732313A2061646472657373207A65726F206973206E6F742061207661 PUSH1 0x44 DUP3 ADD MSTORE PUSH32 0x6C6964206F776E65720000000000000000000000000000000000000000000000 PUSH1 0x64 DUP3 ADD MSTORE PUSH1 0x84 ADD PUSH2 0xC19 JUMP JUMPDEST POP PUSH20 0xFFFFFFFFFFFFFFFFFFFFFFFFFFFFFFFFFFFFFFFF AND PUSH1 0x0 SWAP1 DUP2 MSTORE PUSH1 0x68 PUSH1 0x20 MSTORE PUSH1 0x40 SWAP1 KECCAK256 SLOAD SWAP1 JUMP JUMPDEST PUSH2 0x1D66 PUSH2 0x24B5 JUMP JUMPDEST PUSH2 0x134C PUSH1 0x0 PUSH2 0x2ED1 JUMP JUMPDEST PUSH2 0x1D78 PUSH2 0x24B5 JUMP JUMPDEST PUSH2 0x1D81 DUP3 PUSH2 0x231D JUMP JUMPDEST PUSH2 0x18C5 DUP3 DUP3 PUSH2 0x2F49 JUMP JUMPDEST PUSH2 0x1D93 PUSH2 0x24B5 JUMP JUMPDEST PUSH2 0xCE1 DUP4 DUP4 DUP4 PUSH2 0x3007 JUMP JUMPDEST PUSH2 0x1DA6 PUSH2 0x24B5 JUMP JUMPDEST DUP1 MLOAD PUSH2 0x18C5 SWAP1 PUSH2 0x1C3 SWAP1 PUSH1 0x20 DUP5 ADD SWAP1 PUSH2 0x464A JUMP JUMPDEST PUSH2 0x1DC2 PUSH2 0x24B5 JUMP JUMPDEST PUSH2 0x134C PUSH2 0x3192 JUMP JUMPDEST PUSH1 0x0 PUSH2 0x1DD4 PUSH2 0x2448 JUMP JUMPDEST PUSH2 0x1DDC PUSH2 0x24B5 JUMP JUMPDEST PUSH1 0x1 PUSH2 0x1C4 PUSH1 0x0 DUP3 DUP3 SLOAD PUSH2 0x1DF0 SWAP2 SWAP1 PUSH2 0x4EA5 JUMP JUMPDEST SWAP3 POP POP DUP2 SWAP1 SSTORE POP PUSH2 0x1E07 DUP6 PUSH2 0x1C4 SLOAD DUP7 DUP7 DUP7 PUSH2 0x2537 JUMP JUMPDEST SWAP6 SWAP5 POP POP POP POP POP JUMP JUMPDEST PUSH1 0x60 PUSH1 0x66 DUP1 SLOAD PUSH2 0xA9D SWAP1 PUSH2 0x4DF3 JUMP JUMPDEST PUSH2 0x1E27 PUSH2 0x24B5 JUMP JUMPDEST PUSH2 0x134C PUSH1 0x0 PUSH2 0x1C7 SSTORE JUMP JUMPDEST PUSH1 0x60 PUSH2 0x1C3 PUSH2 0x1E40 DUP4 PUSH2 0x31ED JUMP JUMPDEST PUSH1 0x40 MLOAD PUSH1 0x20 ADD PUSH2 0x1E51 SWAP3 SWAP2 SWAP1 PUSH2 0x5064 JUMP JUMPDEST PUSH1 0x40 MLOAD PUSH1 0x20 DUP2 DUP4 SUB SUB DUP2 MSTORE SWAP1 PUSH1 0x40 MSTORE SWAP1 POP SWAP2 SWAP1 POP JUMP JUMPDEST PUSH2 0x18C5 CALLER DUP4 DUP4 PUSH2 0x331F JUMP JUMPDEST PUSH2 0x1E7C CALLER DUP4 PUSH2 0x25E5 JUMP JUMPDEST PUSH2 0x1F08 JUMPI PUSH1 0x40 MLOAD PUSH32 0x8C379A000000000000000000000000000000000000000000000000000000000 DUP2 MSTORE PUSH1 0x20 PUSH1 0x4 DUP3 ADD MSTORE PUSH1 0x2E PUSH1 0x24 DUP3 ADD MSTORE PUSH32 0x4552433732313A2063616C6C6572206973206E6F7420746F6B656E206F776E65 PUSH1 0x44 DUP3 ADD MSTORE PUSH32 0x72206E6F7220617070726F766564000000000000000000000000000000000000 PUSH1 0x64 DUP3 ADD MSTORE PUSH1 0x84 ADD PUSH2 0xC19 JUMP JUMPDEST PUSH2 0x1F14 DUP5 DUP5 DUP5 DUP5 PUSH2 0x344D JUMP JUMPDEST POP POP POP POP JUMP JUMPDEST PUSH1 0x0 PUSH2 0x1F24 PUSH2 0x2448 JUMP JUMPDEST PUSH2 0x1F2C PUSH2 0x24B5 JUMP JUMPDEST PUSH1 0x0 JUMPDEST DUP5 MLOAD DUP2 LT ISZERO PUSH2 0x1F89 JUMPI PUSH2 0x1F78 DUP7 DUP3 PUSH2 0x1C4 SLOAD PUSH1 0x1 PUSH2 0x1F4D SWAP2 SWAP1 PUSH2 0x4EA5 JUMP JUMPDEST PUSH2 0x1F57 SWAP2 SWAP1 PUSH2 0x4EA5 JUMP JUMPDEST DUP8 DUP5 DUP2 MLOAD DUP2 LT PUSH2 0x1F69 JUMPI PUSH2 0x1F69 PUSH2 0x4E47 JUMP JUMPDEST PUSH1 0x20 MUL PUSH1 0x20 ADD ADD MLOAD DUP8 DUP8 PUSH2 0x2537 JUMP JUMPDEST POP PUSH2 0x1F82 DUP2 PUSH2 0x4EBD JUMP JUMPDEST SWAP1 POP PUSH2 0x1F2F JUMP JUMPDEST POP DUP4 MLOAD PUSH2 0x1C4 PUSH1 0x0 DUP3 DUP3 SLOAD PUSH2 0xD6A SWAP2 SWAP1 PUSH2 0x4EA5 JUMP JUMPDEST PUSH1 0x0 DUP2 DUP2 MSTORE PUSH2 0x1C5 PUSH1 0x20 MSTORE PUSH1 0x40 SWAP1 KECCAK256 SLOAD PUSH1 0x60 SWAP1 PUSH2 0x1C3 PUSH2 0x1FBD DUP3 PUSH2 0x31ED JUMP JUMPDEST PUSH2 0x1FC6 DUP6 PUSH2 0x31ED JUMP JUMPDEST PUSH1 0x40 MLOAD PUSH1 0x20 ADD PUSH2 0x1FD8 SWAP4 SWAP3 SWAP2 SWAP1 PUSH2 0x5089 JUMP JUMPDEST PUSH1 0x40 MLOAD PUSH1 0x20 DUP2 DUP4 SUB SUB DUP2 MSTORE SWAP1 PUSH1 0x40 MSTORE SWAP2 POP POP SWAP2 SWAP1 POP JUMP JUMPDEST PUSH1 0x0 PUSH2 0x1FFA DUP3 PUSH2 0x231D JUMP JUMPDEST POP PUSH1 0x1 SWAP2 SWAP1 POP JUMP JUMPDEST PUSH2 0x200A PUSH2 0x24B5 JUMP JUMPDEST PUSH2 0x18C5 DUP3 DUP3 PUSH2 0x34F0 JUMP JUMPDEST PUSH2 0x201C PUSH2 0x24B5 JUMP JUMPDEST PUSH2 0x2024 PUSH2 0x2448 JUMP JUMPDEST PUSH1 0x40 MLOAD PUSH32 0xA089479900000000000000000000000000000000000000000000000000000000 DUP2 MSTORE PUSH1 0x4 DUP2 ADD DUP3 SWAP1 MSTORE DUP2 SWAP1 ADDRESS SWAP1 PUSH4 0xA0894799 SWAP1 PUSH1 0x24 ADD PUSH1 0x20 PUSH1 0x40 MLOAD DUP1 DUP4 SUB DUP2 DUP7 GAS STATICCALL ISZERO DUP1 ISZERO PUSH2 0x207B JUMPI RETURNDATASIZE PUSH1 0x0 DUP1 RETURNDATACOPY RETURNDATASIZE PUSH1 0x0 REVERT JUMPDEST POP POP POP POP PUSH1 0x40 MLOAD RETURNDATASIZE PUSH1 0x1F NOT PUSH1 0x1F DUP3 ADD AND DUP3 ADD DUP1 PUSH1 0x40 MSTORE POP DUP2 ADD SWAP1 PUSH2 0x209F SWAP2 SWAP1 PUSH2 0x4F76 JUMP JUMPDEST ISZERO PUSH2 0x2106 JUMPI PUSH1 0x40 MLOAD PUSH32 0x8C379A000000000000000000000000000000000000000000000000000000000 DUP2 MSTORE PUSH1 0x20 PUSH1 0x4 DUP3 ADD MSTORE PUSH1 0xF PUSH1 0x24 DUP3 ADD MSTORE PUSH32 0x546F6B656E2069732066726F7A656E0000000000000000000000000000000000 PUSH1 0x44 DUP3 ADD MSTORE PUSH1 0x64 ADD PUSH2 0xC19 JUMP JUMPDEST PUSH2 0x18C5 DUP3 PUSH2 0x366A JUMP JUMPDEST PUSH2 0x1C3 DUP1 SLOAD PUSH2 0x211D SWAP1 PUSH2 0x4DF3 JUMP JUMPDEST DUP1 PUSH1 0x1F ADD PUSH1 0x20 DUP1 SWAP2 DIV MUL PUSH1 0x20 ADD PUSH1 0x40 MLOAD SWAP1 DUP2 ADD PUSH1 0x40 MSTORE DUP1 SWAP3 SWAP2 SWAP1 DUP2 DUP2 MSTORE PUSH1 0x20 ADD DUP3 DUP1 SLOAD PUSH2 0x2149 SWAP1 PUSH2 0x4DF3 JUMP JUMPDEST DUP1 ISZERO PUSH2 0x2196 JUMPI DUP1 PUSH1 0x1F LT PUSH2 0x216B JUMPI PUSH2 0x100 DUP1 DUP4 SLOAD DIV MUL DUP4 MSTORE SWAP2 PUSH1 0x20 ADD SWAP2 PUSH2 0x2196 JUMP JUMPDEST DUP3 ADD SWAP2 SWAP1 PUSH1 0x0 MSTORE PUSH1 0x20 PUSH1 0x0 KECCAK256 SWAP1 JUMPDEST DUP2 SLOAD DUP2 MSTORE SWAP1 PUSH1 0x1 ADD SWAP1 PUSH1 0x20 ADD DUP1 DUP4 GT PUSH2 0x2179 JUMPI DUP3 SWAP1 SUB PUSH1 0x1F AND DUP3 ADD SWAP2 JUMPDEST POP POP POP POP POP DUP2 JUMP JUMPDEST PUSH1 0x0 PUSH20 0xFFFFFFFFFFFFFFFFFFFFFFFFFFFFFFFFFFFFFFFF DUP3 AND PUSH15 0x6C3852CBEF3E08E8DF289169EDE581 EQ ISZERO PUSH2 0x21D5 JUMPI POP PUSH1 0x1 PUSH2 0xA88 JUMP JUMPDEST PUSH20 0xFFFFFFFFFFFFFFFFFFFFFFFFFFFFFFFFFFFFFFFF DUP1 DUP5 AND PUSH1 0x0 SWAP1 DUP2 MSTORE PUSH1 0x6A PUSH1 0x20 SWAP1 DUP2 MSTORE PUSH1 0x40 DUP1 DUP4 KECCAK256 SWAP4 DUP7 AND DUP4 MSTORE SWAP3 SWAP1 MSTORE KECCAK256 SLOAD PUSH1 0xFF AND JUMPDEST SWAP4 SWAP3 POP POP POP JUMP JUMPDEST PUSH2 0x221B PUSH2 0x24B5 JUMP JUMPDEST PUSH20 0xFFFFFFFFFFFFFFFFFFFFFFFFFFFFFFFFFFFFFFFF DUP2 AND PUSH2 0x22BE JUMPI PUSH1 0x40 MLOAD PUSH32 0x8C379A000000000000000000000000000000000000000000000000000000000 DUP2 MSTORE PUSH1 0x20 PUSH1 0x4 DUP3 ADD MSTORE PUSH1 0x26 PUSH1 0x24 DUP3 ADD MSTORE PUSH32 0x4F776E61626C653A206E6577206F776E657220697320746865207A65726F2061 PUSH1 0x44 DUP3 ADD MSTORE PUSH32 0x6464726573730000000000000000000000000000000000000000000000000000 PUSH1 0x64 DUP3 ADD MSTORE PUSH1 0x84 ADD PUSH2 0xC19 JUMP JUMPDEST PUSH2 0x1339 DUP2 PUSH2 0x2ED1 JUMP JUMPDEST PUSH1 0x0 PUSH32 0xFFFFFFFF00000000000000000000000000000000000000000000000000000000 DUP3 AND PUSH32 0x780E9D6300000000000000000000000000000000000000000000000000000000 EQ DUP1 PUSH2 0xA88 JUMPI POP PUSH2 0xA88 DUP3 PUSH2 0x36D4 JUMP JUMPDEST PUSH1 0x0 DUP2 DUP2 MSTORE PUSH1 0x67 PUSH1 0x20 MSTORE PUSH1 0x40 SWAP1 KECCAK256 SLOAD PUSH20 0xFFFFFFFFFFFFFFFFFFFFFFFFFFFFFFFFFFFFFFFF AND PUSH2 0x1339 JUMPI PUSH1 0x40 MLOAD PUSH32 0x8C379A000000000000000000000000000000000000000000000000000000000 DUP2 MSTORE PUSH1 0x20 PUSH1 0x4 DUP3 ADD MSTORE PUSH1 0x18 PUSH1 0x24 DUP3 ADD MSTORE PUSH32 0x4552433732313A20696E76616C696420746F6B656E2049440000000000000000 PUSH1 0x44 DUP3 ADD MSTORE PUSH1 0x64 ADD PUSH2 0xC19 JUMP JUMPDEST PUSH1 0x0 DUP2 DUP2 MSTORE PUSH1 0x69 PUSH1 0x20 MSTORE PUSH1 0x40 SWAP1 KECCAK256 DUP1 SLOAD PUSH32 0xFFFFFFFFFFFFFFFFFFFFFFFF0000000000000000000000000000000000000000 AND PUSH20 0xFFFFFFFFFFFFFFFFFFFFFFFFFFFFFFFFFFFFFFFF DUP5 AND SWAP1 DUP2 OR SWAP1 SWAP2 SSTORE DUP2 SWAP1 PUSH2 0x2402 DUP3 PUSH2 0x1AEB JUMP JUMPDEST PUSH20 0xFFFFFFFFFFFFFFFFFFFFFFFFFFFFFFFFFFFFFFFF AND PUSH32 0x8C5BE1E5EBEC7D5BD14F71427D1E84F3DD0314C0F7B2291E5B200AC8C7C3B925 PUSH1 0x40 MLOAD PUSH1 0x40 MLOAD DUP1 SWAP2 SUB SWAP1 LOG4 POP POP JUMP JUMPDEST PUSH1 0xFB SLOAD PUSH1 0xFF AND ISZERO PUSH2 0x134C JUMPI PUSH1 0x40 MLOAD PUSH32 0x8C379A000000000000000000000000000000000000000000000000000000000 DUP2 MSTORE PUSH1 0x20 PUSH1 0x4 DUP3 ADD MSTORE PUSH1 0x10 PUSH1 0x24 DUP3 ADD MSTORE PUSH32 0x5061757361626C653A2070617573656400000000000000000000000000000000 PUSH1 0x44 DUP3 ADD MSTORE PUSH1 0x64 ADD PUSH2 0xC19 JUMP JUMPDEST PUSH2 0x12D SLOAD PUSH20 0xFFFFFFFFFFFFFFFFFFFFFFFFFFFFFFFFFFFFFFFF AND CALLER EQ PUSH2 0x134C JUMPI PUSH1 0x40 MLOAD PUSH32 0x8C379A000000000000000000000000000000000000000000000000000000000 DUP2 MSTORE PUSH1 0x20 PUSH1 0x4 DUP3 ADD DUP2 SWAP1 MSTORE PUSH1 0x24 DUP3 ADD MSTORE PUSH32 0x4F776E61626C653A2063616C6C6572206973206E6F7420746865206F776E6572 PUSH1 0x44 DUP3 ADD MSTORE PUSH1 0x64 ADD PUSH2 0xC19 JUMP JUMPDEST PUSH1 0x0 PUSH2 0x2543 DUP5 DUP7 PUSH2 0x37B7 JUMP JUMPDEST PUSH1 0x0 DUP6 DUP2 MSTORE PUSH2 0x1C5 PUSH1 0x20 MSTORE PUSH1 0x40 SWAP1 DUP2 SWAP1 KECCAK256 DUP8 SWAP1 SSTORE MLOAD DUP7 SWAP1 PUSH32 0x259EB7B480B3D449F506927269E4665C83C69E4CD797143EAA8F84632DC7A02B SWAP1 PUSH2 0x25A8 SWAP1 DUP9 SWAP1 DUP9 SWAP1 SWAP2 DUP3 MSTORE PUSH20 0xFFFFFFFFFFFFFFFFFFFFFFFFFFFFFFFFFFFFFFFF AND PUSH1 0x20 DUP3 ADD MSTORE PUSH1 0x40 ADD SWAP1 JUMP JUMPDEST PUSH1 0x40 MLOAD DUP1 SWAP2 SUB SWAP1 LOG2 DUP3 ISZERO PUSH2 0x25BF JUMPI PUSH2 0x25BF DUP6 PUSH2 0x2014 JUMP JUMPDEST PUSH8 0xFFFFFFFFFFFFFFFF DUP3 AND ISZERO PUSH2 0x25D9 JUMPI PUSH2 0x25D9 DUP6 DUP4 PUSH2 0x2F49 JUMP JUMPDEST POP PUSH1 0x1 SWAP6 SWAP5 POP POP POP POP POP JUMP JUMPDEST PUSH1 0x0 DUP1 PUSH2 0x25F1 DUP4 PUSH2 0x1AEB JUMP JUMPDEST SWAP1 POP DUP1 PUSH20 0xFFFFFFFFFFFFFFFFFFFFFFFFFFFFFFFFFFFFFFFF AND DUP5 PUSH20 0xFFFFFFFFFFFFFFFFFFFFFFFFFFFFFFFFFFFFFFFF AND EQ DUP1 PUSH2 0x2632 JUMPI POP PUSH2 0x2632 DUP2 DUP6 PUSH2 0x219E JUMP JUMPDEST DUP1 PUSH2 0xD74 JUMPI POP DUP4 PUSH20 0xFFFFFFFFFFFFFFFFFFFFFFFFFFFFFFFFFFFFFFFF AND PUSH2 0x2658 DUP5 PUSH2 0xB20 JUMP JUMPDEST PUSH20 0xFFFFFFFFFFFFFFFFFFFFFFFFFFFFFFFFFFFFFFFF AND EQ SWAP5 SWAP4 POP POP POP POP JUMP JUMPDEST DUP3 PUSH20 0xFFFFFFFFFFFFFFFFFFFFFFFFFFFFFFFFFFFFFFFF AND PUSH2 0x2697 DUP3 PUSH2 0x1AEB JUMP JUMPDEST PUSH20 0xFFFFFFFFFFFFFFFFFFFFFFFFFFFFFFFFFFFFFFFF AND EQ PUSH2 0x273A JUMPI PUSH1 0x40 MLOAD PUSH32 0x8C379A000000000000000000000000000000000000000000000000000000000 DUP2 MSTORE PUSH1 0x20 PUSH1 0x4 DUP3 ADD MSTORE PUSH1 0x25 PUSH1 0x24 DUP3 ADD MSTORE PUSH32 0x4552433732313A207472616E736665722066726F6D20696E636F727265637420 PUSH1 0x44 DUP3 ADD MSTORE PUSH32 0x6F776E6572000000000000000000000000000000000000000000000000000000 PUSH1 0x64 DUP3 ADD MSTORE PUSH1 0x84 ADD PUSH2 0xC19 JUMP JUMPDEST PUSH20 0xFFFFFFFFFFFFFFFFFFFFFFFFFFFFFFFFFFFFFFFF DUP3 AND PUSH2 0x27DC JUMPI PUSH1 0x40 MLOAD PUSH32 0x8C379A000000000000000000000000000000000000000000000000000000000 DUP2 MSTORE PUSH1 0x20 PUSH1 0x4 DUP3 ADD MSTORE PUSH1 0x24 DUP1 DUP3 ADD MSTORE PUSH32 0x4552433732313A207472616E7366657220746F20746865207A65726F20616464 PUSH1 0x44 DUP3 ADD MSTORE PUSH32 0x7265737300000000000000000000000000000000000000000000000000000000 PUSH1 0x64 DUP3 ADD MSTORE PUSH1 0x84 ADD PUSH2 0xC19 JUMP JUMPDEST PUSH2 0x27E7 DUP4 DUP4 DUP4 PUSH2 0x37D1 JUMP JUMPDEST PUSH2 0x27F2 PUSH1 0x0 DUP3 PUSH2 0x23A8 JUMP JUMPDEST PUSH20 0xFFFFFFFFFFFFFFFFFFFFFFFFFFFFFFFFFFFFFFFF DUP4 AND PUSH1 0x0 SWAP1 DUP2 MSTORE PUSH1 0x68 PUSH1 0x20 MSTORE PUSH1 0x40 DUP2 KECCAK256 DUP1 SLOAD PUSH1 0x1 SWAP3 SWAP1 PUSH2 0x2828 SWAP1 DUP5 SWAP1 PUSH2 0x50EB JUMP JUMPDEST SWAP1 SWAP2 SSTORE POP POP PUSH20 0xFFFFFFFFFFFFFFFFFFFFFFFFFFFFFFFFFFFFFFFF DUP3 AND PUSH1 0x0 SWAP1 DUP2 MSTORE PUSH1 0x68 PUSH1 0x20 MSTORE PUSH1 0x40 DUP2 KECCAK256 DUP1 SLOAD PUSH1 0x1 SWAP3 SWAP1 PUSH2 0x2863 SWAP1 DUP5 SWAP1 PUSH2 0x4EA5 JUMP JUMPDEST SWAP1 SWAP2 SSTORE POP POP PUSH1 0x0 DUP2 DUP2 MSTORE PUSH1 0x67 PUSH1 0x20 MSTORE PUSH1 0x40 DUP1 DUP3 KECCAK256 DUP1 SLOAD PUSH32 0xFFFFFFFFFFFFFFFFFFFFFFFF0000000000000000000000000000000000000000 AND PUSH20 0xFFFFFFFFFFFFFFFFFFFFFFFFFFFFFFFFFFFFFFFF DUP7 DUP2 AND SWAP2 DUP3 OR SWAP1 SWAP3 SSTORE SWAP2 MLOAD DUP5 SWAP4 SWAP2 DUP8 AND SWAP2 PUSH32 0xDDF252AD1BE2C89B69C2B068FC378DAA952BA7F163C4A11628F55A4DF523B3EF SWAP2 LOG4 POP POP POP JUMP JUMPDEST PUSH2 0x1339 PUSH2 0x24B5 JUMP JUMPDEST PUSH32 0x4910FDFA16FED3260ED0E7147F7CC6DA11A60208B5B9406D12A635614FFD9143 SLOAD PUSH1 0xFF AND ISZERO PUSH2 0x2924 JUMPI PUSH2 0xCE1 DUP4 PUSH2 0x38C6 JUMP JUMPDEST DUP3 PUSH20 0xFFFFFFFFFFFFFFFFFFFFFFFFFFFFFFFFFFFFFFFF AND PUSH4 0x52D1902D PUSH1 0x40 MLOAD DUP2 PUSH4 0xFFFFFFFF AND PUSH1 0xE0 SHL DUP2 MSTORE PUSH1 0x4 ADD PUSH1 0x20 PUSH1 0x40 MLOAD DUP1 DUP4 SUB DUP2 DUP7 GAS STATICCALL SWAP3 POP POP POP DUP1 ISZERO PUSH2 0x29A9 JUMPI POP PUSH1 0x40 DUP1 MLOAD PUSH1 0x1F RETURNDATASIZE SWAP1 DUP2 ADD PUSH32 0xFFFFFFFFFFFFFFFFFFFFFFFFFFFFFFFFFFFFFFFFFFFFFFFFFFFFFFFFFFFFFFE0 AND DUP3 ADD SWAP1 SWAP3 MSTORE PUSH2 0x29A6 SWAP2 DUP2 ADD SWAP1 PUSH2 0x5102 JUMP JUMPDEST PUSH1 0x1 JUMPDEST PUSH2 0x2A35 JUMPI PUSH1 0x40 MLOAD PUSH32 0x8C379A000000000000000000000000000000000000000000000000000000000 DUP2 MSTORE PUSH1 0x20 PUSH1 0x4 DUP3 ADD MSTORE PUSH1 0x2E PUSH1 0x24 DUP3 ADD MSTORE PUSH32 0x45524331393637557067726164653A206E657720696D706C656D656E74617469 PUSH1 0x44 DUP3 ADD MSTORE PUSH32 0x6F6E206973206E6F742055555053000000000000000000000000000000000000 PUSH1 0x64 DUP3 ADD MSTORE PUSH1 0x84 ADD PUSH2 0xC19 JUMP JUMPDEST PUSH32 0x360894A13BA1A3210667C828492DB98DCA3E2076CC3735A920A3CA505D382BBC DUP2 EQ PUSH2 0x2AE4 JUMPI PUSH1 0x40 MLOAD PUSH32 0x8C379A000000000000000000000000000000000000000000000000000000000 DUP2 MSTORE PUSH1 0x20 PUSH1 0x4 DUP3 ADD MSTORE PUSH1 0x29 PUSH1 0x24 DUP3 ADD MSTORE PUSH32 0x45524331393637557067726164653A20756E737570706F727465642070726F78 PUSH1 0x44 DUP3 ADD MSTORE PUSH32 0x6961626C65555549440000000000000000000000000000000000000000000000 PUSH1 0x64 DUP3 ADD MSTORE PUSH1 0x84 ADD PUSH2 0xC19 JUMP JUMPDEST POP PUSH2 0xCE1 DUP4 DUP4 DUP4 PUSH2 0x39D0 JUMP JUMPDEST PUSH2 0x2AF8 PUSH2 0x39F5 JUMP JUMPDEST PUSH1 0xFB DUP1 SLOAD PUSH32 0xFFFFFFFFFFFFFFFFFFFFFFFFFFFFFFFFFFFFFFFFFFFFFFFFFFFFFFFFFFFFFF00 AND SWAP1 SSTORE PUSH32 0x5DB9EE0A495BF2E6FF9C91A7834C1BA4FDD244A5E8AA4E537BD38AEAE4B073AA CALLER JUMPDEST PUSH1 0x40 MLOAD PUSH20 0xFFFFFFFFFFFFFFFFFFFFFFFFFFFFFFFFFFFFFFFF SWAP1 SWAP2 AND DUP2 MSTORE PUSH1 0x20 ADD PUSH1 0x40 MLOAD DUP1 SWAP2 SUB SWAP1 LOG1 JUMP JUMPDEST PUSH2 0x2B76 DUP2 PUSH2 0x3A61 JUMP JUMPDEST PUSH1 0x0 SWAP1 DUP2 MSTORE PUSH2 0x1C5 PUSH1 0x20 SWAP1 DUP2 MSTORE PUSH1 0x40 DUP1 DUP4 KECCAK256 DUP4 SWAP1 SSTORE PUSH2 0x1C6 DUP3 MSTORE DUP1 DUP4 KECCAK256 DUP1 SLOAD PUSH32 0xFFFFFFFFFFFFFFFFFFFFFFFFFFFFFFFFFFFFFFFFFFFFFFFFFFFFFFFFFFFFFF00 AND SWAP1 SSTORE PUSH2 0x1C9 SWAP1 SWAP2 MSTORE SWAP1 KECCAK256 DUP1 SLOAD PUSH32 0xFFFFFFFFFFFFFFFFFFFFFFFFFFFFFFFFFFFFFFFFFFFFFFFF0000000000000000 AND SWAP1 SSTORE JUMP JUMPDEST PUSH1 0x0 SLOAD PUSH2 0x100 SWAP1 DIV PUSH1 0xFF AND PUSH2 0x2C80 JUMPI PUSH1 0x40 MLOAD PUSH32 0x8C379A000000000000000000000000000000000000000000000000000000000 DUP2 MSTORE PUSH1 0x20 PUSH1 0x4 DUP3 ADD MSTORE PUSH1 0x2B PUSH1 0x24 DUP3 ADD MSTORE PUSH32 0x496E697469616C697A61626C653A20636F6E7472616374206973206E6F742069 PUSH1 0x44 DUP3 ADD MSTORE PUSH32 0x6E697469616C697A696E67000000000000000000000000000000000000000000 PUSH1 0x64 DUP3 ADD MSTORE PUSH1 0x84 ADD PUSH2 0xC19 JUMP JUMPDEST PUSH2 0x18C5 DUP3 DUP3 PUSH2 0x3B3A JUMP JUMPDEST PUSH1 0x0 SLOAD PUSH2 0x100 SWAP1 DIV PUSH1 0xFF AND PUSH2 0x134C JUMPI PUSH1 0x40 MLOAD PUSH32 0x8C379A000000000000000000000000000000000000000000000000000000000 DUP2 MSTORE PUSH1 0x20 PUSH1 0x4 DUP3 ADD MSTORE PUSH1 0x2B PUSH1 0x24 DUP3 ADD MSTORE PUSH32 0x496E697469616C697A61626C653A20636F6E7472616374206973206E6F742069 PUSH1 0x44 DUP3 ADD MSTORE PUSH32 0x6E697469616C697A696E67000000000000000000000000000000000000000000 PUSH1 0x64 DUP3 ADD MSTORE PUSH1 0x84 ADD PUSH2 0xC19 JUMP JUMPDEST PUSH1 0x0 SLOAD PUSH2 0x100 SWAP1 DIV PUSH1 0xFF AND PUSH2 0x2DB8 JUMPI PUSH1 0x40 MLOAD PUSH32 0x8C379A000000000000000000000000000000000000000000000000000000000 DUP2 MSTORE PUSH1 0x20 PUSH1 0x4 DUP3 ADD MSTORE PUSH1 0x2B PUSH1 0x24 DUP3 ADD MSTORE PUSH32 0x496E697469616C697A61626C653A20636F6E7472616374206973206E6F742069 PUSH1 0x44 DUP3 ADD MSTORE PUSH32 0x6E697469616C697A696E67000000000000000000000000000000000000000000 PUSH1 0x64 DUP3 ADD MSTORE PUSH1 0x84 ADD PUSH2 0xC19 JUMP JUMPDEST PUSH2 0x134C PUSH2 0x3BF8 JUMP JUMPDEST PUSH1 0x0 SLOAD PUSH2 0x100 SWAP1 DIV PUSH1 0xFF AND PUSH2 0x2E57 JUMPI PUSH1 0x40 MLOAD PUSH32 0x8C379A000000000000000000000000000000000000000000000000000000000 DUP2 MSTORE PUSH1 0x20 PUSH1 0x4 DUP3 ADD MSTORE PUSH1 0x2B PUSH1 0x24 DUP3 ADD MSTORE PUSH32 0x496E697469616C697A61626C653A20636F6E7472616374206973206E6F742069 PUSH1 0x44 DUP3 ADD MSTORE PUSH32 0x6E697469616C697A696E67000000000000000000000000000000000000000000 PUSH1 0x64 DUP3 ADD MSTORE PUSH1 0x84 ADD PUSH2 0xC19 JUMP JUMPDEST PUSH2 0x134C PUSH2 0x3CB9 JUMP JUMPDEST PUSH1 0x0 DUP2 DUP2 MSTORE PUSH2 0x1C6 PUSH1 0x20 MSTORE PUSH1 0x40 SWAP1 DUP2 SWAP1 KECCAK256 DUP1 SLOAD PUSH32 0xFFFFFFFFFFFFFFFFFFFFFFFFFFFFFFFFFFFFFFFFFFFFFFFFFFFFFFFFFFFFFF00 AND SWAP1 SSTORE MLOAD PUSH32 0x83EEA12772AB70FBA01C8212D02F3BC5DC29B8540DCDC84298E5DFA22731B92 SWAP1 PUSH2 0x2EC6 SWAP1 DUP4 DUP2 MSTORE PUSH1 0x20 ADD SWAP1 JUMP JUMPDEST PUSH1 0x40 MLOAD DUP1 SWAP2 SUB SWAP1 LOG1 POP JUMP JUMPDEST PUSH2 0x12D DUP1 SLOAD PUSH20 0xFFFFFFFFFFFFFFFFFFFFFFFFFFFFFFFFFFFFFFFF DUP4 DUP2 AND PUSH32 0xFFFFFFFFFFFFFFFFFFFFFFFF0000000000000000000000000000000000000000 DUP4 AND DUP2 OR SWAP1 SWAP4 SSTORE PUSH1 0x40 MLOAD SWAP2 AND SWAP2 SWAP1 DUP3 SWAP1 PUSH32 0x8BE0079C531659141344CD1FD0A4F28419497F9722A3DAAFE3B4186F6B6457E0 SWAP1 PUSH1 0x0 SWAP1 LOG3 POP POP JUMP JUMPDEST PUSH1 0x0 DUP3 DUP2 MSTORE PUSH2 0x1C9 PUSH1 0x20 MSTORE PUSH1 0x40 DUP2 KECCAK256 SLOAD PUSH8 0xFFFFFFFFFFFFFFFF AND SWAP1 DUP2 PUSH2 0x2F7A JUMPI PUSH2 0x2F73 DUP4 TIMESTAMP PUSH2 0x511B JUMP JUMPDEST SWAP1 POP PUSH2 0x2F87 JUMP JUMPDEST PUSH2 0x2F84 DUP4 DUP4 PUSH2 0x511B JUMP JUMPDEST SWAP1 POP JUMPDEST PUSH1 0x0 DUP5 DUP2 MSTORE PUSH2 0x1C9 PUSH1 0x20 SWAP1 DUP2 MSTORE PUSH1 0x40 SWAP2 DUP3 SWAP1 KECCAK256 DUP1 SLOAD PUSH32 0xFFFFFFFFFFFFFFFFFFFFFFFFFFFFFFFFFFFFFFFFFFFFFFFF0000000000000000 AND PUSH8 0xFFFFFFFFFFFFFFFF DUP6 AND SWAP1 DUP2 OR SWAP1 SWAP2 SSTORE SWAP2 MLOAD SWAP2 DUP3 MSTORE DUP6 SWAP2 PUSH32 0x2EC2BE2C4B90C2CF13ECB6751A24DAED6BB741AE5ED3F7371AABF9402F6D62E8 SWAP2 ADD PUSH1 0x40 MLOAD DUP1 SWAP2 SUB SWAP1 LOG2 POP POP POP POP JUMP JUMPDEST PUSH2 0x2710 PUSH12 0xFFFFFFFFFFFFFFFFFFFFFFFF DUP3 AND GT ISZERO PUSH2 0x30A7 JUMPI PUSH1 0x40 MLOAD PUSH32 0x8C379A000000000000000000000000000000000000000000000000000000000 DUP2 MSTORE PUSH1 0x20 PUSH1 0x4 DUP3 ADD MSTORE PUSH1 0x2A PUSH1 0x24 DUP3 ADD MSTORE PUSH32 0x455243323938313A20726F79616C7479206665652077696C6C20657863656564 PUSH1 0x44 DUP3 ADD MSTORE PUSH32 0x2073616C65507269636500000000000000000000000000000000000000000000 PUSH1 0x64 DUP3 ADD MSTORE PUSH1 0x84 ADD PUSH2 0xC19 JUMP JUMPDEST PUSH20 0xFFFFFFFFFFFFFFFFFFFFFFFFFFFFFFFFFFFFFFFF DUP3 AND PUSH2 0x3124 JUMPI PUSH1 0x40 MLOAD PUSH32 0x8C379A000000000000000000000000000000000000000000000000000000000 DUP2 MSTORE PUSH1 0x20 PUSH1 0x4 DUP3 ADD MSTORE PUSH1 0x1B PUSH1 0x24 DUP3 ADD MSTORE PUSH32 0x455243323938313A20496E76616C696420706172616D65746572730000000000 PUSH1 0x44 DUP3 ADD MSTORE PUSH1 0x64 ADD PUSH2 0xC19 JUMP JUMPDEST PUSH1 0x40 DUP1 MLOAD DUP1 DUP3 ADD DUP3 MSTORE PUSH20 0xFFFFFFFFFFFFFFFFFFFFFFFFFFFFFFFFFFFFFFFF SWAP4 DUP5 AND DUP2 MSTORE PUSH12 0xFFFFFFFFFFFFFFFFFFFFFFFF SWAP3 DUP4 AND PUSH1 0x20 DUP1 DUP4 ADD SWAP2 DUP3 MSTORE PUSH1 0x0 SWAP7 DUP8 MSTORE PUSH2 0x1C8 SWAP1 MSTORE SWAP2 SWAP1 SWAP5 KECCAK256 SWAP4 MLOAD SWAP1 MLOAD SWAP1 SWAP2 AND PUSH21 0x10000000000000000000000000000000000000000 MUL SWAP2 AND OR SWAP1 SSTORE JUMP JUMPDEST PUSH2 0x319A PUSH2 0x2448 JUMP JUMPDEST PUSH1 0xFB DUP1 SLOAD PUSH32 0xFFFFFFFFFFFFFFFFFFFFFFFFFFFFFFFFFFFFFFFFFFFFFFFFFFFFFFFFFFFFFF00 AND PUSH1 0x1 OR SWAP1 SSTORE PUSH32 0x62E78CEA01BEE320CD4E420270B5EA74000D11B0C9F74754EBDBFC544B05A258 PUSH2 0x2B43 CALLER SWAP1 JUMP JUMPDEST PUSH1 0x60 DUP2 PUSH2 0x322D JUMPI POP POP PUSH1 0x40 DUP1 MLOAD DUP1 DUP3 ADD SWAP1 SWAP2 MSTORE PUSH1 0x1 DUP2 MSTORE PUSH32 0x3000000000000000000000000000000000000000000000000000000000000000 PUSH1 0x20 DUP3 ADD MSTORE SWAP1 JUMP JUMPDEST DUP2 PUSH1 0x0 JUMPDEST DUP2 ISZERO PUSH2 0x3257 JUMPI DUP1 PUSH2 0x3241 DUP2 PUSH2 0x4EBD JUMP JUMPDEST SWAP2 POP PUSH2 0x3250 SWAP1 POP PUSH1 0xA DUP4 PUSH2 0x4F62 JUMP JUMPDEST SWAP2 POP PUSH2 0x3231 JUMP JUMPDEST PUSH1 0x0 DUP2 PUSH8 0xFFFFFFFFFFFFFFFF DUP2 GT ISZERO PUSH2 0x3272 JUMPI PUSH2 0x3272 PUSH2 0x4823 JUMP JUMPDEST PUSH1 0x40 MLOAD SWAP1 DUP1 DUP3 MSTORE DUP1 PUSH1 0x1F ADD PUSH1 0x1F NOT AND PUSH1 0x20 ADD DUP3 ADD PUSH1 0x40 MSTORE DUP1 ISZERO PUSH2 0x329C JUMPI PUSH1 0x20 DUP3 ADD DUP2 DUP1 CALLDATASIZE DUP4 CALLDATACOPY ADD SWAP1 POP JUMPDEST POP SWAP1 POP JUMPDEST DUP5 ISZERO PUSH2 0xD74 JUMPI PUSH2 0x32B1 PUSH1 0x1 DUP4 PUSH2 0x50EB JUMP JUMPDEST SWAP2 POP PUSH2 0x32BE PUSH1 0xA DUP7 PUSH2 0x513E JUMP JUMPDEST PUSH2 0x32C9 SWAP1 PUSH1 0x30 PUSH2 0x4EA5 JUMP JUMPDEST PUSH1 0xF8 SHL DUP2 DUP4 DUP2 MLOAD DUP2 LT PUSH2 0x32DE JUMPI PUSH2 0x32DE PUSH2 0x4E47 JUMP JUMPDEST PUSH1 0x20 ADD ADD SWAP1 PUSH31 0xFFFFFFFFFFFFFFFFFFFFFFFFFFFFFFFFFFFFFFFFFFFFFFFFFFFFFFFFFFFFFF NOT AND SWAP1 DUP2 PUSH1 0x0 BYTE SWAP1 MSTORE8 POP PUSH2 0x3318 PUSH1 0xA DUP7 PUSH2 0x4F62 JUMP JUMPDEST SWAP5 POP PUSH2 0x32A0 JUMP JUMPDEST DUP2 PUSH20 0xFFFFFFFFFFFFFFFFFFFFFFFFFFFFFFFFFFFFFFFF AND DUP4 PUSH20 0xFFFFFFFFFFFFFFFFFFFFFFFFFFFFFFFFFFFFFFFF AND EQ ISZERO PUSH2 0x33B5 JUMPI PUSH1 0x40 MLOAD PUSH32 0x8C379A000000000000000000000000000000000000000000000000000000000 DUP2 MSTORE PUSH1 0x20 PUSH1 0x4 DUP3 ADD MSTORE PUSH1 0x19 PUSH1 0x24 DUP3 ADD MSTORE PUSH32 0x4552433732313A20617070726F766520746F2063616C6C657200000000000000 PUSH1 0x44 DUP3 ADD MSTORE PUSH1 0x64 ADD PUSH2 0xC19 JUMP JUMPDEST PUSH20 0xFFFFFFFFFFFFFFFFFFFFFFFFFFFFFFFFFFFFFFFF DUP4 DUP2 AND PUSH1 0x0 DUP2 DUP2 MSTORE PUSH1 0x6A PUSH1 0x20 SWAP1 DUP2 MSTORE PUSH1 0x40 DUP1 DUP4 KECCAK256 SWAP5 DUP8 AND DUP1 DUP5 MSTORE SWAP5 DUP3 MSTORE SWAP2 DUP3 SWAP1 KECCAK256 DUP1 SLOAD PUSH32 0xFFFFFFFFFFFFFFFFFFFFFFFFFFFFFFFFFFFFFFFFFFFFFFFFFFFFFFFFFFFFFF00 AND DUP7 ISZERO ISZERO SWAP1 DUP2 OR SWAP1 SWAP2 SSTORE SWAP2 MLOAD SWAP2 DUP3 MSTORE PUSH32 0x17307EAB39AB6107E8899845AD3D59BD9653F200F220920489CA2B5937696C31 SWAP2 ADD PUSH1 0x40 MLOAD DUP1 SWAP2 SUB SWAP1 LOG3 POP POP POP JUMP JUMPDEST PUSH2 0x3458 DUP5 DUP5 DUP5 PUSH2 0x2677 JUMP JUMPDEST PUSH2 0x3464 DUP5 DUP5 DUP5 DUP5 PUSH2 0x3D59 JUMP JUMPDEST PUSH2 0x1F14 JUMPI PUSH1 0x40 MLOAD PUSH32 0x8C379A000000000000000000000000000000000000000000000000000000000 DUP2 MSTORE PUSH1 0x20 PUSH1 0x4 DUP3 ADD MSTORE PUSH1 0x32 PUSH1 0x24 DUP3 ADD MSTORE PUSH32 0x4552433732313A207472616E7366657220746F206E6F6E204552433732315265 PUSH1 0x44 DUP3 ADD MSTORE PUSH32 0x63656976657220696D706C656D656E7465720000000000000000000000000000 PUSH1 0x64 DUP3 ADD MSTORE PUSH1 0x84 ADD PUSH2 0xC19 JUMP JUMPDEST PUSH2 0x2710 PUSH12 0xFFFFFFFFFFFFFFFFFFFFFFFF DUP3 AND GT ISZERO PUSH2 0x3590 JUMPI PUSH1 0x40 MLOAD PUSH32 0x8C379A000000000000000000000000000000000000000000000000000000000 DUP2 MSTORE PUSH1 0x20 PUSH1 0x4 DUP3 ADD MSTORE PUSH1 0x2A PUSH1 0x24 DUP3 ADD MSTORE PUSH32 0x455243323938313A20726F79616C7479206665652077696C6C20657863656564 PUSH1 0x44 DUP3 ADD MSTORE PUSH32 0x2073616C65507269636500000000000000000000000000000000000000000000 PUSH1 0x64 DUP3 ADD MSTORE PUSH1 0x84 ADD PUSH2 0xC19 JUMP JUMPDEST PUSH20 0xFFFFFFFFFFFFFFFFFFFFFFFFFFFFFFFFFFFFFFFF DUP3 AND PUSH2 0x360D JUMPI PUSH1 0x40 MLOAD PUSH32 0x8C379A000000000000000000000000000000000000000000000000000000000 DUP2 MSTORE PUSH1 0x20 PUSH1 0x4 DUP3 ADD MSTORE PUSH1 0x19 PUSH1 0x24 DUP3 ADD MSTORE PUSH32 0x455243323938313A20696E76616C696420726563656976657200000000000000 PUSH1 0x44 DUP3 ADD MSTORE PUSH1 0x64 ADD PUSH2 0xC19 JUMP JUMPDEST PUSH1 0x40 DUP1 MLOAD DUP1 DUP3 ADD SWAP1 SWAP2 MSTORE PUSH20 0xFFFFFFFFFFFFFFFFFFFFFFFFFFFFFFFFFFFFFFFF SWAP1 SWAP3 AND DUP1 DUP4 MSTORE PUSH12 0xFFFFFFFFFFFFFFFFFFFFFFFF SWAP1 SWAP2 AND PUSH1 0x20 SWAP1 SWAP3 ADD DUP3 SWAP1 MSTORE PUSH21 0x10000000000000000000000000000000000000000 SWAP1 SWAP2 MUL OR PUSH2 0x1C7 SSTORE JUMP JUMPDEST PUSH1 0x0 DUP2 DUP2 MSTORE PUSH2 0x1C6 PUSH1 0x20 MSTORE PUSH1 0x40 SWAP1 DUP2 SWAP1 KECCAK256 DUP1 SLOAD PUSH32 0xFFFFFFFFFFFFFFFFFFFFFFFFFFFFFFFFFFFFFFFFFFFFFFFFFFFFFFFFFFFFFF00 AND PUSH1 0x1 OR SWAP1 SSTORE MLOAD PUSH32 0x4D69B51FEE53C28BD8B61FE008151577CA65160B5248F6225E74D64FD4CF7328 SWAP1 PUSH2 0x2EC6 SWAP1 DUP4 DUP2 MSTORE PUSH1 0x20 ADD SWAP1 JUMP JUMPDEST PUSH1 0x0 PUSH32 0xFFFFFFFF00000000000000000000000000000000000000000000000000000000 DUP3 AND PUSH32 0x80AC58CD00000000000000000000000000000000000000000000000000000000 EQ DUP1 PUSH2 0x3767 JUMPI POP PUSH32 0xFFFFFFFF00000000000000000000000000000000000000000000000000000000 DUP3 AND PUSH32 0x5B5E139F00000000000000000000000000000000000000000000000000000000 EQ JUMPDEST DUP1 PUSH2 0xA88 JUMPI POP PUSH32 0x1FFC9A700000000000000000000000000000000000000000000000000000000 PUSH32 0xFFFFFFFF00000000000000000000000000000000000000000000000000000000 DUP4 AND EQ PUSH2 0xA88 JUMP JUMPDEST PUSH2 0x18C5 DUP3 DUP3 PUSH1 0x40 MLOAD DUP1 PUSH1 0x20 ADD PUSH1 0x40 MSTORE DUP1 PUSH1 0x0 DUP2 MSTORE POP PUSH2 0x3F46 JUMP JUMPDEST PUSH2 0x37D9 PUSH2 0x2448 JUMP JUMPDEST PUSH1 0x40 MLOAD PUSH32 0xA089479900000000000000000000000000000000000000000000000000000000 DUP2 MSTORE PUSH1 0x4 DUP2 ADD DUP3 SWAP1 MSTORE DUP2 SWAP1 ADDRESS SWAP1 PUSH4 0xA0894799 SWAP1 PUSH1 0x24 ADD PUSH1 0x20 PUSH1 0x40 MLOAD DUP1 DUP4 SUB DUP2 DUP7 GAS STATICCALL ISZERO DUP1 ISZERO PUSH2 0x3830 JUMPI RETURNDATASIZE PUSH1 0x0 DUP1 RETURNDATACOPY RETURNDATASIZE PUSH1 0x0 REVERT JUMPDEST POP POP POP POP PUSH1 0x40 MLOAD RETURNDATASIZE PUSH1 0x1F NOT PUSH1 0x1F DUP3 ADD AND DUP3 ADD DUP1 PUSH1 0x40 MSTORE POP DUP2 ADD SWAP1 PUSH2 0x3854 SWAP2 SWAP1 PUSH2 0x4F76 JUMP JUMPDEST ISZERO PUSH2 0x38BB JUMPI PUSH1 0x40 MLOAD PUSH32 0x8C379A000000000000000000000000000000000000000000000000000000000 DUP2 MSTORE PUSH1 0x20 PUSH1 0x4 DUP3 ADD MSTORE PUSH1 0xF PUSH1 0x24 DUP3 ADD MSTORE PUSH32 0x546F6B656E2069732066726F7A656E0000000000000000000000000000000000 PUSH1 0x44 DUP3 ADD MSTORE PUSH1 0x64 ADD PUSH2 0xC19 JUMP JUMPDEST PUSH2 0x1F14 DUP5 DUP5 DUP5 PUSH2 0x3FE9 JUMP JUMPDEST PUSH20 0xFFFFFFFFFFFFFFFFFFFFFFFFFFFFFFFFFFFFFFFF DUP2 AND EXTCODESIZE PUSH2 0x396A JUMPI PUSH1 0x40 MLOAD PUSH32 0x8C379A000000000000000000000000000000000000000000000000000000000 DUP2 MSTORE PUSH1 0x20 PUSH1 0x4 DUP3 ADD MSTORE PUSH1 0x2D PUSH1 0x24 DUP3 ADD MSTORE PUSH32 0x455243313936373A206E657720696D706C656D656E746174696F6E206973206E PUSH1 0x44 DUP3 ADD MSTORE PUSH32 0x6F74206120636F6E747261637400000000000000000000000000000000000000 PUSH1 0x64 DUP3 ADD MSTORE PUSH1 0x84 ADD PUSH2 0xC19 JUMP JUMPDEST PUSH32 0x360894A13BA1A3210667C828492DB98DCA3E2076CC3735A920A3CA505D382BBC DUP1 SLOAD PUSH32 0xFFFFFFFFFFFFFFFFFFFFFFFF0000000000000000000000000000000000000000 AND PUSH20 0xFFFFFFFFFFFFFFFFFFFFFFFFFFFFFFFFFFFFFFFF SWAP3 SWAP1 SWAP3 AND SWAP2 SWAP1 SWAP2 OR SWAP1 SSTORE JUMP JUMPDEST PUSH2 0x39D9 DUP4 PUSH2 0x40EF JUMP JUMPDEST PUSH1 0x0 DUP3 MLOAD GT DUP1 PUSH2 0x39E6 JUMPI POP DUP1 JUMPDEST ISZERO PUSH2 0xCE1 JUMPI PUSH2 0x1F14 DUP4 DUP4 PUSH2 0x413C JUMP JUMPDEST PUSH1 0xFB SLOAD PUSH1 0xFF AND PUSH2 0x134C JUMPI PUSH1 0x40 MLOAD PUSH32 0x8C379A000000000000000000000000000000000000000000000000000000000 DUP2 MSTORE PUSH1 0x20 PUSH1 0x4 DUP3 ADD MSTORE PUSH1 0x14 PUSH1 0x24 DUP3 ADD MSTORE PUSH32 0x5061757361626C653A206E6F7420706175736564000000000000000000000000 PUSH1 0x44 DUP3 ADD MSTORE PUSH1 0x64 ADD PUSH2 0xC19 JUMP JUMPDEST PUSH1 0x0 PUSH2 0x3A6C DUP3 PUSH2 0x1AEB JUMP JUMPDEST SWAP1 POP PUSH2 0x3A7A DUP2 PUSH1 0x0 DUP5 PUSH2 0x37D1 JUMP JUMPDEST PUSH2 0x3A85 PUSH1 0x0 DUP4 PUSH2 0x23A8 JUMP JUMPDEST PUSH20 0xFFFFFFFFFFFFFFFFFFFFFFFFFFFFFFFFFFFFFFFF DUP2 AND PUSH1 0x0 SWAP1 DUP2 MSTORE PUSH1 0x68 PUSH1 0x20 MSTORE PUSH1 0x40 DUP2 KECCAK256 DUP1 SLOAD PUSH1 0x1 SWAP3 SWAP1 PUSH2 0x3ABB SWAP1 DUP5 SWAP1 PUSH2 0x50EB JUMP JUMPDEST SWAP1 SWAP2 SSTORE POP POP PUSH1 0x0 DUP3 DUP2 MSTORE PUSH1 0x67 PUSH1 0x20 MSTORE PUSH1 0x40 DUP1 DUP3 KECCAK256 DUP1 SLOAD PUSH32 0xFFFFFFFFFFFFFFFFFFFFFFFF0000000000000000000000000000000000000000 AND SWAP1 SSTORE MLOAD DUP4 SWAP2 SWAP1 PUSH20 0xFFFFFFFFFFFFFFFFFFFFFFFFFFFFFFFFFFFFFFFF DUP5 AND SWAP1 PUSH32 0xDDF252AD1BE2C89B69C2B068FC378DAA952BA7F163C4A11628F55A4DF523B3EF SWAP1 DUP4 SWAP1 LOG4 POP POP JUMP JUMPDEST PUSH1 0x0 SLOAD PUSH2 0x100 SWAP1 DIV PUSH1 0xFF AND PUSH2 0x3BD1 JUMPI PUSH1 0x40 MLOAD PUSH32 0x8C379A000000000000000000000000000000000000000000000000000000000 DUP2 MSTORE PUSH1 0x20 PUSH1 0x4 DUP3 ADD MSTORE PUSH1 0x2B PUSH1 0x24 DUP3 ADD MSTORE PUSH32 0x496E697469616C697A61626C653A20636F6E7472616374206973206E6F742069 PUSH1 0x44 DUP3 ADD MSTORE PUSH32 0x6E697469616C697A696E67000000000000000000000000000000000000000000 PUSH1 0x64 DUP3 ADD MSTORE PUSH1 0x84 ADD PUSH2 0xC19 JUMP JUMPDEST DUP2 MLOAD PUSH2 0x3BE4 SWAP1 PUSH1 0x65 SWAP1 PUSH1 0x20 DUP6 ADD SWAP1 PUSH2 0x464A JUMP JUMPDEST POP DUP1 MLOAD PUSH2 0xCE1 SWAP1 PUSH1 0x66 SWAP1 PUSH1 0x20 DUP5 ADD SWAP1 PUSH2 0x464A JUMP JUMPDEST PUSH1 0x0 SLOAD PUSH2 0x100 SWAP1 DIV PUSH1 0xFF AND PUSH2 0x3C8F JUMPI PUSH1 0x40 MLOAD PUSH32 0x8C379A000000000000000000000000000000000000000000000000000000000 DUP2 MSTORE PUSH1 0x20 PUSH1 0x4 DUP3 ADD MSTORE PUSH1 0x2B PUSH1 0x24 DUP3 ADD MSTORE PUSH32 0x496E697469616C697A61626C653A20636F6E7472616374206973206E6F742069 PUSH1 0x44 DUP3 ADD MSTORE PUSH32 0x6E697469616C697A696E67000000000000000000000000000000000000000000 PUSH1 0x64 DUP3 ADD MSTORE PUSH1 0x84 ADD PUSH2 0xC19 JUMP JUMPDEST PUSH1 0xFB DUP1 SLOAD PUSH32 0xFFFFFFFFFFFFFFFFFFFFFFFFFFFFFFFFFFFFFFFFFFFFFFFFFFFFFFFFFFFFFF00 AND SWAP1 SSTORE JUMP JUMPDEST PUSH1 0x0 SLOAD PUSH2 0x100 SWAP1 DIV PUSH1 0xFF AND PUSH2 0x3D50 JUMPI PUSH1 0x40 MLOAD PUSH32 0x8C379A000000000000000000000000000000000000000000000000000000000 DUP2 MSTORE PUSH1 0x20 PUSH1 0x4 DUP3 ADD MSTORE PUSH1 0x2B PUSH1 0x24 DUP3 ADD MSTORE PUSH32 0x496E697469616C697A61626C653A20636F6E7472616374206973206E6F742069 PUSH1 0x44 DUP3 ADD MSTORE PUSH32 0x6E697469616C697A696E67000000000000000000000000000000000000000000 PUSH1 0x64 DUP3 ADD MSTORE PUSH1 0x84 ADD PUSH2 0xC19 JUMP JUMPDEST PUSH2 0x134C CALLER PUSH2 0x2ED1 JUMP JUMPDEST PUSH1 0x0 PUSH20 0xFFFFFFFFFFFFFFFFFFFFFFFFFFFFFFFFFFFFFFFF DUP5 AND EXTCODESIZE ISZERO PUSH2 0x3F3E JUMPI PUSH1 0x40 MLOAD PUSH32 0x150B7A0200000000000000000000000000000000000000000000000000000000 DUP2 MSTORE PUSH20 0xFFFFFFFFFFFFFFFFFFFFFFFFFFFFFFFFFFFFFFFF DUP6 AND SWAP1 PUSH4 0x150B7A02 SWAP1 PUSH2 0x3DD0 SWAP1 CALLER SWAP1 DUP10 SWAP1 DUP9 SWAP1 DUP9 SWAP1 PUSH1 0x4 ADD PUSH2 0x5152 JUMP JUMPDEST PUSH1 0x20 PUSH1 0x40 MLOAD DUP1 DUP4 SUB DUP2 PUSH1 0x0 DUP8 GAS CALL SWAP3 POP POP POP DUP1 ISZERO PUSH2 0x3E29 JUMPI POP PUSH1 0x40 DUP1 MLOAD PUSH1 0x1F RETURNDATASIZE SWAP1 DUP2 ADD PUSH32 0xFFFFFFFFFFFFFFFFFFFFFFFFFFFFFFFFFFFFFFFFFFFFFFFFFFFFFFFFFFFFFFE0 AND DUP3 ADD SWAP1 SWAP3 MSTORE PUSH2 0x3E26 SWAP2 DUP2 ADD SWAP1 PUSH2 0x519B JUMP JUMPDEST PUSH1 0x1 JUMPDEST PUSH2 0x3EF3 JUMPI RETURNDATASIZE DUP1 DUP1 ISZERO PUSH2 0x3E57 JUMPI PUSH1 0x40 MLOAD SWAP2 POP PUSH1 0x1F NOT PUSH1 0x3F RETURNDATASIZE ADD AND DUP3 ADD PUSH1 0x40 MSTORE RETURNDATASIZE DUP3 MSTORE RETURNDATASIZE PUSH1 0x0 PUSH1 0x20 DUP5 ADD RETURNDATACOPY PUSH2 0x3E5C JUMP JUMPDEST PUSH1 0x60 SWAP2 POP JUMPDEST POP DUP1 MLOAD PUSH2 0x3EEB JUMPI PUSH1 0x40 MLOAD PUSH32 0x8C379A000000000000000000000000000000000000000000000000000000000 DUP2 MSTORE PUSH1 0x20 PUSH1 0x4 DUP3 ADD MSTORE PUSH1 0x32 PUSH1 0x24 DUP3 ADD MSTORE PUSH32 0x4552433732313A207472616E7366657220746F206E6F6E204552433732315265 PUSH1 0x44 DUP3 ADD MSTORE PUSH32 0x63656976657220696D706C656D656E7465720000000000000000000000000000 PUSH1 0x64 DUP3 ADD MSTORE PUSH1 0x84 ADD PUSH2 0xC19 JUMP JUMPDEST DUP1 MLOAD DUP2 PUSH1 0x20 ADD REVERT JUMPDEST PUSH32 0xFFFFFFFF00000000000000000000000000000000000000000000000000000000 AND PUSH32 0x150B7A0200000000000000000000000000000000000000000000000000000000 EQ SWAP1 POP PUSH2 0xD74 JUMP JUMPDEST POP PUSH1 0x1 PUSH2 0xD74 JUMP JUMPDEST PUSH2 0x3F50 DUP4 DUP4 PUSH2 0x4272 JUMP JUMPDEST PUSH2 0x3F5D PUSH1 0x0 DUP5 DUP5 DUP5 PUSH2 0x3D59 JUMP JUMPDEST PUSH2 0xCE1 JUMPI PUSH1 0x40 MLOAD PUSH32 0x8C379A000000000000000000000000000000000000000000000000000000000 DUP2 MSTORE PUSH1 0x20 PUSH1 0x4 DUP3 ADD MSTORE PUSH1 0x32 PUSH1 0x24 DUP3 ADD MSTORE PUSH32 0x4552433732313A207472616E7366657220746F206E6F6E204552433732315265 PUSH1 0x44 DUP3 ADD MSTORE PUSH32 0x63656976657220696D706C656D656E7465720000000000000000000000000000 PUSH1 0x64 DUP3 ADD MSTORE PUSH1 0x84 ADD PUSH2 0xC19 JUMP JUMPDEST PUSH20 0xFFFFFFFFFFFFFFFFFFFFFFFFFFFFFFFFFFFFFFFF DUP4 AND PUSH2 0x4051 JUMPI PUSH2 0x404C DUP2 PUSH1 0x99 DUP1 SLOAD PUSH1 0x0 DUP4 DUP2 MSTORE PUSH1 0x9A PUSH1 0x20 MSTORE PUSH1 0x40 DUP2 KECCAK256 DUP3 SWAP1 SSTORE PUSH1 0x1 DUP3 ADD DUP4 SSTORE SWAP2 SWAP1 SWAP2 MSTORE PUSH32 0x72A152DDFB8E864297C917AF52EA6C1C68AEAD0FEE1A62673FCC7E0C94979D00 ADD SSTORE JUMP JUMPDEST PUSH2 0x408E JUMP JUMPDEST DUP2 PUSH20 0xFFFFFFFFFFFFFFFFFFFFFFFFFFFFFFFFFFFFFFFF AND DUP4 PUSH20 0xFFFFFFFFFFFFFFFFFFFFFFFFFFFFFFFFFFFFFFFF AND EQ PUSH2 0x408E JUMPI PUSH2 0x408E DUP4 DUP3 PUSH2 0x4440 JUMP JUMPDEST PUSH20 0xFFFFFFFFFFFFFFFFFFFFFFFFFFFFFFFFFFFFFFFF DUP3 AND PUSH2 0x40B2 JUMPI PUSH2 0xCE1 DUP2 PUSH2 0x44F7 JUMP JUMPDEST DUP3 PUSH20 0xFFFFFFFFFFFFFFFFFFFFFFFFFFFFFFFFFFFFFFFF AND DUP3 PUSH20 0xFFFFFFFFFFFFFFFFFFFFFFFFFFFFFFFFFFFFFFFF AND EQ PUSH2 0xCE1 JUMPI PUSH2 0xCE1 DUP3 DUP3 PUSH2 0x45A6 JUMP JUMPDEST PUSH2 0x40F8 DUP2 PUSH2 0x38C6 JUMP JUMPDEST PUSH1 0x40 MLOAD PUSH20 0xFFFFFFFFFFFFFFFFFFFFFFFFFFFFFFFFFFFFFFFF DUP3 AND SWAP1 PUSH32 0xBC7CD75A20EE27FD9ADEBAB32041F755214DBC6BFFA90CC0225B39DA2E5C2D3B SWAP1 PUSH1 0x0 SWAP1 LOG2 POP JUMP JUMPDEST PUSH1 0x60 PUSH20 0xFFFFFFFFFFFFFFFFFFFFFFFFFFFFFFFFFFFFFFFF DUP4 AND EXTCODESIZE PUSH2 0x41E2 JUMPI PUSH1 0x40 MLOAD PUSH32 0x8C379A000000000000000000000000000000000000000000000000000000000 DUP2 MSTORE PUSH1 0x20 PUSH1 0x4 DUP3 ADD MSTORE PUSH1 0x26 PUSH1 0x24 DUP3 ADD MSTORE PUSH32 0x416464726573733A2064656C65676174652063616C6C20746F206E6F6E2D636F PUSH1 0x44 DUP3 ADD MSTORE PUSH32 0x6E74726163740000000000000000000000000000000000000000000000000000 PUSH1 0x64 DUP3 ADD MSTORE PUSH1 0x84 ADD PUSH2 0xC19 JUMP JUMPDEST PUSH1 0x0 DUP1 DUP5 PUSH20 0xFFFFFFFFFFFFFFFFFFFFFFFFFFFFFFFFFFFFFFFF AND DUP5 PUSH1 0x40 MLOAD PUSH2 0x420A SWAP2 SWAP1 PUSH2 0x51B8 JUMP JUMPDEST PUSH1 0x0 PUSH1 0x40 MLOAD DUP1 DUP4 SUB DUP2 DUP6 GAS DELEGATECALL SWAP2 POP POP RETURNDATASIZE DUP1 PUSH1 0x0 DUP2 EQ PUSH2 0x4245 JUMPI PUSH1 0x40 MLOAD SWAP2 POP PUSH1 0x1F NOT PUSH1 0x3F RETURNDATASIZE ADD AND DUP3 ADD PUSH1 0x40 MSTORE RETURNDATASIZE DUP3 MSTORE RETURNDATASIZE PUSH1 0x0 PUSH1 0x20 DUP5 ADD RETURNDATACOPY PUSH2 0x424A JUMP JUMPDEST PUSH1 0x60 SWAP2 POP JUMPDEST POP SWAP2 POP SWAP2 POP PUSH2 0x1E07 DUP3 DUP3 PUSH1 0x40 MLOAD DUP1 PUSH1 0x60 ADD PUSH1 0x40 MSTORE DUP1 PUSH1 0x27 DUP2 MSTORE PUSH1 0x20 ADD PUSH2 0x5204 PUSH1 0x27 SWAP2 CODECOPY PUSH2 0x45F7 JUMP JUMPDEST PUSH20 0xFFFFFFFFFFFFFFFFFFFFFFFFFFFFFFFFFFFFFFFF DUP3 AND PUSH2 0x42EF JUMPI PUSH1 0x40 MLOAD PUSH32 0x8C379A000000000000000000000000000000000000000000000000000000000 DUP2 MSTORE PUSH1 0x20 PUSH1 0x4 DUP3 ADD DUP2 SWAP1 MSTORE PUSH1 0x24 DUP3 ADD MSTORE PUSH32 0x4552433732313A206D696E7420746F20746865207A65726F2061646472657373 PUSH1 0x44 DUP3 ADD MSTORE PUSH1 0x64 ADD PUSH2 0xC19 JUMP JUMPDEST PUSH1 0x0 DUP2 DUP2 MSTORE PUSH1 0x67 PUSH1 0x20 MSTORE PUSH1 0x40 SWAP1 KECCAK256 SLOAD PUSH20 0xFFFFFFFFFFFFFFFFFFFFFFFFFFFFFFFFFFFFFFFF AND ISZERO PUSH2 0x437B JUMPI PUSH1 0x40 MLOAD PUSH32 0x8C379A000000000000000000000000000000000000000000000000000000000 DUP2 MSTORE PUSH1 0x20 PUSH1 0x4 DUP3 ADD MSTORE PUSH1 0x1C PUSH1 0x24 DUP3 ADD MSTORE PUSH32 0x4552433732313A20746F6B656E20616C7265616479206D696E74656400000000 PUSH1 0x44 DUP3 ADD MSTORE PUSH1 0x64 ADD PUSH2 0xC19 JUMP JUMPDEST PUSH2 0x4387 PUSH1 0x0 DUP4 DUP4 PUSH2 0x37D1 JUMP JUMPDEST PUSH20 0xFFFFFFFFFFFFFFFFFFFFFFFFFFFFFFFFFFFFFFFF DUP3 AND PUSH1 0x0 SWAP1 DUP2 MSTORE PUSH1 0x68 PUSH1 0x20 MSTORE PUSH1 0x40 DUP2 KECCAK256 DUP1 SLOAD PUSH1 0x1 SWAP3 SWAP1 PUSH2 0x43BD SWAP1 DUP5 SWAP1 PUSH2 0x4EA5 JUMP JUMPDEST SWAP1 SWAP2 SSTORE POP POP PUSH1 0x0 DUP2 DUP2 MSTORE PUSH1 0x67 PUSH1 0x20 MSTORE PUSH1 0x40 DUP1 DUP3 KECCAK256 DUP1 SLOAD PUSH32 0xFFFFFFFFFFFFFFFFFFFFFFFF0000000000000000000000000000000000000000 AND PUSH20 0xFFFFFFFFFFFFFFFFFFFFFFFFFFFFFFFFFFFFFFFF DUP7 AND SWAP1 DUP2 OR SWAP1 SWAP2 SSTORE SWAP1 MLOAD DUP4 SWAP3 SWAP1 PUSH32 0xDDF252AD1BE2C89B69C2B068FC378DAA952BA7F163C4A11628F55A4DF523B3EF SWAP1 DUP3 SWAP1 LOG4 POP POP JUMP JUMPDEST PUSH1 0x0 PUSH1 0x1 PUSH2 0x444D DUP5 PUSH2 0x1C90 JUMP JUMPDEST PUSH2 0x4457 SWAP2 SWAP1 PUSH2 0x50EB JUMP JUMPDEST PUSH1 0x0 DUP4 DUP2 MSTORE PUSH1 0x98 PUSH1 0x20 MSTORE PUSH1 0x40 SWAP1 KECCAK256 SLOAD SWAP1 SWAP2 POP DUP1 DUP3 EQ PUSH2 0x44B7 JUMPI PUSH20 0xFFFFFFFFFFFFFFFFFFFFFFFFFFFFFFFFFFFFFFFF DUP5 AND PUSH1 0x0 SWAP1 DUP2 MSTORE PUSH1 0x97 PUSH1 0x20 SWAP1 DUP2 MSTORE PUSH1 0x40 DUP1 DUP4 KECCAK256 DUP6 DUP5 MSTORE DUP3 MSTORE DUP1 DUP4 KECCAK256 SLOAD DUP5 DUP5 MSTORE DUP2 DUP5 KECCAK256 DUP2 SWAP1 SSTORE DUP4 MSTORE PUSH1 0x98 SWAP1 SWAP2 MSTORE SWAP1 KECCAK256 DUP2 SWAP1 SSTORE JUMPDEST POP PUSH1 0x0 SWAP2 DUP3 MSTORE PUSH1 0x98 PUSH1 0x20 SWAP1 DUP2 MSTORE PUSH1 0x40 DUP1 DUP5 KECCAK256 DUP5 SWAP1 SSTORE PUSH20 0xFFFFFFFFFFFFFFFFFFFFFFFFFFFFFFFFFFFFFFFF SWAP1 SWAP5 AND DUP4 MSTORE PUSH1 0x97 DUP2 MSTORE DUP4 DUP4 KECCAK256 SWAP2 DUP4 MSTORE MSTORE SWAP1 DUP2 KECCAK256 SSTORE JUMP JUMPDEST PUSH1 0x99 SLOAD PUSH1 0x0 SWAP1 PUSH2 0x4509 SWAP1 PUSH1 0x1 SWAP1 PUSH2 0x50EB JUMP JUMPDEST PUSH1 0x0 DUP4 DUP2 MSTORE PUSH1 0x9A PUSH1 0x20 MSTORE PUSH1 0x40 DUP2 KECCAK256 SLOAD PUSH1 0x99 DUP1 SLOAD SWAP4 SWAP5 POP SWAP1 SWAP3 DUP5 SWAP1 DUP2 LT PUSH2 0x4531 JUMPI PUSH2 0x4531 PUSH2 0x4E47 JUMP JUMPDEST SWAP1 PUSH1 0x0 MSTORE PUSH1 0x20 PUSH1 0x0 KECCAK256 ADD SLOAD SWAP1 POP DUP1 PUSH1 0x99 DUP4 DUP2 SLOAD DUP2 LT PUSH2 0x4552 JUMPI PUSH2 0x4552 PUSH2 0x4E47 JUMP JUMPDEST PUSH1 0x0 SWAP2 DUP3 MSTORE PUSH1 0x20 DUP1 DUP4 KECCAK256 SWAP1 SWAP2 ADD SWAP3 SWAP1 SWAP3 SSTORE DUP3 DUP2 MSTORE PUSH1 0x9A SWAP1 SWAP2 MSTORE PUSH1 0x40 DUP1 DUP3 KECCAK256 DUP5 SWAP1 SSTORE DUP6 DUP3 MSTORE DUP2 KECCAK256 SSTORE PUSH1 0x99 DUP1 SLOAD DUP1 PUSH2 0x458A JUMPI PUSH2 0x458A PUSH2 0x51D4 JUMP JUMPDEST PUSH1 0x1 SWAP1 SUB DUP2 DUP2 SWAP1 PUSH1 0x0 MSTORE PUSH1 0x20 PUSH1 0x0 KECCAK256 ADD PUSH1 0x0 SWAP1 SSTORE SWAP1 SSTORE POP POP POP POP JUMP JUMPDEST PUSH1 0x0 PUSH2 0x45B1 DUP4 PUSH2 0x1C90 JUMP JUMPDEST PUSH20 0xFFFFFFFFFFFFFFFFFFFFFFFFFFFFFFFFFFFFFFFF SWAP1 SWAP4 AND PUSH1 0x0 SWAP1 DUP2 MSTORE PUSH1 0x97 PUSH1 0x20 SWAP1 DUP2 MSTORE PUSH1 0x40 DUP1 DUP4 KECCAK256 DUP7 DUP5 MSTORE DUP3 MSTORE DUP1 DUP4 KECCAK256 DUP6 SWAP1 SSTORE SWAP4 DUP3 MSTORE PUSH1 0x98 SWAP1 MSTORE SWAP2 SWAP1 SWAP2 KECCAK256 SWAP2 SWAP1 SWAP2 SSTORE POP JUMP JUMPDEST PUSH1 0x60 DUP4 ISZERO PUSH2 0x4606 JUMPI POP DUP2 PUSH2 0x220C JUMP JUMPDEST DUP3 MLOAD ISZERO PUSH2 0x4616 JUMPI DUP3 MLOAD DUP1 DUP5 PUSH1 0x20 ADD REVERT JUMPDEST DUP2 PUSH1 0x40 MLOAD PUSH32 0x8C379A000000000000000000000000000000000000000000000000000000000 DUP2 MSTORE PUSH1 0x4 ADD PUSH2 0xC19 SWAP2 SWAP1 PUSH2 0x47A4 JUMP JUMPDEST DUP3 DUP1 SLOAD PUSH2 0x4656 SWAP1 PUSH2 0x4DF3 JUMP JUMPDEST SWAP1 PUSH1 0x0 MSTORE PUSH1 0x20 PUSH1 0x0 KECCAK256 SWAP1 PUSH1 0x1F ADD PUSH1 0x20 SWAP1 DIV DUP2 ADD SWAP3 DUP3 PUSH2 0x4678 JUMPI PUSH1 0x0 DUP6 SSTORE PUSH2 0x46BE JUMP JUMPDEST DUP3 PUSH1 0x1F LT PUSH2 0x4691 JUMPI DUP1 MLOAD PUSH1 0xFF NOT AND DUP4 DUP1 ADD OR DUP6 SSTORE PUSH2 0x46BE JUMP JUMPDEST DUP3 DUP1 ADD PUSH1 0x1 ADD DUP6 SSTORE DUP3 ISZERO PUSH2 0x46BE JUMPI SWAP2 DUP3 ADD JUMPDEST DUP3 DUP2 GT ISZERO PUSH2 0x46BE JUMPI DUP3 MLOAD DUP3 SSTORE SWAP2 PUSH1 0x20 ADD SWAP2 SWAP1 PUSH1 0x1 ADD SWAP1 PUSH2 0x46A3 JUMP JUMPDEST POP PUSH2 0x46CA SWAP3 SWAP2 POP PUSH2 0x46CE JUMP JUMPDEST POP SWAP1 JUMP JUMPDEST JUMPDEST DUP1 DUP3 GT ISZERO PUSH2 0x46CA JUMPI PUSH1 0x0 DUP2 SSTORE PUSH1 0x1 ADD PUSH2 0x46CF JUMP JUMPDEST PUSH32 0xFFFFFFFF00000000000000000000000000000000000000000000000000000000 DUP2 AND DUP2 EQ PUSH2 0x1339 JUMPI PUSH1 0x0 DUP1 REVERT JUMPDEST PUSH1 0x0 PUSH1 0x20 DUP3 DUP5 SUB SLT ISZERO PUSH2 0x4723 JUMPI PUSH1 0x0 DUP1 REVERT JUMPDEST DUP2 CALLDATALOAD PUSH2 0x220C DUP2 PUSH2 0x46E3 JUMP JUMPDEST PUSH1 0x0 JUMPDEST DUP4 DUP2 LT ISZERO PUSH2 0x4749 JUMPI DUP2 DUP2 ADD MLOAD DUP4 DUP3 ADD MSTORE PUSH1 0x20 ADD PUSH2 0x4731 JUMP JUMPDEST DUP4 DUP2 GT ISZERO PUSH2 0x1F14 JUMPI POP POP PUSH1 0x0 SWAP2 ADD MSTORE JUMP JUMPDEST PUSH1 0x0 DUP2 MLOAD DUP1 DUP5 MSTORE PUSH2 0x4772 DUP2 PUSH1 0x20 DUP7 ADD PUSH1 0x20 DUP7 ADD PUSH2 0x472E JUMP JUMPDEST PUSH1 0x1F ADD PUSH32 0xFFFFFFFFFFFFFFFFFFFFFFFFFFFFFFFFFFFFFFFFFFFFFFFFFFFFFFFFFFFFFFE0 AND SWAP3 SWAP1 SWAP3 ADD PUSH1 0x20 ADD SWAP3 SWAP2 POP POP JUMP JUMPDEST PUSH1 0x20 DUP2 MSTORE PUSH1 0x0 PUSH2 0x220C PUSH1 0x20 DUP4 ADD DUP5 PUSH2 0x475A JUMP JUMPDEST PUSH1 0x0 PUSH1 0x20 DUP3 DUP5 SUB SLT ISZERO PUSH2 0x47C9 JUMPI PUSH1 0x0 DUP1 REVERT JUMPDEST POP CALLDATALOAD SWAP2 SWAP1 POP JUMP JUMPDEST DUP1 CALLDATALOAD PUSH20 0xFFFFFFFFFFFFFFFFFFFFFFFFFFFFFFFFFFFFFFFF DUP2 AND DUP2 EQ PUSH2 0x47F4 JUMPI PUSH1 0x0 DUP1 REVERT JUMPDEST SWAP2 SWAP1 POP JUMP JUMPDEST PUSH1 0x0 DUP1 PUSH1 0x40 DUP4 DUP6 SUB SLT ISZERO PUSH2 0x480C JUMPI PUSH1 0x0 DUP1 REVERT JUMPDEST PUSH2 0x4815 DUP4 PUSH2 0x47D0 JUMP JUMPDEST SWAP5 PUSH1 0x20 SWAP4 SWAP1 SWAP4 ADD CALLDATALOAD SWAP4 POP POP POP JUMP JUMPDEST PUSH32 0x4E487B7100000000000000000000000000000000000000000000000000000000 PUSH1 0x0 MSTORE PUSH1 0x41 PUSH1 0x4 MSTORE PUSH1 0x24 PUSH1 0x0 REVERT JUMPDEST PUSH1 0x40 MLOAD PUSH1 0x1F DUP3 ADD PUSH32 0xFFFFFFFFFFFFFFFFFFFFFFFFFFFFFFFFFFFFFFFFFFFFFFFFFFFFFFFFFFFFFFE0 AND DUP2 ADD PUSH8 0xFFFFFFFFFFFFFFFF DUP2 GT DUP3 DUP3 LT OR ISZERO PUSH2 0x4899 JUMPI PUSH2 0x4899 PUSH2 0x4823 JUMP JUMPDEST PUSH1 0x40 MSTORE SWAP2 SWAP1 POP JUMP JUMPDEST PUSH1 0x0 PUSH8 0xFFFFFFFFFFFFFFFF DUP3 GT ISZERO PUSH2 0x48BB JUMPI PUSH2 0x48BB PUSH2 0x4823 JUMP JUMPDEST POP PUSH1 0x5 SHL PUSH1 0x20 ADD SWAP1 JUMP JUMPDEST DUP1 ISZERO ISZERO DUP2 EQ PUSH2 0x1339 JUMPI PUSH1 0x0 DUP1 REVERT JUMPDEST DUP1 CALLDATALOAD PUSH2 0x47F4 DUP2 PUSH2 0x48C5 JUMP JUMPDEST DUP1 CALLDATALOAD PUSH8 0xFFFFFFFFFFFFFFFF DUP2 AND DUP2 EQ PUSH2 0x47F4 JUMPI PUSH1 0x0 DUP1 REVERT JUMPDEST PUSH1 0x0 DUP1 PUSH1 0x0 DUP1 PUSH1 0x80 DUP6 DUP8 SUB SLT ISZERO PUSH2 0x490C JUMPI PUSH1 0x0 DUP1 REVERT JUMPDEST DUP5 CALLDATALOAD PUSH8 0xFFFFFFFFFFFFFFFF DUP2 GT ISZERO PUSH2 0x4923 JUMPI PUSH1 0x0 DUP1 REVERT JUMPDEST DUP6 ADD PUSH1 0x1F DUP2 ADD DUP8 SGT PUSH2 0x4934 JUMPI PUSH1 0x0 DUP1 REVERT JUMPDEST DUP1 CALLDATALOAD PUSH1 0x20 PUSH2 0x4949 PUSH2 0x4944 DUP4 PUSH2 0x48A1 JUMP JUMPDEST PUSH2 0x4852 JUMP JUMPDEST DUP3 DUP2 MSTORE PUSH1 0x5 SWAP3 SWAP1 SWAP3 SHL DUP4 ADD DUP2 ADD SWAP2 DUP2 DUP2 ADD SWAP1 DUP11 DUP5 GT ISZERO PUSH2 0x4968 JUMPI PUSH1 0x0 DUP1 REVERT JUMPDEST SWAP4 DUP3 ADD SWAP4 JUMPDEST DUP4 DUP6 LT ISZERO PUSH2 0x4986 JUMPI DUP5 CALLDATALOAD DUP3 MSTORE SWAP4 DUP3 ADD SWAP4 SWAP1 DUP3 ADD SWAP1 PUSH2 0x496D JUMP JUMPDEST SWAP8 POP PUSH2 0x4995 SWAP1 POP DUP9 DUP3 ADD PUSH2 0x47D0 JUMP JUMPDEST SWAP6 POP POP POP POP PUSH2 0x49A6 PUSH1 0x40 DUP7 ADD PUSH2 0x48D3 JUMP JUMPDEST SWAP2 POP PUSH2 0x49B4 PUSH1 0x60 DUP7 ADD PUSH2 0x48DE JUMP JUMPDEST SWAP1 POP SWAP3 SWAP6 SWAP2 SWAP5 POP SWAP3 POP JUMP JUMPDEST PUSH1 0x0 DUP1 PUSH1 0x0 PUSH1 0x60 DUP5 DUP7 SUB SLT ISZERO PUSH2 0x49D4 JUMPI PUSH1 0x0 DUP1 REVERT JUMPDEST PUSH2 0x49DD DUP5 PUSH2 0x47D0 JUMP JUMPDEST SWAP3 POP PUSH2 0x49EB PUSH1 0x20 DUP6 ADD PUSH2 0x47D0 JUMP JUMPDEST SWAP2 POP PUSH1 0x40 DUP5 ADD CALLDATALOAD SWAP1 POP SWAP3 POP SWAP3 POP SWAP3 JUMP JUMPDEST PUSH1 0x0 DUP1 PUSH1 0x40 DUP4 DUP6 SUB SLT ISZERO PUSH2 0x4A0E JUMPI PUSH1 0x0 DUP1 REVERT JUMPDEST POP POP DUP1 CALLDATALOAD SWAP3 PUSH1 0x20 SWAP1 SWAP2 ADD CALLDATALOAD SWAP2 POP JUMP JUMPDEST PUSH1 0x0 PUSH1 0x20 DUP3 DUP5 SUB SLT ISZERO PUSH2 0x4A2F JUMPI PUSH1 0x0 DUP1 REVERT JUMPDEST PUSH2 0x220C DUP3 PUSH2 0x47D0 JUMP JUMPDEST PUSH1 0x0 DUP3 PUSH1 0x1F DUP4 ADD SLT PUSH2 0x4A49 JUMPI PUSH1 0x0 DUP1 REVERT JUMPDEST DUP2 CALLDATALOAD PUSH8 0xFFFFFFFFFFFFFFFF DUP2 GT ISZERO PUSH2 0x4A63 JUMPI PUSH2 0x4A63 PUSH2 0x4823 JUMP JUMPDEST PUSH2 0x4A94 PUSH1 0x20 PUSH32 0xFFFFFFFFFFFFFFFFFFFFFFFFFFFFFFFFFFFFFFFFFFFFFFFFFFFFFFFFFFFFFFE0 PUSH1 0x1F DUP5 ADD AND ADD PUSH2 0x4852 JUMP JUMPDEST DUP2 DUP2 MSTORE DUP5 PUSH1 0x20 DUP4 DUP7 ADD ADD GT ISZERO PUSH2 0x4AA9 JUMPI PUSH1 0x0 DUP1 REVERT JUMPDEST DUP2 PUSH1 0x20 DUP6 ADD PUSH1 0x20 DUP4 ADD CALLDATACOPY PUSH1 0x0 SWAP2 DUP2 ADD PUSH1 0x20 ADD SWAP2 SWAP1 SWAP2 MSTORE SWAP4 SWAP3 POP POP POP JUMP JUMPDEST PUSH1 0x0 DUP1 PUSH1 0x40 DUP4 DUP6 SUB SLT ISZERO PUSH2 0x4AD9 JUMPI PUSH1 0x0 DUP1 REVERT JUMPDEST DUP3 CALLDATALOAD PUSH8 0xFFFFFFFFFFFFFFFF DUP1 DUP3 GT ISZERO PUSH2 0x4AF1 JUMPI PUSH1 0x0 DUP1 REVERT JUMPDEST PUSH2 0x4AFD DUP7 DUP4 DUP8 ADD PUSH2 0x4A38 JUMP JUMPDEST SWAP4 POP PUSH1 0x20 DUP6 ADD CALLDATALOAD SWAP2 POP DUP1 DUP3 GT ISZERO PUSH2 0x4B13 JUMPI PUSH1 0x0 DUP1 REVERT JUMPDEST POP PUSH2 0x4B20 DUP6 DUP3 DUP7 ADD PUSH2 0x4A38 JUMP JUMPDEST SWAP2 POP POP SWAP3 POP SWAP3 SWAP1 POP JUMP JUMPDEST PUSH1 0x0 DUP1 PUSH1 0x40 DUP4 DUP6 SUB SLT ISZERO PUSH2 0x4B3D JUMPI PUSH1 0x0 DUP1 REVERT JUMPDEST PUSH2 0x4B46 DUP4 PUSH2 0x47D0 JUMP JUMPDEST SWAP2 POP PUSH1 0x20 DUP4 ADD CALLDATALOAD PUSH8 0xFFFFFFFFFFFFFFFF DUP2 GT ISZERO PUSH2 0x4B62 JUMPI PUSH1 0x0 DUP1 REVERT JUMPDEST PUSH2 0x4B20 DUP6 DUP3 DUP7 ADD PUSH2 0x4A38 JUMP JUMPDEST PUSH1 0x0 DUP1 PUSH1 0x40 DUP4 DUP6 SUB SLT ISZERO PUSH2 0x4B81 JUMPI PUSH1 0x0 DUP1 REVERT JUMPDEST DUP3 CALLDATALOAD SWAP2 POP PUSH2 0x1C87 PUSH1 0x20 DUP5 ADD PUSH2 0x48DE JUMP JUMPDEST DUP1 CALLDATALOAD PUSH12 0xFFFFFFFFFFFFFFFFFFFFFFFF DUP2 AND DUP2 EQ PUSH2 0x47F4 JUMPI PUSH1 0x0 DUP1 REVERT JUMPDEST PUSH1 0x0 DUP1 PUSH1 0x0 PUSH1 0x60 DUP5 DUP7 SUB SLT ISZERO PUSH2 0x4BC2 JUMPI PUSH1 0x0 DUP1 REVERT JUMPDEST DUP4 CALLDATALOAD SWAP3 POP PUSH2 0x4BD2 PUSH1 0x20 DUP6 ADD PUSH2 0x47D0 JUMP JUMPDEST SWAP2 POP PUSH2 0x4BE0 PUSH1 0x40 DUP6 ADD PUSH2 0x4B91 JUMP JUMPDEST SWAP1 POP SWAP3 POP SWAP3 POP SWAP3 JUMP JUMPDEST PUSH1 0x0 PUSH1 0x20 DUP3 DUP5 SUB SLT ISZERO PUSH2 0x4BFB JUMPI PUSH1 0x0 DUP1 REVERT JUMPDEST DUP2 CALLDATALOAD PUSH8 0xFFFFFFFFFFFFFFFF DUP2 GT ISZERO PUSH2 0x4C12 JUMPI PUSH1 0x0 DUP1 REVERT JUMPDEST PUSH2 0xD74 DUP5 DUP3 DUP6 ADD PUSH2 0x4A38 JUMP JUMPDEST PUSH1 0x0 DUP1 PUSH1 0x0 DUP1 PUSH1 0x80 DUP6 DUP8 SUB SLT ISZERO PUSH2 0x4C34 JUMPI PUSH1 0x0 DUP1 REVERT JUMPDEST DUP5 CALLDATALOAD SWAP4 POP PUSH2 0x4C44 PUSH1 0x20 DUP7 ADD PUSH2 0x47D0 JUMP JUMPDEST SWAP3 POP PUSH1 0x40 DUP6 ADD CALLDATALOAD PUSH2 0x49A6 DUP2 PUSH2 0x48C5 JUMP JUMPDEST PUSH1 0x0 DUP1 PUSH1 0x40 DUP4 DUP6 SUB SLT ISZERO PUSH2 0x4C67 JUMPI PUSH1 0x0 DUP1 REVERT JUMPDEST PUSH2 0x4C70 DUP4 PUSH2 0x47D0 JUMP JUMPDEST SWAP2 POP PUSH1 0x20 DUP4 ADD CALLDATALOAD PUSH2 0x4C80 DUP2 PUSH2 0x48C5 JUMP JUMPDEST DUP1 SWAP2 POP POP SWAP3 POP SWAP3 SWAP1 POP JUMP JUMPDEST PUSH1 0x0 DUP1 PUSH1 0x0 DUP1 PUSH1 0x80 DUP6 DUP8 SUB SLT ISZERO PUSH2 0x4CA1 JUMPI PUSH1 0x0 DUP1 REVERT JUMPDEST PUSH2 0x4CAA DUP6 PUSH2 0x47D0 JUMP JUMPDEST SWAP4 POP PUSH2 0x4CB8 PUSH1 0x20 DUP7 ADD PUSH2 0x47D0 JUMP JUMPDEST SWAP3 POP PUSH1 0x40 DUP6 ADD CALLDATALOAD SWAP2 POP PUSH1 0x60 DUP6 ADD CALLDATALOAD PUSH8 0xFFFFFFFFFFFFFFFF DUP2 GT ISZERO PUSH2 0x4CDB JUMPI PUSH1 0x0 DUP1 REVERT JUMPDEST PUSH2 0x4CE7 DUP8 DUP3 DUP9 ADD PUSH2 0x4A38 JUMP JUMPDEST SWAP2 POP POP SWAP3 SWAP6 SWAP2 SWAP5 POP SWAP3 POP JUMP JUMPDEST PUSH1 0x0 DUP1 PUSH1 0x0 DUP1 PUSH1 0x80 DUP6 DUP8 SUB SLT ISZERO PUSH2 0x4D09 JUMPI PUSH1 0x0 DUP1 REVERT JUMPDEST DUP5 CALLDATALOAD SWAP4 POP PUSH1 0x20 DUP1 DUP7 ADD CALLDATALOAD PUSH8 0xFFFFFFFFFFFFFFFF DUP2 GT ISZERO PUSH2 0x4D28 JUMPI PUSH1 0x0 DUP1 REVERT JUMPDEST DUP7 ADD PUSH1 0x1F DUP2 ADD DUP9 SGT PUSH2 0x4D39 JUMPI PUSH1 0x0 DUP1 REVERT JUMPDEST DUP1 CALLDATALOAD PUSH2 0x4D47 PUSH2 0x4944 DUP3 PUSH2 0x48A1 JUMP JUMPDEST DUP2 DUP2 MSTORE PUSH1 0x5 SWAP2 SWAP1 SWAP2 SHL DUP3 ADD DUP4 ADD SWAP1 DUP4 DUP2 ADD SWAP1 DUP11 DUP4 GT ISZERO PUSH2 0x4D66 JUMPI PUSH1 0x0 DUP1 REVERT JUMPDEST SWAP3 DUP5 ADD SWAP3 JUMPDEST DUP3 DUP5 LT ISZERO PUSH2 0x4D8B JUMPI PUSH2 0x4D7C DUP5 PUSH2 0x47D0 JUMP JUMPDEST DUP3 MSTORE SWAP3 DUP5 ADD SWAP3 SWAP1 DUP5 ADD SWAP1 PUSH2 0x4D6B JUMP JUMPDEST DUP1 SWAP8 POP POP POP POP POP POP PUSH2 0x49A6 PUSH1 0x40 DUP7 ADD PUSH2 0x48D3 JUMP JUMPDEST PUSH1 0x0 DUP1 PUSH1 0x40 DUP4 DUP6 SUB SLT ISZERO PUSH2 0x4DB2 JUMPI PUSH1 0x0 DUP1 REVERT JUMPDEST PUSH2 0x4DBB DUP4 PUSH2 0x47D0 JUMP JUMPDEST SWAP2 POP PUSH2 0x1C87 PUSH1 0x20 DUP5 ADD PUSH2 0x4B91 JUMP JUMPDEST PUSH1 0x0 DUP1 PUSH1 0x40 DUP4 DUP6 SUB SLT ISZERO PUSH2 0x4DDC JUMPI PUSH1 0x0 DUP1 REVERT JUMPDEST PUSH2 0x4DE5 DUP4 PUSH2 0x47D0 JUMP JUMPDEST SWAP2 POP PUSH2 0x1C87 PUSH1 0x20 DUP5 ADD PUSH2 0x47D0 JUMP JUMPDEST PUSH1 0x1 DUP2 DUP2 SHR SWAP1 DUP3 AND DUP1 PUSH2 0x4E07 JUMPI PUSH1 0x7F DUP3 AND SWAP2 POP JUMPDEST PUSH1 0x20 DUP3 LT DUP2 EQ ISZERO PUSH2 0x4E41 JUMPI PUSH32 0x4E487B7100000000000000000000000000000000000000000000000000000000 PUSH1 0x0 MSTORE PUSH1 0x22 PUSH1 0x4 MSTORE PUSH1 0x24 PUSH1 0x0 REVERT JUMPDEST POP SWAP2 SWAP1 POP JUMP JUMPDEST PUSH32 0x4E487B7100000000000000000000000000000000000000000000000000000000 PUSH1 0x0 MSTORE PUSH1 0x32 PUSH1 0x4 MSTORE PUSH1 0x24 PUSH1 0x0 REVERT JUMPDEST PUSH32 0x4E487B7100000000000000000000000000000000000000000000000000000000 PUSH1 0x0 MSTORE PUSH1 0x11 PUSH1 0x4 MSTORE PUSH1 0x24 PUSH1 0x0 REVERT JUMPDEST PUSH1 0x0 DUP3 NOT DUP3 GT ISZERO PUSH2 0x4EB8 JUMPI PUSH2 0x4EB8 PUSH2 0x4E76 JUMP JUMPDEST POP ADD SWAP1 JUMP JUMPDEST PUSH1 0x0 PUSH32 0xFFFFFFFFFFFFFFFFFFFFFFFFFFFFFFFFFFFFFFFFFFFFFFFFFFFFFFFFFFFFFFFF DUP3 EQ ISZERO PUSH2 0x4EEF JUMPI PUSH2 0x4EEF PUSH2 0x4E76 JUMP JUMPDEST POP PUSH1 0x1 ADD SWAP1 JUMP JUMPDEST PUSH1 0x0 DUP2 PUSH32 0xFFFFFFFFFFFFFFFFFFFFFFFFFFFFFFFFFFFFFFFFFFFFFFFFFFFFFFFFFFFFFFFF DIV DUP4 GT DUP3 ISZERO ISZERO AND ISZERO PUSH2 0x4F2E JUMPI PUSH2 0x4F2E PUSH2 0x4E76 JUMP JUMPDEST POP MUL SWAP1 JUMP JUMPDEST PUSH32 0x4E487B7100000000000000000000000000000000000000000000000000000000 PUSH1 0x0 MSTORE PUSH1 0x12 PUSH1 0x4 MSTORE PUSH1 0x24 PUSH1 0x0 REVERT JUMPDEST PUSH1 0x0 DUP3 PUSH2 0x4F71 JUMPI PUSH2 0x4F71 PUSH2 0x4F33 JUMP JUMPDEST POP DIV SWAP1 JUMP JUMPDEST PUSH1 0x0 PUSH1 0x20 DUP3 DUP5 SUB SLT ISZERO PUSH2 0x4F88 JUMPI PUSH1 0x0 DUP1 REVERT JUMPDEST DUP2 MLOAD PUSH2 0x220C DUP2 PUSH2 0x48C5 JUMP JUMPDEST DUP1 SLOAD PUSH1 0x0 SWAP1 PUSH1 0x1 DUP2 DUP2 SHR SWAP1 DUP1 DUP4 AND DUP1 PUSH2 0x4FAD JUMPI PUSH1 0x7F DUP4 AND SWAP3 POP JUMPDEST PUSH1 0x20 DUP1 DUP5 LT DUP3 EQ ISZERO PUSH2 0x4FE8 JUMPI PUSH32 0x4E487B7100000000000000000000000000000000000000000000000000000000 PUSH1 0x0 MSTORE PUSH1 0x22 PUSH1 0x4 MSTORE PUSH1 0x24 PUSH1 0x0 REVERT JUMPDEST DUP2 DUP1 ISZERO PUSH2 0x4FFC JUMPI PUSH1 0x1 DUP2 EQ PUSH2 0x502B JUMPI PUSH2 0x5058 JUMP JUMPDEST PUSH32 0xFFFFFFFFFFFFFFFFFFFFFFFFFFFFFFFFFFFFFFFFFFFFFFFFFFFFFFFFFFFFFF00 DUP7 AND DUP10 MSTORE DUP5 DUP10 ADD SWAP7 POP PUSH2 0x5058 JUMP JUMPDEST PUSH1 0x0 DUP9 DUP2 MSTORE PUSH1 0x20 SWAP1 KECCAK256 PUSH1 0x0 JUMPDEST DUP7 DUP2 LT ISZERO PUSH2 0x5050 JUMPI DUP2 SLOAD DUP12 DUP3 ADD MSTORE SWAP1 DUP6 ADD SWAP1 DUP4 ADD PUSH2 0x5037 JUMP JUMPDEST POP POP DUP5 DUP10 ADD SWAP7 POP JUMPDEST POP POP POP POP POP POP SWAP3 SWAP2 POP POP JUMP JUMPDEST PUSH1 0x0 PUSH2 0x5070 DUP3 DUP6 PUSH2 0x4F93 JUMP JUMPDEST DUP4 MLOAD PUSH2 0x5080 DUP2 DUP4 PUSH1 0x20 DUP9 ADD PUSH2 0x472E JUMP JUMPDEST ADD SWAP5 SWAP4 POP POP POP POP JUMP JUMPDEST PUSH1 0x0 PUSH2 0x5095 DUP3 DUP7 PUSH2 0x4F93 JUMP JUMPDEST DUP5 MLOAD PUSH2 0x50A5 DUP2 DUP4 PUSH1 0x20 DUP10 ADD PUSH2 0x472E JUMP JUMPDEST PUSH32 0x2F00000000000000000000000000000000000000000000000000000000000000 SWAP2 ADD SWAP1 DUP2 MSTORE DUP4 MLOAD PUSH2 0x50DE DUP2 PUSH1 0x1 DUP5 ADD PUSH1 0x20 DUP9 ADD PUSH2 0x472E JUMP JUMPDEST ADD PUSH1 0x1 ADD SWAP6 SWAP5 POP POP POP POP POP JUMP JUMPDEST PUSH1 0x0 DUP3 DUP3 LT ISZERO PUSH2 0x50FD JUMPI PUSH2 0x50FD PUSH2 0x4E76 JUMP JUMPDEST POP SUB SWAP1 JUMP JUMPDEST PUSH1 0x0 PUSH1 0x20 DUP3 DUP5 SUB SLT ISZERO PUSH2 0x5114 JUMPI PUSH1 0x0 DUP1 REVERT JUMPDEST POP MLOAD SWAP2 SWAP1 POP JUMP JUMPDEST PUSH1 0x0 PUSH8 0xFFFFFFFFFFFFFFFF DUP1 DUP4 AND DUP2 DUP6 AND DUP1 DUP4 SUB DUP3 GT ISZERO PUSH2 0x5080 JUMPI PUSH2 0x5080 PUSH2 0x4E76 JUMP JUMPDEST PUSH1 0x0 DUP3 PUSH2 0x514D JUMPI PUSH2 0x514D PUSH2 0x4F33 JUMP JUMPDEST POP MOD SWAP1 JUMP JUMPDEST PUSH1 0x0 PUSH20 0xFFFFFFFFFFFFFFFFFFFFFFFFFFFFFFFFFFFFFFFF DUP1 DUP8 AND DUP4 MSTORE DUP1 DUP7 AND PUSH1 0x20 DUP5 ADD MSTORE POP DUP4 PUSH1 0x40 DUP4 ADD MSTORE PUSH1 0x80 PUSH1 0x60 DUP4 ADD MSTORE PUSH2 0x5191 PUSH1 0x80 DUP4 ADD DUP5 PUSH2 0x475A JUMP JUMPDEST SWAP7 SWAP6 POP POP POP POP POP POP JUMP JUMPDEST PUSH1 0x0 PUSH1 0x20 DUP3 DUP5 SUB SLT ISZERO PUSH2 0x51AD JUMPI PUSH1 0x0 DUP1 REVERT JUMPDEST DUP2 MLOAD PUSH2 0x220C DUP2 PUSH2 0x46E3 JUMP JUMPDEST PUSH1 0x0 DUP3 MLOAD PUSH2 0x51CA DUP2 DUP5 PUSH1 0x20 DUP8 ADD PUSH2 0x472E JUMP JUMPDEST SWAP2 SWAP1 SWAP2 ADD SWAP3 SWAP2 POP POP JUMP JUMPDEST PUSH32 0x4E487B7100000000000000000000000000000000000000000000000000000000 PUSH1 0x0 MSTORE PUSH1 0x31 PUSH1 0x4 MSTORE PUSH1 0x24 PUSH1 0x0 REVERT INVALID COINBASE PUSH5 0x6472657373 GASPRICE KECCAK256 PUSH13 0x6F772D6C6576656C2064656C65 PUSH8 0x6174652063616C6C KECCAK256 PUSH7 0x61696C6564A264 PUSH10 0x7066735822122078E8FC SWAP15 STOP SWAP5 PUSH15 0x68C15F630E632ED6FF464C48060060 PUSH18 0xB3E97836A25ED637BA64736F6C634300080C STOP CALLER "},"methodIdentifiers":{"approve(address,uint256)":"095ea7b3","balanceOf(address)":"70a08231","burn(uint256)":"42966c68","cancelSubscription(uint256)":"21235083","contractURI()":"e8a3d485","eventURI(uint256)":"a0fd0c6a","expireSubscription(uint256)":"493a7576","expiresAt(uint256)":"17c95709","freeze(uint256)":"d7a78db8","getApproved(uint256)":"081812fc","initialize(string,string)":"4cd88b76","isApprovedForAll(address,address)":"e985e9c5","isFrozen(uint256)":"a0894799","isRenewable(uint256)":"cde317af","lastId()":"c1292cc3","mintEventToManyUsers(uint256,address[],bool,uint64)":"bceb2f84","mintToken(uint256,address,bool,uint64)":"8e45d62e","mintUserToManyEvents(uint256[],address,bool,uint64)":"099bff12","name()":"06fdde03","owner()":"8da5cb5b","ownerOf(uint256)":"6352211e","pause()":"8456cb59","paused()":"5c975abb","proxiableUUID()":"52d1902d","reclaimToken(uint256)":"508061a2","removeDefaultRoyalty()":"97ec4fba","removeEventRoyalty(uint256)":"5f330b41","renewSubscription(uint256,uint64)":"776ce868","renounceOwnership()":"715018a6","royaltyInfo(uint256,uint256)":"2a55205a","safeTransferFrom(address,address,uint256)":"42842e0e","safeTransferFrom(address,address,uint256,bytes)":"b88d4fde","setApprovalForAll(address,bool)":"a22cb465","setLastId(uint256)":"1a27e85f","supportsInterface(bytes4)":"01ffc9a7","symbol()":"95d89b41","tokenByIndex(uint256)":"4f6ccce7","tokenDetailsOfOwnerByIndex(address,uint256)":"67e971ce","tokenEvent(uint256)":"127a5298","tokenOfOwnerByIndex(address,uint256)":"2f745c59","tokenURI(uint256)":"c87b56dd","totalSupply()":"18160ddd","transferFrom(address,address,uint256)":"23b872dd","transferOwnership(address)":"f2fde38b","unfreeze(uint256)":"6623fc46","unpause()":"3f4ba83a","updateContractURI(string)":"7e5b1e24","updateDefaultRoyalty(address,uint96)":"d691e43c","updateEventRoyalty(uint256,address,uint96)":"78fa0654","upgradeTo(address)":"3659cfe6","upgradeToAndCall(address,bytes)":"4f1ef286"}},"storageLayout":{"storage":[{"astId":546,"contract":"contracts/OctiTokenCollectableSubscribable.sol:OctiTokenCollectableSubscribable","label":"_initialized","offset":0,"slot":"0","type":"t_uint8"},{"astId":549,"contract":"contracts/OctiTokenCollectableSubscribable.sol:OctiTokenCollectableSubscribable","label":"_initializing","offset":1,"slot":"0","type":"t_bool"},{"astId":2729,"contract":"contracts/OctiTokenCollectableSubscribable.sol:OctiTokenCollectableSubscribable","label":"__gap","offset":0,"slot":"1","type":"t_array(t_uint256)50_storage"},{"astId":3059,"contract":"contracts/OctiTokenCollectableSubscribable.sol:OctiTokenCollectableSubscribable","label":"__gap","offset":0,"slot":"51","type":"t_array(t_uint256)50_storage"},{"astId":982,"contract":"contracts/OctiTokenCollectableSubscribable.sol:OctiTokenCollectableSubscribable","label":"_name","offset":0,"slot":"101","type":"t_string_storage"},{"astId":984,"contract":"contracts/OctiTokenCollectableSubscribable.sol:OctiTokenCollectableSubscribable","label":"_symbol","offset":0,"slot":"102","type":"t_string_storage"},{"astId":988,"contract":"contracts/OctiTokenCollectableSubscribable.sol:OctiTokenCollectableSubscribable","label":"_owners","offset":0,"slot":"103","type":"t_mapping(t_uint256,t_address)"},{"astId":992,"contract":"contracts/OctiTokenCollectableSubscribable.sol:OctiTokenCollectableSubscribable","label":"_balances","offset":0,"slot":"104","type":"t_mapping(t_address,t_uint256)"},{"astId":996,"contract":"contracts/OctiTokenCollectableSubscribable.sol:OctiTokenCollectableSubscribable","label":"_tokenApprovals","offset":0,"slot":"105","type":"t_mapping(t_uint256,t_address)"},{"astId":1002,"contract":"contracts/OctiTokenCollectableSubscribable.sol:OctiTokenCollectableSubscribable","label":"_operatorApprovals","offset":0,"slot":"106","type":"t_mapping(t_address,t_mapping(t_address,t_bool))"},{"astId":1844,"contract":"contracts/OctiTokenCollectableSubscribable.sol:OctiTokenCollectableSubscribable","label":"__gap","offset":0,"slot":"107","type":"t_array(t_uint256)44_storage"},{"astId":2059,"contract":"contracts/OctiTokenCollectableSubscribable.sol:OctiTokenCollectableSubscribable","label":"_ownedTokens","offset":0,"slot":"151","type":"t_mapping(t_address,t_mapping(t_uint256,t_uint256))"},{"astId":2063,"contract":"contracts/OctiTokenCollectableSubscribable.sol:OctiTokenCollectableSubscribable","label":"_ownedTokensIndex","offset":0,"slot":"152","type":"t_mapping(t_uint256,t_uint256)"},{"astId":2066,"contract":"contracts/OctiTokenCollectableSubscribable.sol:OctiTokenCollectableSubscribable","label":"_allTokens","offset":0,"slot":"153","type":"t_array(t_uint256)dyn_storage"},{"astId":2070,"contract":"contracts/OctiTokenCollectableSubscribable.sol:OctiTokenCollectableSubscribable","label":"_allTokensIndex","offset":0,"slot":"154","type":"t_mapping(t_uint256,t_uint256)"},{"astId":2386,"contract":"contracts/OctiTokenCollectableSubscribable.sol:OctiTokenCollectableSubscribable","label":"__gap","offset":0,"slot":"155","type":"t_array(t_uint256)46_storage"},{"astId":2028,"contract":"contracts/OctiTokenCollectableSubscribable.sol:OctiTokenCollectableSubscribable","label":"__gap","offset":0,"slot":"201","type":"t_array(t_uint256)50_storage"},{"astId":847,"contract":"contracts/OctiTokenCollectableSubscribable.sol:OctiTokenCollectableSubscribable","label":"_paused","offset":0,"slot":"251","type":"t_bool"},{"astId":952,"contract":"contracts/OctiTokenCollectableSubscribable.sol:OctiTokenCollectableSubscribable","label":"__gap","offset":0,"slot":"252","type":"t_array(t_uint256)49_storage"},{"astId":10,"contract":"contracts/OctiTokenCollectableSubscribable.sol:OctiTokenCollectableSubscribable","label":"_owner","offset":0,"slot":"301","type":"t_address"},{"astId":130,"contract":"contracts/OctiTokenCollectableSubscribable.sol:OctiTokenCollectableSubscribable","label":"__gap","offset":0,"slot":"302","type":"t_array(t_uint256)49_storage"},{"astId":528,"contract":"contracts/OctiTokenCollectableSubscribable.sol:OctiTokenCollectableSubscribable","label":"__gap","offset":0,"slot":"351","type":"t_array(t_uint256)50_storage"},{"astId":825,"contract":"contracts/OctiTokenCollectableSubscribable.sol:OctiTokenCollectableSubscribable","label":"__gap","offset":0,"slot":"401","type":"t_array(t_uint256)50_storage"},{"astId":3164,"contract":"contracts/OctiTokenCollectableSubscribable.sol:OctiTokenCollectableSubscribable","label":"contractURI","offset":0,"slot":"451","type":"t_string_storage"},{"astId":3166,"contract":"contracts/OctiTokenCollectableSubscribable.sol:OctiTokenCollectableSubscribable","label":"lastId","offset":0,"slot":"452","type":"t_uint256"},{"astId":3170,"contract":"contracts/OctiTokenCollectableSubscribable.sol:OctiTokenCollectableSubscribable","label":"_tokenEvent","offset":0,"slot":"453","type":"t_mapping(t_uint256,t_uint256)"},{"astId":3174,"contract":"contracts/OctiTokenCollectableSubscribable.sol:OctiTokenCollectableSubscribable","label":"_tokenFrozen","offset":0,"slot":"454","type":"t_mapping(t_uint256,t_bool)"},{"astId":3182,"contract":"contracts/OctiTokenCollectableSubscribable.sol:OctiTokenCollectableSubscribable","label":"_defaultRoyaltyInfo","offset":0,"slot":"455","type":"t_struct(RoyaltyInfo)3179_storage"},{"astId":3187,"contract":"contracts/OctiTokenCollectableSubscribable.sol:OctiTokenCollectableSubscribable","label":"_eventRoyaltyInfo","offset":0,"slot":"456","type":"t_mapping(t_uint256,t_struct(RoyaltyInfo)3179_storage)"},{"astId":3191,"contract":"contracts/OctiTokenCollectableSubscribable.sol:OctiTokenCollectableSubscribable","label":"_expirations","offset":0,"slot":"457","type":"t_mapping(t_uint256,t_uint64)"}],"types":{"t_address":{"encoding":"inplace","label":"address","numberOfBytes":"20"},"t_array(t_uint256)44_storage":{"base":"t_uint256","encoding":"inplace","label":"uint256[44]","numberOfBytes":"1408"},"t_array(t_uint256)46_storage":{"base":"t_uint256","encoding":"inplace","label":"uint256[46]","numberOfBytes":"1472"},"t_array(t_uint256)49_storage":{"base":"t_uint256","encoding":"inplace","label":"uint256[49]","numberOfBytes":"1568"},"t_array(t_uint256)50_storage":{"base":"t_uint256","encoding":"inplace","label":"uint256[50]","numberOfBytes":"1600"},"t_array(t_uint256)dyn_storage":{"base":"t_uint256","encoding":"dynamic_array","label":"uint256[]","numberOfBytes":"32"},"t_bool":{"encoding":"inplace","label":"bool","numberOfBytes":"1"},"t_mapping(t_address,t_bool)":{"encoding":"mapping","key":"t_address","label":"mapping(address => bool)","numberOfBytes":"32","value":"t_bool"},"t_mapping(t_address,t_mapping(t_address,t_bool))":{"encoding":"mapping","key":"t_address","label":"mapping(address => mapping(address => bool))","numberOfBytes":"32","value":"t_mapping(t_address,t_bool)"},"t_mapping(t_address,t_mapping(t_uint256,t_uint256))":{"encoding":"mapping","key":"t_address","label":"mapping(address => mapping(uint256 => uint256))","numberOfBytes":"32","value":"t_mapping(t_uint256,t_uint256)"},"t_mapping(t_address,t_uint256)":{"encoding":"mapping","key":"t_address","label":"mapping(address => uint256)","numberOfBytes":"32","value":"t_uint256"},"t_mapping(t_uint256,t_address)":{"encoding":"mapping","key":"t_uint256","label":"mapping(uint256 => address)","numberOfBytes":"32","value":"t_address"},"t_mapping(t_uint256,t_bool)":{"encoding":"mapping","key":"t_uint256","label":"mapping(uint256 => bool)","numberOfBytes":"32","value":"t_bool"},"t_mapping(t_uint256,t_struct(RoyaltyInfo)3179_storage)":{"encoding":"mapping","key":"t_uint256","label":"mapping(uint256 => struct OctiTokenCollectableSubscribable.RoyaltyInfo)","numberOfBytes":"32","value":"t_struct(RoyaltyInfo)3179_storage"},"t_mapping(t_uint256,t_uint256)":{"encoding":"mapping","key":"t_uint256","label":"mapping(uint256 => uint256)","numberOfBytes":"32","value":"t_uint256"},"t_mapping(t_uint256,t_uint64)":{"encoding":"mapping","key":"t_uint256","label":"mapping(uint256 => uint64)","numberOfBytes":"32","value":"t_uint64"},"t_string_storage":{"encoding":"bytes","label":"string","numberOfBytes":"32"},"t_struct(RoyaltyInfo)3179_storage":{"encoding":"inplace","label":"struct OctiTokenCollectableSubscribable.RoyaltyInfo","members":[{"astId":3176,"contract":"contracts/OctiTokenCollectableSubscribable.sol:OctiTokenCollectableSubscribable","label":"receiver","offset":0,"slot":"0","type":"t_address"},{"astId":3178,"contract":"contracts/OctiTokenCollectableSubscribable.sol:OctiTokenCollectableSubscribable","label":"royaltyFraction","offset":20,"slot":"0","type":"t_uint96"}],"numberOfBytes":"32"},"t_uint256":{"encoding":"inplace","label":"uint256","numberOfBytes":"32"},"t_uint64":{"encoding":"inplace","label":"uint64","numberOfBytes":"8"},"t_uint8":{"encoding":"inplace","label":"uint8","numberOfBytes":"1"},"t_uint96":{"encoding":"inplace","label":"uint96","numberOfBytes":"12"}}},"userdoc":{"events":{"SubscriptionUpdate(uint256,uint64)":{"notice":"Emitted when a subscription expiration changes"}},"kind":"user","methods":{"isApprovedForAll(address,address)":{"notice":"Override isApprovedForAll to auto-approve OS's proxy contract See: https://github.com/ProjectOpenSea/seaport"},"pause()":{"notice":"Useful for scenarios such as preventing trades until the end of an evaluation period, or having an emergency switch for freezing all token transfers in the event of a large bug."}},"version":1}}}}