{
  "_format": "hh-sol-artifact-1",
  "contractName": "OctiToken1155",
  "sourceName": "contracts/OctiToken1155.sol",
  "abi": [
    {
      "inputs": [],
      "stateMutability": "nonpayable",
      "type": "constructor"
    },
    {
      "anonymous": false,
      "inputs": [
        {
          "indexed": true,
          "internalType": "address",
          "name": "account",
          "type": "address"
        },
        {
          "indexed": true,
          "internalType": "address",
          "name": "operator",
          "type": "address"
        },
        {
          "indexed": false,
          "internalType": "bool",
          "name": "approved",
          "type": "bool"
        }
      ],
      "name": "ApprovalForAll",
      "type": "event"
    },
    {
      "anonymous": false,
      "inputs": [
        {
          "indexed": true,
          "internalType": "address",
          "name": "previousOwner",
          "type": "address"
        },
        {
          "indexed": true,
          "internalType": "address",
          "name": "newOwner",
          "type": "address"
        }
      ],
      "name": "OwnershipTransferred",
      "type": "event"
    },
    {
      "anonymous": false,
      "inputs": [
        {
          "indexed": false,
          "internalType": "address",
          "name": "account",
          "type": "address"
        }
      ],
      "name": "Paused",
      "type": "event"
    },
    {
      "anonymous": false,
      "inputs": [
        {
          "indexed": true,
          "internalType": "address",
          "name": "operator",
          "type": "address"
        },
        {
          "indexed": true,
          "internalType": "address",
          "name": "from",
          "type": "address"
        },
        {
          "indexed": true,
          "internalType": "address",
          "name": "to",
          "type": "address"
        },
        {
          "indexed": false,
          "internalType": "uint256[]",
          "name": "ids",
          "type": "uint256[]"
        },
        {
          "indexed": false,
          "internalType": "uint256[]",
          "name": "values",
          "type": "uint256[]"
        }
      ],
      "name": "TransferBatch",
      "type": "event"
    },
    {
      "anonymous": false,
      "inputs": [
        {
          "indexed": true,
          "internalType": "address",
          "name": "operator",
          "type": "address"
        },
        {
          "indexed": true,
          "internalType": "address",
          "name": "from",
          "type": "address"
        },
        {
          "indexed": true,
          "internalType": "address",
          "name": "to",
          "type": "address"
        },
        {
          "indexed": false,
          "internalType": "uint256",
          "name": "id",
          "type": "uint256"
        },
        {
          "indexed": false,
          "internalType": "uint256",
          "name": "value",
          "type": "uint256"
        }
      ],
      "name": "TransferSingle",
      "type": "event"
    },
    {
      "anonymous": false,
      "inputs": [
        {
          "indexed": false,
          "internalType": "string",
          "name": "value",
          "type": "string"
        },
        {
          "indexed": true,
          "internalType": "uint256",
          "name": "id",
          "type": "uint256"
        }
      ],
      "name": "URI",
      "type": "event"
    },
    {
      "anonymous": false,
      "inputs": [
        {
          "indexed": false,
          "internalType": "address",
          "name": "account",
          "type": "address"
        }
      ],
      "name": "Unpaused",
      "type": "event"
    },
    {
      "inputs": [
        {
          "internalType": "address",
          "name": "account",
          "type": "address"
        },
        {
          "internalType": "uint256",
          "name": "id",
          "type": "uint256"
        }
      ],
      "name": "balanceOf",
      "outputs": [
        {
          "internalType": "uint256",
          "name": "",
          "type": "uint256"
        }
      ],
      "stateMutability": "view",
      "type": "function"
    },
    {
      "inputs": [
        {
          "internalType": "address[]",
          "name": "accounts",
          "type": "address[]"
        },
        {
          "internalType": "uint256[]",
          "name": "ids",
          "type": "uint256[]"
        }
      ],
      "name": "balanceOfBatch",
      "outputs": [
        {
          "internalType": "uint256[]",
          "name": "",
          "type": "uint256[]"
        }
      ],
      "stateMutability": "view",
      "type": "function"
    },
    {
      "inputs": [
        {
          "internalType": "address",
          "name": "account",
          "type": "address"
        },
        {
          "internalType": "uint256",
          "name": "id",
          "type": "uint256"
        },
        {
          "internalType": "uint256",
          "name": "value",
          "type": "uint256"
        }
      ],
      "name": "burn",
      "outputs": [],
      "stateMutability": "nonpayable",
      "type": "function"
    },
    {
      "inputs": [
        {
          "internalType": "address",
          "name": "account",
          "type": "address"
        },
        {
          "internalType": "uint256[]",
          "name": "ids",
          "type": "uint256[]"
        },
        {
          "internalType": "uint256[]",
          "name": "values",
          "type": "uint256[]"
        }
      ],
      "name": "burnBatch",
      "outputs": [],
      "stateMutability": "nonpayable",
      "type": "function"
    },
    {
      "inputs": [
        {
          "internalType": "uint256",
          "name": "id",
          "type": "uint256"
        }
      ],
      "name": "exists",
      "outputs": [
        {
          "internalType": "bool",
          "name": "",
          "type": "bool"
        }
      ],
      "stateMutability": "view",
      "type": "function"
    },
    {
      "inputs": [
        {
          "internalType": "address",
          "name": "account",
          "type": "address"
        },
        {
          "internalType": "address",
          "name": "operator",
          "type": "address"
        }
      ],
      "name": "isApprovedForAll",
      "outputs": [
        {
          "internalType": "bool",
          "name": "",
          "type": "bool"
        }
      ],
      "stateMutability": "view",
      "type": "function"
    },
    {
      "inputs": [
        {
          "internalType": "address",
          "name": "to",
          "type": "address"
        },
        {
          "internalType": "uint256",
          "name": "id",
          "type": "uint256"
        },
        {
          "internalType": "uint256",
          "name": "amount",
          "type": "uint256"
        },
        {
          "internalType": "bytes",
          "name": "data",
          "type": "bytes"
        }
      ],
      "name": "mint",
      "outputs": [],
      "stateMutability": "nonpayable",
      "type": "function"
    },
    {
      "inputs": [
        {
          "internalType": "address",
          "name": "to",
          "type": "address"
        },
        {
          "internalType": "uint256[]",
          "name": "ids",
          "type": "uint256[]"
        },
        {
          "internalType": "uint256[]",
          "name": "amounts",
          "type": "uint256[]"
        },
        {
          "internalType": "bytes",
          "name": "data",
          "type": "bytes"
        }
      ],
      "name": "mintBatch",
      "outputs": [],
      "stateMutability": "nonpayable",
      "type": "function"
    },
    {
      "inputs": [],
      "name": "owner",
      "outputs": [
        {
          "internalType": "address",
          "name": "",
          "type": "address"
        }
      ],
      "stateMutability": "view",
      "type": "function"
    },
    {
      "inputs": [],
      "name": "pause",
      "outputs": [],
      "stateMutability": "nonpayable",
      "type": "function"
    },
    {
      "inputs": [],
      "name": "paused",
      "outputs": [
        {
          "internalType": "bool",
          "name": "",
          "type": "bool"
        }
      ],
      "stateMutability": "view",
      "type": "function"
    },
    {
      "inputs": [],
      "name": "removeDefaultRoyalty",
      "outputs": [],
      "stateMutability": "nonpayable",
      "type": "function"
    },
    {
      "inputs": [
        {
          "internalType": "uint256",
          "name": "tokenId",
          "type": "uint256"
        }
      ],
      "name": "removeTokenRoyalty",
      "outputs": [],
      "stateMutability": "nonpayable",
      "type": "function"
    },
    {
      "inputs": [],
      "name": "renounceOwnership",
      "outputs": [],
      "stateMutability": "nonpayable",
      "type": "function"
    },
    {
      "inputs": [
        {
          "internalType": "uint256",
          "name": "_tokenId",
          "type": "uint256"
        },
        {
          "internalType": "uint256",
          "name": "_salePrice",
          "type": "uint256"
        }
      ],
      "name": "royaltyInfo",
      "outputs": [
        {
          "internalType": "address",
          "name": "",
          "type": "address"
        },
        {
          "internalType": "uint256",
          "name": "",
          "type": "uint256"
        }
      ],
      "stateMutability": "view",
      "type": "function"
    },
    {
      "inputs": [
        {
          "internalType": "address",
          "name": "from",
          "type": "address"
        },
        {
          "internalType": "address",
          "name": "to",
          "type": "address"
        },
        {
          "internalType": "uint256[]",
          "name": "ids",
          "type": "uint256[]"
        },
        {
          "internalType": "uint256[]",
          "name": "amounts",
          "type": "uint256[]"
        },
        {
          "internalType": "bytes",
          "name": "data",
          "type": "bytes"
        }
      ],
      "name": "safeBatchTransferFrom",
      "outputs": [],
      "stateMutability": "nonpayable",
      "type": "function"
    },
    {
      "inputs": [
        {
          "internalType": "address",
          "name": "from",
          "type": "address"
        },
        {
          "internalType": "address",
          "name": "to",
          "type": "address"
        },
        {
          "internalType": "uint256",
          "name": "id",
          "type": "uint256"
        },
        {
          "internalType": "uint256",
          "name": "amount",
          "type": "uint256"
        },
        {
          "internalType": "bytes",
          "name": "data",
          "type": "bytes"
        }
      ],
      "name": "safeTransferFrom",
      "outputs": [],
      "stateMutability": "nonpayable",
      "type": "function"
    },
    {
      "inputs": [
        {
          "internalType": "address",
          "name": "operator",
          "type": "address"
        },
        {
          "internalType": "bool",
          "name": "approved",
          "type": "bool"
        }
      ],
      "name": "setApprovalForAll",
      "outputs": [],
      "stateMutability": "nonpayable",
      "type": "function"
    },
    {
      "inputs": [
        {
          "internalType": "string",
          "name": "newuri",
          "type": "string"
        }
      ],
      "name": "setURI",
      "outputs": [],
      "stateMutability": "nonpayable",
      "type": "function"
    },
    {
      "inputs": [
        {
          "internalType": "bytes4",
          "name": "interfaceId",
          "type": "bytes4"
        }
      ],
      "name": "supportsInterface",
      "outputs": [
        {
          "internalType": "bool",
          "name": "",
          "type": "bool"
        }
      ],
      "stateMutability": "view",
      "type": "function"
    },
    {
      "inputs": [
        {
          "internalType": "uint256",
          "name": "id",
          "type": "uint256"
        }
      ],
      "name": "totalSupply",
      "outputs": [
        {
          "internalType": "uint256",
          "name": "",
          "type": "uint256"
        }
      ],
      "stateMutability": "view",
      "type": "function"
    },
    {
      "inputs": [
        {
          "internalType": "address",
          "name": "newOwner",
          "type": "address"
        }
      ],
      "name": "transferOwnership",
      "outputs": [],
      "stateMutability": "nonpayable",
      "type": "function"
    },
    {
      "inputs": [],
      "name": "unpause",
      "outputs": [],
      "stateMutability": "nonpayable",
      "type": "function"
    },
    {
      "inputs": [
        {
          "internalType": "address",
          "name": "receiver",
          "type": "address"
        },
        {
          "internalType": "uint96",
          "name": "feeNumerator",
          "type": "uint96"
        }
      ],
      "name": "updateDefaultRoyalty",
      "outputs": [],
      "stateMutability": "nonpayable",
      "type": "function"
    },
    {
      "inputs": [
        {
          "internalType": "uint256",
          "name": "tokenId",
          "type": "uint256"
        },
        {
          "internalType": "address",
          "name": "receiver",
          "type": "address"
        },
        {
          "internalType": "uint96",
          "name": "feeNumerator",
          "type": "uint96"
        }
      ],
      "name": "updateTokenRoyalty",
      "outputs": [],
      "stateMutability": "nonpayable",
      "type": "function"
    },
    {
      "inputs": [
        {
          "internalType": "uint256",
          "name": "",
          "type": "uint256"
        }
      ],
      "name": "uri",
      "outputs": [
        {
          "internalType": "string",
          "name": "",
          "type": "string"
        }
      ],
      "stateMutability": "view",
      "type": "function"
    }
  ],
  "bytecode": "0x60806040523480156200001157600080fd5b506040518060600160405280603481526020016200296b60349139620000373362000053565b6200004281620000a3565b506007805460ff191690556200019f565b600080546001600160a01b038381166001600160a01b0319831681178455604051919092169283917f8be0079c531659141344cd1fd0a4f28419497f9722a3daafe3b4186f6b6457e09190a35050565b8051620000b8906003906020840190620000bc565b5050565b828054620000ca9062000162565b90600052602060002090601f016020900481019282620000ee576000855562000139565b82601f106200010957805160ff191683800117855562000139565b8280016001018555821562000139579182015b82811115620001395782518255916020019190600101906200011c565b50620001479291506200014b565b5090565b5b808211156200014757600081556001016200014c565b600181811c908216806200017757607f821691505b602082108114156200019957634e487b7160e01b600052602260045260246000fd5b50919050565b6127bc80620001af6000396000f3fe608060405234801561001057600080fd5b506004361061018d5760003560e01c8063715018a6116100de578063a22cb46511610097578063e985e9c511610071578063e985e9c514610382578063f242432a146103be578063f2fde38b146103d1578063f5298aca146103e457600080fd5b8063a22cb4651461033c578063bd85b0391461034f578063d691e43c1461036f57600080fd5b8063715018a6146102e3578063731133e9146102eb5780638456cb59146102fe57806386e228d5146103065780638da5cb5b1461031957806397ec4fba1461033457600080fd5b80632a55205a1161014b5780634e1273f4116101255780634e1273f4146102835780634f558e79146102a35780635c975abb146102c55780636b20c454146102d057600080fd5b80632a55205a146102365780632eb2c2d6146102685780633f4ba83a1461027b57600080fd5b8062fdd58e1461019257806301ffc9a7146101b857806302fe5305146101db5780630e89341c146101f05780631e6b5818146102105780631f7fdffa14610223575b600080fd5b6101a56101a0366004611b2d565b6103f7565b6040519081526020015b60405180910390f35b6101cb6101c6366004611b6d565b61048f565b60405190151581526020016101af565b6101ee6101e9366004611c32565b6104a0565b005b6102036101fe366004611c83565b6104b4565b6040516101af9190611ce9565b6101ee61021e366004611c83565b610548565b6101ee610231366004611db1565b610561565b610249610244366004611e4a565b61057b565b604080516001600160a01b0390931683526020830191909152016101af565b6101ee610276366004611e6c565b610627565b6101ee610673565b610296610291366004611f16565b610685565b6040516101af919061201c565b6101cb6102b1366004611c83565b600090815260066020526040902054151590565b60075460ff166101cb565b6101ee6102de36600461202f565b6107af565b6101ee6107f7565b6101ee6102f93660046120a3565b610809565b6101ee61081d565b6101ee61031436600461210f565b61082d565b6000546040516001600160a01b0390911681526020016101af565b6101ee610840565b6101ee61034a36600461214b565b610852565b6101a561035d366004611c83565b60009081526006602052604090205490565b6101ee61037d366004612187565b610861565b6101cb6103903660046121ba565b6001600160a01b03918216600090815260026020908152604080832093909416825291909152205460ff1690565b6101ee6103cc3660046121e4565b610873565b6101ee6103df366004612249565b6108b8565b6101ee6103f2366004612264565b61092e565b60006001600160a01b0383166104675760405162461bcd60e51b815260206004820152602a60248201527f455243313135353a2061646472657373207a65726f206973206e6f742061207660448201526930b634b21037bbb732b960b11b60648201526084015b60405180910390fd5b5060009081526001602090815260408083206001600160a01b03949094168352929052205490565b600061049a82610971565b92915050565b6104a8610996565b6104b1816109f0565b50565b6060600380546104c390612297565b80601f01602080910402602001604051908101604052809291908181526020018280546104ef90612297565b801561053c5780601f106105115761010080835404028352916020019161053c565b820191906000526020600020905b81548152906001019060200180831161051f57829003601f168201915b50505050509050919050565b610550610996565b600090815260056020526040812055565b610569610996565b61057584848484610a03565b50505050565b60008281526005602090815260408083208151808301909252546001600160a01b038116808352600160a01b9091046001600160601b03169282019290925282916105f05750604080518082019091526004546001600160a01b0381168252600160a01b90046001600160601b031660208201525b60208101516000906127109061060f906001600160601b0316876122e8565b6106199190612307565b915196919550909350505050565b6001600160a01b03851633148061064357506106438533610390565b61065f5760405162461bcd60e51b815260040161045e90612329565b61066c8585858585610b5e565b5050505050565b61067b610996565b610683610d0b565b565b606081518351146106ea5760405162461bcd60e51b815260206004820152602960248201527f455243313135353a206163636f756e747320616e6420696473206c656e677468604482015268040dad2e6dac2e8c6d60bb1b606482015260840161045e565b6000835167ffffffffffffffff81111561070657610706611b91565b60405190808252806020026020018201604052801561072f578160200160208202803683370190505b50905060005b84518110156107a75761077a85828151811061075357610753612378565b602002602001015185838151811061076d5761076d612378565b60200260200101516103f7565b82828151811061078c5761078c612378565b60209081029190910101526107a08161238e565b9050610735565b509392505050565b6001600160a01b0383163314806107cb57506107cb8333610390565b6107e75760405162461bcd60e51b815260040161045e90612329565b6107f2838383610d5d565b505050565b6107ff610996565b6106836000610efc565b610811610996565b61057584848484610f4c565b610825610996565b610683611037565b610835610996565b6107f2838383611074565b610848610996565b6106836000600455565b61085d33838361113f565b5050565b610869610996565b61085d8282611220565b6001600160a01b03851633148061088f575061088f8533610390565b6108ab5760405162461bcd60e51b815260040161045e90612329565b61066c85858585856112da565b6108c0610996565b6001600160a01b0381166109255760405162461bcd60e51b815260206004820152602660248201527f4f776e61626c653a206e6577206f776e657220697320746865207a65726f206160448201526564647265737360d01b606482015260840161045e565b6104b181610efc565b6001600160a01b03831633148061094a575061094a8333610390565b6109665760405162461bcd60e51b815260040161045e90612329565b6107f2838383611416565b60006001600160e01b0319821663152a902d60e11b148061049a575061049a82611532565b6000546001600160a01b031633146106835760405162461bcd60e51b815260206004820181905260248201527f4f776e61626c653a2063616c6c6572206973206e6f7420746865206f776e6572604482015260640161045e565b805161085d906003906020840190611a78565b6001600160a01b038416610a295760405162461bcd60e51b815260040161045e906123a9565b8151835114610a4a5760405162461bcd60e51b815260040161045e906123ea565b33610a5a81600087878787611582565b60005b8451811015610af657838181518110610a7857610a78612378565b602002602001015160016000878481518110610a9657610a96612378565b602002602001015181526020019081526020016000206000886001600160a01b03166001600160a01b031681526020019081526020016000206000828254610ade9190612432565b90915550819050610aee8161238e565b915050610a5d565b50846001600160a01b031660006001600160a01b0316826001600160a01b03167f4a39dc06d4c0dbc64b70af90fd698a233a518aa5d07e595d983b8c0526c8f7fb8787604051610b4792919061244a565b60405180910390a461066c81600087878787611598565b8151835114610b7f5760405162461bcd60e51b815260040161045e906123ea565b6001600160a01b038416610ba55760405162461bcd60e51b815260040161045e90612478565b33610bb4818787878787611582565b60005b8451811015610c9d576000858281518110610bd457610bd4612378565b602002602001015190506000858381518110610bf257610bf2612378565b60209081029190910181015160008481526001835260408082206001600160a01b038e168352909352919091205490915081811015610c435760405162461bcd60e51b815260040161045e906124bd565b60008381526001602090815260408083206001600160a01b038e8116855292528083208585039055908b16825281208054849290610c82908490612432565b9250508190555050505080610c969061238e565b9050610bb7565b50846001600160a01b0316866001600160a01b0316826001600160a01b03167f4a39dc06d4c0dbc64b70af90fd698a233a518aa5d07e595d983b8c0526c8f7fb8787604051610ced92919061244a565b60405180910390a4610d03818787878787611598565b505050505050565b610d136116f4565b6007805460ff191690557f5db9ee0a495bf2e6ff9c91a7834c1ba4fdd244a5e8aa4e537bd38aeae4b073aa335b6040516001600160a01b03909116815260200160405180910390a1565b6001600160a01b038316610d835760405162461bcd60e51b815260040161045e90612507565b8051825114610da45760405162461bcd60e51b815260040161045e906123ea565b6000339050610dc781856000868660405180602001604052806000815250611582565b60005b8351811015610e8f576000848281518110610de757610de7612378565b602002602001015190506000848381518110610e0557610e05612378565b60209081029190910181015160008481526001835260408082206001600160a01b038c168352909352919091205490915081811015610e565760405162461bcd60e51b815260040161045e9061254a565b60009283526001602090815260408085206001600160a01b038b1686529091529092209103905580610e878161238e565b915050610dca565b5060006001600160a01b0316846001600160a01b0316826001600160a01b03167f4a39dc06d4c0dbc64b70af90fd698a233a518aa5d07e595d983b8c0526c8f7fb8686604051610ee092919061244a565b60405180910390a4604080516020810190915260009052610575565b600080546001600160a01b038381166001600160a01b0319831681178455604051919092169283917f8be0079c531659141344cd1fd0a4f28419497f9722a3daafe3b4186f6b6457e09190a35050565b6001600160a01b038416610f725760405162461bcd60e51b815260040161045e906123a9565b336000610f7e8561173d565b90506000610f8b8561173d565b9050610f9c83600089858589611582565b60008681526001602090815260408083206001600160a01b038b16845290915281208054879290610fce908490612432565b909155505060408051878152602081018790526001600160a01b03808a1692600092918716917fc3d58168c5ae7397731d063d5bbf3d657854427343f4c083240f7aacaa2d0f62910160405180910390a461102e83600089898989611788565b50505050505050565b61103f611843565b6007805460ff191660011790557f62e78cea01bee320cd4e420270b5ea74000d11b0c9f74754ebdbfc544b05a258610d403390565b6127106001600160601b038216111561109f5760405162461bcd60e51b815260040161045e9061258e565b6001600160a01b0382166110f55760405162461bcd60e51b815260206004820152601b60248201527f455243323938313a20496e76616c696420706172616d65746572730000000000604482015260640161045e565b6040805180820182526001600160a01b0393841681526001600160601b0392831660208083019182526000968752600590529190942093519051909116600160a01b029116179055565b816001600160a01b0316836001600160a01b031614156111b35760405162461bcd60e51b815260206004820152602960248201527f455243313135353a2073657474696e6720617070726f76616c20737461747573604482015268103337b91039b2b63360b91b606482015260840161045e565b6001600160a01b03838116600081815260026020908152604080832094871680845294825291829020805460ff191686151590811790915591519182527f17307eab39ab6107e8899845ad3d59bd9653f200f220920489ca2b5937696c31910160405180910390a3505050565b6127106001600160601b038216111561124b5760405162461bcd60e51b815260040161045e9061258e565b6001600160a01b0382166112a15760405162461bcd60e51b815260206004820152601960248201527f455243323938313a20696e76616c696420726563656976657200000000000000604482015260640161045e565b604080518082019091526001600160a01b039092168083526001600160601b039091166020909201829052600160a01b90910217600455565b6001600160a01b0384166113005760405162461bcd60e51b815260040161045e90612478565b33600061130c8561173d565b905060006113198561173d565b9050611329838989858589611582565b60008681526001602090815260408083206001600160a01b038c1684529091529020548581101561136c5760405162461bcd60e51b815260040161045e906124bd565b60008781526001602090815260408083206001600160a01b038d8116855292528083208985039055908a168252812080548892906113ab908490612432565b909155505060408051888152602081018890526001600160a01b03808b16928c821692918816917fc3d58168c5ae7397731d063d5bbf3d657854427343f4c083240f7aacaa2d0f62910160405180910390a461140b848a8a8a8a8a611788565b505050505050505050565b6001600160a01b03831661143c5760405162461bcd60e51b815260040161045e90612507565b3360006114488461173d565b905060006114558461173d565b905061147583876000858560405180602001604052806000815250611582565b60008581526001602090815260408083206001600160a01b038a168452909152902054848110156114b85760405162461bcd60e51b815260040161045e9061254a565b60008681526001602090815260408083206001600160a01b038b81168086529184528285208a8703905582518b81529384018a90529092908816917fc3d58168c5ae7397731d063d5bbf3d657854427343f4c083240f7aacaa2d0f62910160405180910390a460408051602081019091526000905261102e565b60006001600160e01b03198216636cdb3d1360e11b148061156357506001600160e01b031982166303a24d0760e21b145b8061049a57506301ffc9a760e01b6001600160e01b031983161461049a565b61158a611843565b610d03868686868686611889565b6001600160a01b0384163b15610d035760405163bc197c8160e01b81526001600160a01b0385169063bc197c81906115dc90899089908890889088906004016125d8565b6020604051808303816000875af1925050508015611617575060408051601f3d908101601f1916820190925261161491810190612636565b60015b6116c457611623612653565b806308c379a0141561165d575061163861266f565b80611643575061165f565b8060405162461bcd60e51b815260040161045e9190611ce9565b505b60405162461bcd60e51b815260206004820152603460248201527f455243313135353a207472616e7366657220746f206e6f6e20455243313135356044820152732932b1b2b4bb32b91034b6b83632b6b2b73a32b960611b606482015260840161045e565b6001600160e01b0319811663bc197c8160e01b1461102e5760405162461bcd60e51b815260040161045e906126f9565b60075460ff166106835760405162461bcd60e51b815260206004820152601460248201527314185d5cd8589b194e881b9bdd081c185d5cd95960621b604482015260640161045e565b6040805160018082528183019092526060916000919060208083019080368337019050509050828160008151811061177757611777612378565b602090810291909101015292915050565b6001600160a01b0384163b15610d035760405163f23a6e6160e01b81526001600160a01b0385169063f23a6e61906117cc9089908990889088908890600401612741565b6020604051808303816000875af1925050508015611807575060408051601f3d908101601f1916820190925261180491810190612636565b60015b61181357611623612653565b6001600160e01b0319811663f23a6e6160e01b1461102e5760405162461bcd60e51b815260040161045e906126f9565b60075460ff16156106835760405162461bcd60e51b815260206004820152601060248201526f14185d5cd8589b194e881c185d5cd95960821b604482015260640161045e565b6118978686868686866118ff565b60075460ff1615610d035760405162461bcd60e51b815260206004820152602c60248201527f455243313135355061757361626c653a20746f6b656e207472616e736665722060448201526b1dda1a5b19481c185d5cd95960a21b606482015260840161045e565b6001600160a01b0385166119865760005b83518110156119845782818151811061192b5761192b612378565b60200260200101516006600086848151811061194957611949612378565b60200260200101518152602001908152602001600020600082825461196e9190612432565b9091555061197d90508161238e565b9050611910565b505b6001600160a01b038416610d035760005b835181101561102e5760008482815181106119b4576119b4612378565b6020026020010151905060008483815181106119d2576119d2612378565b6020026020010151905060006006600084815260200190815260200160002054905081811015611a555760405162461bcd60e51b815260206004820152602860248201527f455243313135353a206275726e20616d6f756e74206578636565647320746f74604482015267616c537570706c7960c01b606482015260840161045e565b60009283526006602052604090922091039055611a718161238e565b9050611997565b828054611a8490612297565b90600052602060002090601f016020900481019282611aa65760008555611aec565b82601f10611abf57805160ff1916838001178555611aec565b82800160010185558215611aec579182015b82811115611aec578251825591602001919060010190611ad1565b50611af8929150611afc565b5090565b5b80821115611af85760008155600101611afd565b80356001600160a01b0381168114611b2857600080fd5b919050565b60008060408385031215611b4057600080fd5b611b4983611b11565b946020939093013593505050565b6001600160e01b0319811681146104b157600080fd5b600060208284031215611b7f57600080fd5b8135611b8a81611b57565b9392505050565b634e487b7160e01b600052604160045260246000fd5b601f8201601f1916810167ffffffffffffffff81118282101715611bcd57611bcd611b91565b6040525050565b600067ffffffffffffffff831115611bee57611bee611b91565b604051611c05601f8501601f191660200182611ba7565b809150838152848484011115611c1a57600080fd5b83836020830137600060208583010152509392505050565b600060208284031215611c4457600080fd5b813567ffffffffffffffff811115611c5b57600080fd5b8201601f81018413611c6c57600080fd5b611c7b84823560208401611bd4565b949350505050565b600060208284031215611c9557600080fd5b5035919050565b6000815180845260005b81811015611cc257602081850181015186830182015201611ca6565b81811115611cd4576000602083870101525b50601f01601f19169290920160200192915050565b602081526000611b8a6020830184611c9c565b600067ffffffffffffffff821115611d1657611d16611b91565b5060051b60200190565b600082601f830112611d3157600080fd5b81356020611d3e82611cfc565b604051611d4b8282611ba7565b83815260059390931b8501820192828101915086841115611d6b57600080fd5b8286015b84811015611d865780358352918301918301611d6f565b509695505050505050565b600082601f830112611da257600080fd5b611b8a83833560208501611bd4565b60008060008060808587031215611dc757600080fd5b611dd085611b11565b9350602085013567ffffffffffffffff80821115611ded57600080fd5b611df988838901611d20565b94506040870135915080821115611e0f57600080fd5b611e1b88838901611d20565b93506060870135915080821115611e3157600080fd5b50611e3e87828801611d91565b91505092959194509250565b60008060408385031215611e5d57600080fd5b50508035926020909101359150565b600080600080600060a08688031215611e8457600080fd5b611e8d86611b11565b9450611e9b60208701611b11565b9350604086013567ffffffffffffffff80821115611eb857600080fd5b611ec489838a01611d20565b94506060880135915080821115611eda57600080fd5b611ee689838a01611d20565b93506080880135915080821115611efc57600080fd5b50611f0988828901611d91565b9150509295509295909350565b60008060408385031215611f2957600080fd5b823567ffffffffffffffff80821115611f4157600080fd5b818501915085601f830112611f5557600080fd5b81356020611f6282611cfc565b604051611f6f8282611ba7565b83815260059390931b8501820192828101915089841115611f8f57600080fd5b948201945b83861015611fb457611fa586611b11565b82529482019490820190611f94565b96505086013592505080821115611fca57600080fd5b50611fd785828601611d20565b9150509250929050565b600081518084526020808501945080840160005b8381101561201157815187529582019590820190600101611ff5565b509495945050505050565b602081526000611b8a6020830184611fe1565b60008060006060848603121561204457600080fd5b61204d84611b11565b9250602084013567ffffffffffffffff8082111561206a57600080fd5b61207687838801611d20565b9350604086013591508082111561208c57600080fd5b5061209986828701611d20565b9150509250925092565b600080600080608085870312156120b957600080fd5b6120c285611b11565b93506020850135925060408501359150606085013567ffffffffffffffff8111156120ec57600080fd5b611e3e87828801611d91565b80356001600160601b0381168114611b2857600080fd5b60008060006060848603121561212457600080fd5b8335925061213460208501611b11565b9150612142604085016120f8565b90509250925092565b6000806040838503121561215e57600080fd5b61216783611b11565b91506020830135801515811461217c57600080fd5b809150509250929050565b6000806040838503121561219a57600080fd5b6121a383611b11565b91506121b1602084016120f8565b90509250929050565b600080604083850312156121cd57600080fd5b6121d683611b11565b91506121b160208401611b11565b600080600080600060a086880312156121fc57600080fd5b61220586611b11565b945061221360208701611b11565b93506040860135925060608601359150608086013567ffffffffffffffff81111561223d57600080fd5b611f0988828901611d91565b60006020828403121561225b57600080fd5b611b8a82611b11565b60008060006060848603121561227957600080fd5b61228284611b11565b95602085013595506040909401359392505050565b600181811c908216806122ab57607f821691505b602082108114156122cc57634e487b7160e01b600052602260045260246000fd5b50919050565b634e487b7160e01b600052601160045260246000fd5b6000816000190483118215151615612302576123026122d2565b500290565b60008261232457634e487b7160e01b600052601260045260246000fd5b500490565b6020808252602f908201527f455243313135353a2063616c6c6572206973206e6f7420746f6b656e206f776e60408201526e195c881b9bdc88185c1c1c9bdd9959608a1b606082015260800190565b634e487b7160e01b600052603260045260246000fd5b60006000198214156123a2576123a26122d2565b5060010190565b60208082526021908201527f455243313135353a206d696e7420746f20746865207a65726f206164647265736040820152607360f81b606082015260800190565b60208082526028908201527f455243313135353a2069647320616e6420616d6f756e7473206c656e677468206040820152670dad2e6dac2e8c6d60c31b606082015260800190565b60008219821115612445576124456122d2565b500190565b60408152600061245d6040830185611fe1565b828103602084015261246f8185611fe1565b95945050505050565b60208082526025908201527f455243313135353a207472616e7366657220746f20746865207a65726f206164604082015264647265737360d81b606082015260800190565b6020808252602a908201527f455243313135353a20696e73756666696369656e742062616c616e636520666f60408201526939103a3930b739b332b960b11b606082015260800190565b60208082526023908201527f455243313135353a206275726e2066726f6d20746865207a65726f206164647260408201526265737360e81b606082015260800190565b60208082526024908201527f455243313135353a206275726e20616d6f756e7420657863656564732062616c604082015263616e636560e01b606082015260800190565b6020808252602a908201527f455243323938313a20726f79616c7479206665652077696c6c206578636565646040820152692073616c65507269636560b01b606082015260800190565b6001600160a01b0386811682528516602082015260a06040820181905260009061260490830186611fe1565b82810360608401526126168186611fe1565b9050828103608084015261262a8185611c9c565b98975050505050505050565b60006020828403121561264857600080fd5b8151611b8a81611b57565b600060033d111561266c5760046000803e5060005160e01c5b90565b600060443d101561267d5790565b6040516003193d81016004833e81513d67ffffffffffffffff81602484011181841117156126ad57505050505090565b82850191508151818111156126c55750505050505090565b843d87010160208285010111156126df5750505050505090565b6126ee60208286010187611ba7565b509095945050505050565b60208082526028908201527f455243313135353a204552433131353552656365697665722072656a656374656040820152676420746f6b656e7360c01b606082015260800190565b6001600160a01b03868116825285166020820152604081018490526060810183905260a06080820181905260009061277b90830184611c9c565b97965050505050505056fea26469706673582212204f79430d0eca3b4ad23cf870835789b89ca6926a97255bea35d92b9a8c874a3364736f6c634300080c003368747470733a2f2f746573746e6574732e756c74726176696f6c65742e776f726c642f6d657461646174612f706f6c79676f6e2f",
  "linkReferences": {},
  "deployedLinkReferences": {}
}