{
  "_format": "hh-sol-artifact-1",
  "contractName": "OctiToken",
  "sourceName": "contracts/OctiToken.sol",
  "abi": [
    {
      "inputs": [
        {
          "internalType": "address",
          "name": "newOwner",
          "type": "address"
        },
        {
          "internalType": "address",
          "name": "royaltyAddress",
          "type": "address"
        },
        {
          "internalType": "string",
          "name": "_newContractURI",
          "type": "string"
        }
      ],
      "stateMutability": "nonpayable",
      "type": "constructor"
    },
    {
      "anonymous": false,
      "inputs": [
        {
          "indexed": true,
          "internalType": "address",
          "name": "owner",
          "type": "address"
        },
        {
          "indexed": true,
          "internalType": "address",
          "name": "approved",
          "type": "address"
        },
        {
          "indexed": true,
          "internalType": "uint256",
          "name": "tokenId",
          "type": "uint256"
        }
      ],
      "name": "Approval",
      "type": "event"
    },
    {
      "anonymous": false,
      "inputs": [
        {
          "indexed": true,
          "internalType": "address",
          "name": "owner",
          "type": "address"
        },
        {
          "indexed": true,
          "internalType": "address",
          "name": "operator",
          "type": "address"
        },
        {
          "indexed": false,
          "internalType": "bool",
          "name": "approved",
          "type": "bool"
        }
      ],
      "name": "ApprovalForAll",
      "type": "event"
    },
    {
      "anonymous": false,
      "inputs": [
        {
          "indexed": true,
          "internalType": "address",
          "name": "previousOwner",
          "type": "address"
        },
        {
          "indexed": true,
          "internalType": "address",
          "name": "newOwner",
          "type": "address"
        }
      ],
      "name": "OwnershipTransferred",
      "type": "event"
    },
    {
      "anonymous": false,
      "inputs": [
        {
          "indexed": false,
          "internalType": "address",
          "name": "account",
          "type": "address"
        }
      ],
      "name": "Paused",
      "type": "event"
    },
    {
      "anonymous": false,
      "inputs": [
        {
          "indexed": true,
          "internalType": "address",
          "name": "from",
          "type": "address"
        },
        {
          "indexed": true,
          "internalType": "address",
          "name": "to",
          "type": "address"
        },
        {
          "indexed": true,
          "internalType": "uint256",
          "name": "tokenId",
          "type": "uint256"
        }
      ],
      "name": "Transfer",
      "type": "event"
    },
    {
      "anonymous": false,
      "inputs": [
        {
          "indexed": false,
          "internalType": "address",
          "name": "account",
          "type": "address"
        }
      ],
      "name": "Unpaused",
      "type": "event"
    },
    {
      "inputs": [
        {
          "internalType": "address",
          "name": "to",
          "type": "address"
        },
        {
          "internalType": "uint256",
          "name": "tokenId",
          "type": "uint256"
        }
      ],
      "name": "approve",
      "outputs": [],
      "stateMutability": "nonpayable",
      "type": "function"
    },
    {
      "inputs": [
        {
          "internalType": "address",
          "name": "owner",
          "type": "address"
        }
      ],
      "name": "balanceOf",
      "outputs": [
        {
          "internalType": "uint256",
          "name": "",
          "type": "uint256"
        }
      ],
      "stateMutability": "view",
      "type": "function"
    },
    {
      "inputs": [
        {
          "internalType": "uint256",
          "name": "tokenId",
          "type": "uint256"
        }
      ],
      "name": "burn",
      "outputs": [],
      "stateMutability": "nonpayable",
      "type": "function"
    },
    {
      "inputs": [],
      "name": "contractURI",
      "outputs": [
        {
          "internalType": "string",
          "name": "",
          "type": "string"
        }
      ],
      "stateMutability": "view",
      "type": "function"
    },
    {
      "inputs": [
        {
          "internalType": "uint256",
          "name": "tokenId",
          "type": "uint256"
        }
      ],
      "name": "getApproved",
      "outputs": [
        {
          "internalType": "address",
          "name": "",
          "type": "address"
        }
      ],
      "stateMutability": "view",
      "type": "function"
    },
    {
      "inputs": [
        {
          "internalType": "address",
          "name": "owner",
          "type": "address"
        },
        {
          "internalType": "address",
          "name": "operator",
          "type": "address"
        }
      ],
      "name": "isApprovedForAll",
      "outputs": [
        {
          "internalType": "bool",
          "name": "",
          "type": "bool"
        }
      ],
      "stateMutability": "view",
      "type": "function"
    },
    {
      "inputs": [],
      "name": "name",
      "outputs": [
        {
          "internalType": "string",
          "name": "",
          "type": "string"
        }
      ],
      "stateMutability": "view",
      "type": "function"
    },
    {
      "inputs": [],
      "name": "owner",
      "outputs": [
        {
          "internalType": "address",
          "name": "",
          "type": "address"
        }
      ],
      "stateMutability": "view",
      "type": "function"
    },
    {
      "inputs": [
        {
          "internalType": "uint256",
          "name": "tokenId",
          "type": "uint256"
        }
      ],
      "name": "ownerOf",
      "outputs": [
        {
          "internalType": "address",
          "name": "",
          "type": "address"
        }
      ],
      "stateMutability": "view",
      "type": "function"
    },
    {
      "inputs": [],
      "name": "pause",
      "outputs": [],
      "stateMutability": "nonpayable",
      "type": "function"
    },
    {
      "inputs": [],
      "name": "paused",
      "outputs": [
        {
          "internalType": "bool",
          "name": "",
          "type": "bool"
        }
      ],
      "stateMutability": "view",
      "type": "function"
    },
    {
      "inputs": [],
      "name": "removeDefaultRoyalty",
      "outputs": [],
      "stateMutability": "nonpayable",
      "type": "function"
    },
    {
      "inputs": [
        {
          "internalType": "uint256",
          "name": "tokenId",
          "type": "uint256"
        }
      ],
      "name": "removeTokenRoyalty",
      "outputs": [],
      "stateMutability": "nonpayable",
      "type": "function"
    },
    {
      "inputs": [],
      "name": "renounceOwnership",
      "outputs": [],
      "stateMutability": "nonpayable",
      "type": "function"
    },
    {
      "inputs": [
        {
          "internalType": "uint256",
          "name": "_tokenId",
          "type": "uint256"
        },
        {
          "internalType": "uint256",
          "name": "_salePrice",
          "type": "uint256"
        }
      ],
      "name": "royaltyInfo",
      "outputs": [
        {
          "internalType": "address",
          "name": "",
          "type": "address"
        },
        {
          "internalType": "uint256",
          "name": "",
          "type": "uint256"
        }
      ],
      "stateMutability": "view",
      "type": "function"
    },
    {
      "inputs": [
        {
          "internalType": "address",
          "name": "to",
          "type": "address"
        },
        {
          "internalType": "uint256",
          "name": "tokenId",
          "type": "uint256"
        }
      ],
      "name": "safeMint",
      "outputs": [],
      "stateMutability": "nonpayable",
      "type": "function"
    },
    {
      "inputs": [
        {
          "internalType": "address",
          "name": "to",
          "type": "address"
        },
        {
          "internalType": "uint256",
          "name": "tokenId",
          "type": "uint256"
        },
        {
          "internalType": "address",
          "name": "feeReceiver",
          "type": "address"
        },
        {
          "internalType": "uint96",
          "name": "feeNumerator",
          "type": "uint96"
        }
      ],
      "name": "safeMintWithRoyalty",
      "outputs": [],
      "stateMutability": "nonpayable",
      "type": "function"
    },
    {
      "inputs": [
        {
          "internalType": "address",
          "name": "from",
          "type": "address"
        },
        {
          "internalType": "address",
          "name": "to",
          "type": "address"
        },
        {
          "internalType": "uint256",
          "name": "tokenId",
          "type": "uint256"
        }
      ],
      "name": "safeTransferFrom",
      "outputs": [],
      "stateMutability": "nonpayable",
      "type": "function"
    },
    {
      "inputs": [
        {
          "internalType": "address",
          "name": "from",
          "type": "address"
        },
        {
          "internalType": "address",
          "name": "to",
          "type": "address"
        },
        {
          "internalType": "uint256",
          "name": "tokenId",
          "type": "uint256"
        },
        {
          "internalType": "bytes",
          "name": "data",
          "type": "bytes"
        }
      ],
      "name": "safeTransferFrom",
      "outputs": [],
      "stateMutability": "nonpayable",
      "type": "function"
    },
    {
      "inputs": [
        {
          "internalType": "address",
          "name": "operator",
          "type": "address"
        },
        {
          "internalType": "bool",
          "name": "approved",
          "type": "bool"
        }
      ],
      "name": "setApprovalForAll",
      "outputs": [],
      "stateMutability": "nonpayable",
      "type": "function"
    },
    {
      "inputs": [
        {
          "internalType": "bytes4",
          "name": "interfaceId",
          "type": "bytes4"
        }
      ],
      "name": "supportsInterface",
      "outputs": [
        {
          "internalType": "bool",
          "name": "",
          "type": "bool"
        }
      ],
      "stateMutability": "view",
      "type": "function"
    },
    {
      "inputs": [],
      "name": "symbol",
      "outputs": [
        {
          "internalType": "string",
          "name": "",
          "type": "string"
        }
      ],
      "stateMutability": "view",
      "type": "function"
    },
    {
      "inputs": [
        {
          "internalType": "uint256",
          "name": "index",
          "type": "uint256"
        }
      ],
      "name": "tokenByIndex",
      "outputs": [
        {
          "internalType": "uint256",
          "name": "",
          "type": "uint256"
        }
      ],
      "stateMutability": "view",
      "type": "function"
    },
    {
      "inputs": [
        {
          "internalType": "address",
          "name": "owner",
          "type": "address"
        },
        {
          "internalType": "uint256",
          "name": "index",
          "type": "uint256"
        }
      ],
      "name": "tokenOfOwnerByIndex",
      "outputs": [
        {
          "internalType": "uint256",
          "name": "",
          "type": "uint256"
        }
      ],
      "stateMutability": "view",
      "type": "function"
    },
    {
      "inputs": [
        {
          "internalType": "uint256",
          "name": "tokenId",
          "type": "uint256"
        }
      ],
      "name": "tokenURI",
      "outputs": [
        {
          "internalType": "string",
          "name": "",
          "type": "string"
        }
      ],
      "stateMutability": "view",
      "type": "function"
    },
    {
      "inputs": [],
      "name": "totalSupply",
      "outputs": [
        {
          "internalType": "uint256",
          "name": "",
          "type": "uint256"
        }
      ],
      "stateMutability": "view",
      "type": "function"
    },
    {
      "inputs": [
        {
          "internalType": "address",
          "name": "from",
          "type": "address"
        },
        {
          "internalType": "address",
          "name": "to",
          "type": "address"
        },
        {
          "internalType": "uint256",
          "name": "tokenId",
          "type": "uint256"
        }
      ],
      "name": "transferFrom",
      "outputs": [],
      "stateMutability": "nonpayable",
      "type": "function"
    },
    {
      "inputs": [
        {
          "internalType": "address",
          "name": "newOwner",
          "type": "address"
        }
      ],
      "name": "transferOwnership",
      "outputs": [],
      "stateMutability": "nonpayable",
      "type": "function"
    },
    {
      "inputs": [],
      "name": "unpause",
      "outputs": [],
      "stateMutability": "nonpayable",
      "type": "function"
    },
    {
      "inputs": [
        {
          "internalType": "string",
          "name": "_newContractURI",
          "type": "string"
        }
      ],
      "name": "updateContractURI",
      "outputs": [],
      "stateMutability": "nonpayable",
      "type": "function"
    },
    {
      "inputs": [
        {
          "internalType": "address",
          "name": "receiver",
          "type": "address"
        },
        {
          "internalType": "uint96",
          "name": "feeNumerator",
          "type": "uint96"
        }
      ],
      "name": "updateDefaultRoyalty",
      "outputs": [],
      "stateMutability": "nonpayable",
      "type": "function"
    },
    {
      "inputs": [
        {
          "internalType": "uint256",
          "name": "tokenId",
          "type": "uint256"
        },
        {
          "internalType": "address",
          "name": "receiver",
          "type": "address"
        },
        {
          "internalType": "uint96",
          "name": "feeNumerator",
          "type": "uint96"
        }
      ],
      "name": "updateTokenRoyalty",
      "outputs": [],
      "stateMutability": "nonpayable",
      "type": "function"
    }
  ],
  "bytecode": "0x60806040523480156200001157600080fd5b50604051620027b9380380620027b9833981016040819052620000349162000432565b604080518082018252600b81526a155b1d1c985d9a5bdb195d60aa1b6020808301918252835180850190945260048452634f43544960e01b908401528151919291620000839160009162000359565b5080516200009990600190602084019062000359565b5050600c805460ff1916905550620000b133620000de565b620000bf826103e862000138565b620000ca8162000152565b620000d58362000171565b50505062000573565b600c80546001600160a01b03838116610100818102610100600160a81b031985161790945560405193909204169182907f8be0079c531659141344cd1fd0a4f28419497f9722a3daafe3b4186f6b6457e090600090a35050565b62000142620001f4565b6200014e828262000258565b5050565b6200015c620001f4565b80516200014e90600d90602084019062000359565b6200017b620001f4565b6001600160a01b038116620001e65760405162461bcd60e51b815260206004820152602660248201527f4f776e61626c653a206e6577206f776e657220697320746865207a65726f206160448201526564647265737360d01b60648201526084015b60405180910390fd5b620001f181620000de565b50565b600c546001600160a01b03610100909104163314620002565760405162461bcd60e51b815260206004820181905260248201527f4f776e61626c653a2063616c6c6572206973206e6f7420746865206f776e65726044820152606401620001dd565b565b6127106001600160601b0382161115620002c85760405162461bcd60e51b815260206004820152602a60248201527f455243323938313a20726f79616c7479206665652077696c6c206578636565646044820152692073616c65507269636560b01b6064820152608401620001dd565b6001600160a01b038216620003205760405162461bcd60e51b815260206004820152601960248201527f455243323938313a20696e76616c6964207265636569766572000000000000006044820152606401620001dd565b604080518082019091526001600160a01b039092168083526001600160601b039091166020909201829052600160a01b90910217600655565b828054620003679062000536565b90600052602060002090601f0160209004810192826200038b5760008555620003d6565b82601f10620003a657805160ff1916838001178555620003d6565b82800160010185558215620003d6579182015b82811115620003d6578251825591602001919060010190620003b9565b50620003e4929150620003e8565b5090565b5b80821115620003e45760008155600101620003e9565b80516001600160a01b03811681146200041757600080fd5b919050565b634e487b7160e01b600052604160045260246000fd5b6000806000606084860312156200044857600080fd5b6200045384620003ff565b9250602062000464818601620003ff565b60408601519093506001600160401b03808211156200048257600080fd5b818701915087601f8301126200049757600080fd5b815181811115620004ac57620004ac6200041c565b604051601f8201601f19908116603f01168101908382118183101715620004d757620004d76200041c565b816040528281528a86848701011115620004f057600080fd5b600093505b82841015620005145784840186015181850187015292850192620004f5565b82841115620005265760008684830101525b8096505050505050509250925092565b600181811c908216806200054b57607f821691505b602082108114156200056d57634e487b7160e01b600052602260045260246000fd5b50919050565b61223680620005836000396000f3fe608060405234801561001057600080fd5b50600436106101f05760003560e01c8063715018a61161010f578063a22cb465116100a2578063e8a3d48511610071578063e8a3d4851461041c578063e985e9c514610424578063f10ac4a114610460578063f2fde38b1461047357600080fd5b8063a22cb465146103d0578063b88d4fde146103e3578063c87b56dd146103f6578063d691e43c1461040957600080fd5b80638da5cb5b116100de5780638da5cb5b1461039757806395d89b41146103ad57806397ec4fba146103b5578063a1448194146103bd57600080fd5b8063715018a6146103615780637e5b1e24146103695780638456cb591461037c57806386e228d51461038457600080fd5b80632f745c59116101875780634f6ccce7116101565780634f6ccce71461031d5780635c975abb146103305780636352211e1461033b57806370a082311461034e57600080fd5b80632f745c59146102dc5780633f4ba83a146102ef57806342842e0e146102f757806342966c681461030a57600080fd5b806318160ddd116101c357806318160ddd146102725780631e6b58181461028457806323b872dd146102975780632a55205a146102aa57600080fd5b806301ffc9a7146101f557806306fdde031461021d578063081812fc14610232578063095ea7b31461025d575b600080fd5b610208610203366004611b7f565b610486565b60405190151581526020015b60405180910390f35b610225610497565b6040516102149190611bf4565b610245610240366004611c07565b610529565b6040516001600160a01b039091168152602001610214565b61027061026b366004611c3c565b610550565b005b600a545b604051908152602001610214565b610270610292366004611c07565b61066b565b6102706102a5366004611c66565b610687565b6102bd6102b8366004611ca2565b6106b9565b604080516001600160a01b039093168352602083019190915201610214565b6102766102ea366004611c3c565b610765565b6102706107fb565b610270610305366004611c66565b61080d565b610270610318366004611c07565b610828565b61027661032b366004611c07565b610856565b600c5460ff16610208565b610245610349366004611c07565b6108e9565b61027661035c366004611cc4565b610949565b6102706109cf565b610270610377366004611d6b565b6109e1565b610270610a00565b610270610392366004611dcb565b610a10565b600c5461010090046001600160a01b0316610245565b610225610a23565b610270610a32565b6102706103cb366004611c3c565b610a44565b6102706103de366004611e07565b610a56565b6102706103f1366004611e43565b610a61565b610225610404366004611c07565b610a99565b610270610417366004611ebf565b610b00565b610225610b12565b610208610432366004611ef2565b6001600160a01b03918216600090815260056020908152604080832093909416825291909152205460ff1690565b61027061046e366004611f1c565b610ba0565b610270610481366004611cc4565b610bbd565b600061049182610c33565b92915050565b6060600080546104a690611f69565b80601f01602080910402602001604051908101604052809291908181526020018280546104d290611f69565b801561051f5780601f106104f45761010080835404028352916020019161051f565b820191906000526020600020905b81548152906001019060200180831161050257829003601f168201915b5050505050905090565b600061053482610c58565b506000908152600460205260409020546001600160a01b031690565b600061055b826108e9565b9050806001600160a01b0316836001600160a01b031614156105ce5760405162461bcd60e51b815260206004820152602160248201527f4552433732313a20617070726f76616c20746f2063757272656e74206f776e656044820152603960f91b60648201526084015b60405180910390fd5b336001600160a01b03821614806105ea57506105ea8133610432565b61065c5760405162461bcd60e51b815260206004820152603e60248201527f4552433732313a20617070726f76652063616c6c6572206973206e6f7420746f60448201527f6b656e206f776e6572206e6f7220617070726f76656420666f7220616c6c000060648201526084016105c5565b6106668383610cb7565b505050565b610673610d25565b600090815260076020526040812055565b50565b610692335b82610d85565b6106ae5760405162461bcd60e51b81526004016105c590611fa4565b610666838383610e04565b60008281526007602090815260408083208151808301909252546001600160a01b038116808352600160a01b9091046001600160601b031692820192909252829161072e5750604080518082019091526006546001600160a01b0381168252600160a01b90046001600160601b031660208201525b60208101516000906127109061074d906001600160601b031687612008565b610757919061203d565b915196919550909350505050565b600061077083610949565b82106107d25760405162461bcd60e51b815260206004820152602b60248201527f455243373231456e756d657261626c653a206f776e657220696e646578206f7560448201526a74206f6620626f756e647360a81b60648201526084016105c5565b506001600160a01b03919091166000908152600860209081526040808320938352929052205490565b610803610d25565b61080b610fab565b565b61066683838360405180602001604052806000815250610a61565b6108313361068c565b61084d5760405162461bcd60e51b81526004016105c590611fa4565b61068481610ffd565b6000610861600a5490565b82106108c45760405162461bcd60e51b815260206004820152602c60248201527f455243373231456e756d657261626c653a20676c6f62616c20696e646578206f60448201526b7574206f6620626f756e647360a01b60648201526084016105c5565b600a82815481106108d7576108d7612051565b90600052602060002001549050919050565b6000818152600260205260408120546001600160a01b0316806104915760405162461bcd60e51b8152602060048201526018602482015277115490cdcc8c4e881a5b9d985b1a59081d1bdad95b88125160421b60448201526064016105c5565b60006001600160a01b0382166109b35760405162461bcd60e51b815260206004820152602960248201527f4552433732313a2061646472657373207a65726f206973206e6f7420612076616044820152683634b21037bbb732b960b91b60648201526084016105c5565b506001600160a01b031660009081526003602052604090205490565b6109d7610d25565b61080b6000611006565b6109e9610d25565b80516109fc90600d906020840190611ad0565b5050565b610a08610d25565b61080b611060565b610a18610d25565b61066683838361109d565b6060600180546104a690611f69565b610a3a610d25565b61080b6000600655565b610a4c610d25565b6109fc8282611168565b6109fc338383611182565b610a6b3383610d85565b610a875760405162461bcd60e51b81526004016105c590611fa4565b610a9384848484611251565b50505050565b6060610aa482610c58565b6000610aae611284565b90506000815111610ace5760405180602001604052806000815250610af9565b80610ad884611293565b604051602001610ae9929190612067565b6040516020818303038152906040525b9392505050565b610b08610d25565b6109fc8282611391565b600d8054610b1f90611f69565b80601f0160208091040260200160405190810160405280929190818152602001828054610b4b90611f69565b8015610b985780601f10610b6d57610100808354040283529160200191610b98565b820191906000526020600020905b815481529060010190602001808311610b7b57829003601f168201915b505050505081565b610ba8610d25565b610bb28484610a44565b610a93838383610a10565b610bc5610d25565b6001600160a01b038116610c2a5760405162461bcd60e51b815260206004820152602660248201527f4f776e61626c653a206e6577206f776e657220697320746865207a65726f206160448201526564647265737360d01b60648201526084016105c5565b61068481611006565b60006001600160e01b0319821663780e9d6360e01b148061049157506104918261144b565b6000818152600260205260409020546001600160a01b03166106845760405162461bcd60e51b8152602060048201526018602482015277115490cdcc8c4e881a5b9d985b1a59081d1bdad95b88125160421b60448201526064016105c5565b600081815260046020526040902080546001600160a01b0319166001600160a01b0384169081179091558190610cec826108e9565b6001600160a01b03167f8c5be1e5ebec7d5bd14f71427d1e84f3dd0314c0f7b2291e5b200ac8c7c3b92560405160405180910390a45050565b600c546001600160a01b0361010090910416331461080b5760405162461bcd60e51b815260206004820181905260248201527f4f776e61626c653a2063616c6c6572206973206e6f7420746865206f776e657260448201526064016105c5565b600080610d91836108e9565b9050806001600160a01b0316846001600160a01b03161480610dd857506001600160a01b0380821660009081526005602090815260408083209388168352929052205460ff165b80610dfc5750836001600160a01b0316610df184610529565b6001600160a01b0316145b949350505050565b826001600160a01b0316610e17826108e9565b6001600160a01b031614610e7b5760405162461bcd60e51b815260206004820152602560248201527f4552433732313a207472616e736665722066726f6d20696e636f72726563742060448201526437bbb732b960d91b60648201526084016105c5565b6001600160a01b038216610edd5760405162461bcd60e51b8152602060048201526024808201527f4552433732313a207472616e7366657220746f20746865207a65726f206164646044820152637265737360e01b60648201526084016105c5565b610ee8838383611470565b610ef3600082610cb7565b6001600160a01b0383166000908152600360205260408120805460019290610f1c908490612096565b90915550506001600160a01b0382166000908152600360205260408120805460019290610f4a9084906120ad565b909155505060008181526002602052604080822080546001600160a01b0319166001600160a01b0386811691821790925591518493918716917fddf252ad1be2c89b69c2b068fc378daa952ba7f163c4a11628f55a4df523b3ef91a4505050565b610fb3611483565b600c805460ff191690557f5db9ee0a495bf2e6ff9c91a7834c1ba4fdd244a5e8aa4e537bd38aeae4b073aa335b6040516001600160a01b03909116815260200160405180910390a1565b610673816114cc565b600c80546001600160a01b03838116610100818102610100600160a81b031985161790945560405193909204169182907f8be0079c531659141344cd1fd0a4f28419497f9722a3daafe3b4186f6b6457e090600090a35050565b611068611573565b600c805460ff191660011790557f62e78cea01bee320cd4e420270b5ea74000d11b0c9f74754ebdbfc544b05a258610fe03390565b6127106001600160601b03821611156110c85760405162461bcd60e51b81526004016105c5906120c5565b6001600160a01b03821661111e5760405162461bcd60e51b815260206004820152601b60248201527f455243323938313a20496e76616c696420706172616d6574657273000000000060448201526064016105c5565b6040805180820182526001600160a01b0393841681526001600160601b0392831660208083019182526000968752600790529190942093519051909116600160a01b029116179055565b6109fc8282604051806020016040528060008152506115b9565b816001600160a01b0316836001600160a01b031614156111e45760405162461bcd60e51b815260206004820152601960248201527f4552433732313a20617070726f766520746f2063616c6c65720000000000000060448201526064016105c5565b6001600160a01b03838116600081815260056020908152604080832094871680845294825291829020805460ff191686151590811790915591519182527f17307eab39ab6107e8899845ad3d59bd9653f200f220920489ca2b5937696c31910160405180910390a3505050565b61125c848484610e04565b611268848484846115ec565b610a935760405162461bcd60e51b81526004016105c59061210f565b6060600d80546104a690611f69565b6060816112b75750506040805180820190915260018152600360fc1b602082015290565b8160005b81156112e157806112cb81612161565b91506112da9050600a8361203d565b91506112bb565b60008167ffffffffffffffff8111156112fc576112fc611cdf565b6040519080825280601f01601f191660200182016040528015611326576020820181803683370190505b5090505b8415610dfc5761133b600183612096565b9150611348600a8661217c565b6113539060306120ad565b60f81b81838151811061136857611368612051565b60200101906001600160f81b031916908160001a90535061138a600a8661203d565b945061132a565b6127106001600160601b03821611156113bc5760405162461bcd60e51b81526004016105c5906120c5565b6001600160a01b0382166114125760405162461bcd60e51b815260206004820152601960248201527f455243323938313a20696e76616c69642072656365697665720000000000000060448201526064016105c5565b604080518082019091526001600160a01b039092168083526001600160601b039091166020909201829052600160a01b90910217600655565b60006001600160e01b0319821663152a902d60e11b14806104915750610491826116ea565b611478611573565b61066683838361173a565b600c5460ff1661080b5760405162461bcd60e51b815260206004820152601460248201527314185d5cd8589b194e881b9bdd081c185d5cd95960621b60448201526064016105c5565b60006114d7826108e9565b90506114e581600084611470565b6114f0600083610cb7565b6001600160a01b0381166000908152600360205260408120805460019290611519908490612096565b909155505060008281526002602052604080822080546001600160a01b0319169055518391906001600160a01b038416907fddf252ad1be2c89b69c2b068fc378daa952ba7f163c4a11628f55a4df523b3ef908390a45050565b600c5460ff161561080b5760405162461bcd60e51b815260206004820152601060248201526f14185d5cd8589b194e881c185d5cd95960821b60448201526064016105c5565b6115c383836117f2565b6115d060008484846115ec565b6106665760405162461bcd60e51b81526004016105c59061210f565b60006001600160a01b0384163b156116df57604051630a85bd0160e11b81526001600160a01b0385169063150b7a0290611630903390899088908890600401612190565b6020604051808303816000875af192505050801561166b575060408051601f3d908101601f19168201909252611668918101906121cd565b60015b6116c5573d808015611699576040519150601f19603f3d011682016040523d82523d6000602084013e61169e565b606091505b5080516116bd5760405162461bcd60e51b81526004016105c59061210f565b805181602001fd5b6001600160e01b031916630a85bd0160e11b149050610dfc565b506001949350505050565b60006001600160e01b031982166380ac58cd60e01b148061171b57506001600160e01b03198216635b5e139f60e01b145b8061049157506301ffc9a760e01b6001600160e01b0319831614610491565b6001600160a01b0383166117955761179081600a80546000838152600b60205260408120829055600182018355919091527fc65a7bb8d6351c1cf70c95a316cc6a92839c986682d98bc35f958f4883f9d2a80155565b6117b8565b816001600160a01b0316836001600160a01b0316146117b8576117b88382611940565b6001600160a01b0382166117cf57610666816119dd565b826001600160a01b0316826001600160a01b031614610666576106668282611a8c565b6001600160a01b0382166118485760405162461bcd60e51b815260206004820181905260248201527f4552433732313a206d696e7420746f20746865207a65726f206164647265737360448201526064016105c5565b6000818152600260205260409020546001600160a01b0316156118ad5760405162461bcd60e51b815260206004820152601c60248201527f4552433732313a20746f6b656e20616c7265616479206d696e7465640000000060448201526064016105c5565b6118b960008383611470565b6001600160a01b03821660009081526003602052604081208054600192906118e29084906120ad565b909155505060008181526002602052604080822080546001600160a01b0319166001600160a01b03861690811790915590518392907fddf252ad1be2c89b69c2b068fc378daa952ba7f163c4a11628f55a4df523b3ef908290a45050565b6000600161194d84610949565b6119579190612096565b6000838152600960205260409020549091508082146119aa576001600160a01b03841660009081526008602090815260408083208584528252808320548484528184208190558352600990915290208190555b5060009182526009602090815260408084208490556001600160a01b039094168352600881528383209183525290812055565b600a546000906119ef90600190612096565b6000838152600b6020526040812054600a8054939450909284908110611a1757611a17612051565b9060005260206000200154905080600a8381548110611a3857611a38612051565b6000918252602080832090910192909255828152600b9091526040808220849055858252812055600a805480611a7057611a706121ea565b6001900381819060005260206000200160009055905550505050565b6000611a9783610949565b6001600160a01b039093166000908152600860209081526040808320868452825280832085905593825260099052919091209190915550565b828054611adc90611f69565b90600052602060002090601f016020900481019282611afe5760008555611b44565b82601f10611b1757805160ff1916838001178555611b44565b82800160010185558215611b44579182015b82811115611b44578251825591602001919060010190611b29565b50611b50929150611b54565b5090565b5b80821115611b505760008155600101611b55565b6001600160e01b03198116811461068457600080fd5b600060208284031215611b9157600080fd5b8135610af981611b69565b60005b83811015611bb7578181015183820152602001611b9f565b83811115610a935750506000910152565b60008151808452611be0816020860160208601611b9c565b601f01601f19169290920160200192915050565b602081526000610af96020830184611bc8565b600060208284031215611c1957600080fd5b5035919050565b80356001600160a01b0381168114611c3757600080fd5b919050565b60008060408385031215611c4f57600080fd5b611c5883611c20565b946020939093013593505050565b600080600060608486031215611c7b57600080fd5b611c8484611c20565b9250611c9260208501611c20565b9150604084013590509250925092565b60008060408385031215611cb557600080fd5b50508035926020909101359150565b600060208284031215611cd657600080fd5b610af982611c20565b634e487b7160e01b600052604160045260246000fd5b600067ffffffffffffffff80841115611d1057611d10611cdf565b604051601f8501601f19908116603f01168101908282118183101715611d3857611d38611cdf565b81604052809350858152868686011115611d5157600080fd5b858560208301376000602087830101525050509392505050565b600060208284031215611d7d57600080fd5b813567ffffffffffffffff811115611d9457600080fd5b8201601f81018413611da557600080fd5b610dfc84823560208401611cf5565b80356001600160601b0381168114611c3757600080fd5b600080600060608486031215611de057600080fd5b83359250611df060208501611c20565b9150611dfe60408501611db4565b90509250925092565b60008060408385031215611e1a57600080fd5b611e2383611c20565b915060208301358015158114611e3857600080fd5b809150509250929050565b60008060008060808587031215611e5957600080fd5b611e6285611c20565b9350611e7060208601611c20565b925060408501359150606085013567ffffffffffffffff811115611e9357600080fd5b8501601f81018713611ea457600080fd5b611eb387823560208401611cf5565b91505092959194509250565b60008060408385031215611ed257600080fd5b611edb83611c20565b9150611ee960208401611db4565b90509250929050565b60008060408385031215611f0557600080fd5b611f0e83611c20565b9150611ee960208401611c20565b60008060008060808587031215611f3257600080fd5b611f3b85611c20565b935060208501359250611f5060408601611c20565b9150611f5e60608601611db4565b905092959194509250565b600181811c90821680611f7d57607f821691505b60208210811415611f9e57634e487b7160e01b600052602260045260246000fd5b50919050565b6020808252602e908201527f4552433732313a2063616c6c6572206973206e6f7420746f6b656e206f776e6560408201526d1c881b9bdc88185c1c1c9bdd995960921b606082015260800190565b634e487b7160e01b600052601160045260246000fd5b600081600019048311821515161561202257612022611ff2565b500290565b634e487b7160e01b600052601260045260246000fd5b60008261204c5761204c612027565b500490565b634e487b7160e01b600052603260045260246000fd5b60008351612079818460208801611b9c565b83519083019061208d818360208801611b9c565b01949350505050565b6000828210156120a8576120a8611ff2565b500390565b600082198211156120c0576120c0611ff2565b500190565b6020808252602a908201527f455243323938313a20726f79616c7479206665652077696c6c206578636565646040820152692073616c65507269636560b01b606082015260800190565b60208082526032908201527f4552433732313a207472616e7366657220746f206e6f6e20455243373231526560408201527131b2b4bb32b91034b6b83632b6b2b73a32b960711b606082015260800190565b600060001982141561217557612175611ff2565b5060010190565b60008261218b5761218b612027565b500690565b6001600160a01b03858116825284166020820152604081018390526080606082018190526000906121c390830184611bc8565b9695505050505050565b6000602082840312156121df57600080fd5b8151610af981611b69565b634e487b7160e01b600052603160045260246000fdfea2646970667358221220f6cf5cfd4dafd7f27d93c4d4a393dd82262362b7622e96eb341a9593f0186c0564736f6c634300080c0033",
  "linkReferences": {},
  "deployedLinkReferences": {}
}