{
  "_format": "hh-sol-artifact-1",
  "contractName": "OctiTokenCollectable",
  "sourceName": "contracts/OctiTokenCollectable.sol",
  "abi": [
    {
      "inputs": [],
      "stateMutability": "nonpayable",
      "type": "constructor"
    },
    {
      "anonymous": false,
      "inputs": [
        {
          "indexed": false,
          "internalType": "address",
          "name": "previousAdmin",
          "type": "address"
        },
        {
          "indexed": false,
          "internalType": "address",
          "name": "newAdmin",
          "type": "address"
        }
      ],
      "name": "AdminChanged",
      "type": "event"
    },
    {
      "anonymous": false,
      "inputs": [
        {
          "indexed": true,
          "internalType": "address",
          "name": "owner",
          "type": "address"
        },
        {
          "indexed": true,
          "internalType": "address",
          "name": "approved",
          "type": "address"
        },
        {
          "indexed": true,
          "internalType": "uint256",
          "name": "tokenId",
          "type": "uint256"
        }
      ],
      "name": "Approval",
      "type": "event"
    },
    {
      "anonymous": false,
      "inputs": [
        {
          "indexed": true,
          "internalType": "address",
          "name": "owner",
          "type": "address"
        },
        {
          "indexed": true,
          "internalType": "address",
          "name": "operator",
          "type": "address"
        },
        {
          "indexed": false,
          "internalType": "bool",
          "name": "approved",
          "type": "bool"
        }
      ],
      "name": "ApprovalForAll",
      "type": "event"
    },
    {
      "anonymous": false,
      "inputs": [
        {
          "indexed": true,
          "internalType": "address",
          "name": "beacon",
          "type": "address"
        }
      ],
      "name": "BeaconUpgraded",
      "type": "event"
    },
    {
      "anonymous": false,
      "inputs": [
        {
          "indexed": true,
          "internalType": "uint256",
          "name": "eventId",
          "type": "uint256"
        },
        {
          "indexed": false,
          "internalType": "uint256",
          "name": "tokenId",
          "type": "uint256"
        },
        {
          "indexed": false,
          "internalType": "address",
          "name": "owner",
          "type": "address"
        }
      ],
      "name": "EventToken",
      "type": "event"
    },
    {
      "anonymous": false,
      "inputs": [
        {
          "indexed": false,
          "internalType": "uint8",
          "name": "version",
          "type": "uint8"
        }
      ],
      "name": "Initialized",
      "type": "event"
    },
    {
      "anonymous": false,
      "inputs": [
        {
          "indexed": true,
          "internalType": "address",
          "name": "previousOwner",
          "type": "address"
        },
        {
          "indexed": true,
          "internalType": "address",
          "name": "newOwner",
          "type": "address"
        }
      ],
      "name": "OwnershipTransferred",
      "type": "event"
    },
    {
      "anonymous": false,
      "inputs": [
        {
          "indexed": false,
          "internalType": "address",
          "name": "account",
          "type": "address"
        }
      ],
      "name": "Paused",
      "type": "event"
    },
    {
      "anonymous": false,
      "inputs": [
        {
          "indexed": true,
          "internalType": "address",
          "name": "from",
          "type": "address"
        },
        {
          "indexed": true,
          "internalType": "address",
          "name": "to",
          "type": "address"
        },
        {
          "indexed": true,
          "internalType": "uint256",
          "name": "tokenId",
          "type": "uint256"
        }
      ],
      "name": "Transfer",
      "type": "event"
    },
    {
      "anonymous": false,
      "inputs": [
        {
          "indexed": false,
          "internalType": "address",
          "name": "account",
          "type": "address"
        }
      ],
      "name": "Unpaused",
      "type": "event"
    },
    {
      "anonymous": false,
      "inputs": [
        {
          "indexed": true,
          "internalType": "address",
          "name": "implementation",
          "type": "address"
        }
      ],
      "name": "Upgraded",
      "type": "event"
    },
    {
      "inputs": [],
      "name": "_contractURI",
      "outputs": [
        {
          "internalType": "string",
          "name": "",
          "type": "string"
        }
      ],
      "stateMutability": "view",
      "type": "function"
    },
    {
      "inputs": [
        {
          "internalType": "address",
          "name": "to",
          "type": "address"
        },
        {
          "internalType": "uint256",
          "name": "tokenId",
          "type": "uint256"
        }
      ],
      "name": "approve",
      "outputs": [],
      "stateMutability": "nonpayable",
      "type": "function"
    },
    {
      "inputs": [
        {
          "internalType": "address",
          "name": "owner",
          "type": "address"
        }
      ],
      "name": "balanceOf",
      "outputs": [
        {
          "internalType": "uint256",
          "name": "",
          "type": "uint256"
        }
      ],
      "stateMutability": "view",
      "type": "function"
    },
    {
      "inputs": [
        {
          "internalType": "uint256",
          "name": "tokenId",
          "type": "uint256"
        }
      ],
      "name": "burn",
      "outputs": [],
      "stateMutability": "nonpayable",
      "type": "function"
    },
    {
      "inputs": [
        {
          "internalType": "uint256",
          "name": "eventId",
          "type": "uint256"
        }
      ],
      "name": "eventURI",
      "outputs": [
        {
          "internalType": "string",
          "name": "",
          "type": "string"
        }
      ],
      "stateMutability": "view",
      "type": "function"
    },
    {
      "inputs": [
        {
          "internalType": "uint256",
          "name": "tokenId",
          "type": "uint256"
        }
      ],
      "name": "getApproved",
      "outputs": [
        {
          "internalType": "address",
          "name": "",
          "type": "address"
        }
      ],
      "stateMutability": "view",
      "type": "function"
    },
    {
      "inputs": [
        {
          "internalType": "address",
          "name": "__royaltyAddress",
          "type": "address"
        },
        {
          "internalType": "string",
          "name": "__contractURI",
          "type": "string"
        }
      ],
      "name": "initialize",
      "outputs": [],
      "stateMutability": "nonpayable",
      "type": "function"
    },
    {
      "inputs": [
        {
          "internalType": "address",
          "name": "owner",
          "type": "address"
        },
        {
          "internalType": "address",
          "name": "operator",
          "type": "address"
        }
      ],
      "name": "isApprovedForAll",
      "outputs": [
        {
          "internalType": "bool",
          "name": "",
          "type": "bool"
        }
      ],
      "stateMutability": "view",
      "type": "function"
    },
    {
      "inputs": [],
      "name": "lastId",
      "outputs": [
        {
          "internalType": "uint256",
          "name": "",
          "type": "uint256"
        }
      ],
      "stateMutability": "view",
      "type": "function"
    },
    {
      "inputs": [
        {
          "internalType": "uint256",
          "name": "eventId",
          "type": "uint256"
        },
        {
          "internalType": "address[]",
          "name": "to",
          "type": "address[]"
        }
      ],
      "name": "mintEventToManyUsers",
      "outputs": [
        {
          "internalType": "bool",
          "name": "",
          "type": "bool"
        }
      ],
      "stateMutability": "nonpayable",
      "type": "function"
    },
    {
      "inputs": [
        {
          "internalType": "uint256",
          "name": "eventId",
          "type": "uint256"
        },
        {
          "internalType": "address",
          "name": "to",
          "type": "address"
        }
      ],
      "name": "mintToken",
      "outputs": [
        {
          "internalType": "bool",
          "name": "",
          "type": "bool"
        }
      ],
      "stateMutability": "nonpayable",
      "type": "function"
    },
    {
      "inputs": [
        {
          "internalType": "uint256[]",
          "name": "eventIds",
          "type": "uint256[]"
        },
        {
          "internalType": "address",
          "name": "to",
          "type": "address"
        }
      ],
      "name": "mintUserToManyEvents",
      "outputs": [
        {
          "internalType": "bool",
          "name": "",
          "type": "bool"
        }
      ],
      "stateMutability": "nonpayable",
      "type": "function"
    },
    {
      "inputs": [],
      "name": "name",
      "outputs": [
        {
          "internalType": "string",
          "name": "",
          "type": "string"
        }
      ],
      "stateMutability": "view",
      "type": "function"
    },
    {
      "inputs": [],
      "name": "owner",
      "outputs": [
        {
          "internalType": "address",
          "name": "",
          "type": "address"
        }
      ],
      "stateMutability": "view",
      "type": "function"
    },
    {
      "inputs": [
        {
          "internalType": "uint256",
          "name": "tokenId",
          "type": "uint256"
        }
      ],
      "name": "ownerOf",
      "outputs": [
        {
          "internalType": "address",
          "name": "",
          "type": "address"
        }
      ],
      "stateMutability": "view",
      "type": "function"
    },
    {
      "inputs": [],
      "name": "pause",
      "outputs": [],
      "stateMutability": "nonpayable",
      "type": "function"
    },
    {
      "inputs": [],
      "name": "paused",
      "outputs": [
        {
          "internalType": "bool",
          "name": "",
          "type": "bool"
        }
      ],
      "stateMutability": "view",
      "type": "function"
    },
    {
      "inputs": [],
      "name": "proxiableUUID",
      "outputs": [
        {
          "internalType": "bytes32",
          "name": "",
          "type": "bytes32"
        }
      ],
      "stateMutability": "view",
      "type": "function"
    },
    {
      "inputs": [],
      "name": "removeDefaultRoyalty",
      "outputs": [],
      "stateMutability": "nonpayable",
      "type": "function"
    },
    {
      "inputs": [
        {
          "internalType": "uint256",
          "name": "tokenId",
          "type": "uint256"
        }
      ],
      "name": "removeEventRoyalty",
      "outputs": [],
      "stateMutability": "nonpayable",
      "type": "function"
    },
    {
      "inputs": [],
      "name": "renounceOwnership",
      "outputs": [],
      "stateMutability": "nonpayable",
      "type": "function"
    },
    {
      "inputs": [
        {
          "internalType": "uint256",
          "name": "_tokenId",
          "type": "uint256"
        },
        {
          "internalType": "uint256",
          "name": "_salePrice",
          "type": "uint256"
        }
      ],
      "name": "royaltyInfo",
      "outputs": [
        {
          "internalType": "address",
          "name": "",
          "type": "address"
        },
        {
          "internalType": "uint256",
          "name": "",
          "type": "uint256"
        }
      ],
      "stateMutability": "view",
      "type": "function"
    },
    {
      "inputs": [
        {
          "internalType": "address",
          "name": "from",
          "type": "address"
        },
        {
          "internalType": "address",
          "name": "to",
          "type": "address"
        },
        {
          "internalType": "uint256",
          "name": "tokenId",
          "type": "uint256"
        }
      ],
      "name": "safeTransferFrom",
      "outputs": [],
      "stateMutability": "nonpayable",
      "type": "function"
    },
    {
      "inputs": [
        {
          "internalType": "address",
          "name": "from",
          "type": "address"
        },
        {
          "internalType": "address",
          "name": "to",
          "type": "address"
        },
        {
          "internalType": "uint256",
          "name": "tokenId",
          "type": "uint256"
        },
        {
          "internalType": "bytes",
          "name": "data",
          "type": "bytes"
        }
      ],
      "name": "safeTransferFrom",
      "outputs": [],
      "stateMutability": "nonpayable",
      "type": "function"
    },
    {
      "inputs": [
        {
          "internalType": "address",
          "name": "operator",
          "type": "address"
        },
        {
          "internalType": "bool",
          "name": "approved",
          "type": "bool"
        }
      ],
      "name": "setApprovalForAll",
      "outputs": [],
      "stateMutability": "nonpayable",
      "type": "function"
    },
    {
      "inputs": [
        {
          "internalType": "uint256",
          "name": "newLastId",
          "type": "uint256"
        }
      ],
      "name": "setLastId",
      "outputs": [],
      "stateMutability": "nonpayable",
      "type": "function"
    },
    {
      "inputs": [
        {
          "internalType": "bytes4",
          "name": "interfaceId",
          "type": "bytes4"
        }
      ],
      "name": "supportsInterface",
      "outputs": [
        {
          "internalType": "bool",
          "name": "",
          "type": "bool"
        }
      ],
      "stateMutability": "view",
      "type": "function"
    },
    {
      "inputs": [],
      "name": "symbol",
      "outputs": [
        {
          "internalType": "string",
          "name": "",
          "type": "string"
        }
      ],
      "stateMutability": "view",
      "type": "function"
    },
    {
      "inputs": [
        {
          "internalType": "uint256",
          "name": "index",
          "type": "uint256"
        }
      ],
      "name": "tokenByIndex",
      "outputs": [
        {
          "internalType": "uint256",
          "name": "",
          "type": "uint256"
        }
      ],
      "stateMutability": "view",
      "type": "function"
    },
    {
      "inputs": [
        {
          "internalType": "address",
          "name": "owner",
          "type": "address"
        },
        {
          "internalType": "uint256",
          "name": "index",
          "type": "uint256"
        }
      ],
      "name": "tokenDetailsOfOwnerByIndex",
      "outputs": [
        {
          "internalType": "uint256",
          "name": "tokenId",
          "type": "uint256"
        },
        {
          "internalType": "uint256",
          "name": "eventId",
          "type": "uint256"
        }
      ],
      "stateMutability": "view",
      "type": "function"
    },
    {
      "inputs": [
        {
          "internalType": "uint256",
          "name": "tokenId",
          "type": "uint256"
        }
      ],
      "name": "tokenEvent",
      "outputs": [
        {
          "internalType": "uint256",
          "name": "",
          "type": "uint256"
        }
      ],
      "stateMutability": "view",
      "type": "function"
    },
    {
      "inputs": [
        {
          "internalType": "address",
          "name": "owner",
          "type": "address"
        },
        {
          "internalType": "uint256",
          "name": "index",
          "type": "uint256"
        }
      ],
      "name": "tokenOfOwnerByIndex",
      "outputs": [
        {
          "internalType": "uint256",
          "name": "",
          "type": "uint256"
        }
      ],
      "stateMutability": "view",
      "type": "function"
    },
    {
      "inputs": [
        {
          "internalType": "uint256",
          "name": "tokenId",
          "type": "uint256"
        }
      ],
      "name": "tokenURI",
      "outputs": [
        {
          "internalType": "string",
          "name": "",
          "type": "string"
        }
      ],
      "stateMutability": "view",
      "type": "function"
    },
    {
      "inputs": [],
      "name": "totalSupply",
      "outputs": [
        {
          "internalType": "uint256",
          "name": "",
          "type": "uint256"
        }
      ],
      "stateMutability": "view",
      "type": "function"
    },
    {
      "inputs": [
        {
          "internalType": "address",
          "name": "from",
          "type": "address"
        },
        {
          "internalType": "address",
          "name": "to",
          "type": "address"
        },
        {
          "internalType": "uint256",
          "name": "tokenId",
          "type": "uint256"
        }
      ],
      "name": "transferFrom",
      "outputs": [],
      "stateMutability": "nonpayable",
      "type": "function"
    },
    {
      "inputs": [
        {
          "internalType": "address",
          "name": "newOwner",
          "type": "address"
        }
      ],
      "name": "transferOwnership",
      "outputs": [],
      "stateMutability": "nonpayable",
      "type": "function"
    },
    {
      "inputs": [],
      "name": "unpause",
      "outputs": [],
      "stateMutability": "nonpayable",
      "type": "function"
    },
    {
      "inputs": [
        {
          "internalType": "string",
          "name": "__contractURI",
          "type": "string"
        }
      ],
      "name": "updateContractURI",
      "outputs": [],
      "stateMutability": "nonpayable",
      "type": "function"
    },
    {
      "inputs": [
        {
          "internalType": "address",
          "name": "receiver",
          "type": "address"
        },
        {
          "internalType": "uint96",
          "name": "feeNumerator",
          "type": "uint96"
        }
      ],
      "name": "updateDefaultRoyalty",
      "outputs": [],
      "stateMutability": "nonpayable",
      "type": "function"
    },
    {
      "inputs": [
        {
          "internalType": "uint256",
          "name": "eventId",
          "type": "uint256"
        },
        {
          "internalType": "address",
          "name": "receiver",
          "type": "address"
        },
        {
          "internalType": "uint96",
          "name": "feeNumerator",
          "type": "uint96"
        }
      ],
      "name": "updateEventRoyalty",
      "outputs": [],
      "stateMutability": "nonpayable",
      "type": "function"
    },
    {
      "inputs": [
        {
          "internalType": "address",
          "name": "newImplementation",
          "type": "address"
        }
      ],
      "name": "upgradeTo",
      "outputs": [],
      "stateMutability": "nonpayable",
      "type": "function"
    },
    {
      "inputs": [
        {
          "internalType": "address",
          "name": "newImplementation",
          "type": "address"
        },
        {
          "internalType": "bytes",
          "name": "data",
          "type": "bytes"
        }
      ],
      "name": "upgradeToAndCall",
      "outputs": [],
      "stateMutability": "payable",
      "type": "function"
    }
  ],
  "bytecode": "0x60a0604052306080523480156200001557600080fd5b506200002062000026565b620000e8565b600054610100900460ff1615620000935760405162461bcd60e51b815260206004820152602760248201527f496e697469616c697a61626c653a20636f6e747261637420697320696e697469604482015266616c697a696e6760c81b606482015260840160405180910390fd5b60005460ff9081161015620000e6576000805460ff191660ff9081179091556040519081527f7f26b83ff96e1f2b6a682f133852f6798a09c465da95921460cefb38474024989060200160405180910390a15b565b6080516137b46200012060003960008181610c4a01528181610c8a01528181610d8501528181610dc50152610eeb01526137b46000f3fe6080604052600436106102515760003560e01c806367e971ce11610139578063a140ae23116100b6578063c87b56dd1161007a578063c87b56dd146106d2578063d691e43c146106f2578063e985e9c514610712578063f2fde38b1461075b578063f399e22e1461077b578063f980f3dc1461079b57600080fd5b8063a140ae2314610646578063a22cb46514610666578063b88d4fde14610686578063c0e72740146106a6578063c1292cc3146106bb57600080fd5b80638456cb59116100fd5780638456cb59146105c85780638da5cb5b146105dd57806395d89b41146105fc57806397ec4fba14610611578063a0fd0c6a1461062657600080fd5b806367e971ce1461051e57806370a0823114610553578063715018a61461057357806378fa0654146105885780637e5b1e24146105a857600080fd5b80632f745c59116101d25780634f1ef286116101965780634f1ef2861461047e5780634f6ccce71461049157806352d1902d146104b15780635c975abb146104c65780635f330b41146104de5780636352211e146104fe57600080fd5b80632f745c59146103e95780633659cfe6146104095780633f4ba83a1461042957806342842e0e1461043e57806342966c681461045e57600080fd5b806318160ddd1161021957806318160ddd146103355780631a27e85f1461034a57806323b872dd1461036a578063278d9c411461038a5780632a55205a146103aa57600080fd5b806301ffc9a71461025657806306fdde031461028b578063081812fc146102ad578063095ea7b3146102e5578063127a529814610307575b600080fd5b34801561026257600080fd5b50610276610271366004612e28565b6107bb565b60405190151581526020015b60405180910390f35b34801561029757600080fd5b506102a06107cc565b6040516102829190612e9d565b3480156102b957600080fd5b506102cd6102c8366004612eb0565b61085e565b6040516001600160a01b039091168152602001610282565b3480156102f157600080fd5b50610305610300366004612ee5565b610885565b005b34801561031357600080fd5b50610327610322366004612eb0565b6109a0565b604051908152602001610282565b34801561034157600080fd5b50609954610327565b34801561035657600080fd5b50610305610365366004612eb0565b6109bf565b34801561037657600080fd5b50610305610385366004612f0f565b610a27565b34801561039657600080fd5b506102766103a5366004612fb6565b610a59565b3480156103b657600080fd5b506103ca6103c536600461305f565b610ae9565b604080516001600160a01b039093168352602083019190915201610282565b3480156103f557600080fd5b50610327610404366004612ee5565b610ba9565b34801561041557600080fd5b50610305610424366004613081565b610c3f565b34801561043557600080fd5b50610305610d1f565b34801561044a57600080fd5b50610305610459366004612f0f565b610d31565b34801561046a57600080fd5b50610305610479366004612eb0565b610d4c565b61030561048c36600461310c565b610d7a565b34801561049d57600080fd5b506103276104ac366004612eb0565b610e4b565b3480156104bd57600080fd5b50610327610ede565b3480156104d257600080fd5b5060fb5460ff16610276565b3480156104ea57600080fd5b506103056104f9366004612eb0565b610f91565b34801561050a57600080fd5b506102cd610519366004612eb0565b610fab565b34801561052a57600080fd5b5061053e610539366004612ee5565b61100b565b60408051928352602083019190915201610282565b34801561055f57600080fd5b5061032761056e366004613081565b61102c565b34801561057f57600080fd5b506103056110b2565b34801561059457600080fd5b506103056105a3366004613171565b6110c4565b3480156105b457600080fd5b506103056105c33660046131ad565b6110d7565b3480156105d457600080fd5b506103056110f3565b3480156105e957600080fd5b5061012d546001600160a01b03166102cd565b34801561060857600080fd5b506102a0611103565b34801561061d57600080fd5b50610305611112565b34801561063257600080fd5b506102a0610641366004612eb0565b611125565b34801561065257600080fd5b506102766106613660046131e2565b6111f4565b34801561067257600080fd5b50610305610681366004613205565b611236565b34801561069257600080fd5b506103056106a1366004613241565b611241565b3480156106b257600080fd5b506102a0611279565b3480156106c757600080fd5b506103276101c45481565b3480156106de57600080fd5b506102a06106ed366004612eb0565b611308565b3480156106fe57600080fd5b5061030561070d3660046132a9565b6113f5565b34801561071e57600080fd5b5061027661072d3660046132d3565b6001600160a01b039182166000908152606a6020908152604080832093909416825291909152205460ff1690565b34801561076757600080fd5b50610305610776366004613081565b611407565b34801561078757600080fd5b5061030561079636600461310c565b61147d565b3480156107a757600080fd5b506102766107b63660046132fd565b61160d565b60006107c68261168f565b92915050565b6060606580546107db906133a0565b80601f0160208091040260200160405190810160405280929190818152602001828054610807906133a0565b80156108545780601f1061082957610100808354040283529160200191610854565b820191906000526020600020905b81548152906001019060200180831161083757829003601f168201915b5050505050905090565b6000610869826116b4565b506000908152606960205260409020546001600160a01b031690565b600061089082610fab565b9050806001600160a01b0316836001600160a01b031614156109035760405162461bcd60e51b815260206004820152602160248201527f4552433732313a20617070726f76616c20746f2063757272656e74206f776e656044820152603960f91b60648201526084015b60405180910390fd5b336001600160a01b038216148061091f575061091f813361072d565b6109915760405162461bcd60e51b815260206004820152603e60248201527f4552433732313a20617070726f76652063616c6c6572206973206e6f7420746f60448201527f6b656e206f776e6572206e6f7220617070726f76656420666f7220616c6c000060648201526084016108fa565b61099b8383611713565b505050565b60006109ab826116b4565b5060009081526101c5602052604090205490565b6109c7611781565b6109cf6117dc565b806101c45410610a215760405162461bcd60e51b815260206004820152601760248201527f4e65772049642068617320746f2062652068696768657200000000000000000060448201526064016108fa565b6101c455565b610a32335b82611822565b610a4e5760405162461bcd60e51b81526004016108fa906133db565b61099b8383836118a1565b6000610a636117dc565b610a6b611781565b60005b8251811015610ac657610ab584826101c4546001610a8c919061343f565b610a96919061343f565b858481518110610aa857610aa8613457565b6020026020010151611a48565b50610abf8161346d565b9050610a6e565b5081516101c46000828254610adb919061343f565b909155506001949350505050565b6000806000610af7856109a0565b60008181526101c760209081526040918290208251808401909352546001600160a01b038116808452600160a01b9091046001600160601b03169183019190915291925090610b715750604080518082019091526101c6546001600160a01b0381168252600160a01b90046001600160601b031660208201525b602081015160009061271090610b90906001600160601b031688613488565b610b9a91906134bd565b91519791965090945050505050565b6000610bb48361102c565b8210610c165760405162461bcd60e51b815260206004820152602b60248201527f455243373231456e756d657261626c653a206f776e657220696e646578206f7560448201526a74206f6620626f756e647360a81b60648201526084016108fa565b506001600160a01b03919091166000908152609760209081526040808320938352929052205490565b306001600160a01b037f0000000000000000000000000000000000000000000000000000000000000000161415610c885760405162461bcd60e51b81526004016108fa906134d1565b7f00000000000000000000000000000000000000000000000000000000000000006001600160a01b0316610cd1600080516020613738833981519152546001600160a01b031690565b6001600160a01b031614610cf75760405162461bcd60e51b81526004016108fa9061351d565b610d0081611abe565b60408051600080825260208201909252610d1c91839190611ac6565b50565b610d27611781565b610d2f611c31565b565b61099b83838360405180602001604052806000815250611241565b610d5533610a2c565b610d715760405162461bcd60e51b81526004016108fa906133db565b610d1c81611c83565b306001600160a01b037f0000000000000000000000000000000000000000000000000000000000000000161415610dc35760405162461bcd60e51b81526004016108fa906134d1565b7f00000000000000000000000000000000000000000000000000000000000000006001600160a01b0316610e0c600080516020613738833981519152546001600160a01b031690565b6001600160a01b031614610e325760405162461bcd60e51b81526004016108fa9061351d565b610e3b82611abe565b610e4782826001611ac6565b5050565b6000610e5660995490565b8210610eb95760405162461bcd60e51b815260206004820152602c60248201527f455243373231456e756d657261626c653a20676c6f62616c20696e646578206f60448201526b7574206f6620626f756e647360a01b60648201526084016108fa565b60998281548110610ecc57610ecc613457565b90600052602060002001549050919050565b6000306001600160a01b037f00000000000000000000000000000000000000000000000000000000000000001614610f7e5760405162461bcd60e51b815260206004820152603860248201527f555550535570677261646561626c653a206d757374206e6f742062652063616c60448201527f6c6564207468726f7567682064656c656761746563616c6c000000000000000060648201526084016108fa565b5060008051602061373883398151915290565b610f99611781565b60009081526101c76020526040812055565b6000818152606760205260408120546001600160a01b0316806107c65760405162461bcd60e51b8152602060048201526018602482015277115490cdcc8c4e881a5b9d985b1a59081d1bdad95b88125160421b60448201526064016108fa565b6000806110188484610ba9565b9150611023826109a0565b90509250929050565b60006001600160a01b0382166110965760405162461bcd60e51b815260206004820152602960248201527f4552433732313a2061646472657373207a65726f206973206e6f7420612076616044820152683634b21037bbb732b960b91b60648201526084016108fa565b506001600160a01b031660009081526068602052604090205490565b6110ba611781565b610d2f6000611c9e565b6110cc611781565b61099b838383611cf1565b6110df611781565b8051610e47906101c3906020840190612d79565b6110fb611781565b610d2f611dbd565b6060606680546107db906133a0565b61111a611781565b610d2f60006101c655565b60606107c66101c38054611138906133a0565b80601f0160208091040260200160405190810160405280929190818152602001828054611164906133a0565b80156111b15780601f10611186576101008083540402835291602001916111b1565b820191906000526020600020905b81548152906001019060200180831161119457829003601f168201915b50505050506111bf84611dfa565b604051806020016040528060008152506040518060200160405280600081525060405180602001604052806000815250611f0e565b60006111fe6117dc565b611206611781565b60016101c4600082825461121a919061343f565b9250508190555061122f836101c45484611a48565b9392505050565b610e473383836121f3565b61124b3383611822565b6112675760405162461bcd60e51b81526004016108fa906133db565b611273848484846122c2565b50505050565b6101c38054611287906133a0565b80601f01602080910402602001604051908101604052809291908181526020018280546112b3906133a0565b80156113005780601f106112d557610100808354040283529160200191611300565b820191906000526020600020905b8154815290600101906020018083116112e357829003601f168201915b505050505081565b6060611313826116b4565b60008281526101c560205260409020546101c3805461122f9190611336906133a0565b80601f0160208091040260200160405190810160405280929190818152602001828054611362906133a0565b80156113af5780601f10611384576101008083540402835291602001916113af565b820191906000526020600020905b81548152906001019060200180831161139257829003601f168201915b50505050506113bd83611dfa565b604051806040016040528060018152602001602f60f81b8152506113e087611dfa565b60405180602001604052806000815250611f0e565b6113fd611781565b610e4782826122f5565b61140f611781565b6001600160a01b0381166114745760405162461bcd60e51b815260206004820152602660248201527f4f776e61626c653a206e6577206f776e657220697320746865207a65726f206160448201526564647265737360d01b60648201526084016108fa565b610d1c81611c9e565b600054610100900460ff161580801561149d5750600054600160ff909116105b806114b75750303b1580156114b7575060005460ff166001145b61151a5760405162461bcd60e51b815260206004820152602e60248201527f496e697469616c697a61626c653a20636f6e747261637420697320616c72656160448201526d191e481a5b9a5d1a585b1a5e995960921b60648201526084016108fa565b6000805460ff19166001179055801561153d576000805461ff0019166101001790555b6115866040518060400160405280600b81526020016a155b1d1c985d9a5bdb195d60aa1b815250604051806040016040528060048152602001634f43544960e01b8152506123b0565b61158e6123e1565b611596612408565b61159e612437565b6115a66123e1565b6115ae6123e1565b6115ba836103e86113f5565b6115c3826110d7565b801561099b576000805461ff0019169055604051600181527f7f26b83ff96e1f2b6a682f133852f6798a09c465da95921460cefb38474024989060200160405180910390a1505050565b60006116176117dc565b61161f611781565b60005b835181101561167a5761166984828151811061164057611640613457565b6020026020010151826101c4546001611659919061343f565b611663919061343f565b85611a48565b506116738161346d565b9050611622565b5082516101c46000828254610adb919061343f565b60006001600160e01b0319821663780e9d6360e01b14806107c657506107c682612466565b6000818152606760205260409020546001600160a01b0316610d1c5760405162461bcd60e51b8152602060048201526018602482015277115490cdcc8c4e881a5b9d985b1a59081d1bdad95b88125160421b60448201526064016108fa565b600081815260696020526040902080546001600160a01b0319166001600160a01b038416908117909155819061174882610fab565b6001600160a01b03167f8c5be1e5ebec7d5bd14f71427d1e84f3dd0314c0f7b2291e5b200ac8c7c3b92560405160405180910390a45050565b61012d546001600160a01b03163314610d2f5760405162461bcd60e51b815260206004820181905260248201527f4f776e61626c653a2063616c6c6572206973206e6f7420746865206f776e657260448201526064016108fa565b60fb5460ff1615610d2f5760405162461bcd60e51b815260206004820152601060248201526f14185d5cd8589b194e881c185d5cd95960821b60448201526064016108fa565b60008061182e83610fab565b9050806001600160a01b0316846001600160a01b0316148061187557506001600160a01b038082166000908152606a602090815260408083209388168352929052205460ff165b806118995750836001600160a01b031661188e8461085e565b6001600160a01b0316145b949350505050565b826001600160a01b03166118b482610fab565b6001600160a01b0316146119185760405162461bcd60e51b815260206004820152602560248201527f4552433732313a207472616e736665722066726f6d20696e636f72726563742060448201526437bbb732b960d91b60648201526084016108fa565b6001600160a01b03821661197a5760405162461bcd60e51b8152602060048201526024808201527f4552433732313a207472616e7366657220746f20746865207a65726f206164646044820152637265737360e01b60648201526084016108fa565b6119858383836124b6565b611990600082611713565b6001600160a01b03831660009081526068602052604081208054600192906119b9908490613569565b90915550506001600160a01b03821660009081526068602052604081208054600192906119e790849061343f565b909155505060008181526067602052604080822080546001600160a01b0319166001600160a01b0386811691821790925591518493918716917fddf252ad1be2c89b69c2b068fc378daa952ba7f163c4a11628f55a4df523b3ef91a4505050565b6000611a5482846124c9565b60008381526101c56020526040908190208590555184907fec9d9655acbb8dbf12beb9ebf7359163b66e0411167df02b6f445e6014cb18f790611aac90869086909182526001600160a01b0316602082015260400190565b60405180910390a25060019392505050565b610d1c611781565b7f4910fdfa16fed3260ed0e7147f7cc6da11a60208b5b9406d12a635614ffd91435460ff1615611af95761099b836124e3565b826001600160a01b03166352d1902d6040518163ffffffff1660e01b8152600401602060405180830381865afa925050508015611b53575060408051601f3d908101601f19168201909252611b5091810190613580565b60015b611bb65760405162461bcd60e51b815260206004820152602e60248201527f45524331393637557067726164653a206e657720696d706c656d656e7461746960448201526d6f6e206973206e6f74205555505360901b60648201526084016108fa565b6000805160206137388339815191528114611c255760405162461bcd60e51b815260206004820152602960248201527f45524331393637557067726164653a20756e737570706f727465642070726f786044820152681a58589b195555525160ba1b60648201526084016108fa565b5061099b83838361257f565b611c396125a4565b60fb805460ff191690557f5db9ee0a495bf2e6ff9c91a7834c1ba4fdd244a5e8aa4e537bd38aeae4b073aa335b6040516001600160a01b03909116815260200160405180910390a1565b611c8c816125ed565b60009081526101c56020526040812055565b61012d80546001600160a01b038381166001600160a01b0319831681179093556040519116919082907f8be0079c531659141344cd1fd0a4f28419497f9722a3daafe3b4186f6b6457e090600090a35050565b6127106001600160601b0382161115611d1c5760405162461bcd60e51b81526004016108fa90613599565b6001600160a01b038216611d725760405162461bcd60e51b815260206004820152601b60248201527f455243323938313a20496e76616c696420706172616d6574657273000000000060448201526064016108fa565b6040805180820182526001600160a01b0393841681526001600160601b03928316602080830191825260009687526101c790529190942093519051909116600160a01b029116179055565b611dc56117dc565b60fb805460ff191660011790557f62e78cea01bee320cd4e420270b5ea74000d11b0c9f74754ebdbfc544b05a258611c663390565b606081611e1e5750506040805180820190915260018152600360fc1b602082015290565b8160005b8115611e485780611e328161346d565b9150611e419050600a836134bd565b9150611e22565b60008167ffffffffffffffff811115611e6357611e63612f4b565b6040519080825280601f01601f191660200182016040528015611e8d576020820181803683370190505b5090506000611e9d600184613569565b90505b8515611f0557611eb1600a876135e3565b611ebc90603061343f565b60f81b8282611eca816135f7565b935081518110611edc57611edc613457565b60200101906001600160f81b031916908160001a905350611efe600a876134bd565b9550611ea0565b50949350505050565b805182518451865188516060948a948a948a948a948a94600094909390929091611f38919061343f565b611f42919061343f565b611f4c919061343f565b611f56919061343f565b67ffffffffffffffff811115611f6e57611f6e612f4b565b6040519080825280601f01601f191660200182016040528015611f98576020820181803683370190505b509050806000805b885181101561201057888181518110611fbb57611fbb613457565b01602001516001600160f81b0319168383611fd58161346d565b945081518110611fe757611fe7613457565b60200101906001600160f81b031916908160001a905350806120088161346d565b915050611fa0565b5060005b87518110156120845787818151811061202f5761202f613457565b01602001516001600160f81b03191683836120498161346d565b94508151811061205b5761205b613457565b60200101906001600160f81b031916908160001a9053508061207c8161346d565b915050612014565b5060005b86518110156120f8578681815181106120a3576120a3613457565b01602001516001600160f81b03191683836120bd8161346d565b9450815181106120cf576120cf613457565b60200101906001600160f81b031916908160001a905350806120f08161346d565b915050612088565b5060005b855181101561216c5785818151811061211757612117613457565b01602001516001600160f81b03191683836121318161346d565b94508151811061214357612143613457565b60200101906001600160f81b031916908160001a905350806121648161346d565b9150506120fc565b5060005b84518110156121e05784818151811061218b5761218b613457565b01602001516001600160f81b03191683836121a58161346d565b9450815181106121b7576121b7613457565b60200101906001600160f81b031916908160001a905350806121d88161346d565b915050612170565b50909d9c50505050505050505050505050565b816001600160a01b0316836001600160a01b031614156122555760405162461bcd60e51b815260206004820152601960248201527f4552433732313a20617070726f766520746f2063616c6c65720000000000000060448201526064016108fa565b6001600160a01b038381166000818152606a6020908152604080832094871680845294825291829020805460ff191686151590811790915591519182527f17307eab39ab6107e8899845ad3d59bd9653f200f220920489ca2b5937696c31910160405180910390a3505050565b6122cd8484846118a1565b6122d984848484612694565b6112735760405162461bcd60e51b81526004016108fa9061360e565b6127106001600160601b03821611156123205760405162461bcd60e51b81526004016108fa90613599565b6001600160a01b0382166123765760405162461bcd60e51b815260206004820152601960248201527f455243323938313a20696e76616c69642072656365697665720000000000000060448201526064016108fa565b604080518082019091526001600160a01b039092168083526001600160601b039091166020909201829052600160a01b909102176101c655565b600054610100900460ff166123d75760405162461bcd60e51b81526004016108fa90613660565b610e478282612792565b600054610100900460ff16610d2f5760405162461bcd60e51b81526004016108fa90613660565b600054610100900460ff1661242f5760405162461bcd60e51b81526004016108fa90613660565b610d2f6127e0565b600054610100900460ff1661245e5760405162461bcd60e51b81526004016108fa90613660565b610d2f612813565b60006001600160e01b031982166380ac58cd60e01b148061249757506001600160e01b03198216635b5e139f60e01b145b806107c657506301ffc9a760e01b6001600160e01b03198316146107c6565b6124be6117dc565b61099b838383612843565b610e478282604051806020016040528060008152506128fb565b6001600160a01b0381163b6125505760405162461bcd60e51b815260206004820152602d60248201527f455243313936373a206e657720696d706c656d656e746174696f6e206973206e60448201526c1bdd08184818dbdb9d1c9858dd609a1b60648201526084016108fa565b60008051602061373883398151915280546001600160a01b0319166001600160a01b0392909216919091179055565b6125888361292e565b6000825111806125955750805b1561099b57611273838361296e565b60fb5460ff16610d2f5760405162461bcd60e51b815260206004820152601460248201527314185d5cd8589b194e881b9bdd081c185d5cd95960621b60448201526064016108fa565b60006125f882610fab565b9050612606816000846124b6565b612611600083611713565b6001600160a01b038116600090815260686020526040812080546001929061263a908490613569565b909155505060008281526067602052604080822080546001600160a01b0319169055518391906001600160a01b038416907fddf252ad1be2c89b69c2b068fc378daa952ba7f163c4a11628f55a4df523b3ef908390a45050565b60006001600160a01b0384163b1561278757604051630a85bd0160e11b81526001600160a01b0385169063150b7a02906126d89033908990889088906004016136ab565b6020604051808303816000875af1925050508015612713575060408051601f3d908101601f19168201909252612710918101906136e8565b60015b61276d573d808015612741576040519150601f19603f3d011682016040523d82523d6000602084013e612746565b606091505b5080516127655760405162461bcd60e51b81526004016108fa9061360e565b805181602001fd5b6001600160e01b031916630a85bd0160e11b149050611899565b506001949350505050565b600054610100900460ff166127b95760405162461bcd60e51b81526004016108fa90613660565b81516127cc906065906020850190612d79565b50805161099b906066906020840190612d79565b600054610100900460ff166128075760405162461bcd60e51b81526004016108fa90613660565b60fb805460ff19169055565b600054610100900460ff1661283a5760405162461bcd60e51b81526004016108fa90613660565b610d2f33611c9e565b6001600160a01b03831661289e5761289981609980546000838152609a60205260408120829055600182018355919091527f72a152ddfb8e864297c917af52ea6c1c68aead0fee1a62673fcc7e0c94979d000155565b6128c1565b816001600160a01b0316836001600160a01b0316146128c1576128c18382612a62565b6001600160a01b0382166128d85761099b81612aff565b826001600160a01b0316826001600160a01b03161461099b5761099b8282612bae565b6129058383612bf2565b6129126000848484612694565b61099b5760405162461bcd60e51b81526004016108fa9061360e565b612937816124e3565b6040516001600160a01b038216907fbc7cd75a20ee27fd9adebab32041f755214dbc6bffa90cc0225b39da2e5c2d3b90600090a250565b60606001600160a01b0383163b6129d65760405162461bcd60e51b815260206004820152602660248201527f416464726573733a2064656c65676174652063616c6c20746f206e6f6e2d636f6044820152651b9d1c9858dd60d21b60648201526084016108fa565b600080846001600160a01b0316846040516129f19190613705565b600060405180830381855af49150503d8060008114612a2c576040519150601f19603f3d011682016040523d82523d6000602084013e612a31565b606091505b5091509150612a59828260405180606001604052806027815260200161375860279139612d40565b95945050505050565b60006001612a6f8461102c565b612a799190613569565b600083815260986020526040902054909150808214612acc576001600160a01b03841660009081526097602090815260408083208584528252808320548484528184208190558352609890915290208190555b5060009182526098602090815260408084208490556001600160a01b039094168352609781528383209183525290812055565b609954600090612b1190600190613569565b6000838152609a602052604081205460998054939450909284908110612b3957612b39613457565b906000526020600020015490508060998381548110612b5a57612b5a613457565b6000918252602080832090910192909255828152609a90915260408082208490558582528120556099805480612b9257612b92613721565b6001900381819060005260206000200160009055905550505050565b6000612bb98361102c565b6001600160a01b039093166000908152609760209081526040808320868452825280832085905593825260989052919091209190915550565b6001600160a01b038216612c485760405162461bcd60e51b815260206004820181905260248201527f4552433732313a206d696e7420746f20746865207a65726f206164647265737360448201526064016108fa565b6000818152606760205260409020546001600160a01b031615612cad5760405162461bcd60e51b815260206004820152601c60248201527f4552433732313a20746f6b656e20616c7265616479206d696e7465640000000060448201526064016108fa565b612cb9600083836124b6565b6001600160a01b0382166000908152606860205260408120805460019290612ce290849061343f565b909155505060008181526067602052604080822080546001600160a01b0319166001600160a01b03861690811790915590518392907fddf252ad1be2c89b69c2b068fc378daa952ba7f163c4a11628f55a4df523b3ef908290a45050565b60608315612d4f57508161122f565b825115612d5f5782518084602001fd5b8160405162461bcd60e51b81526004016108fa9190612e9d565b828054612d85906133a0565b90600052602060002090601f016020900481019282612da75760008555612ded565b82601f10612dc057805160ff1916838001178555612ded565b82800160010185558215612ded579182015b82811115612ded578251825591602001919060010190612dd2565b50612df9929150612dfd565b5090565b5b80821115612df95760008155600101612dfe565b6001600160e01b031981168114610d1c57600080fd5b600060208284031215612e3a57600080fd5b813561122f81612e12565b60005b83811015612e60578181015183820152602001612e48565b838111156112735750506000910152565b60008151808452612e89816020860160208601612e45565b601f01601f19169290920160200192915050565b60208152600061122f6020830184612e71565b600060208284031215612ec257600080fd5b5035919050565b80356001600160a01b0381168114612ee057600080fd5b919050565b60008060408385031215612ef857600080fd5b612f0183612ec9565b946020939093013593505050565b600080600060608486031215612f2457600080fd5b612f2d84612ec9565b9250612f3b60208501612ec9565b9150604084013590509250925092565b634e487b7160e01b600052604160045260246000fd5b604051601f8201601f1916810167ffffffffffffffff81118282101715612f8a57612f8a612f4b565b604052919050565b600067ffffffffffffffff821115612fac57612fac612f4b565b5060051b60200190565b60008060408385031215612fc957600080fd5b8235915060208084013567ffffffffffffffff811115612fe857600080fd5b8401601f81018613612ff957600080fd5b803561300c61300782612f92565b612f61565b81815260059190911b8201830190838101908883111561302b57600080fd5b928401925b828410156130505761304184612ec9565b82529284019290840190613030565b80955050505050509250929050565b6000806040838503121561307257600080fd5b50508035926020909101359150565b60006020828403121561309357600080fd5b61122f82612ec9565b600082601f8301126130ad57600080fd5b813567ffffffffffffffff8111156130c7576130c7612f4b565b6130da601f8201601f1916602001612f61565b8181528460208386010111156130ef57600080fd5b816020850160208301376000918101602001919091529392505050565b6000806040838503121561311f57600080fd5b61312883612ec9565b9150602083013567ffffffffffffffff81111561314457600080fd5b6131508582860161309c565b9150509250929050565b80356001600160601b0381168114612ee057600080fd5b60008060006060848603121561318657600080fd5b8335925061319660208501612ec9565b91506131a46040850161315a565b90509250925092565b6000602082840312156131bf57600080fd5b813567ffffffffffffffff8111156131d657600080fd5b6118998482850161309c565b600080604083850312156131f557600080fd5b8235915061102360208401612ec9565b6000806040838503121561321857600080fd5b61322183612ec9565b91506020830135801515811461323657600080fd5b809150509250929050565b6000806000806080858703121561325757600080fd5b61326085612ec9565b935061326e60208601612ec9565b925060408501359150606085013567ffffffffffffffff81111561329157600080fd5b61329d8782880161309c565b91505092959194509250565b600080604083850312156132bc57600080fd5b6132c583612ec9565b91506110236020840161315a565b600080604083850312156132e657600080fd5b6132ef83612ec9565b915061102360208401612ec9565b6000806040838503121561331057600080fd5b823567ffffffffffffffff81111561332757600080fd5b8301601f8101851361333857600080fd5b8035602061334861300783612f92565b82815260059290921b8301810191818101908884111561336757600080fd5b938201935b838510156133855784358252938201939082019061336c565b95506133949050868201612ec9565b93505050509250929050565b600181811c908216806133b457607f821691505b602082108114156133d557634e487b7160e01b600052602260045260246000fd5b50919050565b6020808252602e908201527f4552433732313a2063616c6c6572206973206e6f7420746f6b656e206f776e6560408201526d1c881b9bdc88185c1c1c9bdd995960921b606082015260800190565b634e487b7160e01b600052601160045260246000fd5b6000821982111561345257613452613429565b500190565b634e487b7160e01b600052603260045260246000fd5b600060001982141561348157613481613429565b5060010190565b60008160001904831182151516156134a2576134a2613429565b500290565b634e487b7160e01b600052601260045260246000fd5b6000826134cc576134cc6134a7565b500490565b6020808252602c908201527f46756e6374696f6e206d7573742062652063616c6c6564207468726f7567682060408201526b19195b1959d85d1958d85b1b60a21b606082015260800190565b6020808252602c908201527f46756e6374696f6e206d7573742062652063616c6c6564207468726f7567682060408201526b6163746976652070726f787960a01b606082015260800190565b60008282101561357b5761357b613429565b500390565b60006020828403121561359257600080fd5b5051919050565b6020808252602a908201527f455243323938313a20726f79616c7479206665652077696c6c206578636565646040820152692073616c65507269636560b01b606082015260800190565b6000826135f2576135f26134a7565b500690565b60008161360657613606613429565b506000190190565b60208082526032908201527f4552433732313a207472616e7366657220746f206e6f6e20455243373231526560408201527131b2b4bb32b91034b6b83632b6b2b73a32b960711b606082015260800190565b6020808252602b908201527f496e697469616c697a61626c653a20636f6e7472616374206973206e6f74206960408201526a6e697469616c697a696e6760a81b606082015260800190565b6001600160a01b03858116825284166020820152604081018390526080606082018190526000906136de90830184612e71565b9695505050505050565b6000602082840312156136fa57600080fd5b815161122f81612e12565b60008251613717818460208701612e45565b9190910192915050565b634e487b7160e01b600052603160045260246000fdfe360894a13ba1a3210667c828492db98dca3e2076cc3735a920a3ca505d382bbc416464726573733a206c6f772d6c6576656c2064656c65676174652063616c6c206661696c6564a264697066735822122030c1e810d382575ba0c1aa4d1536e89b18aecbee8a801cbee5ef86b4da40ae3764736f6c634300080c0033",
  "linkReferences": {},
  "deployedLinkReferences": {}
}