{
  "_format": "hh-sol-artifact-1",
  "contractName": "OctiTokenCollectable",
  "sourceName": "contracts/OctiTokenCollectable.sol",
  "abi": [
    {
      "inputs": [],
      "stateMutability": "nonpayable",
      "type": "constructor"
    },
    {
      "anonymous": false,
      "inputs": [
        {
          "indexed": false,
          "internalType": "address",
          "name": "previousAdmin",
          "type": "address"
        },
        {
          "indexed": false,
          "internalType": "address",
          "name": "newAdmin",
          "type": "address"
        }
      ],
      "name": "AdminChanged",
      "type": "event"
    },
    {
      "anonymous": false,
      "inputs": [
        {
          "indexed": true,
          "internalType": "address",
          "name": "owner",
          "type": "address"
        },
        {
          "indexed": true,
          "internalType": "address",
          "name": "approved",
          "type": "address"
        },
        {
          "indexed": true,
          "internalType": "uint256",
          "name": "tokenId",
          "type": "uint256"
        }
      ],
      "name": "Approval",
      "type": "event"
    },
    {
      "anonymous": false,
      "inputs": [
        {
          "indexed": true,
          "internalType": "address",
          "name": "owner",
          "type": "address"
        },
        {
          "indexed": true,
          "internalType": "address",
          "name": "operator",
          "type": "address"
        },
        {
          "indexed": false,
          "internalType": "bool",
          "name": "approved",
          "type": "bool"
        }
      ],
      "name": "ApprovalForAll",
      "type": "event"
    },
    {
      "anonymous": false,
      "inputs": [
        {
          "indexed": true,
          "internalType": "address",
          "name": "beacon",
          "type": "address"
        }
      ],
      "name": "BeaconUpgraded",
      "type": "event"
    },
    {
      "anonymous": false,
      "inputs": [
        {
          "indexed": false,
          "internalType": "uint8",
          "name": "version",
          "type": "uint8"
        }
      ],
      "name": "Initialized",
      "type": "event"
    },
    {
      "anonymous": false,
      "inputs": [
        {
          "indexed": true,
          "internalType": "uint256",
          "name": "eventId",
          "type": "uint256"
        },
        {
          "indexed": false,
          "internalType": "uint256",
          "name": "tokenId",
          "type": "uint256"
        },
        {
          "indexed": false,
          "internalType": "address",
          "name": "owner",
          "type": "address"
        }
      ],
      "name": "Minted",
      "type": "event"
    },
    {
      "anonymous": false,
      "inputs": [
        {
          "indexed": true,
          "internalType": "address",
          "name": "previousOwner",
          "type": "address"
        },
        {
          "indexed": true,
          "internalType": "address",
          "name": "newOwner",
          "type": "address"
        }
      ],
      "name": "OwnershipTransferred",
      "type": "event"
    },
    {
      "anonymous": false,
      "inputs": [
        {
          "indexed": false,
          "internalType": "address",
          "name": "account",
          "type": "address"
        }
      ],
      "name": "Paused",
      "type": "event"
    },
    {
      "anonymous": false,
      "inputs": [
        {
          "indexed": true,
          "internalType": "address",
          "name": "from",
          "type": "address"
        },
        {
          "indexed": true,
          "internalType": "address",
          "name": "to",
          "type": "address"
        },
        {
          "indexed": true,
          "internalType": "uint256",
          "name": "tokenId",
          "type": "uint256"
        }
      ],
      "name": "Transfer",
      "type": "event"
    },
    {
      "anonymous": false,
      "inputs": [
        {
          "indexed": false,
          "internalType": "address",
          "name": "account",
          "type": "address"
        }
      ],
      "name": "Unpaused",
      "type": "event"
    },
    {
      "anonymous": false,
      "inputs": [
        {
          "indexed": true,
          "internalType": "address",
          "name": "implementation",
          "type": "address"
        }
      ],
      "name": "Upgraded",
      "type": "event"
    },
    {
      "inputs": [
        {
          "internalType": "address",
          "name": "to",
          "type": "address"
        },
        {
          "internalType": "uint256",
          "name": "tokenId",
          "type": "uint256"
        }
      ],
      "name": "approve",
      "outputs": [],
      "stateMutability": "nonpayable",
      "type": "function"
    },
    {
      "inputs": [
        {
          "internalType": "address",
          "name": "owner",
          "type": "address"
        }
      ],
      "name": "balanceOf",
      "outputs": [
        {
          "internalType": "uint256",
          "name": "",
          "type": "uint256"
        }
      ],
      "stateMutability": "view",
      "type": "function"
    },
    {
      "inputs": [
        {
          "internalType": "uint256",
          "name": "tokenId",
          "type": "uint256"
        }
      ],
      "name": "burn",
      "outputs": [],
      "stateMutability": "nonpayable",
      "type": "function"
    },
    {
      "inputs": [],
      "name": "contractURI",
      "outputs": [
        {
          "internalType": "string",
          "name": "",
          "type": "string"
        }
      ],
      "stateMutability": "view",
      "type": "function"
    },
    {
      "inputs": [
        {
          "internalType": "uint256",
          "name": "eventId",
          "type": "uint256"
        }
      ],
      "name": "eventURI",
      "outputs": [
        {
          "internalType": "string",
          "name": "",
          "type": "string"
        }
      ],
      "stateMutability": "view",
      "type": "function"
    },
    {
      "inputs": [
        {
          "internalType": "uint256",
          "name": "tokenId",
          "type": "uint256"
        }
      ],
      "name": "getApproved",
      "outputs": [
        {
          "internalType": "address",
          "name": "",
          "type": "address"
        }
      ],
      "stateMutability": "view",
      "type": "function"
    },
    {
      "inputs": [
        {
          "internalType": "address",
          "name": "__royaltyAddress",
          "type": "address"
        },
        {
          "internalType": "string",
          "name": "__contractURI",
          "type": "string"
        }
      ],
      "name": "initialize",
      "outputs": [],
      "stateMutability": "nonpayable",
      "type": "function"
    },
    {
      "inputs": [
        {
          "internalType": "address",
          "name": "owner",
          "type": "address"
        },
        {
          "internalType": "address",
          "name": "operator",
          "type": "address"
        }
      ],
      "name": "isApprovedForAll",
      "outputs": [
        {
          "internalType": "bool",
          "name": "",
          "type": "bool"
        }
      ],
      "stateMutability": "view",
      "type": "function"
    },
    {
      "inputs": [],
      "name": "lastId",
      "outputs": [
        {
          "internalType": "uint256",
          "name": "",
          "type": "uint256"
        }
      ],
      "stateMutability": "view",
      "type": "function"
    },
    {
      "inputs": [
        {
          "internalType": "uint256",
          "name": "eventId",
          "type": "uint256"
        },
        {
          "internalType": "address[]",
          "name": "to",
          "type": "address[]"
        }
      ],
      "name": "mintEventToManyUsers",
      "outputs": [
        {
          "internalType": "bool",
          "name": "",
          "type": "bool"
        }
      ],
      "stateMutability": "nonpayable",
      "type": "function"
    },
    {
      "inputs": [
        {
          "internalType": "uint256",
          "name": "eventId",
          "type": "uint256"
        },
        {
          "internalType": "address",
          "name": "to",
          "type": "address"
        }
      ],
      "name": "mintToken",
      "outputs": [
        {
          "internalType": "bool",
          "name": "",
          "type": "bool"
        }
      ],
      "stateMutability": "nonpayable",
      "type": "function"
    },
    {
      "inputs": [
        {
          "internalType": "uint256[]",
          "name": "eventIds",
          "type": "uint256[]"
        },
        {
          "internalType": "address",
          "name": "to",
          "type": "address"
        }
      ],
      "name": "mintUserToManyEvents",
      "outputs": [
        {
          "internalType": "bool",
          "name": "",
          "type": "bool"
        }
      ],
      "stateMutability": "nonpayable",
      "type": "function"
    },
    {
      "inputs": [],
      "name": "name",
      "outputs": [
        {
          "internalType": "string",
          "name": "",
          "type": "string"
        }
      ],
      "stateMutability": "view",
      "type": "function"
    },
    {
      "inputs": [],
      "name": "owner",
      "outputs": [
        {
          "internalType": "address",
          "name": "",
          "type": "address"
        }
      ],
      "stateMutability": "view",
      "type": "function"
    },
    {
      "inputs": [
        {
          "internalType": "uint256",
          "name": "tokenId",
          "type": "uint256"
        }
      ],
      "name": "ownerOf",
      "outputs": [
        {
          "internalType": "address",
          "name": "",
          "type": "address"
        }
      ],
      "stateMutability": "view",
      "type": "function"
    },
    {
      "inputs": [],
      "name": "pause",
      "outputs": [],
      "stateMutability": "nonpayable",
      "type": "function"
    },
    {
      "inputs": [],
      "name": "paused",
      "outputs": [
        {
          "internalType": "bool",
          "name": "",
          "type": "bool"
        }
      ],
      "stateMutability": "view",
      "type": "function"
    },
    {
      "inputs": [],
      "name": "proxiableUUID",
      "outputs": [
        {
          "internalType": "bytes32",
          "name": "",
          "type": "bytes32"
        }
      ],
      "stateMutability": "view",
      "type": "function"
    },
    {
      "inputs": [],
      "name": "removeDefaultRoyalty",
      "outputs": [],
      "stateMutability": "nonpayable",
      "type": "function"
    },
    {
      "inputs": [
        {
          "internalType": "uint256",
          "name": "eventId",
          "type": "uint256"
        }
      ],
      "name": "removeEventRoyalty",
      "outputs": [],
      "stateMutability": "nonpayable",
      "type": "function"
    },
    {
      "inputs": [],
      "name": "renounceOwnership",
      "outputs": [],
      "stateMutability": "nonpayable",
      "type": "function"
    },
    {
      "inputs": [
        {
          "internalType": "uint256",
          "name": "_tokenId",
          "type": "uint256"
        },
        {
          "internalType": "uint256",
          "name": "_salePrice",
          "type": "uint256"
        }
      ],
      "name": "royaltyInfo",
      "outputs": [
        {
          "internalType": "address",
          "name": "",
          "type": "address"
        },
        {
          "internalType": "uint256",
          "name": "",
          "type": "uint256"
        }
      ],
      "stateMutability": "view",
      "type": "function"
    },
    {
      "inputs": [
        {
          "internalType": "address",
          "name": "from",
          "type": "address"
        },
        {
          "internalType": "address",
          "name": "to",
          "type": "address"
        },
        {
          "internalType": "uint256",
          "name": "tokenId",
          "type": "uint256"
        }
      ],
      "name": "safeTransferFrom",
      "outputs": [],
      "stateMutability": "nonpayable",
      "type": "function"
    },
    {
      "inputs": [
        {
          "internalType": "address",
          "name": "from",
          "type": "address"
        },
        {
          "internalType": "address",
          "name": "to",
          "type": "address"
        },
        {
          "internalType": "uint256",
          "name": "tokenId",
          "type": "uint256"
        },
        {
          "internalType": "bytes",
          "name": "data",
          "type": "bytes"
        }
      ],
      "name": "safeTransferFrom",
      "outputs": [],
      "stateMutability": "nonpayable",
      "type": "function"
    },
    {
      "inputs": [
        {
          "internalType": "address",
          "name": "operator",
          "type": "address"
        },
        {
          "internalType": "bool",
          "name": "approved",
          "type": "bool"
        }
      ],
      "name": "setApprovalForAll",
      "outputs": [],
      "stateMutability": "nonpayable",
      "type": "function"
    },
    {
      "inputs": [
        {
          "internalType": "uint256",
          "name": "newLastId",
          "type": "uint256"
        }
      ],
      "name": "setLastId",
      "outputs": [],
      "stateMutability": "nonpayable",
      "type": "function"
    },
    {
      "inputs": [
        {
          "internalType": "bytes4",
          "name": "interfaceId",
          "type": "bytes4"
        }
      ],
      "name": "supportsInterface",
      "outputs": [
        {
          "internalType": "bool",
          "name": "",
          "type": "bool"
        }
      ],
      "stateMutability": "view",
      "type": "function"
    },
    {
      "inputs": [],
      "name": "symbol",
      "outputs": [
        {
          "internalType": "string",
          "name": "",
          "type": "string"
        }
      ],
      "stateMutability": "view",
      "type": "function"
    },
    {
      "inputs": [
        {
          "internalType": "uint256",
          "name": "index",
          "type": "uint256"
        }
      ],
      "name": "tokenByIndex",
      "outputs": [
        {
          "internalType": "uint256",
          "name": "",
          "type": "uint256"
        }
      ],
      "stateMutability": "view",
      "type": "function"
    },
    {
      "inputs": [
        {
          "internalType": "address",
          "name": "owner",
          "type": "address"
        },
        {
          "internalType": "uint256",
          "name": "index",
          "type": "uint256"
        }
      ],
      "name": "tokenDetailsOfOwnerByIndex",
      "outputs": [
        {
          "internalType": "uint256",
          "name": "tokenId",
          "type": "uint256"
        },
        {
          "internalType": "uint256",
          "name": "eventId",
          "type": "uint256"
        }
      ],
      "stateMutability": "view",
      "type": "function"
    },
    {
      "inputs": [
        {
          "internalType": "uint256",
          "name": "tokenId",
          "type": "uint256"
        }
      ],
      "name": "tokenEvent",
      "outputs": [
        {
          "internalType": "uint256",
          "name": "",
          "type": "uint256"
        }
      ],
      "stateMutability": "view",
      "type": "function"
    },
    {
      "inputs": [
        {
          "internalType": "address",
          "name": "owner",
          "type": "address"
        },
        {
          "internalType": "uint256",
          "name": "index",
          "type": "uint256"
        }
      ],
      "name": "tokenOfOwnerByIndex",
      "outputs": [
        {
          "internalType": "uint256",
          "name": "",
          "type": "uint256"
        }
      ],
      "stateMutability": "view",
      "type": "function"
    },
    {
      "inputs": [
        {
          "internalType": "uint256",
          "name": "tokenId",
          "type": "uint256"
        }
      ],
      "name": "tokenURI",
      "outputs": [
        {
          "internalType": "string",
          "name": "",
          "type": "string"
        }
      ],
      "stateMutability": "view",
      "type": "function"
    },
    {
      "inputs": [],
      "name": "totalSupply",
      "outputs": [
        {
          "internalType": "uint256",
          "name": "",
          "type": "uint256"
        }
      ],
      "stateMutability": "view",
      "type": "function"
    },
    {
      "inputs": [
        {
          "internalType": "address",
          "name": "from",
          "type": "address"
        },
        {
          "internalType": "address",
          "name": "to",
          "type": "address"
        },
        {
          "internalType": "uint256",
          "name": "tokenId",
          "type": "uint256"
        }
      ],
      "name": "transferFrom",
      "outputs": [],
      "stateMutability": "nonpayable",
      "type": "function"
    },
    {
      "inputs": [
        {
          "internalType": "address",
          "name": "newOwner",
          "type": "address"
        }
      ],
      "name": "transferOwnership",
      "outputs": [],
      "stateMutability": "nonpayable",
      "type": "function"
    },
    {
      "inputs": [],
      "name": "unpause",
      "outputs": [],
      "stateMutability": "nonpayable",
      "type": "function"
    },
    {
      "inputs": [
        {
          "internalType": "string",
          "name": "__contractURI",
          "type": "string"
        }
      ],
      "name": "updateContractURI",
      "outputs": [],
      "stateMutability": "nonpayable",
      "type": "function"
    },
    {
      "inputs": [
        {
          "internalType": "address",
          "name": "receiver",
          "type": "address"
        },
        {
          "internalType": "uint96",
          "name": "feeNumerator",
          "type": "uint96"
        }
      ],
      "name": "updateDefaultRoyalty",
      "outputs": [],
      "stateMutability": "nonpayable",
      "type": "function"
    },
    {
      "inputs": [
        {
          "internalType": "uint256",
          "name": "eventId",
          "type": "uint256"
        },
        {
          "internalType": "address",
          "name": "receiver",
          "type": "address"
        },
        {
          "internalType": "uint96",
          "name": "feeNumerator",
          "type": "uint96"
        }
      ],
      "name": "updateEventRoyalty",
      "outputs": [],
      "stateMutability": "nonpayable",
      "type": "function"
    },
    {
      "inputs": [
        {
          "internalType": "address",
          "name": "newImplementation",
          "type": "address"
        }
      ],
      "name": "upgradeTo",
      "outputs": [],
      "stateMutability": "nonpayable",
      "type": "function"
    },
    {
      "inputs": [
        {
          "internalType": "address",
          "name": "newImplementation",
          "type": "address"
        },
        {
          "internalType": "bytes",
          "name": "data",
          "type": "bytes"
        }
      ],
      "name": "upgradeToAndCall",
      "outputs": [],
      "stateMutability": "payable",
      "type": "function"
    }
  ],
  "bytecode": "0x60a0604052306080523480156200001557600080fd5b506200002062000026565b620000e8565b600054610100900460ff1615620000935760405162461bcd60e51b815260206004820152602760248201527f496e697469616c697a61626c653a20636f6e747261637420697320696e697469604482015266616c697a696e6760c81b606482015260840160405180910390fd5b60005460ff9081161015620000e6576000805460ff191660ff9081179091556040519081527f7f26b83ff96e1f2b6a682f133852f6798a09c465da95921460cefb38474024989060200160405180910390a15b565b6080516134856200012060003960008181610c4a01528181610c8a01528181610d8501528181610dc50152610eeb01526134856000f3fe6080604052600436106102515760003560e01c806367e971ce11610139578063a140ae23116100b6578063d691e43c1161007a578063d691e43c146106dd578063e8a3d485146106fd578063e985e9c514610712578063f2fde38b1461075b578063f399e22e1461077b578063f980f3dc1461079b57600080fd5b8063a140ae2314610646578063a22cb46514610666578063b88d4fde14610686578063c1292cc3146106a6578063c87b56dd146106bd57600080fd5b80638456cb59116100fd5780638456cb59146105c85780638da5cb5b146105dd57806395d89b41146105fc57806397ec4fba14610611578063a0fd0c6a1461062657600080fd5b806367e971ce1461051e57806370a0823114610553578063715018a61461057357806378fa0654146105885780637e5b1e24146105a857600080fd5b80632f745c59116101d25780634f1ef286116101965780634f1ef2861461047e5780634f6ccce71461049157806352d1902d146104b15780635c975abb146104c65780635f330b41146104de5780636352211e146104fe57600080fd5b80632f745c59146103e95780633659cfe6146104095780633f4ba83a1461042957806342842e0e1461043e57806342966c681461045e57600080fd5b806318160ddd1161021957806318160ddd146103355780631a27e85f1461034a57806323b872dd1461036a578063278d9c411461038a5780632a55205a146103aa57600080fd5b806301ffc9a71461025657806306fdde031461028b578063081812fc146102ad578063095ea7b3146102e5578063127a529814610307575b600080fd5b34801561026257600080fd5b50610276610271366004612a0b565b6107bb565b60405190151581526020015b60405180910390f35b34801561029757600080fd5b506102a06107cc565b6040516102829190612a80565b3480156102b957600080fd5b506102cd6102c8366004612a93565b61085e565b6040516001600160a01b039091168152602001610282565b3480156102f157600080fd5b50610305610300366004612ac8565b610885565b005b34801561031357600080fd5b50610327610322366004612a93565b6109a0565b604051908152602001610282565b34801561034157600080fd5b50609954610327565b34801561035657600080fd5b50610305610365366004612a93565b6109bf565b34801561037657600080fd5b50610305610385366004612af2565b610a27565b34801561039657600080fd5b506102766103a5366004612b99565b610a59565b3480156103b657600080fd5b506103ca6103c5366004612c42565b610ae9565b604080516001600160a01b039093168352602083019190915201610282565b3480156103f557600080fd5b50610327610404366004612ac8565b610ba9565b34801561041557600080fd5b50610305610424366004612c64565b610c3f565b34801561043557600080fd5b50610305610d1f565b34801561044a57600080fd5b50610305610459366004612af2565b610d31565b34801561046a57600080fd5b50610305610479366004612a93565b610d4c565b61030561048c366004612cef565b610d7a565b34801561049d57600080fd5b506103276104ac366004612a93565b610e4b565b3480156104bd57600080fd5b50610327610ede565b3480156104d257600080fd5b5060fb5460ff16610276565b3480156104ea57600080fd5b506103056104f9366004612a93565b610f91565b34801561050a57600080fd5b506102cd610519366004612a93565b610fab565b34801561052a57600080fd5b5061053e610539366004612ac8565b61100b565b60408051928352602083019190915201610282565b34801561055f57600080fd5b5061032761056e366004612c64565b61102c565b34801561057f57600080fd5b506103056110b2565b34801561059457600080fd5b506103056105a3366004612d54565b6110c4565b3480156105b457600080fd5b506103056105c3366004612d90565b6110d7565b3480156105d457600080fd5b506103056110f3565b3480156105e957600080fd5b5061012d546001600160a01b03166102cd565b34801561060857600080fd5b506102a0611103565b34801561061d57600080fd5b50610305611112565b34801561063257600080fd5b506102a0610641366004612a93565b611125565b34801561065257600080fd5b50610276610661366004612dc5565b61115a565b34801561067257600080fd5b50610305610681366004612de8565b61119c565b34801561069257600080fd5b506103056106a1366004612e24565b6111a7565b3480156106b257600080fd5b506103276101c45481565b3480156106c957600080fd5b506102a06106d8366004612a93565b6111df565b3480156106e957600080fd5b506103056106f8366004612e8c565b611230565b34801561070957600080fd5b506102a0611242565b34801561071e57600080fd5b5061027661072d366004612eb6565b6001600160a01b039182166000908152606a6020908152604080832093909416825291909152205460ff1690565b34801561076757600080fd5b50610305610776366004612c64565b6112d1565b34801561078757600080fd5b50610305610796366004612cef565b611347565b3480156107a757600080fd5b506102766107b6366004612ee0565b6114eb565b60006107c68261156d565b92915050565b6060606580546107db90612f83565b80601f016020809104026020016040519081016040528092919081815260200182805461080790612f83565b80156108545780601f1061082957610100808354040283529160200191610854565b820191906000526020600020905b81548152906001019060200180831161083757829003601f168201915b5050505050905090565b600061086982611592565b506000908152606960205260409020546001600160a01b031690565b600061089082610fab565b9050806001600160a01b0316836001600160a01b031614156109035760405162461bcd60e51b815260206004820152602160248201527f4552433732313a20617070726f76616c20746f2063757272656e74206f776e656044820152603960f91b60648201526084015b60405180910390fd5b336001600160a01b038216148061091f575061091f813361072d565b6109915760405162461bcd60e51b815260206004820152603e60248201527f4552433732313a20617070726f76652063616c6c6572206973206e6f7420746f60448201527f6b656e206f776e6572206e6f7220617070726f76656420666f7220616c6c000060648201526084016108fa565b61099b83836115f1565b505050565b60006109ab82611592565b5060009081526101c5602052604090205490565b6109c761165f565b6109cf6116ba565b806101c45410610a215760405162461bcd60e51b815260206004820152601760248201527f4e65772049642068617320746f2062652068696768657200000000000000000060448201526064016108fa565b6101c455565b610a32335b82611700565b610a4e5760405162461bcd60e51b81526004016108fa90612fbe565b61099b83838361177f565b6000610a636116ba565b610a6b61165f565b60005b8251811015610ac657610ab584826101c4546001610a8c9190613022565b610a969190613022565b858481518110610aa857610aa861303a565b6020026020010151611926565b50610abf81613050565b9050610a6e565b5081516101c46000828254610adb9190613022565b909155506001949350505050565b6000806000610af7856109a0565b60008181526101c760209081526040918290208251808401909352546001600160a01b038116808452600160a01b9091046001600160601b03169183019190915291925090610b715750604080518082019091526101c6546001600160a01b0381168252600160a01b90046001600160601b031660208201525b602081015160009061271090610b90906001600160601b03168861306b565b610b9a91906130a0565b91519791965090945050505050565b6000610bb48361102c565b8210610c165760405162461bcd60e51b815260206004820152602b60248201527f455243373231456e756d657261626c653a206f776e657220696e646578206f7560448201526a74206f6620626f756e647360a81b60648201526084016108fa565b506001600160a01b03919091166000908152609760209081526040808320938352929052205490565b306001600160a01b037f0000000000000000000000000000000000000000000000000000000000000000161415610c885760405162461bcd60e51b81526004016108fa906130b4565b7f00000000000000000000000000000000000000000000000000000000000000006001600160a01b0316610cd1600080516020613409833981519152546001600160a01b031690565b6001600160a01b031614610cf75760405162461bcd60e51b81526004016108fa90613100565b610d008161199c565b60408051600080825260208201909252610d1c918391906119a4565b50565b610d2761165f565b610d2f611b0f565b565b61099b838383604051806020016040528060008152506111a7565b610d5533610a2c565b610d715760405162461bcd60e51b81526004016108fa90612fbe565b610d1c81611b61565b306001600160a01b037f0000000000000000000000000000000000000000000000000000000000000000161415610dc35760405162461bcd60e51b81526004016108fa906130b4565b7f00000000000000000000000000000000000000000000000000000000000000006001600160a01b0316610e0c600080516020613409833981519152546001600160a01b031690565b6001600160a01b031614610e325760405162461bcd60e51b81526004016108fa90613100565b610e3b8261199c565b610e47828260016119a4565b5050565b6000610e5660995490565b8210610eb95760405162461bcd60e51b815260206004820152602c60248201527f455243373231456e756d657261626c653a20676c6f62616c20696e646578206f60448201526b7574206f6620626f756e647360a01b60648201526084016108fa565b60998281548110610ecc57610ecc61303a565b90600052602060002001549050919050565b6000306001600160a01b037f00000000000000000000000000000000000000000000000000000000000000001614610f7e5760405162461bcd60e51b815260206004820152603860248201527f555550535570677261646561626c653a206d757374206e6f742062652063616c60448201527f6c6564207468726f7567682064656c656761746563616c6c000000000000000060648201526084016108fa565b5060008051602061340983398151915290565b610f9961165f565b60009081526101c76020526040812055565b6000818152606760205260408120546001600160a01b0316806107c65760405162461bcd60e51b8152602060048201526018602482015277115490cdcc8c4e881a5b9d985b1a59081d1bdad95b88125160421b60448201526064016108fa565b6000806110188484610ba9565b9150611023826109a0565b90509250929050565b60006001600160a01b0382166110965760405162461bcd60e51b815260206004820152602960248201527f4552433732313a2061646472657373207a65726f206973206e6f7420612076616044820152683634b21037bbb732b960b91b60648201526084016108fa565b506001600160a01b031660009081526068602052604090205490565b6110ba61165f565b610d2f6000611b7c565b6110cc61165f565b61099b838383611bcf565b6110df61165f565b8051610e47906101c390602084019061295c565b6110fb61165f565b610d2f611c9b565b6060606680546107db90612f83565b61111a61165f565b610d2f60006101c655565b60606101c361113383611cd8565b6040516020016111449291906131e6565b6040516020818303038152906040529050919050565b60006111646116ba565b61116c61165f565b60016101c460008282546111809190613022565b92505081905550611195836101c45484611926565b9392505050565b610e47338383611dd6565b6111b13383611700565b6111cd5760405162461bcd60e51b81526004016108fa90612fbe565b6111d984848484611ea5565b50505050565b60008181526101c560205260409020546060906101c36111fe82611cd8565b61120785611cd8565b6040516020016112199392919061320b565b604051602081830303815290604052915050919050565b61123861165f565b610e478282611ed8565b6101c3805461125090612f83565b80601f016020809104026020016040519081016040528092919081815260200182805461127c90612f83565b80156112c95780601f1061129e576101008083540402835291602001916112c9565b820191906000526020600020905b8154815290600101906020018083116112ac57829003601f168201915b505050505081565b6112d961165f565b6001600160a01b03811661133e5760405162461bcd60e51b815260206004820152602660248201527f4f776e61626c653a206e6577206f776e657220697320746865207a65726f206160448201526564647265737360d01b60648201526084016108fa565b610d1c81611b7c565b600054610100900460ff16158080156113675750600054600160ff909116105b806113815750303b158015611381575060005460ff166001145b6113e45760405162461bcd60e51b815260206004820152602e60248201527f496e697469616c697a61626c653a20636f6e747261637420697320616c72656160448201526d191e481a5b9a5d1a585b1a5e995960921b60648201526084016108fa565b6000805460ff191660011790558015611407576000805461ff0019166101001790555b6114646040518060400160405280601781526020017f556c74726176696f6c657420436f6c6c65637461626c6500000000000000000081525060405180604001604052806006815260200165554c5452414360d01b815250611f93565b61146c611fc4565b611474611feb565b61147c61201a565b611484611fc4565b61148c611fc4565b611498836103e8611230565b6114a1826110d7565b801561099b576000805461ff0019169055604051600181527f7f26b83ff96e1f2b6a682f133852f6798a09c465da95921460cefb38474024989060200160405180910390a1505050565b60006114f56116ba565b6114fd61165f565b60005b83518110156115585761154784828151811061151e5761151e61303a565b6020026020010151826101c45460016115379190613022565b6115419190613022565b85611926565b5061155181613050565b9050611500565b5082516101c46000828254610adb9190613022565b60006001600160e01b0319821663780e9d6360e01b14806107c657506107c682612049565b6000818152606760205260409020546001600160a01b0316610d1c5760405162461bcd60e51b8152602060048201526018602482015277115490cdcc8c4e881a5b9d985b1a59081d1bdad95b88125160421b60448201526064016108fa565b600081815260696020526040902080546001600160a01b0319166001600160a01b038416908117909155819061162682610fab565b6001600160a01b03167f8c5be1e5ebec7d5bd14f71427d1e84f3dd0314c0f7b2291e5b200ac8c7c3b92560405160405180910390a45050565b61012d546001600160a01b03163314610d2f5760405162461bcd60e51b815260206004820181905260248201527f4f776e61626c653a2063616c6c6572206973206e6f7420746865206f776e657260448201526064016108fa565b60fb5460ff1615610d2f5760405162461bcd60e51b815260206004820152601060248201526f14185d5cd8589b194e881c185d5cd95960821b60448201526064016108fa565b60008061170c83610fab565b9050806001600160a01b0316846001600160a01b0316148061175357506001600160a01b038082166000908152606a602090815260408083209388168352929052205460ff165b806117775750836001600160a01b031661176c8461085e565b6001600160a01b0316145b949350505050565b826001600160a01b031661179282610fab565b6001600160a01b0316146117f65760405162461bcd60e51b815260206004820152602560248201527f4552433732313a207472616e736665722066726f6d20696e636f72726563742060448201526437bbb732b960d91b60648201526084016108fa565b6001600160a01b0382166118585760405162461bcd60e51b8152602060048201526024808201527f4552433732313a207472616e7366657220746f20746865207a65726f206164646044820152637265737360e01b60648201526084016108fa565b611863838383612099565b61186e6000826115f1565b6001600160a01b0383166000908152606860205260408120805460019290611897908490613251565b90915550506001600160a01b03821660009081526068602052604081208054600192906118c5908490613022565b909155505060008181526067602052604080822080546001600160a01b0319166001600160a01b0386811691821790925591518493918716917fddf252ad1be2c89b69c2b068fc378daa952ba7f163c4a11628f55a4df523b3ef91a4505050565b600061193282846120ac565b60008381526101c56020526040908190208590555184907f259eb7b480b3d449f506927269e4665c83c69e4cd797143eaa8f84632dc7a02b9061198a90869086909182526001600160a01b0316602082015260400190565b60405180910390a25060019392505050565b610d1c61165f565b7f4910fdfa16fed3260ed0e7147f7cc6da11a60208b5b9406d12a635614ffd91435460ff16156119d75761099b836120c6565b826001600160a01b03166352d1902d6040518163ffffffff1660e01b8152600401602060405180830381865afa925050508015611a31575060408051601f3d908101601f19168201909252611a2e91810190613268565b60015b611a945760405162461bcd60e51b815260206004820152602e60248201527f45524331393637557067726164653a206e657720696d706c656d656e7461746960448201526d6f6e206973206e6f74205555505360901b60648201526084016108fa565b6000805160206134098339815191528114611b035760405162461bcd60e51b815260206004820152602960248201527f45524331393637557067726164653a20756e737570706f727465642070726f786044820152681a58589b195555525160ba1b60648201526084016108fa565b5061099b838383612162565b611b17612187565b60fb805460ff191690557f5db9ee0a495bf2e6ff9c91a7834c1ba4fdd244a5e8aa4e537bd38aeae4b073aa335b6040516001600160a01b03909116815260200160405180910390a1565b611b6a816121d0565b60009081526101c56020526040812055565b61012d80546001600160a01b038381166001600160a01b0319831681179093556040519116919082907f8be0079c531659141344cd1fd0a4f28419497f9722a3daafe3b4186f6b6457e090600090a35050565b6127106001600160601b0382161115611bfa5760405162461bcd60e51b81526004016108fa90613281565b6001600160a01b038216611c505760405162461bcd60e51b815260206004820152601b60248201527f455243323938313a20496e76616c696420706172616d6574657273000000000060448201526064016108fa565b6040805180820182526001600160a01b0393841681526001600160601b03928316602080830191825260009687526101c790529190942093519051909116600160a01b029116179055565b611ca36116ba565b60fb805460ff191660011790557f62e78cea01bee320cd4e420270b5ea74000d11b0c9f74754ebdbfc544b05a258611b443390565b606081611cfc5750506040805180820190915260018152600360fc1b602082015290565b8160005b8115611d265780611d1081613050565b9150611d1f9050600a836130a0565b9150611d00565b60008167ffffffffffffffff811115611d4157611d41612b2e565b6040519080825280601f01601f191660200182016040528015611d6b576020820181803683370190505b5090505b841561177757611d80600183613251565b9150611d8d600a866132cb565b611d98906030613022565b60f81b818381518110611dad57611dad61303a565b60200101906001600160f81b031916908160001a905350611dcf600a866130a0565b9450611d6f565b816001600160a01b0316836001600160a01b03161415611e385760405162461bcd60e51b815260206004820152601960248201527f4552433732313a20617070726f766520746f2063616c6c65720000000000000060448201526064016108fa565b6001600160a01b038381166000818152606a6020908152604080832094871680845294825291829020805460ff191686151590811790915591519182527f17307eab39ab6107e8899845ad3d59bd9653f200f220920489ca2b5937696c31910160405180910390a3505050565b611eb084848461177f565b611ebc84848484612277565b6111d95760405162461bcd60e51b81526004016108fa906132df565b6127106001600160601b0382161115611f035760405162461bcd60e51b81526004016108fa90613281565b6001600160a01b038216611f595760405162461bcd60e51b815260206004820152601960248201527f455243323938313a20696e76616c69642072656365697665720000000000000060448201526064016108fa565b604080518082019091526001600160a01b039092168083526001600160601b039091166020909201829052600160a01b909102176101c655565b600054610100900460ff16611fba5760405162461bcd60e51b81526004016108fa90613331565b610e478282612375565b600054610100900460ff16610d2f5760405162461bcd60e51b81526004016108fa90613331565b600054610100900460ff166120125760405162461bcd60e51b81526004016108fa90613331565b610d2f6123c3565b600054610100900460ff166120415760405162461bcd60e51b81526004016108fa90613331565b610d2f6123f6565b60006001600160e01b031982166380ac58cd60e01b148061207a57506001600160e01b03198216635b5e139f60e01b145b806107c657506301ffc9a760e01b6001600160e01b03198316146107c6565b6120a16116ba565b61099b838383612426565b610e478282604051806020016040528060008152506124de565b6001600160a01b0381163b6121335760405162461bcd60e51b815260206004820152602d60248201527f455243313936373a206e657720696d706c656d656e746174696f6e206973206e60448201526c1bdd08184818dbdb9d1c9858dd609a1b60648201526084016108fa565b60008051602061340983398151915280546001600160a01b0319166001600160a01b0392909216919091179055565b61216b83612511565b6000825111806121785750805b1561099b576111d98383612551565b60fb5460ff16610d2f5760405162461bcd60e51b815260206004820152601460248201527314185d5cd8589b194e881b9bdd081c185d5cd95960621b60448201526064016108fa565b60006121db82610fab565b90506121e981600084612099565b6121f46000836115f1565b6001600160a01b038116600090815260686020526040812080546001929061221d908490613251565b909155505060008281526067602052604080822080546001600160a01b0319169055518391906001600160a01b038416907fddf252ad1be2c89b69c2b068fc378daa952ba7f163c4a11628f55a4df523b3ef908390a45050565b60006001600160a01b0384163b1561236a57604051630a85bd0160e11b81526001600160a01b0385169063150b7a02906122bb90339089908890889060040161337c565b6020604051808303816000875af19250505080156122f6575060408051601f3d908101601f191682019092526122f3918101906133b9565b60015b612350573d808015612324576040519150601f19603f3d011682016040523d82523d6000602084013e612329565b606091505b5080516123485760405162461bcd60e51b81526004016108fa906132df565b805181602001fd5b6001600160e01b031916630a85bd0160e11b149050611777565b506001949350505050565b600054610100900460ff1661239c5760405162461bcd60e51b81526004016108fa90613331565b81516123af90606590602085019061295c565b50805161099b90606690602084019061295c565b600054610100900460ff166123ea5760405162461bcd60e51b81526004016108fa90613331565b60fb805460ff19169055565b600054610100900460ff1661241d5760405162461bcd60e51b81526004016108fa90613331565b610d2f33611b7c565b6001600160a01b0383166124815761247c81609980546000838152609a60205260408120829055600182018355919091527f72a152ddfb8e864297c917af52ea6c1c68aead0fee1a62673fcc7e0c94979d000155565b6124a4565b816001600160a01b0316836001600160a01b0316146124a4576124a48382612645565b6001600160a01b0382166124bb5761099b816126e2565b826001600160a01b0316826001600160a01b03161461099b5761099b8282612791565b6124e883836127d5565b6124f56000848484612277565b61099b5760405162461bcd60e51b81526004016108fa906132df565b61251a816120c6565b6040516001600160a01b038216907fbc7cd75a20ee27fd9adebab32041f755214dbc6bffa90cc0225b39da2e5c2d3b90600090a250565b60606001600160a01b0383163b6125b95760405162461bcd60e51b815260206004820152602660248201527f416464726573733a2064656c65676174652063616c6c20746f206e6f6e2d636f6044820152651b9d1c9858dd60d21b60648201526084016108fa565b600080846001600160a01b0316846040516125d491906133d6565b600060405180830381855af49150503d806000811461260f576040519150601f19603f3d011682016040523d82523d6000602084013e612614565b606091505b509150915061263c828260405180606001604052806027815260200161342960279139612923565b95945050505050565b600060016126528461102c565b61265c9190613251565b6000838152609860205260409020549091508082146126af576001600160a01b03841660009081526097602090815260408083208584528252808320548484528184208190558352609890915290208190555b5060009182526098602090815260408084208490556001600160a01b039094168352609781528383209183525290812055565b6099546000906126f490600190613251565b6000838152609a60205260408120546099805493945090928490811061271c5761271c61303a565b90600052602060002001549050806099838154811061273d5761273d61303a565b6000918252602080832090910192909255828152609a90915260408082208490558582528120556099805480612775576127756133f2565b6001900381819060005260206000200160009055905550505050565b600061279c8361102c565b6001600160a01b039093166000908152609760209081526040808320868452825280832085905593825260989052919091209190915550565b6001600160a01b03821661282b5760405162461bcd60e51b815260206004820181905260248201527f4552433732313a206d696e7420746f20746865207a65726f206164647265737360448201526064016108fa565b6000818152606760205260409020546001600160a01b0316156128905760405162461bcd60e51b815260206004820152601c60248201527f4552433732313a20746f6b656e20616c7265616479206d696e7465640000000060448201526064016108fa565b61289c60008383612099565b6001600160a01b03821660009081526068602052604081208054600192906128c5908490613022565b909155505060008181526067602052604080822080546001600160a01b0319166001600160a01b03861690811790915590518392907fddf252ad1be2c89b69c2b068fc378daa952ba7f163c4a11628f55a4df523b3ef908290a45050565b60608315612932575081611195565b8251156129425782518084602001fd5b8160405162461bcd60e51b81526004016108fa9190612a80565b82805461296890612f83565b90600052602060002090601f01602090048101928261298a57600085556129d0565b82601f106129a357805160ff19168380011785556129d0565b828001600101855582156129d0579182015b828111156129d05782518255916020019190600101906129b5565b506129dc9291506129e0565b5090565b5b808211156129dc57600081556001016129e1565b6001600160e01b031981168114610d1c57600080fd5b600060208284031215612a1d57600080fd5b8135611195816129f5565b60005b83811015612a43578181015183820152602001612a2b565b838111156111d95750506000910152565b60008151808452612a6c816020860160208601612a28565b601f01601f19169290920160200192915050565b6020815260006111956020830184612a54565b600060208284031215612aa557600080fd5b5035919050565b80356001600160a01b0381168114612ac357600080fd5b919050565b60008060408385031215612adb57600080fd5b612ae483612aac565b946020939093013593505050565b600080600060608486031215612b0757600080fd5b612b1084612aac565b9250612b1e60208501612aac565b9150604084013590509250925092565b634e487b7160e01b600052604160045260246000fd5b604051601f8201601f1916810167ffffffffffffffff81118282101715612b6d57612b6d612b2e565b604052919050565b600067ffffffffffffffff821115612b8f57612b8f612b2e565b5060051b60200190565b60008060408385031215612bac57600080fd5b8235915060208084013567ffffffffffffffff811115612bcb57600080fd5b8401601f81018613612bdc57600080fd5b8035612bef612bea82612b75565b612b44565b81815260059190911b82018301908381019088831115612c0e57600080fd5b928401925b82841015612c3357612c2484612aac565b82529284019290840190612c13565b80955050505050509250929050565b60008060408385031215612c5557600080fd5b50508035926020909101359150565b600060208284031215612c7657600080fd5b61119582612aac565b600082601f830112612c9057600080fd5b813567ffffffffffffffff811115612caa57612caa612b2e565b612cbd601f8201601f1916602001612b44565b818152846020838601011115612cd257600080fd5b816020850160208301376000918101602001919091529392505050565b60008060408385031215612d0257600080fd5b612d0b83612aac565b9150602083013567ffffffffffffffff811115612d2757600080fd5b612d3385828601612c7f565b9150509250929050565b80356001600160601b0381168114612ac357600080fd5b600080600060608486031215612d6957600080fd5b83359250612d7960208501612aac565b9150612d8760408501612d3d565b90509250925092565b600060208284031215612da257600080fd5b813567ffffffffffffffff811115612db957600080fd5b61177784828501612c7f565b60008060408385031215612dd857600080fd5b8235915061102360208401612aac565b60008060408385031215612dfb57600080fd5b612e0483612aac565b915060208301358015158114612e1957600080fd5b809150509250929050565b60008060008060808587031215612e3a57600080fd5b612e4385612aac565b9350612e5160208601612aac565b925060408501359150606085013567ffffffffffffffff811115612e7457600080fd5b612e8087828801612c7f565b91505092959194509250565b60008060408385031215612e9f57600080fd5b612ea883612aac565b915061102360208401612d3d565b60008060408385031215612ec957600080fd5b612ed283612aac565b915061102360208401612aac565b60008060408385031215612ef357600080fd5b823567ffffffffffffffff811115612f0a57600080fd5b8301601f81018513612f1b57600080fd5b80356020612f2b612bea83612b75565b82815260059290921b83018101918181019088841115612f4a57600080fd5b938201935b83851015612f6857843582529382019390820190612f4f565b9550612f779050868201612aac565b93505050509250929050565b600181811c90821680612f9757607f821691505b60208210811415612fb857634e487b7160e01b600052602260045260246000fd5b50919050565b6020808252602e908201527f4552433732313a2063616c6c6572206973206e6f7420746f6b656e206f776e6560408201526d1c881b9bdc88185c1c1c9bdd995960921b606082015260800190565b634e487b7160e01b600052601160045260246000fd5b600082198211156130355761303561300c565b500190565b634e487b7160e01b600052603260045260246000fd5b60006000198214156130645761306461300c565b5060010190565b60008160001904831182151516156130855761308561300c565b500290565b634e487b7160e01b600052601260045260246000fd5b6000826130af576130af61308a565b500490565b6020808252602c908201527f46756e6374696f6e206d7573742062652063616c6c6564207468726f7567682060408201526b19195b1959d85d1958d85b1b60a21b606082015260800190565b6020808252602c908201527f46756e6374696f6e206d7573742062652063616c6c6564207468726f7567682060408201526b6163746976652070726f787960a01b606082015260800190565b8054600090600181811c908083168061316657607f831692505b602080841082141561318857634e487b7160e01b600052602260045260246000fd5b81801561319c57600181146131ad576131da565b60ff198616895284890196506131da565b60008881526020902060005b868110156131d25781548b8201529085019083016131b9565b505084890196505b50505050505092915050565b60006131f2828561314c565b8351613202818360208801612a28565b01949350505050565b6000613217828661314c565b8451613227818360208901612a28565b602f60f81b91019081528351613244816001840160208801612a28565b0160010195945050505050565b6000828210156132635761326361300c565b500390565b60006020828403121561327a57600080fd5b5051919050565b6020808252602a908201527f455243323938313a20726f79616c7479206665652077696c6c206578636565646040820152692073616c65507269636560b01b606082015260800190565b6000826132da576132da61308a565b500690565b60208082526032908201527f4552433732313a207472616e7366657220746f206e6f6e20455243373231526560408201527131b2b4bb32b91034b6b83632b6b2b73a32b960711b606082015260800190565b6020808252602b908201527f496e697469616c697a61626c653a20636f6e7472616374206973206e6f74206960408201526a6e697469616c697a696e6760a81b606082015260800190565b6001600160a01b03858116825284166020820152604081018390526080606082018190526000906133af90830184612a54565b9695505050505050565b6000602082840312156133cb57600080fd5b8151611195816129f5565b600082516133e8818460208701612a28565b9190910192915050565b634e487b7160e01b600052603160045260246000fdfe360894a13ba1a3210667c828492db98dca3e2076cc3735a920a3ca505d382bbc416464726573733a206c6f772d6c6576656c2064656c65676174652063616c6c206661696c6564a26469706673582212204b7ccad8871ef957a7b900f9611e12267cadec26f5365d09e25248d2028751fa64736f6c634300080c0033",
  "linkReferences": {},
  "deployedLinkReferences": {}
}