{
  "_format": "hh-sol-artifact-1",
  "contractName": "OctiTokenCollectable",
  "sourceName": "contracts/OctiTokenCollectable.sol",
  "abi": [
    {
      "inputs": [],
      "stateMutability": "nonpayable",
      "type": "constructor"
    },
    {
      "anonymous": false,
      "inputs": [
        {
          "indexed": false,
          "internalType": "address",
          "name": "previousAdmin",
          "type": "address"
        },
        {
          "indexed": false,
          "internalType": "address",
          "name": "newAdmin",
          "type": "address"
        }
      ],
      "name": "AdminChanged",
      "type": "event"
    },
    {
      "anonymous": false,
      "inputs": [
        {
          "indexed": true,
          "internalType": "address",
          "name": "owner",
          "type": "address"
        },
        {
          "indexed": true,
          "internalType": "address",
          "name": "approved",
          "type": "address"
        },
        {
          "indexed": true,
          "internalType": "uint256",
          "name": "tokenId",
          "type": "uint256"
        }
      ],
      "name": "Approval",
      "type": "event"
    },
    {
      "anonymous": false,
      "inputs": [
        {
          "indexed": true,
          "internalType": "address",
          "name": "owner",
          "type": "address"
        },
        {
          "indexed": true,
          "internalType": "address",
          "name": "operator",
          "type": "address"
        },
        {
          "indexed": false,
          "internalType": "bool",
          "name": "approved",
          "type": "bool"
        }
      ],
      "name": "ApprovalForAll",
      "type": "event"
    },
    {
      "anonymous": false,
      "inputs": [
        {
          "indexed": true,
          "internalType": "address",
          "name": "beacon",
          "type": "address"
        }
      ],
      "name": "BeaconUpgraded",
      "type": "event"
    },
    {
      "anonymous": false,
      "inputs": [
        {
          "indexed": false,
          "internalType": "uint256",
          "name": "tokenId",
          "type": "uint256"
        }
      ],
      "name": "Frozen",
      "type": "event"
    },
    {
      "anonymous": false,
      "inputs": [
        {
          "indexed": false,
          "internalType": "uint8",
          "name": "version",
          "type": "uint8"
        }
      ],
      "name": "Initialized",
      "type": "event"
    },
    {
      "anonymous": false,
      "inputs": [
        {
          "indexed": true,
          "internalType": "uint256",
          "name": "eventId",
          "type": "uint256"
        },
        {
          "indexed": false,
          "internalType": "uint256",
          "name": "tokenId",
          "type": "uint256"
        },
        {
          "indexed": false,
          "internalType": "address",
          "name": "owner",
          "type": "address"
        }
      ],
      "name": "Minted",
      "type": "event"
    },
    {
      "anonymous": false,
      "inputs": [
        {
          "indexed": true,
          "internalType": "address",
          "name": "previousOwner",
          "type": "address"
        },
        {
          "indexed": true,
          "internalType": "address",
          "name": "newOwner",
          "type": "address"
        }
      ],
      "name": "OwnershipTransferred",
      "type": "event"
    },
    {
      "anonymous": false,
      "inputs": [
        {
          "indexed": false,
          "internalType": "address",
          "name": "account",
          "type": "address"
        }
      ],
      "name": "Paused",
      "type": "event"
    },
    {
      "anonymous": false,
      "inputs": [
        {
          "indexed": true,
          "internalType": "address",
          "name": "from",
          "type": "address"
        },
        {
          "indexed": true,
          "internalType": "address",
          "name": "to",
          "type": "address"
        },
        {
          "indexed": true,
          "internalType": "uint256",
          "name": "tokenId",
          "type": "uint256"
        }
      ],
      "name": "Transfer",
      "type": "event"
    },
    {
      "anonymous": false,
      "inputs": [
        {
          "indexed": false,
          "internalType": "uint256",
          "name": "tokenId",
          "type": "uint256"
        }
      ],
      "name": "Unfrozen",
      "type": "event"
    },
    {
      "anonymous": false,
      "inputs": [
        {
          "indexed": false,
          "internalType": "address",
          "name": "account",
          "type": "address"
        }
      ],
      "name": "Unpaused",
      "type": "event"
    },
    {
      "anonymous": false,
      "inputs": [
        {
          "indexed": true,
          "internalType": "address",
          "name": "implementation",
          "type": "address"
        }
      ],
      "name": "Upgraded",
      "type": "event"
    },
    {
      "inputs": [
        {
          "internalType": "address",
          "name": "to",
          "type": "address"
        },
        {
          "internalType": "uint256",
          "name": "tokenId",
          "type": "uint256"
        }
      ],
      "name": "approve",
      "outputs": [],
      "stateMutability": "nonpayable",
      "type": "function"
    },
    {
      "inputs": [
        {
          "internalType": "address",
          "name": "owner",
          "type": "address"
        }
      ],
      "name": "balanceOf",
      "outputs": [
        {
          "internalType": "uint256",
          "name": "",
          "type": "uint256"
        }
      ],
      "stateMutability": "view",
      "type": "function"
    },
    {
      "inputs": [
        {
          "internalType": "uint256",
          "name": "tokenId",
          "type": "uint256"
        }
      ],
      "name": "burn",
      "outputs": [],
      "stateMutability": "nonpayable",
      "type": "function"
    },
    {
      "inputs": [],
      "name": "contractURI",
      "outputs": [
        {
          "internalType": "string",
          "name": "",
          "type": "string"
        }
      ],
      "stateMutability": "view",
      "type": "function"
    },
    {
      "inputs": [
        {
          "internalType": "uint256",
          "name": "eventId",
          "type": "uint256"
        }
      ],
      "name": "eventURI",
      "outputs": [
        {
          "internalType": "string",
          "name": "",
          "type": "string"
        }
      ],
      "stateMutability": "view",
      "type": "function"
    },
    {
      "inputs": [
        {
          "internalType": "uint256",
          "name": "tokenId",
          "type": "uint256"
        }
      ],
      "name": "freeze",
      "outputs": [],
      "stateMutability": "nonpayable",
      "type": "function"
    },
    {
      "inputs": [
        {
          "internalType": "uint256",
          "name": "tokenId",
          "type": "uint256"
        }
      ],
      "name": "getApproved",
      "outputs": [
        {
          "internalType": "address",
          "name": "",
          "type": "address"
        }
      ],
      "stateMutability": "view",
      "type": "function"
    },
    {
      "inputs": [
        {
          "internalType": "address",
          "name": "__royaltyAddress",
          "type": "address"
        },
        {
          "internalType": "string",
          "name": "__contractURI",
          "type": "string"
        }
      ],
      "name": "initialize",
      "outputs": [],
      "stateMutability": "nonpayable",
      "type": "function"
    },
    {
      "inputs": [
        {
          "internalType": "address",
          "name": "owner",
          "type": "address"
        },
        {
          "internalType": "address",
          "name": "operator",
          "type": "address"
        }
      ],
      "name": "isApprovedForAll",
      "outputs": [
        {
          "internalType": "bool",
          "name": "",
          "type": "bool"
        }
      ],
      "stateMutability": "view",
      "type": "function"
    },
    {
      "inputs": [
        {
          "internalType": "uint256",
          "name": "tokenId",
          "type": "uint256"
        }
      ],
      "name": "isFrozen",
      "outputs": [
        {
          "internalType": "bool",
          "name": "",
          "type": "bool"
        }
      ],
      "stateMutability": "view",
      "type": "function"
    },
    {
      "inputs": [],
      "name": "lastId",
      "outputs": [
        {
          "internalType": "uint256",
          "name": "",
          "type": "uint256"
        }
      ],
      "stateMutability": "view",
      "type": "function"
    },
    {
      "inputs": [
        {
          "internalType": "uint256",
          "name": "eventId",
          "type": "uint256"
        },
        {
          "internalType": "address[]",
          "name": "to",
          "type": "address[]"
        }
      ],
      "name": "mintEventToManyUsers",
      "outputs": [
        {
          "internalType": "bool",
          "name": "",
          "type": "bool"
        }
      ],
      "stateMutability": "nonpayable",
      "type": "function"
    },
    {
      "inputs": [
        {
          "internalType": "uint256",
          "name": "eventId",
          "type": "uint256"
        },
        {
          "internalType": "address",
          "name": "to",
          "type": "address"
        }
      ],
      "name": "mintToken",
      "outputs": [
        {
          "internalType": "bool",
          "name": "",
          "type": "bool"
        }
      ],
      "stateMutability": "nonpayable",
      "type": "function"
    },
    {
      "inputs": [
        {
          "internalType": "uint256[]",
          "name": "eventIds",
          "type": "uint256[]"
        },
        {
          "internalType": "address",
          "name": "to",
          "type": "address"
        }
      ],
      "name": "mintUserToManyEvents",
      "outputs": [
        {
          "internalType": "bool",
          "name": "",
          "type": "bool"
        }
      ],
      "stateMutability": "nonpayable",
      "type": "function"
    },
    {
      "inputs": [],
      "name": "name",
      "outputs": [
        {
          "internalType": "string",
          "name": "",
          "type": "string"
        }
      ],
      "stateMutability": "view",
      "type": "function"
    },
    {
      "inputs": [],
      "name": "owner",
      "outputs": [
        {
          "internalType": "address",
          "name": "",
          "type": "address"
        }
      ],
      "stateMutability": "view",
      "type": "function"
    },
    {
      "inputs": [
        {
          "internalType": "uint256",
          "name": "tokenId",
          "type": "uint256"
        }
      ],
      "name": "ownerOf",
      "outputs": [
        {
          "internalType": "address",
          "name": "",
          "type": "address"
        }
      ],
      "stateMutability": "view",
      "type": "function"
    },
    {
      "inputs": [],
      "name": "pause",
      "outputs": [],
      "stateMutability": "nonpayable",
      "type": "function"
    },
    {
      "inputs": [],
      "name": "paused",
      "outputs": [
        {
          "internalType": "bool",
          "name": "",
          "type": "bool"
        }
      ],
      "stateMutability": "view",
      "type": "function"
    },
    {
      "inputs": [],
      "name": "proxiableUUID",
      "outputs": [
        {
          "internalType": "bytes32",
          "name": "",
          "type": "bytes32"
        }
      ],
      "stateMutability": "view",
      "type": "function"
    },
    {
      "inputs": [
        {
          "internalType": "uint256",
          "name": "tokenId",
          "type": "uint256"
        }
      ],
      "name": "reclaimToken",
      "outputs": [],
      "stateMutability": "nonpayable",
      "type": "function"
    },
    {
      "inputs": [],
      "name": "removeDefaultRoyalty",
      "outputs": [],
      "stateMutability": "nonpayable",
      "type": "function"
    },
    {
      "inputs": [
        {
          "internalType": "uint256",
          "name": "eventId",
          "type": "uint256"
        }
      ],
      "name": "removeEventRoyalty",
      "outputs": [],
      "stateMutability": "nonpayable",
      "type": "function"
    },
    {
      "inputs": [],
      "name": "renounceOwnership",
      "outputs": [],
      "stateMutability": "nonpayable",
      "type": "function"
    },
    {
      "inputs": [
        {
          "internalType": "uint256",
          "name": "_tokenId",
          "type": "uint256"
        },
        {
          "internalType": "uint256",
          "name": "_salePrice",
          "type": "uint256"
        }
      ],
      "name": "royaltyInfo",
      "outputs": [
        {
          "internalType": "address",
          "name": "",
          "type": "address"
        },
        {
          "internalType": "uint256",
          "name": "",
          "type": "uint256"
        }
      ],
      "stateMutability": "view",
      "type": "function"
    },
    {
      "inputs": [
        {
          "internalType": "address",
          "name": "from",
          "type": "address"
        },
        {
          "internalType": "address",
          "name": "to",
          "type": "address"
        },
        {
          "internalType": "uint256",
          "name": "tokenId",
          "type": "uint256"
        }
      ],
      "name": "safeTransferFrom",
      "outputs": [],
      "stateMutability": "nonpayable",
      "type": "function"
    },
    {
      "inputs": [
        {
          "internalType": "address",
          "name": "from",
          "type": "address"
        },
        {
          "internalType": "address",
          "name": "to",
          "type": "address"
        },
        {
          "internalType": "uint256",
          "name": "tokenId",
          "type": "uint256"
        },
        {
          "internalType": "bytes",
          "name": "data",
          "type": "bytes"
        }
      ],
      "name": "safeTransferFrom",
      "outputs": [],
      "stateMutability": "nonpayable",
      "type": "function"
    },
    {
      "inputs": [
        {
          "internalType": "address",
          "name": "operator",
          "type": "address"
        },
        {
          "internalType": "bool",
          "name": "approved",
          "type": "bool"
        }
      ],
      "name": "setApprovalForAll",
      "outputs": [],
      "stateMutability": "nonpayable",
      "type": "function"
    },
    {
      "inputs": [
        {
          "internalType": "uint256",
          "name": "newLastId",
          "type": "uint256"
        }
      ],
      "name": "setLastId",
      "outputs": [],
      "stateMutability": "nonpayable",
      "type": "function"
    },
    {
      "inputs": [
        {
          "internalType": "bytes4",
          "name": "interfaceId",
          "type": "bytes4"
        }
      ],
      "name": "supportsInterface",
      "outputs": [
        {
          "internalType": "bool",
          "name": "",
          "type": "bool"
        }
      ],
      "stateMutability": "view",
      "type": "function"
    },
    {
      "inputs": [],
      "name": "symbol",
      "outputs": [
        {
          "internalType": "string",
          "name": "",
          "type": "string"
        }
      ],
      "stateMutability": "view",
      "type": "function"
    },
    {
      "inputs": [
        {
          "internalType": "uint256",
          "name": "index",
          "type": "uint256"
        }
      ],
      "name": "tokenByIndex",
      "outputs": [
        {
          "internalType": "uint256",
          "name": "",
          "type": "uint256"
        }
      ],
      "stateMutability": "view",
      "type": "function"
    },
    {
      "inputs": [
        {
          "internalType": "address",
          "name": "owner",
          "type": "address"
        },
        {
          "internalType": "uint256",
          "name": "index",
          "type": "uint256"
        }
      ],
      "name": "tokenDetailsOfOwnerByIndex",
      "outputs": [
        {
          "internalType": "uint256",
          "name": "tokenId",
          "type": "uint256"
        },
        {
          "internalType": "uint256",
          "name": "eventId",
          "type": "uint256"
        }
      ],
      "stateMutability": "view",
      "type": "function"
    },
    {
      "inputs": [
        {
          "internalType": "uint256",
          "name": "tokenId",
          "type": "uint256"
        }
      ],
      "name": "tokenEvent",
      "outputs": [
        {
          "internalType": "uint256",
          "name": "",
          "type": "uint256"
        }
      ],
      "stateMutability": "view",
      "type": "function"
    },
    {
      "inputs": [
        {
          "internalType": "address",
          "name": "owner",
          "type": "address"
        },
        {
          "internalType": "uint256",
          "name": "index",
          "type": "uint256"
        }
      ],
      "name": "tokenOfOwnerByIndex",
      "outputs": [
        {
          "internalType": "uint256",
          "name": "",
          "type": "uint256"
        }
      ],
      "stateMutability": "view",
      "type": "function"
    },
    {
      "inputs": [
        {
          "internalType": "uint256",
          "name": "tokenId",
          "type": "uint256"
        }
      ],
      "name": "tokenURI",
      "outputs": [
        {
          "internalType": "string",
          "name": "",
          "type": "string"
        }
      ],
      "stateMutability": "view",
      "type": "function"
    },
    {
      "inputs": [],
      "name": "totalSupply",
      "outputs": [
        {
          "internalType": "uint256",
          "name": "",
          "type": "uint256"
        }
      ],
      "stateMutability": "view",
      "type": "function"
    },
    {
      "inputs": [
        {
          "internalType": "address",
          "name": "from",
          "type": "address"
        },
        {
          "internalType": "address",
          "name": "to",
          "type": "address"
        },
        {
          "internalType": "uint256",
          "name": "tokenId",
          "type": "uint256"
        }
      ],
      "name": "transferFrom",
      "outputs": [],
      "stateMutability": "nonpayable",
      "type": "function"
    },
    {
      "inputs": [
        {
          "internalType": "address",
          "name": "newOwner",
          "type": "address"
        }
      ],
      "name": "transferOwnership",
      "outputs": [],
      "stateMutability": "nonpayable",
      "type": "function"
    },
    {
      "inputs": [
        {
          "internalType": "uint256",
          "name": "tokenId",
          "type": "uint256"
        }
      ],
      "name": "unfreeze",
      "outputs": [],
      "stateMutability": "nonpayable",
      "type": "function"
    },
    {
      "inputs": [],
      "name": "unpause",
      "outputs": [],
      "stateMutability": "nonpayable",
      "type": "function"
    },
    {
      "inputs": [
        {
          "internalType": "string",
          "name": "__contractURI",
          "type": "string"
        }
      ],
      "name": "updateContractURI",
      "outputs": [],
      "stateMutability": "nonpayable",
      "type": "function"
    },
    {
      "inputs": [
        {
          "internalType": "address",
          "name": "receiver",
          "type": "address"
        },
        {
          "internalType": "uint96",
          "name": "feeNumerator",
          "type": "uint96"
        }
      ],
      "name": "updateDefaultRoyalty",
      "outputs": [],
      "stateMutability": "nonpayable",
      "type": "function"
    },
    {
      "inputs": [
        {
          "internalType": "uint256",
          "name": "eventId",
          "type": "uint256"
        },
        {
          "internalType": "address",
          "name": "receiver",
          "type": "address"
        },
        {
          "internalType": "uint96",
          "name": "feeNumerator",
          "type": "uint96"
        }
      ],
      "name": "updateEventRoyalty",
      "outputs": [],
      "stateMutability": "nonpayable",
      "type": "function"
    },
    {
      "inputs": [
        {
          "internalType": "address",
          "name": "newImplementation",
          "type": "address"
        }
      ],
      "name": "upgradeTo",
      "outputs": [],
      "stateMutability": "nonpayable",
      "type": "function"
    },
    {
      "inputs": [
        {
          "internalType": "address",
          "name": "newImplementation",
          "type": "address"
        },
        {
          "internalType": "bytes",
          "name": "data",
          "type": "bytes"
        }
      ],
      "name": "upgradeToAndCall",
      "outputs": [],
      "stateMutability": "payable",
      "type": "function"
    }
  ],
  "bytecode": "0x60a0604052306080523480156200001557600080fd5b506200002062000026565b620000e8565b600054610100900460ff1615620000935760405162461bcd60e51b815260206004820152602760248201527f496e697469616c697a61626c653a20636f6e747261637420697320696e697469604482015266616c697a696e6760c81b606482015260840160405180910390fd5b60005460ff9081161015620000e6576000805460ff191660ff9081179091556040519081527f7f26b83ff96e1f2b6a682f133852f6798a09c465da95921460cefb38474024989060200160405180910390a15b565b6080516138e26200012060003960008181610d0701528181610d4701528181610e4201528181610e82015261105501526138e26000f3fe60806040526004361061027d5760003560e01c806367e971ce1161014f578063a140ae23116100c1578063d7a78db81161007a578063d7a78db81461079a578063e8a3d485146107ba578063e985e9c5146107cf578063f2fde38b14610818578063f399e22e14610838578063f980f3dc1461085857600080fd5b8063a140ae23146106e3578063a22cb46514610703578063b88d4fde14610723578063c1292cc314610743578063c87b56dd1461075a578063d691e43c1461077a57600080fd5b80638456cb59116101135780638456cb59146106345780638da5cb5b1461064957806395d89b411461066857806397ec4fba1461067d578063a089479914610692578063a0fd0c6a146106c357600080fd5b806367e971ce1461058a57806370a08231146105bf578063715018a6146105df57806378fa0654146105f45780637e5b1e241461061457600080fd5b80633659cfe6116101f3578063508061a2116101ac578063508061a2146104dd57806352d1902d146104fd5780635c975abb146105125780635f330b411461052a5780636352211e1461054a5780636623fc461461056a57600080fd5b80633659cfe6146104355780633f4ba83a1461045557806342842e0e1461046a57806342966c681461048a5780634f1ef286146104aa5780634f6ccce7146104bd57600080fd5b806318160ddd1161024557806318160ddd146103615780631a27e85f1461037657806323b872dd14610396578063278d9c41146103b65780632a55205a146103d65780632f745c591461041557600080fd5b806301ffc9a71461028257806306fdde03146102b7578063081812fc146102d9578063095ea7b314610311578063127a529814610333575b600080fd5b34801561028e57600080fd5b506102a261029d366004612e42565b610878565b60405190151581526020015b60405180910390f35b3480156102c357600080fd5b506102cc610889565b6040516102ae9190612eb7565b3480156102e557600080fd5b506102f96102f4366004612eca565b61091b565b6040516001600160a01b0390911681526020016102ae565b34801561031d57600080fd5b5061033161032c366004612eff565b610942565b005b34801561033f57600080fd5b5061035361034e366004612eca565b610a5d565b6040519081526020016102ae565b34801561036d57600080fd5b50609954610353565b34801561038257600080fd5b50610331610391366004612eca565b610a7c565b3480156103a257600080fd5b506103316103b1366004612f29565b610ae4565b3480156103c257600080fd5b506102a26103d1366004612fd0565b610b16565b3480156103e257600080fd5b506103f66103f1366004613079565b610ba6565b604080516001600160a01b0390931683526020830191909152016102ae565b34801561042157600080fd5b50610353610430366004612eff565b610c66565b34801561044157600080fd5b5061033161045036600461309b565b610cfc565b34801561046157600080fd5b50610331610ddc565b34801561047657600080fd5b50610331610485366004612f29565b610dee565b34801561049657600080fd5b506103316104a5366004612eca565b610e09565b6103316104b8366004613126565b610e37565b3480156104c957600080fd5b506103536104d8366004612eca565b610f08565b3480156104e957600080fd5b506103316104f8366004612eca565b610f9b565b34801561050957600080fd5b50610353611048565b34801561051e57600080fd5b5060fb5460ff166102a2565b34801561053657600080fd5b50610331610545366004612eca565b6110fb565b34801561055657600080fd5b506102f9610565366004612eca565b611115565b34801561057657600080fd5b50610331610585366004612eca565b611175565b34801561059657600080fd5b506105aa6105a5366004612eff565b611232565b604080519283526020830191909152016102ae565b3480156105cb57600080fd5b506103536105da36600461309b565b611253565b3480156105eb57600080fd5b506103316112d9565b34801561060057600080fd5b5061033161060f36600461318b565b6112eb565b34801561062057600080fd5b5061033161062f3660046131c7565b6112fe565b34801561064057600080fd5b5061033161131a565b34801561065557600080fd5b5061012d546001600160a01b03166102f9565b34801561067457600080fd5b506102cc61132a565b34801561068957600080fd5b50610331611339565b34801561069e57600080fd5b506102a26106ad366004612eca565b60009081526101c6602052604090205460ff1690565b3480156106cf57600080fd5b506102cc6106de366004612eca565b61134c565b3480156106ef57600080fd5b506102a26106fe3660046131fc565b611381565b34801561070f57600080fd5b5061033161071e36600461322d565b6113c3565b34801561072f57600080fd5b5061033161073e366004613264565b6113ce565b34801561074f57600080fd5b506103536101c45481565b34801561076657600080fd5b506102cc610775366004612eca565b611406565b34801561078657600080fd5b506103316107953660046132cc565b611457565b3480156107a657600080fd5b506103316107b5366004612eca565b611469565b3480156107c657600080fd5b506102cc611523565b3480156107db57600080fd5b506102a26107ea3660046132f6565b6001600160a01b039182166000908152606a6020908152604080832093909416825291909152205460ff1690565b34801561082457600080fd5b5061033161083336600461309b565b6115b2565b34801561084457600080fd5b50610331610853366004613126565b611628565b34801561086457600080fd5b506102a2610873366004613320565b6117cc565b60006108838261184e565b92915050565b606060658054610898906133c3565b80601f01602080910402602001604051908101604052809291908181526020018280546108c4906133c3565b80156109115780601f106108e657610100808354040283529160200191610911565b820191906000526020600020905b8154815290600101906020018083116108f457829003601f168201915b5050505050905090565b600061092682611873565b506000908152606960205260409020546001600160a01b031690565b600061094d82611115565b9050806001600160a01b0316836001600160a01b031614156109c05760405162461bcd60e51b815260206004820152602160248201527f4552433732313a20617070726f76616c20746f2063757272656e74206f776e656044820152603960f91b60648201526084015b60405180910390fd5b336001600160a01b03821614806109dc57506109dc81336107ea565b610a4e5760405162461bcd60e51b815260206004820152603e60248201527f4552433732313a20617070726f76652063616c6c6572206973206e6f7420746f60448201527f6b656e206f776e6572206e6f7220617070726f76656420666f7220616c6c000060648201526084016109b7565b610a5883836118d2565b505050565b6000610a6882611873565b5060009081526101c5602052604090205490565b610a84611940565b610a8c61199b565b806101c45410610ade5760405162461bcd60e51b815260206004820152601760248201527f4e65772049642068617320746f2062652068696768657200000000000000000060448201526064016109b7565b6101c455565b610aef335b826119e1565b610b0b5760405162461bcd60e51b81526004016109b7906133fe565b610a58838383611a60565b6000610b2061199b565b610b28611940565b60005b8251811015610b8357610b7284826101c4546001610b499190613462565b610b539190613462565b858481518110610b6557610b6561347a565b6020026020010151611c07565b50610b7c81613490565b9050610b2b565b5081516101c46000828254610b989190613462565b909155506001949350505050565b6000806000610bb485610a5d565b60008181526101c860209081526040918290208251808401909352546001600160a01b038116808452600160a01b9091046001600160601b03169183019190915291925090610c2e5750604080518082019091526101c7546001600160a01b0381168252600160a01b90046001600160601b031660208201525b602081015160009061271090610c4d906001600160601b0316886134ab565b610c5791906134e0565b91519791965090945050505050565b6000610c7183611253565b8210610cd35760405162461bcd60e51b815260206004820152602b60248201527f455243373231456e756d657261626c653a206f776e657220696e646578206f7560448201526a74206f6620626f756e647360a81b60648201526084016109b7565b506001600160a01b03919091166000908152609760209081526040808320938352929052205490565b306001600160a01b037f0000000000000000000000000000000000000000000000000000000000000000161415610d455760405162461bcd60e51b81526004016109b7906134f4565b7f00000000000000000000000000000000000000000000000000000000000000006001600160a01b0316610d8e600080516020613866833981519152546001600160a01b031690565b6001600160a01b031614610db45760405162461bcd60e51b81526004016109b790613540565b610dbd81611c7d565b60408051600080825260208201909252610dd991839190611c85565b50565b610de4611940565b610dec611df0565b565b610a58838383604051806020016040528060008152506113ce565b610e1233610ae9565b610e2e5760405162461bcd60e51b81526004016109b7906133fe565b610dd981611e42565b306001600160a01b037f0000000000000000000000000000000000000000000000000000000000000000161415610e805760405162461bcd60e51b81526004016109b7906134f4565b7f00000000000000000000000000000000000000000000000000000000000000006001600160a01b0316610ec9600080516020613866833981519152546001600160a01b031690565b6001600160a01b031614610eef5760405162461bcd60e51b81526004016109b790613540565b610ef882611c7d565b610f0482826001611c85565b5050565b6000610f1360995490565b8210610f765760405162461bcd60e51b815260206004820152602c60248201527f455243373231456e756d657261626c653a20676c6f62616c20696e646578206f60448201526b7574206f6620626f756e647360a01b60648201526084016109b7565b60998281548110610f8957610f8961347a565b90600052602060002001549050919050565b610fa3611940565b6000818152606760205260409020546001600160a01b0316156110085760405162461bcd60e51b815260206004820152601c60248201527f4552433732313a20746f6b656e20646f6573206e6f742065786973740000000060448201526064016109b7565b61102761101482611115565b61012d546001600160a01b031683611a60565b60008181526101c6602052604090205460ff1615610dd957610dd981611e72565b6000306001600160a01b037f000000000000000000000000000000000000000000000000000000000000000016146110e85760405162461bcd60e51b815260206004820152603860248201527f555550535570677261646561626c653a206d757374206e6f742062652063616c60448201527f6c6564207468726f7567682064656c656761746563616c6c000000000000000060648201526084016109b7565b5060008051602061386683398151915290565b611103611940565b60009081526101c86020526040812055565b6000818152606760205260408120546001600160a01b0316806108835760405162461bcd60e51b8152602060048201526018602482015277115490cdcc8c4e881a5b9d985b1a59081d1bdad95b88125160421b60448201526064016109b7565b61117d611940565b61118561199b565b60405163a089479960e01b8152600481018290528190309063a089479990602401602060405180830381865afa1580156111c3573d6000803e3d6000fd5b505050506040513d601f19601f820116820180604052508101906111e7919061358c565b6112295760405162461bcd60e51b81526020600482015260136024820152722a37b5b2b71034b9903737ba10333937bd32b760691b60448201526064016109b7565b610f0482611e72565b60008061123f8484610c66565b915061124a82610a5d565b90509250929050565b60006001600160a01b0382166112bd5760405162461bcd60e51b815260206004820152602960248201527f4552433732313a2061646472657373207a65726f206973206e6f7420612076616044820152683634b21037bbb732b960b91b60648201526084016109b7565b506001600160a01b031660009081526068602052604090205490565b6112e1611940565b610dec6000611ec6565b6112f3611940565b610a58838383611f19565b611306611940565b8051610f04906101c3906020840190612d93565b611322611940565b610dec611fe5565b606060668054610898906133c3565b611341611940565b610dec60006101c755565b60606101c361135a83612022565b60405160200161136b929190613643565b6040516020818303038152906040529050919050565b600061138b61199b565b611393611940565b60016101c460008282546113a79190613462565b925050819055506113bc836101c45484611c07565b9392505050565b610f04338383612120565b6113d833836119e1565b6113f45760405162461bcd60e51b81526004016109b7906133fe565b611400848484846121ef565b50505050565b60008181526101c560205260409020546060906101c361142582612022565b61142e85612022565b60405160200161144093929190613668565b604051602081830303815290604052915050919050565b61145f611940565b610f048282612222565b611471611940565b61147961199b565b60405163a089479960e01b8152600481018290528190309063a089479990602401602060405180830381865afa1580156114b7573d6000803e3d6000fd5b505050506040513d601f19601f820116820180604052508101906114db919061358c565b1561151a5760405162461bcd60e51b815260206004820152600f60248201526e2a37b5b2b71034b990333937bd32b760891b60448201526064016109b7565b610f04826122dd565b6101c38054611531906133c3565b80601f016020809104026020016040519081016040528092919081815260200182805461155d906133c3565b80156115aa5780601f1061157f576101008083540402835291602001916115aa565b820191906000526020600020905b81548152906001019060200180831161158d57829003601f168201915b505050505081565b6115ba611940565b6001600160a01b03811661161f5760405162461bcd60e51b815260206004820152602660248201527f4f776e61626c653a206e6577206f776e657220697320746865207a65726f206160448201526564647265737360d01b60648201526084016109b7565b610dd981611ec6565b600054610100900460ff16158080156116485750600054600160ff909116105b806116625750303b158015611662575060005460ff166001145b6116c55760405162461bcd60e51b815260206004820152602e60248201527f496e697469616c697a61626c653a20636f6e747261637420697320616c72656160448201526d191e481a5b9a5d1a585b1a5e995960921b60648201526084016109b7565b6000805460ff1916600117905580156116e8576000805461ff0019166101001790555b6117456040518060400160405280601781526020017f556c74726176696f6c657420436f6c6c65637461626c6500000000000000000081525060405180604001604052806006815260200165554c5452414360d01b815250612329565b61174d61235a565b611755612381565b61175d6123b0565b61176561235a565b61176d61235a565b611779836103e8611457565b611782826112fe565b8015610a58576000805461ff0019169055604051600181527f7f26b83ff96e1f2b6a682f133852f6798a09c465da95921460cefb38474024989060200160405180910390a1505050565b60006117d661199b565b6117de611940565b60005b8351811015611839576118288482815181106117ff576117ff61347a565b6020026020010151826101c45460016118189190613462565b6118229190613462565b85611c07565b5061183281613490565b90506117e1565b5082516101c46000828254610b989190613462565b60006001600160e01b0319821663780e9d6360e01b14806108835750610883826123df565b6000818152606760205260409020546001600160a01b0316610dd95760405162461bcd60e51b8152602060048201526018602482015277115490cdcc8c4e881a5b9d985b1a59081d1bdad95b88125160421b60448201526064016109b7565b600081815260696020526040902080546001600160a01b0319166001600160a01b038416908117909155819061190782611115565b6001600160a01b03167f8c5be1e5ebec7d5bd14f71427d1e84f3dd0314c0f7b2291e5b200ac8c7c3b92560405160405180910390a45050565b61012d546001600160a01b03163314610dec5760405162461bcd60e51b815260206004820181905260248201527f4f776e61626c653a2063616c6c6572206973206e6f7420746865206f776e657260448201526064016109b7565b60fb5460ff1615610dec5760405162461bcd60e51b815260206004820152601060248201526f14185d5cd8589b194e881c185d5cd95960821b60448201526064016109b7565b6000806119ed83611115565b9050806001600160a01b0316846001600160a01b03161480611a3457506001600160a01b038082166000908152606a602090815260408083209388168352929052205460ff165b80611a585750836001600160a01b0316611a4d8461091b565b6001600160a01b0316145b949350505050565b826001600160a01b0316611a7382611115565b6001600160a01b031614611ad75760405162461bcd60e51b815260206004820152602560248201527f4552433732313a207472616e736665722066726f6d20696e636f72726563742060448201526437bbb732b960d91b60648201526084016109b7565b6001600160a01b038216611b395760405162461bcd60e51b8152602060048201526024808201527f4552433732313a207472616e7366657220746f20746865207a65726f206164646044820152637265737360e01b60648201526084016109b7565b611b4483838361242f565b611b4f6000826118d2565b6001600160a01b0383166000908152606860205260408120805460019290611b789084906136ae565b90915550506001600160a01b0382166000908152606860205260408120805460019290611ba6908490613462565b909155505060008181526067602052604080822080546001600160a01b0319166001600160a01b0386811691821790925591518493918716917fddf252ad1be2c89b69c2b068fc378daa952ba7f163c4a11628f55a4df523b3ef91a4505050565b6000611c1382846124e3565b60008381526101c56020526040908190208590555184907f259eb7b480b3d449f506927269e4665c83c69e4cd797143eaa8f84632dc7a02b90611c6b90869086909182526001600160a01b0316602082015260400190565b60405180910390a25060019392505050565b610dd9611940565b7f4910fdfa16fed3260ed0e7147f7cc6da11a60208b5b9406d12a635614ffd91435460ff1615611cb857610a58836124fd565b826001600160a01b03166352d1902d6040518163ffffffff1660e01b8152600401602060405180830381865afa925050508015611d12575060408051601f3d908101601f19168201909252611d0f918101906136c5565b60015b611d755760405162461bcd60e51b815260206004820152602e60248201527f45524331393637557067726164653a206e657720696d706c656d656e7461746960448201526d6f6e206973206e6f74205555505360901b60648201526084016109b7565b6000805160206138668339815191528114611de45760405162461bcd60e51b815260206004820152602960248201527f45524331393637557067726164653a20756e737570706f727465642070726f786044820152681a58589b195555525160ba1b60648201526084016109b7565b50610a58838383612599565b611df86125be565b60fb805460ff191690557f5db9ee0a495bf2e6ff9c91a7834c1ba4fdd244a5e8aa4e537bd38aeae4b073aa335b6040516001600160a01b03909116815260200160405180910390a1565b611e4b81612607565b60009081526101c5602090815260408083208390556101c69091529020805460ff19169055565b60008181526101c6602052604090819020805460ff19169055517f083eea12772ab70fba01c8212d02f3bc5dc29b8540dcdc84298e5dfa22731b9290611ebb9083815260200190565b60405180910390a150565b61012d80546001600160a01b038381166001600160a01b0319831681179093556040519116919082907f8be0079c531659141344cd1fd0a4f28419497f9722a3daafe3b4186f6b6457e090600090a35050565b6127106001600160601b0382161115611f445760405162461bcd60e51b81526004016109b7906136de565b6001600160a01b038216611f9a5760405162461bcd60e51b815260206004820152601b60248201527f455243323938313a20496e76616c696420706172616d6574657273000000000060448201526064016109b7565b6040805180820182526001600160a01b0393841681526001600160601b03928316602080830191825260009687526101c890529190942093519051909116600160a01b029116179055565b611fed61199b565b60fb805460ff191660011790557f62e78cea01bee320cd4e420270b5ea74000d11b0c9f74754ebdbfc544b05a258611e253390565b6060816120465750506040805180820190915260018152600360fc1b602082015290565b8160005b8115612070578061205a81613490565b91506120699050600a836134e0565b915061204a565b60008167ffffffffffffffff81111561208b5761208b612f65565b6040519080825280601f01601f1916602001820160405280156120b5576020820181803683370190505b5090505b8415611a58576120ca6001836136ae565b91506120d7600a86613728565b6120e2906030613462565b60f81b8183815181106120f7576120f761347a565b60200101906001600160f81b031916908160001a905350612119600a866134e0565b94506120b9565b816001600160a01b0316836001600160a01b031614156121825760405162461bcd60e51b815260206004820152601960248201527f4552433732313a20617070726f766520746f2063616c6c65720000000000000060448201526064016109b7565b6001600160a01b038381166000818152606a6020908152604080832094871680845294825291829020805460ff191686151590811790915591519182527f17307eab39ab6107e8899845ad3d59bd9653f200f220920489ca2b5937696c31910160405180910390a3505050565b6121fa848484611a60565b612206848484846126ae565b6114005760405162461bcd60e51b81526004016109b79061373c565b6127106001600160601b038216111561224d5760405162461bcd60e51b81526004016109b7906136de565b6001600160a01b0382166122a35760405162461bcd60e51b815260206004820152601960248201527f455243323938313a20696e76616c69642072656365697665720000000000000060448201526064016109b7565b604080518082019091526001600160a01b039092168083526001600160601b039091166020909201829052600160a01b909102176101c755565b60008181526101c6602052604090819020805460ff19166001179055517f4d69b51fee53c28bd8b61fe008151577ca65160b5248f6225e74d64fd4cf732890611ebb9083815260200190565b600054610100900460ff166123505760405162461bcd60e51b81526004016109b79061378e565b610f0482826127ac565b600054610100900460ff16610dec5760405162461bcd60e51b81526004016109b79061378e565b600054610100900460ff166123a85760405162461bcd60e51b81526004016109b79061378e565b610dec6127fa565b600054610100900460ff166123d75760405162461bcd60e51b81526004016109b79061378e565b610dec61282d565b60006001600160e01b031982166380ac58cd60e01b148061241057506001600160e01b03198216635b5e139f60e01b145b8061088357506301ffc9a760e01b6001600160e01b0319831614610883565b61243761199b565b60405163a089479960e01b8152600481018290528190309063a089479990602401602060405180830381865afa158015612475573d6000803e3d6000fd5b505050506040513d601f19601f82011682018060405250810190612499919061358c565b156124d85760405162461bcd60e51b815260206004820152600f60248201526e2a37b5b2b71034b990333937bd32b760891b60448201526064016109b7565b61140084848461285d565b610f04828260405180602001604052806000815250612915565b6001600160a01b0381163b61256a5760405162461bcd60e51b815260206004820152602d60248201527f455243313936373a206e657720696d706c656d656e746174696f6e206973206e60448201526c1bdd08184818dbdb9d1c9858dd609a1b60648201526084016109b7565b60008051602061386683398151915280546001600160a01b0319166001600160a01b0392909216919091179055565b6125a283612948565b6000825111806125af5750805b15610a58576114008383612988565b60fb5460ff16610dec5760405162461bcd60e51b815260206004820152601460248201527314185d5cd8589b194e881b9bdd081c185d5cd95960621b60448201526064016109b7565b600061261282611115565b90506126208160008461242f565b61262b6000836118d2565b6001600160a01b03811660009081526068602052604081208054600192906126549084906136ae565b909155505060008281526067602052604080822080546001600160a01b0319169055518391906001600160a01b038416907fddf252ad1be2c89b69c2b068fc378daa952ba7f163c4a11628f55a4df523b3ef908390a45050565b60006001600160a01b0384163b156127a157604051630a85bd0160e11b81526001600160a01b0385169063150b7a02906126f29033908990889088906004016137d9565b6020604051808303816000875af192505050801561272d575060408051601f3d908101601f1916820190925261272a91810190613816565b60015b612787573d80801561275b576040519150601f19603f3d011682016040523d82523d6000602084013e612760565b606091505b50805161277f5760405162461bcd60e51b81526004016109b79061373c565b805181602001fd5b6001600160e01b031916630a85bd0160e11b149050611a58565b506001949350505050565b600054610100900460ff166127d35760405162461bcd60e51b81526004016109b79061378e565b81516127e6906065906020850190612d93565b508051610a58906066906020840190612d93565b600054610100900460ff166128215760405162461bcd60e51b81526004016109b79061378e565b60fb805460ff19169055565b600054610100900460ff166128545760405162461bcd60e51b81526004016109b79061378e565b610dec33611ec6565b6001600160a01b0383166128b8576128b381609980546000838152609a60205260408120829055600182018355919091527f72a152ddfb8e864297c917af52ea6c1c68aead0fee1a62673fcc7e0c94979d000155565b6128db565b816001600160a01b0316836001600160a01b0316146128db576128db8382612a7c565b6001600160a01b0382166128f257610a5881612b19565b826001600160a01b0316826001600160a01b031614610a5857610a588282612bc8565b61291f8383612c0c565b61292c60008484846126ae565b610a585760405162461bcd60e51b81526004016109b79061373c565b612951816124fd565b6040516001600160a01b038216907fbc7cd75a20ee27fd9adebab32041f755214dbc6bffa90cc0225b39da2e5c2d3b90600090a250565b60606001600160a01b0383163b6129f05760405162461bcd60e51b815260206004820152602660248201527f416464726573733a2064656c65676174652063616c6c20746f206e6f6e2d636f6044820152651b9d1c9858dd60d21b60648201526084016109b7565b600080846001600160a01b031684604051612a0b9190613833565b600060405180830381855af49150503d8060008114612a46576040519150601f19603f3d011682016040523d82523d6000602084013e612a4b565b606091505b5091509150612a73828260405180606001604052806027815260200161388660279139612d5a565b95945050505050565b60006001612a8984611253565b612a9391906136ae565b600083815260986020526040902054909150808214612ae6576001600160a01b03841660009081526097602090815260408083208584528252808320548484528184208190558352609890915290208190555b5060009182526098602090815260408084208490556001600160a01b039094168352609781528383209183525290812055565b609954600090612b2b906001906136ae565b6000838152609a602052604081205460998054939450909284908110612b5357612b5361347a565b906000526020600020015490508060998381548110612b7457612b7461347a565b6000918252602080832090910192909255828152609a90915260408082208490558582528120556099805480612bac57612bac61384f565b6001900381819060005260206000200160009055905550505050565b6000612bd383611253565b6001600160a01b039093166000908152609760209081526040808320868452825280832085905593825260989052919091209190915550565b6001600160a01b038216612c625760405162461bcd60e51b815260206004820181905260248201527f4552433732313a206d696e7420746f20746865207a65726f206164647265737360448201526064016109b7565b6000818152606760205260409020546001600160a01b031615612cc75760405162461bcd60e51b815260206004820152601c60248201527f4552433732313a20746f6b656e20616c7265616479206d696e7465640000000060448201526064016109b7565b612cd36000838361242f565b6001600160a01b0382166000908152606860205260408120805460019290612cfc908490613462565b909155505060008181526067602052604080822080546001600160a01b0319166001600160a01b03861690811790915590518392907fddf252ad1be2c89b69c2b068fc378daa952ba7f163c4a11628f55a4df523b3ef908290a45050565b60608315612d695750816113bc565b825115612d795782518084602001fd5b8160405162461bcd60e51b81526004016109b79190612eb7565b828054612d9f906133c3565b90600052602060002090601f016020900481019282612dc15760008555612e07565b82601f10612dda57805160ff1916838001178555612e07565b82800160010185558215612e07579182015b82811115612e07578251825591602001919060010190612dec565b50612e13929150612e17565b5090565b5b80821115612e135760008155600101612e18565b6001600160e01b031981168114610dd957600080fd5b600060208284031215612e5457600080fd5b81356113bc81612e2c565b60005b83811015612e7a578181015183820152602001612e62565b838111156114005750506000910152565b60008151808452612ea3816020860160208601612e5f565b601f01601f19169290920160200192915050565b6020815260006113bc6020830184612e8b565b600060208284031215612edc57600080fd5b5035919050565b80356001600160a01b0381168114612efa57600080fd5b919050565b60008060408385031215612f1257600080fd5b612f1b83612ee3565b946020939093013593505050565b600080600060608486031215612f3e57600080fd5b612f4784612ee3565b9250612f5560208501612ee3565b9150604084013590509250925092565b634e487b7160e01b600052604160045260246000fd5b604051601f8201601f1916810167ffffffffffffffff81118282101715612fa457612fa4612f65565b604052919050565b600067ffffffffffffffff821115612fc657612fc6612f65565b5060051b60200190565b60008060408385031215612fe357600080fd5b8235915060208084013567ffffffffffffffff81111561300257600080fd5b8401601f8101861361301357600080fd5b803561302661302182612fac565b612f7b565b81815260059190911b8201830190838101908883111561304557600080fd5b928401925b8284101561306a5761305b84612ee3565b8252928401929084019061304a565b80955050505050509250929050565b6000806040838503121561308c57600080fd5b50508035926020909101359150565b6000602082840312156130ad57600080fd5b6113bc82612ee3565b600082601f8301126130c757600080fd5b813567ffffffffffffffff8111156130e1576130e1612f65565b6130f4601f8201601f1916602001612f7b565b81815284602083860101111561310957600080fd5b816020850160208301376000918101602001919091529392505050565b6000806040838503121561313957600080fd5b61314283612ee3565b9150602083013567ffffffffffffffff81111561315e57600080fd5b61316a858286016130b6565b9150509250929050565b80356001600160601b0381168114612efa57600080fd5b6000806000606084860312156131a057600080fd5b833592506131b060208501612ee3565b91506131be60408501613174565b90509250925092565b6000602082840312156131d957600080fd5b813567ffffffffffffffff8111156131f057600080fd5b611a58848285016130b6565b6000806040838503121561320f57600080fd5b8235915061124a60208401612ee3565b8015158114610dd957600080fd5b6000806040838503121561324057600080fd5b61324983612ee3565b915060208301356132598161321f565b809150509250929050565b6000806000806080858703121561327a57600080fd5b61328385612ee3565b935061329160208601612ee3565b925060408501359150606085013567ffffffffffffffff8111156132b457600080fd5b6132c0878288016130b6565b91505092959194509250565b600080604083850312156132df57600080fd5b6132e883612ee3565b915061124a60208401613174565b6000806040838503121561330957600080fd5b61331283612ee3565b915061124a60208401612ee3565b6000806040838503121561333357600080fd5b823567ffffffffffffffff81111561334a57600080fd5b8301601f8101851361335b57600080fd5b8035602061336b61302183612fac565b82815260059290921b8301810191818101908884111561338a57600080fd5b938201935b838510156133a85784358252938201939082019061338f565b95506133b79050868201612ee3565b93505050509250929050565b600181811c908216806133d757607f821691505b602082108114156133f857634e487b7160e01b600052602260045260246000fd5b50919050565b6020808252602e908201527f4552433732313a2063616c6c6572206973206e6f7420746f6b656e206f776e6560408201526d1c881b9bdc88185c1c1c9bdd995960921b606082015260800190565b634e487b7160e01b600052601160045260246000fd5b600082198211156134755761347561344c565b500190565b634e487b7160e01b600052603260045260246000fd5b60006000198214156134a4576134a461344c565b5060010190565b60008160001904831182151516156134c5576134c561344c565b500290565b634e487b7160e01b600052601260045260246000fd5b6000826134ef576134ef6134ca565b500490565b6020808252602c908201527f46756e6374696f6e206d7573742062652063616c6c6564207468726f7567682060408201526b19195b1959d85d1958d85b1b60a21b606082015260800190565b6020808252602c908201527f46756e6374696f6e206d7573742062652063616c6c6564207468726f7567682060408201526b6163746976652070726f787960a01b606082015260800190565b60006020828403121561359e57600080fd5b81516113bc8161321f565b8054600090600181811c90808316806135c357607f831692505b60208084108214156135e557634e487b7160e01b600052602260045260246000fd5b8180156135f9576001811461360a57613637565b60ff19861689528489019650613637565b60008881526020902060005b8681101561362f5781548b820152908501908301613616565b505084890196505b50505050505092915050565b600061364f82856135a9565b835161365f818360208801612e5f565b01949350505050565b600061367482866135a9565b8451613684818360208901612e5f565b602f60f81b910190815283516136a1816001840160208801612e5f565b0160010195945050505050565b6000828210156136c0576136c061344c565b500390565b6000602082840312156136d757600080fd5b5051919050565b6020808252602a908201527f455243323938313a20726f79616c7479206665652077696c6c206578636565646040820152692073616c65507269636560b01b606082015260800190565b600082613737576137376134ca565b500690565b60208082526032908201527f4552433732313a207472616e7366657220746f206e6f6e20455243373231526560408201527131b2b4bb32b91034b6b83632b6b2b73a32b960711b606082015260800190565b6020808252602b908201527f496e697469616c697a61626c653a20636f6e7472616374206973206e6f74206960408201526a6e697469616c697a696e6760a81b606082015260800190565b6001600160a01b038581168252841660208201526040810183905260806060820181905260009061380c90830184612e8b565b9695505050505050565b60006020828403121561382857600080fd5b81516113bc81612e2c565b60008251613845818460208701612e5f565b9190910192915050565b634e487b7160e01b600052603160045260246000fdfe360894a13ba1a3210667c828492db98dca3e2076cc3735a920a3ca505d382bbc416464726573733a206c6f772d6c6576656c2064656c65676174652063616c6c206661696c6564a26469706673582212203abb0dc1cd7af75125dac39773fe78804e1afdce4bc2c449390585ec1ab5737964736f6c634300080c0033",
  "linkReferences": {},
  "deployedLinkReferences": {}
}