{
  "_format": "hh-sol-artifact-1",
  "contractName": "UVCollectable",
  "sourceName": "contracts/UVCollectable.sol",
  "abi": [
    {
      "inputs": [],
      "stateMutability": "nonpayable",
      "type": "constructor"
    },
    {
      "anonymous": false,
      "inputs": [
        {
          "indexed": false,
          "internalType": "address",
          "name": "previousAdmin",
          "type": "address"
        },
        {
          "indexed": false,
          "internalType": "address",
          "name": "newAdmin",
          "type": "address"
        }
      ],
      "name": "AdminChanged",
      "type": "event"
    },
    {
      "anonymous": false,
      "inputs": [
        {
          "indexed": false,
          "internalType": "address",
          "name": "admin",
          "type": "address"
        },
        {
          "indexed": false,
          "internalType": "bool",
          "name": "added",
          "type": "bool"
        }
      ],
      "name": "AdminUpdated",
      "type": "event"
    },
    {
      "anonymous": false,
      "inputs": [
        {
          "indexed": true,
          "internalType": "address",
          "name": "owner",
          "type": "address"
        },
        {
          "indexed": true,
          "internalType": "address",
          "name": "approved",
          "type": "address"
        },
        {
          "indexed": true,
          "internalType": "uint256",
          "name": "tokenId",
          "type": "uint256"
        }
      ],
      "name": "Approval",
      "type": "event"
    },
    {
      "anonymous": false,
      "inputs": [
        {
          "indexed": true,
          "internalType": "address",
          "name": "owner",
          "type": "address"
        },
        {
          "indexed": true,
          "internalType": "address",
          "name": "operator",
          "type": "address"
        },
        {
          "indexed": false,
          "internalType": "bool",
          "name": "approved",
          "type": "bool"
        }
      ],
      "name": "ApprovalForAll",
      "type": "event"
    },
    {
      "anonymous": false,
      "inputs": [
        {
          "indexed": true,
          "internalType": "address",
          "name": "beacon",
          "type": "address"
        }
      ],
      "name": "BeaconUpgraded",
      "type": "event"
    },
    {
      "anonymous": false,
      "inputs": [
        {
          "indexed": false,
          "internalType": "uint256",
          "name": "tokenId",
          "type": "uint256"
        }
      ],
      "name": "Frozen",
      "type": "event"
    },
    {
      "anonymous": false,
      "inputs": [
        {
          "indexed": false,
          "internalType": "uint8",
          "name": "version",
          "type": "uint8"
        }
      ],
      "name": "Initialized",
      "type": "event"
    },
    {
      "anonymous": false,
      "inputs": [
        {
          "indexed": true,
          "internalType": "address",
          "name": "previousOwner",
          "type": "address"
        },
        {
          "indexed": true,
          "internalType": "address",
          "name": "newOwner",
          "type": "address"
        }
      ],
      "name": "OwnershipTransferred",
      "type": "event"
    },
    {
      "anonymous": false,
      "inputs": [
        {
          "indexed": false,
          "internalType": "address",
          "name": "account",
          "type": "address"
        }
      ],
      "name": "Paused",
      "type": "event"
    },
    {
      "anonymous": false,
      "inputs": [
        {
          "indexed": true,
          "internalType": "uint256",
          "name": "tokenId",
          "type": "uint256"
        },
        {
          "indexed": false,
          "internalType": "uint64",
          "name": "expiration",
          "type": "uint64"
        }
      ],
      "name": "SubscriptionUpdate",
      "type": "event"
    },
    {
      "anonymous": false,
      "inputs": [
        {
          "indexed": true,
          "internalType": "address",
          "name": "from",
          "type": "address"
        },
        {
          "indexed": true,
          "internalType": "address",
          "name": "to",
          "type": "address"
        },
        {
          "indexed": true,
          "internalType": "uint256",
          "name": "tokenId",
          "type": "uint256"
        }
      ],
      "name": "Transfer",
      "type": "event"
    },
    {
      "anonymous": false,
      "inputs": [
        {
          "indexed": false,
          "internalType": "uint256",
          "name": "tokenId",
          "type": "uint256"
        }
      ],
      "name": "Unfrozen",
      "type": "event"
    },
    {
      "anonymous": false,
      "inputs": [
        {
          "indexed": false,
          "internalType": "address",
          "name": "account",
          "type": "address"
        }
      ],
      "name": "Unpaused",
      "type": "event"
    },
    {
      "anonymous": false,
      "inputs": [
        {
          "indexed": true,
          "internalType": "address",
          "name": "implementation",
          "type": "address"
        }
      ],
      "name": "Upgraded",
      "type": "event"
    },
    {
      "inputs": [
        {
          "internalType": "address",
          "name": "newAdmin",
          "type": "address"
        }
      ],
      "name": "addAdmin",
      "outputs": [],
      "stateMutability": "nonpayable",
      "type": "function"
    },
    {
      "inputs": [
        {
          "internalType": "address",
          "name": "to",
          "type": "address"
        },
        {
          "internalType": "uint256",
          "name": "tokenId",
          "type": "uint256"
        }
      ],
      "name": "approve",
      "outputs": [],
      "stateMutability": "nonpayable",
      "type": "function"
    },
    {
      "inputs": [
        {
          "internalType": "address",
          "name": "owner",
          "type": "address"
        }
      ],
      "name": "balanceOf",
      "outputs": [
        {
          "internalType": "uint256",
          "name": "",
          "type": "uint256"
        }
      ],
      "stateMutability": "view",
      "type": "function"
    },
    {
      "inputs": [
        {
          "internalType": "uint256",
          "name": "tokenId",
          "type": "uint256"
        }
      ],
      "name": "burn",
      "outputs": [],
      "stateMutability": "nonpayable",
      "type": "function"
    },
    {
      "inputs": [
        {
          "internalType": "uint256",
          "name": "tokenId",
          "type": "uint256"
        }
      ],
      "name": "cancelSubscription",
      "outputs": [],
      "stateMutability": "nonpayable",
      "type": "function"
    },
    {
      "inputs": [
        {
          "internalType": "uint256",
          "name": "collectionId",
          "type": "uint256"
        }
      ],
      "name": "collectionURI",
      "outputs": [
        {
          "internalType": "string",
          "name": "",
          "type": "string"
        }
      ],
      "stateMutability": "view",
      "type": "function"
    },
    {
      "inputs": [],
      "name": "contractURI",
      "outputs": [
        {
          "internalType": "string",
          "name": "",
          "type": "string"
        }
      ],
      "stateMutability": "view",
      "type": "function"
    },
    {
      "inputs": [
        {
          "internalType": "uint256",
          "name": "tokenId",
          "type": "uint256"
        }
      ],
      "name": "expireSubscription",
      "outputs": [],
      "stateMutability": "nonpayable",
      "type": "function"
    },
    {
      "inputs": [
        {
          "internalType": "uint256",
          "name": "tokenId",
          "type": "uint256"
        }
      ],
      "name": "expiresAt",
      "outputs": [
        {
          "internalType": "uint64",
          "name": "",
          "type": "uint64"
        }
      ],
      "stateMutability": "view",
      "type": "function"
    },
    {
      "inputs": [
        {
          "internalType": "uint256",
          "name": "tokenId",
          "type": "uint256"
        }
      ],
      "name": "freeze",
      "outputs": [],
      "stateMutability": "nonpayable",
      "type": "function"
    },
    {
      "inputs": [
        {
          "internalType": "uint256",
          "name": "tokenId",
          "type": "uint256"
        }
      ],
      "name": "getApproved",
      "outputs": [
        {
          "internalType": "address",
          "name": "",
          "type": "address"
        }
      ],
      "stateMutability": "view",
      "type": "function"
    },
    {
      "inputs": [],
      "name": "getTrustedForwarder",
      "outputs": [
        {
          "internalType": "address",
          "name": "forwarder",
          "type": "address"
        }
      ],
      "stateMutability": "view",
      "type": "function"
    },
    {
      "inputs": [
        {
          "internalType": "string",
          "name": "__name",
          "type": "string"
        },
        {
          "internalType": "string",
          "name": "__symbol",
          "type": "string"
        }
      ],
      "name": "initialize",
      "outputs": [],
      "stateMutability": "nonpayable",
      "type": "function"
    },
    {
      "inputs": [
        {
          "internalType": "address",
          "name": "user",
          "type": "address"
        }
      ],
      "name": "isAdmin",
      "outputs": [
        {
          "internalType": "bool",
          "name": "",
          "type": "bool"
        }
      ],
      "stateMutability": "view",
      "type": "function"
    },
    {
      "inputs": [
        {
          "internalType": "address",
          "name": "_owner",
          "type": "address"
        },
        {
          "internalType": "address",
          "name": "_operator",
          "type": "address"
        }
      ],
      "name": "isApprovedForAll",
      "outputs": [
        {
          "internalType": "bool",
          "name": "isOperator",
          "type": "bool"
        }
      ],
      "stateMutability": "view",
      "type": "function"
    },
    {
      "inputs": [
        {
          "internalType": "uint256",
          "name": "tokenId",
          "type": "uint256"
        }
      ],
      "name": "isFrozen",
      "outputs": [
        {
          "internalType": "bool",
          "name": "",
          "type": "bool"
        }
      ],
      "stateMutability": "view",
      "type": "function"
    },
    {
      "inputs": [
        {
          "internalType": "uint256",
          "name": "",
          "type": "uint256"
        }
      ],
      "name": "isRenewable",
      "outputs": [
        {
          "internalType": "bool",
          "name": "",
          "type": "bool"
        }
      ],
      "stateMutability": "pure",
      "type": "function"
    },
    {
      "inputs": [
        {
          "internalType": "address",
          "name": "forwarder",
          "type": "address"
        }
      ],
      "name": "isTrustedForwarder",
      "outputs": [
        {
          "internalType": "bool",
          "name": "",
          "type": "bool"
        }
      ],
      "stateMutability": "view",
      "type": "function"
    },
    {
      "inputs": [],
      "name": "lastId",
      "outputs": [
        {
          "internalType": "uint256",
          "name": "",
          "type": "uint256"
        }
      ],
      "stateMutability": "view",
      "type": "function"
    },
    {
      "inputs": [
        {
          "internalType": "uint256",
          "name": "collectionId",
          "type": "uint256"
        },
        {
          "internalType": "address[]",
          "name": "to",
          "type": "address[]"
        },
        {
          "internalType": "bool",
          "name": "frozen",
          "type": "bool"
        },
        {
          "internalType": "uint64",
          "name": "validDuration",
          "type": "uint64"
        }
      ],
      "name": "mintCollectionToManyUsers",
      "outputs": [
        {
          "internalType": "bool",
          "name": "",
          "type": "bool"
        }
      ],
      "stateMutability": "nonpayable",
      "type": "function"
    },
    {
      "inputs": [
        {
          "internalType": "uint256",
          "name": "collectionId",
          "type": "uint256"
        },
        {
          "internalType": "address",
          "name": "to",
          "type": "address"
        },
        {
          "internalType": "bool",
          "name": "frozen",
          "type": "bool"
        },
        {
          "internalType": "uint64",
          "name": "validDuration",
          "type": "uint64"
        }
      ],
      "name": "mintToken",
      "outputs": [
        {
          "internalType": "bool",
          "name": "",
          "type": "bool"
        }
      ],
      "stateMutability": "nonpayable",
      "type": "function"
    },
    {
      "inputs": [
        {
          "internalType": "uint256[]",
          "name": "collectionIds",
          "type": "uint256[]"
        },
        {
          "internalType": "address",
          "name": "to",
          "type": "address"
        },
        {
          "internalType": "bool",
          "name": "frozen",
          "type": "bool"
        },
        {
          "internalType": "uint64",
          "name": "validDuration",
          "type": "uint64"
        }
      ],
      "name": "mintUserToManyCollections",
      "outputs": [
        {
          "internalType": "bool",
          "name": "",
          "type": "bool"
        }
      ],
      "stateMutability": "nonpayable",
      "type": "function"
    },
    {
      "inputs": [],
      "name": "name",
      "outputs": [
        {
          "internalType": "string",
          "name": "",
          "type": "string"
        }
      ],
      "stateMutability": "view",
      "type": "function"
    },
    {
      "inputs": [],
      "name": "owner",
      "outputs": [
        {
          "internalType": "address",
          "name": "",
          "type": "address"
        }
      ],
      "stateMutability": "view",
      "type": "function"
    },
    {
      "inputs": [
        {
          "internalType": "uint256",
          "name": "tokenId",
          "type": "uint256"
        }
      ],
      "name": "ownerOf",
      "outputs": [
        {
          "internalType": "address",
          "name": "",
          "type": "address"
        }
      ],
      "stateMutability": "view",
      "type": "function"
    },
    {
      "inputs": [],
      "name": "pause",
      "outputs": [],
      "stateMutability": "nonpayable",
      "type": "function"
    },
    {
      "inputs": [],
      "name": "paused",
      "outputs": [
        {
          "internalType": "bool",
          "name": "",
          "type": "bool"
        }
      ],
      "stateMutability": "view",
      "type": "function"
    },
    {
      "inputs": [],
      "name": "proxiableUUID",
      "outputs": [
        {
          "internalType": "bytes32",
          "name": "",
          "type": "bytes32"
        }
      ],
      "stateMutability": "view",
      "type": "function"
    },
    {
      "inputs": [
        {
          "internalType": "uint256",
          "name": "tokenId",
          "type": "uint256"
        }
      ],
      "name": "reclaimToken",
      "outputs": [],
      "stateMutability": "nonpayable",
      "type": "function"
    },
    {
      "inputs": [
        {
          "internalType": "address",
          "name": "admin",
          "type": "address"
        }
      ],
      "name": "removeAdmin",
      "outputs": [],
      "stateMutability": "nonpayable",
      "type": "function"
    },
    {
      "inputs": [
        {
          "internalType": "uint256",
          "name": "collectionId",
          "type": "uint256"
        }
      ],
      "name": "removeCollectionRoyalty",
      "outputs": [],
      "stateMutability": "nonpayable",
      "type": "function"
    },
    {
      "inputs": [],
      "name": "removeDefaultRoyalty",
      "outputs": [],
      "stateMutability": "nonpayable",
      "type": "function"
    },
    {
      "inputs": [
        {
          "internalType": "uint256",
          "name": "tokenId",
          "type": "uint256"
        },
        {
          "internalType": "uint64",
          "name": "duration",
          "type": "uint64"
        }
      ],
      "name": "renewSubscription",
      "outputs": [],
      "stateMutability": "nonpayable",
      "type": "function"
    },
    {
      "inputs": [],
      "name": "renounceOwnership",
      "outputs": [],
      "stateMutability": "nonpayable",
      "type": "function"
    },
    {
      "inputs": [
        {
          "internalType": "uint256",
          "name": "_tokenId",
          "type": "uint256"
        },
        {
          "internalType": "uint256",
          "name": "_salePrice",
          "type": "uint256"
        }
      ],
      "name": "royaltyInfo",
      "outputs": [
        {
          "internalType": "address",
          "name": "",
          "type": "address"
        },
        {
          "internalType": "uint256",
          "name": "",
          "type": "uint256"
        }
      ],
      "stateMutability": "view",
      "type": "function"
    },
    {
      "inputs": [
        {
          "internalType": "address",
          "name": "from",
          "type": "address"
        },
        {
          "internalType": "address",
          "name": "to",
          "type": "address"
        },
        {
          "internalType": "uint256",
          "name": "tokenId",
          "type": "uint256"
        }
      ],
      "name": "safeTransferFrom",
      "outputs": [],
      "stateMutability": "nonpayable",
      "type": "function"
    },
    {
      "inputs": [
        {
          "internalType": "address",
          "name": "from",
          "type": "address"
        },
        {
          "internalType": "address",
          "name": "to",
          "type": "address"
        },
        {
          "internalType": "uint256",
          "name": "tokenId",
          "type": "uint256"
        },
        {
          "internalType": "bytes",
          "name": "data",
          "type": "bytes"
        }
      ],
      "name": "safeTransferFrom",
      "outputs": [],
      "stateMutability": "nonpayable",
      "type": "function"
    },
    {
      "inputs": [
        {
          "internalType": "address",
          "name": "operator",
          "type": "address"
        },
        {
          "internalType": "bool",
          "name": "approved",
          "type": "bool"
        }
      ],
      "name": "setApprovalForAll",
      "outputs": [],
      "stateMutability": "nonpayable",
      "type": "function"
    },
    {
      "inputs": [
        {
          "internalType": "uint256",
          "name": "tokenId",
          "type": "uint256"
        },
        {
          "internalType": "uint64",
          "name": "newExpiration",
          "type": "uint64"
        }
      ],
      "name": "setExpiration",
      "outputs": [],
      "stateMutability": "nonpayable",
      "type": "function"
    },
    {
      "inputs": [
        {
          "internalType": "uint256",
          "name": "newLastId",
          "type": "uint256"
        }
      ],
      "name": "setLastId",
      "outputs": [],
      "stateMutability": "nonpayable",
      "type": "function"
    },
    {
      "inputs": [
        {
          "internalType": "address",
          "name": "forwarder",
          "type": "address"
        }
      ],
      "name": "setTurstedForwarder",
      "outputs": [],
      "stateMutability": "nonpayable",
      "type": "function"
    },
    {
      "inputs": [
        {
          "internalType": "bytes4",
          "name": "interfaceId",
          "type": "bytes4"
        }
      ],
      "name": "supportsInterface",
      "outputs": [
        {
          "internalType": "bool",
          "name": "",
          "type": "bool"
        }
      ],
      "stateMutability": "view",
      "type": "function"
    },
    {
      "inputs": [],
      "name": "symbol",
      "outputs": [
        {
          "internalType": "string",
          "name": "",
          "type": "string"
        }
      ],
      "stateMutability": "view",
      "type": "function"
    },
    {
      "inputs": [
        {
          "internalType": "uint256",
          "name": "index",
          "type": "uint256"
        }
      ],
      "name": "tokenByIndex",
      "outputs": [
        {
          "internalType": "uint256",
          "name": "",
          "type": "uint256"
        }
      ],
      "stateMutability": "view",
      "type": "function"
    },
    {
      "inputs": [
        {
          "internalType": "uint256",
          "name": "tokenId",
          "type": "uint256"
        }
      ],
      "name": "tokenCollection",
      "outputs": [
        {
          "internalType": "uint256",
          "name": "",
          "type": "uint256"
        }
      ],
      "stateMutability": "view",
      "type": "function"
    },
    {
      "inputs": [
        {
          "internalType": "address",
          "name": "owner",
          "type": "address"
        },
        {
          "internalType": "uint256",
          "name": "index",
          "type": "uint256"
        }
      ],
      "name": "tokenDetailsOfOwnerByIndex",
      "outputs": [
        {
          "internalType": "uint256",
          "name": "tokenId",
          "type": "uint256"
        },
        {
          "internalType": "uint256",
          "name": "collectionId",
          "type": "uint256"
        }
      ],
      "stateMutability": "view",
      "type": "function"
    },
    {
      "inputs": [
        {
          "internalType": "address",
          "name": "owner",
          "type": "address"
        },
        {
          "internalType": "uint256",
          "name": "index",
          "type": "uint256"
        }
      ],
      "name": "tokenOfOwnerByIndex",
      "outputs": [
        {
          "internalType": "uint256",
          "name": "",
          "type": "uint256"
        }
      ],
      "stateMutability": "view",
      "type": "function"
    },
    {
      "inputs": [
        {
          "internalType": "uint256",
          "name": "tokenId",
          "type": "uint256"
        }
      ],
      "name": "tokenURI",
      "outputs": [
        {
          "internalType": "string",
          "name": "",
          "type": "string"
        }
      ],
      "stateMutability": "view",
      "type": "function"
    },
    {
      "inputs": [],
      "name": "totalSupply",
      "outputs": [
        {
          "internalType": "uint256",
          "name": "",
          "type": "uint256"
        }
      ],
      "stateMutability": "view",
      "type": "function"
    },
    {
      "inputs": [
        {
          "internalType": "address",
          "name": "from",
          "type": "address"
        },
        {
          "internalType": "address",
          "name": "to",
          "type": "address"
        },
        {
          "internalType": "uint256",
          "name": "tokenId",
          "type": "uint256"
        }
      ],
      "name": "transferFrom",
      "outputs": [],
      "stateMutability": "nonpayable",
      "type": "function"
    },
    {
      "inputs": [
        {
          "internalType": "address",
          "name": "newOwner",
          "type": "address"
        }
      ],
      "name": "transferOwnership",
      "outputs": [],
      "stateMutability": "nonpayable",
      "type": "function"
    },
    {
      "inputs": [
        {
          "internalType": "uint256",
          "name": "tokenId",
          "type": "uint256"
        }
      ],
      "name": "unfreeze",
      "outputs": [],
      "stateMutability": "nonpayable",
      "type": "function"
    },
    {
      "inputs": [],
      "name": "unpause",
      "outputs": [],
      "stateMutability": "nonpayable",
      "type": "function"
    },
    {
      "inputs": [
        {
          "internalType": "uint256",
          "name": "collectionId",
          "type": "uint256"
        },
        {
          "internalType": "address",
          "name": "receiver",
          "type": "address"
        },
        {
          "internalType": "uint96",
          "name": "feeNumerator",
          "type": "uint96"
        }
      ],
      "name": "updateCollectionRoyalty",
      "outputs": [],
      "stateMutability": "nonpayable",
      "type": "function"
    },
    {
      "inputs": [
        {
          "internalType": "string",
          "name": "__contractURI",
          "type": "string"
        }
      ],
      "name": "updateContractURI",
      "outputs": [],
      "stateMutability": "nonpayable",
      "type": "function"
    },
    {
      "inputs": [
        {
          "internalType": "address",
          "name": "receiver",
          "type": "address"
        },
        {
          "internalType": "uint96",
          "name": "feeNumerator",
          "type": "uint96"
        }
      ],
      "name": "updateDefaultRoyalty",
      "outputs": [],
      "stateMutability": "nonpayable",
      "type": "function"
    },
    {
      "inputs": [
        {
          "internalType": "address",
          "name": "newImplementation",
          "type": "address"
        }
      ],
      "name": "upgradeTo",
      "outputs": [],
      "stateMutability": "nonpayable",
      "type": "function"
    },
    {
      "inputs": [
        {
          "internalType": "address",
          "name": "newImplementation",
          "type": "address"
        },
        {
          "internalType": "bytes",
          "name": "data",
          "type": "bytes"
        }
      ],
      "name": "upgradeToAndCall",
      "outputs": [],
      "stateMutability": "payable",
      "type": "function"
    }
  ],
  "bytecode": "0x60a0604052306080523480156200001557600080fd5b506200002062000026565b620000e8565b600054610100900460ff1615620000935760405162461bcd60e51b815260206004820152602760248201527f496e697469616c697a61626c653a20636f6e747261637420697320696e697469604482015266616c697a696e6760c81b606482015260840160405180910390fd5b60005460ff9081161015620000e6576000805460ff191660ff9081179091556040519081527f7f26b83ff96e1f2b6a682f133852f6798a09c465da95921460cefb38474024989060200160405180910390a15b565b6080516160ae620001206000396000818161149a0152818161153001528181611bb301528181611c490152611f2401526160ae6000f3fe6080604052600436106103815760003560e01c806367e971ce116101d1578063a22cb46511610102578063d1c332de116100a0578063e8a3d4851161006f578063e8a3d48514610aeb578063e985e9c514610b00578063f2fde38b14610b20578063fb1fcca114610b4057600080fd5b8063d1c332de14610a6b578063d691e43c14610a8b578063d7a78db814610aab578063d953e4d414610acb57600080fd5b8063c87b56dd116100dc578063c87b56dd146109de578063cde317af146109fe578063ce1b815f14610a1f578063cea0302e14610a4b57600080fd5b8063a22cb46514610987578063b88d4fde146109a7578063c1292cc3146109c757600080fd5b80638456cb591161016f57806395d89b411161014957806395d89b411461090c57806397ec4fba146109215780639a80c5e314610936578063a08947991461095657600080fd5b80638456cb59146108ab5780638da5cb5b146108c05780638e45d62e146108ec57600080fd5b806370a08231116101ab57806370a0823114610836578063715018a614610856578063776ce8681461086b5780637e5b1e241461088b57600080fd5b806367e971ce146107c15780636a662a3c146107f6578063704802751461081657600080fd5b80632f745c59116102b65780634f1ef28611610254578063572b6c0511610223578063572b6c051461072c5780635c975abb146107695780636352211e146107815780636623fc46146107a157600080fd5b80634f1ef286146106c45780634f6ccce7146106d7578063508061a2146106f757806352d1902d1461071757600080fd5b806342842e0e1161029057806342842e0e1461064457806342966c6814610664578063493a7576146106845780634cd88b76146106a457600080fd5b80632f745c59146105ef5780633659cfe61461060f5780633f4ba83a1461062f57600080fd5b806318160ddd1161032357806323b872dd116102fd57806323b872dd1461051c57806324d7806c1461053c5780632a55205a146105835780632dd883e8146105cf57600080fd5b806318160ddd146104bd5780631a27e85f146104dc57806321235083146104fc57600080fd5b8063095ea7b31161035f578063095ea7b3146104225780631771c96c146104445780631785f53c1461046457806317c957091461048457600080fd5b806301ffc9a71461038657806306fdde03146103bb578063081812fc146103dd575b600080fd5b34801561039257600080fd5b506103a66103a136600461555f565b610b60565b60405190151581526020015b60405180910390f35b3480156103c757600080fd5b506103d0610c08565b6040516103b291906155f2565b3480156103e957600080fd5b506103fd6103f8366004615605565b610c9a565b60405173ffffffffffffffffffffffffffffffffffffffff90911681526020016103b2565b34801561042e57600080fd5b5061044261043d366004615647565b610cce565b005b34801561045057600080fd5b506103d061045f366004615605565b610e4b565b34801561047057600080fd5b5061044261047f366004615671565b610e80565b34801561049057600080fd5b506104a461049f366004615605565b610fbc565b60405167ffffffffffffffff90911681526020016103b2565b3480156104c957600080fd5b506099545b6040519081526020016103b2565b3480156104e857600080fd5b506104426104f7366004615605565b610fe5565b34801561050857600080fd5b50610442610517366004615605565b6110f7565b34801561052857600080fd5b5061044261053736600461568c565b611215565b34801561054857600080fd5b506103a6610557366004615671565b73ffffffffffffffffffffffffffffffffffffffff1660009081526101cb602052604090205460ff1690565b34801561058f57600080fd5b506105a361059e3660046156c8565b6112a3565b6040805173ffffffffffffffffffffffffffffffffffffffff90931683526020830191909152016103b2565b3480156105db57600080fd5b506104ce6105ea366004615605565b6113ae565b3480156105fb57600080fd5b506104ce61060a366004615647565b6113cd565b34801561061b57600080fd5b5061044261062a366004615671565b611482565b34801561063b57600080fd5b50610442611654565b34801561065057600080fd5b5061044261065f36600461568c565b611710565b34801561067057600080fd5b5061044261067f366004615605565b61172b565b34801561069057600080fd5b5061044261069f366004615605565b6117b1565b3480156106b057600080fd5b506104426106bf3660046157f6565b61194f565b6104426106d236600461585a565b611b9b565b3480156106e357600080fd5b506104ce6106f2366004615605565b611d5e565b34801561070357600080fd5b50610442610712366004615605565b611e02565b34801561072357600080fd5b506104ce611f0a565b34801561073857600080fd5b506103a6610747366004615671565b6101c35473ffffffffffffffffffffffffffffffffffffffff91821691161490565b34801561077557600080fd5b5060fb5460ff166103a6565b34801561078d57600080fd5b506103fd61079c366004615605565b611fdc565b3480156107ad57600080fd5b506104426107bc366004615605565b61204e565b3480156107cd57600080fd5b506107e16107dc366004615647565b6121d6565b604080519283526020830191909152016103b2565b34801561080257600080fd5b506104426108113660046158ba565b6121f7565b34801561082257600080fd5b50610442610831366004615671565b6122b4565b34801561084257600080fd5b506104ce610851366004615671565b6123cb565b34801561086257600080fd5b5061044261247f565b34801561087757600080fd5b5061044261088636600461590e565b612491565b34801561089757600080fd5b506104426108a6366004615931565b612556565b3480156108b757600080fd5b5061044261261c565b3480156108cc57600080fd5b5061012d5473ffffffffffffffffffffffffffffffffffffffff166103fd565b3480156108f857600080fd5b506103a661090736600461597f565b6126d6565b34801561091857600080fd5b506103d06127c8565b34801561092d57600080fd5b506104426127d7565b34801561094257600080fd5b506103a66109513660046159f2565b612894565b34801561096257600080fd5b506103a6610971366004615605565b60009081526101c7602052604090205460ff1690565b34801561099357600080fd5b506104426109a2366004615aa3565b612a00565b3480156109b357600080fd5b506104426109c2366004615ada565b612a12565b3480156109d357600080fd5b506104ce6101c55481565b3480156109ea57600080fd5b506103d06109f9366004615605565b612aa7565b348015610a0a57600080fd5b506103a6610a19366004615605565b50600190565b348015610a2b57600080fd5b506101c35473ffffffffffffffffffffffffffffffffffffffff166103fd565b348015610a5757600080fd5b50610442610a66366004615671565b612af8565b348015610a7757600080fd5b50610442610a8636600461590e565b612bee565b348015610a9757600080fd5b50610442610aa6366004615b42565b612ca9565b348015610ab757600080fd5b50610442610ac6366004615605565b612d65565b348015610ad757600080fd5b50610442610ae6366004615605565b612ef0565b348015610af757600080fd5b506103d0612fb4565b348015610b0c57600080fd5b506103a6610b1b366004615b6c565b613043565b348015610b2c57600080fd5b50610442610b3b366004615671565b6130e9565b348015610b4c57600080fd5b506103a6610b5b366004615b96565b613183565b60007fffffffff0000000000000000000000000000000000000000000000000000000082167f8c65f84d000000000000000000000000000000000000000000000000000000001480610bf357507fffffffff0000000000000000000000000000000000000000000000000000000082167f2a55205a00000000000000000000000000000000000000000000000000000000145b80610c025750610c02826132de565b92915050565b606060658054610c1790615c41565b80601f0160208091040260200160405190810160405280929190818152602001828054610c4390615c41565b8015610c905780601f10610c6557610100808354040283529160200191610c90565b820191906000526020600020905b815481529060010190602001808311610c7357829003601f168201915b5050505050905090565b6000610ca582613334565b5060009081526069602052604090205473ffffffffffffffffffffffffffffffffffffffff1690565b6000610cd982611fdc565b90508073ffffffffffffffffffffffffffffffffffffffff168373ffffffffffffffffffffffffffffffffffffffff161415610d825760405162461bcd60e51b815260206004820152602160248201527f4552433732313a20617070726f76616c20746f2063757272656e74206f776e6560448201527f720000000000000000000000000000000000000000000000000000000000000060648201526084015b60405180910390fd5b8073ffffffffffffffffffffffffffffffffffffffff16610da16133a5565b73ffffffffffffffffffffffffffffffffffffffff161480610dca5750610dca81610b1b6133a5565b610e3c5760405162461bcd60e51b815260206004820152603e60248201527f4552433732313a20617070726f76652063616c6c6572206973206e6f7420746f60448201527f6b656e206f776e6572206e6f7220617070726f76656420666f7220616c6c00006064820152608401610d79565b610e4683836133b4565b505050565b60606101c4610e5983613454565b604051602001610e6a929190615d66565b6040516020818303038152906040529050919050565b610e886133a5565b73ffffffffffffffffffffffffffffffffffffffff16610ebe61012d5473ffffffffffffffffffffffffffffffffffffffff1690565b73ffffffffffffffffffffffffffffffffffffffff161480610ee65750610ee66105576133a5565b610f325760405162461bcd60e51b815260206004820152601c60248201527f63616c6c6572206973206e6f74206f776e6572206f722061646d696e000000006044820152606401610d79565b73ffffffffffffffffffffffffffffffffffffffff811660008181526101cb6020908152604080832080547fffffffffffffffffffffffffffffffffffffffffffffffffffffffffffffff001690558051938452908301919091527f235bc17e7930760029e9f4d860a2a8089976de5b381cf8380fc11c1d88a1113391015b60405180910390a150565b6000610fc782613334565b5060009081526101ca602052604090205467ffffffffffffffff1690565b610fed6133a5565b73ffffffffffffffffffffffffffffffffffffffff1661102361012d5473ffffffffffffffffffffffffffffffffffffffff1690565b73ffffffffffffffffffffffffffffffffffffffff16148061104b575061104b6105576133a5565b6110975760405162461bcd60e51b815260206004820152601c60248201527f63616c6c6572206973206e6f74206f776e6572206f722061646d696e000000006044820152606401610d79565b61109f613586565b806101c554106110f15760405162461bcd60e51b815260206004820152601760248201527f4e65772049642068617320746f206265206869676865720000000000000000006044820152606401610d79565b6101c555565b6110ff6133a5565b73ffffffffffffffffffffffffffffffffffffffff1661113561012d5473ffffffffffffffffffffffffffffffffffffffff1690565b73ffffffffffffffffffffffffffffffffffffffff16148061115d575061115d6105576133a5565b6111a95760405162461bcd60e51b815260206004820152601c60248201527f63616c6c6572206973206e6f74206f776e6572206f722061646d696e000000006044820152606401610d79565b60008181526101ca6020908152604080832080547fffffffffffffffffffffffffffffffffffffffffffffffff00000000000000001690555191825282917f2ec2be2c4b90c2cf13ecb6751a24daed6bb741ae5ed3f7371aabf9402f6d62e8910160405180910390a250565b6112266112206133a5565b826135d9565b6112985760405162461bcd60e51b815260206004820152602e60248201527f4552433732313a2063616c6c6572206973206e6f7420746f6b656e206f776e6560448201527f72206e6f7220617070726f7665640000000000000000000000000000000000006064820152608401610d79565b610e4683838361366b565b60008060006112b1856113ae565b60008181526101c9602090815260409182902082518084019093525473ffffffffffffffffffffffffffffffffffffffff8116808452740100000000000000000000000000000000000000009091046bffffffffffffffffffffffff1691830191909152919250906113715750604080518082019091526101c85473ffffffffffffffffffffffffffffffffffffffff811682527401000000000000000000000000000000000000000090046bffffffffffffffffffffffff1660208201525b602081015160009061271090611395906bffffffffffffffffffffffff1688615dba565b61139f9190615e26565b91519791965090945050505050565b60006113b982613334565b5060009081526101c6602052604090205490565b60006113d8836123cb565b821061144c5760405162461bcd60e51b815260206004820152602b60248201527f455243373231456e756d657261626c653a206f776e657220696e646578206f7560448201527f74206f6620626f756e64730000000000000000000000000000000000000000006064820152608401610d79565b5073ffffffffffffffffffffffffffffffffffffffff919091166000908152609760209081526040808320938352929052205490565b3073ffffffffffffffffffffffffffffffffffffffff7f000000000000000000000000000000000000000000000000000000000000000016141561152e5760405162461bcd60e51b815260206004820152602c60248201527f46756e6374696f6e206d7573742062652063616c6c6564207468726f7567682060448201527f64656c656761746563616c6c00000000000000000000000000000000000000006064820152608401610d79565b7f000000000000000000000000000000000000000000000000000000000000000073ffffffffffffffffffffffffffffffffffffffff166115a37f360894a13ba1a3210667c828492db98dca3e2076cc3735a920a3ca505d382bbc5473ffffffffffffffffffffffffffffffffffffffff1690565b73ffffffffffffffffffffffffffffffffffffffff161461162c5760405162461bcd60e51b815260206004820152602c60248201527f46756e6374696f6e206d7573742062652063616c6c6564207468726f7567682060448201527f6163746976652070726f787900000000000000000000000000000000000000006064820152608401610d79565b611635816138a9565b604080516000808252602082019092526116519183919061395b565b50565b61165c6133a5565b73ffffffffffffffffffffffffffffffffffffffff1661169261012d5473ffffffffffffffffffffffffffffffffffffffff1690565b73ffffffffffffffffffffffffffffffffffffffff1614806116ba57506116ba6105576133a5565b6117065760405162461bcd60e51b815260206004820152601c60248201527f63616c6c6572206973206e6f74206f776e6572206f722061646d696e000000006044820152606401610d79565b61170e613b26565b565b610e4683838360405180602001604052806000815250612a12565b6117366112206133a5565b6117a85760405162461bcd60e51b815260206004820152602e60248201527f4552433732313a2063616c6c6572206973206e6f7420746f6b656e206f776e6560448201527f72206e6f7220617070726f7665640000000000000000000000000000000000006064820152608401610d79565b61165181613ba9565b6117b96133a5565b73ffffffffffffffffffffffffffffffffffffffff166117ef61012d5473ffffffffffffffffffffffffffffffffffffffff1690565b73ffffffffffffffffffffffffffffffffffffffff16148061181757506118176105576133a5565b6118635760405162461bcd60e51b815260206004820152601c60248201527f63616c6c6572206973206e6f74206f776e6572206f722061646d696e000000006044820152606401610d79565b60008181526101ca6020526040902054429067ffffffffffffffff808316911610156118d15760405162461bcd60e51b815260206004820152601f60248201527f546f6b656e2063616e6e6f7420616c72656164792062652065787069726564006044820152606401610d79565b60008281526101ca602090815260409182902080547fffffffffffffffffffffffffffffffffffffffffffffffff00000000000000001667ffffffffffffffff8516908117909155915191825283917f2ec2be2c4b90c2cf13ecb6751a24daed6bb741ae5ed3f7371aabf9402f6d62e8910160405180910390a25050565b600054610100900460ff161580801561196f5750600054600160ff909116105b806119895750303b158015611989575060005460ff166001145b6119fb5760405162461bcd60e51b815260206004820152602e60248201527f496e697469616c697a61626c653a20636f6e747261637420697320616c72656160448201527f647920696e697469616c697a65640000000000000000000000000000000000006064820152608401610d79565b600080547fffffffffffffffffffffffffffffffffffffffffffffffffffffffffffffff001660011790558015611a5957600080547fffffffffffffffffffffffffffffffffffffffffffffffffffffffffffff00ff166101001790555b611a638383613c25565b611a6b613cac565b611a73613d29565b611a7b613dae565b611a83613cac565b611a8b613cac565b739367ee417ae552cb94f3249d0424000747877aa860008190526101cb60209081527f74b1fd68002674778377a91442d1bc428836f03e7f6339c753d29446074fc12880547fffffffffffffffffffffffffffffffffffffffffffffffffffffffffffffff0016600190811790915560408051848152928301919091527f235bc17e7930760029e9f4d860a2a8089976de5b381cf8380fc11c1d88a11133910160405180910390a1508015610e4657600080547fffffffffffffffffffffffffffffffffffffffffffffffffffffffffffff00ff169055604051600181527f7f26b83ff96e1f2b6a682f133852f6798a09c465da95921460cefb38474024989060200160405180910390a1505050565b3073ffffffffffffffffffffffffffffffffffffffff7f0000000000000000000000000000000000000000000000000000000000000000161415611c475760405162461bcd60e51b815260206004820152602c60248201527f46756e6374696f6e206d7573742062652063616c6c6564207468726f7567682060448201527f64656c656761746563616c6c00000000000000000000000000000000000000006064820152608401610d79565b7f000000000000000000000000000000000000000000000000000000000000000073ffffffffffffffffffffffffffffffffffffffff16611cbc7f360894a13ba1a3210667c828492db98dca3e2076cc3735a920a3ca505d382bbc5473ffffffffffffffffffffffffffffffffffffffff1690565b73ffffffffffffffffffffffffffffffffffffffff1614611d455760405162461bcd60e51b815260206004820152602c60248201527f46756e6374696f6e206d7573742062652063616c6c6564207468726f7567682060448201527f6163746976652070726f787900000000000000000000000000000000000000006064820152608401610d79565b611d4e826138a9565b611d5a8282600161395b565b5050565b6000611d6960995490565b8210611ddd5760405162461bcd60e51b815260206004820152602c60248201527f455243373231456e756d657261626c653a20676c6f62616c20696e646578206f60448201527f7574206f6620626f756e647300000000000000000000000000000000000000006064820152608401610d79565b60998281548110611df057611df0615e3a565b90600052602060002001549050919050565b611e0a6133a5565b73ffffffffffffffffffffffffffffffffffffffff16611e4061012d5473ffffffffffffffffffffffffffffffffffffffff1690565b73ffffffffffffffffffffffffffffffffffffffff161480611e685750611e686105576133a5565b611eb45760405162461bcd60e51b815260206004820152601c60248201527f63616c6c6572206973206e6f74206f776e6572206f722061646d696e000000006044820152606401610d79565b611ebd81613334565b60008181526101c7602052604090205460ff1615611ede57611ede81613e33565b611651611eea82611fdc565b61012d5473ffffffffffffffffffffffffffffffffffffffff168361366b565b60003073ffffffffffffffffffffffffffffffffffffffff7f00000000000000000000000000000000000000000000000000000000000000001614611fb75760405162461bcd60e51b815260206004820152603860248201527f555550535570677261646561626c653a206d757374206e6f742062652063616c60448201527f6c6564207468726f7567682064656c656761746563616c6c00000000000000006064820152608401610d79565b507f360894a13ba1a3210667c828492db98dca3e2076cc3735a920a3ca505d382bbc90565b60008181526067602052604081205473ffffffffffffffffffffffffffffffffffffffff1680610c025760405162461bcd60e51b815260206004820152601860248201527f4552433732313a20696e76616c696420746f6b656e20494400000000000000006044820152606401610d79565b6120566133a5565b73ffffffffffffffffffffffffffffffffffffffff1661208c61012d5473ffffffffffffffffffffffffffffffffffffffff1690565b73ffffffffffffffffffffffffffffffffffffffff1614806120b457506120b46105576133a5565b6121005760405162461bcd60e51b815260206004820152601c60248201527f63616c6c6572206973206e6f74206f776e6572206f722061646d696e000000006044820152606401610d79565b612108613586565b6040517fa089479900000000000000000000000000000000000000000000000000000000815260048101829052309063a089479990602401602060405180830381865afa15801561215d573d6000803e3d6000fd5b505050506040513d601f19601f820116820180604052508101906121819190615e69565b6121cd5760405162461bcd60e51b815260206004820152601360248201527f546f6b656e206973206e6f742066726f7a656e000000000000000000000000006044820152606401610d79565b61165181613e33565b6000806121e384846113cd565b91506121ee826113ae565b90509250929050565b6121ff6133a5565b73ffffffffffffffffffffffffffffffffffffffff1661223561012d5473ffffffffffffffffffffffffffffffffffffffff1690565b73ffffffffffffffffffffffffffffffffffffffff16148061225d575061225d6105576133a5565b6122a95760405162461bcd60e51b815260206004820152601c60248201527f63616c6c6572206973206e6f74206f776e6572206f722061646d696e000000006044820152606401610d79565b610e46838383613e9a565b6122bc613ff1565b73ffffffffffffffffffffffffffffffffffffffff81166123445760405162461bcd60e51b8152602060048201526024808201527f4e65772061646d696e2063616e6e6f7420626520746865207a65726f2061646460448201527f72657373000000000000000000000000000000000000000000000000000000006064820152608401610d79565b73ffffffffffffffffffffffffffffffffffffffff811660008181526101cb602090815260409182902080547fffffffffffffffffffffffffffffffffffffffffffffffffffffffffffffff001660019081179091558251938452908301527f235bc17e7930760029e9f4d860a2a8089976de5b381cf8380fc11c1d88a111339101610fb1565b600073ffffffffffffffffffffffffffffffffffffffff82166124565760405162461bcd60e51b815260206004820152602960248201527f4552433732313a2061646472657373207a65726f206973206e6f74206120766160448201527f6c6964206f776e657200000000000000000000000000000000000000000000006064820152608401610d79565b5073ffffffffffffffffffffffffffffffffffffffff1660009081526068602052604090205490565b612487613ff1565b61170e6000614092565b6124996133a5565b73ffffffffffffffffffffffffffffffffffffffff166124cf61012d5473ffffffffffffffffffffffffffffffffffffffff1690565b73ffffffffffffffffffffffffffffffffffffffff1614806124f757506124f76105576133a5565b6125435760405162461bcd60e51b815260206004820152601c60248201527f63616c6c6572206973206e6f74206f776e6572206f722061646d696e000000006044820152606401610d79565b61254c82613334565b611d5a828261410a565b61255e6133a5565b73ffffffffffffffffffffffffffffffffffffffff1661259461012d5473ffffffffffffffffffffffffffffffffffffffff1690565b73ffffffffffffffffffffffffffffffffffffffff1614806125bc57506125bc6105576133a5565b6126085760405162461bcd60e51b815260206004820152601c60248201527f63616c6c6572206973206e6f74206f776e6572206f722061646d696e000000006044820152606401610d79565b8051611d5a906101c4906020840190615498565b6126246133a5565b73ffffffffffffffffffffffffffffffffffffffff1661265a61012d5473ffffffffffffffffffffffffffffffffffffffff1690565b73ffffffffffffffffffffffffffffffffffffffff16148061268257506126826105576133a5565b6126ce5760405162461bcd60e51b815260206004820152601c60248201527f63616c6c6572206973206e6f74206f776e6572206f722061646d696e000000006044820152606401610d79565b61170e6141c8565b60006126e0613586565b6126e86133a5565b73ffffffffffffffffffffffffffffffffffffffff1661271e61012d5473ffffffffffffffffffffffffffffffffffffffff1690565b73ffffffffffffffffffffffffffffffffffffffff16148061274657506127466105576133a5565b6127925760405162461bcd60e51b815260206004820152601c60248201527f63616c6c6572206973206e6f74206f776e6572206f722061646d696e000000006044820152606401610d79565b60016101c560008282546127a69190615e86565b925050819055506127bd856101c554868686614224565b90505b949350505050565b606060668054610c1790615c41565b6127df6133a5565b73ffffffffffffffffffffffffffffffffffffffff1661281561012d5473ffffffffffffffffffffffffffffffffffffffff1690565b73ffffffffffffffffffffffffffffffffffffffff16148061283d575061283d6105576133a5565b6128895760405162461bcd60e51b815260206004820152601c60248201527f63616c6c6572206973206e6f74206f776e6572206f722061646d696e000000006044820152606401610d79565b61170e60006101c855565b600061289e613586565b6128a66133a5565b73ffffffffffffffffffffffffffffffffffffffff166128dc61012d5473ffffffffffffffffffffffffffffffffffffffff1690565b73ffffffffffffffffffffffffffffffffffffffff16148061290457506129046105576133a5565b6129505760405162461bcd60e51b815260206004820152601c60248201527f63616c6c6572206973206e6f74206f776e6572206f722061646d696e000000006044820152606401610d79565b600061295c8342615e9e565b905060005b85518110156129da576000816101c554600161297d9190615e86565b6129879190615e86565b90506129ae88828985815181106129a0576129a0615e3a565b602002602001015189614277565b5067ffffffffffffffff8516156129c9576129c98184612bee565b506129d381615ec1565b9050612961565b5084516101c560008282546129ef9190615e86565b909155506001979650505050505050565b611d5a612a0b6133a5565b83836142af565b612a23612a1d6133a5565b836135d9565b612a955760405162461bcd60e51b815260206004820152602e60248201527f4552433732313a2063616c6c6572206973206e6f7420746f6b656e206f776e6560448201527f72206e6f7220617070726f7665640000000000000000000000000000000000006064820152608401610d79565b612aa1848484846143c3565b50505050565b60008181526101c660205260409020546060906101c4612ac682613454565b612acf85613454565b604051602001612ae193929190615efa565b604051602081830303815290604052915050919050565b612b006133a5565b73ffffffffffffffffffffffffffffffffffffffff16612b3661012d5473ffffffffffffffffffffffffffffffffffffffff1690565b73ffffffffffffffffffffffffffffffffffffffff161480612b5e5750612b5e6105576133a5565b612baa5760405162461bcd60e51b815260206004820152601c60248201527f63616c6c6572206973206e6f74206f776e6572206f722061646d696e000000006044820152606401610d79565b6101c380547fffffffffffffffffffffffff00000000000000000000000000000000000000001673ffffffffffffffffffffffffffffffffffffffff831617905550565b612bf66133a5565b73ffffffffffffffffffffffffffffffffffffffff16612c2c61012d5473ffffffffffffffffffffffffffffffffffffffff1690565b73ffffffffffffffffffffffffffffffffffffffff161480612c545750612c546105576133a5565b612ca05760405162461bcd60e51b815260206004820152601c60248201527f63616c6c6572206973206e6f74206f776e6572206f722061646d696e000000006044820152606401610d79565b6118d182613334565b612cb16133a5565b73ffffffffffffffffffffffffffffffffffffffff16612ce761012d5473ffffffffffffffffffffffffffffffffffffffff1690565b73ffffffffffffffffffffffffffffffffffffffff161480612d0f5750612d0f6105576133a5565b612d5b5760405162461bcd60e51b815260206004820152601c60248201527f63616c6c6572206973206e6f74206f776e6572206f722061646d696e000000006044820152606401610d79565b611d5a828261444c565b612d6d6133a5565b73ffffffffffffffffffffffffffffffffffffffff16612da361012d5473ffffffffffffffffffffffffffffffffffffffff1690565b73ffffffffffffffffffffffffffffffffffffffff161480612dcb5750612dcb6105576133a5565b612e175760405162461bcd60e51b815260206004820152601c60248201527f63616c6c6572206973206e6f74206f776e6572206f722061646d696e000000006044820152606401610d79565b612e1f613586565b6040517fa0894799000000000000000000000000000000000000000000000000000000008152600481018290528190309063a089479990602401602060405180830381865afa158015612e76573d6000803e3d6000fd5b505050506040513d601f19601f82011682018060405250810190612e9a9190615e69565b15612ee75760405162461bcd60e51b815260206004820152600f60248201527f546f6b656e2069732066726f7a656e00000000000000000000000000000000006044820152606401610d79565b611d5a82614592565b612ef86133a5565b73ffffffffffffffffffffffffffffffffffffffff16612f2e61012d5473ffffffffffffffffffffffffffffffffffffffff1690565b73ffffffffffffffffffffffffffffffffffffffff161480612f565750612f566105576133a5565b612fa25760405162461bcd60e51b815260206004820152601c60248201527f63616c6c6572206973206e6f74206f776e6572206f722061646d696e000000006044820152606401610d79565b60009081526101c96020526040812055565b6101c48054612fc290615c41565b80601f0160208091040260200160405190810160405280929190818152602001828054612fee90615c41565b801561303b5780601f106130105761010080835404028352916020019161303b565b820191906000526020600020905b81548152906001019060200180831161301e57829003601f168201915b505050505081565b600073ffffffffffffffffffffffffffffffffffffffff82166e6c3852cbef3e08e8df289169ede581148061309e575073ffffffffffffffffffffffffffffffffffffffff821660009081526101cb602052604090205460ff165b156130ab57506001610c02565b73ffffffffffffffffffffffffffffffffffffffff8084166000908152606a602090815260408083209386168352929052205460ff165b9392505050565b6130f1613ff1565b73ffffffffffffffffffffffffffffffffffffffff811661317a5760405162461bcd60e51b815260206004820152602660248201527f4f776e61626c653a206e6577206f776e657220697320746865207a65726f206160448201527f64647265737300000000000000000000000000000000000000000000000000006064820152608401610d79565b61165181614092565b600061318d613586565b6131956133a5565b73ffffffffffffffffffffffffffffffffffffffff166131cb61012d5473ffffffffffffffffffffffffffffffffffffffff1690565b73ffffffffffffffffffffffffffffffffffffffff1614806131f357506131f36105576133a5565b61323f5760405162461bcd60e51b815260206004820152601c60248201527f63616c6c6572206973206e6f74206f776e6572206f722061646d696e000000006044820152606401610d79565b600061324b8342615e9e565b905060005b86518110156132c9576000816101c554600161326c9190615e86565b6132769190615e86565b905061329d88838151811061328d5761328d615e3a565b6020026020010151828989614277565b5067ffffffffffffffff8516156132b8576132b88184612bee565b506132c281615ec1565b9050613250565b5085516101c560008282546129ef9190615e86565b60007fffffffff0000000000000000000000000000000000000000000000000000000082167f780e9d63000000000000000000000000000000000000000000000000000000001480610c025750610c02826145fc565b60008181526067602052604090205473ffffffffffffffffffffffffffffffffffffffff166116515760405162461bcd60e51b815260206004820152601860248201527f4552433732313a20696e76616c696420746f6b656e20494400000000000000006044820152606401610d79565b60006133af6146df565b905090565b600081815260696020526040902080547fffffffffffffffffffffffff00000000000000000000000000000000000000001673ffffffffffffffffffffffffffffffffffffffff8416908117909155819061340e82611fdc565b73ffffffffffffffffffffffffffffffffffffffff167f8c5be1e5ebec7d5bd14f71427d1e84f3dd0314c0f7b2291e5b200ac8c7c3b92560405160405180910390a45050565b60608161349457505060408051808201909152600181527f3000000000000000000000000000000000000000000000000000000000000000602082015290565b8160005b81156134be57806134a881615ec1565b91506134b79050600a83615e26565b9150613498565b60008167ffffffffffffffff8111156134d9576134d96156ea565b6040519080825280601f01601f191660200182016040528015613503576020820181803683370190505b5090505b84156127c057613518600183615f5c565b9150613525600a86615f73565b613530906030615e86565b60f81b81838151811061354557613545615e3a565b60200101907effffffffffffffffffffffffffffffffffffffffffffffffffffffffffffff1916908160001a90535061357f600a86615e26565b9450613507565b60fb5460ff161561170e5760405162461bcd60e51b815260206004820152601060248201527f5061757361626c653a20706175736564000000000000000000000000000000006044820152606401610d79565b6000806135e583611fdc565b90508073ffffffffffffffffffffffffffffffffffffffff168473ffffffffffffffffffffffffffffffffffffffff16148061362657506136268185613043565b806127c057508373ffffffffffffffffffffffffffffffffffffffff1661364c84610c9a565b73ffffffffffffffffffffffffffffffffffffffff1614949350505050565b8273ffffffffffffffffffffffffffffffffffffffff1661368b82611fdc565b73ffffffffffffffffffffffffffffffffffffffff16146137145760405162461bcd60e51b815260206004820152602560248201527f4552433732313a207472616e736665722066726f6d20696e636f72726563742060448201527f6f776e65720000000000000000000000000000000000000000000000000000006064820152608401610d79565b73ffffffffffffffffffffffffffffffffffffffff821661379c5760405162461bcd60e51b8152602060048201526024808201527f4552433732313a207472616e7366657220746f20746865207a65726f2061646460448201527f72657373000000000000000000000000000000000000000000000000000000006064820152608401610d79565b6137a783838361473f565b6137b26000826133b4565b73ffffffffffffffffffffffffffffffffffffffff831660009081526068602052604081208054600192906137e8908490615f5c565b909155505073ffffffffffffffffffffffffffffffffffffffff82166000908152606860205260408120805460019290613823908490615e86565b909155505060008181526067602052604080822080547fffffffffffffffffffffffff00000000000000000000000000000000000000001673ffffffffffffffffffffffffffffffffffffffff86811691821790925591518493918716917fddf252ad1be2c89b69c2b068fc378daa952ba7f163c4a11628f55a4df523b3ef91a4505050565b6138b16133a5565b73ffffffffffffffffffffffffffffffffffffffff166138e761012d5473ffffffffffffffffffffffffffffffffffffffff1690565b73ffffffffffffffffffffffffffffffffffffffff16148061390f575061390f6105576133a5565b6116515760405162461bcd60e51b815260206004820152601c60248201527f63616c6c6572206973206e6f74206f776e6572206f722061646d696e000000006044820152606401610d79565b7f4910fdfa16fed3260ed0e7147f7cc6da11a60208b5b9406d12a635614ffd91435460ff161561398e57610e468361481a565b8273ffffffffffffffffffffffffffffffffffffffff166352d1902d6040518163ffffffff1660e01b8152600401602060405180830381865afa925050508015613a13575060408051601f3d9081017fffffffffffffffffffffffffffffffffffffffffffffffffffffffffffffffe0168201909252613a1091810190615f87565b60015b613a855760405162461bcd60e51b815260206004820152602e60248201527f45524331393637557067726164653a206e657720696d706c656d656e7461746960448201527f6f6e206973206e6f7420555550530000000000000000000000000000000000006064820152608401610d79565b7f360894a13ba1a3210667c828492db98dca3e2076cc3735a920a3ca505d382bbc8114613b1a5760405162461bcd60e51b815260206004820152602960248201527f45524331393637557067726164653a20756e737570706f727465642070726f7860448201527f6961626c655555494400000000000000000000000000000000000000000000006064820152608401610d79565b50610e4683838361490a565b613b2e61492f565b60fb80547fffffffffffffffffffffffffffffffffffffffffffffffffffffffffffffff001690557f5db9ee0a495bf2e6ff9c91a7834c1ba4fdd244a5e8aa4e537bd38aeae4b073aa613b7f6133a5565b60405173ffffffffffffffffffffffffffffffffffffffff909116815260200160405180910390a1565b613bb281614981565b60009081526101c6602090815260408083208390556101c7825280832080547fffffffffffffffffffffffffffffffffffffffffffffffffffffffffffffff001690556101ca909152902080547fffffffffffffffffffffffffffffffffffffffffffffffff0000000000000000169055565b600054610100900460ff16613ca25760405162461bcd60e51b815260206004820152602b60248201527f496e697469616c697a61626c653a20636f6e7472616374206973206e6f74206960448201527f6e697469616c697a696e670000000000000000000000000000000000000000006064820152608401610d79565b611d5a8282614a5a565b600054610100900460ff1661170e5760405162461bcd60e51b815260206004820152602b60248201527f496e697469616c697a61626c653a20636f6e7472616374206973206e6f74206960448201527f6e697469616c697a696e670000000000000000000000000000000000000000006064820152608401610d79565b600054610100900460ff16613da65760405162461bcd60e51b815260206004820152602b60248201527f496e697469616c697a61626c653a20636f6e7472616374206973206e6f74206960448201527f6e697469616c697a696e670000000000000000000000000000000000000000006064820152608401610d79565b61170e614afe565b600054610100900460ff16613e2b5760405162461bcd60e51b815260206004820152602b60248201527f496e697469616c697a61626c653a20636f6e7472616374206973206e6f74206960448201527f6e697469616c697a696e670000000000000000000000000000000000000000006064820152608401610d79565b61170e614ba5565b60008181526101c760205260409081902080547fffffffffffffffffffffffffffffffffffffffffffffffffffffffffffffff00169055517f083eea12772ab70fba01c8212d02f3bc5dc29b8540dcdc84298e5dfa22731b9290610fb19083815260200190565b6127106bffffffffffffffffffffffff82161115613f205760405162461bcd60e51b815260206004820152602a60248201527f455243323938313a20726f79616c7479206665652077696c6c2065786365656460448201527f2073616c655072696365000000000000000000000000000000000000000000006064820152608401610d79565b73ffffffffffffffffffffffffffffffffffffffff8216613f835760405162461bcd60e51b815260206004820152601b60248201527f455243323938313a20496e76616c696420706172616d657465727300000000006044820152606401610d79565b60408051808201825273ffffffffffffffffffffffffffffffffffffffff93841681526bffffffffffffffffffffffff928316602080830191825260009687526101c99052919094209351905190911674010000000000000000000000000000000000000000029116179055565b613ff96133a5565b73ffffffffffffffffffffffffffffffffffffffff1661402f61012d5473ffffffffffffffffffffffffffffffffffffffff1690565b73ffffffffffffffffffffffffffffffffffffffff161461170e5760405162461bcd60e51b815260206004820181905260248201527f4f776e61626c653a2063616c6c6572206973206e6f7420746865206f776e65726044820152606401610d79565b61012d805473ffffffffffffffffffffffffffffffffffffffff8381167fffffffffffffffffffffffff0000000000000000000000000000000000000000831681179093556040519116919082907f8be0079c531659141344cd1fd0a4f28419497f9722a3daafe3b4186f6b6457e090600090a35050565b60008281526101ca602052604081205467ffffffffffffffff16908161413b576141348342615e9e565b9050614148565b6141458383615e9e565b90505b60008481526101ca602090815260409182902080547fffffffffffffffffffffffffffffffffffffffffffffffff00000000000000001667ffffffffffffffff8516908117909155915191825285917f2ec2be2c4b90c2cf13ecb6751a24daed6bb741ae5ed3f7371aabf9402f6d62e8910160405180910390a250505050565b6141d0613586565b60fb80547fffffffffffffffffffffffffffffffffffffffffffffffffffffffffffffff001660011790557f62e78cea01bee320cd4e420270b5ea74000d11b0c9f74754ebdbfc544b05a258613b7f6133a5565b60006142308486614c32565b60008581526101c66020526040902086905582156142515761425185612d65565b67ffffffffffffffff82161561426b5761426b858361410a565b50600195945050505050565b60006142838385614c32565b60008481526101c66020526040902085905581156142a4576142a484612d65565b506001949350505050565b8173ffffffffffffffffffffffffffffffffffffffff168373ffffffffffffffffffffffffffffffffffffffff16141561432b5760405162461bcd60e51b815260206004820152601960248201527f4552433732313a20617070726f766520746f2063616c6c6572000000000000006044820152606401610d79565b73ffffffffffffffffffffffffffffffffffffffff8381166000818152606a602090815260408083209487168084529482529182902080547fffffffffffffffffffffffffffffffffffffffffffffffffffffffffffffff001686151590811790915591519182527f17307eab39ab6107e8899845ad3d59bd9653f200f220920489ca2b5937696c31910160405180910390a3505050565b6143ce84848461366b565b6143da84848484614c4c565b612aa15760405162461bcd60e51b815260206004820152603260248201527f4552433732313a207472616e7366657220746f206e6f6e20455243373231526560448201527f63656976657220696d706c656d656e74657200000000000000000000000000006064820152608401610d79565b6127106bffffffffffffffffffffffff821611156144d25760405162461bcd60e51b815260206004820152602a60248201527f455243323938313a20726f79616c7479206665652077696c6c2065786365656460448201527f2073616c655072696365000000000000000000000000000000000000000000006064820152608401610d79565b73ffffffffffffffffffffffffffffffffffffffff82166145355760405162461bcd60e51b815260206004820152601960248201527f455243323938313a20696e76616c6964207265636569766572000000000000006044820152606401610d79565b6040805180820190915273ffffffffffffffffffffffffffffffffffffffff9092168083526bffffffffffffffffffffffff909116602090920182905274010000000000000000000000000000000000000000909102176101c855565b60008181526101c760205260409081902080547fffffffffffffffffffffffffffffffffffffffffffffffffffffffffffffff00166001179055517f4d69b51fee53c28bd8b61fe008151577ca65160b5248f6225e74d64fd4cf732890610fb19083815260200190565b60007fffffffff0000000000000000000000000000000000000000000000000000000082167f80ac58cd00000000000000000000000000000000000000000000000000000000148061468f57507fffffffff0000000000000000000000000000000000000000000000000000000082167f5b5e139f00000000000000000000000000000000000000000000000000000000145b80610c0257507f01ffc9a7000000000000000000000000000000000000000000000000000000007fffffffff00000000000000000000000000000000000000000000000000000000831614610c02565b60006014361080159061470a57506101c35473ffffffffffffffffffffffffffffffffffffffff1633145b1561473a57507fffffffffffffffffffffffffffffffffffffffffffffffffffffffffffffffec36013560601c90565b503390565b614747613586565b6040517fa0894799000000000000000000000000000000000000000000000000000000008152600481018290528190309063a089479990602401602060405180830381865afa15801561479e573d6000803e3d6000fd5b505050506040513d601f19601f820116820180604052508101906147c29190615e69565b1561480f5760405162461bcd60e51b815260206004820152600f60248201527f546f6b656e2069732066726f7a656e00000000000000000000000000000000006044820152606401610d79565b612aa1848484614e0d565b73ffffffffffffffffffffffffffffffffffffffff81163b6148a45760405162461bcd60e51b815260206004820152602d60248201527f455243313936373a206e657720696d706c656d656e746174696f6e206973206e60448201527f6f74206120636f6e7472616374000000000000000000000000000000000000006064820152608401610d79565b7f360894a13ba1a3210667c828492db98dca3e2076cc3735a920a3ca505d382bbc80547fffffffffffffffffffffffff00000000000000000000000000000000000000001673ffffffffffffffffffffffffffffffffffffffff92909216919091179055565b61491383614f13565b6000825111806149205750805b15610e4657612aa18383614f60565b60fb5460ff1661170e5760405162461bcd60e51b815260206004820152601460248201527f5061757361626c653a206e6f74207061757365640000000000000000000000006044820152606401610d79565b600061498c82611fdc565b905061499a8160008461473f565b6149a56000836133b4565b73ffffffffffffffffffffffffffffffffffffffff811660009081526068602052604081208054600192906149db908490615f5c565b909155505060008281526067602052604080822080547fffffffffffffffffffffffff00000000000000000000000000000000000000001690555183919073ffffffffffffffffffffffffffffffffffffffff8416907fddf252ad1be2c89b69c2b068fc378daa952ba7f163c4a11628f55a4df523b3ef908390a45050565b600054610100900460ff16614ad75760405162461bcd60e51b815260206004820152602b60248201527f496e697469616c697a61626c653a20636f6e7472616374206973206e6f74206960448201527f6e697469616c697a696e670000000000000000000000000000000000000000006064820152608401610d79565b8151614aea906065906020850190615498565b508051610e46906066906020840190615498565b600054610100900460ff16614b7b5760405162461bcd60e51b815260206004820152602b60248201527f496e697469616c697a61626c653a20636f6e7472616374206973206e6f74206960448201527f6e697469616c697a696e670000000000000000000000000000000000000000006064820152608401610d79565b60fb80547fffffffffffffffffffffffffffffffffffffffffffffffffffffffffffffff00169055565b600054610100900460ff16614c225760405162461bcd60e51b815260206004820152602b60248201527f496e697469616c697a61626c653a20636f6e7472616374206973206e6f74206960448201527f6e697469616c697a696e670000000000000000000000000000000000000000006064820152608401610d79565b61170e614c2d6133a5565b614092565b611d5a828260405180602001604052806000815250615085565b600073ffffffffffffffffffffffffffffffffffffffff84163b15614e05578373ffffffffffffffffffffffffffffffffffffffff1663150b7a02614c8f6133a5565b8786866040518563ffffffff1660e01b8152600401614cb19493929190615fa0565b6020604051808303816000875af1925050508015614d0a575060408051601f3d9081017fffffffffffffffffffffffffffffffffffffffffffffffffffffffffffffffe0168201909252614d0791810190615fe9565b60015b614dba573d808015614d38576040519150601f19603f3d011682016040523d82523d6000602084013e614d3d565b606091505b508051614db25760405162461bcd60e51b815260206004820152603260248201527f4552433732313a207472616e7366657220746f206e6f6e20455243373231526560448201527f63656976657220696d706c656d656e74657200000000000000000000000000006064820152608401610d79565b805181602001fd5b7fffffffff00000000000000000000000000000000000000000000000000000000167f150b7a02000000000000000000000000000000000000000000000000000000001490506127c0565b5060016127c0565b73ffffffffffffffffffffffffffffffffffffffff8316614e7557614e7081609980546000838152609a60205260408120829055600182018355919091527f72a152ddfb8e864297c917af52ea6c1c68aead0fee1a62673fcc7e0c94979d000155565b614eb2565b8173ffffffffffffffffffffffffffffffffffffffff168373ffffffffffffffffffffffffffffffffffffffff1614614eb257614eb2838261510e565b73ffffffffffffffffffffffffffffffffffffffff8216614ed657610e46816151c5565b8273ffffffffffffffffffffffffffffffffffffffff168273ffffffffffffffffffffffffffffffffffffffff1614610e4657610e468282615274565b614f1c8161481a565b60405173ffffffffffffffffffffffffffffffffffffffff8216907fbc7cd75a20ee27fd9adebab32041f755214dbc6bffa90cc0225b39da2e5c2d3b90600090a250565b606073ffffffffffffffffffffffffffffffffffffffff83163b614fec5760405162461bcd60e51b815260206004820152602660248201527f416464726573733a2064656c65676174652063616c6c20746f206e6f6e2d636f60448201527f6e747261637400000000000000000000000000000000000000000000000000006064820152608401610d79565b6000808473ffffffffffffffffffffffffffffffffffffffff16846040516150149190616006565b600060405180830381855af49150503d806000811461504f576040519150601f19603f3d011682016040523d82523d6000602084013e615054565b606091505b509150915061507c8282604051806060016040528060278152602001616052602791396152c5565b95945050505050565b61508f83836152fe565b61509c6000848484614c4c565b610e465760405162461bcd60e51b815260206004820152603260248201527f4552433732313a207472616e7366657220746f206e6f6e20455243373231526560448201527f63656976657220696d706c656d656e74657200000000000000000000000000006064820152608401610d79565b6000600161511b846123cb565b6151259190615f5c565b6000838152609860205260409020549091508082146151855773ffffffffffffffffffffffffffffffffffffffff841660009081526097602090815260408083208584528252808320548484528184208190558352609890915290208190555b50600091825260986020908152604080842084905573ffffffffffffffffffffffffffffffffffffffff9094168352609781528383209183525290812055565b6099546000906151d790600190615f5c565b6000838152609a6020526040812054609980549394509092849081106151ff576151ff615e3a565b90600052602060002001549050806099838154811061522057615220615e3a565b6000918252602080832090910192909255828152609a9091526040808220849055858252812055609980548061525857615258616022565b6001900381819060005260206000200160009055905550505050565b600061527f836123cb565b73ffffffffffffffffffffffffffffffffffffffff9093166000908152609760209081526040808320868452825280832085905593825260989052919091209190915550565b606083156152d45750816130e2565b8251156152e45782518084602001fd5b8160405162461bcd60e51b8152600401610d7991906155f2565b73ffffffffffffffffffffffffffffffffffffffff82166153615760405162461bcd60e51b815260206004820181905260248201527f4552433732313a206d696e7420746f20746865207a65726f20616464726573736044820152606401610d79565b60008181526067602052604090205473ffffffffffffffffffffffffffffffffffffffff16156153d35760405162461bcd60e51b815260206004820152601c60248201527f4552433732313a20746f6b656e20616c7265616479206d696e746564000000006044820152606401610d79565b6153df6000838361473f565b73ffffffffffffffffffffffffffffffffffffffff82166000908152606860205260408120805460019290615415908490615e86565b909155505060008181526067602052604080822080547fffffffffffffffffffffffff00000000000000000000000000000000000000001673ffffffffffffffffffffffffffffffffffffffff861690811790915590518392907fddf252ad1be2c89b69c2b068fc378daa952ba7f163c4a11628f55a4df523b3ef908290a45050565b8280546154a490615c41565b90600052602060002090601f0160209004810192826154c6576000855561550c565b82601f106154df57805160ff191683800117855561550c565b8280016001018555821561550c579182015b8281111561550c5782518255916020019190600101906154f1565b5061551892915061551c565b5090565b5b80821115615518576000815560010161551d565b7fffffffff000000000000000000000000000000000000000000000000000000008116811461165157600080fd5b60006020828403121561557157600080fd5b81356130e281615531565b60005b8381101561559757818101518382015260200161557f565b83811115612aa15750506000910152565b600081518084526155c081602086016020860161557c565b601f017fffffffffffffffffffffffffffffffffffffffffffffffffffffffffffffffe0169290920160200192915050565b6020815260006130e260208301846155a8565b60006020828403121561561757600080fd5b5035919050565b803573ffffffffffffffffffffffffffffffffffffffff8116811461564257600080fd5b919050565b6000806040838503121561565a57600080fd5b6156638361561e565b946020939093013593505050565b60006020828403121561568357600080fd5b6130e28261561e565b6000806000606084860312156156a157600080fd5b6156aa8461561e565b92506156b86020850161561e565b9150604084013590509250925092565b600080604083850312156156db57600080fd5b50508035926020909101359150565b7f4e487b7100000000000000000000000000000000000000000000000000000000600052604160045260246000fd5b604051601f82017fffffffffffffffffffffffffffffffffffffffffffffffffffffffffffffffe016810167ffffffffffffffff81118282101715615760576157606156ea565b604052919050565b600082601f83011261577957600080fd5b813567ffffffffffffffff811115615793576157936156ea565b6157c460207fffffffffffffffffffffffffffffffffffffffffffffffffffffffffffffffe0601f84011601615719565b8181528460208386010111156157d957600080fd5b816020850160208301376000918101602001919091529392505050565b6000806040838503121561580957600080fd5b823567ffffffffffffffff8082111561582157600080fd5b61582d86838701615768565b9350602085013591508082111561584357600080fd5b5061585085828601615768565b9150509250929050565b6000806040838503121561586d57600080fd5b6158768361561e565b9150602083013567ffffffffffffffff81111561589257600080fd5b61585085828601615768565b80356bffffffffffffffffffffffff8116811461564257600080fd5b6000806000606084860312156158cf57600080fd5b833592506158df6020850161561e565b91506158ed6040850161589e565b90509250925092565b803567ffffffffffffffff8116811461564257600080fd5b6000806040838503121561592157600080fd5b823591506121ee602084016158f6565b60006020828403121561594357600080fd5b813567ffffffffffffffff81111561595a57600080fd5b6127c084828501615768565b801515811461165157600080fd5b803561564281615966565b6000806000806080858703121561599557600080fd5b843593506159a56020860161561e565b925060408501356159b581615966565b91506159c3606086016158f6565b905092959194509250565b600067ffffffffffffffff8211156159e8576159e86156ea565b5060051b60200190565b60008060008060808587031215615a0857600080fd5b8435935060208086013567ffffffffffffffff811115615a2757600080fd5b8601601f81018813615a3857600080fd5b8035615a4b615a46826159ce565b615719565b81815260059190911b8201830190838101908a831115615a6a57600080fd5b928401925b82841015615a8f57615a808461561e565b82529284019290840190615a6f565b80975050505050506159b560408601615974565b60008060408385031215615ab657600080fd5b615abf8361561e565b91506020830135615acf81615966565b809150509250929050565b60008060008060808587031215615af057600080fd5b615af98561561e565b9350615b076020860161561e565b925060408501359150606085013567ffffffffffffffff811115615b2a57600080fd5b615b3687828801615768565b91505092959194509250565b60008060408385031215615b5557600080fd5b615b5e8361561e565b91506121ee6020840161589e565b60008060408385031215615b7f57600080fd5b615b888361561e565b91506121ee6020840161561e565b60008060008060808587031215615bac57600080fd5b843567ffffffffffffffff811115615bc357600080fd5b8501601f81018713615bd457600080fd5b80356020615be4615a46836159ce565b82815260059290921b8301810191818101908a841115615c0357600080fd5b938201935b83851015615c2157843582529382019390820190615c08565b9750615c30905088820161561e565b95505050506159b560408601615974565b600181811c90821680615c5557607f821691505b60208210811415615c8f577f4e487b7100000000000000000000000000000000000000000000000000000000600052602260045260246000fd5b50919050565b8054600090600181811c9080831680615caf57607f831692505b6020808410821415615cea577f4e487b7100000000000000000000000000000000000000000000000000000000600052602260045260246000fd5b818015615cfe5760018114615d2d57615d5a565b7fffffffffffffffffffffffffffffffffffffffffffffffffffffffffffffff00861689528489019650615d5a565b60008881526020902060005b86811015615d525781548b820152908501908301615d39565b505084890196505b50505050505092915050565b6000615d728285615c95565b8351615d8281836020880161557c565b01949350505050565b7f4e487b7100000000000000000000000000000000000000000000000000000000600052601160045260246000fd5b6000817fffffffffffffffffffffffffffffffffffffffffffffffffffffffffffffffff0483118215151615615df257615df2615d8b565b500290565b7f4e487b7100000000000000000000000000000000000000000000000000000000600052601260045260246000fd5b600082615e3557615e35615df7565b500490565b7f4e487b7100000000000000000000000000000000000000000000000000000000600052603260045260246000fd5b600060208284031215615e7b57600080fd5b81516130e281615966565b60008219821115615e9957615e99615d8b565b500190565b600067ffffffffffffffff808316818516808303821115615d8257615d82615d8b565b60007fffffffffffffffffffffffffffffffffffffffffffffffffffffffffffffffff821415615ef357615ef3615d8b565b5060010190565b6000615f068286615c95565b8451615f1681836020890161557c565b7f2f0000000000000000000000000000000000000000000000000000000000000091019081528351615f4f81600184016020880161557c565b0160010195945050505050565b600082821015615f6e57615f6e615d8b565b500390565b600082615f8257615f82615df7565b500690565b600060208284031215615f9957600080fd5b5051919050565b600073ffffffffffffffffffffffffffffffffffffffff808716835280861660208401525083604083015260806060830152615fdf60808301846155a8565b9695505050505050565b600060208284031215615ffb57600080fd5b81516130e281615531565b6000825161601881846020870161557c565b9190910192915050565b7f4e487b7100000000000000000000000000000000000000000000000000000000600052603160045260246000fdfe416464726573733a206c6f772d6c6576656c2064656c65676174652063616c6c206661696c6564a26469706673582212201fe1eec9a83b4b2905dc6437e57f1e2b5e90d578be4f577ed1cbf8094758d81a64736f6c634300080c0033",
  "linkReferences": {},
  "deployedLinkReferences": {}
}